{"abi":[{"type":"function","name":"GEMIndexToOwner","inputs":[{"name":"","type":"uint256","internalType":"uint256"}],"outputs":[{"name":"","type":"address","internalType":"address"}],"stateMutability":"view"},{"type":"function","name":"Gems","inputs":[{"name":"","type":"uint256","internalType":"uint256"}],"outputs":[{"name":"tokenId","type":"uint256","internalType":"uint256"},{"name":"value","type":"uint256","internalType":"uint256"},{"name":"gemCooldownDueDate","type":"uint256","internalType":"uint256"},{"name":"randomRequestId","type":"uint256","internalType":"uint256"},{"name":"rarity","type":"uint8","internalType":"enum GemFactoryStorage.Rarity"},{"name":"miningTry","type":"uint8","internalType":"uint8"},{"name":"isLocked","type":"bool","internalType":"bool"},{"name":"tokenURI","type":"string","internalType":"string"}],"stateMutability":"view"},{"type":"function","name":"addColor","inputs":[{"name":"_colorName","type":"string","internalType":"string"},{"name":"_index1","type":"uint8","internalType":"uint8"},{"name":"_index2","type":"uint8","internalType":"uint8"}],"outputs":[],"stateMutability":"nonpayable"},{"type":"function","name":"aliveImplementation","inputs":[{"name":"","type":"address","internalType":"address"}],"outputs":[{"name":"","type":"bool","internalType":"bool"}],"stateMutability":"view"},{"type":"function","name":"approve","inputs":[{"name":"to","type":"address","internalType":"address"},{"name":"tokenId","type":"uint256","internalType":"uint256"}],"outputs":[],"stateMutability":"nonpayable"},{"type":"function","name":"availableGemsRandomPack","inputs":[],"outputs":[{"name":"","type":"bool","internalType":"bool"}],"stateMutability":"view"},{"type":"function","name":"balanceOf","inputs":[{"name":"_owner","type":"address","internalType":"address"}],"outputs":[{"name":"count","type":"uint256","internalType":"uint256"}],"stateMutability":"view"},{"type":"function","name":"callbackGasLimit","inputs":[],"outputs":[{"name":"","type":"uint32","internalType":"uint32"}],"stateMutability":"view"},{"type":"function","name":"colorName","inputs":[{"name":"","type":"uint8","internalType":"uint8"},{"name":"","type":"uint8","internalType":"uint8"}],"outputs":[{"name":"","type":"string","internalType":"string"}],"stateMutability":"view"},{"type":"function","name":"colors","inputs":[{"name":"","type":"uint256","internalType":"uint256"},{"name":"","type":"uint256","internalType":"uint256"}],"outputs":[{"name":"","type":"uint8","internalType":"uint8"}],"stateMutability":"view"},{"type":"function","name":"colorsCount","inputs":[],"outputs":[{"name":"","type":"uint8","internalType":"uint8"}],"stateMutability":"view"},{"type":"function","name":"createGEM","inputs":[{"name":"_rarity","type":"uint8","internalType":"enum GemFactoryStorage.Rarity"},{"name":"_color","type":"uint8[2]","internalType":"uint8[2]"},{"name":"_quadrants","type":"uint8[4]","internalType":"uint8[4]"},{"name":"_tokenURI","type":"string","internalType":"string"}],"outputs":[{"name":"","type":"uint256","internalType":"uint256"}],"stateMutability":"nonpayable"},{"type":"function","name":"createGEMPool","inputs":[{"name":"_rarities","type":"uint8[]","internalType":"enum GemFactoryStorage.Rarity[]"},{"name":"_colors","type":"uint8[2][]","internalType":"uint8[2][]"},{"name":"_quadrants","type":"uint8[4][]","internalType":"uint8[4][]"},{"name":"_tokenURIs","type":"string[]","internalType":"string[]"}],"outputs":[{"name":"","type":"uint256[]","internalType":"uint256[]"}],"stateMutability":"nonpayable"},{"type":"function","name":"getAirdropAddress","inputs":[],"outputs":[{"name":"","type":"address","internalType":"address"}],"stateMutability":"view"},{"type":"function","name":"getApproved","inputs":[{"name":"tokenId","type":"uint256","internalType":"uint256"}],"outputs":[{"name":"","type":"address","internalType":"address"}],"stateMutability":"view"},{"type":"function","name":"getColorName","inputs":[{"name":"_index1","type":"uint8","internalType":"uint8"},{"name":"_index2","type":"uint8","internalType":"uint8"}],"outputs":[{"name":"","type":"string","internalType":"string"}],"stateMutability":"view"},{"type":"function","name":"getCommonGemsValue","inputs":[],"outputs":[{"name":"","type":"uint256","internalType":"uint256"}],"stateMutability":"view"},{"type":"function","name":"getEpicGemsCooldownPeriod","inputs":[],"outputs":[{"name":"","type":"uint32","internalType":"uint32"}],"stateMutability":"view"},{"type":"function","name":"getEpicGemsMiningPeriod","inputs":[],"outputs":[{"name":"","type":"uint32","internalType":"uint32"}],"stateMutability":"view"},{"type":"function","name":"getEpicGemsValue","inputs":[],"outputs":[{"name":"","type":"uint256","internalType":"uint256"}],"stateMutability":"view"},{"type":"function","name":"getEpicminingTry","inputs":[],"outputs":[{"name":"","type":"uint8","internalType":"uint8"}],"stateMutability":"view"},{"type":"function","name":"getGem","inputs":[{"name":"tokenId","type":"uint256","internalType":"uint256"}],"outputs":[{"name":"","type":"tuple","internalType":"struct GemFactoryStorage.Gem","components":[{"name":"tokenId","type":"uint256","internalType":"uint256"},{"name":"value","type":"uint256","internalType":"uint256"},{"name":"gemCooldownDueDate","type":"uint256","internalType":"uint256"},{"name":"randomRequestId","type":"uint256","internalType":"uint256"},{"name":"rarity","type":"uint8","internalType":"enum GemFactoryStorage.Rarity"},{"name":"miningTry","type":"uint8","internalType":"uint8"},{"name":"isLocked","type":"bool","internalType":"bool"},{"name":"quadrants","type":"uint8[4]","internalType":"uint8[4]"},{"name":"color","type":"uint8[2]","internalType":"uint8[2]"},{"name":"tokenURI","type":"string","internalType":"string"}]}],"stateMutability":"view"},{"type":"function","name":"getGemListAvailableByRarity","inputs":[{"name":"_rarity","type":"uint8","internalType":"enum GemFactoryStorage.Rarity"}],"outputs":[{"name":"","type":"uint256","internalType":"uint256"},{"name":"","type":"uint256[]","internalType":"uint256[]"}],"stateMutability":"view"},{"type":"function","name":"getGemsSupplyTotalValue","inputs":[],"outputs":[{"name":"totalValue","type":"uint256","internalType":"uint256"}],"stateMutability":"view"},{"type":"function","name":"getLegendaryGemsCooldownPeriod","inputs":[],"outputs":[{"name":"","type":"uint32","internalType":"uint32"}],"stateMutability":"view"},{"type":"function","name":"getLegendaryGemsMiningPeriod","inputs":[],"outputs":[{"name":"","type":"uint32","internalType":"uint32"}],"stateMutability":"view"},{"type":"function","name":"getLegendaryGemsValue","inputs":[],"outputs":[{"name":"","type":"uint256","internalType":"uint256"}],"stateMutability":"view"},{"type":"function","name":"getLegendaryminingTry","inputs":[],"outputs":[{"name":"","type":"uint8","internalType":"uint8"}],"stateMutability":"view"},{"type":"function","name":"getMarketPlaceAddress","inputs":[],"outputs":[{"name":"","type":"address","internalType":"address"}],"stateMutability":"view"},{"type":"function","name":"getMythicGemsCooldownPeriod","inputs":[],"outputs":[{"name":"","type":"uint32","internalType":"uint32"}],"stateMutability":"view"},{"type":"function","name":"getMythicGemsMiningPeriod","inputs":[],"outputs":[{"name":"","type":"uint32","internalType":"uint32"}],"stateMutability":"view"},{"type":"function","name":"getMythicGemsValue","inputs":[],"outputs":[{"name":"","type":"uint256","internalType":"uint256"}],"stateMutability":"view"},{"type":"function","name":"getMythicminingTry","inputs":[],"outputs":[{"name":"","type":"uint8","internalType":"uint8"}],"stateMutability":"view"},{"type":"function","name":"getNumberActiveMinersByRarity","inputs":[{"name":"rarity","type":"uint8","internalType":"enum GemFactoryStorage.Rarity"}],"outputs":[{"name":"","type":"uint256","internalType":"uint256"}],"stateMutability":"view"},{"type":"function","name":"getOwnershipTokenCount","inputs":[{"name":"_user","type":"address","internalType":"address"}],"outputs":[{"name":"","type":"uint256","internalType":"uint256"}],"stateMutability":"view"},{"type":"function","name":"getPaused","inputs":[],"outputs":[{"name":"","type":"bool","internalType":"bool"}],"stateMutability":"view"},{"type":"function","name":"getRandomRequest","inputs":[{"name":"_requestId","type":"uint256","internalType":"uint256"}],"outputs":[{"name":"","type":"tuple","internalType":"struct GemFactoryStorage.RequestStatus","components":[{"name":"tokenId","type":"uint256","internalType":"uint256"},{"name":"randomWord","type":"uint256","internalType":"uint256"},{"name":"chosenTokenId","type":"uint256","internalType":"uint256"},{"name":"requester","type":"address","internalType":"address"},{"name":"requested","type":"bool","internalType":"bool"},{"name":"fulfilled","type":"bool","internalType":"bool"}]}],"stateMutability":"view"},{"type":"function","name":"getRareGemsCooldownPeriod","inputs":[],"outputs":[{"name":"","type":"uint32","internalType":"uint32"}],"stateMutability":"view"},{"type":"function","name":"getRareGemsMiningPeriod","inputs":[],"outputs":[{"name":"","type":"uint32","internalType":"uint32"}],"stateMutability":"view"},{"type":"function","name":"getRareGemsValue","inputs":[],"outputs":[{"name":"","type":"uint256","internalType":"uint256"}],"stateMutability":"view"},{"type":"function","name":"getRareminingTry","inputs":[],"outputs":[{"name":"","type":"uint8","internalType":"uint8"}],"stateMutability":"view"},{"type":"function","name":"getRequestCount","inputs":[],"outputs":[{"name":"","type":"uint256","internalType":"uint256"}],"stateMutability":"view"},{"type":"function","name":"getRequestIds","inputs":[],"outputs":[{"name":"","type":"uint256[]","internalType":"uint256[]"}],"stateMutability":"view"},{"type":"function","name":"getTonAddress","inputs":[],"outputs":[{"name":"","type":"address","internalType":"address"}],"stateMutability":"view"},{"type":"function","name":"getTreasuryAddress","inputs":[],"outputs":[{"name":"","type":"address","internalType":"address"}],"stateMutability":"view"},{"type":"function","name":"getUniqueGemsCooldownPeriod","inputs":[],"outputs":[{"name":"","type":"uint32","internalType":"uint32"}],"stateMutability":"view"},{"type":"function","name":"getUniqueGemsMiningPeriod","inputs":[],"outputs":[{"name":"","type":"uint32","internalType":"uint32"}],"stateMutability":"view"},{"type":"function","name":"getUniqueGemsValue","inputs":[],"outputs":[{"name":"","type":"uint256","internalType":"uint256"}],"stateMutability":"view"},{"type":"function","name":"getUniqueminingTry","inputs":[],"outputs":[{"name":"","type":"uint8","internalType":"uint8"}],"stateMutability":"view"},{"type":"function","name":"getValueBasedOnRarity","inputs":[{"name":"_rarity","type":"uint8","internalType":"enum GemFactoryStorage.Rarity"}],"outputs":[{"name":"value","type":"uint256","internalType":"uint256"}],"stateMutability":"view"},{"type":"function","name":"getWstonAddress","inputs":[],"outputs":[{"name":"","type":"address","internalType":"address"}],"stateMutability":"view"},{"type":"function","name":"initialize","inputs":[{"name":"_owner","type":"address","internalType":"address"},{"name":"_wston","type":"address","internalType":"address"},{"name":"_ton","type":"address","internalType":"address"},{"name":"_treasury","type":"address","internalType":"address"}],"outputs":[],"stateMutability":"nonpayable"},{"type":"function","name":"isApprovedForAll","inputs":[{"name":"owner","type":"address","internalType":"address"},{"name":"operator","type":"address","internalType":"address"}],"outputs":[{"name":"","type":"bool","internalType":"bool"}],"stateMutability":"view"},{"type":"function","name":"isTokenLocked","inputs":[{"name":"_tokenId","type":"uint256","internalType":"uint256"}],"outputs":[{"name":"","type":"bool","internalType":"bool"}],"stateMutability":"view"},{"type":"function","name":"meltGEM","inputs":[{"name":"_tokenId","type":"uint256","internalType":"uint256"}],"outputs":[],"stateMutability":"nonpayable"},{"type":"function","name":"name","inputs":[],"outputs":[{"name":"","type":"string","internalType":"string"}],"stateMutability":"view"},{"type":"function","name":"numberMiningGemsByRarity","inputs":[{"name":"","type":"uint8","internalType":"enum GemFactoryStorage.Rarity"}],"outputs":[{"name":"","type":"uint256","internalType":"uint256"}],"stateMutability":"view"},{"type":"function","name":"owner","inputs":[],"outputs":[{"name":"","type":"address","internalType":"address"}],"stateMutability":"view"},{"type":"function","name":"ownerOf","inputs":[{"name":"tokenId","type":"uint256","internalType":"uint256"}],"outputs":[{"name":"","type":"address","internalType":"address"}],"stateMutability":"view"},{"type":"function","name":"ownershipTokenCount","inputs":[{"name":"","type":"address","internalType":"address"}],"outputs":[{"name":"","type":"uint256","internalType":"uint256"}],"stateMutability":"view"},{"type":"function","name":"pause","inputs":[],"outputs":[],"stateMutability":"nonpayable"},{"type":"function","name":"pauseProxy","inputs":[],"outputs":[{"name":"","type":"bool","internalType":"bool"}],"stateMutability":"view"},{"type":"function","name":"paused","inputs":[],"outputs":[{"name":"","type":"bool","internalType":"bool"}],"stateMutability":"view"},{"type":"function","name":"preMintedGemsAvailable","inputs":[],"outputs":[{"name":"GemsAvailable","type":"uint256[]","internalType":"uint256[]"}],"stateMutability":"view"},{"type":"function","name":"proxyImplementation","inputs":[{"name":"","type":"uint256","internalType":"uint256"}],"outputs":[{"name":"","type":"address","internalType":"address"}],"stateMutability":"view"},{"type":"function","name":"renounceOwnership","inputs":[],"outputs":[],"stateMutability":"nonpayable"},{"type":"function","name":"s_requests","inputs":[{"name":"","type":"uint256","internalType":"uint256"}],"outputs":[{"name":"tokenId","type":"uint256","internalType":"uint256"},{"name":"randomWord","type":"uint256","internalType":"uint256"},{"name":"chosenTokenId","type":"uint256","internalType":"uint256"},{"name":"requester","type":"address","internalType":"address"},{"name":"requested","type":"bool","internalType":"bool"},{"name":"fulfilled","type":"bool","internalType":"bool"}],"stateMutability":"view"},{"type":"function","name":"safeTransferFrom","inputs":[{"name":"from","type":"address","internalType":"address"},{"name":"to","type":"address","internalType":"address"},{"name":"tokenId","type":"uint256","internalType":"uint256"}],"outputs":[],"stateMutability":"nonpayable"},{"type":"function","name":"safeTransferFrom","inputs":[{"name":"from","type":"address","internalType":"address"},{"name":"to","type":"address","internalType":"address"},{"name":"tokenId","type":"uint256","internalType":"uint256"},{"name":"data","type":"bytes","internalType":"bytes"}],"outputs":[],"stateMutability":"nonpayable"},{"type":"function","name":"selectorImplementation","inputs":[{"name":"","type":"bytes4","internalType":"bytes4"}],"outputs":[{"name":"","type":"address","internalType":"address"}],"stateMutability":"view"},{"type":"function","name":"setAirdrop","inputs":[{"name":"_airdrop","type":"address","internalType":"address"}],"outputs":[],"stateMutability":"nonpayable"},{"type":"function","name":"setApprovalForAll","inputs":[{"name":"operator","type":"address","internalType":"address"},{"name":"approved","type":"bool","internalType":"bool"}],"outputs":[],"stateMutability":"nonpayable"},{"type":"function","name":"setCallbackGasLimit","inputs":[{"name":"_callbackGasLimit","type":"uint32","internalType":"uint32"}],"outputs":[],"stateMutability":"nonpayable"},{"type":"function","name":"setGemsCooldownPeriods","inputs":[{"name":"_RareGemsCooldownPeriod","type":"uint32","internalType":"uint32"},{"name":"_UniqueGemsCooldownPeriod","type":"uint32","internalType":"uint32"},{"name":"_EpicGemsCooldownPeriod","type":"uint32","internalType":"uint32"},{"name":"_LegendaryGemsCooldownPeriod","type":"uint32","internalType":"uint32"},{"name":"_MythicGemsCooldownPeriod","type":"uint32","internalType":"uint32"}],"outputs":[],"stateMutability":"nonpayable"},{"type":"function","name":"setGemsMiningPeriods","inputs":[{"name":"_RareGemsMiningPeriod","type":"uint32","internalType":"uint32"},{"name":"_UniqueGemsMiningPeriod","type":"uint32","internalType":"uint32"},{"name":"_EpicGemsMiningPeriod","type":"uint32","internalType":"uint32"},{"name":"_LegendaryGemsMiningPeriod","type":"uint32","internalType":"uint32"},{"name":"_MythicGemsMiningPeriod","type":"uint32","internalType":"uint32"}],"outputs":[],"stateMutability":"nonpayable"},{"type":"function","name":"setGemsValue","inputs":[{"name":"_CommonGemsValue","type":"uint256","internalType":"uint256"},{"name":"_RareGemsValue","type":"uint256","internalType":"uint256"},{"name":"_UniqueGemsValue","type":"uint256","internalType":"uint256"},{"name":"_EpicGemsValue","type":"uint256","internalType":"uint256"},{"name":"_LegendaryGemsValue","type":"uint256","internalType":"uint256"},{"name":"_MythicGemsValue","type":"uint256","internalType":"uint256"}],"outputs":[],"stateMutability":"nonpayable"},{"type":"function","name":"setIsLocked","inputs":[{"name":"_tokenId","type":"uint256","internalType":"uint256"},{"name":"_isLocked","type":"bool","internalType":"bool"}],"outputs":[],"stateMutability":"nonpayable"},{"type":"function","name":"setMarketPlaceAddress","inputs":[{"name":"_marketplace","type":"address","internalType":"address"}],"outputs":[],"stateMutability":"nonpayable"},{"type":"function","name":"setMiningTries","inputs":[{"name":"_RareminingTry","type":"uint8","internalType":"uint8"},{"name":"_UniqueminingTry","type":"uint8","internalType":"uint8"},{"name":"_EpicminingTry","type":"uint8","internalType":"uint8"},{"name":"_LegendaryminingTry","type":"uint8","internalType":"uint8"},{"name":"_MythicminingTry","type":"uint8","internalType":"uint8"}],"outputs":[],"stateMutability":"nonpayable"},{"type":"function","name":"setRareMiningTry","inputs":[{"name":"_rareMiningTry","type":"uint8","internalType":"uint8"}],"outputs":[],"stateMutability":"nonpayable"},{"type":"function","name":"setTokenURI","inputs":[{"name":"tokenId","type":"uint256","internalType":"uint256"},{"name":"_tokenURI","type":"string","internalType":"string"}],"outputs":[],"stateMutability":"nonpayable"},{"type":"function","name":"setTreasury","inputs":[{"name":"_treasury","type":"address","internalType":"address"}],"outputs":[],"stateMutability":"nonpayable"},{"type":"function","name":"setWston","inputs":[{"name":"_wston","type":"address","internalType":"address"}],"outputs":[],"stateMutability":"nonpayable"},{"type":"function","name":"supportsInterface","inputs":[{"name":"interfaceId","type":"bytes4","internalType":"bytes4"}],"outputs":[{"name":"","type":"bool","internalType":"bool"}],"stateMutability":"view"},{"type":"function","name":"symbol","inputs":[],"outputs":[{"name":"","type":"string","internalType":"string"}],"stateMutability":"view"},{"type":"function","name":"tokenMiningByUser","inputs":[{"name":"","type":"address","internalType":"address"}],"outputs":[{"name":"","type":"uint256","internalType":"uint256"}],"stateMutability":"view"},{"type":"function","name":"tokenReadyToMine","inputs":[{"name":"","type":"uint256","internalType":"uint256"}],"outputs":[{"name":"","type":"bool","internalType":"bool"}],"stateMutability":"view"},{"type":"function","name":"tokenURI","inputs":[{"name":"tokenId","type":"uint256","internalType":"uint256"}],"outputs":[{"name":"","type":"string","internalType":"string"}],"stateMutability":"view"},{"type":"function","name":"tokensOfOwner","inputs":[{"name":"_owner","type":"address","internalType":"address"}],"outputs":[{"name":"ownerTokens","type":"uint256[]","internalType":"uint256[]"}],"stateMutability":"view"},{"type":"function","name":"totalSupply","inputs":[],"outputs":[{"name":"","type":"uint256","internalType":"uint256"}],"stateMutability":"view"},{"type":"function","name":"transferFrom","inputs":[{"name":"from","type":"address","internalType":"address"},{"name":"to","type":"address","internalType":"address"},{"name":"tokenId","type":"uint256","internalType":"uint256"}],"outputs":[],"stateMutability":"nonpayable"},{"type":"function","name":"transferOwnership","inputs":[{"name":"newOwner","type":"address","internalType":"address"}],"outputs":[],"stateMutability":"nonpayable"},{"type":"function","name":"unpause","inputs":[],"outputs":[],"stateMutability":"nonpayable"},{"type":"function","name":"userMiningStartTime","inputs":[{"name":"","type":"address","internalType":"address"},{"name":"","type":"uint256","internalType":"uint256"}],"outputs":[{"name":"","type":"uint256","internalType":"uint256"}],"stateMutability":"view"},{"type":"function","name":"userMiningToken","inputs":[{"name":"","type":"address","internalType":"address"},{"name":"","type":"uint256","internalType":"uint256"}],"outputs":[{"name":"","type":"bool","internalType":"bool"}],"stateMutability":"view"},{"type":"event","name":"Approval","inputs":[{"name":"owner","type":"address","indexed":true,"internalType":"address"},{"name":"approved","type":"address","indexed":true,"internalType":"address"},{"name":"tokenId","type":"uint256","indexed":true,"internalType":"uint256"}],"anonymous":false},{"type":"event","name":"ApprovalForAll","inputs":[{"name":"owner","type":"address","indexed":true,"internalType":"address"},{"name":"operator","type":"address","indexed":true,"internalType":"address"},{"name":"approved","type":"bool","indexed":false,"internalType":"bool"}],"anonymous":false},{"type":"event","name":"BackgroundColorAdded","inputs":[{"name":"id","type":"uint8","indexed":true,"internalType":"uint8"},{"name":"backgroundColor","type":"string","indexed":false,"internalType":"string"}],"anonymous":false},{"type":"event","name":"BatchMetadataUpdate","inputs":[{"name":"_fromTokenId","type":"uint256","indexed":false,"internalType":"uint256"},{"name":"_toTokenId","type":"uint256","indexed":false,"internalType":"uint256"}],"anonymous":false},{"type":"event","name":"CallBackGasLimitUpdated","inputs":[{"name":"newCallbackGasLimit","type":"uint32","indexed":false,"internalType":"uint32"}],"anonymous":false},{"type":"event","name":"ColorAdded","inputs":[{"name":"id","type":"uint8","indexed":true,"internalType":"uint8"},{"name":"color","type":"string","indexed":false,"internalType":"string"}],"anonymous":false},{"type":"event","name":"ColorValidated","inputs":[{"name":"color_0","type":"uint8","indexed":false,"internalType":"uint8"},{"name":"color_1","type":"uint8","indexed":false,"internalType":"uint8"}],"anonymous":false},{"type":"event","name":"CountGemsByQuadrant","inputs":[{"name":"gemCount","type":"uint256","indexed":false,"internalType":"uint256"},{"name":"tokenIds","type":"uint256[]","indexed":false,"internalType":"uint256[]"}],"anonymous":false},{"type":"event","name":"Created","inputs":[{"name":"tokenId","type":"uint256","indexed":true,"internalType":"uint256"},{"name":"rarity","type":"uint8","indexed":false,"internalType":"enum GemFactoryStorage.Rarity"},{"name":"color","type":"uint8[2]","indexed":false,"internalType":"uint8[2]"},{"name":"miningTry","type":"uint8","indexed":false,"internalType":"uint8"},{"name":"value","type":"uint256","indexed":false,"internalType":"uint256"},{"name":"quadrants","type":"uint8[4]","indexed":false,"internalType":"uint8[4]"},{"name":"cooldownDueDate","type":"uint256","indexed":false,"internalType":"uint256"},{"name":"tokenURI","type":"string","indexed":false,"internalType":"string"},{"name":"owner","type":"address","indexed":false,"internalType":"address"}],"anonymous":false},{"type":"event","name":"EthSentBack","inputs":[{"name":"amount","type":"uint256","indexed":false,"internalType":"uint256"}],"anonymous":false},{"type":"event","name":"GemForged","inputs":[{"name":"gemOwner","type":"address","indexed":false,"internalType":"address"},{"name":"gemsTokenIds","type":"uint256[]","indexed":false,"internalType":"uint256[]"},{"name":"newGemCreatedId","type":"uint256","indexed":false,"internalType":"uint256"},{"name":"newRarity","type":"uint8","indexed":false,"internalType":"enum GemFactoryStorage.Rarity"},{"name":"forgedQuadrants","type":"uint8[4]","indexed":false,"internalType":"uint8[4]"},{"name":"color","type":"uint8[2]","indexed":false,"internalType":"uint8[2]"},{"name":"newValue","type":"uint256","indexed":false,"internalType":"uint256"}],"anonymous":false},{"type":"event","name":"GemMelted","inputs":[{"name":"_tokenId","type":"uint256","indexed":false,"internalType":"uint256"},{"name":"_from","type":"address","indexed":false,"internalType":"address"}],"anonymous":false},{"type":"event","name":"GemMiningClaimed","inputs":[{"name":"tokenId","type":"uint256","indexed":false,"internalType":"uint256"},{"name":"chosenTokenId","type":"uint256","indexed":false,"internalType":"uint256"},{"name":"minedGemCooldownDueDate","type":"uint256","indexed":false,"internalType":"uint256"},{"name":"initialGemCooldownDueDate","type":"uint256","indexed":false,"internalType":"uint256"},{"name":"miner","type":"address","indexed":false,"internalType":"address"}],"anonymous":false},{"type":"event","name":"GemMiningStarted","inputs":[{"name":"tokenId","type":"uint256","indexed":false,"internalType":"uint256"},{"name":"miner","type":"address","indexed":false,"internalType":"address"},{"name":"startMiningTime","type":"uint256","indexed":false,"internalType":"uint256"},{"name":"newminingTry","type":"uint256","indexed":false,"internalType":"uint256"}],"anonymous":false},{"type":"event","name":"GemsCoolDownPeriodModified","inputs":[{"name":"RareGemsCooldownPeriod","type":"uint32","indexed":false,"internalType":"uint32"},{"name":"UniqueGemsCooldownPeriod","type":"uint32","indexed":false,"internalType":"uint32"},{"name":"EpicGemsCooldownPeriod","type":"uint32","indexed":false,"internalType":"uint32"},{"name":"LegendaryGemsCooldownPeriod","type":"uint32","indexed":false,"internalType":"uint32"},{"name":"MythicGemsCooldownPeriod","type":"uint32","indexed":false,"internalType":"uint32"}],"anonymous":false},{"type":"event","name":"GemsMiningPeriodModified","inputs":[{"name":"RareGemsMiningPeriod","type":"uint32","indexed":false,"internalType":"uint32"},{"name":"UniqueGemsMiningPeriod","type":"uint32","indexed":false,"internalType":"uint32"},{"name":"EpicGemsMiningPeriod","type":"uint32","indexed":false,"internalType":"uint32"},{"name":"LegendaryGemsMiningPeriod","type":"uint32","indexed":false,"internalType":"uint32"},{"name":"MythicGemsMiningPeriod","type":"uint32","indexed":false,"internalType":"uint32"}],"anonymous":false},{"type":"event","name":"GemsMiningTryModified","inputs":[{"name":"RareGemsMiningTry","type":"uint8","indexed":false,"internalType":"uint8"},{"name":"UniqueGemsMiningTry","type":"uint8","indexed":false,"internalType":"uint8"},{"name":"EpicGemsMiningTry","type":"uint8","indexed":false,"internalType":"uint8"},{"name":"LegendaryGemsMiningTry","type":"uint8","indexed":false,"internalType":"uint8"},{"name":"MythicGemsMiningTry","type":"uint8","indexed":false,"internalType":"uint8"}],"anonymous":false},{"type":"event","name":"GemsValueModified","inputs":[{"name":"CommonGemsValue","type":"uint256","indexed":false,"internalType":"uint256"},{"name":"RareGemsValue","type":"uint256","indexed":false,"internalType":"uint256"},{"name":"UniqueGemsValue","type":"uint256","indexed":false,"internalType":"uint256"},{"name":"EpicGemsValue","type":"uint256","indexed":false,"internalType":"uint256"},{"name":"LegendaryValue","type":"uint256","indexed":false,"internalType":"uint256"},{"name":"MythicValue","type":"uint256","indexed":false,"internalType":"uint256"}],"anonymous":false},{"type":"event","name":"Initialized","inputs":[{"name":"version","type":"uint64","indexed":false,"internalType":"uint64"}],"anonymous":false},{"type":"event","name":"MetadataUpdate","inputs":[{"name":"_tokenId","type":"uint256","indexed":false,"internalType":"uint256"}],"anonymous":false},{"type":"event","name":"MiningCancelled","inputs":[{"name":"_tokenId","type":"uint256","indexed":false,"internalType":"uint256"},{"name":"owner","type":"address","indexed":false,"internalType":"address"},{"name":"timestamp","type":"uint256","indexed":false,"internalType":"uint256"}],"anonymous":false},{"type":"event","name":"NoGemAvailable","inputs":[{"name":"tokenId","type":"uint256","indexed":false,"internalType":"uint256"},{"name":"initialGemCooldownDueDate","type":"uint256","indexed":false,"internalType":"uint256"},{"name":"miner","type":"address","indexed":false,"internalType":"address"}],"anonymous":false},{"type":"event","name":"OwnershipTransferred","inputs":[{"name":"previousOwner","type":"address","indexed":true,"internalType":"address"},{"name":"newOwner","type":"address","indexed":true,"internalType":"address"}],"anonymous":false},{"type":"event","name":"Paused","inputs":[{"name":"account","type":"address","indexed":false,"internalType":"address"}],"anonymous":false},{"type":"event","name":"RandomGemRequested","inputs":[{"name":"tokenId","type":"uint256","indexed":false,"internalType":"uint256"},{"name":"requestNumber","type":"uint256","indexed":false,"internalType":"uint256"}],"anonymous":false},{"type":"event","name":"Transfer","inputs":[{"name":"from","type":"address","indexed":true,"internalType":"address"},{"name":"to","type":"address","indexed":true,"internalType":"address"},{"name":"tokenId","type":"uint256","indexed":true,"internalType":"uint256"}],"anonymous":false},{"type":"event","name":"TransferGEM","inputs":[{"name":"from","type":"address","indexed":false,"internalType":"address"},{"name":"to","type":"address","indexed":false,"internalType":"address"},{"name":"tokenId","type":"uint256","indexed":false,"internalType":"uint256"},{"name":"gemCooldownDueDate","type":"uint256","indexed":false,"internalType":"uint256"}],"anonymous":false},{"type":"event","name":"Unpaused","inputs":[{"name":"account","type":"address","indexed":false,"internalType":"address"}],"anonymous":false},{"type":"error","name":"AddressZero","inputs":[]},{"type":"error","name":"ColorNotExist","inputs":[]},{"type":"error","name":"ContractNotPaused","inputs":[]},{"type":"error","name":"ContractPaused","inputs":[]},{"type":"error","name":"CooldownPeriodNotElapsed","inputs":[]},{"type":"error","name":"ERC721IncorrectOwner","inputs":[{"name":"sender","type":"address","internalType":"address"},{"name":"tokenId","type":"uint256","internalType":"uint256"},{"name":"owner","type":"address","internalType":"address"}]},{"type":"error","name":"ERC721InsufficientApproval","inputs":[{"name":"operator","type":"address","internalType":"address"},{"name":"tokenId","type":"uint256","internalType":"uint256"}]},{"type":"error","name":"ERC721InvalidApprover","inputs":[{"name":"approver","type":"address","internalType":"address"}]},{"type":"error","name":"ERC721InvalidOperator","inputs":[{"name":"operator","type":"address","internalType":"address"}]},{"type":"error","name":"ERC721InvalidOwner","inputs":[{"name":"owner","type":"address","internalType":"address"}]},{"type":"error","name":"ERC721InvalidReceiver","inputs":[{"name":"receiver","type":"address","internalType":"address"}]},{"type":"error","name":"ERC721InvalidSender","inputs":[{"name":"sender","type":"address","internalType":"address"}]},{"type":"error","name":"ERC721NonexistentToken","inputs":[{"name":"tokenId","type":"uint256","internalType":"uint256"}]},{"type":"error","name":"FailedToSendEthBack","inputs":[]},{"type":"error","name":"GemAlreadyPicked","inputs":[]},{"type":"error","name":"GemIsLocked","inputs":[]},{"type":"error","name":"GemIsNotLocked","inputs":[]},{"type":"error","name":"InvalidInitialization","inputs":[]},{"type":"error","name":"InvalidQuadrant","inputs":[{"name":"quadrant","type":"uint8","internalType":"uint8"},{"name":"value","type":"uint8","internalType":"uint8"}]},{"type":"error","name":"InvalidSumOfQuadrants","inputs":[]},{"type":"error","name":"MiningPeriodNotElapsed","inputs":[]},{"type":"error","name":"MismatchedArrayLengths","inputs":[]},{"type":"error","name":"NewGemInvalidQuadrant","inputs":[{"name":"quadrantIndex","type":"uint8","internalType":"uint8"},{"name":"expectedValue1","type":"uint8","internalType":"uint8"},{"name":"expectedValue2","type":"uint8","internalType":"uint8"}]},{"type":"error","name":"NoMiningTryLeft","inputs":[]},{"type":"error","name":"NotGemOwner","inputs":[]},{"type":"error","name":"NotInitializing","inputs":[]},{"type":"error","name":"NotMining","inputs":[]},{"type":"error","name":"OwnableInvalidOwner","inputs":[{"name":"owner","type":"address","internalType":"address"}]},{"type":"error","name":"OwnableUnauthorizedAccount","inputs":[{"name":"account","type":"address","internalType":"address"}]},{"type":"error","name":"ReentrancyGuardReentrantCall","inputs":[]},{"type":"error","name":"RequestNotMade","inputs":[]},{"type":"error","name":"SameSenderAndRecipient","inputs":[]},{"type":"error","name":"SumOfQuadrantsTooHigh","inputs":[{"name":"sum","type":"uint8","internalType":"uint8"},{"name":"rarity","type":"string","internalType":"string"}]},{"type":"error","name":"TransferFailed","inputs":[]},{"type":"error","name":"URIQueryForNonexistentToken","inputs":[{"name":"tokenId","type":"uint256","internalType":"uint256"}]},{"type":"error","name":"UnauthorizedCaller","inputs":[{"name":"caller","type":"address","internalType":"address"}]},{"type":"error","name":"WrongRarity","inputs":[]}],"bytecode":{"object":"0x608060405234601f57600e6024565b6040516168e361006682396168e390f35b600080fd5b602a602c565b565b602a6057565b603c603c603c9290565b90565b603c60016032565b90603c603c6053926032565b9055565b602a605f603f565b601f604756fe6080604052600436101561001257600080fd5b60003560e01c806301ffc9a7146105fd578063044bc779146105f857806304e9fd7e146105f357806306fdde03146105ee578063081812fc146105e9578063093ba92b146105e4578063095ea7b3146105df5780630a8ce210146105da5780630b513d99146105d55780630ff1ac67146105d0578063162094c4146105cb578063166b35c9146105c657806318160ddd146105c15780631aac071d146105bc5780631c880254146105b757806323b872dd146105b2578063247ee388146105ad57806324f74697146105a8578063276a28a3146105a357806333d5efdb1461059e578063356edf74146105995780633d007e57146105945780633ec7af4a1461058f5780633f4ba83a1461058a5780633fad18341461058557806342842e0e146105805780634cbe43601461057b5780634d723a751461057657806350d2a27614610571578063550d01a31461056c5780635c975abb146105675780635f2d00231461056257806361f7f6d71461055d5780636352211e1461055857806363a8fd8914610553578063676f79f11461054e5780636805b84b14610549578063694eaa40146105445780636ae638d01461053f5780636c106fea1461053a57806370a08231146104ae578063715018a61461053557806372820dbc1461053057806375441e2a1461052b57806377207e37146105265780637866369b146105215780638456cb591461051c5780638462151c14610517578063864ccaac146105125780638d41fe301461050d5780638da5cb5b146105085780638e80a1651461050357806394ca6449146104fe57806395d89b41146104f957806397125c40146104f4578063975781b7146104ef57806397d88628146104ea5780639aa19da7146104e55780639d3415f6146104e0578063a168fa89146104db578063a1770a7d146104d6578063a20fa9e9146104d1578063a22cb465146104cc578063a4eb718c146104c7578063aa551879146104c2578063aa723bb7146104bd578063aae31df3146104b8578063ac33a273146104b3578063b4f6eae4146104ae578063b88d4fde146104a9578063b911135f146104a4578063bad39efd1461049f578063c0c2fd991461049a578063c138907214610495578063c28fb6b714610490578063c61a46c51461048b578063c68a538514610486578063c87b56dd14610481578063cc98ef961461047c578063cec21acb14610477578063e002460414610472578063e0dd8f1b1461046d578063e316dc1314610468578063e985e9c514610463578063ea094c391461045e578063ea2b7b4314610459578063f0f4426014610454578063f2a6094d1461044f578063f2fde38b1461044a578063f317d7dd14610445578063f41c472914610440578063f8c8765e1461043b578063f99a6bb514610436578063fb250435146104315763ff198a1d0361060257612178565b61210a565b6120f2565b6120d6565b612085565b612024565b611f7d565b611f62565b611f4a565b611f2e565b611f13565b611edd565b611e9f565b611e84565b611e69565b611e4e565b611e26565b611e0b565b611df0565b611dd5565b611dba565b611d9f565b611d74565b611d59565b611d3e565b611d12565b611609565b611ca8565b611c81565b611bf7565b611aae565b611a96565b611a69565b611a32565b611a16565b6119ce565b6118cf565b6118b4565b611899565b61187a565b61180f565b6117e4565b6117b6565b611785565b61172f565b611714565b6116f9565b6116de565b6116c6565b6116ab565b611680565b611668565b61163c565b611624565b6115ee565b6115d3565b6115b8565b61159d565b611581565b61151b565b6114f5565b6114be565b611304565b611196565b61116f565b61110f565b61109d565b61104a565b611031565b611016565b610ffe565b610fe3565b610fc8565b610fad565b610f6c565b610f51565b610f36565b610ef5565b610ec8565b610e84565b610e68565b610de8565b610db9565b610da0565b610d40565b6108d7565b610881565b610863565b6107f8565b6107dd565b61079b565b610772565b6106a6565b610644565b600080fd5b6001600160e01b031981165b0361060257565b9050359061062782610607565b565b906020828203126106025761063d9161061a565b90565b9052565b346106025761067261065f61065a366004610629565b6121b7565b6040515b91829182901515815260200190565b0390f35b600091031261060257565b6001600160a01b031690565b61064090610681565b602081019291610627919061068d565b34610602576106b6366004610676565b6106726106c16121e3565b60405191829182610696565b60ff8116610613565b90503590610627826106cd565b91906040838203126106025761063d9060206106ff82866106d6565b94016106d6565b60005b8381106107195750506000910152565b8181015183820152602001610709565b61074a61075360209361075d9361073e815190565b80835293849260200190565b95869101610706565b601f01601f191690565b0190565b602080825261063d92910190610729565b346106025761067261078e6107883660046106e3565b906121f6565b6040515b91829182610761565b34610602576107ab366004610676565b61067261078e612216565b80610613565b90503590610627826107b6565b906020828203126106025761063d916107bc565b34610602576106726106c16107f33660046107c9565b612229565b3461060257610808366004610676565b61067261081361224f565b6040519182918263ffffffff909116815260200190565b61061381610681565b905035906106278261082a565b91906040838203126106025761063d90602061085c8286610833565b94016107bc565b346106025761087c610876366004610840565b90612259565b604051005b3461060257610891366004610676565b61067261089c612264565b6040519182918290815260200190565b6006111561060257565b90503590610627826108ac565b906020828203126106025761063d916108b6565b346106025761067261089c6108ed3660046108c3565b61226e565b634e487b7160e01b600052604160045260246000fd5b90601f01601f191681019081106001600160401b0382111761092957604052565b6108f2565b9061062761093b60405190565b9283610908565b6001600160401b0381116109295760208091020190565b9092919261096e61096982610942565b61092e565b938185526020808601920283019281841161060257915b8383106109925750505050565b602080916109a084866108b6565b815201920191610985565b9080601f830112156106025781602061063d93359101610959565b6001600160401b0381116109295760200290565b909291926109ea610969826109c6565b93602085920283019281841161060257915b838310610a095750505050565b60208091610a1784866106d6565b8152019201916109fc565b9080601f8301121561060257600261063d926109da565b90929192610a4961096982610942565b93818552604060208601920283019281841161060257915b838310610a6e5750505050565b6020604091610a7d8486610a22565b815201920191610a61565b9080601f830112156106025781602061063d93359101610a39565b90929192610ab3610969826109c6565b93602085920283019281841161060257915b838310610ad25750505050565b60208091610ae084866106d6565b815201920191610ac5565b9080601f8301121561060257600461063d92610aa3565b90929192610b1261096982610942565b93818552608060208601920283019281841161060257915b838310610b375750505050565b6020608091610b468486610aeb565b815201920191610b2a565b9080601f830112156106025781602061063d93359101610b02565b6001600160401b03811161092957602090601f01601f19160190565b90826000939282370152565b90929192610ba461096982610b6c565b938185528183011161060257610627916020850190610b88565b9080601f830112156106025781602061063d93359101610b94565b929190610be861096982610942565b93818552602080860192028101918383116106025781905b838210610c0e575050505050565b81356001600160401b03811161060257602091610c2e8784938701610bbe565b815201910190610c00565b9080601f830112156106025781602061063d93359101610bd9565b906080828203126106025781356001600160401b0381116106025781610c7b9184016109ab565b9260208301356001600160401b0381116106025782610c9b918501610a88565b9260408101356001600160401b0381116106025783610cbb918301610b51565b9260608201356001600160401b0381116106025761063d9201610c39565b90610cf9610cf2610ce8845190565b8084529260200190565b9260200190565b9060005b818110610d0a5750505090565b909192610d27610d206001928651815260200190565b9460200190565b929101610cfd565b602080825261063d92910190610cd9565b3461060257610672610d5f610d56366004610c54565b9291909161253b565b60405191829182610d2f565b91909160408184031261060257610d8283826107bc565b9260208201356001600160401b0381116106025761063d9201610bbe565b346106025761087c610db3366004610d6b565b90612549565b3461060257610dc9366004610676565b610672610dd4612569565b6040519182918260ff909116815260200190565b3461060257610df8366004610676565b61067261089c6125a4565b63ffffffff8116610613565b9050359061062782610e03565b919060a08382031261060257610e328184610e0f565b92610e408260208301610e0f565b9261063d610e518460408501610e0f565b936080610e618260608701610e0f565b9401610e0f565b346106025761087c610e7b366004610e1c565b93929092612816565b3461060257610e94366004610676565b610672610813612823565b90916060828403126106025761063d610eb88484610833565b93604061085c8260208701610833565b346106025761087c610edb366004610e9f565b91612949565b906020828203126106025761063d91610833565b346106025761087c610f08366004610ee1565b612996565b61063d916008021c5b63ffffffff1690565b9061063d9154610f0d565b61063d60106011610f1f565b3461060257610f46366004610676565b610672610813610f2a565b346106025761067261065f610f673660046107c9565b61299f565b3461060257610f7c366004610676565b6106726108136129cd565b61063d916008021c5b60ff1690565b9061063d9154610f87565b61063d60006006610f96565b3461060257610fbd366004610676565b610672610dd4610fa1565b3461060257610fd8366004610676565b6106726106c16129d7565b3461060257610ff3366004610676565b610672610dd46129f7565b346106025761100e366004610676565b61087c612a9c565b3461060257611026366004610676565b61067261089c612aa4565b346106025761087c611044366004610e9f565b91612acd565b346106025761105a366004610676565b61067261089c612aee565b801515610613565b9050359061062782611065565b91906040838203126106025761063d90602061109682866107bc565b940161106d565b346106025761087c6110b036600461107a565b90612bcd565b6001600160e01b03191690565b906110cd906110b6565b600052602052604060002090565b61063d916008021c6001600160a01b031690565b9061063d91546110db565b600061110a61063d9260036110c3565b6110ef565b34610602576106726106c1611125366004610629565b6110fa565b61063d90610681906001600160a01b031682565b61063d9061112a565b61063d9061113e565b906110cd90611147565b600061116a61063d926002611150565b610f96565b346106025761067261065f611185366004610ee1565b61115a565b61063d60006010610f96565b34610602576111a6366004610676565b61067261065f61118a565b610f9061063d61063d9260ff1690565b906110cd906111b1565b634e487b7160e01b600052600060045260246000fd5b634e487b7160e01b600052602260045260246000fd5b9060016002830492168015611217575b602083101461121257565b6111e1565b91607f1691611207565b8054600093929161123e611234836111f7565b8085529360200190565b9160018116908115611290575060011461125757505050565b61126a9192939450600052602060002090565b916000925b81841061127c5750500190565b80548484015260209093019260010161126f565b92949550505060ff1916825215156020020190565b9061063d91611221565b906106276112c9926112c060405190565b938480926112a5565b0383610908565b906000106112e15761063d906112af565b6111cb565b6112ff61063d926112fa60009360056111c1565b6111c1565b6112d0565b346106025761067261078e61131a3660046106e3565b906112e6565b634e487b7160e01b600052603260045260246000fd5b805482101561135957611350600891600052602060002090565b91020190600090565b611320565b61063d9081565b61063d905461135e565b61063d90610f90565b61063d905461136f565b61063d9060081c610f90565b61063d9054611382565b61063d9060101c610f90565b61063d9054611398565b6004906113b9825490565b811015610602576113c991611336565b50906113d482611365565b916113e160018201611365565b916113ee60028301611365565b916113fb60038201611365565b9161140860048301611378565b916114156004820161138e565b9161063d6007611427600485016113a4565b93016112af565b634e487b7160e01b600052602160045260246000fd5b6006111561144e57565b61142e565b9061062782611444565b61063d90611453565b6106409061145d565b908152610100810196909590949093909290916020870152604086015260608501526080840161149e91611466565b60ff1660a0830152151560c08201528082039060e0015261063d91610729565b34610602576106726114d96114d43660046107c9565b6113ae565b946114ec98969894919493929360405190565b9889988961146f565b34610602576106726106c161150b3660046107c9565b612bd7565b61063d600080610f96565b346106025761152b366004610676565b61067261065f611510565b61063d61063d61063d9290565b906110cd90611536565b61063d916008021c81565b9061063d915461154d565b61157c61063d92611577600093600c611150565b611543565b611558565b346106025761067261089c611597366004610840565b90611563565b34610602576115ad366004610676565b61067261065f612be0565b34610602576115c8366004610676565b6106726106c1612bea565b34610602576115e3366004610676565b6106726106c1612bf4565b34610602576115fe366004610676565b610672610dd4612bfe565b346106025761067261089c61161f366004610ee1565b612c08565b3461060257611634366004610676565b61087c612c5c565b346106025761087c61164f366004610ee1565b612c7b565b906020828203126106025761063d916106d6565b346106025761087c61167b366004611654565b612ca8565b3461060257611690366004610676565b610672610813612cb3565b600061116a61063d92600d611543565b346106025761067261065f6116c13660046107c9565b61169b565b34610602576116d6366004610676565b61087c612d0f565b3461060257610672610d5f6116f4366004610ee1565b612d26565b3461060257611709366004610676565b610672610813612e0a565b3461060257611724366004610676565b610672610dd4612e2a565b346106025761173f366004610676565b6106726106c1612e34565b90916060828403126106025781356001600160401b038111610602576117758461063d928501610bbe565b9360406106ff82602087016106d6565b346106025761087c61179836600461174a565b9161326f565b90815260406020820181905261063d92910190610cd9565b34610602576117ce6117c93660046108c3565b61327a565b906106726117db60405190565b9283928361179e565b34610602576117f4366004610676565b61067261078e6133a6565b600061110a61063d926008611543565b34610602576106726106c16118253660046107c9565b6117ff565b90610100828203126106025761184081836108b6565b9261184e8260208501610a22565b9261185c8360608301610aeb565b9260e08201356001600160401b0381116106025761063d9201610bbe565b346106025761067261089c61189036600461182a565b92919091614302565b34610602576118a9366004610676565b61067261089c614310565b34610602576118c4366004610676565b61067261065f61431a565b34610602576118df366004610676565b61067261089c614389565b61063d90610681565b61063d90546118ea565b61063d9060a01c610f90565b61063d90546118fd565b61063d9060a81c610f90565b61063d9054611913565b61193490600f611543565b9061193e82611365565b9161194b60018201611365565b9161195860028301611365565b91611965600382016118f3565b9161063d6003611976818501611909565b930161191f565b91946119bd6119c6929897956119b360a0966119ac6106279a6119a560c08a019e60008b0152565b6020890152565b6040870152565b606085019061068d565b15156080830152565b019015159052565b34610602576106726119e96119e43660046107c9565b611929565b926119f996949692919260405190565b9687968761197d565b61116a61063d92611577600093600b611150565b346106025761067261065f611a2c366004610840565b90611a02565b3461060257611a42366004610676565b61067261089c614393565b91906040838203126106025761063d9060206110968286610833565b346106025761087c611a7c366004611a4d565b9061439d565b906020828203126106025761063d91610e0f565b346106025761087c611aa9366004611a82565b614412565b346106025761067261089c611ac43660046108c3565b61441b565b611ad9611ad560049390565b9190565b6000915b838310611aea5750505050565b611b00610cf2600192845160ff16815260200190565b92019190611add565b611b15611ad560029390565b6000915b838310611b265750505050565b611b3c610cf2600192845160ff16815260200190565b92019190611b19565b8051825261063d916101c081019161012090611b6660208201516020850152565b611b7560408201516040850152565b611b8460608201516060850152565b611b9660808201516080850190611466565b60a08181015160ff169084015260c081810151151590840152611bc160e082015160e0850190611ac9565b611bd5610100820151610160850190611b09565b0151906101a0818403910152610729565b602080825261063d92910190611b45565b3461060257610672611c12611c0d3660046107c9565b6146b7565b60405191829182611be6565b80518252610627919060a0908190611c3b60208201516020860152565b611c4a60408201516040860152565b611c5c6060820151606086019061068d565b60808181015115159085015201511515910152565b60c0810192916106279190611c1e565b3461060257610672611c9c611c973660046107c9565b61483c565b60405191829182611c71565b3461060257611cb8366004610676565b610672610d5f6148dd565b9060808282031261060257611cd88183610833565b92611ce68260208501610833565b92611cf483604083016107bc565b9260608201356001600160401b0381116106025761063d9201610bbe565b346106025761087c611d25366004611cc3565b9291909161498a565b600061110a61063d926001611543565b34610602576106726106c1611d543660046107c9565b611d2e565b3461060257611d69366004610676565b610672610813614996565b3461060257611d84366004610676565b61067261089c6149a0565b600061157c61063d92600a611150565b346106025761067261089c611db5366004610ee1565b611d8f565b3461060257611dca366004610676565b610672610d5f6149aa565b3461060257611de5366004610676565b610672610dd46149b7565b3461060257611e00366004610676565b6106726108136149d7565b346106025761067261078e611e213660046107c9565b6149e1565b346106025761087c611e39366004610ee1565b614a38565b600061157c61063d926009611150565b346106025761067261089c611e64366004610ee1565b611e3e565b3461060257611e79366004610676565b6106726106c1614a41565b3461060257611e94366004610676565b610672610813614a61565b3461060257611eaf366004610676565b61067261089c614a6b565b91906040838203126106025761063d906020611ed68286610833565b9401610833565b346106025761067261065f611ef3366004611eba565b90614a75565b906110cd9061145d565b600061157c61063d92600e611ef9565b346106025761067261089c611f293660046108c3565b611f03565b346106025761087c611f41366004610e1c565b93929092614bed565b346106025761087c611f5d366004610ee1565b614c11565b3461060257611f72366004610676565b610672610813614c1a565b346106025761087c611f90366004610ee1565b614c7e565b91906040838203126106025761063d90602061085c82866107bc565b805482101561135957611350600191600052602060002090565b9091906002831015611359576020611fe260019290565b8185040193060290565b600790611ff7825490565b8110156106025761200791611fb1565b5060028210156106025761063d9161201e91611fcb565b90610f96565b3461060257610672610dd461203a366004611f95565b90611fec565b919060a0838203126106025761205681846106d6565b9261206482602083016106d6565b9261063d61207584604085016106d6565b9360806106ff82606087016106d6565b346106025761087c612098366004612040565b93929092614dd0565b608081830312610602576120b58282610833565b9261063d6120c68460208501610833565b936060611ed68260408701610833565b346106025761087c6120e93660046120a1565b92919091615065565b346106025761087c6121053660046107c9565b615255565b346106025761211a366004610676565b610672610813615274565b909160c0828403126106025761213b83836107bc565b9261214981602085016107bc565b9261215782604083016107bc565b9261063d61216884606085016107bc565b9360a061085c82608087016107bc565b346106025761087c61218b366004612125565b94939093929192615363565b6110b66121a461063d9290565b60e01b90565b61063d6349064906612197565b6121c26110b66121aa565b6001600160e01b03198216149081156121d9575090565b61063d9150615371565b61063d601a6118f3565b61063d906112af565b61063d916112fa61221192612209606090565b5060056111c1565b6121ed565b61063d60006122236153bc565b016121ed565b61063d90612236816153e0565b50615430565b61063d90610f16565b61063d905461223c565b61063d6011612245565b610627913391615450565b61063d6013611365565b6122786000611453565b61228182611453565b03612291575061063d6012611365565b61229b6001611453565b6122a482611453565b036122b4575061063d6013611365565b6122be6002611453565b6122c782611453565b036122d7575061063d6014611365565b6122e16003611453565b6122ea82611453565b036122fa575061063d6015611365565b6123046004611453565b61230d82611453565b0361231d575061063d6016611365565b61233061232a6005611453565b91611453565b0361233f5761063d6017611365565b60405162461bcd60e51b815260206004820152600c60248201526b77726f6e672072617269747960a01b6044820152606490fd5b0390fd5b9392919061238d612388601c6118f3565b610681565b61239633610681565b036123a45761063d946123bf565b60405163d86ad9cf60e01b8152806123733360048301610696565b939291906123cd6010611378565b6123da5761063d9461244a565b60405163ab35696f60e01b8152600490fd5b906123f961096983610942565b918252565b369037565b90610627612419612413846123ec565b93610942565b601f1901602084016123fe565b9061242f825190565b811015611359576020809102010190565b61063d9051611453565b50805190939192909361245e61063d855190565b8514158015612527575b8015612513575b6125015761248361247e825190565b612403565b9561248e6000611536565b865b8110156124f8576124f1816124eb6124de6124b66124b16124909689612426565b612440565b6124c0848c612426565b516124cb858b612426565b51906124d7868d612426565b5192614302565b6124e8838d612426565b52565b60010190565b905061248e565b50945050505050565b604051632b477e7160e11b8152600490fd5b5061251f61063d845190565b85141561246f565b5061253361063d835190565b851415612468565b61063d939291906060612377565b906106279161545d565b61063d9060201c610f90565b61063d9054612553565b61063d601061255f565b634e487b7160e01b600052601160045260246000fd5b9190612594565b9290565b820391821161259f57565b612573565b61063d6125b060045490565b6125ba6001611536565b90612589565b90610627949392916125d0615481565b612770565b9063ffffffff60d01b9060d01b5b9181191691161790565b610f1661063d61063d9263ffffffff1690565b9061261061063d612617926125ed565b82546125d5565b9055565b9063ffffffff906125e3565b9061263761063d612617926125ed565b825461261b565b9063ffffffff60201b9060201b6125e3565b9061266061063d612617926125ed565b825461263e565b9063ffffffff60401b9060401b6125e3565b9061268961063d612617926125ed565b8254612667565b9063ffffffff60601b9060601b6125e3565b906126b261063d612617926125ed565b8254612690565b61063d9060d01c610f16565b61063d90546126b9565b61063d9060201c610f16565b61063d90546126cf565b61063d9060401c610f16565b61063d90546126e5565b61063d9060601c610f16565b61063d90546126fb565b90959492610627946127576127649261274a60809661273d60a088019c600089019063ffffffff169052565b63ffffffff166020870152565b63ffffffff166040850152565b63ffffffff166060830152565b019063ffffffff169052565b6127a0926127926127a796959361278b612799946010612600565b6011612627565b6011612650565b6011612679565b60116126a2565b7f3b286e7240533ee960e022a65587f2b49f2264d9390fe4d81a57a23f1054d8b96127d260106126c5565b6127dc6011612245565b906128116127ea60116126db565b6127f460116126f1565b6127fe6011612707565b9161280860405190565b95869586612711565b0390a1565b90610627949392916125c0565b61063d60106126c5565b91906128396010611378565b6123da576106279261287d565b61287961062794612872606094989795612868608086019a600087019061068d565b602085019061068d565b6040830152565b0152565b92919261288981610681565b61289283610681565b14612937576004936128af856128a88382611336565b50016113a4565b612918578061290560026128fe837f77bd69ae3010e08d8037a446f79c7047277d4cf3643e8690c9482338100f1c8c98996128ee612811978a8a6154cf565b6128f9828a8a615579565b611336565b5001611365565b9061290f60405190565b94859485612846565b6123738561292560405190565b635399ebf560e01b8152918291820190565b604051636879d8a360e01b8152600490fd5b90610627929161282d565b61062790612960615481565b61298b565b906001600160a01b03906125e3565b9061298461063d61261792611147565b8254612965565b61062790601a612974565b61062790612954565b60046128a861063d926129b0600090565b5082611336565b61063d9060701c610f16565b61063d90546129b7565b61063d60106129c3565b61063d601e6118f3565b61063d9060281c610f90565b61063d90546129e1565b61063d60106129ed565b612a09615481565b610627612a1d612a196010611378565b1590565b612a2957610627612a5b565b60405163dcdde9dd60e01b8152600490fd5b9060ff906125e3565b90612a5461063d61261792151590565b8254612a3b565b612a6760006010612a44565b7f5db9ee0a495bf2e6ff9c91a7834c1ba4fdd244a5e8aa4e537bd38aeae4b073aa612a9160405190565b806128113382610696565b610627612a01565b61063d6019611365565b906123f961096983610b6c565b61063d6000612aae565b61063d612abb565b909161062792612adb612ac5565b9261498a565b9190820180921161259f57565b6000906004612afc60045490565b91612b076000611536565b935b835b851015612b4057612b38612b31612b0b92612b2b60016128fe8a89611336565b90612ae1565b9560010190565b949050612b09565b9350915050565b90612b55612388601e6118f3565b612b5e33610681565b141580612b73575b6123a45761062791612bb6565b50612b81612388601d6118f3565b612b8a33610681565b1415612b66565b9062ff00009060101b6125e3565b90612baf61063d61261792151590565b8254612b91565b906004612bc66106279382611336565b5001612b9f565b9061062791612b47565b61063d906153e0565b61063d6010611378565b61063d601d6118f3565b61063d601b6118f3565b61063d601061138e565b612c1f61063d91612c17600090565b506009611150565b611365565b612c2c615481565b610627612c4a565b61068161063d61063d9290565b61063d90612c34565b610627612c576000612c41565b61560a565b610627612c24565b61062790612c70615481565b61062790601e612974565b61062790612c64565b9061ff009060081b6125e3565b90612ca161063d612617926111b1565b8254612c84565b610627906010612c91565b61063d60116126f1565b612cc5615481565b610627612cd26010611378565b6123da57610627612ce560016010612a44565b7f62e78cea01bee320cd4e420270b5ea74000d11b0c9f74754ebdbfc544b05a258612a9160405190565b610627612cbd565b600019811461259f5760010190565b612d2f81612c08565b600090612d3b82611536565b8103612d50575061063d915061247e90611536565b612d5990612403565b91612d626125a4565b90612d6c83611536565b925060019182612d7c6001611536565b905b612d8b575b505050505090565b818111612def57612da5612da0826008611543565b6118f3565b612db7612db185610681565b91610681565b14612dcc575b612dc690612d17565b83612d7e565b93612de781612de2876124e8612dc6958b612426565b612d17565b949050612dbd565b612d83565b61063d9060301c610f16565b61063d9054612df4565b61063d6010612e00565b61063d9060181c610f90565b61063d9054612e14565b61063d6010612e20565b61063d6000612e41615667565b016118f3565b906106279291612e55615481565b6131c5565b9160001960089290920291821b911b6125e3565b921b90565b9190612e8461063d61261793611536565b908354612e5a565b61062791600091612e73565b818110612ea3575050565b80612eb16000600193612e8c565b01612e98565b9190601f8111612ec657505050565b612ed861062793600052602060002090565b906020601f840181900483019310612efb575b6020601f909101045b0190612e98565b9091508190612eeb565b9060001960089091021c191690565b81612f1e91612f05565b906002021790565b90612f2f815190565b906001600160401b03821161092957612f5282612f4c85546111f7565b85612eb7565b602090601f8311600114612f8057612617929160009183612f75575b5050612f14565b015190503880612f6e565b601f19831691612f9585600052602060002090565b9260005b818110612fd457509160029391856001969410612fba575b50505002019055565b612fca910151601f841690612f05565b9055388080612fb1565b91936020600181928787015181550195019201612f99565b9061062791612f26565b61096961063d916109c6565b9061301590600019906020036008021c90565b8154169055565b91909182821061302b57505050565b610627926020601f90910104906001602061304e601f86018290049390565b9390565b92830194060260008111613065575b500190612e98565b6130729060018503613002565b3861305d565b90600160401b8111610929576106279160025b9061301c565b919060086125e3910291612e6e60ff841b90565b906002906125906130ba9161063d8486613078565b602082049160005b8381106131285750602083029003600081116130df575b50505050565b9260009360005b8181106130fb575050500155388080806130d9565b909194602061311e60019261311461063d8a5160ff1690565b9085850290613091565b96019291016130e6565b6000805b602081106131415750838201556001016130c2565b9590602061316360019261315961063d865160ff1690565b908a850290613091565b9201960161312c565b91906112e157610627916130a5565b80549190600160401b831015610929578261319e91600161062795018155611fb1565b9061316c565b60ff1660ff811461259f5760010190565b90612a5461063d612617926111b1565b919061320e916131e3846131de836112fa8660056111c1565b612fec565b6132096007916131ff6131f66002612ff6565b60ff9095168552565b60ff166020840152565b61317b565b61322a61322361321e6006611378565b6131a4565b60066131b5565b7fe4d2864ec291f6f11cb3363fa1bd2a4d5ff49a2cfdf4bf7dfe3b90a26b8c776f61326a61326061325b6006611378565b6111b1565b9261079260405190565b0390a2565b906106279291612e47565b90600480549160009161328c83611536565b9161329685612403565b8391845b875b811015613354576132b1612da0826008611543565b6132c1612db1612388601c6118f3565b148061333d575b80613315575b6132e2575b61329c906001015b905061329a565b94926132db61330c612b3161329c936124eb6133028c6128fe8d8d611336565b6124e8838a612426565b969150506132d3565b5061332b856133248382611336565b5001611378565b61333761232a8b611453565b146132ce565b5061334f612a19866128a88482611336565b6132c8565b50939550939550505061336f61336984612403565b94611536565b8381101561339e57806124eb61338f61338b6133999487612426565b5190565b6124e88389612426565b61336f565b509190509190565b61063d60016122236153bc565b939291906133c4612388601c6118f3565b6133cd33610681565b036123a45761063d94939291906133e46010611378565b6123da5761063d94613579565b9060025b811015611359576020020190565b9060046133f5565b61341a9060ff165b9160ff1690565b019060ff821161259f57565b610f9061063d61063d9290565b61064090613426565b604090613466610627949695939661345c60608401986000850190613433565b6020830190613433565b0190613433565b610f1661063d61063d9290565b61063d61063d61063d9263ffffffff1690565b613499611ad560029390565b6000915b8383106134aa5750505050565b6134c0610cf2600192845160ff16815260200190565b9201919061349d565b6134d5611ad560049390565b6000915b8383106134e65750505050565b6134fc610cf2600192845160ff16815260200190565b920191906134d9565b98979561355b610160966135516135719760808e612879613563989a6106279f9a6135479061353d61018086019e6000870190611466565b602085019061348d565b60ff166060830152565b60a08c01906134c9565b6101208a0152565b878203610140890152610729565b94019061068d565b93919092935060009261359e61359761359186611536565b846133f1565b5160ff1690565b6135c2612a196001926135bc6135976135b686611536565b886133f1565b90615695565b6142f0576135f96135de6135976135d888611536565b89613403565b6135f36135976135ed85611536565b8a613403565b9061340b565b906136156002926135f361359761360f86611536565b8b613403565b6136306003916135f361359761362a85611536565b8c613403565b9261363a88611453565b61364386611453565b036138de5761365761359761360f8a611536565b61366361341385613426565b1415806138bb575b6138ac5761367e61359761360f85611536565b61368a61341385613426565b141580613889575b613865576136a561359761360f83611536565b6136b161341385613426565b141580613842575b61381e576136cc61359761360f84611536565b6136d861341385613426565b1415806137fb575b6137d8575050506136f16008613426565b60ff8216101561379057509061378a60008051602061688e833981519152939261371a8661346d565b9361374161373b61373461372e6012611365565b99613426565b965b61347a565b42612ae1565b6137578287838b8d8a89336009600860046158c6565b986137628a336159a3565b61376c838b61545d565b6137758a611536565b9861377f60405190565b978897339689613505565b0390a290565b6123739061379d60405190565b634967af1f60e11b815260ff909116600482015260406024820152600660448201526521a7a6a6a7a760d11b60648201529081906084820190565b612373906137e560405190565b6358be4af360e11b81529384936004850161343c565b5061380b61359761360f84611536565b61381761341383613426565b14156136e0565b8261237361382b60405190565b6358be4af360e11b8152928392816004850161343c565b5061385261359761360f83611536565b61385e61341383613426565b14156136b9565b8261237361387260405190565b6358be4af360e11b8152928392806004850161343c565b5061389961359761360f85611536565b6138a561341383613426565b1415613692565b8761237384926137e560405190565b506138cb61359761360f8a611536565b6138d761341383613426565b141561366b565b9190929395966138ed82611453565b6138f688611453565b03613af25761390a61359761360f83611536565b61391661341385613426565b141580613acf575b613ac057506139326135976135ed83611536565b61393e61341384613426565b141580613a9d575b613a90575061395a6135976135d883611536565b61396661341383613426565b141580613a6d575b613a61576139816135976135d884611536565b61398d61341383613426565b141580613a3e575b613a325750506139a5600c613426565b60ff821610156139ea57509060008051602061688e8339815191529161378a6139ce60106126c5565b926139d96013611365565b9561374161373b613734601061138e565b612373906139f760405190565b634967af1f60e11b81529182916004830160ff919091168152604060208201819052600490820152635241524560e01b606082015260800190565b61237361382b60405190565b50613a4e6135976135d884611536565b613a5a61341384613426565b1415613995565b61237361387260405190565b50613a7d6135976135d883611536565b613a8961341384613426565b141561396e565b612373836137e560405190565b50613aad6135976135ed83611536565b613ab961341385613426565b1415613946565b9050612373836137e560405190565b50613adf61359761360f83611536565b613aeb61341386613426565b141561391e565b613afb83611453565b613b0488611453565b03613d3e57613b1861359761360f83611536565b613b2461341386613426565b141580613d1a575b613d0a5750613b406135976135ed83611536565b613b4c61341385613426565b141580613ce6575b613cd65750613b686135976135d883611536565b613b7461341384613426565b141580613cb2575b613c8f5750613b96613597613b9083611536565b88613403565b613ba261341383613426565b141580613c6b575b613c465750613bb96010613426565b60ff82161015613bfe57509060008051602061688e8339815191529161378a613be26011612245565b92613bed6014611365565b9561374161373b61373460106113a4565b61237390613c0b60405190565b634967af1f60e11b815260ff9091166004820152604060248201526006604482015265554e4951554560d01b60648201529081906084820190565b600490612373613c5560405190565b6358be4af360e11b81529283928082850161343c565b50613c7b613597613b9083611536565b613c886134136004613426565b1415613baa565b6123736004613c9d60405190565b6358be4af360e11b815293849382850161343c565b50613cc26135976135d883611536565b613ccf6134136004613426565b1415613b7c565b90506123736004613c9d60405190565b50613cf66135976135ed83611536565b613d036134136004613426565b1415613b54565b83906123736004613c9d60405190565b50613d2a61359761360f83611536565b613d376134136004613426565b1415613b2c565b929190613d4a83611453565b613d5388611453565b03613f7457613d6761359761360f86611536565b93600494613d7761341387613426565b141580613f50575b613f405750613d9361359761360f83611536565b613d9f61341386613426565b141580613f1c575b613f0c5750613dbb6135976135ed83611536565b613dc761341385613426565b141580613ee8575b613ed85750613de36135976135d883611536565b613def61341384613426565b141580613eb4575b613e915750613e066014613426565b60ff83161015613e4c5750509060008051602061688e8339815191529161378a613e3060116126db565b92613e3b6015611365565b9561374161373b6137346010612e20565b612373613e5860405190565b634967af1f60e11b8152928392830160ff919091168152604060208201819052600490820152634550494360e01b606082015260800190565b6123736005613e9f60405190565b6358be4af360e11b815293849381850161343c565b50613ec46135976135d883611536565b613ed16134136005613426565b1415613df7565b90506123736005613e9f60405190565b50613ef86135976135ed83611536565b613f056134136005613426565b1415613dcf565b83906123736005613e9f60405190565b50613f2c61359761360f83611536565b613f396134136005613426565b1415613da7565b84906123736005613e9f60405190565b50613f6061359761362a83611536565b613f6d6134136005613426565b1415613d7f565b9290600493613f8285611453565b613f8b89611453565b036141b957613f9f61359761362a85611536565b92600593613faf61341386613426565b14158061418f575b61417f5750613fcb61359761362a83611536565b613fd761341385613426565b14158061415b575b61414b5750613ff361359761360f83611536565b613fff61341384613426565b141580614127575b614117575061401b6135976135ed84611536565b61402761341383613426565b1415806140f3575b6140cf57505061403f6018613426565b60ff831610156140855750509060008051602061688e8339815191529161378a61406960116126f1565b926140746016611365565b9561374161373b613734601061255f565b61237361409160405190565b634967af1f60e11b8152928392830160ff919091168152604060208201819052600990820152684c4547454e4441525960b81b606082015260800190565b612373600684926140df60405190565b6358be4af360e11b8152948594850161343c565b506141036135976135ed84611536565b6141106134136006613426565b141561402f565b836123736006846140df60405190565b5061413761359761360f83611536565b6141446134136006613426565b1415614007565b846123736006856140df60405190565b5061416b61359761362a83611536565b6141786134136006613426565b1415613fdf565b856123736006866140df60405190565b506141a561359761419f83611536565b8d613403565b6141b26134136006613426565b1415613fb7565b919450916141c76005611453565b6141d088611453565b036142d1576141e461359761360f87611536565b926006936141f461341386613426565b14159283156142aa575b508215614283575b50811561425e575b50614250575050509060008051602061688e8339815191529161378a6142346011612707565b9261423f6017611365565b9561374161373b61373460106129ed565b80612373916140df60405190565b61426f91506135d861359791611536565b61427b61341383613426565b14153861420e565b6142959192506135ed61359791611536565b6142a161341384613426565b14159038614206565b6142bc91935061360f61359791611536565b6142c861341385613426565b141591386141fe565b612373846142de60405190565b63036cae1f60e31b8152918291820190565b604051634441919d60e11b8152600490fd5b61063d9392919060006133b3565b61063d6015611365565b60048054906143296000611536565b828110156143815761433f612da0826008611543565b61434f612db1612388601c6118f3565b148061436a575b61436257600101614329565b505050600190565b5061437c612a19836128a88482611336565b614356565b505050600090565b61063d6016611365565b61063d6014611365565b6106279190336159b5565b610627906143b4615481565b6143e2565b9063ffffffff60801b9060801b6125e3565b906143db61063d612617926125ed565b82546143b9565b6128117fac6522accfa77170701f8664616dbcb859ffbca2d931ffa46de278f184d5106b916108138160116143cb565b610627906143a8565b612c1f61063d9161442a600090565b50600e611ef9565b61063d61014061092e565b9061062761445361444d84612ff6565b936109c6565b836123fe565b61063d600461443d565b61063d600261443d565b614475614432565b906000825260208080808080808080808b016000815201600081520160008152016000815201600081520160008152016144ad614459565b8152016144b8614463565b8152016060905250565b61063d61446d565b9061064090611453565b602060016130d961450f9361450f84848181816144ff6144fb839d6144f7600490565b5090565b9790565b9661451681600099549d8e61136f565b60ff169052565b019501946145278161450f8c611382565b019301926145388161450f8a611398565b019384920195612e14565b9061075d816080936144d4565b906106276112c99261456160405190565b93848092614543565b60208061457e61304a6001956144f7600290565b549261458d8161450f8661136f565b016130d98161450f8660000195611382565b9061075d8160409361456a565b906106276112c9926145bd60405190565b9384809261459f565b906106276146a660076145d7614432565b946145e86145e482611365565b8752565b6145fe6145f760018301611365565b6020880152565b61461461460d60028301611365565b6040880152565b61462a61462360038301611365565b6060880152565b61464261463960048301611378565b608088016144ca565b61465b6146516004830161138e565b60ff1660a0880152565b61467361466a600483016113a4565b151560c0880152565b61468961468260058301614550565b60e0880152565b6146a0614698600683016145ac565b610100880152565b016112af565b610120840152565b61063d906145c6565b6146bf6144c2565b5060006146cc6000611536565b60046146d961063d825490565b821015614712576146ee836128fe8484611336565b84146146fd57506001016146cc565b61063d935061470c9250611336565b506146ae565b60405162461bcd60e51b815260206004820152602d60248201527f47656d2077697468207468652073706563696669656420746f6b656e4964206460448201526c1bd95cc81b9bdd08195e1a5cdd609a1b6064820152608490fd5b61063d60c061092e565b61477f61476d565b906000825260208080808080870160008152016000815201600081520160008152016000905250565b61063d614777565b9061064090610681565b9061062761482a60036147cb61476d565b946147d86145e482611365565b6147e76145f760018301611365565b6147f661460d60028301611365565b61480d6148048383016118f3565b606088016147b0565b61482461481b838301611909565b15156080880152565b0161191f565b151560a0840152565b61063d906147ba565b61485361063d9161484b6147a8565b50600f611543565b614833565b90614873614867610ce8845490565b92600052602060002090565b9060005b8181106148845750505090565b9091926148a86148a160019261489987611365565b815260200190565b9460010190565b929101614877565b9061063d91614858565b906106276112c9926148cb60405190565b938480926148b0565b61063d906148ba565b61063d60186148d4565b9291906148f46010611378565b6123da579192610627929161490882610681565b61491184610681565b1461293757600494614927866128a88482611336565b61497d579061290560026128fe837f77bd69ae3010e08d8037a446f79c7047277d4cf3643e8690c9482338100f1c8c98996128f96128119761496a848c8c6154cf565b614975848c8c615579565b838b8b615abd565b6123738661292560405190565b906106279392916148e7565b61063d6011612707565b61063d6017611365565b61063d6116f4601c6118f3565b61063d60106113a4565b61063d9060901c610f16565b61063d90546149c1565b61063d60106149cd565b6149ed612a1982615bb9565b6149fa5761063d90615c46565b61237390614a0760405190565b633af8b4af60e11b81529182916004830190815260200190565b61062790614a2d615481565b61062790601d612974565b61062790614a21565b61063d601c6118f3565b61063d9060b01c610f16565b61063d9054614a4b565b61063d6010614a57565b61063d6012611365565b61063d91614a99614a9e92614a88600090565b506005614a936153bc565b01611150565b611150565b611378565b9061062794939291614ab3615481565b614b85565b9063ffffffff60301b9060301b6125e3565b90614ada61063d612617926125ed565b8254614ab8565b9063ffffffff60501b9060501b6125e3565b90614b0361063d612617926125ed565b8254614ae1565b9063ffffffff60701b9060701b6125e3565b90614b2c61063d612617926125ed565b8254614b0a565b9063ffffffff60901b9060901b6125e3565b90614b5561063d612617926125ed565b8254614b33565b9063ffffffff60b01b9060b01b6125e3565b90614b7e61063d612617926125ed565b8254614b5c565b919361281191937f12db92c8c4542eebc521c0180f8ce8d4c77dad4fcfb9f9f9c1c8b31e0b9cd81195614bb9856010614aca565b614bc4866010614af3565b614bcf816010614b1c565b614bda826010614b45565b614be5836010614b6e565b604051612808565b9061062794939291614aa3565b61062790614c06615481565b61062790601c612974565b61062790614bfa565b61063d60116126db565b61062790614c30615481565b614c3a6000612c41565b614c4381610681565b614c4c83610681565b14614c5b57506106279061560a565b61237390614c6860405190565b631e4fbdf760e01b815291829160048301610696565b61062790614c24565b9061062794939291614c97615481565b614d64565b90612baf61063d612617926111b1565b9063ff0000009060181b6125e3565b90614ccb61063d612617926111b1565b8254614cac565b9060ff60201b9060201b6125e3565b90614cf161063d612617926111b1565b8254614cd2565b9060ff60281b9060281b6125e3565b90614d1761063d612617926111b1565b8254614cf8565b9095949261062794613547614d5b92614d51608096614d4760a088019c600089019060ff169052565b60ff166020870152565b60ff166040850152565b019060ff169052565b919361281191937f06b36b7c2517dbb6d0fec68beba3c915efebf56980628b2181e3fcd96920910e95614d98856010612c91565b614da3866010614c9c565b614dae816010614cbb565b614db9826010614ce1565b614dc4836010614d07565b60405195869586614d1e565b9061062794939291614c87565b61063d9060401c610f90565b61063d9054614ddd565b61063d905b6001600160401b031690565b61063d9054614df3565b614df861063d61063d9290565b906001600160401b03906125e3565b614df861063d61063d926001600160401b031690565b90614e5061063d61261792614e2a565b8254614e1b565b9060ff60401b9060401b6125e3565b90614e7661063d61261792151590565b8254614e57565b61064090614e0e565b6020810192916106279190614e7d565b92919091614ea2615cb2565b938491614eba614eb4612a1985614de9565b93614e04565b93600095614ec787614e0e565b6001600160401b0387161480614fbf575b600196614ef4614ee789614e0e565b916001600160401b031690565b149081614f9b575b155b9081614f92575b50614f8057614f2e9385614f2589614f1c8a614e0e565b9b019a8b614e40565b614f715761500c565b614f3757505050565b614f65612811927fc7f505b2f371ae2175ee4913f4499e1f2633a7b5936321eed1cdaeb6115181d294614e66565b60405191829182614e86565b614f7b878a614e66565b61500c565b60405163f92ee8a960e01b8152600490fd5b15905038614f05565b9050614efe614fa930611147565b3b614fb6611ad58b611536565b14919050614efc565b5084614ed8565b614fd06007612aae565b6623b2b6a9aa27a760c91b602082015290565b61063d614fc6565b614ff56003612aae565b6247454d60e81b602082015290565b61063d614feb565b916150416150489261503a61504f9695615035615027614fe3565b61502f615004565b90615ced565b615d0c565b601a612974565b601b612974565b601c612974565b61062761505e623d090061346d565b60116143cb565b90610627939291614e96565b61507b6010611378565b6123da57610627906150e8565b9050519061062782611065565b906020828203126106025761063d91615088565b9160206106279294936128796040820196600083019061068d565b6040513d6000823e3d90fd5b908152604081019291610627916020905b019061068d565b6150f56123886000612c41565b6150fe33610681565b1461524357615111612da0826008611543565b61511d612db133610681565b036152315760046000602061518c61513a60016128fe8787611336565b61514986336009600889615f83565b61515286615fad565b615167615162615162601c6118f3565b611147565b9061517160405190565b9485938492839190630169dc3160e01b8352338a84016150a9565b03925af1801561522c576151a69160009161520357501590565b6151e457506128117f65aff8e0552d208dfaf55b1280e55553b7dba628290897ff43c8f086d5dbfd2a916151d960405190565b9182913390836150d0565b612373906151f160405190565b6312171d8360e31b8152918291820190565b612a19915060203d602011615225575b61521d8183610908565b810190615095565b503d615213565b6150c4565b6040516302b327b560e41b8152600490fd5b604051639fabe1c160e01b8152600490fd5b61062790615071565b61063d9060501c610f16565b61063d905461525e565b61063d601061526a565b90610627959493929161528f615481565b6152eb565b90600019906125e3565b906152ae61063d61261792611536565b8254615294565b91946152e4612879929897956152dd60a0966119ac6106279a6119a560c08a019e60008b0152565b6060850152565b6080830152565b92937f6474c0fa1cc494f92527db3b4306654db98a8ff14de99d615b7e445e0266ef439591946128119361532086601261529e565b61532b87601361529e565b61533681601461529e565b61534182601561529e565b61534c83601661529e565b61535784601761529e565b604051968796876152b5565b90610627959493929161527e565b6380ac58cd60e01b6001600160e01b03198216149081156153a1575b8115615397575090565b61063d9150615fd6565b6001600160e01b03198116635b5e139f60e01b14915061538d565b7f80bb2b638cc20bc4d0a60d66940f3ab4a00c1d7b313497ca82fb0b4ab007930090565b6153e981615fea565b906153f76123886000612c41565b61540083610681565b14615409575090565b6123739061541660405190565b637e27328960e01b81529182916004830190815260200190565b612da061063d9161543f600090565b50600461544a6153bc565b01611543565b9160019161062793616004565b9061546a61238883612bd7565b61547333610681565b03615231576106279161613f565b615489612e34565b3390615497612db183610681565b0361549f5750565b612373906154ac60405190565b63118cdaa760e01b815291829160048301610696565b801561259f576000190190565b61553a615541926155356106279561550e600460026155078461550161373b6154fc866133248582611336565b616176565b93611336565b500161529e565b61552e61551c846009611150565b615528612de282611365565b9061529e565b6008611543565b612974565b6009611150565b61552861554d82611365565b6154c2565b6040906150e161062794969593966155726060840198600085019061068d565b6020830152565b906155846000612c41565b61558d81610681565b61559683610681565b146155e757506155a890833391616286565b6155b182610681565b6155ba82610681565b036155c457505050565b612373906155d160405190565b6364283d7b60e01b815293849360048501615552565b612373906155f460405190565b633250574960e11b815291829160048301610696565b61563461562e600061561a615667565b0161516284615628836118f3565b92612974565b91611147565b907f8be0079c531659141344cd1fd0a4f28419497f9722a3daafe3b4186f6b6457e061565f60405190565b80805b0390a3565b7f9016d09d72d40fdae2fd8ceac6b6234c7706214fd39c1cd1e609a0528c19930090565b61063d90546111f7565b61063d6156b0926112fa6156ab93612209600090565b61568b565b6156bd611ad56000611536565b1190565b90612a5461063d6126179261145d565b90600160401b81116109295761062791600461308b565b906004906125906156fd9161063d84866156d1565b602082049160005b8381106157605750602083029003600081116157215750505050565b9260009360005b81811061573d575050500155388080806130d9565b909194602061575660019261311461063d8a5160ff1690565b9601929101615728565b6000805b60208110615779575083820155600101615705565b9590602061579160019261315961063d865160ff1690565b92019601615764565b90610627916156e8565b90610627916130a5565b6007615887610120610627946157ce6157c8600083015190565b8661529e565b6157e56157dc602083015190565b6001870161529e565b6157fc6157f3604083015190565b6002870161529e565b61581361580a606083015190565b6003870161529e565b6158536004860161582f61582960808501612440565b826156c1565b61584661584060a085015160ff1690565b82612c91565b60c0830151151590612b9f565b61586a61586160e083015190565b6005870161579a565b61588261587961010083015190565b600687016157a4565b015190565b9101612fec565b91906112e157610627916157ae565b80549190600160401b83101561092957826158c091600161062795018155611336565b9061588e565b94919883989a9397949691966158da600090565b506000809c6158e7614432565b976158f183611536565b92890183905260208901526040880152606087015261591390608087016144ca565b60ff1660a085015289151560c085015260e084015261010083015261012082015261593e908261589d565b805461594a6001611536565b61595391612589565b8096615960828094611336565b50019061596c9161529e565b61597591611543565b9061597f91612974565b61598891611150565b61599181611365565b61599a90612d17565b61063d9161529e565b610627916159af612ac5565b916163c3565b6159bd6153bc565b6159ca6123886000612c41565b6159d384610681565b14615a2d57615a23615a1d8361516287615a1888614a997f17307eab39ab6107e8899845ad3d59bd9653f200f220920489ca2b5937696c319960056156629a01611150565b612a44565b93611147565b9361066360405190565b61237383615a3a60405190565b630b61174360e31b815291829160048301610696565b9050519061062782610607565b906020828203126106025761063d91615a50565b9092615a919061287261063d96946128686080860197600087019061068d565b6060818403910152610729565b3d15615ab857615aad3d612aae565b903d6000602084013e565b606090565b909291833b615acf611ad56000611536565b11615ada5750505050565b602091615ae961516286611147565b90600033615b13615af960405190565b97889687958694630a85bd0160e11b865260048601615a71565b03925af160009181615b88575b50615b5f5750615b2e615a9e565b90615b37825190565b615b44611ad56000611536565b03615b5657612373906155f460405190565b50805190602001fd5b615b79630a85bd0160e11b5b916001600160e01b03191690565b036155e75750388080806130d9565b615bab91925060203d602011615bb2575b615ba38183610908565b810190615a5d565b9038615b20565b503d615b99565b612da0615bd091615bc8600090565b506008611543565b615be0612db16123886000612c41565b141590565b61075d615bfd92602092615bf7815190565b94859290565b93849101610706565b615c149061063d9392615be5565b90615be5565b615c3a929161062791615c2c60405190565b948592602084019283615c06565b90810382520383610908565b615c67612211826000615c576163e2565b615c60836153e0565b5001611543565b615c6f616406565b8051615c7e611ad56000611536565b14615cac578151615c92611ad56000611536565b11615ca257505061063d9061640e565b61063d9250615c1a565b50905090565b7ff0c57e16840df040f15088dc2f81fe391c3923bec73e23a9662efc9c229c6a0090565b9061062791615ce3616451565b90610627916164a0565b9061062791615cd6565b61062790615d03616451565b610627906164b6565b61062790615cf7565b6106279060015b810190612e98565b906000036112e15761062790615d15565b610627906001615d1c565b906000036112e15761062790615d35565b90600091615d6f615d6782600052602060002090565b928354612f14565b905555565b9192906020821015615dcc57601f8411600114615d9657612617929350612f14565b5090615dc7610627936001615dbe615db385600052602060002090565b92601f602091010490565b82019101612e98565b615d51565b50615e058293615de3600194600052602060002090565b612ef46020601f860104820192601f861680615e0d575b50601f602091010490565b600202179055565b615e1990888603613002565b38615dfa565b929091600160401b82116109295760201115615e66576020811015615e475761261791612f14565b60019160ff1916615e5d84600052602060002090565b55600202019055565b60019150600202019055565b908154615e7e816111f7565b90818311615ea6575b818310615e945750505050565b615e9d93615d74565b388080806130d9565b615eb283838387615e1f565b615e87565b600061062791615e72565b906000036112e15761062790615eb7565b6000600761062792615ee783808301612e8c565b615ef48360018301612e8c565b615f018360028301612e8c565b615f0e8360038301612e8c565b826004820155615f218360058301615d24565b615f2e8360068301615d40565b01615ec2565b906000036112e15761062790615ed3565b916001600160a01b0360089290920291821b911b6125e3565b9190615f6f61063d61261793611147565b908354615f45565b61062791600091615f5e565b90611577615541600095615fa895614a99615fa28a6106279b98611336565b90615f34565b615f77565b615fb76000612c41565b615fce612db1615fc8838581616286565b92610681565b146154095750565b615fe66301ffc9a760e01b615b6b565b1490565b612da061063d91615ff9600090565b50600261544a6153bc565b92909161600f6153bc565b91808115616121575b616030575b5050610627929160046155359201611543565b616039846153e0565b916160476123886000612c41565b61605082610681565b141580616107575b806160f4575b6160d1575061553592610627959492600492616081575b5092508193945061601d565b61608a90611147565b61609386611147565b61609c85611536565b917f8c5be1e5ebec7d5bd14f71427d1e84f3dd0314c0f7b2291e5b200ac8c7c3b9256160c760405190565b600090a438616075565b612373906160de60405190565b63a9fbf51f60e01b815291829160048301610696565b50616102612a198285614a75565b61605e565b5061611181610681565b61611a84610681565b1415616058565b5061612f6123886000612c41565b61613883610681565b1415616018565b6128119061089c7ff8e1a15aba9398e019f0b49df1a4fde98ee17ae345cb5f6b5e2c27f5033e8ce7936131de83600061544a6163e2565b6161806000611453565b61618982611453565b1461627b576161986001611453565b6161a182611453565b1461626d576161b06002611453565b6161b982611453565b1461625f576161c86003611453565b6161d182611453565b14616251576161e06004611453565b6161e982611453565b14616243576161fb61232a6005611453565b146162365760405162461bcd60e51b815260206004820152600e60248201526d496e76616c69642072617269747960901b6044820152606490fd5b61063d6137366011612707565b5061063d61373660116126f1565b5061063d61373660116126db565b5061063d6137366011612245565b5061063d61373660106126c5565b5061063d6000611536565b90616301826155358360026162996153bc565b6162ed6162a584615fea565b9960008b866162b383612c41565b936162bd85610681565b6162c682610681565b036163b2575b5050506162d882610681565b6162e18d610681565b03616374575b50610681565b6162f686610681565b036163485701611543565b616316616310615a1d85611147565b91611536565b917fddf252ad1be2c89b69c2b068fc378daa952ba7f163c4a11628f55a4df523b3ef61634160405190565b600090a490565b61636f6163556001611536565b6155286163658860038601611150565b9161075d83611365565b61544a565b61638090828781616004565b6163ac8b61552861639e6163946001611536565b9260038801611150565b916163a883611365565b0390565b386162e7565b6163bb926164bf565b8b86386162cc565b9061062792916163d3828261651a565b6163dd6000612c41565b615abd565b7f0542a41881ee128a365a727b282c86fa859579490b9bb45aab8503648c8e790090565b61063d612ac5565b616417816153e0565b50616420616406565b805161642f611ad56000611536565b11156164475761644161063d926165c7565b90615c1a565b505061063d612ac5565b61645c612a1961665a565b61646257565b604051631afcd79f60e31b8152600490fd5b9061062791616481616451565b9060016106279261649a6164936153bc565b9182612fec565b01612fec565b9061062791616474565b61062790614c30616451565b610627906164aa565b6164cd612a1984848461666d565b6164d657505050565b6164e6612db16123886000612c41565b036164f8576123738261541660405190565b61237361650460405190565b63177e802f60e01b8152928392600484016150a9565b906165256000612c41565b9161652f83610681565b61653882610681565b1461657f57616548918391616286565b616554612db183610681565b0361655c5750565b6123739061656960405190565b6339e3563760e11b815291829160048301610696565b612373836155f460405190565b9061062761241961659c84612aae565b93610b6c565b634e487b7160e01b600052601260045260246000fd5b81156165c2570490565b6165a2565b6165d0816166f1565b906165e160019261075d6001611536565b91806165ec8461658c565b936020018401905b6165ff575b50505090565b8115616655576166399060001901926f181899199a1a9b1b9c1cb0b131b232b360811b600a82061a8453616633600a611536565b906165b8565b9081616648611ad56000611536565b14616655579091816165f4565b6165f9565b61063d6000616667615cb2565b01614de9565b9061667b6123886000612c41565b61668482610681565b141592836166925750505090565b9091925061669f82610681565b6166a884610681565b149283156166dd575b5082156166c3575b50503880806165f9565b6166d5919250615fc8612db191615430565b1438806166b9565b6166ea9193508290614a75565b91386166b1565b6166fb6000611536565b9072184f03e93ff9f4daa797ed6e38ed64bf6a1f0160401b61671c81611536565b82101561686b575b506904ee2d6d415b85acef8160201b61673c81611536565b821015616849575b50662386f26fc1000061675681611536565b821015616827575b506305f5e10061676d81611536565b821015616805575b5061271061678281611536565b8210156167e3575b506167956064611536565b8110156167c1575b6167aa611ad5600a611536565b10156167b35790565b61063d9061075d6001611536565b6167d26167dd916166336064611536565b9161075d6002611536565b9061679d565b6167fe916166336167f392611536565b9161075d6004611536565b903861678a565b6168209161663361681592611536565b9161075d6008611536565b9038616775565b6168429161663361683792611536565b9161075d6010611536565b903861675e565b6168649161663361685992611536565b9161075d6020611536565b9038616744565b6168869161663361687b92611536565b9161075d6040611536565b903861672456fe0e027f6f5631612aa005651eea501b4da1f9d6380d2c2d3cfa4b6b1fddd5b23ea26469706673582212208e389a7cc905e8cf1fb0d346b813a85e90545abd17fc2bcce46393c5d0f9ff4164736f6c63430008190033","linkReferences":{}},"methodIdentifiers":{"GEMIndexToOwner(uint256)":"97125c40","Gems(uint256)":"61f7f6d7","addColor(string,uint8,uint8)":"8e80a165","aliveImplementation(address)":"550d01a3","approve(address,uint256)":"095ea7b3","availableGemsRandomPack()":"9aa19da7","balanceOf(address)":"70a08231","callbackGasLimit()":"24f74697","colorName(uint8,uint8)":"5f2d0023","colors(uint256,uint256)":"f317d7dd","colorsCount()":"356edf74","createGEM(uint8,uint8[2],uint8[4],string)":"975781b7","createGEMPool(uint8[],uint8[2][],uint8[4][],string[])":"0ff1ac67","getAirdropAddress()":"3d007e57","getApproved(uint256)":"081812fc","getColorName(uint8,uint8)":"04e9fd7e","getCommonGemsValue()":"e316dc13","getEpicGemsCooldownPeriod()":"f2a6094d","getEpicGemsMiningPeriod()":"33d5efdb","getEpicGemsValue()":"97d88628","getEpicminingTry()":"8d41fe30","getGem(uint256)":"aa723bb7","getGemListAvailableByRarity(uint8)":"94ca6449","getGemsSupplyTotalValue()":"4cbe4360","getLegendaryGemsCooldownPeriod()":"77207e37","getLegendaryGemsMiningPeriod()":"c68a5385","getLegendaryGemsValue()":"9d3415f6","getLegendaryminingTry()":"166b35c9","getMarketPlaceAddress()":"694eaa40","getMythicGemsCooldownPeriod()":"bad39efd","getMythicGemsMiningPeriod()":"e0dd8f1b","getMythicGemsValue()":"c0c2fd99","getMythicminingTry()":"3ec7af4a","getNumberActiveMinersByRarity(uint8)":"aa551879","getOwnershipTokenCount(address)":"b4f6eae4","getPaused()":"6805b84b","getRandomRequest(uint256)":"aae31df3","getRareGemsCooldownPeriod()":"1c880254","getRareGemsMiningPeriod()":"864ccaac","getRareGemsValue()":"0a8ce210","getRareminingTry()":"6c106fea","getRequestCount()":"3fad1834","getRequestIds()":"ac33a273","getTonAddress()":"6ae638d0","getTreasuryAddress()":"e0024604","getUniqueGemsCooldownPeriod()":"093ba92b","getUniqueGemsMiningPeriod()":"fb250435","getUniqueGemsValue()":"a20fa9e9","getUniqueminingTry()":"c61a46c5","getValueBasedOnRarity(uint8)":"0b513d99","getWstonAddress()":"044bc779","initialize(address,address,address,address)":"f8c8765e","isApprovedForAll(address,address)":"e985e9c5","isTokenLocked(uint256)":"276a28a3","meltGEM(uint256)":"f99a6bb5","name()":"06fdde03","numberMiningGemsByRarity(uint8)":"ea094c39","owner()":"8da5cb5b","ownerOf(uint256)":"6352211e","ownershipTokenCount(address)":"cec21acb","pause()":"8456cb59","pauseProxy()":"63a8fd89","paused()":"5c975abb","preMintedGemsAvailable()":"c28fb6b7","proxyImplementation(uint256)":"b911135f","renounceOwnership()":"715018a6","s_requests(uint256)":"a168fa89","safeTransferFrom(address,address,uint256)":"42842e0e","safeTransferFrom(address,address,uint256,bytes)":"b88d4fde","selectorImplementation(bytes4)":"50d2a276","setAirdrop(address)":"72820dbc","setApprovalForAll(address,bool)":"a22cb465","setCallbackGasLimit(uint32)":"a4eb718c","setGemsCooldownPeriods(uint32,uint32,uint32,uint32,uint32)":"1aac071d","setGemsMiningPeriods(uint32,uint32,uint32,uint32,uint32)":"ea2b7b43","setGemsValue(uint256,uint256,uint256,uint256,uint256,uint256)":"ff198a1d","setIsLocked(uint256,bool)":"4d723a75","setMarketPlaceAddress(address)":"cc98ef96","setMiningTries(uint8,uint8,uint8,uint8,uint8)":"f41c4729","setRareMiningTry(uint8)":"75441e2a","setTokenURI(uint256,string)":"162094c4","setTreasury(address)":"f0f44260","setWston(address)":"247ee388","supportsInterface(bytes4)":"01ffc9a7","symbol()":"95d89b41","tokenMiningByUser(address)":"c1389072","tokenReadyToMine(uint256)":"7866369b","tokenURI(uint256)":"c87b56dd","tokensOfOwner(address)":"8462151c","totalSupply()":"18160ddd","transferFrom(address,address,uint256)":"23b872dd","transferOwnership(address)":"f2fde38b","unpause()":"3f4ba83a","userMiningStartTime(address,uint256)":"676f79f1","userMiningToken(address,uint256)":"a1770a7d"},"id":107}