{"abi":[{"type":"function","name":"GEMIndexToOwner","inputs":[{"name":"","type":"uint256","internalType":"uint256"}],"outputs":[{"name":"","type":"address","internalType":"address"}],"stateMutability":"view"},{"type":"function","name":"Gems","inputs":[{"name":"","type":"uint256","internalType":"uint256"}],"outputs":[{"name":"tokenId","type":"uint256","internalType":"uint256"},{"name":"value","type":"uint256","internalType":"uint256"},{"name":"gemCooldownDueDate","type":"uint256","internalType":"uint256"},{"name":"randomRequestId","type":"uint256","internalType":"uint256"},{"name":"rarity","type":"uint8","internalType":"enum GemFactoryStorage.Rarity"},{"name":"miningTry","type":"uint8","internalType":"uint8"},{"name":"isLocked","type":"bool","internalType":"bool"},{"name":"tokenURI","type":"string","internalType":"string"}],"stateMutability":"view"},{"type":"function","name":"addColor","inputs":[{"name":"_colorName","type":"string","internalType":"string"},{"name":"_index1","type":"uint8","internalType":"uint8"},{"name":"_index2","type":"uint8","internalType":"uint8"}],"outputs":[],"stateMutability":"nonpayable"},{"type":"function","name":"aliveImplementation","inputs":[{"name":"","type":"address","internalType":"address"}],"outputs":[{"name":"","type":"bool","internalType":"bool"}],"stateMutability":"view"},{"type":"function","name":"approve","inputs":[{"name":"to","type":"address","internalType":"address"},{"name":"tokenId","type":"uint256","internalType":"uint256"}],"outputs":[],"stateMutability":"nonpayable"},{"type":"function","name":"availableGemsRandomPack","inputs":[],"outputs":[{"name":"","type":"bool","internalType":"bool"}],"stateMutability":"view"},{"type":"function","name":"balanceOf","inputs":[{"name":"_owner","type":"address","internalType":"address"}],"outputs":[{"name":"count","type":"uint256","internalType":"uint256"}],"stateMutability":"view"},{"type":"function","name":"callbackGasLimit","inputs":[],"outputs":[{"name":"","type":"uint32","internalType":"uint32"}],"stateMutability":"view"},{"type":"function","name":"colorName","inputs":[{"name":"","type":"uint8","internalType":"uint8"},{"name":"","type":"uint8","internalType":"uint8"}],"outputs":[{"name":"","type":"string","internalType":"string"}],"stateMutability":"view"},{"type":"function","name":"colors","inputs":[{"name":"","type":"uint256","internalType":"uint256"},{"name":"","type":"uint256","internalType":"uint256"}],"outputs":[{"name":"","type":"uint8","internalType":"uint8"}],"stateMutability":"view"},{"type":"function","name":"colorsCount","inputs":[],"outputs":[{"name":"","type":"uint8","internalType":"uint8"}],"stateMutability":"view"},{"type":"function","name":"createGEM","inputs":[{"name":"_rarity","type":"uint8","internalType":"enum GemFactoryStorage.Rarity"},{"name":"_color","type":"uint8[2]","internalType":"uint8[2]"},{"name":"_quadrants","type":"uint8[4]","internalType":"uint8[4]"},{"name":"_tokenURI","type":"string","internalType":"string"}],"outputs":[{"name":"","type":"uint256","internalType":"uint256"}],"stateMutability":"nonpayable"},{"type":"function","name":"createGEMPool","inputs":[{"name":"_rarities","type":"uint8[]","internalType":"enum GemFactoryStorage.Rarity[]"},{"name":"_colors","type":"uint8[2][]","internalType":"uint8[2][]"},{"name":"_quadrants","type":"uint8[4][]","internalType":"uint8[4][]"},{"name":"_tokenURIs","type":"string[]","internalType":"string[]"}],"outputs":[{"name":"","type":"uint256[]","internalType":"uint256[]"}],"stateMutability":"nonpayable"},{"type":"function","name":"getAirdropAddress","inputs":[],"outputs":[{"name":"","type":"address","internalType":"address"}],"stateMutability":"view"},{"type":"function","name":"getApproved","inputs":[{"name":"tokenId","type":"uint256","internalType":"uint256"}],"outputs":[{"name":"","type":"address","internalType":"address"}],"stateMutability":"view"},{"type":"function","name":"getColorName","inputs":[{"name":"_index1","type":"uint8","internalType":"uint8"},{"name":"_index2","type":"uint8","internalType":"uint8"}],"outputs":[{"name":"","type":"string","internalType":"string"}],"stateMutability":"view"},{"type":"function","name":"getCommonGemsValue","inputs":[],"outputs":[{"name":"","type":"uint256","internalType":"uint256"}],"stateMutability":"view"},{"type":"function","name":"getEpicGemsCooldownPeriod","inputs":[],"outputs":[{"name":"","type":"uint32","internalType":"uint32"}],"stateMutability":"view"},{"type":"function","name":"getEpicGemsMiningPeriod","inputs":[],"outputs":[{"name":"","type":"uint32","internalType":"uint32"}],"stateMutability":"view"},{"type":"function","name":"getEpicGemsValue","inputs":[],"outputs":[{"name":"","type":"uint256","internalType":"uint256"}],"stateMutability":"view"},{"type":"function","name":"getEpicminingTry","inputs":[],"outputs":[{"name":"","type":"uint8","internalType":"uint8"}],"stateMutability":"view"},{"type":"function","name":"getGem","inputs":[{"name":"tokenId","type":"uint256","internalType":"uint256"}],"outputs":[{"name":"","type":"tuple","internalType":"struct GemFactoryStorage.Gem","components":[{"name":"tokenId","type":"uint256","internalType":"uint256"},{"name":"value","type":"uint256","internalType":"uint256"},{"name":"gemCooldownDueDate","type":"uint256","internalType":"uint256"},{"name":"randomRequestId","type":"uint256","internalType":"uint256"},{"name":"rarity","type":"uint8","internalType":"enum GemFactoryStorage.Rarity"},{"name":"miningTry","type":"uint8","internalType":"uint8"},{"name":"isLocked","type":"bool","internalType":"bool"},{"name":"quadrants","type":"uint8[4]","internalType":"uint8[4]"},{"name":"color","type":"uint8[2]","internalType":"uint8[2]"},{"name":"tokenURI","type":"string","internalType":"string"}]}],"stateMutability":"view"},{"type":"function","name":"getGemListAvailableByRarity","inputs":[{"name":"_rarity","type":"uint8","internalType":"enum GemFactoryStorage.Rarity"}],"outputs":[{"name":"","type":"uint256","internalType":"uint256"},{"name":"","type":"uint256[]","internalType":"uint256[]"}],"stateMutability":"view"},{"type":"function","name":"getGemsSupplyTotalValue","inputs":[],"outputs":[{"name":"totalValue","type":"uint256","internalType":"uint256"}],"stateMutability":"view"},{"type":"function","name":"getLegendaryGemsCooldownPeriod","inputs":[],"outputs":[{"name":"","type":"uint32","internalType":"uint32"}],"stateMutability":"view"},{"type":"function","name":"getLegendaryGemsMiningPeriod","inputs":[],"outputs":[{"name":"","type":"uint32","internalType":"uint32"}],"stateMutability":"view"},{"type":"function","name":"getLegendaryGemsValue","inputs":[],"outputs":[{"name":"","type":"uint256","internalType":"uint256"}],"stateMutability":"view"},{"type":"function","name":"getLegendaryminingTry","inputs":[],"outputs":[{"name":"","type":"uint8","internalType":"uint8"}],"stateMutability":"view"},{"type":"function","name":"getMarketPlaceAddress","inputs":[],"outputs":[{"name":"","type":"address","internalType":"address"}],"stateMutability":"view"},{"type":"function","name":"getMythicGemsCooldownPeriod","inputs":[],"outputs":[{"name":"","type":"uint32","internalType":"uint32"}],"stateMutability":"view"},{"type":"function","name":"getMythicGemsMiningPeriod","inputs":[],"outputs":[{"name":"","type":"uint32","internalType":"uint32"}],"stateMutability":"view"},{"type":"function","name":"getMythicGemsValue","inputs":[],"outputs":[{"name":"","type":"uint256","internalType":"uint256"}],"stateMutability":"view"},{"type":"function","name":"getMythicminingTry","inputs":[],"outputs":[{"name":"","type":"uint8","internalType":"uint8"}],"stateMutability":"view"},{"type":"function","name":"getNumberActiveMinersByRarity","inputs":[{"name":"rarity","type":"uint8","internalType":"enum GemFactoryStorage.Rarity"}],"outputs":[{"name":"","type":"uint256","internalType":"uint256"}],"stateMutability":"view"},{"type":"function","name":"getOwnershipTokenCount","inputs":[{"name":"_user","type":"address","internalType":"address"}],"outputs":[{"name":"","type":"uint256","internalType":"uint256"}],"stateMutability":"view"},{"type":"function","name":"getPaused","inputs":[],"outputs":[{"name":"","type":"bool","internalType":"bool"}],"stateMutability":"view"},{"type":"function","name":"getRandomRequest","inputs":[{"name":"_requestId","type":"uint256","internalType":"uint256"}],"outputs":[{"name":"","type":"tuple","internalType":"struct GemFactoryStorage.RequestStatus","components":[{"name":"tokenId","type":"uint256","internalType":"uint256"},{"name":"randomWord","type":"uint256","internalType":"uint256"},{"name":"chosenTokenId","type":"uint256","internalType":"uint256"},{"name":"requester","type":"address","internalType":"address"},{"name":"requested","type":"bool","internalType":"bool"},{"name":"fulfilled","type":"bool","internalType":"bool"}]}],"stateMutability":"view"},{"type":"function","name":"getRareGemsCooldownPeriod","inputs":[],"outputs":[{"name":"","type":"uint32","internalType":"uint32"}],"stateMutability":"view"},{"type":"function","name":"getRareGemsMiningPeriod","inputs":[],"outputs":[{"name":"","type":"uint32","internalType":"uint32"}],"stateMutability":"view"},{"type":"function","name":"getRareGemsValue","inputs":[],"outputs":[{"name":"","type":"uint256","internalType":"uint256"}],"stateMutability":"view"},{"type":"function","name":"getRareminingTry","inputs":[],"outputs":[{"name":"","type":"uint8","internalType":"uint8"}],"stateMutability":"view"},{"type":"function","name":"getRequestCount","inputs":[],"outputs":[{"name":"","type":"uint256","internalType":"uint256"}],"stateMutability":"view"},{"type":"function","name":"getRequestIds","inputs":[],"outputs":[{"name":"","type":"uint256[]","internalType":"uint256[]"}],"stateMutability":"view"},{"type":"function","name":"getTonAddress","inputs":[],"outputs":[{"name":"","type":"address","internalType":"address"}],"stateMutability":"view"},{"type":"function","name":"getTreasuryAddress","inputs":[],"outputs":[{"name":"","type":"address","internalType":"address"}],"stateMutability":"view"},{"type":"function","name":"getUniqueGemsCooldownPeriod","inputs":[],"outputs":[{"name":"","type":"uint32","internalType":"uint32"}],"stateMutability":"view"},{"type":"function","name":"getUniqueGemsMiningPeriod","inputs":[],"outputs":[{"name":"","type":"uint32","internalType":"uint32"}],"stateMutability":"view"},{"type":"function","name":"getUniqueGemsValue","inputs":[],"outputs":[{"name":"","type":"uint256","internalType":"uint256"}],"stateMutability":"view"},{"type":"function","name":"getUniqueminingTry","inputs":[],"outputs":[{"name":"","type":"uint8","internalType":"uint8"}],"stateMutability":"view"},{"type":"function","name":"getValueBasedOnRarity","inputs":[{"name":"_rarity","type":"uint8","internalType":"enum GemFactoryStorage.Rarity"}],"outputs":[{"name":"value","type":"uint256","internalType":"uint256"}],"stateMutability":"view"},{"type":"function","name":"getWstonAddress","inputs":[],"outputs":[{"name":"","type":"address","internalType":"address"}],"stateMutability":"view"},{"type":"function","name":"initialize","inputs":[{"name":"_owner","type":"address","internalType":"address"},{"name":"_wston","type":"address","internalType":"address"},{"name":"_ton","type":"address","internalType":"address"},{"name":"_treasury","type":"address","internalType":"address"}],"outputs":[],"stateMutability":"nonpayable"},{"type":"function","name":"isApprovedForAll","inputs":[{"name":"owner","type":"address","internalType":"address"},{"name":"operator","type":"address","internalType":"address"}],"outputs":[{"name":"","type":"bool","internalType":"bool"}],"stateMutability":"view"},{"type":"function","name":"isTokenLocked","inputs":[{"name":"_tokenId","type":"uint256","internalType":"uint256"}],"outputs":[{"name":"","type":"bool","internalType":"bool"}],"stateMutability":"view"},{"type":"function","name":"meltGEM","inputs":[{"name":"_tokenId","type":"uint256","internalType":"uint256"}],"outputs":[],"stateMutability":"nonpayable"},{"type":"function","name":"name","inputs":[],"outputs":[{"name":"","type":"string","internalType":"string"}],"stateMutability":"view"},{"type":"function","name":"numberMiningGemsByRarity","inputs":[{"name":"","type":"uint8","internalType":"enum GemFactoryStorage.Rarity"}],"outputs":[{"name":"","type":"uint256","internalType":"uint256"}],"stateMutability":"view"},{"type":"function","name":"owner","inputs":[],"outputs":[{"name":"","type":"address","internalType":"address"}],"stateMutability":"view"},{"type":"function","name":"ownerOf","inputs":[{"name":"tokenId","type":"uint256","internalType":"uint256"}],"outputs":[{"name":"","type":"address","internalType":"address"}],"stateMutability":"view"},{"type":"function","name":"ownershipTokenCount","inputs":[{"name":"","type":"address","internalType":"address"}],"outputs":[{"name":"","type":"uint256","internalType":"uint256"}],"stateMutability":"view"},{"type":"function","name":"pause","inputs":[],"outputs":[],"stateMutability":"nonpayable"},{"type":"function","name":"pauseProxy","inputs":[],"outputs":[{"name":"","type":"bool","internalType":"bool"}],"stateMutability":"view"},{"type":"function","name":"paused","inputs":[],"outputs":[{"name":"","type":"bool","internalType":"bool"}],"stateMutability":"view"},{"type":"function","name":"preMintedGemsAvailable","inputs":[],"outputs":[{"name":"GemsAvailable","type":"uint256[]","internalType":"uint256[]"}],"stateMutability":"view"},{"type":"function","name":"proxyImplementation","inputs":[{"name":"","type":"uint256","internalType":"uint256"}],"outputs":[{"name":"","type":"address","internalType":"address"}],"stateMutability":"view"},{"type":"function","name":"renounceOwnership","inputs":[],"outputs":[],"stateMutability":"nonpayable"},{"type":"function","name":"s_requests","inputs":[{"name":"","type":"uint256","internalType":"uint256"}],"outputs":[{"name":"tokenId","type":"uint256","internalType":"uint256"},{"name":"randomWord","type":"uint256","internalType":"uint256"},{"name":"chosenTokenId","type":"uint256","internalType":"uint256"},{"name":"requester","type":"address","internalType":"address"},{"name":"requested","type":"bool","internalType":"bool"},{"name":"fulfilled","type":"bool","internalType":"bool"}],"stateMutability":"view"},{"type":"function","name":"safeTransferFrom","inputs":[{"name":"from","type":"address","internalType":"address"},{"name":"to","type":"address","internalType":"address"},{"name":"tokenId","type":"uint256","internalType":"uint256"}],"outputs":[],"stateMutability":"nonpayable"},{"type":"function","name":"safeTransferFrom","inputs":[{"name":"from","type":"address","internalType":"address"},{"name":"to","type":"address","internalType":"address"},{"name":"tokenId","type":"uint256","internalType":"uint256"},{"name":"data","type":"bytes","internalType":"bytes"}],"outputs":[],"stateMutability":"nonpayable"},{"type":"function","name":"selectorImplementation","inputs":[{"name":"","type":"bytes4","internalType":"bytes4"}],"outputs":[{"name":"","type":"address","internalType":"address"}],"stateMutability":"view"},{"type":"function","name":"setAirdrop","inputs":[{"name":"_airdrop","type":"address","internalType":"address"}],"outputs":[],"stateMutability":"nonpayable"},{"type":"function","name":"setApprovalForAll","inputs":[{"name":"operator","type":"address","internalType":"address"},{"name":"approved","type":"bool","internalType":"bool"}],"outputs":[],"stateMutability":"nonpayable"},{"type":"function","name":"setCallbackGasLimit","inputs":[{"name":"_callbackGasLimit","type":"uint32","internalType":"uint32"}],"outputs":[],"stateMutability":"nonpayable"},{"type":"function","name":"setGemsCooldownPeriods","inputs":[{"name":"_RareGemsCooldownPeriod","type":"uint32","internalType":"uint32"},{"name":"_UniqueGemsCooldownPeriod","type":"uint32","internalType":"uint32"},{"name":"_EpicGemsCooldownPeriod","type":"uint32","internalType":"uint32"},{"name":"_LegendaryGemsCooldownPeriod","type":"uint32","internalType":"uint32"},{"name":"_MythicGemsCooldownPeriod","type":"uint32","internalType":"uint32"}],"outputs":[],"stateMutability":"nonpayable"},{"type":"function","name":"setGemsMiningPeriods","inputs":[{"name":"_RareGemsMiningPeriod","type":"uint32","internalType":"uint32"},{"name":"_UniqueGemsMiningPeriod","type":"uint32","internalType":"uint32"},{"name":"_EpicGemsMiningPeriod","type":"uint32","internalType":"uint32"},{"name":"_LegendaryGemsMiningPeriod","type":"uint32","internalType":"uint32"},{"name":"_MythicGemsMiningPeriod","type":"uint32","internalType":"uint32"}],"outputs":[],"stateMutability":"nonpayable"},{"type":"function","name":"setGemsValue","inputs":[{"name":"_CommonGemsValue","type":"uint256","internalType":"uint256"},{"name":"_RareGemsValue","type":"uint256","internalType":"uint256"},{"name":"_UniqueGemsValue","type":"uint256","internalType":"uint256"},{"name":"_EpicGemsValue","type":"uint256","internalType":"uint256"},{"name":"_LegendaryGemsValue","type":"uint256","internalType":"uint256"},{"name":"_MythicGemsValue","type":"uint256","internalType":"uint256"}],"outputs":[],"stateMutability":"nonpayable"},{"type":"function","name":"setIsLocked","inputs":[{"name":"_tokenId","type":"uint256","internalType":"uint256"},{"name":"_isLocked","type":"bool","internalType":"bool"}],"outputs":[],"stateMutability":"nonpayable"},{"type":"function","name":"setMarketPlaceAddress","inputs":[{"name":"_marketplace","type":"address","internalType":"address"}],"outputs":[],"stateMutability":"nonpayable"},{"type":"function","name":"setMiningTries","inputs":[{"name":"_RareminingTry","type":"uint8","internalType":"uint8"},{"name":"_UniqueminingTry","type":"uint8","internalType":"uint8"},{"name":"_EpicminingTry","type":"uint8","internalType":"uint8"},{"name":"_LegendaryminingTry","type":"uint8","internalType":"uint8"},{"name":"_MythicminingTry","type":"uint8","internalType":"uint8"}],"outputs":[],"stateMutability":"nonpayable"},{"type":"function","name":"setTokenURI","inputs":[{"name":"tokenId","type":"uint256","internalType":"uint256"},{"name":"_tokenURI","type":"string","internalType":"string"}],"outputs":[],"stateMutability":"nonpayable"},{"type":"function","name":"setTreasury","inputs":[{"name":"_treasury","type":"address","internalType":"address"}],"outputs":[],"stateMutability":"nonpayable"},{"type":"function","name":"setWston","inputs":[{"name":"_wston","type":"address","internalType":"address"}],"outputs":[],"stateMutability":"nonpayable"},{"type":"function","name":"supportsInterface","inputs":[{"name":"interfaceId","type":"bytes4","internalType":"bytes4"}],"outputs":[{"name":"","type":"bool","internalType":"bool"}],"stateMutability":"view"},{"type":"function","name":"symbol","inputs":[],"outputs":[{"name":"","type":"string","internalType":"string"}],"stateMutability":"view"},{"type":"function","name":"tokenMiningByUser","inputs":[{"name":"","type":"address","internalType":"address"}],"outputs":[{"name":"","type":"uint256","internalType":"uint256"}],"stateMutability":"view"},{"type":"function","name":"tokenReadyToMine","inputs":[{"name":"","type":"uint256","internalType":"uint256"}],"outputs":[{"name":"","type":"bool","internalType":"bool"}],"stateMutability":"view"},{"type":"function","name":"tokenURI","inputs":[{"name":"tokenId","type":"uint256","internalType":"uint256"}],"outputs":[{"name":"","type":"string","internalType":"string"}],"stateMutability":"view"},{"type":"function","name":"tokensOfOwner","inputs":[{"name":"_owner","type":"address","internalType":"address"}],"outputs":[{"name":"ownerTokens","type":"uint256[]","internalType":"uint256[]"}],"stateMutability":"view"},{"type":"function","name":"totalSupply","inputs":[],"outputs":[{"name":"","type":"uint256","internalType":"uint256"}],"stateMutability":"view"},{"type":"function","name":"transferFrom","inputs":[{"name":"from","type":"address","internalType":"address"},{"name":"to","type":"address","internalType":"address"},{"name":"tokenId","type":"uint256","internalType":"uint256"}],"outputs":[],"stateMutability":"nonpayable"},{"type":"function","name":"transferOwnership","inputs":[{"name":"newOwner","type":"address","internalType":"address"}],"outputs":[],"stateMutability":"nonpayable"},{"type":"function","name":"unpause","inputs":[],"outputs":[],"stateMutability":"nonpayable"},{"type":"function","name":"userMiningStartTime","inputs":[{"name":"","type":"address","internalType":"address"},{"name":"","type":"uint256","internalType":"uint256"}],"outputs":[{"name":"","type":"uint256","internalType":"uint256"}],"stateMutability":"view"},{"type":"function","name":"userMiningToken","inputs":[{"name":"","type":"address","internalType":"address"},{"name":"","type":"uint256","internalType":"uint256"}],"outputs":[{"name":"","type":"bool","internalType":"bool"}],"stateMutability":"view"},{"type":"event","name":"Approval","inputs":[{"name":"owner","type":"address","indexed":true,"internalType":"address"},{"name":"approved","type":"address","indexed":true,"internalType":"address"},{"name":"tokenId","type":"uint256","indexed":true,"internalType":"uint256"}],"anonymous":false},{"type":"event","name":"ApprovalForAll","inputs":[{"name":"owner","type":"address","indexed":true,"internalType":"address"},{"name":"operator","type":"address","indexed":true,"internalType":"address"},{"name":"approved","type":"bool","indexed":false,"internalType":"bool"}],"anonymous":false},{"type":"event","name":"BackgroundColorAdded","inputs":[{"name":"id","type":"uint8","indexed":true,"internalType":"uint8"},{"name":"backgroundColor","type":"string","indexed":false,"internalType":"string"}],"anonymous":false},{"type":"event","name":"BatchMetadataUpdate","inputs":[{"name":"_fromTokenId","type":"uint256","indexed":false,"internalType":"uint256"},{"name":"_toTokenId","type":"uint256","indexed":false,"internalType":"uint256"}],"anonymous":false},{"type":"event","name":"CallBackGasLimitUpdated","inputs":[{"name":"newCallbackGasLimit","type":"uint32","indexed":false,"internalType":"uint32"}],"anonymous":false},{"type":"event","name":"ColorAdded","inputs":[{"name":"id","type":"uint8","indexed":true,"internalType":"uint8"},{"name":"color","type":"string","indexed":false,"internalType":"string"}],"anonymous":false},{"type":"event","name":"ColorValidated","inputs":[{"name":"color_0","type":"uint8","indexed":false,"internalType":"uint8"},{"name":"color_1","type":"uint8","indexed":false,"internalType":"uint8"}],"anonymous":false},{"type":"event","name":"CountGemsByQuadrant","inputs":[{"name":"gemCount","type":"uint256","indexed":false,"internalType":"uint256"},{"name":"tokenIds","type":"uint256[]","indexed":false,"internalType":"uint256[]"}],"anonymous":false},{"type":"event","name":"Created","inputs":[{"name":"tokenId","type":"uint256","indexed":true,"internalType":"uint256"},{"name":"rarity","type":"uint8","indexed":false,"internalType":"enum GemFactoryStorage.Rarity"},{"name":"color","type":"uint8[2]","indexed":false,"internalType":"uint8[2]"},{"name":"miningTry","type":"uint8","indexed":false,"internalType":"uint8"},{"name":"value","type":"uint256","indexed":false,"internalType":"uint256"},{"name":"quadrants","type":"uint8[4]","indexed":false,"internalType":"uint8[4]"},{"name":"cooldownDueDate","type":"uint256","indexed":false,"internalType":"uint256"},{"name":"tokenURI","type":"string","indexed":false,"internalType":"string"},{"name":"owner","type":"address","indexed":false,"internalType":"address"}],"anonymous":false},{"type":"event","name":"EthSentBack","inputs":[{"name":"amount","type":"uint256","indexed":false,"internalType":"uint256"}],"anonymous":false},{"type":"event","name":"GemForged","inputs":[{"name":"gemOwner","type":"address","indexed":false,"internalType":"address"},{"name":"gemsTokenIds","type":"uint256[]","indexed":false,"internalType":"uint256[]"},{"name":"newGemCreatedId","type":"uint256","indexed":false,"internalType":"uint256"},{"name":"newRarity","type":"uint8","indexed":false,"internalType":"enum GemFactoryStorage.Rarity"},{"name":"forgedQuadrants","type":"uint8[4]","indexed":false,"internalType":"uint8[4]"},{"name":"color","type":"uint8[2]","indexed":false,"internalType":"uint8[2]"},{"name":"newValue","type":"uint256","indexed":false,"internalType":"uint256"}],"anonymous":false},{"type":"event","name":"GemMelted","inputs":[{"name":"_tokenId","type":"uint256","indexed":false,"internalType":"uint256"},{"name":"_from","type":"address","indexed":false,"internalType":"address"}],"anonymous":false},{"type":"event","name":"GemMiningClaimed","inputs":[{"name":"tokenId","type":"uint256","indexed":false,"internalType":"uint256"},{"name":"chosenTokenId","type":"uint256","indexed":false,"internalType":"uint256"},{"name":"minedGemCooldownDueDate","type":"uint256","indexed":false,"internalType":"uint256"},{"name":"initialGemCooldownDueDate","type":"uint256","indexed":false,"internalType":"uint256"},{"name":"miner","type":"address","indexed":false,"internalType":"address"}],"anonymous":false},{"type":"event","name":"GemMiningStarted","inputs":[{"name":"tokenId","type":"uint256","indexed":false,"internalType":"uint256"},{"name":"miner","type":"address","indexed":false,"internalType":"address"},{"name":"startMiningTime","type":"uint256","indexed":false,"internalType":"uint256"},{"name":"newminingTry","type":"uint256","indexed":false,"internalType":"uint256"}],"anonymous":false},{"type":"event","name":"GemsCoolDownPeriodModified","inputs":[{"name":"RareGemsCooldownPeriod","type":"uint32","indexed":false,"internalType":"uint32"},{"name":"UniqueGemsCooldownPeriod","type":"uint32","indexed":false,"internalType":"uint32"},{"name":"EpicGemsCooldownPeriod","type":"uint32","indexed":false,"internalType":"uint32"},{"name":"LegendaryGemsCooldownPeriod","type":"uint32","indexed":false,"internalType":"uint32"},{"name":"MythicGemsCooldownPeriod","type":"uint32","indexed":false,"internalType":"uint32"}],"anonymous":false},{"type":"event","name":"GemsMiningPeriodModified","inputs":[{"name":"RareGemsMiningPeriod","type":"uint32","indexed":false,"internalType":"uint32"},{"name":"UniqueGemsMiningPeriod","type":"uint32","indexed":false,"internalType":"uint32"},{"name":"EpicGemsMiningPeriod","type":"uint32","indexed":false,"internalType":"uint32"},{"name":"LegendaryGemsMiningPeriod","type":"uint32","indexed":false,"internalType":"uint32"},{"name":"MythicGemsMiningPeriod","type":"uint32","indexed":false,"internalType":"uint32"}],"anonymous":false},{"type":"event","name":"GemsMiningTryModified","inputs":[{"name":"RareGemsMiningTry","type":"uint8","indexed":false,"internalType":"uint8"},{"name":"UniqueGemsMiningTry","type":"uint8","indexed":false,"internalType":"uint8"},{"name":"EpicGemsMiningTry","type":"uint8","indexed":false,"internalType":"uint8"},{"name":"LegendaryGemsMiningTry","type":"uint8","indexed":false,"internalType":"uint8"},{"name":"MythicGemsMiningTry","type":"uint8","indexed":false,"internalType":"uint8"}],"anonymous":false},{"type":"event","name":"GemsValueModified","inputs":[{"name":"CommonGemsValue","type":"uint256","indexed":false,"internalType":"uint256"},{"name":"RareGemsValue","type":"uint256","indexed":false,"internalType":"uint256"},{"name":"UniqueGemsValue","type":"uint256","indexed":false,"internalType":"uint256"},{"name":"EpicGemsValue","type":"uint256","indexed":false,"internalType":"uint256"},{"name":"LegendaryValue","type":"uint256","indexed":false,"internalType":"uint256"},{"name":"MythicValue","type":"uint256","indexed":false,"internalType":"uint256"}],"anonymous":false},{"type":"event","name":"Initialized","inputs":[{"name":"version","type":"uint64","indexed":false,"internalType":"uint64"}],"anonymous":false},{"type":"event","name":"MetadataUpdate","inputs":[{"name":"_tokenId","type":"uint256","indexed":false,"internalType":"uint256"}],"anonymous":false},{"type":"event","name":"MiningCancelled","inputs":[{"name":"_tokenId","type":"uint256","indexed":false,"internalType":"uint256"},{"name":"owner","type":"address","indexed":false,"internalType":"address"},{"name":"timestamp","type":"uint256","indexed":false,"internalType":"uint256"}],"anonymous":false},{"type":"event","name":"NoGemAvailable","inputs":[{"name":"tokenId","type":"uint256","indexed":false,"internalType":"uint256"},{"name":"initialGemCooldownDueDate","type":"uint256","indexed":false,"internalType":"uint256"},{"name":"miner","type":"address","indexed":false,"internalType":"address"}],"anonymous":false},{"type":"event","name":"OwnershipTransferred","inputs":[{"name":"previousOwner","type":"address","indexed":true,"internalType":"address"},{"name":"newOwner","type":"address","indexed":true,"internalType":"address"}],"anonymous":false},{"type":"event","name":"Paused","inputs":[{"name":"account","type":"address","indexed":false,"internalType":"address"}],"anonymous":false},{"type":"event","name":"RandomGemRequested","inputs":[{"name":"tokenId","type":"uint256","indexed":false,"internalType":"uint256"},{"name":"requestNumber","type":"uint256","indexed":false,"internalType":"uint256"}],"anonymous":false},{"type":"event","name":"Transfer","inputs":[{"name":"from","type":"address","indexed":true,"internalType":"address"},{"name":"to","type":"address","indexed":true,"internalType":"address"},{"name":"tokenId","type":"uint256","indexed":true,"internalType":"uint256"}],"anonymous":false},{"type":"event","name":"TransferGEM","inputs":[{"name":"from","type":"address","indexed":false,"internalType":"address"},{"name":"to","type":"address","indexed":false,"internalType":"address"},{"name":"tokenId","type":"uint256","indexed":false,"internalType":"uint256"},{"name":"gemCooldownDueDate","type":"uint256","indexed":false,"internalType":"uint256"}],"anonymous":false},{"type":"event","name":"Unpaused","inputs":[{"name":"account","type":"address","indexed":false,"internalType":"address"}],"anonymous":false},{"type":"error","name":"AddressZero","inputs":[]},{"type":"error","name":"ColorNotExist","inputs":[]},{"type":"error","name":"ContractNotPaused","inputs":[]},{"type":"error","name":"ContractPaused","inputs":[]},{"type":"error","name":"CooldownPeriodNotElapsed","inputs":[]},{"type":"error","name":"ERC721IncorrectOwner","inputs":[{"name":"sender","type":"address","internalType":"address"},{"name":"tokenId","type":"uint256","internalType":"uint256"},{"name":"owner","type":"address","internalType":"address"}]},{"type":"error","name":"ERC721InsufficientApproval","inputs":[{"name":"operator","type":"address","internalType":"address"},{"name":"tokenId","type":"uint256","internalType":"uint256"}]},{"type":"error","name":"ERC721InvalidApprover","inputs":[{"name":"approver","type":"address","internalType":"address"}]},{"type":"error","name":"ERC721InvalidOperator","inputs":[{"name":"operator","type":"address","internalType":"address"}]},{"type":"error","name":"ERC721InvalidOwner","inputs":[{"name":"owner","type":"address","internalType":"address"}]},{"type":"error","name":"ERC721InvalidReceiver","inputs":[{"name":"receiver","type":"address","internalType":"address"}]},{"type":"error","name":"ERC721InvalidSender","inputs":[{"name":"sender","type":"address","internalType":"address"}]},{"type":"error","name":"ERC721NonexistentToken","inputs":[{"name":"tokenId","type":"uint256","internalType":"uint256"}]},{"type":"error","name":"FailedToSendEthBack","inputs":[]},{"type":"error","name":"GemAlreadyPicked","inputs":[]},{"type":"error","name":"GemIsLocked","inputs":[]},{"type":"error","name":"GemIsNotLocked","inputs":[]},{"type":"error","name":"InvalidInitialization","inputs":[]},{"type":"error","name":"InvalidQuadrant","inputs":[{"name":"quadrant","type":"uint8","internalType":"uint8"},{"name":"value","type":"uint8","internalType":"uint8"}]},{"type":"error","name":"InvalidSumOfQuadrants","inputs":[]},{"type":"error","name":"MiningPeriodNotElapsed","inputs":[]},{"type":"error","name":"MismatchedArrayLengths","inputs":[]},{"type":"error","name":"NewGemInvalidQuadrant","inputs":[{"name":"quadrantIndex","type":"uint8","internalType":"uint8"},{"name":"expectedValue1","type":"uint8","internalType":"uint8"},{"name":"expectedValue2","type":"uint8","internalType":"uint8"}]},{"type":"error","name":"NoMiningTryLeft","inputs":[]},{"type":"error","name":"NotGemOwner","inputs":[]},{"type":"error","name":"NotInitializing","inputs":[]},{"type":"error","name":"NotMining","inputs":[]},{"type":"error","name":"OwnableInvalidOwner","inputs":[{"name":"owner","type":"address","internalType":"address"}]},{"type":"error","name":"OwnableUnauthorizedAccount","inputs":[{"name":"account","type":"address","internalType":"address"}]},{"type":"error","name":"ReentrancyGuardReentrantCall","inputs":[]},{"type":"error","name":"RequestNotMade","inputs":[]},{"type":"error","name":"SameSenderAndRecipient","inputs":[]},{"type":"error","name":"SumOfQuadrantsTooHigh","inputs":[{"name":"sum","type":"uint8","internalType":"uint8"},{"name":"rarity","type":"string","internalType":"string"}]},{"type":"error","name":"TransferFailed","inputs":[]},{"type":"error","name":"URIQueryForNonexistentToken","inputs":[{"name":"tokenId","type":"uint256","internalType":"uint256"}]},{"type":"error","name":"UnauthorizedCaller","inputs":[{"name":"caller","type":"address","internalType":"address"}]},{"type":"error","name":"WrongRarity","inputs":[]}],"bytecode":{"object":"0x608060405234601f57600e6024565b60405161689c610060823961689c90f35b600080fd5b602a6051565b565b6036603660369290565b90565b60366001602c565b9060366036604d92602c565b9055565b602a60596039565b601f604156fe6080604052600436101561001257600080fd5b60003560e01c806301ffc9a7146105ed578063044bc779146105e857806304e9fd7e146105e357806306fdde03146105de578063081812fc146105d9578063093ba92b146105d4578063095ea7b3146105cf5780630a8ce210146105ca5780630b513d99146105c55780630ff1ac67146105c0578063162094c4146105bb578063166b35c9146105b657806318160ddd146105b15780631aac071d146105ac5780631c880254146105a757806323b872dd146105a2578063247ee3881461059d57806324f7469714610598578063276a28a31461059357806333d5efdb1461058e578063356edf74146105895780633d007e57146105845780633ec7af4a1461057f5780633f4ba83a1461057a5780633fad18341461057557806342842e0e146105705780634cbe43601461056b5780634d723a751461056657806350d2a27614610561578063550d01a31461055c5780635c975abb146105575780635f2d00231461055257806361f7f6d71461054d5780636352211e1461054857806363a8fd8914610543578063676f79f11461053e5780636805b84b14610539578063694eaa40146105345780636ae638d01461052f5780636c106fea1461052a57806370a08231146104a3578063715018a61461052557806372820dbc1461052057806377207e371461051b5780637866369b146105165780638456cb59146105115780638462151c1461050c578063864ccaac146105075780638d41fe30146105025780638da5cb5b146104fd5780638e80a165146104f857806394ca6449146104f357806395d89b41146104ee57806397125c40146104e9578063975781b7146104e457806397d88628146104df5780639aa19da7146104da5780639d3415f6146104d5578063a168fa89146104d0578063a1770a7d146104cb578063a20fa9e9146104c6578063a22cb465146104c1578063a4eb718c146104bc578063aa551879146104b7578063aa723bb7146104b2578063aae31df3146104ad578063ac33a273146104a8578063b4f6eae4146104a3578063b88d4fde1461049e578063b911135f14610499578063bad39efd14610494578063c0c2fd991461048f578063c13890721461048a578063c28fb6b714610485578063c61a46c514610480578063c68a53851461047b578063c87b56dd14610476578063cc98ef9614610471578063cec21acb1461046c578063e002460414610467578063e0dd8f1b14610462578063e316dc131461045d578063e985e9c514610458578063ea094c3914610453578063ea2b7b431461044e578063f0f4426014610449578063f2a6094d14610444578063f2fde38b1461043f578063f317d7dd1461043a578063f41c472914610435578063f8c8765e14610430578063f99a6bb51461042b578063fb250435146104265763ff198a1d036105f25761213c565b6120ce565b6120b6565b61209a565b612049565b611fe8565b611f41565b611f26565b611f0e565b611ef2565b611ed7565b611ea1565b611e63565b611e48565b611e2d565b611e12565b611dea565b611dcf565b611db4565b611d99565b611d7e565b611d63565b611d38565b611d1d565b611d02565b611cd6565b6115f9565b611c6c565b611c45565b611bbb565b611a72565b611a5a565b611a2d565b6119f6565b6119da565b611992565b611893565b611878565b61185d565b61183e565b6117d3565b6117a8565b61177a565b611749565b6116f3565b6116d8565b6116bd565b6116a2565b61168a565b61166f565b611644565b61162c565b611614565b6115de565b6115c3565b6115a8565b61158d565b611571565b61150b565b6114e5565b6114ae565b6112f4565b611186565b61115f565b6110ff565b61108d565b61103a565b611021565b611006565b610fee565b610fd3565b610fb8565b610f9d565b610f5c565b610f41565b610f26565b610ee5565b610eb8565b610e74565b610e58565b610dd8565b610da9565b610d90565b610d30565b6108c7565b610871565b610853565b6107e8565b6107cd565b61078b565b610762565b610696565b610634565b600080fd5b6001600160e01b031981165b036105f257565b90503590610617826105f7565b565b906020828203126105f25761062d9161060a565b90565b9052565b346105f25761066261064f61064a366004610619565b61217b565b6040515b91829182901515815260200190565b0390f35b60009103126105f257565b6001600160a01b031690565b61063090610671565b602081019291610617919061067d565b346105f2576106a6366004610666565b6106626106b16121a7565b60405191829182610686565b60ff8116610603565b90503590610617826106bd565b91906040838203126105f25761062d9060206106ef82866106c6565b94016106c6565b60005b8381106107095750506000910152565b81810151838201526020016106f9565b61073a61074360209361074d9361072e815190565b80835293849260200190565b958691016106f6565b601f01601f191690565b0190565b602080825261062d92910190610719565b346105f25761066261077e6107783660046106d3565b906121ba565b6040515b91829182610751565b346105f25761079b366004610666565b61066261077e6121da565b80610603565b90503590610617826107a6565b906020828203126105f25761062d916107ac565b346105f2576106626106b16107e33660046107b9565b6121ed565b346105f2576107f8366004610666565b610662610803612213565b6040519182918263ffffffff909116815260200190565b61060381610671565b905035906106178261081a565b91906040838203126105f25761062d90602061084c8286610823565b94016107ac565b346105f25761086c610866366004610830565b9061221d565b604051005b346105f257610881366004610666565b61066261088c612228565b6040519182918290815260200190565b600611156105f257565b905035906106178261089c565b906020828203126105f25761062d916108a6565b346105f25761066261088c6108dd3660046108b3565b612232565b634e487b7160e01b600052604160045260246000fd5b90601f01601f191681019081106001600160401b0382111761091957604052565b6108e2565b9061061761092b60405190565b92836108f8565b6001600160401b0381116109195760208091020190565b9092919261095e61095982610932565b61091e565b93818552602080860192028301928184116105f257915b8383106109825750505050565b6020809161099084866108a6565b815201920191610975565b9080601f830112156105f25781602061062d93359101610949565b6001600160401b0381116109195760200290565b909291926109da610959826109b6565b9360208592028301928184116105f257915b8383106109f95750505050565b60208091610a0784866106c6565b8152019201916109ec565b9080601f830112156105f257600261062d926109ca565b90929192610a3961095982610932565b9381855260406020860192028301928184116105f257915b838310610a5e5750505050565b6020604091610a6d8486610a12565b815201920191610a51565b9080601f830112156105f25781602061062d93359101610a29565b90929192610aa3610959826109b6565b9360208592028301928184116105f257915b838310610ac25750505050565b60208091610ad084866106c6565b815201920191610ab5565b9080601f830112156105f257600461062d92610a93565b90929192610b0261095982610932565b9381855260806020860192028301928184116105f257915b838310610b275750505050565b6020608091610b368486610adb565b815201920191610b1a565b9080601f830112156105f25781602061062d93359101610af2565b6001600160401b03811161091957602090601f01601f19160190565b90826000939282370152565b90929192610b9461095982610b5c565b93818552818301116105f257610617916020850190610b78565b9080601f830112156105f25781602061062d93359101610b84565b929190610bd861095982610932565b93818552602080860192028101918383116105f25781905b838210610bfe575050505050565b81356001600160401b0381116105f257602091610c1e8784938701610bae565b815201910190610bf0565b9080601f830112156105f25781602061062d93359101610bc9565b906080828203126105f25781356001600160401b0381116105f25781610c6b91840161099b565b9260208301356001600160401b0381116105f25782610c8b918501610a78565b9260408101356001600160401b0381116105f25783610cab918301610b41565b9260608201356001600160401b0381116105f25761062d9201610c29565b90610ce9610ce2610cd8845190565b8084529260200190565b9260200190565b9060005b818110610cfa5750505090565b909192610d17610d106001928651815260200190565b9460200190565b929101610ced565b602080825261062d92910190610cc9565b346105f257610662610d4f610d46366004610c44565b929190916124ff565b60405191829182610d1f565b9190916040818403126105f257610d7283826107ac565b9260208201356001600160401b0381116105f25761062d9201610bae565b346105f25761086c610da3366004610d5b565b9061250d565b346105f257610db9366004610666565b610662610dc461252d565b6040519182918260ff909116815260200190565b346105f257610de8366004610666565b61066261088c612568565b63ffffffff8116610603565b9050359061061782610df3565b919060a0838203126105f257610e228184610dff565b92610e308260208301610dff565b9261062d610e418460408501610dff565b936080610e518260608701610dff565b9401610dff565b346105f25761086c610e6b366004610e0c565b939290926127da565b346105f257610e84366004610666565b6106626108036127e7565b90916060828403126105f25761062d610ea88484610823565b93604061084c8260208701610823565b346105f25761086c610ecb366004610e8f565b9161290d565b906020828203126105f25761062d91610823565b346105f25761086c610ef8366004610ed1565b61295a565b61062d916008021c5b63ffffffff1690565b9061062d9154610efd565b61062d60106011610f0f565b346105f257610f36366004610666565b610662610803610f1a565b346105f25761066261064f610f573660046107b9565b612963565b346105f257610f6c366004610666565b610662610803612991565b61062d916008021c5b60ff1690565b9061062d9154610f77565b61062d60006006610f86565b346105f257610fad366004610666565b610662610dc4610f91565b346105f257610fc8366004610666565b6106626106b161299b565b346105f257610fe3366004610666565b610662610dc46129bb565b346105f257610ffe366004610666565b61086c612a60565b346105f257611016366004610666565b61066261088c612a68565b346105f25761086c611034366004610e8f565b91612a91565b346105f25761104a366004610666565b61066261088c612ab2565b801515610603565b9050359061061782611055565b91906040838203126105f25761062d90602061108682866107ac565b940161105d565b346105f25761086c6110a036600461106a565b90612b91565b6001600160e01b03191690565b906110bd906110a6565b600052602052604060002090565b61062d916008021c6001600160a01b031690565b9061062d91546110cb565b60006110fa61062d9260036110b3565b6110df565b346105f2576106626106b1611115366004610619565b6110ea565b61062d90610671906001600160a01b031682565b61062d9061111a565b61062d9061112e565b906110bd90611137565b600061115a61062d926002611140565b610f86565b346105f25761066261064f611175366004610ed1565b61114a565b61062d60006010610f86565b346105f257611196366004610666565b61066261064f61117a565b610f8061062d61062d9260ff1690565b906110bd906111a1565b634e487b7160e01b600052600060045260246000fd5b634e487b7160e01b600052602260045260246000fd5b9060016002830492168015611207575b602083101461120257565b6111d1565b91607f16916111f7565b8054600093929161122e611224836111e7565b8085529360200190565b9160018116908115611280575060011461124757505050565b61125a9192939450600052602060002090565b916000925b81841061126c5750500190565b80548484015260209093019260010161125f565b92949550505060ff1916825215156020020190565b9061062d91611211565b906106176112b9926112b060405190565b93848092611295565b03836108f8565b906000106112d15761062d9061129f565b6111bb565b6112ef61062d926112ea60009360056111b1565b6111b1565b6112c0565b346105f25761066261077e61130a3660046106d3565b906112d6565b634e487b7160e01b600052603260045260246000fd5b805482101561134957611340600891600052602060002090565b91020190600090565b611310565b61062d9081565b61062d905461134e565b61062d90610f80565b61062d905461135f565b61062d9060081c610f80565b61062d9054611372565b61062d9060101c610f80565b61062d9054611388565b6004906113a9825490565b8110156105f2576113b991611326565b50906113c482611355565b916113d160018201611355565b916113de60028301611355565b916113eb60038201611355565b916113f860048301611368565b916114056004820161137e565b9161062d600761141760048501611394565b930161129f565b634e487b7160e01b600052602160045260246000fd5b6006111561143e57565b61141e565b9061061782611434565b61062d90611443565b6106309061144d565b908152610100810196909590949093909290916020870152604086015260608501526080840161148e91611456565b60ff1660a0830152151560c08201528082039060e0015261062d91610719565b346105f2576106626114c96114c43660046107b9565b61139e565b946114dc98969894919493929360405190565b9889988961145f565b346105f2576106626106b16114fb3660046107b9565b612b9b565b61062d600080610f86565b346105f25761151b366004610666565b61066261064f611500565b61062d61062d61062d9290565b906110bd90611526565b61062d916008021c81565b9061062d915461153d565b61156c61062d92611567600093600c611140565b611533565b611548565b346105f25761066261088c611587366004610830565b90611553565b346105f25761159d366004610666565b61066261064f612ba4565b346105f2576115b8366004610666565b6106626106b1612bae565b346105f2576115d3366004610666565b6106626106b1612bb8565b346105f2576115ee366004610666565b610662610dc4612bc2565b346105f25761066261088c61160f366004610ed1565b612bcc565b346105f257611624366004610666565b61086c612c20565b346105f25761086c61163f366004610ed1565b612c3f565b346105f257611654366004610666565b610662610803612c48565b600061115a61062d92600d611533565b346105f25761066261064f6116853660046107b9565b61165f565b346105f25761169a366004610666565b61086c612ca4565b346105f257610662610d4f6116b8366004610ed1565b612cbb565b346105f2576116cd366004610666565b610662610803612d9f565b346105f2576116e8366004610666565b610662610dc4612dbf565b346105f257611703366004610666565b6106626106b1612dc9565b90916060828403126105f25781356001600160401b0381116105f2576117398461062d928501610bae565b9360406106ef82602087016106c6565b346105f25761086c61175c36600461170e565b91613204565b90815260406020820181905261062d92910190610cc9565b346105f25761179261178d3660046108b3565b61320f565b9061066261179f60405190565b92839283611762565b346105f2576117b8366004610666565b61066261077e61333b565b60006110fa61062d926008611533565b346105f2576106626106b16117e93660046107b9565b6117c3565b90610100828203126105f25761180481836108a6565b926118128260208501610a12565b926118208360608301610adb565b9260e08201356001600160401b0381116105f25761062d9201610bae565b346105f25761066261088c6118543660046117ee565b92919091614297565b346105f25761186d366004610666565b61066261088c6142a5565b346105f257611888366004610666565b61066261064f6142af565b346105f2576118a3366004610666565b61066261088c61431e565b61062d90610671565b61062d90546118ae565b61062d9060a01c610f80565b61062d90546118c1565b61062d9060a81c610f80565b61062d90546118d7565b6118f890600f611533565b9061190282611355565b9161190f60018201611355565b9161191c60028301611355565b91611929600382016118b7565b9161062d600361193a8185016118cd565b93016118e3565b919461198161198a9298979561197760a0966119706106179a61196960c08a019e60008b0152565b6020890152565b6040870152565b606085019061067d565b15156080830152565b019015159052565b346105f2576106626119ad6119a83660046107b9565b6118ed565b926119bd96949692919260405190565b96879687611941565b61115a61062d92611567600093600b611140565b346105f25761066261064f6119f0366004610830565b906119c6565b346105f257611a06366004610666565b61066261088c614328565b91906040838203126105f25761062d9060206110868286610823565b346105f25761086c611a40366004611a11565b90614332565b906020828203126105f25761062d91610dff565b346105f25761086c611a6d366004611a46565b6143a7565b346105f25761066261088c611a883660046108b3565b6143b0565b611a9d611a9960049390565b9190565b6000915b838310611aae5750505050565b611ac4610ce2600192845160ff16815260200190565b92019190611aa1565b611ad9611a9960029390565b6000915b838310611aea5750505050565b611b00610ce2600192845160ff16815260200190565b92019190611add565b8051825261062d916101c081019161012090611b2a60208201516020850152565b611b3960408201516040850152565b611b4860608201516060850152565b611b5a60808201516080850190611456565b60a08181015160ff169084015260c081810151151590840152611b8560e082015160e0850190611a8d565b611b99610100820151610160850190611acd565b0151906101a0818403910152610719565b602080825261062d92910190611b09565b346105f257610662611bd6611bd13660046107b9565b61464c565b60405191829182611baa565b80518252610617919060a0908190611bff60208201516020860152565b611c0e60408201516040860152565b611c206060820151606086019061067d565b60808181015115159085015201511515910152565b60c0810192916106179190611be2565b346105f257610662611c60611c5b3660046107b9565b6147d1565b60405191829182611c35565b346105f257611c7c366004610666565b610662610d4f614872565b906080828203126105f257611c9c8183610823565b92611caa8260208501610823565b92611cb883604083016107ac565b9260608201356001600160401b0381116105f25761062d9201610bae565b346105f25761086c611ce9366004611c87565b9291909161491f565b60006110fa61062d926001611533565b346105f2576106626106b1611d183660046107b9565b611cf2565b346105f257611d2d366004610666565b61066261080361492b565b346105f257611d48366004610666565b61066261088c614935565b600061156c61062d92600a611140565b346105f25761066261088c611d79366004610ed1565b611d53565b346105f257611d8e366004610666565b610662610d4f61493f565b346105f257611da9366004610666565b610662610dc461494c565b346105f257611dc4366004610666565b61066261080361496c565b346105f25761066261077e611de53660046107b9565b614976565b346105f25761086c611dfd366004610ed1565b6149cd565b600061156c61062d926009611140565b346105f25761066261088c611e28366004610ed1565b611e02565b346105f257611e3d366004610666565b6106626106b16149d6565b346105f257611e58366004610666565b6106626108036149f6565b346105f257611e73366004610666565b61066261088c614a00565b91906040838203126105f25761062d906020611e9a8286610823565b9401610823565b346105f25761066261064f611eb7366004611e7e565b90614a0a565b906110bd9061144d565b600061156c61062d92600e611ebd565b346105f25761066261088c611eed3660046108b3565b611ec7565b346105f25761086c611f05366004610e0c565b93929092614b82565b346105f25761086c611f21366004610ed1565b614ba6565b346105f257611f36366004610666565b610662610803614baf565b346105f25761086c611f54366004610ed1565b614c13565b91906040838203126105f25761062d90602061084c82866107ac565b805482101561134957611340600191600052602060002090565b9091906002831015611349576020611fa660019290565b8185040193060290565b600790611fbb825490565b8110156105f257611fcb91611f75565b5060028210156105f25761062d91611fe291611f8f565b90610f86565b346105f257610662610dc4611ffe366004611f59565b90611fb0565b919060a0838203126105f25761201a81846106c6565b9261202882602083016106c6565b9261062d61203984604085016106c6565b9360806106ef82606087016106c6565b346105f25761086c61205c366004612004565b93929092614d89565b6080818303126105f2576120798282610823565b9261062d61208a8460208501610823565b936060611e9a8260408701610823565b346105f25761086c6120ad366004612065565b9291909161501e565b346105f25761086c6120c93660046107b9565b61520e565b346105f2576120de366004610666565b61066261080361522d565b909160c0828403126105f2576120ff83836107ac565b9261210d81602085016107ac565b9261211b82604083016107ac565b9261062d61212c84606085016107ac565b9360a061084c82608087016107ac565b346105f25761086c61214f3660046120e9565b9493909392919261531c565b6110a661216861062d9290565b60e01b90565b61062d634906490661215b565b6121866110a661216e565b6001600160e01b031982161490811561219d575090565b61062d915061532a565b61062d601a6118b7565b61062d9061129f565b61062d916112ea6121d5926121cd606090565b5060056111b1565b6121b1565b61062d60006121e7615375565b016121b1565b61062d906121fa81615399565b506153e9565b61062d90610f06565b61062d9054612200565b61062d6011612209565b610617913391615409565b61062d6013611355565b61223c6000611443565b61224582611443565b03612255575061062d6012611355565b61225f6001611443565b61226882611443565b03612278575061062d6013611355565b6122826002611443565b61228b82611443565b0361229b575061062d6014611355565b6122a56003611443565b6122ae82611443565b036122be575061062d6015611355565b6122c86004611443565b6122d182611443565b036122e1575061062d6016611355565b6122f46122ee6005611443565b91611443565b036123035761062d6017611355565b60405162461bcd60e51b815260206004820152600c60248201526b77726f6e672072617269747960a01b6044820152606490fd5b0390fd5b9392919061235161234c601c6118b7565b610671565b61235a33610671565b036123685761062d94612383565b60405163d86ad9cf60e01b8152806123373360048301610686565b939291906123916010611368565b61239e5761062d9461240e565b60405163ab35696f60e01b8152600490fd5b906123bd61095983610932565b918252565b369037565b906106176123dd6123d7846123b0565b93610932565b601f1901602084016123c2565b906123f3825190565b811015611349576020809102010190565b61062d9051611443565b50805190939192909361242261062d855190565b85141580156124eb575b80156124d7575b6124c557612447612442825190565b6123c7565b956124526000611526565b865b8110156124bc576124b5816124af6124a261247a61247561245496896123ea565b612404565b612484848c6123ea565b5161248f858b6123ea565b519061249b868d6123ea565b5192614297565b6124ac838d6123ea565b52565b60010190565b9050612452565b50945050505050565b604051632b477e7160e11b8152600490fd5b506124e361062d845190565b851415612433565b506124f761062d835190565b85141561242c565b61062d93929190606061233b565b9061061791615416565b61062d9060201c610f80565b61062d9054612517565b61062d6010612523565b634e487b7160e01b600052601160045260246000fd5b9190612558565b9290565b820391821161256357565b612537565b61062d61257460045490565b61257e6001611526565b9061254d565b906106179493929161259461543a565b612734565b9063ffffffff60d01b9060d01b5b9181191691161790565b610f0661062d61062d9263ffffffff1690565b906125d461062d6125db926125b1565b8254612599565b9055565b9063ffffffff906125a7565b906125fb61062d6125db926125b1565b82546125df565b9063ffffffff60201b9060201b6125a7565b9061262461062d6125db926125b1565b8254612602565b9063ffffffff60401b9060401b6125a7565b9061264d61062d6125db926125b1565b825461262b565b9063ffffffff60601b9060601b6125a7565b9061267661062d6125db926125b1565b8254612654565b61062d9060d01c610f06565b61062d905461267d565b61062d9060201c610f06565b61062d9054612693565b61062d9060401c610f06565b61062d90546126a9565b61062d9060601c610f06565b61062d90546126bf565b909594926106179461271b6127289261270e60809661270160a088019c600089019063ffffffff169052565b63ffffffff166020870152565b63ffffffff166040850152565b63ffffffff166060830152565b019063ffffffff169052565b6127649261275661276b96959361274f61275d9460106125c4565b60116125eb565b6011612614565b601161263d565b6011612666565b7f3b286e7240533ee960e022a65587f2b49f2264d9390fe4d81a57a23f1054d8b96127966010612689565b6127a06011612209565b906127d56127ae601161269f565b6127b860116126b5565b6127c260116126cb565b916127cc60405190565b958695866126d5565b0390a1565b9061061794939291612584565b61062d6010612689565b91906127fd6010611368565b61239e5761061792612841565b61283d6106179461283660609498979561282c608086019a600087019061067d565b602085019061067d565b6040830152565b0152565b92919261284d81610671565b61285683610671565b146128fb576004936128738561286c8382611326565b5001611394565b6128dc57806128c960026128c2837f77bd69ae3010e08d8037a446f79c7047277d4cf3643e8690c9482338100f1c8c98996128b26127d5978a8a615488565b6128bd828a8a615532565b611326565b5001611355565b906128d360405190565b9485948561280a565b612337856128e960405190565b635399ebf560e01b8152918291820190565b604051636879d8a360e01b8152600490fd5b9061061792916127f1565b6106179061292461543a565b61294f565b906001600160a01b03906125a7565b9061294861062d6125db92611137565b8254612929565b61061790601a612938565b61061790612918565b600461286c61062d92612974600090565b5082611326565b61062d9060701c610f06565b61062d905461297b565b61062d6010612987565b61062d601e6118b7565b61062d9060281c610f80565b61062d90546129a5565b61062d60106129b1565b6129cd61543a565b6106176129e16129dd6010611368565b1590565b6129ed57610617612a1f565b60405163dcdde9dd60e01b8152600490fd5b9060ff906125a7565b90612a1861062d6125db92151590565b82546129ff565b612a2b60006010612a08565b7f5db9ee0a495bf2e6ff9c91a7834c1ba4fdd244a5e8aa4e537bd38aeae4b073aa612a5560405190565b806127d53382610686565b6106176129c5565b61062d6019611355565b906123bd61095983610b5c565b61062d6000612a72565b61062d612a7f565b909161061792612a9f612a89565b9261491f565b9190820180921161256357565b6000906004612ac060045490565b91612acb6000611526565b935b835b851015612b0457612afc612af5612acf92612aef60016128c28a89611326565b90612aa5565b9560010190565b949050612acd565b9350915050565b90612b1961234c601e6118b7565b612b2233610671565b141580612b37575b6123685761061791612b7a565b50612b4561234c601d6118b7565b612b4e33610671565b1415612b2a565b9062ff00009060101b6125a7565b90612b7361062d6125db92151590565b8254612b55565b906004612b8a6106179382611326565b5001612b63565b9061061791612b0b565b61062d90615399565b61062d6010611368565b61062d601d6118b7565b61062d601b6118b7565b61062d601061137e565b612be361062d91612bdb600090565b506009611140565b611355565b612bf061543a565b610617612c0e565b61067161062d61062d9290565b61062d90612bf8565b610617612c1b6000612c05565b6155c3565b610617612be8565b61061790612c3461543a565b61061790601e612938565b61061790612c28565b61062d60116126b5565b612c5a61543a565b610617612c676010611368565b61239e57610617612c7a60016010612a08565b7f62e78cea01bee320cd4e420270b5ea74000d11b0c9f74754ebdbfc544b05a258612a5560405190565b610617612c52565b60001981146125635760010190565b612cc481612bcc565b600090612cd082611526565b8103612ce5575061062d915061244290611526565b612cee906123c7565b91612cf7612568565b90612d0183611526565b925060019182612d116001611526565b905b612d20575b505050505090565b818111612d8457612d3a612d35826008611533565b6118b7565b612d4c612d4685610671565b91610671565b14612d61575b612d5b90612cac565b83612d13565b93612d7c81612d77876124ac612d5b958b6123ea565b612cac565b949050612d52565b612d18565b61062d9060301c610f06565b61062d9054612d89565b61062d6010612d95565b61062d9060181c610f80565b61062d9054612da9565b61062d6010612db5565b61062d6000612dd6615620565b016118b7565b906106179291612dea61543a565b61315a565b9160001960089290920291821b911b6125a7565b921b90565b9190612e1961062d6125db93611526565b908354612def565b61061791600091612e08565b818110612e38575050565b80612e466000600193612e21565b01612e2d565b9190601f8111612e5b57505050565b612e6d61061793600052602060002090565b906020601f840181900483019310612e90575b6020601f909101045b0190612e2d565b9091508190612e80565b9060001960089091021c191690565b81612eb391612e9a565b906002021790565b90612ec4815190565b906001600160401b03821161091957612ee782612ee185546111e7565b85612e4c565b602090601f8311600114612f15576125db929160009183612f0a575b5050612ea9565b015190503880612f03565b601f19831691612f2a85600052602060002090565b9260005b818110612f6957509160029391856001969410612f4f575b50505002019055565b612f5f910151601f841690612e9a565b9055388080612f46565b91936020600181928787015181550195019201612f2e565b9061061791612ebb565b61095961062d916109b6565b90612faa90600019906020036008021c90565b8154169055565b919091828210612fc057505050565b610617926020601f909101049060016020612fe3601f86018290049390565b9390565b92830194060260008111612ffa575b500190612e2d565b6130079060018503612f97565b38612ff2565b90600160401b8111610919576106179160025b90612fb1565b919060086125a7910291612e0360ff841b90565b9060029061255461304f9161062d848661300d565b602082049160005b8381106130bd575060208302900360008111613074575b50505050565b9260009360005b8181106130905750505001553880808061306e565b90919460206130b36001926130a961062d8a5160ff1690565b9085850290613026565b960192910161307b565b6000805b602081106130d6575083820155600101613057565b959060206130f86001926130ee61062d865160ff1690565b908a850290613026565b920196016130c1565b91906112d1576106179161303a565b80549190600160401b831015610919578261313391600161061795018155611f75565b90613101565b60ff1660ff81146125635760010190565b90612a1861062d6125db926111a1565b91906131a39161317884613173836112ea8660056111b1565b612f81565b61319e60079161319461318b6002612f8b565b60ff9095168552565b60ff166020840152565b613110565b6131bf6131b86131b36006611368565b613139565b600661314a565b7fe4d2864ec291f6f11cb3363fa1bd2a4d5ff49a2cfdf4bf7dfe3b90a26b8c776f6131ff6131f56131f06006611368565b6111a1565b9261078260405190565b0390a2565b906106179291612ddc565b90600480549160009161322183611526565b9161322b856123c7565b8391845b875b8110156132e957613246612d35826008611533565b613256612d4661234c601c6118b7565b14806132d2575b806132aa575b613277575b613231906001015b905061322f565b94926132706132a1612af5613231936124af6132978c6128c28d8d611326565b6124ac838a6123ea565b96915050613268565b506132c0856132b98382611326565b5001611368565b6132cc6122ee8b611443565b14613263565b506132e46129dd8661286c8482611326565b61325d565b5093955093955050506133046132fe846123c7565b94611526565b8381101561333357806124af61332461332061332e94876123ea565b5190565b6124ac83896123ea565b613304565b509190509190565b61062d60016121e7615375565b9392919061335961234c601c6118b7565b61336233610671565b036123685761062d94939291906133796010611368565b61239e5761062d9461350e565b9060025b811015611349576020020190565b90600461338a565b6133af9060ff165b9160ff1690565b019060ff821161256357565b610f8061062d61062d9290565b610630906133bb565b6040906133fb61061794969593966133f1606084019860008501906133c8565b60208301906133c8565b01906133c8565b610f0661062d61062d9290565b61062d61062d61062d9263ffffffff1690565b61342e611a9960029390565b6000915b83831061343f5750505050565b613455610ce2600192845160ff16815260200190565b92019190613432565b61346a611a9960049390565b6000915b83831061347b5750505050565b613491610ce2600192845160ff16815260200190565b9201919061346e565b9897956134f0610160966134e66135069760808e61283d6134f8989a6106179f9a6134dc906134d261018086019e6000870190611456565b6020850190613422565b60ff166060830152565b60a08c019061345e565b6101208a0152565b878203610140890152610719565b94019061067d565b93919092935060009261353361352c61352686611526565b84613386565b5160ff1690565b6135576129dd60019261355161352c61354b86611526565b88613386565b9061564e565b6142855761358e61357361352c61356d88611526565b89613398565b61358861352c61358285611526565b8a613398565b906133a0565b906135aa60029261358861352c6135a486611526565b8b613398565b6135c560039161358861352c6135bf85611526565b8c613398565b926135cf88611443565b6135d886611443565b03613873576135ec61352c6135a48a611526565b6135f86133a8856133bb565b141580613850575b6138415761361361352c6135a485611526565b61361f6133a8856133bb565b14158061381e575b6137fa5761363a61352c6135a483611526565b6136466133a8856133bb565b1415806137d7575b6137b35761366161352c6135a484611526565b61366d6133a8856133bb565b141580613790575b61376d5750505061368660086133bb565b60ff8216101561372557509061371f60008051602061684783398151915293926136af86613402565b936136d66136d06136c96136c36012611355565b996133bb565b965b61340f565b42612aa5565b6136ec8287838b8d8a893360096008600461587f565b986136f78a3361595c565b613701838b615416565b61370a8a611526565b9861371460405190565b97889733968961349a565b0390a290565b6123379061373260405190565b634967af1f60e11b815260ff909116600482015260406024820152600660448201526521a7a6a6a7a760d11b60648201529081906084820190565b6123379061377a60405190565b6358be4af360e11b8152938493600485016133d1565b506137a061352c6135a484611526565b6137ac6133a8836133bb565b1415613675565b826123376137c060405190565b6358be4af360e11b815292839281600485016133d1565b506137e761352c6135a483611526565b6137f36133a8836133bb565b141561364e565b8261233761380760405190565b6358be4af360e11b815292839280600485016133d1565b5061382e61352c6135a485611526565b61383a6133a8836133bb565b1415613627565b87612337849261377a60405190565b5061386061352c6135a48a611526565b61386c6133a8836133bb565b1415613600565b91909293959661388282611443565b61388b88611443565b03613a875761389f61352c6135a483611526565b6138ab6133a8856133bb565b141580613a64575b613a5557506138c761352c61358283611526565b6138d36133a8846133bb565b141580613a32575b613a2557506138ef61352c61356d83611526565b6138fb6133a8836133bb565b141580613a02575b6139f65761391661352c61356d84611526565b6139226133a8836133bb565b1415806139d3575b6139c757505061393a600c6133bb565b60ff8216101561397f5750906000805160206168478339815191529161371f6139636010612689565b9261396e6013611355565b956136d66136d06136c9601061137e565b6123379061398c60405190565b634967af1f60e11b81529182916004830160ff919091168152604060208201819052600490820152635241524560e01b606082015260800190565b6123376137c060405190565b506139e361352c61356d84611526565b6139ef6133a8846133bb565b141561392a565b61233761380760405190565b50613a1261352c61356d83611526565b613a1e6133a8846133bb565b1415613903565b6123378361377a60405190565b50613a4261352c61358283611526565b613a4e6133a8856133bb565b14156138db565b90506123378361377a60405190565b50613a7461352c6135a483611526565b613a806133a8866133bb565b14156138b3565b613a9083611443565b613a9988611443565b03613cd357613aad61352c6135a483611526565b613ab96133a8866133bb565b141580613caf575b613c9f5750613ad561352c61358283611526565b613ae16133a8856133bb565b141580613c7b575b613c6b5750613afd61352c61356d83611526565b613b096133a8846133bb565b141580613c47575b613c245750613b2b61352c613b2583611526565b88613398565b613b376133a8836133bb565b141580613c00575b613bdb5750613b4e60106133bb565b60ff82161015613b935750906000805160206168478339815191529161371f613b776011612209565b92613b826014611355565b956136d66136d06136c96010611394565b61233790613ba060405190565b634967af1f60e11b815260ff9091166004820152604060248201526006604482015265554e4951554560d01b60648201529081906084820190565b600490612337613bea60405190565b6358be4af360e11b8152928392808285016133d1565b50613c1061352c613b2583611526565b613c1d6133a860046133bb565b1415613b3f565b6123376004613c3260405190565b6358be4af360e11b81529384938285016133d1565b50613c5761352c61356d83611526565b613c646133a860046133bb565b1415613b11565b90506123376004613c3260405190565b50613c8b61352c61358283611526565b613c986133a860046133bb565b1415613ae9565b83906123376004613c3260405190565b50613cbf61352c6135a483611526565b613ccc6133a860046133bb565b1415613ac1565b929190613cdf83611443565b613ce888611443565b03613f0957613cfc61352c6135a486611526565b93600494613d0c6133a8876133bb565b141580613ee5575b613ed55750613d2861352c6135a483611526565b613d346133a8866133bb565b141580613eb1575b613ea15750613d5061352c61358283611526565b613d5c6133a8856133bb565b141580613e7d575b613e6d5750613d7861352c61356d83611526565b613d846133a8846133bb565b141580613e49575b613e265750613d9b60146133bb565b60ff83161015613de1575050906000805160206168478339815191529161371f613dc5601161269f565b92613dd06015611355565b956136d66136d06136c96010612db5565b612337613ded60405190565b634967af1f60e11b8152928392830160ff919091168152604060208201819052600490820152634550494360e01b606082015260800190565b6123376005613e3460405190565b6358be4af360e11b81529384938185016133d1565b50613e5961352c61356d83611526565b613e666133a860056133bb565b1415613d8c565b90506123376005613e3460405190565b50613e8d61352c61358283611526565b613e9a6133a860056133bb565b1415613d64565b83906123376005613e3460405190565b50613ec161352c6135a483611526565b613ece6133a860056133bb565b1415613d3c565b84906123376005613e3460405190565b50613ef561352c6135bf83611526565b613f026133a860056133bb565b1415613d14565b9290600493613f1785611443565b613f2089611443565b0361414e57613f3461352c6135bf85611526565b92600593613f446133a8866133bb565b141580614124575b6141145750613f6061352c6135bf83611526565b613f6c6133a8856133bb565b1415806140f0575b6140e05750613f8861352c6135a483611526565b613f946133a8846133bb565b1415806140bc575b6140ac5750613fb061352c61358284611526565b613fbc6133a8836133bb565b141580614088575b614064575050613fd460186133bb565b60ff8316101561401a575050906000805160206168478339815191529161371f613ffe60116126b5565b926140096016611355565b956136d66136d06136c96010612523565b61233761402660405190565b634967af1f60e11b8152928392830160ff919091168152604060208201819052600990820152684c4547454e4441525960b81b606082015260800190565b6123376006849261407460405190565b6358be4af360e11b815294859485016133d1565b5061409861352c61358284611526565b6140a56133a860066133bb565b1415613fc4565b8361233760068461407460405190565b506140cc61352c6135a483611526565b6140d96133a860066133bb565b1415613f9c565b8461233760068561407460405190565b5061410061352c6135bf83611526565b61410d6133a860066133bb565b1415613f74565b8561233760068661407460405190565b5061413a61352c61413483611526565b8d613398565b6141476133a860066133bb565b1415613f4c565b9194509161415c6005611443565b61416588611443565b036142665761417961352c6135a487611526565b926006936141896133a8866133bb565b141592831561423f575b508215614218575b5081156141f3575b506141e557505050906000805160206168478339815191529161371f6141c960116126cb565b926141d46017611355565b956136d66136d06136c960106129b1565b806123379161407460405190565b614204915061356d61352c91611526565b6142106133a8836133bb565b1415386141a3565b61422a91925061358261352c91611526565b6142366133a8846133bb565b1415903861419b565b6142519193506135a461352c91611526565b61425d6133a8856133bb565b14159138614193565b6123378461427360405190565b63036cae1f60e31b8152918291820190565b604051634441919d60e11b8152600490fd5b61062d939291906000613348565b61062d6015611355565b60048054906142be6000611526565b82811015614316576142d4612d35826008611533565b6142e4612d4661234c601c6118b7565b14806142ff575b6142f7576001016142be565b505050600190565b506143116129dd8361286c8482611326565b6142eb565b505050600090565b61062d6016611355565b61062d6014611355565b61061791903361596e565b6106179061434961543a565b614377565b9063ffffffff60801b9060801b6125a7565b9061437061062d6125db926125b1565b825461434e565b6127d57fac6522accfa77170701f8664616dbcb859ffbca2d931ffa46de278f184d5106b91610803816011614360565b6106179061433d565b612be361062d916143bf600090565b50600e611ebd565b61062d61014061091e565b906106176143e86143e284612f8b565b936109b6565b836123c2565b61062d60046143d2565b61062d60026143d2565b61440a6143c7565b906000825260208080808080808080808b016000815201600081520160008152016000815201600081520160008152016144426143ee565b81520161444d6143f8565b8152016060905250565b61062d614402565b9061063090611443565b6020600161306e6144a4936144a48484818181614494614490839d61448c600490565b5090565b9790565b966144ab81600099549d8e61135f565b60ff169052565b019501946144bc816144a48c611372565b019301926144cd816144a48a611388565b019384920195612da9565b9061074d81608093614469565b906106176112b9926144f660405190565b938480926144d8565b602080614513612fdf60019561448c600290565b5492614522816144a48661135f565b0161306e816144a48660000195611372565b9061074d816040936144ff565b906106176112b99261455260405190565b93848092614534565b9061061761463b600761456c6143c7565b9461457d61457982611355565b8752565b61459361458c60018301611355565b6020880152565b6145a96145a260028301611355565b6040880152565b6145bf6145b860038301611355565b6060880152565b6145d76145ce60048301611368565b6080880161445f565b6145f06145e66004830161137e565b60ff1660a0880152565b6146086145ff60048301611394565b151560c0880152565b61461e614617600583016144e5565b60e0880152565b61463561462d60068301614541565b610100880152565b0161129f565b610120840152565b61062d9061455b565b614654614457565b5060006146616000611526565b600461466e61062d825490565b8210156146a757614683836128c28484611326565b84146146925750600101614661565b61062d93506146a19250611326565b50614643565b60405162461bcd60e51b815260206004820152602d60248201527f47656d2077697468207468652073706563696669656420746f6b656e4964206460448201526c1bd95cc81b9bdd08195e1a5cdd609a1b6064820152608490fd5b61062d60c061091e565b614714614702565b906000825260208080808080870160008152016000815201600081520160008152016000905250565b61062d61470c565b9061063090610671565b906106176147bf6003614760614702565b9461476d61457982611355565b61477c61458c60018301611355565b61478b6145a260028301611355565b6147a26147998383016118b7565b60608801614745565b6147b96147b08383016118cd565b15156080880152565b016118e3565b151560a0840152565b61062d9061474f565b6147e861062d916147e061473d565b50600f611533565b6147c8565b906148086147fc610cd8845490565b92600052602060002090565b9060005b8181106148195750505090565b90919261483d61483660019261482e87611355565b815260200190565b9460010190565b92910161480c565b9061062d916147ed565b906106176112b99261486060405190565b93848092614845565b61062d9061484f565b61062d6018614869565b9291906148896010611368565b61239e579192610617929161489d82610671565b6148a684610671565b146128fb576004946148bc8661286c8482611326565b61491257906128c960026128c2837f77bd69ae3010e08d8037a446f79c7047277d4cf3643e8690c9482338100f1c8c98996128bd6127d5976148ff848c8c615488565b61490a848c8c615532565b838b8b615a76565b612337866128e960405190565b9061061793929161487c565b61062d60116126cb565b61062d6017611355565b61062d6116b8601c6118b7565b61062d6010611394565b61062d9060901c610f06565b61062d9054614956565b61062d6010614962565b6149826129dd82615b72565b61498f5761062d90615bff565b6123379061499c60405190565b633af8b4af60e11b81529182916004830190815260200190565b610617906149c261543a565b61061790601d612938565b610617906149b6565b61062d601c6118b7565b61062d9060b01c610f06565b61062d90546149e0565b61062d60106149ec565b61062d6012611355565b61062d91614a2e614a3392614a1d600090565b506005614a28615375565b01611140565b611140565b611368565b9061061794939291614a4861543a565b614b1a565b9063ffffffff60301b9060301b6125a7565b90614a6f61062d6125db926125b1565b8254614a4d565b9063ffffffff60501b9060501b6125a7565b90614a9861062d6125db926125b1565b8254614a76565b9063ffffffff60701b9060701b6125a7565b90614ac161062d6125db926125b1565b8254614a9f565b9063ffffffff60901b9060901b6125a7565b90614aea61062d6125db926125b1565b8254614ac8565b9063ffffffff60b01b9060b01b6125a7565b90614b1361062d6125db926125b1565b8254614af1565b91936127d591937f12db92c8c4542eebc521c0180f8ce8d4c77dad4fcfb9f9f9c1c8b31e0b9cd81195614b4e856010614a5f565b614b59866010614a88565b614b64816010614ab1565b614b6f826010614ada565b614b7a836010614b03565b6040516127cc565b9061061794939291614a38565b61061790614b9b61543a565b61061790601c612938565b61061790614b8f565b61062d601161269f565b61061790614bc561543a565b614bcf6000612c05565b614bd881610671565b614be183610671565b14614bf05750610617906155c3565b61233790614bfd60405190565b631e4fbdf760e01b815291829160048301610686565b61061790614bb9565b9061061794939291614c2c61543a565b614d1d565b9061ff009060081b6125a7565b90614c4e61062d6125db926111a1565b8254614c31565b90612b7361062d6125db926111a1565b9063ff0000009060181b6125a7565b90614c8461062d6125db926111a1565b8254614c65565b9060ff60201b9060201b6125a7565b90614caa61062d6125db926111a1565b8254614c8b565b9060ff60281b9060281b6125a7565b90614cd061062d6125db926111a1565b8254614cb1565b90959492610617946134dc614d1492614d0a608096614d0060a088019c600089019060ff169052565b60ff166020870152565b60ff166040850152565b019060ff169052565b91936127d591937f06b36b7c2517dbb6d0fec68beba3c915efebf56980628b2181e3fcd96920910e95614d51856010614c3e565b614d5c866010614c55565b614d67816010614c74565b614d72826010614c9a565b614d7d836010614cc0565b60405195869586614cd7565b9061061794939291614c1c565b61062d9060401c610f80565b61062d9054614d96565b61062d905b6001600160401b031690565b61062d9054614dac565b614db161062d61062d9290565b906001600160401b03906125a7565b614db161062d61062d926001600160401b031690565b90614e0961062d6125db92614de3565b8254614dd4565b9060ff60401b9060401b6125a7565b90614e2f61062d6125db92151590565b8254614e10565b61063090614dc7565b6020810192916106179190614e36565b92919091614e5b615c6b565b938491614e73614e6d6129dd85614da2565b93614dbd565b93600095614e8087614dc7565b6001600160401b0387161480614f78575b600196614ead614ea089614dc7565b916001600160401b031690565b149081614f54575b155b9081614f4b575b50614f3957614ee79385614ede89614ed58a614dc7565b9b019a8b614df9565b614f2a57614fc5565b614ef057505050565b614f1e6127d5927fc7f505b2f371ae2175ee4913f4499e1f2633a7b5936321eed1cdaeb6115181d294614e1f565b60405191829182614e3f565b614f34878a614e1f565b614fc5565b60405163f92ee8a960e01b8152600490fd5b15905038614ebe565b9050614eb7614f6230611137565b3b614f6f611a998b611526565b14919050614eb5565b5084614e91565b614f896007612a72565b6623b2b6a9aa27a760c91b602082015290565b61062d614f7f565b614fae6003612a72565b6247454d60e81b602082015290565b61062d614fa4565b91614ffa61500192614ff36150089695614fee614fe0614f9c565b614fe8614fbd565b90615ca6565b615cc5565b601a612938565b601b612938565b601c612938565b610617615017623d0900613402565b6011614360565b90610617939291614e4f565b6150346010611368565b61239e57610617906150a1565b9050519061061782611055565b906020828203126105f25761062d91615041565b91602061061792949361283d6040820196600083019061067d565b6040513d6000823e3d90fd5b908152604081019291610617916020905b019061067d565b6150ae61234c6000612c05565b6150b733610671565b146151fc576150ca612d35826008611533565b6150d6612d4633610671565b036151ea576004600060206151456150f360016128c28787611326565b61510286336009600889615f3c565b61510b86615f66565b61512061511b61511b601c6118b7565b611137565b9061512a60405190565b9485938492839190630169dc3160e01b8352338a8401615062565b03925af180156151e55761515f916000916151bc57501590565b61519d57506127d57f65aff8e0552d208dfaf55b1280e55553b7dba628290897ff43c8f086d5dbfd2a9161519260405190565b918291339083615089565b612337906151aa60405190565b6312171d8360e31b8152918291820190565b6129dd915060203d6020116151de575b6151d681836108f8565b81019061504e565b503d6151cc565b61507d565b6040516302b327b560e41b8152600490fd5b604051639fabe1c160e01b8152600490fd5b6106179061502a565b61062d9060501c610f06565b61062d9054615217565b61062d6010615223565b90610617959493929161524861543a565b6152a4565b90600019906125a7565b9061526761062d6125db92611526565b825461524d565b919461529d61283d9298979561529660a0966119706106179a61196960c08a019e60008b0152565b6060850152565b6080830152565b92937f6474c0fa1cc494f92527db3b4306654db98a8ff14de99d615b7e445e0266ef439591946127d5936152d9866012615257565b6152e4876013615257565b6152ef816014615257565b6152fa826015615257565b615305836016615257565b615310846017615257565b6040519687968761526e565b906106179594939291615237565b6380ac58cd60e01b6001600160e01b031982161490811561535a575b8115615350575090565b61062d9150615f8f565b6001600160e01b03198116635b5e139f60e01b149150615346565b7f80bb2b638cc20bc4d0a60d66940f3ab4a00c1d7b313497ca82fb0b4ab007930090565b6153a281615fa3565b906153b061234c6000612c05565b6153b983610671565b146153c2575090565b612337906153cf60405190565b637e27328960e01b81529182916004830190815260200190565b612d3561062d916153f8600090565b506004615403615375565b01611533565b9160019161061793615fbd565b9061542361234c83612b9b565b61542c33610671565b036151ea57610617916160f8565b615442612dc9565b3390615450612d4683610671565b036154585750565b6123379061546560405190565b63118cdaa760e01b815291829160048301610686565b8015612563576000190190565b6154f36154fa926154ee610617956154c7600460026154c0846154ba6136d06154b5866132b98582611326565b61612f565b93611326565b5001615257565b6154e76154d5846009611140565b6154e1612d7782611355565b90615257565b6008611533565b612938565b6009611140565b6154e161550682611355565b61547b565b60409061509a610617949695939661552b6060840198600085019061067d565b6020830152565b9061553d6000612c05565b61554681610671565b61554f83610671565b146155a057506155619083339161623f565b61556a82610671565b61557382610671565b0361557d57505050565b6123379061558a60405190565b6364283d7b60e01b81529384936004850161550b565b612337906155ad60405190565b633250574960e11b815291829160048301610686565b6155ed6155e760006155d3615620565b0161511b846155e1836118b7565b92612938565b91611137565b907f8be0079c531659141344cd1fd0a4f28419497f9722a3daafe3b4186f6b6457e061561860405190565b80805b0390a3565b7f9016d09d72d40fdae2fd8ceac6b6234c7706214fd39c1cd1e609a0528c19930090565b61062d90546111e7565b61062d615669926112ea615664936121cd600090565b615644565b615676611a996000611526565b1190565b90612a1861062d6125db9261144d565b90600160401b811161091957610617916004613020565b906004906125546156b69161062d848661568a565b602082049160005b8381106157195750602083029003600081116156da5750505050565b9260009360005b8181106156f65750505001553880808061306e565b909194602061570f6001926130a961062d8a5160ff1690565b96019291016156e1565b6000805b602081106157325750838201556001016156be565b9590602061574a6001926130ee61062d865160ff1690565b9201960161571d565b90610617916156a1565b906106179161303a565b600761584061012061061794615787615781600083015190565b86615257565b61579e615795602083015190565b60018701615257565b6157b56157ac604083015190565b60028701615257565b6157cc6157c3606083015190565b60038701615257565b61580c600486016157e86157e260808501612404565b8261567a565b6157ff6157f960a085015160ff1690565b82614c3e565b60c0830151151590612b63565b61582361581a60e083015190565b60058701615753565b61583b61583261010083015190565b6006870161575d565b015190565b9101612f81565b91906112d15761061791615767565b80549190600160401b831015610919578261587991600161061795018155611326565b90615847565b94919883989a939794969196615893600090565b506000809c6158a06143c7565b976158aa83611526565b9289018390526020890152604088015260608701526158cc906080870161445f565b60ff1660a085015289151560c085015260e08401526101008301526101208201526158f79082615856565b80546159036001611526565b61590c9161254d565b8096615919828094611326565b50019061592591615257565b61592e91611533565b9061593891612938565b61594191611140565b61594a81611355565b61595390612cac565b61062d91615257565b61061791615968612a89565b9161637c565b615976615375565b61598361234c6000612c05565b61598c84610671565b146159e6576159dc6159d68361511b876159d188614a2e7f17307eab39ab6107e8899845ad3d59bd9653f200f220920489ca2b5937696c3199600561561b9a01611140565b612a08565b93611137565b9361065360405190565b612337836159f360405190565b630b61174360e31b815291829160048301610686565b90505190610617826105f7565b906020828203126105f25761062d91615a09565b9092615a4a9061283661062d969461282c6080860197600087019061067d565b6060818403910152610719565b3d15615a7157615a663d612a72565b903d6000602084013e565b606090565b909291833b615a88611a996000611526565b11615a935750505050565b602091615aa261511b86611137565b90600033615acc615ab260405190565b97889687958694630a85bd0160e11b865260048601615a2a565b03925af160009181615b41575b50615b185750615ae7615a57565b90615af0825190565b615afd611a996000611526565b03615b0f57612337906155ad60405190565b50805190602001fd5b615b32630a85bd0160e11b5b916001600160e01b03191690565b036155a057503880808061306e565b615b6491925060203d602011615b6b575b615b5c81836108f8565b810190615a16565b9038615ad9565b503d615b52565b612d35615b8991615b81600090565b506008611533565b615b99612d4661234c6000612c05565b141590565b61074d615bb692602092615bb0815190565b94859290565b938491016106f6565b615bcd9061062d9392615b9e565b90615b9e565b615bf3929161061791615be560405190565b948592602084019283615bbf565b908103825203836108f8565b615c206121d5826000615c1061639b565b615c1983615399565b5001611533565b615c286163bf565b8051615c37611a996000611526565b14615c65578151615c4b611a996000611526565b11615c5b57505061062d906163c7565b61062d9250615bd3565b50905090565b7ff0c57e16840df040f15088dc2f81fe391c3923bec73e23a9662efc9c229c6a0090565b9061061791615c9c61640a565b9061061791616459565b9061061791615c8f565b61061790615cbc61640a565b6106179061646f565b61061790615cb0565b6106179060015b810190612e2d565b906000036112d15761061790615cce565b610617906001615cd5565b906000036112d15761061790615cee565b90600091615d28615d2082600052602060002090565b928354612ea9565b905555565b9192906020821015615d8557601f8411600114615d4f576125db929350612ea9565b5090615d80610617936001615d77615d6c85600052602060002090565b92601f602091010490565b82019101612e2d565b615d0a565b50615dbe8293615d9c600194600052602060002090565b612e896020601f860104820192601f861680615dc6575b50601f602091010490565b600202179055565b615dd290888603612f97565b38615db3565b929091600160401b82116109195760201115615e1f576020811015615e00576125db91612ea9565b60019160ff1916615e1684600052602060002090565b55600202019055565b60019150600202019055565b908154615e37816111e7565b90818311615e5f575b818310615e4d5750505050565b615e5693615d2d565b3880808061306e565b615e6b83838387615dd8565b615e40565b600061061791615e2b565b906000036112d15761061790615e70565b6000600761061792615ea083808301612e21565b615ead8360018301612e21565b615eba8360028301612e21565b615ec78360038301612e21565b826004820155615eda8360058301615cdd565b615ee78360068301615cf9565b01615e7b565b906000036112d15761061790615e8c565b916001600160a01b0360089290920291821b911b6125a7565b9190615f2861062d6125db93611137565b908354615efe565b61061791600091615f17565b906115676154fa600095615f6195614a2e615f5b8a6106179b98611326565b90615eed565b615f30565b615f706000612c05565b615f87612d46615f8183858161623f565b92610671565b146153c25750565b615f9f6301ffc9a760e01b615b24565b1490565b612d3561062d91615fb2600090565b506002615403615375565b929091615fc8615375565b918081156160da575b615fe9575b5050610617929160046154ee9201611533565b615ff284615399565b9161600061234c6000612c05565b61600982610671565b1415806160c0575b806160ad575b61608a57506154ee9261061795949260049261603a575b50925081939450615fd6565b61604390611137565b61604c86611137565b61605585611526565b917f8c5be1e5ebec7d5bd14f71427d1e84f3dd0314c0f7b2291e5b200ac8c7c3b92561608060405190565b600090a43861602e565b6123379061609760405190565b63a9fbf51f60e01b815291829160048301610686565b506160bb6129dd8285614a0a565b616017565b506160ca81610671565b6160d384610671565b1415616011565b506160e861234c6000612c05565b6160f183610671565b1415615fd1565b6127d59061088c7ff8e1a15aba9398e019f0b49df1a4fde98ee17ae345cb5f6b5e2c27f5033e8ce79361317383600061540361639b565b6161396000611443565b61614282611443565b14616234576161516001611443565b61615a82611443565b14616226576161696002611443565b61617282611443565b14616218576161816003611443565b61618a82611443565b1461620a576161996004611443565b6161a282611443565b146161fc576161b46122ee6005611443565b146161ef5760405162461bcd60e51b815260206004820152600e60248201526d496e76616c69642072617269747960901b6044820152606490fd5b61062d6136cb60116126cb565b5061062d6136cb60116126b5565b5061062d6136cb601161269f565b5061062d6136cb6011612209565b5061062d6136cb6010612689565b5061062d6000611526565b906162ba826154ee836002616252615375565b6162a661625e84615fa3565b9960008b8661626c83612c05565b9361627685610671565b61627f82610671565b0361636b575b50505061629182610671565b61629a8d610671565b0361632d575b50610671565b6162af86610671565b036163015701611533565b6162cf6162c96159d685611137565b91611526565b917fddf252ad1be2c89b69c2b068fc378daa952ba7f163c4a11628f55a4df523b3ef6162fa60405190565b600090a490565b61632861630e6001611526565b6154e161631e8860038601611140565b9161074d83611355565b615403565b61633990828781615fbd565b6163658b6154e161635761634d6001611526565b9260038801611140565b9161636183611355565b0390565b386162a0565b61637492616478565b8b8638616285565b90610617929161638c82826164d3565b6163966000612c05565b615a76565b7f0542a41881ee128a365a727b282c86fa859579490b9bb45aab8503648c8e790090565b61062d612a89565b6163d081615399565b506163d96163bf565b80516163e8611a996000611526565b1115616400576163fa61062d92616580565b90615bd3565b505061062d612a89565b6164156129dd616613565b61641b57565b604051631afcd79f60e31b8152600490fd5b906106179161643a61640a565b9060016106179261645361644c615375565b9182612f81565b01612f81565b906106179161642d565b61061790614bc561640a565b61061790616463565b6164866129dd848484616626565b61648f57505050565b61649f612d4661234c6000612c05565b036164b157612337826153cf60405190565b6123376164bd60405190565b63177e802f60e01b815292839260048401615062565b906164de6000612c05565b916164e883610671565b6164f182610671565b146165385761650191839161623f565b61650d612d4683610671565b036165155750565b6123379061652260405190565b6339e3563760e11b815291829160048301610686565b612337836155ad60405190565b906106176123dd61655584612a72565b93610b5c565b634e487b7160e01b600052601260045260246000fd5b811561657b570490565b61655b565b616589816166aa565b9061659a60019261074d6001611526565b91806165a584616545565b936020018401905b6165b8575b50505090565b811561660e576165f29060001901926f181899199a1a9b1b9c1cb0b131b232b360811b600a82061a84536165ec600a611526565b90616571565b9081616601611a996000611526565b1461660e579091816165ad565b6165b2565b61062d6000616620615c6b565b01614da2565b9061663461234c6000612c05565b61663d82610671565b1415928361664b5750505090565b9091925061665882610671565b61666184610671565b14928315616696575b50821561667c575b50503880806165b2565b61668e919250615f81612d46916153e9565b143880616672565b6166a39193508290614a0a565b913861666a565b6166b46000611526565b9072184f03e93ff9f4daa797ed6e38ed64bf6a1f0160401b6166d581611526565b821015616824575b506904ee2d6d415b85acef8160201b6166f581611526565b821015616802575b50662386f26fc1000061670f81611526565b8210156167e0575b506305f5e10061672681611526565b8210156167be575b5061271061673b81611526565b82101561679c575b5061674e6064611526565b81101561677a575b616763611a99600a611526565b101561676c5790565b61062d9061074d6001611526565b61678b616796916165ec6064611526565b9161074d6002611526565b90616756565b6167b7916165ec6167ac92611526565b9161074d6004611526565b9038616743565b6167d9916165ec6167ce92611526565b9161074d6008611526565b903861672e565b6167fb916165ec6167f092611526565b9161074d6010611526565b9038616717565b61681d916165ec61681292611526565b9161074d6020611526565b90386166fd565b61683f916165ec61683492611526565b9161074d6040611526565b90386166dd56fe0e027f6f5631612aa005651eea501b4da1f9d6380d2c2d3cfa4b6b1fddd5b23ea26469706673582212200304c628bda1dd26da1697bcb1a7ea485693efb380c6909015d0e1d14c78409164736f6c63430008190033","linkReferences":{}},"methodIdentifiers":{"GEMIndexToOwner(uint256)":"97125c40","Gems(uint256)":"61f7f6d7","addColor(string,uint8,uint8)":"8e80a165","aliveImplementation(address)":"550d01a3","approve(address,uint256)":"095ea7b3","availableGemsRandomPack()":"9aa19da7","balanceOf(address)":"70a08231","callbackGasLimit()":"24f74697","colorName(uint8,uint8)":"5f2d0023","colors(uint256,uint256)":"f317d7dd","colorsCount()":"356edf74","createGEM(uint8,uint8[2],uint8[4],string)":"975781b7","createGEMPool(uint8[],uint8[2][],uint8[4][],string[])":"0ff1ac67","getAirdropAddress()":"3d007e57","getApproved(uint256)":"081812fc","getColorName(uint8,uint8)":"04e9fd7e","getCommonGemsValue()":"e316dc13","getEpicGemsCooldownPeriod()":"f2a6094d","getEpicGemsMiningPeriod()":"33d5efdb","getEpicGemsValue()":"97d88628","getEpicminingTry()":"8d41fe30","getGem(uint256)":"aa723bb7","getGemListAvailableByRarity(uint8)":"94ca6449","getGemsSupplyTotalValue()":"4cbe4360","getLegendaryGemsCooldownPeriod()":"77207e37","getLegendaryGemsMiningPeriod()":"c68a5385","getLegendaryGemsValue()":"9d3415f6","getLegendaryminingTry()":"166b35c9","getMarketPlaceAddress()":"694eaa40","getMythicGemsCooldownPeriod()":"bad39efd","getMythicGemsMiningPeriod()":"e0dd8f1b","getMythicGemsValue()":"c0c2fd99","getMythicminingTry()":"3ec7af4a","getNumberActiveMinersByRarity(uint8)":"aa551879","getOwnershipTokenCount(address)":"b4f6eae4","getPaused()":"6805b84b","getRandomRequest(uint256)":"aae31df3","getRareGemsCooldownPeriod()":"1c880254","getRareGemsMiningPeriod()":"864ccaac","getRareGemsValue()":"0a8ce210","getRareminingTry()":"6c106fea","getRequestCount()":"3fad1834","getRequestIds()":"ac33a273","getTonAddress()":"6ae638d0","getTreasuryAddress()":"e0024604","getUniqueGemsCooldownPeriod()":"093ba92b","getUniqueGemsMiningPeriod()":"fb250435","getUniqueGemsValue()":"a20fa9e9","getUniqueminingTry()":"c61a46c5","getValueBasedOnRarity(uint8)":"0b513d99","getWstonAddress()":"044bc779","initialize(address,address,address,address)":"f8c8765e","isApprovedForAll(address,address)":"e985e9c5","isTokenLocked(uint256)":"276a28a3","meltGEM(uint256)":"f99a6bb5","name()":"06fdde03","numberMiningGemsByRarity(uint8)":"ea094c39","owner()":"8da5cb5b","ownerOf(uint256)":"6352211e","ownershipTokenCount(address)":"cec21acb","pause()":"8456cb59","pauseProxy()":"63a8fd89","paused()":"5c975abb","preMintedGemsAvailable()":"c28fb6b7","proxyImplementation(uint256)":"b911135f","renounceOwnership()":"715018a6","s_requests(uint256)":"a168fa89","safeTransferFrom(address,address,uint256)":"42842e0e","safeTransferFrom(address,address,uint256,bytes)":"b88d4fde","selectorImplementation(bytes4)":"50d2a276","setAirdrop(address)":"72820dbc","setApprovalForAll(address,bool)":"a22cb465","setCallbackGasLimit(uint32)":"a4eb718c","setGemsCooldownPeriods(uint32,uint32,uint32,uint32,uint32)":"1aac071d","setGemsMiningPeriods(uint32,uint32,uint32,uint32,uint32)":"ea2b7b43","setGemsValue(uint256,uint256,uint256,uint256,uint256,uint256)":"ff198a1d","setIsLocked(uint256,bool)":"4d723a75","setMarketPlaceAddress(address)":"cc98ef96","setMiningTries(uint8,uint8,uint8,uint8,uint8)":"f41c4729","setTokenURI(uint256,string)":"162094c4","setTreasury(address)":"f0f44260","setWston(address)":"247ee388","supportsInterface(bytes4)":"01ffc9a7","symbol()":"95d89b41","tokenMiningByUser(address)":"c1389072","tokenReadyToMine(uint256)":"7866369b","tokenURI(uint256)":"c87b56dd","tokensOfOwner(address)":"8462151c","totalSupply()":"18160ddd","transferFrom(address,address,uint256)":"23b872dd","transferOwnership(address)":"f2fde38b","unpause()":"3f4ba83a","userMiningStartTime(address,uint256)":"676f79f1","userMiningToken(address,uint256)":"a1770a7d"},"id":55}