{"abi":[{"type":"function","name":"MAX_VALID_COMMISSION","inputs":[],"outputs":[{"name":"","type":"uint256","internalType":"uint256"}],"stateMutability":"view"},{"type":"function","name":"MIN_VALID_COMMISSION","inputs":[],"outputs":[{"name":"","type":"uint256","internalType":"uint256"}],"stateMutability":"view"},{"type":"function","name":"RAY","inputs":[],"outputs":[{"name":"","type":"uint256","internalType":"uint256"}],"stateMutability":"view"},{"type":"function","name":"accRelativeSeig","inputs":[],"outputs":[{"name":"","type":"uint256","internalType":"uint256"}],"stateMutability":"view"},{"type":"function","name":"adjustCommissionDelay","inputs":[],"outputs":[{"name":"","type":"uint256","internalType":"uint256"}],"stateMutability":"view"},{"type":"function","name":"dao","inputs":[],"outputs":[{"name":"","type":"address","internalType":"address"}],"stateMutability":"view"},{"type":"function","name":"daoSeigRate","inputs":[],"outputs":[{"name":"","type":"uint256","internalType":"uint256"}],"stateMutability":"view"},{"type":"function","name":"delayedCommissionBlock","inputs":[{"name":"","type":"address","internalType":"address"}],"outputs":[{"name":"","type":"uint256","internalType":"uint256"}],"stateMutability":"view"},{"type":"function","name":"delayedCommissionRate","inputs":[{"name":"","type":"address","internalType":"address"}],"outputs":[{"name":"","type":"uint256","internalType":"uint256"}],"stateMutability":"view"},{"type":"function","name":"delayedCommissionRateNegative","inputs":[{"name":"","type":"address","internalType":"address"}],"outputs":[{"name":"","type":"bool","internalType":"bool"}],"stateMutability":"view"},{"type":"function","name":"factory","inputs":[],"outputs":[{"name":"","type":"address","internalType":"address"}],"stateMutability":"view"},{"type":"function","name":"lastSnapshotId","inputs":[],"outputs":[{"name":"","type":"uint256","internalType":"uint256"}],"stateMutability":"view"},{"type":"function","name":"minimumAmount","inputs":[],"outputs":[{"name":"","type":"uint256","internalType":"uint256"}],"stateMutability":"view"},{"type":"function","name":"paused","inputs":[],"outputs":[{"name":"","type":"bool","internalType":"bool"}],"stateMutability":"view"},{"type":"function","name":"powerTONSeigRate","inputs":[],"outputs":[{"name":"","type":"uint256","internalType":"uint256"}],"stateMutability":"view"},{"type":"function","name":"relativeSeigRate","inputs":[],"outputs":[{"name":"","type":"uint256","internalType":"uint256"}],"stateMutability":"view"}],"bytecode":{"object":"0x608060405234601d575b600f6021565b61083661002d823961083690f35b6027565b60405190565b600080fdfe60806040526004361015610013575b6107fb565b61001e600035610132565b806325374a9a1461012d575b80634123196f14610128575b80634162169f14610123575b8063552033c41461011e575b80635998a8d714610119575b80635c975abb14610114575b80636304a6241461010f575b8063837afbc01461010a575b8063a7dcc85014610105575b8063ac753a7a14610100575b8063bb0c8298146100fb575b8063c45a0155146100f6575b8063cbfebe62146100f1575b8063df7fbef0146100ec575b8063e2fe8fd1146100e7575b63f8229348146100e2575b61000e565b6107c5565b610780565b61072f565b6106ea565b610681565b61063c565b6105f7565b610513565b61049c565b610457565b610412565b610378565b610333565b6102f2565b610240565b6101bb565b60e01c90565b60405190565b600080fd5b600080fd5b6000910312610154575b565b610143565b1c90565b90565b6101709060086101759302610159565b61015d565b90565b906101839154610160565b90565b61019260006017610178565b90565b90565b6101a190610195565b9052565b91906101b990600060208501940190610198565b565b346101ec575b6101cc366004610148565b6101e86101d7610186565b6101df610138565b918291826101a5565b0390f35b61013e565b90565b90565b61020b610206610210926101f1565b6101f4565b610195565b90565b610227676765c793fa10079d601b1b6101f7565b90565b610232610213565b90565b61023d61022a565b90565b34610271575b610251366004610148565b61026d61025c610235565b610264610138565b918291826101a5565b0390f35b61013e565b60018060a01b03901690565b6102929060086102979302610159565b610276565b90565b906102a59154610282565b90565b6102b46000600361029a565b90565b60018060a01b03901690565b6102cc906102b7565b90565b6102d8906102c3565b9052565b91906102f0906000602085019401906102cf565b565b34610323575b610303366004610148565b61031f61030e6102a8565b610316610138565b918291826102dc565b0390f35b61013e565b610330610213565b90565b34610364575b610344366004610148565b61036061034f610328565b610357610138565b918291826101a5565b0390f35b61013e565b61037560006016610178565b90565b346103a9575b610389366004610148565b6103a5610394610369565b61039c610138565b918291826101a5565b0390f35b61013e565b60ff901690565b6103c59060086103ca9302610159565b6103ae565b90565b906103d891546103b5565b90565b6103e7600060196103cd565b90565b151590565b6103f8906103ea565b9052565b9190610410906000602085019401906103ef565b565b34610443575b610423366004610148565b61043f61042e6103db565b610436610138565b918291826103fc565b0390f35b61013e565b61045460006015610178565b90565b34610488575b610468366004610148565b610484610473610448565b61047b610138565b918291826101a5565b0390f35b61013e565b6104996000601a610178565b90565b346104cd575b6104ad366004610148565b6104c96104b861048d565b6104c0610138565b918291826101a5565b0390f35b61013e565b90565b6104e96104e46104ee926104d2565b6101f4565b610195565b90565b6105056a084595161401484a0000006104d5565b90565b6105106104f1565b90565b34610544575b610524366004610148565b61054061052f610508565b610537610138565b918291826101a5565b0390f35b61013e565b610552816102c3565b90141561055c575b565b600080fd5b9050359061056e82610549565b565b9060208282031261058b575b60006105889201610561565b90565b610143565b6105a461059f6105a9926102b7565b6101f4565b6102b7565b90565b6105b590610590565b90565b6105c1906105ac565b90565b906105ce906105b8565b600052602052604060002090565b60006105ef6105f49260135060136105c4565b6103cd565b90565b34610628575b61062461061361060e366004610570565b6105dc565b61061b610138565b918291826103fc565b0390f35b61013e565b61063960006014610178565b90565b3461066d575b61064d366004610148565b61066961065861062d565b610660610138565b918291826101a5565b0390f35b61013e565b61067e6000600661029a565b90565b346106b2575b610692366004610148565b6106ae61069d610672565b6106a5610138565b918291826102dc565b0390f35b61013e565b906106c1906105b8565b600052602052604060002090565b60006106e26106e79260115060116106b7565b610178565b90565b3461071b575b610717610706610701366004610570565b6106cf565b61070e610138565b918291826101a5565b0390f35b61013e565b61072c60006010610178565b90565b34610760575b610740366004610148565b61075c61074b610720565b610753610138565b918291826101a5565b0390f35b61013e565b600061077861077d9260125060126106b7565b610178565b90565b346107b1575b6107ad61079c610797366004610570565b610765565b6107a4610138565b918291826101a5565b0390f35b61013e565b6107c260006018610178565b90565b346107f6575b6107d6366004610148565b6107f26107e16107b6565b6107e9610138565b918291826101a5565b0390f35b61013e565b600080fdfea2646970667358221220ec5f8bbc024778bb8ab6e2ca275709d90d3323dfe53fb47c59f9c338cfcb581464736f6c63430008190033","linkReferences":{}},"methodIdentifiers":{"MAX_VALID_COMMISSION()":"4123196f","MIN_VALID_COMMISSION()":"a7dcc850","RAY()":"552033c4","accRelativeSeig()":"f8229348","adjustCommissionDelay()":"df7fbef0","dao()":"4162169f","daoSeigRate()":"5998a8d7","delayedCommissionBlock(address)":"cbfebe62","delayedCommissionRate(address)":"e2fe8fd1","delayedCommissionRateNegative(address)":"ac753a7a","factory()":"c45a0155","lastSnapshotId()":"837afbc0","minimumAmount()":"bb0c8298","paused()":"5c975abb","powerTONSeigRate()":"6304a624","relativeSeigRate()":"25374a9a"},"id":70}