{"src/L2/GemFactoryMining.sol":{"GemFactoryMining":{"abi":[{"inputs":[],"name":"AddressZero","type":"error"},{"inputs":[],"name":"ColorNotExist","type":"error"},{"inputs":[],"name":"ContractNotPaused","type":"error"},{"inputs":[],"name":"ContractPaused","type":"error"},{"inputs":[],"name":"CooldownPeriodNotElapsed","type":"error"},{"inputs":[],"name":"DRBAlreadyInitialized","type":"error"},{"inputs":[{"internalType":"address","name":"sender","type":"address"},{"internalType":"uint256","name":"tokenId","type":"uint256"},{"internalType":"address","name":"owner","type":"address"}],"name":"ERC721IncorrectOwner","type":"error"},{"inputs":[{"internalType":"address","name":"operator","type":"address"},{"internalType":"uint256","name":"tokenId","type":"uint256"}],"name":"ERC721InsufficientApproval","type":"error"},{"inputs":[{"internalType":"address","name":"approver","type":"address"}],"name":"ERC721InvalidApprover","type":"error"},{"inputs":[{"internalType":"address","name":"operator","type":"address"}],"name":"ERC721InvalidOperator","type":"error"},{"inputs":[{"internalType":"address","name":"owner","type":"address"}],"name":"ERC721InvalidOwner","type":"error"},{"inputs":[{"internalType":"address","name":"receiver","type":"address"}],"name":"ERC721InvalidReceiver","type":"error"},{"inputs":[{"internalType":"address","name":"sender","type":"address"}],"name":"ERC721InvalidSender","type":"error"},{"inputs":[{"internalType":"uint256","name":"tokenId","type":"uint256"}],"name":"ERC721NonexistentToken","type":"error"},{"inputs":[],"name":"FailedToSendEthBack","type":"error"},{"inputs":[],"name":"GemAlreadyPicked","type":"error"},{"inputs":[],"name":"GemIsLocked","type":"error"},{"inputs":[],"name":"GemIsNotLocked","type":"error"},{"inputs":[],"name":"InvalidInitialization","type":"error"},{"inputs":[{"internalType":"uint8","name":"quadrant","type":"uint8"},{"internalType":"uint8","name":"value","type":"uint8"}],"name":"InvalidQuadrant","type":"error"},{"inputs":[],"name":"InvalidSumOfQuadrants","type":"error"},{"inputs":[],"name":"MiningPeriodNotElapsed","type":"error"},{"inputs":[],"name":"MismatchedArrayLengths","type":"error"},{"inputs":[{"internalType":"uint8","name":"quadrantIndex","type":"uint8"},{"internalType":"uint8","name":"expectedValue1","type":"uint8"},{"internalType":"uint8","name":"expectedValue2","type":"uint8"}],"name":"NewGemInvalidQuadrant","type":"error"},{"inputs":[],"name":"NoMiningTryLeft","type":"error"},{"inputs":[],"name":"NotGemOwner","type":"error"},{"inputs":[],"name":"NotInitializing","type":"error"},{"inputs":[],"name":"NotMining","type":"error"},{"inputs":[{"internalType":"address","name":"have","type":"address"},{"internalType":"address","name":"want","type":"address"}],"name":"OnlyCoordinatorCanFulfill","type":"error"},{"inputs":[],"name":"ReentrancyGuardReentrantCall","type":"error"},{"inputs":[],"name":"RequestNotMade","type":"error"},{"inputs":[],"name":"SameSenderAndRecipient","type":"error"},{"inputs":[{"internalType":"uint8","name":"sum","type":"uint8"},{"internalType":"string","name":"rarity","type":"string"}],"name":"SumOfQuadrantsTooHigh","type":"error"},{"inputs":[],"name":"TransferFailed","type":"error"},{"inputs":[{"internalType":"uint256","name":"tokenId","type":"uint256"}],"name":"URIQueryForNonexistentToken","type":"error"},{"inputs":[{"internalType":"address","name":"caller","type":"address"}],"name":"UnauthorizedCaller","type":"error"},{"inputs":[],"name":"WrongRarity","type":"error"},{"anonymous":false,"inputs":[{"indexed":true,"internalType":"address","name":"owner","type":"address"},{"indexed":true,"internalType":"address","name":"approved","type":"address"},{"indexed":true,"internalType":"uint256","name":"tokenId","type":"uint256"}],"name":"Approval","type":"event"},{"anonymous":false,"inputs":[{"indexed":true,"internalType":"address","name":"owner","type":"address"},{"indexed":true,"internalType":"address","name":"operator","type":"address"},{"indexed":false,"internalType":"bool","name":"approved","type":"bool"}],"name":"ApprovalForAll","type":"event"},{"anonymous":false,"inputs":[{"indexed":true,"internalType":"uint8","name":"id","type":"uint8"},{"indexed":false,"internalType":"string","name":"backgroundColor","type":"string"}],"name":"BackgroundColorAdded","type":"event"},{"anonymous":false,"inputs":[{"indexed":false,"internalType":"uint256","name":"_fromTokenId","type":"uint256"},{"indexed":false,"internalType":"uint256","name":"_toTokenId","type":"uint256"}],"name":"BatchMetadataUpdate","type":"event"},{"anonymous":false,"inputs":[{"indexed":false,"internalType":"uint32","name":"newCallbackGasLimit","type":"uint32"}],"name":"CallBackGasLimitUpdated","type":"event"},{"anonymous":false,"inputs":[{"indexed":true,"internalType":"uint8","name":"id","type":"uint8"},{"indexed":false,"internalType":"string","name":"color","type":"string"}],"name":"ColorAdded","type":"event"},{"anonymous":false,"inputs":[{"indexed":false,"internalType":"uint8","name":"color_0","type":"uint8"},{"indexed":false,"internalType":"uint8","name":"color_1","type":"uint8"}],"name":"ColorValidated","type":"event"},{"anonymous":false,"inputs":[{"indexed":false,"internalType":"uint256","name":"gemCount","type":"uint256"},{"indexed":false,"internalType":"uint256[]","name":"tokenIds","type":"uint256[]"}],"name":"CountGemsByQuadrant","type":"event"},{"anonymous":false,"inputs":[{"indexed":true,"internalType":"uint256","name":"tokenId","type":"uint256"},{"indexed":false,"internalType":"enum GemFactoryStorage.Rarity","name":"rarity","type":"uint8"},{"indexed":false,"internalType":"uint8[2]","name":"color","type":"uint8[2]"},{"indexed":false,"internalType":"uint8","name":"miningTry","type":"uint8"},{"indexed":false,"internalType":"uint256","name":"value","type":"uint256"},{"indexed":false,"internalType":"uint8[4]","name":"quadrants","type":"uint8[4]"},{"indexed":false,"internalType":"uint256","name":"cooldownDueDate","type":"uint256"},{"indexed":false,"internalType":"string","name":"tokenURI","type":"string"},{"indexed":false,"internalType":"address","name":"owner","type":"address"}],"name":"Created","type":"event"},{"anonymous":false,"inputs":[{"indexed":false,"internalType":"address","name":"coordinator","type":"address"}],"name":"DRBCoordiantorInitialized","type":"event"},{"anonymous":false,"inputs":[{"indexed":false,"internalType":"uint256","name":"amount","type":"uint256"}],"name":"EthSentBack","type":"event"},{"anonymous":false,"inputs":[{"indexed":false,"internalType":"address","name":"gemOwner","type":"address"},{"indexed":false,"internalType":"uint256[]","name":"gemsTokenIds","type":"uint256[]"},{"indexed":false,"internalType":"uint256","name":"newGemCreatedId","type":"uint256"},{"indexed":false,"internalType":"enum GemFactoryStorage.Rarity","name":"newRarity","type":"uint8"},{"indexed":false,"internalType":"uint8[4]","name":"forgedQuadrants","type":"uint8[4]"},{"indexed":false,"internalType":"uint8[2]","name":"color","type":"uint8[2]"},{"indexed":false,"internalType":"uint256","name":"newValue","type":"uint256"}],"name":"GemForged","type":"event"},{"anonymous":false,"inputs":[{"indexed":false,"internalType":"uint256","name":"_tokenId","type":"uint256"},{"indexed":false,"internalType":"address","name":"_from","type":"address"}],"name":"GemMelted","type":"event"},{"anonymous":false,"inputs":[{"indexed":false,"internalType":"uint256","name":"tokenId","type":"uint256"},{"indexed":false,"internalType":"uint256","name":"chosenTokenId","type":"uint256"},{"indexed":false,"internalType":"uint256","name":"minedGemCooldownDueDate","type":"uint256"},{"indexed":false,"internalType":"uint256","name":"initialGemCooldownDueDate","type":"uint256"},{"indexed":false,"internalType":"address","name":"miner","type":"address"}],"name":"GemMiningClaimed","type":"event"},{"anonymous":false,"inputs":[{"indexed":false,"internalType":"uint256","name":"tokenId","type":"uint256"},{"indexed":false,"internalType":"address","name":"miner","type":"address"},{"indexed":false,"internalType":"uint256","name":"startMiningTime","type":"uint256"},{"indexed":false,"internalType":"uint256","name":"newminingTry","type":"uint256"}],"name":"GemMiningStarted","type":"event"},{"anonymous":false,"inputs":[{"indexed":false,"internalType":"uint32","name":"RareGemsCooldownPeriod","type":"uint32"},{"indexed":false,"internalType":"uint32","name":"UniqueGemsCooldownPeriod","type":"uint32"},{"indexed":false,"internalType":"uint32","name":"EpicGemsCooldownPeriod","type":"uint32"},{"indexed":false,"internalType":"uint32","name":"LegendaryGemsCooldownPeriod","type":"uint32"},{"indexed":false,"internalType":"uint32","name":"MythicGemsCooldownPeriod","type":"uint32"}],"name":"GemsCoolDownPeriodModified","type":"event"},{"anonymous":false,"inputs":[{"indexed":false,"internalType":"uint32","name":"RareGemsMiningPeriod","type":"uint32"},{"indexed":false,"internalType":"uint32","name":"UniqueGemsMiningPeriod","type":"uint32"},{"indexed":false,"internalType":"uint32","name":"EpicGemsMiningPeriod","type":"uint32"},{"indexed":false,"internalType":"uint32","name":"LegendaryGemsMiningPeriod","type":"uint32"},{"indexed":false,"internalType":"uint32","name":"MythicGemsMiningPeriod","type":"uint32"}],"name":"GemsMiningPeriodModified","type":"event"},{"anonymous":false,"inputs":[{"indexed":false,"internalType":"uint8","name":"RareGemsMiningTry","type":"uint8"},{"indexed":false,"internalType":"uint8","name":"UniqueGemsMiningTry","type":"uint8"},{"indexed":false,"internalType":"uint8","name":"EpicGemsMiningTry","type":"uint8"},{"indexed":false,"internalType":"uint8","name":"LegendaryGemsMiningTry","type":"uint8"},{"indexed":false,"internalType":"uint8","name":"MythicGemsMiningTry","type":"uint8"}],"name":"GemsMiningTryModified","type":"event"},{"anonymous":false,"inputs":[{"indexed":false,"internalType":"uint256","name":"CommonGemsValue","type":"uint256"},{"indexed":false,"internalType":"uint256","name":"RareGemsValue","type":"uint256"},{"indexed":false,"internalType":"uint256","name":"UniqueGemsValue","type":"uint256"},{"indexed":false,"internalType":"uint256","name":"EpicGemsValue","type":"uint256"},{"indexed":false,"internalType":"uint256","name":"LegendaryValue","type":"uint256"},{"indexed":false,"internalType":"uint256","name":"MythicValue","type":"uint256"}],"name":"GemsValueModified","type":"event"},{"anonymous":false,"inputs":[{"indexed":false,"internalType":"uint64","name":"version","type":"uint64"}],"name":"Initialized","type":"event"},{"anonymous":false,"inputs":[{"indexed":false,"internalType":"uint256","name":"_tokenId","type":"uint256"}],"name":"MetadataUpdate","type":"event"},{"anonymous":false,"inputs":[{"indexed":false,"internalType":"uint256","name":"_tokenId","type":"uint256"},{"indexed":false,"internalType":"address","name":"owner","type":"address"},{"indexed":false,"internalType":"uint256","name":"timestamp","type":"uint256"}],"name":"MiningCancelled","type":"event"},{"anonymous":false,"inputs":[{"indexed":false,"internalType":"uint256","name":"tokenId","type":"uint256"},{"indexed":false,"internalType":"uint256","name":"initialGemCooldownDueDate","type":"uint256"},{"indexed":false,"internalType":"address","name":"miner","type":"address"}],"name":"NoGemAvailable","type":"event"},{"anonymous":false,"inputs":[{"indexed":false,"internalType":"address","name":"account","type":"address"}],"name":"Paused","type":"event"},{"anonymous":false,"inputs":[{"indexed":false,"internalType":"uint256","name":"tokenId","type":"uint256"},{"indexed":false,"internalType":"uint256","name":"requestNumber","type":"uint256"}],"name":"RandomGemRequested","type":"event"},{"anonymous":false,"inputs":[{"indexed":true,"internalType":"address","name":"from","type":"address"},{"indexed":true,"internalType":"address","name":"to","type":"address"},{"indexed":true,"internalType":"uint256","name":"tokenId","type":"uint256"}],"name":"Transfer","type":"event"},{"anonymous":false,"inputs":[{"indexed":false,"internalType":"address","name":"from","type":"address"},{"indexed":false,"internalType":"address","name":"to","type":"address"},{"indexed":false,"internalType":"uint256","name":"tokenId","type":"uint256"},{"indexed":false,"internalType":"uint256","name":"gemCooldownDueDate","type":"uint256"}],"name":"TransferGEM","type":"event"},{"anonymous":false,"inputs":[{"indexed":false,"internalType":"address","name":"account","type":"address"}],"name":"Unpaused","type":"event"},{"inputs":[{"internalType":"address","name":"_coordinator","type":"address"}],"name":"DRBInitialize","outputs":[],"stateMutability":"nonpayable","type":"function"},{"inputs":[{"internalType":"uint256","name":"","type":"uint256"}],"name":"GEMIndexToOwner","outputs":[{"internalType":"address","name":"","type":"address"}],"stateMutability":"view","type":"function"},{"inputs":[{"internalType":"uint256","name":"","type":"uint256"}],"name":"Gems","outputs":[{"internalType":"uint256","name":"tokenId","type":"uint256"},{"internalType":"uint256","name":"value","type":"uint256"},{"internalType":"uint256","name":"gemCooldownDueDate","type":"uint256"},{"internalType":"uint256","name":"randomRequestId","type":"uint256"},{"internalType":"enum GemFactoryStorage.Rarity","name":"rarity","type":"uint8"},{"internalType":"uint8","name":"miningTry","type":"uint8"},{"internalType":"bool","name":"isLocked","type":"bool"},{"internalType":"string","name":"tokenURI","type":"string"}],"stateMutability":"view","type":"function"},{"inputs":[{"internalType":"address","name":"","type":"address"}],"name":"aliveImplementation","outputs":[{"internalType":"bool","name":"","type":"bool"}],"stateMutability":"view","type":"function"},{"inputs":[{"internalType":"address","name":"to","type":"address"},{"internalType":"uint256","name":"tokenId","type":"uint256"}],"name":"approve","outputs":[],"stateMutability":"nonpayable","type":"function"},{"inputs":[{"internalType":"address","name":"owner","type":"address"}],"name":"balanceOf","outputs":[{"internalType":"uint256","name":"","type":"uint256"}],"stateMutability":"view","type":"function"},{"inputs":[],"name":"callbackGasLimit","outputs":[{"internalType":"uint32","name":"","type":"uint32"}],"stateMutability":"view","type":"function"},{"inputs":[{"internalType":"uint256","name":"_tokenId","type":"uint256"}],"name":"cancelMining","outputs":[{"internalType":"bool","name":"","type":"bool"}],"stateMutability":"nonpayable","type":"function"},{"inputs":[{"internalType":"uint8","name":"","type":"uint8"},{"internalType":"uint8","name":"","type":"uint8"}],"name":"colorName","outputs":[{"internalType":"string","name":"","type":"string"}],"stateMutability":"view","type":"function"},{"inputs":[{"internalType":"uint256","name":"","type":"uint256"},{"internalType":"uint256","name":"","type":"uint256"}],"name":"colors","outputs":[{"internalType":"uint8","name":"","type":"uint8"}],"stateMutability":"view","type":"function"},{"inputs":[],"name":"colorsCount","outputs":[{"internalType":"uint8","name":"","type":"uint8"}],"stateMutability":"view","type":"function"},{"inputs":[{"internalType":"uint256","name":"tokenId","type":"uint256"}],"name":"getApproved","outputs":[{"internalType":"address","name":"","type":"address"}],"stateMutability":"view","type":"function"},{"inputs":[{"internalType":"address","name":"owner","type":"address"},{"internalType":"address","name":"operator","type":"address"}],"name":"isApprovedForAll","outputs":[{"internalType":"bool","name":"","type":"bool"}],"stateMutability":"view","type":"function"},{"inputs":[],"name":"name","outputs":[{"internalType":"string","name":"","type":"string"}],"stateMutability":"view","type":"function"},{"inputs":[{"internalType":"enum GemFactoryStorage.Rarity","name":"","type":"uint8"}],"name":"numberMiningGemsByRarity","outputs":[{"internalType":"uint256","name":"","type":"uint256"}],"stateMutability":"view","type":"function"},{"inputs":[{"internalType":"uint256","name":"tokenId","type":"uint256"}],"name":"ownerOf","outputs":[{"internalType":"address","name":"","type":"address"}],"stateMutability":"view","type":"function"},{"inputs":[{"internalType":"address","name":"","type":"address"}],"name":"ownershipTokenCount","outputs":[{"internalType":"uint256","name":"","type":"uint256"}],"stateMutability":"view","type":"function"},{"inputs":[],"name":"pauseProxy","outputs":[{"internalType":"bool","name":"","type":"bool"}],"stateMutability":"view","type":"function"},{"inputs":[],"name":"paused","outputs":[{"internalType":"bool","name":"","type":"bool"}],"stateMutability":"view","type":"function"},{"inputs":[{"internalType":"uint256","name":"_tokenId","type":"uint256"}],"name":"pickMinedGEM","outputs":[{"internalType":"uint256","name":"","type":"uint256"}],"stateMutability":"payable","type":"function"},{"inputs":[{"internalType":"uint256","name":"","type":"uint256"}],"name":"proxyImplementation","outputs":[{"internalType":"address","name":"","type":"address"}],"stateMutability":"view","type":"function"},{"inputs":[{"internalType":"uint256","name":"requestId","type":"uint256"},{"internalType":"uint256","name":"randomWord","type":"uint256"}],"name":"rawFulfillRandomWords","outputs":[],"stateMutability":"nonpayable","type":"function"},{"inputs":[{"internalType":"uint256","name":"","type":"uint256"}],"name":"s_requests","outputs":[{"internalType":"uint256","name":"tokenId","type":"uint256"},{"internalType":"uint256","name":"randomWord","type":"uint256"},{"internalType":"uint256","name":"chosenTokenId","type":"uint256"},{"internalType":"address","name":"requester","type":"address"},{"internalType":"bool","name":"requested","type":"bool"},{"internalType":"bool","name":"fulfilled","type":"bool"}],"stateMutability":"view","type":"function"},{"inputs":[{"internalType":"address","name":"from","type":"address"},{"internalType":"address","name":"to","type":"address"},{"internalType":"uint256","name":"tokenId","type":"uint256"}],"name":"safeTransferFrom","outputs":[],"stateMutability":"nonpayable","type":"function"},{"inputs":[{"internalType":"address","name":"from","type":"address"},{"internalType":"address","name":"to","type":"address"},{"internalType":"uint256","name":"tokenId","type":"uint256"},{"internalType":"bytes","name":"data","type":"bytes"}],"name":"safeTransferFrom","outputs":[],"stateMutability":"nonpayable","type":"function"},{"inputs":[{"internalType":"bytes4","name":"","type":"bytes4"}],"name":"selectorImplementation","outputs":[{"internalType":"address","name":"","type":"address"}],"stateMutability":"view","type":"function"},{"inputs":[{"internalType":"address","name":"operator","type":"address"},{"internalType":"bool","name":"approved","type":"bool"}],"name":"setApprovalForAll","outputs":[],"stateMutability":"nonpayable","type":"function"},{"inputs":[{"internalType":"uint256","name":"_tokenId","type":"uint256"}],"name":"startMiningGEM","outputs":[{"internalType":"bool","name":"","type":"bool"}],"stateMutability":"nonpayable","type":"function"},{"inputs":[{"internalType":"bytes4","name":"interfaceId","type":"bytes4"}],"name":"supportsInterface","outputs":[{"internalType":"bool","name":"","type":"bool"}],"stateMutability":"view","type":"function"},{"inputs":[],"name":"symbol","outputs":[{"internalType":"string","name":"","type":"string"}],"stateMutability":"view","type":"function"},{"inputs":[{"internalType":"address","name":"","type":"address"}],"name":"tokenMiningByUser","outputs":[{"internalType":"uint256","name":"","type":"uint256"}],"stateMutability":"view","type":"function"},{"inputs":[{"internalType":"uint256","name":"","type":"uint256"}],"name":"tokenReadyToMine","outputs":[{"internalType":"bool","name":"","type":"bool"}],"stateMutability":"view","type":"function"},{"inputs":[{"internalType":"uint256","name":"tokenId","type":"uint256"}],"name":"tokenURI","outputs":[{"internalType":"string","name":"","type":"string"}],"stateMutability":"view","type":"function"},{"inputs":[{"internalType":"address","name":"from","type":"address"},{"internalType":"address","name":"to","type":"address"},{"internalType":"uint256","name":"tokenId","type":"uint256"}],"name":"transferFrom","outputs":[],"stateMutability":"nonpayable","type":"function"},{"inputs":[{"internalType":"address","name":"","type":"address"},{"internalType":"uint256","name":"","type":"uint256"}],"name":"userMiningStartTime","outputs":[{"internalType":"uint256","name":"","type":"uint256"}],"stateMutability":"view","type":"function"},{"inputs":[{"internalType":"address","name":"","type":"address"},{"internalType":"uint256","name":"","type":"uint256"}],"name":"userMiningToken","outputs":[{"internalType":"bool","name":"","type":"bool"}],"stateMutability":"view","type":"function"}],"evm":{"bytecode":{"linkReferences":{},"object":"608080604052346027576001601f556020805460ff60a01b191690556123a5908161002d8239f35b600080fdfe608080604052600436101561001357600080fd5b60003560e01c90816301ffc9a714611a7f5750806306fdde03146119b8578063081812fc1461196d578063095ea7b3146118865780631da0fc9c1461168a57806323b872dd1461167357806324f746971461164c578063274f245514611253578063356edf741461123257806337ed11db14610bfe57806342842e0e14610bd657806350d2a27614610b91578063550d01a314610b525780635c975abb14610b2f5780635f2d002314610ac957806361f7f6d714610a0d5780636352211e146109dd57806363a8fd89146109ba578063676f79f11461097257806370a08231146109265780637807adc8146108a25780637866369b1461087157806395d89b411461075d57806397125c4014610729578063a168fa89146106b8578063a1770a7d1461066b578063a22cb465146105cb578063ad6caa4714610442578063b88d4fde146103b8578063b911135f14610384578063c13890721461034a578063c87b56dd146102ce578063cec21acb14610294578063e985e9c514610246578063ea094c39146102155763f317d7dd146101ab57600080fd5b34610210576101b936611ba5565b906007548110156102105760076000527fa66cc928b5edb82af9bd49922954155ab7b0942694bea4ce44661d9a8736c688019060028110156102105760ff6020928260051c015460f86040519360031b161c168152f35b600080fd5b346102105760203660031901126102105760043560068110156102105761023d602091611ddb565b54604051908152f35b346102105760403660031901126102105761025f611b44565b61027061026a611b5a565b91611c28565b9060018060a01b0316600052602052602060ff604060002054166040519015158152f35b34610210576020366003190112610210576001600160a01b036102b5611b44565b1660005260096020526020604060002054604051908152f35b34610210576020366003190112610210576004356102eb81612172565b506000527f0542a41881ee128a365a727b282c86fa859579490b9bb45aab8503648c8e79006020526103466103236040600020611cb8565b600060405161033181611c7c565b52604051918291602083526020830190611b04565b0390f35b34610210576020366003190112610210576001600160a01b0361036b611b44565b16600052600a6020526020604060002054604051908152f35b34610210576020366003190112610210576004356000526001602052602060018060a01b0360406000205416604051908152f35b34610210576080366003190112610210576103d1611b44565b6103d9611b5a565b606435916001600160401b03831161021057366023840112156102105782600401359161040583611dc0565b926104136040519485611c97565b80845236602482870101116102105760208160009260246104409801838801378501015260443591612047565b005b34610210576020806003193601126102105760043561046660ff6010541615611df4565b60008181526008835260409020546001600160a01b031633036105b957600160ff600461049284611d8b565b50015460101c161515036105a85733600052600b82526040600020816000528252600160ff604060002054161515036105965760036104d082611d8b565b5001546105845760607fca17641f3c9a2465d959a125078cfc9df9fe8f8f67f9a9a4b4a7e22ae7c6e9aa9161050433611bbb565b816000528452604060002060ff19815416905561052033611bd5565b81600052845260006040812055600461053882611d8b565b5001805462ff00001916905561055d60ff600461055484611d8b565b50015416611ddb565b6105678154612227565b90556040519081523384820152426040820152a160405160018152f35b604051635e288c1960e11b8152600490fd5b60405163126552f960e01b8152600490fd5b604051622a569d60e11b8152600490fd5b6040516302b327b560e41b8152600490fd5b34610210576040366003190112610210576105e4611b44565b60243590811515809203610210576001600160a01b03169081156106525761060b33611c28565b82600052602052604060002060ff1981541660ff83161790556040519081527f17307eab39ab6107e8899845ad3d59bd9653f200f220920489ca2b5937696c3160203392a3005b604051630b61174360e31b815260048101839052602490fd5b34610210576040366003190112610210576001600160a01b0361068c611b44565b16600052600b6020526040600020602435600052602052602060ff604060002054166040519015158152f35b3461021057602036600319011261021057600435600052600f60205260c0604060002060ff81549160018101549060036002820154910154916040519485526020850152604084015260018060a01b0381166060840152818160a01c161515608084015260a81c16151560a0820152f35b34610210576020366003190112610210576004356000526008602052602060018060a01b0360406000205416604051908152f35b34610210576000366003190112610210576040517f80bb2b638cc20bc4d0a60d66940f3ab4a00c1d7b313497ca82fb0b4ab0079301805490600182811c91818416916000918315610867575b602095868610851461085157868895878752918260001461082f5750506001146107f0575b50506107dc92500383611c97565b610346604051928284938452830190611b04565b85925060005281600020906000915b8583106108175750506107dc935082010185806107ce565b805483890185015287945086939092019181016107ff565b92509350506107dc94915060ff191682840152151560051b82010185806107ce565b634e487b7160e01b600052602260045260246000fd5b93607f16936107a9565b3461021057602036600319011261021057600435600052600d602052602060ff604060002054166040519015158152f35b34610210576020366003190112610210576108bb611b44565b6020549060ff8260a01c166109145760018060a01b03167f7ba1607c66ed196dd1c0fbb5e5aeea4ec29fe62880f58c244f91af5330d6e6e16020604051838152a16001600160a81b031990911617600160a01b17602055005b604051637a1a52b760e01b8152600490fd5b346102105760203660031901126102105761093f611b44565b6001600160a01b038116156109595761023d602091611bef565b6040516322718ad960e21b815260006004820152602490fd5b34610210576040366003190112610210576001600160a01b03610993611b44565b16600052600c60205260406000206024356000526020526020604060002054604051908152f35b3461021057600036600319011261021057602060ff600054166040519015158152f35b346102105760203660031901126102105760206109fb600435612172565b6040516001600160a01b039091168152f35b346102105760203660031901126102105760043560045481101561021057610a3490611d8b565b508054906001810154916002820154600383015491600484015492610a5f600760ff86169601611cb8565b92604051966101009388526020880152604087015260608601526006841015610ab35760ff6103469386956080870152818160081c1660a087015260101c16151560c08501528060e0850152830190611b04565b634e487b7160e01b600052602160045260246000fd5b346102105760403660031901126102105760043560ff8116809103610210576024359060ff8216809203610210576000526005602052604060002090600052602052610346610b1b6040600020611cb8565b604051918291602083526020830190611b04565b3461021057600036600319011261021057602060ff601054166040519015158152f35b34610210576020366003190112610210576001600160a01b03610b73611b44565b166000526002602052602060ff604060002054166040519015158152f35b346102105760203660031901126102105760043563ffffffff60e01b8116809103610210576000526003602052602060018060a01b0360406000205416604051908152f35b3461021057610440610be736611b70565b9060405192610bf584611c7c565b60008452612047565b3461021057610c0c36611ba5565b6020549091906001600160a01b031633819003611214575080600052600f908160205260ff60036040600020015460a01c161561120257600081815260208390526040902060038101805460ff60a81b1916600160a81b179055600181018490555492610c7884611d8b565b509060ff60056040519301548181168452818160081c166020850152818160101c16604085015260181c1660608301528160808101106001600160401b036080840111176111ec576080820160405260ff8251169060ff6020840151169260ff6060816040840151169201511692610d0d600094610d0860045494610d08610cff8761224b565b9960009661227d565b61227d565b60005b8381106110fa5750505050610d248261224b565b9260005b8381106110db575050604051604081018382526040602083015284518091526060820190602086019060005b8181106110c55750505090807fdd6ebb40766c50572c78f680f70ff043535bc04e71ac56a352f7c3df1e11ec51920390a18115806110475761103157600492610dba92610da29206906121f8565b51836000528460205280600260406000200155611d8b565b5001805461ff0019169055601c546000828152602084815260408083206003810154600290910154915163048dbcef60e41b815294929385936001600160a01b039081169385938492610e129291166004840161220c565b03925af190811561102557600091610fea575b5015610faa5780600052816020527fb9874b9aa8f1986f23eedb12a3ecf1c3033ff8e7d332f10b701fa43226dc6ec960a06002610e688160406000200154611d8b565b5001548360005284602052604060002090610ea1610e9b60ff6004610e9260028701549654611d8b565b50015416612291565b4261200a565b8560005286602052600180851b036003604060002001541691604051938985526020850152604084015260608301526080820152a15b6004610ee284611d8b565b5001805462ff00001916905560006003610efb85611d8b565b500155600052602052610f1c610e9b60ff6004610e92604060002054611d8b565b6002610f2783611d8b565b500155610f3a60ff600461055484611d8b565b610f448154612227565b90556001600160a01b03610f5782612172565b16600052600b602052604060002081600052602052604060002060ff19815416905560018060a01b03610f8982612172565b16600052600c60205260406000209060005260205260006040812055600080f35b60405162461bcd60e51b81526020600482015260186024820152773330b4b632b2103a37903a3930b739b332b9103a37b5b2b760411b6044820152606490fd5b90506020813d60201161101d575b8161100560209383611c97565b81010312610210575180151581036102105784610e25565b3d9150610ff8565b6040513d6000823e3d90fd5b634e487b7160e01b600052601260045260246000fd5b5050505080600052816020527fccaae9bb2bca53d8b0d708515a73d3a7e963ed3e3e583c0a554f72651e8db52a6060611095610e9b60ff6004610e9260406000206000600282015554611d8b565b836000528460205260018060a01b03600360406000200154166040519187835260208301526040820152a1610ed7565b8251845260209384019390920191600101610d54565b806110e8600192846121f8565b516110f382886121f8565b5201610d28565b61114561112b60ff600561110d85611d8b565b5001541660ff600561111e86611d8b565b50015460081c169061227d565b60ff600561113885611d8b565b50015460101c169061227d565b60ff61116861115384611d8b565b509282600581881695015460181c169061227d565b1610806111c6575b806111ab575b611183575b600101610d10565b9491600180809261119389611d8b565b505461119f828c6121f8565b5201930195905061117b565b5060ff60046111b983611d8b565b50015460101c1615611176565b50600081815260086020526040902054601c546001600160a01b03908116911614611170565b634e487b7160e01b600052604160045260246000fd5b6040516392b8197960e01b8152600490fd5b6044906040519063073e64fd60e21b82523360048301526024820152fd5b3461021057600036600319011261021057602060ff60065416604051908152f35b6020806003193601126102105760105460043561127360ff831615611df4565b6002601f541461163a576002601f5561128b81612172565b6001600160a01b03929033908416036105b95733600052600c845260406000208260005284526040600020549060ff60046112c585611d8b565b500154166006811015610ab3576001810361159457509063ffffffff6112ef9260301c169061200a565b42106115825760ff600461130283611d8b565b50015460101c16156105a8578161131882612172565b16600052600b83526040600020816000528352600160ff604060002054161515036105965761138763ffffffff60115460801c16928454168460405161135d81611c61565b600081526000828201528560408201526040518094819263a6c278f360e01b8352600483016121cc565b0381845afa93841561102557859260009561154f575b508492916113dd91604051906113b282611c61565b6000825260008583015260408201526040519687809481936309160b1560e11b8352600483016121cc565b03925af192831561102557600093611520575b508260036113fd84611d8b565b5001556000838152600f85526040902082815560030180546001600160a81b0319163317600160a01b179055601980546001019055348110611484575b50604081600361146a7f92f40ca7d6cff5022608e05da6b963f9ac5a227ea2da740f7d35831bb78c285d94611d8b565b500154825191825285820152a16001601f55604051908152f35b340334811161150a57600080808084335af161149e612017565b50156114f8577f92f40ca7d6cff5022608e05da6b963f9ac5a227ea2da740f7d35831bb78c285d917f27468d49151596d3863ccb02e3911b3146a62533facd0765451ba556bb4fd9c8856040938451908152a1915061143a565b604051631e53f7e560e11b8152600490fd5b634e487b7160e01b600052601160045260246000fd5b9092508381813d8311611548575b6115388183611c97565b81010312610210575191846113f0565b503d61152e565b9194509181813d811161157b575b6115678183611c97565b8101031261021057519284916113dd61139d565b503d61155d565b6040516334ced31760e11b8152600490fd5b600281036115b157509063ffffffff6112ef9260501c169061200a565b600381036115ce57509063ffffffff6112ef9260701c169061200a565b600481036115eb57509063ffffffff6112ef9260901c169061200a565b600503611606579063ffffffff6112ef9260b01c169061200a565b60405162461bcd60e51b815260048101869052600c60248201526b77726f6e672072617269747960a01b6044820152606490fd5b604051633ee5aeb560e01b8152600490fd5b3461021057600036600319011261021057602063ffffffff60115460801c16604051908152f35b346102105761044061168436611b70565b91611e33565b346102105760203660031901126102105760043560ff906116af826010541615611df4565b331561187457336001600160a01b036116c783612172565b16036105b95760026116d882611d8b565b5001544210611862578160046116ed83611d8b565b50015460101c166118505781600461170483611d8b565b500154166006811015610ab3571561183e5781600461172283611d8b565b50015460081c161561182c5761173733611bbb565b816000526020526040600020600160ff1982541617905561175733611bd5565b8160005260205242604060002055600461177082611d8b565b5001805462ff0000191662010000179055600461178c82611d8b565b500190815491838360081c1692831561150a5761ff00191660001993840160081b61ff00161790556117c383600461055484611d8b565b92835492831461150a577fcfdb0da0eda7e72692cc304e4e58d2543a70ce5269931e91e02337cbff2a1ef1936001608094019055600461180283611d8b565b50015460081c166040519182523360208301524260408301526060820152a1602060405160018152f35b60405163bc758f1b60e01b8152600490fd5b60405163036cae1f60e31b8152600490fd5b604051635399ebf560e01b8152600490fd5b604051634a448f3760e01b8152600490fd5b604051639fabe1c160e01b8152600490fd5b346102105760403660031901126102105761189f611b44565b6024356118ab81612172565b3315158061195a575b8061193a575b611922576001600160a01b039283169282918491167f8c5be1e5ebec7d5bd14f71427d1e84f3dd0314c0f7b2291e5b200ac8c7c3b925600080a460009081526000805160206123508339815191526020526040902080546001600160a01b0319169091179055005b60405163a9fbf51f60e01b8152336004820152602490fd5b5061194481611c28565b3360005260205260ff60406000205416156118ba565b506001600160a01b0381163314156118b4565b346102105760203660031901126102105760043561198a81612172565b50600052600080516020612350833981519152602052602060018060a01b0360406000205416604051908152f35b34610210576000366003190112610210576040517f80bb2b638cc20bc4d0a60d66940f3ab4a00c1d7b313497ca82fb0b4ab0079300805490600182811c91818416916000918315611a75575b602095868610851461085157868895878752918260001461082f575050600114611a365750506107dc92500383611c97565b85925060005281600020906000915b858310611a5d5750506107dc935082010185806107ce565b80548389018501528794508693909201918101611a45565b93607f1693611a04565b34610210576020366003190112610210576004359063ffffffff60e01b821680920361021057602091632483248360e11b8114908115611ac1575b5015158152f35b6380ac58cd60e01b811491508115611af3575b8115611ae2575b5083611aba565b6301ffc9a760e01b14905083611adb565b635b5e139f60e01b81149150611ad4565b919082519283825260005b848110611b30575050826000602080949584010152601f8019910116010190565b602081830181015184830182015201611b0f565b600435906001600160a01b038216820361021057565b602435906001600160a01b038216820361021057565b6060906003190112610210576001600160a01b0390600435828116810361021057916024359081168103610210579060443590565b6040906003190112610210576004359060243590565b6001600160a01b03166000908152600b6020526040902090565b6001600160a01b03166000908152600c6020526040902090565b6001600160a01b031660009081527f80bb2b638cc20bc4d0a60d66940f3ab4a00c1d7b313497ca82fb0b4ab00793036020526040902090565b6001600160a01b031660009081527f80bb2b638cc20bc4d0a60d66940f3ab4a00c1d7b313497ca82fb0b4ab00793056020526040902090565b606081019081106001600160401b038211176111ec57604052565b602081019081106001600160401b038211176111ec57604052565b90601f801991011681019081106001600160401b038211176111ec57604052565b9060405190600083549060018260011c9060018416968715611d81575b6020948584108914611d6d5787988489979899529081600014611d4b5750600114611d0c575b505050611d0a92500383611c97565b565b600090815285812095935091905b818310611d33575050611d0a9350820101388080611cfb565b85548884018501529485019487945091830191611d1a565b92505050611d0a94925060ff191682840152151560051b820101388080611cfb565b634e487b7160e01b85526022600452602485fd5b91607f1691611cd5565b600454811015611daa57600460005260206000209060031b0190600090565b634e487b7160e01b600052603260045260246000fd5b6001600160401b0381116111ec57601f01601f191660200190565b6006811015610ab357600052600e602052604060002090565b15611dfb57565b60405162461bcd60e51b815260206004820152601060248201526f14185d5cd8589b194e881c185d5cd95960821b6044820152606490fd5b6001600160a01b0382811693918415611ff157826000958187527f80bb2b638cc20bc4d0a60d66940f3ab4a00c1d7b313497ca82fb0b4ab00793029586602052604085818a20541697889233151580611f46575b5090611eb97fddf252ad1be2c89b69c2b068fc378daa952ba7f163c4a11628f55a4df523b3ef939285611f0a57611bef565b80546001019055858b52602052808a2080546001600160a01b03191685179055519880a416808303611eeb5750505050565b6364283d7b60e01b845260048401526024830152604482015260649150fd5b878d52600080516020612350833981519152602052838d2080546001600160a01b0319169055611f3986611bef565b8054600019019055611bef565b9193509193945080611fa2575b15611f645791879187949338611e87565b828789611f81576024915190637e27328960e01b82526004820152fd5b905163177e802f60e01b8152908190611f9e90336004840161220c565b0390fd5b503388148015611fd5575b80611f5357508689526000805160206123508339815191526020523386848b20541614611f53565b50611fdf88611c28565b338a5260205260ff838a205416611fad565b604051633250574960e11b815260006004820152602490fd5b9190820180921161150a57565b3d15612042573d9061202882611dc0565b916120366040519384611c97565b82523d6000602084013e565b606090565b9190612054828285611e33565b803b612061575b50505050565b6120a360018060a01b0380921694604051938493630a85bd0160e11b968786523360048701521660248501526044840152608060648401526084830190611b04565b03906020816000938185885af190829082612122575b50506120f157826120c8612017565b80519190826120ea57604051633250574960e11b815260048101839052602490fd5b9050602001fd5b6001600160e01b0319160361210a57503880808061205b565b60249060405190633250574960e11b82526004820152fd5b909192506020813d60201161216a575b8161213f60209383611c97565b810103126121665751906001600160e01b03198216820361216357509038806120b9565b80fd5b5080fd5b3d9150612132565b60008181527f80bb2b638cc20bc4d0a60d66940f3ab4a00c1d7b313497ca82fb0b4ab007930260205260409020546001600160a01b03169081156121b4575090565b60249060405190637e27328960e01b82526004820152fd5b919091604063ffffffff81606084019561ffff8082511686526020820151166020860152015116910152565b8051821015611daa5760209160051b010190565b6001600160a01b039091168152602081019190915260400190565b801561150a576000190190565b6001600160401b0381116111ec5760051b60200190565b9061225582612234565b6122626040519182611c97565b8281528092612273601f1991612234565b0190602036910137565b9060ff8091169116019060ff821161150a57565b6006811015610ab35780156123495760018114612339576002811461232c576003811461231c576004811461230c576005146122fd5760405162461bcd60e51b815260206004820152600e60248201526d496e76616c69642072617269747960901b6044820152606490fd5b63ffffffff60115460601c1690565b5063ffffffff60115460401c1690565b5063ffffffff60115460201c1690565b5063ffffffff6011541690565b5063ffffffff60105460d01c1690565b5060009056fe80bb2b638cc20bc4d0a60d66940f3ab4a00c1d7b313497ca82fb0b4ab0079304a26469706673582212208488aac9e4c45ef77aff224640d0b02b0491ab1fa664b58530bc462d1fc0099964736f6c63430008190033","opcodes":"PUSH1 0x80 DUP1 PUSH1 0x40 MSTORE CALLVALUE PUSH1 0x27 JUMPI PUSH1 0x1 PUSH1 0x1F SSTORE PUSH1 0x20 DUP1 SLOAD PUSH1 0xFF PUSH1 0xA0 SHL NOT AND SWAP1 SSTORE PUSH2 0x23A5 SWAP1 DUP2 PUSH2 0x2D DUP3 CODECOPY RETURN JUMPDEST PUSH1 0x0 DUP1 REVERT INVALID PUSH1 0x80 DUP1 PUSH1 0x40 MSTORE PUSH1 0x4 CALLDATASIZE LT ISZERO PUSH2 0x13 JUMPI PUSH1 0x0 DUP1 REVERT JUMPDEST PUSH1 0x0 CALLDATALOAD PUSH1 0xE0 SHR SWAP1 DUP2 PUSH4 0x1FFC9A7 EQ PUSH2 0x1A7F JUMPI POP DUP1 PUSH4 0x6FDDE03 EQ PUSH2 0x19B8 JUMPI DUP1 PUSH4 0x81812FC EQ PUSH2 0x196D JUMPI DUP1 PUSH4 0x95EA7B3 EQ PUSH2 0x1886 JUMPI DUP1 PUSH4 0x1DA0FC9C EQ PUSH2 0x168A JUMPI DUP1 PUSH4 0x23B872DD EQ PUSH2 0x1673 JUMPI DUP1 PUSH4 0x24F74697 EQ PUSH2 0x164C JUMPI DUP1 PUSH4 0x274F2455 EQ PUSH2 0x1253 JUMPI DUP1 PUSH4 0x356EDF74 EQ PUSH2 0x1232 JUMPI DUP1 PUSH4 0x37ED11DB EQ PUSH2 0xBFE JUMPI DUP1 PUSH4 0x42842E0E EQ PUSH2 0xBD6 JUMPI DUP1 PUSH4 0x50D2A276 EQ PUSH2 0xB91 JUMPI DUP1 PUSH4 0x550D01A3 EQ PUSH2 0xB52 JUMPI DUP1 PUSH4 0x5C975ABB EQ PUSH2 0xB2F JUMPI DUP1 PUSH4 0x5F2D0023 EQ PUSH2 0xAC9 JUMPI DUP1 PUSH4 0x61F7F6D7 EQ PUSH2 0xA0D JUMPI DUP1 PUSH4 0x6352211E EQ PUSH2 0x9DD JUMPI DUP1 PUSH4 0x63A8FD89 EQ PUSH2 0x9BA JUMPI DUP1 PUSH4 0x676F79F1 EQ PUSH2 0x972 JUMPI DUP1 PUSH4 0x70A08231 EQ PUSH2 0x926 JUMPI DUP1 PUSH4 0x7807ADC8 EQ PUSH2 0x8A2 JUMPI DUP1 PUSH4 0x7866369B EQ PUSH2 0x871 JUMPI DUP1 PUSH4 0x95D89B41 EQ PUSH2 0x75D JUMPI DUP1 PUSH4 0x97125C40 EQ PUSH2 0x729 JUMPI DUP1 PUSH4 0xA168FA89 EQ PUSH2 0x6B8 JUMPI DUP1 PUSH4 0xA1770A7D EQ PUSH2 0x66B JUMPI DUP1 PUSH4 0xA22CB465 EQ PUSH2 0x5CB JUMPI DUP1 PUSH4 0xAD6CAA47 EQ PUSH2 0x442 JUMPI DUP1 PUSH4 0xB88D4FDE EQ PUSH2 0x3B8 JUMPI DUP1 PUSH4 0xB911135F EQ PUSH2 0x384 JUMPI DUP1 PUSH4 0xC1389072 EQ PUSH2 0x34A JUMPI DUP1 PUSH4 0xC87B56DD EQ PUSH2 0x2CE JUMPI DUP1 PUSH4 0xCEC21ACB EQ PUSH2 0x294 JUMPI DUP1 PUSH4 0xE985E9C5 EQ PUSH2 0x246 JUMPI DUP1 PUSH4 0xEA094C39 EQ PUSH2 0x215 JUMPI PUSH4 0xF317D7DD EQ PUSH2 0x1AB JUMPI PUSH1 0x0 DUP1 REVERT JUMPDEST CALLVALUE PUSH2 0x210 JUMPI PUSH2 0x1B9 CALLDATASIZE PUSH2 0x1BA5 JUMP JUMPDEST SWAP1 PUSH1 0x7 SLOAD DUP2 LT ISZERO PUSH2 0x210 JUMPI PUSH1 0x7 PUSH1 0x0 MSTORE PUSH32 0xA66CC928B5EDB82AF9BD49922954155AB7B0942694BEA4CE44661D9A8736C688 ADD SWAP1 PUSH1 0x2 DUP2 LT ISZERO PUSH2 0x210 JUMPI PUSH1 0xFF PUSH1 0x20 SWAP3 DUP3 PUSH1 0x5 SHR ADD SLOAD PUSH1 0xF8 PUSH1 0x40 MLOAD SWAP4 PUSH1 0x3 SHL AND SHR AND DUP2 MSTORE RETURN JUMPDEST PUSH1 0x0 DUP1 REVERT JUMPDEST CALLVALUE PUSH2 0x210 JUMPI PUSH1 0x20 CALLDATASIZE PUSH1 0x3 NOT ADD SLT PUSH2 0x210 JUMPI PUSH1 0x4 CALLDATALOAD PUSH1 0x6 DUP2 LT ISZERO PUSH2 0x210 JUMPI PUSH2 0x23D PUSH1 0x20 SWAP2 PUSH2 0x1DDB JUMP JUMPDEST SLOAD PUSH1 0x40 MLOAD SWAP1 DUP2 MSTORE RETURN JUMPDEST CALLVALUE PUSH2 0x210 JUMPI PUSH1 0x40 CALLDATASIZE PUSH1 0x3 NOT ADD SLT PUSH2 0x210 JUMPI PUSH2 0x25F PUSH2 0x1B44 JUMP JUMPDEST PUSH2 0x270 PUSH2 0x26A PUSH2 0x1B5A JUMP JUMPDEST SWAP2 PUSH2 0x1C28 JUMP JUMPDEST SWAP1 PUSH1 0x1 DUP1 PUSH1 0xA0 SHL SUB AND PUSH1 0x0 MSTORE PUSH1 0x20 MSTORE PUSH1 0x20 PUSH1 0xFF PUSH1 0x40 PUSH1 0x0 KECCAK256 SLOAD AND PUSH1 0x40 MLOAD SWAP1 ISZERO ISZERO DUP2 MSTORE RETURN JUMPDEST CALLVALUE PUSH2 0x210 JUMPI PUSH1 0x20 CALLDATASIZE PUSH1 0x3 NOT ADD SLT PUSH2 0x210 JUMPI PUSH1 0x1 PUSH1 0x1 PUSH1 0xA0 SHL SUB PUSH2 0x2B5 PUSH2 0x1B44 JUMP JUMPDEST AND PUSH1 0x0 MSTORE PUSH1 0x9 PUSH1 0x20 MSTORE PUSH1 0x20 PUSH1 0x40 PUSH1 0x0 KECCAK256 SLOAD PUSH1 0x40 MLOAD SWAP1 DUP2 MSTORE RETURN JUMPDEST CALLVALUE PUSH2 0x210 JUMPI PUSH1 0x20 CALLDATASIZE PUSH1 0x3 NOT ADD SLT PUSH2 0x210 JUMPI PUSH1 0x4 CALLDATALOAD PUSH2 0x2EB DUP2 PUSH2 0x2172 JUMP JUMPDEST POP PUSH1 0x0 MSTORE PUSH32 0x542A41881EE128A365A727B282C86FA859579490B9BB45AAB8503648C8E7900 PUSH1 0x20 MSTORE PUSH2 0x346 PUSH2 0x323 PUSH1 0x40 PUSH1 0x0 KECCAK256 PUSH2 0x1CB8 JUMP JUMPDEST PUSH1 0x0 PUSH1 0x40 MLOAD PUSH2 0x331 DUP2 PUSH2 0x1C7C JUMP JUMPDEST MSTORE PUSH1 0x40 MLOAD SWAP2 DUP3 SWAP2 PUSH1 0x20 DUP4 MSTORE PUSH1 0x20 DUP4 ADD SWAP1 PUSH2 0x1B04 JUMP JUMPDEST SUB SWAP1 RETURN JUMPDEST CALLVALUE PUSH2 0x210 JUMPI PUSH1 0x20 CALLDATASIZE PUSH1 0x3 NOT ADD SLT PUSH2 0x210 JUMPI PUSH1 0x1 PUSH1 0x1 PUSH1 0xA0 SHL SUB PUSH2 0x36B PUSH2 0x1B44 JUMP JUMPDEST AND PUSH1 0x0 MSTORE PUSH1 0xA PUSH1 0x20 MSTORE PUSH1 0x20 PUSH1 0x40 PUSH1 0x0 KECCAK256 SLOAD PUSH1 0x40 MLOAD SWAP1 DUP2 MSTORE RETURN JUMPDEST CALLVALUE PUSH2 0x210 JUMPI PUSH1 0x20 CALLDATASIZE PUSH1 0x3 NOT ADD SLT PUSH2 0x210 JUMPI PUSH1 0x4 CALLDATALOAD PUSH1 0x0 MSTORE PUSH1 0x1 PUSH1 0x20 MSTORE PUSH1 0x20 PUSH1 0x1 DUP1 PUSH1 0xA0 SHL SUB PUSH1 0x40 PUSH1 0x0 KECCAK256 SLOAD AND PUSH1 0x40 MLOAD SWAP1 DUP2 MSTORE RETURN JUMPDEST CALLVALUE PUSH2 0x210 JUMPI PUSH1 0x80 CALLDATASIZE PUSH1 0x3 NOT ADD SLT PUSH2 0x210 JUMPI PUSH2 0x3D1 PUSH2 0x1B44 JUMP JUMPDEST PUSH2 0x3D9 PUSH2 0x1B5A JUMP JUMPDEST PUSH1 0x64 CALLDATALOAD SWAP2 PUSH1 0x1 PUSH1 0x1 PUSH1 0x40 SHL SUB DUP4 GT PUSH2 0x210 JUMPI CALLDATASIZE PUSH1 0x23 DUP5 ADD SLT ISZERO PUSH2 0x210 JUMPI DUP3 PUSH1 0x4 ADD CALLDATALOAD SWAP2 PUSH2 0x405 DUP4 PUSH2 0x1DC0 JUMP JUMPDEST SWAP3 PUSH2 0x413 PUSH1 0x40 MLOAD SWAP5 DUP6 PUSH2 0x1C97 JUMP JUMPDEST DUP1 DUP5 MSTORE CALLDATASIZE PUSH1 0x24 DUP3 DUP8 ADD ADD GT PUSH2 0x210 JUMPI PUSH1 0x20 DUP2 PUSH1 0x0 SWAP3 PUSH1 0x24 PUSH2 0x440 SWAP9 ADD DUP4 DUP9 ADD CALLDATACOPY DUP6 ADD ADD MSTORE PUSH1 0x44 CALLDATALOAD SWAP2 PUSH2 0x2047 JUMP JUMPDEST STOP JUMPDEST CALLVALUE PUSH2 0x210 JUMPI PUSH1 0x20 DUP1 PUSH1 0x3 NOT CALLDATASIZE ADD SLT PUSH2 0x210 JUMPI PUSH1 0x4 CALLDATALOAD PUSH2 0x466 PUSH1 0xFF PUSH1 0x10 SLOAD AND ISZERO PUSH2 0x1DF4 JUMP JUMPDEST PUSH1 0x0 DUP2 DUP2 MSTORE PUSH1 0x8 DUP4 MSTORE PUSH1 0x40 SWAP1 KECCAK256 SLOAD PUSH1 0x1 PUSH1 0x1 PUSH1 0xA0 SHL SUB AND CALLER SUB PUSH2 0x5B9 JUMPI PUSH1 0x1 PUSH1 0xFF PUSH1 0x4 PUSH2 0x492 DUP5 PUSH2 0x1D8B JUMP JUMPDEST POP ADD SLOAD PUSH1 0x10 SHR AND ISZERO ISZERO SUB PUSH2 0x5A8 JUMPI CALLER PUSH1 0x0 MSTORE PUSH1 0xB DUP3 MSTORE PUSH1 0x40 PUSH1 0x0 KECCAK256 DUP2 PUSH1 0x0 MSTORE DUP3 MSTORE PUSH1 0x1 PUSH1 0xFF PUSH1 0x40 PUSH1 0x0 KECCAK256 SLOAD AND ISZERO ISZERO SUB PUSH2 0x596 JUMPI PUSH1 0x3 PUSH2 0x4D0 DUP3 PUSH2 0x1D8B JUMP JUMPDEST POP ADD SLOAD PUSH2 0x584 JUMPI PUSH1 0x60 PUSH32 0xCA17641F3C9A2465D959A125078CFC9DF9FE8F8F67F9A9A4B4A7E22AE7C6E9AA SWAP2 PUSH2 0x504 CALLER PUSH2 0x1BBB JUMP JUMPDEST DUP2 PUSH1 0x0 MSTORE DUP5 MSTORE PUSH1 0x40 PUSH1 0x0 KECCAK256 PUSH1 0xFF NOT DUP2 SLOAD AND SWAP1 SSTORE PUSH2 0x520 CALLER PUSH2 0x1BD5 JUMP JUMPDEST DUP2 PUSH1 0x0 MSTORE DUP5 MSTORE PUSH1 0x0 PUSH1 0x40 DUP2 KECCAK256 SSTORE PUSH1 0x4 PUSH2 0x538 DUP3 PUSH2 0x1D8B JUMP JUMPDEST POP ADD DUP1 SLOAD PUSH3 0xFF0000 NOT AND SWAP1 SSTORE PUSH2 0x55D PUSH1 0xFF PUSH1 0x4 PUSH2 0x554 DUP5 PUSH2 0x1D8B JUMP JUMPDEST POP ADD SLOAD AND PUSH2 0x1DDB JUMP JUMPDEST PUSH2 0x567 DUP2 SLOAD PUSH2 0x2227 JUMP JUMPDEST SWAP1 SSTORE PUSH1 0x40 MLOAD SWAP1 DUP2 MSTORE CALLER DUP5 DUP3 ADD MSTORE TIMESTAMP PUSH1 0x40 DUP3 ADD MSTORE LOG1 PUSH1 0x40 MLOAD PUSH1 0x1 DUP2 MSTORE RETURN JUMPDEST PUSH1 0x40 MLOAD PUSH4 0x5E288C19 PUSH1 0xE1 SHL DUP2 MSTORE PUSH1 0x4 SWAP1 REVERT JUMPDEST PUSH1 0x40 MLOAD PUSH4 0x126552F9 PUSH1 0xE0 SHL DUP2 MSTORE PUSH1 0x4 SWAP1 REVERT JUMPDEST PUSH1 0x40 MLOAD PUSH3 0x2A569D PUSH1 0xE1 SHL DUP2 MSTORE PUSH1 0x4 SWAP1 REVERT JUMPDEST PUSH1 0x40 MLOAD PUSH4 0x2B327B5 PUSH1 0xE4 SHL DUP2 MSTORE PUSH1 0x4 SWAP1 REVERT JUMPDEST CALLVALUE PUSH2 0x210 JUMPI PUSH1 0x40 CALLDATASIZE PUSH1 0x3 NOT ADD SLT PUSH2 0x210 JUMPI PUSH2 0x5E4 PUSH2 0x1B44 JUMP JUMPDEST PUSH1 0x24 CALLDATALOAD SWAP1 DUP2 ISZERO ISZERO DUP1 SWAP3 SUB PUSH2 0x210 JUMPI PUSH1 0x1 PUSH1 0x1 PUSH1 0xA0 SHL SUB AND SWAP1 DUP2 ISZERO PUSH2 0x652 JUMPI PUSH2 0x60B CALLER PUSH2 0x1C28 JUMP JUMPDEST DUP3 PUSH1 0x0 MSTORE PUSH1 0x20 MSTORE PUSH1 0x40 PUSH1 0x0 KECCAK256 PUSH1 0xFF NOT DUP2 SLOAD AND PUSH1 0xFF DUP4 AND OR SWAP1 SSTORE PUSH1 0x40 MLOAD SWAP1 DUP2 MSTORE PUSH32 0x17307EAB39AB6107E8899845AD3D59BD9653F200F220920489CA2B5937696C31 PUSH1 0x20 CALLER SWAP3 LOG3 STOP JUMPDEST PUSH1 0x40 MLOAD PUSH4 0xB611743 PUSH1 0xE3 SHL DUP2 MSTORE PUSH1 0x4 DUP2 ADD DUP4 SWAP1 MSTORE PUSH1 0x24 SWAP1 REVERT JUMPDEST CALLVALUE PUSH2 0x210 JUMPI PUSH1 0x40 CALLDATASIZE PUSH1 0x3 NOT ADD SLT PUSH2 0x210 JUMPI PUSH1 0x1 PUSH1 0x1 PUSH1 0xA0 SHL SUB PUSH2 0x68C PUSH2 0x1B44 JUMP JUMPDEST AND PUSH1 0x0 MSTORE PUSH1 0xB PUSH1 0x20 MSTORE PUSH1 0x40 PUSH1 0x0 KECCAK256 PUSH1 0x24 CALLDATALOAD PUSH1 0x0 MSTORE PUSH1 0x20 MSTORE PUSH1 0x20 PUSH1 0xFF PUSH1 0x40 PUSH1 0x0 KECCAK256 SLOAD AND PUSH1 0x40 MLOAD SWAP1 ISZERO ISZERO DUP2 MSTORE RETURN JUMPDEST CALLVALUE PUSH2 0x210 JUMPI PUSH1 0x20 CALLDATASIZE PUSH1 0x3 NOT ADD SLT PUSH2 0x210 JUMPI PUSH1 0x4 CALLDATALOAD PUSH1 0x0 MSTORE PUSH1 0xF PUSH1 0x20 MSTORE PUSH1 0xC0 PUSH1 0x40 PUSH1 0x0 KECCAK256 PUSH1 0xFF DUP2 SLOAD SWAP2 PUSH1 0x1 DUP2 ADD SLOAD SWAP1 PUSH1 0x3 PUSH1 0x2 DUP3 ADD SLOAD SWAP2 ADD SLOAD SWAP2 PUSH1 0x40 MLOAD SWAP5 DUP6 MSTORE PUSH1 0x20 DUP6 ADD MSTORE PUSH1 0x40 DUP5 ADD MSTORE PUSH1 0x1 DUP1 PUSH1 0xA0 SHL SUB DUP2 AND PUSH1 0x60 DUP5 ADD MSTORE DUP2 DUP2 PUSH1 0xA0 SHR AND ISZERO ISZERO PUSH1 0x80 DUP5 ADD MSTORE PUSH1 0xA8 SHR AND ISZERO ISZERO PUSH1 0xA0 DUP3 ADD MSTORE RETURN JUMPDEST CALLVALUE PUSH2 0x210 JUMPI PUSH1 0x20 CALLDATASIZE PUSH1 0x3 NOT ADD SLT PUSH2 0x210 JUMPI PUSH1 0x4 CALLDATALOAD PUSH1 0x0 MSTORE PUSH1 0x8 PUSH1 0x20 MSTORE PUSH1 0x20 PUSH1 0x1 DUP1 PUSH1 0xA0 SHL SUB PUSH1 0x40 PUSH1 0x0 KECCAK256 SLOAD AND PUSH1 0x40 MLOAD SWAP1 DUP2 MSTORE RETURN JUMPDEST CALLVALUE PUSH2 0x210 JUMPI PUSH1 0x0 CALLDATASIZE PUSH1 0x3 NOT ADD SLT PUSH2 0x210 JUMPI PUSH1 0x40 MLOAD PUSH32 0x80BB2B638CC20BC4D0A60D66940F3AB4A00C1D7B313497CA82FB0B4AB0079301 DUP1 SLOAD SWAP1 PUSH1 0x1 DUP3 DUP2 SHR SWAP2 DUP2 DUP5 AND SWAP2 PUSH1 0x0 SWAP2 DUP4 ISZERO PUSH2 0x867 JUMPI JUMPDEST PUSH1 0x20 SWAP6 DUP7 DUP7 LT DUP6 EQ PUSH2 0x851 JUMPI DUP7 DUP9 SWAP6 DUP8 DUP8 MSTORE SWAP2 DUP3 PUSH1 0x0 EQ PUSH2 0x82F JUMPI POP POP PUSH1 0x1 EQ PUSH2 0x7F0 JUMPI JUMPDEST POP POP PUSH2 0x7DC SWAP3 POP SUB DUP4 PUSH2 0x1C97 JUMP JUMPDEST PUSH2 0x346 PUSH1 0x40 MLOAD SWAP3 DUP3 DUP5 SWAP4 DUP5 MSTORE DUP4 ADD SWAP1 PUSH2 0x1B04 JUMP JUMPDEST DUP6 SWAP3 POP PUSH1 0x0 MSTORE DUP2 PUSH1 0x0 KECCAK256 SWAP1 PUSH1 0x0 SWAP2 JUMPDEST DUP6 DUP4 LT PUSH2 0x817 JUMPI POP POP PUSH2 0x7DC SWAP4 POP DUP3 ADD ADD DUP6 DUP1 PUSH2 0x7CE JUMP JUMPDEST DUP1 SLOAD DUP4 DUP10 ADD DUP6 ADD MSTORE DUP8 SWAP5 POP DUP7 SWAP4 SWAP1 SWAP3 ADD SWAP2 DUP2 ADD PUSH2 0x7FF JUMP JUMPDEST SWAP3 POP SWAP4 POP POP PUSH2 0x7DC SWAP5 SWAP2 POP PUSH1 0xFF NOT AND DUP3 DUP5 ADD MSTORE ISZERO ISZERO PUSH1 0x5 SHL DUP3 ADD ADD DUP6 DUP1 PUSH2 0x7CE JUMP JUMPDEST PUSH4 0x4E487B71 PUSH1 0xE0 SHL PUSH1 0x0 MSTORE PUSH1 0x22 PUSH1 0x4 MSTORE PUSH1 0x24 PUSH1 0x0 REVERT JUMPDEST SWAP4 PUSH1 0x7F AND SWAP4 PUSH2 0x7A9 JUMP JUMPDEST CALLVALUE PUSH2 0x210 JUMPI PUSH1 0x20 CALLDATASIZE PUSH1 0x3 NOT ADD SLT PUSH2 0x210 JUMPI PUSH1 0x4 CALLDATALOAD PUSH1 0x0 MSTORE PUSH1 0xD PUSH1 0x20 MSTORE PUSH1 0x20 PUSH1 0xFF PUSH1 0x40 PUSH1 0x0 KECCAK256 SLOAD AND PUSH1 0x40 MLOAD SWAP1 ISZERO ISZERO DUP2 MSTORE RETURN JUMPDEST CALLVALUE PUSH2 0x210 JUMPI PUSH1 0x20 CALLDATASIZE PUSH1 0x3 NOT ADD SLT PUSH2 0x210 JUMPI PUSH2 0x8BB PUSH2 0x1B44 JUMP JUMPDEST PUSH1 0x20 SLOAD SWAP1 PUSH1 0xFF DUP3 PUSH1 0xA0 SHR AND PUSH2 0x914 JUMPI PUSH1 0x1 DUP1 PUSH1 0xA0 SHL SUB AND PUSH32 0x7BA1607C66ED196DD1C0FBB5E5AEEA4EC29FE62880F58C244F91AF5330D6E6E1 PUSH1 0x20 PUSH1 0x40 MLOAD DUP4 DUP2 MSTORE LOG1 PUSH1 0x1 PUSH1 0x1 PUSH1 0xA8 SHL SUB NOT SWAP1 SWAP2 AND OR PUSH1 0x1 PUSH1 0xA0 SHL OR PUSH1 0x20 SSTORE STOP JUMPDEST PUSH1 0x40 MLOAD PUSH4 0x7A1A52B7 PUSH1 0xE0 SHL DUP2 MSTORE PUSH1 0x4 SWAP1 REVERT JUMPDEST CALLVALUE PUSH2 0x210 JUMPI PUSH1 0x20 CALLDATASIZE PUSH1 0x3 NOT ADD SLT PUSH2 0x210 JUMPI PUSH2 0x93F PUSH2 0x1B44 JUMP JUMPDEST PUSH1 0x1 PUSH1 0x1 PUSH1 0xA0 SHL SUB DUP2 AND ISZERO PUSH2 0x959 JUMPI PUSH2 0x23D PUSH1 0x20 SWAP2 PUSH2 0x1BEF JUMP JUMPDEST PUSH1 0x40 MLOAD PUSH4 0x22718AD9 PUSH1 0xE2 SHL DUP2 MSTORE PUSH1 0x0 PUSH1 0x4 DUP3 ADD MSTORE PUSH1 0x24 SWAP1 REVERT JUMPDEST CALLVALUE PUSH2 0x210 JUMPI PUSH1 0x40 CALLDATASIZE PUSH1 0x3 NOT ADD SLT PUSH2 0x210 JUMPI PUSH1 0x1 PUSH1 0x1 PUSH1 0xA0 SHL SUB PUSH2 0x993 PUSH2 0x1B44 JUMP JUMPDEST AND PUSH1 0x0 MSTORE PUSH1 0xC PUSH1 0x20 MSTORE PUSH1 0x40 PUSH1 0x0 KECCAK256 PUSH1 0x24 CALLDATALOAD PUSH1 0x0 MSTORE PUSH1 0x20 MSTORE PUSH1 0x20 PUSH1 0x40 PUSH1 0x0 KECCAK256 SLOAD PUSH1 0x40 MLOAD SWAP1 DUP2 MSTORE RETURN JUMPDEST CALLVALUE PUSH2 0x210 JUMPI PUSH1 0x0 CALLDATASIZE PUSH1 0x3 NOT ADD SLT PUSH2 0x210 JUMPI PUSH1 0x20 PUSH1 0xFF PUSH1 0x0 SLOAD AND PUSH1 0x40 MLOAD SWAP1 ISZERO ISZERO DUP2 MSTORE RETURN JUMPDEST CALLVALUE PUSH2 0x210 JUMPI PUSH1 0x20 CALLDATASIZE PUSH1 0x3 NOT ADD SLT PUSH2 0x210 JUMPI PUSH1 0x20 PUSH2 0x9FB PUSH1 0x4 CALLDATALOAD PUSH2 0x2172 JUMP JUMPDEST PUSH1 0x40 MLOAD PUSH1 0x1 PUSH1 0x1 PUSH1 0xA0 SHL SUB SWAP1 SWAP2 AND DUP2 MSTORE RETURN JUMPDEST CALLVALUE PUSH2 0x210 JUMPI PUSH1 0x20 CALLDATASIZE PUSH1 0x3 NOT ADD SLT PUSH2 0x210 JUMPI PUSH1 0x4 CALLDATALOAD PUSH1 0x4 SLOAD DUP2 LT ISZERO PUSH2 0x210 JUMPI PUSH2 0xA34 SWAP1 PUSH2 0x1D8B JUMP JUMPDEST POP DUP1 SLOAD SWAP1 PUSH1 0x1 DUP2 ADD SLOAD SWAP2 PUSH1 0x2 DUP3 ADD SLOAD PUSH1 0x3 DUP4 ADD SLOAD SWAP2 PUSH1 0x4 DUP5 ADD SLOAD SWAP3 PUSH2 0xA5F PUSH1 0x7 PUSH1 0xFF DUP7 AND SWAP7 ADD PUSH2 0x1CB8 JUMP JUMPDEST SWAP3 PUSH1 0x40 MLOAD SWAP7 PUSH2 0x100 SWAP4 DUP9 MSTORE PUSH1 0x20 DUP9 ADD MSTORE PUSH1 0x40 DUP8 ADD MSTORE PUSH1 0x60 DUP7 ADD MSTORE PUSH1 0x6 DUP5 LT ISZERO PUSH2 0xAB3 JUMPI PUSH1 0xFF PUSH2 0x346 SWAP4 DUP7 SWAP6 PUSH1 0x80 DUP8 ADD MSTORE DUP2 DUP2 PUSH1 0x8 SHR AND PUSH1 0xA0 DUP8 ADD MSTORE PUSH1 0x10 SHR AND ISZERO ISZERO PUSH1 0xC0 DUP6 ADD MSTORE DUP1 PUSH1 0xE0 DUP6 ADD MSTORE DUP4 ADD SWAP1 PUSH2 0x1B04 JUMP JUMPDEST PUSH4 0x4E487B71 PUSH1 0xE0 SHL PUSH1 0x0 MSTORE PUSH1 0x21 PUSH1 0x4 MSTORE PUSH1 0x24 PUSH1 0x0 REVERT JUMPDEST CALLVALUE PUSH2 0x210 JUMPI PUSH1 0x40 CALLDATASIZE PUSH1 0x3 NOT ADD SLT PUSH2 0x210 JUMPI PUSH1 0x4 CALLDATALOAD PUSH1 0xFF DUP2 AND DUP1 SWAP2 SUB PUSH2 0x210 JUMPI PUSH1 0x24 CALLDATALOAD SWAP1 PUSH1 0xFF DUP3 AND DUP1 SWAP3 SUB PUSH2 0x210 JUMPI PUSH1 0x0 MSTORE PUSH1 0x5 PUSH1 0x20 MSTORE PUSH1 0x40 PUSH1 0x0 KECCAK256 SWAP1 PUSH1 0x0 MSTORE PUSH1 0x20 MSTORE PUSH2 0x346 PUSH2 0xB1B PUSH1 0x40 PUSH1 0x0 KECCAK256 PUSH2 0x1CB8 JUMP JUMPDEST PUSH1 0x40 MLOAD SWAP2 DUP3 SWAP2 PUSH1 0x20 DUP4 MSTORE PUSH1 0x20 DUP4 ADD SWAP1 PUSH2 0x1B04 JUMP JUMPDEST CALLVALUE PUSH2 0x210 JUMPI PUSH1 0x0 CALLDATASIZE PUSH1 0x3 NOT ADD SLT PUSH2 0x210 JUMPI PUSH1 0x20 PUSH1 0xFF PUSH1 0x10 SLOAD AND PUSH1 0x40 MLOAD SWAP1 ISZERO ISZERO DUP2 MSTORE RETURN JUMPDEST CALLVALUE PUSH2 0x210 JUMPI PUSH1 0x20 CALLDATASIZE PUSH1 0x3 NOT ADD SLT PUSH2 0x210 JUMPI PUSH1 0x1 PUSH1 0x1 PUSH1 0xA0 SHL SUB PUSH2 0xB73 PUSH2 0x1B44 JUMP JUMPDEST AND PUSH1 0x0 MSTORE PUSH1 0x2 PUSH1 0x20 MSTORE PUSH1 0x20 PUSH1 0xFF PUSH1 0x40 PUSH1 0x0 KECCAK256 SLOAD AND PUSH1 0x40 MLOAD SWAP1 ISZERO ISZERO DUP2 MSTORE RETURN JUMPDEST CALLVALUE PUSH2 0x210 JUMPI PUSH1 0x20 CALLDATASIZE PUSH1 0x3 NOT ADD SLT PUSH2 0x210 JUMPI PUSH1 0x4 CALLDATALOAD PUSH4 0xFFFFFFFF PUSH1 0xE0 SHL DUP2 AND DUP1 SWAP2 SUB PUSH2 0x210 JUMPI PUSH1 0x0 MSTORE PUSH1 0x3 PUSH1 0x20 MSTORE PUSH1 0x20 PUSH1 0x1 DUP1 PUSH1 0xA0 SHL SUB PUSH1 0x40 PUSH1 0x0 KECCAK256 SLOAD AND PUSH1 0x40 MLOAD SWAP1 DUP2 MSTORE RETURN JUMPDEST CALLVALUE PUSH2 0x210 JUMPI PUSH2 0x440 PUSH2 0xBE7 CALLDATASIZE PUSH2 0x1B70 JUMP JUMPDEST SWAP1 PUSH1 0x40 MLOAD SWAP3 PUSH2 0xBF5 DUP5 PUSH2 0x1C7C JUMP JUMPDEST PUSH1 0x0 DUP5 MSTORE PUSH2 0x2047 JUMP JUMPDEST CALLVALUE PUSH2 0x210 JUMPI PUSH2 0xC0C CALLDATASIZE PUSH2 0x1BA5 JUMP JUMPDEST PUSH1 0x20 SLOAD SWAP1 SWAP2 SWAP1 PUSH1 0x1 PUSH1 0x1 PUSH1 0xA0 SHL SUB AND CALLER DUP2 SWAP1 SUB PUSH2 0x1214 JUMPI POP DUP1 PUSH1 0x0 MSTORE PUSH1 0xF SWAP1 DUP2 PUSH1 0x20 MSTORE PUSH1 0xFF PUSH1 0x3 PUSH1 0x40 PUSH1 0x0 KECCAK256 ADD SLOAD PUSH1 0xA0 SHR AND ISZERO PUSH2 0x1202 JUMPI PUSH1 0x0 DUP2 DUP2 MSTORE PUSH1 0x20 DUP4 SWAP1 MSTORE PUSH1 0x40 SWAP1 KECCAK256 PUSH1 0x3 DUP2 ADD DUP1 SLOAD PUSH1 0xFF PUSH1 0xA8 SHL NOT AND PUSH1 0x1 PUSH1 0xA8 SHL OR SWAP1 SSTORE PUSH1 0x1 DUP2 ADD DUP5 SWAP1 SSTORE SLOAD SWAP3 PUSH2 0xC78 DUP5 PUSH2 0x1D8B JUMP JUMPDEST POP SWAP1 PUSH1 0xFF PUSH1 0x5 PUSH1 0x40 MLOAD SWAP4 ADD SLOAD DUP2 DUP2 AND DUP5 MSTORE DUP2 DUP2 PUSH1 0x8 SHR AND PUSH1 0x20 DUP6 ADD MSTORE DUP2 DUP2 PUSH1 0x10 SHR AND PUSH1 0x40 DUP6 ADD MSTORE PUSH1 0x18 SHR AND PUSH1 0x60 DUP4 ADD MSTORE DUP2 PUSH1 0x80 DUP2 ADD LT PUSH1 0x1 PUSH1 0x1 PUSH1 0x40 SHL SUB PUSH1 0x80 DUP5 ADD GT OR PUSH2 0x11EC JUMPI PUSH1 0x80 DUP3 ADD PUSH1 0x40 MSTORE PUSH1 0xFF DUP3 MLOAD AND SWAP1 PUSH1 0xFF PUSH1 0x20 DUP5 ADD MLOAD AND SWAP3 PUSH1 0xFF PUSH1 0x60 DUP2 PUSH1 0x40 DUP5 ADD MLOAD AND SWAP3 ADD MLOAD AND SWAP3 PUSH2 0xD0D PUSH1 0x0 SWAP5 PUSH2 0xD08 PUSH1 0x4 SLOAD SWAP5 PUSH2 0xD08 PUSH2 0xCFF DUP8 PUSH2 0x224B JUMP JUMPDEST SWAP10 PUSH1 0x0 SWAP7 PUSH2 0x227D JUMP JUMPDEST PUSH2 0x227D JUMP JUMPDEST PUSH1 0x0 JUMPDEST DUP4 DUP2 LT PUSH2 0x10FA JUMPI POP POP POP POP PUSH2 0xD24 DUP3 PUSH2 0x224B JUMP JUMPDEST SWAP3 PUSH1 0x0 JUMPDEST DUP4 DUP2 LT PUSH2 0x10DB JUMPI POP POP PUSH1 0x40 MLOAD PUSH1 0x40 DUP2 ADD DUP4 DUP3 MSTORE PUSH1 0x40 PUSH1 0x20 DUP4 ADD MSTORE DUP5 MLOAD DUP1 SWAP2 MSTORE PUSH1 0x60 DUP3 ADD SWAP1 PUSH1 0x20 DUP7 ADD SWAP1 PUSH1 0x0 JUMPDEST DUP2 DUP2 LT PUSH2 0x10C5 JUMPI POP POP POP SWAP1 DUP1 PUSH32 0xDD6EBB40766C50572C78F680F70FF043535BC04E71AC56A352F7C3DF1E11EC51 SWAP3 SUB SWAP1 LOG1 DUP2 ISZERO DUP1 PUSH2 0x1047 JUMPI PUSH2 0x1031 JUMPI PUSH1 0x4 SWAP3 PUSH2 0xDBA SWAP3 PUSH2 0xDA2 SWAP3 MOD SWAP1 PUSH2 0x21F8 JUMP JUMPDEST MLOAD DUP4 PUSH1 0x0 MSTORE DUP5 PUSH1 0x20 MSTORE DUP1 PUSH1 0x2 PUSH1 0x40 PUSH1 0x0 KECCAK256 ADD SSTORE PUSH2 0x1D8B JUMP JUMPDEST POP ADD DUP1 SLOAD PUSH2 0xFF00 NOT AND SWAP1 SSTORE PUSH1 0x1C SLOAD PUSH1 0x0 DUP3 DUP2 MSTORE PUSH1 0x20 DUP5 DUP2 MSTORE PUSH1 0x40 DUP1 DUP4 KECCAK256 PUSH1 0x3 DUP2 ADD SLOAD PUSH1 0x2 SWAP1 SWAP2 ADD SLOAD SWAP2 MLOAD PUSH4 0x48DBCEF PUSH1 0xE4 SHL DUP2 MSTORE SWAP5 SWAP3 SWAP4 DUP6 SWAP4 PUSH1 0x1 PUSH1 0x1 PUSH1 0xA0 SHL SUB SWAP1 DUP2 AND SWAP4 DUP6 SWAP4 DUP5 SWAP3 PUSH2 0xE12 SWAP3 SWAP2 AND PUSH1 0x4 DUP5 ADD PUSH2 0x220C JUMP JUMPDEST SUB SWAP3 GAS CALL SWAP1 DUP2 ISZERO PUSH2 0x1025 JUMPI PUSH1 0x0 SWAP2 PUSH2 0xFEA JUMPI JUMPDEST POP ISZERO PUSH2 0xFAA JUMPI DUP1 PUSH1 0x0 MSTORE DUP2 PUSH1 0x20 MSTORE PUSH32 0xB9874B9AA8F1986F23EEDB12A3ECF1C3033FF8E7D332F10B701FA43226DC6EC9 PUSH1 0xA0 PUSH1 0x2 PUSH2 0xE68 DUP2 PUSH1 0x40 PUSH1 0x0 KECCAK256 ADD SLOAD PUSH2 0x1D8B JUMP JUMPDEST POP ADD SLOAD DUP4 PUSH1 0x0 MSTORE DUP5 PUSH1 0x20 MSTORE PUSH1 0x40 PUSH1 0x0 KECCAK256 SWAP1 PUSH2 0xEA1 PUSH2 0xE9B PUSH1 0xFF PUSH1 0x4 PUSH2 0xE92 PUSH1 0x2 DUP8 ADD SLOAD SWAP7 SLOAD PUSH2 0x1D8B JUMP JUMPDEST POP ADD SLOAD AND PUSH2 0x2291 JUMP JUMPDEST TIMESTAMP PUSH2 0x200A JUMP JUMPDEST DUP6 PUSH1 0x0 MSTORE DUP7 PUSH1 0x20 MSTORE PUSH1 0x1 DUP1 DUP6 SHL SUB PUSH1 0x3 PUSH1 0x40 PUSH1 0x0 KECCAK256 ADD SLOAD AND SWAP2 PUSH1 0x40 MLOAD SWAP4 DUP10 DUP6 MSTORE PUSH1 0x20 DUP6 ADD MSTORE PUSH1 0x40 DUP5 ADD MSTORE PUSH1 0x60 DUP4 ADD MSTORE PUSH1 0x80 DUP3 ADD MSTORE LOG1 JUMPDEST PUSH1 0x4 PUSH2 0xEE2 DUP5 PUSH2 0x1D8B JUMP JUMPDEST POP ADD DUP1 SLOAD PUSH3 0xFF0000 NOT AND SWAP1 SSTORE PUSH1 0x0 PUSH1 0x3 PUSH2 0xEFB DUP6 PUSH2 0x1D8B JUMP JUMPDEST POP ADD SSTORE PUSH1 0x0 MSTORE PUSH1 0x20 MSTORE PUSH2 0xF1C PUSH2 0xE9B PUSH1 0xFF PUSH1 0x4 PUSH2 0xE92 PUSH1 0x40 PUSH1 0x0 KECCAK256 SLOAD PUSH2 0x1D8B JUMP JUMPDEST PUSH1 0x2 PUSH2 0xF27 DUP4 PUSH2 0x1D8B JUMP JUMPDEST POP ADD SSTORE PUSH2 0xF3A PUSH1 0xFF PUSH1 0x4 PUSH2 0x554 DUP5 PUSH2 0x1D8B JUMP JUMPDEST PUSH2 0xF44 DUP2 SLOAD PUSH2 0x2227 JUMP JUMPDEST SWAP1 SSTORE PUSH1 0x1 PUSH1 0x1 PUSH1 0xA0 SHL SUB PUSH2 0xF57 DUP3 PUSH2 0x2172 JUMP JUMPDEST AND PUSH1 0x0 MSTORE PUSH1 0xB PUSH1 0x20 MSTORE PUSH1 0x40 PUSH1 0x0 KECCAK256 DUP2 PUSH1 0x0 MSTORE PUSH1 0x20 MSTORE PUSH1 0x40 PUSH1 0x0 KECCAK256 PUSH1 0xFF NOT DUP2 SLOAD AND SWAP1 SSTORE PUSH1 0x1 DUP1 PUSH1 0xA0 SHL SUB PUSH2 0xF89 DUP3 PUSH2 0x2172 JUMP JUMPDEST AND PUSH1 0x0 MSTORE PUSH1 0xC PUSH1 0x20 MSTORE PUSH1 0x40 PUSH1 0x0 KECCAK256 SWAP1 PUSH1 0x0 MSTORE PUSH1 0x20 MSTORE PUSH1 0x0 PUSH1 0x40 DUP2 KECCAK256 SSTORE PUSH1 0x0 DUP1 RETURN JUMPDEST PUSH1 0x40 MLOAD PUSH3 0x461BCD PUSH1 0xE5 SHL DUP2 MSTORE PUSH1 0x20 PUSH1 0x4 DUP3 ADD MSTORE PUSH1 0x18 PUSH1 0x24 DUP3 ADD MSTORE PUSH24 0x3330B4B632B2103A37903A3930B739B332B9103A37B5B2B7 PUSH1 0x41 SHL PUSH1 0x44 DUP3 ADD MSTORE PUSH1 0x64 SWAP1 REVERT JUMPDEST SWAP1 POP PUSH1 0x20 DUP2 RETURNDATASIZE PUSH1 0x20 GT PUSH2 0x101D JUMPI JUMPDEST DUP2 PUSH2 0x1005 PUSH1 0x20 SWAP4 DUP4 PUSH2 0x1C97 JUMP JUMPDEST DUP2 ADD SUB SLT PUSH2 0x210 JUMPI MLOAD DUP1 ISZERO ISZERO DUP2 SUB PUSH2 0x210 JUMPI DUP5 PUSH2 0xE25 JUMP JUMPDEST RETURNDATASIZE SWAP2 POP PUSH2 0xFF8 JUMP JUMPDEST PUSH1 0x40 MLOAD RETURNDATASIZE PUSH1 0x0 DUP3 RETURNDATACOPY RETURNDATASIZE SWAP1 REVERT JUMPDEST PUSH4 0x4E487B71 PUSH1 0xE0 SHL PUSH1 0x0 MSTORE PUSH1 0x12 PUSH1 0x4 MSTORE PUSH1 0x24 PUSH1 0x0 REVERT JUMPDEST POP POP POP POP DUP1 PUSH1 0x0 MSTORE DUP2 PUSH1 0x20 MSTORE PUSH32 0xCCAAE9BB2BCA53D8B0D708515A73D3A7E963ED3E3E583C0A554F72651E8DB52A PUSH1 0x60 PUSH2 0x1095 PUSH2 0xE9B PUSH1 0xFF PUSH1 0x4 PUSH2 0xE92 PUSH1 0x40 PUSH1 0x0 KECCAK256 PUSH1 0x0 PUSH1 0x2 DUP3 ADD SSTORE SLOAD PUSH2 0x1D8B JUMP JUMPDEST DUP4 PUSH1 0x0 MSTORE DUP5 PUSH1 0x20 MSTORE PUSH1 0x1 DUP1 PUSH1 0xA0 SHL SUB PUSH1 0x3 PUSH1 0x40 PUSH1 0x0 KECCAK256 ADD SLOAD AND PUSH1 0x40 MLOAD SWAP2 DUP8 DUP4 MSTORE PUSH1 0x20 DUP4 ADD MSTORE PUSH1 0x40 DUP3 ADD MSTORE LOG1 PUSH2 0xED7 JUMP JUMPDEST DUP3 MLOAD DUP5 MSTORE PUSH1 0x20 SWAP4 DUP5 ADD SWAP4 SWAP1 SWAP3 ADD SWAP2 PUSH1 0x1 ADD PUSH2 0xD54 JUMP JUMPDEST DUP1 PUSH2 0x10E8 PUSH1 0x1 SWAP3 DUP5 PUSH2 0x21F8 JUMP JUMPDEST MLOAD PUSH2 0x10F3 DUP3 DUP9 PUSH2 0x21F8 JUMP JUMPDEST MSTORE ADD PUSH2 0xD28 JUMP JUMPDEST PUSH2 0x1145 PUSH2 0x112B PUSH1 0xFF PUSH1 0x5 PUSH2 0x110D DUP6 PUSH2 0x1D8B JUMP JUMPDEST POP ADD SLOAD AND PUSH1 0xFF PUSH1 0x5 PUSH2 0x111E DUP7 PUSH2 0x1D8B JUMP JUMPDEST POP ADD SLOAD PUSH1 0x8 SHR AND SWAP1 PUSH2 0x227D JUMP JUMPDEST PUSH1 0xFF PUSH1 0x5 PUSH2 0x1138 DUP6 PUSH2 0x1D8B JUMP JUMPDEST POP ADD SLOAD PUSH1 0x10 SHR AND SWAP1 PUSH2 0x227D JUMP JUMPDEST PUSH1 0xFF PUSH2 0x1168 PUSH2 0x1153 DUP5 PUSH2 0x1D8B JUMP JUMPDEST POP SWAP3 DUP3 PUSH1 0x5 DUP2 DUP9 AND SWAP6 ADD SLOAD PUSH1 0x18 SHR AND SWAP1 PUSH2 0x227D JUMP JUMPDEST AND LT DUP1 PUSH2 0x11C6 JUMPI JUMPDEST DUP1 PUSH2 0x11AB JUMPI JUMPDEST PUSH2 0x1183 JUMPI JUMPDEST PUSH1 0x1 ADD PUSH2 0xD10 JUMP JUMPDEST SWAP5 SWAP2 PUSH1 0x1 DUP1 DUP1 SWAP3 PUSH2 0x1193 DUP10 PUSH2 0x1D8B JUMP JUMPDEST POP SLOAD PUSH2 0x119F DUP3 DUP13 PUSH2 0x21F8 JUMP JUMPDEST MSTORE ADD SWAP4 ADD SWAP6 SWAP1 POP PUSH2 0x117B JUMP JUMPDEST POP PUSH1 0xFF PUSH1 0x4 PUSH2 0x11B9 DUP4 PUSH2 0x1D8B JUMP JUMPDEST POP ADD SLOAD PUSH1 0x10 SHR AND ISZERO PUSH2 0x1176 JUMP JUMPDEST POP PUSH1 0x0 DUP2 DUP2 MSTORE PUSH1 0x8 PUSH1 0x20 MSTORE PUSH1 0x40 SWAP1 KECCAK256 SLOAD PUSH1 0x1C SLOAD PUSH1 0x1 PUSH1 0x1 PUSH1 0xA0 SHL SUB SWAP1 DUP2 AND SWAP2 AND EQ PUSH2 0x1170 JUMP JUMPDEST PUSH4 0x4E487B71 PUSH1 0xE0 SHL PUSH1 0x0 MSTORE PUSH1 0x41 PUSH1 0x4 MSTORE PUSH1 0x24 PUSH1 0x0 REVERT JUMPDEST PUSH1 0x40 MLOAD PUSH4 0x92B81979 PUSH1 0xE0 SHL DUP2 MSTORE PUSH1 0x4 SWAP1 REVERT JUMPDEST PUSH1 0x44 SWAP1 PUSH1 0x40 MLOAD SWAP1 PUSH4 0x73E64FD PUSH1 0xE2 SHL DUP3 MSTORE CALLER PUSH1 0x4 DUP4 ADD MSTORE PUSH1 0x24 DUP3 ADD MSTORE REVERT JUMPDEST CALLVALUE PUSH2 0x210 JUMPI PUSH1 0x0 CALLDATASIZE PUSH1 0x3 NOT ADD SLT PUSH2 0x210 JUMPI PUSH1 0x20 PUSH1 0xFF PUSH1 0x6 SLOAD AND PUSH1 0x40 MLOAD SWAP1 DUP2 MSTORE RETURN JUMPDEST PUSH1 0x20 DUP1 PUSH1 0x3 NOT CALLDATASIZE ADD SLT PUSH2 0x210 JUMPI PUSH1 0x10 SLOAD PUSH1 0x4 CALLDATALOAD PUSH2 0x1273 PUSH1 0xFF DUP4 AND ISZERO PUSH2 0x1DF4 JUMP JUMPDEST PUSH1 0x2 PUSH1 0x1F SLOAD EQ PUSH2 0x163A JUMPI PUSH1 0x2 PUSH1 0x1F SSTORE PUSH2 0x128B DUP2 PUSH2 0x2172 JUMP JUMPDEST PUSH1 0x1 PUSH1 0x1 PUSH1 0xA0 SHL SUB SWAP3 SWAP1 CALLER SWAP1 DUP5 AND SUB PUSH2 0x5B9 JUMPI CALLER PUSH1 0x0 MSTORE PUSH1 0xC DUP5 MSTORE PUSH1 0x40 PUSH1 0x0 KECCAK256 DUP3 PUSH1 0x0 MSTORE DUP5 MSTORE PUSH1 0x40 PUSH1 0x0 KECCAK256 SLOAD SWAP1 PUSH1 0xFF PUSH1 0x4 PUSH2 0x12C5 DUP6 PUSH2 0x1D8B JUMP JUMPDEST POP ADD SLOAD AND PUSH1 0x6 DUP2 LT ISZERO PUSH2 0xAB3 JUMPI PUSH1 0x1 DUP2 SUB PUSH2 0x1594 JUMPI POP SWAP1 PUSH4 0xFFFFFFFF PUSH2 0x12EF SWAP3 PUSH1 0x30 SHR AND SWAP1 PUSH2 0x200A JUMP JUMPDEST TIMESTAMP LT PUSH2 0x1582 JUMPI PUSH1 0xFF PUSH1 0x4 PUSH2 0x1302 DUP4 PUSH2 0x1D8B JUMP JUMPDEST POP ADD SLOAD PUSH1 0x10 SHR AND ISZERO PUSH2 0x5A8 JUMPI DUP2 PUSH2 0x1318 DUP3 PUSH2 0x2172 JUMP JUMPDEST AND PUSH1 0x0 MSTORE PUSH1 0xB DUP4 MSTORE PUSH1 0x40 PUSH1 0x0 KECCAK256 DUP2 PUSH1 0x0 MSTORE DUP4 MSTORE PUSH1 0x1 PUSH1 0xFF PUSH1 0x40 PUSH1 0x0 KECCAK256 SLOAD AND ISZERO ISZERO SUB PUSH2 0x596 JUMPI PUSH2 0x1387 PUSH4 0xFFFFFFFF PUSH1 0x11 SLOAD PUSH1 0x80 SHR AND SWAP3 DUP5 SLOAD AND DUP5 PUSH1 0x40 MLOAD PUSH2 0x135D DUP2 PUSH2 0x1C61 JUMP JUMPDEST PUSH1 0x0 DUP2 MSTORE PUSH1 0x0 DUP3 DUP3 ADD MSTORE DUP6 PUSH1 0x40 DUP3 ADD MSTORE PUSH1 0x40 MLOAD DUP1 SWAP5 DUP2 SWAP3 PUSH4 0xA6C278F3 PUSH1 0xE0 SHL DUP4 MSTORE PUSH1 0x4 DUP4 ADD PUSH2 0x21CC JUMP JUMPDEST SUB DUP2 DUP5 GAS STATICCALL SWAP4 DUP5 ISZERO PUSH2 0x1025 JUMPI DUP6 SWAP3 PUSH1 0x0 SWAP6 PUSH2 0x154F JUMPI JUMPDEST POP DUP5 SWAP3 SWAP2 PUSH2 0x13DD SWAP2 PUSH1 0x40 MLOAD SWAP1 PUSH2 0x13B2 DUP3 PUSH2 0x1C61 JUMP JUMPDEST PUSH1 0x0 DUP3 MSTORE PUSH1 0x0 DUP6 DUP4 ADD MSTORE PUSH1 0x40 DUP3 ADD MSTORE PUSH1 0x40 MLOAD SWAP7 DUP8 DUP1 SWAP5 DUP2 SWAP4 PUSH4 0x9160B15 PUSH1 0xE1 SHL DUP4 MSTORE PUSH1 0x4 DUP4 ADD PUSH2 0x21CC JUMP JUMPDEST SUB SWAP3 GAS CALL SWAP3 DUP4 ISZERO PUSH2 0x1025 JUMPI PUSH1 0x0 SWAP4 PUSH2 0x1520 JUMPI JUMPDEST POP DUP3 PUSH1 0x3 PUSH2 0x13FD DUP5 PUSH2 0x1D8B JUMP JUMPDEST POP ADD SSTORE PUSH1 0x0 DUP4 DUP2 MSTORE PUSH1 0xF DUP6 MSTORE PUSH1 0x40 SWAP1 KECCAK256 DUP3 DUP2 SSTORE PUSH1 0x3 ADD DUP1 SLOAD PUSH1 0x1 PUSH1 0x1 PUSH1 0xA8 SHL SUB NOT AND CALLER OR PUSH1 0x1 PUSH1 0xA0 SHL OR SWAP1 SSTORE PUSH1 0x19 DUP1 SLOAD PUSH1 0x1 ADD SWAP1 SSTORE CALLVALUE DUP2 LT PUSH2 0x1484 JUMPI JUMPDEST POP PUSH1 0x40 DUP2 PUSH1 0x3 PUSH2 0x146A PUSH32 0x92F40CA7D6CFF5022608E05DA6B963F9AC5A227EA2DA740F7D35831BB78C285D SWAP5 PUSH2 0x1D8B JUMP JUMPDEST POP ADD SLOAD DUP3 MLOAD SWAP2 DUP3 MSTORE DUP6 DUP3 ADD MSTORE LOG1 PUSH1 0x1 PUSH1 0x1F SSTORE PUSH1 0x40 MLOAD SWAP1 DUP2 MSTORE RETURN JUMPDEST CALLVALUE SUB CALLVALUE DUP2 GT PUSH2 0x150A JUMPI PUSH1 0x0 DUP1 DUP1 DUP1 DUP5 CALLER GAS CALL PUSH2 0x149E PUSH2 0x2017 JUMP JUMPDEST POP ISZERO PUSH2 0x14F8 JUMPI PUSH32 0x92F40CA7D6CFF5022608E05DA6B963F9AC5A227EA2DA740F7D35831BB78C285D SWAP2 PUSH32 0x27468D49151596D3863CCB02E3911B3146A62533FACD0765451BA556BB4FD9C8 DUP6 PUSH1 0x40 SWAP4 DUP5 MLOAD SWAP1 DUP2 MSTORE LOG1 SWAP2 POP PUSH2 0x143A JUMP JUMPDEST PUSH1 0x40 MLOAD PUSH4 0x1E53F7E5 PUSH1 0xE1 SHL DUP2 MSTORE PUSH1 0x4 SWAP1 REVERT JUMPDEST PUSH4 0x4E487B71 PUSH1 0xE0 SHL PUSH1 0x0 MSTORE PUSH1 0x11 PUSH1 0x4 MSTORE PUSH1 0x24 PUSH1 0x0 REVERT JUMPDEST SWAP1 SWAP3 POP DUP4 DUP2 DUP2 RETURNDATASIZE DUP4 GT PUSH2 0x1548 JUMPI JUMPDEST PUSH2 0x1538 DUP2 DUP4 PUSH2 0x1C97 JUMP JUMPDEST DUP2 ADD SUB SLT PUSH2 0x210 JUMPI MLOAD SWAP2 DUP5 PUSH2 0x13F0 JUMP JUMPDEST POP RETURNDATASIZE PUSH2 0x152E JUMP JUMPDEST SWAP2 SWAP5 POP SWAP2 DUP2 DUP2 RETURNDATASIZE DUP2 GT PUSH2 0x157B JUMPI JUMPDEST PUSH2 0x1567 DUP2 DUP4 PUSH2 0x1C97 JUMP JUMPDEST DUP2 ADD SUB SLT PUSH2 0x210 JUMPI MLOAD SWAP3 DUP5 SWAP2 PUSH2 0x13DD PUSH2 0x139D JUMP JUMPDEST POP RETURNDATASIZE PUSH2 0x155D JUMP JUMPDEST PUSH1 0x40 MLOAD PUSH4 0x34CED317 PUSH1 0xE1 SHL DUP2 MSTORE PUSH1 0x4 SWAP1 REVERT JUMPDEST PUSH1 0x2 DUP2 SUB PUSH2 0x15B1 JUMPI POP SWAP1 PUSH4 0xFFFFFFFF PUSH2 0x12EF SWAP3 PUSH1 0x50 SHR AND SWAP1 PUSH2 0x200A JUMP JUMPDEST PUSH1 0x3 DUP2 SUB PUSH2 0x15CE JUMPI POP SWAP1 PUSH4 0xFFFFFFFF PUSH2 0x12EF SWAP3 PUSH1 0x70 SHR AND SWAP1 PUSH2 0x200A JUMP JUMPDEST PUSH1 0x4 DUP2 SUB PUSH2 0x15EB JUMPI POP SWAP1 PUSH4 0xFFFFFFFF PUSH2 0x12EF SWAP3 PUSH1 0x90 SHR AND SWAP1 PUSH2 0x200A JUMP JUMPDEST PUSH1 0x5 SUB PUSH2 0x1606 JUMPI SWAP1 PUSH4 0xFFFFFFFF PUSH2 0x12EF SWAP3 PUSH1 0xB0 SHR AND SWAP1 PUSH2 0x200A JUMP JUMPDEST PUSH1 0x40 MLOAD PUSH3 0x461BCD PUSH1 0xE5 SHL DUP2 MSTORE PUSH1 0x4 DUP2 ADD DUP7 SWAP1 MSTORE PUSH1 0xC PUSH1 0x24 DUP3 ADD MSTORE PUSH12 0x77726F6E6720726172697479 PUSH1 0xA0 SHL PUSH1 0x44 DUP3 ADD MSTORE PUSH1 0x64 SWAP1 REVERT JUMPDEST PUSH1 0x40 MLOAD PUSH4 0x3EE5AEB5 PUSH1 0xE0 SHL DUP2 MSTORE PUSH1 0x4 SWAP1 REVERT JUMPDEST CALLVALUE PUSH2 0x210 JUMPI PUSH1 0x0 CALLDATASIZE PUSH1 0x3 NOT ADD SLT PUSH2 0x210 JUMPI PUSH1 0x20 PUSH4 0xFFFFFFFF PUSH1 0x11 SLOAD PUSH1 0x80 SHR AND PUSH1 0x40 MLOAD SWAP1 DUP2 MSTORE RETURN JUMPDEST CALLVALUE PUSH2 0x210 JUMPI PUSH2 0x440 PUSH2 0x1684 CALLDATASIZE PUSH2 0x1B70 JUMP JUMPDEST SWAP2 PUSH2 0x1E33 JUMP JUMPDEST CALLVALUE PUSH2 0x210 JUMPI PUSH1 0x20 CALLDATASIZE PUSH1 0x3 NOT ADD SLT PUSH2 0x210 JUMPI PUSH1 0x4 CALLDATALOAD PUSH1 0xFF SWAP1 PUSH2 0x16AF DUP3 PUSH1 0x10 SLOAD AND ISZERO PUSH2 0x1DF4 JUMP JUMPDEST CALLER ISZERO PUSH2 0x1874 JUMPI CALLER PUSH1 0x1 PUSH1 0x1 PUSH1 0xA0 SHL SUB PUSH2 0x16C7 DUP4 PUSH2 0x2172 JUMP JUMPDEST AND SUB PUSH2 0x5B9 JUMPI PUSH1 0x2 PUSH2 0x16D8 DUP3 PUSH2 0x1D8B JUMP JUMPDEST POP ADD SLOAD TIMESTAMP LT PUSH2 0x1862 JUMPI DUP2 PUSH1 0x4 PUSH2 0x16ED DUP4 PUSH2 0x1D8B JUMP JUMPDEST POP ADD SLOAD PUSH1 0x10 SHR AND PUSH2 0x1850 JUMPI DUP2 PUSH1 0x4 PUSH2 0x1704 DUP4 PUSH2 0x1D8B JUMP JUMPDEST POP ADD SLOAD AND PUSH1 0x6 DUP2 LT ISZERO PUSH2 0xAB3 JUMPI ISZERO PUSH2 0x183E JUMPI DUP2 PUSH1 0x4 PUSH2 0x1722 DUP4 PUSH2 0x1D8B JUMP JUMPDEST POP ADD SLOAD PUSH1 0x8 SHR AND ISZERO PUSH2 0x182C JUMPI PUSH2 0x1737 CALLER PUSH2 0x1BBB JUMP JUMPDEST DUP2 PUSH1 0x0 MSTORE PUSH1 0x20 MSTORE PUSH1 0x40 PUSH1 0x0 KECCAK256 PUSH1 0x1 PUSH1 0xFF NOT DUP3 SLOAD AND OR SWAP1 SSTORE PUSH2 0x1757 CALLER PUSH2 0x1BD5 JUMP JUMPDEST DUP2 PUSH1 0x0 MSTORE PUSH1 0x20 MSTORE TIMESTAMP PUSH1 0x40 PUSH1 0x0 KECCAK256 SSTORE PUSH1 0x4 PUSH2 0x1770 DUP3 PUSH2 0x1D8B JUMP JUMPDEST POP ADD DUP1 SLOAD PUSH3 0xFF0000 NOT AND PUSH3 0x10000 OR SWAP1 SSTORE PUSH1 0x4 PUSH2 0x178C DUP3 PUSH2 0x1D8B JUMP JUMPDEST POP ADD SWAP1 DUP2 SLOAD SWAP2 DUP4 DUP4 PUSH1 0x8 SHR AND SWAP3 DUP4 ISZERO PUSH2 0x150A JUMPI PUSH2 0xFF00 NOT AND PUSH1 0x0 NOT SWAP4 DUP5 ADD PUSH1 0x8 SHL PUSH2 0xFF00 AND OR SWAP1 SSTORE PUSH2 0x17C3 DUP4 PUSH1 0x4 PUSH2 0x554 DUP5 PUSH2 0x1D8B JUMP JUMPDEST SWAP3 DUP4 SLOAD SWAP3 DUP4 EQ PUSH2 0x150A JUMPI PUSH32 0xCFDB0DA0EDA7E72692CC304E4E58D2543A70CE5269931E91E02337CBFF2A1EF1 SWAP4 PUSH1 0x1 PUSH1 0x80 SWAP5 ADD SWAP1 SSTORE PUSH1 0x4 PUSH2 0x1802 DUP4 PUSH2 0x1D8B JUMP JUMPDEST POP ADD SLOAD PUSH1 0x8 SHR AND PUSH1 0x40 MLOAD SWAP2 DUP3 MSTORE CALLER PUSH1 0x20 DUP4 ADD MSTORE TIMESTAMP PUSH1 0x40 DUP4 ADD MSTORE PUSH1 0x60 DUP3 ADD MSTORE LOG1 PUSH1 0x20 PUSH1 0x40 MLOAD PUSH1 0x1 DUP2 MSTORE RETURN JUMPDEST PUSH1 0x40 MLOAD PUSH4 0xBC758F1B PUSH1 0xE0 SHL DUP2 MSTORE PUSH1 0x4 SWAP1 REVERT JUMPDEST PUSH1 0x40 MLOAD PUSH4 0x36CAE1F PUSH1 0xE3 SHL DUP2 MSTORE PUSH1 0x4 SWAP1 REVERT JUMPDEST PUSH1 0x40 MLOAD PUSH4 0x5399EBF5 PUSH1 0xE0 SHL DUP2 MSTORE PUSH1 0x4 SWAP1 REVERT JUMPDEST PUSH1 0x40 MLOAD PUSH4 0x4A448F37 PUSH1 0xE0 SHL DUP2 MSTORE PUSH1 0x4 SWAP1 REVERT JUMPDEST PUSH1 0x40 MLOAD PUSH4 0x9FABE1C1 PUSH1 0xE0 SHL DUP2 MSTORE PUSH1 0x4 SWAP1 REVERT JUMPDEST CALLVALUE PUSH2 0x210 JUMPI PUSH1 0x40 CALLDATASIZE PUSH1 0x3 NOT ADD SLT PUSH2 0x210 JUMPI PUSH2 0x189F PUSH2 0x1B44 JUMP JUMPDEST PUSH1 0x24 CALLDATALOAD PUSH2 0x18AB DUP2 PUSH2 0x2172 JUMP JUMPDEST CALLER ISZERO ISZERO DUP1 PUSH2 0x195A JUMPI JUMPDEST DUP1 PUSH2 0x193A JUMPI JUMPDEST PUSH2 0x1922 JUMPI PUSH1 0x1 PUSH1 0x1 PUSH1 0xA0 SHL SUB SWAP3 DUP4 AND SWAP3 DUP3 SWAP2 DUP5 SWAP2 AND PUSH32 0x8C5BE1E5EBEC7D5BD14F71427D1E84F3DD0314C0F7B2291E5B200AC8C7C3B925 PUSH1 0x0 DUP1 LOG4 PUSH1 0x0 SWAP1 DUP2 MSTORE PUSH1 0x0 DUP1 MLOAD PUSH1 0x20 PUSH2 0x2350 DUP4 CODECOPY DUP2 MLOAD SWAP2 MSTORE PUSH1 0x20 MSTORE PUSH1 0x40 SWAP1 KECCAK256 DUP1 SLOAD PUSH1 0x1 PUSH1 0x1 PUSH1 0xA0 SHL SUB NOT AND SWAP1 SWAP2 OR SWAP1 SSTORE STOP JUMPDEST PUSH1 0x40 MLOAD PUSH4 0xA9FBF51F PUSH1 0xE0 SHL DUP2 MSTORE CALLER PUSH1 0x4 DUP3 ADD MSTORE PUSH1 0x24 SWAP1 REVERT JUMPDEST POP PUSH2 0x1944 DUP2 PUSH2 0x1C28 JUMP JUMPDEST CALLER PUSH1 0x0 MSTORE PUSH1 0x20 MSTORE PUSH1 0xFF PUSH1 0x40 PUSH1 0x0 KECCAK256 SLOAD AND ISZERO PUSH2 0x18BA JUMP JUMPDEST POP PUSH1 0x1 PUSH1 0x1 PUSH1 0xA0 SHL SUB DUP2 AND CALLER EQ ISZERO PUSH2 0x18B4 JUMP JUMPDEST CALLVALUE PUSH2 0x210 JUMPI PUSH1 0x20 CALLDATASIZE PUSH1 0x3 NOT ADD SLT PUSH2 0x210 JUMPI PUSH1 0x4 CALLDATALOAD PUSH2 0x198A DUP2 PUSH2 0x2172 JUMP JUMPDEST POP PUSH1 0x0 MSTORE PUSH1 0x0 DUP1 MLOAD PUSH1 0x20 PUSH2 0x2350 DUP4 CODECOPY DUP2 MLOAD SWAP2 MSTORE PUSH1 0x20 MSTORE PUSH1 0x20 PUSH1 0x1 DUP1 PUSH1 0xA0 SHL SUB PUSH1 0x40 PUSH1 0x0 KECCAK256 SLOAD AND PUSH1 0x40 MLOAD SWAP1 DUP2 MSTORE RETURN JUMPDEST CALLVALUE PUSH2 0x210 JUMPI PUSH1 0x0 CALLDATASIZE PUSH1 0x3 NOT ADD SLT PUSH2 0x210 JUMPI PUSH1 0x40 MLOAD PUSH32 0x80BB2B638CC20BC4D0A60D66940F3AB4A00C1D7B313497CA82FB0B4AB0079300 DUP1 SLOAD SWAP1 PUSH1 0x1 DUP3 DUP2 SHR SWAP2 DUP2 DUP5 AND SWAP2 PUSH1 0x0 SWAP2 DUP4 ISZERO PUSH2 0x1A75 JUMPI JUMPDEST PUSH1 0x20 SWAP6 DUP7 DUP7 LT DUP6 EQ PUSH2 0x851 JUMPI DUP7 DUP9 SWAP6 DUP8 DUP8 MSTORE SWAP2 DUP3 PUSH1 0x0 EQ PUSH2 0x82F JUMPI POP POP PUSH1 0x1 EQ PUSH2 0x1A36 JUMPI POP POP PUSH2 0x7DC SWAP3 POP SUB DUP4 PUSH2 0x1C97 JUMP JUMPDEST DUP6 SWAP3 POP PUSH1 0x0 MSTORE DUP2 PUSH1 0x0 KECCAK256 SWAP1 PUSH1 0x0 SWAP2 JUMPDEST DUP6 DUP4 LT PUSH2 0x1A5D JUMPI POP POP PUSH2 0x7DC SWAP4 POP DUP3 ADD ADD DUP6 DUP1 PUSH2 0x7CE JUMP JUMPDEST DUP1 SLOAD DUP4 DUP10 ADD DUP6 ADD MSTORE DUP8 SWAP5 POP DUP7 SWAP4 SWAP1 SWAP3 ADD SWAP2 DUP2 ADD PUSH2 0x1A45 JUMP JUMPDEST SWAP4 PUSH1 0x7F AND SWAP4 PUSH2 0x1A04 JUMP JUMPDEST CALLVALUE PUSH2 0x210 JUMPI PUSH1 0x20 CALLDATASIZE PUSH1 0x3 NOT ADD SLT PUSH2 0x210 JUMPI PUSH1 0x4 CALLDATALOAD SWAP1 PUSH4 0xFFFFFFFF PUSH1 0xE0 SHL DUP3 AND DUP1 SWAP3 SUB PUSH2 0x210 JUMPI PUSH1 0x20 SWAP2 PUSH4 0x24832483 PUSH1 0xE1 SHL DUP2 EQ SWAP1 DUP2 ISZERO PUSH2 0x1AC1 JUMPI JUMPDEST POP ISZERO ISZERO DUP2 MSTORE RETURN JUMPDEST PUSH4 0x80AC58CD PUSH1 0xE0 SHL DUP2 EQ SWAP2 POP DUP2 ISZERO PUSH2 0x1AF3 JUMPI JUMPDEST DUP2 ISZERO PUSH2 0x1AE2 JUMPI JUMPDEST POP DUP4 PUSH2 0x1ABA JUMP JUMPDEST PUSH4 0x1FFC9A7 PUSH1 0xE0 SHL EQ SWAP1 POP DUP4 PUSH2 0x1ADB JUMP JUMPDEST PUSH4 0x5B5E139F PUSH1 0xE0 SHL DUP2 EQ SWAP2 POP PUSH2 0x1AD4 JUMP JUMPDEST SWAP2 SWAP1 DUP3 MLOAD SWAP3 DUP4 DUP3 MSTORE PUSH1 0x0 JUMPDEST DUP5 DUP2 LT PUSH2 0x1B30 JUMPI POP POP DUP3 PUSH1 0x0 PUSH1 0x20 DUP1 SWAP5 SWAP6 DUP5 ADD ADD MSTORE PUSH1 0x1F DUP1 NOT SWAP2 ADD AND ADD ADD SWAP1 JUMP JUMPDEST PUSH1 0x20 DUP2 DUP4 ADD DUP2 ADD MLOAD DUP5 DUP4 ADD DUP3 ADD MSTORE ADD PUSH2 0x1B0F JUMP JUMPDEST PUSH1 0x4 CALLDATALOAD SWAP1 PUSH1 0x1 PUSH1 0x1 PUSH1 0xA0 SHL SUB DUP3 AND DUP3 SUB PUSH2 0x210 JUMPI JUMP JUMPDEST PUSH1 0x24 CALLDATALOAD SWAP1 PUSH1 0x1 PUSH1 0x1 PUSH1 0xA0 SHL SUB DUP3 AND DUP3 SUB PUSH2 0x210 JUMPI JUMP JUMPDEST PUSH1 0x60 SWAP1 PUSH1 0x3 NOT ADD SLT PUSH2 0x210 JUMPI PUSH1 0x1 PUSH1 0x1 PUSH1 0xA0 SHL SUB SWAP1 PUSH1 0x4 CALLDATALOAD DUP3 DUP2 AND DUP2 SUB PUSH2 0x210 JUMPI SWAP2 PUSH1 0x24 CALLDATALOAD SWAP1 DUP2 AND DUP2 SUB PUSH2 0x210 JUMPI SWAP1 PUSH1 0x44 CALLDATALOAD SWAP1 JUMP JUMPDEST PUSH1 0x40 SWAP1 PUSH1 0x3 NOT ADD SLT PUSH2 0x210 JUMPI PUSH1 0x4 CALLDATALOAD SWAP1 PUSH1 0x24 CALLDATALOAD SWAP1 JUMP JUMPDEST PUSH1 0x1 PUSH1 0x1 PUSH1 0xA0 SHL SUB AND PUSH1 0x0 SWAP1 DUP2 MSTORE PUSH1 0xB PUSH1 0x20 MSTORE PUSH1 0x40 SWAP1 KECCAK256 SWAP1 JUMP JUMPDEST PUSH1 0x1 PUSH1 0x1 PUSH1 0xA0 SHL SUB AND PUSH1 0x0 SWAP1 DUP2 MSTORE PUSH1 0xC PUSH1 0x20 MSTORE PUSH1 0x40 SWAP1 KECCAK256 SWAP1 JUMP JUMPDEST PUSH1 0x1 PUSH1 0x1 PUSH1 0xA0 SHL SUB AND PUSH1 0x0 SWAP1 DUP2 MSTORE PUSH32 0x80BB2B638CC20BC4D0A60D66940F3AB4A00C1D7B313497CA82FB0B4AB0079303 PUSH1 0x20 MSTORE PUSH1 0x40 SWAP1 KECCAK256 SWAP1 JUMP JUMPDEST PUSH1 0x1 PUSH1 0x1 PUSH1 0xA0 SHL SUB AND PUSH1 0x0 SWAP1 DUP2 MSTORE PUSH32 0x80BB2B638CC20BC4D0A60D66940F3AB4A00C1D7B313497CA82FB0B4AB0079305 PUSH1 0x20 MSTORE PUSH1 0x40 SWAP1 KECCAK256 SWAP1 JUMP JUMPDEST PUSH1 0x60 DUP2 ADD SWAP1 DUP2 LT PUSH1 0x1 PUSH1 0x1 PUSH1 0x40 SHL SUB DUP3 GT OR PUSH2 0x11EC JUMPI PUSH1 0x40 MSTORE JUMP JUMPDEST PUSH1 0x20 DUP2 ADD SWAP1 DUP2 LT PUSH1 0x1 PUSH1 0x1 PUSH1 0x40 SHL SUB DUP3 GT OR PUSH2 0x11EC JUMPI PUSH1 0x40 MSTORE JUMP JUMPDEST SWAP1 PUSH1 0x1F DUP1 NOT SWAP2 ADD AND DUP2 ADD SWAP1 DUP2 LT PUSH1 0x1 PUSH1 0x1 PUSH1 0x40 SHL SUB DUP3 GT OR PUSH2 0x11EC JUMPI PUSH1 0x40 MSTORE JUMP JUMPDEST SWAP1 PUSH1 0x40 MLOAD SWAP1 PUSH1 0x0 DUP4 SLOAD SWAP1 PUSH1 0x1 DUP3 PUSH1 0x1 SHR SWAP1 PUSH1 0x1 DUP5 AND SWAP7 DUP8 ISZERO PUSH2 0x1D81 JUMPI JUMPDEST PUSH1 0x20 SWAP5 DUP6 DUP5 LT DUP10 EQ PUSH2 0x1D6D JUMPI DUP8 SWAP9 DUP5 DUP10 SWAP8 SWAP9 SWAP10 MSTORE SWAP1 DUP2 PUSH1 0x0 EQ PUSH2 0x1D4B JUMPI POP PUSH1 0x1 EQ PUSH2 0x1D0C JUMPI JUMPDEST POP POP POP PUSH2 0x1D0A SWAP3 POP SUB DUP4 PUSH2 0x1C97 JUMP JUMPDEST JUMP JUMPDEST PUSH1 0x0 SWAP1 DUP2 MSTORE DUP6 DUP2 KECCAK256 SWAP6 SWAP4 POP SWAP2 SWAP1 JUMPDEST DUP2 DUP4 LT PUSH2 0x1D33 JUMPI POP POP PUSH2 0x1D0A SWAP4 POP DUP3 ADD ADD CODESIZE DUP1 DUP1 PUSH2 0x1CFB JUMP JUMPDEST DUP6 SLOAD DUP9 DUP5 ADD DUP6 ADD MSTORE SWAP5 DUP6 ADD SWAP5 DUP8 SWAP5 POP SWAP2 DUP4 ADD SWAP2 PUSH2 0x1D1A JUMP JUMPDEST SWAP3 POP POP POP PUSH2 0x1D0A SWAP5 SWAP3 POP PUSH1 0xFF NOT AND DUP3 DUP5 ADD MSTORE ISZERO ISZERO PUSH1 0x5 SHL DUP3 ADD ADD CODESIZE DUP1 DUP1 PUSH2 0x1CFB JUMP JUMPDEST PUSH4 0x4E487B71 PUSH1 0xE0 SHL DUP6 MSTORE PUSH1 0x22 PUSH1 0x4 MSTORE PUSH1 0x24 DUP6 REVERT JUMPDEST SWAP2 PUSH1 0x7F AND SWAP2 PUSH2 0x1CD5 JUMP JUMPDEST PUSH1 0x4 SLOAD DUP2 LT ISZERO PUSH2 0x1DAA JUMPI PUSH1 0x4 PUSH1 0x0 MSTORE PUSH1 0x20 PUSH1 0x0 KECCAK256 SWAP1 PUSH1 0x3 SHL ADD SWAP1 PUSH1 0x0 SWAP1 JUMP JUMPDEST PUSH4 0x4E487B71 PUSH1 0xE0 SHL PUSH1 0x0 MSTORE PUSH1 0x32 PUSH1 0x4 MSTORE PUSH1 0x24 PUSH1 0x0 REVERT JUMPDEST PUSH1 0x1 PUSH1 0x1 PUSH1 0x40 SHL SUB DUP2 GT PUSH2 0x11EC JUMPI PUSH1 0x1F ADD PUSH1 0x1F NOT AND PUSH1 0x20 ADD SWAP1 JUMP JUMPDEST PUSH1 0x6 DUP2 LT ISZERO PUSH2 0xAB3 JUMPI PUSH1 0x0 MSTORE PUSH1 0xE PUSH1 0x20 MSTORE PUSH1 0x40 PUSH1 0x0 KECCAK256 SWAP1 JUMP JUMPDEST ISZERO PUSH2 0x1DFB JUMPI JUMP JUMPDEST PUSH1 0x40 MLOAD PUSH3 0x461BCD PUSH1 0xE5 SHL DUP2 MSTORE PUSH1 0x20 PUSH1 0x4 DUP3 ADD MSTORE PUSH1 0x10 PUSH1 0x24 DUP3 ADD MSTORE PUSH16 0x14185D5CD8589B194E881C185D5CD959 PUSH1 0x82 SHL PUSH1 0x44 DUP3 ADD MSTORE PUSH1 0x64 SWAP1 REVERT JUMPDEST PUSH1 0x1 PUSH1 0x1 PUSH1 0xA0 SHL SUB DUP3 DUP2 AND SWAP4 SWAP2 DUP5 ISZERO PUSH2 0x1FF1 JUMPI DUP3 PUSH1 0x0 SWAP6 DUP2 DUP8 MSTORE PUSH32 0x80BB2B638CC20BC4D0A60D66940F3AB4A00C1D7B313497CA82FB0B4AB0079302 SWAP6 DUP7 PUSH1 0x20 MSTORE PUSH1 0x40 DUP6 DUP2 DUP11 KECCAK256 SLOAD AND SWAP8 DUP9 SWAP3 CALLER ISZERO ISZERO DUP1 PUSH2 0x1F46 JUMPI JUMPDEST POP SWAP1 PUSH2 0x1EB9 PUSH32 0xDDF252AD1BE2C89B69C2B068FC378DAA952BA7F163C4A11628F55A4DF523B3EF SWAP4 SWAP3 DUP6 PUSH2 0x1F0A JUMPI PUSH2 0x1BEF JUMP JUMPDEST DUP1 SLOAD PUSH1 0x1 ADD SWAP1 SSTORE DUP6 DUP12 MSTORE PUSH1 0x20 MSTORE DUP1 DUP11 KECCAK256 DUP1 SLOAD PUSH1 0x1 PUSH1 0x1 PUSH1 0xA0 SHL SUB NOT AND DUP6 OR SWAP1 SSTORE MLOAD SWAP9 DUP1 LOG4 AND DUP1 DUP4 SUB PUSH2 0x1EEB JUMPI POP POP POP POP JUMP JUMPDEST PUSH4 0x64283D7B PUSH1 0xE0 SHL DUP5 MSTORE PUSH1 0x4 DUP5 ADD MSTORE PUSH1 0x24 DUP4 ADD MSTORE PUSH1 0x44 DUP3 ADD MSTORE PUSH1 0x64 SWAP2 POP REVERT JUMPDEST DUP8 DUP14 MSTORE PUSH1 0x0 DUP1 MLOAD PUSH1 0x20 PUSH2 0x2350 DUP4 CODECOPY DUP2 MLOAD SWAP2 MSTORE PUSH1 0x20 MSTORE DUP4 DUP14 KECCAK256 DUP1 SLOAD PUSH1 0x1 PUSH1 0x1 PUSH1 0xA0 SHL SUB NOT AND SWAP1 SSTORE PUSH2 0x1F39 DUP7 PUSH2 0x1BEF JUMP JUMPDEST DUP1 SLOAD PUSH1 0x0 NOT ADD SWAP1 SSTORE PUSH2 0x1BEF JUMP JUMPDEST SWAP2 SWAP4 POP SWAP2 SWAP4 SWAP5 POP DUP1 PUSH2 0x1FA2 JUMPI JUMPDEST ISZERO PUSH2 0x1F64 JUMPI SWAP2 DUP8 SWAP2 DUP8 SWAP5 SWAP4 CODESIZE PUSH2 0x1E87 JUMP JUMPDEST DUP3 DUP8 DUP10 PUSH2 0x1F81 JUMPI PUSH1 0x24 SWAP2 MLOAD SWAP1 PUSH4 0x7E273289 PUSH1 0xE0 SHL DUP3 MSTORE PUSH1 0x4 DUP3 ADD MSTORE REVERT JUMPDEST SWAP1 MLOAD PUSH4 0x177E802F PUSH1 0xE0 SHL DUP2 MSTORE SWAP1 DUP2 SWAP1 PUSH2 0x1F9E SWAP1 CALLER PUSH1 0x4 DUP5 ADD PUSH2 0x220C JUMP JUMPDEST SUB SWAP1 REVERT JUMPDEST POP CALLER DUP9 EQ DUP1 ISZERO PUSH2 0x1FD5 JUMPI JUMPDEST DUP1 PUSH2 0x1F53 JUMPI POP DUP7 DUP10 MSTORE PUSH1 0x0 DUP1 MLOAD PUSH1 0x20 PUSH2 0x2350 DUP4 CODECOPY DUP2 MLOAD SWAP2 MSTORE PUSH1 0x20 MSTORE CALLER DUP7 DUP5 DUP12 KECCAK256 SLOAD AND EQ PUSH2 0x1F53 JUMP JUMPDEST POP PUSH2 0x1FDF DUP9 PUSH2 0x1C28 JUMP JUMPDEST CALLER DUP11 MSTORE PUSH1 0x20 MSTORE PUSH1 0xFF DUP4 DUP11 KECCAK256 SLOAD AND PUSH2 0x1FAD JUMP JUMPDEST PUSH1 0x40 MLOAD PUSH4 0x32505749 PUSH1 0xE1 SHL DUP2 MSTORE PUSH1 0x0 PUSH1 0x4 DUP3 ADD MSTORE PUSH1 0x24 SWAP1 REVERT JUMPDEST SWAP2 SWAP1 DUP3 ADD DUP1 SWAP3 GT PUSH2 0x150A JUMPI JUMP JUMPDEST RETURNDATASIZE ISZERO PUSH2 0x2042 JUMPI RETURNDATASIZE SWAP1 PUSH2 0x2028 DUP3 PUSH2 0x1DC0 JUMP JUMPDEST SWAP2 PUSH2 0x2036 PUSH1 0x40 MLOAD SWAP4 DUP5 PUSH2 0x1C97 JUMP JUMPDEST DUP3 MSTORE RETURNDATASIZE PUSH1 0x0 PUSH1 0x20 DUP5 ADD RETURNDATACOPY JUMP JUMPDEST PUSH1 0x60 SWAP1 JUMP JUMPDEST SWAP2 SWAP1 PUSH2 0x2054 DUP3 DUP3 DUP6 PUSH2 0x1E33 JUMP JUMPDEST DUP1 EXTCODESIZE PUSH2 0x2061 JUMPI JUMPDEST POP POP POP POP JUMP JUMPDEST PUSH2 0x20A3 PUSH1 0x1 DUP1 PUSH1 0xA0 SHL SUB DUP1 SWAP3 AND SWAP5 PUSH1 0x40 MLOAD SWAP4 DUP5 SWAP4 PUSH4 0xA85BD01 PUSH1 0xE1 SHL SWAP7 DUP8 DUP7 MSTORE CALLER PUSH1 0x4 DUP8 ADD MSTORE AND PUSH1 0x24 DUP6 ADD MSTORE PUSH1 0x44 DUP5 ADD MSTORE PUSH1 0x80 PUSH1 0x64 DUP5 ADD MSTORE PUSH1 0x84 DUP4 ADD SWAP1 PUSH2 0x1B04 JUMP JUMPDEST SUB SWAP1 PUSH1 0x20 DUP2 PUSH1 0x0 SWAP4 DUP2 DUP6 DUP9 GAS CALL SWAP1 DUP3 SWAP1 DUP3 PUSH2 0x2122 JUMPI JUMPDEST POP POP PUSH2 0x20F1 JUMPI DUP3 PUSH2 0x20C8 PUSH2 0x2017 JUMP JUMPDEST DUP1 MLOAD SWAP2 SWAP1 DUP3 PUSH2 0x20EA JUMPI PUSH1 0x40 MLOAD PUSH4 0x32505749 PUSH1 0xE1 SHL DUP2 MSTORE PUSH1 0x4 DUP2 ADD DUP4 SWAP1 MSTORE PUSH1 0x24 SWAP1 REVERT JUMPDEST SWAP1 POP PUSH1 0x20 ADD REVERT JUMPDEST PUSH1 0x1 PUSH1 0x1 PUSH1 0xE0 SHL SUB NOT AND SUB PUSH2 0x210A JUMPI POP CODESIZE DUP1 DUP1 DUP1 PUSH2 0x205B JUMP JUMPDEST PUSH1 0x24 SWAP1 PUSH1 0x40 MLOAD SWAP1 PUSH4 0x32505749 PUSH1 0xE1 SHL DUP3 MSTORE PUSH1 0x4 DUP3 ADD MSTORE REVERT JUMPDEST SWAP1 SWAP2 SWAP3 POP PUSH1 0x20 DUP2 RETURNDATASIZE PUSH1 0x20 GT PUSH2 0x216A JUMPI JUMPDEST DUP2 PUSH2 0x213F PUSH1 0x20 SWAP4 DUP4 PUSH2 0x1C97 JUMP JUMPDEST DUP2 ADD SUB SLT PUSH2 0x2166 JUMPI MLOAD SWAP1 PUSH1 0x1 PUSH1 0x1 PUSH1 0xE0 SHL SUB NOT DUP3 AND DUP3 SUB PUSH2 0x2163 JUMPI POP SWAP1 CODESIZE DUP1 PUSH2 0x20B9 JUMP JUMPDEST DUP1 REVERT JUMPDEST POP DUP1 REVERT JUMPDEST RETURNDATASIZE SWAP2 POP PUSH2 0x2132 JUMP JUMPDEST PUSH1 0x0 DUP2 DUP2 MSTORE PUSH32 0x80BB2B638CC20BC4D0A60D66940F3AB4A00C1D7B313497CA82FB0B4AB0079302 PUSH1 0x20 MSTORE PUSH1 0x40 SWAP1 KECCAK256 SLOAD PUSH1 0x1 PUSH1 0x1 PUSH1 0xA0 SHL SUB AND SWAP1 DUP2 ISZERO PUSH2 0x21B4 JUMPI POP SWAP1 JUMP JUMPDEST PUSH1 0x24 SWAP1 PUSH1 0x40 MLOAD SWAP1 PUSH4 0x7E273289 PUSH1 0xE0 SHL DUP3 MSTORE PUSH1 0x4 DUP3 ADD MSTORE REVERT JUMPDEST SWAP2 SWAP1 SWAP2 PUSH1 0x40 PUSH4 0xFFFFFFFF DUP2 PUSH1 0x60 DUP5 ADD SWAP6 PUSH2 0xFFFF DUP1 DUP3 MLOAD AND DUP7 MSTORE PUSH1 0x20 DUP3 ADD MLOAD AND PUSH1 0x20 DUP7 ADD MSTORE ADD MLOAD AND SWAP2 ADD MSTORE JUMP JUMPDEST DUP1 MLOAD DUP3 LT ISZERO PUSH2 0x1DAA JUMPI PUSH1 0x20 SWAP2 PUSH1 0x5 SHL ADD ADD SWAP1 JUMP JUMPDEST PUSH1 0x1 PUSH1 0x1 PUSH1 0xA0 SHL SUB SWAP1 SWAP2 AND DUP2 MSTORE PUSH1 0x20 DUP2 ADD SWAP2 SWAP1 SWAP2 MSTORE PUSH1 0x40 ADD SWAP1 JUMP JUMPDEST DUP1 ISZERO PUSH2 0x150A JUMPI PUSH1 0x0 NOT ADD SWAP1 JUMP JUMPDEST PUSH1 0x1 PUSH1 0x1 PUSH1 0x40 SHL SUB DUP2 GT PUSH2 0x11EC JUMPI PUSH1 0x5 SHL PUSH1 0x20 ADD SWAP1 JUMP JUMPDEST SWAP1 PUSH2 0x2255 DUP3 PUSH2 0x2234 JUMP JUMPDEST PUSH2 0x2262 PUSH1 0x40 MLOAD SWAP2 DUP3 PUSH2 0x1C97 JUMP JUMPDEST DUP3 DUP2 MSTORE DUP1 SWAP3 PUSH2 0x2273 PUSH1 0x1F NOT SWAP2 PUSH2 0x2234 JUMP JUMPDEST ADD SWAP1 PUSH1 0x20 CALLDATASIZE SWAP2 ADD CALLDATACOPY JUMP JUMPDEST SWAP1 PUSH1 0xFF DUP1 SWAP2 AND SWAP2 AND ADD SWAP1 PUSH1 0xFF DUP3 GT PUSH2 0x150A JUMPI JUMP JUMPDEST PUSH1 0x6 DUP2 LT ISZERO PUSH2 0xAB3 JUMPI DUP1 ISZERO PUSH2 0x2349 JUMPI PUSH1 0x1 DUP2 EQ PUSH2 0x2339 JUMPI PUSH1 0x2 DUP2 EQ PUSH2 0x232C JUMPI PUSH1 0x3 DUP2 EQ PUSH2 0x231C JUMPI PUSH1 0x4 DUP2 EQ PUSH2 0x230C JUMPI PUSH1 0x5 EQ PUSH2 0x22FD JUMPI PUSH1 0x40 MLOAD PUSH3 0x461BCD PUSH1 0xE5 SHL DUP2 MSTORE PUSH1 0x20 PUSH1 0x4 DUP3 ADD MSTORE PUSH1 0xE PUSH1 0x24 DUP3 ADD MSTORE PUSH14 0x496E76616C696420726172697479 PUSH1 0x90 SHL PUSH1 0x44 DUP3 ADD MSTORE PUSH1 0x64 SWAP1 REVERT JUMPDEST PUSH4 0xFFFFFFFF PUSH1 0x11 SLOAD PUSH1 0x60 SHR AND SWAP1 JUMP JUMPDEST POP PUSH4 0xFFFFFFFF PUSH1 0x11 SLOAD PUSH1 0x40 SHR AND SWAP1 JUMP JUMPDEST POP PUSH4 0xFFFFFFFF PUSH1 0x11 SLOAD PUSH1 0x20 SHR AND SWAP1 JUMP JUMPDEST POP PUSH4 0xFFFFFFFF PUSH1 0x11 SLOAD AND SWAP1 JUMP JUMPDEST POP PUSH4 0xFFFFFFFF PUSH1 0x10 SLOAD PUSH1 0xD0 SHR AND SWAP1 JUMP JUMPDEST POP PUSH1 0x0 SWAP1 JUMP INVALID DUP1 0xBB 0x2B PUSH4 0x8CC20BC4 0xD0 0xA6 0xD PUSH7 0x940F3AB4A00C1D PUSH28 0x313497CA82FB0B4AB0079304A26469706673582212208488AAC9E4C4 MCOPY 0xF7 PUSH27 0xFF224640D0B02B0491AB1FA664B58530BC462D1FC0099964736F6C PUSH4 0x43000819 STOP CALLER "},"methodIdentifiers":{"DRBInitialize(address)":"7807adc8","GEMIndexToOwner(uint256)":"97125c40","Gems(uint256)":"61f7f6d7","aliveImplementation(address)":"550d01a3","approve(address,uint256)":"095ea7b3","balanceOf(address)":"70a08231","callbackGasLimit()":"24f74697","cancelMining(uint256)":"ad6caa47","colorName(uint8,uint8)":"5f2d0023","colors(uint256,uint256)":"f317d7dd","colorsCount()":"356edf74","getApproved(uint256)":"081812fc","isApprovedForAll(address,address)":"e985e9c5","name()":"06fdde03","numberMiningGemsByRarity(uint8)":"ea094c39","ownerOf(uint256)":"6352211e","ownershipTokenCount(address)":"cec21acb","pauseProxy()":"63a8fd89","paused()":"5c975abb","pickMinedGEM(uint256)":"274f2455","proxyImplementation(uint256)":"b911135f","rawFulfillRandomWords(uint256,uint256)":"37ed11db","s_requests(uint256)":"a168fa89","safeTransferFrom(address,address,uint256)":"42842e0e","safeTransferFrom(address,address,uint256,bytes)":"b88d4fde","selectorImplementation(bytes4)":"50d2a276","setApprovalForAll(address,bool)":"a22cb465","startMiningGEM(uint256)":"1da0fc9c","supportsInterface(bytes4)":"01ffc9a7","symbol()":"95d89b41","tokenMiningByUser(address)":"c1389072","tokenReadyToMine(uint256)":"7866369b","tokenURI(uint256)":"c87b56dd","transferFrom(address,address,uint256)":"23b872dd","userMiningStartTime(address,uint256)":"676f79f1","userMiningToken(address,uint256)":"a1770a7d"}}}}}