{"src/L2/RandomPackThanos.sol":{"RandomPackThanos":{"abi":[{"inputs":[],"name":"AccessControlBadConfirmation","type":"error"},{"inputs":[{"internalType":"address","name":"account","type":"address"},{"internalType":"bytes32","name":"neededRole","type":"bytes32"}],"name":"AccessControlUnauthorizedAccount","type":"error"},{"inputs":[],"name":"AlreadyInitialized","type":"error"},{"inputs":[],"name":"FailedToPayFees","type":"error"},{"inputs":[],"name":"FailedToSendEthBack","type":"error"},{"inputs":[],"name":"FailedToSendFeesToTreasury","type":"error"},{"inputs":[],"name":"InvalidAddress","type":"error"},{"inputs":[{"internalType":"address","name":"have","type":"address"},{"internalType":"address","name":"want","type":"address"}],"name":"OnlyCoordinatorCanFulfill","type":"error"},{"inputs":[],"name":"RandomPackFeesEqualToZero","type":"error"},{"inputs":[],"name":"ReentrancyGuardReentrantCall","type":"error"},{"inputs":[],"name":"RequestNotMade","type":"error"},{"inputs":[],"name":"SameAdmin","type":"error"},{"inputs":[],"name":"SameOwner","type":"error"},{"inputs":[],"name":"ZeroAddress","type":"error"},{"inputs":[],"name":"invalidProbabilities","type":"error"},{"anonymous":false,"inputs":[{"indexed":false,"internalType":"uint256","name":"_callbackGasLimit","type":"uint256"}],"name":"CallBackGasLimitUpdated","type":"event"},{"anonymous":false,"inputs":[],"name":"CommonGemMinted","type":"event"},{"anonymous":false,"inputs":[],"name":"CommonGemToBeMinted","type":"event"},{"anonymous":false,"inputs":[{"indexed":false,"internalType":"uint256","name":"amount","type":"uint256"}],"name":"EthSentBack","type":"event"},{"anonymous":false,"inputs":[{"indexed":false,"internalType":"address","name":"gemFactory","type":"address"}],"name":"GemFactoryAddressUpdated","type":"event"},{"anonymous":false,"inputs":[{"indexed":false,"internalType":"string","name":"_tokenURI","type":"string"}],"name":"PerfectCommonGemURIUpdated","type":"event"},{"anonymous":false,"inputs":[{"indexed":false,"internalType":"address","name":"requestor","type":"address"},{"indexed":false,"internalType":"uint256","name":"requestId","type":"uint256"}],"name":"RandomGemRequested","type":"event"},{"anonymous":false,"inputs":[{"indexed":false,"internalType":"uint256","name":"tokenId","type":"uint256"},{"indexed":false,"internalType":"address","name":"newOwner","type":"address"}],"name":"RandomGemToBeTransferred","type":"event"},{"anonymous":false,"inputs":[{"indexed":false,"internalType":"uint256","name":"tokenId","type":"uint256"},{"indexed":false,"internalType":"address","name":"newOwner","type":"address"}],"name":"RandomGemTransferred","type":"event"},{"anonymous":false,"inputs":[{"indexed":false,"internalType":"uint256","name":"randomPackFees","type":"uint256"}],"name":"RandomPackFeesUpdated","type":"event"},{"anonymous":false,"inputs":[{"indexed":true,"internalType":"bytes32","name":"role","type":"bytes32"},{"indexed":true,"internalType":"bytes32","name":"previousAdminRole","type":"bytes32"},{"indexed":true,"internalType":"bytes32","name":"newAdminRole","type":"bytes32"}],"name":"RoleAdminChanged","type":"event"},{"anonymous":false,"inputs":[{"indexed":true,"internalType":"bytes32","name":"role","type":"bytes32"},{"indexed":true,"internalType":"address","name":"account","type":"address"},{"indexed":true,"internalType":"address","name":"sender","type":"address"}],"name":"RoleGranted","type":"event"},{"anonymous":false,"inputs":[{"indexed":true,"internalType":"bytes32","name":"role","type":"bytes32"},{"indexed":true,"internalType":"address","name":"account","type":"address"},{"indexed":true,"internalType":"address","name":"sender","type":"address"}],"name":"RoleRevoked","type":"event"},{"anonymous":false,"inputs":[{"indexed":false,"internalType":"address","name":"treasury","type":"address"}],"name":"TreasuryAddressUpdated","type":"event"},{"inputs":[],"name":"ADMIN_ROLE","outputs":[{"internalType":"bytes32","name":"","type":"bytes32"}],"stateMutability":"view","type":"function"},{"inputs":[],"name":"DEFAULT_ADMIN_ROLE","outputs":[{"internalType":"bytes32","name":"","type":"bytes32"}],"stateMutability":"view","type":"function"},{"inputs":[],"name":"DIVIDER","outputs":[{"internalType":"uint8","name":"","type":"uint8"}],"stateMutability":"view","type":"function"},{"inputs":[],"name":"PAUSE_ROLE","outputs":[{"internalType":"bytes32","name":"","type":"bytes32"}],"stateMutability":"view","type":"function"},{"inputs":[{"internalType":"address","name":"account","type":"address"}],"name":"addAdmin","outputs":[],"stateMutability":"nonpayable","type":"function"},{"inputs":[{"internalType":"address","name":"account","type":"address"}],"name":"addPauser","outputs":[],"stateMutability":"nonpayable","type":"function"},{"inputs":[{"internalType":"address","name":"","type":"address"}],"name":"aliveImplementation","outputs":[{"internalType":"bool","name":"","type":"bool"}],"stateMutability":"view","type":"function"},{"inputs":[],"name":"getCallbackGasLimit","outputs":[{"internalType":"uint32","name":"","type":"uint32"}],"stateMutability":"view","type":"function"},{"inputs":[],"name":"getGemFactoryAddress","outputs":[{"internalType":"address","name":"","type":"address"}],"stateMutability":"view","type":"function"},{"inputs":[],"name":"getPaused","outputs":[{"internalType":"bool","name":"","type":"bool"}],"stateMutability":"view","type":"function"},{"inputs":[],"name":"getPerfectCommonGemURI","outputs":[{"internalType":"string","name":"","type":"string"}],"stateMutability":"view","type":"function"},{"inputs":[],"name":"getRandomPackFees","outputs":[{"internalType":"uint256","name":"","type":"uint256"}],"stateMutability":"view","type":"function"},{"inputs":[],"name":"getRequestCount","outputs":[{"internalType":"uint256","name":"","type":"uint256"}],"stateMutability":"view","type":"function"},{"inputs":[{"internalType":"bytes32","name":"role","type":"bytes32"}],"name":"getRoleAdmin","outputs":[{"internalType":"bytes32","name":"","type":"bytes32"}],"stateMutability":"view","type":"function"},{"inputs":[],"name":"getTreasuryAddress","outputs":[{"internalType":"address","name":"","type":"address"}],"stateMutability":"view","type":"function"},{"inputs":[{"internalType":"bytes32","name":"role","type":"bytes32"},{"internalType":"address","name":"account","type":"address"}],"name":"grantRole","outputs":[],"stateMutability":"nonpayable","type":"function"},{"inputs":[{"internalType":"bytes32","name":"role","type":"bytes32"},{"internalType":"address","name":"account","type":"address"}],"name":"hasRole","outputs":[{"internalType":"bool","name":"","type":"bool"}],"stateMutability":"view","type":"function"},{"inputs":[{"internalType":"address","name":"_coordinator","type":"address"},{"internalType":"address","name":"_gemFactory","type":"address"},{"internalType":"address","name":"_treasury","type":"address"},{"internalType":"uint256","name":"_randomPackFees","type":"uint256"}],"name":"initialize","outputs":[],"stateMutability":"nonpayable","type":"function"},{"inputs":[{"internalType":"address","name":"account","type":"address"}],"name":"isAdmin","outputs":[{"internalType":"bool","name":"","type":"bool"}],"stateMutability":"view","type":"function"},{"inputs":[],"name":"isOwner","outputs":[{"internalType":"bool","name":"","type":"bool"}],"stateMutability":"view","type":"function"},{"inputs":[{"internalType":"address","name":"account","type":"address"}],"name":"isPauser","outputs":[{"internalType":"bool","name":"","type":"bool"}],"stateMutability":"view","type":"function"},{"inputs":[{"internalType":"address","name":"","type":"address"},{"internalType":"address","name":"","type":"address"},{"internalType":"uint256","name":"","type":"uint256"},{"internalType":"bytes","name":"","type":"bytes"}],"name":"onERC721Received","outputs":[{"internalType":"bytes4","name":"","type":"bytes4"}],"stateMutability":"pure","type":"function"},{"inputs":[],"name":"pause","outputs":[],"stateMutability":"nonpayable","type":"function"},{"inputs":[],"name":"pauseProxy","outputs":[{"internalType":"bool","name":"","type":"bool"}],"stateMutability":"view","type":"function"},{"inputs":[{"internalType":"uint256","name":"","type":"uint256"}],"name":"proxyImplementation","outputs":[{"internalType":"address","name":"","type":"address"}],"stateMutability":"view","type":"function"},{"inputs":[{"internalType":"uint256","name":"requestId","type":"uint256"},{"internalType":"uint256","name":"randomWord","type":"uint256"}],"name":"rawFulfillRandomWords","outputs":[],"stateMutability":"nonpayable","type":"function"},{"inputs":[],"name":"removeAdmin","outputs":[],"stateMutability":"nonpayable","type":"function"},{"inputs":[{"internalType":"address","name":"account","type":"address"}],"name":"removePauser","outputs":[],"stateMutability":"nonpayable","type":"function"},{"inputs":[{"internalType":"bytes32","name":"role","type":"bytes32"},{"internalType":"address","name":"callerConfirmation","type":"address"}],"name":"renounceRole","outputs":[],"stateMutability":"nonpayable","type":"function"},{"inputs":[],"name":"requestRandomGem","outputs":[{"internalType":"uint256","name":"","type":"uint256"}],"stateMutability":"payable","type":"function"},{"inputs":[{"internalType":"bytes32","name":"role","type":"bytes32"},{"internalType":"address","name":"account","type":"address"}],"name":"revokeRole","outputs":[],"stateMutability":"nonpayable","type":"function"},{"inputs":[{"internalType":"uint256","name":"","type":"uint256"}],"name":"s_requests","outputs":[{"internalType":"uint256","name":"randomWord","type":"uint256"},{"internalType":"uint256","name":"chosenTokenId","type":"uint256"},{"internalType":"address","name":"requester","type":"address"},{"internalType":"bool","name":"requested","type":"bool"},{"internalType":"bool","name":"fulfilled","type":"bool"}],"stateMutability":"view","type":"function"},{"inputs":[{"internalType":"bytes4","name":"","type":"bytes4"}],"name":"selectorImplementation","outputs":[{"internalType":"address","name":"","type":"address"}],"stateMutability":"view","type":"function"},{"inputs":[{"internalType":"uint32","name":"_callbackGasLimit","type":"uint32"}],"name":"setCallbackGasLimit","outputs":[],"stateMutability":"nonpayable","type":"function"},{"inputs":[{"internalType":"address","name":"_gemFactory","type":"address"}],"name":"setGemFactory","outputs":[],"stateMutability":"nonpayable","type":"function"},{"inputs":[{"internalType":"string","name":"_tokenURI","type":"string"}],"name":"setPerfectCommonGemURI","outputs":[],"stateMutability":"nonpayable","type":"function"},{"inputs":[{"internalType":"uint8","name":"_commonProb","type":"uint8"},{"internalType":"uint8","name":"_rareProb","type":"uint8"},{"internalType":"uint8","name":"_uniqueProb","type":"uint8"},{"internalType":"uint8","name":"_epicProb","type":"uint8"},{"internalType":"uint8","name":"_legendaryProb","type":"uint8"},{"internalType":"uint8","name":"_mythicProb","type":"uint8"}],"name":"setProbabilities","outputs":[],"stateMutability":"nonpayable","type":"function"},{"inputs":[{"internalType":"uint256","name":"_randomPackFees","type":"uint256"}],"name":"setRandomPackFees","outputs":[],"stateMutability":"nonpayable","type":"function"},{"inputs":[{"internalType":"address","name":"_treasury","type":"address"}],"name":"setTreasury","outputs":[],"stateMutability":"nonpayable","type":"function"},{"inputs":[{"internalType":"bytes4","name":"interfaceId","type":"bytes4"}],"name":"supportsInterface","outputs":[{"internalType":"bool","name":"","type":"bool"}],"stateMutability":"view","type":"function"},{"inputs":[{"internalType":"address","name":"newOwner","type":"address"}],"name":"transferOwnership","outputs":[],"stateMutability":"nonpayable","type":"function"},{"inputs":[],"name":"unpause","outputs":[],"stateMutability":"nonpayable","type":"function"},{"stateMutability":"payable","type":"receive"}],"evm":{"bytecode":{"linkReferences":{},"object":"60808060405234602657600160045562ffffff19600e5416600e556123a3908161002c8239f35b600080fdfe608060408181526004918236101561004f575b50361561001e57600080fd5b600080808060018060a01b036009541634905af161003a6116ec565b501561004257005b516305c7acc960e01b8152fd5b600090813560e01c90816301ffc9a7146114b657508063150b7a021461144d57806315c0161614611399578063184fa84f1461137a578063248a9ca31461134f57806324d7806c146112fb57806325b5b3b2146112935780632f2ff15d1461126957806336568abe1461122357806337ed11db146111ce578063389ed267146111a55780633be7bcbf1461100f5780633db8df9814610d625780633f4ba83a14610cf25780633fad183414610cd357806346fbf68e14610c7f57806350d2a27614610c3b578063550d01a314610bfd57806362043bd814610be157806363a8fd8914610bbf5780636805b84b14610b9b5780636b2c0f5514610ac95780636ecd19cb146108e8578063704802751461089957806375b238fc1461087057806382dc1ec41461081c5780638456cb59146107e05780638f32d59b146107ba57806391d14854146107735780639a202d47146106dc5780639d541be2146106b3578063a168fa8914610653578063a217fddf14610638578063a4eb718c146105bb578063b911135f14610588578063cf756fdf14610473578063d547741f14610437578063de8be8e71461040f578063e0024604146103e2578063e61475181461036b578063f0f44260146102e65763f2fde38b03610012579190346102e25760203660031901126102e25761024161150a565b9161025261024d61175b565b61162b565b6001600160a01b03831680156102d35733146102c55750906102b260016102b793858052600560205261028982828820015461177e565b610292846118db565b5060008051602061230e833981519152865260056020528520015461177e565b6117c2565b506102c133611ac1565b5080f35b9051630a98f1f360e21b8152fd5b50905163d92e233d60e01b8152fd5b8280fd5b509190346102e25760203660031901126102e25761030261150a565b61030d61024d61175b565b6001600160a01b031691821561035d5750600980546001600160a01b03191683179055519081527fb6a5e89655cf506139085f051af608195ed056f8dc550b180a1c38d401e2b6c490602090a180f35b905163e6c4247b60e01b8152fd5b509190346102e25760203660031901126102e25761038761150a565b61039261024d61175b565b6001600160a01b031691821561035d5750600880546001600160a01b03191683179055519081527fed7acc23c47775012c7b3a370974b91aefab1849cacf173b5ea54273abb4815690602090a180f35b50903461040b578160031936011261040b5760095490516001600160a01b039091168152602090f35b5080fd5b50903461040b578160031936011261040b5760209063ffffffff600e5460181c169051908152f35b509190346102e257806003193601126102e2576102c1913561046e600161045c611525565b9383875260056020528620015461177e565b611b28565b509190346102e25760803660031901126102e25761048f61150a565b90610498611525565b6001600160a01b03604435818116959193908690036105845760ff600e5460081c166105785750506104c9336118db565b508160018060a01b03199316836006541617600655168160085416176008556009541617600955606435600c5565200b2000000066ffffffff00000019600e541617600e55610519600d546115f1565b601f811161053a575b506000600d5561010061ff0019600e541617600e5580f35b600d825261057290601f0160051c7fd7b6990105719101dabeb77144f2a3385c8033acd3af97e9423a695e81ad1eb590810190611744565b38610522565b5162dc149f60e41b8152fd5b8680fd5b5091346102e25760203660031901126102e25735825260016020908152918190205490516001600160a01b039091168152f35b5091346102e25760203660031901126102e2573563ffffffff8116808203610634577fe26fa4acf522c01381834acc8213105df00a52674031c6311f5dc24bd608819f9260209261060d61024d61175b565b66ffffffff000000600e549160181b169066ffffffff000000191617600e5551908152a180f35b8380fd5b50903461040b578160031936011261040b5751908152602090f35b5091346102e25760203660031901126102e2578160a09360ff92358152600760205220805492600260018301549201549181519485526020850152600180861b038216908401528181851c161515606084015260a81c1615156080820152f35b50903461040b578160031936011261040b5760085490516001600160a01b039091168152602090f35b509190346102e257826003193601126102e25760008051602061230e8339815191528352600560205280832033845260205260ff81842054161561072457826102c133611a39565b906020608492519162461bcd60e51b8352820152602360248201527f41757468436f6e74726f6c3a2043616c6c6572206973206e6f7420616e20616460448201526236b4b760e91b6064820152fd5b5091346102e257816003193601126102e2578160209360ff92610794611525565b90358252600586528282206001600160a01b039091168252855220549151911615158152f35b50903461040b578160031936011261040b576020906107d761175b565b90519015158152f35b50346108195780600319360112610819576107fc61024d61175b565b6001600e5461080e60ff8216156116ad565b60ff191617600e5580f35b80fd5b50903461040b57602036600319011261040b576102c19061086b600161084061150a565b9261084c61024d61175b565b6000805160206122ee833981519152865260056020528520015461177e565b611851565b50903461040b578160031936011261040b576020905160008051602061230e8339815191528152f35b50903461040b57602036600319011261040b576102c1906102b260016108bd61150a565b926108c961024d61175b565b60008051602061230e833981519152865260056020528520015461177e565b50823461040b57602090816003193601126102e2578035916001600160401b0391828411610ac55736602385011215610ac55783810135610928816115d6565b94610935885196876115b5565b8186523660248383010111610584578187926024869301838901378601015261095f61024d61175b565b8351928311610ab25750610974600d546115f1565b601f8111610a78575b5080601f83116001146109ec575093816109db939285967f5c9db415e672f6d0f9a26180f0ff083c406f4c7aa95aec2c0e9536794035a4d896916109e1575b508160011b916000199060031b1c191617600d555b519182918261153b565b0390a180f35b9050830151876109bc565b90601f198316600d86528286209286905b828210610a60575050927f5c9db415e672f6d0f9a26180f0ff083c406f4c7aa95aec2c0e9536794035a4d8959692600192826109db979610610a47575b5050811b01600d556109d1565b85015160001960f88460031b161c191690558780610a3a565b80600185968294968a015181550195019301906109fd565b610aa290600d8652828620601f850160051c810191848610610aa8575b601f0160051c0190611744565b8561097d565b9091508190610a95565b634e487b7160e01b855260419052602484fd5b8480fd5b5091346102e25760203660031901126102e257610ae461150a565b916000805160206122ee8339815191528452600560205280842033855260205260ff81852054168015610b8d575b15610b3e57336001600160a01b03841603610b3157836102c1846119b1565b5163334bd91960e11b8152fd5b906020608492519162461bcd60e51b8352820152602360248201527f41757468436f6e74726f6c3a2043616c6c6572206973206e6f7420612070617560448201526239b2b960e91b6064820152fd5b50610b9661175b565b610b12565b50903461040b578160031936011261040b5760209060ff600e541690519015158152f35b50903461040b578160031936011261040b5760ff602092541690519015158152f35b50903461040b578160031936011261040b576020905160648152f35b50903461040b57602036600319011261040b5760209160ff9082906001600160a01b03610c2861150a565b1681526002855220541690519015158152f35b5091346102e25760203660031901126102e2573563ffffffff60e01b81168091036102e257825260036020908152918190205490516001600160a01b039091168152f35b50903461040b57602036600319011261040b5760ff81602093610ca061150a565b6000805160206122ee8339815191528252600586528282206001600160a01b039091168252855220549151911615158152f35b50903461040b578160031936011261040b57602090600b549051908152f35b5091346102e257826003193601126102e257610d0f61024d61175b565b600e549160ff831615610d2857505060ff1916600e5580f35b906020606492519162461bcd60e51b8352820152601460248201527314185d5cd8589b194e881b9bdd081c185d5cd95960621b6044820152fd5b5091826003193601126102e257600e54610d7f60ff8216156116ad565b6002825414611000576002825560101c60ff1615610ff257331561035d5782808080600c54305af1610daf6116ec565b5015610fe457600e54600654835194610e0b94939290916001600160a01b03169060181c63ffffffff16610de287611584565b8287526020878482809a0152828782015286518098819263a6c278f360e01b8352888301611d99565b0381855afa958615610fda57908792918497610fa7575b50869291610e5c91875190610e3682611584565b86825286858301528882015287519889809481936309160b1560e11b83528a8301611d99565b03925af1948515610f9d578295610f6e575b508482526007865283822060020180546001600160a81b0319163317600160a01b179055600b80546001019055600c5490808201808211610f5b573411610eef575b5050506001907fc2b05df6babf2be3ce649000124d86f0e7de5e71f99b8edb50dfb2f20a7569ae835180610ee5873383611729565b0390a15551908152f35b90610efd610f02923461171c565b61171c565b9080808084335af1610f126116ec565b5015610f4c57907f27468d49151596d3863ccb02e3911b3146a62533facd0765451ba556bb4fd9c8856001938551908152a1903880610eb0565b509051631e53f7e560e11b8152fd5b634e487b7160e01b845260118552602484fd5b9094508581813d8311610f96575b610f8681836115b5565b8101031261040b57519338610e6e565b503d610f7c565b84513d84823e3d90fd5b9196509181813d8111610fd3575b610fbf81836115b5565b810103126102e25751948691610e5c610e22565b503d610fb5565b85513d85823e3d90fd5b90516315c6fba760e01b8152fd5b9051630d6a7ef360e41b8152fd5b509051633ee5aeb560e01b8152fd5b509190346102e25760c03660031901126102e25781359060ff808316938484036111a1576024358281169283820361119d5760443593818516918286036111995760643593818516948581036111955760843590838216988983036111915760a435938585169c8d860361118d578e61108961024d61175b565b1580611185575b8061117d575b80611175575b8061116d575b80611165575b6111555760649695936110c96110c9946110c96110ce98956110c995611683565b611683565b160361114557888052600f60205285892060ff19988982541617905560018952858920908882541617905560028852848820908782541617905560038752838720908682541617905585528185209084825416179055600584528320918254161790556201000062ff000019600e541617600e5580f35b8551630d6a7ef360e41b81528490fd5b8c51630d6a7ef360e41b81528b90fd5b508d156110a8565b508b156110a2565b50891561109c565b508815611096565b508715611090565b8f80fd5b8d80fd5b8b80fd5b8980fd5b8780fd5b8580fd5b50903461040b578160031936011261040b57602090516000805160206122ee8339815191528152f35b509190346102e257806003193601126102e2576006546001600160a01b0316903382900361120757836112046024358535611bc5565b80f35b60449350519163073e64fd60e21b835233908301526024820152fd5b50903461040b578060031936011261040b5761123d611525565b90336001600160a01b0383160361125a57506102c1919235611b28565b5163334bd91960e11b81528390fd5b509190346102e257806003193601126102e2576102c1913561128e600161045c611525565b611948565b509190346102e25760203660031901126102e2578135916112b561024d61175b565b82156112ed5750816020917fa9ba7fa833bd01c7d078c99360f9c0764c1de898c3300802f43fd0ec1dee717c93600c5551908152a180f35b905163173ecfb760e31b8152fd5b50903461040b57602036600319011261040b5760ff8160209361131c61150a565b60008051602061230e8339815191528252600586528282206001600160a01b039091168252855220549151911615158152f35b5091346102e25760203660031901126102e25781602093600192358152600585522001549051908152f35b50903461040b578160031936011261040b57602090600c549051908152f35b50903461040b578160031936011261040b5780519082600d546113bb816115f1565b9081855260209260019160018116908160001461142b57506001146113f0575b6113ec86866109d1828b03836115b5565b0390f35b929550600d83528583205b82841061141857505050826113ec946109d19282010194866113db565b80548685018801529286019281016113fb565b60ff191687860152505050151560051b83010192506109d1826113ec866113db565b5091346102e25760803660031901126102e25761146861150a565b50611471611525565b50606435906001600160401b0390818311610ac55736602384011215610ac557820135908111610634573691016024011161040b5751630a85bd0160e11b8152602090f35b905083346102e25760203660031901126102e2573563ffffffff60e01b81168091036102e25760209250637965db0b60e01b81149081156114f9575b5015158152f35b6301ffc9a760e01b149050836114f2565b600435906001600160a01b038216820361152057565b600080fd5b602435906001600160a01b038216820361152057565b6020808252825181830181905290939260005b82811061157057505060409293506000838284010152601f8019910116010190565b81810186015184820160400152850161154e565b606081019081106001600160401b0382111761159f57604052565b634e487b7160e01b600052604160045260246000fd5b90601f801991011681019081106001600160401b0382111761159f57604052565b6001600160401b03811161159f57601f01601f191660200190565b90600182811c92168015611621575b602083101461160b57565b634e487b7160e01b600052602260045260246000fd5b91607f1691611600565b1561163257565b60405162461bcd60e51b8152602060048201526024808201527f41757468436f6e74726f6c3a2043616c6c6572206973206e6f7420746865206f6044820152633bb732b960e11b6064820152608490fd5b9060ff8091169116019060ff821161169757565b634e487b7160e01b600052601160045260246000fd5b156116b457565b60405162461bcd60e51b815260206004820152601060248201526f14185d5cd8589b194e881c185d5cd95960821b6044820152606490fd5b3d15611717573d906116fd826115d6565b9161170b60405193846115b5565b82523d6000602084013e565b606090565b9190820391821161169757565b6001600160a01b039091168152602081019190915260400190565b81811061174f575050565b60008155600101611744565b33600090815260008051602061234e833981519152602052604090205460ff1690565b80600052600560205260406000203360005260205260ff60406000205416156117a45750565b6044906040519063e2517d3f60e01b82523360048301526024820152fd5b6001600160a01b031660008181527f09f04f5809d5be59813a33617d16f069caae874a6b34f03139f63d934daddae6602052604081205490919060008051602061230e8339815191529060ff1661184c5780835260056020526040832082845260205260408320600160ff198254161790556000805160206122ce833981519152339380a4600190565b505090565b6001600160a01b031660008181527f787f97f3270d439d97068e73d6d75a066b24f84c342661f177d4e43e00e9f51360205260408120549091906000805160206122ee8339815191529060ff1661184c5780835260056020526040832082845260205260408320600160ff198254161790556000805160206122ce833981519152339380a4600190565b6001600160a01b0316600081815260008051602061234e833981519152602052604081205490919060ff166119445781805260056020526040822081835260205260408220600160ff1982541617905533916000805160206122ce8339815191528180a4600190565b5090565b906000918083526005602052604083209160018060a01b03169182845260205260ff6040842054161560001461184c5780835260056020526040832082845260205260408320600160ff198254161790556000805160206122ce833981519152339380a4600190565b6001600160a01b031660008181527f787f97f3270d439d97068e73d6d75a066b24f84c342661f177d4e43e00e9f51360205260408120549091906000805160206122ee8339815191529060ff161561184c578083526005602052604083208284526020526040832060ff19815416905560008051602061232e833981519152339380a4600190565b6001600160a01b031660008181527f09f04f5809d5be59813a33617d16f069caae874a6b34f03139f63d934daddae6602052604081205490919060008051602061230e8339815191529060ff161561184c578083526005602052604083208284526020526040832060ff19815416905560008051602061232e833981519152339380a4600190565b6001600160a01b0316600081815260008051602061234e833981519152602052604081205490919060ff1615611944578180526005602052604082208183526020526040822060ff198154169055339160008051602061232e8339815191528180a4600190565b906000918083526005602052604083209160018060a01b03169182845260205260ff60408420541660001461184c578083526005602052604083208284526020526040832060ff19815416905560008051602061232e833981519152339380a4600190565b90816020910312611520575180151581036115205790565b8115611baf570690565b634e487b7160e01b600052601260045260246000fd5b91906000918383526020916007835260408085209360ff9687600287015460a01c1615611d885786526007815281862060028101805460ff60a81b1916600160a81b1790558390556008548251639aa19da760e01b81526004969183908290899082906001600160a01b03165afa908115611d7e578891611d51575b5015611d4057606484959406936005905b898216928315611d1a576000198401938411978a97888a5b611ca5578d908d828c16898111611cb8578b828592611c92959452600f8d5220541690611683565b99168d8114611ca557600101988a611c6a565b634e487b7160e01b8d5260118c5260248dfd5b5050919a5093949295508391985016881015611cf6575b168015611ce3579495946000190190611c52565b634e487b7160e01b895260118852602489fd5b9050611d038682856121c0565b611d0e578990611ccf565b50975050505050505050565b985098505050505050611d2e915082611fca565b611d3d57611d3b90611dc5565b565b50565b94505050509250611d3b9150611dc5565b611d719150833d8511611d77575b611d6981836115b5565b810190611b8d565b38611c41565b503d611d5f565b84513d8a823e3d90fd5b82516392b8197960e01b8152600490fd5b919091604063ffffffff81606084019561ffff8082511686526020820151166020860152015116910152565b600954604080519093926001600160a01b0392831691906001600160401b03908287018281118482101761159f5787526000948584526020948686860152885193608085019085821090821117611fb65793869195948a52876001968783528784840152878c8401528760608401528b5196879363912b431b60e01b8552600491846004870152602486018b86915b60028310611f8f575050505060648501908a85925b848410611f6f57505050505061012491839161010060e4840152816101048401525af1928315611f655790859392918793611f30575b5082611ecf95830155600281600954169201541686895180968195829463048dbcef60e41b845260048401611729565b03925af1948515611f2757507fdd20b2dff2d53ef41435ad0074aea6e1ce693777fcc9ea8e76c76a8f3607dd219394611f09575b505080a1565b81611f1f92903d10611d7757611d6981836115b5565b503880611f03565b513d84823e3d90fd5b848193959294503d8311611f5e575b611f4981836115b5565b810103126111a1575184929091611ecf611e9f565b503d611f3f565b88513d88823e3d90fd5b825160ff1681528d988c98508f97509390910192918201918c9101611e69565b90939650889295989194975060ff86511681520193019101928894918c948b8d9895611e54565b634e487b7160e01b88526041600452602488fd5b91906000928380526020600f815260409260ff8487205416611fed575b50505050565b60085484516394ca644960e01b8152600481018890526001600160a01b03929188908290602490829087165afa9182156120ee578891899361210c575b508161203857505050611fe7565b9061204291611ba5565b81518110156120f85790839160051b01015161208a83600186019280845560028560095416970196858854168b8a5180968195829463048dbcef60e41b845260048401611729565b03925af180156120ee577f5ea50d72ed96185eb6f31884978fae6836ea30ba583e3fb7c32b66135514723c9798506120d1575b5054925416908351928352820152a1600190565b6120e790843d8611611d7757611d6981836115b5565b50386120bd565b86513d8a823e3d90fd5b634e487b7160e01b88526032600452602488fd5b915091503d8089833e61211f81836115b5565b810186828203126121bc57815190858301516001600160401b0393848211611195570181601f820112156121b85780519384116121a4578360051b9089519461216a898401876115b5565b855287808601928201019283116111955787809101915b838310612194575050505090913861202a565b8251815291810191889101612181565b634e487b7160e01b8b52604160045260248bfd5b8a80fd5b8880fd5b92919060ff1692600093808552602090600f825260409360ff85882054166121ea575b5050505050565b60085485516394ca644960e01b815260048101939093526001600160a01b03929088908290602490829087165afa9182156120ee5788918993612235575b50816120385750506121e3565b915091503d8089833e61224881836115b5565b810186828203126121bc57815190858301516001600160401b0393848211611195570181601f820112156121b85780519384116121a4578360051b90895194612293898401876115b5565b855287808601928201019283116111955787809101915b8383106122bd5750505050909138612228565b82518152918101918891016122aa56fe2f8788117e7eff1d82e926ec794901d17c78024a50270940304540a733656f0dfcb9fcbfa83b897fb2d5cf4b58962164105c1e71489a37ef3ae0db3fdce576f6df8b4c520ffe197c5343c6f5aec59570151ef9a492f2c624fd45ddde6135ec42f6391f5c32d9c69d2a47ea670b442974b53935d1edc7fd64eb21e047a839171b05b8ccbb9d4d8fb16ea74ce3c29a41f1b461fbdaff4714a0d9a8eb05499746bca2646970667358221220aba38ebaa495c8a81577dd56e4192245bfc98744c9605320157785c67b924f1a64736f6c63430008190033","opcodes":"PUSH1 0x80 DUP1 PUSH1 0x40 MSTORE CALLVALUE PUSH1 0x26 JUMPI PUSH1 0x1 PUSH1 0x4 SSTORE PUSH3 0xFFFFFF NOT PUSH1 0xE SLOAD AND PUSH1 0xE SSTORE PUSH2 0x23A3 SWAP1 DUP2 PUSH2 0x2C DUP3 CODECOPY RETURN JUMPDEST PUSH1 0x0 DUP1 REVERT INVALID PUSH1 0x80 PUSH1 0x40 DUP2 DUP2 MSTORE PUSH1 0x4 SWAP2 DUP3 CALLDATASIZE LT ISZERO PUSH2 0x4F JUMPI JUMPDEST POP CALLDATASIZE ISZERO PUSH2 0x1E JUMPI PUSH1 0x0 DUP1 REVERT JUMPDEST PUSH1 0x0 DUP1 DUP1 DUP1 PUSH1 0x1 DUP1 PUSH1 0xA0 SHL SUB PUSH1 0x9 SLOAD AND CALLVALUE SWAP1 GAS CALL PUSH2 0x3A PUSH2 0x16EC JUMP JUMPDEST POP ISZERO PUSH2 0x42 JUMPI STOP JUMPDEST MLOAD PUSH4 0x5C7ACC9 PUSH1 0xE0 SHL DUP2 MSTORE REVERT JUMPDEST PUSH1 0x0 SWAP1 DUP2 CALLDATALOAD PUSH1 0xE0 SHR SWAP1 DUP2 PUSH4 0x1FFC9A7 EQ PUSH2 0x14B6 JUMPI POP DUP1 PUSH4 0x150B7A02 EQ PUSH2 0x144D JUMPI DUP1 PUSH4 0x15C01616 EQ PUSH2 0x1399 JUMPI DUP1 PUSH4 0x184FA84F EQ PUSH2 0x137A JUMPI DUP1 PUSH4 0x248A9CA3 EQ PUSH2 0x134F JUMPI DUP1 PUSH4 0x24D7806C EQ PUSH2 0x12FB JUMPI DUP1 PUSH4 0x25B5B3B2 EQ PUSH2 0x1293 JUMPI DUP1 PUSH4 0x2F2FF15D EQ PUSH2 0x1269 JUMPI DUP1 PUSH4 0x36568ABE EQ PUSH2 0x1223 JUMPI DUP1 PUSH4 0x37ED11DB EQ PUSH2 0x11CE JUMPI DUP1 PUSH4 0x389ED267 EQ PUSH2 0x11A5 JUMPI DUP1 PUSH4 0x3BE7BCBF EQ PUSH2 0x100F JUMPI DUP1 PUSH4 0x3DB8DF98 EQ PUSH2 0xD62 JUMPI DUP1 PUSH4 0x3F4BA83A EQ PUSH2 0xCF2 JUMPI DUP1 PUSH4 0x3FAD1834 EQ PUSH2 0xCD3 JUMPI DUP1 PUSH4 0x46FBF68E EQ PUSH2 0xC7F JUMPI DUP1 PUSH4 0x50D2A276 EQ PUSH2 0xC3B JUMPI DUP1 PUSH4 0x550D01A3 EQ PUSH2 0xBFD JUMPI DUP1 PUSH4 0x62043BD8 EQ PUSH2 0xBE1 JUMPI DUP1 PUSH4 0x63A8FD89 EQ PUSH2 0xBBF JUMPI DUP1 PUSH4 0x6805B84B EQ PUSH2 0xB9B JUMPI DUP1 PUSH4 0x6B2C0F55 EQ PUSH2 0xAC9 JUMPI DUP1 PUSH4 0x6ECD19CB EQ PUSH2 0x8E8 JUMPI DUP1 PUSH4 0x70480275 EQ PUSH2 0x899 JUMPI DUP1 PUSH4 0x75B238FC EQ PUSH2 0x870 JUMPI DUP1 PUSH4 0x82DC1EC4 EQ PUSH2 0x81C JUMPI DUP1 PUSH4 0x8456CB59 EQ PUSH2 0x7E0 JUMPI DUP1 PUSH4 0x8F32D59B EQ PUSH2 0x7BA JUMPI DUP1 PUSH4 0x91D14854 EQ PUSH2 0x773 JUMPI DUP1 PUSH4 0x9A202D47 EQ PUSH2 0x6DC JUMPI DUP1 PUSH4 0x9D541BE2 EQ PUSH2 0x6B3 JUMPI DUP1 PUSH4 0xA168FA89 EQ PUSH2 0x653 JUMPI DUP1 PUSH4 0xA217FDDF EQ PUSH2 0x638 JUMPI DUP1 PUSH4 0xA4EB718C EQ PUSH2 0x5BB JUMPI DUP1 PUSH4 0xB911135F EQ PUSH2 0x588 JUMPI DUP1 PUSH4 0xCF756FDF EQ PUSH2 0x473 JUMPI DUP1 PUSH4 0xD547741F EQ PUSH2 0x437 JUMPI DUP1 PUSH4 0xDE8BE8E7 EQ PUSH2 0x40F JUMPI DUP1 PUSH4 0xE0024604 EQ PUSH2 0x3E2 JUMPI DUP1 PUSH4 0xE6147518 EQ PUSH2 0x36B JUMPI DUP1 PUSH4 0xF0F44260 EQ PUSH2 0x2E6 JUMPI PUSH4 0xF2FDE38B SUB PUSH2 0x12 JUMPI SWAP2 SWAP1 CALLVALUE PUSH2 0x2E2 JUMPI PUSH1 0x20 CALLDATASIZE PUSH1 0x3 NOT ADD SLT PUSH2 0x2E2 JUMPI PUSH2 0x241 PUSH2 0x150A JUMP JUMPDEST SWAP2 PUSH2 0x252 PUSH2 0x24D PUSH2 0x175B JUMP JUMPDEST PUSH2 0x162B JUMP JUMPDEST PUSH1 0x1 PUSH1 0x1 PUSH1 0xA0 SHL SUB DUP4 AND DUP1 ISZERO PUSH2 0x2D3 JUMPI CALLER EQ PUSH2 0x2C5 JUMPI POP SWAP1 PUSH2 0x2B2 PUSH1 0x1 PUSH2 0x2B7 SWAP4 DUP6 DUP1 MSTORE PUSH1 0x5 PUSH1 0x20 MSTORE PUSH2 0x289 DUP3 DUP3 DUP9 KECCAK256 ADD SLOAD PUSH2 0x177E JUMP JUMPDEST PUSH2 0x292 DUP5 PUSH2 0x18DB JUMP JUMPDEST POP PUSH1 0x0 DUP1 MLOAD PUSH1 0x20 PUSH2 0x230E DUP4 CODECOPY DUP2 MLOAD SWAP2 MSTORE DUP7 MSTORE PUSH1 0x5 PUSH1 0x20 MSTORE DUP6 KECCAK256 ADD SLOAD PUSH2 0x177E JUMP JUMPDEST PUSH2 0x17C2 JUMP JUMPDEST POP PUSH2 0x2C1 CALLER PUSH2 0x1AC1 JUMP JUMPDEST POP DUP1 RETURN JUMPDEST SWAP1 MLOAD PUSH4 0xA98F1F3 PUSH1 0xE2 SHL DUP2 MSTORE REVERT JUMPDEST POP SWAP1 MLOAD PUSH4 0xD92E233D PUSH1 0xE0 SHL DUP2 MSTORE REVERT JUMPDEST DUP3 DUP1 REVERT JUMPDEST POP SWAP2 SWAP1 CALLVALUE PUSH2 0x2E2 JUMPI PUSH1 0x20 CALLDATASIZE PUSH1 0x3 NOT ADD SLT PUSH2 0x2E2 JUMPI PUSH2 0x302 PUSH2 0x150A JUMP JUMPDEST PUSH2 0x30D PUSH2 0x24D PUSH2 0x175B JUMP JUMPDEST PUSH1 0x1 PUSH1 0x1 PUSH1 0xA0 SHL SUB AND SWAP2 DUP3 ISZERO PUSH2 0x35D JUMPI POP PUSH1 0x9 DUP1 SLOAD PUSH1 0x1 PUSH1 0x1 PUSH1 0xA0 SHL SUB NOT AND DUP4 OR SWAP1 SSTORE MLOAD SWAP1 DUP2 MSTORE PUSH32 0xB6A5E89655CF506139085F051AF608195ED056F8DC550B180A1C38D401E2B6C4 SWAP1 PUSH1 0x20 SWAP1 LOG1 DUP1 RETURN JUMPDEST SWAP1 MLOAD PUSH4 0xE6C4247B PUSH1 0xE0 SHL DUP2 MSTORE REVERT JUMPDEST POP SWAP2 SWAP1 CALLVALUE PUSH2 0x2E2 JUMPI PUSH1 0x20 CALLDATASIZE PUSH1 0x3 NOT ADD SLT PUSH2 0x2E2 JUMPI PUSH2 0x387 PUSH2 0x150A JUMP JUMPDEST PUSH2 0x392 PUSH2 0x24D PUSH2 0x175B JUMP JUMPDEST PUSH1 0x1 PUSH1 0x1 PUSH1 0xA0 SHL SUB AND SWAP2 DUP3 ISZERO PUSH2 0x35D JUMPI POP PUSH1 0x8 DUP1 SLOAD PUSH1 0x1 PUSH1 0x1 PUSH1 0xA0 SHL SUB NOT AND DUP4 OR SWAP1 SSTORE MLOAD SWAP1 DUP2 MSTORE PUSH32 0xED7ACC23C47775012C7B3A370974B91AEFAB1849CACF173B5EA54273ABB48156 SWAP1 PUSH1 0x20 SWAP1 LOG1 DUP1 RETURN JUMPDEST POP SWAP1 CALLVALUE PUSH2 0x40B JUMPI DUP2 PUSH1 0x3 NOT CALLDATASIZE ADD SLT PUSH2 0x40B JUMPI PUSH1 0x9 SLOAD SWAP1 MLOAD PUSH1 0x1 PUSH1 0x1 PUSH1 0xA0 SHL SUB SWAP1 SWAP2 AND DUP2 MSTORE PUSH1 0x20 SWAP1 RETURN JUMPDEST POP DUP1 REVERT JUMPDEST POP SWAP1 CALLVALUE PUSH2 0x40B JUMPI DUP2 PUSH1 0x3 NOT CALLDATASIZE ADD SLT PUSH2 0x40B JUMPI PUSH1 0x20 SWAP1 PUSH4 0xFFFFFFFF PUSH1 0xE SLOAD PUSH1 0x18 SHR AND SWAP1 MLOAD SWAP1 DUP2 MSTORE RETURN JUMPDEST POP SWAP2 SWAP1 CALLVALUE PUSH2 0x2E2 JUMPI DUP1 PUSH1 0x3 NOT CALLDATASIZE ADD SLT PUSH2 0x2E2 JUMPI PUSH2 0x2C1 SWAP2 CALLDATALOAD PUSH2 0x46E PUSH1 0x1 PUSH2 0x45C PUSH2 0x1525 JUMP JUMPDEST SWAP4 DUP4 DUP8 MSTORE PUSH1 0x5 PUSH1 0x20 MSTORE DUP7 KECCAK256 ADD SLOAD PUSH2 0x177E JUMP JUMPDEST PUSH2 0x1B28 JUMP JUMPDEST POP SWAP2 SWAP1 CALLVALUE PUSH2 0x2E2 JUMPI PUSH1 0x80 CALLDATASIZE PUSH1 0x3 NOT ADD SLT PUSH2 0x2E2 JUMPI PUSH2 0x48F PUSH2 0x150A JUMP JUMPDEST SWAP1 PUSH2 0x498 PUSH2 0x1525 JUMP JUMPDEST PUSH1 0x1 PUSH1 0x1 PUSH1 0xA0 SHL SUB PUSH1 0x44 CALLDATALOAD DUP2 DUP2 AND SWAP6 SWAP2 SWAP4 SWAP1 DUP7 SWAP1 SUB PUSH2 0x584 JUMPI PUSH1 0xFF PUSH1 0xE SLOAD PUSH1 0x8 SHR AND PUSH2 0x578 JUMPI POP POP PUSH2 0x4C9 CALLER PUSH2 0x18DB JUMP JUMPDEST POP DUP2 PUSH1 0x1 DUP1 PUSH1 0xA0 SHL SUB NOT SWAP4 AND DUP4 PUSH1 0x6 SLOAD AND OR PUSH1 0x6 SSTORE AND DUP2 PUSH1 0x8 SLOAD AND OR PUSH1 0x8 SSTORE PUSH1 0x9 SLOAD AND OR PUSH1 0x9 SSTORE PUSH1 0x64 CALLDATALOAD PUSH1 0xC SSTORE PUSH6 0x200B20000000 PUSH7 0xFFFFFFFF000000 NOT PUSH1 0xE SLOAD AND OR PUSH1 0xE SSTORE PUSH2 0x519 PUSH1 0xD SLOAD PUSH2 0x15F1 JUMP JUMPDEST PUSH1 0x1F DUP2 GT PUSH2 0x53A JUMPI JUMPDEST POP PUSH1 0x0 PUSH1 0xD SSTORE PUSH2 0x100 PUSH2 0xFF00 NOT PUSH1 0xE SLOAD AND OR PUSH1 0xE SSTORE DUP1 RETURN JUMPDEST PUSH1 0xD DUP3 MSTORE PUSH2 0x572 SWAP1 PUSH1 0x1F ADD PUSH1 0x5 SHR PUSH32 0xD7B6990105719101DABEB77144F2A3385C8033ACD3AF97E9423A695E81AD1EB5 SWAP1 DUP2 ADD SWAP1 PUSH2 0x1744 JUMP JUMPDEST CODESIZE PUSH2 0x522 JUMP JUMPDEST MLOAD PUSH3 0xDC149F PUSH1 0xE4 SHL DUP2 MSTORE REVERT JUMPDEST DUP7 DUP1 REVERT JUMPDEST POP SWAP2 CALLVALUE PUSH2 0x2E2 JUMPI PUSH1 0x20 CALLDATASIZE PUSH1 0x3 NOT ADD SLT PUSH2 0x2E2 JUMPI CALLDATALOAD DUP3 MSTORE PUSH1 0x1 PUSH1 0x20 SWAP1 DUP2 MSTORE SWAP2 DUP2 SWAP1 KECCAK256 SLOAD SWAP1 MLOAD PUSH1 0x1 PUSH1 0x1 PUSH1 0xA0 SHL SUB SWAP1 SWAP2 AND DUP2 MSTORE RETURN JUMPDEST POP SWAP2 CALLVALUE PUSH2 0x2E2 JUMPI PUSH1 0x20 CALLDATASIZE PUSH1 0x3 NOT ADD SLT PUSH2 0x2E2 JUMPI CALLDATALOAD PUSH4 0xFFFFFFFF DUP2 AND DUP1 DUP3 SUB PUSH2 0x634 JUMPI PUSH32 0xE26FA4ACF522C01381834ACC8213105DF00A52674031C6311F5DC24BD608819F SWAP3 PUSH1 0x20 SWAP3 PUSH2 0x60D PUSH2 0x24D PUSH2 0x175B JUMP JUMPDEST PUSH7 0xFFFFFFFF000000 PUSH1 0xE SLOAD SWAP2 PUSH1 0x18 SHL AND SWAP1 PUSH7 0xFFFFFFFF000000 NOT AND OR PUSH1 0xE SSTORE MLOAD SWAP1 DUP2 MSTORE LOG1 DUP1 RETURN JUMPDEST DUP4 DUP1 REVERT JUMPDEST POP SWAP1 CALLVALUE PUSH2 0x40B JUMPI DUP2 PUSH1 0x3 NOT CALLDATASIZE ADD SLT PUSH2 0x40B JUMPI MLOAD SWAP1 DUP2 MSTORE PUSH1 0x20 SWAP1 RETURN JUMPDEST POP SWAP2 CALLVALUE PUSH2 0x2E2 JUMPI PUSH1 0x20 CALLDATASIZE PUSH1 0x3 NOT ADD SLT PUSH2 0x2E2 JUMPI DUP2 PUSH1 0xA0 SWAP4 PUSH1 0xFF SWAP3 CALLDATALOAD DUP2 MSTORE PUSH1 0x7 PUSH1 0x20 MSTORE KECCAK256 DUP1 SLOAD SWAP3 PUSH1 0x2 PUSH1 0x1 DUP4 ADD SLOAD SWAP3 ADD SLOAD SWAP2 DUP2 MLOAD SWAP5 DUP6 MSTORE PUSH1 0x20 DUP6 ADD MSTORE PUSH1 0x1 DUP1 DUP7 SHL SUB DUP3 AND SWAP1 DUP5 ADD MSTORE DUP2 DUP2 DUP6 SHR AND ISZERO ISZERO PUSH1 0x60 DUP5 ADD MSTORE PUSH1 0xA8 SHR AND ISZERO ISZERO PUSH1 0x80 DUP3 ADD MSTORE RETURN JUMPDEST POP SWAP1 CALLVALUE PUSH2 0x40B JUMPI DUP2 PUSH1 0x3 NOT CALLDATASIZE ADD SLT PUSH2 0x40B JUMPI PUSH1 0x8 SLOAD SWAP1 MLOAD PUSH1 0x1 PUSH1 0x1 PUSH1 0xA0 SHL SUB SWAP1 SWAP2 AND DUP2 MSTORE PUSH1 0x20 SWAP1 RETURN JUMPDEST POP SWAP2 SWAP1 CALLVALUE PUSH2 0x2E2 JUMPI DUP3 PUSH1 0x3 NOT CALLDATASIZE ADD SLT PUSH2 0x2E2 JUMPI PUSH1 0x0 DUP1 MLOAD PUSH1 0x20 PUSH2 0x230E DUP4 CODECOPY DUP2 MLOAD SWAP2 MSTORE DUP4 MSTORE PUSH1 0x5 PUSH1 0x20 MSTORE DUP1 DUP4 KECCAK256 CALLER DUP5 MSTORE PUSH1 0x20 MSTORE PUSH1 0xFF DUP2 DUP5 KECCAK256 SLOAD AND ISZERO PUSH2 0x724 JUMPI DUP3 PUSH2 0x2C1 CALLER PUSH2 0x1A39 JUMP JUMPDEST SWAP1 PUSH1 0x20 PUSH1 0x84 SWAP3 MLOAD SWAP2 PUSH3 0x461BCD PUSH1 0xE5 SHL DUP4 MSTORE DUP3 ADD MSTORE PUSH1 0x23 PUSH1 0x24 DUP3 ADD MSTORE PUSH32 0x41757468436F6E74726F6C3A2043616C6C6572206973206E6F7420616E206164 PUSH1 0x44 DUP3 ADD MSTORE PUSH3 0x36B4B7 PUSH1 0xE9 SHL PUSH1 0x64 DUP3 ADD MSTORE REVERT JUMPDEST POP SWAP2 CALLVALUE PUSH2 0x2E2 JUMPI DUP2 PUSH1 0x3 NOT CALLDATASIZE ADD SLT PUSH2 0x2E2 JUMPI DUP2 PUSH1 0x20 SWAP4 PUSH1 0xFF SWAP3 PUSH2 0x794 PUSH2 0x1525 JUMP JUMPDEST SWAP1 CALLDATALOAD DUP3 MSTORE PUSH1 0x5 DUP7 MSTORE DUP3 DUP3 KECCAK256 PUSH1 0x1 PUSH1 0x1 PUSH1 0xA0 SHL SUB SWAP1 SWAP2 AND DUP3 MSTORE DUP6 MSTORE KECCAK256 SLOAD SWAP2 MLOAD SWAP2 AND ISZERO ISZERO DUP2 MSTORE RETURN JUMPDEST POP SWAP1 CALLVALUE PUSH2 0x40B JUMPI DUP2 PUSH1 0x3 NOT CALLDATASIZE ADD SLT PUSH2 0x40B JUMPI PUSH1 0x20 SWAP1 PUSH2 0x7D7 PUSH2 0x175B JUMP JUMPDEST SWAP1 MLOAD SWAP1 ISZERO ISZERO DUP2 MSTORE RETURN JUMPDEST POP CALLVALUE PUSH2 0x819 JUMPI DUP1 PUSH1 0x3 NOT CALLDATASIZE ADD SLT PUSH2 0x819 JUMPI PUSH2 0x7FC PUSH2 0x24D PUSH2 0x175B JUMP JUMPDEST PUSH1 0x1 PUSH1 0xE SLOAD PUSH2 0x80E PUSH1 0xFF DUP3 AND ISZERO PUSH2 0x16AD JUMP JUMPDEST PUSH1 0xFF NOT AND OR PUSH1 0xE SSTORE DUP1 RETURN JUMPDEST DUP1 REVERT JUMPDEST POP SWAP1 CALLVALUE PUSH2 0x40B JUMPI PUSH1 0x20 CALLDATASIZE PUSH1 0x3 NOT ADD SLT PUSH2 0x40B JUMPI PUSH2 0x2C1 SWAP1 PUSH2 0x86B PUSH1 0x1 PUSH2 0x840 PUSH2 0x150A JUMP JUMPDEST SWAP3 PUSH2 0x84C PUSH2 0x24D PUSH2 0x175B JUMP JUMPDEST PUSH1 0x0 DUP1 MLOAD PUSH1 0x20 PUSH2 0x22EE DUP4 CODECOPY DUP2 MLOAD SWAP2 MSTORE DUP7 MSTORE PUSH1 0x5 PUSH1 0x20 MSTORE DUP6 KECCAK256 ADD SLOAD PUSH2 0x177E JUMP JUMPDEST PUSH2 0x1851 JUMP JUMPDEST POP SWAP1 CALLVALUE PUSH2 0x40B JUMPI DUP2 PUSH1 0x3 NOT CALLDATASIZE ADD SLT PUSH2 0x40B JUMPI PUSH1 0x20 SWAP1 MLOAD PUSH1 0x0 DUP1 MLOAD PUSH1 0x20 PUSH2 0x230E DUP4 CODECOPY DUP2 MLOAD SWAP2 MSTORE DUP2 MSTORE RETURN JUMPDEST POP SWAP1 CALLVALUE PUSH2 0x40B JUMPI PUSH1 0x20 CALLDATASIZE PUSH1 0x3 NOT ADD SLT PUSH2 0x40B JUMPI PUSH2 0x2C1 SWAP1 PUSH2 0x2B2 PUSH1 0x1 PUSH2 0x8BD PUSH2 0x150A JUMP JUMPDEST SWAP3 PUSH2 0x8C9 PUSH2 0x24D PUSH2 0x175B JUMP JUMPDEST PUSH1 0x0 DUP1 MLOAD PUSH1 0x20 PUSH2 0x230E DUP4 CODECOPY DUP2 MLOAD SWAP2 MSTORE DUP7 MSTORE PUSH1 0x5 PUSH1 0x20 MSTORE DUP6 KECCAK256 ADD SLOAD PUSH2 0x177E JUMP JUMPDEST POP DUP3 CALLVALUE PUSH2 0x40B JUMPI PUSH1 0x20 SWAP1 DUP2 PUSH1 0x3 NOT CALLDATASIZE ADD SLT PUSH2 0x2E2 JUMPI DUP1 CALLDATALOAD SWAP2 PUSH1 0x1 PUSH1 0x1 PUSH1 0x40 SHL SUB SWAP2 DUP3 DUP5 GT PUSH2 0xAC5 JUMPI CALLDATASIZE PUSH1 0x23 DUP6 ADD SLT ISZERO PUSH2 0xAC5 JUMPI DUP4 DUP2 ADD CALLDATALOAD PUSH2 0x928 DUP2 PUSH2 0x15D6 JUMP JUMPDEST SWAP5 PUSH2 0x935 DUP9 MLOAD SWAP7 DUP8 PUSH2 0x15B5 JUMP JUMPDEST DUP2 DUP7 MSTORE CALLDATASIZE PUSH1 0x24 DUP4 DUP4 ADD ADD GT PUSH2 0x584 JUMPI DUP2 DUP8 SWAP3 PUSH1 0x24 DUP7 SWAP4 ADD DUP4 DUP10 ADD CALLDATACOPY DUP7 ADD ADD MSTORE PUSH2 0x95F PUSH2 0x24D PUSH2 0x175B JUMP JUMPDEST DUP4 MLOAD SWAP3 DUP4 GT PUSH2 0xAB2 JUMPI POP PUSH2 0x974 PUSH1 0xD SLOAD PUSH2 0x15F1 JUMP JUMPDEST PUSH1 0x1F DUP2 GT PUSH2 0xA78 JUMPI JUMPDEST POP DUP1 PUSH1 0x1F DUP4 GT PUSH1 0x1 EQ PUSH2 0x9EC JUMPI POP SWAP4 DUP2 PUSH2 0x9DB SWAP4 SWAP3 DUP6 SWAP7 PUSH32 0x5C9DB415E672F6D0F9A26180F0FF083C406F4C7AA95AEC2C0E9536794035A4D8 SWAP7 SWAP2 PUSH2 0x9E1 JUMPI JUMPDEST POP DUP2 PUSH1 0x1 SHL SWAP2 PUSH1 0x0 NOT SWAP1 PUSH1 0x3 SHL SHR NOT AND OR PUSH1 0xD SSTORE JUMPDEST MLOAD SWAP2 DUP3 SWAP2 DUP3 PUSH2 0x153B JUMP JUMPDEST SUB SWAP1 LOG1 DUP1 RETURN JUMPDEST SWAP1 POP DUP4 ADD MLOAD DUP8 PUSH2 0x9BC JUMP JUMPDEST SWAP1 PUSH1 0x1F NOT DUP4 AND PUSH1 0xD DUP7 MSTORE DUP3 DUP7 KECCAK256 SWAP3 DUP7 SWAP1 JUMPDEST DUP3 DUP3 LT PUSH2 0xA60 JUMPI POP POP SWAP3 PUSH32 0x5C9DB415E672F6D0F9A26180F0FF083C406F4C7AA95AEC2C0E9536794035A4D8 SWAP6 SWAP7 SWAP3 PUSH1 0x1 SWAP3 DUP3 PUSH2 0x9DB SWAP8 SWAP7 LT PUSH2 0xA47 JUMPI JUMPDEST POP POP DUP2 SHL ADD PUSH1 0xD SSTORE PUSH2 0x9D1 JUMP JUMPDEST DUP6 ADD MLOAD PUSH1 0x0 NOT PUSH1 0xF8 DUP5 PUSH1 0x3 SHL AND SHR NOT AND SWAP1 SSTORE DUP8 DUP1 PUSH2 0xA3A JUMP JUMPDEST DUP1 PUSH1 0x1 DUP6 SWAP7 DUP3 SWAP5 SWAP7 DUP11 ADD MLOAD DUP2 SSTORE ADD SWAP6 ADD SWAP4 ADD SWAP1 PUSH2 0x9FD JUMP JUMPDEST PUSH2 0xAA2 SWAP1 PUSH1 0xD DUP7 MSTORE DUP3 DUP7 KECCAK256 PUSH1 0x1F DUP6 ADD PUSH1 0x5 SHR DUP2 ADD SWAP2 DUP5 DUP7 LT PUSH2 0xAA8 JUMPI JUMPDEST PUSH1 0x1F ADD PUSH1 0x5 SHR ADD SWAP1 PUSH2 0x1744 JUMP JUMPDEST DUP6 PUSH2 0x97D JUMP JUMPDEST SWAP1 SWAP2 POP DUP2 SWAP1 PUSH2 0xA95 JUMP JUMPDEST PUSH4 0x4E487B71 PUSH1 0xE0 SHL DUP6 MSTORE PUSH1 0x41 SWAP1 MSTORE PUSH1 0x24 DUP5 REVERT JUMPDEST DUP5 DUP1 REVERT JUMPDEST POP SWAP2 CALLVALUE PUSH2 0x2E2 JUMPI PUSH1 0x20 CALLDATASIZE PUSH1 0x3 NOT ADD SLT PUSH2 0x2E2 JUMPI PUSH2 0xAE4 PUSH2 0x150A JUMP JUMPDEST SWAP2 PUSH1 0x0 DUP1 MLOAD PUSH1 0x20 PUSH2 0x22EE DUP4 CODECOPY DUP2 MLOAD SWAP2 MSTORE DUP5 MSTORE PUSH1 0x5 PUSH1 0x20 MSTORE DUP1 DUP5 KECCAK256 CALLER DUP6 MSTORE PUSH1 0x20 MSTORE PUSH1 0xFF DUP2 DUP6 KECCAK256 SLOAD AND DUP1 ISZERO PUSH2 0xB8D JUMPI JUMPDEST ISZERO PUSH2 0xB3E JUMPI CALLER PUSH1 0x1 PUSH1 0x1 PUSH1 0xA0 SHL SUB DUP5 AND SUB PUSH2 0xB31 JUMPI DUP4 PUSH2 0x2C1 DUP5 PUSH2 0x19B1 JUMP JUMPDEST MLOAD PUSH4 0x334BD919 PUSH1 0xE1 SHL DUP2 MSTORE REVERT JUMPDEST SWAP1 PUSH1 0x20 PUSH1 0x84 SWAP3 MLOAD SWAP2 PUSH3 0x461BCD PUSH1 0xE5 SHL DUP4 MSTORE DUP3 ADD MSTORE PUSH1 0x23 PUSH1 0x24 DUP3 ADD MSTORE PUSH32 0x41757468436F6E74726F6C3A2043616C6C6572206973206E6F74206120706175 PUSH1 0x44 DUP3 ADD MSTORE PUSH3 0x39B2B9 PUSH1 0xE9 SHL PUSH1 0x64 DUP3 ADD MSTORE REVERT JUMPDEST POP PUSH2 0xB96 PUSH2 0x175B JUMP JUMPDEST PUSH2 0xB12 JUMP JUMPDEST POP SWAP1 CALLVALUE PUSH2 0x40B JUMPI DUP2 PUSH1 0x3 NOT CALLDATASIZE ADD SLT PUSH2 0x40B JUMPI PUSH1 0x20 SWAP1 PUSH1 0xFF PUSH1 0xE SLOAD AND SWAP1 MLOAD SWAP1 ISZERO ISZERO DUP2 MSTORE RETURN JUMPDEST POP SWAP1 CALLVALUE PUSH2 0x40B JUMPI DUP2 PUSH1 0x3 NOT CALLDATASIZE ADD SLT PUSH2 0x40B JUMPI PUSH1 0xFF PUSH1 0x20 SWAP3 SLOAD AND SWAP1 MLOAD SWAP1 ISZERO ISZERO DUP2 MSTORE RETURN JUMPDEST POP SWAP1 CALLVALUE PUSH2 0x40B JUMPI DUP2 PUSH1 0x3 NOT CALLDATASIZE ADD SLT PUSH2 0x40B JUMPI PUSH1 0x20 SWAP1 MLOAD PUSH1 0x64 DUP2 MSTORE RETURN JUMPDEST POP SWAP1 CALLVALUE PUSH2 0x40B JUMPI PUSH1 0x20 CALLDATASIZE PUSH1 0x3 NOT ADD SLT PUSH2 0x40B JUMPI PUSH1 0x20 SWAP2 PUSH1 0xFF SWAP1 DUP3 SWAP1 PUSH1 0x1 PUSH1 0x1 PUSH1 0xA0 SHL SUB PUSH2 0xC28 PUSH2 0x150A JUMP JUMPDEST AND DUP2 MSTORE PUSH1 0x2 DUP6 MSTORE KECCAK256 SLOAD AND SWAP1 MLOAD SWAP1 ISZERO ISZERO DUP2 MSTORE RETURN JUMPDEST POP SWAP2 CALLVALUE PUSH2 0x2E2 JUMPI PUSH1 0x20 CALLDATASIZE PUSH1 0x3 NOT ADD SLT PUSH2 0x2E2 JUMPI CALLDATALOAD PUSH4 0xFFFFFFFF PUSH1 0xE0 SHL DUP2 AND DUP1 SWAP2 SUB PUSH2 0x2E2 JUMPI DUP3 MSTORE PUSH1 0x3 PUSH1 0x20 SWAP1 DUP2 MSTORE SWAP2 DUP2 SWAP1 KECCAK256 SLOAD SWAP1 MLOAD PUSH1 0x1 PUSH1 0x1 PUSH1 0xA0 SHL SUB SWAP1 SWAP2 AND DUP2 MSTORE RETURN JUMPDEST POP SWAP1 CALLVALUE PUSH2 0x40B JUMPI PUSH1 0x20 CALLDATASIZE PUSH1 0x3 NOT ADD SLT PUSH2 0x40B JUMPI PUSH1 0xFF DUP2 PUSH1 0x20 SWAP4 PUSH2 0xCA0 PUSH2 0x150A JUMP JUMPDEST PUSH1 0x0 DUP1 MLOAD PUSH1 0x20 PUSH2 0x22EE DUP4 CODECOPY DUP2 MLOAD SWAP2 MSTORE DUP3 MSTORE PUSH1 0x5 DUP7 MSTORE DUP3 DUP3 KECCAK256 PUSH1 0x1 PUSH1 0x1 PUSH1 0xA0 SHL SUB SWAP1 SWAP2 AND DUP3 MSTORE DUP6 MSTORE KECCAK256 SLOAD SWAP2 MLOAD SWAP2 AND ISZERO ISZERO DUP2 MSTORE RETURN JUMPDEST POP SWAP1 CALLVALUE PUSH2 0x40B JUMPI DUP2 PUSH1 0x3 NOT CALLDATASIZE ADD SLT PUSH2 0x40B JUMPI PUSH1 0x20 SWAP1 PUSH1 0xB SLOAD SWAP1 MLOAD SWAP1 DUP2 MSTORE RETURN JUMPDEST POP SWAP2 CALLVALUE PUSH2 0x2E2 JUMPI DUP3 PUSH1 0x3 NOT CALLDATASIZE ADD SLT PUSH2 0x2E2 JUMPI PUSH2 0xD0F PUSH2 0x24D PUSH2 0x175B JUMP JUMPDEST PUSH1 0xE SLOAD SWAP2 PUSH1 0xFF DUP4 AND ISZERO PUSH2 0xD28 JUMPI POP POP PUSH1 0xFF NOT AND PUSH1 0xE SSTORE DUP1 RETURN JUMPDEST SWAP1 PUSH1 0x20 PUSH1 0x64 SWAP3 MLOAD SWAP2 PUSH3 0x461BCD PUSH1 0xE5 SHL DUP4 MSTORE DUP3 ADD MSTORE PUSH1 0x14 PUSH1 0x24 DUP3 ADD MSTORE PUSH20 0x14185D5CD8589B194E881B9BDD081C185D5CD959 PUSH1 0x62 SHL PUSH1 0x44 DUP3 ADD MSTORE REVERT JUMPDEST POP SWAP2 DUP3 PUSH1 0x3 NOT CALLDATASIZE ADD SLT PUSH2 0x2E2 JUMPI PUSH1 0xE SLOAD PUSH2 0xD7F PUSH1 0xFF DUP3 AND ISZERO PUSH2 0x16AD JUMP JUMPDEST PUSH1 0x2 DUP3 SLOAD EQ PUSH2 0x1000 JUMPI PUSH1 0x2 DUP3 SSTORE PUSH1 0x10 SHR PUSH1 0xFF AND ISZERO PUSH2 0xFF2 JUMPI CALLER ISZERO PUSH2 0x35D JUMPI DUP3 DUP1 DUP1 DUP1 PUSH1 0xC SLOAD ADDRESS GAS CALL PUSH2 0xDAF PUSH2 0x16EC JUMP JUMPDEST POP ISZERO PUSH2 0xFE4 JUMPI PUSH1 0xE SLOAD PUSH1 0x6 SLOAD DUP4 MLOAD SWAP5 PUSH2 0xE0B SWAP5 SWAP4 SWAP3 SWAP1 SWAP2 PUSH1 0x1 PUSH1 0x1 PUSH1 0xA0 SHL SUB AND SWAP1 PUSH1 0x18 SHR PUSH4 0xFFFFFFFF AND PUSH2 0xDE2 DUP8 PUSH2 0x1584 JUMP JUMPDEST DUP3 DUP8 MSTORE PUSH1 0x20 DUP8 DUP5 DUP3 DUP1 SWAP11 ADD MSTORE DUP3 DUP8 DUP3 ADD MSTORE DUP7 MLOAD DUP1 SWAP9 DUP2 SWAP3 PUSH4 0xA6C278F3 PUSH1 0xE0 SHL DUP4 MSTORE DUP9 DUP4 ADD PUSH2 0x1D99 JUMP JUMPDEST SUB DUP2 DUP6 GAS STATICCALL SWAP6 DUP7 ISZERO PUSH2 0xFDA JUMPI SWAP1 DUP8 SWAP3 SWAP2 DUP5 SWAP8 PUSH2 0xFA7 JUMPI JUMPDEST POP DUP7 SWAP3 SWAP2 PUSH2 0xE5C SWAP2 DUP8 MLOAD SWAP1 PUSH2 0xE36 DUP3 PUSH2 0x1584 JUMP JUMPDEST DUP7 DUP3 MSTORE DUP7 DUP6 DUP4 ADD MSTORE DUP9 DUP3 ADD MSTORE DUP8 MLOAD SWAP9 DUP10 DUP1 SWAP5 DUP2 SWAP4 PUSH4 0x9160B15 PUSH1 0xE1 SHL DUP4 MSTORE DUP11 DUP4 ADD PUSH2 0x1D99 JUMP JUMPDEST SUB SWAP3 GAS CALL SWAP5 DUP6 ISZERO PUSH2 0xF9D JUMPI DUP3 SWAP6 PUSH2 0xF6E JUMPI JUMPDEST POP DUP5 DUP3 MSTORE PUSH1 0x7 DUP7 MSTORE DUP4 DUP3 KECCAK256 PUSH1 0x2 ADD DUP1 SLOAD PUSH1 0x1 PUSH1 0x1 PUSH1 0xA8 SHL SUB NOT AND CALLER OR PUSH1 0x1 PUSH1 0xA0 SHL OR SWAP1 SSTORE PUSH1 0xB DUP1 SLOAD PUSH1 0x1 ADD SWAP1 SSTORE PUSH1 0xC SLOAD SWAP1 DUP1 DUP3 ADD DUP1 DUP3 GT PUSH2 0xF5B JUMPI CALLVALUE GT PUSH2 0xEEF JUMPI JUMPDEST POP POP POP PUSH1 0x1 SWAP1 PUSH32 0xC2B05DF6BABF2BE3CE649000124D86F0E7DE5E71F99B8EDB50DFB2F20A7569AE DUP4 MLOAD DUP1 PUSH2 0xEE5 DUP8 CALLER DUP4 PUSH2 0x1729 JUMP JUMPDEST SUB SWAP1 LOG1 SSTORE MLOAD SWAP1 DUP2 MSTORE RETURN JUMPDEST SWAP1 PUSH2 0xEFD PUSH2 0xF02 SWAP3 CALLVALUE PUSH2 0x171C JUMP JUMPDEST PUSH2 0x171C JUMP JUMPDEST SWAP1 DUP1 DUP1 DUP1 DUP5 CALLER GAS CALL PUSH2 0xF12 PUSH2 0x16EC JUMP JUMPDEST POP ISZERO PUSH2 0xF4C JUMPI SWAP1 PUSH32 0x27468D49151596D3863CCB02E3911B3146A62533FACD0765451BA556BB4FD9C8 DUP6 PUSH1 0x1 SWAP4 DUP6 MLOAD SWAP1 DUP2 MSTORE LOG1 SWAP1 CODESIZE DUP1 PUSH2 0xEB0 JUMP JUMPDEST POP SWAP1 MLOAD PUSH4 0x1E53F7E5 PUSH1 0xE1 SHL DUP2 MSTORE REVERT JUMPDEST PUSH4 0x4E487B71 PUSH1 0xE0 SHL DUP5 MSTORE PUSH1 0x11 DUP6 MSTORE PUSH1 0x24 DUP5 REVERT JUMPDEST SWAP1 SWAP5 POP DUP6 DUP2 DUP2 RETURNDATASIZE DUP4 GT PUSH2 0xF96 JUMPI JUMPDEST PUSH2 0xF86 DUP2 DUP4 PUSH2 0x15B5 JUMP JUMPDEST DUP2 ADD SUB SLT PUSH2 0x40B JUMPI MLOAD SWAP4 CODESIZE PUSH2 0xE6E JUMP JUMPDEST POP RETURNDATASIZE PUSH2 0xF7C JUMP JUMPDEST DUP5 MLOAD RETURNDATASIZE DUP5 DUP3 RETURNDATACOPY RETURNDATASIZE SWAP1 REVERT JUMPDEST SWAP2 SWAP7 POP SWAP2 DUP2 DUP2 RETURNDATASIZE DUP2 GT PUSH2 0xFD3 JUMPI JUMPDEST PUSH2 0xFBF DUP2 DUP4 PUSH2 0x15B5 JUMP JUMPDEST DUP2 ADD SUB SLT PUSH2 0x2E2 JUMPI MLOAD SWAP5 DUP7 SWAP2 PUSH2 0xE5C PUSH2 0xE22 JUMP JUMPDEST POP RETURNDATASIZE PUSH2 0xFB5 JUMP JUMPDEST DUP6 MLOAD RETURNDATASIZE DUP6 DUP3 RETURNDATACOPY RETURNDATASIZE SWAP1 REVERT JUMPDEST SWAP1 MLOAD PUSH4 0x15C6FBA7 PUSH1 0xE0 SHL DUP2 MSTORE REVERT JUMPDEST SWAP1 MLOAD PUSH4 0xD6A7EF3 PUSH1 0xE4 SHL DUP2 MSTORE REVERT JUMPDEST POP SWAP1 MLOAD PUSH4 0x3EE5AEB5 PUSH1 0xE0 SHL DUP2 MSTORE REVERT JUMPDEST POP SWAP2 SWAP1 CALLVALUE PUSH2 0x2E2 JUMPI PUSH1 0xC0 CALLDATASIZE PUSH1 0x3 NOT ADD SLT PUSH2 0x2E2 JUMPI DUP2 CALLDATALOAD SWAP1 PUSH1 0xFF DUP1 DUP4 AND SWAP4 DUP5 DUP5 SUB PUSH2 0x11A1 JUMPI PUSH1 0x24 CALLDATALOAD DUP3 DUP2 AND SWAP3 DUP4 DUP3 SUB PUSH2 0x119D JUMPI PUSH1 0x44 CALLDATALOAD SWAP4 DUP2 DUP6 AND SWAP2 DUP3 DUP7 SUB PUSH2 0x1199 JUMPI PUSH1 0x64 CALLDATALOAD SWAP4 DUP2 DUP6 AND SWAP5 DUP6 DUP2 SUB PUSH2 0x1195 JUMPI PUSH1 0x84 CALLDATALOAD SWAP1 DUP4 DUP3 AND SWAP9 DUP10 DUP4 SUB PUSH2 0x1191 JUMPI PUSH1 0xA4 CALLDATALOAD SWAP4 DUP6 DUP6 AND SWAP13 DUP14 DUP7 SUB PUSH2 0x118D JUMPI DUP15 PUSH2 0x1089 PUSH2 0x24D PUSH2 0x175B JUMP JUMPDEST ISZERO DUP1 PUSH2 0x1185 JUMPI JUMPDEST DUP1 PUSH2 0x117D JUMPI JUMPDEST DUP1 PUSH2 0x1175 JUMPI JUMPDEST DUP1 PUSH2 0x116D JUMPI JUMPDEST DUP1 PUSH2 0x1165 JUMPI JUMPDEST PUSH2 0x1155 JUMPI PUSH1 0x64 SWAP7 SWAP6 SWAP4 PUSH2 0x10C9 PUSH2 0x10C9 SWAP5 PUSH2 0x10C9 PUSH2 0x10CE SWAP9 SWAP6 PUSH2 0x10C9 SWAP6 PUSH2 0x1683 JUMP JUMPDEST PUSH2 0x1683 JUMP JUMPDEST AND SUB PUSH2 0x1145 JUMPI DUP9 DUP1 MSTORE PUSH1 0xF PUSH1 0x20 MSTORE DUP6 DUP10 KECCAK256 PUSH1 0xFF NOT SWAP9 DUP10 DUP3 SLOAD AND OR SWAP1 SSTORE PUSH1 0x1 DUP10 MSTORE DUP6 DUP10 KECCAK256 SWAP1 DUP9 DUP3 SLOAD AND OR SWAP1 SSTORE PUSH1 0x2 DUP9 MSTORE DUP5 DUP9 KECCAK256 SWAP1 DUP8 DUP3 SLOAD AND OR SWAP1 SSTORE PUSH1 0x3 DUP8 MSTORE DUP4 DUP8 KECCAK256 SWAP1 DUP7 DUP3 SLOAD AND OR SWAP1 SSTORE DUP6 MSTORE DUP2 DUP6 KECCAK256 SWAP1 DUP5 DUP3 SLOAD AND OR SWAP1 SSTORE PUSH1 0x5 DUP5 MSTORE DUP4 KECCAK256 SWAP2 DUP3 SLOAD AND OR SWAP1 SSTORE PUSH3 0x10000 PUSH3 0xFF0000 NOT PUSH1 0xE SLOAD AND OR PUSH1 0xE SSTORE DUP1 RETURN JUMPDEST DUP6 MLOAD PUSH4 0xD6A7EF3 PUSH1 0xE4 SHL DUP2 MSTORE DUP5 SWAP1 REVERT JUMPDEST DUP13 MLOAD PUSH4 0xD6A7EF3 PUSH1 0xE4 SHL DUP2 MSTORE DUP12 SWAP1 REVERT JUMPDEST POP DUP14 ISZERO PUSH2 0x10A8 JUMP JUMPDEST POP DUP12 ISZERO PUSH2 0x10A2 JUMP JUMPDEST POP DUP10 ISZERO PUSH2 0x109C JUMP JUMPDEST POP DUP9 ISZERO PUSH2 0x1096 JUMP JUMPDEST POP DUP8 ISZERO PUSH2 0x1090 JUMP JUMPDEST DUP16 DUP1 REVERT JUMPDEST DUP14 DUP1 REVERT JUMPDEST DUP12 DUP1 REVERT JUMPDEST DUP10 DUP1 REVERT JUMPDEST DUP8 DUP1 REVERT JUMPDEST DUP6 DUP1 REVERT JUMPDEST POP SWAP1 CALLVALUE PUSH2 0x40B JUMPI DUP2 PUSH1 0x3 NOT CALLDATASIZE ADD SLT PUSH2 0x40B JUMPI PUSH1 0x20 SWAP1 MLOAD PUSH1 0x0 DUP1 MLOAD PUSH1 0x20 PUSH2 0x22EE DUP4 CODECOPY DUP2 MLOAD SWAP2 MSTORE DUP2 MSTORE RETURN JUMPDEST POP SWAP2 SWAP1 CALLVALUE PUSH2 0x2E2 JUMPI DUP1 PUSH1 0x3 NOT CALLDATASIZE ADD SLT PUSH2 0x2E2 JUMPI PUSH1 0x6 SLOAD PUSH1 0x1 PUSH1 0x1 PUSH1 0xA0 SHL SUB AND SWAP1 CALLER DUP3 SWAP1 SUB PUSH2 0x1207 JUMPI DUP4 PUSH2 0x1204 PUSH1 0x24 CALLDATALOAD DUP6 CALLDATALOAD PUSH2 0x1BC5 JUMP JUMPDEST DUP1 RETURN JUMPDEST PUSH1 0x44 SWAP4 POP MLOAD SWAP2 PUSH4 0x73E64FD PUSH1 0xE2 SHL DUP4 MSTORE CALLER SWAP1 DUP4 ADD MSTORE PUSH1 0x24 DUP3 ADD MSTORE REVERT JUMPDEST POP SWAP1 CALLVALUE PUSH2 0x40B JUMPI DUP1 PUSH1 0x3 NOT CALLDATASIZE ADD SLT PUSH2 0x40B JUMPI PUSH2 0x123D PUSH2 0x1525 JUMP JUMPDEST SWAP1 CALLER PUSH1 0x1 PUSH1 0x1 PUSH1 0xA0 SHL SUB DUP4 AND SUB PUSH2 0x125A JUMPI POP PUSH2 0x2C1 SWAP2 SWAP3 CALLDATALOAD PUSH2 0x1B28 JUMP JUMPDEST MLOAD PUSH4 0x334BD919 PUSH1 0xE1 SHL DUP2 MSTORE DUP4 SWAP1 REVERT JUMPDEST POP SWAP2 SWAP1 CALLVALUE PUSH2 0x2E2 JUMPI DUP1 PUSH1 0x3 NOT CALLDATASIZE ADD SLT PUSH2 0x2E2 JUMPI PUSH2 0x2C1 SWAP2 CALLDATALOAD PUSH2 0x128E PUSH1 0x1 PUSH2 0x45C PUSH2 0x1525 JUMP JUMPDEST PUSH2 0x1948 JUMP JUMPDEST POP SWAP2 SWAP1 CALLVALUE PUSH2 0x2E2 JUMPI PUSH1 0x20 CALLDATASIZE PUSH1 0x3 NOT ADD SLT PUSH2 0x2E2 JUMPI DUP2 CALLDATALOAD SWAP2 PUSH2 0x12B5 PUSH2 0x24D PUSH2 0x175B JUMP JUMPDEST DUP3 ISZERO PUSH2 0x12ED JUMPI POP DUP2 PUSH1 0x20 SWAP2 PUSH32 0xA9BA7FA833BD01C7D078C99360F9C0764C1DE898C3300802F43FD0EC1DEE717C SWAP4 PUSH1 0xC SSTORE MLOAD SWAP1 DUP2 MSTORE LOG1 DUP1 RETURN JUMPDEST SWAP1 MLOAD PUSH4 0x173ECFB7 PUSH1 0xE3 SHL DUP2 MSTORE REVERT JUMPDEST POP SWAP1 CALLVALUE PUSH2 0x40B JUMPI PUSH1 0x20 CALLDATASIZE PUSH1 0x3 NOT ADD SLT PUSH2 0x40B JUMPI PUSH1 0xFF DUP2 PUSH1 0x20 SWAP4 PUSH2 0x131C PUSH2 0x150A JUMP JUMPDEST PUSH1 0x0 DUP1 MLOAD PUSH1 0x20 PUSH2 0x230E DUP4 CODECOPY DUP2 MLOAD SWAP2 MSTORE DUP3 MSTORE PUSH1 0x5 DUP7 MSTORE DUP3 DUP3 KECCAK256 PUSH1 0x1 PUSH1 0x1 PUSH1 0xA0 SHL SUB SWAP1 SWAP2 AND DUP3 MSTORE DUP6 MSTORE KECCAK256 SLOAD SWAP2 MLOAD SWAP2 AND ISZERO ISZERO DUP2 MSTORE RETURN JUMPDEST POP SWAP2 CALLVALUE PUSH2 0x2E2 JUMPI PUSH1 0x20 CALLDATASIZE PUSH1 0x3 NOT ADD SLT PUSH2 0x2E2 JUMPI DUP2 PUSH1 0x20 SWAP4 PUSH1 0x1 SWAP3 CALLDATALOAD DUP2 MSTORE PUSH1 0x5 DUP6 MSTORE KECCAK256 ADD SLOAD SWAP1 MLOAD SWAP1 DUP2 MSTORE RETURN JUMPDEST POP SWAP1 CALLVALUE PUSH2 0x40B JUMPI DUP2 PUSH1 0x3 NOT CALLDATASIZE ADD SLT PUSH2 0x40B JUMPI PUSH1 0x20 SWAP1 PUSH1 0xC SLOAD SWAP1 MLOAD SWAP1 DUP2 MSTORE RETURN JUMPDEST POP SWAP1 CALLVALUE PUSH2 0x40B JUMPI DUP2 PUSH1 0x3 NOT CALLDATASIZE ADD SLT PUSH2 0x40B JUMPI DUP1 MLOAD SWAP1 DUP3 PUSH1 0xD SLOAD PUSH2 0x13BB DUP2 PUSH2 0x15F1 JUMP JUMPDEST SWAP1 DUP2 DUP6 MSTORE PUSH1 0x20 SWAP3 PUSH1 0x1 SWAP2 PUSH1 0x1 DUP2 AND SWAP1 DUP2 PUSH1 0x0 EQ PUSH2 0x142B JUMPI POP PUSH1 0x1 EQ PUSH2 0x13F0 JUMPI JUMPDEST PUSH2 0x13EC DUP7 DUP7 PUSH2 0x9D1 DUP3 DUP12 SUB DUP4 PUSH2 0x15B5 JUMP JUMPDEST SUB SWAP1 RETURN JUMPDEST SWAP3 SWAP6 POP PUSH1 0xD DUP4 MSTORE DUP6 DUP4 KECCAK256 JUMPDEST DUP3 DUP5 LT PUSH2 0x1418 JUMPI POP POP POP DUP3 PUSH2 0x13EC SWAP5 PUSH2 0x9D1 SWAP3 DUP3 ADD ADD SWAP5 DUP7 PUSH2 0x13DB JUMP JUMPDEST DUP1 SLOAD DUP7 DUP6 ADD DUP9 ADD MSTORE SWAP3 DUP7 ADD SWAP3 DUP2 ADD PUSH2 0x13FB JUMP JUMPDEST PUSH1 0xFF NOT AND DUP8 DUP7 ADD MSTORE POP POP POP ISZERO ISZERO PUSH1 0x5 SHL DUP4 ADD ADD SWAP3 POP PUSH2 0x9D1 DUP3 PUSH2 0x13EC DUP7 PUSH2 0x13DB JUMP JUMPDEST POP SWAP2 CALLVALUE PUSH2 0x2E2 JUMPI PUSH1 0x80 CALLDATASIZE PUSH1 0x3 NOT ADD SLT PUSH2 0x2E2 JUMPI PUSH2 0x1468 PUSH2 0x150A JUMP JUMPDEST POP PUSH2 0x1471 PUSH2 0x1525 JUMP JUMPDEST POP PUSH1 0x64 CALLDATALOAD SWAP1 PUSH1 0x1 PUSH1 0x1 PUSH1 0x40 SHL SUB SWAP1 DUP2 DUP4 GT PUSH2 0xAC5 JUMPI CALLDATASIZE PUSH1 0x23 DUP5 ADD SLT ISZERO PUSH2 0xAC5 JUMPI DUP3 ADD CALLDATALOAD SWAP1 DUP2 GT PUSH2 0x634 JUMPI CALLDATASIZE SWAP2 ADD PUSH1 0x24 ADD GT PUSH2 0x40B JUMPI MLOAD PUSH4 0xA85BD01 PUSH1 0xE1 SHL DUP2 MSTORE PUSH1 0x20 SWAP1 RETURN JUMPDEST SWAP1 POP DUP4 CALLVALUE PUSH2 0x2E2 JUMPI PUSH1 0x20 CALLDATASIZE PUSH1 0x3 NOT ADD SLT PUSH2 0x2E2 JUMPI CALLDATALOAD PUSH4 0xFFFFFFFF PUSH1 0xE0 SHL DUP2 AND DUP1 SWAP2 SUB PUSH2 0x2E2 JUMPI PUSH1 0x20 SWAP3 POP PUSH4 0x7965DB0B PUSH1 0xE0 SHL DUP2 EQ SWAP1 DUP2 ISZERO PUSH2 0x14F9 JUMPI JUMPDEST POP ISZERO ISZERO DUP2 MSTORE RETURN JUMPDEST PUSH4 0x1FFC9A7 PUSH1 0xE0 SHL EQ SWAP1 POP DUP4 PUSH2 0x14F2 JUMP JUMPDEST PUSH1 0x4 CALLDATALOAD SWAP1 PUSH1 0x1 PUSH1 0x1 PUSH1 0xA0 SHL SUB DUP3 AND DUP3 SUB PUSH2 0x1520 JUMPI JUMP JUMPDEST PUSH1 0x0 DUP1 REVERT JUMPDEST PUSH1 0x24 CALLDATALOAD SWAP1 PUSH1 0x1 PUSH1 0x1 PUSH1 0xA0 SHL SUB DUP3 AND DUP3 SUB PUSH2 0x1520 JUMPI JUMP JUMPDEST PUSH1 0x20 DUP1 DUP3 MSTORE DUP3 MLOAD DUP2 DUP4 ADD DUP2 SWAP1 MSTORE SWAP1 SWAP4 SWAP3 PUSH1 0x0 JUMPDEST DUP3 DUP2 LT PUSH2 0x1570 JUMPI POP POP PUSH1 0x40 SWAP3 SWAP4 POP PUSH1 0x0 DUP4 DUP3 DUP5 ADD ADD MSTORE PUSH1 0x1F DUP1 NOT SWAP2 ADD AND ADD ADD SWAP1 JUMP JUMPDEST DUP2 DUP2 ADD DUP7 ADD MLOAD DUP5 DUP3 ADD PUSH1 0x40 ADD MSTORE DUP6 ADD PUSH2 0x154E JUMP JUMPDEST PUSH1 0x60 DUP2 ADD SWAP1 DUP2 LT PUSH1 0x1 PUSH1 0x1 PUSH1 0x40 SHL SUB DUP3 GT OR PUSH2 0x159F JUMPI PUSH1 0x40 MSTORE JUMP JUMPDEST PUSH4 0x4E487B71 PUSH1 0xE0 SHL PUSH1 0x0 MSTORE PUSH1 0x41 PUSH1 0x4 MSTORE PUSH1 0x24 PUSH1 0x0 REVERT JUMPDEST SWAP1 PUSH1 0x1F DUP1 NOT SWAP2 ADD AND DUP2 ADD SWAP1 DUP2 LT PUSH1 0x1 PUSH1 0x1 PUSH1 0x40 SHL SUB DUP3 GT OR PUSH2 0x159F JUMPI PUSH1 0x40 MSTORE JUMP JUMPDEST PUSH1 0x1 PUSH1 0x1 PUSH1 0x40 SHL SUB DUP2 GT PUSH2 0x159F JUMPI PUSH1 0x1F ADD PUSH1 0x1F NOT AND PUSH1 0x20 ADD SWAP1 JUMP JUMPDEST SWAP1 PUSH1 0x1 DUP3 DUP2 SHR SWAP3 AND DUP1 ISZERO PUSH2 0x1621 JUMPI JUMPDEST PUSH1 0x20 DUP4 LT EQ PUSH2 0x160B JUMPI JUMP JUMPDEST PUSH4 0x4E487B71 PUSH1 0xE0 SHL PUSH1 0x0 MSTORE PUSH1 0x22 PUSH1 0x4 MSTORE PUSH1 0x24 PUSH1 0x0 REVERT JUMPDEST SWAP2 PUSH1 0x7F AND SWAP2 PUSH2 0x1600 JUMP JUMPDEST ISZERO PUSH2 0x1632 JUMPI JUMP JUMPDEST PUSH1 0x40 MLOAD PUSH3 0x461BCD PUSH1 0xE5 SHL DUP2 MSTORE PUSH1 0x20 PUSH1 0x4 DUP3 ADD MSTORE PUSH1 0x24 DUP1 DUP3 ADD MSTORE PUSH32 0x41757468436F6E74726F6C3A2043616C6C6572206973206E6F7420746865206F PUSH1 0x44 DUP3 ADD MSTORE PUSH4 0x3BB732B9 PUSH1 0xE1 SHL PUSH1 0x64 DUP3 ADD MSTORE PUSH1 0x84 SWAP1 REVERT JUMPDEST SWAP1 PUSH1 0xFF DUP1 SWAP2 AND SWAP2 AND ADD SWAP1 PUSH1 0xFF DUP3 GT PUSH2 0x1697 JUMPI JUMP JUMPDEST PUSH4 0x4E487B71 PUSH1 0xE0 SHL PUSH1 0x0 MSTORE PUSH1 0x11 PUSH1 0x4 MSTORE PUSH1 0x24 PUSH1 0x0 REVERT JUMPDEST ISZERO PUSH2 0x16B4 JUMPI JUMP JUMPDEST PUSH1 0x40 MLOAD PUSH3 0x461BCD PUSH1 0xE5 SHL DUP2 MSTORE PUSH1 0x20 PUSH1 0x4 DUP3 ADD MSTORE PUSH1 0x10 PUSH1 0x24 DUP3 ADD MSTORE PUSH16 0x14185D5CD8589B194E881C185D5CD959 PUSH1 0x82 SHL PUSH1 0x44 DUP3 ADD MSTORE PUSH1 0x64 SWAP1 REVERT JUMPDEST RETURNDATASIZE ISZERO PUSH2 0x1717 JUMPI RETURNDATASIZE SWAP1 PUSH2 0x16FD DUP3 PUSH2 0x15D6 JUMP JUMPDEST SWAP2 PUSH2 0x170B PUSH1 0x40 MLOAD SWAP4 DUP5 PUSH2 0x15B5 JUMP JUMPDEST DUP3 MSTORE RETURNDATASIZE PUSH1 0x0 PUSH1 0x20 DUP5 ADD RETURNDATACOPY JUMP JUMPDEST PUSH1 0x60 SWAP1 JUMP JUMPDEST SWAP2 SWAP1 DUP3 SUB SWAP2 DUP3 GT PUSH2 0x1697 JUMPI JUMP JUMPDEST PUSH1 0x1 PUSH1 0x1 PUSH1 0xA0 SHL SUB SWAP1 SWAP2 AND DUP2 MSTORE PUSH1 0x20 DUP2 ADD SWAP2 SWAP1 SWAP2 MSTORE PUSH1 0x40 ADD SWAP1 JUMP JUMPDEST DUP2 DUP2 LT PUSH2 0x174F JUMPI POP POP JUMP JUMPDEST PUSH1 0x0 DUP2 SSTORE PUSH1 0x1 ADD PUSH2 0x1744 JUMP JUMPDEST CALLER PUSH1 0x0 SWAP1 DUP2 MSTORE PUSH1 0x0 DUP1 MLOAD PUSH1 0x20 PUSH2 0x234E DUP4 CODECOPY DUP2 MLOAD SWAP2 MSTORE PUSH1 0x20 MSTORE PUSH1 0x40 SWAP1 KECCAK256 SLOAD PUSH1 0xFF AND SWAP1 JUMP JUMPDEST DUP1 PUSH1 0x0 MSTORE PUSH1 0x5 PUSH1 0x20 MSTORE PUSH1 0x40 PUSH1 0x0 KECCAK256 CALLER PUSH1 0x0 MSTORE PUSH1 0x20 MSTORE PUSH1 0xFF PUSH1 0x40 PUSH1 0x0 KECCAK256 SLOAD AND ISZERO PUSH2 0x17A4 JUMPI POP JUMP JUMPDEST PUSH1 0x44 SWAP1 PUSH1 0x40 MLOAD SWAP1 PUSH4 0xE2517D3F PUSH1 0xE0 SHL DUP3 MSTORE CALLER PUSH1 0x4 DUP4 ADD MSTORE PUSH1 0x24 DUP3 ADD MSTORE REVERT JUMPDEST PUSH1 0x1 PUSH1 0x1 PUSH1 0xA0 SHL SUB AND PUSH1 0x0 DUP2 DUP2 MSTORE PUSH32 0x9F04F5809D5BE59813A33617D16F069CAAE874A6B34F03139F63D934DADDAE6 PUSH1 0x20 MSTORE PUSH1 0x40 DUP2 KECCAK256 SLOAD SWAP1 SWAP2 SWAP1 PUSH1 0x0 DUP1 MLOAD PUSH1 0x20 PUSH2 0x230E DUP4 CODECOPY DUP2 MLOAD SWAP2 MSTORE SWAP1 PUSH1 0xFF AND PUSH2 0x184C JUMPI DUP1 DUP4 MSTORE PUSH1 0x5 PUSH1 0x20 MSTORE PUSH1 0x40 DUP4 KECCAK256 DUP3 DUP5 MSTORE PUSH1 0x20 MSTORE PUSH1 0x40 DUP4 KECCAK256 PUSH1 0x1 PUSH1 0xFF NOT DUP3 SLOAD AND OR SWAP1 SSTORE PUSH1 0x0 DUP1 MLOAD PUSH1 0x20 PUSH2 0x22CE DUP4 CODECOPY DUP2 MLOAD SWAP2 MSTORE CALLER SWAP4 DUP1 LOG4 PUSH1 0x1 SWAP1 JUMP JUMPDEST POP POP SWAP1 JUMP JUMPDEST PUSH1 0x1 PUSH1 0x1 PUSH1 0xA0 SHL SUB AND PUSH1 0x0 DUP2 DUP2 MSTORE PUSH32 0x787F97F3270D439D97068E73D6D75A066B24F84C342661F177D4E43E00E9F513 PUSH1 0x20 MSTORE PUSH1 0x40 DUP2 KECCAK256 SLOAD SWAP1 SWAP2 SWAP1 PUSH1 0x0 DUP1 MLOAD PUSH1 0x20 PUSH2 0x22EE DUP4 CODECOPY DUP2 MLOAD SWAP2 MSTORE SWAP1 PUSH1 0xFF AND PUSH2 0x184C JUMPI DUP1 DUP4 MSTORE PUSH1 0x5 PUSH1 0x20 MSTORE PUSH1 0x40 DUP4 KECCAK256 DUP3 DUP5 MSTORE PUSH1 0x20 MSTORE PUSH1 0x40 DUP4 KECCAK256 PUSH1 0x1 PUSH1 0xFF NOT DUP3 SLOAD AND OR SWAP1 SSTORE PUSH1 0x0 DUP1 MLOAD PUSH1 0x20 PUSH2 0x22CE DUP4 CODECOPY DUP2 MLOAD SWAP2 MSTORE CALLER SWAP4 DUP1 LOG4 PUSH1 0x1 SWAP1 JUMP JUMPDEST PUSH1 0x1 PUSH1 0x1 PUSH1 0xA0 SHL SUB AND PUSH1 0x0 DUP2 DUP2 MSTORE PUSH1 0x0 DUP1 MLOAD PUSH1 0x20 PUSH2 0x234E DUP4 CODECOPY DUP2 MLOAD SWAP2 MSTORE PUSH1 0x20 MSTORE PUSH1 0x40 DUP2 KECCAK256 SLOAD SWAP1 SWAP2 SWAP1 PUSH1 0xFF AND PUSH2 0x1944 JUMPI DUP2 DUP1 MSTORE PUSH1 0x5 PUSH1 0x20 MSTORE PUSH1 0x40 DUP3 KECCAK256 DUP2 DUP4 MSTORE PUSH1 0x20 MSTORE PUSH1 0x40 DUP3 KECCAK256 PUSH1 0x1 PUSH1 0xFF NOT DUP3 SLOAD AND OR SWAP1 SSTORE CALLER SWAP2 PUSH1 0x0 DUP1 MLOAD PUSH1 0x20 PUSH2 0x22CE DUP4 CODECOPY DUP2 MLOAD SWAP2 MSTORE DUP2 DUP1 LOG4 PUSH1 0x1 SWAP1 JUMP JUMPDEST POP SWAP1 JUMP JUMPDEST SWAP1 PUSH1 0x0 SWAP2 DUP1 DUP4 MSTORE PUSH1 0x5 PUSH1 0x20 MSTORE PUSH1 0x40 DUP4 KECCAK256 SWAP2 PUSH1 0x1 DUP1 PUSH1 0xA0 SHL SUB AND SWAP2 DUP3 DUP5 MSTORE PUSH1 0x20 MSTORE PUSH1 0xFF PUSH1 0x40 DUP5 KECCAK256 SLOAD AND ISZERO PUSH1 0x0 EQ PUSH2 0x184C JUMPI DUP1 DUP4 MSTORE PUSH1 0x5 PUSH1 0x20 MSTORE PUSH1 0x40 DUP4 KECCAK256 DUP3 DUP5 MSTORE PUSH1 0x20 MSTORE PUSH1 0x40 DUP4 KECCAK256 PUSH1 0x1 PUSH1 0xFF NOT DUP3 SLOAD AND OR SWAP1 SSTORE PUSH1 0x0 DUP1 MLOAD PUSH1 0x20 PUSH2 0x22CE DUP4 CODECOPY DUP2 MLOAD SWAP2 MSTORE CALLER SWAP4 DUP1 LOG4 PUSH1 0x1 SWAP1 JUMP JUMPDEST PUSH1 0x1 PUSH1 0x1 PUSH1 0xA0 SHL SUB AND PUSH1 0x0 DUP2 DUP2 MSTORE PUSH32 0x787F97F3270D439D97068E73D6D75A066B24F84C342661F177D4E43E00E9F513 PUSH1 0x20 MSTORE PUSH1 0x40 DUP2 KECCAK256 SLOAD SWAP1 SWAP2 SWAP1 PUSH1 0x0 DUP1 MLOAD PUSH1 0x20 PUSH2 0x22EE DUP4 CODECOPY DUP2 MLOAD SWAP2 MSTORE SWAP1 PUSH1 0xFF AND ISZERO PUSH2 0x184C JUMPI DUP1 DUP4 MSTORE PUSH1 0x5 PUSH1 0x20 MSTORE PUSH1 0x40 DUP4 KECCAK256 DUP3 DUP5 MSTORE PUSH1 0x20 MSTORE PUSH1 0x40 DUP4 KECCAK256 PUSH1 0xFF NOT DUP2 SLOAD AND SWAP1 SSTORE PUSH1 0x0 DUP1 MLOAD PUSH1 0x20 PUSH2 0x232E DUP4 CODECOPY DUP2 MLOAD SWAP2 MSTORE CALLER SWAP4 DUP1 LOG4 PUSH1 0x1 SWAP1 JUMP JUMPDEST PUSH1 0x1 PUSH1 0x1 PUSH1 0xA0 SHL SUB AND PUSH1 0x0 DUP2 DUP2 MSTORE PUSH32 0x9F04F5809D5BE59813A33617D16F069CAAE874A6B34F03139F63D934DADDAE6 PUSH1 0x20 MSTORE PUSH1 0x40 DUP2 KECCAK256 SLOAD SWAP1 SWAP2 SWAP1 PUSH1 0x0 DUP1 MLOAD PUSH1 0x20 PUSH2 0x230E DUP4 CODECOPY DUP2 MLOAD SWAP2 MSTORE SWAP1 PUSH1 0xFF AND ISZERO PUSH2 0x184C JUMPI DUP1 DUP4 MSTORE PUSH1 0x5 PUSH1 0x20 MSTORE PUSH1 0x40 DUP4 KECCAK256 DUP3 DUP5 MSTORE PUSH1 0x20 MSTORE PUSH1 0x40 DUP4 KECCAK256 PUSH1 0xFF NOT DUP2 SLOAD AND SWAP1 SSTORE PUSH1 0x0 DUP1 MLOAD PUSH1 0x20 PUSH2 0x232E DUP4 CODECOPY DUP2 MLOAD SWAP2 MSTORE CALLER SWAP4 DUP1 LOG4 PUSH1 0x1 SWAP1 JUMP JUMPDEST PUSH1 0x1 PUSH1 0x1 PUSH1 0xA0 SHL SUB AND PUSH1 0x0 DUP2 DUP2 MSTORE PUSH1 0x0 DUP1 MLOAD PUSH1 0x20 PUSH2 0x234E DUP4 CODECOPY DUP2 MLOAD SWAP2 MSTORE PUSH1 0x20 MSTORE PUSH1 0x40 DUP2 KECCAK256 SLOAD SWAP1 SWAP2 SWAP1 PUSH1 0xFF AND ISZERO PUSH2 0x1944 JUMPI DUP2 DUP1 MSTORE PUSH1 0x5 PUSH1 0x20 MSTORE PUSH1 0x40 DUP3 KECCAK256 DUP2 DUP4 MSTORE PUSH1 0x20 MSTORE PUSH1 0x40 DUP3 KECCAK256 PUSH1 0xFF NOT DUP2 SLOAD AND SWAP1 SSTORE CALLER SWAP2 PUSH1 0x0 DUP1 MLOAD PUSH1 0x20 PUSH2 0x232E DUP4 CODECOPY DUP2 MLOAD SWAP2 MSTORE DUP2 DUP1 LOG4 PUSH1 0x1 SWAP1 JUMP JUMPDEST SWAP1 PUSH1 0x0 SWAP2 DUP1 DUP4 MSTORE PUSH1 0x5 PUSH1 0x20 MSTORE PUSH1 0x40 DUP4 KECCAK256 SWAP2 PUSH1 0x1 DUP1 PUSH1 0xA0 SHL SUB AND SWAP2 DUP3 DUP5 MSTORE PUSH1 0x20 MSTORE PUSH1 0xFF PUSH1 0x40 DUP5 KECCAK256 SLOAD AND PUSH1 0x0 EQ PUSH2 0x184C JUMPI DUP1 DUP4 MSTORE PUSH1 0x5 PUSH1 0x20 MSTORE PUSH1 0x40 DUP4 KECCAK256 DUP3 DUP5 MSTORE PUSH1 0x20 MSTORE PUSH1 0x40 DUP4 KECCAK256 PUSH1 0xFF NOT DUP2 SLOAD AND SWAP1 SSTORE PUSH1 0x0 DUP1 MLOAD PUSH1 0x20 PUSH2 0x232E DUP4 CODECOPY DUP2 MLOAD SWAP2 MSTORE CALLER SWAP4 DUP1 LOG4 PUSH1 0x1 SWAP1 JUMP JUMPDEST SWAP1 DUP2 PUSH1 0x20 SWAP2 SUB SLT PUSH2 0x1520 JUMPI MLOAD DUP1 ISZERO ISZERO DUP2 SUB PUSH2 0x1520 JUMPI SWAP1 JUMP JUMPDEST DUP2 ISZERO PUSH2 0x1BAF JUMPI MOD SWAP1 JUMP JUMPDEST PUSH4 0x4E487B71 PUSH1 0xE0 SHL PUSH1 0x0 MSTORE PUSH1 0x12 PUSH1 0x4 MSTORE PUSH1 0x24 PUSH1 0x0 REVERT JUMPDEST SWAP2 SWAP1 PUSH1 0x0 SWAP2 DUP4 DUP4 MSTORE PUSH1 0x20 SWAP2 PUSH1 0x7 DUP4 MSTORE PUSH1 0x40 DUP1 DUP6 KECCAK256 SWAP4 PUSH1 0xFF SWAP7 DUP8 PUSH1 0x2 DUP8 ADD SLOAD PUSH1 0xA0 SHR AND ISZERO PUSH2 0x1D88 JUMPI DUP7 MSTORE PUSH1 0x7 DUP2 MSTORE DUP2 DUP7 KECCAK256 PUSH1 0x2 DUP2 ADD DUP1 SLOAD PUSH1 0xFF PUSH1 0xA8 SHL NOT AND PUSH1 0x1 PUSH1 0xA8 SHL OR SWAP1 SSTORE DUP4 SWAP1 SSTORE PUSH1 0x8 SLOAD DUP3 MLOAD PUSH4 0x9AA19DA7 PUSH1 0xE0 SHL DUP2 MSTORE PUSH1 0x4 SWAP7 SWAP2 DUP4 SWAP1 DUP3 SWAP1 DUP10 SWAP1 DUP3 SWAP1 PUSH1 0x1 PUSH1 0x1 PUSH1 0xA0 SHL SUB AND GAS STATICCALL SWAP1 DUP2 ISZERO PUSH2 0x1D7E JUMPI DUP9 SWAP2 PUSH2 0x1D51 JUMPI JUMPDEST POP ISZERO PUSH2 0x1D40 JUMPI PUSH1 0x64 DUP5 SWAP6 SWAP5 MOD SWAP4 PUSH1 0x5 SWAP1 JUMPDEST DUP10 DUP3 AND SWAP3 DUP4 ISZERO PUSH2 0x1D1A JUMPI PUSH1 0x0 NOT DUP5 ADD SWAP4 DUP5 GT SWAP8 DUP11 SWAP8 DUP9 DUP11 JUMPDEST PUSH2 0x1CA5 JUMPI DUP14 SWAP1 DUP14 DUP3 DUP13 AND DUP10 DUP2 GT PUSH2 0x1CB8 JUMPI DUP12 DUP3 DUP6 SWAP3 PUSH2 0x1C92 SWAP6 SWAP5 MSTORE PUSH1 0xF DUP14 MSTORE KECCAK256 SLOAD AND SWAP1 PUSH2 0x1683 JUMP JUMPDEST SWAP10 AND DUP14 DUP2 EQ PUSH2 0x1CA5 JUMPI PUSH1 0x1 ADD SWAP9 DUP11 PUSH2 0x1C6A JUMP JUMPDEST PUSH4 0x4E487B71 PUSH1 0xE0 SHL DUP14 MSTORE PUSH1 0x11 DUP13 MSTORE PUSH1 0x24 DUP14 REVERT JUMPDEST POP POP SWAP2 SWAP11 POP SWAP4 SWAP5 SWAP3 SWAP6 POP DUP4 SWAP2 SWAP9 POP AND DUP9 LT ISZERO PUSH2 0x1CF6 JUMPI JUMPDEST AND DUP1 ISZERO PUSH2 0x1CE3 JUMPI SWAP5 SWAP6 SWAP5 PUSH1 0x0 NOT ADD SWAP1 PUSH2 0x1C52 JUMP JUMPDEST PUSH4 0x4E487B71 PUSH1 0xE0 SHL DUP10 MSTORE PUSH1 0x11 DUP9 MSTORE PUSH1 0x24 DUP10 REVERT JUMPDEST SWAP1 POP PUSH2 0x1D03 DUP7 DUP3 DUP6 PUSH2 0x21C0 JUMP JUMPDEST PUSH2 0x1D0E JUMPI DUP10 SWAP1 PUSH2 0x1CCF JUMP JUMPDEST POP SWAP8 POP POP POP POP POP POP POP POP JUMP JUMPDEST SWAP9 POP SWAP9 POP POP POP POP POP POP PUSH2 0x1D2E SWAP2 POP DUP3 PUSH2 0x1FCA JUMP JUMPDEST PUSH2 0x1D3D JUMPI PUSH2 0x1D3B SWAP1 PUSH2 0x1DC5 JUMP JUMPDEST JUMP JUMPDEST POP JUMP JUMPDEST SWAP5 POP POP POP POP SWAP3 POP PUSH2 0x1D3B SWAP2 POP PUSH2 0x1DC5 JUMP JUMPDEST PUSH2 0x1D71 SWAP2 POP DUP4 RETURNDATASIZE DUP6 GT PUSH2 0x1D77 JUMPI JUMPDEST PUSH2 0x1D69 DUP2 DUP4 PUSH2 0x15B5 JUMP JUMPDEST DUP2 ADD SWAP1 PUSH2 0x1B8D JUMP JUMPDEST CODESIZE PUSH2 0x1C41 JUMP JUMPDEST POP RETURNDATASIZE PUSH2 0x1D5F JUMP JUMPDEST DUP5 MLOAD RETURNDATASIZE DUP11 DUP3 RETURNDATACOPY RETURNDATASIZE SWAP1 REVERT JUMPDEST DUP3 MLOAD PUSH4 0x92B81979 PUSH1 0xE0 SHL DUP2 MSTORE PUSH1 0x4 SWAP1 REVERT JUMPDEST SWAP2 SWAP1 SWAP2 PUSH1 0x40 PUSH4 0xFFFFFFFF DUP2 PUSH1 0x60 DUP5 ADD SWAP6 PUSH2 0xFFFF DUP1 DUP3 MLOAD AND DUP7 MSTORE PUSH1 0x20 DUP3 ADD MLOAD AND PUSH1 0x20 DUP7 ADD MSTORE ADD MLOAD AND SWAP2 ADD MSTORE JUMP JUMPDEST PUSH1 0x9 SLOAD PUSH1 0x40 DUP1 MLOAD SWAP1 SWAP4 SWAP3 PUSH1 0x1 PUSH1 0x1 PUSH1 0xA0 SHL SUB SWAP3 DUP4 AND SWAP2 SWAP1 PUSH1 0x1 PUSH1 0x1 PUSH1 0x40 SHL SUB SWAP1 DUP3 DUP8 ADD DUP3 DUP2 GT DUP5 DUP3 LT OR PUSH2 0x159F JUMPI DUP8 MSTORE PUSH1 0x0 SWAP5 DUP6 DUP5 MSTORE PUSH1 0x20 SWAP5 DUP7 DUP7 DUP7 ADD MSTORE DUP9 MLOAD SWAP4 PUSH1 0x80 DUP6 ADD SWAP1 DUP6 DUP3 LT SWAP1 DUP3 GT OR PUSH2 0x1FB6 JUMPI SWAP4 DUP7 SWAP2 SWAP6 SWAP5 DUP11 MSTORE DUP8 PUSH1 0x1 SWAP7 DUP8 DUP4 MSTORE DUP8 DUP5 DUP5 ADD MSTORE DUP8 DUP13 DUP5 ADD MSTORE DUP8 PUSH1 0x60 DUP5 ADD MSTORE DUP12 MLOAD SWAP7 DUP8 SWAP4 PUSH4 0x912B431B PUSH1 0xE0 SHL DUP6 MSTORE PUSH1 0x4 SWAP2 DUP5 PUSH1 0x4 DUP8 ADD MSTORE PUSH1 0x24 DUP7 ADD DUP12 DUP7 SWAP2 JUMPDEST PUSH1 0x2 DUP4 LT PUSH2 0x1F8F JUMPI POP POP POP POP PUSH1 0x64 DUP6 ADD SWAP1 DUP11 DUP6 SWAP3 JUMPDEST DUP5 DUP5 LT PUSH2 0x1F6F JUMPI POP POP POP POP POP PUSH2 0x124 SWAP2 DUP4 SWAP2 PUSH2 0x100 PUSH1 0xE4 DUP5 ADD MSTORE DUP2 PUSH2 0x104 DUP5 ADD MSTORE GAS CALL SWAP3 DUP4 ISZERO PUSH2 0x1F65 JUMPI SWAP1 DUP6 SWAP4 SWAP3 SWAP2 DUP8 SWAP4 PUSH2 0x1F30 JUMPI JUMPDEST POP DUP3 PUSH2 0x1ECF SWAP6 DUP4 ADD SSTORE PUSH1 0x2 DUP2 PUSH1 0x9 SLOAD AND SWAP3 ADD SLOAD AND DUP7 DUP10 MLOAD DUP1 SWAP7 DUP2 SWAP6 DUP3 SWAP5 PUSH4 0x48DBCEF PUSH1 0xE4 SHL DUP5 MSTORE PUSH1 0x4 DUP5 ADD PUSH2 0x1729 JUMP JUMPDEST SUB SWAP3 GAS CALL SWAP5 DUP6 ISZERO PUSH2 0x1F27 JUMPI POP PUSH32 0xDD20B2DFF2D53EF41435AD0074AEA6E1CE693777FCC9EA8E76C76A8F3607DD21 SWAP4 SWAP5 PUSH2 0x1F09 JUMPI JUMPDEST POP POP DUP1 LOG1 JUMP JUMPDEST DUP2 PUSH2 0x1F1F SWAP3 SWAP1 RETURNDATASIZE LT PUSH2 0x1D77 JUMPI PUSH2 0x1D69 DUP2 DUP4 PUSH2 0x15B5 JUMP JUMPDEST POP CODESIZE DUP1 PUSH2 0x1F03 JUMP JUMPDEST MLOAD RETURNDATASIZE DUP5 DUP3 RETURNDATACOPY RETURNDATASIZE SWAP1 REVERT JUMPDEST DUP5 DUP2 SWAP4 SWAP6 SWAP3 SWAP5 POP RETURNDATASIZE DUP4 GT PUSH2 0x1F5E JUMPI JUMPDEST PUSH2 0x1F49 DUP2 DUP4 PUSH2 0x15B5 JUMP JUMPDEST DUP2 ADD SUB SLT PUSH2 0x11A1 JUMPI MLOAD DUP5 SWAP3 SWAP1 SWAP2 PUSH2 0x1ECF PUSH2 0x1E9F JUMP JUMPDEST POP RETURNDATASIZE PUSH2 0x1F3F JUMP JUMPDEST DUP9 MLOAD RETURNDATASIZE DUP9 DUP3 RETURNDATACOPY RETURNDATASIZE SWAP1 REVERT JUMPDEST DUP3 MLOAD PUSH1 0xFF AND DUP2 MSTORE DUP14 SWAP9 DUP13 SWAP9 POP DUP16 SWAP8 POP SWAP4 SWAP1 SWAP2 ADD SWAP3 SWAP2 DUP3 ADD SWAP2 DUP13 SWAP2 ADD PUSH2 0x1E69 JUMP JUMPDEST SWAP1 SWAP4 SWAP7 POP DUP9 SWAP3 SWAP6 SWAP9 SWAP2 SWAP5 SWAP8 POP PUSH1 0xFF DUP7 MLOAD AND DUP2 MSTORE ADD SWAP4 ADD SWAP2 ADD SWAP3 DUP9 SWAP5 SWAP2 DUP13 SWAP5 DUP12 DUP14 SWAP9 SWAP6 PUSH2 0x1E54 JUMP JUMPDEST PUSH4 0x4E487B71 PUSH1 0xE0 SHL DUP9 MSTORE PUSH1 0x41 PUSH1 0x4 MSTORE PUSH1 0x24 DUP9 REVERT JUMPDEST SWAP2 SWAP1 PUSH1 0x0 SWAP3 DUP4 DUP1 MSTORE PUSH1 0x20 PUSH1 0xF DUP2 MSTORE PUSH1 0x40 SWAP3 PUSH1 0xFF DUP5 DUP8 KECCAK256 SLOAD AND PUSH2 0x1FED JUMPI JUMPDEST POP POP POP POP JUMP JUMPDEST PUSH1 0x8 SLOAD DUP5 MLOAD PUSH4 0x94CA6449 PUSH1 0xE0 SHL DUP2 MSTORE PUSH1 0x4 DUP2 ADD DUP9 SWAP1 MSTORE PUSH1 0x1 PUSH1 0x1 PUSH1 0xA0 SHL SUB SWAP3 SWAP2 DUP9 SWAP1 DUP3 SWAP1 PUSH1 0x24 SWAP1 DUP3 SWAP1 DUP8 AND GAS STATICCALL SWAP2 DUP3 ISZERO PUSH2 0x20EE JUMPI DUP9 SWAP2 DUP10 SWAP4 PUSH2 0x210C JUMPI JUMPDEST POP DUP2 PUSH2 0x2038 JUMPI POP POP POP PUSH2 0x1FE7 JUMP JUMPDEST SWAP1 PUSH2 0x2042 SWAP2 PUSH2 0x1BA5 JUMP JUMPDEST DUP2 MLOAD DUP2 LT ISZERO PUSH2 0x20F8 JUMPI SWAP1 DUP4 SWAP2 PUSH1 0x5 SHL ADD ADD MLOAD PUSH2 0x208A DUP4 PUSH1 0x1 DUP7 ADD SWAP3 DUP1 DUP5 SSTORE PUSH1 0x2 DUP6 PUSH1 0x9 SLOAD AND SWAP8 ADD SWAP7 DUP6 DUP9 SLOAD AND DUP12 DUP11 MLOAD DUP1 SWAP7 DUP2 SWAP6 DUP3 SWAP5 PUSH4 0x48DBCEF PUSH1 0xE4 SHL DUP5 MSTORE PUSH1 0x4 DUP5 ADD PUSH2 0x1729 JUMP JUMPDEST SUB SWAP3 GAS CALL DUP1 ISZERO PUSH2 0x20EE JUMPI PUSH32 0x5EA50D72ED96185EB6F31884978FAE6836EA30BA583E3FB7C32B66135514723C SWAP8 SWAP9 POP PUSH2 0x20D1 JUMPI JUMPDEST POP SLOAD SWAP3 SLOAD AND SWAP1 DUP4 MLOAD SWAP3 DUP4 MSTORE DUP3 ADD MSTORE LOG1 PUSH1 0x1 SWAP1 JUMP JUMPDEST PUSH2 0x20E7 SWAP1 DUP5 RETURNDATASIZE DUP7 GT PUSH2 0x1D77 JUMPI PUSH2 0x1D69 DUP2 DUP4 PUSH2 0x15B5 JUMP JUMPDEST POP CODESIZE PUSH2 0x20BD JUMP JUMPDEST DUP7 MLOAD RETURNDATASIZE DUP11 DUP3 RETURNDATACOPY RETURNDATASIZE SWAP1 REVERT JUMPDEST PUSH4 0x4E487B71 PUSH1 0xE0 SHL DUP9 MSTORE PUSH1 0x32 PUSH1 0x4 MSTORE PUSH1 0x24 DUP9 REVERT JUMPDEST SWAP2 POP SWAP2 POP RETURNDATASIZE DUP1 DUP10 DUP4 RETURNDATACOPY PUSH2 0x211F DUP2 DUP4 PUSH2 0x15B5 JUMP JUMPDEST DUP2 ADD DUP7 DUP3 DUP3 SUB SLT PUSH2 0x21BC JUMPI DUP2 MLOAD SWAP1 DUP6 DUP4 ADD MLOAD PUSH1 0x1 PUSH1 0x1 PUSH1 0x40 SHL SUB SWAP4 DUP5 DUP3 GT PUSH2 0x1195 JUMPI ADD DUP2 PUSH1 0x1F DUP3 ADD SLT ISZERO PUSH2 0x21B8 JUMPI DUP1 MLOAD SWAP4 DUP5 GT PUSH2 0x21A4 JUMPI DUP4 PUSH1 0x5 SHL SWAP1 DUP10 MLOAD SWAP5 PUSH2 0x216A DUP10 DUP5 ADD DUP8 PUSH2 0x15B5 JUMP JUMPDEST DUP6 MSTORE DUP8 DUP1 DUP7 ADD SWAP3 DUP3 ADD ADD SWAP3 DUP4 GT PUSH2 0x1195 JUMPI DUP8 DUP1 SWAP2 ADD SWAP2 JUMPDEST DUP4 DUP4 LT PUSH2 0x2194 JUMPI POP POP POP POP SWAP1 SWAP2 CODESIZE PUSH2 0x202A JUMP JUMPDEST DUP3 MLOAD DUP2 MSTORE SWAP2 DUP2 ADD SWAP2 DUP9 SWAP2 ADD PUSH2 0x2181 JUMP JUMPDEST PUSH4 0x4E487B71 PUSH1 0xE0 SHL DUP12 MSTORE PUSH1 0x41 PUSH1 0x4 MSTORE PUSH1 0x24 DUP12 REVERT JUMPDEST DUP11 DUP1 REVERT JUMPDEST DUP9 DUP1 REVERT JUMPDEST SWAP3 SWAP2 SWAP1 PUSH1 0xFF AND SWAP3 PUSH1 0x0 SWAP4 DUP1 DUP6 MSTORE PUSH1 0x20 SWAP1 PUSH1 0xF DUP3 MSTORE PUSH1 0x40 SWAP4 PUSH1 0xFF DUP6 DUP9 KECCAK256 SLOAD AND PUSH2 0x21EA JUMPI JUMPDEST POP POP POP POP POP JUMP JUMPDEST PUSH1 0x8 SLOAD DUP6 MLOAD PUSH4 0x94CA6449 PUSH1 0xE0 SHL DUP2 MSTORE PUSH1 0x4 DUP2 ADD SWAP4 SWAP1 SWAP4 MSTORE PUSH1 0x1 PUSH1 0x1 PUSH1 0xA0 SHL SUB SWAP3 SWAP1 DUP9 SWAP1 DUP3 SWAP1 PUSH1 0x24 SWAP1 DUP3 SWAP1 DUP8 AND GAS STATICCALL SWAP2 DUP3 ISZERO PUSH2 0x20EE JUMPI DUP9 SWAP2 DUP10 SWAP4 PUSH2 0x2235 JUMPI JUMPDEST POP DUP2 PUSH2 0x2038 JUMPI POP POP PUSH2 0x21E3 JUMP JUMPDEST SWAP2 POP SWAP2 POP RETURNDATASIZE DUP1 DUP10 DUP4 RETURNDATACOPY PUSH2 0x2248 DUP2 DUP4 PUSH2 0x15B5 JUMP JUMPDEST DUP2 ADD DUP7 DUP3 DUP3 SUB SLT PUSH2 0x21BC JUMPI DUP2 MLOAD SWAP1 DUP6 DUP4 ADD MLOAD PUSH1 0x1 PUSH1 0x1 PUSH1 0x40 SHL SUB SWAP4 DUP5 DUP3 GT PUSH2 0x1195 JUMPI ADD DUP2 PUSH1 0x1F DUP3 ADD SLT ISZERO PUSH2 0x21B8 JUMPI DUP1 MLOAD SWAP4 DUP5 GT PUSH2 0x21A4 JUMPI DUP4 PUSH1 0x5 SHL SWAP1 DUP10 MLOAD SWAP5 PUSH2 0x2293 DUP10 DUP5 ADD DUP8 PUSH2 0x15B5 JUMP JUMPDEST DUP6 MSTORE DUP8 DUP1 DUP7 ADD SWAP3 DUP3 ADD ADD SWAP3 DUP4 GT PUSH2 0x1195 JUMPI DUP8 DUP1 SWAP2 ADD SWAP2 JUMPDEST DUP4 DUP4 LT PUSH2 0x22BD JUMPI POP POP POP POP SWAP1 SWAP2 CODESIZE PUSH2 0x2228 JUMP JUMPDEST DUP3 MLOAD DUP2 MSTORE SWAP2 DUP2 ADD SWAP2 DUP9 SWAP2 ADD PUSH2 0x22AA JUMP INVALID 0x2F DUP8 DUP9 GT PUSH31 0x7EFF1D82E926EC794901D17C78024A50270940304540A733656F0DFCB9FCBF 0xA8 EXTCODESIZE DUP10 PUSH32 0xB2D5CF4B58962164105C1E71489A37EF3AE0DB3FDCE576F6DF8B4C520FFE197C MSTORE8 NUMBER 0xC6 CREATE2 0xAE 0xC5 SWAP6 PUSH17 0x151EF9A492F2C624FD45DDDE6135EC42F6 CODECOPY 0x1F TLOAD ORIGIN 0xD9 0xC6 SWAP14 0x2A SELFBALANCE 0xEA PUSH8 0xB442974B53935D1 0xED 0xC7 REVERT PUSH5 0xEB21E047A8 CODECOPY OR SHL SDIV 0xB8 0xCC 0xBB SWAP14 0x4D DUP16 0xB1 PUSH15 0xA74CE3C29A41F1B461FBDAFF4714A0 0xD9 0xA8 0xEB SDIV BLOBHASH SWAP8 CHAINID 0xBC LOG2 PUSH5 0x6970667358 0x22 SLT KECCAK256 0xAB LOG3 DUP15 0xBA LOG4 SWAP6 0xC8 0xA8 ISZERO PUSH24 0xDD56E4192245BFC98744C9605320157785C67B924F1A6473 PUSH16 0x6C634300081900330000000000000000 "},"methodIdentifiers":{"ADMIN_ROLE()":"75b238fc","DEFAULT_ADMIN_ROLE()":"a217fddf","DIVIDER()":"62043bd8","PAUSE_ROLE()":"389ed267","addAdmin(address)":"70480275","addPauser(address)":"82dc1ec4","aliveImplementation(address)":"550d01a3","getCallbackGasLimit()":"de8be8e7","getGemFactoryAddress()":"9d541be2","getPaused()":"6805b84b","getPerfectCommonGemURI()":"15c01616","getRandomPackFees()":"184fa84f","getRequestCount()":"3fad1834","getRoleAdmin(bytes32)":"248a9ca3","getTreasuryAddress()":"e0024604","grantRole(bytes32,address)":"2f2ff15d","hasRole(bytes32,address)":"91d14854","initialize(address,address,address,uint256)":"cf756fdf","isAdmin(address)":"24d7806c","isOwner()":"8f32d59b","isPauser(address)":"46fbf68e","onERC721Received(address,address,uint256,bytes)":"150b7a02","pause()":"8456cb59","pauseProxy()":"63a8fd89","proxyImplementation(uint256)":"b911135f","rawFulfillRandomWords(uint256,uint256)":"37ed11db","removeAdmin()":"9a202d47","removePauser(address)":"6b2c0f55","renounceRole(bytes32,address)":"36568abe","requestRandomGem()":"3db8df98","revokeRole(bytes32,address)":"d547741f","s_requests(uint256)":"a168fa89","selectorImplementation(bytes4)":"50d2a276","setCallbackGasLimit(uint32)":"a4eb718c","setGemFactory(address)":"e6147518","setPerfectCommonGemURI(string)":"6ecd19cb","setProbabilities(uint8,uint8,uint8,uint8,uint8,uint8)":"3be7bcbf","setRandomPackFees(uint256)":"25b5b3b2","setTreasury(address)":"f0f44260","supportsInterface(bytes4)":"01ffc9a7","transferOwnership(address)":"f2fde38b","unpause()":"3f4ba83a"}}}}}