{"src/L2/GemFactoryStorage.sol":{"GemFactoryStorage":{"abi":[{"inputs":[],"name":"AddressZero","type":"error"},{"inputs":[],"name":"ColorNotExist","type":"error"},{"inputs":[],"name":"ContractNotPaused","type":"error"},{"inputs":[],"name":"ContractPaused","type":"error"},{"inputs":[],"name":"CooldownPeriodNotElapsed","type":"error"},{"inputs":[],"name":"FailedToSendEthBack","type":"error"},{"inputs":[],"name":"GemAlreadyPicked","type":"error"},{"inputs":[],"name":"GemIsLocked","type":"error"},{"inputs":[],"name":"GemIsNotLocked","type":"error"},{"inputs":[{"internalType":"uint8","name":"quadrant","type":"uint8"},{"internalType":"uint8","name":"value","type":"uint8"}],"name":"InvalidQuadrant","type":"error"},{"inputs":[],"name":"InvalidSumOfQuadrants","type":"error"},{"inputs":[],"name":"MiningPeriodNotElapsed","type":"error"},{"inputs":[],"name":"MismatchedArrayLengths","type":"error"},{"inputs":[{"internalType":"uint8","name":"quadrantIndex","type":"uint8"},{"internalType":"uint8","name":"expectedValue1","type":"uint8"},{"internalType":"uint8","name":"expectedValue2","type":"uint8"}],"name":"NewGemInvalidQuadrant","type":"error"},{"inputs":[],"name":"NoMiningTryLeft","type":"error"},{"inputs":[],"name":"NotGemOwner","type":"error"},{"inputs":[],"name":"NotMining","type":"error"},{"inputs":[],"name":"RequestNotMade","type":"error"},{"inputs":[],"name":"SameSenderAndRecipient","type":"error"},{"inputs":[{"internalType":"uint8","name":"sum","type":"uint8"},{"internalType":"string","name":"rarity","type":"string"}],"name":"SumOfQuadrantsTooHigh","type":"error"},{"inputs":[],"name":"TransferFailed","type":"error"},{"inputs":[{"internalType":"uint256","name":"tokenId","type":"uint256"}],"name":"URIQueryForNonexistentToken","type":"error"},{"inputs":[{"internalType":"address","name":"caller","type":"address"}],"name":"UnauthorizedCaller","type":"error"},{"inputs":[],"name":"WrongRarity","type":"error"},{"anonymous":false,"inputs":[{"indexed":true,"internalType":"uint8","name":"id","type":"uint8"},{"indexed":false,"internalType":"string","name":"backgroundColor","type":"string"}],"name":"BackgroundColorAdded","type":"event"},{"anonymous":false,"inputs":[{"indexed":true,"internalType":"uint8","name":"id","type":"uint8"},{"indexed":false,"internalType":"string","name":"color","type":"string"}],"name":"ColorAdded","type":"event"},{"anonymous":false,"inputs":[{"indexed":false,"internalType":"uint8","name":"color_0","type":"uint8"},{"indexed":false,"internalType":"uint8","name":"color_1","type":"uint8"}],"name":"ColorValidated","type":"event"},{"anonymous":false,"inputs":[{"indexed":false,"internalType":"uint256","name":"gemCount","type":"uint256"},{"indexed":false,"internalType":"uint256[]","name":"tokenIds","type":"uint256[]"}],"name":"CountGemsByQuadrant","type":"event"},{"anonymous":false,"inputs":[{"indexed":true,"internalType":"uint256","name":"tokenId","type":"uint256"},{"indexed":false,"internalType":"enum GemFactoryStorage.Rarity","name":"rarity","type":"uint8"},{"indexed":false,"internalType":"uint8[2]","name":"color","type":"uint8[2]"},{"indexed":false,"internalType":"uint8","name":"miningTry","type":"uint8"},{"indexed":false,"internalType":"uint256","name":"value","type":"uint256"},{"indexed":false,"internalType":"uint8[4]","name":"quadrants","type":"uint8[4]"},{"indexed":false,"internalType":"uint32","name":"miningPeriod","type":"uint32"},{"indexed":false,"internalType":"uint256","name":"cooldownDueDate","type":"uint256"},{"indexed":false,"internalType":"string","name":"tokenURI","type":"string"},{"indexed":false,"internalType":"address","name":"owner","type":"address"}],"name":"Created","type":"event"},{"anonymous":false,"inputs":[{"indexed":false,"internalType":"uint256","name":"amount","type":"uint256"}],"name":"EthSentBack","type":"event"},{"anonymous":false,"inputs":[{"indexed":false,"internalType":"address","name":"gemOwner","type":"address"},{"indexed":false,"internalType":"uint256[]","name":"gemsTokenIds","type":"uint256[]"},{"indexed":false,"internalType":"uint256","name":"newGemCreatedId","type":"uint256"},{"indexed":false,"internalType":"enum GemFactoryStorage.Rarity","name":"newRarity","type":"uint8"},{"indexed":false,"internalType":"uint8[4]","name":"forgedQuadrants","type":"uint8[4]"},{"indexed":false,"internalType":"uint8[2]","name":"color","type":"uint8[2]"},{"indexed":false,"internalType":"uint256","name":"newValue","type":"uint256"}],"name":"GemForged","type":"event"},{"anonymous":false,"inputs":[{"indexed":false,"internalType":"uint256","name":"_tokenId","type":"uint256"},{"indexed":false,"internalType":"address","name":"_from","type":"address"}],"name":"GemMelted","type":"event"},{"anonymous":false,"inputs":[{"indexed":false,"internalType":"uint256","name":"tokenId","type":"uint256"},{"indexed":false,"internalType":"uint256","name":"minedGemCooldownDueDate","type":"uint256"},{"indexed":false,"internalType":"address","name":"miner","type":"address"}],"name":"GemMiningClaimed","type":"event"},{"anonymous":false,"inputs":[{"indexed":false,"internalType":"uint256","name":"tokenId","type":"uint256"},{"indexed":false,"internalType":"address","name":"miner","type":"address"},{"indexed":false,"internalType":"uint256","name":"startMiningTime","type":"uint256"},{"indexed":false,"internalType":"uint256","name":"newminingTry","type":"uint256"}],"name":"GemMiningStarted","type":"event"},{"anonymous":false,"inputs":[{"indexed":false,"internalType":"uint32","name":"RareGemsCooldownPeriod","type":"uint32"},{"indexed":false,"internalType":"uint32","name":"UniqueGemsCooldownPeriod","type":"uint32"},{"indexed":false,"internalType":"uint32","name":"EpicGemsCooldownPeriod","type":"uint32"},{"indexed":false,"internalType":"uint32","name":"LegendaryGemsCooldownPeriod","type":"uint32"},{"indexed":false,"internalType":"uint32","name":"MythicGemsCooldownPeriod","type":"uint32"}],"name":"GemsCoolDownPeriodModified","type":"event"},{"anonymous":false,"inputs":[{"indexed":false,"internalType":"uint32","name":"RareGemsMiningPeriod","type":"uint32"},{"indexed":false,"internalType":"uint32","name":"UniqueGemsMiningPeriod","type":"uint32"},{"indexed":false,"internalType":"uint32","name":"EpicGemsMiningPeriod","type":"uint32"},{"indexed":false,"internalType":"uint32","name":"LegendaryGemsMiningPeriod","type":"uint32"},{"indexed":false,"internalType":"uint32","name":"MythicGemsMiningPeriod","type":"uint32"}],"name":"GemsMiningPeriodModified","type":"event"},{"anonymous":false,"inputs":[{"indexed":false,"internalType":"uint8","name":"RareGemsMiningTry","type":"uint8"},{"indexed":false,"internalType":"uint8","name":"UniqueGemsMiningTry","type":"uint8"},{"indexed":false,"internalType":"uint8","name":"EpicGemsMiningTry","type":"uint8"},{"indexed":false,"internalType":"uint8","name":"LegendaryGemsMiningTry","type":"uint8"},{"indexed":false,"internalType":"uint8","name":"MythicGemsMiningTry","type":"uint8"}],"name":"GemsMiningTryModified","type":"event"},{"anonymous":false,"inputs":[{"indexed":false,"internalType":"uint256","name":"CommonGemsValue","type":"uint256"},{"indexed":false,"internalType":"uint256","name":"RareGemsValue","type":"uint256"},{"indexed":false,"internalType":"uint256","name":"UniqueGemsValue","type":"uint256"},{"indexed":false,"internalType":"uint256","name":"EpicGemsValue","type":"uint256"},{"indexed":false,"internalType":"uint256","name":"LegendaryValue","type":"uint256"},{"indexed":false,"internalType":"uint256","name":"MythicValue","type":"uint256"}],"name":"GemsValueModified","type":"event"},{"anonymous":false,"inputs":[{"indexed":false,"internalType":"uint256","name":"_tokenId","type":"uint256"},{"indexed":false,"internalType":"address","name":"owner","type":"address"},{"indexed":false,"internalType":"uint256","name":"timestamp","type":"uint256"}],"name":"MiningCancelled","type":"event"},{"anonymous":false,"inputs":[{"indexed":false,"internalType":"uint256","name":"tokenId","type":"uint256"}],"name":"NoGemAvailable","type":"event"},{"anonymous":false,"inputs":[{"indexed":false,"internalType":"address","name":"account","type":"address"}],"name":"Paused","type":"event"},{"anonymous":false,"inputs":[{"indexed":false,"internalType":"uint256","name":"tokenId","type":"uint256"},{"indexed":false,"internalType":"uint256","name":"requestNumber","type":"uint256"}],"name":"RandomGemRequested","type":"event"},{"anonymous":false,"inputs":[{"indexed":false,"internalType":"address","name":"from","type":"address"},{"indexed":false,"internalType":"address","name":"to","type":"address"},{"indexed":false,"internalType":"uint256","name":"tokenId","type":"uint256"}],"name":"TransferGEM","type":"event"},{"anonymous":false,"inputs":[{"indexed":false,"internalType":"address","name":"account","type":"address"}],"name":"Unpaused","type":"event"},{"inputs":[],"name":"CALLBACK_GAS_LIMIT","outputs":[{"internalType":"uint32","name":"","type":"uint32"}],"stateMutability":"view","type":"function"},{"inputs":[{"internalType":"uint256","name":"","type":"uint256"}],"name":"GEMIndexToOwner","outputs":[{"internalType":"address","name":"","type":"address"}],"stateMutability":"view","type":"function"},{"inputs":[{"internalType":"uint256","name":"","type":"uint256"}],"name":"Gems","outputs":[{"internalType":"uint256","name":"tokenId","type":"uint256"},{"internalType":"uint256","name":"value","type":"uint256"},{"internalType":"uint256","name":"gemCooldownDueDate","type":"uint256"},{"internalType":"uint256","name":"randomRequestId","type":"uint256"},{"internalType":"enum GemFactoryStorage.Rarity","name":"rarity","type":"uint8"},{"internalType":"uint32","name":"miningPeriod","type":"uint32"},{"internalType":"uint8","name":"miningTry","type":"uint8"},{"internalType":"bool","name":"isLocked","type":"bool"},{"internalType":"string","name":"tokenURI","type":"string"}],"stateMutability":"view","type":"function"},{"inputs":[{"internalType":"uint8","name":"","type":"uint8"},{"internalType":"uint8","name":"","type":"uint8"}],"name":"colorName","outputs":[{"internalType":"string","name":"","type":"string"}],"stateMutability":"view","type":"function"},{"inputs":[{"internalType":"uint256","name":"","type":"uint256"},{"internalType":"uint256","name":"","type":"uint256"}],"name":"colors","outputs":[{"internalType":"uint8","name":"","type":"uint8"}],"stateMutability":"view","type":"function"},{"inputs":[],"name":"colorsCount","outputs":[{"internalType":"uint8","name":"","type":"uint8"}],"stateMutability":"view","type":"function"},{"inputs":[{"internalType":"enum GemFactoryStorage.Rarity","name":"","type":"uint8"}],"name":"numberMiningGemsByRarity","outputs":[{"internalType":"uint256","name":"","type":"uint256"}],"stateMutability":"view","type":"function"},{"inputs":[{"internalType":"address","name":"","type":"address"}],"name":"ownershipTokenCount","outputs":[{"internalType":"uint256","name":"","type":"uint256"}],"stateMutability":"view","type":"function"},{"inputs":[],"name":"paused","outputs":[{"internalType":"bool","name":"","type":"bool"}],"stateMutability":"view","type":"function"},{"inputs":[{"internalType":"uint256","name":"","type":"uint256"}],"name":"s_requests","outputs":[{"internalType":"uint256","name":"tokenId","type":"uint256"},{"internalType":"uint256","name":"randomWord","type":"uint256"},{"internalType":"uint256","name":"chosenTokenId","type":"uint256"},{"internalType":"address","name":"requester","type":"address"},{"internalType":"bool","name":"requested","type":"bool"},{"internalType":"bool","name":"fulfilled","type":"bool"}],"stateMutability":"view","type":"function"},{"inputs":[{"internalType":"address","name":"","type":"address"}],"name":"tokenMiningByUser","outputs":[{"internalType":"uint256","name":"","type":"uint256"}],"stateMutability":"view","type":"function"},{"inputs":[{"internalType":"uint256","name":"","type":"uint256"}],"name":"tokenReadyToMine","outputs":[{"internalType":"bool","name":"","type":"bool"}],"stateMutability":"view","type":"function"},{"inputs":[{"internalType":"address","name":"","type":"address"},{"internalType":"uint256","name":"","type":"uint256"}],"name":"userMiningStartTime","outputs":[{"internalType":"uint256","name":"","type":"uint256"}],"stateMutability":"view","type":"function"},{"inputs":[{"internalType":"address","name":"","type":"address"},{"internalType":"uint256","name":"","type":"uint256"}],"name":"userMiningToken","outputs":[{"internalType":"bool","name":"","type":"bool"}],"stateMutability":"view","type":"function"}],"evm":{"bytecode":{"linkReferences":{},"object":"60808060405234601557610649908161001b8239f35b600080fdfe608060409080825260048036101561001657600080fd5b600091823560e01c90816333d608f1146104a857508063356edf74146104865780635c975abb146104625780635f2d0023146103fd57806361f7f6d71461032e578063676f79f1146102ed5780637866369b146102bf57806397125c401461028c578063a168fa891461021e578063a1770a7d146101d7578063c13890721461019f578063cec21acb14610167578063ea094c39146101315763f317d7dd146100be57600080fd5b3461012d578260031936011261012d5735906024359160035481101561012d57600382527fc2575a0e9e593c00f959f8c92f12db2869c3395a3b0502d05e2516446f71f85b0190600283101561012a575060209260f860ff928460051c015491519360031b161c168152f35b80fd5b5080fd5b50829034610163576020366003190112610163573560068110156101635782829160209452600a845220549051908152f35b8280fd5b82843461012d57602036600319011261012d5760209181906001600160a01b0361018f6105f8565b1681526005845220549051908152f35b82843461012d57602036600319011261012d5760209181906001600160a01b036101c76105f8565b1681526006845220549051908152f35b82843461012d578060031936011261012d5760209160ff9082906001600160a01b036102016105f8565b168152600785528181206024358252855220541690519015158152f35b50829034610163576020366003190112610163578160c09360ff92358152600b602052209182549260018101549160036002830154920154928151958652602086015284015260018060a01b0381166060840152818160a01c161515608084015260a81c16151560a0820152f35b5082903461016357602036600319011261016357803583526020908152918190205490516001600160a01b039091168152f35b50829034610163576020366003190112610163578160209360ff923581526009855220541690519015158152f35b82843461012d578060031936011261012d5760209181906001600160a01b036103146105f8565b168152600884528181206024358252845220549051908152f35b50913461012d57602036600319011261012d578235825481101561016357828052602083209060031b019182549060018401549360028101549160038201548783015493610382600760ff871695016104c5565b96805198610120978a5260208a0152880152606087015260068210156103ea57509160ff8594926103e694608087015263ffffffff8160081c1660a0870152818160281c1660c087015260301c16151560e0850152806101008501528301906105b8565b0390f35b634e487b7160e01b815260218752602490fd5b508290346101635781600319360112610163573560ff8116809103610163576024359060ff821680920361045e578361044b9284926103e696526001602052828220908252602052206104c5565b90519182916020835260208301906105b8565b8380fd5b82843461012d578160031936011261012d5760209060ff600c541690519015158152f35b82843461012d578160031936011261012d5760209060ff600254169051908152f35b83903461012d578160031936011261012d57806203345060209252f35b906040519160009080549060018260011c91600184169384156105ae575b602094858510811461059a5784895290811561057c5750600114610540575b50505050829003601f01601f1916820167ffffffffffffffff81118382101761052a57604052565b634e487b7160e01b600052604160045260246000fd5b909293506000528260002091836000935b838510610568575050505083010138808080610502565b805488860183015293019284908201610551565b60ff191688860152505050151560051b840101905038808080610502565b634e487b7160e01b87526022600452602487fd5b92607f16926104e3565b919082519283825260005b8481106105e4575050826000602080949584010152601f8019910116010190565b6020818301810151848301820152016105c3565b600435906001600160a01b038216820361060e57565b600080fdfea264697066735822122095bd687882860f387170f477b3194339557f7a98e699c759febb6e570380529664736f6c63430008190033","opcodes":"PUSH1 0x80 DUP1 PUSH1 0x40 MSTORE CALLVALUE PUSH1 0x15 JUMPI PUSH2 0x649 SWAP1 DUP2 PUSH2 0x1B DUP3 CODECOPY RETURN JUMPDEST PUSH1 0x0 DUP1 REVERT INVALID PUSH1 0x80 PUSH1 0x40 SWAP1 DUP1 DUP3 MSTORE PUSH1 0x4 DUP1 CALLDATASIZE LT ISZERO PUSH2 0x16 JUMPI PUSH1 0x0 DUP1 REVERT JUMPDEST PUSH1 0x0 SWAP2 DUP3 CALLDATALOAD PUSH1 0xE0 SHR SWAP1 DUP2 PUSH4 0x33D608F1 EQ PUSH2 0x4A8 JUMPI POP DUP1 PUSH4 0x356EDF74 EQ PUSH2 0x486 JUMPI DUP1 PUSH4 0x5C975ABB EQ PUSH2 0x462 JUMPI DUP1 PUSH4 0x5F2D0023 EQ PUSH2 0x3FD JUMPI DUP1 PUSH4 0x61F7F6D7 EQ PUSH2 0x32E JUMPI DUP1 PUSH4 0x676F79F1 EQ PUSH2 0x2ED JUMPI DUP1 PUSH4 0x7866369B EQ PUSH2 0x2BF JUMPI DUP1 PUSH4 0x97125C40 EQ PUSH2 0x28C JUMPI DUP1 PUSH4 0xA168FA89 EQ PUSH2 0x21E JUMPI DUP1 PUSH4 0xA1770A7D EQ PUSH2 0x1D7 JUMPI DUP1 PUSH4 0xC1389072 EQ PUSH2 0x19F JUMPI DUP1 PUSH4 0xCEC21ACB EQ PUSH2 0x167 JUMPI DUP1 PUSH4 0xEA094C39 EQ PUSH2 0x131 JUMPI PUSH4 0xF317D7DD EQ PUSH2 0xBE JUMPI PUSH1 0x0 DUP1 REVERT JUMPDEST CALLVALUE PUSH2 0x12D JUMPI DUP3 PUSH1 0x3 NOT CALLDATASIZE ADD SLT PUSH2 0x12D JUMPI CALLDATALOAD SWAP1 PUSH1 0x24 CALLDATALOAD SWAP2 PUSH1 0x3 SLOAD DUP2 LT ISZERO PUSH2 0x12D JUMPI PUSH1 0x3 DUP3 MSTORE PUSH32 0xC2575A0E9E593C00F959F8C92F12DB2869C3395A3B0502D05E2516446F71F85B ADD SWAP1 PUSH1 0x2 DUP4 LT ISZERO PUSH2 0x12A JUMPI POP PUSH1 0x20 SWAP3 PUSH1 0xF8 PUSH1 0xFF SWAP3 DUP5 PUSH1 0x5 SHR ADD SLOAD SWAP2 MLOAD SWAP4 PUSH1 0x3 SHL AND SHR AND DUP2 MSTORE RETURN JUMPDEST DUP1 REVERT JUMPDEST POP DUP1 REVERT JUMPDEST POP DUP3 SWAP1 CALLVALUE PUSH2 0x163 JUMPI PUSH1 0x20 CALLDATASIZE PUSH1 0x3 NOT ADD SLT PUSH2 0x163 JUMPI CALLDATALOAD PUSH1 0x6 DUP2 LT ISZERO PUSH2 0x163 JUMPI DUP3 DUP3 SWAP2 PUSH1 0x20 SWAP5 MSTORE PUSH1 0xA DUP5 MSTORE KECCAK256 SLOAD SWAP1 MLOAD SWAP1 DUP2 MSTORE RETURN JUMPDEST DUP3 DUP1 REVERT JUMPDEST DUP3 DUP5 CALLVALUE PUSH2 0x12D JUMPI PUSH1 0x20 CALLDATASIZE PUSH1 0x3 NOT ADD SLT PUSH2 0x12D JUMPI PUSH1 0x20 SWAP2 DUP2 SWAP1 PUSH1 0x1 PUSH1 0x1 PUSH1 0xA0 SHL SUB PUSH2 0x18F PUSH2 0x5F8 JUMP JUMPDEST AND DUP2 MSTORE PUSH1 0x5 DUP5 MSTORE KECCAK256 SLOAD SWAP1 MLOAD SWAP1 DUP2 MSTORE RETURN JUMPDEST DUP3 DUP5 CALLVALUE PUSH2 0x12D JUMPI PUSH1 0x20 CALLDATASIZE PUSH1 0x3 NOT ADD SLT PUSH2 0x12D JUMPI PUSH1 0x20 SWAP2 DUP2 SWAP1 PUSH1 0x1 PUSH1 0x1 PUSH1 0xA0 SHL SUB PUSH2 0x1C7 PUSH2 0x5F8 JUMP JUMPDEST AND DUP2 MSTORE PUSH1 0x6 DUP5 MSTORE KECCAK256 SLOAD SWAP1 MLOAD SWAP1 DUP2 MSTORE RETURN JUMPDEST DUP3 DUP5 CALLVALUE PUSH2 0x12D JUMPI DUP1 PUSH1 0x3 NOT CALLDATASIZE ADD SLT PUSH2 0x12D JUMPI PUSH1 0x20 SWAP2 PUSH1 0xFF SWAP1 DUP3 SWAP1 PUSH1 0x1 PUSH1 0x1 PUSH1 0xA0 SHL SUB PUSH2 0x201 PUSH2 0x5F8 JUMP JUMPDEST AND DUP2 MSTORE PUSH1 0x7 DUP6 MSTORE DUP2 DUP2 KECCAK256 PUSH1 0x24 CALLDATALOAD DUP3 MSTORE DUP6 MSTORE KECCAK256 SLOAD AND SWAP1 MLOAD SWAP1 ISZERO ISZERO DUP2 MSTORE RETURN JUMPDEST POP DUP3 SWAP1 CALLVALUE PUSH2 0x163 JUMPI PUSH1 0x20 CALLDATASIZE PUSH1 0x3 NOT ADD SLT PUSH2 0x163 JUMPI DUP2 PUSH1 0xC0 SWAP4 PUSH1 0xFF SWAP3 CALLDATALOAD DUP2 MSTORE PUSH1 0xB PUSH1 0x20 MSTORE KECCAK256 SWAP2 DUP3 SLOAD SWAP3 PUSH1 0x1 DUP2 ADD SLOAD SWAP2 PUSH1 0x3 PUSH1 0x2 DUP4 ADD SLOAD SWAP3 ADD SLOAD SWAP3 DUP2 MLOAD SWAP6 DUP7 MSTORE PUSH1 0x20 DUP7 ADD MSTORE DUP5 ADD MSTORE PUSH1 0x1 DUP1 PUSH1 0xA0 SHL SUB DUP2 AND PUSH1 0x60 DUP5 ADD MSTORE DUP2 DUP2 PUSH1 0xA0 SHR AND ISZERO ISZERO PUSH1 0x80 DUP5 ADD MSTORE PUSH1 0xA8 SHR AND ISZERO ISZERO PUSH1 0xA0 DUP3 ADD MSTORE RETURN JUMPDEST POP DUP3 SWAP1 CALLVALUE PUSH2 0x163 JUMPI PUSH1 0x20 CALLDATASIZE PUSH1 0x3 NOT ADD SLT PUSH2 0x163 JUMPI DUP1 CALLDATALOAD DUP4 MSTORE PUSH1 0x20 SWAP1 DUP2 MSTORE SWAP2 DUP2 SWAP1 KECCAK256 SLOAD SWAP1 MLOAD PUSH1 0x1 PUSH1 0x1 PUSH1 0xA0 SHL SUB SWAP1 SWAP2 AND DUP2 MSTORE RETURN JUMPDEST POP DUP3 SWAP1 CALLVALUE PUSH2 0x163 JUMPI PUSH1 0x20 CALLDATASIZE PUSH1 0x3 NOT ADD SLT PUSH2 0x163 JUMPI DUP2 PUSH1 0x20 SWAP4 PUSH1 0xFF SWAP3 CALLDATALOAD DUP2 MSTORE PUSH1 0x9 DUP6 MSTORE KECCAK256 SLOAD AND SWAP1 MLOAD SWAP1 ISZERO ISZERO DUP2 MSTORE RETURN JUMPDEST DUP3 DUP5 CALLVALUE PUSH2 0x12D JUMPI DUP1 PUSH1 0x3 NOT CALLDATASIZE ADD SLT PUSH2 0x12D JUMPI PUSH1 0x20 SWAP2 DUP2 SWAP1 PUSH1 0x1 PUSH1 0x1 PUSH1 0xA0 SHL SUB PUSH2 0x314 PUSH2 0x5F8 JUMP JUMPDEST AND DUP2 MSTORE PUSH1 0x8 DUP5 MSTORE DUP2 DUP2 KECCAK256 PUSH1 0x24 CALLDATALOAD DUP3 MSTORE DUP5 MSTORE KECCAK256 SLOAD SWAP1 MLOAD SWAP1 DUP2 MSTORE RETURN JUMPDEST POP SWAP2 CALLVALUE PUSH2 0x12D JUMPI PUSH1 0x20 CALLDATASIZE PUSH1 0x3 NOT ADD SLT PUSH2 0x12D JUMPI DUP3 CALLDATALOAD DUP3 SLOAD DUP2 LT ISZERO PUSH2 0x163 JUMPI DUP3 DUP1 MSTORE PUSH1 0x20 DUP4 KECCAK256 SWAP1 PUSH1 0x3 SHL ADD SWAP2 DUP3 SLOAD SWAP1 PUSH1 0x1 DUP5 ADD SLOAD SWAP4 PUSH1 0x2 DUP2 ADD SLOAD SWAP2 PUSH1 0x3 DUP3 ADD SLOAD DUP8 DUP4 ADD SLOAD SWAP4 PUSH2 0x382 PUSH1 0x7 PUSH1 0xFF DUP8 AND SWAP6 ADD PUSH2 0x4C5 JUMP JUMPDEST SWAP7 DUP1 MLOAD SWAP9 PUSH2 0x120 SWAP8 DUP11 MSTORE PUSH1 0x20 DUP11 ADD MSTORE DUP9 ADD MSTORE PUSH1 0x60 DUP8 ADD MSTORE PUSH1 0x6 DUP3 LT ISZERO PUSH2 0x3EA JUMPI POP SWAP2 PUSH1 0xFF DUP6 SWAP5 SWAP3 PUSH2 0x3E6 SWAP5 PUSH1 0x80 DUP8 ADD MSTORE PUSH4 0xFFFFFFFF DUP2 PUSH1 0x8 SHR AND PUSH1 0xA0 DUP8 ADD MSTORE DUP2 DUP2 PUSH1 0x28 SHR AND PUSH1 0xC0 DUP8 ADD MSTORE PUSH1 0x30 SHR AND ISZERO ISZERO PUSH1 0xE0 DUP6 ADD MSTORE DUP1 PUSH2 0x100 DUP6 ADD MSTORE DUP4 ADD SWAP1 PUSH2 0x5B8 JUMP JUMPDEST SUB SWAP1 RETURN JUMPDEST PUSH4 0x4E487B71 PUSH1 0xE0 SHL DUP2 MSTORE PUSH1 0x21 DUP8 MSTORE PUSH1 0x24 SWAP1 REVERT JUMPDEST POP DUP3 SWAP1 CALLVALUE PUSH2 0x163 JUMPI DUP2 PUSH1 0x3 NOT CALLDATASIZE ADD SLT PUSH2 0x163 JUMPI CALLDATALOAD PUSH1 0xFF DUP2 AND DUP1 SWAP2 SUB PUSH2 0x163 JUMPI PUSH1 0x24 CALLDATALOAD SWAP1 PUSH1 0xFF DUP3 AND DUP1 SWAP3 SUB PUSH2 0x45E JUMPI DUP4 PUSH2 0x44B SWAP3 DUP5 SWAP3 PUSH2 0x3E6 SWAP7 MSTORE PUSH1 0x1 PUSH1 0x20 MSTORE DUP3 DUP3 KECCAK256 SWAP1 DUP3 MSTORE PUSH1 0x20 MSTORE KECCAK256 PUSH2 0x4C5 JUMP JUMPDEST SWAP1 MLOAD SWAP2 DUP3 SWAP2 PUSH1 0x20 DUP4 MSTORE PUSH1 0x20 DUP4 ADD SWAP1 PUSH2 0x5B8 JUMP JUMPDEST DUP4 DUP1 REVERT JUMPDEST DUP3 DUP5 CALLVALUE PUSH2 0x12D JUMPI DUP2 PUSH1 0x3 NOT CALLDATASIZE ADD SLT PUSH2 0x12D JUMPI PUSH1 0x20 SWAP1 PUSH1 0xFF PUSH1 0xC SLOAD AND SWAP1 MLOAD SWAP1 ISZERO ISZERO DUP2 MSTORE RETURN JUMPDEST DUP3 DUP5 CALLVALUE PUSH2 0x12D JUMPI DUP2 PUSH1 0x3 NOT CALLDATASIZE ADD SLT PUSH2 0x12D JUMPI PUSH1 0x20 SWAP1 PUSH1 0xFF PUSH1 0x2 SLOAD AND SWAP1 MLOAD SWAP1 DUP2 MSTORE RETURN JUMPDEST DUP4 SWAP1 CALLVALUE PUSH2 0x12D JUMPI DUP2 PUSH1 0x3 NOT CALLDATASIZE ADD SLT PUSH2 0x12D JUMPI DUP1 PUSH3 0x33450 PUSH1 0x20 SWAP3 MSTORE RETURN JUMPDEST SWAP1 PUSH1 0x40 MLOAD SWAP2 PUSH1 0x0 SWAP1 DUP1 SLOAD SWAP1 PUSH1 0x1 DUP3 PUSH1 0x1 SHR SWAP2 PUSH1 0x1 DUP5 AND SWAP4 DUP5 ISZERO PUSH2 0x5AE JUMPI JUMPDEST PUSH1 0x20 SWAP5 DUP6 DUP6 LT DUP2 EQ PUSH2 0x59A JUMPI DUP5 DUP10 MSTORE SWAP1 DUP2 ISZERO PUSH2 0x57C JUMPI POP PUSH1 0x1 EQ PUSH2 0x540 JUMPI JUMPDEST POP POP POP POP DUP3 SWAP1 SUB PUSH1 0x1F ADD PUSH1 0x1F NOT AND DUP3 ADD PUSH8 0xFFFFFFFFFFFFFFFF DUP2 GT DUP4 DUP3 LT OR PUSH2 0x52A JUMPI PUSH1 0x40 MSTORE JUMP JUMPDEST PUSH4 0x4E487B71 PUSH1 0xE0 SHL PUSH1 0x0 MSTORE PUSH1 0x41 PUSH1 0x4 MSTORE PUSH1 0x24 PUSH1 0x0 REVERT JUMPDEST SWAP1 SWAP3 SWAP4 POP PUSH1 0x0 MSTORE DUP3 PUSH1 0x0 KECCAK256 SWAP2 DUP4 PUSH1 0x0 SWAP4 JUMPDEST DUP4 DUP6 LT PUSH2 0x568 JUMPI POP POP POP POP DUP4 ADD ADD CODESIZE DUP1 DUP1 DUP1 PUSH2 0x502 JUMP JUMPDEST DUP1 SLOAD DUP9 DUP7 ADD DUP4 ADD MSTORE SWAP4 ADD SWAP3 DUP5 SWAP1 DUP3 ADD PUSH2 0x551 JUMP JUMPDEST PUSH1 0xFF NOT AND DUP9 DUP7 ADD MSTORE POP POP POP ISZERO ISZERO PUSH1 0x5 SHL DUP5 ADD ADD SWAP1 POP CODESIZE DUP1 DUP1 DUP1 PUSH2 0x502 JUMP JUMPDEST PUSH4 0x4E487B71 PUSH1 0xE0 SHL DUP8 MSTORE PUSH1 0x22 PUSH1 0x4 MSTORE PUSH1 0x24 DUP8 REVERT JUMPDEST SWAP3 PUSH1 0x7F AND SWAP3 PUSH2 0x4E3 JUMP JUMPDEST SWAP2 SWAP1 DUP3 MLOAD SWAP3 DUP4 DUP3 MSTORE PUSH1 0x0 JUMPDEST DUP5 DUP2 LT PUSH2 0x5E4 JUMPI POP POP DUP3 PUSH1 0x0 PUSH1 0x20 DUP1 SWAP5 SWAP6 DUP5 ADD ADD MSTORE PUSH1 0x1F DUP1 NOT SWAP2 ADD AND ADD ADD SWAP1 JUMP JUMPDEST PUSH1 0x20 DUP2 DUP4 ADD DUP2 ADD MLOAD DUP5 DUP4 ADD DUP3 ADD MSTORE ADD PUSH2 0x5C3 JUMP JUMPDEST PUSH1 0x4 CALLDATALOAD SWAP1 PUSH1 0x1 PUSH1 0x1 PUSH1 0xA0 SHL SUB DUP3 AND DUP3 SUB PUSH2 0x60E JUMPI JUMP JUMPDEST PUSH1 0x0 DUP1 REVERT INVALID LOG2 PUSH5 0x6970667358 0x22 SLT KECCAK256 SWAP6 0xBD PUSH9 0x7882860F387170F477 0xB3 NOT NUMBER CODECOPY SSTORE PUSH32 0x7A98E699C759FEBB6E570380529664736F6C6343000819003300000000000000 "},"methodIdentifiers":{"CALLBACK_GAS_LIMIT()":"33d608f1","GEMIndexToOwner(uint256)":"97125c40","Gems(uint256)":"61f7f6d7","colorName(uint8,uint8)":"5f2d0023","colors(uint256,uint256)":"f317d7dd","colorsCount()":"356edf74","numberMiningGemsByRarity(uint8)":"ea094c39","ownershipTokenCount(address)":"cec21acb","paused()":"5c975abb","s_requests(uint256)":"a168fa89","tokenMiningByUser(address)":"c1389072","tokenReadyToMine(uint256)":"7866369b","userMiningStartTime(address,uint256)":"676f79f1","userMiningToken(address,uint256)":"a1770a7d"}}}}}