{"src/L2/RandomPackStorage.sol":{"RandomPackStorage":{"abi":[{"inputs":[],"name":"AlreadyInitialized","type":"error"},{"inputs":[],"name":"FailedToPayFees","type":"error"},{"inputs":[],"name":"FailedToSendEthBack","type":"error"},{"inputs":[],"name":"FailedToSendFeesToTreasury","type":"error"},{"inputs":[],"name":"InvalidAddress","type":"error"},{"inputs":[],"name":"RandomPackFeesEqualToZero","type":"error"},{"inputs":[],"name":"RequestNotMade","type":"error"},{"inputs":[],"name":"invalidProbabilities","type":"error"},{"anonymous":false,"inputs":[{"indexed":false,"internalType":"uint256","name":"_callbackGasLimit","type":"uint256"}],"name":"CallBackGasLimitUpdated","type":"event"},{"anonymous":false,"inputs":[],"name":"CommonGemMinted","type":"event"},{"anonymous":false,"inputs":[],"name":"CommonGemToBeMinted","type":"event"},{"anonymous":false,"inputs":[{"indexed":false,"internalType":"uint256","name":"amount","type":"uint256"}],"name":"EthSentBack","type":"event"},{"anonymous":false,"inputs":[{"indexed":false,"internalType":"address","name":"gemFactory","type":"address"}],"name":"GemFactoryAddressUpdated","type":"event"},{"anonymous":false,"inputs":[{"indexed":false,"internalType":"string","name":"_tokenURI","type":"string"}],"name":"PerfectCommonGemURIUpdated","type":"event"},{"anonymous":false,"inputs":[{"indexed":false,"internalType":"address","name":"requestor","type":"address"},{"indexed":false,"internalType":"uint256","name":"requestId","type":"uint256"}],"name":"RandomGemRequested","type":"event"},{"anonymous":false,"inputs":[{"indexed":false,"internalType":"uint256","name":"tokenId","type":"uint256"},{"indexed":false,"internalType":"address","name":"newOwner","type":"address"}],"name":"RandomGemToBeTransferred","type":"event"},{"anonymous":false,"inputs":[{"indexed":false,"internalType":"uint256","name":"tokenId","type":"uint256"},{"indexed":false,"internalType":"address","name":"newOwner","type":"address"}],"name":"RandomGemTransferred","type":"event"},{"anonymous":false,"inputs":[{"indexed":false,"internalType":"uint256","name":"randomPackFees","type":"uint256"}],"name":"RandomPackFeesUpdated","type":"event"},{"anonymous":false,"inputs":[{"indexed":false,"internalType":"address","name":"treasury","type":"address"}],"name":"TreasuryAddressUpdated","type":"event"},{"inputs":[],"name":"DIVIDER","outputs":[{"internalType":"uint8","name":"","type":"uint8"}],"stateMutability":"view","type":"function"},{"inputs":[{"internalType":"uint256","name":"","type":"uint256"}],"name":"s_requests","outputs":[{"internalType":"uint256","name":"randomWord","type":"uint256"},{"internalType":"uint256","name":"chosenTokenId","type":"uint256"},{"internalType":"address","name":"requester","type":"address"},{"internalType":"bool","name":"requested","type":"bool"},{"internalType":"bool","name":"fulfilled","type":"bool"}],"stateMutability":"view","type":"function"}],"evm":{"bytecode":{"linkReferences":{},"object":"6080806040523460205762ffffff196007541660075560e990816100268239f35b600080fdfe6080806040526004361015601257600080fd5b600090813560e01c90816362043bd8146096575063a168fa8914603457600080fd5b346093576020366003190112609357604060a0916004358152806020522060ff81549160026001820154910154906040519384526020840152600180851b03811660408401528181851c161515606084015260a81c1615156080820152f35b80fd5b90503460af578160031936011260af5780606460209252f35b5080fdfea264697066735822122027914f59729227dbe4b8e49d4dfbf7b01a3dae3a722aca077e93260c341c197764736f6c63430008190033","opcodes":"PUSH1 0x80 DUP1 PUSH1 0x40 MSTORE CALLVALUE PUSH1 0x20 JUMPI PUSH3 0xFFFFFF NOT PUSH1 0x7 SLOAD AND PUSH1 0x7 SSTORE PUSH1 0xE9 SWAP1 DUP2 PUSH2 0x26 DUP3 CODECOPY RETURN JUMPDEST PUSH1 0x0 DUP1 REVERT INVALID PUSH1 0x80 DUP1 PUSH1 0x40 MSTORE PUSH1 0x4 CALLDATASIZE LT ISZERO PUSH1 0x12 JUMPI PUSH1 0x0 DUP1 REVERT JUMPDEST PUSH1 0x0 SWAP1 DUP2 CALLDATALOAD PUSH1 0xE0 SHR SWAP1 DUP2 PUSH4 0x62043BD8 EQ PUSH1 0x96 JUMPI POP PUSH4 0xA168FA89 EQ PUSH1 0x34 JUMPI PUSH1 0x0 DUP1 REVERT JUMPDEST CALLVALUE PUSH1 0x93 JUMPI PUSH1 0x20 CALLDATASIZE PUSH1 0x3 NOT ADD SLT PUSH1 0x93 JUMPI PUSH1 0x40 PUSH1 0xA0 SWAP2 PUSH1 0x4 CALLDATALOAD DUP2 MSTORE DUP1 PUSH1 0x20 MSTORE KECCAK256 PUSH1 0xFF DUP2 SLOAD SWAP2 PUSH1 0x2 PUSH1 0x1 DUP3 ADD SLOAD SWAP2 ADD SLOAD SWAP1 PUSH1 0x40 MLOAD SWAP4 DUP5 MSTORE PUSH1 0x20 DUP5 ADD MSTORE PUSH1 0x1 DUP1 DUP6 SHL SUB DUP2 AND PUSH1 0x40 DUP5 ADD MSTORE DUP2 DUP2 DUP6 SHR AND ISZERO ISZERO PUSH1 0x60 DUP5 ADD MSTORE PUSH1 0xA8 SHR AND ISZERO ISZERO PUSH1 0x80 DUP3 ADD MSTORE RETURN JUMPDEST DUP1 REVERT JUMPDEST SWAP1 POP CALLVALUE PUSH1 0xAF JUMPI DUP2 PUSH1 0x3 NOT CALLDATASIZE ADD SLT PUSH1 0xAF JUMPI DUP1 PUSH1 0x64 PUSH1 0x20 SWAP3 MSTORE RETURN JUMPDEST POP DUP1 REVERT INVALID LOG2 PUSH5 0x6970667358 0x22 SLT KECCAK256 0x27 SWAP2 0x4F MSIZE PUSH19 0x9227DBE4B8E49D4DFBF7B01A3DAE3A722ACA07 PUSH31 0x93260C341C197764736F6C6343000819003300000000000000000000000000 "},"methodIdentifiers":{"DIVIDER()":"62043bd8","s_requests(uint256)":"a168fa89"}}}}}