{"src/proxy/ProxyStorage.sol":{"ProxyStorage":{"abi":[{"inputs":[{"internalType":"address","name":"","type":"address"}],"name":"aliveImplementation","outputs":[{"internalType":"bool","name":"","type":"bool"}],"stateMutability":"view","type":"function"},{"inputs":[],"name":"pauseProxy","outputs":[{"internalType":"bool","name":"","type":"bool"}],"stateMutability":"view","type":"function"},{"inputs":[{"internalType":"uint256","name":"","type":"uint256"}],"name":"proxyImplementation","outputs":[{"internalType":"address","name":"","type":"address"}],"stateMutability":"view","type":"function"},{"inputs":[{"internalType":"bytes4","name":"","type":"bytes4"}],"name":"selectorImplementation","outputs":[{"internalType":"address","name":"","type":"address"}],"stateMutability":"view","type":"function"}],"evm":{"bytecode":{"linkReferences":{},"object":"60808060405234601557610167908161001b8239f35b600080fdfe60806040818152600436101561001457600080fd5b600091823560e01c90816350d2a276146100ea57508063550d01a3146100a657806363a8fd89146100855763b911135f1461004e57600080fd5b3461008157602036600319011261008157600435825260016020908152918190205490516001600160a01b039091168152f35b5080fd5b503461008157816003193601126100815760ff602092541690519015158152f35b5034610081576020366003190112610081576004356001600160a01b038116908190036100e657818360ff92602095526002855220541690519015158152f35b8280fd5b9050823461012e57602036600319011261012e576004359263ffffffff60e01b84168094036100815792815260036020908152929020546001600160a01b03168152f35b80fdfea26469706673582212207e425189dff7389a43122c535280ba854d5f672dafcc25f5fbeb7b2a58d098b464736f6c63430008190033","opcodes":"PUSH1 0x80 DUP1 PUSH1 0x40 MSTORE CALLVALUE PUSH1 0x15 JUMPI PUSH2 0x167 SWAP1 DUP2 PUSH2 0x1B DUP3 CODECOPY RETURN JUMPDEST PUSH1 0x0 DUP1 REVERT INVALID PUSH1 0x80 PUSH1 0x40 DUP2 DUP2 MSTORE PUSH1 0x4 CALLDATASIZE LT ISZERO PUSH2 0x14 JUMPI PUSH1 0x0 DUP1 REVERT JUMPDEST PUSH1 0x0 SWAP2 DUP3 CALLDATALOAD PUSH1 0xE0 SHR SWAP1 DUP2 PUSH4 0x50D2A276 EQ PUSH2 0xEA JUMPI POP DUP1 PUSH4 0x550D01A3 EQ PUSH2 0xA6 JUMPI DUP1 PUSH4 0x63A8FD89 EQ PUSH2 0x85 JUMPI PUSH4 0xB911135F EQ PUSH2 0x4E JUMPI PUSH1 0x0 DUP1 REVERT JUMPDEST CALLVALUE PUSH2 0x81 JUMPI PUSH1 0x20 CALLDATASIZE PUSH1 0x3 NOT ADD SLT PUSH2 0x81 JUMPI PUSH1 0x4 CALLDATALOAD DUP3 MSTORE PUSH1 0x1 PUSH1 0x20 SWAP1 DUP2 MSTORE SWAP2 DUP2 SWAP1 KECCAK256 SLOAD SWAP1 MLOAD PUSH1 0x1 PUSH1 0x1 PUSH1 0xA0 SHL SUB SWAP1 SWAP2 AND DUP2 MSTORE RETURN JUMPDEST POP DUP1 REVERT JUMPDEST POP CALLVALUE PUSH2 0x81 JUMPI DUP2 PUSH1 0x3 NOT CALLDATASIZE ADD SLT PUSH2 0x81 JUMPI PUSH1 0xFF PUSH1 0x20 SWAP3 SLOAD AND SWAP1 MLOAD SWAP1 ISZERO ISZERO DUP2 MSTORE RETURN JUMPDEST POP CALLVALUE PUSH2 0x81 JUMPI PUSH1 0x20 CALLDATASIZE PUSH1 0x3 NOT ADD SLT PUSH2 0x81 JUMPI PUSH1 0x4 CALLDATALOAD PUSH1 0x1 PUSH1 0x1 PUSH1 0xA0 SHL SUB DUP2 AND SWAP1 DUP2 SWAP1 SUB PUSH2 0xE6 JUMPI DUP2 DUP4 PUSH1 0xFF SWAP3 PUSH1 0x20 SWAP6 MSTORE PUSH1 0x2 DUP6 MSTORE KECCAK256 SLOAD AND SWAP1 MLOAD SWAP1 ISZERO ISZERO DUP2 MSTORE RETURN JUMPDEST DUP3 DUP1 REVERT JUMPDEST SWAP1 POP DUP3 CALLVALUE PUSH2 0x12E JUMPI PUSH1 0x20 CALLDATASIZE PUSH1 0x3 NOT ADD SLT PUSH2 0x12E JUMPI PUSH1 0x4 CALLDATALOAD SWAP3 PUSH4 0xFFFFFFFF PUSH1 0xE0 SHL DUP5 AND DUP1 SWAP5 SUB PUSH2 0x81 JUMPI SWAP3 DUP2 MSTORE PUSH1 0x3 PUSH1 0x20 SWAP1 DUP2 MSTORE SWAP3 SWAP1 KECCAK256 SLOAD PUSH1 0x1 PUSH1 0x1 PUSH1 0xA0 SHL SUB AND DUP2 MSTORE RETURN JUMPDEST DUP1 REVERT INVALID LOG2 PUSH5 0x6970667358 0x22 SLT KECCAK256 PUSH31 0x425189DFF7389A43122C535280BA854D5F672DAFCC25F5FBEB7B2A58D098B4 PUSH5 0x736F6C6343 STOP ADDMOD NOT STOP CALLER "},"methodIdentifiers":{"aliveImplementation(address)":"550d01a3","pauseProxy()":"63a8fd89","proxyImplementation(uint256)":"b911135f","selectorImplementation(bytes4)":"50d2a276"}}}}}