{"src/L2/RandomPack.sol":{"RandomPack":{"abi":[{"inputs":[],"name":"AccessControlBadConfirmation","type":"error"},{"inputs":[{"internalType":"address","name":"account","type":"address"},{"internalType":"bytes32","name":"neededRole","type":"bytes32"}],"name":"AccessControlUnauthorizedAccount","type":"error"},{"inputs":[{"internalType":"address","name":"target","type":"address"}],"name":"AddressEmptyCode","type":"error"},{"inputs":[{"internalType":"address","name":"account","type":"address"}],"name":"AddressInsufficientBalance","type":"error"},{"inputs":[],"name":"AlreadyInitialized","type":"error"},{"inputs":[],"name":"FailedInnerCall","type":"error"},{"inputs":[],"name":"FailedToPayFees","type":"error"},{"inputs":[],"name":"FailedToSendEthBack","type":"error"},{"inputs":[],"name":"FailedToSendFeesToTreasury","type":"error"},{"inputs":[],"name":"InvalidAddress","type":"error"},{"inputs":[{"internalType":"address","name":"have","type":"address"},{"internalType":"address","name":"want","type":"address"}],"name":"OnlyCoordinatorCanFulfill","type":"error"},{"inputs":[],"name":"RandomPackFeesEqualToZero","type":"error"},{"inputs":[],"name":"ReentrancyGuardReentrantCall","type":"error"},{"inputs":[],"name":"RequestNotMade","type":"error"},{"inputs":[{"internalType":"address","name":"token","type":"address"}],"name":"SafeERC20FailedOperation","type":"error"},{"inputs":[],"name":"SameAdmin","type":"error"},{"inputs":[],"name":"SameOwner","type":"error"},{"inputs":[],"name":"ZeroAddress","type":"error"},{"inputs":[],"name":"invalidProbabilities","type":"error"},{"anonymous":false,"inputs":[{"indexed":false,"internalType":"uint256","name":"_callbackGasLimit","type":"uint256"}],"name":"CallBackGasLimitUpdated","type":"event"},{"anonymous":false,"inputs":[],"name":"CommonGemMinted","type":"event"},{"anonymous":false,"inputs":[],"name":"CommonGemToBeMinted","type":"event"},{"anonymous":false,"inputs":[{"indexed":false,"internalType":"uint256","name":"amount","type":"uint256"}],"name":"EthSentBack","type":"event"},{"anonymous":false,"inputs":[{"indexed":false,"internalType":"address","name":"gemFactory","type":"address"}],"name":"GemFactoryAddressUpdated","type":"event"},{"anonymous":false,"inputs":[{"indexed":false,"internalType":"string","name":"_tokenURI","type":"string"}],"name":"PerfectCommonGemURIUpdated","type":"event"},{"anonymous":false,"inputs":[{"indexed":false,"internalType":"address","name":"requestor","type":"address"},{"indexed":false,"internalType":"uint256","name":"requestId","type":"uint256"}],"name":"RandomGemRequested","type":"event"},{"anonymous":false,"inputs":[{"indexed":false,"internalType":"uint256","name":"tokenId","type":"uint256"},{"indexed":false,"internalType":"address","name":"newOwner","type":"address"}],"name":"RandomGemToBeTransferred","type":"event"},{"anonymous":false,"inputs":[{"indexed":false,"internalType":"uint256","name":"tokenId","type":"uint256"},{"indexed":false,"internalType":"address","name":"newOwner","type":"address"}],"name":"RandomGemTransferred","type":"event"},{"anonymous":false,"inputs":[{"indexed":false,"internalType":"uint256","name":"randomPackFees","type":"uint256"}],"name":"RandomPackFeesUpdated","type":"event"},{"anonymous":false,"inputs":[{"indexed":true,"internalType":"bytes32","name":"role","type":"bytes32"},{"indexed":true,"internalType":"bytes32","name":"previousAdminRole","type":"bytes32"},{"indexed":true,"internalType":"bytes32","name":"newAdminRole","type":"bytes32"}],"name":"RoleAdminChanged","type":"event"},{"anonymous":false,"inputs":[{"indexed":true,"internalType":"bytes32","name":"role","type":"bytes32"},{"indexed":true,"internalType":"address","name":"account","type":"address"},{"indexed":true,"internalType":"address","name":"sender","type":"address"}],"name":"RoleGranted","type":"event"},{"anonymous":false,"inputs":[{"indexed":true,"internalType":"bytes32","name":"role","type":"bytes32"},{"indexed":true,"internalType":"address","name":"account","type":"address"},{"indexed":true,"internalType":"address","name":"sender","type":"address"}],"name":"RoleRevoked","type":"event"},{"anonymous":false,"inputs":[{"indexed":false,"internalType":"address","name":"treasury","type":"address"}],"name":"TreasuryAddressUpdated","type":"event"},{"inputs":[],"name":"ADMIN_ROLE","outputs":[{"internalType":"bytes32","name":"","type":"bytes32"}],"stateMutability":"view","type":"function"},{"inputs":[],"name":"DEFAULT_ADMIN_ROLE","outputs":[{"internalType":"bytes32","name":"","type":"bytes32"}],"stateMutability":"view","type":"function"},{"inputs":[],"name":"DIVIDER","outputs":[{"internalType":"uint8","name":"","type":"uint8"}],"stateMutability":"view","type":"function"},{"inputs":[],"name":"PAUSE_ROLE","outputs":[{"internalType":"bytes32","name":"","type":"bytes32"}],"stateMutability":"view","type":"function"},{"inputs":[{"internalType":"address","name":"account","type":"address"}],"name":"addAdmin","outputs":[],"stateMutability":"nonpayable","type":"function"},{"inputs":[{"internalType":"address","name":"account","type":"address"}],"name":"addPauser","outputs":[],"stateMutability":"nonpayable","type":"function"},{"inputs":[{"internalType":"address","name":"","type":"address"}],"name":"aliveImplementation","outputs":[{"internalType":"bool","name":"","type":"bool"}],"stateMutability":"view","type":"function"},{"inputs":[],"name":"getCallbackGasLimit","outputs":[{"internalType":"uint32","name":"","type":"uint32"}],"stateMutability":"view","type":"function"},{"inputs":[],"name":"getGemFactoryAddress","outputs":[{"internalType":"address","name":"","type":"address"}],"stateMutability":"view","type":"function"},{"inputs":[],"name":"getPaused","outputs":[{"internalType":"bool","name":"","type":"bool"}],"stateMutability":"view","type":"function"},{"inputs":[],"name":"getPerfectCommonGemURI","outputs":[{"internalType":"string","name":"","type":"string"}],"stateMutability":"view","type":"function"},{"inputs":[],"name":"getRandomPackFees","outputs":[{"internalType":"uint256","name":"","type":"uint256"}],"stateMutability":"view","type":"function"},{"inputs":[],"name":"getRequestCount","outputs":[{"internalType":"uint256","name":"","type":"uint256"}],"stateMutability":"view","type":"function"},{"inputs":[{"internalType":"bytes32","name":"role","type":"bytes32"}],"name":"getRoleAdmin","outputs":[{"internalType":"bytes32","name":"","type":"bytes32"}],"stateMutability":"view","type":"function"},{"inputs":[],"name":"getTonAddress","outputs":[{"internalType":"address","name":"","type":"address"}],"stateMutability":"view","type":"function"},{"inputs":[],"name":"getTreasuryAddress","outputs":[{"internalType":"address","name":"","type":"address"}],"stateMutability":"view","type":"function"},{"inputs":[{"internalType":"bytes32","name":"role","type":"bytes32"},{"internalType":"address","name":"account","type":"address"}],"name":"grantRole","outputs":[],"stateMutability":"nonpayable","type":"function"},{"inputs":[{"internalType":"bytes32","name":"role","type":"bytes32"},{"internalType":"address","name":"account","type":"address"}],"name":"hasRole","outputs":[{"internalType":"bool","name":"","type":"bool"}],"stateMutability":"view","type":"function"},{"inputs":[{"internalType":"address","name":"_coordinator","type":"address"},{"internalType":"address","name":"_ton","type":"address"},{"internalType":"address","name":"_gemFactory","type":"address"},{"internalType":"address","name":"_treasury","type":"address"},{"internalType":"uint256","name":"_randomPackFees","type":"uint256"}],"name":"initialize","outputs":[],"stateMutability":"nonpayable","type":"function"},{"inputs":[{"internalType":"address","name":"account","type":"address"}],"name":"isAdmin","outputs":[{"internalType":"bool","name":"","type":"bool"}],"stateMutability":"view","type":"function"},{"inputs":[],"name":"isOwner","outputs":[{"internalType":"bool","name":"","type":"bool"}],"stateMutability":"view","type":"function"},{"inputs":[{"internalType":"address","name":"account","type":"address"}],"name":"isPauser","outputs":[{"internalType":"bool","name":"","type":"bool"}],"stateMutability":"view","type":"function"},{"inputs":[{"internalType":"address","name":"","type":"address"},{"internalType":"address","name":"","type":"address"},{"internalType":"uint256","name":"","type":"uint256"},{"internalType":"bytes","name":"","type":"bytes"}],"name":"onERC721Received","outputs":[{"internalType":"bytes4","name":"","type":"bytes4"}],"stateMutability":"pure","type":"function"},{"inputs":[],"name":"pause","outputs":[],"stateMutability":"nonpayable","type":"function"},{"inputs":[],"name":"pauseProxy","outputs":[{"internalType":"bool","name":"","type":"bool"}],"stateMutability":"view","type":"function"},{"inputs":[{"internalType":"uint256","name":"","type":"uint256"}],"name":"proxyImplementation","outputs":[{"internalType":"address","name":"","type":"address"}],"stateMutability":"view","type":"function"},{"inputs":[{"internalType":"uint256","name":"requestId","type":"uint256"},{"internalType":"uint256","name":"randomWord","type":"uint256"}],"name":"rawFulfillRandomWords","outputs":[],"stateMutability":"nonpayable","type":"function"},{"inputs":[],"name":"removeAdmin","outputs":[],"stateMutability":"nonpayable","type":"function"},{"inputs":[{"internalType":"address","name":"account","type":"address"}],"name":"removePauser","outputs":[],"stateMutability":"nonpayable","type":"function"},{"inputs":[{"internalType":"bytes32","name":"role","type":"bytes32"},{"internalType":"address","name":"callerConfirmation","type":"address"}],"name":"renounceRole","outputs":[],"stateMutability":"nonpayable","type":"function"},{"inputs":[],"name":"requestRandomGem","outputs":[{"internalType":"uint256","name":"","type":"uint256"}],"stateMutability":"payable","type":"function"},{"inputs":[{"internalType":"bytes32","name":"role","type":"bytes32"},{"internalType":"address","name":"account","type":"address"}],"name":"revokeRole","outputs":[],"stateMutability":"nonpayable","type":"function"},{"inputs":[{"internalType":"uint256","name":"","type":"uint256"}],"name":"s_requests","outputs":[{"internalType":"uint256","name":"randomWord","type":"uint256"},{"internalType":"uint256","name":"chosenTokenId","type":"uint256"},{"internalType":"address","name":"requester","type":"address"},{"internalType":"bool","name":"requested","type":"bool"},{"internalType":"bool","name":"fulfilled","type":"bool"}],"stateMutability":"view","type":"function"},{"inputs":[{"internalType":"bytes4","name":"","type":"bytes4"}],"name":"selectorImplementation","outputs":[{"internalType":"address","name":"","type":"address"}],"stateMutability":"view","type":"function"},{"inputs":[{"internalType":"uint32","name":"_callbackGasLimit","type":"uint32"}],"name":"setCallbackGasLimit","outputs":[],"stateMutability":"nonpayable","type":"function"},{"inputs":[{"internalType":"address","name":"_gemFactory","type":"address"}],"name":"setGemFactory","outputs":[],"stateMutability":"nonpayable","type":"function"},{"inputs":[{"internalType":"string","name":"_tokenURI","type":"string"}],"name":"setPerfectCommonGemURI","outputs":[],"stateMutability":"nonpayable","type":"function"},{"inputs":[{"internalType":"uint8","name":"_commonProb","type":"uint8"},{"internalType":"uint8","name":"_rareProb","type":"uint8"},{"internalType":"uint8","name":"_uniqueProb","type":"uint8"},{"internalType":"uint8","name":"_epicProb","type":"uint8"},{"internalType":"uint8","name":"_legendaryProb","type":"uint8"},{"internalType":"uint8","name":"_mythicProb","type":"uint8"}],"name":"setProbabilities","outputs":[],"stateMutability":"nonpayable","type":"function"},{"inputs":[{"internalType":"uint256","name":"_randomPackFees","type":"uint256"}],"name":"setRandomPackFees","outputs":[],"stateMutability":"nonpayable","type":"function"},{"inputs":[{"internalType":"address","name":"_treasury","type":"address"}],"name":"setTreasury","outputs":[],"stateMutability":"nonpayable","type":"function"},{"inputs":[{"internalType":"bytes4","name":"interfaceId","type":"bytes4"}],"name":"supportsInterface","outputs":[{"internalType":"bool","name":"","type":"bool"}],"stateMutability":"view","type":"function"},{"inputs":[{"internalType":"address","name":"newOwner","type":"address"}],"name":"transferOwnership","outputs":[],"stateMutability":"nonpayable","type":"function"},{"inputs":[],"name":"unpause","outputs":[],"stateMutability":"nonpayable","type":"function"}],"evm":{"bytecode":{"linkReferences":{},"object":"60808060405234602657600160045562ffffff19600e5416600e55612485908161002c8239f35b600080fdfe6080604081815260048036101561001557600080fd5b600092833560e01c90816301ffc9a71461154257508063150b7a02146114da57806315c0161614611426578063184fa84f14611407578063248a9ca3146113dd57806324d7806c1461138957806325b5b3b2146113225780632f2ff15d146112f957806336568abe146112b257806337ed11db1461125e578063389ed267146112355780633be7bcbf146110a45780633db8df9814610d6d5780633f4ba83a14610cfe5780633fad183414610cdf57806346fbf68e14610c8b57806350d2a27614610c48578063550d01a314610c0a57806362043bd814610bee57806363a8fd8914610bcc5780636805b84b14610ba85780636ae638d014610b7f5780636b2c0f5514610aae5780636ecd19cb146108cc578063704802751461087d57806375b238fc1461085457806382dc1ec4146108005780638456cb59146107c45780638f32d59b1461079e57806391d14854146107585780639a202d47146106c25780639d541be214610699578063a168fa891461063a578063a217fddf1461061f578063a4eb718c146105a3578063b911135f14610571578063d547741f14610536578063de8be8e71461050e578063e0024604146104e1578063e61475181461046b578063f0f44260146103e7578063f2fde38b1461032b5763f7013ef6146101fc57600080fd5b346103275760a036600319011261032757610215611596565b9161021e6115b1565b9060443560018060a01b0393848216809203610323576064359285841680940361031f5760ff600e5460081c1661031357505061025a3361195a565b508360018060a01b031995168560065416176006558460085416176008558360095416176009551690600a541617600a55608435600c5565200b2000000066ffffffff00000019600e541617600e556102b4600d5461167d565b601f81116102d5575b506000600d5561010061ff0019600e541617600e5580f35b600d825261030d90601f0160051c7fd7b6990105719101dabeb77144f2a3385c8033acd3af97e9423a695e81ad1eb5908101906117c3565b386102bd565b5162dc149f60e41b8152fd5b8780fd5b8680fd5b8280fd5b50903461032757602036600319011261032757610346611596565b916103576103526117da565b6116b7565b6001600160a01b03831680156103d85733146103ca5750906103b760016103bc93858052600560205261038e8282882001546117fd565b6103978461195a565b506000805160206123f083398151915286526005602052852001546117fd565b611841565b506103c633611b40565b5080f35b9051630a98f1f360e21b8152fd5b50905163d92e233d60e01b8152fd5b50903461032757602036600319011261032757610402611596565b61040d6103526117da565b6001600160a01b031691821561045d5750600980546001600160a01b03191683179055519081527fb6a5e89655cf506139085f051af608195ed056f8dc550b180a1c38d401e2b6c490602090a180f35b905163e6c4247b60e01b8152fd5b50903461032757602036600319011261032757610486611596565b6104916103526117da565b6001600160a01b031691821561045d5750600880546001600160a01b03191683179055519081527fed7acc23c47775012c7b3a370974b91aefab1849cacf173b5ea54273abb4815690602090a180f35b50503461050a578160031936011261050a5760095490516001600160a01b039091168152602090f35b5080fd5b50503461050a578160031936011261050a5760209063ffffffff600e5460181c169051908152f35b5090346103275780600319360112610327576103c6913561056c600161055a6115b1565b938387526005602052862001546117fd565b611ba7565b50346103275760203660031901126103275735825260016020908152918190205490516001600160a01b039091168152f35b5034610327576020366003190112610327573563ffffffff811680820361061b577fe26fa4acf522c01381834acc8213105df00a52674031c6311f5dc24bd608819f926020926105f46103526117da565b66ffffffff000000600e549160181b169066ffffffff000000191617600e5551908152a180f35b8380fd5b50503461050a578160031936011261050a5751908152602090f35b5034610327576020366003190112610327578160a09360ff92358152600760205220805492600260018301549201549181519485526020850152600180861b038216908401528181851c161515606084015260a81c1615156080820152f35b50503461050a578160031936011261050a5760085490516001600160a01b039091168152602090f35b5090346103275782600319360112610327576000805160206123f08339815191528352600560205280832033845260205260ff81842054161561070957826103c633611ab8565b906020608492519162461bcd60e51b8352820152602360248201527f41757468436f6e74726f6c3a2043616c6c6572206973206e6f7420616e20616460448201526236b4b760e91b6064820152fd5b50346103275781600319360112610327578160209360ff926107786115b1565b90358252600586528282206001600160a01b039091168252855220549151911615158152f35b50503461050a578160031936011261050a576020906107bb6117da565b90519015158152f35b83346107fd57806003193601126107fd576107e06103526117da565b6001600e546107f260ff821615611739565b60ff191617600e5580f35b80fd5b50503461050a57602036600319011261050a576103c69061084f6001610824611596565b926108306103526117da565b6000805160206123d083398151915286526005602052852001546117fd565b6118d0565b50503461050a578160031936011261050a57602090516000805160206123f08339815191528152f35b50503461050a57602036600319011261050a576103c6906103b760016108a1611596565b926108ad6103526117da565b6000805160206123f083398151915286526005602052852001546117fd565b5082903461050a5760209081600319360112610327578035916001600160401b0391828411610aaa5736602385011215610aaa578381013561090d81611662565b9461091a88519687611641565b818652366024838301011161032357818792602486930183890137860101526109446103526117da565b8351928311610a975750610959600d5461167d565b601f8111610a5d575b5080601f83116001146109d1575093816109c0939285967f5c9db415e672f6d0f9a26180f0ff083c406f4c7aa95aec2c0e9536794035a4d896916109c6575b508160011b916000199060031b1c191617600d555b51918291826115c7565b0390a180f35b9050830151876109a1565b90601f198316600d86528286209286905b828210610a45575050927f5c9db415e672f6d0f9a26180f0ff083c406f4c7aa95aec2c0e9536794035a4d8959692600192826109c0979610610a2c575b5050811b01600d556109b6565b85015160001960f88460031b161c191690558780610a1f565b80600185968294968a015181550195019301906109e2565b610a8790600d8652828620601f850160051c810191848610610a8d575b601f0160051c01906117c3565b85610962565b9091508190610a7a565b634e487b7160e01b855260419052602484fd5b8480fd5b503461032757602036600319011261032757610ac8611596565b916000805160206123d08339815191528452600560205280842033855260205260ff81852054168015610b71575b15610b2257336001600160a01b03841603610b1557836103c684611a30565b5163334bd91960e11b8152fd5b906020608492519162461bcd60e51b8352820152602360248201527f41757468436f6e74726f6c3a2043616c6c6572206973206e6f7420612070617560448201526239b2b960e91b6064820152fd5b50610b7a6117da565b610af6565b50503461050a578160031936011261050a57600a5490516001600160a01b039091168152602090f35b50503461050a578160031936011261050a5760209060ff600e541690519015158152f35b50503461050a578160031936011261050a5760ff602092541690519015158152f35b50503461050a578160031936011261050a576020905160648152f35b50503461050a57602036600319011261050a5760209160ff9082906001600160a01b03610c35611596565b1681526002855220541690519015158152f35b5034610327576020366003190112610327573563ffffffff60e01b811680910361032757825260036020908152918190205490516001600160a01b039091168152f35b50503461050a57602036600319011261050a5760ff81602093610cac611596565b6000805160206123d08339815191528252600586528282206001600160a01b039091168252855220549151911615158152f35b50503461050a578160031936011261050a57602090600b549051908152f35b5034610327578260031936011261032757610d1a6103526117da565b600e549160ff831615610d3357505060ff1916600e5580f35b906020606492519162461bcd60e51b8352820152601460248201527314185d5cd8589b194e881b9bdd081c185d5cd95960621b6044820152fd5b50908260031936011261032757600e54610d8a60ff821615611739565b6002835414611096576002835560101c60ff161561108957331561107c5760018060a01b039182600a541693836009541693600c54948451602096878201926323b872dd60e01b8452336024840152604483015260648201526064815260a081018181106001600160401b0382111761106957865251610e1b9184918291828b5af1610e14611778565b908861234c565b805190868215159283611050575b50505061103957610e7994955063ffffffff600e5460181c16906006541690868551610e5481611610565b8481528482820152828782015286518098819263a6c278f360e01b8352888301611e18565b0381855afa95861561102f57908792918497610ffc575b50869291610eca91875190610ea482611610565b86825286858301528882015287519889809481936309160b1560e11b83528a8301611e18565b03925af1948515610ff2578295610fc3575b508482526007865283822060020180546001600160a81b0319163317600160a01b179055600b80546001019055348110610f4f575b50506001907fc2b05df6babf2be3ce649000124d86f0e7de5e71f99b8edb50dfb2f20a7569ae835180610f458733836117a8565b0390a15551908152f35b340390348211610fb05780808084335af1610f68611778565b5015610fa157907f27468d49151596d3863ccb02e3911b3146a62533facd0765451ba556bb4fd9c8856001938551908152a19038610f11565b509051631e53f7e560e11b8152fd5b634e487b7160e01b815260118352602490fd5b9094508581813d8311610feb575b610fdb8183611641565b8101031261050a57519338610edc565b503d610fd1565b84513d84823e3d90fd5b9196509181813d8111611028575b6110148183611641565b810103126103275751948691610eca610e90565b503d61100a565b85513d85823e3d90fd5b8351635274afe760e01b8152808401879052602490fd5b6110609350820181019101611c0c565b15388681610e29565b634e487b7160e01b855260418652602485fd5b5163e6c4247b60e01b8152fd5b51630d6a7ef360e41b8152fd5b5051633ee5aeb560e01b8152fd5b5090346103275760c03660031901126103275781359060ff80831693848403611231576024358281169283820361031f57604435938185169182860361122d5760643593818516948581036112295760843590838216988983036112255760a435938585169c8d8603611221578e61111d6103526117da565b1580611219575b80611211575b80611209575b80611201575b806111f9575b6111e957606496959361115d61115d9461115d611162989561115d9561170f565b61170f565b16036111d957888052600f60205285892060ff19988982541617905560018952858920908882541617905560028852848820908782541617905560038752838720908682541617905585528185209084825416179055600584528320918254161790556201000062ff000019600e541617600e5580f35b8551630d6a7ef360e41b81528490fd5b8c51630d6a7ef360e41b81528b90fd5b508d1561113c565b508b15611136565b508915611130565b50881561112a565b508715611124565b8f80fd5b8d80fd5b8b80fd5b8980fd5b8580fd5b50503461050a578160031936011261050a57602090516000805160206123d08339815191528152f35b5090346103275780600319360112610327576006546001600160a01b0316903382900361129657836112936024358535611c44565b80f35b60449350519163073e64fd60e21b835233908301526024820152fd5b5091903461050a578060031936011261050a576112cd6115b1565b90336001600160a01b038316036112ea57506103c6919235611ba7565b5163334bd91960e11b81528390fd5b5090346103275780600319360112610327576103c6913561131d600161055a6115b1565b6119c7565b509034610327576020366003190112610327578135916113436103526117da565b821561137b5750816020917fa9ba7fa833bd01c7d078c99360f9c0764c1de898c3300802f43fd0ec1dee717c93600c5551908152a180f35b905163173ecfb760e31b8152fd5b50503461050a57602036600319011261050a5760ff816020936113aa611596565b6000805160206123f08339815191528252600586528282206001600160a01b039091168252855220549151911615158152f35b50346103275760203660031901126103275781602093600192358152600585522001549051908152f35b50503461050a578160031936011261050a57602090600c549051908152f35b50503461050a578160031936011261050a5780519082600d546114488161167d565b908185526020926001916001811690816000146114b8575060011461147d575b61147986866109b6828b0383611641565b0390f35b929550600d83528583205b8284106114a55750505082611479946109b6928201019438611468565b8054868501880152928601928101611488565b60ff191687860152505050151560051b83010192506109b68261147938611468565b5034610327576080366003190112610327576114f4611596565b506114fd6115b1565b50606435906001600160401b0390818311610aaa5736602384011215610aaa5782013590811161061b573691016024011161050a5751630a85bd0160e11b8152602090f35b92505034610327576020366003190112610327573563ffffffff60e01b81168091036103275760209250637965db0b60e01b8114908115611585575b5015158152f35b6301ffc9a760e01b1490503861157e565b600435906001600160a01b03821682036115ac57565b600080fd5b602435906001600160a01b03821682036115ac57565b6020808252825181830181905290939260005b8281106115fc57505060409293506000838284010152601f8019910116010190565b8181018601518482016040015285016115da565b606081019081106001600160401b0382111761162b57604052565b634e487b7160e01b600052604160045260246000fd5b90601f801991011681019081106001600160401b0382111761162b57604052565b6001600160401b03811161162b57601f01601f191660200190565b90600182811c921680156116ad575b602083101461169757565b634e487b7160e01b600052602260045260246000fd5b91607f169161168c565b156116be57565b60405162461bcd60e51b8152602060048201526024808201527f41757468436f6e74726f6c3a2043616c6c6572206973206e6f7420746865206f6044820152633bb732b960e11b6064820152608490fd5b9060ff8091169116019060ff821161172357565b634e487b7160e01b600052601160045260246000fd5b1561174057565b60405162461bcd60e51b815260206004820152601060248201526f14185d5cd8589b194e881c185d5cd95960821b6044820152606490fd5b3d156117a3573d9061178982611662565b916117976040519384611641565b82523d6000602084013e565b606090565b6001600160a01b039091168152602081019190915260400190565b8181106117ce575050565b600081556001016117c3565b336000908152600080516020612430833981519152602052604090205460ff1690565b80600052600560205260406000203360005260205260ff60406000205416156118235750565b6044906040519063e2517d3f60e01b82523360048301526024820152fd5b6001600160a01b031660008181527f09f04f5809d5be59813a33617d16f069caae874a6b34f03139f63d934daddae660205260408120549091906000805160206123f08339815191529060ff166118cb5780835260056020526040832082845260205260408320600160ff198254161790556000805160206123b0833981519152339380a4600190565b505090565b6001600160a01b031660008181527f787f97f3270d439d97068e73d6d75a066b24f84c342661f177d4e43e00e9f51360205260408120549091906000805160206123d08339815191529060ff166118cb5780835260056020526040832082845260205260408320600160ff198254161790556000805160206123b0833981519152339380a4600190565b6001600160a01b03166000818152600080516020612430833981519152602052604081205490919060ff166119c35781805260056020526040822081835260205260408220600160ff1982541617905533916000805160206123b08339815191528180a4600190565b5090565b906000918083526005602052604083209160018060a01b03169182845260205260ff604084205416156000146118cb5780835260056020526040832082845260205260408320600160ff198254161790556000805160206123b0833981519152339380a4600190565b6001600160a01b031660008181527f787f97f3270d439d97068e73d6d75a066b24f84c342661f177d4e43e00e9f51360205260408120549091906000805160206123d08339815191529060ff16156118cb578083526005602052604083208284526020526040832060ff198154169055600080516020612410833981519152339380a4600190565b6001600160a01b031660008181527f09f04f5809d5be59813a33617d16f069caae874a6b34f03139f63d934daddae660205260408120549091906000805160206123f08339815191529060ff16156118cb578083526005602052604083208284526020526040832060ff198154169055600080516020612410833981519152339380a4600190565b6001600160a01b03166000818152600080516020612430833981519152602052604081205490919060ff16156119c3578180526005602052604082208183526020526040822060ff19815416905533916000805160206124108339815191528180a4600190565b906000918083526005602052604083209160018060a01b03169182845260205260ff6040842054166000146118cb578083526005602052604083208284526020526040832060ff198154169055600080516020612410833981519152339380a4600190565b908160209103126115ac575180151581036115ac5790565b8115611c2e570690565b634e487b7160e01b600052601260045260246000fd5b91906000918383526020916007835260408085209360ff9687600287015460a01c1615611e075786526007815281862060028101805460ff60a81b1916600160a81b1790558390556008548251639aa19da760e01b81526004969183908290899082906001600160a01b03165afa908115611dfd578891611dd0575b5015611dbf57606484959406936005905b898216928315611d99576000198401938411978a97888a5b611d24578d908d828c16898111611d37578b828592611d11959452600f8d522054169061170f565b99168d8114611d2457600101988a611ce9565b634e487b7160e01b8d5260118c5260248dfd5b5050919a5093949295508391985016881015611d75575b168015611d62579495946000190190611cd1565b634e487b7160e01b895260118852602489fd5b9050611d8286828561223f565b611d8d578990611d4e565b50975050505050505050565b985098505050505050611dad915082612049565b611dbc57611dba90611e44565b565b50565b94505050509250611dba9150611e44565b611df09150833d8511611df6575b611de88183611641565b810190611c0c565b38611cc0565b503d611dde565b84513d8a823e3d90fd5b82516392b8197960e01b8152600490fd5b919091604063ffffffff81606084019561ffff8082511686526020820151166020860152015116910152565b600954604080519093926001600160a01b0392831691906001600160401b03908287018281118482101761162b57875260009485845260209486868601528851936080850190858210908211176120355793869195948a52876001968783528784840152878c8401528760608401528b5196879363912b431b60e01b8552600491846004870152602486018b86915b6002831061200e575050505060648501908a85925b848410611fee57505050505061012491839161010060e4840152816101048401525af1928315611fe45790859392918793611faf575b5082611f4e95830155600281600954169201541686895180968195829463048dbcef60e41b8452600484016117a8565b03925af1948515611fa657507fdd20b2dff2d53ef41435ad0074aea6e1ce693777fcc9ea8e76c76a8f3607dd219394611f88575b505080a1565b81611f9e92903d10611df657611de88183611641565b503880611f82565b513d84823e3d90fd5b848193959294503d8311611fdd575b611fc88183611641565b81010312611231575184929091611f4e611f1e565b503d611fbe565b88513d88823e3d90fd5b825160ff1681528d988c98508f97509390910192918201918c9101611ee8565b90939650889295989194975060ff86511681520193019101928894918c948b8d9895611ed3565b634e487b7160e01b88526041600452602488fd5b91906000928380526020600f815260409260ff848720541661206c575b50505050565b60085484516394ca644960e01b8152600481018890526001600160a01b03929188908290602490829087165afa91821561216d578891899361218b575b50816120b757505050612066565b906120c191611c24565b81518110156121775790839160051b01015161210983600186019280845560028560095416970196858854168b8a5180968195829463048dbcef60e41b8452600484016117a8565b03925af1801561216d577f5ea50d72ed96185eb6f31884978fae6836ea30ba583e3fb7c32b66135514723c979850612150575b5054925416908351928352820152a1600190565b61216690843d8611611df657611de88183611641565b503861213c565b86513d8a823e3d90fd5b634e487b7160e01b88526032600452602488fd5b915091503d8089833e61219e8183611641565b8101868282031261223b57815190858301516001600160401b0393848211611229570181601f82011215612237578051938411612223578360051b908951946121e989840187611641565b855287808601928201019283116112295787809101915b83831061221357505050509091386120a9565b8251815291810191889101612200565b634e487b7160e01b8b52604160045260248bfd5b8a80fd5b8880fd5b92919060ff1692600093808552602090600f825260409360ff8588205416612269575b5050505050565b60085485516394ca644960e01b815260048101939093526001600160a01b03929088908290602490829087165afa91821561216d57889189936122b4575b50816120b7575050612262565b915091503d8089833e6122c78183611641565b8101868282031261223b57815190858301516001600160401b0393848211611229570181601f82011215612237578051938411612223578360051b9089519461231289840187611641565b855287808601928201019283116112295787809101915b83831061233c57505050509091386122a7565b8251815291810191889101612329565b90612373575080511561236157805190602001fd5b604051630a12f52160e11b8152600490fd5b815115806123a6575b612384575090565b604051639996b31560e01b81526001600160a01b039091166004820152602490fd5b50803b1561237c56fe2f8788117e7eff1d82e926ec794901d17c78024a50270940304540a733656f0dfcb9fcbfa83b897fb2d5cf4b58962164105c1e71489a37ef3ae0db3fdce576f6df8b4c520ffe197c5343c6f5aec59570151ef9a492f2c624fd45ddde6135ec42f6391f5c32d9c69d2a47ea670b442974b53935d1edc7fd64eb21e047a839171b05b8ccbb9d4d8fb16ea74ce3c29a41f1b461fbdaff4714a0d9a8eb05499746bca264697066735822122024372827757c8ad2bcd12fdbc942952cae2a595b80f4581d3f324f782fbb730564736f6c63430008190033","opcodes":"PUSH1 0x80 DUP1 PUSH1 0x40 MSTORE CALLVALUE PUSH1 0x26 JUMPI PUSH1 0x1 PUSH1 0x4 SSTORE PUSH3 0xFFFFFF NOT PUSH1 0xE SLOAD AND PUSH1 0xE SSTORE PUSH2 0x2485 SWAP1 DUP2 PUSH2 0x2C DUP3 CODECOPY RETURN JUMPDEST PUSH1 0x0 DUP1 REVERT INVALID PUSH1 0x80 PUSH1 0x40 DUP2 DUP2 MSTORE PUSH1 0x4 DUP1 CALLDATASIZE LT ISZERO PUSH2 0x15 JUMPI PUSH1 0x0 DUP1 REVERT JUMPDEST PUSH1 0x0 SWAP3 DUP4 CALLDATALOAD PUSH1 0xE0 SHR SWAP1 DUP2 PUSH4 0x1FFC9A7 EQ PUSH2 0x1542 JUMPI POP DUP1 PUSH4 0x150B7A02 EQ PUSH2 0x14DA JUMPI DUP1 PUSH4 0x15C01616 EQ PUSH2 0x1426 JUMPI DUP1 PUSH4 0x184FA84F EQ PUSH2 0x1407 JUMPI DUP1 PUSH4 0x248A9CA3 EQ PUSH2 0x13DD JUMPI DUP1 PUSH4 0x24D7806C EQ PUSH2 0x1389 JUMPI DUP1 PUSH4 0x25B5B3B2 EQ PUSH2 0x1322 JUMPI DUP1 PUSH4 0x2F2FF15D EQ PUSH2 0x12F9 JUMPI DUP1 PUSH4 0x36568ABE EQ PUSH2 0x12B2 JUMPI DUP1 PUSH4 0x37ED11DB EQ PUSH2 0x125E JUMPI DUP1 PUSH4 0x389ED267 EQ PUSH2 0x1235 JUMPI DUP1 PUSH4 0x3BE7BCBF EQ PUSH2 0x10A4 JUMPI DUP1 PUSH4 0x3DB8DF98 EQ PUSH2 0xD6D JUMPI DUP1 PUSH4 0x3F4BA83A EQ PUSH2 0xCFE JUMPI DUP1 PUSH4 0x3FAD1834 EQ PUSH2 0xCDF JUMPI DUP1 PUSH4 0x46FBF68E EQ PUSH2 0xC8B JUMPI DUP1 PUSH4 0x50D2A276 EQ PUSH2 0xC48 JUMPI DUP1 PUSH4 0x550D01A3 EQ PUSH2 0xC0A JUMPI DUP1 PUSH4 0x62043BD8 EQ PUSH2 0xBEE JUMPI DUP1 PUSH4 0x63A8FD89 EQ PUSH2 0xBCC JUMPI DUP1 PUSH4 0x6805B84B EQ PUSH2 0xBA8 JUMPI DUP1 PUSH4 0x6AE638D0 EQ PUSH2 0xB7F JUMPI DUP1 PUSH4 0x6B2C0F55 EQ PUSH2 0xAAE JUMPI DUP1 PUSH4 0x6ECD19CB EQ PUSH2 0x8CC JUMPI DUP1 PUSH4 0x70480275 EQ PUSH2 0x87D JUMPI DUP1 PUSH4 0x75B238FC EQ PUSH2 0x854 JUMPI DUP1 PUSH4 0x82DC1EC4 EQ PUSH2 0x800 JUMPI DUP1 PUSH4 0x8456CB59 EQ PUSH2 0x7C4 JUMPI DUP1 PUSH4 0x8F32D59B EQ PUSH2 0x79E JUMPI DUP1 PUSH4 0x91D14854 EQ PUSH2 0x758 JUMPI DUP1 PUSH4 0x9A202D47 EQ PUSH2 0x6C2 JUMPI DUP1 PUSH4 0x9D541BE2 EQ PUSH2 0x699 JUMPI DUP1 PUSH4 0xA168FA89 EQ PUSH2 0x63A JUMPI DUP1 PUSH4 0xA217FDDF EQ PUSH2 0x61F JUMPI DUP1 PUSH4 0xA4EB718C EQ PUSH2 0x5A3 JUMPI DUP1 PUSH4 0xB911135F EQ PUSH2 0x571 JUMPI DUP1 PUSH4 0xD547741F EQ PUSH2 0x536 JUMPI DUP1 PUSH4 0xDE8BE8E7 EQ PUSH2 0x50E JUMPI DUP1 PUSH4 0xE0024604 EQ PUSH2 0x4E1 JUMPI DUP1 PUSH4 0xE6147518 EQ PUSH2 0x46B JUMPI DUP1 PUSH4 0xF0F44260 EQ PUSH2 0x3E7 JUMPI DUP1 PUSH4 0xF2FDE38B EQ PUSH2 0x32B JUMPI PUSH4 0xF7013EF6 EQ PUSH2 0x1FC JUMPI PUSH1 0x0 DUP1 REVERT JUMPDEST CALLVALUE PUSH2 0x327 JUMPI PUSH1 0xA0 CALLDATASIZE PUSH1 0x3 NOT ADD SLT PUSH2 0x327 JUMPI PUSH2 0x215 PUSH2 0x1596 JUMP JUMPDEST SWAP2 PUSH2 0x21E PUSH2 0x15B1 JUMP JUMPDEST SWAP1 PUSH1 0x44 CALLDATALOAD PUSH1 0x1 DUP1 PUSH1 0xA0 SHL SUB SWAP4 DUP5 DUP3 AND DUP1 SWAP3 SUB PUSH2 0x323 JUMPI PUSH1 0x64 CALLDATALOAD SWAP3 DUP6 DUP5 AND DUP1 SWAP5 SUB PUSH2 0x31F JUMPI PUSH1 0xFF PUSH1 0xE SLOAD PUSH1 0x8 SHR AND PUSH2 0x313 JUMPI POP POP PUSH2 0x25A CALLER PUSH2 0x195A JUMP JUMPDEST POP DUP4 PUSH1 0x1 DUP1 PUSH1 0xA0 SHL SUB NOT SWAP6 AND DUP6 PUSH1 0x6 SLOAD AND OR PUSH1 0x6 SSTORE DUP5 PUSH1 0x8 SLOAD AND OR PUSH1 0x8 SSTORE DUP4 PUSH1 0x9 SLOAD AND OR PUSH1 0x9 SSTORE AND SWAP1 PUSH1 0xA SLOAD AND OR PUSH1 0xA SSTORE PUSH1 0x84 CALLDATALOAD PUSH1 0xC SSTORE PUSH6 0x200B20000000 PUSH7 0xFFFFFFFF000000 NOT PUSH1 0xE SLOAD AND OR PUSH1 0xE SSTORE PUSH2 0x2B4 PUSH1 0xD SLOAD PUSH2 0x167D JUMP JUMPDEST PUSH1 0x1F DUP2 GT PUSH2 0x2D5 JUMPI JUMPDEST POP PUSH1 0x0 PUSH1 0xD SSTORE PUSH2 0x100 PUSH2 0xFF00 NOT PUSH1 0xE SLOAD AND OR PUSH1 0xE SSTORE DUP1 RETURN JUMPDEST PUSH1 0xD DUP3 MSTORE PUSH2 0x30D SWAP1 PUSH1 0x1F ADD PUSH1 0x5 SHR PUSH32 0xD7B6990105719101DABEB77144F2A3385C8033ACD3AF97E9423A695E81AD1EB5 SWAP1 DUP2 ADD SWAP1 PUSH2 0x17C3 JUMP JUMPDEST CODESIZE PUSH2 0x2BD JUMP JUMPDEST MLOAD PUSH3 0xDC149F PUSH1 0xE4 SHL DUP2 MSTORE REVERT JUMPDEST DUP8 DUP1 REVERT JUMPDEST DUP7 DUP1 REVERT JUMPDEST DUP3 DUP1 REVERT JUMPDEST POP SWAP1 CALLVALUE PUSH2 0x327 JUMPI PUSH1 0x20 CALLDATASIZE PUSH1 0x3 NOT ADD SLT PUSH2 0x327 JUMPI PUSH2 0x346 PUSH2 0x1596 JUMP JUMPDEST SWAP2 PUSH2 0x357 PUSH2 0x352 PUSH2 0x17DA JUMP JUMPDEST PUSH2 0x16B7 JUMP JUMPDEST PUSH1 0x1 PUSH1 0x1 PUSH1 0xA0 SHL SUB DUP4 AND DUP1 ISZERO PUSH2 0x3D8 JUMPI CALLER EQ PUSH2 0x3CA JUMPI POP SWAP1 PUSH2 0x3B7 PUSH1 0x1 PUSH2 0x3BC SWAP4 DUP6 DUP1 MSTORE PUSH1 0x5 PUSH1 0x20 MSTORE PUSH2 0x38E DUP3 DUP3 DUP9 KECCAK256 ADD SLOAD PUSH2 0x17FD JUMP JUMPDEST PUSH2 0x397 DUP5 PUSH2 0x195A JUMP JUMPDEST POP PUSH1 0x0 DUP1 MLOAD PUSH1 0x20 PUSH2 0x23F0 DUP4 CODECOPY DUP2 MLOAD SWAP2 MSTORE DUP7 MSTORE PUSH1 0x5 PUSH1 0x20 MSTORE DUP6 KECCAK256 ADD SLOAD PUSH2 0x17FD JUMP JUMPDEST PUSH2 0x1841 JUMP JUMPDEST POP PUSH2 0x3C6 CALLER PUSH2 0x1B40 JUMP JUMPDEST POP DUP1 RETURN JUMPDEST SWAP1 MLOAD PUSH4 0xA98F1F3 PUSH1 0xE2 SHL DUP2 MSTORE REVERT JUMPDEST POP SWAP1 MLOAD PUSH4 0xD92E233D PUSH1 0xE0 SHL DUP2 MSTORE REVERT JUMPDEST POP SWAP1 CALLVALUE PUSH2 0x327 JUMPI PUSH1 0x20 CALLDATASIZE PUSH1 0x3 NOT ADD SLT PUSH2 0x327 JUMPI PUSH2 0x402 PUSH2 0x1596 JUMP JUMPDEST PUSH2 0x40D PUSH2 0x352 PUSH2 0x17DA JUMP JUMPDEST PUSH1 0x1 PUSH1 0x1 PUSH1 0xA0 SHL SUB AND SWAP2 DUP3 ISZERO PUSH2 0x45D JUMPI POP PUSH1 0x9 DUP1 SLOAD PUSH1 0x1 PUSH1 0x1 PUSH1 0xA0 SHL SUB NOT AND DUP4 OR SWAP1 SSTORE MLOAD SWAP1 DUP2 MSTORE PUSH32 0xB6A5E89655CF506139085F051AF608195ED056F8DC550B180A1C38D401E2B6C4 SWAP1 PUSH1 0x20 SWAP1 LOG1 DUP1 RETURN JUMPDEST SWAP1 MLOAD PUSH4 0xE6C4247B PUSH1 0xE0 SHL DUP2 MSTORE REVERT JUMPDEST POP SWAP1 CALLVALUE PUSH2 0x327 JUMPI PUSH1 0x20 CALLDATASIZE PUSH1 0x3 NOT ADD SLT PUSH2 0x327 JUMPI PUSH2 0x486 PUSH2 0x1596 JUMP JUMPDEST PUSH2 0x491 PUSH2 0x352 PUSH2 0x17DA JUMP JUMPDEST PUSH1 0x1 PUSH1 0x1 PUSH1 0xA0 SHL SUB AND SWAP2 DUP3 ISZERO PUSH2 0x45D JUMPI POP PUSH1 0x8 DUP1 SLOAD PUSH1 0x1 PUSH1 0x1 PUSH1 0xA0 SHL SUB NOT AND DUP4 OR SWAP1 SSTORE MLOAD SWAP1 DUP2 MSTORE PUSH32 0xED7ACC23C47775012C7B3A370974B91AEFAB1849CACF173B5EA54273ABB48156 SWAP1 PUSH1 0x20 SWAP1 LOG1 DUP1 RETURN JUMPDEST POP POP CALLVALUE PUSH2 0x50A JUMPI DUP2 PUSH1 0x3 NOT CALLDATASIZE ADD SLT PUSH2 0x50A JUMPI PUSH1 0x9 SLOAD SWAP1 MLOAD PUSH1 0x1 PUSH1 0x1 PUSH1 0xA0 SHL SUB SWAP1 SWAP2 AND DUP2 MSTORE PUSH1 0x20 SWAP1 RETURN JUMPDEST POP DUP1 REVERT JUMPDEST POP POP CALLVALUE PUSH2 0x50A JUMPI DUP2 PUSH1 0x3 NOT CALLDATASIZE ADD SLT PUSH2 0x50A JUMPI PUSH1 0x20 SWAP1 PUSH4 0xFFFFFFFF PUSH1 0xE SLOAD PUSH1 0x18 SHR AND SWAP1 MLOAD SWAP1 DUP2 MSTORE RETURN JUMPDEST POP SWAP1 CALLVALUE PUSH2 0x327 JUMPI DUP1 PUSH1 0x3 NOT CALLDATASIZE ADD SLT PUSH2 0x327 JUMPI PUSH2 0x3C6 SWAP2 CALLDATALOAD PUSH2 0x56C PUSH1 0x1 PUSH2 0x55A PUSH2 0x15B1 JUMP JUMPDEST SWAP4 DUP4 DUP8 MSTORE PUSH1 0x5 PUSH1 0x20 MSTORE DUP7 KECCAK256 ADD SLOAD PUSH2 0x17FD JUMP JUMPDEST PUSH2 0x1BA7 JUMP JUMPDEST POP CALLVALUE PUSH2 0x327 JUMPI PUSH1 0x20 CALLDATASIZE PUSH1 0x3 NOT ADD SLT PUSH2 0x327 JUMPI CALLDATALOAD DUP3 MSTORE PUSH1 0x1 PUSH1 0x20 SWAP1 DUP2 MSTORE SWAP2 DUP2 SWAP1 KECCAK256 SLOAD SWAP1 MLOAD PUSH1 0x1 PUSH1 0x1 PUSH1 0xA0 SHL SUB SWAP1 SWAP2 AND DUP2 MSTORE RETURN JUMPDEST POP CALLVALUE PUSH2 0x327 JUMPI PUSH1 0x20 CALLDATASIZE PUSH1 0x3 NOT ADD SLT PUSH2 0x327 JUMPI CALLDATALOAD PUSH4 0xFFFFFFFF DUP2 AND DUP1 DUP3 SUB PUSH2 0x61B JUMPI PUSH32 0xE26FA4ACF522C01381834ACC8213105DF00A52674031C6311F5DC24BD608819F SWAP3 PUSH1 0x20 SWAP3 PUSH2 0x5F4 PUSH2 0x352 PUSH2 0x17DA JUMP JUMPDEST PUSH7 0xFFFFFFFF000000 PUSH1 0xE SLOAD SWAP2 PUSH1 0x18 SHL AND SWAP1 PUSH7 0xFFFFFFFF000000 NOT AND OR PUSH1 0xE SSTORE MLOAD SWAP1 DUP2 MSTORE LOG1 DUP1 RETURN JUMPDEST DUP4 DUP1 REVERT JUMPDEST POP POP CALLVALUE PUSH2 0x50A JUMPI DUP2 PUSH1 0x3 NOT CALLDATASIZE ADD SLT PUSH2 0x50A JUMPI MLOAD SWAP1 DUP2 MSTORE PUSH1 0x20 SWAP1 RETURN JUMPDEST POP CALLVALUE PUSH2 0x327 JUMPI PUSH1 0x20 CALLDATASIZE PUSH1 0x3 NOT ADD SLT PUSH2 0x327 JUMPI DUP2 PUSH1 0xA0 SWAP4 PUSH1 0xFF SWAP3 CALLDATALOAD DUP2 MSTORE PUSH1 0x7 PUSH1 0x20 MSTORE KECCAK256 DUP1 SLOAD SWAP3 PUSH1 0x2 PUSH1 0x1 DUP4 ADD SLOAD SWAP3 ADD SLOAD SWAP2 DUP2 MLOAD SWAP5 DUP6 MSTORE PUSH1 0x20 DUP6 ADD MSTORE PUSH1 0x1 DUP1 DUP7 SHL SUB DUP3 AND SWAP1 DUP5 ADD MSTORE DUP2 DUP2 DUP6 SHR AND ISZERO ISZERO PUSH1 0x60 DUP5 ADD MSTORE PUSH1 0xA8 SHR AND ISZERO ISZERO PUSH1 0x80 DUP3 ADD MSTORE RETURN JUMPDEST POP POP CALLVALUE PUSH2 0x50A JUMPI DUP2 PUSH1 0x3 NOT CALLDATASIZE ADD SLT PUSH2 0x50A JUMPI PUSH1 0x8 SLOAD SWAP1 MLOAD PUSH1 0x1 PUSH1 0x1 PUSH1 0xA0 SHL SUB SWAP1 SWAP2 AND DUP2 MSTORE PUSH1 0x20 SWAP1 RETURN JUMPDEST POP SWAP1 CALLVALUE PUSH2 0x327 JUMPI DUP3 PUSH1 0x3 NOT CALLDATASIZE ADD SLT PUSH2 0x327 JUMPI PUSH1 0x0 DUP1 MLOAD PUSH1 0x20 PUSH2 0x23F0 DUP4 CODECOPY DUP2 MLOAD SWAP2 MSTORE DUP4 MSTORE PUSH1 0x5 PUSH1 0x20 MSTORE DUP1 DUP4 KECCAK256 CALLER DUP5 MSTORE PUSH1 0x20 MSTORE PUSH1 0xFF DUP2 DUP5 KECCAK256 SLOAD AND ISZERO PUSH2 0x709 JUMPI DUP3 PUSH2 0x3C6 CALLER PUSH2 0x1AB8 JUMP JUMPDEST SWAP1 PUSH1 0x20 PUSH1 0x84 SWAP3 MLOAD SWAP2 PUSH3 0x461BCD PUSH1 0xE5 SHL DUP4 MSTORE DUP3 ADD MSTORE PUSH1 0x23 PUSH1 0x24 DUP3 ADD MSTORE PUSH32 0x41757468436F6E74726F6C3A2043616C6C6572206973206E6F7420616E206164 PUSH1 0x44 DUP3 ADD MSTORE PUSH3 0x36B4B7 PUSH1 0xE9 SHL PUSH1 0x64 DUP3 ADD MSTORE REVERT JUMPDEST POP CALLVALUE PUSH2 0x327 JUMPI DUP2 PUSH1 0x3 NOT CALLDATASIZE ADD SLT PUSH2 0x327 JUMPI DUP2 PUSH1 0x20 SWAP4 PUSH1 0xFF SWAP3 PUSH2 0x778 PUSH2 0x15B1 JUMP JUMPDEST SWAP1 CALLDATALOAD DUP3 MSTORE PUSH1 0x5 DUP7 MSTORE DUP3 DUP3 KECCAK256 PUSH1 0x1 PUSH1 0x1 PUSH1 0xA0 SHL SUB SWAP1 SWAP2 AND DUP3 MSTORE DUP6 MSTORE KECCAK256 SLOAD SWAP2 MLOAD SWAP2 AND ISZERO ISZERO DUP2 MSTORE RETURN JUMPDEST POP POP CALLVALUE PUSH2 0x50A JUMPI DUP2 PUSH1 0x3 NOT CALLDATASIZE ADD SLT PUSH2 0x50A JUMPI PUSH1 0x20 SWAP1 PUSH2 0x7BB PUSH2 0x17DA JUMP JUMPDEST SWAP1 MLOAD SWAP1 ISZERO ISZERO DUP2 MSTORE RETURN JUMPDEST DUP4 CALLVALUE PUSH2 0x7FD JUMPI DUP1 PUSH1 0x3 NOT CALLDATASIZE ADD SLT PUSH2 0x7FD JUMPI PUSH2 0x7E0 PUSH2 0x352 PUSH2 0x17DA JUMP JUMPDEST PUSH1 0x1 PUSH1 0xE SLOAD PUSH2 0x7F2 PUSH1 0xFF DUP3 AND ISZERO PUSH2 0x1739 JUMP JUMPDEST PUSH1 0xFF NOT AND OR PUSH1 0xE SSTORE DUP1 RETURN JUMPDEST DUP1 REVERT JUMPDEST POP POP CALLVALUE PUSH2 0x50A JUMPI PUSH1 0x20 CALLDATASIZE PUSH1 0x3 NOT ADD SLT PUSH2 0x50A JUMPI PUSH2 0x3C6 SWAP1 PUSH2 0x84F PUSH1 0x1 PUSH2 0x824 PUSH2 0x1596 JUMP JUMPDEST SWAP3 PUSH2 0x830 PUSH2 0x352 PUSH2 0x17DA JUMP JUMPDEST PUSH1 0x0 DUP1 MLOAD PUSH1 0x20 PUSH2 0x23D0 DUP4 CODECOPY DUP2 MLOAD SWAP2 MSTORE DUP7 MSTORE PUSH1 0x5 PUSH1 0x20 MSTORE DUP6 KECCAK256 ADD SLOAD PUSH2 0x17FD JUMP JUMPDEST PUSH2 0x18D0 JUMP JUMPDEST POP POP CALLVALUE PUSH2 0x50A JUMPI DUP2 PUSH1 0x3 NOT CALLDATASIZE ADD SLT PUSH2 0x50A JUMPI PUSH1 0x20 SWAP1 MLOAD PUSH1 0x0 DUP1 MLOAD PUSH1 0x20 PUSH2 0x23F0 DUP4 CODECOPY DUP2 MLOAD SWAP2 MSTORE DUP2 MSTORE RETURN JUMPDEST POP POP CALLVALUE PUSH2 0x50A JUMPI PUSH1 0x20 CALLDATASIZE PUSH1 0x3 NOT ADD SLT PUSH2 0x50A JUMPI PUSH2 0x3C6 SWAP1 PUSH2 0x3B7 PUSH1 0x1 PUSH2 0x8A1 PUSH2 0x1596 JUMP JUMPDEST SWAP3 PUSH2 0x8AD PUSH2 0x352 PUSH2 0x17DA JUMP JUMPDEST PUSH1 0x0 DUP1 MLOAD PUSH1 0x20 PUSH2 0x23F0 DUP4 CODECOPY DUP2 MLOAD SWAP2 MSTORE DUP7 MSTORE PUSH1 0x5 PUSH1 0x20 MSTORE DUP6 KECCAK256 ADD SLOAD PUSH2 0x17FD JUMP JUMPDEST POP DUP3 SWAP1 CALLVALUE PUSH2 0x50A JUMPI PUSH1 0x20 SWAP1 DUP2 PUSH1 0x3 NOT CALLDATASIZE ADD SLT PUSH2 0x327 JUMPI DUP1 CALLDATALOAD SWAP2 PUSH1 0x1 PUSH1 0x1 PUSH1 0x40 SHL SUB SWAP2 DUP3 DUP5 GT PUSH2 0xAAA JUMPI CALLDATASIZE PUSH1 0x23 DUP6 ADD SLT ISZERO PUSH2 0xAAA JUMPI DUP4 DUP2 ADD CALLDATALOAD PUSH2 0x90D DUP2 PUSH2 0x1662 JUMP JUMPDEST SWAP5 PUSH2 0x91A DUP9 MLOAD SWAP7 DUP8 PUSH2 0x1641 JUMP JUMPDEST DUP2 DUP7 MSTORE CALLDATASIZE PUSH1 0x24 DUP4 DUP4 ADD ADD GT PUSH2 0x323 JUMPI DUP2 DUP8 SWAP3 PUSH1 0x24 DUP7 SWAP4 ADD DUP4 DUP10 ADD CALLDATACOPY DUP7 ADD ADD MSTORE PUSH2 0x944 PUSH2 0x352 PUSH2 0x17DA JUMP JUMPDEST DUP4 MLOAD SWAP3 DUP4 GT PUSH2 0xA97 JUMPI POP PUSH2 0x959 PUSH1 0xD SLOAD PUSH2 0x167D JUMP JUMPDEST PUSH1 0x1F DUP2 GT PUSH2 0xA5D JUMPI JUMPDEST POP DUP1 PUSH1 0x1F DUP4 GT PUSH1 0x1 EQ PUSH2 0x9D1 JUMPI POP SWAP4 DUP2 PUSH2 0x9C0 SWAP4 SWAP3 DUP6 SWAP7 PUSH32 0x5C9DB415E672F6D0F9A26180F0FF083C406F4C7AA95AEC2C0E9536794035A4D8 SWAP7 SWAP2 PUSH2 0x9C6 JUMPI JUMPDEST POP DUP2 PUSH1 0x1 SHL SWAP2 PUSH1 0x0 NOT SWAP1 PUSH1 0x3 SHL SHR NOT AND OR PUSH1 0xD SSTORE JUMPDEST MLOAD SWAP2 DUP3 SWAP2 DUP3 PUSH2 0x15C7 JUMP JUMPDEST SUB SWAP1 LOG1 DUP1 RETURN JUMPDEST SWAP1 POP DUP4 ADD MLOAD DUP8 PUSH2 0x9A1 JUMP JUMPDEST SWAP1 PUSH1 0x1F NOT DUP4 AND PUSH1 0xD DUP7 MSTORE DUP3 DUP7 KECCAK256 SWAP3 DUP7 SWAP1 JUMPDEST DUP3 DUP3 LT PUSH2 0xA45 JUMPI POP POP SWAP3 PUSH32 0x5C9DB415E672F6D0F9A26180F0FF083C406F4C7AA95AEC2C0E9536794035A4D8 SWAP6 SWAP7 SWAP3 PUSH1 0x1 SWAP3 DUP3 PUSH2 0x9C0 SWAP8 SWAP7 LT PUSH2 0xA2C JUMPI JUMPDEST POP POP DUP2 SHL ADD PUSH1 0xD SSTORE PUSH2 0x9B6 JUMP JUMPDEST DUP6 ADD MLOAD PUSH1 0x0 NOT PUSH1 0xF8 DUP5 PUSH1 0x3 SHL AND SHR NOT AND SWAP1 SSTORE DUP8 DUP1 PUSH2 0xA1F JUMP JUMPDEST DUP1 PUSH1 0x1 DUP6 SWAP7 DUP3 SWAP5 SWAP7 DUP11 ADD MLOAD DUP2 SSTORE ADD SWAP6 ADD SWAP4 ADD SWAP1 PUSH2 0x9E2 JUMP JUMPDEST PUSH2 0xA87 SWAP1 PUSH1 0xD DUP7 MSTORE DUP3 DUP7 KECCAK256 PUSH1 0x1F DUP6 ADD PUSH1 0x5 SHR DUP2 ADD SWAP2 DUP5 DUP7 LT PUSH2 0xA8D JUMPI JUMPDEST PUSH1 0x1F ADD PUSH1 0x5 SHR ADD SWAP1 PUSH2 0x17C3 JUMP JUMPDEST DUP6 PUSH2 0x962 JUMP JUMPDEST SWAP1 SWAP2 POP DUP2 SWAP1 PUSH2 0xA7A JUMP JUMPDEST PUSH4 0x4E487B71 PUSH1 0xE0 SHL DUP6 MSTORE PUSH1 0x41 SWAP1 MSTORE PUSH1 0x24 DUP5 REVERT JUMPDEST DUP5 DUP1 REVERT JUMPDEST POP CALLVALUE PUSH2 0x327 JUMPI PUSH1 0x20 CALLDATASIZE PUSH1 0x3 NOT ADD SLT PUSH2 0x327 JUMPI PUSH2 0xAC8 PUSH2 0x1596 JUMP JUMPDEST SWAP2 PUSH1 0x0 DUP1 MLOAD PUSH1 0x20 PUSH2 0x23D0 DUP4 CODECOPY DUP2 MLOAD SWAP2 MSTORE DUP5 MSTORE PUSH1 0x5 PUSH1 0x20 MSTORE DUP1 DUP5 KECCAK256 CALLER DUP6 MSTORE PUSH1 0x20 MSTORE PUSH1 0xFF DUP2 DUP6 KECCAK256 SLOAD AND DUP1 ISZERO PUSH2 0xB71 JUMPI JUMPDEST ISZERO PUSH2 0xB22 JUMPI CALLER PUSH1 0x1 PUSH1 0x1 PUSH1 0xA0 SHL SUB DUP5 AND SUB PUSH2 0xB15 JUMPI DUP4 PUSH2 0x3C6 DUP5 PUSH2 0x1A30 JUMP JUMPDEST MLOAD PUSH4 0x334BD919 PUSH1 0xE1 SHL DUP2 MSTORE REVERT JUMPDEST SWAP1 PUSH1 0x20 PUSH1 0x84 SWAP3 MLOAD SWAP2 PUSH3 0x461BCD PUSH1 0xE5 SHL DUP4 MSTORE DUP3 ADD MSTORE PUSH1 0x23 PUSH1 0x24 DUP3 ADD MSTORE PUSH32 0x41757468436F6E74726F6C3A2043616C6C6572206973206E6F74206120706175 PUSH1 0x44 DUP3 ADD MSTORE PUSH3 0x39B2B9 PUSH1 0xE9 SHL PUSH1 0x64 DUP3 ADD MSTORE REVERT JUMPDEST POP PUSH2 0xB7A PUSH2 0x17DA JUMP JUMPDEST PUSH2 0xAF6 JUMP JUMPDEST POP POP CALLVALUE PUSH2 0x50A JUMPI DUP2 PUSH1 0x3 NOT CALLDATASIZE ADD SLT PUSH2 0x50A JUMPI PUSH1 0xA SLOAD SWAP1 MLOAD PUSH1 0x1 PUSH1 0x1 PUSH1 0xA0 SHL SUB SWAP1 SWAP2 AND DUP2 MSTORE PUSH1 0x20 SWAP1 RETURN JUMPDEST POP POP CALLVALUE PUSH2 0x50A JUMPI DUP2 PUSH1 0x3 NOT CALLDATASIZE ADD SLT PUSH2 0x50A JUMPI PUSH1 0x20 SWAP1 PUSH1 0xFF PUSH1 0xE SLOAD AND SWAP1 MLOAD SWAP1 ISZERO ISZERO DUP2 MSTORE RETURN JUMPDEST POP POP CALLVALUE PUSH2 0x50A JUMPI DUP2 PUSH1 0x3 NOT CALLDATASIZE ADD SLT PUSH2 0x50A JUMPI PUSH1 0xFF PUSH1 0x20 SWAP3 SLOAD AND SWAP1 MLOAD SWAP1 ISZERO ISZERO DUP2 MSTORE RETURN JUMPDEST POP POP CALLVALUE PUSH2 0x50A JUMPI DUP2 PUSH1 0x3 NOT CALLDATASIZE ADD SLT PUSH2 0x50A JUMPI PUSH1 0x20 SWAP1 MLOAD PUSH1 0x64 DUP2 MSTORE RETURN JUMPDEST POP POP CALLVALUE PUSH2 0x50A JUMPI PUSH1 0x20 CALLDATASIZE PUSH1 0x3 NOT ADD SLT PUSH2 0x50A JUMPI PUSH1 0x20 SWAP2 PUSH1 0xFF SWAP1 DUP3 SWAP1 PUSH1 0x1 PUSH1 0x1 PUSH1 0xA0 SHL SUB PUSH2 0xC35 PUSH2 0x1596 JUMP JUMPDEST AND DUP2 MSTORE PUSH1 0x2 DUP6 MSTORE KECCAK256 SLOAD AND SWAP1 MLOAD SWAP1 ISZERO ISZERO DUP2 MSTORE RETURN JUMPDEST POP CALLVALUE PUSH2 0x327 JUMPI PUSH1 0x20 CALLDATASIZE PUSH1 0x3 NOT ADD SLT PUSH2 0x327 JUMPI CALLDATALOAD PUSH4 0xFFFFFFFF PUSH1 0xE0 SHL DUP2 AND DUP1 SWAP2 SUB PUSH2 0x327 JUMPI DUP3 MSTORE PUSH1 0x3 PUSH1 0x20 SWAP1 DUP2 MSTORE SWAP2 DUP2 SWAP1 KECCAK256 SLOAD SWAP1 MLOAD PUSH1 0x1 PUSH1 0x1 PUSH1 0xA0 SHL SUB SWAP1 SWAP2 AND DUP2 MSTORE RETURN JUMPDEST POP POP CALLVALUE PUSH2 0x50A JUMPI PUSH1 0x20 CALLDATASIZE PUSH1 0x3 NOT ADD SLT PUSH2 0x50A JUMPI PUSH1 0xFF DUP2 PUSH1 0x20 SWAP4 PUSH2 0xCAC PUSH2 0x1596 JUMP JUMPDEST PUSH1 0x0 DUP1 MLOAD PUSH1 0x20 PUSH2 0x23D0 DUP4 CODECOPY DUP2 MLOAD SWAP2 MSTORE DUP3 MSTORE PUSH1 0x5 DUP7 MSTORE DUP3 DUP3 KECCAK256 PUSH1 0x1 PUSH1 0x1 PUSH1 0xA0 SHL SUB SWAP1 SWAP2 AND DUP3 MSTORE DUP6 MSTORE KECCAK256 SLOAD SWAP2 MLOAD SWAP2 AND ISZERO ISZERO DUP2 MSTORE RETURN JUMPDEST POP POP CALLVALUE PUSH2 0x50A JUMPI DUP2 PUSH1 0x3 NOT CALLDATASIZE ADD SLT PUSH2 0x50A JUMPI PUSH1 0x20 SWAP1 PUSH1 0xB SLOAD SWAP1 MLOAD SWAP1 DUP2 MSTORE RETURN JUMPDEST POP CALLVALUE PUSH2 0x327 JUMPI DUP3 PUSH1 0x3 NOT CALLDATASIZE ADD SLT PUSH2 0x327 JUMPI PUSH2 0xD1A PUSH2 0x352 PUSH2 0x17DA JUMP JUMPDEST PUSH1 0xE SLOAD SWAP2 PUSH1 0xFF DUP4 AND ISZERO PUSH2 0xD33 JUMPI POP POP PUSH1 0xFF NOT AND PUSH1 0xE SSTORE DUP1 RETURN JUMPDEST SWAP1 PUSH1 0x20 PUSH1 0x64 SWAP3 MLOAD SWAP2 PUSH3 0x461BCD PUSH1 0xE5 SHL DUP4 MSTORE DUP3 ADD MSTORE PUSH1 0x14 PUSH1 0x24 DUP3 ADD MSTORE PUSH20 0x14185D5CD8589B194E881B9BDD081C185D5CD959 PUSH1 0x62 SHL PUSH1 0x44 DUP3 ADD MSTORE REVERT JUMPDEST POP SWAP1 DUP3 PUSH1 0x3 NOT CALLDATASIZE ADD SLT PUSH2 0x327 JUMPI PUSH1 0xE SLOAD PUSH2 0xD8A PUSH1 0xFF DUP3 AND ISZERO PUSH2 0x1739 JUMP JUMPDEST PUSH1 0x2 DUP4 SLOAD EQ PUSH2 0x1096 JUMPI PUSH1 0x2 DUP4 SSTORE PUSH1 0x10 SHR PUSH1 0xFF AND ISZERO PUSH2 0x1089 JUMPI CALLER ISZERO PUSH2 0x107C JUMPI PUSH1 0x1 DUP1 PUSH1 0xA0 SHL SUB SWAP2 DUP3 PUSH1 0xA SLOAD AND SWAP4 DUP4 PUSH1 0x9 SLOAD AND SWAP4 PUSH1 0xC SLOAD SWAP5 DUP5 MLOAD PUSH1 0x20 SWAP7 DUP8 DUP3 ADD SWAP3 PUSH4 0x23B872DD PUSH1 0xE0 SHL DUP5 MSTORE CALLER PUSH1 0x24 DUP5 ADD MSTORE PUSH1 0x44 DUP4 ADD MSTORE PUSH1 0x64 DUP3 ADD MSTORE PUSH1 0x64 DUP2 MSTORE PUSH1 0xA0 DUP2 ADD DUP2 DUP2 LT PUSH1 0x1 PUSH1 0x1 PUSH1 0x40 SHL SUB DUP3 GT OR PUSH2 0x1069 JUMPI DUP7 MSTORE MLOAD PUSH2 0xE1B SWAP2 DUP5 SWAP2 DUP3 SWAP2 DUP3 DUP12 GAS CALL PUSH2 0xE14 PUSH2 0x1778 JUMP JUMPDEST SWAP1 DUP9 PUSH2 0x234C JUMP JUMPDEST DUP1 MLOAD SWAP1 DUP7 DUP3 ISZERO ISZERO SWAP3 DUP4 PUSH2 0x1050 JUMPI JUMPDEST POP POP POP PUSH2 0x1039 JUMPI PUSH2 0xE79 SWAP5 SWAP6 POP PUSH4 0xFFFFFFFF PUSH1 0xE SLOAD PUSH1 0x18 SHR AND SWAP1 PUSH1 0x6 SLOAD AND SWAP1 DUP7 DUP6 MLOAD PUSH2 0xE54 DUP2 PUSH2 0x1610 JUMP JUMPDEST DUP5 DUP2 MSTORE DUP5 DUP3 DUP3 ADD MSTORE DUP3 DUP8 DUP3 ADD MSTORE DUP7 MLOAD DUP1 SWAP9 DUP2 SWAP3 PUSH4 0xA6C278F3 PUSH1 0xE0 SHL DUP4 MSTORE DUP9 DUP4 ADD PUSH2 0x1E18 JUMP JUMPDEST SUB DUP2 DUP6 GAS STATICCALL SWAP6 DUP7 ISZERO PUSH2 0x102F JUMPI SWAP1 DUP8 SWAP3 SWAP2 DUP5 SWAP8 PUSH2 0xFFC JUMPI JUMPDEST POP DUP7 SWAP3 SWAP2 PUSH2 0xECA SWAP2 DUP8 MLOAD SWAP1 PUSH2 0xEA4 DUP3 PUSH2 0x1610 JUMP JUMPDEST DUP7 DUP3 MSTORE DUP7 DUP6 DUP4 ADD MSTORE DUP9 DUP3 ADD MSTORE DUP8 MLOAD SWAP9 DUP10 DUP1 SWAP5 DUP2 SWAP4 PUSH4 0x9160B15 PUSH1 0xE1 SHL DUP4 MSTORE DUP11 DUP4 ADD PUSH2 0x1E18 JUMP JUMPDEST SUB SWAP3 GAS CALL SWAP5 DUP6 ISZERO PUSH2 0xFF2 JUMPI DUP3 SWAP6 PUSH2 0xFC3 JUMPI JUMPDEST POP DUP5 DUP3 MSTORE PUSH1 0x7 DUP7 MSTORE DUP4 DUP3 KECCAK256 PUSH1 0x2 ADD DUP1 SLOAD PUSH1 0x1 PUSH1 0x1 PUSH1 0xA8 SHL SUB NOT AND CALLER OR PUSH1 0x1 PUSH1 0xA0 SHL OR SWAP1 SSTORE PUSH1 0xB DUP1 SLOAD PUSH1 0x1 ADD SWAP1 SSTORE CALLVALUE DUP2 LT PUSH2 0xF4F JUMPI JUMPDEST POP POP PUSH1 0x1 SWAP1 PUSH32 0xC2B05DF6BABF2BE3CE649000124D86F0E7DE5E71F99B8EDB50DFB2F20A7569AE DUP4 MLOAD DUP1 PUSH2 0xF45 DUP8 CALLER DUP4 PUSH2 0x17A8 JUMP JUMPDEST SUB SWAP1 LOG1 SSTORE MLOAD SWAP1 DUP2 MSTORE RETURN JUMPDEST CALLVALUE SUB SWAP1 CALLVALUE DUP3 GT PUSH2 0xFB0 JUMPI DUP1 DUP1 DUP1 DUP5 CALLER GAS CALL PUSH2 0xF68 PUSH2 0x1778 JUMP JUMPDEST POP ISZERO PUSH2 0xFA1 JUMPI SWAP1 PUSH32 0x27468D49151596D3863CCB02E3911B3146A62533FACD0765451BA556BB4FD9C8 DUP6 PUSH1 0x1 SWAP4 DUP6 MLOAD SWAP1 DUP2 MSTORE LOG1 SWAP1 CODESIZE PUSH2 0xF11 JUMP JUMPDEST POP SWAP1 MLOAD PUSH4 0x1E53F7E5 PUSH1 0xE1 SHL DUP2 MSTORE REVERT JUMPDEST PUSH4 0x4E487B71 PUSH1 0xE0 SHL DUP2 MSTORE PUSH1 0x11 DUP4 MSTORE PUSH1 0x24 SWAP1 REVERT JUMPDEST SWAP1 SWAP5 POP DUP6 DUP2 DUP2 RETURNDATASIZE DUP4 GT PUSH2 0xFEB JUMPI JUMPDEST PUSH2 0xFDB DUP2 DUP4 PUSH2 0x1641 JUMP JUMPDEST DUP2 ADD SUB SLT PUSH2 0x50A JUMPI MLOAD SWAP4 CODESIZE PUSH2 0xEDC JUMP JUMPDEST POP RETURNDATASIZE PUSH2 0xFD1 JUMP JUMPDEST DUP5 MLOAD RETURNDATASIZE DUP5 DUP3 RETURNDATACOPY RETURNDATASIZE SWAP1 REVERT JUMPDEST SWAP2 SWAP7 POP SWAP2 DUP2 DUP2 RETURNDATASIZE DUP2 GT PUSH2 0x1028 JUMPI JUMPDEST PUSH2 0x1014 DUP2 DUP4 PUSH2 0x1641 JUMP JUMPDEST DUP2 ADD SUB SLT PUSH2 0x327 JUMPI MLOAD SWAP5 DUP7 SWAP2 PUSH2 0xECA PUSH2 0xE90 JUMP JUMPDEST POP RETURNDATASIZE PUSH2 0x100A JUMP JUMPDEST DUP6 MLOAD RETURNDATASIZE DUP6 DUP3 RETURNDATACOPY RETURNDATASIZE SWAP1 REVERT JUMPDEST DUP4 MLOAD PUSH4 0x5274AFE7 PUSH1 0xE0 SHL DUP2 MSTORE DUP1 DUP5 ADD DUP8 SWAP1 MSTORE PUSH1 0x24 SWAP1 REVERT JUMPDEST PUSH2 0x1060 SWAP4 POP DUP3 ADD DUP2 ADD SWAP2 ADD PUSH2 0x1C0C JUMP JUMPDEST ISZERO CODESIZE DUP7 DUP2 PUSH2 0xE29 JUMP JUMPDEST PUSH4 0x4E487B71 PUSH1 0xE0 SHL DUP6 MSTORE PUSH1 0x41 DUP7 MSTORE PUSH1 0x24 DUP6 REVERT JUMPDEST MLOAD PUSH4 0xE6C4247B PUSH1 0xE0 SHL DUP2 MSTORE REVERT JUMPDEST MLOAD PUSH4 0xD6A7EF3 PUSH1 0xE4 SHL DUP2 MSTORE REVERT JUMPDEST POP MLOAD PUSH4 0x3EE5AEB5 PUSH1 0xE0 SHL DUP2 MSTORE REVERT JUMPDEST POP SWAP1 CALLVALUE PUSH2 0x327 JUMPI PUSH1 0xC0 CALLDATASIZE PUSH1 0x3 NOT ADD SLT PUSH2 0x327 JUMPI DUP2 CALLDATALOAD SWAP1 PUSH1 0xFF DUP1 DUP4 AND SWAP4 DUP5 DUP5 SUB PUSH2 0x1231 JUMPI PUSH1 0x24 CALLDATALOAD DUP3 DUP2 AND SWAP3 DUP4 DUP3 SUB PUSH2 0x31F JUMPI PUSH1 0x44 CALLDATALOAD SWAP4 DUP2 DUP6 AND SWAP2 DUP3 DUP7 SUB PUSH2 0x122D JUMPI PUSH1 0x64 CALLDATALOAD SWAP4 DUP2 DUP6 AND SWAP5 DUP6 DUP2 SUB PUSH2 0x1229 JUMPI PUSH1 0x84 CALLDATALOAD SWAP1 DUP4 DUP3 AND SWAP9 DUP10 DUP4 SUB PUSH2 0x1225 JUMPI PUSH1 0xA4 CALLDATALOAD SWAP4 DUP6 DUP6 AND SWAP13 DUP14 DUP7 SUB PUSH2 0x1221 JUMPI DUP15 PUSH2 0x111D PUSH2 0x352 PUSH2 0x17DA JUMP JUMPDEST ISZERO DUP1 PUSH2 0x1219 JUMPI JUMPDEST DUP1 PUSH2 0x1211 JUMPI JUMPDEST DUP1 PUSH2 0x1209 JUMPI JUMPDEST DUP1 PUSH2 0x1201 JUMPI JUMPDEST DUP1 PUSH2 0x11F9 JUMPI JUMPDEST PUSH2 0x11E9 JUMPI PUSH1 0x64 SWAP7 SWAP6 SWAP4 PUSH2 0x115D PUSH2 0x115D SWAP5 PUSH2 0x115D PUSH2 0x1162 SWAP9 SWAP6 PUSH2 0x115D SWAP6 PUSH2 0x170F JUMP JUMPDEST PUSH2 0x170F JUMP JUMPDEST AND SUB PUSH2 0x11D9 JUMPI DUP9 DUP1 MSTORE PUSH1 0xF PUSH1 0x20 MSTORE DUP6 DUP10 KECCAK256 PUSH1 0xFF NOT SWAP9 DUP10 DUP3 SLOAD AND OR SWAP1 SSTORE PUSH1 0x1 DUP10 MSTORE DUP6 DUP10 KECCAK256 SWAP1 DUP9 DUP3 SLOAD AND OR SWAP1 SSTORE PUSH1 0x2 DUP9 MSTORE DUP5 DUP9 KECCAK256 SWAP1 DUP8 DUP3 SLOAD AND OR SWAP1 SSTORE PUSH1 0x3 DUP8 MSTORE DUP4 DUP8 KECCAK256 SWAP1 DUP7 DUP3 SLOAD AND OR SWAP1 SSTORE DUP6 MSTORE DUP2 DUP6 KECCAK256 SWAP1 DUP5 DUP3 SLOAD AND OR SWAP1 SSTORE PUSH1 0x5 DUP5 MSTORE DUP4 KECCAK256 SWAP2 DUP3 SLOAD AND OR SWAP1 SSTORE PUSH3 0x10000 PUSH3 0xFF0000 NOT PUSH1 0xE SLOAD AND OR PUSH1 0xE SSTORE DUP1 RETURN JUMPDEST DUP6 MLOAD PUSH4 0xD6A7EF3 PUSH1 0xE4 SHL DUP2 MSTORE DUP5 SWAP1 REVERT JUMPDEST DUP13 MLOAD PUSH4 0xD6A7EF3 PUSH1 0xE4 SHL DUP2 MSTORE DUP12 SWAP1 REVERT JUMPDEST POP DUP14 ISZERO PUSH2 0x113C JUMP JUMPDEST POP DUP12 ISZERO PUSH2 0x1136 JUMP JUMPDEST POP DUP10 ISZERO PUSH2 0x1130 JUMP JUMPDEST POP DUP9 ISZERO PUSH2 0x112A JUMP JUMPDEST POP DUP8 ISZERO PUSH2 0x1124 JUMP JUMPDEST DUP16 DUP1 REVERT JUMPDEST DUP14 DUP1 REVERT JUMPDEST DUP12 DUP1 REVERT JUMPDEST DUP10 DUP1 REVERT JUMPDEST DUP6 DUP1 REVERT JUMPDEST POP POP CALLVALUE PUSH2 0x50A JUMPI DUP2 PUSH1 0x3 NOT CALLDATASIZE ADD SLT PUSH2 0x50A JUMPI PUSH1 0x20 SWAP1 MLOAD PUSH1 0x0 DUP1 MLOAD PUSH1 0x20 PUSH2 0x23D0 DUP4 CODECOPY DUP2 MLOAD SWAP2 MSTORE DUP2 MSTORE RETURN JUMPDEST POP SWAP1 CALLVALUE PUSH2 0x327 JUMPI DUP1 PUSH1 0x3 NOT CALLDATASIZE ADD SLT PUSH2 0x327 JUMPI PUSH1 0x6 SLOAD PUSH1 0x1 PUSH1 0x1 PUSH1 0xA0 SHL SUB AND SWAP1 CALLER DUP3 SWAP1 SUB PUSH2 0x1296 JUMPI DUP4 PUSH2 0x1293 PUSH1 0x24 CALLDATALOAD DUP6 CALLDATALOAD PUSH2 0x1C44 JUMP JUMPDEST DUP1 RETURN JUMPDEST PUSH1 0x44 SWAP4 POP MLOAD SWAP2 PUSH4 0x73E64FD PUSH1 0xE2 SHL DUP4 MSTORE CALLER SWAP1 DUP4 ADD MSTORE PUSH1 0x24 DUP3 ADD MSTORE REVERT JUMPDEST POP SWAP2 SWAP1 CALLVALUE PUSH2 0x50A JUMPI DUP1 PUSH1 0x3 NOT CALLDATASIZE ADD SLT PUSH2 0x50A JUMPI PUSH2 0x12CD PUSH2 0x15B1 JUMP JUMPDEST SWAP1 CALLER PUSH1 0x1 PUSH1 0x1 PUSH1 0xA0 SHL SUB DUP4 AND SUB PUSH2 0x12EA JUMPI POP PUSH2 0x3C6 SWAP2 SWAP3 CALLDATALOAD PUSH2 0x1BA7 JUMP JUMPDEST MLOAD PUSH4 0x334BD919 PUSH1 0xE1 SHL DUP2 MSTORE DUP4 SWAP1 REVERT JUMPDEST POP SWAP1 CALLVALUE PUSH2 0x327 JUMPI DUP1 PUSH1 0x3 NOT CALLDATASIZE ADD SLT PUSH2 0x327 JUMPI PUSH2 0x3C6 SWAP2 CALLDATALOAD PUSH2 0x131D PUSH1 0x1 PUSH2 0x55A PUSH2 0x15B1 JUMP JUMPDEST PUSH2 0x19C7 JUMP JUMPDEST POP SWAP1 CALLVALUE PUSH2 0x327 JUMPI PUSH1 0x20 CALLDATASIZE PUSH1 0x3 NOT ADD SLT PUSH2 0x327 JUMPI DUP2 CALLDATALOAD SWAP2 PUSH2 0x1343 PUSH2 0x352 PUSH2 0x17DA JUMP JUMPDEST DUP3 ISZERO PUSH2 0x137B JUMPI POP DUP2 PUSH1 0x20 SWAP2 PUSH32 0xA9BA7FA833BD01C7D078C99360F9C0764C1DE898C3300802F43FD0EC1DEE717C SWAP4 PUSH1 0xC SSTORE MLOAD SWAP1 DUP2 MSTORE LOG1 DUP1 RETURN JUMPDEST SWAP1 MLOAD PUSH4 0x173ECFB7 PUSH1 0xE3 SHL DUP2 MSTORE REVERT JUMPDEST POP POP CALLVALUE PUSH2 0x50A JUMPI PUSH1 0x20 CALLDATASIZE PUSH1 0x3 NOT ADD SLT PUSH2 0x50A JUMPI PUSH1 0xFF DUP2 PUSH1 0x20 SWAP4 PUSH2 0x13AA PUSH2 0x1596 JUMP JUMPDEST PUSH1 0x0 DUP1 MLOAD PUSH1 0x20 PUSH2 0x23F0 DUP4 CODECOPY DUP2 MLOAD SWAP2 MSTORE DUP3 MSTORE PUSH1 0x5 DUP7 MSTORE DUP3 DUP3 KECCAK256 PUSH1 0x1 PUSH1 0x1 PUSH1 0xA0 SHL SUB SWAP1 SWAP2 AND DUP3 MSTORE DUP6 MSTORE KECCAK256 SLOAD SWAP2 MLOAD SWAP2 AND ISZERO ISZERO DUP2 MSTORE RETURN JUMPDEST POP CALLVALUE PUSH2 0x327 JUMPI PUSH1 0x20 CALLDATASIZE PUSH1 0x3 NOT ADD SLT PUSH2 0x327 JUMPI DUP2 PUSH1 0x20 SWAP4 PUSH1 0x1 SWAP3 CALLDATALOAD DUP2 MSTORE PUSH1 0x5 DUP6 MSTORE KECCAK256 ADD SLOAD SWAP1 MLOAD SWAP1 DUP2 MSTORE RETURN JUMPDEST POP POP CALLVALUE PUSH2 0x50A JUMPI DUP2 PUSH1 0x3 NOT CALLDATASIZE ADD SLT PUSH2 0x50A JUMPI PUSH1 0x20 SWAP1 PUSH1 0xC SLOAD SWAP1 MLOAD SWAP1 DUP2 MSTORE RETURN JUMPDEST POP POP CALLVALUE PUSH2 0x50A JUMPI DUP2 PUSH1 0x3 NOT CALLDATASIZE ADD SLT PUSH2 0x50A JUMPI DUP1 MLOAD SWAP1 DUP3 PUSH1 0xD SLOAD PUSH2 0x1448 DUP2 PUSH2 0x167D JUMP JUMPDEST SWAP1 DUP2 DUP6 MSTORE PUSH1 0x20 SWAP3 PUSH1 0x1 SWAP2 PUSH1 0x1 DUP2 AND SWAP1 DUP2 PUSH1 0x0 EQ PUSH2 0x14B8 JUMPI POP PUSH1 0x1 EQ PUSH2 0x147D JUMPI JUMPDEST PUSH2 0x1479 DUP7 DUP7 PUSH2 0x9B6 DUP3 DUP12 SUB DUP4 PUSH2 0x1641 JUMP JUMPDEST SUB SWAP1 RETURN JUMPDEST SWAP3 SWAP6 POP PUSH1 0xD DUP4 MSTORE DUP6 DUP4 KECCAK256 JUMPDEST DUP3 DUP5 LT PUSH2 0x14A5 JUMPI POP POP POP DUP3 PUSH2 0x1479 SWAP5 PUSH2 0x9B6 SWAP3 DUP3 ADD ADD SWAP5 CODESIZE PUSH2 0x1468 JUMP JUMPDEST DUP1 SLOAD DUP7 DUP6 ADD DUP9 ADD MSTORE SWAP3 DUP7 ADD SWAP3 DUP2 ADD PUSH2 0x1488 JUMP JUMPDEST PUSH1 0xFF NOT AND DUP8 DUP7 ADD MSTORE POP POP POP ISZERO ISZERO PUSH1 0x5 SHL DUP4 ADD ADD SWAP3 POP PUSH2 0x9B6 DUP3 PUSH2 0x1479 CODESIZE PUSH2 0x1468 JUMP JUMPDEST POP CALLVALUE PUSH2 0x327 JUMPI PUSH1 0x80 CALLDATASIZE PUSH1 0x3 NOT ADD SLT PUSH2 0x327 JUMPI PUSH2 0x14F4 PUSH2 0x1596 JUMP JUMPDEST POP PUSH2 0x14FD PUSH2 0x15B1 JUMP JUMPDEST POP PUSH1 0x64 CALLDATALOAD SWAP1 PUSH1 0x1 PUSH1 0x1 PUSH1 0x40 SHL SUB SWAP1 DUP2 DUP4 GT PUSH2 0xAAA JUMPI CALLDATASIZE PUSH1 0x23 DUP5 ADD SLT ISZERO PUSH2 0xAAA JUMPI DUP3 ADD CALLDATALOAD SWAP1 DUP2 GT PUSH2 0x61B JUMPI CALLDATASIZE SWAP2 ADD PUSH1 0x24 ADD GT PUSH2 0x50A JUMPI MLOAD PUSH4 0xA85BD01 PUSH1 0xE1 SHL DUP2 MSTORE PUSH1 0x20 SWAP1 RETURN JUMPDEST SWAP3 POP POP CALLVALUE PUSH2 0x327 JUMPI PUSH1 0x20 CALLDATASIZE PUSH1 0x3 NOT ADD SLT PUSH2 0x327 JUMPI CALLDATALOAD PUSH4 0xFFFFFFFF PUSH1 0xE0 SHL DUP2 AND DUP1 SWAP2 SUB PUSH2 0x327 JUMPI PUSH1 0x20 SWAP3 POP PUSH4 0x7965DB0B PUSH1 0xE0 SHL DUP2 EQ SWAP1 DUP2 ISZERO PUSH2 0x1585 JUMPI JUMPDEST POP ISZERO ISZERO DUP2 MSTORE RETURN JUMPDEST PUSH4 0x1FFC9A7 PUSH1 0xE0 SHL EQ SWAP1 POP CODESIZE PUSH2 0x157E JUMP JUMPDEST PUSH1 0x4 CALLDATALOAD SWAP1 PUSH1 0x1 PUSH1 0x1 PUSH1 0xA0 SHL SUB DUP3 AND DUP3 SUB PUSH2 0x15AC JUMPI JUMP JUMPDEST PUSH1 0x0 DUP1 REVERT JUMPDEST PUSH1 0x24 CALLDATALOAD SWAP1 PUSH1 0x1 PUSH1 0x1 PUSH1 0xA0 SHL SUB DUP3 AND DUP3 SUB PUSH2 0x15AC JUMPI JUMP JUMPDEST PUSH1 0x20 DUP1 DUP3 MSTORE DUP3 MLOAD DUP2 DUP4 ADD DUP2 SWAP1 MSTORE SWAP1 SWAP4 SWAP3 PUSH1 0x0 JUMPDEST DUP3 DUP2 LT PUSH2 0x15FC JUMPI POP POP PUSH1 0x40 SWAP3 SWAP4 POP PUSH1 0x0 DUP4 DUP3 DUP5 ADD ADD MSTORE PUSH1 0x1F DUP1 NOT SWAP2 ADD AND ADD ADD SWAP1 JUMP JUMPDEST DUP2 DUP2 ADD DUP7 ADD MLOAD DUP5 DUP3 ADD PUSH1 0x40 ADD MSTORE DUP6 ADD PUSH2 0x15DA JUMP JUMPDEST PUSH1 0x60 DUP2 ADD SWAP1 DUP2 LT PUSH1 0x1 PUSH1 0x1 PUSH1 0x40 SHL SUB DUP3 GT OR PUSH2 0x162B JUMPI PUSH1 0x40 MSTORE JUMP JUMPDEST PUSH4 0x4E487B71 PUSH1 0xE0 SHL PUSH1 0x0 MSTORE PUSH1 0x41 PUSH1 0x4 MSTORE PUSH1 0x24 PUSH1 0x0 REVERT JUMPDEST SWAP1 PUSH1 0x1F DUP1 NOT SWAP2 ADD AND DUP2 ADD SWAP1 DUP2 LT PUSH1 0x1 PUSH1 0x1 PUSH1 0x40 SHL SUB DUP3 GT OR PUSH2 0x162B JUMPI PUSH1 0x40 MSTORE JUMP JUMPDEST PUSH1 0x1 PUSH1 0x1 PUSH1 0x40 SHL SUB DUP2 GT PUSH2 0x162B JUMPI PUSH1 0x1F ADD PUSH1 0x1F NOT AND PUSH1 0x20 ADD SWAP1 JUMP JUMPDEST SWAP1 PUSH1 0x1 DUP3 DUP2 SHR SWAP3 AND DUP1 ISZERO PUSH2 0x16AD JUMPI JUMPDEST PUSH1 0x20 DUP4 LT EQ PUSH2 0x1697 JUMPI JUMP JUMPDEST PUSH4 0x4E487B71 PUSH1 0xE0 SHL PUSH1 0x0 MSTORE PUSH1 0x22 PUSH1 0x4 MSTORE PUSH1 0x24 PUSH1 0x0 REVERT JUMPDEST SWAP2 PUSH1 0x7F AND SWAP2 PUSH2 0x168C JUMP JUMPDEST ISZERO PUSH2 0x16BE JUMPI JUMP JUMPDEST PUSH1 0x40 MLOAD PUSH3 0x461BCD PUSH1 0xE5 SHL DUP2 MSTORE PUSH1 0x20 PUSH1 0x4 DUP3 ADD MSTORE PUSH1 0x24 DUP1 DUP3 ADD MSTORE PUSH32 0x41757468436F6E74726F6C3A2043616C6C6572206973206E6F7420746865206F PUSH1 0x44 DUP3 ADD MSTORE PUSH4 0x3BB732B9 PUSH1 0xE1 SHL PUSH1 0x64 DUP3 ADD MSTORE PUSH1 0x84 SWAP1 REVERT JUMPDEST SWAP1 PUSH1 0xFF DUP1 SWAP2 AND SWAP2 AND ADD SWAP1 PUSH1 0xFF DUP3 GT PUSH2 0x1723 JUMPI JUMP JUMPDEST PUSH4 0x4E487B71 PUSH1 0xE0 SHL PUSH1 0x0 MSTORE PUSH1 0x11 PUSH1 0x4 MSTORE PUSH1 0x24 PUSH1 0x0 REVERT JUMPDEST ISZERO PUSH2 0x1740 JUMPI JUMP JUMPDEST PUSH1 0x40 MLOAD PUSH3 0x461BCD PUSH1 0xE5 SHL DUP2 MSTORE PUSH1 0x20 PUSH1 0x4 DUP3 ADD MSTORE PUSH1 0x10 PUSH1 0x24 DUP3 ADD MSTORE PUSH16 0x14185D5CD8589B194E881C185D5CD959 PUSH1 0x82 SHL PUSH1 0x44 DUP3 ADD MSTORE PUSH1 0x64 SWAP1 REVERT JUMPDEST RETURNDATASIZE ISZERO PUSH2 0x17A3 JUMPI RETURNDATASIZE SWAP1 PUSH2 0x1789 DUP3 PUSH2 0x1662 JUMP JUMPDEST SWAP2 PUSH2 0x1797 PUSH1 0x40 MLOAD SWAP4 DUP5 PUSH2 0x1641 JUMP JUMPDEST DUP3 MSTORE RETURNDATASIZE PUSH1 0x0 PUSH1 0x20 DUP5 ADD RETURNDATACOPY JUMP JUMPDEST PUSH1 0x60 SWAP1 JUMP JUMPDEST PUSH1 0x1 PUSH1 0x1 PUSH1 0xA0 SHL SUB SWAP1 SWAP2 AND DUP2 MSTORE PUSH1 0x20 DUP2 ADD SWAP2 SWAP1 SWAP2 MSTORE PUSH1 0x40 ADD SWAP1 JUMP JUMPDEST DUP2 DUP2 LT PUSH2 0x17CE JUMPI POP POP JUMP JUMPDEST PUSH1 0x0 DUP2 SSTORE PUSH1 0x1 ADD PUSH2 0x17C3 JUMP JUMPDEST CALLER PUSH1 0x0 SWAP1 DUP2 MSTORE PUSH1 0x0 DUP1 MLOAD PUSH1 0x20 PUSH2 0x2430 DUP4 CODECOPY DUP2 MLOAD SWAP2 MSTORE PUSH1 0x20 MSTORE PUSH1 0x40 SWAP1 KECCAK256 SLOAD PUSH1 0xFF AND SWAP1 JUMP JUMPDEST DUP1 PUSH1 0x0 MSTORE PUSH1 0x5 PUSH1 0x20 MSTORE PUSH1 0x40 PUSH1 0x0 KECCAK256 CALLER PUSH1 0x0 MSTORE PUSH1 0x20 MSTORE PUSH1 0xFF PUSH1 0x40 PUSH1 0x0 KECCAK256 SLOAD AND ISZERO PUSH2 0x1823 JUMPI POP JUMP JUMPDEST PUSH1 0x44 SWAP1 PUSH1 0x40 MLOAD SWAP1 PUSH4 0xE2517D3F PUSH1 0xE0 SHL DUP3 MSTORE CALLER PUSH1 0x4 DUP4 ADD MSTORE PUSH1 0x24 DUP3 ADD MSTORE REVERT JUMPDEST PUSH1 0x1 PUSH1 0x1 PUSH1 0xA0 SHL SUB AND PUSH1 0x0 DUP2 DUP2 MSTORE PUSH32 0x9F04F5809D5BE59813A33617D16F069CAAE874A6B34F03139F63D934DADDAE6 PUSH1 0x20 MSTORE PUSH1 0x40 DUP2 KECCAK256 SLOAD SWAP1 SWAP2 SWAP1 PUSH1 0x0 DUP1 MLOAD PUSH1 0x20 PUSH2 0x23F0 DUP4 CODECOPY DUP2 MLOAD SWAP2 MSTORE SWAP1 PUSH1 0xFF AND PUSH2 0x18CB JUMPI DUP1 DUP4 MSTORE PUSH1 0x5 PUSH1 0x20 MSTORE PUSH1 0x40 DUP4 KECCAK256 DUP3 DUP5 MSTORE PUSH1 0x20 MSTORE PUSH1 0x40 DUP4 KECCAK256 PUSH1 0x1 PUSH1 0xFF NOT DUP3 SLOAD AND OR SWAP1 SSTORE PUSH1 0x0 DUP1 MLOAD PUSH1 0x20 PUSH2 0x23B0 DUP4 CODECOPY DUP2 MLOAD SWAP2 MSTORE CALLER SWAP4 DUP1 LOG4 PUSH1 0x1 SWAP1 JUMP JUMPDEST POP POP SWAP1 JUMP JUMPDEST PUSH1 0x1 PUSH1 0x1 PUSH1 0xA0 SHL SUB AND PUSH1 0x0 DUP2 DUP2 MSTORE PUSH32 0x787F97F3270D439D97068E73D6D75A066B24F84C342661F177D4E43E00E9F513 PUSH1 0x20 MSTORE PUSH1 0x40 DUP2 KECCAK256 SLOAD SWAP1 SWAP2 SWAP1 PUSH1 0x0 DUP1 MLOAD PUSH1 0x20 PUSH2 0x23D0 DUP4 CODECOPY DUP2 MLOAD SWAP2 MSTORE SWAP1 PUSH1 0xFF AND PUSH2 0x18CB JUMPI DUP1 DUP4 MSTORE PUSH1 0x5 PUSH1 0x20 MSTORE PUSH1 0x40 DUP4 KECCAK256 DUP3 DUP5 MSTORE PUSH1 0x20 MSTORE PUSH1 0x40 DUP4 KECCAK256 PUSH1 0x1 PUSH1 0xFF NOT DUP3 SLOAD AND OR SWAP1 SSTORE PUSH1 0x0 DUP1 MLOAD PUSH1 0x20 PUSH2 0x23B0 DUP4 CODECOPY DUP2 MLOAD SWAP2 MSTORE CALLER SWAP4 DUP1 LOG4 PUSH1 0x1 SWAP1 JUMP JUMPDEST PUSH1 0x1 PUSH1 0x1 PUSH1 0xA0 SHL SUB AND PUSH1 0x0 DUP2 DUP2 MSTORE PUSH1 0x0 DUP1 MLOAD PUSH1 0x20 PUSH2 0x2430 DUP4 CODECOPY DUP2 MLOAD SWAP2 MSTORE PUSH1 0x20 MSTORE PUSH1 0x40 DUP2 KECCAK256 SLOAD SWAP1 SWAP2 SWAP1 PUSH1 0xFF AND PUSH2 0x19C3 JUMPI DUP2 DUP1 MSTORE PUSH1 0x5 PUSH1 0x20 MSTORE PUSH1 0x40 DUP3 KECCAK256 DUP2 DUP4 MSTORE PUSH1 0x20 MSTORE PUSH1 0x40 DUP3 KECCAK256 PUSH1 0x1 PUSH1 0xFF NOT DUP3 SLOAD AND OR SWAP1 SSTORE CALLER SWAP2 PUSH1 0x0 DUP1 MLOAD PUSH1 0x20 PUSH2 0x23B0 DUP4 CODECOPY DUP2 MLOAD SWAP2 MSTORE DUP2 DUP1 LOG4 PUSH1 0x1 SWAP1 JUMP JUMPDEST POP SWAP1 JUMP JUMPDEST SWAP1 PUSH1 0x0 SWAP2 DUP1 DUP4 MSTORE PUSH1 0x5 PUSH1 0x20 MSTORE PUSH1 0x40 DUP4 KECCAK256 SWAP2 PUSH1 0x1 DUP1 PUSH1 0xA0 SHL SUB AND SWAP2 DUP3 DUP5 MSTORE PUSH1 0x20 MSTORE PUSH1 0xFF PUSH1 0x40 DUP5 KECCAK256 SLOAD AND ISZERO PUSH1 0x0 EQ PUSH2 0x18CB JUMPI DUP1 DUP4 MSTORE PUSH1 0x5 PUSH1 0x20 MSTORE PUSH1 0x40 DUP4 KECCAK256 DUP3 DUP5 MSTORE PUSH1 0x20 MSTORE PUSH1 0x40 DUP4 KECCAK256 PUSH1 0x1 PUSH1 0xFF NOT DUP3 SLOAD AND OR SWAP1 SSTORE PUSH1 0x0 DUP1 MLOAD PUSH1 0x20 PUSH2 0x23B0 DUP4 CODECOPY DUP2 MLOAD SWAP2 MSTORE CALLER SWAP4 DUP1 LOG4 PUSH1 0x1 SWAP1 JUMP JUMPDEST PUSH1 0x1 PUSH1 0x1 PUSH1 0xA0 SHL SUB AND PUSH1 0x0 DUP2 DUP2 MSTORE PUSH32 0x787F97F3270D439D97068E73D6D75A066B24F84C342661F177D4E43E00E9F513 PUSH1 0x20 MSTORE PUSH1 0x40 DUP2 KECCAK256 SLOAD SWAP1 SWAP2 SWAP1 PUSH1 0x0 DUP1 MLOAD PUSH1 0x20 PUSH2 0x23D0 DUP4 CODECOPY DUP2 MLOAD SWAP2 MSTORE SWAP1 PUSH1 0xFF AND ISZERO PUSH2 0x18CB JUMPI DUP1 DUP4 MSTORE PUSH1 0x5 PUSH1 0x20 MSTORE PUSH1 0x40 DUP4 KECCAK256 DUP3 DUP5 MSTORE PUSH1 0x20 MSTORE PUSH1 0x40 DUP4 KECCAK256 PUSH1 0xFF NOT DUP2 SLOAD AND SWAP1 SSTORE PUSH1 0x0 DUP1 MLOAD PUSH1 0x20 PUSH2 0x2410 DUP4 CODECOPY DUP2 MLOAD SWAP2 MSTORE CALLER SWAP4 DUP1 LOG4 PUSH1 0x1 SWAP1 JUMP JUMPDEST PUSH1 0x1 PUSH1 0x1 PUSH1 0xA0 SHL SUB AND PUSH1 0x0 DUP2 DUP2 MSTORE PUSH32 0x9F04F5809D5BE59813A33617D16F069CAAE874A6B34F03139F63D934DADDAE6 PUSH1 0x20 MSTORE PUSH1 0x40 DUP2 KECCAK256 SLOAD SWAP1 SWAP2 SWAP1 PUSH1 0x0 DUP1 MLOAD PUSH1 0x20 PUSH2 0x23F0 DUP4 CODECOPY DUP2 MLOAD SWAP2 MSTORE SWAP1 PUSH1 0xFF AND ISZERO PUSH2 0x18CB JUMPI DUP1 DUP4 MSTORE PUSH1 0x5 PUSH1 0x20 MSTORE PUSH1 0x40 DUP4 KECCAK256 DUP3 DUP5 MSTORE PUSH1 0x20 MSTORE PUSH1 0x40 DUP4 KECCAK256 PUSH1 0xFF NOT DUP2 SLOAD AND SWAP1 SSTORE PUSH1 0x0 DUP1 MLOAD PUSH1 0x20 PUSH2 0x2410 DUP4 CODECOPY DUP2 MLOAD SWAP2 MSTORE CALLER SWAP4 DUP1 LOG4 PUSH1 0x1 SWAP1 JUMP JUMPDEST PUSH1 0x1 PUSH1 0x1 PUSH1 0xA0 SHL SUB AND PUSH1 0x0 DUP2 DUP2 MSTORE PUSH1 0x0 DUP1 MLOAD PUSH1 0x20 PUSH2 0x2430 DUP4 CODECOPY DUP2 MLOAD SWAP2 MSTORE PUSH1 0x20 MSTORE PUSH1 0x40 DUP2 KECCAK256 SLOAD SWAP1 SWAP2 SWAP1 PUSH1 0xFF AND ISZERO PUSH2 0x19C3 JUMPI DUP2 DUP1 MSTORE PUSH1 0x5 PUSH1 0x20 MSTORE PUSH1 0x40 DUP3 KECCAK256 DUP2 DUP4 MSTORE PUSH1 0x20 MSTORE PUSH1 0x40 DUP3 KECCAK256 PUSH1 0xFF NOT DUP2 SLOAD AND SWAP1 SSTORE CALLER SWAP2 PUSH1 0x0 DUP1 MLOAD PUSH1 0x20 PUSH2 0x2410 DUP4 CODECOPY DUP2 MLOAD SWAP2 MSTORE DUP2 DUP1 LOG4 PUSH1 0x1 SWAP1 JUMP JUMPDEST SWAP1 PUSH1 0x0 SWAP2 DUP1 DUP4 MSTORE PUSH1 0x5 PUSH1 0x20 MSTORE PUSH1 0x40 DUP4 KECCAK256 SWAP2 PUSH1 0x1 DUP1 PUSH1 0xA0 SHL SUB AND SWAP2 DUP3 DUP5 MSTORE PUSH1 0x20 MSTORE PUSH1 0xFF PUSH1 0x40 DUP5 KECCAK256 SLOAD AND PUSH1 0x0 EQ PUSH2 0x18CB JUMPI DUP1 DUP4 MSTORE PUSH1 0x5 PUSH1 0x20 MSTORE PUSH1 0x40 DUP4 KECCAK256 DUP3 DUP5 MSTORE PUSH1 0x20 MSTORE PUSH1 0x40 DUP4 KECCAK256 PUSH1 0xFF NOT DUP2 SLOAD AND SWAP1 SSTORE PUSH1 0x0 DUP1 MLOAD PUSH1 0x20 PUSH2 0x2410 DUP4 CODECOPY DUP2 MLOAD SWAP2 MSTORE CALLER SWAP4 DUP1 LOG4 PUSH1 0x1 SWAP1 JUMP JUMPDEST SWAP1 DUP2 PUSH1 0x20 SWAP2 SUB SLT PUSH2 0x15AC JUMPI MLOAD DUP1 ISZERO ISZERO DUP2 SUB PUSH2 0x15AC JUMPI SWAP1 JUMP JUMPDEST DUP2 ISZERO PUSH2 0x1C2E JUMPI MOD SWAP1 JUMP JUMPDEST PUSH4 0x4E487B71 PUSH1 0xE0 SHL PUSH1 0x0 MSTORE PUSH1 0x12 PUSH1 0x4 MSTORE PUSH1 0x24 PUSH1 0x0 REVERT JUMPDEST SWAP2 SWAP1 PUSH1 0x0 SWAP2 DUP4 DUP4 MSTORE PUSH1 0x20 SWAP2 PUSH1 0x7 DUP4 MSTORE PUSH1 0x40 DUP1 DUP6 KECCAK256 SWAP4 PUSH1 0xFF SWAP7 DUP8 PUSH1 0x2 DUP8 ADD SLOAD PUSH1 0xA0 SHR AND ISZERO PUSH2 0x1E07 JUMPI DUP7 MSTORE PUSH1 0x7 DUP2 MSTORE DUP2 DUP7 KECCAK256 PUSH1 0x2 DUP2 ADD DUP1 SLOAD PUSH1 0xFF PUSH1 0xA8 SHL NOT AND PUSH1 0x1 PUSH1 0xA8 SHL OR SWAP1 SSTORE DUP4 SWAP1 SSTORE PUSH1 0x8 SLOAD DUP3 MLOAD PUSH4 0x9AA19DA7 PUSH1 0xE0 SHL DUP2 MSTORE PUSH1 0x4 SWAP7 SWAP2 DUP4 SWAP1 DUP3 SWAP1 DUP10 SWAP1 DUP3 SWAP1 PUSH1 0x1 PUSH1 0x1 PUSH1 0xA0 SHL SUB AND GAS STATICCALL SWAP1 DUP2 ISZERO PUSH2 0x1DFD JUMPI DUP9 SWAP2 PUSH2 0x1DD0 JUMPI JUMPDEST POP ISZERO PUSH2 0x1DBF JUMPI PUSH1 0x64 DUP5 SWAP6 SWAP5 MOD SWAP4 PUSH1 0x5 SWAP1 JUMPDEST DUP10 DUP3 AND SWAP3 DUP4 ISZERO PUSH2 0x1D99 JUMPI PUSH1 0x0 NOT DUP5 ADD SWAP4 DUP5 GT SWAP8 DUP11 SWAP8 DUP9 DUP11 JUMPDEST PUSH2 0x1D24 JUMPI DUP14 SWAP1 DUP14 DUP3 DUP13 AND DUP10 DUP2 GT PUSH2 0x1D37 JUMPI DUP12 DUP3 DUP6 SWAP3 PUSH2 0x1D11 SWAP6 SWAP5 MSTORE PUSH1 0xF DUP14 MSTORE KECCAK256 SLOAD AND SWAP1 PUSH2 0x170F JUMP JUMPDEST SWAP10 AND DUP14 DUP2 EQ PUSH2 0x1D24 JUMPI PUSH1 0x1 ADD SWAP9 DUP11 PUSH2 0x1CE9 JUMP JUMPDEST PUSH4 0x4E487B71 PUSH1 0xE0 SHL DUP14 MSTORE PUSH1 0x11 DUP13 MSTORE PUSH1 0x24 DUP14 REVERT JUMPDEST POP POP SWAP2 SWAP11 POP SWAP4 SWAP5 SWAP3 SWAP6 POP DUP4 SWAP2 SWAP9 POP AND DUP9 LT ISZERO PUSH2 0x1D75 JUMPI JUMPDEST AND DUP1 ISZERO PUSH2 0x1D62 JUMPI SWAP5 SWAP6 SWAP5 PUSH1 0x0 NOT ADD SWAP1 PUSH2 0x1CD1 JUMP JUMPDEST PUSH4 0x4E487B71 PUSH1 0xE0 SHL DUP10 MSTORE PUSH1 0x11 DUP9 MSTORE PUSH1 0x24 DUP10 REVERT JUMPDEST SWAP1 POP PUSH2 0x1D82 DUP7 DUP3 DUP6 PUSH2 0x223F JUMP JUMPDEST PUSH2 0x1D8D JUMPI DUP10 SWAP1 PUSH2 0x1D4E JUMP JUMPDEST POP SWAP8 POP POP POP POP POP POP POP POP JUMP JUMPDEST SWAP9 POP SWAP9 POP POP POP POP POP POP PUSH2 0x1DAD SWAP2 POP DUP3 PUSH2 0x2049 JUMP JUMPDEST PUSH2 0x1DBC JUMPI PUSH2 0x1DBA SWAP1 PUSH2 0x1E44 JUMP JUMPDEST JUMP JUMPDEST POP JUMP JUMPDEST SWAP5 POP POP POP POP SWAP3 POP PUSH2 0x1DBA SWAP2 POP PUSH2 0x1E44 JUMP JUMPDEST PUSH2 0x1DF0 SWAP2 POP DUP4 RETURNDATASIZE DUP6 GT PUSH2 0x1DF6 JUMPI JUMPDEST PUSH2 0x1DE8 DUP2 DUP4 PUSH2 0x1641 JUMP JUMPDEST DUP2 ADD SWAP1 PUSH2 0x1C0C JUMP JUMPDEST CODESIZE PUSH2 0x1CC0 JUMP JUMPDEST POP RETURNDATASIZE PUSH2 0x1DDE JUMP JUMPDEST DUP5 MLOAD RETURNDATASIZE DUP11 DUP3 RETURNDATACOPY RETURNDATASIZE SWAP1 REVERT JUMPDEST DUP3 MLOAD PUSH4 0x92B81979 PUSH1 0xE0 SHL DUP2 MSTORE PUSH1 0x4 SWAP1 REVERT JUMPDEST SWAP2 SWAP1 SWAP2 PUSH1 0x40 PUSH4 0xFFFFFFFF DUP2 PUSH1 0x60 DUP5 ADD SWAP6 PUSH2 0xFFFF DUP1 DUP3 MLOAD AND DUP7 MSTORE PUSH1 0x20 DUP3 ADD MLOAD AND PUSH1 0x20 DUP7 ADD MSTORE ADD MLOAD AND SWAP2 ADD MSTORE JUMP JUMPDEST PUSH1 0x9 SLOAD PUSH1 0x40 DUP1 MLOAD SWAP1 SWAP4 SWAP3 PUSH1 0x1 PUSH1 0x1 PUSH1 0xA0 SHL SUB SWAP3 DUP4 AND SWAP2 SWAP1 PUSH1 0x1 PUSH1 0x1 PUSH1 0x40 SHL SUB SWAP1 DUP3 DUP8 ADD DUP3 DUP2 GT DUP5 DUP3 LT OR PUSH2 0x162B JUMPI DUP8 MSTORE PUSH1 0x0 SWAP5 DUP6 DUP5 MSTORE PUSH1 0x20 SWAP5 DUP7 DUP7 DUP7 ADD MSTORE DUP9 MLOAD SWAP4 PUSH1 0x80 DUP6 ADD SWAP1 DUP6 DUP3 LT SWAP1 DUP3 GT OR PUSH2 0x2035 JUMPI SWAP4 DUP7 SWAP2 SWAP6 SWAP5 DUP11 MSTORE DUP8 PUSH1 0x1 SWAP7 DUP8 DUP4 MSTORE DUP8 DUP5 DUP5 ADD MSTORE DUP8 DUP13 DUP5 ADD MSTORE DUP8 PUSH1 0x60 DUP5 ADD MSTORE DUP12 MLOAD SWAP7 DUP8 SWAP4 PUSH4 0x912B431B PUSH1 0xE0 SHL DUP6 MSTORE PUSH1 0x4 SWAP2 DUP5 PUSH1 0x4 DUP8 ADD MSTORE PUSH1 0x24 DUP7 ADD DUP12 DUP7 SWAP2 JUMPDEST PUSH1 0x2 DUP4 LT PUSH2 0x200E JUMPI POP POP POP POP PUSH1 0x64 DUP6 ADD SWAP1 DUP11 DUP6 SWAP3 JUMPDEST DUP5 DUP5 LT PUSH2 0x1FEE JUMPI POP POP POP POP POP PUSH2 0x124 SWAP2 DUP4 SWAP2 PUSH2 0x100 PUSH1 0xE4 DUP5 ADD MSTORE DUP2 PUSH2 0x104 DUP5 ADD MSTORE GAS CALL SWAP3 DUP4 ISZERO PUSH2 0x1FE4 JUMPI SWAP1 DUP6 SWAP4 SWAP3 SWAP2 DUP8 SWAP4 PUSH2 0x1FAF JUMPI JUMPDEST POP DUP3 PUSH2 0x1F4E SWAP6 DUP4 ADD SSTORE PUSH1 0x2 DUP2 PUSH1 0x9 SLOAD AND SWAP3 ADD SLOAD AND DUP7 DUP10 MLOAD DUP1 SWAP7 DUP2 SWAP6 DUP3 SWAP5 PUSH4 0x48DBCEF PUSH1 0xE4 SHL DUP5 MSTORE PUSH1 0x4 DUP5 ADD PUSH2 0x17A8 JUMP JUMPDEST SUB SWAP3 GAS CALL SWAP5 DUP6 ISZERO PUSH2 0x1FA6 JUMPI POP PUSH32 0xDD20B2DFF2D53EF41435AD0074AEA6E1CE693777FCC9EA8E76C76A8F3607DD21 SWAP4 SWAP5 PUSH2 0x1F88 JUMPI JUMPDEST POP POP DUP1 LOG1 JUMP JUMPDEST DUP2 PUSH2 0x1F9E SWAP3 SWAP1 RETURNDATASIZE LT PUSH2 0x1DF6 JUMPI PUSH2 0x1DE8 DUP2 DUP4 PUSH2 0x1641 JUMP JUMPDEST POP CODESIZE DUP1 PUSH2 0x1F82 JUMP JUMPDEST MLOAD RETURNDATASIZE DUP5 DUP3 RETURNDATACOPY RETURNDATASIZE SWAP1 REVERT JUMPDEST DUP5 DUP2 SWAP4 SWAP6 SWAP3 SWAP5 POP RETURNDATASIZE DUP4 GT PUSH2 0x1FDD JUMPI JUMPDEST PUSH2 0x1FC8 DUP2 DUP4 PUSH2 0x1641 JUMP JUMPDEST DUP2 ADD SUB SLT PUSH2 0x1231 JUMPI MLOAD DUP5 SWAP3 SWAP1 SWAP2 PUSH2 0x1F4E PUSH2 0x1F1E JUMP JUMPDEST POP RETURNDATASIZE PUSH2 0x1FBE JUMP JUMPDEST DUP9 MLOAD RETURNDATASIZE DUP9 DUP3 RETURNDATACOPY RETURNDATASIZE SWAP1 REVERT JUMPDEST DUP3 MLOAD PUSH1 0xFF AND DUP2 MSTORE DUP14 SWAP9 DUP13 SWAP9 POP DUP16 SWAP8 POP SWAP4 SWAP1 SWAP2 ADD SWAP3 SWAP2 DUP3 ADD SWAP2 DUP13 SWAP2 ADD PUSH2 0x1EE8 JUMP JUMPDEST SWAP1 SWAP4 SWAP7 POP DUP9 SWAP3 SWAP6 SWAP9 SWAP2 SWAP5 SWAP8 POP PUSH1 0xFF DUP7 MLOAD AND DUP2 MSTORE ADD SWAP4 ADD SWAP2 ADD SWAP3 DUP9 SWAP5 SWAP2 DUP13 SWAP5 DUP12 DUP14 SWAP9 SWAP6 PUSH2 0x1ED3 JUMP JUMPDEST PUSH4 0x4E487B71 PUSH1 0xE0 SHL DUP9 MSTORE PUSH1 0x41 PUSH1 0x4 MSTORE PUSH1 0x24 DUP9 REVERT JUMPDEST SWAP2 SWAP1 PUSH1 0x0 SWAP3 DUP4 DUP1 MSTORE PUSH1 0x20 PUSH1 0xF DUP2 MSTORE PUSH1 0x40 SWAP3 PUSH1 0xFF DUP5 DUP8 KECCAK256 SLOAD AND PUSH2 0x206C JUMPI JUMPDEST POP POP POP POP JUMP JUMPDEST PUSH1 0x8 SLOAD DUP5 MLOAD PUSH4 0x94CA6449 PUSH1 0xE0 SHL DUP2 MSTORE PUSH1 0x4 DUP2 ADD DUP9 SWAP1 MSTORE PUSH1 0x1 PUSH1 0x1 PUSH1 0xA0 SHL SUB SWAP3 SWAP2 DUP9 SWAP1 DUP3 SWAP1 PUSH1 0x24 SWAP1 DUP3 SWAP1 DUP8 AND GAS STATICCALL SWAP2 DUP3 ISZERO PUSH2 0x216D JUMPI DUP9 SWAP2 DUP10 SWAP4 PUSH2 0x218B JUMPI JUMPDEST POP DUP2 PUSH2 0x20B7 JUMPI POP POP POP PUSH2 0x2066 JUMP JUMPDEST SWAP1 PUSH2 0x20C1 SWAP2 PUSH2 0x1C24 JUMP JUMPDEST DUP2 MLOAD DUP2 LT ISZERO PUSH2 0x2177 JUMPI SWAP1 DUP4 SWAP2 PUSH1 0x5 SHL ADD ADD MLOAD PUSH2 0x2109 DUP4 PUSH1 0x1 DUP7 ADD SWAP3 DUP1 DUP5 SSTORE PUSH1 0x2 DUP6 PUSH1 0x9 SLOAD AND SWAP8 ADD SWAP7 DUP6 DUP9 SLOAD AND DUP12 DUP11 MLOAD DUP1 SWAP7 DUP2 SWAP6 DUP3 SWAP5 PUSH4 0x48DBCEF PUSH1 0xE4 SHL DUP5 MSTORE PUSH1 0x4 DUP5 ADD PUSH2 0x17A8 JUMP JUMPDEST SUB SWAP3 GAS CALL DUP1 ISZERO PUSH2 0x216D JUMPI PUSH32 0x5EA50D72ED96185EB6F31884978FAE6836EA30BA583E3FB7C32B66135514723C SWAP8 SWAP9 POP PUSH2 0x2150 JUMPI JUMPDEST POP SLOAD SWAP3 SLOAD AND SWAP1 DUP4 MLOAD SWAP3 DUP4 MSTORE DUP3 ADD MSTORE LOG1 PUSH1 0x1 SWAP1 JUMP JUMPDEST PUSH2 0x2166 SWAP1 DUP5 RETURNDATASIZE DUP7 GT PUSH2 0x1DF6 JUMPI PUSH2 0x1DE8 DUP2 DUP4 PUSH2 0x1641 JUMP JUMPDEST POP CODESIZE PUSH2 0x213C JUMP JUMPDEST DUP7 MLOAD RETURNDATASIZE DUP11 DUP3 RETURNDATACOPY RETURNDATASIZE SWAP1 REVERT JUMPDEST PUSH4 0x4E487B71 PUSH1 0xE0 SHL DUP9 MSTORE PUSH1 0x32 PUSH1 0x4 MSTORE PUSH1 0x24 DUP9 REVERT JUMPDEST SWAP2 POP SWAP2 POP RETURNDATASIZE DUP1 DUP10 DUP4 RETURNDATACOPY PUSH2 0x219E DUP2 DUP4 PUSH2 0x1641 JUMP JUMPDEST DUP2 ADD DUP7 DUP3 DUP3 SUB SLT PUSH2 0x223B JUMPI DUP2 MLOAD SWAP1 DUP6 DUP4 ADD MLOAD PUSH1 0x1 PUSH1 0x1 PUSH1 0x40 SHL SUB SWAP4 DUP5 DUP3 GT PUSH2 0x1229 JUMPI ADD DUP2 PUSH1 0x1F DUP3 ADD SLT ISZERO PUSH2 0x2237 JUMPI DUP1 MLOAD SWAP4 DUP5 GT PUSH2 0x2223 JUMPI DUP4 PUSH1 0x5 SHL SWAP1 DUP10 MLOAD SWAP5 PUSH2 0x21E9 DUP10 DUP5 ADD DUP8 PUSH2 0x1641 JUMP JUMPDEST DUP6 MSTORE DUP8 DUP1 DUP7 ADD SWAP3 DUP3 ADD ADD SWAP3 DUP4 GT PUSH2 0x1229 JUMPI DUP8 DUP1 SWAP2 ADD SWAP2 JUMPDEST DUP4 DUP4 LT PUSH2 0x2213 JUMPI POP POP POP POP SWAP1 SWAP2 CODESIZE PUSH2 0x20A9 JUMP JUMPDEST DUP3 MLOAD DUP2 MSTORE SWAP2 DUP2 ADD SWAP2 DUP9 SWAP2 ADD PUSH2 0x2200 JUMP JUMPDEST PUSH4 0x4E487B71 PUSH1 0xE0 SHL DUP12 MSTORE PUSH1 0x41 PUSH1 0x4 MSTORE PUSH1 0x24 DUP12 REVERT JUMPDEST DUP11 DUP1 REVERT JUMPDEST DUP9 DUP1 REVERT JUMPDEST SWAP3 SWAP2 SWAP1 PUSH1 0xFF AND SWAP3 PUSH1 0x0 SWAP4 DUP1 DUP6 MSTORE PUSH1 0x20 SWAP1 PUSH1 0xF DUP3 MSTORE PUSH1 0x40 SWAP4 PUSH1 0xFF DUP6 DUP9 KECCAK256 SLOAD AND PUSH2 0x2269 JUMPI JUMPDEST POP POP POP POP POP JUMP JUMPDEST PUSH1 0x8 SLOAD DUP6 MLOAD PUSH4 0x94CA6449 PUSH1 0xE0 SHL DUP2 MSTORE PUSH1 0x4 DUP2 ADD SWAP4 SWAP1 SWAP4 MSTORE PUSH1 0x1 PUSH1 0x1 PUSH1 0xA0 SHL SUB SWAP3 SWAP1 DUP9 SWAP1 DUP3 SWAP1 PUSH1 0x24 SWAP1 DUP3 SWAP1 DUP8 AND GAS STATICCALL SWAP2 DUP3 ISZERO PUSH2 0x216D JUMPI DUP9 SWAP2 DUP10 SWAP4 PUSH2 0x22B4 JUMPI JUMPDEST POP DUP2 PUSH2 0x20B7 JUMPI POP POP PUSH2 0x2262 JUMP JUMPDEST SWAP2 POP SWAP2 POP RETURNDATASIZE DUP1 DUP10 DUP4 RETURNDATACOPY PUSH2 0x22C7 DUP2 DUP4 PUSH2 0x1641 JUMP JUMPDEST DUP2 ADD DUP7 DUP3 DUP3 SUB SLT PUSH2 0x223B JUMPI DUP2 MLOAD SWAP1 DUP6 DUP4 ADD MLOAD PUSH1 0x1 PUSH1 0x1 PUSH1 0x40 SHL SUB SWAP4 DUP5 DUP3 GT PUSH2 0x1229 JUMPI ADD DUP2 PUSH1 0x1F DUP3 ADD SLT ISZERO PUSH2 0x2237 JUMPI DUP1 MLOAD SWAP4 DUP5 GT PUSH2 0x2223 JUMPI DUP4 PUSH1 0x5 SHL SWAP1 DUP10 MLOAD SWAP5 PUSH2 0x2312 DUP10 DUP5 ADD DUP8 PUSH2 0x1641 JUMP JUMPDEST DUP6 MSTORE DUP8 DUP1 DUP7 ADD SWAP3 DUP3 ADD ADD SWAP3 DUP4 GT PUSH2 0x1229 JUMPI DUP8 DUP1 SWAP2 ADD SWAP2 JUMPDEST DUP4 DUP4 LT PUSH2 0x233C JUMPI POP POP POP POP SWAP1 SWAP2 CODESIZE PUSH2 0x22A7 JUMP JUMPDEST DUP3 MLOAD DUP2 MSTORE SWAP2 DUP2 ADD SWAP2 DUP9 SWAP2 ADD PUSH2 0x2329 JUMP JUMPDEST SWAP1 PUSH2 0x2373 JUMPI POP DUP1 MLOAD ISZERO PUSH2 0x2361 JUMPI DUP1 MLOAD SWAP1 PUSH1 0x20 ADD REVERT JUMPDEST PUSH1 0x40 MLOAD PUSH4 0xA12F521 PUSH1 0xE1 SHL DUP2 MSTORE PUSH1 0x4 SWAP1 REVERT JUMPDEST DUP2 MLOAD ISZERO DUP1 PUSH2 0x23A6 JUMPI JUMPDEST PUSH2 0x2384 JUMPI POP SWAP1 JUMP JUMPDEST PUSH1 0x40 MLOAD PUSH4 0x9996B315 PUSH1 0xE0 SHL DUP2 MSTORE PUSH1 0x1 PUSH1 0x1 PUSH1 0xA0 SHL SUB SWAP1 SWAP2 AND PUSH1 0x4 DUP3 ADD MSTORE PUSH1 0x24 SWAP1 REVERT JUMPDEST POP DUP1 EXTCODESIZE ISZERO PUSH2 0x237C JUMP INVALID 0x2F DUP8 DUP9 GT PUSH31 0x7EFF1D82E926EC794901D17C78024A50270940304540A733656F0DFCB9FCBF 0xA8 EXTCODESIZE DUP10 PUSH32 0xB2D5CF4B58962164105C1E71489A37EF3AE0DB3FDCE576F6DF8B4C520FFE197C MSTORE8 NUMBER 0xC6 CREATE2 0xAE 0xC5 SWAP6 PUSH17 0x151EF9A492F2C624FD45DDDE6135EC42F6 CODECOPY 0x1F TLOAD ORIGIN 0xD9 0xC6 SWAP14 0x2A SELFBALANCE 0xEA PUSH8 0xB442974B53935D1 0xED 0xC7 REVERT PUSH5 0xEB21E047A8 CODECOPY OR SHL SDIV 0xB8 0xCC 0xBB SWAP14 0x4D DUP16 0xB1 PUSH15 0xA74CE3C29A41F1B461FBDAFF4714A0 0xD9 0xA8 0xEB SDIV BLOBHASH SWAP8 CHAINID 0xBC LOG2 PUSH5 0x6970667358 0x22 SLT KECCAK256 0x24 CALLDATACOPY 0x28 0x27 PUSH22 0x7C8AD2BCD12FDBC942952CAE2A595B80F4581D3F324F PUSH25 0x2FBB730564736F6C6343000819003300000000000000000000 "},"methodIdentifiers":{"ADMIN_ROLE()":"75b238fc","DEFAULT_ADMIN_ROLE()":"a217fddf","DIVIDER()":"62043bd8","PAUSE_ROLE()":"389ed267","addAdmin(address)":"70480275","addPauser(address)":"82dc1ec4","aliveImplementation(address)":"550d01a3","getCallbackGasLimit()":"de8be8e7","getGemFactoryAddress()":"9d541be2","getPaused()":"6805b84b","getPerfectCommonGemURI()":"15c01616","getRandomPackFees()":"184fa84f","getRequestCount()":"3fad1834","getRoleAdmin(bytes32)":"248a9ca3","getTonAddress()":"6ae638d0","getTreasuryAddress()":"e0024604","grantRole(bytes32,address)":"2f2ff15d","hasRole(bytes32,address)":"91d14854","initialize(address,address,address,address,uint256)":"f7013ef6","isAdmin(address)":"24d7806c","isOwner()":"8f32d59b","isPauser(address)":"46fbf68e","onERC721Received(address,address,uint256,bytes)":"150b7a02","pause()":"8456cb59","pauseProxy()":"63a8fd89","proxyImplementation(uint256)":"b911135f","rawFulfillRandomWords(uint256,uint256)":"37ed11db","removeAdmin()":"9a202d47","removePauser(address)":"6b2c0f55","renounceRole(bytes32,address)":"36568abe","requestRandomGem()":"3db8df98","revokeRole(bytes32,address)":"d547741f","s_requests(uint256)":"a168fa89","selectorImplementation(bytes4)":"50d2a276","setCallbackGasLimit(uint32)":"a4eb718c","setGemFactory(address)":"e6147518","setPerfectCommonGemURI(string)":"6ecd19cb","setProbabilities(uint8,uint8,uint8,uint8,uint8,uint8)":"3be7bcbf","setRandomPackFees(uint256)":"25b5b3b2","setTreasury(address)":"f0f44260","supportsInterface(bytes4)":"01ffc9a7","transferOwnership(address)":"f2fde38b","unpause()":"3f4ba83a"}}}}}