{"src/L1/L1WrappedStakedTONFactory.sol":{"L1WrappedStakedTONFactory":{"abi":[{"inputs":[],"name":"AccessControlBadConfirmation","type":"error"},{"inputs":[{"internalType":"address","name":"account","type":"address"},{"internalType":"bytes32","name":"neededRole","type":"bytes32"}],"name":"AccessControlUnauthorizedAccount","type":"error"},{"inputs":[],"name":"AlreadyInitialized","type":"error"},{"inputs":[],"name":"NotContractOwner","type":"error"},{"inputs":[],"name":"SameAdmin","type":"error"},{"inputs":[],"name":"SameOwner","type":"error"},{"inputs":[],"name":"ZeroAddress","type":"error"},{"anonymous":false,"inputs":[{"indexed":false,"internalType":"address","name":"newImplementation","type":"address"}],"name":"L1WrappedStakedTONContractUgraded","type":"event"},{"anonymous":false,"inputs":[{"indexed":true,"internalType":"bytes32","name":"role","type":"bytes32"},{"indexed":true,"internalType":"bytes32","name":"previousAdminRole","type":"bytes32"},{"indexed":true,"internalType":"bytes32","name":"newAdminRole","type":"bytes32"}],"name":"RoleAdminChanged","type":"event"},{"anonymous":false,"inputs":[{"indexed":true,"internalType":"bytes32","name":"role","type":"bytes32"},{"indexed":true,"internalType":"address","name":"account","type":"address"},{"indexed":true,"internalType":"address","name":"sender","type":"address"}],"name":"RoleGranted","type":"event"},{"anonymous":false,"inputs":[{"indexed":true,"internalType":"bytes32","name":"role","type":"bytes32"},{"indexed":true,"internalType":"address","name":"account","type":"address"},{"indexed":true,"internalType":"address","name":"sender","type":"address"}],"name":"RoleRevoked","type":"event"},{"anonymous":false,"inputs":[{"indexed":true,"internalType":"address","name":"wston","type":"address"},{"indexed":true,"internalType":"address","name":"layer2Address","type":"address"}],"name":"WSTONTokenCreated","type":"event"},{"inputs":[],"name":"ADMIN_ROLE","outputs":[{"internalType":"bytes32","name":"","type":"bytes32"}],"stateMutability":"view","type":"function"},{"inputs":[],"name":"DEFAULT_ADMIN_ROLE","outputs":[{"internalType":"bytes32","name":"","type":"bytes32"}],"stateMutability":"view","type":"function"},{"inputs":[],"name":"PAUSE_ROLE","outputs":[{"internalType":"bytes32","name":"","type":"bytes32"}],"stateMutability":"view","type":"function"},{"inputs":[{"internalType":"address","name":"account","type":"address"}],"name":"addAdmin","outputs":[],"stateMutability":"nonpayable","type":"function"},{"inputs":[{"internalType":"address","name":"account","type":"address"}],"name":"addPauser","outputs":[],"stateMutability":"nonpayable","type":"function"},{"inputs":[{"internalType":"address","name":"","type":"address"}],"name":"aliveImplementation","outputs":[{"internalType":"bool","name":"","type":"bool"}],"stateMutability":"view","type":"function"},{"inputs":[{"internalType":"address","name":"_layer2Address","type":"address"},{"internalType":"address","name":"_depositManager","type":"address"},{"internalType":"address","name":"_seigManager","type":"address"},{"internalType":"uint256","name":"_minimumWithdrawalAmount","type":"uint256"},{"internalType":"uint8","name":"_maxNumWithdrawal","type":"uint8"},{"internalType":"string","name":"_name","type":"string"},{"internalType":"string","name":"_symbol","type":"string"}],"name":"createWSTONToken","outputs":[{"internalType":"address","name":"","type":"address"}],"stateMutability":"nonpayable","type":"function"},{"inputs":[{"internalType":"bytes32","name":"role","type":"bytes32"}],"name":"getRoleAdmin","outputs":[{"internalType":"bytes32","name":"","type":"bytes32"}],"stateMutability":"view","type":"function"},{"inputs":[{"internalType":"bytes32","name":"role","type":"bytes32"},{"internalType":"address","name":"account","type":"address"}],"name":"grantRole","outputs":[],"stateMutability":"nonpayable","type":"function"},{"inputs":[{"internalType":"bytes32","name":"role","type":"bytes32"},{"internalType":"address","name":"account","type":"address"}],"name":"hasRole","outputs":[{"internalType":"bool","name":"","type":"bool"}],"stateMutability":"view","type":"function"},{"inputs":[{"internalType":"address","name":"_l1wton","type":"address"},{"internalType":"address","name":"_l1ton","type":"address"}],"name":"initialize","outputs":[],"stateMutability":"nonpayable","type":"function"},{"inputs":[{"internalType":"address","name":"account","type":"address"}],"name":"isAdmin","outputs":[{"internalType":"bool","name":"","type":"bool"}],"stateMutability":"view","type":"function"},{"inputs":[],"name":"isOwner","outputs":[{"internalType":"bool","name":"","type":"bool"}],"stateMutability":"view","type":"function"},{"inputs":[{"internalType":"address","name":"account","type":"address"}],"name":"isPauser","outputs":[{"internalType":"bool","name":"","type":"bool"}],"stateMutability":"view","type":"function"},{"inputs":[],"name":"l1ton","outputs":[{"internalType":"address","name":"","type":"address"}],"stateMutability":"view","type":"function"},{"inputs":[],"name":"l1wton","outputs":[{"internalType":"address","name":"","type":"address"}],"stateMutability":"view","type":"function"},{"inputs":[],"name":"pauseProxy","outputs":[{"internalType":"bool","name":"","type":"bool"}],"stateMutability":"view","type":"function"},{"inputs":[{"internalType":"uint256","name":"","type":"uint256"}],"name":"proxyImplementation","outputs":[{"internalType":"address","name":"","type":"address"}],"stateMutability":"view","type":"function"},{"inputs":[],"name":"removeAdmin","outputs":[],"stateMutability":"nonpayable","type":"function"},{"inputs":[{"internalType":"address","name":"account","type":"address"}],"name":"removePauser","outputs":[],"stateMutability":"nonpayable","type":"function"},{"inputs":[{"internalType":"bytes32","name":"role","type":"bytes32"},{"internalType":"address","name":"callerConfirmation","type":"address"}],"name":"renounceRole","outputs":[],"stateMutability":"nonpayable","type":"function"},{"inputs":[{"internalType":"bytes32","name":"role","type":"bytes32"},{"internalType":"address","name":"account","type":"address"}],"name":"revokeRole","outputs":[],"stateMutability":"nonpayable","type":"function"},{"inputs":[{"internalType":"bytes4","name":"","type":"bytes4"}],"name":"selectorImplementation","outputs":[{"internalType":"address","name":"","type":"address"}],"stateMutability":"view","type":"function"},{"inputs":[{"internalType":"address","name":"_imp","type":"address"}],"name":"setWstonImplementation","outputs":[],"stateMutability":"nonpayable","type":"function"},{"inputs":[{"internalType":"bytes4","name":"interfaceId","type":"bytes4"}],"name":"supportsInterface","outputs":[{"internalType":"bool","name":"","type":"bool"}],"stateMutability":"view","type":"function"},{"inputs":[{"internalType":"address","name":"newOwner","type":"address"}],"name":"transferOwnership","outputs":[],"stateMutability":"nonpayable","type":"function"},{"inputs":[{"internalType":"address","name":"wstonProxyAddress","type":"address"},{"internalType":"address","name":"newImplementation","type":"address"}],"name":"upgradeWstonTo","outputs":[],"stateMutability":"nonpayable","type":"function"},{"inputs":[],"name":"wstonImplementation","outputs":[{"internalType":"address","name":"","type":"address"}],"stateMutability":"view","type":"function"}],"evm":{"bytecode":{"linkReferences":{},"object":"608080604052346015576128ff908161001b8239f35b600080fdfe60806040908082526004918236101561001757600080fd5b600091823560e01c90816301ffc9a714610ca85750806315a327d314610c805780631d03a00914610c58578063248a9ca314610c2e57806324d7806c14610bda5780632f2ff15d14610baf57806336568abe14610b6a578063389ed26714610b4257806346fbf68e14610aee578063485cc95514610a6157806350d2a27614610a1d578063550d01a3146109e057806363a8fd89146109bf5780636b2c0f55146108ee57806370480275146108a157806375b238fc1461087957806381baed051461082e57806382dc1ec4146107dc5780638bd49a4f146106805780638f32d59b1461065b57806391d14854146106165780639a202d471461057e578063a217fddf14610564578063b911135f14610531578063c4bdcb331461027d578063d21bae6614610255578063d547741f146102165763f2fde38b1461015957600080fd5b3461021257602036600319011261021257610172610cfc565b9061018361017e610e20565b610dc8565b6001600160a01b03821680156102025733146101f35760016101e0918495856101e59652806020526101b9838389200154610ec8565b6101c285610f0c565b5060008051602061288a833981519152875260205285200154610ec8565b610f79565b506101ef3361120b565b5080f35b51630a98f1f360e21b81528390fd5b815163d92e233d60e01b81528590fd5b5080fd5b5082346102515781600319360112610251576101ef9161024c600183359261023c610d12565b9484885260205286200154610ec8565b611272565b8280fd5b503461021257816003193601126102125760055490516001600160a01b039091168152602090f35b509134610212576003199060e0368301126102515761029a610cfc565b6102a2610d12565b916044359360018060a01b039283861680960361052c576084359560ff8716809703610528576001600160401b039660a435888111610524576102e89036908701610d72565b9160c4358981116104b3576103009036908801610d72565b9360008051602061288a8339815191528b52866020528b8b203360005260205260ff8c60002054168015610516575b156104de5787809116986103448a1515610e43565b16986103518a1515610e43565b61035c821515610e43565b8b5190611552808301918211838310176104cb579082916112d8833903908bf080156104c15787169887600754168a3b1561049b578c51631b2ce7f360e11b8152808901919091528b81602481838f5af180156104b757908c9161049f575b5050876005541697600654168a3b1561049b57938996938c98969361042e938f9761043e98519c8d9b8c9b6309a09f4760e21b8d528c015260248b015260448a0152606489015260848801523360a488015260643560c488015260e4870152610140610104870152610144860190610e88565b9184830301610124850152610e88565b038183875af180156104915761047d575b50817f5b269f580912912f2c48a9e34fcae47327ba565d31e351e53be7115f90a62f7f602095519480a38152f35b6104878491610d28565b610251573861044f565b85513d86823e3d90fd5b8b80fd5b6104a890610d28565b6104b3578a386103bb565b8a80fd5b8d513d8e823e3d90fd5b8b513d8c823e3d90fd5b634e487b7160e01b8d526041895260248dfd5b8b5162461bcd60e51b815260208189015260126024820152713737ba1027bbb732b91037b91020b236b4b760711b6044820152606490fd5b5061051f610e20565b61032f565b8980fd5b8780fd5b600080fd5b5082346102515760203660031901126102515735825260016020908152918190205490516001600160a01b039091168152f35b503461021257816003193601126102125751908152602090f35b5082903461025157826003193601126102515760008051602061288a8339815191528352816020528083203360005260205260ff816000205416156105c757826101ef33611183565b906020608492519162461bcd60e51b8352820152602360248201527f41757468436f6e74726f6c3a2043616c6c6572206973206e6f7420616e20616460448201526236b4b760e91b6064820152fd5b50823461025157816003193601126102515781602093610634610d12565b92803582528552209060018060a01b0316600052825260ff81600020541690519015158152f35b5034610212578160031936011261021257602090610677610e20565b90519015158152f35b5082903461025157806003193601126102515761069b610cfc565b6106a3610d12565b8251638da5cb5b60e01b81526001600160a01b039283169291906020818781875afa9081156107d2579083918891610790575b5016330361078057908591833b15610251576024908386519586948593631b2ce7f360e11b85521680998401525af180156107765761073e575b507f279aa14d8d722d787fbebbe5d140862d29a9a4c04fb92fa9d21004435c7bbe9e9160209151908152a180f35b916020919361076d7f279aa14d8d722d787fbebbe5d140862d29a9a4c04fb92fa9d21004435c7bbe9e94610d28565b93915091610710565b82513d86823e3d90fd5b5050505163bfcafd3760e01b8152fd5b9150506020813d6020116107ca575b816107ac60209383610d51565b810103126107c6575182811681036107c6578290886106d6565b8680fd5b3d915061079f565b85513d89823e3d90fd5b5082346102515760203660031901126102515761082960016101ef93610800610cfc565b9361080c61017e610e20565b60008051602061286a833981519152875260205285200154610ec8565b611008565b823461087657602036600319011261087657610848610cfc565b61085361017e610e20565b600780546001600160a01b0319166001600160a01b039290921691909117905580f35b80fd5b50346102125781600319360112610212576020905160008051602061288a8339815191528152f35b508234610251576020366003190112610251576101e060016101ef936108c5610cfc565b936108d161017e610e20565b60008051602061288a833981519152875260205285200154610ec8565b50823461025157602036600319011261025157610909610cfc565b9160008051602061286a83398151915284528160205280842033855260205260ff818520541680156109b1575b1561096257336001600160a01b0384160361095557836101ef846110fb565b5163334bd91960e11b8152fd5b906020608492519162461bcd60e51b8352820152602360248201527f41757468436f6e74726f6c3a2043616c6c6572206973206e6f7420612070617560448201526239b2b960e91b6064820152fd5b506109ba610e20565b610936565b503461021257816003193601126102125760ff602092541690519015158152f35b50346102125760203660031901126102125760209160ff9082906001600160a01b03610a0a610cfc565b1681526002855220541690519015158152f35b508234610251576020366003190112610251573563ffffffff60e01b811680910361025157825260036020908152918190205490516001600160a01b039091168152f35b50829034610251578060031936011261025157610a7c610cfc565b91610a85610d12565b9160ff60075460a01c16610ae2575050610a9e33610f0c565b50600580546001600160a01b03199081166001600160a01b039485161790915560068054909116919092161790556007805460ff60a01b1916600160a01b17905580f35b5162dc149f60e41b8152fd5b508234610251576020366003190112610251578160209360ff92610b10610cfc565b60008051602061286a83398151915283529086528282206001600160a01b039091168252855220549151911615158152f35b50346102125781600319360112610212576020905160008051602061286a8339815191528152f35b5034610212578060031936011261021257610b83610d12565b90336001600160a01b03831603610ba057506101ef919235611272565b5163334bd91960e11b81528390fd5b5082346102515781600319360112610251576101ef91610bd5600183359261023c610d12565b611092565b508234610251576020366003190112610251578160209360ff92610bfc610cfc565b60008051602061288a83398151915283529086528282206001600160a01b039091168252855220549151911615158152f35b50823461025157602036600319011261025157816020938260019335825285522001549051908152f35b503461021257816003193601126102125760075490516001600160a01b039091168152602090f35b503461021257816003193601126102125760065490516001600160a01b039091168152602090f35b83908534610251576020366003190112610251573563ffffffff60e01b81168091036102515760209250637965db0b60e01b8114908115610ceb575b5015158152f35b6301ffc9a760e01b14905083610ce4565b600435906001600160a01b038216820361052c57565b602435906001600160a01b038216820361052c57565b6001600160401b038111610d3b57604052565b634e487b7160e01b600052604160045260246000fd5b90601f801991011681019081106001600160401b03821117610d3b57604052565b81601f8201121561052c578035906001600160401b038211610d3b5760405192610da6601f8401601f191660200185610d51565b8284526020838301011161052c57816000926020809301838601378301015290565b15610dcf57565b60405162461bcd60e51b8152602060048201526024808201527f41757468436f6e74726f6c3a2043616c6c6572206973206e6f7420746865206f6044820152633bb732b960e11b6064820152608490fd5b33600090815260008051602061284a833981519152602052604090205460ff1690565b15610e4a57565b60405162461bcd60e51b8152602060048201526016602482015275416464726573732063616e6e6f74206265207a65726f60501b6044820152606490fd5b919082519283825260005b848110610eb4575050826000602080949584010152601f8019910116010190565b602081830181015184830182015201610e93565b80600052600460205260406000203360005260205260ff6040600020541615610eee5750565b6044906040519063e2517d3f60e01b82523360048301526024820152fd5b6001600160a01b0316600081815260008051602061284a833981519152602052604081205490919060ff16610f755781805260046020526040822081835260205260408220600160ff19825416179055339160008051602061282a8339815191528180a4600190565b5090565b6001600160a01b031660008181527f2fb794d17134dfdec181ddbac1babb5ab1eb140204ef4d982f294e7fc8b69022602052604081205490919060008051602061288a8339815191529060ff166110035780835260046020526040832082845260205260408320600160ff1982541617905560008051602061282a833981519152339380a4600190565b505090565b6001600160a01b031660008181527f2ed987ab732d519c59d4a2f2f586b9ca6af9f18905fa2093aceeb8d462ffc842602052604081205490919060008051602061286a8339815191529060ff166110035780835260046020526040832082845260205260408320600160ff1982541617905560008051602061282a833981519152339380a4600190565b906000918083526004602052604083209160018060a01b03169182845260205260ff604084205416156000146110035780835260046020526040832082845260205260408320600160ff1982541617905560008051602061282a833981519152339380a4600190565b6001600160a01b031660008181527f2ed987ab732d519c59d4a2f2f586b9ca6af9f18905fa2093aceeb8d462ffc842602052604081205490919060008051602061286a8339815191529060ff1615611003578083526004602052604083208284526020526040832060ff1981541690556000805160206128aa833981519152339380a4600190565b6001600160a01b031660008181527f2fb794d17134dfdec181ddbac1babb5ab1eb140204ef4d982f294e7fc8b69022602052604081205490919060008051602061288a8339815191529060ff1615611003578083526004602052604083208284526020526040832060ff1981541690556000805160206128aa833981519152339380a4600190565b6001600160a01b0316600081815260008051602061284a833981519152602052604081205490919060ff1615610f75578180526004602052604082208183526020526040822060ff19815416905533916000805160206128aa8339815191528180a4600190565b906000918083526004602052604083209160018060a01b03169182845260205260ff604084205416600014611003578083526004602052604083208284526020526040832060ff1981541690556000805160206128aa833981519152339380a460019056fe608060405234601f57600f336024565b5060405161149d90816100b58239f35b600080fd5b6001600160a01b031660008181527f17ef568e3e12ab5b9c7254a8d58478811de00f9e6eb34345acd53bf8fd09d3ec602052604081205490919060ff1660b05781805260046020526040822081835260205260408220600160ff1982541617905533917f2f8788117e7eff1d82e926ec794901d17c78024a50270940304540a733656f0d8180a4600190565b509056fe60806040526004361015610015575b3661132c57005b60003560e01c806301ffc9a7146101e0578063248a9ca3146101db57806324d7806c146101d65780632f2ff15d146101d157806336568abe146101cc5780633659cfe6146101c7578063389ed267146101c257806346fbf68e146101bd5780634a5df50f146101b857806350d2a276146101b3578063550d01a3146101ae5780635c60da1b146101a95780635cc797d8146101a457806363a8fd891461019f5780636b2c0f551461019a578063704802751461019557806375b238fc146101905780637cb00d251461018b5780637cd5f6631461018657806382dc1ec4146101815780638b8f4a65146101635780638d4fdb401461017c5780638f32d59b1461017757806391d14854146101725780639a202d471461016d578063a217fddf14610168578063b911135f14610163578063d547741f1461015e5763f2fde38b0361000e57610bf4565b610bb5565b610a38565b610b99565b610afe565b610aca565b610aa5565b610a6c565b6109ca565b61092d565b6108f1565b6108c8565b61085a565b61079a565b610777565b61073e565b61070a565b6106cb565b610654565b6104b9565b610479565b610450565b610381565b61033a565b6102f9565b6102ad565b610252565b6101fc565b6001600160e01b03198116036101f757565b600080fd5b346101f75760203660031901126101f757602060043561021b816101e5565b63ffffffff60e01b16637965db0b60e01b8114908115610241575b506040519015158152f35b6301ffc9a760e01b14905038610236565b346101f75760203660031901126101f75760043560005260046020526020600160406000200154604051908152f35b600435906001600160a01b03821682036101f757565b602435906001600160a01b03821682036101f757565b346101f75760203660031901126101f757602060ff6102ed6102cd610281565b6000805160206114488339815191526000526004845260406000206106b4565b54166040519015158152f35b346101f75760403660031901126101f757610338600435610318610297565b90806000526004602052610333600160406000200154610f3e565b6110de565b005b346101f75760403660031901126101f757610353610297565b336001600160a01b0382160361036f5761033890600435611248565b60405163334bd91960e11b8152600490fd5b346101f75760203660031901126101f75761039a610281565b6103aa6103a5610f1b565b610d15565b6001600160a01b038116801561041b57600080805260016020526000805160206113e88339815191525490926103f4916103ef906001600160a01b0316841415610d6d565b611262565b7fbc7cd75a20ee27fd9adebab32041f755214dbc6bffa90cc0225b39da2e5c2d3b8280a280f35b60405162461bcd60e51b815260206004820152600d60248201526c696e707574206973207a65726f60981b6044820152606490fd5b346101f75760003660031901126101f75760206040516000805160206114288339815191528152f35b346101f75760203660031901126101f757602060ff6102ed610499610281565b6000805160206114288339815191526000526004845260406000206106b4565b346101f75760403660031901126101f75760043567ffffffffffffffff8082116101f757366023830112156101f75781600401359081116101f7576024820191602436918360051b0101116101f757610510610297565b9161051c6103a5610f1b565b81156105f7579061053e6105396105328561069a565b5460ff1690565b610da5565b6001600160a01b0391838316919060005b82811061055857005b80610593858761058b61057e6105796105746001988b8b610dec565b610e12565b61063b565b546001600160a01b031690565b161415610e1f565b6105ad876105a8610579610574858989610dec565b610e6b565b846105cc6105bf610574848888610dec565b6001600160e01b03191690565b7f14ebc1c32aa68f4d766e89f3e546cee249f7df25183fc10ab1568d91c2ce9b7b600080a30161054f565b606460405162461bcd60e51b815260206004820152602060248201527f50726f78793a205f73656c6563746f727327732073697a65206973207a65726f6044820152fd5b63ffffffff60e01b166000526003602052604060002090565b346101f75760203660031901126101f757600435610671816101e5565b63ffffffff60e01b166000526003602052602060018060a01b0360406000205416604051908152f35b6001600160a01b0316600090815260026020526040902090565b9060018060a01b0316600052602052604060002090565b346101f75760203660031901126101f7576001600160a01b036106ec610281565b166000526002602052602060ff604060002054166040519015158152f35b346101f75760008060031936011261073b5780806020925260018252604060018060a01b0391205416604051908152f35b80fd5b346101f75760403660031901126101f757610757610281565b60243580151581036101f757610338916107726103a5610f1b565b6112d8565b346101f75760003660031901126101f757602060ff600054166040519015158152f35b346101f75760203660031901126101f7576107b3610281565b600080516020611428833981519152600052600460205260ff6107e4336000805160206113c88339815191526106b4565b5416801561084c575b156107fb5761033890610cfc565b60405162461bcd60e51b815260206004820152602360248201527f41757468436f6e74726f6c3a2043616c6c6572206973206e6f7420612070617560448201526239b2b960e91b6064820152608490fd5b50610855610f1b565b6107ed565b346101f75760203660031901126101f757610338610876610281565b6108816103a5610f1b565b60008051602061144883398151915260005260046020527f2fb794d17134dfdec181ddbac1babb5ab1eb140204ef4d982f294e7fc8b69023546108c390610f3e565b610f7f565b346101f75760003660031901126101f75760206040516000805160206114488339815191528152f35b346101f75760203660031901126101f7576004358015158091036101f75761091a6103a5610f1b565b60ff801960005416911617600055600080f35b346101f75760603660031901126101f757610946610281565b60443580151581036101f75761095d6103a5610f1b565b813b15610987576103389181156112d8576024356000526001602052610772816040600020610e6b565b60405162461bcd60e51b815260206004820152601b60248201527a50726f78793a206e6f7420636f6e7472616374206164647265737360281b6044820152606490fd5b346101f75760203660031901126101f7576103386109e6610281565b6109f16103a5610f1b565b60008051602061142883398151915260005260046020527f2ed987ab732d519c59d4a2f2f586b9ca6af9f18905fa2093aceeb8d462ffc84354610a3390610f3e565b611026565b346101f75760203660031901126101f7576004356000526001602052602060018060a01b0360406000205416604051908152f35b346101f75760203660031901126101f7576020610a93600435610a8e816101e5565b610e8a565b6040516001600160a01b039091168152f35b346101f75760003660031901126101f7576020610ac0610f1b565b6040519015158152f35b346101f75760403660031901126101f757602060ff6102ed610aea610297565b6004356000526004845260406000206106b4565b346101f75760008060031936011261073b576000805160206114488339815191528152600460205260ff610b3533604084206106b4565b541615610b4857610b4533610cc7565b80f35b60405162461bcd60e51b815260206004820152602360248201527f41757468436f6e74726f6c3a2043616c6c6572206973206e6f7420616e20616460448201526236b4b760e91b6064820152608490fd5b346101f75760003660031901126101f757602060405160008152f35b346101f75760403660031901126101f757610338600435610bd4610297565b90806000526004602052610bef600160406000200154610f3e565b611248565b346101f75760203660031901126101f757610c0d610281565b610c186103a5610f1b565b6001600160a01b0381168015610cb5573314610ca357600080805260046020527f17ef568e3e12ab5b9c7254a8d58478811de00f9e6eb34345acd53bf8fd09d3ed549091610c9991610c6990610f3e565b610c728161105a565b50600080516020611448833981519152835260046020526108c36001604085200154610f3e565b50610b4533610ce3565b604051630a98f1f360e21b8152600490fd5b60405163d92e233d60e01b8152600490fd5b336001600160a01b0382160361036f57610ce0906110f8565b50565b336001600160a01b0382160361036f57610ce090611197565b336001600160a01b0382160361036f57610ce090611214565b15610d1c57565b60405162461bcd60e51b8152602060048201526024808201527f41757468436f6e74726f6c3a2043616c6c6572206973206e6f7420746865206f6044820152633bb732b960e11b6064820152608490fd5b15610d7457565b60405162461bcd60e51b815260206004820152600960248201526839b0b6b29030b2323960b91b6044820152606490fd5b15610dac57565b60405162461bcd60e51b815260206004820152601860248201527750726f78793a205f696d70206973206e6f7420616c69766560401b6044820152606490fd5b9190811015610dfc5760051b0190565b634e487b7160e01b600052603260045260246000fd5b35610e1c816101e5565b90565b15610e2657565b60405162461bcd60e51b815260206004820152601d60248201527f4c69717569646974795661756c7450726f78793a2073616d6520696d700000006044820152606490fd5b80546001600160a01b0319166001600160a01b03909216919091179055565b6001600160e01b031981166000908152600360205260409020546001600160a01b0391908216610ed757506000805260016020526000805160206113e8833981519152541690565b541690565b60ff610eed83610ee68461063b565b541661069a565b541615610efd57610ed29061063b565b506000805260016020526000805160206113e8833981519152541690565b60008052600460205260ff610ed2336000805160206114088339815191526106b4565b80600052600460205260ff610f573360406000206106b4565b541615610f615750565b6044906040519063e2517d3f60e01b82523360048301526024820152fd5b600080516020611448833981519152600081815260046020529060ff610fc5847f2fb794d17134dfdec181ddbac1babb5ab1eb140204ef4d982f294e7fc8b690226106b4565b5416611020578082526004602052610fe083604084206106b4565b805460ff1916600117905533926001600160a01b0316917f2f8788117e7eff1d82e926ec794901d17c78024a50270940304540a733656f0d9080a4600190565b50905090565b600080516020611428833981519152600081815260046020529060ff610fc5846000805160206113c88339815191526106b4565b6000808052600460205260ff61107e836000805160206114088339815191526106b4565b54166110d957808052600460205261109982604083206106b4565b805460ff1916600117905533916001600160a01b0316907f2f8788117e7eff1d82e926ec794901d17c78024a50270940304540a733656f0d8180a4600190565b905090565b600090808252600460205260ff610fc584604085206106b4565b600080516020611448833981519152600081815260046020529060ff61113e847f2fb794d17134dfdec181ddbac1babb5ab1eb140204ef4d982f294e7fc8b690226106b4565b54161561102057808252600460205261115a83604084206106b4565b805460ff1916905533926001600160a01b0316917ff6391f5c32d9c69d2a47ea670b442974b53935d1edc7fd64eb21e047a839171b9080a4600190565b6000808052600460205260ff6111bb836000805160206114088339815191526106b4565b5416156110d95780805260046020526111d782604083206106b4565b805460ff1916905533916001600160a01b0316907ff6391f5c32d9c69d2a47ea670b442974b53935d1edc7fd64eb21e047a839171b8180a4600190565b600080516020611428833981519152600081815260046020529060ff61113e846000805160206113c88339815191526106b4565b600090808252600460205260ff61113e84604085206106b4565b803b156109875760008052600160205261128a816000805160206113e8833981519152610e6b565b60018060a01b03168060005260026020526040600020600160ff198254161790557f72558d9bfba4210f9ef095c782589484151f6d90f7a81bb3cb9b33efc695d324602060405160018152a2565b60207f72558d9bfba4210f9ef095c782589484151f6d90f7a81bb3cb9b33efc695d3249160018060a01b031692836000526002825260406000209015159060ff1981541660ff8316179055604051908152a2565b600061134281356001600160e01b031916610e8a565b6001600160a01b0381161515806113bb575b1561137657818091368280378136915af43d82803e15611372573d90f35b3d90fd5b60405162461bcd60e51b815260206004820152601d60248201527f50726f78793a20696d706c204f522070726f78792069732066616c73650000006044820152606490fd5b5060ff8254161561135456fe2ed987ab732d519c59d4a2f2f586b9ca6af9f18905fa2093aceeb8d462ffc842a6eef7e35abe7026729641147f7915573c7e97b47efa546f5f6e3230263bcb4917ef568e3e12ab5b9c7254a8d58478811de00f9e6eb34345acd53bf8fd09d3ecfcb9fcbfa83b897fb2d5cf4b58962164105c1e71489a37ef3ae0db3fdce576f6df8b4c520ffe197c5343c6f5aec59570151ef9a492f2c624fd45ddde6135ec42a2646970667358221220c1495cc11d3a06de2c567cc44d6541759b4f14506f6d273420981788c5e3490f64736f6c634300081900332f8788117e7eff1d82e926ec794901d17c78024a50270940304540a733656f0d17ef568e3e12ab5b9c7254a8d58478811de00f9e6eb34345acd53bf8fd09d3ecfcb9fcbfa83b897fb2d5cf4b58962164105c1e71489a37ef3ae0db3fdce576f6df8b4c520ffe197c5343c6f5aec59570151ef9a492f2c624fd45ddde6135ec42f6391f5c32d9c69d2a47ea670b442974b53935d1edc7fd64eb21e047a839171ba2646970667358221220ed259a9a9be2e2576c51c4b3b99563022493822ead3680707461e3ded43854fe64736f6c63430008190033","opcodes":"PUSH1 0x80 DUP1 PUSH1 0x40 MSTORE CALLVALUE PUSH1 0x15 JUMPI PUSH2 0x28FF SWAP1 DUP2 PUSH2 0x1B DUP3 CODECOPY RETURN JUMPDEST PUSH1 0x0 DUP1 REVERT INVALID PUSH1 0x80 PUSH1 0x40 SWAP1 DUP1 DUP3 MSTORE PUSH1 0x4 SWAP2 DUP3 CALLDATASIZE LT ISZERO PUSH2 0x17 JUMPI PUSH1 0x0 DUP1 REVERT JUMPDEST PUSH1 0x0 SWAP2 DUP3 CALLDATALOAD PUSH1 0xE0 SHR SWAP1 DUP2 PUSH4 0x1FFC9A7 EQ PUSH2 0xCA8 JUMPI POP DUP1 PUSH4 0x15A327D3 EQ PUSH2 0xC80 JUMPI DUP1 PUSH4 0x1D03A009 EQ PUSH2 0xC58 JUMPI DUP1 PUSH4 0x248A9CA3 EQ PUSH2 0xC2E JUMPI DUP1 PUSH4 0x24D7806C EQ PUSH2 0xBDA JUMPI DUP1 PUSH4 0x2F2FF15D EQ PUSH2 0xBAF JUMPI DUP1 PUSH4 0x36568ABE EQ PUSH2 0xB6A JUMPI DUP1 PUSH4 0x389ED267 EQ PUSH2 0xB42 JUMPI DUP1 PUSH4 0x46FBF68E EQ PUSH2 0xAEE JUMPI DUP1 PUSH4 0x485CC955 EQ PUSH2 0xA61 JUMPI DUP1 PUSH4 0x50D2A276 EQ PUSH2 0xA1D JUMPI DUP1 PUSH4 0x550D01A3 EQ PUSH2 0x9E0 JUMPI DUP1 PUSH4 0x63A8FD89 EQ PUSH2 0x9BF JUMPI DUP1 PUSH4 0x6B2C0F55 EQ PUSH2 0x8EE JUMPI DUP1 PUSH4 0x70480275 EQ PUSH2 0x8A1 JUMPI DUP1 PUSH4 0x75B238FC EQ PUSH2 0x879 JUMPI DUP1 PUSH4 0x81BAED05 EQ PUSH2 0x82E JUMPI DUP1 PUSH4 0x82DC1EC4 EQ PUSH2 0x7DC JUMPI DUP1 PUSH4 0x8BD49A4F EQ PUSH2 0x680 JUMPI DUP1 PUSH4 0x8F32D59B EQ PUSH2 0x65B JUMPI DUP1 PUSH4 0x91D14854 EQ PUSH2 0x616 JUMPI DUP1 PUSH4 0x9A202D47 EQ PUSH2 0x57E JUMPI DUP1 PUSH4 0xA217FDDF EQ PUSH2 0x564 JUMPI DUP1 PUSH4 0xB911135F EQ PUSH2 0x531 JUMPI DUP1 PUSH4 0xC4BDCB33 EQ PUSH2 0x27D JUMPI DUP1 PUSH4 0xD21BAE66 EQ PUSH2 0x255 JUMPI DUP1 PUSH4 0xD547741F EQ PUSH2 0x216 JUMPI PUSH4 0xF2FDE38B EQ PUSH2 0x159 JUMPI PUSH1 0x0 DUP1 REVERT JUMPDEST CALLVALUE PUSH2 0x212 JUMPI PUSH1 0x20 CALLDATASIZE PUSH1 0x3 NOT ADD SLT PUSH2 0x212 JUMPI PUSH2 0x172 PUSH2 0xCFC JUMP JUMPDEST SWAP1 PUSH2 0x183 PUSH2 0x17E PUSH2 0xE20 JUMP JUMPDEST PUSH2 0xDC8 JUMP JUMPDEST PUSH1 0x1 PUSH1 0x1 PUSH1 0xA0 SHL SUB DUP3 AND DUP1 ISZERO PUSH2 0x202 JUMPI CALLER EQ PUSH2 0x1F3 JUMPI PUSH1 0x1 PUSH2 0x1E0 SWAP2 DUP5 SWAP6 DUP6 PUSH2 0x1E5 SWAP7 MSTORE DUP1 PUSH1 0x20 MSTORE PUSH2 0x1B9 DUP4 DUP4 DUP10 KECCAK256 ADD SLOAD PUSH2 0xEC8 JUMP JUMPDEST PUSH2 0x1C2 DUP6 PUSH2 0xF0C JUMP JUMPDEST POP PUSH1 0x0 DUP1 MLOAD PUSH1 0x20 PUSH2 0x288A DUP4 CODECOPY DUP2 MLOAD SWAP2 MSTORE DUP8 MSTORE PUSH1 0x20 MSTORE DUP6 KECCAK256 ADD SLOAD PUSH2 0xEC8 JUMP JUMPDEST PUSH2 0xF79 JUMP JUMPDEST POP PUSH2 0x1EF CALLER PUSH2 0x120B JUMP JUMPDEST POP DUP1 RETURN JUMPDEST MLOAD PUSH4 0xA98F1F3 PUSH1 0xE2 SHL DUP2 MSTORE DUP4 SWAP1 REVERT JUMPDEST DUP2 MLOAD PUSH4 0xD92E233D PUSH1 0xE0 SHL DUP2 MSTORE DUP6 SWAP1 REVERT JUMPDEST POP DUP1 REVERT JUMPDEST POP DUP3 CALLVALUE PUSH2 0x251 JUMPI DUP2 PUSH1 0x3 NOT CALLDATASIZE ADD SLT PUSH2 0x251 JUMPI PUSH2 0x1EF SWAP2 PUSH2 0x24C PUSH1 0x1 DUP4 CALLDATALOAD SWAP3 PUSH2 0x23C PUSH2 0xD12 JUMP JUMPDEST SWAP5 DUP5 DUP9 MSTORE PUSH1 0x20 MSTORE DUP7 KECCAK256 ADD SLOAD PUSH2 0xEC8 JUMP JUMPDEST PUSH2 0x1272 JUMP JUMPDEST DUP3 DUP1 REVERT JUMPDEST POP CALLVALUE PUSH2 0x212 JUMPI DUP2 PUSH1 0x3 NOT CALLDATASIZE ADD SLT PUSH2 0x212 JUMPI PUSH1 0x5 SLOAD SWAP1 MLOAD PUSH1 0x1 PUSH1 0x1 PUSH1 0xA0 SHL SUB SWAP1 SWAP2 AND DUP2 MSTORE PUSH1 0x20 SWAP1 RETURN JUMPDEST POP SWAP2 CALLVALUE PUSH2 0x212 JUMPI PUSH1 0x3 NOT SWAP1 PUSH1 0xE0 CALLDATASIZE DUP4 ADD SLT PUSH2 0x251 JUMPI PUSH2 0x29A PUSH2 0xCFC JUMP JUMPDEST PUSH2 0x2A2 PUSH2 0xD12 JUMP JUMPDEST SWAP2 PUSH1 0x44 CALLDATALOAD SWAP4 PUSH1 0x1 DUP1 PUSH1 0xA0 SHL SUB SWAP3 DUP4 DUP7 AND DUP1 SWAP7 SUB PUSH2 0x52C JUMPI PUSH1 0x84 CALLDATALOAD SWAP6 PUSH1 0xFF DUP8 AND DUP1 SWAP8 SUB PUSH2 0x528 JUMPI PUSH1 0x1 PUSH1 0x1 PUSH1 0x40 SHL SUB SWAP7 PUSH1 0xA4 CALLDATALOAD DUP9 DUP2 GT PUSH2 0x524 JUMPI PUSH2 0x2E8 SWAP1 CALLDATASIZE SWAP1 DUP8 ADD PUSH2 0xD72 JUMP JUMPDEST SWAP2 PUSH1 0xC4 CALLDATALOAD DUP10 DUP2 GT PUSH2 0x4B3 JUMPI PUSH2 0x300 SWAP1 CALLDATASIZE SWAP1 DUP9 ADD PUSH2 0xD72 JUMP JUMPDEST SWAP4 PUSH1 0x0 DUP1 MLOAD PUSH1 0x20 PUSH2 0x288A DUP4 CODECOPY DUP2 MLOAD SWAP2 MSTORE DUP12 MSTORE DUP7 PUSH1 0x20 MSTORE DUP12 DUP12 KECCAK256 CALLER PUSH1 0x0 MSTORE PUSH1 0x20 MSTORE PUSH1 0xFF DUP13 PUSH1 0x0 KECCAK256 SLOAD AND DUP1 ISZERO PUSH2 0x516 JUMPI JUMPDEST ISZERO PUSH2 0x4DE JUMPI DUP8 DUP1 SWAP2 AND SWAP9 PUSH2 0x344 DUP11 ISZERO ISZERO PUSH2 0xE43 JUMP JUMPDEST AND SWAP9 PUSH2 0x351 DUP11 ISZERO ISZERO PUSH2 0xE43 JUMP JUMPDEST PUSH2 0x35C DUP3 ISZERO ISZERO PUSH2 0xE43 JUMP JUMPDEST DUP12 MLOAD SWAP1 PUSH2 0x1552 DUP1 DUP4 ADD SWAP2 DUP3 GT DUP4 DUP4 LT OR PUSH2 0x4CB JUMPI SWAP1 DUP3 SWAP2 PUSH2 0x12D8 DUP4 CODECOPY SUB SWAP1 DUP12 CREATE DUP1 ISZERO PUSH2 0x4C1 JUMPI DUP8 AND SWAP9 DUP8 PUSH1 0x7 SLOAD AND DUP11 EXTCODESIZE ISZERO PUSH2 0x49B JUMPI DUP13 MLOAD PUSH4 0x1B2CE7F3 PUSH1 0xE1 SHL DUP2 MSTORE DUP1 DUP10 ADD SWAP2 SWAP1 SWAP2 MSTORE DUP12 DUP2 PUSH1 0x24 DUP2 DUP4 DUP16 GAS CALL DUP1 ISZERO PUSH2 0x4B7 JUMPI SWAP1 DUP13 SWAP2 PUSH2 0x49F JUMPI JUMPDEST POP POP DUP8 PUSH1 0x5 SLOAD AND SWAP8 PUSH1 0x6 SLOAD AND DUP11 EXTCODESIZE ISZERO PUSH2 0x49B JUMPI SWAP4 DUP10 SWAP7 SWAP4 DUP13 SWAP9 SWAP7 SWAP4 PUSH2 0x42E SWAP4 DUP16 SWAP8 PUSH2 0x43E SWAP9 MLOAD SWAP13 DUP14 SWAP12 DUP13 SWAP12 PUSH4 0x9A09F47 PUSH1 0xE2 SHL DUP14 MSTORE DUP13 ADD MSTORE PUSH1 0x24 DUP12 ADD MSTORE PUSH1 0x44 DUP11 ADD MSTORE PUSH1 0x64 DUP10 ADD MSTORE PUSH1 0x84 DUP9 ADD MSTORE CALLER PUSH1 0xA4 DUP9 ADD MSTORE PUSH1 0x64 CALLDATALOAD PUSH1 0xC4 DUP9 ADD MSTORE PUSH1 0xE4 DUP8 ADD MSTORE PUSH2 0x140 PUSH2 0x104 DUP8 ADD MSTORE PUSH2 0x144 DUP7 ADD SWAP1 PUSH2 0xE88 JUMP JUMPDEST SWAP2 DUP5 DUP4 SUB ADD PUSH2 0x124 DUP6 ADD MSTORE PUSH2 0xE88 JUMP JUMPDEST SUB DUP2 DUP4 DUP8 GAS CALL DUP1 ISZERO PUSH2 0x491 JUMPI PUSH2 0x47D JUMPI JUMPDEST POP DUP2 PUSH32 0x5B269F580912912F2C48A9E34FCAE47327BA565D31E351E53BE7115F90A62F7F PUSH1 0x20 SWAP6 MLOAD SWAP5 DUP1 LOG3 DUP2 MSTORE RETURN JUMPDEST PUSH2 0x487 DUP5 SWAP2 PUSH2 0xD28 JUMP JUMPDEST PUSH2 0x251 JUMPI CODESIZE PUSH2 0x44F JUMP JUMPDEST DUP6 MLOAD RETURNDATASIZE DUP7 DUP3 RETURNDATACOPY RETURNDATASIZE SWAP1 REVERT JUMPDEST DUP12 DUP1 REVERT JUMPDEST PUSH2 0x4A8 SWAP1 PUSH2 0xD28 JUMP JUMPDEST PUSH2 0x4B3 JUMPI DUP11 CODESIZE PUSH2 0x3BB JUMP JUMPDEST DUP11 DUP1 REVERT JUMPDEST DUP14 MLOAD RETURNDATASIZE DUP15 DUP3 RETURNDATACOPY RETURNDATASIZE SWAP1 REVERT JUMPDEST DUP12 MLOAD RETURNDATASIZE DUP13 DUP3 RETURNDATACOPY RETURNDATASIZE SWAP1 REVERT JUMPDEST PUSH4 0x4E487B71 PUSH1 0xE0 SHL DUP14 MSTORE PUSH1 0x41 DUP10 MSTORE PUSH1 0x24 DUP14 REVERT JUMPDEST DUP12 MLOAD PUSH3 0x461BCD PUSH1 0xE5 SHL DUP2 MSTORE PUSH1 0x20 DUP2 DUP10 ADD MSTORE PUSH1 0x12 PUSH1 0x24 DUP3 ADD MSTORE PUSH18 0x3737BA1027BBB732B91037B91020B236B4B7 PUSH1 0x71 SHL PUSH1 0x44 DUP3 ADD MSTORE PUSH1 0x64 SWAP1 REVERT JUMPDEST POP PUSH2 0x51F PUSH2 0xE20 JUMP JUMPDEST PUSH2 0x32F JUMP JUMPDEST DUP10 DUP1 REVERT JUMPDEST DUP8 DUP1 REVERT JUMPDEST PUSH1 0x0 DUP1 REVERT JUMPDEST POP DUP3 CALLVALUE PUSH2 0x251 JUMPI PUSH1 0x20 CALLDATASIZE PUSH1 0x3 NOT ADD SLT PUSH2 0x251 JUMPI CALLDATALOAD DUP3 MSTORE PUSH1 0x1 PUSH1 0x20 SWAP1 DUP2 MSTORE SWAP2 DUP2 SWAP1 KECCAK256 SLOAD SWAP1 MLOAD PUSH1 0x1 PUSH1 0x1 PUSH1 0xA0 SHL SUB SWAP1 SWAP2 AND DUP2 MSTORE RETURN JUMPDEST POP CALLVALUE PUSH2 0x212 JUMPI DUP2 PUSH1 0x3 NOT CALLDATASIZE ADD SLT PUSH2 0x212 JUMPI MLOAD SWAP1 DUP2 MSTORE PUSH1 0x20 SWAP1 RETURN JUMPDEST POP DUP3 SWAP1 CALLVALUE PUSH2 0x251 JUMPI DUP3 PUSH1 0x3 NOT CALLDATASIZE ADD SLT PUSH2 0x251 JUMPI PUSH1 0x0 DUP1 MLOAD PUSH1 0x20 PUSH2 0x288A DUP4 CODECOPY DUP2 MLOAD SWAP2 MSTORE DUP4 MSTORE DUP2 PUSH1 0x20 MSTORE DUP1 DUP4 KECCAK256 CALLER PUSH1 0x0 MSTORE PUSH1 0x20 MSTORE PUSH1 0xFF DUP2 PUSH1 0x0 KECCAK256 SLOAD AND ISZERO PUSH2 0x5C7 JUMPI DUP3 PUSH2 0x1EF CALLER PUSH2 0x1183 JUMP JUMPDEST SWAP1 PUSH1 0x20 PUSH1 0x84 SWAP3 MLOAD SWAP2 PUSH3 0x461BCD PUSH1 0xE5 SHL DUP4 MSTORE DUP3 ADD MSTORE PUSH1 0x23 PUSH1 0x24 DUP3 ADD MSTORE PUSH32 0x41757468436F6E74726F6C3A2043616C6C6572206973206E6F7420616E206164 PUSH1 0x44 DUP3 ADD MSTORE PUSH3 0x36B4B7 PUSH1 0xE9 SHL PUSH1 0x64 DUP3 ADD MSTORE REVERT JUMPDEST POP DUP3 CALLVALUE PUSH2 0x251 JUMPI DUP2 PUSH1 0x3 NOT CALLDATASIZE ADD SLT PUSH2 0x251 JUMPI DUP2 PUSH1 0x20 SWAP4 PUSH2 0x634 PUSH2 0xD12 JUMP JUMPDEST SWAP3 DUP1 CALLDATALOAD DUP3 MSTORE DUP6 MSTORE KECCAK256 SWAP1 PUSH1 0x1 DUP1 PUSH1 0xA0 SHL SUB AND PUSH1 0x0 MSTORE DUP3 MSTORE PUSH1 0xFF DUP2 PUSH1 0x0 KECCAK256 SLOAD AND SWAP1 MLOAD SWAP1 ISZERO ISZERO DUP2 MSTORE RETURN JUMPDEST POP CALLVALUE PUSH2 0x212 JUMPI DUP2 PUSH1 0x3 NOT CALLDATASIZE ADD SLT PUSH2 0x212 JUMPI PUSH1 0x20 SWAP1 PUSH2 0x677 PUSH2 0xE20 JUMP JUMPDEST SWAP1 MLOAD SWAP1 ISZERO ISZERO DUP2 MSTORE RETURN JUMPDEST POP DUP3 SWAP1 CALLVALUE PUSH2 0x251 JUMPI DUP1 PUSH1 0x3 NOT CALLDATASIZE ADD SLT PUSH2 0x251 JUMPI PUSH2 0x69B PUSH2 0xCFC JUMP JUMPDEST PUSH2 0x6A3 PUSH2 0xD12 JUMP JUMPDEST DUP3 MLOAD PUSH4 0x8DA5CB5B PUSH1 0xE0 SHL DUP2 MSTORE PUSH1 0x1 PUSH1 0x1 PUSH1 0xA0 SHL SUB SWAP3 DUP4 AND SWAP3 SWAP2 SWAP1 PUSH1 0x20 DUP2 DUP8 DUP2 DUP8 GAS STATICCALL SWAP1 DUP2 ISZERO PUSH2 0x7D2 JUMPI SWAP1 DUP4 SWAP2 DUP9 SWAP2 PUSH2 0x790 JUMPI JUMPDEST POP AND CALLER SUB PUSH2 0x780 JUMPI SWAP1 DUP6 SWAP2 DUP4 EXTCODESIZE ISZERO PUSH2 0x251 JUMPI PUSH1 0x24 SWAP1 DUP4 DUP7 MLOAD SWAP6 DUP7 SWAP5 DUP6 SWAP4 PUSH4 0x1B2CE7F3 PUSH1 0xE1 SHL DUP6 MSTORE AND DUP1 SWAP10 DUP5 ADD MSTORE GAS CALL DUP1 ISZERO PUSH2 0x776 JUMPI PUSH2 0x73E JUMPI JUMPDEST POP PUSH32 0x279AA14D8D722D787FBEBBE5D140862D29A9A4C04FB92FA9D21004435C7BBE9E SWAP2 PUSH1 0x20 SWAP2 MLOAD SWAP1 DUP2 MSTORE LOG1 DUP1 RETURN JUMPDEST SWAP2 PUSH1 0x20 SWAP2 SWAP4 PUSH2 0x76D PUSH32 0x279AA14D8D722D787FBEBBE5D140862D29A9A4C04FB92FA9D21004435C7BBE9E SWAP5 PUSH2 0xD28 JUMP JUMPDEST SWAP4 SWAP2 POP SWAP2 PUSH2 0x710 JUMP JUMPDEST DUP3 MLOAD RETURNDATASIZE DUP7 DUP3 RETURNDATACOPY RETURNDATASIZE SWAP1 REVERT JUMPDEST POP POP POP MLOAD PUSH4 0xBFCAFD37 PUSH1 0xE0 SHL DUP2 MSTORE REVERT JUMPDEST SWAP2 POP POP PUSH1 0x20 DUP2 RETURNDATASIZE PUSH1 0x20 GT PUSH2 0x7CA JUMPI JUMPDEST DUP2 PUSH2 0x7AC PUSH1 0x20 SWAP4 DUP4 PUSH2 0xD51 JUMP JUMPDEST DUP2 ADD SUB SLT PUSH2 0x7C6 JUMPI MLOAD DUP3 DUP2 AND DUP2 SUB PUSH2 0x7C6 JUMPI DUP3 SWAP1 DUP9 PUSH2 0x6D6 JUMP JUMPDEST DUP7 DUP1 REVERT JUMPDEST RETURNDATASIZE SWAP2 POP PUSH2 0x79F JUMP JUMPDEST DUP6 MLOAD RETURNDATASIZE DUP10 DUP3 RETURNDATACOPY RETURNDATASIZE SWAP1 REVERT JUMPDEST POP DUP3 CALLVALUE PUSH2 0x251 JUMPI PUSH1 0x20 CALLDATASIZE PUSH1 0x3 NOT ADD SLT PUSH2 0x251 JUMPI PUSH2 0x829 PUSH1 0x1 PUSH2 0x1EF SWAP4 PUSH2 0x800 PUSH2 0xCFC JUMP JUMPDEST SWAP4 PUSH2 0x80C PUSH2 0x17E PUSH2 0xE20 JUMP JUMPDEST PUSH1 0x0 DUP1 MLOAD PUSH1 0x20 PUSH2 0x286A DUP4 CODECOPY DUP2 MLOAD SWAP2 MSTORE DUP8 MSTORE PUSH1 0x20 MSTORE DUP6 KECCAK256 ADD SLOAD PUSH2 0xEC8 JUMP JUMPDEST PUSH2 0x1008 JUMP JUMPDEST DUP3 CALLVALUE PUSH2 0x876 JUMPI PUSH1 0x20 CALLDATASIZE PUSH1 0x3 NOT ADD SLT PUSH2 0x876 JUMPI PUSH2 0x848 PUSH2 0xCFC JUMP JUMPDEST PUSH2 0x853 PUSH2 0x17E PUSH2 0xE20 JUMP JUMPDEST PUSH1 0x7 DUP1 SLOAD PUSH1 0x1 PUSH1 0x1 PUSH1 0xA0 SHL SUB NOT AND PUSH1 0x1 PUSH1 0x1 PUSH1 0xA0 SHL SUB SWAP3 SWAP1 SWAP3 AND SWAP2 SWAP1 SWAP2 OR SWAP1 SSTORE DUP1 RETURN JUMPDEST DUP1 REVERT JUMPDEST POP CALLVALUE PUSH2 0x212 JUMPI DUP2 PUSH1 0x3 NOT CALLDATASIZE ADD SLT PUSH2 0x212 JUMPI PUSH1 0x20 SWAP1 MLOAD PUSH1 0x0 DUP1 MLOAD PUSH1 0x20 PUSH2 0x288A DUP4 CODECOPY DUP2 MLOAD SWAP2 MSTORE DUP2 MSTORE RETURN JUMPDEST POP DUP3 CALLVALUE PUSH2 0x251 JUMPI PUSH1 0x20 CALLDATASIZE PUSH1 0x3 NOT ADD SLT PUSH2 0x251 JUMPI PUSH2 0x1E0 PUSH1 0x1 PUSH2 0x1EF SWAP4 PUSH2 0x8C5 PUSH2 0xCFC JUMP JUMPDEST SWAP4 PUSH2 0x8D1 PUSH2 0x17E PUSH2 0xE20 JUMP JUMPDEST PUSH1 0x0 DUP1 MLOAD PUSH1 0x20 PUSH2 0x288A DUP4 CODECOPY DUP2 MLOAD SWAP2 MSTORE DUP8 MSTORE PUSH1 0x20 MSTORE DUP6 KECCAK256 ADD SLOAD PUSH2 0xEC8 JUMP JUMPDEST POP DUP3 CALLVALUE PUSH2 0x251 JUMPI PUSH1 0x20 CALLDATASIZE PUSH1 0x3 NOT ADD SLT PUSH2 0x251 JUMPI PUSH2 0x909 PUSH2 0xCFC JUMP JUMPDEST SWAP2 PUSH1 0x0 DUP1 MLOAD PUSH1 0x20 PUSH2 0x286A DUP4 CODECOPY DUP2 MLOAD SWAP2 MSTORE DUP5 MSTORE DUP2 PUSH1 0x20 MSTORE DUP1 DUP5 KECCAK256 CALLER DUP6 MSTORE PUSH1 0x20 MSTORE PUSH1 0xFF DUP2 DUP6 KECCAK256 SLOAD AND DUP1 ISZERO PUSH2 0x9B1 JUMPI JUMPDEST ISZERO PUSH2 0x962 JUMPI CALLER PUSH1 0x1 PUSH1 0x1 PUSH1 0xA0 SHL SUB DUP5 AND SUB PUSH2 0x955 JUMPI DUP4 PUSH2 0x1EF DUP5 PUSH2 0x10FB JUMP JUMPDEST MLOAD PUSH4 0x334BD919 PUSH1 0xE1 SHL DUP2 MSTORE REVERT JUMPDEST SWAP1 PUSH1 0x20 PUSH1 0x84 SWAP3 MLOAD SWAP2 PUSH3 0x461BCD PUSH1 0xE5 SHL DUP4 MSTORE DUP3 ADD MSTORE PUSH1 0x23 PUSH1 0x24 DUP3 ADD MSTORE PUSH32 0x41757468436F6E74726F6C3A2043616C6C6572206973206E6F74206120706175 PUSH1 0x44 DUP3 ADD MSTORE PUSH3 0x39B2B9 PUSH1 0xE9 SHL PUSH1 0x64 DUP3 ADD MSTORE REVERT JUMPDEST POP PUSH2 0x9BA PUSH2 0xE20 JUMP JUMPDEST PUSH2 0x936 JUMP JUMPDEST POP CALLVALUE PUSH2 0x212 JUMPI DUP2 PUSH1 0x3 NOT CALLDATASIZE ADD SLT PUSH2 0x212 JUMPI PUSH1 0xFF PUSH1 0x20 SWAP3 SLOAD AND SWAP1 MLOAD SWAP1 ISZERO ISZERO DUP2 MSTORE RETURN JUMPDEST POP CALLVALUE PUSH2 0x212 JUMPI PUSH1 0x20 CALLDATASIZE PUSH1 0x3 NOT ADD SLT PUSH2 0x212 JUMPI PUSH1 0x20 SWAP2 PUSH1 0xFF SWAP1 DUP3 SWAP1 PUSH1 0x1 PUSH1 0x1 PUSH1 0xA0 SHL SUB PUSH2 0xA0A PUSH2 0xCFC JUMP JUMPDEST AND DUP2 MSTORE PUSH1 0x2 DUP6 MSTORE KECCAK256 SLOAD AND SWAP1 MLOAD SWAP1 ISZERO ISZERO DUP2 MSTORE RETURN JUMPDEST POP DUP3 CALLVALUE PUSH2 0x251 JUMPI PUSH1 0x20 CALLDATASIZE PUSH1 0x3 NOT ADD SLT PUSH2 0x251 JUMPI CALLDATALOAD PUSH4 0xFFFFFFFF PUSH1 0xE0 SHL DUP2 AND DUP1 SWAP2 SUB PUSH2 0x251 JUMPI DUP3 MSTORE PUSH1 0x3 PUSH1 0x20 SWAP1 DUP2 MSTORE SWAP2 DUP2 SWAP1 KECCAK256 SLOAD SWAP1 MLOAD PUSH1 0x1 PUSH1 0x1 PUSH1 0xA0 SHL SUB SWAP1 SWAP2 AND DUP2 MSTORE RETURN JUMPDEST POP DUP3 SWAP1 CALLVALUE PUSH2 0x251 JUMPI DUP1 PUSH1 0x3 NOT CALLDATASIZE ADD SLT PUSH2 0x251 JUMPI PUSH2 0xA7C PUSH2 0xCFC JUMP JUMPDEST SWAP2 PUSH2 0xA85 PUSH2 0xD12 JUMP JUMPDEST SWAP2 PUSH1 0xFF PUSH1 0x7 SLOAD PUSH1 0xA0 SHR AND PUSH2 0xAE2 JUMPI POP POP PUSH2 0xA9E CALLER PUSH2 0xF0C JUMP JUMPDEST POP PUSH1 0x5 DUP1 SLOAD PUSH1 0x1 PUSH1 0x1 PUSH1 0xA0 SHL SUB NOT SWAP1 DUP2 AND PUSH1 0x1 PUSH1 0x1 PUSH1 0xA0 SHL SUB SWAP5 DUP6 AND OR SWAP1 SWAP2 SSTORE PUSH1 0x6 DUP1 SLOAD SWAP1 SWAP2 AND SWAP2 SWAP1 SWAP3 AND OR SWAP1 SSTORE PUSH1 0x7 DUP1 SLOAD PUSH1 0xFF PUSH1 0xA0 SHL NOT AND PUSH1 0x1 PUSH1 0xA0 SHL OR SWAP1 SSTORE DUP1 RETURN JUMPDEST MLOAD PUSH3 0xDC149F PUSH1 0xE4 SHL DUP2 MSTORE REVERT JUMPDEST POP DUP3 CALLVALUE PUSH2 0x251 JUMPI PUSH1 0x20 CALLDATASIZE PUSH1 0x3 NOT ADD SLT PUSH2 0x251 JUMPI DUP2 PUSH1 0x20 SWAP4 PUSH1 0xFF SWAP3 PUSH2 0xB10 PUSH2 0xCFC JUMP JUMPDEST PUSH1 0x0 DUP1 MLOAD PUSH1 0x20 PUSH2 0x286A DUP4 CODECOPY DUP2 MLOAD SWAP2 MSTORE DUP4 MSTORE SWAP1 DUP7 MSTORE DUP3 DUP3 KECCAK256 PUSH1 0x1 PUSH1 0x1 PUSH1 0xA0 SHL SUB SWAP1 SWAP2 AND DUP3 MSTORE DUP6 MSTORE KECCAK256 SLOAD SWAP2 MLOAD SWAP2 AND ISZERO ISZERO DUP2 MSTORE RETURN JUMPDEST POP CALLVALUE PUSH2 0x212 JUMPI DUP2 PUSH1 0x3 NOT CALLDATASIZE ADD SLT PUSH2 0x212 JUMPI PUSH1 0x20 SWAP1 MLOAD PUSH1 0x0 DUP1 MLOAD PUSH1 0x20 PUSH2 0x286A DUP4 CODECOPY DUP2 MLOAD SWAP2 MSTORE DUP2 MSTORE RETURN JUMPDEST POP CALLVALUE PUSH2 0x212 JUMPI DUP1 PUSH1 0x3 NOT CALLDATASIZE ADD SLT PUSH2 0x212 JUMPI PUSH2 0xB83 PUSH2 0xD12 JUMP JUMPDEST SWAP1 CALLER PUSH1 0x1 PUSH1 0x1 PUSH1 0xA0 SHL SUB DUP4 AND SUB PUSH2 0xBA0 JUMPI POP PUSH2 0x1EF SWAP2 SWAP3 CALLDATALOAD PUSH2 0x1272 JUMP JUMPDEST MLOAD PUSH4 0x334BD919 PUSH1 0xE1 SHL DUP2 MSTORE DUP4 SWAP1 REVERT JUMPDEST POP DUP3 CALLVALUE PUSH2 0x251 JUMPI DUP2 PUSH1 0x3 NOT CALLDATASIZE ADD SLT PUSH2 0x251 JUMPI PUSH2 0x1EF SWAP2 PUSH2 0xBD5 PUSH1 0x1 DUP4 CALLDATALOAD SWAP3 PUSH2 0x23C PUSH2 0xD12 JUMP JUMPDEST PUSH2 0x1092 JUMP JUMPDEST POP DUP3 CALLVALUE PUSH2 0x251 JUMPI PUSH1 0x20 CALLDATASIZE PUSH1 0x3 NOT ADD SLT PUSH2 0x251 JUMPI DUP2 PUSH1 0x20 SWAP4 PUSH1 0xFF SWAP3 PUSH2 0xBFC PUSH2 0xCFC JUMP JUMPDEST PUSH1 0x0 DUP1 MLOAD PUSH1 0x20 PUSH2 0x288A DUP4 CODECOPY DUP2 MLOAD SWAP2 MSTORE DUP4 MSTORE SWAP1 DUP7 MSTORE DUP3 DUP3 KECCAK256 PUSH1 0x1 PUSH1 0x1 PUSH1 0xA0 SHL SUB SWAP1 SWAP2 AND DUP3 MSTORE DUP6 MSTORE KECCAK256 SLOAD SWAP2 MLOAD SWAP2 AND ISZERO ISZERO DUP2 MSTORE RETURN JUMPDEST POP DUP3 CALLVALUE PUSH2 0x251 JUMPI PUSH1 0x20 CALLDATASIZE PUSH1 0x3 NOT ADD SLT PUSH2 0x251 JUMPI DUP2 PUSH1 0x20 SWAP4 DUP3 PUSH1 0x1 SWAP4 CALLDATALOAD DUP3 MSTORE DUP6 MSTORE KECCAK256 ADD SLOAD SWAP1 MLOAD SWAP1 DUP2 MSTORE RETURN JUMPDEST POP CALLVALUE PUSH2 0x212 JUMPI DUP2 PUSH1 0x3 NOT CALLDATASIZE ADD SLT PUSH2 0x212 JUMPI PUSH1 0x7 SLOAD SWAP1 MLOAD PUSH1 0x1 PUSH1 0x1 PUSH1 0xA0 SHL SUB SWAP1 SWAP2 AND DUP2 MSTORE PUSH1 0x20 SWAP1 RETURN JUMPDEST POP CALLVALUE PUSH2 0x212 JUMPI DUP2 PUSH1 0x3 NOT CALLDATASIZE ADD SLT PUSH2 0x212 JUMPI PUSH1 0x6 SLOAD SWAP1 MLOAD PUSH1 0x1 PUSH1 0x1 PUSH1 0xA0 SHL SUB SWAP1 SWAP2 AND DUP2 MSTORE PUSH1 0x20 SWAP1 RETURN JUMPDEST DUP4 SWAP1 DUP6 CALLVALUE PUSH2 0x251 JUMPI PUSH1 0x20 CALLDATASIZE PUSH1 0x3 NOT ADD SLT PUSH2 0x251 JUMPI CALLDATALOAD PUSH4 0xFFFFFFFF PUSH1 0xE0 SHL DUP2 AND DUP1 SWAP2 SUB PUSH2 0x251 JUMPI PUSH1 0x20 SWAP3 POP PUSH4 0x7965DB0B PUSH1 0xE0 SHL DUP2 EQ SWAP1 DUP2 ISZERO PUSH2 0xCEB JUMPI JUMPDEST POP ISZERO ISZERO DUP2 MSTORE RETURN JUMPDEST PUSH4 0x1FFC9A7 PUSH1 0xE0 SHL EQ SWAP1 POP DUP4 PUSH2 0xCE4 JUMP JUMPDEST PUSH1 0x4 CALLDATALOAD SWAP1 PUSH1 0x1 PUSH1 0x1 PUSH1 0xA0 SHL SUB DUP3 AND DUP3 SUB PUSH2 0x52C JUMPI JUMP JUMPDEST PUSH1 0x24 CALLDATALOAD SWAP1 PUSH1 0x1 PUSH1 0x1 PUSH1 0xA0 SHL SUB DUP3 AND DUP3 SUB PUSH2 0x52C JUMPI JUMP JUMPDEST PUSH1 0x1 PUSH1 0x1 PUSH1 0x40 SHL SUB DUP2 GT PUSH2 0xD3B JUMPI PUSH1 0x40 MSTORE JUMP JUMPDEST PUSH4 0x4E487B71 PUSH1 0xE0 SHL PUSH1 0x0 MSTORE PUSH1 0x41 PUSH1 0x4 MSTORE PUSH1 0x24 PUSH1 0x0 REVERT JUMPDEST SWAP1 PUSH1 0x1F DUP1 NOT SWAP2 ADD AND DUP2 ADD SWAP1 DUP2 LT PUSH1 0x1 PUSH1 0x1 PUSH1 0x40 SHL SUB DUP3 GT OR PUSH2 0xD3B JUMPI PUSH1 0x40 MSTORE JUMP JUMPDEST DUP2 PUSH1 0x1F DUP3 ADD SLT ISZERO PUSH2 0x52C JUMPI DUP1 CALLDATALOAD SWAP1 PUSH1 0x1 PUSH1 0x1 PUSH1 0x40 SHL SUB DUP3 GT PUSH2 0xD3B JUMPI PUSH1 0x40 MLOAD SWAP3 PUSH2 0xDA6 PUSH1 0x1F DUP5 ADD PUSH1 0x1F NOT AND PUSH1 0x20 ADD DUP6 PUSH2 0xD51 JUMP JUMPDEST DUP3 DUP5 MSTORE PUSH1 0x20 DUP4 DUP4 ADD ADD GT PUSH2 0x52C JUMPI DUP2 PUSH1 0x0 SWAP3 PUSH1 0x20 DUP1 SWAP4 ADD DUP4 DUP7 ADD CALLDATACOPY DUP4 ADD ADD MSTORE SWAP1 JUMP JUMPDEST ISZERO PUSH2 0xDCF JUMPI JUMP JUMPDEST PUSH1 0x40 MLOAD PUSH3 0x461BCD PUSH1 0xE5 SHL DUP2 MSTORE PUSH1 0x20 PUSH1 0x4 DUP3 ADD MSTORE PUSH1 0x24 DUP1 DUP3 ADD MSTORE PUSH32 0x41757468436F6E74726F6C3A2043616C6C6572206973206E6F7420746865206F PUSH1 0x44 DUP3 ADD MSTORE PUSH4 0x3BB732B9 PUSH1 0xE1 SHL PUSH1 0x64 DUP3 ADD MSTORE PUSH1 0x84 SWAP1 REVERT JUMPDEST CALLER PUSH1 0x0 SWAP1 DUP2 MSTORE PUSH1 0x0 DUP1 MLOAD PUSH1 0x20 PUSH2 0x284A DUP4 CODECOPY DUP2 MLOAD SWAP2 MSTORE PUSH1 0x20 MSTORE PUSH1 0x40 SWAP1 KECCAK256 SLOAD PUSH1 0xFF AND SWAP1 JUMP JUMPDEST ISZERO PUSH2 0xE4A JUMPI JUMP JUMPDEST PUSH1 0x40 MLOAD PUSH3 0x461BCD PUSH1 0xE5 SHL DUP2 MSTORE PUSH1 0x20 PUSH1 0x4 DUP3 ADD MSTORE PUSH1 0x16 PUSH1 0x24 DUP3 ADD MSTORE PUSH22 0x416464726573732063616E6E6F74206265207A65726F PUSH1 0x50 SHL PUSH1 0x44 DUP3 ADD MSTORE PUSH1 0x64 SWAP1 REVERT JUMPDEST SWAP2 SWAP1 DUP3 MLOAD SWAP3 DUP4 DUP3 MSTORE PUSH1 0x0 JUMPDEST DUP5 DUP2 LT PUSH2 0xEB4 JUMPI POP POP DUP3 PUSH1 0x0 PUSH1 0x20 DUP1 SWAP5 SWAP6 DUP5 ADD ADD MSTORE PUSH1 0x1F DUP1 NOT SWAP2 ADD AND ADD ADD SWAP1 JUMP JUMPDEST PUSH1 0x20 DUP2 DUP4 ADD DUP2 ADD MLOAD DUP5 DUP4 ADD DUP3 ADD MSTORE ADD PUSH2 0xE93 JUMP JUMPDEST DUP1 PUSH1 0x0 MSTORE PUSH1 0x4 PUSH1 0x20 MSTORE PUSH1 0x40 PUSH1 0x0 KECCAK256 CALLER PUSH1 0x0 MSTORE PUSH1 0x20 MSTORE PUSH1 0xFF PUSH1 0x40 PUSH1 0x0 KECCAK256 SLOAD AND ISZERO PUSH2 0xEEE JUMPI POP JUMP JUMPDEST PUSH1 0x44 SWAP1 PUSH1 0x40 MLOAD SWAP1 PUSH4 0xE2517D3F PUSH1 0xE0 SHL DUP3 MSTORE CALLER PUSH1 0x4 DUP4 ADD MSTORE PUSH1 0x24 DUP3 ADD MSTORE REVERT JUMPDEST PUSH1 0x1 PUSH1 0x1 PUSH1 0xA0 SHL SUB AND PUSH1 0x0 DUP2 DUP2 MSTORE PUSH1 0x0 DUP1 MLOAD PUSH1 0x20 PUSH2 0x284A DUP4 CODECOPY DUP2 MLOAD SWAP2 MSTORE PUSH1 0x20 MSTORE PUSH1 0x40 DUP2 KECCAK256 SLOAD SWAP1 SWAP2 SWAP1 PUSH1 0xFF AND PUSH2 0xF75 JUMPI DUP2 DUP1 MSTORE PUSH1 0x4 PUSH1 0x20 MSTORE PUSH1 0x40 DUP3 KECCAK256 DUP2 DUP4 MSTORE PUSH1 0x20 MSTORE PUSH1 0x40 DUP3 KECCAK256 PUSH1 0x1 PUSH1 0xFF NOT DUP3 SLOAD AND OR SWAP1 SSTORE CALLER SWAP2 PUSH1 0x0 DUP1 MLOAD PUSH1 0x20 PUSH2 0x282A DUP4 CODECOPY DUP2 MLOAD SWAP2 MSTORE DUP2 DUP1 LOG4 PUSH1 0x1 SWAP1 JUMP JUMPDEST POP SWAP1 JUMP JUMPDEST PUSH1 0x1 PUSH1 0x1 PUSH1 0xA0 SHL SUB AND PUSH1 0x0 DUP2 DUP2 MSTORE PUSH32 0x2FB794D17134DFDEC181DDBAC1BABB5AB1EB140204EF4D982F294E7FC8B69022 PUSH1 0x20 MSTORE PUSH1 0x40 DUP2 KECCAK256 SLOAD SWAP1 SWAP2 SWAP1 PUSH1 0x0 DUP1 MLOAD PUSH1 0x20 PUSH2 0x288A DUP4 CODECOPY DUP2 MLOAD SWAP2 MSTORE SWAP1 PUSH1 0xFF AND PUSH2 0x1003 JUMPI DUP1 DUP4 MSTORE PUSH1 0x4 PUSH1 0x20 MSTORE PUSH1 0x40 DUP4 KECCAK256 DUP3 DUP5 MSTORE PUSH1 0x20 MSTORE PUSH1 0x40 DUP4 KECCAK256 PUSH1 0x1 PUSH1 0xFF NOT DUP3 SLOAD AND OR SWAP1 SSTORE PUSH1 0x0 DUP1 MLOAD PUSH1 0x20 PUSH2 0x282A DUP4 CODECOPY DUP2 MLOAD SWAP2 MSTORE CALLER SWAP4 DUP1 LOG4 PUSH1 0x1 SWAP1 JUMP JUMPDEST POP POP SWAP1 JUMP JUMPDEST PUSH1 0x1 PUSH1 0x1 PUSH1 0xA0 SHL SUB AND PUSH1 0x0 DUP2 DUP2 MSTORE PUSH32 0x2ED987AB732D519C59D4A2F2F586B9CA6AF9F18905FA2093ACEEB8D462FFC842 PUSH1 0x20 MSTORE PUSH1 0x40 DUP2 KECCAK256 SLOAD SWAP1 SWAP2 SWAP1 PUSH1 0x0 DUP1 MLOAD PUSH1 0x20 PUSH2 0x286A DUP4 CODECOPY DUP2 MLOAD SWAP2 MSTORE SWAP1 PUSH1 0xFF AND PUSH2 0x1003 JUMPI DUP1 DUP4 MSTORE PUSH1 0x4 PUSH1 0x20 MSTORE PUSH1 0x40 DUP4 KECCAK256 DUP3 DUP5 MSTORE PUSH1 0x20 MSTORE PUSH1 0x40 DUP4 KECCAK256 PUSH1 0x1 PUSH1 0xFF NOT DUP3 SLOAD AND OR SWAP1 SSTORE PUSH1 0x0 DUP1 MLOAD PUSH1 0x20 PUSH2 0x282A DUP4 CODECOPY DUP2 MLOAD SWAP2 MSTORE CALLER SWAP4 DUP1 LOG4 PUSH1 0x1 SWAP1 JUMP JUMPDEST SWAP1 PUSH1 0x0 SWAP2 DUP1 DUP4 MSTORE PUSH1 0x4 PUSH1 0x20 MSTORE PUSH1 0x40 DUP4 KECCAK256 SWAP2 PUSH1 0x1 DUP1 PUSH1 0xA0 SHL SUB AND SWAP2 DUP3 DUP5 MSTORE PUSH1 0x20 MSTORE PUSH1 0xFF PUSH1 0x40 DUP5 KECCAK256 SLOAD AND ISZERO PUSH1 0x0 EQ PUSH2 0x1003 JUMPI DUP1 DUP4 MSTORE PUSH1 0x4 PUSH1 0x20 MSTORE PUSH1 0x40 DUP4 KECCAK256 DUP3 DUP5 MSTORE PUSH1 0x20 MSTORE PUSH1 0x40 DUP4 KECCAK256 PUSH1 0x1 PUSH1 0xFF NOT DUP3 SLOAD AND OR SWAP1 SSTORE PUSH1 0x0 DUP1 MLOAD PUSH1 0x20 PUSH2 0x282A DUP4 CODECOPY DUP2 MLOAD SWAP2 MSTORE CALLER SWAP4 DUP1 LOG4 PUSH1 0x1 SWAP1 JUMP JUMPDEST PUSH1 0x1 PUSH1 0x1 PUSH1 0xA0 SHL SUB AND PUSH1 0x0 DUP2 DUP2 MSTORE PUSH32 0x2ED987AB732D519C59D4A2F2F586B9CA6AF9F18905FA2093ACEEB8D462FFC842 PUSH1 0x20 MSTORE PUSH1 0x40 DUP2 KECCAK256 SLOAD SWAP1 SWAP2 SWAP1 PUSH1 0x0 DUP1 MLOAD PUSH1 0x20 PUSH2 0x286A DUP4 CODECOPY DUP2 MLOAD SWAP2 MSTORE SWAP1 PUSH1 0xFF AND ISZERO PUSH2 0x1003 JUMPI DUP1 DUP4 MSTORE PUSH1 0x4 PUSH1 0x20 MSTORE PUSH1 0x40 DUP4 KECCAK256 DUP3 DUP5 MSTORE PUSH1 0x20 MSTORE PUSH1 0x40 DUP4 KECCAK256 PUSH1 0xFF NOT DUP2 SLOAD AND SWAP1 SSTORE PUSH1 0x0 DUP1 MLOAD PUSH1 0x20 PUSH2 0x28AA DUP4 CODECOPY DUP2 MLOAD SWAP2 MSTORE CALLER SWAP4 DUP1 LOG4 PUSH1 0x1 SWAP1 JUMP JUMPDEST PUSH1 0x1 PUSH1 0x1 PUSH1 0xA0 SHL SUB AND PUSH1 0x0 DUP2 DUP2 MSTORE PUSH32 0x2FB794D17134DFDEC181DDBAC1BABB5AB1EB140204EF4D982F294E7FC8B69022 PUSH1 0x20 MSTORE PUSH1 0x40 DUP2 KECCAK256 SLOAD SWAP1 SWAP2 SWAP1 PUSH1 0x0 DUP1 MLOAD PUSH1 0x20 PUSH2 0x288A DUP4 CODECOPY DUP2 MLOAD SWAP2 MSTORE SWAP1 PUSH1 0xFF AND ISZERO PUSH2 0x1003 JUMPI DUP1 DUP4 MSTORE PUSH1 0x4 PUSH1 0x20 MSTORE PUSH1 0x40 DUP4 KECCAK256 DUP3 DUP5 MSTORE PUSH1 0x20 MSTORE PUSH1 0x40 DUP4 KECCAK256 PUSH1 0xFF NOT DUP2 SLOAD AND SWAP1 SSTORE PUSH1 0x0 DUP1 MLOAD PUSH1 0x20 PUSH2 0x28AA DUP4 CODECOPY DUP2 MLOAD SWAP2 MSTORE CALLER SWAP4 DUP1 LOG4 PUSH1 0x1 SWAP1 JUMP JUMPDEST PUSH1 0x1 PUSH1 0x1 PUSH1 0xA0 SHL SUB AND PUSH1 0x0 DUP2 DUP2 MSTORE PUSH1 0x0 DUP1 MLOAD PUSH1 0x20 PUSH2 0x284A DUP4 CODECOPY DUP2 MLOAD SWAP2 MSTORE PUSH1 0x20 MSTORE PUSH1 0x40 DUP2 KECCAK256 SLOAD SWAP1 SWAP2 SWAP1 PUSH1 0xFF AND ISZERO PUSH2 0xF75 JUMPI DUP2 DUP1 MSTORE PUSH1 0x4 PUSH1 0x20 MSTORE PUSH1 0x40 DUP3 KECCAK256 DUP2 DUP4 MSTORE PUSH1 0x20 MSTORE PUSH1 0x40 DUP3 KECCAK256 PUSH1 0xFF NOT DUP2 SLOAD AND SWAP1 SSTORE CALLER SWAP2 PUSH1 0x0 DUP1 MLOAD PUSH1 0x20 PUSH2 0x28AA DUP4 CODECOPY DUP2 MLOAD SWAP2 MSTORE DUP2 DUP1 LOG4 PUSH1 0x1 SWAP1 JUMP JUMPDEST SWAP1 PUSH1 0x0 SWAP2 DUP1 DUP4 MSTORE PUSH1 0x4 PUSH1 0x20 MSTORE PUSH1 0x40 DUP4 KECCAK256 SWAP2 PUSH1 0x1 DUP1 PUSH1 0xA0 SHL SUB AND SWAP2 DUP3 DUP5 MSTORE PUSH1 0x20 MSTORE PUSH1 0xFF PUSH1 0x40 DUP5 KECCAK256 SLOAD AND PUSH1 0x0 EQ PUSH2 0x1003 JUMPI DUP1 DUP4 MSTORE PUSH1 0x4 PUSH1 0x20 MSTORE PUSH1 0x40 DUP4 KECCAK256 DUP3 DUP5 MSTORE PUSH1 0x20 MSTORE PUSH1 0x40 DUP4 KECCAK256 PUSH1 0xFF NOT DUP2 SLOAD AND SWAP1 SSTORE PUSH1 0x0 DUP1 MLOAD PUSH1 0x20 PUSH2 0x28AA DUP4 CODECOPY DUP2 MLOAD SWAP2 MSTORE CALLER SWAP4 DUP1 LOG4 PUSH1 0x1 SWAP1 JUMP INVALID PUSH1 0x80 PUSH1 0x40 MSTORE CALLVALUE PUSH1 0x1F JUMPI PUSH1 0xF CALLER PUSH1 0x24 JUMP JUMPDEST POP PUSH1 0x40 MLOAD PUSH2 0x149D SWAP1 DUP2 PUSH2 0xB5 DUP3 CODECOPY RETURN JUMPDEST PUSH1 0x0 DUP1 REVERT JUMPDEST PUSH1 0x1 PUSH1 0x1 PUSH1 0xA0 SHL SUB AND PUSH1 0x0 DUP2 DUP2 MSTORE PUSH32 0x17EF568E3E12AB5B9C7254A8D58478811DE00F9E6EB34345ACD53BF8FD09D3EC PUSH1 0x20 MSTORE PUSH1 0x40 DUP2 KECCAK256 SLOAD SWAP1 SWAP2 SWAP1 PUSH1 0xFF AND PUSH1 0xB0 JUMPI DUP2 DUP1 MSTORE PUSH1 0x4 PUSH1 0x20 MSTORE PUSH1 0x40 DUP3 KECCAK256 DUP2 DUP4 MSTORE PUSH1 0x20 MSTORE PUSH1 0x40 DUP3 KECCAK256 PUSH1 0x1 PUSH1 0xFF NOT DUP3 SLOAD AND OR SWAP1 SSTORE CALLER SWAP2 PUSH32 0x2F8788117E7EFF1D82E926EC794901D17C78024A50270940304540A733656F0D DUP2 DUP1 LOG4 PUSH1 0x1 SWAP1 JUMP JUMPDEST POP SWAP1 JUMP INVALID PUSH1 0x80 PUSH1 0x40 MSTORE PUSH1 0x4 CALLDATASIZE LT ISZERO PUSH2 0x15 JUMPI JUMPDEST CALLDATASIZE PUSH2 0x132C JUMPI STOP JUMPDEST PUSH1 0x0 CALLDATALOAD PUSH1 0xE0 SHR DUP1 PUSH4 0x1FFC9A7 EQ PUSH2 0x1E0 JUMPI DUP1 PUSH4 0x248A9CA3 EQ PUSH2 0x1DB JUMPI DUP1 PUSH4 0x24D7806C EQ PUSH2 0x1D6 JUMPI DUP1 PUSH4 0x2F2FF15D EQ PUSH2 0x1D1 JUMPI DUP1 PUSH4 0x36568ABE EQ PUSH2 0x1CC JUMPI DUP1 PUSH4 0x3659CFE6 EQ PUSH2 0x1C7 JUMPI DUP1 PUSH4 0x389ED267 EQ PUSH2 0x1C2 JUMPI DUP1 PUSH4 0x46FBF68E EQ PUSH2 0x1BD JUMPI DUP1 PUSH4 0x4A5DF50F EQ PUSH2 0x1B8 JUMPI DUP1 PUSH4 0x50D2A276 EQ PUSH2 0x1B3 JUMPI DUP1 PUSH4 0x550D01A3 EQ PUSH2 0x1AE JUMPI DUP1 PUSH4 0x5C60DA1B EQ PUSH2 0x1A9 JUMPI DUP1 PUSH4 0x5CC797D8 EQ PUSH2 0x1A4 JUMPI DUP1 PUSH4 0x63A8FD89 EQ PUSH2 0x19F JUMPI DUP1 PUSH4 0x6B2C0F55 EQ PUSH2 0x19A JUMPI DUP1 PUSH4 0x70480275 EQ PUSH2 0x195 JUMPI DUP1 PUSH4 0x75B238FC EQ PUSH2 0x190 JUMPI DUP1 PUSH4 0x7CB00D25 EQ PUSH2 0x18B JUMPI DUP1 PUSH4 0x7CD5F663 EQ PUSH2 0x186 JUMPI DUP1 PUSH4 0x82DC1EC4 EQ PUSH2 0x181 JUMPI DUP1 PUSH4 0x8B8F4A65 EQ PUSH2 0x163 JUMPI DUP1 PUSH4 0x8D4FDB40 EQ PUSH2 0x17C JUMPI DUP1 PUSH4 0x8F32D59B EQ PUSH2 0x177 JUMPI DUP1 PUSH4 0x91D14854 EQ PUSH2 0x172 JUMPI DUP1 PUSH4 0x9A202D47 EQ PUSH2 0x16D JUMPI DUP1 PUSH4 0xA217FDDF EQ PUSH2 0x168 JUMPI DUP1 PUSH4 0xB911135F EQ PUSH2 0x163 JUMPI DUP1 PUSH4 0xD547741F EQ PUSH2 0x15E JUMPI PUSH4 0xF2FDE38B SUB PUSH2 0xE JUMPI PUSH2 0xBF4 JUMP JUMPDEST PUSH2 0xBB5 JUMP JUMPDEST PUSH2 0xA38 JUMP JUMPDEST PUSH2 0xB99 JUMP JUMPDEST PUSH2 0xAFE JUMP JUMPDEST PUSH2 0xACA JUMP JUMPDEST PUSH2 0xAA5 JUMP JUMPDEST PUSH2 0xA6C JUMP JUMPDEST PUSH2 0x9CA JUMP JUMPDEST PUSH2 0x92D JUMP JUMPDEST PUSH2 0x8F1 JUMP JUMPDEST PUSH2 0x8C8 JUMP JUMPDEST PUSH2 0x85A JUMP JUMPDEST PUSH2 0x79A JUMP JUMPDEST PUSH2 0x777 JUMP JUMPDEST PUSH2 0x73E JUMP JUMPDEST PUSH2 0x70A JUMP JUMPDEST PUSH2 0x6CB JUMP JUMPDEST PUSH2 0x654 JUMP JUMPDEST PUSH2 0x4B9 JUMP JUMPDEST PUSH2 0x479 JUMP JUMPDEST PUSH2 0x450 JUMP JUMPDEST PUSH2 0x381 JUMP JUMPDEST PUSH2 0x33A JUMP JUMPDEST PUSH2 0x2F9 JUMP JUMPDEST PUSH2 0x2AD JUMP JUMPDEST PUSH2 0x252 JUMP JUMPDEST PUSH2 0x1FC JUMP JUMPDEST PUSH1 0x1 PUSH1 0x1 PUSH1 0xE0 SHL SUB NOT DUP2 AND SUB PUSH2 0x1F7 JUMPI JUMP JUMPDEST PUSH1 0x0 DUP1 REVERT JUMPDEST CALLVALUE PUSH2 0x1F7 JUMPI PUSH1 0x20 CALLDATASIZE PUSH1 0x3 NOT ADD SLT PUSH2 0x1F7 JUMPI PUSH1 0x20 PUSH1 0x4 CALLDATALOAD PUSH2 0x21B DUP2 PUSH2 0x1E5 JUMP JUMPDEST PUSH4 0xFFFFFFFF PUSH1 0xE0 SHL AND PUSH4 0x7965DB0B PUSH1 0xE0 SHL DUP2 EQ SWAP1 DUP2 ISZERO PUSH2 0x241 JUMPI JUMPDEST POP PUSH1 0x40 MLOAD SWAP1 ISZERO ISZERO DUP2 MSTORE RETURN JUMPDEST PUSH4 0x1FFC9A7 PUSH1 0xE0 SHL EQ SWAP1 POP CODESIZE PUSH2 0x236 JUMP JUMPDEST CALLVALUE PUSH2 0x1F7 JUMPI PUSH1 0x20 CALLDATASIZE PUSH1 0x3 NOT ADD SLT PUSH2 0x1F7 JUMPI PUSH1 0x4 CALLDATALOAD PUSH1 0x0 MSTORE PUSH1 0x4 PUSH1 0x20 MSTORE PUSH1 0x20 PUSH1 0x1 PUSH1 0x40 PUSH1 0x0 KECCAK256 ADD SLOAD PUSH1 0x40 MLOAD SWAP1 DUP2 MSTORE RETURN JUMPDEST PUSH1 0x4 CALLDATALOAD SWAP1 PUSH1 0x1 PUSH1 0x1 PUSH1 0xA0 SHL SUB DUP3 AND DUP3 SUB PUSH2 0x1F7 JUMPI JUMP JUMPDEST PUSH1 0x24 CALLDATALOAD SWAP1 PUSH1 0x1 PUSH1 0x1 PUSH1 0xA0 SHL SUB DUP3 AND DUP3 SUB PUSH2 0x1F7 JUMPI JUMP JUMPDEST CALLVALUE PUSH2 0x1F7 JUMPI PUSH1 0x20 CALLDATASIZE PUSH1 0x3 NOT ADD SLT PUSH2 0x1F7 JUMPI PUSH1 0x20 PUSH1 0xFF PUSH2 0x2ED PUSH2 0x2CD PUSH2 0x281 JUMP JUMPDEST PUSH1 0x0 DUP1 MLOAD PUSH1 0x20 PUSH2 0x1448 DUP4 CODECOPY DUP2 MLOAD SWAP2 MSTORE PUSH1 0x0 MSTORE PUSH1 0x4 DUP5 MSTORE PUSH1 0x40 PUSH1 0x0 KECCAK256 PUSH2 0x6B4 JUMP JUMPDEST SLOAD AND PUSH1 0x40 MLOAD SWAP1 ISZERO ISZERO DUP2 MSTORE RETURN JUMPDEST CALLVALUE PUSH2 0x1F7 JUMPI PUSH1 0x40 CALLDATASIZE PUSH1 0x3 NOT ADD SLT PUSH2 0x1F7 JUMPI PUSH2 0x338 PUSH1 0x4 CALLDATALOAD PUSH2 0x318 PUSH2 0x297 JUMP JUMPDEST SWAP1 DUP1 PUSH1 0x0 MSTORE PUSH1 0x4 PUSH1 0x20 MSTORE PUSH2 0x333 PUSH1 0x1 PUSH1 0x40 PUSH1 0x0 KECCAK256 ADD SLOAD PUSH2 0xF3E JUMP JUMPDEST PUSH2 0x10DE JUMP JUMPDEST STOP JUMPDEST CALLVALUE PUSH2 0x1F7 JUMPI PUSH1 0x40 CALLDATASIZE PUSH1 0x3 NOT ADD SLT PUSH2 0x1F7 JUMPI PUSH2 0x353 PUSH2 0x297 JUMP JUMPDEST CALLER PUSH1 0x1 PUSH1 0x1 PUSH1 0xA0 SHL SUB DUP3 AND SUB PUSH2 0x36F JUMPI PUSH2 0x338 SWAP1 PUSH1 0x4 CALLDATALOAD PUSH2 0x1248 JUMP JUMPDEST PUSH1 0x40 MLOAD PUSH4 0x334BD919 PUSH1 0xE1 SHL DUP2 MSTORE PUSH1 0x4 SWAP1 REVERT JUMPDEST CALLVALUE PUSH2 0x1F7 JUMPI PUSH1 0x20 CALLDATASIZE PUSH1 0x3 NOT ADD SLT PUSH2 0x1F7 JUMPI PUSH2 0x39A PUSH2 0x281 JUMP JUMPDEST PUSH2 0x3AA PUSH2 0x3A5 PUSH2 0xF1B JUMP JUMPDEST PUSH2 0xD15 JUMP JUMPDEST PUSH1 0x1 PUSH1 0x1 PUSH1 0xA0 SHL SUB DUP2 AND DUP1 ISZERO PUSH2 0x41B JUMPI PUSH1 0x0 DUP1 DUP1 MSTORE PUSH1 0x1 PUSH1 0x20 MSTORE PUSH1 0x0 DUP1 MLOAD PUSH1 0x20 PUSH2 0x13E8 DUP4 CODECOPY DUP2 MLOAD SWAP2 MSTORE SLOAD SWAP1 SWAP3 PUSH2 0x3F4 SWAP2 PUSH2 0x3EF SWAP1 PUSH1 0x1 PUSH1 0x1 PUSH1 0xA0 SHL SUB AND DUP5 EQ ISZERO PUSH2 0xD6D JUMP JUMPDEST PUSH2 0x1262 JUMP JUMPDEST PUSH32 0xBC7CD75A20EE27FD9ADEBAB32041F755214DBC6BFFA90CC0225B39DA2E5C2D3B DUP3 DUP1 LOG2 DUP1 RETURN JUMPDEST PUSH1 0x40 MLOAD PUSH3 0x461BCD PUSH1 0xE5 SHL DUP2 MSTORE PUSH1 0x20 PUSH1 0x4 DUP3 ADD MSTORE PUSH1 0xD PUSH1 0x24 DUP3 ADD MSTORE PUSH13 0x696E707574206973207A65726F PUSH1 0x98 SHL PUSH1 0x44 DUP3 ADD MSTORE PUSH1 0x64 SWAP1 REVERT JUMPDEST CALLVALUE PUSH2 0x1F7 JUMPI PUSH1 0x0 CALLDATASIZE PUSH1 0x3 NOT ADD SLT PUSH2 0x1F7 JUMPI PUSH1 0x20 PUSH1 0x40 MLOAD PUSH1 0x0 DUP1 MLOAD PUSH1 0x20 PUSH2 0x1428 DUP4 CODECOPY DUP2 MLOAD SWAP2 MSTORE DUP2 MSTORE RETURN JUMPDEST CALLVALUE PUSH2 0x1F7 JUMPI PUSH1 0x20 CALLDATASIZE PUSH1 0x3 NOT ADD SLT PUSH2 0x1F7 JUMPI PUSH1 0x20 PUSH1 0xFF PUSH2 0x2ED PUSH2 0x499 PUSH2 0x281 JUMP JUMPDEST PUSH1 0x0 DUP1 MLOAD PUSH1 0x20 PUSH2 0x1428 DUP4 CODECOPY DUP2 MLOAD SWAP2 MSTORE PUSH1 0x0 MSTORE PUSH1 0x4 DUP5 MSTORE PUSH1 0x40 PUSH1 0x0 KECCAK256 PUSH2 0x6B4 JUMP JUMPDEST CALLVALUE PUSH2 0x1F7 JUMPI PUSH1 0x40 CALLDATASIZE PUSH1 0x3 NOT ADD SLT PUSH2 0x1F7 JUMPI PUSH1 0x4 CALLDATALOAD PUSH8 0xFFFFFFFFFFFFFFFF DUP1 DUP3 GT PUSH2 0x1F7 JUMPI CALLDATASIZE PUSH1 0x23 DUP4 ADD SLT ISZERO PUSH2 0x1F7 JUMPI DUP2 PUSH1 0x4 ADD CALLDATALOAD SWAP1 DUP2 GT PUSH2 0x1F7 JUMPI PUSH1 0x24 DUP3 ADD SWAP2 PUSH1 0x24 CALLDATASIZE SWAP2 DUP4 PUSH1 0x5 SHL ADD ADD GT PUSH2 0x1F7 JUMPI PUSH2 0x510 PUSH2 0x297 JUMP JUMPDEST SWAP2 PUSH2 0x51C PUSH2 0x3A5 PUSH2 0xF1B JUMP JUMPDEST DUP2 ISZERO PUSH2 0x5F7 JUMPI SWAP1 PUSH2 0x53E PUSH2 0x539 PUSH2 0x532 DUP6 PUSH2 0x69A JUMP JUMPDEST SLOAD PUSH1 0xFF AND SWAP1 JUMP JUMPDEST PUSH2 0xDA5 JUMP JUMPDEST PUSH1 0x1 PUSH1 0x1 PUSH1 0xA0 SHL SUB SWAP2 DUP4 DUP4 AND SWAP2 SWAP1 PUSH1 0x0 JUMPDEST DUP3 DUP2 LT PUSH2 0x558 JUMPI STOP JUMPDEST DUP1 PUSH2 0x593 DUP6 DUP8 PUSH2 0x58B PUSH2 0x57E PUSH2 0x579 PUSH2 0x574 PUSH1 0x1 SWAP9 DUP12 DUP12 PUSH2 0xDEC JUMP JUMPDEST PUSH2 0xE12 JUMP JUMPDEST PUSH2 0x63B JUMP JUMPDEST SLOAD PUSH1 0x1 PUSH1 0x1 PUSH1 0xA0 SHL SUB AND SWAP1 JUMP JUMPDEST AND EQ ISZERO PUSH2 0xE1F JUMP JUMPDEST PUSH2 0x5AD DUP8 PUSH2 0x5A8 PUSH2 0x579 PUSH2 0x574 DUP6 DUP10 DUP10 PUSH2 0xDEC JUMP JUMPDEST PUSH2 0xE6B JUMP JUMPDEST DUP5 PUSH2 0x5CC PUSH2 0x5BF PUSH2 0x574 DUP5 DUP9 DUP9 PUSH2 0xDEC JUMP JUMPDEST PUSH1 0x1 PUSH1 0x1 PUSH1 0xE0 SHL SUB NOT AND SWAP1 JUMP JUMPDEST PUSH32 0x14EBC1C32AA68F4D766E89F3E546CEE249F7DF25183FC10AB1568D91C2CE9B7B PUSH1 0x0 DUP1 LOG3 ADD PUSH2 0x54F JUMP JUMPDEST PUSH1 0x64 PUSH1 0x40 MLOAD PUSH3 0x461BCD PUSH1 0xE5 SHL DUP2 MSTORE PUSH1 0x20 PUSH1 0x4 DUP3 ADD MSTORE PUSH1 0x20 PUSH1 0x24 DUP3 ADD MSTORE PUSH32 0x50726F78793A205F73656C6563746F727327732073697A65206973207A65726F PUSH1 0x44 DUP3 ADD MSTORE REVERT JUMPDEST PUSH4 0xFFFFFFFF PUSH1 0xE0 SHL AND PUSH1 0x0 MSTORE PUSH1 0x3 PUSH1 0x20 MSTORE PUSH1 0x40 PUSH1 0x0 KECCAK256 SWAP1 JUMP JUMPDEST CALLVALUE PUSH2 0x1F7 JUMPI PUSH1 0x20 CALLDATASIZE PUSH1 0x3 NOT ADD SLT PUSH2 0x1F7 JUMPI PUSH1 0x4 CALLDATALOAD PUSH2 0x671 DUP2 PUSH2 0x1E5 JUMP JUMPDEST PUSH4 0xFFFFFFFF PUSH1 0xE0 SHL AND PUSH1 0x0 MSTORE PUSH1 0x3 PUSH1 0x20 MSTORE PUSH1 0x20 PUSH1 0x1 DUP1 PUSH1 0xA0 SHL SUB PUSH1 0x40 PUSH1 0x0 KECCAK256 SLOAD AND PUSH1 0x40 MLOAD SWAP1 DUP2 MSTORE RETURN JUMPDEST PUSH1 0x1 PUSH1 0x1 PUSH1 0xA0 SHL SUB AND PUSH1 0x0 SWAP1 DUP2 MSTORE PUSH1 0x2 PUSH1 0x20 MSTORE PUSH1 0x40 SWAP1 KECCAK256 SWAP1 JUMP JUMPDEST SWAP1 PUSH1 0x1 DUP1 PUSH1 0xA0 SHL SUB AND PUSH1 0x0 MSTORE PUSH1 0x20 MSTORE PUSH1 0x40 PUSH1 0x0 KECCAK256 SWAP1 JUMP JUMPDEST CALLVALUE PUSH2 0x1F7 JUMPI PUSH1 0x20 CALLDATASIZE PUSH1 0x3 NOT ADD SLT PUSH2 0x1F7 JUMPI PUSH1 0x1 PUSH1 0x1 PUSH1 0xA0 SHL SUB PUSH2 0x6EC PUSH2 0x281 JUMP JUMPDEST AND PUSH1 0x0 MSTORE PUSH1 0x2 PUSH1 0x20 MSTORE PUSH1 0x20 PUSH1 0xFF PUSH1 0x40 PUSH1 0x0 KECCAK256 SLOAD AND PUSH1 0x40 MLOAD SWAP1 ISZERO ISZERO DUP2 MSTORE RETURN JUMPDEST CALLVALUE PUSH2 0x1F7 JUMPI PUSH1 0x0 DUP1 PUSH1 0x3 NOT CALLDATASIZE ADD SLT PUSH2 0x73B JUMPI DUP1 DUP1 PUSH1 0x20 SWAP3 MSTORE PUSH1 0x1 DUP3 MSTORE PUSH1 0x40 PUSH1 0x1 DUP1 PUSH1 0xA0 SHL SUB SWAP2 KECCAK256 SLOAD AND PUSH1 0x40 MLOAD SWAP1 DUP2 MSTORE RETURN JUMPDEST DUP1 REVERT JUMPDEST CALLVALUE PUSH2 0x1F7 JUMPI PUSH1 0x40 CALLDATASIZE PUSH1 0x3 NOT ADD SLT PUSH2 0x1F7 JUMPI PUSH2 0x757 PUSH2 0x281 JUMP JUMPDEST PUSH1 0x24 CALLDATALOAD DUP1 ISZERO ISZERO DUP2 SUB PUSH2 0x1F7 JUMPI PUSH2 0x338 SWAP2 PUSH2 0x772 PUSH2 0x3A5 PUSH2 0xF1B JUMP JUMPDEST PUSH2 0x12D8 JUMP JUMPDEST CALLVALUE PUSH2 0x1F7 JUMPI PUSH1 0x0 CALLDATASIZE PUSH1 0x3 NOT ADD SLT PUSH2 0x1F7 JUMPI PUSH1 0x20 PUSH1 0xFF PUSH1 0x0 SLOAD AND PUSH1 0x40 MLOAD SWAP1 ISZERO ISZERO DUP2 MSTORE RETURN JUMPDEST CALLVALUE PUSH2 0x1F7 JUMPI PUSH1 0x20 CALLDATASIZE PUSH1 0x3 NOT ADD SLT PUSH2 0x1F7 JUMPI PUSH2 0x7B3 PUSH2 0x281 JUMP JUMPDEST PUSH1 0x0 DUP1 MLOAD PUSH1 0x20 PUSH2 0x1428 DUP4 CODECOPY DUP2 MLOAD SWAP2 MSTORE PUSH1 0x0 MSTORE PUSH1 0x4 PUSH1 0x20 MSTORE PUSH1 0xFF PUSH2 0x7E4 CALLER PUSH1 0x0 DUP1 MLOAD PUSH1 0x20 PUSH2 0x13C8 DUP4 CODECOPY DUP2 MLOAD SWAP2 MSTORE PUSH2 0x6B4 JUMP JUMPDEST SLOAD AND DUP1 ISZERO PUSH2 0x84C JUMPI JUMPDEST ISZERO PUSH2 0x7FB JUMPI PUSH2 0x338 SWAP1 PUSH2 0xCFC JUMP JUMPDEST PUSH1 0x40 MLOAD PUSH3 0x461BCD PUSH1 0xE5 SHL DUP2 MSTORE PUSH1 0x20 PUSH1 0x4 DUP3 ADD MSTORE PUSH1 0x23 PUSH1 0x24 DUP3 ADD MSTORE PUSH32 0x41757468436F6E74726F6C3A2043616C6C6572206973206E6F74206120706175 PUSH1 0x44 DUP3 ADD MSTORE PUSH3 0x39B2B9 PUSH1 0xE9 SHL PUSH1 0x64 DUP3 ADD MSTORE PUSH1 0x84 SWAP1 REVERT JUMPDEST POP PUSH2 0x855 PUSH2 0xF1B JUMP JUMPDEST PUSH2 0x7ED JUMP JUMPDEST CALLVALUE PUSH2 0x1F7 JUMPI PUSH1 0x20 CALLDATASIZE PUSH1 0x3 NOT ADD SLT PUSH2 0x1F7 JUMPI PUSH2 0x338 PUSH2 0x876 PUSH2 0x281 JUMP JUMPDEST PUSH2 0x881 PUSH2 0x3A5 PUSH2 0xF1B JUMP JUMPDEST PUSH1 0x0 DUP1 MLOAD PUSH1 0x20 PUSH2 0x1448 DUP4 CODECOPY DUP2 MLOAD SWAP2 MSTORE PUSH1 0x0 MSTORE PUSH1 0x4 PUSH1 0x20 MSTORE PUSH32 0x2FB794D17134DFDEC181DDBAC1BABB5AB1EB140204EF4D982F294E7FC8B69023 SLOAD PUSH2 0x8C3 SWAP1 PUSH2 0xF3E JUMP JUMPDEST PUSH2 0xF7F JUMP JUMPDEST CALLVALUE PUSH2 0x1F7 JUMPI PUSH1 0x0 CALLDATASIZE PUSH1 0x3 NOT ADD SLT PUSH2 0x1F7 JUMPI PUSH1 0x20 PUSH1 0x40 MLOAD PUSH1 0x0 DUP1 MLOAD PUSH1 0x20 PUSH2 0x1448 DUP4 CODECOPY DUP2 MLOAD SWAP2 MSTORE DUP2 MSTORE RETURN JUMPDEST CALLVALUE PUSH2 0x1F7 JUMPI PUSH1 0x20 CALLDATASIZE PUSH1 0x3 NOT ADD SLT PUSH2 0x1F7 JUMPI PUSH1 0x4 CALLDATALOAD DUP1 ISZERO ISZERO DUP1 SWAP2 SUB PUSH2 0x1F7 JUMPI PUSH2 0x91A PUSH2 0x3A5 PUSH2 0xF1B JUMP JUMPDEST PUSH1 0xFF DUP1 NOT PUSH1 0x0 SLOAD AND SWAP2 AND OR PUSH1 0x0 SSTORE PUSH1 0x0 DUP1 RETURN JUMPDEST CALLVALUE PUSH2 0x1F7 JUMPI PUSH1 0x60 CALLDATASIZE PUSH1 0x3 NOT ADD SLT PUSH2 0x1F7 JUMPI PUSH2 0x946 PUSH2 0x281 JUMP JUMPDEST PUSH1 0x44 CALLDATALOAD DUP1 ISZERO ISZERO DUP2 SUB PUSH2 0x1F7 JUMPI PUSH2 0x95D PUSH2 0x3A5 PUSH2 0xF1B JUMP JUMPDEST DUP2 EXTCODESIZE ISZERO PUSH2 0x987 JUMPI PUSH2 0x338 SWAP2 DUP2 ISZERO PUSH2 0x12D8 JUMPI PUSH1 0x24 CALLDATALOAD PUSH1 0x0 MSTORE PUSH1 0x1 PUSH1 0x20 MSTORE PUSH2 0x772 DUP2 PUSH1 0x40 PUSH1 0x0 KECCAK256 PUSH2 0xE6B JUMP JUMPDEST PUSH1 0x40 MLOAD PUSH3 0x461BCD PUSH1 0xE5 SHL DUP2 MSTORE PUSH1 0x20 PUSH1 0x4 DUP3 ADD MSTORE PUSH1 0x1B PUSH1 0x24 DUP3 ADD MSTORE PUSH27 0x50726F78793A206E6F7420636F6E74726163742061646472657373 PUSH1 0x28 SHL PUSH1 0x44 DUP3 ADD MSTORE PUSH1 0x64 SWAP1 REVERT JUMPDEST CALLVALUE PUSH2 0x1F7 JUMPI PUSH1 0x20 CALLDATASIZE PUSH1 0x3 NOT ADD SLT PUSH2 0x1F7 JUMPI PUSH2 0x338 PUSH2 0x9E6 PUSH2 0x281 JUMP JUMPDEST PUSH2 0x9F1 PUSH2 0x3A5 PUSH2 0xF1B JUMP JUMPDEST PUSH1 0x0 DUP1 MLOAD PUSH1 0x20 PUSH2 0x1428 DUP4 CODECOPY DUP2 MLOAD SWAP2 MSTORE PUSH1 0x0 MSTORE PUSH1 0x4 PUSH1 0x20 MSTORE PUSH32 0x2ED987AB732D519C59D4A2F2F586B9CA6AF9F18905FA2093ACEEB8D462FFC843 SLOAD PUSH2 0xA33 SWAP1 PUSH2 0xF3E JUMP JUMPDEST PUSH2 0x1026 JUMP JUMPDEST CALLVALUE PUSH2 0x1F7 JUMPI PUSH1 0x20 CALLDATASIZE PUSH1 0x3 NOT ADD SLT PUSH2 0x1F7 JUMPI PUSH1 0x4 CALLDATALOAD PUSH1 0x0 MSTORE PUSH1 0x1 PUSH1 0x20 MSTORE PUSH1 0x20 PUSH1 0x1 DUP1 PUSH1 0xA0 SHL SUB PUSH1 0x40 PUSH1 0x0 KECCAK256 SLOAD AND PUSH1 0x40 MLOAD SWAP1 DUP2 MSTORE RETURN JUMPDEST CALLVALUE PUSH2 0x1F7 JUMPI PUSH1 0x20 CALLDATASIZE PUSH1 0x3 NOT ADD SLT PUSH2 0x1F7 JUMPI PUSH1 0x20 PUSH2 0xA93 PUSH1 0x4 CALLDATALOAD PUSH2 0xA8E DUP2 PUSH2 0x1E5 JUMP JUMPDEST PUSH2 0xE8A JUMP JUMPDEST PUSH1 0x40 MLOAD PUSH1 0x1 PUSH1 0x1 PUSH1 0xA0 SHL SUB SWAP1 SWAP2 AND DUP2 MSTORE RETURN JUMPDEST CALLVALUE PUSH2 0x1F7 JUMPI PUSH1 0x0 CALLDATASIZE PUSH1 0x3 NOT ADD SLT PUSH2 0x1F7 JUMPI PUSH1 0x20 PUSH2 0xAC0 PUSH2 0xF1B JUMP JUMPDEST PUSH1 0x40 MLOAD SWAP1 ISZERO ISZERO DUP2 MSTORE RETURN JUMPDEST CALLVALUE PUSH2 0x1F7 JUMPI PUSH1 0x40 CALLDATASIZE PUSH1 0x3 NOT ADD SLT PUSH2 0x1F7 JUMPI PUSH1 0x20 PUSH1 0xFF PUSH2 0x2ED PUSH2 0xAEA PUSH2 0x297 JUMP JUMPDEST PUSH1 0x4 CALLDATALOAD PUSH1 0x0 MSTORE PUSH1 0x4 DUP5 MSTORE PUSH1 0x40 PUSH1 0x0 KECCAK256 PUSH2 0x6B4 JUMP JUMPDEST CALLVALUE PUSH2 0x1F7 JUMPI PUSH1 0x0 DUP1 PUSH1 0x3 NOT CALLDATASIZE ADD SLT PUSH2 0x73B JUMPI PUSH1 0x0 DUP1 MLOAD PUSH1 0x20 PUSH2 0x1448 DUP4 CODECOPY DUP2 MLOAD SWAP2 MSTORE DUP2 MSTORE PUSH1 0x4 PUSH1 0x20 MSTORE PUSH1 0xFF PUSH2 0xB35 CALLER PUSH1 0x40 DUP5 KECCAK256 PUSH2 0x6B4 JUMP JUMPDEST SLOAD AND ISZERO PUSH2 0xB48 JUMPI PUSH2 0xB45 CALLER PUSH2 0xCC7 JUMP JUMPDEST DUP1 RETURN JUMPDEST PUSH1 0x40 MLOAD PUSH3 0x461BCD PUSH1 0xE5 SHL DUP2 MSTORE PUSH1 0x20 PUSH1 0x4 DUP3 ADD MSTORE PUSH1 0x23 PUSH1 0x24 DUP3 ADD MSTORE PUSH32 0x41757468436F6E74726F6C3A2043616C6C6572206973206E6F7420616E206164 PUSH1 0x44 DUP3 ADD MSTORE PUSH3 0x36B4B7 PUSH1 0xE9 SHL PUSH1 0x64 DUP3 ADD MSTORE PUSH1 0x84 SWAP1 REVERT JUMPDEST CALLVALUE PUSH2 0x1F7 JUMPI PUSH1 0x0 CALLDATASIZE PUSH1 0x3 NOT ADD SLT PUSH2 0x1F7 JUMPI PUSH1 0x20 PUSH1 0x40 MLOAD PUSH1 0x0 DUP2 MSTORE RETURN JUMPDEST CALLVALUE PUSH2 0x1F7 JUMPI PUSH1 0x40 CALLDATASIZE PUSH1 0x3 NOT ADD SLT PUSH2 0x1F7 JUMPI PUSH2 0x338 PUSH1 0x4 CALLDATALOAD PUSH2 0xBD4 PUSH2 0x297 JUMP JUMPDEST SWAP1 DUP1 PUSH1 0x0 MSTORE PUSH1 0x4 PUSH1 0x20 MSTORE PUSH2 0xBEF PUSH1 0x1 PUSH1 0x40 PUSH1 0x0 KECCAK256 ADD SLOAD PUSH2 0xF3E JUMP JUMPDEST PUSH2 0x1248 JUMP JUMPDEST CALLVALUE PUSH2 0x1F7 JUMPI PUSH1 0x20 CALLDATASIZE PUSH1 0x3 NOT ADD SLT PUSH2 0x1F7 JUMPI PUSH2 0xC0D PUSH2 0x281 JUMP JUMPDEST PUSH2 0xC18 PUSH2 0x3A5 PUSH2 0xF1B JUMP JUMPDEST PUSH1 0x1 PUSH1 0x1 PUSH1 0xA0 SHL SUB DUP2 AND DUP1 ISZERO PUSH2 0xCB5 JUMPI CALLER EQ PUSH2 0xCA3 JUMPI PUSH1 0x0 DUP1 DUP1 MSTORE PUSH1 0x4 PUSH1 0x20 MSTORE PUSH32 0x17EF568E3E12AB5B9C7254A8D58478811DE00F9E6EB34345ACD53BF8FD09D3ED SLOAD SWAP1 SWAP2 PUSH2 0xC99 SWAP2 PUSH2 0xC69 SWAP1 PUSH2 0xF3E JUMP JUMPDEST PUSH2 0xC72 DUP2 PUSH2 0x105A JUMP JUMPDEST POP PUSH1 0x0 DUP1 MLOAD PUSH1 0x20 PUSH2 0x1448 DUP4 CODECOPY DUP2 MLOAD SWAP2 MSTORE DUP4 MSTORE PUSH1 0x4 PUSH1 0x20 MSTORE PUSH2 0x8C3 PUSH1 0x1 PUSH1 0x40 DUP6 KECCAK256 ADD SLOAD PUSH2 0xF3E JUMP JUMPDEST POP PUSH2 0xB45 CALLER PUSH2 0xCE3 JUMP JUMPDEST PUSH1 0x40 MLOAD PUSH4 0xA98F1F3 PUSH1 0xE2 SHL DUP2 MSTORE PUSH1 0x4 SWAP1 REVERT JUMPDEST PUSH1 0x40 MLOAD PUSH4 0xD92E233D PUSH1 0xE0 SHL DUP2 MSTORE PUSH1 0x4 SWAP1 REVERT JUMPDEST CALLER PUSH1 0x1 PUSH1 0x1 PUSH1 0xA0 SHL SUB DUP3 AND SUB PUSH2 0x36F JUMPI PUSH2 0xCE0 SWAP1 PUSH2 0x10F8 JUMP JUMPDEST POP JUMP JUMPDEST CALLER PUSH1 0x1 PUSH1 0x1 PUSH1 0xA0 SHL SUB DUP3 AND SUB PUSH2 0x36F JUMPI PUSH2 0xCE0 SWAP1 PUSH2 0x1197 JUMP JUMPDEST CALLER PUSH1 0x1 PUSH1 0x1 PUSH1 0xA0 SHL SUB DUP3 AND SUB PUSH2 0x36F JUMPI PUSH2 0xCE0 SWAP1 PUSH2 0x1214 JUMP JUMPDEST ISZERO PUSH2 0xD1C JUMPI JUMP JUMPDEST PUSH1 0x40 MLOAD PUSH3 0x461BCD PUSH1 0xE5 SHL DUP2 MSTORE PUSH1 0x20 PUSH1 0x4 DUP3 ADD MSTORE PUSH1 0x24 DUP1 DUP3 ADD MSTORE PUSH32 0x41757468436F6E74726F6C3A2043616C6C6572206973206E6F7420746865206F PUSH1 0x44 DUP3 ADD MSTORE PUSH4 0x3BB732B9 PUSH1 0xE1 SHL PUSH1 0x64 DUP3 ADD MSTORE PUSH1 0x84 SWAP1 REVERT JUMPDEST ISZERO PUSH2 0xD74 JUMPI JUMP JUMPDEST PUSH1 0x40 MLOAD PUSH3 0x461BCD PUSH1 0xE5 SHL DUP2 MSTORE PUSH1 0x20 PUSH1 0x4 DUP3 ADD MSTORE PUSH1 0x9 PUSH1 0x24 DUP3 ADD MSTORE PUSH9 0x39B0B6B29030B23239 PUSH1 0xB9 SHL PUSH1 0x44 DUP3 ADD MSTORE PUSH1 0x64 SWAP1 REVERT JUMPDEST ISZERO PUSH2 0xDAC JUMPI JUMP JUMPDEST PUSH1 0x40 MLOAD PUSH3 0x461BCD PUSH1 0xE5 SHL DUP2 MSTORE PUSH1 0x20 PUSH1 0x4 DUP3 ADD MSTORE PUSH1 0x18 PUSH1 0x24 DUP3 ADD MSTORE PUSH24 0x50726F78793A205F696D70206973206E6F7420616C697665 PUSH1 0x40 SHL PUSH1 0x44 DUP3 ADD MSTORE PUSH1 0x64 SWAP1 REVERT JUMPDEST SWAP2 SWAP1 DUP2 LT ISZERO PUSH2 0xDFC JUMPI PUSH1 0x5 SHL ADD SWAP1 JUMP JUMPDEST PUSH4 0x4E487B71 PUSH1 0xE0 SHL PUSH1 0x0 MSTORE PUSH1 0x32 PUSH1 0x4 MSTORE PUSH1 0x24 PUSH1 0x0 REVERT JUMPDEST CALLDATALOAD PUSH2 0xE1C DUP2 PUSH2 0x1E5 JUMP JUMPDEST SWAP1 JUMP JUMPDEST ISZERO PUSH2 0xE26 JUMPI JUMP JUMPDEST PUSH1 0x40 MLOAD PUSH3 0x461BCD PUSH1 0xE5 SHL DUP2 MSTORE PUSH1 0x20 PUSH1 0x4 DUP3 ADD MSTORE PUSH1 0x1D PUSH1 0x24 DUP3 ADD MSTORE PUSH32 0x4C69717569646974795661756C7450726F78793A2073616D6520696D70000000 PUSH1 0x44 DUP3 ADD MSTORE PUSH1 0x64 SWAP1 REVERT JUMPDEST DUP1 SLOAD PUSH1 0x1 PUSH1 0x1 PUSH1 0xA0 SHL SUB NOT AND PUSH1 0x1 PUSH1 0x1 PUSH1 0xA0 SHL SUB SWAP1 SWAP3 AND SWAP2 SWAP1 SWAP2 OR SWAP1 SSTORE JUMP JUMPDEST PUSH1 0x1 PUSH1 0x1 PUSH1 0xE0 SHL SUB NOT DUP2 AND PUSH1 0x0 SWAP1 DUP2 MSTORE PUSH1 0x3 PUSH1 0x20 MSTORE PUSH1 0x40 SWAP1 KECCAK256 SLOAD PUSH1 0x1 PUSH1 0x1 PUSH1 0xA0 SHL SUB SWAP2 SWAP1 DUP3 AND PUSH2 0xED7 JUMPI POP PUSH1 0x0 DUP1 MSTORE PUSH1 0x1 PUSH1 0x20 MSTORE PUSH1 0x0 DUP1 MLOAD PUSH1 0x20 PUSH2 0x13E8 DUP4 CODECOPY DUP2 MLOAD SWAP2 MSTORE SLOAD AND SWAP1 JUMP JUMPDEST SLOAD AND SWAP1 JUMP JUMPDEST PUSH1 0xFF PUSH2 0xEED DUP4 PUSH2 0xEE6 DUP5 PUSH2 0x63B JUMP JUMPDEST SLOAD AND PUSH2 0x69A JUMP JUMPDEST SLOAD AND ISZERO PUSH2 0xEFD JUMPI PUSH2 0xED2 SWAP1 PUSH2 0x63B JUMP JUMPDEST POP PUSH1 0x0 DUP1 MSTORE PUSH1 0x1 PUSH1 0x20 MSTORE PUSH1 0x0 DUP1 MLOAD PUSH1 0x20 PUSH2 0x13E8 DUP4 CODECOPY DUP2 MLOAD SWAP2 MSTORE SLOAD AND SWAP1 JUMP JUMPDEST PUSH1 0x0 DUP1 MSTORE PUSH1 0x4 PUSH1 0x20 MSTORE PUSH1 0xFF PUSH2 0xED2 CALLER PUSH1 0x0 DUP1 MLOAD PUSH1 0x20 PUSH2 0x1408 DUP4 CODECOPY DUP2 MLOAD SWAP2 MSTORE PUSH2 0x6B4 JUMP JUMPDEST DUP1 PUSH1 0x0 MSTORE PUSH1 0x4 PUSH1 0x20 MSTORE PUSH1 0xFF PUSH2 0xF57 CALLER PUSH1 0x40 PUSH1 0x0 KECCAK256 PUSH2 0x6B4 JUMP JUMPDEST SLOAD AND ISZERO PUSH2 0xF61 JUMPI POP JUMP JUMPDEST PUSH1 0x44 SWAP1 PUSH1 0x40 MLOAD SWAP1 PUSH4 0xE2517D3F PUSH1 0xE0 SHL DUP3 MSTORE CALLER PUSH1 0x4 DUP4 ADD MSTORE PUSH1 0x24 DUP3 ADD MSTORE REVERT JUMPDEST PUSH1 0x0 DUP1 MLOAD PUSH1 0x20 PUSH2 0x1448 DUP4 CODECOPY DUP2 MLOAD SWAP2 MSTORE PUSH1 0x0 DUP2 DUP2 MSTORE PUSH1 0x4 PUSH1 0x20 MSTORE SWAP1 PUSH1 0xFF PUSH2 0xFC5 DUP5 PUSH32 0x2FB794D17134DFDEC181DDBAC1BABB5AB1EB140204EF4D982F294E7FC8B69022 PUSH2 0x6B4 JUMP JUMPDEST SLOAD AND PUSH2 0x1020 JUMPI DUP1 DUP3 MSTORE PUSH1 0x4 PUSH1 0x20 MSTORE PUSH2 0xFE0 DUP4 PUSH1 0x40 DUP5 KECCAK256 PUSH2 0x6B4 JUMP JUMPDEST DUP1 SLOAD PUSH1 0xFF NOT AND PUSH1 0x1 OR SWAP1 SSTORE CALLER SWAP3 PUSH1 0x1 PUSH1 0x1 PUSH1 0xA0 SHL SUB AND SWAP2 PUSH32 0x2F8788117E7EFF1D82E926EC794901D17C78024A50270940304540A733656F0D SWAP1 DUP1 LOG4 PUSH1 0x1 SWAP1 JUMP JUMPDEST POP SWAP1 POP SWAP1 JUMP JUMPDEST PUSH1 0x0 DUP1 MLOAD PUSH1 0x20 PUSH2 0x1428 DUP4 CODECOPY DUP2 MLOAD SWAP2 MSTORE PUSH1 0x0 DUP2 DUP2 MSTORE PUSH1 0x4 PUSH1 0x20 MSTORE SWAP1 PUSH1 0xFF PUSH2 0xFC5 DUP5 PUSH1 0x0 DUP1 MLOAD PUSH1 0x20 PUSH2 0x13C8 DUP4 CODECOPY DUP2 MLOAD SWAP2 MSTORE PUSH2 0x6B4 JUMP JUMPDEST PUSH1 0x0 DUP1 DUP1 MSTORE PUSH1 0x4 PUSH1 0x20 MSTORE PUSH1 0xFF PUSH2 0x107E DUP4 PUSH1 0x0 DUP1 MLOAD PUSH1 0x20 PUSH2 0x1408 DUP4 CODECOPY DUP2 MLOAD SWAP2 MSTORE PUSH2 0x6B4 JUMP JUMPDEST SLOAD AND PUSH2 0x10D9 JUMPI DUP1 DUP1 MSTORE PUSH1 0x4 PUSH1 0x20 MSTORE PUSH2 0x1099 DUP3 PUSH1 0x40 DUP4 KECCAK256 PUSH2 0x6B4 JUMP JUMPDEST DUP1 SLOAD PUSH1 0xFF NOT AND PUSH1 0x1 OR SWAP1 SSTORE CALLER SWAP2 PUSH1 0x1 PUSH1 0x1 PUSH1 0xA0 SHL SUB AND SWAP1 PUSH32 0x2F8788117E7EFF1D82E926EC794901D17C78024A50270940304540A733656F0D DUP2 DUP1 LOG4 PUSH1 0x1 SWAP1 JUMP JUMPDEST SWAP1 POP SWAP1 JUMP JUMPDEST PUSH1 0x0 SWAP1 DUP1 DUP3 MSTORE PUSH1 0x4 PUSH1 0x20 MSTORE PUSH1 0xFF PUSH2 0xFC5 DUP5 PUSH1 0x40 DUP6 KECCAK256 PUSH2 0x6B4 JUMP JUMPDEST PUSH1 0x0 DUP1 MLOAD PUSH1 0x20 PUSH2 0x1448 DUP4 CODECOPY DUP2 MLOAD SWAP2 MSTORE PUSH1 0x0 DUP2 DUP2 MSTORE PUSH1 0x4 PUSH1 0x20 MSTORE SWAP1 PUSH1 0xFF PUSH2 0x113E DUP5 PUSH32 0x2FB794D17134DFDEC181DDBAC1BABB5AB1EB140204EF4D982F294E7FC8B69022 PUSH2 0x6B4 JUMP JUMPDEST SLOAD AND ISZERO PUSH2 0x1020 JUMPI DUP1 DUP3 MSTORE PUSH1 0x4 PUSH1 0x20 MSTORE PUSH2 0x115A DUP4 PUSH1 0x40 DUP5 KECCAK256 PUSH2 0x6B4 JUMP JUMPDEST DUP1 SLOAD PUSH1 0xFF NOT AND SWAP1 SSTORE CALLER SWAP3 PUSH1 0x1 PUSH1 0x1 PUSH1 0xA0 SHL SUB AND SWAP2 PUSH32 0xF6391F5C32D9C69D2A47EA670B442974B53935D1EDC7FD64EB21E047A839171B SWAP1 DUP1 LOG4 PUSH1 0x1 SWAP1 JUMP JUMPDEST PUSH1 0x0 DUP1 DUP1 MSTORE PUSH1 0x4 PUSH1 0x20 MSTORE PUSH1 0xFF PUSH2 0x11BB DUP4 PUSH1 0x0 DUP1 MLOAD PUSH1 0x20 PUSH2 0x1408 DUP4 CODECOPY DUP2 MLOAD SWAP2 MSTORE PUSH2 0x6B4 JUMP JUMPDEST SLOAD AND ISZERO PUSH2 0x10D9 JUMPI DUP1 DUP1 MSTORE PUSH1 0x4 PUSH1 0x20 MSTORE PUSH2 0x11D7 DUP3 PUSH1 0x40 DUP4 KECCAK256 PUSH2 0x6B4 JUMP JUMPDEST DUP1 SLOAD PUSH1 0xFF NOT AND SWAP1 SSTORE CALLER SWAP2 PUSH1 0x1 PUSH1 0x1 PUSH1 0xA0 SHL SUB AND SWAP1 PUSH32 0xF6391F5C32D9C69D2A47EA670B442974B53935D1EDC7FD64EB21E047A839171B DUP2 DUP1 LOG4 PUSH1 0x1 SWAP1 JUMP JUMPDEST PUSH1 0x0 DUP1 MLOAD PUSH1 0x20 PUSH2 0x1428 DUP4 CODECOPY DUP2 MLOAD SWAP2 MSTORE PUSH1 0x0 DUP2 DUP2 MSTORE PUSH1 0x4 PUSH1 0x20 MSTORE SWAP1 PUSH1 0xFF PUSH2 0x113E DUP5 PUSH1 0x0 DUP1 MLOAD PUSH1 0x20 PUSH2 0x13C8 DUP4 CODECOPY DUP2 MLOAD SWAP2 MSTORE PUSH2 0x6B4 JUMP JUMPDEST PUSH1 0x0 SWAP1 DUP1 DUP3 MSTORE PUSH1 0x4 PUSH1 0x20 MSTORE PUSH1 0xFF PUSH2 0x113E DUP5 PUSH1 0x40 DUP6 KECCAK256 PUSH2 0x6B4 JUMP JUMPDEST DUP1 EXTCODESIZE ISZERO PUSH2 0x987 JUMPI PUSH1 0x0 DUP1 MSTORE PUSH1 0x1 PUSH1 0x20 MSTORE PUSH2 0x128A DUP2 PUSH1 0x0 DUP1 MLOAD PUSH1 0x20 PUSH2 0x13E8 DUP4 CODECOPY DUP2 MLOAD SWAP2 MSTORE PUSH2 0xE6B JUMP JUMPDEST PUSH1 0x1 DUP1 PUSH1 0xA0 SHL SUB AND DUP1 PUSH1 0x0 MSTORE PUSH1 0x2 PUSH1 0x20 MSTORE PUSH1 0x40 PUSH1 0x0 KECCAK256 PUSH1 0x1 PUSH1 0xFF NOT DUP3 SLOAD AND OR SWAP1 SSTORE PUSH32 0x72558D9BFBA4210F9EF095C782589484151F6D90F7A81BB3CB9B33EFC695D324 PUSH1 0x20 PUSH1 0x40 MLOAD PUSH1 0x1 DUP2 MSTORE LOG2 JUMP JUMPDEST PUSH1 0x20 PUSH32 0x72558D9BFBA4210F9EF095C782589484151F6D90F7A81BB3CB9B33EFC695D324 SWAP2 PUSH1 0x1 DUP1 PUSH1 0xA0 SHL SUB AND SWAP3 DUP4 PUSH1 0x0 MSTORE PUSH1 0x2 DUP3 MSTORE PUSH1 0x40 PUSH1 0x0 KECCAK256 SWAP1 ISZERO ISZERO SWAP1 PUSH1 0xFF NOT DUP2 SLOAD AND PUSH1 0xFF DUP4 AND OR SWAP1 SSTORE PUSH1 0x40 MLOAD SWAP1 DUP2 MSTORE LOG2 JUMP JUMPDEST PUSH1 0x0 PUSH2 0x1342 DUP2 CALLDATALOAD PUSH1 0x1 PUSH1 0x1 PUSH1 0xE0 SHL SUB NOT AND PUSH2 0xE8A JUMP JUMPDEST PUSH1 0x1 PUSH1 0x1 PUSH1 0xA0 SHL SUB DUP2 AND ISZERO ISZERO DUP1 PUSH2 0x13BB JUMPI JUMPDEST ISZERO PUSH2 0x1376 JUMPI DUP2 DUP1 SWAP2 CALLDATASIZE DUP3 DUP1 CALLDATACOPY DUP2 CALLDATASIZE SWAP2 GAS DELEGATECALL RETURNDATASIZE DUP3 DUP1 RETURNDATACOPY ISZERO PUSH2 0x1372 JUMPI RETURNDATASIZE SWAP1 RETURN JUMPDEST RETURNDATASIZE SWAP1 REVERT JUMPDEST PUSH1 0x40 MLOAD PUSH3 0x461BCD PUSH1 0xE5 SHL DUP2 MSTORE PUSH1 0x20 PUSH1 0x4 DUP3 ADD MSTORE PUSH1 0x1D PUSH1 0x24 DUP3 ADD MSTORE PUSH32 0x50726F78793A20696D706C204F522070726F78792069732066616C7365000000 PUSH1 0x44 DUP3 ADD MSTORE PUSH1 0x64 SWAP1 REVERT JUMPDEST POP PUSH1 0xFF DUP3 SLOAD AND ISZERO PUSH2 0x1354 JUMP INVALID 0x2E 0xD9 DUP8 0xAB PUSH20 0x2D519C59D4A2F2F586B9CA6AF9F18905FA2093AC 0xEE 0xB8 0xD4 PUSH3 0xFFC842 0xA6 0xEE 0xF7 0xE3 GAS 0xBE PUSH17 0x26729641147F7915573C7E97B47EFA546F PUSH0 PUSH15 0x3230263BCB4917EF568E3E12AB5B9C PUSH19 0x54A8D58478811DE00F9E6EB34345ACD53BF8FD MULMOD 0xD3 0xEC 0xFC 0xB9 0xFC 0xBF 0xA8 EXTCODESIZE DUP10 PUSH32 0xB2D5CF4B58962164105C1E71489A37EF3AE0DB3FDCE576F6DF8B4C520FFE197C MSTORE8 NUMBER 0xC6 CREATE2 0xAE 0xC5 SWAP6 PUSH17 0x151EF9A492F2C624FD45DDDE6135EC42A2 PUSH5 0x6970667358 0x22 SLT KECCAK256 0xC1 BLOBHASH TLOAD 0xC1 SAR GASPRICE MOD 0xDE 0x2C JUMP PUSH29 0xC44D6541759B4F14506F6D273420981788C5E3490F64736F6C63430008 NOT STOP CALLER 0x2F DUP8 DUP9 GT PUSH31 0x7EFF1D82E926EC794901D17C78024A50270940304540A733656F0D17EF568E RETURNDATACOPY SLT 0xAB JUMPDEST SWAP13 PUSH19 0x54A8D58478811DE00F9E6EB34345ACD53BF8FD MULMOD 0xD3 0xEC 0xFC 0xB9 0xFC 0xBF 0xA8 EXTCODESIZE DUP10 PUSH32 0xB2D5CF4B58962164105C1E71489A37EF3AE0DB3FDCE576F6DF8B4C520FFE197C MSTORE8 NUMBER 0xC6 CREATE2 0xAE 0xC5 SWAP6 PUSH17 0x151EF9A492F2C624FD45DDDE6135EC42F6 CODECOPY 0x1F TLOAD ORIGIN 0xD9 0xC6 SWAP14 0x2A SELFBALANCE 0xEA PUSH8 0xB442974B53935D1 0xED 0xC7 REVERT PUSH5 0xEB21E047A8 CODECOPY OR SHL LOG2 PUSH5 0x6970667358 0x22 SLT KECCAK256 0xED 0x25 SWAP11 SWAP11 SWAP12 0xE2 0xE2 JUMPI PUSH13 0x51C4B3B99563022493822EAD36 DUP1 PUSH17 0x7461E3DED43854FE64736F6C6343000819 STOP CALLER "},"methodIdentifiers":{"ADMIN_ROLE()":"75b238fc","DEFAULT_ADMIN_ROLE()":"a217fddf","PAUSE_ROLE()":"389ed267","addAdmin(address)":"70480275","addPauser(address)":"82dc1ec4","aliveImplementation(address)":"550d01a3","createWSTONToken(address,address,address,uint256,uint8,string,string)":"c4bdcb33","getRoleAdmin(bytes32)":"248a9ca3","grantRole(bytes32,address)":"2f2ff15d","hasRole(bytes32,address)":"91d14854","initialize(address,address)":"485cc955","isAdmin(address)":"24d7806c","isOwner()":"8f32d59b","isPauser(address)":"46fbf68e","l1ton()":"15a327d3","l1wton()":"d21bae66","pauseProxy()":"63a8fd89","proxyImplementation(uint256)":"b911135f","removeAdmin()":"9a202d47","removePauser(address)":"6b2c0f55","renounceRole(bytes32,address)":"36568abe","revokeRole(bytes32,address)":"d547741f","selectorImplementation(bytes4)":"50d2a276","setWstonImplementation(address)":"81baed05","supportsInterface(bytes4)":"01ffc9a7","transferOwnership(address)":"f2fde38b","upgradeWstonTo(address,address)":"8bd49a4f","wstonImplementation()":"1d03a009"}}}}}