{"src/L1/L1WrappedStakedTON.sol":{"L1WrappedStakedTON":{"abi":[{"inputs":[{"internalType":"address","name":"target","type":"address"}],"name":"AddressEmptyCode","type":"error"},{"inputs":[{"internalType":"address","name":"account","type":"address"}],"name":"AddressInsufficientBalance","type":"error"},{"inputs":[],"name":"ApproveAndCallFailed","type":"error"},{"inputs":[],"name":"ClaimWithdrawalFailed","type":"error"},{"inputs":[],"name":"ContractNotPaused","type":"error"},{"inputs":[],"name":"ContractPaused","type":"error"},{"inputs":[],"name":"DepositFailed","type":"error"},{"inputs":[{"internalType":"address","name":"spender","type":"address"},{"internalType":"uint256","name":"allowance","type":"uint256"},{"internalType":"uint256","name":"needed","type":"uint256"}],"name":"ERC20InsufficientAllowance","type":"error"},{"inputs":[{"internalType":"address","name":"sender","type":"address"},{"internalType":"uint256","name":"balance","type":"uint256"},{"internalType":"uint256","name":"needed","type":"uint256"}],"name":"ERC20InsufficientBalance","type":"error"},{"inputs":[{"internalType":"address","name":"approver","type":"address"}],"name":"ERC20InvalidApprover","type":"error"},{"inputs":[{"internalType":"address","name":"receiver","type":"address"}],"name":"ERC20InvalidReceiver","type":"error"},{"inputs":[{"internalType":"address","name":"sender","type":"address"}],"name":"ERC20InvalidSender","type":"error"},{"inputs":[{"internalType":"address","name":"spender","type":"address"}],"name":"ERC20InvalidSpender","type":"error"},{"inputs":[],"name":"FailedInnerCall","type":"error"},{"inputs":[{"internalType":"uint256","name":"amount","type":"uint256"}],"name":"FailedToSwapFromTONToWTON","type":"error"},{"inputs":[],"name":"InvalidCaller","type":"error"},{"inputs":[],"name":"InvalidInitialization","type":"error"},{"inputs":[],"name":"InvalidOnApproveData","type":"error"},{"inputs":[],"name":"InvalidToOrAmount","type":"error"},{"inputs":[],"name":"MaximumNumberOfWithdrawalsReached","type":"error"},{"inputs":[],"name":"MinimalWithdrawalAmount","type":"error"},{"inputs":[{"internalType":"address","name":"requestor","type":"address"}],"name":"NoClaimableAmount","type":"error"},{"inputs":[],"name":"NoRequestToProcess","type":"error"},{"inputs":[],"name":"NotEnoughFunds","type":"error"},{"inputs":[],"name":"NotInitializing","type":"error"},{"inputs":[{"internalType":"address","name":"owner","type":"address"}],"name":"OwnableInvalidOwner","type":"error"},{"inputs":[{"internalType":"address","name":"account","type":"address"}],"name":"OwnableUnauthorizedAccount","type":"error"},{"inputs":[],"name":"ProcessRequestFailed","type":"error"},{"inputs":[],"name":"ReentrancyGuardReentrantCall","type":"error"},{"inputs":[],"name":"RequestAlreadyProcessed","type":"error"},{"inputs":[{"internalType":"address","name":"token","type":"address"}],"name":"SafeERC20FailedOperation","type":"error"},{"inputs":[],"name":"SeigniorageUpdateFailed","type":"error"},{"inputs":[],"name":"WithdrawalDelayNotElapsed","type":"error"},{"inputs":[],"name":"WithdrawalRequestFailed","type":"error"},{"inputs":[],"name":"WrontAmount","type":"error"},{"anonymous":false,"inputs":[{"indexed":true,"internalType":"address","name":"owner","type":"address"},{"indexed":true,"internalType":"address","name":"spender","type":"address"},{"indexed":false,"internalType":"uint256","name":"value","type":"uint256"}],"name":"Approval","type":"event"},{"anonymous":false,"inputs":[{"indexed":true,"internalType":"address","name":"owner","type":"address"},{"indexed":true,"internalType":"address","name":"spender","type":"address"},{"indexed":false,"internalType":"uint256","name":"value","type":"uint256"}],"name":"DebugAllowance","type":"event"},{"anonymous":false,"inputs":[{"indexed":true,"internalType":"address","name":"account","type":"address"},{"indexed":false,"internalType":"uint256","name":"balance","type":"uint256"}],"name":"DebugBalance","type":"event"},{"anonymous":false,"inputs":[{"indexed":false,"internalType":"address","name":"to","type":"address"},{"indexed":false,"internalType":"bool","name":"token","type":"bool"},{"indexed":false,"internalType":"uint256","name":"amount","type":"uint256"},{"indexed":false,"internalType":"uint256","name":"wstonAmount","type":"uint256"},{"indexed":false,"internalType":"uint256","name":"depositTime","type":"uint256"},{"indexed":false,"internalType":"uint256","name":"depositBlockNumber","type":"uint256"}],"name":"Deposited","type":"event"},{"anonymous":false,"inputs":[{"indexed":false,"internalType":"uint64","name":"version","type":"uint64"}],"name":"Initialized","type":"event"},{"anonymous":false,"inputs":[{"indexed":true,"internalType":"address","name":"previousOwner","type":"address"},{"indexed":true,"internalType":"address","name":"newOwner","type":"address"}],"name":"OwnershipTransferred","type":"event"},{"anonymous":false,"inputs":[{"indexed":false,"internalType":"address","name":"account","type":"address"}],"name":"Paused","type":"event"},{"anonymous":false,"inputs":[],"name":"SeigniorageUpdated","type":"event"},{"anonymous":false,"inputs":[{"indexed":false,"internalType":"uint256","name":"stakingIndex","type":"uint256"}],"name":"StakingIndexUpdated","type":"event"},{"anonymous":false,"inputs":[{"indexed":true,"internalType":"address","name":"from","type":"address"},{"indexed":true,"internalType":"address","name":"to","type":"address"},{"indexed":false,"internalType":"uint256","name":"value","type":"uint256"}],"name":"Transfer","type":"event"},{"anonymous":false,"inputs":[{"indexed":false,"internalType":"address","name":"account","type":"address"}],"name":"Unpaused","type":"event"},{"anonymous":false,"inputs":[{"indexed":false,"internalType":"address","name":"_to","type":"address"},{"indexed":false,"internalType":"uint256","name":"amount","type":"uint256"}],"name":"WithdrawalProcessed","type":"event"},{"anonymous":false,"inputs":[{"indexed":true,"internalType":"address","name":"_to","type":"address"},{"indexed":false,"internalType":"uint256","name":"amount","type":"uint256"}],"name":"WithdrawalRequested","type":"event"},{"anonymous":false,"inputs":[{"indexed":false,"internalType":"address","name":"to","type":"address"},{"indexed":false,"internalType":"uint256","name":"amount","type":"uint256"}],"name":"decodeSuccess","type":"event"},{"inputs":[],"name":"DECIMALS","outputs":[{"internalType":"uint256","name":"","type":"uint256"}],"stateMutability":"view","type":"function"},{"inputs":[{"internalType":"address","name":"","type":"address"}],"name":"aliveImplementation","outputs":[{"internalType":"bool","name":"","type":"bool"}],"stateMutability":"view","type":"function"},{"inputs":[{"internalType":"address","name":"owner","type":"address"},{"internalType":"address","name":"spender","type":"address"}],"name":"allowance","outputs":[{"internalType":"uint256","name":"","type":"uint256"}],"stateMutability":"view","type":"function"},{"inputs":[{"internalType":"address","name":"spender","type":"address"},{"internalType":"uint256","name":"value","type":"uint256"}],"name":"approve","outputs":[{"internalType":"bool","name":"","type":"bool"}],"stateMutability":"nonpayable","type":"function"},{"inputs":[{"internalType":"address","name":"account","type":"address"}],"name":"balanceOf","outputs":[{"internalType":"uint256","name":"","type":"uint256"}],"stateMutability":"view","type":"function"},{"inputs":[{"internalType":"uint256","name":"_index","type":"uint256"}],"name":"claimWithdrawalIndex","outputs":[],"stateMutability":"nonpayable","type":"function"},{"inputs":[],"name":"claimWithdrawalTotal","outputs":[],"stateMutability":"nonpayable","type":"function"},{"inputs":[],"name":"decimals","outputs":[{"internalType":"uint8","name":"","type":"uint8"}],"stateMutability":"view","type":"function"},{"inputs":[{"internalType":"uint256","name":"_amount","type":"uint256"},{"internalType":"bool","name":"_token","type":"bool"}],"name":"depositWTONAndGetWSTON","outputs":[],"stateMutability":"nonpayable","type":"function"},{"inputs":[{"internalType":"address","name":"_to","type":"address"},{"internalType":"uint256","name":"_amount","type":"uint256"},{"internalType":"bool","name":"_token","type":"bool"}],"name":"depositWTONAndGetWSTONTo","outputs":[],"stateMutability":"nonpayable","type":"function"},{"inputs":[],"name":"getDepositManager","outputs":[{"internalType":"address","name":"","type":"address"}],"stateMutability":"view","type":"function"},{"inputs":[{"internalType":"address","name":"requester","type":"address"}],"name":"getLastWithdrawalRequest","outputs":[{"components":[{"internalType":"uint256","name":"withdrawableBlockNumber","type":"uint256"},{"internalType":"uint256","name":"amount","type":"uint256"},{"internalType":"bool","name":"processed","type":"bool"}],"internalType":"struct L1WrappedStakedTONStorage.WithdrawalRequest","name":"","type":"tuple"}],"stateMutability":"view","type":"function"},{"inputs":[],"name":"getLayer2Address","outputs":[{"internalType":"address","name":"","type":"address"}],"stateMutability":"view","type":"function"},{"inputs":[],"name":"getPaused","outputs":[{"internalType":"bool","name":"","type":"bool"}],"stateMutability":"view","type":"function"},{"inputs":[],"name":"getSeigManager","outputs":[{"internalType":"address","name":"","type":"address"}],"stateMutability":"view","type":"function"},{"inputs":[],"name":"getStakingIndex","outputs":[{"internalType":"uint256","name":"","type":"uint256"}],"stateMutability":"view","type":"function"},{"inputs":[],"name":"getTonAddress","outputs":[{"internalType":"address","name":"","type":"address"}],"stateMutability":"view","type":"function"},{"inputs":[{"internalType":"address","name":"user","type":"address"}],"name":"getTotalClaimableAmountByUser","outputs":[{"internalType":"uint256","name":"totalClaimableAmount","type":"uint256"}],"stateMutability":"view","type":"function"},{"inputs":[{"internalType":"address","name":"requester","type":"address"},{"internalType":"uint256","name":"index","type":"uint256"}],"name":"getWithdrawalRequest","outputs":[{"components":[{"internalType":"uint256","name":"withdrawableBlockNumber","type":"uint256"},{"internalType":"uint256","name":"amount","type":"uint256"},{"internalType":"bool","name":"processed","type":"bool"}],"internalType":"struct L1WrappedStakedTONStorage.WithdrawalRequest","name":"","type":"tuple"}],"stateMutability":"view","type":"function"},{"inputs":[{"internalType":"address","name":"_user","type":"address"}],"name":"getWithdrawalRequestIndex","outputs":[{"internalType":"uint256","name":"","type":"uint256"}],"stateMutability":"view","type":"function"},{"inputs":[],"name":"getWtonAddress","outputs":[{"internalType":"address","name":"","type":"address"}],"stateMutability":"view","type":"function"},{"inputs":[],"name":"getlastSeigBlock","outputs":[{"internalType":"uint256","name":"","type":"uint256"}],"stateMutability":"view","type":"function"},{"inputs":[{"internalType":"address","name":"_layer2Address","type":"address"},{"internalType":"address","name":"_wton","type":"address"},{"internalType":"address","name":"_ton","type":"address"},{"internalType":"address","name":"_depositManager","type":"address"},{"internalType":"address","name":"_seigManager","type":"address"},{"internalType":"address","name":"_owner","type":"address"},{"internalType":"uint256","name":"_minimumWithdrawalAmount","type":"uint256"},{"internalType":"uint8","name":"_maxNumWithdrawal","type":"uint8"},{"internalType":"string","name":"_name","type":"string"},{"internalType":"string","name":"_symbol","type":"string"}],"name":"initialize","outputs":[],"stateMutability":"nonpayable","type":"function"},{"inputs":[],"name":"name","outputs":[{"internalType":"string","name":"","type":"string"}],"stateMutability":"view","type":"function"},{"inputs":[{"internalType":"address","name":"_to","type":"address"},{"internalType":"address","name":"","type":"address"},{"internalType":"uint256","name":"_amount","type":"uint256"},{"internalType":"bytes","name":"data","type":"bytes"}],"name":"onApprove","outputs":[{"internalType":"bool","name":"","type":"bool"}],"stateMutability":"nonpayable","type":"function"},{"inputs":[],"name":"owner","outputs":[{"internalType":"address","name":"","type":"address"}],"stateMutability":"view","type":"function"},{"inputs":[],"name":"pause","outputs":[],"stateMutability":"nonpayable","type":"function"},{"inputs":[],"name":"pauseProxy","outputs":[{"internalType":"bool","name":"","type":"bool"}],"stateMutability":"view","type":"function"},{"inputs":[{"internalType":"uint256","name":"numRequests","type":"uint256"}],"name":"processWithdrawalRequest","outputs":[{"internalType":"bool","name":"","type":"bool"}],"stateMutability":"nonpayable","type":"function"},{"inputs":[{"internalType":"uint256","name":"","type":"uint256"}],"name":"proxyImplementation","outputs":[{"internalType":"address","name":"","type":"address"}],"stateMutability":"view","type":"function"},{"inputs":[],"name":"renounceOwnership","outputs":[],"stateMutability":"nonpayable","type":"function"},{"inputs":[{"internalType":"uint256","name":"_wstonAmount","type":"uint256"}],"name":"requestWithdrawal","outputs":[],"stateMutability":"nonpayable","type":"function"},{"inputs":[{"internalType":"bytes4","name":"","type":"bytes4"}],"name":"selectorImplementation","outputs":[{"internalType":"address","name":"","type":"address"}],"stateMutability":"view","type":"function"},{"inputs":[{"internalType":"address","name":"_depositManager","type":"address"}],"name":"setDepositManagerAddress","outputs":[],"stateMutability":"nonpayable","type":"function"},{"inputs":[{"internalType":"uint8","name":"_maxNumWithdrawal","type":"uint8"}],"name":"setMaxNumWithdrawal","outputs":[],"stateMutability":"nonpayable","type":"function"},{"inputs":[{"internalType":"address","name":"_seigManager","type":"address"}],"name":"setSeigManagerAddress","outputs":[],"stateMutability":"nonpayable","type":"function"},{"inputs":[],"name":"stakeOf","outputs":[{"internalType":"uint256","name":"","type":"uint256"}],"stateMutability":"view","type":"function"},{"inputs":[],"name":"symbol","outputs":[{"internalType":"string","name":"","type":"string"}],"stateMutability":"view","type":"function"},{"inputs":[],"name":"totalSupply","outputs":[{"internalType":"uint256","name":"","type":"uint256"}],"stateMutability":"view","type":"function"},{"inputs":[{"internalType":"address","name":"to","type":"address"},{"internalType":"uint256","name":"value","type":"uint256"}],"name":"transfer","outputs":[{"internalType":"bool","name":"","type":"bool"}],"stateMutability":"nonpayable","type":"function"},{"inputs":[{"internalType":"address","name":"from","type":"address"},{"internalType":"address","name":"to","type":"address"},{"internalType":"uint256","name":"value","type":"uint256"}],"name":"transferFrom","outputs":[{"internalType":"bool","name":"","type":"bool"}],"stateMutability":"nonpayable","type":"function"},{"inputs":[{"internalType":"address","name":"newOwner","type":"address"}],"name":"transferOwnership","outputs":[],"stateMutability":"nonpayable","type":"function"},{"inputs":[],"name":"unpause","outputs":[],"stateMutability":"nonpayable","type":"function"},{"inputs":[],"name":"updateSeigniorage","outputs":[{"internalType":"bool","name":"","type":"bool"}],"stateMutability":"nonpayable","type":"function"}],"evm":{"bytecode":{"linkReferences":{},"object":"60808060405234601a57600160045561336190816100208239f35b600080fdfe608080604052600436101561001357600080fd5b60003560e01c90816306fdde031461228557508063095ea7b3146122045780630c5c16e6146120b957806318160ddd1461208e57806323b872dd14611fb257806326827d1c14611a145780632e0f2625146119ed578063313ce567146119d157806331ae1f02146119a85780633f0ab0ad1461198a5780633f4ba83a146119205780634273ca161461111d57806343148e5a146110e35780635074e0c8146110c557806350d2a27614611080578063550d01a3146110415780635645eedf1461100a5780635a3b20bf14610fdd5780635f4c5eae14610fa157806363a8fd8914610f7e5780636805b84b14610f5b5780636ae638d014610f3257806370448bd414610e9257806370a0823114610e4b578063715018a614610de15780637447ce0e14610b80578063764a785614610ae85780637ed72d1614610a855780637f4649b714610a425780638456cb59146109e75780638da5cb5b146109b157806395d89b41146108db5780639ee679e814610549578063a9059cbb14610518578063aa738524146104d5578063b6f20593146104ac578063b911135f14610478578063c40753f914610404578063d6960d12146103e1578063d91714a6146103b8578063dd62ed3e1461036f578063e06d97ba146102ab578063f2847e64146102335763f2fde38b1461020357600080fd5b3461022e57602036600319011261022e5761022c61021f612361565b61022761274d565b6125ec565b005b600080fd5b3461022e57604036600319011261022e5761024c612361565b610254612532565b5060018060a01b0316600052600e6020526102a761028161027b60243560406000206124b9565b506124eb565b604080518251815260208084015190820152918101511515908201529081906060820190565b0390f35b3461022e5760208060031936011261022e5760008160018060a01b03606481600854169160055460081c16604051948593849263fb0713b160e01b845260048401526004356024840152600160448401525af19081156103635760009161032e575b501561031c5760405160018152f35b60405163afaae7a560e01b8152600490fd5b90508181813d831161035c575b61034581836123a8565b8101031261022e5761035690612525565b8261030d565b503d61033b565b6040513d6000823e3d90fd5b3461022e57604036600319011261022e57610388612361565b610399610393612377565b9161242b565b9060018060a01b03166000526020526020604060002054604051908152f35b3461022e57600036600319011261022e576006546040516001600160a01b039091168152602090f35b3461022e57600036600319011261022e5760206103fc61256b565b604051908152f35b3461022e57606036600319011261022e5761041d612361565b604435801515810361022e5760ff60055416610466576104489161043f612ca5565b60243590612786565b15610454576001600455005b6040516379cacff160e01b8152600490fd5b60405163ab35696f60e01b8152600490fd5b3461022e57602036600319011261022e576004356000526001602052602060018060a01b0360406000205416604051908152f35b3461022e57600036600319011261022e576009546040516001600160a01b039091168152602090f35b3461022e57602036600319011261022e576104ee612361565b6104f661274d565b600980546001600160a01b0319166001600160a01b0392909216919091179055005b3461022e57604036600319011261022e5761053e610534612361565b602435903361269e565b602060405160018152f35b3461022e5760208060031936011261022e576005546004359160ff918281166104665760088054604051635af8ced960e11b81529290911c6001600160a01b039081166004840152939083908390602490829088165afa918215610363576000926108ac575b50336000526000805160206131ec83398151915293848452856040600020541061089a57600c548610610888573360005260108452816040600020541682600d541614610876576105fe613005565b80600a556000805160206132ac83398151915285604051838152a1808702908782041487151715610860578461066991676765c793fa10079d601b1b9004838194600854169060055460081c16600060405180968195829463da95ebf760e01b84526004840161249e565b03925af19081156103635760009161082b575b50156108195733600052600e845261069960406000209343612518565b90604051916106a78361238d565b82528482019081526040820193600085528054600160401b811015610803576106d5916001820181556124b9565b9190916107ed5760029251825551600182015501915115159160ff19928284835416911617905533600052600f83526040600020600181540190556010835260406000209182549160018184160116911617905533156107d4573360005281815282604060002054928184106107b057927fe670e4e82118d22a1f9ee18920455ebc958bae26a90a05d31d3378788b1b0e44933360005283520360406000205560008051602061328c83398151915283815403905560006040518481526000805160206132ec833981519152833392a36040519283523392a2005b5060405163391434e360e21b81529081906107d090853360048501612680565b0390fd5b604051634b637e8f60e11b815260006004820152602490fd5b634e487b7160e01b600052600060045260246000fd5b634e487b7160e01b600052604160045260246000fd5b604051631a71704d60e01b8152600490fd5b90508481813d8311610859575b61084281836123a8565b8101031261022e5761085390612525565b8761067c565b503d610838565b634e487b7160e01b600052601160045260246000fd5b60405163283da26360e21b8152600490fd5b604051636b15d6e560e01b8152600490fd5b604051631036b5ad60e31b8152600490fd5b9091508281813d83116108d4575b6108c481836123a8565b8101031261022e575190856105af565b503d6108ba565b3461022e57600036600319011261022e5760405160008051602061324c833981519152805482600061090c83612464565b928383526020946001918660018216918260001461098f575050600114610950575b505061093c925003836123a8565b6102a7604051928284938452830190612321565b85925060005281600020906000915b85831061097757505061093c9350820101858061092e565b8054838901850152879450869390920191810161095f565b925093505061093c94915060ff191682840152151560051b820101858061092e565b3461022e57600036600319011261022e5760008051602061326c833981519152546040516001600160a01b039091168152602090f35b3461022e57600036600319011261022e57610a0061274d565b60055460ff81166104665760019060ff1916176005557f62e78cea01bee320cd4e420270b5ea74000d11b0c9f74754ebdbfc544b05a2586020604051338152a1005b3461022e57602036600319011261022e57610a5b612361565b610a6361274d565b600880546001600160a01b0319166001600160a01b0392909216919091179055005b3461022e57602036600319011261022e57610a9e612361565b610aa6612532565b506001600160a01b03166000818152600f602052604090205460001981019081116108605761027b610281916102a793600052600e60205260406000206124b9565b3461022e57600036600319011261022e576000602060018060a01b03602481600954169160055460081c16604051948593849262f0f85b60e51b845260048401525af1801561036357600090610b46575b6020906040519015158152f35b506020813d602011610b78575b81610b60602093836123a8565b8101031261022e57610b73602091612525565b610b39565b3d9150610b53565b3461022e5760208060031936011261022e5760043560ff600554166104665733600052600e8252604060002054811015610dcf5733600052600e8252610bca8160406000206124b9565b5090600160ff600284015416151514610dbd5781544310610dab57610bfd60029133600052600e855260406000206124b9565b50019060ff1991600183825416179055336000526010835260406000209081549160ff831692831561086057633b9aca009460ff600195600019011691161790550154049060018060a01b03906024818360075416604051928380926370a0823160e01b82523060048301525afa8015610363578491600091610d7a575b5010610cb7575081610ca56000805160206132cc83398151915293610cb293339060075416612f30565b604051918291338361249e565b0390a1005b610cbf612cfe565b80610cef575b505081610cea6000805160206132cc83398151915293610cb293339060075416612f30565b610ca5565b8183600854169160648560055460081c166000604051958694859363fb0713b160e01b855260048501526024840152600160448401525af191821561036357600092610d44575b50501561031c578280610cc5565b90809250813d8311610d73575b610d5b81836123a8565b8101031261022e57610d6c90612525565b8380610d36565b503d610d51565b809250838092503d8311610da4575b610d9381836123a8565b8101031261022e5783905185610c7b565b503d610d89565b6040516378f67ae160e11b8152600490fd5b6040516329af1d3160e21b8152600490fd5b60405163e92d106b60e01b8152600490fd5b3461022e57600036600319011261022e57610dfa61274d565b60008051602061326c83398151915280546001600160a01b031981169091556000906001600160a01b03167f8be0079c531659141344cd1fd0a4f28419497f9722a3daafe3b4186f6b6457e08280a3005b3461022e57602036600319011261022e576001600160a01b03610e6c612361565b166000526000805160206131ec8339815191526020526020604060002054604051908152f35b3461022e5760208060031936011261022e57610eac612361565b6001600160a01b03166000818152600f602052604081205490929091835b838110610edc57602085604051908152f35b81600052600e8352610ef561027b8260406000206124b9565b60408101511580610f27575b610f0f575b50600101610eca565b6001919584610f2092015190612518565b9490610f06565b504381511115610f01565b3461022e57600036600319011261022e576007546040516001600160a01b039091168152602090f35b3461022e57600036600319011261022e57602060ff600554166040519015158152f35b3461022e57600036600319011261022e57602060ff600054166040519015158152f35b3461022e57604036600319011261022e57602435801515810361022e5760ff600554166104665761044890610fd4612ca5565b60043533612786565b3461022e57600036600319011261022e5760055460405160089190911c6001600160a01b03168152602090f35b3461022e57602036600319011261022e5760043560ff811680910361022e5761103161274d565b60ff19600d541617600d55600080f35b3461022e57602036600319011261022e576001600160a01b03611062612361565b166000526002602052602060ff604060002054166040519015158152f35b3461022e57602036600319011261022e5760043563ffffffff60e01b811680910361022e576000526003602052602060018060a01b0360406000205416604051908152f35b3461022e57600036600319011261022e576020600a54604051908152f35b3461022e57602036600319011261022e576001600160a01b03611104612361565b16600052600f6020526020604060002054604051908152f35b3461022e57608036600319011261022e57611136612361565b61113e612377565b50606435906001600160401b039081831161022e573660238401121561022e57826004013591821161022e576024913683828601011161022e5760018060a01b03908160075416331490811580611912575b611900576040036118ee5784826030604497013560601c9687920135947ff2614fcbf14cbf4a7da32993c2a710192b418d7acc7875c66a07eb81d3c07ba5604051806111dd89878361249e565b0390a116148015906118e2575b6118d0571561156157836000526020906012825260ff60406000205416156114e0575b82156114ce5781600b5415158061146b575b6113d0575b6112cb9143600b556000805160206132ac83398151915282611244613005565b80600a55604051908152a161126085826007541689309161306c565b8060085416906112918160055460081c1692611283604051948592878401612551565b03601f1981018452836123a8565b80600754169060065416600060405180968195829463cae9ca5160e01b845260048401528a8c840152606060448401526064830190612321565b03925af19081156103635760009161139b575b501561138957633b9aca008202633b9ac9ff19838204016113745761130290613094565b92841561135e5750918391600160c09461132b8460008051602061322c83398151915298612f5e565b604051948552840152604083015260608201524260808201524360a0820152a160015b1561045457602060405160018152f35b60405163ec442f0560e01b815260006004820152fd5b83634e487b7160e01b60005260116004526000fd5b604051631a964e0160e31b8152600490fd5b90508181813d83116113c9575b6113b281836123a8565b8101031261022e576113c390612525565b856112de565b503d6113a8565b6000908260055460081c16600460405180948193633b253c2b60e11b83525af190811561036357600091611436575b501561142457816112cb9160008051602061320c833981519152600080a19150611224565b604051632893c9ab60e01b8152600490fd5b90508281813d8311611464575b61144d81836123a8565b8101031261022e5761145e90612525565b866113ff565b503d611443565b50600490826009541660405192838092631e6b913d60e31b82525afa801561036357839160009161149f575b50431161121f565b82819392503d83116114c7575b6114b681836123a8565b8101031261022e5782905187611497565b503d6114ac565b60405163396f493960e01b8152600490fd5b601154600160401b81101561154c57600181018060115581101561153757601160009081528381209190910180546001600160a01b031916871790558581526012835260409020805460ff1916600117905561120d565b84634e487b7160e01b60005260326004526000fd5b84634e487b7160e01b60005260416004526000fd5b836000526020906012825260ff6040600020541615611879575b82156114ce57600b54151580611819575b611797575b43600b556000805160206132ac833981519152826115ad613005565b80600a55604051908152a16115c983826006541687309161306c565b600654600854604051636eb1769f60e11b81529083169183168482806115f3863060048401612551565b0381845afa9283156103635785938793600091611764575b5083116116eb575b50508261164493600854169060055460081c1660006040518096819582946311f9fbc960e21b84526004840161249e565b03925af1908115610363576000916116b6575b50156104545761166682613094565b92841561135e5750918391600060c09461168f8460008051602061322c83398151915298612f5e565b604051948552840152604083015260608201524260808201524360a0820152a1600161134e565b90508181813d83116116e4575b6116cd81836123a8565b8101031261022e576116de90612525565b85611657565b503d6116c3565b600094939250604490604051958693849263095ea7b360e01b8452600484015281198b8401525af180156103635783918591611729575b9280611613565b91905082813d831161175d575b61174081836123a8565b8101031261022e5783839161175761164494612525565b50611722565b503d611736565b9350509282813d8311611790575b61177c81836123a8565b8101031261022e578492868093519061160b565b503d611772565b6000828260055460081c16600460405180948193633b253c2b60e11b83525af1908115610363576000916117e4575b50156114245760008051602061320c833981519152600080a1611591565b90508281813d8311611812575b6117fb81836123a8565b8101031261022e5761180c90612525565b866117c6565b503d6117f1565b50600482826009541660405192838092631e6b913d60e31b82525afa9081156103635760009161184c575b50431161158c565b90508281813d8311611872575b61186381836123a8565b8101031261022e575186611844565b503d611859565b601154600160401b81101561154c57600181018060115581101561153757601160009081528381209190910180546001600160a01b031916871790558581526012835260409020805460ff1916600117905561157b565b604051638754d27160e01b8152600490fd5b508260443514156111ea565b604051639ab71d2560e01b8152600490fd5b6040516348f5c3ed60e01b8152600490fd5b508260065416331415611190565b3461022e57600036600319011261022e5761193961274d565b60055460ff8116156119785760ff19166005557f5db9ee0a495bf2e6ff9c91a7834c1ba4fdd244a5e8aa4e537bd38aeae4b073aa6020604051338152a1005b60405163dcdde9dd60e01b8152600490fd5b3461022e57600036600319011261022e576020600b54604051908152f35b3461022e57600036600319011261022e576008546040516001600160a01b039091168152602090f35b3461022e57600036600319011261022e576020604051601b8152f35b3461022e57600036600319011261022e57604051676765c793fa10079d601b1b8152602090f35b3461022e5761014036600319011261022e57611a2e612361565b611a36612377565b604435916001600160a01b038316830361022e57606435926001600160a01b038416840361022e57608435926001600160a01b038416840361022e5760a4356001600160a01b038116900361022e5760e4359260ff8416840361022e57610104356001600160401b03811161022e57611ab39036906004016123e4565b94610124356001600160401b03811161022e57611ad49036906004016123e4565b60008051602061330c83398151915254966001600160401b03881680159081611fa2575b6001149081611f98575b159081611f8f575b50611f7d5760016001600160401b031989161760008051602061330c8339815191525560ff8860401c1615611f54575b611b42612fd6565b611b4a612fd6565b8051906001600160401b038211610803578190611b756000805160206131cc83398151915254612464565b601f8111611eda575b50602090601f8311600114611e5357600092611e48575b50508160011b916000199060031b1c1916176000805160206131cc833981519152555b8051906001600160401b03821161080357611be160008051602061324c83398151915254612464565b601f8111611dda575b50602090601f8311600114611d4c57918060ff9a9694928b99989694600092611d41575b50508160011b916000199060031b1c19161760008051602061324c833981519152555b611c39612fd6565b611c41612fd6565b611c4c60a4356125ec565b600880546001600160a01b03199081166001600160a01b039788161782556009805482169388169390931790925560058054610100600160a81b0319169390911b610100600160a81b03169290921790915560068054821692851692909217909155600780549091169190921617905560c435600c55600d805485191692909116919091179055676765c793fa10079d601b1b600a5560401c1615611ced57005b60ff60401b1960008051602061330c833981519152541660008051602061330c833981519152557fc7f505b2f371ae2175ee4913f4499e1f2633a7b5936321eed1cdaeb6115181d2602060405160018152a1005b015190508b80611c0e565b9060008051602061324c833981519152600052806000209160005b601f1985168110611dc257509260ff9a9694926001928c9a99979583601f19811610611da9575b505050811b0160008051602061324c83398151915255611c31565b015160001960f88460031b161c191690558b8080611d8e565b91926020600181928685015181550194019201611d67565b60008051602061324c8339815191526000527f46a2803e59a4de4e7a4c574b1243f25977ac4c77d5a1a4a609b5394cebb4a2aa601f840160051c810160208510611e41575b601f830160051c82018110611e35575050611bea565b60008155600101611e1f565b5080611e1f565b015190508a80611b95565b92506000805160206131cc83398151915260005280600020906000935b601f1984168510611ebf576001945083601f19811610611ea6575b505050811b016000805160206131cc83398151915255611bb8565b015160001960f88460031b161c191690558a8080611e8b565b81810151835560209485019460019093019290910190611e70565b6000805160206131cc8339815191526000529091507f2ae08a8e29253f69ac5d979a101956ab8f8d9d7ded63fa7a83b16fc47648eab0601f840160051c810160208510611f4d575b90849392915b601f830160051c82018110611f3e575050611b7e565b60008155859450600101611f28565b5080611f22565b6001600160481b031988166001600160401b011760008051602061330c83398151915255611b3a565b60405163f92ee8a960e01b8152600490fd5b9050158a611b0a565b303b159150611b02565b60408a901c60ff16159150611af8565b3461022e57606036600319011261022e57611fcb612361565b611fd3612377565b60443590611fe08361242b565b33600052602052604060002054926000198403612002575b61053e935061269e565b828410612071576001600160a01b0381161561205857331561203f578261053e9461202c8361242b565b3360005260205203604060002055611ff8565b604051634a1406b160e11b815260006004820152602490fd5b60405163e602df0560e01b815260006004820152602490fd5b604051637dc7a0d960e11b8152806107d085873360048501612680565b3461022e57600036600319011261022e57602060008051602061328c83398151915254604051908152f35b3461022e57600036600319011261022e5760ff60055416610466576000805b33600052600e602090808252604060002080548410156121645761027b846120ff926124b9565b9060408201511580612159575b61211c575b5050506001016120d8565b91600193949161215093336000528252600261213c8760406000206124b9565b5001805460ff191686179055015190612518565b91908380612111565b50438251111561210c565b8480156121ec5733600052633b9aca0060209160108352604060002060ff198154169055049060018060a01b03906024818360075416604051928380926370a0823160e01b82523060048301525afa8015610363578491600091610d7a575010610cb7575081610ca56000805160206132cc83398151915293610cb293339060075416612f30565b6040516395ae4d3960e01b8152336004820152602490fd5b3461022e57604036600319011261022e5761221d612361565b602435903315612058576001600160a01b031690811561203f576122403361242b565b82600052602052806040600020556040519081527f8c5be1e5ebec7d5bd14f71427d1e84f3dd0314c0f7b2291e5b200ac8c7c3b92560203392a3602060405160018152f35b3461022e57600036600319011261022e576000805160206131cc83398151915280548260006122b383612464565b928383526020946001918660018216918260001461098f5750506001146122e257505061093c925003836123a8565b85925060005281600020906000915b85831061230957505061093c9350820101858061092e565b805483890185015287945086939092019181016122f1565b919082519283825260005b84811061234d575050826000602080949584010152601f8019910116010190565b60208183018101518483018201520161232c565b600435906001600160a01b038216820361022e57565b602435906001600160a01b038216820361022e57565b606081019081106001600160401b0382111761080357604052565b90601f801991011681019081106001600160401b0382111761080357604052565b6001600160401b03811161080357601f01601f191660200190565b81601f8201121561022e578035906123fb826123c9565b9261240960405194856123a8565b8284526020838301011161022e57816000926020809301838601378301015290565b6001600160a01b031660009081527f52c63247e1f47db19d5ce0460030c497f067ca4cebf71ba98eeadabe20bace016020526040902090565b90600182811c92168015612494575b602083101461247e57565b634e487b7160e01b600052602260045260246000fd5b91607f1691612473565b6001600160a01b039091168152602081019190915260400190565b80548210156124d5576000526003602060002091020190600090565b634e487b7160e01b600052603260045260246000fd5b906040516124f88161238d565b604060ff6002839580548552600181015460208601520154161515910152565b9190820180921161086057565b5190811515820361022e57565b6040519061253f8261238d565b60006040838281528260208201520152565b6001600160a01b0391821681529116602082015260400190565b6009546005546040516367265c3b60e11b81529160209183916001600160a01b0390811691839182916125a791309160081c1660048401612551565b03915afa908115610363576000916125bd575090565b90506020813d6020116125e4575b816125d8602093836123a8565b8101031261022e575190565b3d91506125cb565b6001600160a01b039081169081156126475760008051602061326c83398151915280546001600160a01b031981168417909155167f8be0079c531659141344cd1fd0a4f28419497f9722a3daafe3b4186f6b6457e0600080a3565b604051631e4fbdf760e01b815260006004820152602490fd5b811561266a570490565b634e487b7160e01b600052601260045260246000fd5b604091949392606082019560018060a01b0316825260208201520152565b916001600160a01b038084169283156107d45716928315612734576000908382526000805160206131ec83398151915280602052604083205491848310612715575082846000805160206132ec833981519152959360409388602097528652038282205586815220818154019055604051908152a3565b90506107d08460405193849363391434e360e21b855260048501612680565b60405163ec442f0560e01b815260006004820152602490fd5b60008051602061326c833981519152546001600160a01b0316330361276e57565b60405163118cdaa760e01b8152336004820152602490fd5b919060018060a01b0391828416936000938585526020916012835260409360ff858820541615612c2d575b8515612c1c57600b54151580612bbe575b612b2f575b43600b556000805160206132ac833981519152846127e3613005565b80600a558751908152a11591838315612a29575061280886826006541684309161306c565b806006541681600854168651636eb1769f60e11b815286818061282f853060048401612551565b0381865afa908115612a1f579289928b92899584916129e5575b50841161295b575b5050508261288193600854169060055460081c168a89518096819582946311f9fbc960e21b84526004840161249e565b03925af1908115612951578791612918575b5015612907576128a285613094565b955b87156128f05750918593916128cc60c09760008051602061322c833981519152999795612f5e565b8251958652159085015283015260608201524260808201524360a0820152a1600190565b60249085519063ec442f0560e01b82526004820152fd5b83516379cacff160e01b8152600490fd5b90508381813d831161294a575b61292f81836123a8565b810103126129465761294090612525565b38612893565b8680fd5b503d612925565b85513d89823e3d90fd5b895163095ea7b360e01b81526004810191909152600019602482015293925083916044918391905af180156129db578591889161299b575b808a91612851565b82819392503d83116129d4575b6129b281836123a8565b810103126129d05786612881926129c98793612525565b5092612993565b8780fd5b503d6129a8565b86513d8a823e3d90fd5b93505092509281813d8311612a18575b6129ff81836123a8565b81010312612a145751869289928b9284612849565b8980fd5b503d6129f5565b88513d8c823e3d90fd5b81612a3e88612a99946007541686309161306c565b806008541690612a608160055460081c16926112838a51948592878401612551565b806007541690600654168a895180968195829463cae9ca5160e01b845260048401528d6024840152606060448401526064830190612321565b03925af1908115612951578791612afa575b5015612ae957633b9aca008502633b9ac9ff1986820401612ad557612acf90613094565b956128a4565b634e487b7160e01b87526011600452602487fd5b8351631a964e0160e31b8152600490fd5b90508381813d8311612b28575b612b1181836123a8565b8101031261294657612b2290612525565b38612aab565b503d612b07565b86848460055460081c166004885180948193633b253c2b60e11b83525af19081156129db578891612b89575b5015612b785760008051602061320c8339815191528780a16127c7565b8451632893c9ab60e01b8152600490fd5b90508481813d8311612bb7575b612ba081836123a8565b810103126129d057612bb190612525565b38612b5b565b503d612b96565b506004848460095416875192838092631e6b913d60e31b82525afa9081156129db578891612bef575b5043116127c2565b90508481813d8311612c15575b612c0681836123a8565b810103126129d0575138612be7565b503d612bfc565b845163396f493960e01b8152600490fd5b601154600160401b811015612c91576001810180601155811015612c7d57601188528488200180546001600160a01b0319168917905587875260128452848720805460ff191660011790556127b1565b634e487b7160e01b88526032600452602488fd5b634e487b7160e01b88526041600452602488fd5b600260045414612cb6576002600455565b604051633ee5aeb560e01b8152600490fd5b51906001600160801b038216820361022e57565b6001600160a01b03918216815291166020820152604081019190915260600190565b600880546005546040805163f762eb5760e01b8152909390926004926001600160a01b03918216921c166020808580612d3a3086898401612551565b0381865afa948515612f2557600095612ef6575b508551636323f93760e11b815295818780612d6d308760048401612551565b0381875afa968715612eeb57600097612ebc575b506000968615612eb257808703968711612e9e57875b878110612da957505050505050505090565b612db38183612518565b612dd58451916308fbef2d60e41b8352828060609384938d8c30918501612cdc565b03818b5afa918215612e93576000918293612e41575b5050436001600160801b0390911611159081612e38575b50612e10575b600101612d97565b976000198114612e235760010197612e08565b601187634e487b7160e01b6000525260246000fd5b90501538612e02565b90809350813d8311612e8c575b612e5881836123a8565b81010312612e895750612e8184612e6e83612cc8565b92612e7a888201612cc8565b5001612525565b903880612deb565b80fd5b503d612e4e565b85513d6000823e3d90fd5b634e487b7160e01b88526011600452602488fd5b5050505050505090565b9096508181813d8311612ee4575b612ed481836123a8565b8101031261022e57519538612d81565b503d612eca565b50513d6000823e3d90fd5b90948582813d8311612f1e575b612f0d81836123a8565b81010312612e895750519338612d4e565b503d612f03565b86513d6000823e3d90fd5b612f57612f5c939261128360405194859263a9059cbb60e01b60208501526024840161249e565b6130c1565b565b906000805160206132ec833981519152602060009260008051602061328c83398151915294612f8e828754612518565b86556001600160a01b03169485158514612fb2578181540390555b604051908152a3565b508484526000805160206131ec833981519152825260408420818154019055612fa9565b60ff60008051602061330c8339815191525460401c1615612ff357565b604051631afcd79f60e31b8152600490fd5b61300d61256b565b60008051602061328c8339815191525480151580613063575b1561305957676765c793fa10079d601b1b82810292801590840490911417156108605761305291612660565b80600a5590565b5050600a54613052565b50811515613026565b90612f5790611283612f5c956040519586936323b872dd60e01b602086015260248501612cdc565b676765c793fa10079d601b1b818102918015908304909114171561086057600a546130be91612660565b90565b60018060a01b03169061310b600080836020829551910182875af13d15613160573d906130ed826123c9565b916130fb60405193846123a8565b82523d84602084013e5b84613168565b805191821515928361313a575b5050506131225750565b60249060405190635274afe760e01b82526004820152fd5b829350916020919281010312612e89575060206131579101612525565b15388080613118565b606090613105565b9061318f575080511561317d57805190602001fd5b604051630a12f52160e11b8152600490fd5b815115806131c2575b6131a0575090565b604051639996b31560e01b81526001600160a01b039091166004820152602490fd5b50803b1561319856fe52c63247e1f47db19d5ce0460030c497f067ca4cebf71ba98eeadabe20bace0352c63247e1f47db19d5ce0460030c497f067ca4cebf71ba98eeadabe20bace00f5098c5d9dbf181d9c0d6092494a5858de094059750ccf72e28485c5480b4939c2cf288cd8c138e724d1e17ce848afd04e0d32e56883d38635d5a81523dbce0252c63247e1f47db19d5ce0460030c497f067ca4cebf71ba98eeadabe20bace049016d09d72d40fdae2fd8ceac6b6234c7706214fd39c1cd1e609a0528c19930052c63247e1f47db19d5ce0460030c497f067ca4cebf71ba98eeadabe20bace0230ce0c4920695ae7b30f6304002cac26f3bffd83b1b84b281d4495ec83956c495abb0fc89def2ee3226cc48f5621ee8e2b45f6dcc7898d2bdb5d480533c32bc0ddf252ad1be2c89b69c2b068fc378daa952ba7f163c4a11628f55a4df523b3eff0c57e16840df040f15088dc2f81fe391c3923bec73e23a9662efc9c229c6a00a264697066735822122070f91f44b322b580940bac969524a199f568d0366fc8ea6937023b7ac505a35764736f6c63430008190033","opcodes":"PUSH1 0x80 DUP1 PUSH1 0x40 MSTORE CALLVALUE PUSH1 0x1A JUMPI PUSH1 0x1 PUSH1 0x4 SSTORE PUSH2 0x3361 SWAP1 DUP2 PUSH2 0x20 DUP3 CODECOPY RETURN JUMPDEST PUSH1 0x0 DUP1 REVERT INVALID PUSH1 0x80 DUP1 PUSH1 0x40 MSTORE PUSH1 0x4 CALLDATASIZE LT ISZERO PUSH2 0x13 JUMPI PUSH1 0x0 DUP1 REVERT JUMPDEST PUSH1 0x0 CALLDATALOAD PUSH1 0xE0 SHR SWAP1 DUP2 PUSH4 0x6FDDE03 EQ PUSH2 0x2285 JUMPI POP DUP1 PUSH4 0x95EA7B3 EQ PUSH2 0x2204 JUMPI DUP1 PUSH4 0xC5C16E6 EQ PUSH2 0x20B9 JUMPI DUP1 PUSH4 0x18160DDD EQ PUSH2 0x208E JUMPI DUP1 PUSH4 0x23B872DD EQ PUSH2 0x1FB2 JUMPI DUP1 PUSH4 0x26827D1C EQ PUSH2 0x1A14 JUMPI DUP1 PUSH4 0x2E0F2625 EQ PUSH2 0x19ED JUMPI DUP1 PUSH4 0x313CE567 EQ PUSH2 0x19D1 JUMPI DUP1 PUSH4 0x31AE1F02 EQ PUSH2 0x19A8 JUMPI DUP1 PUSH4 0x3F0AB0AD EQ PUSH2 0x198A JUMPI DUP1 PUSH4 0x3F4BA83A EQ PUSH2 0x1920 JUMPI DUP1 PUSH4 0x4273CA16 EQ PUSH2 0x111D JUMPI DUP1 PUSH4 0x43148E5A EQ PUSH2 0x10E3 JUMPI DUP1 PUSH4 0x5074E0C8 EQ PUSH2 0x10C5 JUMPI DUP1 PUSH4 0x50D2A276 EQ PUSH2 0x1080 JUMPI DUP1 PUSH4 0x550D01A3 EQ PUSH2 0x1041 JUMPI DUP1 PUSH4 0x5645EEDF EQ PUSH2 0x100A JUMPI DUP1 PUSH4 0x5A3B20BF EQ PUSH2 0xFDD JUMPI DUP1 PUSH4 0x5F4C5EAE EQ PUSH2 0xFA1 JUMPI DUP1 PUSH4 0x63A8FD89 EQ PUSH2 0xF7E JUMPI DUP1 PUSH4 0x6805B84B EQ PUSH2 0xF5B JUMPI DUP1 PUSH4 0x6AE638D0 EQ PUSH2 0xF32 JUMPI DUP1 PUSH4 0x70448BD4 EQ PUSH2 0xE92 JUMPI DUP1 PUSH4 0x70A08231 EQ PUSH2 0xE4B JUMPI DUP1 PUSH4 0x715018A6 EQ PUSH2 0xDE1 JUMPI DUP1 PUSH4 0x7447CE0E EQ PUSH2 0xB80 JUMPI DUP1 PUSH4 0x764A7856 EQ PUSH2 0xAE8 JUMPI DUP1 PUSH4 0x7ED72D16 EQ PUSH2 0xA85 JUMPI DUP1 PUSH4 0x7F4649B7 EQ PUSH2 0xA42 JUMPI DUP1 PUSH4 0x8456CB59 EQ PUSH2 0x9E7 JUMPI DUP1 PUSH4 0x8DA5CB5B EQ PUSH2 0x9B1 JUMPI DUP1 PUSH4 0x95D89B41 EQ PUSH2 0x8DB JUMPI DUP1 PUSH4 0x9EE679E8 EQ PUSH2 0x549 JUMPI DUP1 PUSH4 0xA9059CBB EQ PUSH2 0x518 JUMPI DUP1 PUSH4 0xAA738524 EQ PUSH2 0x4D5 JUMPI DUP1 PUSH4 0xB6F20593 EQ PUSH2 0x4AC JUMPI DUP1 PUSH4 0xB911135F EQ PUSH2 0x478 JUMPI DUP1 PUSH4 0xC40753F9 EQ PUSH2 0x404 JUMPI DUP1 PUSH4 0xD6960D12 EQ PUSH2 0x3E1 JUMPI DUP1 PUSH4 0xD91714A6 EQ PUSH2 0x3B8 JUMPI DUP1 PUSH4 0xDD62ED3E EQ PUSH2 0x36F JUMPI DUP1 PUSH4 0xE06D97BA EQ PUSH2 0x2AB JUMPI DUP1 PUSH4 0xF2847E64 EQ PUSH2 0x233 JUMPI PUSH4 0xF2FDE38B EQ PUSH2 0x203 JUMPI PUSH1 0x0 DUP1 REVERT JUMPDEST CALLVALUE PUSH2 0x22E JUMPI PUSH1 0x20 CALLDATASIZE PUSH1 0x3 NOT ADD SLT PUSH2 0x22E JUMPI PUSH2 0x22C PUSH2 0x21F PUSH2 0x2361 JUMP JUMPDEST PUSH2 0x227 PUSH2 0x274D JUMP JUMPDEST PUSH2 0x25EC JUMP JUMPDEST STOP JUMPDEST PUSH1 0x0 DUP1 REVERT JUMPDEST CALLVALUE PUSH2 0x22E JUMPI PUSH1 0x40 CALLDATASIZE PUSH1 0x3 NOT ADD SLT PUSH2 0x22E JUMPI PUSH2 0x24C PUSH2 0x2361 JUMP JUMPDEST PUSH2 0x254 PUSH2 0x2532 JUMP JUMPDEST POP PUSH1 0x1 DUP1 PUSH1 0xA0 SHL SUB AND PUSH1 0x0 MSTORE PUSH1 0xE PUSH1 0x20 MSTORE PUSH2 0x2A7 PUSH2 0x281 PUSH2 0x27B PUSH1 0x24 CALLDATALOAD PUSH1 0x40 PUSH1 0x0 KECCAK256 PUSH2 0x24B9 JUMP JUMPDEST POP PUSH2 0x24EB JUMP JUMPDEST PUSH1 0x40 DUP1 MLOAD DUP3 MLOAD DUP2 MSTORE PUSH1 0x20 DUP1 DUP5 ADD MLOAD SWAP1 DUP3 ADD MSTORE SWAP2 DUP2 ADD MLOAD ISZERO ISZERO SWAP1 DUP3 ADD MSTORE SWAP1 DUP2 SWAP1 PUSH1 0x60 DUP3 ADD SWAP1 JUMP JUMPDEST SUB SWAP1 RETURN JUMPDEST CALLVALUE PUSH2 0x22E JUMPI PUSH1 0x20 DUP1 PUSH1 0x3 NOT CALLDATASIZE ADD SLT PUSH2 0x22E JUMPI PUSH1 0x0 DUP2 PUSH1 0x1 DUP1 PUSH1 0xA0 SHL SUB PUSH1 0x64 DUP2 PUSH1 0x8 SLOAD AND SWAP2 PUSH1 0x5 SLOAD PUSH1 0x8 SHR AND PUSH1 0x40 MLOAD SWAP5 DUP6 SWAP4 DUP5 SWAP3 PUSH4 0xFB0713B1 PUSH1 0xE0 SHL DUP5 MSTORE PUSH1 0x4 DUP5 ADD MSTORE PUSH1 0x4 CALLDATALOAD PUSH1 0x24 DUP5 ADD MSTORE PUSH1 0x1 PUSH1 0x44 DUP5 ADD MSTORE GAS CALL SWAP1 DUP2 ISZERO PUSH2 0x363 JUMPI PUSH1 0x0 SWAP2 PUSH2 0x32E JUMPI JUMPDEST POP ISZERO PUSH2 0x31C JUMPI PUSH1 0x40 MLOAD PUSH1 0x1 DUP2 MSTORE RETURN JUMPDEST PUSH1 0x40 MLOAD PUSH4 0xAFAAE7A5 PUSH1 0xE0 SHL DUP2 MSTORE PUSH1 0x4 SWAP1 REVERT JUMPDEST SWAP1 POP DUP2 DUP2 DUP2 RETURNDATASIZE DUP4 GT PUSH2 0x35C JUMPI JUMPDEST PUSH2 0x345 DUP2 DUP4 PUSH2 0x23A8 JUMP JUMPDEST DUP2 ADD SUB SLT PUSH2 0x22E JUMPI PUSH2 0x356 SWAP1 PUSH2 0x2525 JUMP JUMPDEST DUP3 PUSH2 0x30D JUMP JUMPDEST POP RETURNDATASIZE PUSH2 0x33B JUMP JUMPDEST PUSH1 0x40 MLOAD RETURNDATASIZE PUSH1 0x0 DUP3 RETURNDATACOPY RETURNDATASIZE SWAP1 REVERT JUMPDEST CALLVALUE PUSH2 0x22E JUMPI PUSH1 0x40 CALLDATASIZE PUSH1 0x3 NOT ADD SLT PUSH2 0x22E JUMPI PUSH2 0x388 PUSH2 0x2361 JUMP JUMPDEST PUSH2 0x399 PUSH2 0x393 PUSH2 0x2377 JUMP JUMPDEST SWAP2 PUSH2 0x242B JUMP JUMPDEST SWAP1 PUSH1 0x1 DUP1 PUSH1 0xA0 SHL SUB AND PUSH1 0x0 MSTORE PUSH1 0x20 MSTORE PUSH1 0x20 PUSH1 0x40 PUSH1 0x0 KECCAK256 SLOAD PUSH1 0x40 MLOAD SWAP1 DUP2 MSTORE RETURN JUMPDEST CALLVALUE PUSH2 0x22E JUMPI PUSH1 0x0 CALLDATASIZE PUSH1 0x3 NOT ADD SLT PUSH2 0x22E JUMPI PUSH1 0x6 SLOAD PUSH1 0x40 MLOAD PUSH1 0x1 PUSH1 0x1 PUSH1 0xA0 SHL SUB SWAP1 SWAP2 AND DUP2 MSTORE PUSH1 0x20 SWAP1 RETURN JUMPDEST CALLVALUE PUSH2 0x22E JUMPI PUSH1 0x0 CALLDATASIZE PUSH1 0x3 NOT ADD SLT PUSH2 0x22E JUMPI PUSH1 0x20 PUSH2 0x3FC PUSH2 0x256B JUMP JUMPDEST PUSH1 0x40 MLOAD SWAP1 DUP2 MSTORE RETURN JUMPDEST CALLVALUE PUSH2 0x22E JUMPI PUSH1 0x60 CALLDATASIZE PUSH1 0x3 NOT ADD SLT PUSH2 0x22E JUMPI PUSH2 0x41D PUSH2 0x2361 JUMP JUMPDEST PUSH1 0x44 CALLDATALOAD DUP1 ISZERO ISZERO DUP2 SUB PUSH2 0x22E JUMPI PUSH1 0xFF PUSH1 0x5 SLOAD AND PUSH2 0x466 JUMPI PUSH2 0x448 SWAP2 PUSH2 0x43F PUSH2 0x2CA5 JUMP JUMPDEST PUSH1 0x24 CALLDATALOAD SWAP1 PUSH2 0x2786 JUMP JUMPDEST ISZERO PUSH2 0x454 JUMPI PUSH1 0x1 PUSH1 0x4 SSTORE STOP JUMPDEST PUSH1 0x40 MLOAD PUSH4 0x79CACFF1 PUSH1 0xE0 SHL DUP2 MSTORE PUSH1 0x4 SWAP1 REVERT JUMPDEST PUSH1 0x40 MLOAD PUSH4 0xAB35696F PUSH1 0xE0 SHL DUP2 MSTORE PUSH1 0x4 SWAP1 REVERT JUMPDEST CALLVALUE PUSH2 0x22E JUMPI PUSH1 0x20 CALLDATASIZE PUSH1 0x3 NOT ADD SLT PUSH2 0x22E JUMPI PUSH1 0x4 CALLDATALOAD PUSH1 0x0 MSTORE PUSH1 0x1 PUSH1 0x20 MSTORE PUSH1 0x20 PUSH1 0x1 DUP1 PUSH1 0xA0 SHL SUB PUSH1 0x40 PUSH1 0x0 KECCAK256 SLOAD AND PUSH1 0x40 MLOAD SWAP1 DUP2 MSTORE RETURN JUMPDEST CALLVALUE PUSH2 0x22E JUMPI PUSH1 0x0 CALLDATASIZE PUSH1 0x3 NOT ADD SLT PUSH2 0x22E JUMPI PUSH1 0x9 SLOAD PUSH1 0x40 MLOAD PUSH1 0x1 PUSH1 0x1 PUSH1 0xA0 SHL SUB SWAP1 SWAP2 AND DUP2 MSTORE PUSH1 0x20 SWAP1 RETURN JUMPDEST CALLVALUE PUSH2 0x22E JUMPI PUSH1 0x20 CALLDATASIZE PUSH1 0x3 NOT ADD SLT PUSH2 0x22E JUMPI PUSH2 0x4EE PUSH2 0x2361 JUMP JUMPDEST PUSH2 0x4F6 PUSH2 0x274D JUMP JUMPDEST PUSH1 0x9 DUP1 SLOAD PUSH1 0x1 PUSH1 0x1 PUSH1 0xA0 SHL SUB NOT AND PUSH1 0x1 PUSH1 0x1 PUSH1 0xA0 SHL SUB SWAP3 SWAP1 SWAP3 AND SWAP2 SWAP1 SWAP2 OR SWAP1 SSTORE STOP JUMPDEST CALLVALUE PUSH2 0x22E JUMPI PUSH1 0x40 CALLDATASIZE PUSH1 0x3 NOT ADD SLT PUSH2 0x22E JUMPI PUSH2 0x53E PUSH2 0x534 PUSH2 0x2361 JUMP JUMPDEST PUSH1 0x24 CALLDATALOAD SWAP1 CALLER PUSH2 0x269E JUMP JUMPDEST PUSH1 0x20 PUSH1 0x40 MLOAD PUSH1 0x1 DUP2 MSTORE RETURN JUMPDEST CALLVALUE PUSH2 0x22E JUMPI PUSH1 0x20 DUP1 PUSH1 0x3 NOT CALLDATASIZE ADD SLT PUSH2 0x22E JUMPI PUSH1 0x5 SLOAD PUSH1 0x4 CALLDATALOAD SWAP2 PUSH1 0xFF SWAP2 DUP3 DUP2 AND PUSH2 0x466 JUMPI PUSH1 0x8 DUP1 SLOAD PUSH1 0x40 MLOAD PUSH4 0x5AF8CED9 PUSH1 0xE1 SHL DUP2 MSTORE SWAP3 SWAP1 SWAP2 SHR PUSH1 0x1 PUSH1 0x1 PUSH1 0xA0 SHL SUB SWAP1 DUP2 AND PUSH1 0x4 DUP5 ADD MSTORE SWAP4 SWAP1 DUP4 SWAP1 DUP4 SWAP1 PUSH1 0x24 SWAP1 DUP3 SWAP1 DUP9 AND GAS STATICCALL SWAP2 DUP3 ISZERO PUSH2 0x363 JUMPI PUSH1 0x0 SWAP3 PUSH2 0x8AC JUMPI JUMPDEST POP CALLER PUSH1 0x0 MSTORE PUSH1 0x0 DUP1 MLOAD PUSH1 0x20 PUSH2 0x31EC DUP4 CODECOPY DUP2 MLOAD SWAP2 MSTORE SWAP4 DUP5 DUP5 MSTORE DUP6 PUSH1 0x40 PUSH1 0x0 KECCAK256 SLOAD LT PUSH2 0x89A JUMPI PUSH1 0xC SLOAD DUP7 LT PUSH2 0x888 JUMPI CALLER PUSH1 0x0 MSTORE PUSH1 0x10 DUP5 MSTORE DUP2 PUSH1 0x40 PUSH1 0x0 KECCAK256 SLOAD AND DUP3 PUSH1 0xD SLOAD AND EQ PUSH2 0x876 JUMPI PUSH2 0x5FE PUSH2 0x3005 JUMP JUMPDEST DUP1 PUSH1 0xA SSTORE PUSH1 0x0 DUP1 MLOAD PUSH1 0x20 PUSH2 0x32AC DUP4 CODECOPY DUP2 MLOAD SWAP2 MSTORE DUP6 PUSH1 0x40 MLOAD DUP4 DUP2 MSTORE LOG1 DUP1 DUP8 MUL SWAP1 DUP8 DUP3 DIV EQ DUP8 ISZERO OR ISZERO PUSH2 0x860 JUMPI DUP5 PUSH2 0x669 SWAP2 PUSH8 0x6765C793FA10079D PUSH1 0x1B SHL SWAP1 DIV DUP4 DUP2 SWAP5 PUSH1 0x8 SLOAD AND SWAP1 PUSH1 0x5 SLOAD PUSH1 0x8 SHR AND PUSH1 0x0 PUSH1 0x40 MLOAD DUP1 SWAP7 DUP2 SWAP6 DUP3 SWAP5 PUSH4 0xDA95EBF7 PUSH1 0xE0 SHL DUP5 MSTORE PUSH1 0x4 DUP5 ADD PUSH2 0x249E JUMP JUMPDEST SUB SWAP3 GAS CALL SWAP1 DUP2 ISZERO PUSH2 0x363 JUMPI PUSH1 0x0 SWAP2 PUSH2 0x82B JUMPI JUMPDEST POP ISZERO PUSH2 0x819 JUMPI CALLER PUSH1 0x0 MSTORE PUSH1 0xE DUP5 MSTORE PUSH2 0x699 PUSH1 0x40 PUSH1 0x0 KECCAK256 SWAP4 NUMBER PUSH2 0x2518 JUMP JUMPDEST SWAP1 PUSH1 0x40 MLOAD SWAP2 PUSH2 0x6A7 DUP4 PUSH2 0x238D JUMP JUMPDEST DUP3 MSTORE DUP5 DUP3 ADD SWAP1 DUP2 MSTORE PUSH1 0x40 DUP3 ADD SWAP4 PUSH1 0x0 DUP6 MSTORE DUP1 SLOAD PUSH1 0x1 PUSH1 0x40 SHL DUP2 LT ISZERO PUSH2 0x803 JUMPI PUSH2 0x6D5 SWAP2 PUSH1 0x1 DUP3 ADD DUP2 SSTORE PUSH2 0x24B9 JUMP JUMPDEST SWAP2 SWAP1 SWAP2 PUSH2 0x7ED JUMPI PUSH1 0x2 SWAP3 MLOAD DUP3 SSTORE MLOAD PUSH1 0x1 DUP3 ADD SSTORE ADD SWAP2 MLOAD ISZERO ISZERO SWAP2 PUSH1 0xFF NOT SWAP3 DUP3 DUP5 DUP4 SLOAD AND SWAP2 AND OR SWAP1 SSTORE CALLER PUSH1 0x0 MSTORE PUSH1 0xF DUP4 MSTORE PUSH1 0x40 PUSH1 0x0 KECCAK256 PUSH1 0x1 DUP2 SLOAD ADD SWAP1 SSTORE PUSH1 0x10 DUP4 MSTORE PUSH1 0x40 PUSH1 0x0 KECCAK256 SWAP2 DUP3 SLOAD SWAP2 PUSH1 0x1 DUP2 DUP5 AND ADD AND SWAP2 AND OR SWAP1 SSTORE CALLER ISZERO PUSH2 0x7D4 JUMPI CALLER PUSH1 0x0 MSTORE DUP2 DUP2 MSTORE DUP3 PUSH1 0x40 PUSH1 0x0 KECCAK256 SLOAD SWAP3 DUP2 DUP5 LT PUSH2 0x7B0 JUMPI SWAP3 PUSH32 0xE670E4E82118D22A1F9EE18920455EBC958BAE26A90A05D31D3378788B1B0E44 SWAP4 CALLER PUSH1 0x0 MSTORE DUP4 MSTORE SUB PUSH1 0x40 PUSH1 0x0 KECCAK256 SSTORE PUSH1 0x0 DUP1 MLOAD PUSH1 0x20 PUSH2 0x328C DUP4 CODECOPY DUP2 MLOAD SWAP2 MSTORE DUP4 DUP2 SLOAD SUB SWAP1 SSTORE PUSH1 0x0 PUSH1 0x40 MLOAD DUP5 DUP2 MSTORE PUSH1 0x0 DUP1 MLOAD PUSH1 0x20 PUSH2 0x32EC DUP4 CODECOPY DUP2 MLOAD SWAP2 MSTORE DUP4 CALLER SWAP3 LOG3 PUSH1 0x40 MLOAD SWAP3 DUP4 MSTORE CALLER SWAP3 LOG2 STOP JUMPDEST POP PUSH1 0x40 MLOAD PUSH4 0x391434E3 PUSH1 0xE2 SHL DUP2 MSTORE SWAP1 DUP2 SWAP1 PUSH2 0x7D0 SWAP1 DUP6 CALLER PUSH1 0x4 DUP6 ADD PUSH2 0x2680 JUMP JUMPDEST SUB SWAP1 REVERT JUMPDEST PUSH1 0x40 MLOAD PUSH4 0x4B637E8F PUSH1 0xE1 SHL DUP2 MSTORE PUSH1 0x0 PUSH1 0x4 DUP3 ADD MSTORE PUSH1 0x24 SWAP1 REVERT JUMPDEST PUSH4 0x4E487B71 PUSH1 0xE0 SHL PUSH1 0x0 MSTORE PUSH1 0x0 PUSH1 0x4 MSTORE PUSH1 0x24 PUSH1 0x0 REVERT JUMPDEST PUSH4 0x4E487B71 PUSH1 0xE0 SHL PUSH1 0x0 MSTORE PUSH1 0x41 PUSH1 0x4 MSTORE PUSH1 0x24 PUSH1 0x0 REVERT JUMPDEST PUSH1 0x40 MLOAD PUSH4 0x1A71704D PUSH1 0xE0 SHL DUP2 MSTORE PUSH1 0x4 SWAP1 REVERT JUMPDEST SWAP1 POP DUP5 DUP2 DUP2 RETURNDATASIZE DUP4 GT PUSH2 0x859 JUMPI JUMPDEST PUSH2 0x842 DUP2 DUP4 PUSH2 0x23A8 JUMP JUMPDEST DUP2 ADD SUB SLT PUSH2 0x22E JUMPI PUSH2 0x853 SWAP1 PUSH2 0x2525 JUMP JUMPDEST DUP8 PUSH2 0x67C JUMP JUMPDEST POP RETURNDATASIZE PUSH2 0x838 JUMP JUMPDEST PUSH4 0x4E487B71 PUSH1 0xE0 SHL PUSH1 0x0 MSTORE PUSH1 0x11 PUSH1 0x4 MSTORE PUSH1 0x24 PUSH1 0x0 REVERT JUMPDEST PUSH1 0x40 MLOAD PUSH4 0x283DA263 PUSH1 0xE2 SHL DUP2 MSTORE PUSH1 0x4 SWAP1 REVERT JUMPDEST PUSH1 0x40 MLOAD PUSH4 0x6B15D6E5 PUSH1 0xE0 SHL DUP2 MSTORE PUSH1 0x4 SWAP1 REVERT JUMPDEST PUSH1 0x40 MLOAD PUSH4 0x1036B5AD PUSH1 0xE3 SHL DUP2 MSTORE PUSH1 0x4 SWAP1 REVERT JUMPDEST SWAP1 SWAP2 POP DUP3 DUP2 DUP2 RETURNDATASIZE DUP4 GT PUSH2 0x8D4 JUMPI JUMPDEST PUSH2 0x8C4 DUP2 DUP4 PUSH2 0x23A8 JUMP JUMPDEST DUP2 ADD SUB SLT PUSH2 0x22E JUMPI MLOAD SWAP1 DUP6 PUSH2 0x5AF JUMP JUMPDEST POP RETURNDATASIZE PUSH2 0x8BA JUMP JUMPDEST CALLVALUE PUSH2 0x22E JUMPI PUSH1 0x0 CALLDATASIZE PUSH1 0x3 NOT ADD SLT PUSH2 0x22E JUMPI PUSH1 0x40 MLOAD PUSH1 0x0 DUP1 MLOAD PUSH1 0x20 PUSH2 0x324C DUP4 CODECOPY DUP2 MLOAD SWAP2 MSTORE DUP1 SLOAD DUP3 PUSH1 0x0 PUSH2 0x90C DUP4 PUSH2 0x2464 JUMP JUMPDEST SWAP3 DUP4 DUP4 MSTORE PUSH1 0x20 SWAP5 PUSH1 0x1 SWAP2 DUP7 PUSH1 0x1 DUP3 AND SWAP2 DUP3 PUSH1 0x0 EQ PUSH2 0x98F JUMPI POP POP PUSH1 0x1 EQ PUSH2 0x950 JUMPI JUMPDEST POP POP PUSH2 0x93C SWAP3 POP SUB DUP4 PUSH2 0x23A8 JUMP JUMPDEST PUSH2 0x2A7 PUSH1 0x40 MLOAD SWAP3 DUP3 DUP5 SWAP4 DUP5 MSTORE DUP4 ADD SWAP1 PUSH2 0x2321 JUMP JUMPDEST DUP6 SWAP3 POP PUSH1 0x0 MSTORE DUP2 PUSH1 0x0 KECCAK256 SWAP1 PUSH1 0x0 SWAP2 JUMPDEST DUP6 DUP4 LT PUSH2 0x977 JUMPI POP POP PUSH2 0x93C SWAP4 POP DUP3 ADD ADD DUP6 DUP1 PUSH2 0x92E JUMP JUMPDEST DUP1 SLOAD DUP4 DUP10 ADD DUP6 ADD MSTORE DUP8 SWAP5 POP DUP7 SWAP4 SWAP1 SWAP3 ADD SWAP2 DUP2 ADD PUSH2 0x95F JUMP JUMPDEST SWAP3 POP SWAP4 POP POP PUSH2 0x93C SWAP5 SWAP2 POP PUSH1 0xFF NOT AND DUP3 DUP5 ADD MSTORE ISZERO ISZERO PUSH1 0x5 SHL DUP3 ADD ADD DUP6 DUP1 PUSH2 0x92E JUMP JUMPDEST CALLVALUE PUSH2 0x22E JUMPI PUSH1 0x0 CALLDATASIZE PUSH1 0x3 NOT ADD SLT PUSH2 0x22E JUMPI PUSH1 0x0 DUP1 MLOAD PUSH1 0x20 PUSH2 0x326C DUP4 CODECOPY DUP2 MLOAD SWAP2 MSTORE SLOAD PUSH1 0x40 MLOAD PUSH1 0x1 PUSH1 0x1 PUSH1 0xA0 SHL SUB SWAP1 SWAP2 AND DUP2 MSTORE PUSH1 0x20 SWAP1 RETURN JUMPDEST CALLVALUE PUSH2 0x22E JUMPI PUSH1 0x0 CALLDATASIZE PUSH1 0x3 NOT ADD SLT PUSH2 0x22E JUMPI PUSH2 0xA00 PUSH2 0x274D JUMP JUMPDEST PUSH1 0x5 SLOAD PUSH1 0xFF DUP2 AND PUSH2 0x466 JUMPI PUSH1 0x1 SWAP1 PUSH1 0xFF NOT AND OR PUSH1 0x5 SSTORE PUSH32 0x62E78CEA01BEE320CD4E420270B5EA74000D11B0C9F74754EBDBFC544B05A258 PUSH1 0x20 PUSH1 0x40 MLOAD CALLER DUP2 MSTORE LOG1 STOP JUMPDEST CALLVALUE PUSH2 0x22E JUMPI PUSH1 0x20 CALLDATASIZE PUSH1 0x3 NOT ADD SLT PUSH2 0x22E JUMPI PUSH2 0xA5B PUSH2 0x2361 JUMP JUMPDEST PUSH2 0xA63 PUSH2 0x274D JUMP JUMPDEST PUSH1 0x8 DUP1 SLOAD PUSH1 0x1 PUSH1 0x1 PUSH1 0xA0 SHL SUB NOT AND PUSH1 0x1 PUSH1 0x1 PUSH1 0xA0 SHL SUB SWAP3 SWAP1 SWAP3 AND SWAP2 SWAP1 SWAP2 OR SWAP1 SSTORE STOP JUMPDEST CALLVALUE PUSH2 0x22E JUMPI PUSH1 0x20 CALLDATASIZE PUSH1 0x3 NOT ADD SLT PUSH2 0x22E JUMPI PUSH2 0xA9E PUSH2 0x2361 JUMP JUMPDEST PUSH2 0xAA6 PUSH2 0x2532 JUMP JUMPDEST POP PUSH1 0x1 PUSH1 0x1 PUSH1 0xA0 SHL SUB AND PUSH1 0x0 DUP2 DUP2 MSTORE PUSH1 0xF PUSH1 0x20 MSTORE PUSH1 0x40 SWAP1 KECCAK256 SLOAD PUSH1 0x0 NOT DUP2 ADD SWAP1 DUP2 GT PUSH2 0x860 JUMPI PUSH2 0x27B PUSH2 0x281 SWAP2 PUSH2 0x2A7 SWAP4 PUSH1 0x0 MSTORE PUSH1 0xE PUSH1 0x20 MSTORE PUSH1 0x40 PUSH1 0x0 KECCAK256 PUSH2 0x24B9 JUMP JUMPDEST CALLVALUE PUSH2 0x22E JUMPI PUSH1 0x0 CALLDATASIZE PUSH1 0x3 NOT ADD SLT PUSH2 0x22E JUMPI PUSH1 0x0 PUSH1 0x20 PUSH1 0x1 DUP1 PUSH1 0xA0 SHL SUB PUSH1 0x24 DUP2 PUSH1 0x9 SLOAD AND SWAP2 PUSH1 0x5 SLOAD PUSH1 0x8 SHR AND PUSH1 0x40 MLOAD SWAP5 DUP6 SWAP4 DUP5 SWAP3 PUSH3 0xF0F85B PUSH1 0xE5 SHL DUP5 MSTORE PUSH1 0x4 DUP5 ADD MSTORE GAS CALL DUP1 ISZERO PUSH2 0x363 JUMPI PUSH1 0x0 SWAP1 PUSH2 0xB46 JUMPI JUMPDEST PUSH1 0x20 SWAP1 PUSH1 0x40 MLOAD SWAP1 ISZERO ISZERO DUP2 MSTORE RETURN JUMPDEST POP PUSH1 0x20 DUP2 RETURNDATASIZE PUSH1 0x20 GT PUSH2 0xB78 JUMPI JUMPDEST DUP2 PUSH2 0xB60 PUSH1 0x20 SWAP4 DUP4 PUSH2 0x23A8 JUMP JUMPDEST DUP2 ADD SUB SLT PUSH2 0x22E JUMPI PUSH2 0xB73 PUSH1 0x20 SWAP2 PUSH2 0x2525 JUMP JUMPDEST PUSH2 0xB39 JUMP JUMPDEST RETURNDATASIZE SWAP2 POP PUSH2 0xB53 JUMP JUMPDEST CALLVALUE PUSH2 0x22E JUMPI PUSH1 0x20 DUP1 PUSH1 0x3 NOT CALLDATASIZE ADD SLT PUSH2 0x22E JUMPI PUSH1 0x4 CALLDATALOAD PUSH1 0xFF PUSH1 0x5 SLOAD AND PUSH2 0x466 JUMPI CALLER PUSH1 0x0 MSTORE PUSH1 0xE DUP3 MSTORE PUSH1 0x40 PUSH1 0x0 KECCAK256 SLOAD DUP2 LT ISZERO PUSH2 0xDCF JUMPI CALLER PUSH1 0x0 MSTORE PUSH1 0xE DUP3 MSTORE PUSH2 0xBCA DUP2 PUSH1 0x40 PUSH1 0x0 KECCAK256 PUSH2 0x24B9 JUMP JUMPDEST POP SWAP1 PUSH1 0x1 PUSH1 0xFF PUSH1 0x2 DUP5 ADD SLOAD AND ISZERO ISZERO EQ PUSH2 0xDBD JUMPI DUP2 SLOAD NUMBER LT PUSH2 0xDAB JUMPI PUSH2 0xBFD PUSH1 0x2 SWAP2 CALLER PUSH1 0x0 MSTORE PUSH1 0xE DUP6 MSTORE PUSH1 0x40 PUSH1 0x0 KECCAK256 PUSH2 0x24B9 JUMP JUMPDEST POP ADD SWAP1 PUSH1 0xFF NOT SWAP2 PUSH1 0x1 DUP4 DUP3 SLOAD AND OR SWAP1 SSTORE CALLER PUSH1 0x0 MSTORE PUSH1 0x10 DUP4 MSTORE PUSH1 0x40 PUSH1 0x0 KECCAK256 SWAP1 DUP2 SLOAD SWAP2 PUSH1 0xFF DUP4 AND SWAP3 DUP4 ISZERO PUSH2 0x860 JUMPI PUSH4 0x3B9ACA00 SWAP5 PUSH1 0xFF PUSH1 0x1 SWAP6 PUSH1 0x0 NOT ADD AND SWAP2 AND OR SWAP1 SSTORE ADD SLOAD DIV SWAP1 PUSH1 0x1 DUP1 PUSH1 0xA0 SHL SUB SWAP1 PUSH1 0x24 DUP2 DUP4 PUSH1 0x7 SLOAD AND PUSH1 0x40 MLOAD SWAP3 DUP4 DUP1 SWAP3 PUSH4 0x70A08231 PUSH1 0xE0 SHL DUP3 MSTORE ADDRESS PUSH1 0x4 DUP4 ADD MSTORE GAS STATICCALL DUP1 ISZERO PUSH2 0x363 JUMPI DUP5 SWAP2 PUSH1 0x0 SWAP2 PUSH2 0xD7A JUMPI JUMPDEST POP LT PUSH2 0xCB7 JUMPI POP DUP2 PUSH2 0xCA5 PUSH1 0x0 DUP1 MLOAD PUSH1 0x20 PUSH2 0x32CC DUP4 CODECOPY DUP2 MLOAD SWAP2 MSTORE SWAP4 PUSH2 0xCB2 SWAP4 CALLER SWAP1 PUSH1 0x7 SLOAD AND PUSH2 0x2F30 JUMP JUMPDEST PUSH1 0x40 MLOAD SWAP2 DUP3 SWAP2 CALLER DUP4 PUSH2 0x249E JUMP JUMPDEST SUB SWAP1 LOG1 STOP JUMPDEST PUSH2 0xCBF PUSH2 0x2CFE JUMP JUMPDEST DUP1 PUSH2 0xCEF JUMPI JUMPDEST POP POP DUP2 PUSH2 0xCEA PUSH1 0x0 DUP1 MLOAD PUSH1 0x20 PUSH2 0x32CC DUP4 CODECOPY DUP2 MLOAD SWAP2 MSTORE SWAP4 PUSH2 0xCB2 SWAP4 CALLER SWAP1 PUSH1 0x7 SLOAD AND PUSH2 0x2F30 JUMP JUMPDEST PUSH2 0xCA5 JUMP JUMPDEST DUP2 DUP4 PUSH1 0x8 SLOAD AND SWAP2 PUSH1 0x64 DUP6 PUSH1 0x5 SLOAD PUSH1 0x8 SHR AND PUSH1 0x0 PUSH1 0x40 MLOAD SWAP6 DUP7 SWAP5 DUP6 SWAP4 PUSH4 0xFB0713B1 PUSH1 0xE0 SHL DUP6 MSTORE PUSH1 0x4 DUP6 ADD MSTORE PUSH1 0x24 DUP5 ADD MSTORE PUSH1 0x1 PUSH1 0x44 DUP5 ADD MSTORE GAS CALL SWAP2 DUP3 ISZERO PUSH2 0x363 JUMPI PUSH1 0x0 SWAP3 PUSH2 0xD44 JUMPI JUMPDEST POP POP ISZERO PUSH2 0x31C JUMPI DUP3 DUP1 PUSH2 0xCC5 JUMP JUMPDEST SWAP1 DUP1 SWAP3 POP DUP2 RETURNDATASIZE DUP4 GT PUSH2 0xD73 JUMPI JUMPDEST PUSH2 0xD5B DUP2 DUP4 PUSH2 0x23A8 JUMP JUMPDEST DUP2 ADD SUB SLT PUSH2 0x22E JUMPI PUSH2 0xD6C SWAP1 PUSH2 0x2525 JUMP JUMPDEST DUP4 DUP1 PUSH2 0xD36 JUMP JUMPDEST POP RETURNDATASIZE PUSH2 0xD51 JUMP JUMPDEST DUP1 SWAP3 POP DUP4 DUP1 SWAP3 POP RETURNDATASIZE DUP4 GT PUSH2 0xDA4 JUMPI JUMPDEST PUSH2 0xD93 DUP2 DUP4 PUSH2 0x23A8 JUMP JUMPDEST DUP2 ADD SUB SLT PUSH2 0x22E JUMPI DUP4 SWAP1 MLOAD DUP6 PUSH2 0xC7B JUMP JUMPDEST POP RETURNDATASIZE PUSH2 0xD89 JUMP JUMPDEST PUSH1 0x40 MLOAD PUSH4 0x78F67AE1 PUSH1 0xE1 SHL DUP2 MSTORE PUSH1 0x4 SWAP1 REVERT JUMPDEST PUSH1 0x40 MLOAD PUSH4 0x29AF1D31 PUSH1 0xE2 SHL DUP2 MSTORE PUSH1 0x4 SWAP1 REVERT JUMPDEST PUSH1 0x40 MLOAD PUSH4 0xE92D106B PUSH1 0xE0 SHL DUP2 MSTORE PUSH1 0x4 SWAP1 REVERT JUMPDEST CALLVALUE PUSH2 0x22E JUMPI PUSH1 0x0 CALLDATASIZE PUSH1 0x3 NOT ADD SLT PUSH2 0x22E JUMPI PUSH2 0xDFA PUSH2 0x274D JUMP JUMPDEST PUSH1 0x0 DUP1 MLOAD PUSH1 0x20 PUSH2 0x326C DUP4 CODECOPY DUP2 MLOAD SWAP2 MSTORE DUP1 SLOAD PUSH1 0x1 PUSH1 0x1 PUSH1 0xA0 SHL SUB NOT DUP2 AND SWAP1 SWAP2 SSTORE PUSH1 0x0 SWAP1 PUSH1 0x1 PUSH1 0x1 PUSH1 0xA0 SHL SUB AND PUSH32 0x8BE0079C531659141344CD1FD0A4F28419497F9722A3DAAFE3B4186F6B6457E0 DUP3 DUP1 LOG3 STOP JUMPDEST CALLVALUE PUSH2 0x22E JUMPI PUSH1 0x20 CALLDATASIZE PUSH1 0x3 NOT ADD SLT PUSH2 0x22E JUMPI PUSH1 0x1 PUSH1 0x1 PUSH1 0xA0 SHL SUB PUSH2 0xE6C PUSH2 0x2361 JUMP JUMPDEST AND PUSH1 0x0 MSTORE PUSH1 0x0 DUP1 MLOAD PUSH1 0x20 PUSH2 0x31EC DUP4 CODECOPY DUP2 MLOAD SWAP2 MSTORE PUSH1 0x20 MSTORE PUSH1 0x20 PUSH1 0x40 PUSH1 0x0 KECCAK256 SLOAD PUSH1 0x40 MLOAD SWAP1 DUP2 MSTORE RETURN JUMPDEST CALLVALUE PUSH2 0x22E JUMPI PUSH1 0x20 DUP1 PUSH1 0x3 NOT CALLDATASIZE ADD SLT PUSH2 0x22E JUMPI PUSH2 0xEAC PUSH2 0x2361 JUMP JUMPDEST PUSH1 0x1 PUSH1 0x1 PUSH1 0xA0 SHL SUB AND PUSH1 0x0 DUP2 DUP2 MSTORE PUSH1 0xF PUSH1 0x20 MSTORE PUSH1 0x40 DUP2 KECCAK256 SLOAD SWAP1 SWAP3 SWAP1 SWAP2 DUP4 JUMPDEST DUP4 DUP2 LT PUSH2 0xEDC JUMPI PUSH1 0x20 DUP6 PUSH1 0x40 MLOAD SWAP1 DUP2 MSTORE RETURN JUMPDEST DUP2 PUSH1 0x0 MSTORE PUSH1 0xE DUP4 MSTORE PUSH2 0xEF5 PUSH2 0x27B DUP3 PUSH1 0x40 PUSH1 0x0 KECCAK256 PUSH2 0x24B9 JUMP JUMPDEST PUSH1 0x40 DUP2 ADD MLOAD ISZERO DUP1 PUSH2 0xF27 JUMPI JUMPDEST PUSH2 0xF0F JUMPI JUMPDEST POP PUSH1 0x1 ADD PUSH2 0xECA JUMP JUMPDEST PUSH1 0x1 SWAP2 SWAP6 DUP5 PUSH2 0xF20 SWAP3 ADD MLOAD SWAP1 PUSH2 0x2518 JUMP JUMPDEST SWAP5 SWAP1 PUSH2 0xF06 JUMP JUMPDEST POP NUMBER DUP2 MLOAD GT ISZERO PUSH2 0xF01 JUMP JUMPDEST CALLVALUE PUSH2 0x22E JUMPI PUSH1 0x0 CALLDATASIZE PUSH1 0x3 NOT ADD SLT PUSH2 0x22E JUMPI PUSH1 0x7 SLOAD PUSH1 0x40 MLOAD PUSH1 0x1 PUSH1 0x1 PUSH1 0xA0 SHL SUB SWAP1 SWAP2 AND DUP2 MSTORE PUSH1 0x20 SWAP1 RETURN JUMPDEST CALLVALUE PUSH2 0x22E JUMPI PUSH1 0x0 CALLDATASIZE PUSH1 0x3 NOT ADD SLT PUSH2 0x22E JUMPI PUSH1 0x20 PUSH1 0xFF PUSH1 0x5 SLOAD AND PUSH1 0x40 MLOAD SWAP1 ISZERO ISZERO DUP2 MSTORE RETURN JUMPDEST CALLVALUE PUSH2 0x22E JUMPI PUSH1 0x0 CALLDATASIZE PUSH1 0x3 NOT ADD SLT PUSH2 0x22E JUMPI PUSH1 0x20 PUSH1 0xFF PUSH1 0x0 SLOAD AND PUSH1 0x40 MLOAD SWAP1 ISZERO ISZERO DUP2 MSTORE RETURN JUMPDEST CALLVALUE PUSH2 0x22E JUMPI PUSH1 0x40 CALLDATASIZE PUSH1 0x3 NOT ADD SLT PUSH2 0x22E JUMPI PUSH1 0x24 CALLDATALOAD DUP1 ISZERO ISZERO DUP2 SUB PUSH2 0x22E JUMPI PUSH1 0xFF PUSH1 0x5 SLOAD AND PUSH2 0x466 JUMPI PUSH2 0x448 SWAP1 PUSH2 0xFD4 PUSH2 0x2CA5 JUMP JUMPDEST PUSH1 0x4 CALLDATALOAD CALLER PUSH2 0x2786 JUMP JUMPDEST CALLVALUE PUSH2 0x22E JUMPI PUSH1 0x0 CALLDATASIZE PUSH1 0x3 NOT ADD SLT PUSH2 0x22E JUMPI PUSH1 0x5 SLOAD PUSH1 0x40 MLOAD PUSH1 0x8 SWAP2 SWAP1 SWAP2 SHR PUSH1 0x1 PUSH1 0x1 PUSH1 0xA0 SHL SUB AND DUP2 MSTORE PUSH1 0x20 SWAP1 RETURN JUMPDEST CALLVALUE PUSH2 0x22E JUMPI PUSH1 0x20 CALLDATASIZE PUSH1 0x3 NOT ADD SLT PUSH2 0x22E JUMPI PUSH1 0x4 CALLDATALOAD PUSH1 0xFF DUP2 AND DUP1 SWAP2 SUB PUSH2 0x22E JUMPI PUSH2 0x1031 PUSH2 0x274D JUMP JUMPDEST PUSH1 0xFF NOT PUSH1 0xD SLOAD AND OR PUSH1 0xD SSTORE PUSH1 0x0 DUP1 RETURN JUMPDEST CALLVALUE PUSH2 0x22E JUMPI PUSH1 0x20 CALLDATASIZE PUSH1 0x3 NOT ADD SLT PUSH2 0x22E JUMPI PUSH1 0x1 PUSH1 0x1 PUSH1 0xA0 SHL SUB PUSH2 0x1062 PUSH2 0x2361 JUMP JUMPDEST AND PUSH1 0x0 MSTORE PUSH1 0x2 PUSH1 0x20 MSTORE PUSH1 0x20 PUSH1 0xFF PUSH1 0x40 PUSH1 0x0 KECCAK256 SLOAD AND PUSH1 0x40 MLOAD SWAP1 ISZERO ISZERO DUP2 MSTORE RETURN JUMPDEST CALLVALUE PUSH2 0x22E JUMPI PUSH1 0x20 CALLDATASIZE PUSH1 0x3 NOT ADD SLT PUSH2 0x22E JUMPI PUSH1 0x4 CALLDATALOAD PUSH4 0xFFFFFFFF PUSH1 0xE0 SHL DUP2 AND DUP1 SWAP2 SUB PUSH2 0x22E JUMPI PUSH1 0x0 MSTORE PUSH1 0x3 PUSH1 0x20 MSTORE PUSH1 0x20 PUSH1 0x1 DUP1 PUSH1 0xA0 SHL SUB PUSH1 0x40 PUSH1 0x0 KECCAK256 SLOAD AND PUSH1 0x40 MLOAD SWAP1 DUP2 MSTORE RETURN JUMPDEST CALLVALUE PUSH2 0x22E JUMPI PUSH1 0x0 CALLDATASIZE PUSH1 0x3 NOT ADD SLT PUSH2 0x22E JUMPI PUSH1 0x20 PUSH1 0xA SLOAD PUSH1 0x40 MLOAD SWAP1 DUP2 MSTORE RETURN JUMPDEST CALLVALUE PUSH2 0x22E JUMPI PUSH1 0x20 CALLDATASIZE PUSH1 0x3 NOT ADD SLT PUSH2 0x22E JUMPI PUSH1 0x1 PUSH1 0x1 PUSH1 0xA0 SHL SUB PUSH2 0x1104 PUSH2 0x2361 JUMP JUMPDEST AND PUSH1 0x0 MSTORE PUSH1 0xF PUSH1 0x20 MSTORE PUSH1 0x20 PUSH1 0x40 PUSH1 0x0 KECCAK256 SLOAD PUSH1 0x40 MLOAD SWAP1 DUP2 MSTORE RETURN JUMPDEST CALLVALUE PUSH2 0x22E JUMPI PUSH1 0x80 CALLDATASIZE PUSH1 0x3 NOT ADD SLT PUSH2 0x22E JUMPI PUSH2 0x1136 PUSH2 0x2361 JUMP JUMPDEST PUSH2 0x113E PUSH2 0x2377 JUMP JUMPDEST POP PUSH1 0x64 CALLDATALOAD SWAP1 PUSH1 0x1 PUSH1 0x1 PUSH1 0x40 SHL SUB SWAP1 DUP2 DUP4 GT PUSH2 0x22E JUMPI CALLDATASIZE PUSH1 0x23 DUP5 ADD SLT ISZERO PUSH2 0x22E JUMPI DUP3 PUSH1 0x4 ADD CALLDATALOAD SWAP2 DUP3 GT PUSH2 0x22E JUMPI PUSH1 0x24 SWAP2 CALLDATASIZE DUP4 DUP3 DUP7 ADD ADD GT PUSH2 0x22E JUMPI PUSH1 0x1 DUP1 PUSH1 0xA0 SHL SUB SWAP1 DUP2 PUSH1 0x7 SLOAD AND CALLER EQ SWAP1 DUP2 ISZERO DUP1 PUSH2 0x1912 JUMPI JUMPDEST PUSH2 0x1900 JUMPI PUSH1 0x40 SUB PUSH2 0x18EE JUMPI DUP5 DUP3 PUSH1 0x30 PUSH1 0x44 SWAP8 ADD CALLDATALOAD PUSH1 0x60 SHR SWAP7 DUP8 SWAP3 ADD CALLDATALOAD SWAP5 PUSH32 0xF2614FCBF14CBF4A7DA32993C2A710192B418D7ACC7875C66A07EB81D3C07BA5 PUSH1 0x40 MLOAD DUP1 PUSH2 0x11DD DUP10 DUP8 DUP4 PUSH2 0x249E JUMP JUMPDEST SUB SWAP1 LOG1 AND EQ DUP1 ISZERO SWAP1 PUSH2 0x18E2 JUMPI JUMPDEST PUSH2 0x18D0 JUMPI ISZERO PUSH2 0x1561 JUMPI DUP4 PUSH1 0x0 MSTORE PUSH1 0x20 SWAP1 PUSH1 0x12 DUP3 MSTORE PUSH1 0xFF PUSH1 0x40 PUSH1 0x0 KECCAK256 SLOAD AND ISZERO PUSH2 0x14E0 JUMPI JUMPDEST DUP3 ISZERO PUSH2 0x14CE JUMPI DUP2 PUSH1 0xB SLOAD ISZERO ISZERO DUP1 PUSH2 0x146B JUMPI JUMPDEST PUSH2 0x13D0 JUMPI JUMPDEST PUSH2 0x12CB SWAP2 NUMBER PUSH1 0xB SSTORE PUSH1 0x0 DUP1 MLOAD PUSH1 0x20 PUSH2 0x32AC DUP4 CODECOPY DUP2 MLOAD SWAP2 MSTORE DUP3 PUSH2 0x1244 PUSH2 0x3005 JUMP JUMPDEST DUP1 PUSH1 0xA SSTORE PUSH1 0x40 MLOAD SWAP1 DUP2 MSTORE LOG1 PUSH2 0x1260 DUP6 DUP3 PUSH1 0x7 SLOAD AND DUP10 ADDRESS SWAP2 PUSH2 0x306C JUMP JUMPDEST DUP1 PUSH1 0x8 SLOAD AND SWAP1 PUSH2 0x1291 DUP2 PUSH1 0x5 SLOAD PUSH1 0x8 SHR AND SWAP3 PUSH2 0x1283 PUSH1 0x40 MLOAD SWAP5 DUP6 SWAP3 DUP8 DUP5 ADD PUSH2 0x2551 JUMP JUMPDEST SUB PUSH1 0x1F NOT DUP2 ADD DUP5 MSTORE DUP4 PUSH2 0x23A8 JUMP JUMPDEST DUP1 PUSH1 0x7 SLOAD AND SWAP1 PUSH1 0x6 SLOAD AND PUSH1 0x0 PUSH1 0x40 MLOAD DUP1 SWAP7 DUP2 SWAP6 DUP3 SWAP5 PUSH4 0xCAE9CA51 PUSH1 0xE0 SHL DUP5 MSTORE PUSH1 0x4 DUP5 ADD MSTORE DUP11 DUP13 DUP5 ADD MSTORE PUSH1 0x60 PUSH1 0x44 DUP5 ADD MSTORE PUSH1 0x64 DUP4 ADD SWAP1 PUSH2 0x2321 JUMP JUMPDEST SUB SWAP3 GAS CALL SWAP1 DUP2 ISZERO PUSH2 0x363 JUMPI PUSH1 0x0 SWAP2 PUSH2 0x139B JUMPI JUMPDEST POP ISZERO PUSH2 0x1389 JUMPI PUSH4 0x3B9ACA00 DUP3 MUL PUSH4 0x3B9AC9FF NOT DUP4 DUP3 DIV ADD PUSH2 0x1374 JUMPI PUSH2 0x1302 SWAP1 PUSH2 0x3094 JUMP JUMPDEST SWAP3 DUP5 ISZERO PUSH2 0x135E JUMPI POP SWAP2 DUP4 SWAP2 PUSH1 0x1 PUSH1 0xC0 SWAP5 PUSH2 0x132B DUP5 PUSH1 0x0 DUP1 MLOAD PUSH1 0x20 PUSH2 0x322C DUP4 CODECOPY DUP2 MLOAD SWAP2 MSTORE SWAP9 PUSH2 0x2F5E JUMP JUMPDEST PUSH1 0x40 MLOAD SWAP5 DUP6 MSTORE DUP5 ADD MSTORE PUSH1 0x40 DUP4 ADD MSTORE PUSH1 0x60 DUP3 ADD MSTORE TIMESTAMP PUSH1 0x80 DUP3 ADD MSTORE NUMBER PUSH1 0xA0 DUP3 ADD MSTORE LOG1 PUSH1 0x1 JUMPDEST ISZERO PUSH2 0x454 JUMPI PUSH1 0x20 PUSH1 0x40 MLOAD PUSH1 0x1 DUP2 MSTORE RETURN JUMPDEST PUSH1 0x40 MLOAD PUSH4 0xEC442F05 PUSH1 0xE0 SHL DUP2 MSTORE PUSH1 0x0 PUSH1 0x4 DUP3 ADD MSTORE REVERT JUMPDEST DUP4 PUSH4 0x4E487B71 PUSH1 0xE0 SHL PUSH1 0x0 MSTORE PUSH1 0x11 PUSH1 0x4 MSTORE PUSH1 0x0 REVERT JUMPDEST PUSH1 0x40 MLOAD PUSH4 0x1A964E01 PUSH1 0xE3 SHL DUP2 MSTORE PUSH1 0x4 SWAP1 REVERT JUMPDEST SWAP1 POP DUP2 DUP2 DUP2 RETURNDATASIZE DUP4 GT PUSH2 0x13C9 JUMPI JUMPDEST PUSH2 0x13B2 DUP2 DUP4 PUSH2 0x23A8 JUMP JUMPDEST DUP2 ADD SUB SLT PUSH2 0x22E JUMPI PUSH2 0x13C3 SWAP1 PUSH2 0x2525 JUMP JUMPDEST DUP6 PUSH2 0x12DE JUMP JUMPDEST POP RETURNDATASIZE PUSH2 0x13A8 JUMP JUMPDEST PUSH1 0x0 SWAP1 DUP3 PUSH1 0x5 SLOAD PUSH1 0x8 SHR AND PUSH1 0x4 PUSH1 0x40 MLOAD DUP1 SWAP5 DUP2 SWAP4 PUSH4 0x3B253C2B PUSH1 0xE1 SHL DUP4 MSTORE GAS CALL SWAP1 DUP2 ISZERO PUSH2 0x363 JUMPI PUSH1 0x0 SWAP2 PUSH2 0x1436 JUMPI JUMPDEST POP ISZERO PUSH2 0x1424 JUMPI DUP2 PUSH2 0x12CB SWAP2 PUSH1 0x0 DUP1 MLOAD PUSH1 0x20 PUSH2 0x320C DUP4 CODECOPY DUP2 MLOAD SWAP2 MSTORE PUSH1 0x0 DUP1 LOG1 SWAP2 POP PUSH2 0x1224 JUMP JUMPDEST PUSH1 0x40 MLOAD PUSH4 0x2893C9AB PUSH1 0xE0 SHL DUP2 MSTORE PUSH1 0x4 SWAP1 REVERT JUMPDEST SWAP1 POP DUP3 DUP2 DUP2 RETURNDATASIZE DUP4 GT PUSH2 0x1464 JUMPI JUMPDEST PUSH2 0x144D DUP2 DUP4 PUSH2 0x23A8 JUMP JUMPDEST DUP2 ADD SUB SLT PUSH2 0x22E JUMPI PUSH2 0x145E SWAP1 PUSH2 0x2525 JUMP JUMPDEST DUP7 PUSH2 0x13FF JUMP JUMPDEST POP RETURNDATASIZE PUSH2 0x1443 JUMP JUMPDEST POP PUSH1 0x4 SWAP1 DUP3 PUSH1 0x9 SLOAD AND PUSH1 0x40 MLOAD SWAP3 DUP4 DUP1 SWAP3 PUSH4 0x1E6B913D PUSH1 0xE3 SHL DUP3 MSTORE GAS STATICCALL DUP1 ISZERO PUSH2 0x363 JUMPI DUP4 SWAP2 PUSH1 0x0 SWAP2 PUSH2 0x149F JUMPI JUMPDEST POP NUMBER GT PUSH2 0x121F JUMP JUMPDEST DUP3 DUP2 SWAP4 SWAP3 POP RETURNDATASIZE DUP4 GT PUSH2 0x14C7 JUMPI JUMPDEST PUSH2 0x14B6 DUP2 DUP4 PUSH2 0x23A8 JUMP JUMPDEST DUP2 ADD SUB SLT PUSH2 0x22E JUMPI DUP3 SWAP1 MLOAD DUP8 PUSH2 0x1497 JUMP JUMPDEST POP RETURNDATASIZE PUSH2 0x14AC JUMP JUMPDEST PUSH1 0x40 MLOAD PUSH4 0x396F4939 PUSH1 0xE0 SHL DUP2 MSTORE PUSH1 0x4 SWAP1 REVERT JUMPDEST PUSH1 0x11 SLOAD PUSH1 0x1 PUSH1 0x40 SHL DUP2 LT ISZERO PUSH2 0x154C JUMPI PUSH1 0x1 DUP2 ADD DUP1 PUSH1 0x11 SSTORE DUP2 LT ISZERO PUSH2 0x1537 JUMPI PUSH1 0x11 PUSH1 0x0 SWAP1 DUP2 MSTORE DUP4 DUP2 KECCAK256 SWAP2 SWAP1 SWAP2 ADD DUP1 SLOAD PUSH1 0x1 PUSH1 0x1 PUSH1 0xA0 SHL SUB NOT AND DUP8 OR SWAP1 SSTORE DUP6 DUP2 MSTORE PUSH1 0x12 DUP4 MSTORE PUSH1 0x40 SWAP1 KECCAK256 DUP1 SLOAD PUSH1 0xFF NOT AND PUSH1 0x1 OR SWAP1 SSTORE PUSH2 0x120D JUMP JUMPDEST DUP5 PUSH4 0x4E487B71 PUSH1 0xE0 SHL PUSH1 0x0 MSTORE PUSH1 0x32 PUSH1 0x4 MSTORE PUSH1 0x0 REVERT JUMPDEST DUP5 PUSH4 0x4E487B71 PUSH1 0xE0 SHL PUSH1 0x0 MSTORE PUSH1 0x41 PUSH1 0x4 MSTORE PUSH1 0x0 REVERT JUMPDEST DUP4 PUSH1 0x0 MSTORE PUSH1 0x20 SWAP1 PUSH1 0x12 DUP3 MSTORE PUSH1 0xFF PUSH1 0x40 PUSH1 0x0 KECCAK256 SLOAD AND ISZERO PUSH2 0x1879 JUMPI JUMPDEST DUP3 ISZERO PUSH2 0x14CE JUMPI PUSH1 0xB SLOAD ISZERO ISZERO DUP1 PUSH2 0x1819 JUMPI JUMPDEST PUSH2 0x1797 JUMPI JUMPDEST NUMBER PUSH1 0xB SSTORE PUSH1 0x0 DUP1 MLOAD PUSH1 0x20 PUSH2 0x32AC DUP4 CODECOPY DUP2 MLOAD SWAP2 MSTORE DUP3 PUSH2 0x15AD PUSH2 0x3005 JUMP JUMPDEST DUP1 PUSH1 0xA SSTORE PUSH1 0x40 MLOAD SWAP1 DUP2 MSTORE LOG1 PUSH2 0x15C9 DUP4 DUP3 PUSH1 0x6 SLOAD AND DUP8 ADDRESS SWAP2 PUSH2 0x306C JUMP JUMPDEST PUSH1 0x6 SLOAD PUSH1 0x8 SLOAD PUSH1 0x40 MLOAD PUSH4 0x6EB1769F PUSH1 0xE1 SHL DUP2 MSTORE SWAP1 DUP4 AND SWAP2 DUP4 AND DUP5 DUP3 DUP1 PUSH2 0x15F3 DUP7 ADDRESS PUSH1 0x4 DUP5 ADD PUSH2 0x2551 JUMP JUMPDEST SUB DUP2 DUP5 GAS STATICCALL SWAP3 DUP4 ISZERO PUSH2 0x363 JUMPI DUP6 SWAP4 DUP8 SWAP4 PUSH1 0x0 SWAP2 PUSH2 0x1764 JUMPI JUMPDEST POP DUP4 GT PUSH2 0x16EB JUMPI JUMPDEST POP POP DUP3 PUSH2 0x1644 SWAP4 PUSH1 0x8 SLOAD AND SWAP1 PUSH1 0x5 SLOAD PUSH1 0x8 SHR AND PUSH1 0x0 PUSH1 0x40 MLOAD DUP1 SWAP7 DUP2 SWAP6 DUP3 SWAP5 PUSH4 0x11F9FBC9 PUSH1 0xE2 SHL DUP5 MSTORE PUSH1 0x4 DUP5 ADD PUSH2 0x249E JUMP JUMPDEST SUB SWAP3 GAS CALL SWAP1 DUP2 ISZERO PUSH2 0x363 JUMPI PUSH1 0x0 SWAP2 PUSH2 0x16B6 JUMPI JUMPDEST POP ISZERO PUSH2 0x454 JUMPI PUSH2 0x1666 DUP3 PUSH2 0x3094 JUMP JUMPDEST SWAP3 DUP5 ISZERO PUSH2 0x135E JUMPI POP SWAP2 DUP4 SWAP2 PUSH1 0x0 PUSH1 0xC0 SWAP5 PUSH2 0x168F DUP5 PUSH1 0x0 DUP1 MLOAD PUSH1 0x20 PUSH2 0x322C DUP4 CODECOPY DUP2 MLOAD SWAP2 MSTORE SWAP9 PUSH2 0x2F5E JUMP JUMPDEST PUSH1 0x40 MLOAD SWAP5 DUP6 MSTORE DUP5 ADD MSTORE PUSH1 0x40 DUP4 ADD MSTORE PUSH1 0x60 DUP3 ADD MSTORE TIMESTAMP PUSH1 0x80 DUP3 ADD MSTORE NUMBER PUSH1 0xA0 DUP3 ADD MSTORE LOG1 PUSH1 0x1 PUSH2 0x134E JUMP JUMPDEST SWAP1 POP DUP2 DUP2 DUP2 RETURNDATASIZE DUP4 GT PUSH2 0x16E4 JUMPI JUMPDEST PUSH2 0x16CD DUP2 DUP4 PUSH2 0x23A8 JUMP JUMPDEST DUP2 ADD SUB SLT PUSH2 0x22E JUMPI PUSH2 0x16DE SWAP1 PUSH2 0x2525 JUMP JUMPDEST DUP6 PUSH2 0x1657 JUMP JUMPDEST POP RETURNDATASIZE PUSH2 0x16C3 JUMP JUMPDEST PUSH1 0x0 SWAP5 SWAP4 SWAP3 POP PUSH1 0x44 SWAP1 PUSH1 0x40 MLOAD SWAP6 DUP7 SWAP4 DUP5 SWAP3 PUSH4 0x95EA7B3 PUSH1 0xE0 SHL DUP5 MSTORE PUSH1 0x4 DUP5 ADD MSTORE DUP2 NOT DUP12 DUP5 ADD MSTORE GAS CALL DUP1 ISZERO PUSH2 0x363 JUMPI DUP4 SWAP2 DUP6 SWAP2 PUSH2 0x1729 JUMPI JUMPDEST SWAP3 DUP1 PUSH2 0x1613 JUMP JUMPDEST SWAP2 SWAP1 POP DUP3 DUP2 RETURNDATASIZE DUP4 GT PUSH2 0x175D JUMPI JUMPDEST PUSH2 0x1740 DUP2 DUP4 PUSH2 0x23A8 JUMP JUMPDEST DUP2 ADD SUB SLT PUSH2 0x22E JUMPI DUP4 DUP4 SWAP2 PUSH2 0x1757 PUSH2 0x1644 SWAP5 PUSH2 0x2525 JUMP JUMPDEST POP PUSH2 0x1722 JUMP JUMPDEST POP RETURNDATASIZE PUSH2 0x1736 JUMP JUMPDEST SWAP4 POP POP SWAP3 DUP3 DUP2 RETURNDATASIZE DUP4 GT PUSH2 0x1790 JUMPI JUMPDEST PUSH2 0x177C DUP2 DUP4 PUSH2 0x23A8 JUMP JUMPDEST DUP2 ADD SUB SLT PUSH2 0x22E JUMPI DUP5 SWAP3 DUP7 DUP1 SWAP4 MLOAD SWAP1 PUSH2 0x160B JUMP JUMPDEST POP RETURNDATASIZE PUSH2 0x1772 JUMP JUMPDEST PUSH1 0x0 DUP3 DUP3 PUSH1 0x5 SLOAD PUSH1 0x8 SHR AND PUSH1 0x4 PUSH1 0x40 MLOAD DUP1 SWAP5 DUP2 SWAP4 PUSH4 0x3B253C2B PUSH1 0xE1 SHL DUP4 MSTORE GAS CALL SWAP1 DUP2 ISZERO PUSH2 0x363 JUMPI PUSH1 0x0 SWAP2 PUSH2 0x17E4 JUMPI JUMPDEST POP ISZERO PUSH2 0x1424 JUMPI PUSH1 0x0 DUP1 MLOAD PUSH1 0x20 PUSH2 0x320C DUP4 CODECOPY DUP2 MLOAD SWAP2 MSTORE PUSH1 0x0 DUP1 LOG1 PUSH2 0x1591 JUMP JUMPDEST SWAP1 POP DUP3 DUP2 DUP2 RETURNDATASIZE DUP4 GT PUSH2 0x1812 JUMPI JUMPDEST PUSH2 0x17FB DUP2 DUP4 PUSH2 0x23A8 JUMP JUMPDEST DUP2 ADD SUB SLT PUSH2 0x22E JUMPI PUSH2 0x180C SWAP1 PUSH2 0x2525 JUMP JUMPDEST DUP7 PUSH2 0x17C6 JUMP JUMPDEST POP RETURNDATASIZE PUSH2 0x17F1 JUMP JUMPDEST POP PUSH1 0x4 DUP3 DUP3 PUSH1 0x9 SLOAD AND PUSH1 0x40 MLOAD SWAP3 DUP4 DUP1 SWAP3 PUSH4 0x1E6B913D PUSH1 0xE3 SHL DUP3 MSTORE GAS STATICCALL SWAP1 DUP2 ISZERO PUSH2 0x363 JUMPI PUSH1 0x0 SWAP2 PUSH2 0x184C JUMPI JUMPDEST POP NUMBER GT PUSH2 0x158C JUMP JUMPDEST SWAP1 POP DUP3 DUP2 DUP2 RETURNDATASIZE DUP4 GT PUSH2 0x1872 JUMPI JUMPDEST PUSH2 0x1863 DUP2 DUP4 PUSH2 0x23A8 JUMP JUMPDEST DUP2 ADD SUB SLT PUSH2 0x22E JUMPI MLOAD DUP7 PUSH2 0x1844 JUMP JUMPDEST POP RETURNDATASIZE PUSH2 0x1859 JUMP JUMPDEST PUSH1 0x11 SLOAD PUSH1 0x1 PUSH1 0x40 SHL DUP2 LT ISZERO PUSH2 0x154C JUMPI PUSH1 0x1 DUP2 ADD DUP1 PUSH1 0x11 SSTORE DUP2 LT ISZERO PUSH2 0x1537 JUMPI PUSH1 0x11 PUSH1 0x0 SWAP1 DUP2 MSTORE DUP4 DUP2 KECCAK256 SWAP2 SWAP1 SWAP2 ADD DUP1 SLOAD PUSH1 0x1 PUSH1 0x1 PUSH1 0xA0 SHL SUB NOT AND DUP8 OR SWAP1 SSTORE DUP6 DUP2 MSTORE PUSH1 0x12 DUP4 MSTORE PUSH1 0x40 SWAP1 KECCAK256 DUP1 SLOAD PUSH1 0xFF NOT AND PUSH1 0x1 OR SWAP1 SSTORE PUSH2 0x157B JUMP JUMPDEST PUSH1 0x40 MLOAD PUSH4 0x8754D271 PUSH1 0xE0 SHL DUP2 MSTORE PUSH1 0x4 SWAP1 REVERT JUMPDEST POP DUP3 PUSH1 0x44 CALLDATALOAD EQ ISZERO PUSH2 0x11EA JUMP JUMPDEST PUSH1 0x40 MLOAD PUSH4 0x9AB71D25 PUSH1 0xE0 SHL DUP2 MSTORE PUSH1 0x4 SWAP1 REVERT JUMPDEST PUSH1 0x40 MLOAD PUSH4 0x48F5C3ED PUSH1 0xE0 SHL DUP2 MSTORE PUSH1 0x4 SWAP1 REVERT JUMPDEST POP DUP3 PUSH1 0x6 SLOAD AND CALLER EQ ISZERO PUSH2 0x1190 JUMP JUMPDEST CALLVALUE PUSH2 0x22E JUMPI PUSH1 0x0 CALLDATASIZE PUSH1 0x3 NOT ADD SLT PUSH2 0x22E JUMPI PUSH2 0x1939 PUSH2 0x274D JUMP JUMPDEST PUSH1 0x5 SLOAD PUSH1 0xFF DUP2 AND ISZERO PUSH2 0x1978 JUMPI PUSH1 0xFF NOT AND PUSH1 0x5 SSTORE PUSH32 0x5DB9EE0A495BF2E6FF9C91A7834C1BA4FDD244A5E8AA4E537BD38AEAE4B073AA PUSH1 0x20 PUSH1 0x40 MLOAD CALLER DUP2 MSTORE LOG1 STOP JUMPDEST PUSH1 0x40 MLOAD PUSH4 0xDCDDE9DD PUSH1 0xE0 SHL DUP2 MSTORE PUSH1 0x4 SWAP1 REVERT JUMPDEST CALLVALUE PUSH2 0x22E JUMPI PUSH1 0x0 CALLDATASIZE PUSH1 0x3 NOT ADD SLT PUSH2 0x22E JUMPI PUSH1 0x20 PUSH1 0xB SLOAD PUSH1 0x40 MLOAD SWAP1 DUP2 MSTORE RETURN JUMPDEST CALLVALUE PUSH2 0x22E JUMPI PUSH1 0x0 CALLDATASIZE PUSH1 0x3 NOT ADD SLT PUSH2 0x22E JUMPI PUSH1 0x8 SLOAD PUSH1 0x40 MLOAD PUSH1 0x1 PUSH1 0x1 PUSH1 0xA0 SHL SUB SWAP1 SWAP2 AND DUP2 MSTORE PUSH1 0x20 SWAP1 RETURN JUMPDEST CALLVALUE PUSH2 0x22E JUMPI PUSH1 0x0 CALLDATASIZE PUSH1 0x3 NOT ADD SLT PUSH2 0x22E JUMPI PUSH1 0x20 PUSH1 0x40 MLOAD PUSH1 0x1B DUP2 MSTORE RETURN JUMPDEST CALLVALUE PUSH2 0x22E JUMPI PUSH1 0x0 CALLDATASIZE PUSH1 0x3 NOT ADD SLT PUSH2 0x22E JUMPI PUSH1 0x40 MLOAD PUSH8 0x6765C793FA10079D PUSH1 0x1B SHL DUP2 MSTORE PUSH1 0x20 SWAP1 RETURN JUMPDEST CALLVALUE PUSH2 0x22E JUMPI PUSH2 0x140 CALLDATASIZE PUSH1 0x3 NOT ADD SLT PUSH2 0x22E JUMPI PUSH2 0x1A2E PUSH2 0x2361 JUMP JUMPDEST PUSH2 0x1A36 PUSH2 0x2377 JUMP JUMPDEST PUSH1 0x44 CALLDATALOAD SWAP2 PUSH1 0x1 PUSH1 0x1 PUSH1 0xA0 SHL SUB DUP4 AND DUP4 SUB PUSH2 0x22E JUMPI PUSH1 0x64 CALLDATALOAD SWAP3 PUSH1 0x1 PUSH1 0x1 PUSH1 0xA0 SHL SUB DUP5 AND DUP5 SUB PUSH2 0x22E JUMPI PUSH1 0x84 CALLDATALOAD SWAP3 PUSH1 0x1 PUSH1 0x1 PUSH1 0xA0 SHL SUB DUP5 AND DUP5 SUB PUSH2 0x22E JUMPI PUSH1 0xA4 CALLDATALOAD PUSH1 0x1 PUSH1 0x1 PUSH1 0xA0 SHL SUB DUP2 AND SWAP1 SUB PUSH2 0x22E JUMPI PUSH1 0xE4 CALLDATALOAD SWAP3 PUSH1 0xFF DUP5 AND DUP5 SUB PUSH2 0x22E JUMPI PUSH2 0x104 CALLDATALOAD PUSH1 0x1 PUSH1 0x1 PUSH1 0x40 SHL SUB DUP2 GT PUSH2 0x22E JUMPI PUSH2 0x1AB3 SWAP1 CALLDATASIZE SWAP1 PUSH1 0x4 ADD PUSH2 0x23E4 JUMP JUMPDEST SWAP5 PUSH2 0x124 CALLDATALOAD PUSH1 0x1 PUSH1 0x1 PUSH1 0x40 SHL SUB DUP2 GT PUSH2 0x22E JUMPI PUSH2 0x1AD4 SWAP1 CALLDATASIZE SWAP1 PUSH1 0x4 ADD PUSH2 0x23E4 JUMP JUMPDEST PUSH1 0x0 DUP1 MLOAD PUSH1 0x20 PUSH2 0x330C DUP4 CODECOPY DUP2 MLOAD SWAP2 MSTORE SLOAD SWAP7 PUSH1 0x1 PUSH1 0x1 PUSH1 0x40 SHL SUB DUP9 AND DUP1 ISZERO SWAP1 DUP2 PUSH2 0x1FA2 JUMPI JUMPDEST PUSH1 0x1 EQ SWAP1 DUP2 PUSH2 0x1F98 JUMPI JUMPDEST ISZERO SWAP1 DUP2 PUSH2 0x1F8F JUMPI JUMPDEST POP PUSH2 0x1F7D JUMPI PUSH1 0x1 PUSH1 0x1 PUSH1 0x1 PUSH1 0x40 SHL SUB NOT DUP10 AND OR PUSH1 0x0 DUP1 MLOAD PUSH1 0x20 PUSH2 0x330C DUP4 CODECOPY DUP2 MLOAD SWAP2 MSTORE SSTORE PUSH1 0xFF DUP9 PUSH1 0x40 SHR AND ISZERO PUSH2 0x1F54 JUMPI JUMPDEST PUSH2 0x1B42 PUSH2 0x2FD6 JUMP JUMPDEST PUSH2 0x1B4A PUSH2 0x2FD6 JUMP JUMPDEST DUP1 MLOAD SWAP1 PUSH1 0x1 PUSH1 0x1 PUSH1 0x40 SHL SUB DUP3 GT PUSH2 0x803 JUMPI DUP2 SWAP1 PUSH2 0x1B75 PUSH1 0x0 DUP1 MLOAD PUSH1 0x20 PUSH2 0x31CC DUP4 CODECOPY DUP2 MLOAD SWAP2 MSTORE SLOAD PUSH2 0x2464 JUMP JUMPDEST PUSH1 0x1F DUP2 GT PUSH2 0x1EDA JUMPI JUMPDEST POP PUSH1 0x20 SWAP1 PUSH1 0x1F DUP4 GT PUSH1 0x1 EQ PUSH2 0x1E53 JUMPI PUSH1 0x0 SWAP3 PUSH2 0x1E48 JUMPI JUMPDEST POP POP DUP2 PUSH1 0x1 SHL SWAP2 PUSH1 0x0 NOT SWAP1 PUSH1 0x3 SHL SHR NOT AND OR PUSH1 0x0 DUP1 MLOAD PUSH1 0x20 PUSH2 0x31CC DUP4 CODECOPY DUP2 MLOAD SWAP2 MSTORE SSTORE JUMPDEST DUP1 MLOAD SWAP1 PUSH1 0x1 PUSH1 0x1 PUSH1 0x40 SHL SUB DUP3 GT PUSH2 0x803 JUMPI PUSH2 0x1BE1 PUSH1 0x0 DUP1 MLOAD PUSH1 0x20 PUSH2 0x324C DUP4 CODECOPY DUP2 MLOAD SWAP2 MSTORE SLOAD PUSH2 0x2464 JUMP JUMPDEST PUSH1 0x1F DUP2 GT PUSH2 0x1DDA JUMPI JUMPDEST POP PUSH1 0x20 SWAP1 PUSH1 0x1F DUP4 GT PUSH1 0x1 EQ PUSH2 0x1D4C JUMPI SWAP2 DUP1 PUSH1 0xFF SWAP11 SWAP7 SWAP5 SWAP3 DUP12 SWAP10 SWAP9 SWAP7 SWAP5 PUSH1 0x0 SWAP3 PUSH2 0x1D41 JUMPI JUMPDEST POP POP DUP2 PUSH1 0x1 SHL SWAP2 PUSH1 0x0 NOT SWAP1 PUSH1 0x3 SHL SHR NOT AND OR PUSH1 0x0 DUP1 MLOAD PUSH1 0x20 PUSH2 0x324C DUP4 CODECOPY DUP2 MLOAD SWAP2 MSTORE SSTORE JUMPDEST PUSH2 0x1C39 PUSH2 0x2FD6 JUMP JUMPDEST PUSH2 0x1C41 PUSH2 0x2FD6 JUMP JUMPDEST PUSH2 0x1C4C PUSH1 0xA4 CALLDATALOAD PUSH2 0x25EC JUMP JUMPDEST PUSH1 0x8 DUP1 SLOAD PUSH1 0x1 PUSH1 0x1 PUSH1 0xA0 SHL SUB NOT SWAP1 DUP2 AND PUSH1 0x1 PUSH1 0x1 PUSH1 0xA0 SHL SUB SWAP8 DUP9 AND OR DUP3 SSTORE PUSH1 0x9 DUP1 SLOAD DUP3 AND SWAP4 DUP9 AND SWAP4 SWAP1 SWAP4 OR SWAP1 SWAP3 SSTORE PUSH1 0x5 DUP1 SLOAD PUSH2 0x100 PUSH1 0x1 PUSH1 0xA8 SHL SUB NOT AND SWAP4 SWAP1 SWAP2 SHL PUSH2 0x100 PUSH1 0x1 PUSH1 0xA8 SHL SUB AND SWAP3 SWAP1 SWAP3 OR SWAP1 SWAP2 SSTORE PUSH1 0x6 DUP1 SLOAD DUP3 AND SWAP3 DUP6 AND SWAP3 SWAP1 SWAP3 OR SWAP1 SWAP2 SSTORE PUSH1 0x7 DUP1 SLOAD SWAP1 SWAP2 AND SWAP2 SWAP1 SWAP3 AND OR SWAP1 SSTORE PUSH1 0xC4 CALLDATALOAD PUSH1 0xC SSTORE PUSH1 0xD DUP1 SLOAD DUP6 NOT AND SWAP3 SWAP1 SWAP2 AND SWAP2 SWAP1 SWAP2 OR SWAP1 SSTORE PUSH8 0x6765C793FA10079D PUSH1 0x1B SHL PUSH1 0xA SSTORE PUSH1 0x40 SHR AND ISZERO PUSH2 0x1CED JUMPI STOP JUMPDEST PUSH1 0xFF PUSH1 0x40 SHL NOT PUSH1 0x0 DUP1 MLOAD PUSH1 0x20 PUSH2 0x330C DUP4 CODECOPY DUP2 MLOAD SWAP2 MSTORE SLOAD AND PUSH1 0x0 DUP1 MLOAD PUSH1 0x20 PUSH2 0x330C DUP4 CODECOPY DUP2 MLOAD SWAP2 MSTORE SSTORE PUSH32 0xC7F505B2F371AE2175EE4913F4499E1F2633A7B5936321EED1CDAEB6115181D2 PUSH1 0x20 PUSH1 0x40 MLOAD PUSH1 0x1 DUP2 MSTORE LOG1 STOP JUMPDEST ADD MLOAD SWAP1 POP DUP12 DUP1 PUSH2 0x1C0E JUMP JUMPDEST SWAP1 PUSH1 0x0 DUP1 MLOAD PUSH1 0x20 PUSH2 0x324C DUP4 CODECOPY DUP2 MLOAD SWAP2 MSTORE PUSH1 0x0 MSTORE DUP1 PUSH1 0x0 KECCAK256 SWAP2 PUSH1 0x0 JUMPDEST PUSH1 0x1F NOT DUP6 AND DUP2 LT PUSH2 0x1DC2 JUMPI POP SWAP3 PUSH1 0xFF SWAP11 SWAP7 SWAP5 SWAP3 PUSH1 0x1 SWAP3 DUP13 SWAP11 SWAP10 SWAP8 SWAP6 DUP4 PUSH1 0x1F NOT DUP2 AND LT PUSH2 0x1DA9 JUMPI JUMPDEST POP POP POP DUP2 SHL ADD PUSH1 0x0 DUP1 MLOAD PUSH1 0x20 PUSH2 0x324C DUP4 CODECOPY DUP2 MLOAD SWAP2 MSTORE SSTORE PUSH2 0x1C31 JUMP JUMPDEST ADD MLOAD PUSH1 0x0 NOT PUSH1 0xF8 DUP5 PUSH1 0x3 SHL AND SHR NOT AND SWAP1 SSTORE DUP12 DUP1 DUP1 PUSH2 0x1D8E JUMP JUMPDEST SWAP2 SWAP3 PUSH1 0x20 PUSH1 0x1 DUP2 SWAP3 DUP7 DUP6 ADD MLOAD DUP2 SSTORE ADD SWAP5 ADD SWAP3 ADD PUSH2 0x1D67 JUMP JUMPDEST PUSH1 0x0 DUP1 MLOAD PUSH1 0x20 PUSH2 0x324C DUP4 CODECOPY DUP2 MLOAD SWAP2 MSTORE PUSH1 0x0 MSTORE PUSH32 0x46A2803E59A4DE4E7A4C574B1243F25977AC4C77D5A1A4A609B5394CEBB4A2AA PUSH1 0x1F DUP5 ADD PUSH1 0x5 SHR DUP2 ADD PUSH1 0x20 DUP6 LT PUSH2 0x1E41 JUMPI JUMPDEST PUSH1 0x1F DUP4 ADD PUSH1 0x5 SHR DUP3 ADD DUP2 LT PUSH2 0x1E35 JUMPI POP POP PUSH2 0x1BEA JUMP JUMPDEST PUSH1 0x0 DUP2 SSTORE PUSH1 0x1 ADD PUSH2 0x1E1F JUMP JUMPDEST POP DUP1 PUSH2 0x1E1F JUMP JUMPDEST ADD MLOAD SWAP1 POP DUP11 DUP1 PUSH2 0x1B95 JUMP JUMPDEST SWAP3 POP PUSH1 0x0 DUP1 MLOAD PUSH1 0x20 PUSH2 0x31CC DUP4 CODECOPY DUP2 MLOAD SWAP2 MSTORE PUSH1 0x0 MSTORE DUP1 PUSH1 0x0 KECCAK256 SWAP1 PUSH1 0x0 SWAP4 JUMPDEST PUSH1 0x1F NOT DUP5 AND DUP6 LT PUSH2 0x1EBF JUMPI PUSH1 0x1 SWAP5 POP DUP4 PUSH1 0x1F NOT DUP2 AND LT PUSH2 0x1EA6 JUMPI JUMPDEST POP POP POP DUP2 SHL ADD PUSH1 0x0 DUP1 MLOAD PUSH1 0x20 PUSH2 0x31CC DUP4 CODECOPY DUP2 MLOAD SWAP2 MSTORE SSTORE PUSH2 0x1BB8 JUMP JUMPDEST ADD MLOAD PUSH1 0x0 NOT PUSH1 0xF8 DUP5 PUSH1 0x3 SHL AND SHR NOT AND SWAP1 SSTORE DUP11 DUP1 DUP1 PUSH2 0x1E8B JUMP JUMPDEST DUP2 DUP2 ADD MLOAD DUP4 SSTORE PUSH1 0x20 SWAP5 DUP6 ADD SWAP5 PUSH1 0x1 SWAP1 SWAP4 ADD SWAP3 SWAP1 SWAP2 ADD SWAP1 PUSH2 0x1E70 JUMP JUMPDEST PUSH1 0x0 DUP1 MLOAD PUSH1 0x20 PUSH2 0x31CC DUP4 CODECOPY DUP2 MLOAD SWAP2 MSTORE PUSH1 0x0 MSTORE SWAP1 SWAP2 POP PUSH32 0x2AE08A8E29253F69AC5D979A101956AB8F8D9D7DED63FA7A83B16FC47648EAB0 PUSH1 0x1F DUP5 ADD PUSH1 0x5 SHR DUP2 ADD PUSH1 0x20 DUP6 LT PUSH2 0x1F4D JUMPI JUMPDEST SWAP1 DUP5 SWAP4 SWAP3 SWAP2 JUMPDEST PUSH1 0x1F DUP4 ADD PUSH1 0x5 SHR DUP3 ADD DUP2 LT PUSH2 0x1F3E JUMPI POP POP PUSH2 0x1B7E JUMP JUMPDEST PUSH1 0x0 DUP2 SSTORE DUP6 SWAP5 POP PUSH1 0x1 ADD PUSH2 0x1F28 JUMP JUMPDEST POP DUP1 PUSH2 0x1F22 JUMP JUMPDEST PUSH1 0x1 PUSH1 0x1 PUSH1 0x48 SHL SUB NOT DUP9 AND PUSH1 0x1 PUSH1 0x1 PUSH1 0x40 SHL ADD OR PUSH1 0x0 DUP1 MLOAD PUSH1 0x20 PUSH2 0x330C DUP4 CODECOPY DUP2 MLOAD SWAP2 MSTORE SSTORE PUSH2 0x1B3A JUMP JUMPDEST PUSH1 0x40 MLOAD PUSH4 0xF92EE8A9 PUSH1 0xE0 SHL DUP2 MSTORE PUSH1 0x4 SWAP1 REVERT JUMPDEST SWAP1 POP ISZERO DUP11 PUSH2 0x1B0A JUMP JUMPDEST ADDRESS EXTCODESIZE ISZERO SWAP2 POP PUSH2 0x1B02 JUMP JUMPDEST PUSH1 0x40 DUP11 SWAP1 SHR PUSH1 0xFF AND ISZERO SWAP2 POP PUSH2 0x1AF8 JUMP JUMPDEST CALLVALUE PUSH2 0x22E JUMPI PUSH1 0x60 CALLDATASIZE PUSH1 0x3 NOT ADD SLT PUSH2 0x22E JUMPI PUSH2 0x1FCB PUSH2 0x2361 JUMP JUMPDEST PUSH2 0x1FD3 PUSH2 0x2377 JUMP JUMPDEST PUSH1 0x44 CALLDATALOAD SWAP1 PUSH2 0x1FE0 DUP4 PUSH2 0x242B JUMP JUMPDEST CALLER PUSH1 0x0 MSTORE PUSH1 0x20 MSTORE PUSH1 0x40 PUSH1 0x0 KECCAK256 SLOAD SWAP3 PUSH1 0x0 NOT DUP5 SUB PUSH2 0x2002 JUMPI JUMPDEST PUSH2 0x53E SWAP4 POP PUSH2 0x269E JUMP JUMPDEST DUP3 DUP5 LT PUSH2 0x2071 JUMPI PUSH1 0x1 PUSH1 0x1 PUSH1 0xA0 SHL SUB DUP2 AND ISZERO PUSH2 0x2058 JUMPI CALLER ISZERO PUSH2 0x203F JUMPI DUP3 PUSH2 0x53E SWAP5 PUSH2 0x202C DUP4 PUSH2 0x242B JUMP JUMPDEST CALLER PUSH1 0x0 MSTORE PUSH1 0x20 MSTORE SUB PUSH1 0x40 PUSH1 0x0 KECCAK256 SSTORE PUSH2 0x1FF8 JUMP JUMPDEST PUSH1 0x40 MLOAD PUSH4 0x4A1406B1 PUSH1 0xE1 SHL DUP2 MSTORE PUSH1 0x0 PUSH1 0x4 DUP3 ADD MSTORE PUSH1 0x24 SWAP1 REVERT JUMPDEST PUSH1 0x40 MLOAD PUSH4 0xE602DF05 PUSH1 0xE0 SHL DUP2 MSTORE PUSH1 0x0 PUSH1 0x4 DUP3 ADD MSTORE PUSH1 0x24 SWAP1 REVERT JUMPDEST PUSH1 0x40 MLOAD PUSH4 0x7DC7A0D9 PUSH1 0xE1 SHL DUP2 MSTORE DUP1 PUSH2 0x7D0 DUP6 DUP8 CALLER PUSH1 0x4 DUP6 ADD PUSH2 0x2680 JUMP JUMPDEST CALLVALUE PUSH2 0x22E JUMPI PUSH1 0x0 CALLDATASIZE PUSH1 0x3 NOT ADD SLT PUSH2 0x22E JUMPI PUSH1 0x20 PUSH1 0x0 DUP1 MLOAD PUSH1 0x20 PUSH2 0x328C DUP4 CODECOPY DUP2 MLOAD SWAP2 MSTORE SLOAD PUSH1 0x40 MLOAD SWAP1 DUP2 MSTORE RETURN JUMPDEST CALLVALUE PUSH2 0x22E JUMPI PUSH1 0x0 CALLDATASIZE PUSH1 0x3 NOT ADD SLT PUSH2 0x22E JUMPI PUSH1 0xFF PUSH1 0x5 SLOAD AND PUSH2 0x466 JUMPI PUSH1 0x0 DUP1 JUMPDEST CALLER PUSH1 0x0 MSTORE PUSH1 0xE PUSH1 0x20 SWAP1 DUP1 DUP3 MSTORE PUSH1 0x40 PUSH1 0x0 KECCAK256 DUP1 SLOAD DUP5 LT ISZERO PUSH2 0x2164 JUMPI PUSH2 0x27B DUP5 PUSH2 0x20FF SWAP3 PUSH2 0x24B9 JUMP JUMPDEST SWAP1 PUSH1 0x40 DUP3 ADD MLOAD ISZERO DUP1 PUSH2 0x2159 JUMPI JUMPDEST PUSH2 0x211C JUMPI JUMPDEST POP POP POP PUSH1 0x1 ADD PUSH2 0x20D8 JUMP JUMPDEST SWAP2 PUSH1 0x1 SWAP4 SWAP5 SWAP2 PUSH2 0x2150 SWAP4 CALLER PUSH1 0x0 MSTORE DUP3 MSTORE PUSH1 0x2 PUSH2 0x213C DUP8 PUSH1 0x40 PUSH1 0x0 KECCAK256 PUSH2 0x24B9 JUMP JUMPDEST POP ADD DUP1 SLOAD PUSH1 0xFF NOT AND DUP7 OR SWAP1 SSTORE ADD MLOAD SWAP1 PUSH2 0x2518 JUMP JUMPDEST SWAP2 SWAP1 DUP4 DUP1 PUSH2 0x2111 JUMP JUMPDEST POP NUMBER DUP3 MLOAD GT ISZERO PUSH2 0x210C JUMP JUMPDEST DUP5 DUP1 ISZERO PUSH2 0x21EC JUMPI CALLER PUSH1 0x0 MSTORE PUSH4 0x3B9ACA00 PUSH1 0x20 SWAP2 PUSH1 0x10 DUP4 MSTORE PUSH1 0x40 PUSH1 0x0 KECCAK256 PUSH1 0xFF NOT DUP2 SLOAD AND SWAP1 SSTORE DIV SWAP1 PUSH1 0x1 DUP1 PUSH1 0xA0 SHL SUB SWAP1 PUSH1 0x24 DUP2 DUP4 PUSH1 0x7 SLOAD AND PUSH1 0x40 MLOAD SWAP3 DUP4 DUP1 SWAP3 PUSH4 0x70A08231 PUSH1 0xE0 SHL DUP3 MSTORE ADDRESS PUSH1 0x4 DUP4 ADD MSTORE GAS STATICCALL DUP1 ISZERO PUSH2 0x363 JUMPI DUP5 SWAP2 PUSH1 0x0 SWAP2 PUSH2 0xD7A JUMPI POP LT PUSH2 0xCB7 JUMPI POP DUP2 PUSH2 0xCA5 PUSH1 0x0 DUP1 MLOAD PUSH1 0x20 PUSH2 0x32CC DUP4 CODECOPY DUP2 MLOAD SWAP2 MSTORE SWAP4 PUSH2 0xCB2 SWAP4 CALLER SWAP1 PUSH1 0x7 SLOAD AND PUSH2 0x2F30 JUMP JUMPDEST PUSH1 0x40 MLOAD PUSH4 0x95AE4D39 PUSH1 0xE0 SHL DUP2 MSTORE CALLER PUSH1 0x4 DUP3 ADD MSTORE PUSH1 0x24 SWAP1 REVERT JUMPDEST CALLVALUE PUSH2 0x22E JUMPI PUSH1 0x40 CALLDATASIZE PUSH1 0x3 NOT ADD SLT PUSH2 0x22E JUMPI PUSH2 0x221D PUSH2 0x2361 JUMP JUMPDEST PUSH1 0x24 CALLDATALOAD SWAP1 CALLER ISZERO PUSH2 0x2058 JUMPI PUSH1 0x1 PUSH1 0x1 PUSH1 0xA0 SHL SUB AND SWAP1 DUP2 ISZERO PUSH2 0x203F JUMPI PUSH2 0x2240 CALLER PUSH2 0x242B JUMP JUMPDEST DUP3 PUSH1 0x0 MSTORE PUSH1 0x20 MSTORE DUP1 PUSH1 0x40 PUSH1 0x0 KECCAK256 SSTORE PUSH1 0x40 MLOAD SWAP1 DUP2 MSTORE PUSH32 0x8C5BE1E5EBEC7D5BD14F71427D1E84F3DD0314C0F7B2291E5B200AC8C7C3B925 PUSH1 0x20 CALLER SWAP3 LOG3 PUSH1 0x20 PUSH1 0x40 MLOAD PUSH1 0x1 DUP2 MSTORE RETURN JUMPDEST CALLVALUE PUSH2 0x22E JUMPI PUSH1 0x0 CALLDATASIZE PUSH1 0x3 NOT ADD SLT PUSH2 0x22E JUMPI PUSH1 0x0 DUP1 MLOAD PUSH1 0x20 PUSH2 0x31CC DUP4 CODECOPY DUP2 MLOAD SWAP2 MSTORE DUP1 SLOAD DUP3 PUSH1 0x0 PUSH2 0x22B3 DUP4 PUSH2 0x2464 JUMP JUMPDEST SWAP3 DUP4 DUP4 MSTORE PUSH1 0x20 SWAP5 PUSH1 0x1 SWAP2 DUP7 PUSH1 0x1 DUP3 AND SWAP2 DUP3 PUSH1 0x0 EQ PUSH2 0x98F JUMPI POP POP PUSH1 0x1 EQ PUSH2 0x22E2 JUMPI POP POP PUSH2 0x93C SWAP3 POP SUB DUP4 PUSH2 0x23A8 JUMP JUMPDEST DUP6 SWAP3 POP PUSH1 0x0 MSTORE DUP2 PUSH1 0x0 KECCAK256 SWAP1 PUSH1 0x0 SWAP2 JUMPDEST DUP6 DUP4 LT PUSH2 0x2309 JUMPI POP POP PUSH2 0x93C SWAP4 POP DUP3 ADD ADD DUP6 DUP1 PUSH2 0x92E JUMP JUMPDEST DUP1 SLOAD DUP4 DUP10 ADD DUP6 ADD MSTORE DUP8 SWAP5 POP DUP7 SWAP4 SWAP1 SWAP3 ADD SWAP2 DUP2 ADD PUSH2 0x22F1 JUMP JUMPDEST SWAP2 SWAP1 DUP3 MLOAD SWAP3 DUP4 DUP3 MSTORE PUSH1 0x0 JUMPDEST DUP5 DUP2 LT PUSH2 0x234D JUMPI POP POP DUP3 PUSH1 0x0 PUSH1 0x20 DUP1 SWAP5 SWAP6 DUP5 ADD ADD MSTORE PUSH1 0x1F DUP1 NOT SWAP2 ADD AND ADD ADD SWAP1 JUMP JUMPDEST PUSH1 0x20 DUP2 DUP4 ADD DUP2 ADD MLOAD DUP5 DUP4 ADD DUP3 ADD MSTORE ADD PUSH2 0x232C JUMP JUMPDEST PUSH1 0x4 CALLDATALOAD SWAP1 PUSH1 0x1 PUSH1 0x1 PUSH1 0xA0 SHL SUB DUP3 AND DUP3 SUB PUSH2 0x22E JUMPI JUMP JUMPDEST PUSH1 0x24 CALLDATALOAD SWAP1 PUSH1 0x1 PUSH1 0x1 PUSH1 0xA0 SHL SUB DUP3 AND DUP3 SUB PUSH2 0x22E JUMPI JUMP JUMPDEST PUSH1 0x60 DUP2 ADD SWAP1 DUP2 LT PUSH1 0x1 PUSH1 0x1 PUSH1 0x40 SHL SUB DUP3 GT OR PUSH2 0x803 JUMPI PUSH1 0x40 MSTORE JUMP JUMPDEST SWAP1 PUSH1 0x1F DUP1 NOT SWAP2 ADD AND DUP2 ADD SWAP1 DUP2 LT PUSH1 0x1 PUSH1 0x1 PUSH1 0x40 SHL SUB DUP3 GT OR PUSH2 0x803 JUMPI PUSH1 0x40 MSTORE JUMP JUMPDEST PUSH1 0x1 PUSH1 0x1 PUSH1 0x40 SHL SUB DUP2 GT PUSH2 0x803 JUMPI PUSH1 0x1F ADD PUSH1 0x1F NOT AND PUSH1 0x20 ADD SWAP1 JUMP JUMPDEST DUP2 PUSH1 0x1F DUP3 ADD SLT ISZERO PUSH2 0x22E JUMPI DUP1 CALLDATALOAD SWAP1 PUSH2 0x23FB DUP3 PUSH2 0x23C9 JUMP JUMPDEST SWAP3 PUSH2 0x2409 PUSH1 0x40 MLOAD SWAP5 DUP6 PUSH2 0x23A8 JUMP JUMPDEST DUP3 DUP5 MSTORE PUSH1 0x20 DUP4 DUP4 ADD ADD GT PUSH2 0x22E JUMPI DUP2 PUSH1 0x0 SWAP3 PUSH1 0x20 DUP1 SWAP4 ADD DUP4 DUP7 ADD CALLDATACOPY DUP4 ADD ADD MSTORE SWAP1 JUMP JUMPDEST PUSH1 0x1 PUSH1 0x1 PUSH1 0xA0 SHL SUB AND PUSH1 0x0 SWAP1 DUP2 MSTORE PUSH32 0x52C63247E1F47DB19D5CE0460030C497F067CA4CEBF71BA98EEADABE20BACE01 PUSH1 0x20 MSTORE PUSH1 0x40 SWAP1 KECCAK256 SWAP1 JUMP JUMPDEST SWAP1 PUSH1 0x1 DUP3 DUP2 SHR SWAP3 AND DUP1 ISZERO PUSH2 0x2494 JUMPI JUMPDEST PUSH1 0x20 DUP4 LT EQ PUSH2 0x247E JUMPI JUMP JUMPDEST PUSH4 0x4E487B71 PUSH1 0xE0 SHL PUSH1 0x0 MSTORE PUSH1 0x22 PUSH1 0x4 MSTORE PUSH1 0x24 PUSH1 0x0 REVERT JUMPDEST SWAP2 PUSH1 0x7F AND SWAP2 PUSH2 0x2473 JUMP JUMPDEST PUSH1 0x1 PUSH1 0x1 PUSH1 0xA0 SHL SUB SWAP1 SWAP2 AND DUP2 MSTORE PUSH1 0x20 DUP2 ADD SWAP2 SWAP1 SWAP2 MSTORE PUSH1 0x40 ADD SWAP1 JUMP JUMPDEST DUP1 SLOAD DUP3 LT ISZERO PUSH2 0x24D5 JUMPI PUSH1 0x0 MSTORE PUSH1 0x3 PUSH1 0x20 PUSH1 0x0 KECCAK256 SWAP2 MUL ADD SWAP1 PUSH1 0x0 SWAP1 JUMP JUMPDEST PUSH4 0x4E487B71 PUSH1 0xE0 SHL PUSH1 0x0 MSTORE PUSH1 0x32 PUSH1 0x4 MSTORE PUSH1 0x24 PUSH1 0x0 REVERT JUMPDEST SWAP1 PUSH1 0x40 MLOAD PUSH2 0x24F8 DUP2 PUSH2 0x238D JUMP JUMPDEST PUSH1 0x40 PUSH1 0xFF PUSH1 0x2 DUP4 SWAP6 DUP1 SLOAD DUP6 MSTORE PUSH1 0x1 DUP2 ADD SLOAD PUSH1 0x20 DUP7 ADD MSTORE ADD SLOAD AND ISZERO ISZERO SWAP2 ADD MSTORE JUMP JUMPDEST SWAP2 SWAP1 DUP3 ADD DUP1 SWAP3 GT PUSH2 0x860 JUMPI JUMP JUMPDEST MLOAD SWAP1 DUP2 ISZERO ISZERO DUP3 SUB PUSH2 0x22E JUMPI JUMP JUMPDEST PUSH1 0x40 MLOAD SWAP1 PUSH2 0x253F DUP3 PUSH2 0x238D JUMP JUMPDEST PUSH1 0x0 PUSH1 0x40 DUP4 DUP3 DUP2 MSTORE DUP3 PUSH1 0x20 DUP3 ADD MSTORE ADD MSTORE JUMP JUMPDEST PUSH1 0x1 PUSH1 0x1 PUSH1 0xA0 SHL SUB SWAP2 DUP3 AND DUP2 MSTORE SWAP2 AND PUSH1 0x20 DUP3 ADD MSTORE PUSH1 0x40 ADD SWAP1 JUMP JUMPDEST PUSH1 0x9 SLOAD PUSH1 0x5 SLOAD PUSH1 0x40 MLOAD PUSH4 0x67265C3B PUSH1 0xE1 SHL DUP2 MSTORE SWAP2 PUSH1 0x20 SWAP2 DUP4 SWAP2 PUSH1 0x1 PUSH1 0x1 PUSH1 0xA0 SHL SUB SWAP1 DUP2 AND SWAP2 DUP4 SWAP2 DUP3 SWAP2 PUSH2 0x25A7 SWAP2 ADDRESS SWAP2 PUSH1 0x8 SHR AND PUSH1 0x4 DUP5 ADD PUSH2 0x2551 JUMP JUMPDEST SUB SWAP2 GAS STATICCALL SWAP1 DUP2 ISZERO PUSH2 0x363 JUMPI PUSH1 0x0 SWAP2 PUSH2 0x25BD JUMPI POP SWAP1 JUMP JUMPDEST SWAP1 POP PUSH1 0x20 DUP2 RETURNDATASIZE PUSH1 0x20 GT PUSH2 0x25E4 JUMPI JUMPDEST DUP2 PUSH2 0x25D8 PUSH1 0x20 SWAP4 DUP4 PUSH2 0x23A8 JUMP JUMPDEST DUP2 ADD SUB SLT PUSH2 0x22E JUMPI MLOAD SWAP1 JUMP JUMPDEST RETURNDATASIZE SWAP2 POP PUSH2 0x25CB JUMP JUMPDEST PUSH1 0x1 PUSH1 0x1 PUSH1 0xA0 SHL SUB SWAP1 DUP2 AND SWAP1 DUP2 ISZERO PUSH2 0x2647 JUMPI PUSH1 0x0 DUP1 MLOAD PUSH1 0x20 PUSH2 0x326C DUP4 CODECOPY DUP2 MLOAD SWAP2 MSTORE DUP1 SLOAD PUSH1 0x1 PUSH1 0x1 PUSH1 0xA0 SHL SUB NOT DUP2 AND DUP5 OR SWAP1 SWAP2 SSTORE AND PUSH32 0x8BE0079C531659141344CD1FD0A4F28419497F9722A3DAAFE3B4186F6B6457E0 PUSH1 0x0 DUP1 LOG3 JUMP JUMPDEST PUSH1 0x40 MLOAD PUSH4 0x1E4FBDF7 PUSH1 0xE0 SHL DUP2 MSTORE PUSH1 0x0 PUSH1 0x4 DUP3 ADD MSTORE PUSH1 0x24 SWAP1 REVERT JUMPDEST DUP2 ISZERO PUSH2 0x266A JUMPI DIV SWAP1 JUMP JUMPDEST PUSH4 0x4E487B71 PUSH1 0xE0 SHL PUSH1 0x0 MSTORE PUSH1 0x12 PUSH1 0x4 MSTORE PUSH1 0x24 PUSH1 0x0 REVERT JUMPDEST PUSH1 0x40 SWAP2 SWAP5 SWAP4 SWAP3 PUSH1 0x60 DUP3 ADD SWAP6 PUSH1 0x1 DUP1 PUSH1 0xA0 SHL SUB AND DUP3 MSTORE PUSH1 0x20 DUP3 ADD MSTORE ADD MSTORE JUMP JUMPDEST SWAP2 PUSH1 0x1 PUSH1 0x1 PUSH1 0xA0 SHL SUB DUP1 DUP5 AND SWAP3 DUP4 ISZERO PUSH2 0x7D4 JUMPI AND SWAP3 DUP4 ISZERO PUSH2 0x2734 JUMPI PUSH1 0x0 SWAP1 DUP4 DUP3 MSTORE PUSH1 0x0 DUP1 MLOAD PUSH1 0x20 PUSH2 0x31EC DUP4 CODECOPY DUP2 MLOAD SWAP2 MSTORE DUP1 PUSH1 0x20 MSTORE PUSH1 0x40 DUP4 KECCAK256 SLOAD SWAP2 DUP5 DUP4 LT PUSH2 0x2715 JUMPI POP DUP3 DUP5 PUSH1 0x0 DUP1 MLOAD PUSH1 0x20 PUSH2 0x32EC DUP4 CODECOPY DUP2 MLOAD SWAP2 MSTORE SWAP6 SWAP4 PUSH1 0x40 SWAP4 DUP9 PUSH1 0x20 SWAP8 MSTORE DUP7 MSTORE SUB DUP3 DUP3 KECCAK256 SSTORE DUP7 DUP2 MSTORE KECCAK256 DUP2 DUP2 SLOAD ADD SWAP1 SSTORE PUSH1 0x40 MLOAD SWAP1 DUP2 MSTORE LOG3 JUMP JUMPDEST SWAP1 POP PUSH2 0x7D0 DUP5 PUSH1 0x40 MLOAD SWAP4 DUP5 SWAP4 PUSH4 0x391434E3 PUSH1 0xE2 SHL DUP6 MSTORE PUSH1 0x4 DUP6 ADD PUSH2 0x2680 JUMP JUMPDEST PUSH1 0x40 MLOAD PUSH4 0xEC442F05 PUSH1 0xE0 SHL DUP2 MSTORE PUSH1 0x0 PUSH1 0x4 DUP3 ADD MSTORE PUSH1 0x24 SWAP1 REVERT JUMPDEST PUSH1 0x0 DUP1 MLOAD PUSH1 0x20 PUSH2 0x326C DUP4 CODECOPY DUP2 MLOAD SWAP2 MSTORE SLOAD PUSH1 0x1 PUSH1 0x1 PUSH1 0xA0 SHL SUB AND CALLER SUB PUSH2 0x276E JUMPI JUMP JUMPDEST PUSH1 0x40 MLOAD PUSH4 0x118CDAA7 PUSH1 0xE0 SHL DUP2 MSTORE CALLER PUSH1 0x4 DUP3 ADD MSTORE PUSH1 0x24 SWAP1 REVERT JUMPDEST SWAP2 SWAP1 PUSH1 0x1 DUP1 PUSH1 0xA0 SHL SUB SWAP2 DUP3 DUP5 AND SWAP4 PUSH1 0x0 SWAP4 DUP6 DUP6 MSTORE PUSH1 0x20 SWAP2 PUSH1 0x12 DUP4 MSTORE PUSH1 0x40 SWAP4 PUSH1 0xFF DUP6 DUP9 KECCAK256 SLOAD AND ISZERO PUSH2 0x2C2D JUMPI JUMPDEST DUP6 ISZERO PUSH2 0x2C1C JUMPI PUSH1 0xB SLOAD ISZERO ISZERO DUP1 PUSH2 0x2BBE JUMPI JUMPDEST PUSH2 0x2B2F JUMPI JUMPDEST NUMBER PUSH1 0xB SSTORE PUSH1 0x0 DUP1 MLOAD PUSH1 0x20 PUSH2 0x32AC DUP4 CODECOPY DUP2 MLOAD SWAP2 MSTORE DUP5 PUSH2 0x27E3 PUSH2 0x3005 JUMP JUMPDEST DUP1 PUSH1 0xA SSTORE DUP8 MLOAD SWAP1 DUP2 MSTORE LOG1 ISZERO SWAP2 DUP4 DUP4 ISZERO PUSH2 0x2A29 JUMPI POP PUSH2 0x2808 DUP7 DUP3 PUSH1 0x6 SLOAD AND DUP5 ADDRESS SWAP2 PUSH2 0x306C JUMP JUMPDEST DUP1 PUSH1 0x6 SLOAD AND DUP2 PUSH1 0x8 SLOAD AND DUP7 MLOAD PUSH4 0x6EB1769F PUSH1 0xE1 SHL DUP2 MSTORE DUP7 DUP2 DUP1 PUSH2 0x282F DUP6 ADDRESS PUSH1 0x4 DUP5 ADD PUSH2 0x2551 JUMP JUMPDEST SUB DUP2 DUP7 GAS STATICCALL SWAP1 DUP2 ISZERO PUSH2 0x2A1F JUMPI SWAP3 DUP10 SWAP3 DUP12 SWAP3 DUP10 SWAP6 DUP5 SWAP2 PUSH2 0x29E5 JUMPI JUMPDEST POP DUP5 GT PUSH2 0x295B JUMPI JUMPDEST POP POP POP DUP3 PUSH2 0x2881 SWAP4 PUSH1 0x8 SLOAD AND SWAP1 PUSH1 0x5 SLOAD PUSH1 0x8 SHR AND DUP11 DUP10 MLOAD DUP1 SWAP7 DUP2 SWAP6 DUP3 SWAP5 PUSH4 0x11F9FBC9 PUSH1 0xE2 SHL DUP5 MSTORE PUSH1 0x4 DUP5 ADD PUSH2 0x249E JUMP JUMPDEST SUB SWAP3 GAS CALL SWAP1 DUP2 ISZERO PUSH2 0x2951 JUMPI DUP8 SWAP2 PUSH2 0x2918 JUMPI JUMPDEST POP ISZERO PUSH2 0x2907 JUMPI PUSH2 0x28A2 DUP6 PUSH2 0x3094 JUMP JUMPDEST SWAP6 JUMPDEST DUP8 ISZERO PUSH2 0x28F0 JUMPI POP SWAP2 DUP6 SWAP4 SWAP2 PUSH2 0x28CC PUSH1 0xC0 SWAP8 PUSH1 0x0 DUP1 MLOAD PUSH1 0x20 PUSH2 0x322C DUP4 CODECOPY DUP2 MLOAD SWAP2 MSTORE SWAP10 SWAP8 SWAP6 PUSH2 0x2F5E JUMP JUMPDEST DUP3 MLOAD SWAP6 DUP7 MSTORE ISZERO SWAP1 DUP6 ADD MSTORE DUP4 ADD MSTORE PUSH1 0x60 DUP3 ADD MSTORE TIMESTAMP PUSH1 0x80 DUP3 ADD MSTORE NUMBER PUSH1 0xA0 DUP3 ADD MSTORE LOG1 PUSH1 0x1 SWAP1 JUMP JUMPDEST PUSH1 0x24 SWAP1 DUP6 MLOAD SWAP1 PUSH4 0xEC442F05 PUSH1 0xE0 SHL DUP3 MSTORE PUSH1 0x4 DUP3 ADD MSTORE REVERT JUMPDEST DUP4 MLOAD PUSH4 0x79CACFF1 PUSH1 0xE0 SHL DUP2 MSTORE PUSH1 0x4 SWAP1 REVERT JUMPDEST SWAP1 POP DUP4 DUP2 DUP2 RETURNDATASIZE DUP4 GT PUSH2 0x294A JUMPI JUMPDEST PUSH2 0x292F DUP2 DUP4 PUSH2 0x23A8 JUMP JUMPDEST DUP2 ADD SUB SLT PUSH2 0x2946 JUMPI PUSH2 0x2940 SWAP1 PUSH2 0x2525 JUMP JUMPDEST CODESIZE PUSH2 0x2893 JUMP JUMPDEST DUP7 DUP1 REVERT JUMPDEST POP RETURNDATASIZE PUSH2 0x2925 JUMP JUMPDEST DUP6 MLOAD RETURNDATASIZE DUP10 DUP3 RETURNDATACOPY RETURNDATASIZE SWAP1 REVERT JUMPDEST DUP10 MLOAD PUSH4 0x95EA7B3 PUSH1 0xE0 SHL DUP2 MSTORE PUSH1 0x4 DUP2 ADD SWAP2 SWAP1 SWAP2 MSTORE PUSH1 0x0 NOT PUSH1 0x24 DUP3 ADD MSTORE SWAP4 SWAP3 POP DUP4 SWAP2 PUSH1 0x44 SWAP2 DUP4 SWAP2 SWAP1 GAS CALL DUP1 ISZERO PUSH2 0x29DB JUMPI DUP6 SWAP2 DUP9 SWAP2 PUSH2 0x299B JUMPI JUMPDEST DUP1 DUP11 SWAP2 PUSH2 0x2851 JUMP JUMPDEST DUP3 DUP2 SWAP4 SWAP3 POP RETURNDATASIZE DUP4 GT PUSH2 0x29D4 JUMPI JUMPDEST PUSH2 0x29B2 DUP2 DUP4 PUSH2 0x23A8 JUMP JUMPDEST DUP2 ADD SUB SLT PUSH2 0x29D0 JUMPI DUP7 PUSH2 0x2881 SWAP3 PUSH2 0x29C9 DUP8 SWAP4 PUSH2 0x2525 JUMP JUMPDEST POP SWAP3 PUSH2 0x2993 JUMP JUMPDEST DUP8 DUP1 REVERT JUMPDEST POP RETURNDATASIZE PUSH2 0x29A8 JUMP JUMPDEST DUP7 MLOAD RETURNDATASIZE DUP11 DUP3 RETURNDATACOPY RETURNDATASIZE SWAP1 REVERT JUMPDEST SWAP4 POP POP SWAP3 POP SWAP3 DUP2 DUP2 RETURNDATASIZE DUP4 GT PUSH2 0x2A18 JUMPI JUMPDEST PUSH2 0x29FF DUP2 DUP4 PUSH2 0x23A8 JUMP JUMPDEST DUP2 ADD SUB SLT PUSH2 0x2A14 JUMPI MLOAD DUP7 SWAP3 DUP10 SWAP3 DUP12 SWAP3 DUP5 PUSH2 0x2849 JUMP JUMPDEST DUP10 DUP1 REVERT JUMPDEST POP RETURNDATASIZE PUSH2 0x29F5 JUMP JUMPDEST DUP9 MLOAD RETURNDATASIZE DUP13 DUP3 RETURNDATACOPY RETURNDATASIZE SWAP1 REVERT JUMPDEST DUP2 PUSH2 0x2A3E DUP9 PUSH2 0x2A99 SWAP5 PUSH1 0x7 SLOAD AND DUP7 ADDRESS SWAP2 PUSH2 0x306C JUMP JUMPDEST DUP1 PUSH1 0x8 SLOAD AND SWAP1 PUSH2 0x2A60 DUP2 PUSH1 0x5 SLOAD PUSH1 0x8 SHR AND SWAP3 PUSH2 0x1283 DUP11 MLOAD SWAP5 DUP6 SWAP3 DUP8 DUP5 ADD PUSH2 0x2551 JUMP JUMPDEST DUP1 PUSH1 0x7 SLOAD AND SWAP1 PUSH1 0x6 SLOAD AND DUP11 DUP10 MLOAD DUP1 SWAP7 DUP2 SWAP6 DUP3 SWAP5 PUSH4 0xCAE9CA51 PUSH1 0xE0 SHL DUP5 MSTORE PUSH1 0x4 DUP5 ADD MSTORE DUP14 PUSH1 0x24 DUP5 ADD MSTORE PUSH1 0x60 PUSH1 0x44 DUP5 ADD MSTORE PUSH1 0x64 DUP4 ADD SWAP1 PUSH2 0x2321 JUMP JUMPDEST SUB SWAP3 GAS CALL SWAP1 DUP2 ISZERO PUSH2 0x2951 JUMPI DUP8 SWAP2 PUSH2 0x2AFA JUMPI JUMPDEST POP ISZERO PUSH2 0x2AE9 JUMPI PUSH4 0x3B9ACA00 DUP6 MUL PUSH4 0x3B9AC9FF NOT DUP7 DUP3 DIV ADD PUSH2 0x2AD5 JUMPI PUSH2 0x2ACF SWAP1 PUSH2 0x3094 JUMP JUMPDEST SWAP6 PUSH2 0x28A4 JUMP JUMPDEST PUSH4 0x4E487B71 PUSH1 0xE0 SHL DUP8 MSTORE PUSH1 0x11 PUSH1 0x4 MSTORE PUSH1 0x24 DUP8 REVERT JUMPDEST DUP4 MLOAD PUSH4 0x1A964E01 PUSH1 0xE3 SHL DUP2 MSTORE PUSH1 0x4 SWAP1 REVERT JUMPDEST SWAP1 POP DUP4 DUP2 DUP2 RETURNDATASIZE DUP4 GT PUSH2 0x2B28 JUMPI JUMPDEST PUSH2 0x2B11 DUP2 DUP4 PUSH2 0x23A8 JUMP JUMPDEST DUP2 ADD SUB SLT PUSH2 0x2946 JUMPI PUSH2 0x2B22 SWAP1 PUSH2 0x2525 JUMP JUMPDEST CODESIZE PUSH2 0x2AAB JUMP JUMPDEST POP RETURNDATASIZE PUSH2 0x2B07 JUMP JUMPDEST DUP7 DUP5 DUP5 PUSH1 0x5 SLOAD PUSH1 0x8 SHR AND PUSH1 0x4 DUP9 MLOAD DUP1 SWAP5 DUP2 SWAP4 PUSH4 0x3B253C2B PUSH1 0xE1 SHL DUP4 MSTORE GAS CALL SWAP1 DUP2 ISZERO PUSH2 0x29DB JUMPI DUP9 SWAP2 PUSH2 0x2B89 JUMPI JUMPDEST POP ISZERO PUSH2 0x2B78 JUMPI PUSH1 0x0 DUP1 MLOAD PUSH1 0x20 PUSH2 0x320C DUP4 CODECOPY DUP2 MLOAD SWAP2 MSTORE DUP8 DUP1 LOG1 PUSH2 0x27C7 JUMP JUMPDEST DUP5 MLOAD PUSH4 0x2893C9AB PUSH1 0xE0 SHL DUP2 MSTORE PUSH1 0x4 SWAP1 REVERT JUMPDEST SWAP1 POP DUP5 DUP2 DUP2 RETURNDATASIZE DUP4 GT PUSH2 0x2BB7 JUMPI JUMPDEST PUSH2 0x2BA0 DUP2 DUP4 PUSH2 0x23A8 JUMP JUMPDEST DUP2 ADD SUB SLT PUSH2 0x29D0 JUMPI PUSH2 0x2BB1 SWAP1 PUSH2 0x2525 JUMP JUMPDEST CODESIZE PUSH2 0x2B5B JUMP JUMPDEST POP RETURNDATASIZE PUSH2 0x2B96 JUMP JUMPDEST POP PUSH1 0x4 DUP5 DUP5 PUSH1 0x9 SLOAD AND DUP8 MLOAD SWAP3 DUP4 DUP1 SWAP3 PUSH4 0x1E6B913D PUSH1 0xE3 SHL DUP3 MSTORE GAS STATICCALL SWAP1 DUP2 ISZERO PUSH2 0x29DB JUMPI DUP9 SWAP2 PUSH2 0x2BEF JUMPI JUMPDEST POP NUMBER GT PUSH2 0x27C2 JUMP JUMPDEST SWAP1 POP DUP5 DUP2 DUP2 RETURNDATASIZE DUP4 GT PUSH2 0x2C15 JUMPI JUMPDEST PUSH2 0x2C06 DUP2 DUP4 PUSH2 0x23A8 JUMP JUMPDEST DUP2 ADD SUB SLT PUSH2 0x29D0 JUMPI MLOAD CODESIZE PUSH2 0x2BE7 JUMP JUMPDEST POP RETURNDATASIZE PUSH2 0x2BFC JUMP JUMPDEST DUP5 MLOAD PUSH4 0x396F4939 PUSH1 0xE0 SHL DUP2 MSTORE PUSH1 0x4 SWAP1 REVERT JUMPDEST PUSH1 0x11 SLOAD PUSH1 0x1 PUSH1 0x40 SHL DUP2 LT ISZERO PUSH2 0x2C91 JUMPI PUSH1 0x1 DUP2 ADD DUP1 PUSH1 0x11 SSTORE DUP2 LT ISZERO PUSH2 0x2C7D JUMPI PUSH1 0x11 DUP9 MSTORE DUP5 DUP9 KECCAK256 ADD DUP1 SLOAD PUSH1 0x1 PUSH1 0x1 PUSH1 0xA0 SHL SUB NOT AND DUP10 OR SWAP1 SSTORE DUP8 DUP8 MSTORE PUSH1 0x12 DUP5 MSTORE DUP5 DUP8 KECCAK256 DUP1 SLOAD PUSH1 0xFF NOT AND PUSH1 0x1 OR SWAP1 SSTORE PUSH2 0x27B1 JUMP JUMPDEST PUSH4 0x4E487B71 PUSH1 0xE0 SHL DUP9 MSTORE PUSH1 0x32 PUSH1 0x4 MSTORE PUSH1 0x24 DUP9 REVERT JUMPDEST PUSH4 0x4E487B71 PUSH1 0xE0 SHL DUP9 MSTORE PUSH1 0x41 PUSH1 0x4 MSTORE PUSH1 0x24 DUP9 REVERT JUMPDEST PUSH1 0x2 PUSH1 0x4 SLOAD EQ PUSH2 0x2CB6 JUMPI PUSH1 0x2 PUSH1 0x4 SSTORE JUMP JUMPDEST PUSH1 0x40 MLOAD PUSH4 0x3EE5AEB5 PUSH1 0xE0 SHL DUP2 MSTORE PUSH1 0x4 SWAP1 REVERT JUMPDEST MLOAD SWAP1 PUSH1 0x1 PUSH1 0x1 PUSH1 0x80 SHL SUB DUP3 AND DUP3 SUB PUSH2 0x22E JUMPI JUMP JUMPDEST PUSH1 0x1 PUSH1 0x1 PUSH1 0xA0 SHL SUB SWAP2 DUP3 AND DUP2 MSTORE SWAP2 AND PUSH1 0x20 DUP3 ADD MSTORE PUSH1 0x40 DUP2 ADD SWAP2 SWAP1 SWAP2 MSTORE PUSH1 0x60 ADD SWAP1 JUMP JUMPDEST PUSH1 0x8 DUP1 SLOAD PUSH1 0x5 SLOAD PUSH1 0x40 DUP1 MLOAD PUSH4 0xF762EB57 PUSH1 0xE0 SHL DUP2 MSTORE SWAP1 SWAP4 SWAP1 SWAP3 PUSH1 0x4 SWAP3 PUSH1 0x1 PUSH1 0x1 PUSH1 0xA0 SHL SUB SWAP2 DUP3 AND SWAP3 SHR AND PUSH1 0x20 DUP1 DUP6 DUP1 PUSH2 0x2D3A ADDRESS DUP7 DUP10 DUP5 ADD PUSH2 0x2551 JUMP JUMPDEST SUB DUP2 DUP7 GAS STATICCALL SWAP5 DUP6 ISZERO PUSH2 0x2F25 JUMPI PUSH1 0x0 SWAP6 PUSH2 0x2EF6 JUMPI JUMPDEST POP DUP6 MLOAD PUSH4 0x6323F937 PUSH1 0xE1 SHL DUP2 MSTORE SWAP6 DUP2 DUP8 DUP1 PUSH2 0x2D6D ADDRESS DUP8 PUSH1 0x4 DUP5 ADD PUSH2 0x2551 JUMP JUMPDEST SUB DUP2 DUP8 GAS STATICCALL SWAP7 DUP8 ISZERO PUSH2 0x2EEB JUMPI PUSH1 0x0 SWAP8 PUSH2 0x2EBC JUMPI JUMPDEST POP PUSH1 0x0 SWAP7 DUP7 ISZERO PUSH2 0x2EB2 JUMPI DUP1 DUP8 SUB SWAP7 DUP8 GT PUSH2 0x2E9E JUMPI DUP8 JUMPDEST DUP8 DUP2 LT PUSH2 0x2DA9 JUMPI POP POP POP POP POP POP POP POP SWAP1 JUMP JUMPDEST PUSH2 0x2DB3 DUP2 DUP4 PUSH2 0x2518 JUMP JUMPDEST PUSH2 0x2DD5 DUP5 MLOAD SWAP2 PUSH4 0x8FBEF2D PUSH1 0xE4 SHL DUP4 MSTORE DUP3 DUP1 PUSH1 0x60 SWAP4 DUP5 SWAP4 DUP14 DUP13 ADDRESS SWAP2 DUP6 ADD PUSH2 0x2CDC JUMP JUMPDEST SUB DUP2 DUP12 GAS STATICCALL SWAP2 DUP3 ISZERO PUSH2 0x2E93 JUMPI PUSH1 0x0 SWAP2 DUP3 SWAP4 PUSH2 0x2E41 JUMPI JUMPDEST POP POP NUMBER PUSH1 0x1 PUSH1 0x1 PUSH1 0x80 SHL SUB SWAP1 SWAP2 AND GT ISZERO SWAP1 DUP2 PUSH2 0x2E38 JUMPI JUMPDEST POP PUSH2 0x2E10 JUMPI JUMPDEST PUSH1 0x1 ADD PUSH2 0x2D97 JUMP JUMPDEST SWAP8 PUSH1 0x0 NOT DUP2 EQ PUSH2 0x2E23 JUMPI PUSH1 0x1 ADD SWAP8 PUSH2 0x2E08 JUMP JUMPDEST PUSH1 0x11 DUP8 PUSH4 0x4E487B71 PUSH1 0xE0 SHL PUSH1 0x0 MSTORE MSTORE PUSH1 0x24 PUSH1 0x0 REVERT JUMPDEST SWAP1 POP ISZERO CODESIZE PUSH2 0x2E02 JUMP JUMPDEST SWAP1 DUP1 SWAP4 POP DUP2 RETURNDATASIZE DUP4 GT PUSH2 0x2E8C JUMPI JUMPDEST PUSH2 0x2E58 DUP2 DUP4 PUSH2 0x23A8 JUMP JUMPDEST DUP2 ADD SUB SLT PUSH2 0x2E89 JUMPI POP PUSH2 0x2E81 DUP5 PUSH2 0x2E6E DUP4 PUSH2 0x2CC8 JUMP JUMPDEST SWAP3 PUSH2 0x2E7A DUP9 DUP3 ADD PUSH2 0x2CC8 JUMP JUMPDEST POP ADD PUSH2 0x2525 JUMP JUMPDEST SWAP1 CODESIZE DUP1 PUSH2 0x2DEB JUMP JUMPDEST DUP1 REVERT JUMPDEST POP RETURNDATASIZE PUSH2 0x2E4E JUMP JUMPDEST DUP6 MLOAD RETURNDATASIZE PUSH1 0x0 DUP3 RETURNDATACOPY RETURNDATASIZE SWAP1 REVERT JUMPDEST PUSH4 0x4E487B71 PUSH1 0xE0 SHL DUP9 MSTORE PUSH1 0x11 PUSH1 0x4 MSTORE PUSH1 0x24 DUP9 REVERT JUMPDEST POP POP POP POP POP POP POP SWAP1 JUMP JUMPDEST SWAP1 SWAP7 POP DUP2 DUP2 DUP2 RETURNDATASIZE DUP4 GT PUSH2 0x2EE4 JUMPI JUMPDEST PUSH2 0x2ED4 DUP2 DUP4 PUSH2 0x23A8 JUMP JUMPDEST DUP2 ADD SUB SLT PUSH2 0x22E JUMPI MLOAD SWAP6 CODESIZE PUSH2 0x2D81 JUMP JUMPDEST POP RETURNDATASIZE PUSH2 0x2ECA JUMP JUMPDEST POP MLOAD RETURNDATASIZE PUSH1 0x0 DUP3 RETURNDATACOPY RETURNDATASIZE SWAP1 REVERT JUMPDEST SWAP1 SWAP5 DUP6 DUP3 DUP2 RETURNDATASIZE DUP4 GT PUSH2 0x2F1E JUMPI JUMPDEST PUSH2 0x2F0D DUP2 DUP4 PUSH2 0x23A8 JUMP JUMPDEST DUP2 ADD SUB SLT PUSH2 0x2E89 JUMPI POP MLOAD SWAP4 CODESIZE PUSH2 0x2D4E JUMP JUMPDEST POP RETURNDATASIZE PUSH2 0x2F03 JUMP JUMPDEST DUP7 MLOAD RETURNDATASIZE PUSH1 0x0 DUP3 RETURNDATACOPY RETURNDATASIZE SWAP1 REVERT JUMPDEST PUSH2 0x2F57 PUSH2 0x2F5C SWAP4 SWAP3 PUSH2 0x1283 PUSH1 0x40 MLOAD SWAP5 DUP6 SWAP3 PUSH4 0xA9059CBB PUSH1 0xE0 SHL PUSH1 0x20 DUP6 ADD MSTORE PUSH1 0x24 DUP5 ADD PUSH2 0x249E JUMP JUMPDEST PUSH2 0x30C1 JUMP JUMPDEST JUMP JUMPDEST SWAP1 PUSH1 0x0 DUP1 MLOAD PUSH1 0x20 PUSH2 0x32EC DUP4 CODECOPY DUP2 MLOAD SWAP2 MSTORE PUSH1 0x20 PUSH1 0x0 SWAP3 PUSH1 0x0 DUP1 MLOAD PUSH1 0x20 PUSH2 0x328C DUP4 CODECOPY DUP2 MLOAD SWAP2 MSTORE SWAP5 PUSH2 0x2F8E DUP3 DUP8 SLOAD PUSH2 0x2518 JUMP JUMPDEST DUP7 SSTORE PUSH1 0x1 PUSH1 0x1 PUSH1 0xA0 SHL SUB AND SWAP5 DUP6 ISZERO DUP6 EQ PUSH2 0x2FB2 JUMPI DUP2 DUP2 SLOAD SUB SWAP1 SSTORE JUMPDEST PUSH1 0x40 MLOAD SWAP1 DUP2 MSTORE LOG3 JUMP JUMPDEST POP DUP5 DUP5 MSTORE PUSH1 0x0 DUP1 MLOAD PUSH1 0x20 PUSH2 0x31EC DUP4 CODECOPY DUP2 MLOAD SWAP2 MSTORE DUP3 MSTORE PUSH1 0x40 DUP5 KECCAK256 DUP2 DUP2 SLOAD ADD SWAP1 SSTORE PUSH2 0x2FA9 JUMP JUMPDEST PUSH1 0xFF PUSH1 0x0 DUP1 MLOAD PUSH1 0x20 PUSH2 0x330C DUP4 CODECOPY DUP2 MLOAD SWAP2 MSTORE SLOAD PUSH1 0x40 SHR AND ISZERO PUSH2 0x2FF3 JUMPI JUMP JUMPDEST PUSH1 0x40 MLOAD PUSH4 0x1AFCD79F PUSH1 0xE3 SHL DUP2 MSTORE PUSH1 0x4 SWAP1 REVERT JUMPDEST PUSH2 0x300D PUSH2 0x256B JUMP JUMPDEST PUSH1 0x0 DUP1 MLOAD PUSH1 0x20 PUSH2 0x328C DUP4 CODECOPY DUP2 MLOAD SWAP2 MSTORE SLOAD DUP1 ISZERO ISZERO DUP1 PUSH2 0x3063 JUMPI JUMPDEST ISZERO PUSH2 0x3059 JUMPI PUSH8 0x6765C793FA10079D PUSH1 0x1B SHL DUP3 DUP2 MUL SWAP3 DUP1 ISZERO SWAP1 DUP5 DIV SWAP1 SWAP2 EQ OR ISZERO PUSH2 0x860 JUMPI PUSH2 0x3052 SWAP2 PUSH2 0x2660 JUMP JUMPDEST DUP1 PUSH1 0xA SSTORE SWAP1 JUMP JUMPDEST POP POP PUSH1 0xA SLOAD PUSH2 0x3052 JUMP JUMPDEST POP DUP2 ISZERO ISZERO PUSH2 0x3026 JUMP JUMPDEST SWAP1 PUSH2 0x2F57 SWAP1 PUSH2 0x1283 PUSH2 0x2F5C SWAP6 PUSH1 0x40 MLOAD SWAP6 DUP7 SWAP4 PUSH4 0x23B872DD PUSH1 0xE0 SHL PUSH1 0x20 DUP7 ADD MSTORE PUSH1 0x24 DUP6 ADD PUSH2 0x2CDC JUMP JUMPDEST PUSH8 0x6765C793FA10079D PUSH1 0x1B SHL DUP2 DUP2 MUL SWAP2 DUP1 ISZERO SWAP1 DUP4 DIV SWAP1 SWAP2 EQ OR ISZERO PUSH2 0x860 JUMPI PUSH1 0xA SLOAD PUSH2 0x30BE SWAP2 PUSH2 0x2660 JUMP JUMPDEST SWAP1 JUMP JUMPDEST PUSH1 0x1 DUP1 PUSH1 0xA0 SHL SUB AND SWAP1 PUSH2 0x310B PUSH1 0x0 DUP1 DUP4 PUSH1 0x20 DUP3 SWAP6 MLOAD SWAP2 ADD DUP3 DUP8 GAS CALL RETURNDATASIZE ISZERO PUSH2 0x3160 JUMPI RETURNDATASIZE SWAP1 PUSH2 0x30ED DUP3 PUSH2 0x23C9 JUMP JUMPDEST SWAP2 PUSH2 0x30FB PUSH1 0x40 MLOAD SWAP4 DUP5 PUSH2 0x23A8 JUMP JUMPDEST DUP3 MSTORE RETURNDATASIZE DUP5 PUSH1 0x20 DUP5 ADD RETURNDATACOPY JUMPDEST DUP5 PUSH2 0x3168 JUMP JUMPDEST DUP1 MLOAD SWAP2 DUP3 ISZERO ISZERO SWAP3 DUP4 PUSH2 0x313A JUMPI JUMPDEST POP POP POP PUSH2 0x3122 JUMPI POP JUMP JUMPDEST PUSH1 0x24 SWAP1 PUSH1 0x40 MLOAD SWAP1 PUSH4 0x5274AFE7 PUSH1 0xE0 SHL DUP3 MSTORE PUSH1 0x4 DUP3 ADD MSTORE REVERT JUMPDEST DUP3 SWAP4 POP SWAP2 PUSH1 0x20 SWAP2 SWAP3 DUP2 ADD SUB SLT PUSH2 0x2E89 JUMPI POP PUSH1 0x20 PUSH2 0x3157 SWAP2 ADD PUSH2 0x2525 JUMP JUMPDEST ISZERO CODESIZE DUP1 DUP1 PUSH2 0x3118 JUMP JUMPDEST PUSH1 0x60 SWAP1 PUSH2 0x3105 JUMP JUMPDEST SWAP1 PUSH2 0x318F JUMPI POP DUP1 MLOAD ISZERO PUSH2 0x317D JUMPI DUP1 MLOAD SWAP1 PUSH1 0x20 ADD REVERT JUMPDEST PUSH1 0x40 MLOAD PUSH4 0xA12F521 PUSH1 0xE1 SHL DUP2 MSTORE PUSH1 0x4 SWAP1 REVERT JUMPDEST DUP2 MLOAD ISZERO DUP1 PUSH2 0x31C2 JUMPI JUMPDEST PUSH2 0x31A0 JUMPI POP SWAP1 JUMP JUMPDEST PUSH1 0x40 MLOAD PUSH4 0x9996B315 PUSH1 0xE0 SHL DUP2 MSTORE PUSH1 0x1 PUSH1 0x1 PUSH1 0xA0 SHL SUB SWAP1 SWAP2 AND PUSH1 0x4 DUP3 ADD MSTORE PUSH1 0x24 SWAP1 REVERT JUMPDEST POP DUP1 EXTCODESIZE ISZERO PUSH2 0x3198 JUMP INVALID MSTORE 0xC6 ORIGIN SELFBALANCE 0xE1 DELEGATECALL PUSH30 0xB19D5CE0460030C497F067CA4CEBF71BA98EEADABE20BACE0352C63247E1 DELEGATECALL PUSH30 0xB19D5CE0460030C497F067CA4CEBF71BA98EEADABE20BACE00F5098C5D9D 0xBF XOR SAR SWAP13 0xD PUSH1 0x92 BLOBHASH BLOBBASEFEE PC PC 0xDE MULMOD BLOCKHASH MSIZE PUSH22 0xCCF72E28485C5480B4939C2CF288CD8C138E724D1E1 PUSH29 0xE848AFD04E0D32E56883D38635D5A81523DBCE0252C63247E1F47DB19D TLOAD 0xE0 CHAINID STOP ADDRESS 0xC4 SWAP8 CREATE PUSH8 0xCA4CEBF71BA98EEA 0xDA 0xBE KECCAK256 0xBA 0xCE DIV SWAP1 AND 0xD0 SWAP14 PUSH19 0xD40FDAE2FD8CEAC6B6234C7706214FD39C1CD1 0xE6 MULMOD LOG0 MSTORE DUP13 NOT SWAP4 STOP MSTORE 0xC6 ORIGIN SELFBALANCE 0xE1 DELEGATECALL PUSH30 0xB19D5CE0460030C497F067CA4CEBF71BA98EEADABE20BACE0230CE0C4920 PUSH10 0x5AE7B30F6304002CAC26 RETURN 0xBF REVERT DUP4 0xB1 0xB8 0x4B 0x28 SAR PREVRANDAO SWAP6 0xEC DUP4 SWAP6 PUSH13 0x495ABB0FC89DEF2EE3226CC48F JUMP 0x21 0xEE DUP15 0x2B GASLIMIT 0xF6 0xDC 0xC7 DUP10 DUP14 0x2B 0xDB TSTORE BASEFEE SDIV CALLER 0xC3 0x2B 0xC0 0xDD CALLCODE MSTORE 0xAD SHL 0xE2 0xC8 SWAP12 PUSH10 0xC2B068FC378DAA952BA7 CALL PUSH4 0xC4A11628 CREATE2 GAS 0x4D CREATE2 0x23 0xB3 0xEF CREATE 0xC5 PUSH31 0x16840DF040F15088DC2F81FE391C3923BEC73E23A9662EFC9C229C6A00A264 PUSH10 0x7066735822122070F91F PREVRANDAO 0xB3 0x22 0xB5 DUP1 SWAP5 SIGNEXTEND 0xAC SWAP7 SWAP6 0x24 LOG1 SWAP10 CREATE2 PUSH9 0xD0366FC8EA6937023B PUSH27 0xC505A35764736F6C63430008190033000000000000000000000000 "},"methodIdentifiers":{"DECIMALS()":"2e0f2625","aliveImplementation(address)":"550d01a3","allowance(address,address)":"dd62ed3e","approve(address,uint256)":"095ea7b3","balanceOf(address)":"70a08231","claimWithdrawalIndex(uint256)":"7447ce0e","claimWithdrawalTotal()":"0c5c16e6","decimals()":"313ce567","depositWTONAndGetWSTON(uint256,bool)":"5f4c5eae","depositWTONAndGetWSTONTo(address,uint256,bool)":"c40753f9","getDepositManager()":"31ae1f02","getLastWithdrawalRequest(address)":"7ed72d16","getLayer2Address()":"5a3b20bf","getPaused()":"6805b84b","getSeigManager()":"b6f20593","getStakingIndex()":"5074e0c8","getTonAddress()":"6ae638d0","getTotalClaimableAmountByUser(address)":"70448bd4","getWithdrawalRequest(address,uint256)":"f2847e64","getWithdrawalRequestIndex(address)":"43148e5a","getWtonAddress()":"d91714a6","getlastSeigBlock()":"3f0ab0ad","initialize(address,address,address,address,address,address,uint256,uint8,string,string)":"26827d1c","name()":"06fdde03","onApprove(address,address,uint256,bytes)":"4273ca16","owner()":"8da5cb5b","pause()":"8456cb59","pauseProxy()":"63a8fd89","processWithdrawalRequest(uint256)":"e06d97ba","proxyImplementation(uint256)":"b911135f","renounceOwnership()":"715018a6","requestWithdrawal(uint256)":"9ee679e8","selectorImplementation(bytes4)":"50d2a276","setDepositManagerAddress(address)":"7f4649b7","setMaxNumWithdrawal(uint8)":"5645eedf","setSeigManagerAddress(address)":"aa738524","stakeOf()":"d6960d12","symbol()":"95d89b41","totalSupply()":"18160ddd","transfer(address,uint256)":"a9059cbb","transferFrom(address,address,uint256)":"23b872dd","transferOwnership(address)":"f2fde38b","unpause()":"3f4ba83a","updateSeigniorage()":"764a7856"}}}}}