{"src/L1/L1WrappedStakedTONStorage.sol":{"L1WrappedStakedTONStorage":{"abi":[{"inputs":[],"name":"ApproveAndCallFailed","type":"error"},{"inputs":[],"name":"ClaimWithdrawalFailed","type":"error"},{"inputs":[],"name":"ContractNotPaused","type":"error"},{"inputs":[],"name":"ContractPaused","type":"error"},{"inputs":[],"name":"DepositFailed","type":"error"},{"inputs":[{"internalType":"uint256","name":"amount","type":"uint256"}],"name":"FailedToSwapFromTONToWTON","type":"error"},{"inputs":[],"name":"InvalidCaller","type":"error"},{"inputs":[],"name":"InvalidOnApproveData","type":"error"},{"inputs":[],"name":"InvalidToOrAmount","type":"error"},{"inputs":[],"name":"MaximumNumberOfWithdrawalsReached","type":"error"},{"inputs":[],"name":"MinimalWithdrawalAmount","type":"error"},{"inputs":[{"internalType":"address","name":"requestor","type":"address"}],"name":"NoClaimableAmount","type":"error"},{"inputs":[],"name":"NoRequestToProcess","type":"error"},{"inputs":[],"name":"NotEnoughFunds","type":"error"},{"inputs":[],"name":"ProcessRequestFailed","type":"error"},{"inputs":[],"name":"RequestAlreadyProcessed","type":"error"},{"inputs":[],"name":"SeigniorageUpdateFailed","type":"error"},{"inputs":[],"name":"WithdrawalDelayNotElapsed","type":"error"},{"inputs":[],"name":"WithdrawalRequestFailed","type":"error"},{"inputs":[],"name":"WrontAmount","type":"error"},{"anonymous":false,"inputs":[{"indexed":true,"internalType":"address","name":"owner","type":"address"},{"indexed":true,"internalType":"address","name":"spender","type":"address"},{"indexed":false,"internalType":"uint256","name":"value","type":"uint256"}],"name":"DebugAllowance","type":"event"},{"anonymous":false,"inputs":[{"indexed":true,"internalType":"address","name":"account","type":"address"},{"indexed":false,"internalType":"uint256","name":"balance","type":"uint256"}],"name":"DebugBalance","type":"event"},{"anonymous":false,"inputs":[{"indexed":false,"internalType":"address","name":"to","type":"address"},{"indexed":false,"internalType":"bool","name":"token","type":"bool"},{"indexed":false,"internalType":"uint256","name":"amount","type":"uint256"},{"indexed":false,"internalType":"uint256","name":"wstonAmount","type":"uint256"},{"indexed":false,"internalType":"uint256","name":"depositTime","type":"uint256"},{"indexed":false,"internalType":"uint256","name":"depositBlockNumber","type":"uint256"}],"name":"Deposited","type":"event"},{"anonymous":false,"inputs":[{"indexed":false,"internalType":"address","name":"account","type":"address"}],"name":"Paused","type":"event"},{"anonymous":false,"inputs":[],"name":"SeigniorageUpdated","type":"event"},{"anonymous":false,"inputs":[{"indexed":false,"internalType":"uint256","name":"stakingIndex","type":"uint256"}],"name":"StakingIndexUpdated","type":"event"},{"anonymous":false,"inputs":[{"indexed":false,"internalType":"address","name":"account","type":"address"}],"name":"Unpaused","type":"event"},{"anonymous":false,"inputs":[{"indexed":false,"internalType":"address","name":"_to","type":"address"},{"indexed":false,"internalType":"uint256","name":"amount","type":"uint256"}],"name":"WithdrawalProcessed","type":"event"},{"anonymous":false,"inputs":[{"indexed":true,"internalType":"address","name":"_to","type":"address"},{"indexed":false,"internalType":"uint256","name":"amount","type":"uint256"}],"name":"WithdrawalRequested","type":"event"},{"anonymous":false,"inputs":[{"indexed":false,"internalType":"address","name":"to","type":"address"},{"indexed":false,"internalType":"uint256","name":"amount","type":"uint256"}],"name":"decodeSuccess","type":"event"},{"inputs":[],"name":"DECIMALS","outputs":[{"internalType":"uint256","name":"","type":"uint256"}],"stateMutability":"view","type":"function"}],"evm":{"bytecode":{"linkReferences":{},"object":"608080604052346013576083908160198239f35b600080fdfe6080806040526004361015601257600080fd5b600090813560e01c632e0f262514602857600080fd5b3460495781600319360112604957676765c793fa10079d601b1b8152602090f35b5080fdfea26469706673582212205d322676b79d26f02efccacfa12781c765be1b706edce3fbf465091cd2c6b5ab64736f6c63430008190033","opcodes":"PUSH1 0x80 DUP1 PUSH1 0x40 MSTORE CALLVALUE PUSH1 0x13 JUMPI PUSH1 0x83 SWAP1 DUP2 PUSH1 0x19 DUP3 CODECOPY RETURN JUMPDEST PUSH1 0x0 DUP1 REVERT INVALID PUSH1 0x80 DUP1 PUSH1 0x40 MSTORE PUSH1 0x4 CALLDATASIZE LT ISZERO PUSH1 0x12 JUMPI PUSH1 0x0 DUP1 REVERT JUMPDEST PUSH1 0x0 SWAP1 DUP2 CALLDATALOAD PUSH1 0xE0 SHR PUSH4 0x2E0F2625 EQ PUSH1 0x28 JUMPI PUSH1 0x0 DUP1 REVERT JUMPDEST CALLVALUE PUSH1 0x49 JUMPI DUP2 PUSH1 0x3 NOT CALLDATASIZE ADD SLT PUSH1 0x49 JUMPI PUSH8 0x6765C793FA10079D PUSH1 0x1B SHL DUP2 MSTORE PUSH1 0x20 SWAP1 RETURN JUMPDEST POP DUP1 REVERT INVALID LOG2 PUSH5 0x6970667358 0x22 SLT KECCAK256 TSTORE ORIGIN 0x26 PUSH23 0xB79D26F02EFCCACFA12781C765BE1B706EDCE3FBF46509 SHR 0xD2 0xC6 0xB5 0xAB PUSH5 0x736F6C6343 STOP ADDMOD NOT STOP CALLER "},"methodIdentifiers":{"DECIMALS()":"2e0f2625"}}}}}