{"src/L1/L1WrappedStakedTONProxy.sol":{"L1WrappedStakedTONProxy":{"abi":[{"inputs":[],"name":"AccessControlBadConfirmation","type":"error"},{"inputs":[{"internalType":"address","name":"account","type":"address"},{"internalType":"bytes32","name":"neededRole","type":"bytes32"}],"name":"AccessControlUnauthorizedAccount","type":"error"},{"inputs":[],"name":"SameAdmin","type":"error"},{"inputs":[],"name":"SameOwner","type":"error"},{"inputs":[],"name":"ZeroAddress","type":"error"},{"anonymous":false,"inputs":[{"indexed":true,"internalType":"bytes32","name":"role","type":"bytes32"},{"indexed":true,"internalType":"bytes32","name":"previousAdminRole","type":"bytes32"},{"indexed":true,"internalType":"bytes32","name":"newAdminRole","type":"bytes32"}],"name":"RoleAdminChanged","type":"event"},{"anonymous":false,"inputs":[{"indexed":true,"internalType":"bytes32","name":"role","type":"bytes32"},{"indexed":true,"internalType":"address","name":"account","type":"address"},{"indexed":true,"internalType":"address","name":"sender","type":"address"}],"name":"RoleGranted","type":"event"},{"anonymous":false,"inputs":[{"indexed":true,"internalType":"bytes32","name":"role","type":"bytes32"},{"indexed":true,"internalType":"address","name":"account","type":"address"},{"indexed":true,"internalType":"address","name":"sender","type":"address"}],"name":"RoleRevoked","type":"event"},{"anonymous":false,"inputs":[{"indexed":true,"internalType":"address","name":"impl","type":"address"},{"indexed":false,"internalType":"bool","name":"alive","type":"bool"}],"name":"SetAliveImplementation","type":"event"},{"anonymous":false,"inputs":[{"indexed":true,"internalType":"bytes4","name":"selector","type":"bytes4"},{"indexed":true,"internalType":"address","name":"impl","type":"address"}],"name":"SetSelectorImplementation","type":"event"},{"anonymous":false,"inputs":[{"indexed":true,"internalType":"address","name":"implementation","type":"address"}],"name":"Upgraded","type":"event"},{"stateMutability":"payable","type":"fallback"},{"inputs":[],"name":"ADMIN_ROLE","outputs":[{"internalType":"bytes32","name":"","type":"bytes32"}],"stateMutability":"view","type":"function"},{"inputs":[],"name":"DEFAULT_ADMIN_ROLE","outputs":[{"internalType":"bytes32","name":"","type":"bytes32"}],"stateMutability":"view","type":"function"},{"inputs":[],"name":"PAUSE_ROLE","outputs":[{"internalType":"bytes32","name":"","type":"bytes32"}],"stateMutability":"view","type":"function"},{"inputs":[{"internalType":"address","name":"account","type":"address"}],"name":"addAdmin","outputs":[],"stateMutability":"nonpayable","type":"function"},{"inputs":[{"internalType":"address","name":"account","type":"address"}],"name":"addPauser","outputs":[],"stateMutability":"nonpayable","type":"function"},{"inputs":[{"internalType":"address","name":"","type":"address"}],"name":"aliveImplementation","outputs":[{"internalType":"bool","name":"","type":"bool"}],"stateMutability":"view","type":"function"},{"inputs":[{"internalType":"bytes32","name":"role","type":"bytes32"}],"name":"getRoleAdmin","outputs":[{"internalType":"bytes32","name":"","type":"bytes32"}],"stateMutability":"view","type":"function"},{"inputs":[{"internalType":"bytes4","name":"_selector","type":"bytes4"}],"name":"getSelectorImplementation2","outputs":[{"internalType":"address","name":"impl","type":"address"}],"stateMutability":"view","type":"function"},{"inputs":[{"internalType":"bytes32","name":"role","type":"bytes32"},{"internalType":"address","name":"account","type":"address"}],"name":"grantRole","outputs":[],"stateMutability":"nonpayable","type":"function"},{"inputs":[{"internalType":"bytes32","name":"role","type":"bytes32"},{"internalType":"address","name":"account","type":"address"}],"name":"hasRole","outputs":[{"internalType":"bool","name":"","type":"bool"}],"stateMutability":"view","type":"function"},{"inputs":[],"name":"implementation","outputs":[{"internalType":"address","name":"","type":"address"}],"stateMutability":"view","type":"function"},{"inputs":[{"internalType":"uint256","name":"_index","type":"uint256"}],"name":"implementation2","outputs":[{"internalType":"address","name":"","type":"address"}],"stateMutability":"view","type":"function"},{"inputs":[{"internalType":"address","name":"account","type":"address"}],"name":"isAdmin","outputs":[{"internalType":"bool","name":"","type":"bool"}],"stateMutability":"view","type":"function"},{"inputs":[],"name":"isOwner","outputs":[{"internalType":"bool","name":"","type":"bool"}],"stateMutability":"view","type":"function"},{"inputs":[{"internalType":"address","name":"account","type":"address"}],"name":"isPauser","outputs":[{"internalType":"bool","name":"","type":"bool"}],"stateMutability":"view","type":"function"},{"inputs":[],"name":"pauseProxy","outputs":[{"internalType":"bool","name":"","type":"bool"}],"stateMutability":"view","type":"function"},{"inputs":[{"internalType":"uint256","name":"","type":"uint256"}],"name":"proxyImplementation","outputs":[{"internalType":"address","name":"","type":"address"}],"stateMutability":"view","type":"function"},{"inputs":[],"name":"removeAdmin","outputs":[],"stateMutability":"nonpayable","type":"function"},{"inputs":[{"internalType":"address","name":"account","type":"address"}],"name":"removePauser","outputs":[],"stateMutability":"nonpayable","type":"function"},{"inputs":[{"internalType":"bytes32","name":"role","type":"bytes32"},{"internalType":"address","name":"callerConfirmation","type":"address"}],"name":"renounceRole","outputs":[],"stateMutability":"nonpayable","type":"function"},{"inputs":[{"internalType":"bytes32","name":"role","type":"bytes32"},{"internalType":"address","name":"account","type":"address"}],"name":"revokeRole","outputs":[],"stateMutability":"nonpayable","type":"function"},{"inputs":[{"internalType":"bytes4","name":"","type":"bytes4"}],"name":"selectorImplementation","outputs":[{"internalType":"address","name":"","type":"address"}],"stateMutability":"view","type":"function"},{"inputs":[{"internalType":"address","name":"newImplementation","type":"address"},{"internalType":"bool","name":"_alive","type":"bool"}],"name":"setAliveImplementation2","outputs":[],"stateMutability":"nonpayable","type":"function"},{"inputs":[{"internalType":"address","name":"newImplementation","type":"address"},{"internalType":"uint256","name":"_index","type":"uint256"},{"internalType":"bool","name":"_alive","type":"bool"}],"name":"setImplementation2","outputs":[],"stateMutability":"nonpayable","type":"function"},{"inputs":[{"internalType":"bool","name":"_pause","type":"bool"}],"name":"setProxyPause","outputs":[],"stateMutability":"nonpayable","type":"function"},{"inputs":[{"internalType":"bytes4[]","name":"_selectors","type":"bytes4[]"},{"internalType":"address","name":"_imp","type":"address"}],"name":"setSelectorImplementations2","outputs":[],"stateMutability":"nonpayable","type":"function"},{"inputs":[{"internalType":"bytes4","name":"interfaceId","type":"bytes4"}],"name":"supportsInterface","outputs":[{"internalType":"bool","name":"","type":"bool"}],"stateMutability":"view","type":"function"},{"inputs":[{"internalType":"address","name":"newOwner","type":"address"}],"name":"transferOwnership","outputs":[],"stateMutability":"nonpayable","type":"function"},{"inputs":[{"internalType":"address","name":"impl","type":"address"}],"name":"upgradeTo","outputs":[],"stateMutability":"nonpayable","type":"function"},{"stateMutability":"payable","type":"receive"}],"evm":{"bytecode":{"linkReferences":{},"object":"608060405234601f57600f336024565b5060405161149d90816100b58239f35b600080fd5b6001600160a01b031660008181527f17ef568e3e12ab5b9c7254a8d58478811de00f9e6eb34345acd53bf8fd09d3ec602052604081205490919060ff1660b05781805260046020526040822081835260205260408220600160ff1982541617905533917f2f8788117e7eff1d82e926ec794901d17c78024a50270940304540a733656f0d8180a4600190565b509056fe60806040526004361015610015575b3661132c57005b60003560e01c806301ffc9a7146101e0578063248a9ca3146101db57806324d7806c146101d65780632f2ff15d146101d157806336568abe146101cc5780633659cfe6146101c7578063389ed267146101c257806346fbf68e146101bd5780634a5df50f146101b857806350d2a276146101b3578063550d01a3146101ae5780635c60da1b146101a95780635cc797d8146101a457806363a8fd891461019f5780636b2c0f551461019a578063704802751461019557806375b238fc146101905780637cb00d251461018b5780637cd5f6631461018657806382dc1ec4146101815780638b8f4a65146101635780638d4fdb401461017c5780638f32d59b1461017757806391d14854146101725780639a202d471461016d578063a217fddf14610168578063b911135f14610163578063d547741f1461015e5763f2fde38b0361000e57610bf4565b610bb5565b610a38565b610b99565b610afe565b610aca565b610aa5565b610a6c565b6109ca565b61092d565b6108f1565b6108c8565b61085a565b61079a565b610777565b61073e565b61070a565b6106cb565b610654565b6104b9565b610479565b610450565b610381565b61033a565b6102f9565b6102ad565b610252565b6101fc565b6001600160e01b03198116036101f757565b600080fd5b346101f75760203660031901126101f757602060043561021b816101e5565b63ffffffff60e01b16637965db0b60e01b8114908115610241575b506040519015158152f35b6301ffc9a760e01b14905038610236565b346101f75760203660031901126101f75760043560005260046020526020600160406000200154604051908152f35b600435906001600160a01b03821682036101f757565b602435906001600160a01b03821682036101f757565b346101f75760203660031901126101f757602060ff6102ed6102cd610281565b6000805160206114488339815191526000526004845260406000206106b4565b54166040519015158152f35b346101f75760403660031901126101f757610338600435610318610297565b90806000526004602052610333600160406000200154610f3e565b6110de565b005b346101f75760403660031901126101f757610353610297565b336001600160a01b0382160361036f5761033890600435611248565b60405163334bd91960e11b8152600490fd5b346101f75760203660031901126101f75761039a610281565b6103aa6103a5610f1b565b610d15565b6001600160a01b038116801561041b57600080805260016020526000805160206113e88339815191525490926103f4916103ef906001600160a01b0316841415610d6d565b611262565b7fbc7cd75a20ee27fd9adebab32041f755214dbc6bffa90cc0225b39da2e5c2d3b8280a280f35b60405162461bcd60e51b815260206004820152600d60248201526c696e707574206973207a65726f60981b6044820152606490fd5b346101f75760003660031901126101f75760206040516000805160206114288339815191528152f35b346101f75760203660031901126101f757602060ff6102ed610499610281565b6000805160206114288339815191526000526004845260406000206106b4565b346101f75760403660031901126101f75760043567ffffffffffffffff8082116101f757366023830112156101f75781600401359081116101f7576024820191602436918360051b0101116101f757610510610297565b9161051c6103a5610f1b565b81156105f7579061053e6105396105328561069a565b5460ff1690565b610da5565b6001600160a01b0391838316919060005b82811061055857005b80610593858761058b61057e6105796105746001988b8b610dec565b610e12565b61063b565b546001600160a01b031690565b161415610e1f565b6105ad876105a8610579610574858989610dec565b610e6b565b846105cc6105bf610574848888610dec565b6001600160e01b03191690565b7f14ebc1c32aa68f4d766e89f3e546cee249f7df25183fc10ab1568d91c2ce9b7b600080a30161054f565b606460405162461bcd60e51b815260206004820152602060248201527f50726f78793a205f73656c6563746f727327732073697a65206973207a65726f6044820152fd5b63ffffffff60e01b166000526003602052604060002090565b346101f75760203660031901126101f757600435610671816101e5565b63ffffffff60e01b166000526003602052602060018060a01b0360406000205416604051908152f35b6001600160a01b0316600090815260026020526040902090565b9060018060a01b0316600052602052604060002090565b346101f75760203660031901126101f7576001600160a01b036106ec610281565b166000526002602052602060ff604060002054166040519015158152f35b346101f75760008060031936011261073b5780806020925260018252604060018060a01b0391205416604051908152f35b80fd5b346101f75760403660031901126101f757610757610281565b60243580151581036101f757610338916107726103a5610f1b565b6112d8565b346101f75760003660031901126101f757602060ff600054166040519015158152f35b346101f75760203660031901126101f7576107b3610281565b600080516020611428833981519152600052600460205260ff6107e4336000805160206113c88339815191526106b4565b5416801561084c575b156107fb5761033890610cfc565b60405162461bcd60e51b815260206004820152602360248201527f41757468436f6e74726f6c3a2043616c6c6572206973206e6f7420612070617560448201526239b2b960e91b6064820152608490fd5b50610855610f1b565b6107ed565b346101f75760203660031901126101f757610338610876610281565b6108816103a5610f1b565b60008051602061144883398151915260005260046020527f2fb794d17134dfdec181ddbac1babb5ab1eb140204ef4d982f294e7fc8b69023546108c390610f3e565b610f7f565b346101f75760003660031901126101f75760206040516000805160206114488339815191528152f35b346101f75760203660031901126101f7576004358015158091036101f75761091a6103a5610f1b565b60ff801960005416911617600055600080f35b346101f75760603660031901126101f757610946610281565b60443580151581036101f75761095d6103a5610f1b565b813b15610987576103389181156112d8576024356000526001602052610772816040600020610e6b565b60405162461bcd60e51b815260206004820152601b60248201527a50726f78793a206e6f7420636f6e7472616374206164647265737360281b6044820152606490fd5b346101f75760203660031901126101f7576103386109e6610281565b6109f16103a5610f1b565b60008051602061142883398151915260005260046020527f2ed987ab732d519c59d4a2f2f586b9ca6af9f18905fa2093aceeb8d462ffc84354610a3390610f3e565b611026565b346101f75760203660031901126101f7576004356000526001602052602060018060a01b0360406000205416604051908152f35b346101f75760203660031901126101f7576020610a93600435610a8e816101e5565b610e8a565b6040516001600160a01b039091168152f35b346101f75760003660031901126101f7576020610ac0610f1b565b6040519015158152f35b346101f75760403660031901126101f757602060ff6102ed610aea610297565b6004356000526004845260406000206106b4565b346101f75760008060031936011261073b576000805160206114488339815191528152600460205260ff610b3533604084206106b4565b541615610b4857610b4533610cc7565b80f35b60405162461bcd60e51b815260206004820152602360248201527f41757468436f6e74726f6c3a2043616c6c6572206973206e6f7420616e20616460448201526236b4b760e91b6064820152608490fd5b346101f75760003660031901126101f757602060405160008152f35b346101f75760403660031901126101f757610338600435610bd4610297565b90806000526004602052610bef600160406000200154610f3e565b611248565b346101f75760203660031901126101f757610c0d610281565b610c186103a5610f1b565b6001600160a01b0381168015610cb5573314610ca357600080805260046020527f17ef568e3e12ab5b9c7254a8d58478811de00f9e6eb34345acd53bf8fd09d3ed549091610c9991610c6990610f3e565b610c728161105a565b50600080516020611448833981519152835260046020526108c36001604085200154610f3e565b50610b4533610ce3565b604051630a98f1f360e21b8152600490fd5b60405163d92e233d60e01b8152600490fd5b336001600160a01b0382160361036f57610ce0906110f8565b50565b336001600160a01b0382160361036f57610ce090611197565b336001600160a01b0382160361036f57610ce090611214565b15610d1c57565b60405162461bcd60e51b8152602060048201526024808201527f41757468436f6e74726f6c3a2043616c6c6572206973206e6f7420746865206f6044820152633bb732b960e11b6064820152608490fd5b15610d7457565b60405162461bcd60e51b815260206004820152600960248201526839b0b6b29030b2323960b91b6044820152606490fd5b15610dac57565b60405162461bcd60e51b815260206004820152601860248201527750726f78793a205f696d70206973206e6f7420616c69766560401b6044820152606490fd5b9190811015610dfc5760051b0190565b634e487b7160e01b600052603260045260246000fd5b35610e1c816101e5565b90565b15610e2657565b60405162461bcd60e51b815260206004820152601d60248201527f4c69717569646974795661756c7450726f78793a2073616d6520696d700000006044820152606490fd5b80546001600160a01b0319166001600160a01b03909216919091179055565b6001600160e01b031981166000908152600360205260409020546001600160a01b0391908216610ed757506000805260016020526000805160206113e8833981519152541690565b541690565b60ff610eed83610ee68461063b565b541661069a565b541615610efd57610ed29061063b565b506000805260016020526000805160206113e8833981519152541690565b60008052600460205260ff610ed2336000805160206114088339815191526106b4565b80600052600460205260ff610f573360406000206106b4565b541615610f615750565b6044906040519063e2517d3f60e01b82523360048301526024820152fd5b600080516020611448833981519152600081815260046020529060ff610fc5847f2fb794d17134dfdec181ddbac1babb5ab1eb140204ef4d982f294e7fc8b690226106b4565b5416611020578082526004602052610fe083604084206106b4565b805460ff1916600117905533926001600160a01b0316917f2f8788117e7eff1d82e926ec794901d17c78024a50270940304540a733656f0d9080a4600190565b50905090565b600080516020611428833981519152600081815260046020529060ff610fc5846000805160206113c88339815191526106b4565b6000808052600460205260ff61107e836000805160206114088339815191526106b4565b54166110d957808052600460205261109982604083206106b4565b805460ff1916600117905533916001600160a01b0316907f2f8788117e7eff1d82e926ec794901d17c78024a50270940304540a733656f0d8180a4600190565b905090565b600090808252600460205260ff610fc584604085206106b4565b600080516020611448833981519152600081815260046020529060ff61113e847f2fb794d17134dfdec181ddbac1babb5ab1eb140204ef4d982f294e7fc8b690226106b4565b54161561102057808252600460205261115a83604084206106b4565b805460ff1916905533926001600160a01b0316917ff6391f5c32d9c69d2a47ea670b442974b53935d1edc7fd64eb21e047a839171b9080a4600190565b6000808052600460205260ff6111bb836000805160206114088339815191526106b4565b5416156110d95780805260046020526111d782604083206106b4565b805460ff1916905533916001600160a01b0316907ff6391f5c32d9c69d2a47ea670b442974b53935d1edc7fd64eb21e047a839171b8180a4600190565b600080516020611428833981519152600081815260046020529060ff61113e846000805160206113c88339815191526106b4565b600090808252600460205260ff61113e84604085206106b4565b803b156109875760008052600160205261128a816000805160206113e8833981519152610e6b565b60018060a01b03168060005260026020526040600020600160ff198254161790557f72558d9bfba4210f9ef095c782589484151f6d90f7a81bb3cb9b33efc695d324602060405160018152a2565b60207f72558d9bfba4210f9ef095c782589484151f6d90f7a81bb3cb9b33efc695d3249160018060a01b031692836000526002825260406000209015159060ff1981541660ff8316179055604051908152a2565b600061134281356001600160e01b031916610e8a565b6001600160a01b0381161515806113bb575b1561137657818091368280378136915af43d82803e15611372573d90f35b3d90fd5b60405162461bcd60e51b815260206004820152601d60248201527f50726f78793a20696d706c204f522070726f78792069732066616c73650000006044820152606490fd5b5060ff8254161561135456fe2ed987ab732d519c59d4a2f2f586b9ca6af9f18905fa2093aceeb8d462ffc842a6eef7e35abe7026729641147f7915573c7e97b47efa546f5f6e3230263bcb4917ef568e3e12ab5b9c7254a8d58478811de00f9e6eb34345acd53bf8fd09d3ecfcb9fcbfa83b897fb2d5cf4b58962164105c1e71489a37ef3ae0db3fdce576f6df8b4c520ffe197c5343c6f5aec59570151ef9a492f2c624fd45ddde6135ec42a2646970667358221220c1495cc11d3a06de2c567cc44d6541759b4f14506f6d273420981788c5e3490f64736f6c63430008190033","opcodes":"PUSH1 0x80 PUSH1 0x40 MSTORE CALLVALUE PUSH1 0x1F JUMPI PUSH1 0xF CALLER PUSH1 0x24 JUMP JUMPDEST POP PUSH1 0x40 MLOAD PUSH2 0x149D SWAP1 DUP2 PUSH2 0xB5 DUP3 CODECOPY RETURN JUMPDEST PUSH1 0x0 DUP1 REVERT JUMPDEST PUSH1 0x1 PUSH1 0x1 PUSH1 0xA0 SHL SUB AND PUSH1 0x0 DUP2 DUP2 MSTORE PUSH32 0x17EF568E3E12AB5B9C7254A8D58478811DE00F9E6EB34345ACD53BF8FD09D3EC PUSH1 0x20 MSTORE PUSH1 0x40 DUP2 KECCAK256 SLOAD SWAP1 SWAP2 SWAP1 PUSH1 0xFF AND PUSH1 0xB0 JUMPI DUP2 DUP1 MSTORE PUSH1 0x4 PUSH1 0x20 MSTORE PUSH1 0x40 DUP3 KECCAK256 DUP2 DUP4 MSTORE PUSH1 0x20 MSTORE PUSH1 0x40 DUP3 KECCAK256 PUSH1 0x1 PUSH1 0xFF NOT DUP3 SLOAD AND OR SWAP1 SSTORE CALLER SWAP2 PUSH32 0x2F8788117E7EFF1D82E926EC794901D17C78024A50270940304540A733656F0D DUP2 DUP1 LOG4 PUSH1 0x1 SWAP1 JUMP JUMPDEST POP SWAP1 JUMP INVALID PUSH1 0x80 PUSH1 0x40 MSTORE PUSH1 0x4 CALLDATASIZE LT ISZERO PUSH2 0x15 JUMPI JUMPDEST CALLDATASIZE PUSH2 0x132C JUMPI STOP JUMPDEST PUSH1 0x0 CALLDATALOAD PUSH1 0xE0 SHR DUP1 PUSH4 0x1FFC9A7 EQ PUSH2 0x1E0 JUMPI DUP1 PUSH4 0x248A9CA3 EQ PUSH2 0x1DB JUMPI DUP1 PUSH4 0x24D7806C EQ PUSH2 0x1D6 JUMPI DUP1 PUSH4 0x2F2FF15D EQ PUSH2 0x1D1 JUMPI DUP1 PUSH4 0x36568ABE EQ PUSH2 0x1CC JUMPI DUP1 PUSH4 0x3659CFE6 EQ PUSH2 0x1C7 JUMPI DUP1 PUSH4 0x389ED267 EQ PUSH2 0x1C2 JUMPI DUP1 PUSH4 0x46FBF68E EQ PUSH2 0x1BD JUMPI DUP1 PUSH4 0x4A5DF50F EQ PUSH2 0x1B8 JUMPI DUP1 PUSH4 0x50D2A276 EQ PUSH2 0x1B3 JUMPI DUP1 PUSH4 0x550D01A3 EQ PUSH2 0x1AE JUMPI DUP1 PUSH4 0x5C60DA1B EQ PUSH2 0x1A9 JUMPI DUP1 PUSH4 0x5CC797D8 EQ PUSH2 0x1A4 JUMPI DUP1 PUSH4 0x63A8FD89 EQ PUSH2 0x19F JUMPI DUP1 PUSH4 0x6B2C0F55 EQ PUSH2 0x19A JUMPI DUP1 PUSH4 0x70480275 EQ PUSH2 0x195 JUMPI DUP1 PUSH4 0x75B238FC EQ PUSH2 0x190 JUMPI DUP1 PUSH4 0x7CB00D25 EQ PUSH2 0x18B JUMPI DUP1 PUSH4 0x7CD5F663 EQ PUSH2 0x186 JUMPI DUP1 PUSH4 0x82DC1EC4 EQ PUSH2 0x181 JUMPI DUP1 PUSH4 0x8B8F4A65 EQ PUSH2 0x163 JUMPI DUP1 PUSH4 0x8D4FDB40 EQ PUSH2 0x17C JUMPI DUP1 PUSH4 0x8F32D59B EQ PUSH2 0x177 JUMPI DUP1 PUSH4 0x91D14854 EQ PUSH2 0x172 JUMPI DUP1 PUSH4 0x9A202D47 EQ PUSH2 0x16D JUMPI DUP1 PUSH4 0xA217FDDF EQ PUSH2 0x168 JUMPI DUP1 PUSH4 0xB911135F EQ PUSH2 0x163 JUMPI DUP1 PUSH4 0xD547741F EQ PUSH2 0x15E JUMPI PUSH4 0xF2FDE38B SUB PUSH2 0xE JUMPI PUSH2 0xBF4 JUMP JUMPDEST PUSH2 0xBB5 JUMP JUMPDEST PUSH2 0xA38 JUMP JUMPDEST PUSH2 0xB99 JUMP JUMPDEST PUSH2 0xAFE JUMP JUMPDEST PUSH2 0xACA JUMP JUMPDEST PUSH2 0xAA5 JUMP JUMPDEST PUSH2 0xA6C JUMP JUMPDEST PUSH2 0x9CA JUMP JUMPDEST PUSH2 0x92D JUMP JUMPDEST PUSH2 0x8F1 JUMP JUMPDEST PUSH2 0x8C8 JUMP JUMPDEST PUSH2 0x85A JUMP JUMPDEST PUSH2 0x79A JUMP JUMPDEST PUSH2 0x777 JUMP JUMPDEST PUSH2 0x73E JUMP JUMPDEST PUSH2 0x70A JUMP JUMPDEST PUSH2 0x6CB JUMP JUMPDEST PUSH2 0x654 JUMP JUMPDEST PUSH2 0x4B9 JUMP JUMPDEST PUSH2 0x479 JUMP JUMPDEST PUSH2 0x450 JUMP JUMPDEST PUSH2 0x381 JUMP JUMPDEST PUSH2 0x33A JUMP JUMPDEST PUSH2 0x2F9 JUMP JUMPDEST PUSH2 0x2AD JUMP JUMPDEST PUSH2 0x252 JUMP JUMPDEST PUSH2 0x1FC JUMP JUMPDEST PUSH1 0x1 PUSH1 0x1 PUSH1 0xE0 SHL SUB NOT DUP2 AND SUB PUSH2 0x1F7 JUMPI JUMP JUMPDEST PUSH1 0x0 DUP1 REVERT JUMPDEST CALLVALUE PUSH2 0x1F7 JUMPI PUSH1 0x20 CALLDATASIZE PUSH1 0x3 NOT ADD SLT PUSH2 0x1F7 JUMPI PUSH1 0x20 PUSH1 0x4 CALLDATALOAD PUSH2 0x21B DUP2 PUSH2 0x1E5 JUMP JUMPDEST PUSH4 0xFFFFFFFF PUSH1 0xE0 SHL AND PUSH4 0x7965DB0B PUSH1 0xE0 SHL DUP2 EQ SWAP1 DUP2 ISZERO PUSH2 0x241 JUMPI JUMPDEST POP PUSH1 0x40 MLOAD SWAP1 ISZERO ISZERO DUP2 MSTORE RETURN JUMPDEST PUSH4 0x1FFC9A7 PUSH1 0xE0 SHL EQ SWAP1 POP CODESIZE PUSH2 0x236 JUMP JUMPDEST CALLVALUE PUSH2 0x1F7 JUMPI PUSH1 0x20 CALLDATASIZE PUSH1 0x3 NOT ADD SLT PUSH2 0x1F7 JUMPI PUSH1 0x4 CALLDATALOAD PUSH1 0x0 MSTORE PUSH1 0x4 PUSH1 0x20 MSTORE PUSH1 0x20 PUSH1 0x1 PUSH1 0x40 PUSH1 0x0 KECCAK256 ADD SLOAD PUSH1 0x40 MLOAD SWAP1 DUP2 MSTORE RETURN JUMPDEST PUSH1 0x4 CALLDATALOAD SWAP1 PUSH1 0x1 PUSH1 0x1 PUSH1 0xA0 SHL SUB DUP3 AND DUP3 SUB PUSH2 0x1F7 JUMPI JUMP JUMPDEST PUSH1 0x24 CALLDATALOAD SWAP1 PUSH1 0x1 PUSH1 0x1 PUSH1 0xA0 SHL SUB DUP3 AND DUP3 SUB PUSH2 0x1F7 JUMPI JUMP JUMPDEST CALLVALUE PUSH2 0x1F7 JUMPI PUSH1 0x20 CALLDATASIZE PUSH1 0x3 NOT ADD SLT PUSH2 0x1F7 JUMPI PUSH1 0x20 PUSH1 0xFF PUSH2 0x2ED PUSH2 0x2CD PUSH2 0x281 JUMP JUMPDEST PUSH1 0x0 DUP1 MLOAD PUSH1 0x20 PUSH2 0x1448 DUP4 CODECOPY DUP2 MLOAD SWAP2 MSTORE PUSH1 0x0 MSTORE PUSH1 0x4 DUP5 MSTORE PUSH1 0x40 PUSH1 0x0 KECCAK256 PUSH2 0x6B4 JUMP JUMPDEST SLOAD AND PUSH1 0x40 MLOAD SWAP1 ISZERO ISZERO DUP2 MSTORE RETURN JUMPDEST CALLVALUE PUSH2 0x1F7 JUMPI PUSH1 0x40 CALLDATASIZE PUSH1 0x3 NOT ADD SLT PUSH2 0x1F7 JUMPI PUSH2 0x338 PUSH1 0x4 CALLDATALOAD PUSH2 0x318 PUSH2 0x297 JUMP JUMPDEST SWAP1 DUP1 PUSH1 0x0 MSTORE PUSH1 0x4 PUSH1 0x20 MSTORE PUSH2 0x333 PUSH1 0x1 PUSH1 0x40 PUSH1 0x0 KECCAK256 ADD SLOAD PUSH2 0xF3E JUMP JUMPDEST PUSH2 0x10DE JUMP JUMPDEST STOP JUMPDEST CALLVALUE PUSH2 0x1F7 JUMPI PUSH1 0x40 CALLDATASIZE PUSH1 0x3 NOT ADD SLT PUSH2 0x1F7 JUMPI PUSH2 0x353 PUSH2 0x297 JUMP JUMPDEST CALLER PUSH1 0x1 PUSH1 0x1 PUSH1 0xA0 SHL SUB DUP3 AND SUB PUSH2 0x36F JUMPI PUSH2 0x338 SWAP1 PUSH1 0x4 CALLDATALOAD PUSH2 0x1248 JUMP JUMPDEST PUSH1 0x40 MLOAD PUSH4 0x334BD919 PUSH1 0xE1 SHL DUP2 MSTORE PUSH1 0x4 SWAP1 REVERT JUMPDEST CALLVALUE PUSH2 0x1F7 JUMPI PUSH1 0x20 CALLDATASIZE PUSH1 0x3 NOT ADD SLT PUSH2 0x1F7 JUMPI PUSH2 0x39A PUSH2 0x281 JUMP JUMPDEST PUSH2 0x3AA PUSH2 0x3A5 PUSH2 0xF1B JUMP JUMPDEST PUSH2 0xD15 JUMP JUMPDEST PUSH1 0x1 PUSH1 0x1 PUSH1 0xA0 SHL SUB DUP2 AND DUP1 ISZERO PUSH2 0x41B JUMPI PUSH1 0x0 DUP1 DUP1 MSTORE PUSH1 0x1 PUSH1 0x20 MSTORE PUSH1 0x0 DUP1 MLOAD PUSH1 0x20 PUSH2 0x13E8 DUP4 CODECOPY DUP2 MLOAD SWAP2 MSTORE SLOAD SWAP1 SWAP3 PUSH2 0x3F4 SWAP2 PUSH2 0x3EF SWAP1 PUSH1 0x1 PUSH1 0x1 PUSH1 0xA0 SHL SUB AND DUP5 EQ ISZERO PUSH2 0xD6D JUMP JUMPDEST PUSH2 0x1262 JUMP JUMPDEST PUSH32 0xBC7CD75A20EE27FD9ADEBAB32041F755214DBC6BFFA90CC0225B39DA2E5C2D3B DUP3 DUP1 LOG2 DUP1 RETURN JUMPDEST PUSH1 0x40 MLOAD PUSH3 0x461BCD PUSH1 0xE5 SHL DUP2 MSTORE PUSH1 0x20 PUSH1 0x4 DUP3 ADD MSTORE PUSH1 0xD PUSH1 0x24 DUP3 ADD MSTORE PUSH13 0x696E707574206973207A65726F PUSH1 0x98 SHL PUSH1 0x44 DUP3 ADD MSTORE PUSH1 0x64 SWAP1 REVERT JUMPDEST CALLVALUE PUSH2 0x1F7 JUMPI PUSH1 0x0 CALLDATASIZE PUSH1 0x3 NOT ADD SLT PUSH2 0x1F7 JUMPI PUSH1 0x20 PUSH1 0x40 MLOAD PUSH1 0x0 DUP1 MLOAD PUSH1 0x20 PUSH2 0x1428 DUP4 CODECOPY DUP2 MLOAD SWAP2 MSTORE DUP2 MSTORE RETURN JUMPDEST CALLVALUE PUSH2 0x1F7 JUMPI PUSH1 0x20 CALLDATASIZE PUSH1 0x3 NOT ADD SLT PUSH2 0x1F7 JUMPI PUSH1 0x20 PUSH1 0xFF PUSH2 0x2ED PUSH2 0x499 PUSH2 0x281 JUMP JUMPDEST PUSH1 0x0 DUP1 MLOAD PUSH1 0x20 PUSH2 0x1428 DUP4 CODECOPY DUP2 MLOAD SWAP2 MSTORE PUSH1 0x0 MSTORE PUSH1 0x4 DUP5 MSTORE PUSH1 0x40 PUSH1 0x0 KECCAK256 PUSH2 0x6B4 JUMP JUMPDEST CALLVALUE PUSH2 0x1F7 JUMPI PUSH1 0x40 CALLDATASIZE PUSH1 0x3 NOT ADD SLT PUSH2 0x1F7 JUMPI PUSH1 0x4 CALLDATALOAD PUSH8 0xFFFFFFFFFFFFFFFF DUP1 DUP3 GT PUSH2 0x1F7 JUMPI CALLDATASIZE PUSH1 0x23 DUP4 ADD SLT ISZERO PUSH2 0x1F7 JUMPI DUP2 PUSH1 0x4 ADD CALLDATALOAD SWAP1 DUP2 GT PUSH2 0x1F7 JUMPI PUSH1 0x24 DUP3 ADD SWAP2 PUSH1 0x24 CALLDATASIZE SWAP2 DUP4 PUSH1 0x5 SHL ADD ADD GT PUSH2 0x1F7 JUMPI PUSH2 0x510 PUSH2 0x297 JUMP JUMPDEST SWAP2 PUSH2 0x51C PUSH2 0x3A5 PUSH2 0xF1B JUMP JUMPDEST DUP2 ISZERO PUSH2 0x5F7 JUMPI SWAP1 PUSH2 0x53E PUSH2 0x539 PUSH2 0x532 DUP6 PUSH2 0x69A JUMP JUMPDEST SLOAD PUSH1 0xFF AND SWAP1 JUMP JUMPDEST PUSH2 0xDA5 JUMP JUMPDEST PUSH1 0x1 PUSH1 0x1 PUSH1 0xA0 SHL SUB SWAP2 DUP4 DUP4 AND SWAP2 SWAP1 PUSH1 0x0 JUMPDEST DUP3 DUP2 LT PUSH2 0x558 JUMPI STOP JUMPDEST DUP1 PUSH2 0x593 DUP6 DUP8 PUSH2 0x58B PUSH2 0x57E PUSH2 0x579 PUSH2 0x574 PUSH1 0x1 SWAP9 DUP12 DUP12 PUSH2 0xDEC JUMP JUMPDEST PUSH2 0xE12 JUMP JUMPDEST PUSH2 0x63B JUMP JUMPDEST SLOAD PUSH1 0x1 PUSH1 0x1 PUSH1 0xA0 SHL SUB AND SWAP1 JUMP JUMPDEST AND EQ ISZERO PUSH2 0xE1F JUMP JUMPDEST PUSH2 0x5AD DUP8 PUSH2 0x5A8 PUSH2 0x579 PUSH2 0x574 DUP6 DUP10 DUP10 PUSH2 0xDEC JUMP JUMPDEST PUSH2 0xE6B JUMP JUMPDEST DUP5 PUSH2 0x5CC PUSH2 0x5BF PUSH2 0x574 DUP5 DUP9 DUP9 PUSH2 0xDEC JUMP JUMPDEST PUSH1 0x1 PUSH1 0x1 PUSH1 0xE0 SHL SUB NOT AND SWAP1 JUMP JUMPDEST PUSH32 0x14EBC1C32AA68F4D766E89F3E546CEE249F7DF25183FC10AB1568D91C2CE9B7B PUSH1 0x0 DUP1 LOG3 ADD PUSH2 0x54F JUMP JUMPDEST PUSH1 0x64 PUSH1 0x40 MLOAD PUSH3 0x461BCD PUSH1 0xE5 SHL DUP2 MSTORE PUSH1 0x20 PUSH1 0x4 DUP3 ADD MSTORE PUSH1 0x20 PUSH1 0x24 DUP3 ADD MSTORE PUSH32 0x50726F78793A205F73656C6563746F727327732073697A65206973207A65726F PUSH1 0x44 DUP3 ADD MSTORE REVERT JUMPDEST PUSH4 0xFFFFFFFF PUSH1 0xE0 SHL AND PUSH1 0x0 MSTORE PUSH1 0x3 PUSH1 0x20 MSTORE PUSH1 0x40 PUSH1 0x0 KECCAK256 SWAP1 JUMP JUMPDEST CALLVALUE PUSH2 0x1F7 JUMPI PUSH1 0x20 CALLDATASIZE PUSH1 0x3 NOT ADD SLT PUSH2 0x1F7 JUMPI PUSH1 0x4 CALLDATALOAD PUSH2 0x671 DUP2 PUSH2 0x1E5 JUMP JUMPDEST PUSH4 0xFFFFFFFF PUSH1 0xE0 SHL AND PUSH1 0x0 MSTORE PUSH1 0x3 PUSH1 0x20 MSTORE PUSH1 0x20 PUSH1 0x1 DUP1 PUSH1 0xA0 SHL SUB PUSH1 0x40 PUSH1 0x0 KECCAK256 SLOAD AND PUSH1 0x40 MLOAD SWAP1 DUP2 MSTORE RETURN JUMPDEST PUSH1 0x1 PUSH1 0x1 PUSH1 0xA0 SHL SUB AND PUSH1 0x0 SWAP1 DUP2 MSTORE PUSH1 0x2 PUSH1 0x20 MSTORE PUSH1 0x40 SWAP1 KECCAK256 SWAP1 JUMP JUMPDEST SWAP1 PUSH1 0x1 DUP1 PUSH1 0xA0 SHL SUB AND PUSH1 0x0 MSTORE PUSH1 0x20 MSTORE PUSH1 0x40 PUSH1 0x0 KECCAK256 SWAP1 JUMP JUMPDEST CALLVALUE PUSH2 0x1F7 JUMPI PUSH1 0x20 CALLDATASIZE PUSH1 0x3 NOT ADD SLT PUSH2 0x1F7 JUMPI PUSH1 0x1 PUSH1 0x1 PUSH1 0xA0 SHL SUB PUSH2 0x6EC PUSH2 0x281 JUMP JUMPDEST AND PUSH1 0x0 MSTORE PUSH1 0x2 PUSH1 0x20 MSTORE PUSH1 0x20 PUSH1 0xFF PUSH1 0x40 PUSH1 0x0 KECCAK256 SLOAD AND PUSH1 0x40 MLOAD SWAP1 ISZERO ISZERO DUP2 MSTORE RETURN JUMPDEST CALLVALUE PUSH2 0x1F7 JUMPI PUSH1 0x0 DUP1 PUSH1 0x3 NOT CALLDATASIZE ADD SLT PUSH2 0x73B JUMPI DUP1 DUP1 PUSH1 0x20 SWAP3 MSTORE PUSH1 0x1 DUP3 MSTORE PUSH1 0x40 PUSH1 0x1 DUP1 PUSH1 0xA0 SHL SUB SWAP2 KECCAK256 SLOAD AND PUSH1 0x40 MLOAD SWAP1 DUP2 MSTORE RETURN JUMPDEST DUP1 REVERT JUMPDEST CALLVALUE PUSH2 0x1F7 JUMPI PUSH1 0x40 CALLDATASIZE PUSH1 0x3 NOT ADD SLT PUSH2 0x1F7 JUMPI PUSH2 0x757 PUSH2 0x281 JUMP JUMPDEST PUSH1 0x24 CALLDATALOAD DUP1 ISZERO ISZERO DUP2 SUB PUSH2 0x1F7 JUMPI PUSH2 0x338 SWAP2 PUSH2 0x772 PUSH2 0x3A5 PUSH2 0xF1B JUMP JUMPDEST PUSH2 0x12D8 JUMP JUMPDEST CALLVALUE PUSH2 0x1F7 JUMPI PUSH1 0x0 CALLDATASIZE PUSH1 0x3 NOT ADD SLT PUSH2 0x1F7 JUMPI PUSH1 0x20 PUSH1 0xFF PUSH1 0x0 SLOAD AND PUSH1 0x40 MLOAD SWAP1 ISZERO ISZERO DUP2 MSTORE RETURN JUMPDEST CALLVALUE PUSH2 0x1F7 JUMPI PUSH1 0x20 CALLDATASIZE PUSH1 0x3 NOT ADD SLT PUSH2 0x1F7 JUMPI PUSH2 0x7B3 PUSH2 0x281 JUMP JUMPDEST PUSH1 0x0 DUP1 MLOAD PUSH1 0x20 PUSH2 0x1428 DUP4 CODECOPY DUP2 MLOAD SWAP2 MSTORE PUSH1 0x0 MSTORE PUSH1 0x4 PUSH1 0x20 MSTORE PUSH1 0xFF PUSH2 0x7E4 CALLER PUSH1 0x0 DUP1 MLOAD PUSH1 0x20 PUSH2 0x13C8 DUP4 CODECOPY DUP2 MLOAD SWAP2 MSTORE PUSH2 0x6B4 JUMP JUMPDEST SLOAD AND DUP1 ISZERO PUSH2 0x84C JUMPI JUMPDEST ISZERO PUSH2 0x7FB JUMPI PUSH2 0x338 SWAP1 PUSH2 0xCFC JUMP JUMPDEST PUSH1 0x40 MLOAD PUSH3 0x461BCD PUSH1 0xE5 SHL DUP2 MSTORE PUSH1 0x20 PUSH1 0x4 DUP3 ADD MSTORE PUSH1 0x23 PUSH1 0x24 DUP3 ADD MSTORE PUSH32 0x41757468436F6E74726F6C3A2043616C6C6572206973206E6F74206120706175 PUSH1 0x44 DUP3 ADD MSTORE PUSH3 0x39B2B9 PUSH1 0xE9 SHL PUSH1 0x64 DUP3 ADD MSTORE PUSH1 0x84 SWAP1 REVERT JUMPDEST POP PUSH2 0x855 PUSH2 0xF1B JUMP JUMPDEST PUSH2 0x7ED JUMP JUMPDEST CALLVALUE PUSH2 0x1F7 JUMPI PUSH1 0x20 CALLDATASIZE PUSH1 0x3 NOT ADD SLT PUSH2 0x1F7 JUMPI PUSH2 0x338 PUSH2 0x876 PUSH2 0x281 JUMP JUMPDEST PUSH2 0x881 PUSH2 0x3A5 PUSH2 0xF1B JUMP JUMPDEST PUSH1 0x0 DUP1 MLOAD PUSH1 0x20 PUSH2 0x1448 DUP4 CODECOPY DUP2 MLOAD SWAP2 MSTORE PUSH1 0x0 MSTORE PUSH1 0x4 PUSH1 0x20 MSTORE PUSH32 0x2FB794D17134DFDEC181DDBAC1BABB5AB1EB140204EF4D982F294E7FC8B69023 SLOAD PUSH2 0x8C3 SWAP1 PUSH2 0xF3E JUMP JUMPDEST PUSH2 0xF7F JUMP JUMPDEST CALLVALUE PUSH2 0x1F7 JUMPI PUSH1 0x0 CALLDATASIZE PUSH1 0x3 NOT ADD SLT PUSH2 0x1F7 JUMPI PUSH1 0x20 PUSH1 0x40 MLOAD PUSH1 0x0 DUP1 MLOAD PUSH1 0x20 PUSH2 0x1448 DUP4 CODECOPY DUP2 MLOAD SWAP2 MSTORE DUP2 MSTORE RETURN JUMPDEST CALLVALUE PUSH2 0x1F7 JUMPI PUSH1 0x20 CALLDATASIZE PUSH1 0x3 NOT ADD SLT PUSH2 0x1F7 JUMPI PUSH1 0x4 CALLDATALOAD DUP1 ISZERO ISZERO DUP1 SWAP2 SUB PUSH2 0x1F7 JUMPI PUSH2 0x91A PUSH2 0x3A5 PUSH2 0xF1B JUMP JUMPDEST PUSH1 0xFF DUP1 NOT PUSH1 0x0 SLOAD AND SWAP2 AND OR PUSH1 0x0 SSTORE PUSH1 0x0 DUP1 RETURN JUMPDEST CALLVALUE PUSH2 0x1F7 JUMPI PUSH1 0x60 CALLDATASIZE PUSH1 0x3 NOT ADD SLT PUSH2 0x1F7 JUMPI PUSH2 0x946 PUSH2 0x281 JUMP JUMPDEST PUSH1 0x44 CALLDATALOAD DUP1 ISZERO ISZERO DUP2 SUB PUSH2 0x1F7 JUMPI PUSH2 0x95D PUSH2 0x3A5 PUSH2 0xF1B JUMP JUMPDEST DUP2 EXTCODESIZE ISZERO PUSH2 0x987 JUMPI PUSH2 0x338 SWAP2 DUP2 ISZERO PUSH2 0x12D8 JUMPI PUSH1 0x24 CALLDATALOAD PUSH1 0x0 MSTORE PUSH1 0x1 PUSH1 0x20 MSTORE PUSH2 0x772 DUP2 PUSH1 0x40 PUSH1 0x0 KECCAK256 PUSH2 0xE6B JUMP JUMPDEST PUSH1 0x40 MLOAD PUSH3 0x461BCD PUSH1 0xE5 SHL DUP2 MSTORE PUSH1 0x20 PUSH1 0x4 DUP3 ADD MSTORE PUSH1 0x1B PUSH1 0x24 DUP3 ADD MSTORE PUSH27 0x50726F78793A206E6F7420636F6E74726163742061646472657373 PUSH1 0x28 SHL PUSH1 0x44 DUP3 ADD MSTORE PUSH1 0x64 SWAP1 REVERT JUMPDEST CALLVALUE PUSH2 0x1F7 JUMPI PUSH1 0x20 CALLDATASIZE PUSH1 0x3 NOT ADD SLT PUSH2 0x1F7 JUMPI PUSH2 0x338 PUSH2 0x9E6 PUSH2 0x281 JUMP JUMPDEST PUSH2 0x9F1 PUSH2 0x3A5 PUSH2 0xF1B JUMP JUMPDEST PUSH1 0x0 DUP1 MLOAD PUSH1 0x20 PUSH2 0x1428 DUP4 CODECOPY DUP2 MLOAD SWAP2 MSTORE PUSH1 0x0 MSTORE PUSH1 0x4 PUSH1 0x20 MSTORE PUSH32 0x2ED987AB732D519C59D4A2F2F586B9CA6AF9F18905FA2093ACEEB8D462FFC843 SLOAD PUSH2 0xA33 SWAP1 PUSH2 0xF3E JUMP JUMPDEST PUSH2 0x1026 JUMP JUMPDEST CALLVALUE PUSH2 0x1F7 JUMPI PUSH1 0x20 CALLDATASIZE PUSH1 0x3 NOT ADD SLT PUSH2 0x1F7 JUMPI PUSH1 0x4 CALLDATALOAD PUSH1 0x0 MSTORE PUSH1 0x1 PUSH1 0x20 MSTORE PUSH1 0x20 PUSH1 0x1 DUP1 PUSH1 0xA0 SHL SUB PUSH1 0x40 PUSH1 0x0 KECCAK256 SLOAD AND PUSH1 0x40 MLOAD SWAP1 DUP2 MSTORE RETURN JUMPDEST CALLVALUE PUSH2 0x1F7 JUMPI PUSH1 0x20 CALLDATASIZE PUSH1 0x3 NOT ADD SLT PUSH2 0x1F7 JUMPI PUSH1 0x20 PUSH2 0xA93 PUSH1 0x4 CALLDATALOAD PUSH2 0xA8E DUP2 PUSH2 0x1E5 JUMP JUMPDEST PUSH2 0xE8A JUMP JUMPDEST PUSH1 0x40 MLOAD PUSH1 0x1 PUSH1 0x1 PUSH1 0xA0 SHL SUB SWAP1 SWAP2 AND DUP2 MSTORE RETURN JUMPDEST CALLVALUE PUSH2 0x1F7 JUMPI PUSH1 0x0 CALLDATASIZE PUSH1 0x3 NOT ADD SLT PUSH2 0x1F7 JUMPI PUSH1 0x20 PUSH2 0xAC0 PUSH2 0xF1B JUMP JUMPDEST PUSH1 0x40 MLOAD SWAP1 ISZERO ISZERO DUP2 MSTORE RETURN JUMPDEST CALLVALUE PUSH2 0x1F7 JUMPI PUSH1 0x40 CALLDATASIZE PUSH1 0x3 NOT ADD SLT PUSH2 0x1F7 JUMPI PUSH1 0x20 PUSH1 0xFF PUSH2 0x2ED PUSH2 0xAEA PUSH2 0x297 JUMP JUMPDEST PUSH1 0x4 CALLDATALOAD PUSH1 0x0 MSTORE PUSH1 0x4 DUP5 MSTORE PUSH1 0x40 PUSH1 0x0 KECCAK256 PUSH2 0x6B4 JUMP JUMPDEST CALLVALUE PUSH2 0x1F7 JUMPI PUSH1 0x0 DUP1 PUSH1 0x3 NOT CALLDATASIZE ADD SLT PUSH2 0x73B JUMPI PUSH1 0x0 DUP1 MLOAD PUSH1 0x20 PUSH2 0x1448 DUP4 CODECOPY DUP2 MLOAD SWAP2 MSTORE DUP2 MSTORE PUSH1 0x4 PUSH1 0x20 MSTORE PUSH1 0xFF PUSH2 0xB35 CALLER PUSH1 0x40 DUP5 KECCAK256 PUSH2 0x6B4 JUMP JUMPDEST SLOAD AND ISZERO PUSH2 0xB48 JUMPI PUSH2 0xB45 CALLER PUSH2 0xCC7 JUMP JUMPDEST DUP1 RETURN JUMPDEST PUSH1 0x40 MLOAD PUSH3 0x461BCD PUSH1 0xE5 SHL DUP2 MSTORE PUSH1 0x20 PUSH1 0x4 DUP3 ADD MSTORE PUSH1 0x23 PUSH1 0x24 DUP3 ADD MSTORE PUSH32 0x41757468436F6E74726F6C3A2043616C6C6572206973206E6F7420616E206164 PUSH1 0x44 DUP3 ADD MSTORE PUSH3 0x36B4B7 PUSH1 0xE9 SHL PUSH1 0x64 DUP3 ADD MSTORE PUSH1 0x84 SWAP1 REVERT JUMPDEST CALLVALUE PUSH2 0x1F7 JUMPI PUSH1 0x0 CALLDATASIZE PUSH1 0x3 NOT ADD SLT PUSH2 0x1F7 JUMPI PUSH1 0x20 PUSH1 0x40 MLOAD PUSH1 0x0 DUP2 MSTORE RETURN JUMPDEST CALLVALUE PUSH2 0x1F7 JUMPI PUSH1 0x40 CALLDATASIZE PUSH1 0x3 NOT ADD SLT PUSH2 0x1F7 JUMPI PUSH2 0x338 PUSH1 0x4 CALLDATALOAD PUSH2 0xBD4 PUSH2 0x297 JUMP JUMPDEST SWAP1 DUP1 PUSH1 0x0 MSTORE PUSH1 0x4 PUSH1 0x20 MSTORE PUSH2 0xBEF PUSH1 0x1 PUSH1 0x40 PUSH1 0x0 KECCAK256 ADD SLOAD PUSH2 0xF3E JUMP JUMPDEST PUSH2 0x1248 JUMP JUMPDEST CALLVALUE PUSH2 0x1F7 JUMPI PUSH1 0x20 CALLDATASIZE PUSH1 0x3 NOT ADD SLT PUSH2 0x1F7 JUMPI PUSH2 0xC0D PUSH2 0x281 JUMP JUMPDEST PUSH2 0xC18 PUSH2 0x3A5 PUSH2 0xF1B JUMP JUMPDEST PUSH1 0x1 PUSH1 0x1 PUSH1 0xA0 SHL SUB DUP2 AND DUP1 ISZERO PUSH2 0xCB5 JUMPI CALLER EQ PUSH2 0xCA3 JUMPI PUSH1 0x0 DUP1 DUP1 MSTORE PUSH1 0x4 PUSH1 0x20 MSTORE PUSH32 0x17EF568E3E12AB5B9C7254A8D58478811DE00F9E6EB34345ACD53BF8FD09D3ED SLOAD SWAP1 SWAP2 PUSH2 0xC99 SWAP2 PUSH2 0xC69 SWAP1 PUSH2 0xF3E JUMP JUMPDEST PUSH2 0xC72 DUP2 PUSH2 0x105A JUMP JUMPDEST POP PUSH1 0x0 DUP1 MLOAD PUSH1 0x20 PUSH2 0x1448 DUP4 CODECOPY DUP2 MLOAD SWAP2 MSTORE DUP4 MSTORE PUSH1 0x4 PUSH1 0x20 MSTORE PUSH2 0x8C3 PUSH1 0x1 PUSH1 0x40 DUP6 KECCAK256 ADD SLOAD PUSH2 0xF3E JUMP JUMPDEST POP PUSH2 0xB45 CALLER PUSH2 0xCE3 JUMP JUMPDEST PUSH1 0x40 MLOAD PUSH4 0xA98F1F3 PUSH1 0xE2 SHL DUP2 MSTORE PUSH1 0x4 SWAP1 REVERT JUMPDEST PUSH1 0x40 MLOAD PUSH4 0xD92E233D PUSH1 0xE0 SHL DUP2 MSTORE PUSH1 0x4 SWAP1 REVERT JUMPDEST CALLER PUSH1 0x1 PUSH1 0x1 PUSH1 0xA0 SHL SUB DUP3 AND SUB PUSH2 0x36F JUMPI PUSH2 0xCE0 SWAP1 PUSH2 0x10F8 JUMP JUMPDEST POP JUMP JUMPDEST CALLER PUSH1 0x1 PUSH1 0x1 PUSH1 0xA0 SHL SUB DUP3 AND SUB PUSH2 0x36F JUMPI PUSH2 0xCE0 SWAP1 PUSH2 0x1197 JUMP JUMPDEST CALLER PUSH1 0x1 PUSH1 0x1 PUSH1 0xA0 SHL SUB DUP3 AND SUB PUSH2 0x36F JUMPI PUSH2 0xCE0 SWAP1 PUSH2 0x1214 JUMP JUMPDEST ISZERO PUSH2 0xD1C JUMPI JUMP JUMPDEST PUSH1 0x40 MLOAD PUSH3 0x461BCD PUSH1 0xE5 SHL DUP2 MSTORE PUSH1 0x20 PUSH1 0x4 DUP3 ADD MSTORE PUSH1 0x24 DUP1 DUP3 ADD MSTORE PUSH32 0x41757468436F6E74726F6C3A2043616C6C6572206973206E6F7420746865206F PUSH1 0x44 DUP3 ADD MSTORE PUSH4 0x3BB732B9 PUSH1 0xE1 SHL PUSH1 0x64 DUP3 ADD MSTORE PUSH1 0x84 SWAP1 REVERT JUMPDEST ISZERO PUSH2 0xD74 JUMPI JUMP JUMPDEST PUSH1 0x40 MLOAD PUSH3 0x461BCD PUSH1 0xE5 SHL DUP2 MSTORE PUSH1 0x20 PUSH1 0x4 DUP3 ADD MSTORE PUSH1 0x9 PUSH1 0x24 DUP3 ADD MSTORE PUSH9 0x39B0B6B29030B23239 PUSH1 0xB9 SHL PUSH1 0x44 DUP3 ADD MSTORE PUSH1 0x64 SWAP1 REVERT JUMPDEST ISZERO PUSH2 0xDAC JUMPI JUMP JUMPDEST PUSH1 0x40 MLOAD PUSH3 0x461BCD PUSH1 0xE5 SHL DUP2 MSTORE PUSH1 0x20 PUSH1 0x4 DUP3 ADD MSTORE PUSH1 0x18 PUSH1 0x24 DUP3 ADD MSTORE PUSH24 0x50726F78793A205F696D70206973206E6F7420616C697665 PUSH1 0x40 SHL PUSH1 0x44 DUP3 ADD MSTORE PUSH1 0x64 SWAP1 REVERT JUMPDEST SWAP2 SWAP1 DUP2 LT ISZERO PUSH2 0xDFC JUMPI PUSH1 0x5 SHL ADD SWAP1 JUMP JUMPDEST PUSH4 0x4E487B71 PUSH1 0xE0 SHL PUSH1 0x0 MSTORE PUSH1 0x32 PUSH1 0x4 MSTORE PUSH1 0x24 PUSH1 0x0 REVERT JUMPDEST CALLDATALOAD PUSH2 0xE1C DUP2 PUSH2 0x1E5 JUMP JUMPDEST SWAP1 JUMP JUMPDEST ISZERO PUSH2 0xE26 JUMPI JUMP JUMPDEST PUSH1 0x40 MLOAD PUSH3 0x461BCD PUSH1 0xE5 SHL DUP2 MSTORE PUSH1 0x20 PUSH1 0x4 DUP3 ADD MSTORE PUSH1 0x1D PUSH1 0x24 DUP3 ADD MSTORE PUSH32 0x4C69717569646974795661756C7450726F78793A2073616D6520696D70000000 PUSH1 0x44 DUP3 ADD MSTORE PUSH1 0x64 SWAP1 REVERT JUMPDEST DUP1 SLOAD PUSH1 0x1 PUSH1 0x1 PUSH1 0xA0 SHL SUB NOT AND PUSH1 0x1 PUSH1 0x1 PUSH1 0xA0 SHL SUB SWAP1 SWAP3 AND SWAP2 SWAP1 SWAP2 OR SWAP1 SSTORE JUMP JUMPDEST PUSH1 0x1 PUSH1 0x1 PUSH1 0xE0 SHL SUB NOT DUP2 AND PUSH1 0x0 SWAP1 DUP2 MSTORE PUSH1 0x3 PUSH1 0x20 MSTORE PUSH1 0x40 SWAP1 KECCAK256 SLOAD PUSH1 0x1 PUSH1 0x1 PUSH1 0xA0 SHL SUB SWAP2 SWAP1 DUP3 AND PUSH2 0xED7 JUMPI POP PUSH1 0x0 DUP1 MSTORE PUSH1 0x1 PUSH1 0x20 MSTORE PUSH1 0x0 DUP1 MLOAD PUSH1 0x20 PUSH2 0x13E8 DUP4 CODECOPY DUP2 MLOAD SWAP2 MSTORE SLOAD AND SWAP1 JUMP JUMPDEST SLOAD AND SWAP1 JUMP JUMPDEST PUSH1 0xFF PUSH2 0xEED DUP4 PUSH2 0xEE6 DUP5 PUSH2 0x63B JUMP JUMPDEST SLOAD AND PUSH2 0x69A JUMP JUMPDEST SLOAD AND ISZERO PUSH2 0xEFD JUMPI PUSH2 0xED2 SWAP1 PUSH2 0x63B JUMP JUMPDEST POP PUSH1 0x0 DUP1 MSTORE PUSH1 0x1 PUSH1 0x20 MSTORE PUSH1 0x0 DUP1 MLOAD PUSH1 0x20 PUSH2 0x13E8 DUP4 CODECOPY DUP2 MLOAD SWAP2 MSTORE SLOAD AND SWAP1 JUMP JUMPDEST PUSH1 0x0 DUP1 MSTORE PUSH1 0x4 PUSH1 0x20 MSTORE PUSH1 0xFF PUSH2 0xED2 CALLER PUSH1 0x0 DUP1 MLOAD PUSH1 0x20 PUSH2 0x1408 DUP4 CODECOPY DUP2 MLOAD SWAP2 MSTORE PUSH2 0x6B4 JUMP JUMPDEST DUP1 PUSH1 0x0 MSTORE PUSH1 0x4 PUSH1 0x20 MSTORE PUSH1 0xFF PUSH2 0xF57 CALLER PUSH1 0x40 PUSH1 0x0 KECCAK256 PUSH2 0x6B4 JUMP JUMPDEST SLOAD AND ISZERO PUSH2 0xF61 JUMPI POP JUMP JUMPDEST PUSH1 0x44 SWAP1 PUSH1 0x40 MLOAD SWAP1 PUSH4 0xE2517D3F PUSH1 0xE0 SHL DUP3 MSTORE CALLER PUSH1 0x4 DUP4 ADD MSTORE PUSH1 0x24 DUP3 ADD MSTORE REVERT JUMPDEST PUSH1 0x0 DUP1 MLOAD PUSH1 0x20 PUSH2 0x1448 DUP4 CODECOPY DUP2 MLOAD SWAP2 MSTORE PUSH1 0x0 DUP2 DUP2 MSTORE PUSH1 0x4 PUSH1 0x20 MSTORE SWAP1 PUSH1 0xFF PUSH2 0xFC5 DUP5 PUSH32 0x2FB794D17134DFDEC181DDBAC1BABB5AB1EB140204EF4D982F294E7FC8B69022 PUSH2 0x6B4 JUMP JUMPDEST SLOAD AND PUSH2 0x1020 JUMPI DUP1 DUP3 MSTORE PUSH1 0x4 PUSH1 0x20 MSTORE PUSH2 0xFE0 DUP4 PUSH1 0x40 DUP5 KECCAK256 PUSH2 0x6B4 JUMP JUMPDEST DUP1 SLOAD PUSH1 0xFF NOT AND PUSH1 0x1 OR SWAP1 SSTORE CALLER SWAP3 PUSH1 0x1 PUSH1 0x1 PUSH1 0xA0 SHL SUB AND SWAP2 PUSH32 0x2F8788117E7EFF1D82E926EC794901D17C78024A50270940304540A733656F0D SWAP1 DUP1 LOG4 PUSH1 0x1 SWAP1 JUMP JUMPDEST POP SWAP1 POP SWAP1 JUMP JUMPDEST PUSH1 0x0 DUP1 MLOAD PUSH1 0x20 PUSH2 0x1428 DUP4 CODECOPY DUP2 MLOAD SWAP2 MSTORE PUSH1 0x0 DUP2 DUP2 MSTORE PUSH1 0x4 PUSH1 0x20 MSTORE SWAP1 PUSH1 0xFF PUSH2 0xFC5 DUP5 PUSH1 0x0 DUP1 MLOAD PUSH1 0x20 PUSH2 0x13C8 DUP4 CODECOPY DUP2 MLOAD SWAP2 MSTORE PUSH2 0x6B4 JUMP JUMPDEST PUSH1 0x0 DUP1 DUP1 MSTORE PUSH1 0x4 PUSH1 0x20 MSTORE PUSH1 0xFF PUSH2 0x107E DUP4 PUSH1 0x0 DUP1 MLOAD PUSH1 0x20 PUSH2 0x1408 DUP4 CODECOPY DUP2 MLOAD SWAP2 MSTORE PUSH2 0x6B4 JUMP JUMPDEST SLOAD AND PUSH2 0x10D9 JUMPI DUP1 DUP1 MSTORE PUSH1 0x4 PUSH1 0x20 MSTORE PUSH2 0x1099 DUP3 PUSH1 0x40 DUP4 KECCAK256 PUSH2 0x6B4 JUMP JUMPDEST DUP1 SLOAD PUSH1 0xFF NOT AND PUSH1 0x1 OR SWAP1 SSTORE CALLER SWAP2 PUSH1 0x1 PUSH1 0x1 PUSH1 0xA0 SHL SUB AND SWAP1 PUSH32 0x2F8788117E7EFF1D82E926EC794901D17C78024A50270940304540A733656F0D DUP2 DUP1 LOG4 PUSH1 0x1 SWAP1 JUMP JUMPDEST SWAP1 POP SWAP1 JUMP JUMPDEST PUSH1 0x0 SWAP1 DUP1 DUP3 MSTORE PUSH1 0x4 PUSH1 0x20 MSTORE PUSH1 0xFF PUSH2 0xFC5 DUP5 PUSH1 0x40 DUP6 KECCAK256 PUSH2 0x6B4 JUMP JUMPDEST PUSH1 0x0 DUP1 MLOAD PUSH1 0x20 PUSH2 0x1448 DUP4 CODECOPY DUP2 MLOAD SWAP2 MSTORE PUSH1 0x0 DUP2 DUP2 MSTORE PUSH1 0x4 PUSH1 0x20 MSTORE SWAP1 PUSH1 0xFF PUSH2 0x113E DUP5 PUSH32 0x2FB794D17134DFDEC181DDBAC1BABB5AB1EB140204EF4D982F294E7FC8B69022 PUSH2 0x6B4 JUMP JUMPDEST SLOAD AND ISZERO PUSH2 0x1020 JUMPI DUP1 DUP3 MSTORE PUSH1 0x4 PUSH1 0x20 MSTORE PUSH2 0x115A DUP4 PUSH1 0x40 DUP5 KECCAK256 PUSH2 0x6B4 JUMP JUMPDEST DUP1 SLOAD PUSH1 0xFF NOT AND SWAP1 SSTORE CALLER SWAP3 PUSH1 0x1 PUSH1 0x1 PUSH1 0xA0 SHL SUB AND SWAP2 PUSH32 0xF6391F5C32D9C69D2A47EA670B442974B53935D1EDC7FD64EB21E047A839171B SWAP1 DUP1 LOG4 PUSH1 0x1 SWAP1 JUMP JUMPDEST PUSH1 0x0 DUP1 DUP1 MSTORE PUSH1 0x4 PUSH1 0x20 MSTORE PUSH1 0xFF PUSH2 0x11BB DUP4 PUSH1 0x0 DUP1 MLOAD PUSH1 0x20 PUSH2 0x1408 DUP4 CODECOPY DUP2 MLOAD SWAP2 MSTORE PUSH2 0x6B4 JUMP JUMPDEST SLOAD AND ISZERO PUSH2 0x10D9 JUMPI DUP1 DUP1 MSTORE PUSH1 0x4 PUSH1 0x20 MSTORE PUSH2 0x11D7 DUP3 PUSH1 0x40 DUP4 KECCAK256 PUSH2 0x6B4 JUMP JUMPDEST DUP1 SLOAD PUSH1 0xFF NOT AND SWAP1 SSTORE CALLER SWAP2 PUSH1 0x1 PUSH1 0x1 PUSH1 0xA0 SHL SUB AND SWAP1 PUSH32 0xF6391F5C32D9C69D2A47EA670B442974B53935D1EDC7FD64EB21E047A839171B DUP2 DUP1 LOG4 PUSH1 0x1 SWAP1 JUMP JUMPDEST PUSH1 0x0 DUP1 MLOAD PUSH1 0x20 PUSH2 0x1428 DUP4 CODECOPY DUP2 MLOAD SWAP2 MSTORE PUSH1 0x0 DUP2 DUP2 MSTORE PUSH1 0x4 PUSH1 0x20 MSTORE SWAP1 PUSH1 0xFF PUSH2 0x113E DUP5 PUSH1 0x0 DUP1 MLOAD PUSH1 0x20 PUSH2 0x13C8 DUP4 CODECOPY DUP2 MLOAD SWAP2 MSTORE PUSH2 0x6B4 JUMP JUMPDEST PUSH1 0x0 SWAP1 DUP1 DUP3 MSTORE PUSH1 0x4 PUSH1 0x20 MSTORE PUSH1 0xFF PUSH2 0x113E DUP5 PUSH1 0x40 DUP6 KECCAK256 PUSH2 0x6B4 JUMP JUMPDEST DUP1 EXTCODESIZE ISZERO PUSH2 0x987 JUMPI PUSH1 0x0 DUP1 MSTORE PUSH1 0x1 PUSH1 0x20 MSTORE PUSH2 0x128A DUP2 PUSH1 0x0 DUP1 MLOAD PUSH1 0x20 PUSH2 0x13E8 DUP4 CODECOPY DUP2 MLOAD SWAP2 MSTORE PUSH2 0xE6B JUMP JUMPDEST PUSH1 0x1 DUP1 PUSH1 0xA0 SHL SUB AND DUP1 PUSH1 0x0 MSTORE PUSH1 0x2 PUSH1 0x20 MSTORE PUSH1 0x40 PUSH1 0x0 KECCAK256 PUSH1 0x1 PUSH1 0xFF NOT DUP3 SLOAD AND OR SWAP1 SSTORE PUSH32 0x72558D9BFBA4210F9EF095C782589484151F6D90F7A81BB3CB9B33EFC695D324 PUSH1 0x20 PUSH1 0x40 MLOAD PUSH1 0x1 DUP2 MSTORE LOG2 JUMP JUMPDEST PUSH1 0x20 PUSH32 0x72558D9BFBA4210F9EF095C782589484151F6D90F7A81BB3CB9B33EFC695D324 SWAP2 PUSH1 0x1 DUP1 PUSH1 0xA0 SHL SUB AND SWAP3 DUP4 PUSH1 0x0 MSTORE PUSH1 0x2 DUP3 MSTORE PUSH1 0x40 PUSH1 0x0 KECCAK256 SWAP1 ISZERO ISZERO SWAP1 PUSH1 0xFF NOT DUP2 SLOAD AND PUSH1 0xFF DUP4 AND OR SWAP1 SSTORE PUSH1 0x40 MLOAD SWAP1 DUP2 MSTORE LOG2 JUMP JUMPDEST PUSH1 0x0 PUSH2 0x1342 DUP2 CALLDATALOAD PUSH1 0x1 PUSH1 0x1 PUSH1 0xE0 SHL SUB NOT AND PUSH2 0xE8A JUMP JUMPDEST PUSH1 0x1 PUSH1 0x1 PUSH1 0xA0 SHL SUB DUP2 AND ISZERO ISZERO DUP1 PUSH2 0x13BB JUMPI JUMPDEST ISZERO PUSH2 0x1376 JUMPI DUP2 DUP1 SWAP2 CALLDATASIZE DUP3 DUP1 CALLDATACOPY DUP2 CALLDATASIZE SWAP2 GAS DELEGATECALL RETURNDATASIZE DUP3 DUP1 RETURNDATACOPY ISZERO PUSH2 0x1372 JUMPI RETURNDATASIZE SWAP1 RETURN JUMPDEST RETURNDATASIZE SWAP1 REVERT JUMPDEST PUSH1 0x40 MLOAD PUSH3 0x461BCD PUSH1 0xE5 SHL DUP2 MSTORE PUSH1 0x20 PUSH1 0x4 DUP3 ADD MSTORE PUSH1 0x1D PUSH1 0x24 DUP3 ADD MSTORE PUSH32 0x50726F78793A20696D706C204F522070726F78792069732066616C7365000000 PUSH1 0x44 DUP3 ADD MSTORE PUSH1 0x64 SWAP1 REVERT JUMPDEST POP PUSH1 0xFF DUP3 SLOAD AND ISZERO PUSH2 0x1354 JUMP INVALID 0x2E 0xD9 DUP8 0xAB PUSH20 0x2D519C59D4A2F2F586B9CA6AF9F18905FA2093AC 0xEE 0xB8 0xD4 PUSH3 0xFFC842 0xA6 0xEE 0xF7 0xE3 GAS 0xBE PUSH17 0x26729641147F7915573C7E97B47EFA546F PUSH0 PUSH15 0x3230263BCB4917EF568E3E12AB5B9C PUSH19 0x54A8D58478811DE00F9E6EB34345ACD53BF8FD MULMOD 0xD3 0xEC 0xFC 0xB9 0xFC 0xBF 0xA8 EXTCODESIZE DUP10 PUSH32 0xB2D5CF4B58962164105C1E71489A37EF3AE0DB3FDCE576F6DF8B4C520FFE197C MSTORE8 NUMBER 0xC6 CREATE2 0xAE 0xC5 SWAP6 PUSH17 0x151EF9A492F2C624FD45DDDE6135EC42A2 PUSH5 0x6970667358 0x22 SLT KECCAK256 0xC1 BLOBHASH TLOAD 0xC1 SAR GASPRICE MOD 0xDE 0x2C JUMP PUSH29 0xC44D6541759B4F14506F6D273420981788C5E3490F64736F6C63430008 NOT STOP CALLER "},"methodIdentifiers":{"ADMIN_ROLE()":"75b238fc","DEFAULT_ADMIN_ROLE()":"a217fddf","PAUSE_ROLE()":"389ed267","addAdmin(address)":"70480275","addPauser(address)":"82dc1ec4","aliveImplementation(address)":"550d01a3","getRoleAdmin(bytes32)":"248a9ca3","getSelectorImplementation2(bytes4)":"8d4fdb40","grantRole(bytes32,address)":"2f2ff15d","hasRole(bytes32,address)":"91d14854","implementation()":"5c60da1b","implementation2(uint256)":"8b8f4a65","isAdmin(address)":"24d7806c","isOwner()":"8f32d59b","isPauser(address)":"46fbf68e","pauseProxy()":"63a8fd89","proxyImplementation(uint256)":"b911135f","removeAdmin()":"9a202d47","removePauser(address)":"6b2c0f55","renounceRole(bytes32,address)":"36568abe","revokeRole(bytes32,address)":"d547741f","selectorImplementation(bytes4)":"50d2a276","setAliveImplementation2(address,bool)":"5cc797d8","setImplementation2(address,uint256,bool)":"7cd5f663","setProxyPause(bool)":"7cb00d25","setSelectorImplementations2(bytes4[],address)":"4a5df50f","supportsInterface(bytes4)":"01ffc9a7","transferOwnership(address)":"f2fde38b","upgradeTo(address)":"3659cfe6"}}}}}