{"src/L1/L1WrappedStakedTONFactoryStorage.sol":{"L1WrappedStakedTONFactoryStorage":{"abi":[{"inputs":[],"name":"AlreadyInitialized","type":"error"},{"inputs":[],"name":"NotContractOwner","type":"error"},{"anonymous":false,"inputs":[{"indexed":false,"internalType":"address","name":"newImplementation","type":"address"}],"name":"L1WrappedStakedTONContractUgraded","type":"event"},{"anonymous":false,"inputs":[{"indexed":true,"internalType":"address","name":"wston","type":"address"},{"indexed":true,"internalType":"address","name":"layer2Address","type":"address"}],"name":"WSTONTokenCreated","type":"event"},{"inputs":[],"name":"l1ton","outputs":[{"internalType":"address","name":"","type":"address"}],"stateMutability":"view","type":"function"},{"inputs":[],"name":"l1wton","outputs":[{"internalType":"address","name":"","type":"address"}],"stateMutability":"view","type":"function"},{"inputs":[],"name":"wstonImplementation","outputs":[{"internalType":"address","name":"","type":"address"}],"stateMutability":"view","type":"function"}],"evm":{"bytecode":{"linkReferences":{},"object":"6080806040523460145760e9908161001a8239f35b600080fdfe6080806040526004361015601257600080fd5b600090813560e01c90816315a327d314608c575080631d03a0091460655763d21bae6614603e57600080fd5b3460625780600319360112606257546040516001600160a01b039091168152602090f35b80fd5b5034606257806003193601126062576002546040516001600160a01b039091168152602090f35b90503460af578160031936011260af576001546001600160a01b03168152602090f35b5080fdfea2646970667358221220673d2bd892664c8905ee393690b988d99b8b5c59dfdf24a613cc49aff9c3692a64736f6c63430008190033","opcodes":"PUSH1 0x80 DUP1 PUSH1 0x40 MSTORE CALLVALUE PUSH1 0x14 JUMPI PUSH1 0xE9 SWAP1 DUP2 PUSH2 0x1A DUP3 CODECOPY RETURN JUMPDEST PUSH1 0x0 DUP1 REVERT INVALID PUSH1 0x80 DUP1 PUSH1 0x40 MSTORE PUSH1 0x4 CALLDATASIZE LT ISZERO PUSH1 0x12 JUMPI PUSH1 0x0 DUP1 REVERT JUMPDEST PUSH1 0x0 SWAP1 DUP2 CALLDATALOAD PUSH1 0xE0 SHR SWAP1 DUP2 PUSH4 0x15A327D3 EQ PUSH1 0x8C JUMPI POP DUP1 PUSH4 0x1D03A009 EQ PUSH1 0x65 JUMPI PUSH4 0xD21BAE66 EQ PUSH1 0x3E JUMPI PUSH1 0x0 DUP1 REVERT JUMPDEST CALLVALUE PUSH1 0x62 JUMPI DUP1 PUSH1 0x3 NOT CALLDATASIZE ADD SLT PUSH1 0x62 JUMPI SLOAD PUSH1 0x40 MLOAD PUSH1 0x1 PUSH1 0x1 PUSH1 0xA0 SHL SUB SWAP1 SWAP2 AND DUP2 MSTORE PUSH1 0x20 SWAP1 RETURN JUMPDEST DUP1 REVERT JUMPDEST POP CALLVALUE PUSH1 0x62 JUMPI DUP1 PUSH1 0x3 NOT CALLDATASIZE ADD SLT PUSH1 0x62 JUMPI PUSH1 0x2 SLOAD PUSH1 0x40 MLOAD PUSH1 0x1 PUSH1 0x1 PUSH1 0xA0 SHL SUB SWAP1 SWAP2 AND DUP2 MSTORE PUSH1 0x20 SWAP1 RETURN JUMPDEST SWAP1 POP CALLVALUE PUSH1 0xAF JUMPI DUP2 PUSH1 0x3 NOT CALLDATASIZE ADD SLT PUSH1 0xAF JUMPI PUSH1 0x1 SLOAD PUSH1 0x1 PUSH1 0x1 PUSH1 0xA0 SHL SUB AND DUP2 MSTORE PUSH1 0x20 SWAP1 RETURN JUMPDEST POP DUP1 REVERT INVALID LOG2 PUSH5 0x6970667358 0x22 SLT KECCAK256 PUSH8 0x3D2BD892664C8905 0xEE CODECOPY CALLDATASIZE SWAP1 0xB9 DUP9 0xD9 SWAP12 DUP12 TLOAD MSIZE 0xDF 0xDF 0x24 0xA6 SGT 0xCC BLOBHASH 0xAF 0xF9 0xC3 PUSH10 0x2A64736F6C6343000819 STOP CALLER "},"methodIdentifiers":{"l1ton()":"15a327d3","l1wton()":"d21bae66","wstonImplementation()":"1d03a009"}}}}}