{"abi":[{"type":"function","name":"ADMIN_ROLE","inputs":[],"outputs":[{"name":"","type":"bytes32","internalType":"bytes32"}],"stateMutability":"view"},{"type":"function","name":"PAUSE_ROLE","inputs":[],"outputs":[{"name":"","type":"bytes32","internalType":"bytes32"}],"stateMutability":"view"}],"bytecode":{"object":"0x608060405234601d575b600f6021565b61019661002d823961019690f35b6027565b60405190565b600080fdfe60806040526004361015610013575b61015b565b61001e600035610044565b8063389ed2671461003f575b6375b238fc1461003a575b61000e565b610125565b6100c0565b60e01c90565b60405190565b600080fd5b600080fd5b6000910312610066575b565b610055565b7ffcb9fcbfa83b897fb2d5cf4b58962164105c1e71489a37ef3ae0db3fdce576f690565b61009761006b565b90565b90565b6100a69061009a565b9052565b91906100be9060006020850194019061009d565b565b346100f1575b6100d136600461005a565b6100ed6100dc61008f565b6100e461004a565b918291826100aa565b0390f35b610050565b7fdf8b4c520ffe197c5343c6f5aec59570151ef9a492f2c624fd45ddde6135ec4290565b6101226100f6565b90565b34610156575b61013636600461005a565b61015261014161011a565b61014961004a565b918291826100aa565b0390f35b610050565b600080fdfea2646970667358221220e5d2397b43664545254cacbbc9b3532ef14b04be99567f7b4d7995628446f07a64736f6c63430008190033","linkReferences":{}},"methodIdentifiers":{"ADMIN_ROLE()":"75b238fc","PAUSE_ROLE()":"389ed267"},"id":134}