{"abi":[{"type":"function","name":"ADMIN_ROLE","inputs":[],"outputs":[{"name":"","type":"bytes32","internalType":"bytes32"}],"stateMutability":"view"},{"type":"function","name":"DECIMALS","inputs":[],"outputs":[{"name":"","type":"uint256","internalType":"uint256"}],"stateMutability":"view"},{"type":"function","name":"DEFAULT_ADMIN_ROLE","inputs":[],"outputs":[{"name":"","type":"bytes32","internalType":"bytes32"}],"stateMutability":"view"},{"type":"function","name":"PAUSE_ROLE","inputs":[],"outputs":[{"name":"","type":"bytes32","internalType":"bytes32"}],"stateMutability":"view"},{"type":"function","name":"TON_FEES_RATE_DIVIDER","inputs":[],"outputs":[{"name":"","type":"uint256","internalType":"uint256"}],"stateMutability":"view"},{"type":"function","name":"addAdmin","inputs":[{"name":"account","type":"address","internalType":"address"}],"outputs":[],"stateMutability":"nonpayable"},{"type":"function","name":"addPauser","inputs":[{"name":"account","type":"address","internalType":"address"}],"outputs":[],"stateMutability":"nonpayable"},{"type":"function","name":"aliveImplementation","inputs":[{"name":"","type":"address","internalType":"address"}],"outputs":[{"name":"","type":"bool","internalType":"bool"}],"stateMutability":"view"},{"type":"function","name":"approveGem","inputs":[{"name":"operator","type":"address","internalType":"address"},{"name":"_tokenId","type":"uint256","internalType":"uint256"}],"outputs":[],"stateMutability":"nonpayable"},{"type":"function","name":"approveWstonForMarketplace","inputs":[{"name":"amount","type":"uint256","internalType":"uint256"}],"outputs":[],"stateMutability":"nonpayable"},{"type":"function","name":"buyGem","inputs":[{"name":"_tokenId","type":"uint256","internalType":"uint256"},{"name":"_paymentMethod","type":"bool","internalType":"bool"}],"outputs":[],"stateMutability":"nonpayable"},{"type":"function","name":"createPreminedGEM","inputs":[{"name":"_rarity","type":"uint8","internalType":"enum GemFactoryStorage.Rarity"},{"name":"_color","type":"uint8[2]","internalType":"uint8[2]"},{"name":"_quadrants","type":"uint8[4]","internalType":"uint8[4]"},{"name":"_tokenURI","type":"string","internalType":"string"}],"outputs":[{"name":"","type":"uint256","internalType":"uint256"}],"stateMutability":"nonpayable"},{"type":"function","name":"createPreminedGEMPool","inputs":[{"name":"_rarities","type":"uint8[]","internalType":"enum GemFactoryStorage.Rarity[]"},{"name":"_colors","type":"uint8[2][]","internalType":"uint8[2][]"},{"name":"_quadrants","type":"uint8[4][]","internalType":"uint8[4][]"},{"name":"_tokenURIs","type":"string[]","internalType":"string[]"}],"outputs":[{"name":"","type":"uint256[]","internalType":"uint256[]"}],"stateMutability":"nonpayable"},{"type":"function","name":"getAirdropAddress","inputs":[],"outputs":[{"name":"","type":"address","internalType":"address"}],"stateMutability":"view"},{"type":"function","name":"getGemFactoryAddress","inputs":[],"outputs":[{"name":"","type":"address","internalType":"address"}],"stateMutability":"view"},{"type":"function","name":"getMarketPlaceAddress","inputs":[],"outputs":[{"name":"","type":"address","internalType":"address"}],"stateMutability":"view"},{"type":"function","name":"getRandomPackAddress","inputs":[],"outputs":[{"name":"","type":"address","internalType":"address"}],"stateMutability":"view"},{"type":"function","name":"getRoleAdmin","inputs":[{"name":"role","type":"bytes32","internalType":"bytes32"}],"outputs":[{"name":"","type":"bytes32","internalType":"bytes32"}],"stateMutability":"view"},{"type":"function","name":"getSwapPoolAddress","inputs":[],"outputs":[{"name":"","type":"address","internalType":"address"}],"stateMutability":"view"},{"type":"function","name":"getTONBalance","inputs":[],"outputs":[{"name":"","type":"uint256","internalType":"uint256"}],"stateMutability":"view"},{"type":"function","name":"getTonAddress","inputs":[],"outputs":[{"name":"","type":"address","internalType":"address"}],"stateMutability":"view"},{"type":"function","name":"getWSTONBalance","inputs":[],"outputs":[{"name":"","type":"uint256","internalType":"uint256"}],"stateMutability":"view"},{"type":"function","name":"getWstonAddress","inputs":[],"outputs":[{"name":"","type":"address","internalType":"address"}],"stateMutability":"view"},{"type":"function","name":"grantRole","inputs":[{"name":"role","type":"bytes32","internalType":"bytes32"},{"name":"account","type":"address","internalType":"address"}],"outputs":[],"stateMutability":"nonpayable"},{"type":"function","name":"hasRole","inputs":[{"name":"role","type":"bytes32","internalType":"bytes32"},{"name":"account","type":"address","internalType":"address"}],"outputs":[{"name":"","type":"bool","internalType":"bool"}],"stateMutability":"view"},{"type":"function","name":"initialize","inputs":[{"name":"_wston","type":"address","internalType":"address"},{"name":"_ton","type":"address","internalType":"address"},{"name":"_gemFactory","type":"address","internalType":"address"}],"outputs":[],"stateMutability":"nonpayable"},{"type":"function","name":"isAdmin","inputs":[{"name":"account","type":"address","internalType":"address"}],"outputs":[{"name":"","type":"bool","internalType":"bool"}],"stateMutability":"view"},{"type":"function","name":"isOwner","inputs":[],"outputs":[{"name":"","type":"bool","internalType":"bool"}],"stateMutability":"view"},{"type":"function","name":"isPauser","inputs":[{"name":"account","type":"address","internalType":"address"}],"outputs":[{"name":"","type":"bool","internalType":"bool"}],"stateMutability":"view"},{"type":"function","name":"onERC721Received","inputs":[{"name":"","type":"address","internalType":"address"},{"name":"","type":"address","internalType":"address"},{"name":"","type":"uint256","internalType":"uint256"},{"name":"","type":"bytes","internalType":"bytes"}],"outputs":[{"name":"","type":"bytes4","internalType":"bytes4"}],"stateMutability":"pure"},{"type":"function","name":"pause","inputs":[],"outputs":[],"stateMutability":"nonpayable"},{"type":"function","name":"pauseProxy","inputs":[],"outputs":[{"name":"","type":"bool","internalType":"bool"}],"stateMutability":"view"},{"type":"function","name":"proxyImplementation","inputs":[{"name":"","type":"uint256","internalType":"uint256"}],"outputs":[{"name":"","type":"address","internalType":"address"}],"stateMutability":"view"},{"type":"function","name":"putGemForSale","inputs":[{"name":"_tokenId","type":"uint256","internalType":"uint256"},{"name":"_price","type":"uint256","internalType":"uint256"}],"outputs":[],"stateMutability":"nonpayable"},{"type":"function","name":"putGemListForSale","inputs":[{"name":"tokenIds","type":"uint256[]","internalType":"uint256[]"},{"name":"prices","type":"uint256[]","internalType":"uint256[]"}],"outputs":[],"stateMutability":"nonpayable"},{"type":"function","name":"removeAdmin","inputs":[],"outputs":[],"stateMutability":"nonpayable"},{"type":"function","name":"removeGemFromSale","inputs":[{"name":"_tokenId","type":"uint256","internalType":"uint256"}],"outputs":[],"stateMutability":"nonpayable"},{"type":"function","name":"removePauser","inputs":[{"name":"account","type":"address","internalType":"address"}],"outputs":[],"stateMutability":"nonpayable"},{"type":"function","name":"renounceRole","inputs":[{"name":"role","type":"bytes32","internalType":"bytes32"},{"name":"callerConfirmation","type":"address","internalType":"address"}],"outputs":[],"stateMutability":"nonpayable"},{"type":"function","name":"revokeRole","inputs":[{"name":"role","type":"bytes32","internalType":"bytes32"},{"name":"account","type":"address","internalType":"address"}],"outputs":[],"stateMutability":"nonpayable"},{"type":"function","name":"selectorImplementation","inputs":[{"name":"","type":"bytes4","internalType":"bytes4"}],"outputs":[{"name":"","type":"address","internalType":"address"}],"stateMutability":"view"},{"type":"function","name":"setAirdrop","inputs":[{"name":"_airdrop","type":"address","internalType":"address"}],"outputs":[],"stateMutability":"nonpayable"},{"type":"function","name":"setGemFactory","inputs":[{"name":"_gemFactory","type":"address","internalType":"address"}],"outputs":[],"stateMutability":"nonpayable"},{"type":"function","name":"setMarketPlace","inputs":[{"name":"marketplace","type":"address","internalType":"address"}],"outputs":[],"stateMutability":"nonpayable"},{"type":"function","name":"setRandomPack","inputs":[{"name":"_randomPack","type":"address","internalType":"address"}],"outputs":[],"stateMutability":"nonpayable"},{"type":"function","name":"setTon","inputs":[{"name":"_ton","type":"address","internalType":"address"}],"outputs":[],"stateMutability":"nonpayable"},{"type":"function","name":"setWston","inputs":[{"name":"_wston","type":"address","internalType":"address"}],"outputs":[],"stateMutability":"nonpayable"},{"type":"function","name":"setWstonSwapPool","inputs":[{"name":"_wstonSwapPool","type":"address","internalType":"address"}],"outputs":[],"stateMutability":"nonpayable"},{"type":"function","name":"supportsInterface","inputs":[{"name":"interfaceId","type":"bytes4","internalType":"bytes4"}],"outputs":[{"name":"","type":"bool","internalType":"bool"}],"stateMutability":"view"},{"type":"function","name":"tonApproveWstonSwapPool","inputs":[{"name":"_amount","type":"uint256","internalType":"uint256"}],"outputs":[{"name":"","type":"bool","internalType":"bool"}],"stateMutability":"nonpayable"},{"type":"function","name":"transferOwnership","inputs":[{"name":"newOwner","type":"address","internalType":"address"}],"outputs":[],"stateMutability":"nonpayable"},{"type":"function","name":"transferTON","inputs":[{"name":"_to","type":"address","internalType":"address"},{"name":"_amount","type":"uint256","internalType":"uint256"}],"outputs":[{"name":"","type":"bool","internalType":"bool"}],"stateMutability":"nonpayable"},{"type":"function","name":"transferTreasuryGEMto","inputs":[{"name":"_to","type":"address","internalType":"address"},{"name":"_tokenId","type":"uint256","internalType":"uint256"}],"outputs":[{"name":"","type":"bool","internalType":"bool"}],"stateMutability":"nonpayable"},{"type":"function","name":"transferWSTON","inputs":[{"name":"_to","type":"address","internalType":"address"},{"name":"_amount","type":"uint256","internalType":"uint256"}],"outputs":[{"name":"","type":"bool","internalType":"bool"}],"stateMutability":"nonpayable"},{"type":"function","name":"unpause","inputs":[],"outputs":[],"stateMutability":"nonpayable"},{"type":"event","name":"RoleAdminChanged","inputs":[{"name":"role","type":"bytes32","indexed":true,"internalType":"bytes32"},{"name":"previousAdminRole","type":"bytes32","indexed":true,"internalType":"bytes32"},{"name":"newAdminRole","type":"bytes32","indexed":true,"internalType":"bytes32"}],"anonymous":false},{"type":"event","name":"RoleGranted","inputs":[{"name":"role","type":"bytes32","indexed":true,"internalType":"bytes32"},{"name":"account","type":"address","indexed":true,"internalType":"address"},{"name":"sender","type":"address","indexed":true,"internalType":"address"}],"anonymous":false},{"type":"event","name":"RoleRevoked","inputs":[{"name":"role","type":"bytes32","indexed":true,"internalType":"bytes32"},{"name":"account","type":"address","indexed":true,"internalType":"address"},{"name":"sender","type":"address","indexed":true,"internalType":"address"}],"anonymous":false},{"type":"error","name":"AccessControlBadConfirmation","inputs":[]},{"type":"error","name":"AccessControlUnauthorizedAccount","inputs":[{"name":"account","type":"address","internalType":"address"},{"name":"neededRole","type":"bytes32","internalType":"bytes32"}]},{"type":"error","name":"AddressEmptyCode","inputs":[{"name":"target","type":"address","internalType":"address"}]},{"type":"error","name":"AddressInsufficientBalance","inputs":[{"name":"account","type":"address","internalType":"address"}]},{"type":"error","name":"FailedInnerCall","inputs":[]},{"type":"error","name":"FailedToSendTON","inputs":[]},{"type":"error","name":"InvalidAddress","inputs":[]},{"type":"error","name":"NotEnoughTonAvailableInTreasury","inputs":[]},{"type":"error","name":"NotEnoughWstonAvailableInTreasury","inputs":[]},{"type":"error","name":"ReentrancyGuardReentrantCall","inputs":[]},{"type":"error","name":"SafeERC20FailedOperation","inputs":[{"name":"token","type":"address","internalType":"address"}]},{"type":"error","name":"SameAdmin","inputs":[]},{"type":"error","name":"SameOwner","inputs":[]},{"type":"error","name":"TonAddressIsNotSet","inputs":[]},{"type":"error","name":"UnsuffiscientTonBalance","inputs":[]},{"type":"error","name":"UnsuffiscientWstonBalance","inputs":[]},{"type":"error","name":"WstonAddressIsNotSet","inputs":[]},{"type":"error","name":"ZeroAddress","inputs":[]}],"bytecode":{"object":"0x608060405234601f57600e6024565b6040516133b66100b982396133b690f35b600080fd5b602a605b565b565b9060ff60a01b9060a01b5b9181191691161790565b90565b9060516041605792151590565b8254602c565b9055565b6061606b565b602a6000600c6044565b602a602a602a602a602a602a602a60aa565b6041604160419290565b60416001607d565b90600019906037565b9060a46041605792607d565b8254608f565b602a60b26087565b6004609856fe6080604052600436101561001257600080fd5b60003560e01c80630169dc311461038257806301ffc9a71461037d57806302424ed314610378578063044bc7791461037357806308ec897d1461036e57806312608dfb14610369578063150b7a0214610364578063247ee3881461035f578063248a9ca31461035a57806324d7806c146103555780632e0f2625146103505780632ede64321461034b5780632f2ff15d1461034657806330568a8d1461034157806336568abe1461033c578063389ed267146103375780633b22f110146103325780633d007e571461032d5780633f4ba83a1461032857806340e5854814610323578063425c7fc21461031e57806346fbf68e1461031957806348dbcef0146103145780634d288fec1461030f57806350d2a2761461030a578063550d01a31461030557806363a8fd8914610300578063694eaa40146102fb5780636ae638d0146102f65780636b2c0f55146102f15780636fcf2fc9146102ec57806370480275146102e757806372820dbc146102e257806375b238fc146102dd57806379dbd798146102d857806382dc1ec4146102d35780638456cb59146102ce5780638f32d59b146102c9578063912b431b146102c457806391d14854146102bf578063952377f3146102ba57806398d111b2146102b55780639a202d47146102b05780639d541be2146102ab578063a217fddf146102a6578063b23a1d0d146102a1578063b911135f1461029c578063bae77ac914610297578063c0c53b8b14610292578063d547741f1461028d578063e614751814610288578063ec23919a14610283578063ec7ae61d1461027e578063ed8c2472146102795763f2fde38b0361038757611277565b61125f565b611243565b611228565b611210565b6111f7565b6111de565b61119a565b61117f565b61114d565b611132565b611105565b6110ed565b6110d5565b6110ba565b61109e565b61107f565b611014565b610ffc565b610fe4565b610fcb565b610f01565b610ebd565b610ea5565b610e8c565b610e74565b610e59565b610e3e565b610e23565b610dfd565b610d83565b610d12565b610cf6565b610cdb565b610cb0565b610819565b610801565b6107e6565b6107cb565b6107b0565b61076b565b610753565b61073a565b6106fe565b6106c7565b610690565b610675565b61065d565b61060f565b610572565b610533565b6104ec565b6104aa565b610457565b6103f4565b600080fd5b6001600160a01b031690565b90565b6103a48161038c565b0361038757565b905035906103b88261039b565b565b806103a4565b905035906103b8826103ba565b9190604083820312610387576103989060206103e982866103ab565b94016103c0565b9052565b346103875761042261041061040a3660046103cd565b9061144d565b60405191829182901515815260200190565b0390f35b6001600160e01b031981166103a4565b905035906103b882610426565b906020828203126103875761039891610436565b346103875761042261041061046d366004610443565b611459565b8015156103a4565b905035906103b882610472565b9190604083820312610387576103989060206104a382866103c0565b940161047a565b34610387576104c36104bd366004610487565b90611574565b604051005b600091031261038757565b6103f09061038c565b6020810192916103b891906104d3565b34610387576104fc3660046104c8565b61042261050761157e565b604051918291826104dc565b6103986103986103989290565b610398612710610513565b610398610520565b34610387576105433660046104c8565b61042261054e61052b565b6040519182918290815260200190565b9060208282031261038757610398916103c0565b346103875761042261041061058836600461055e565b6116f4565b909182601f83011215610387578135916001600160401b03831161038757602001926001830284011161038757565b90608082820312610387576105d181836103ab565b926105df82602085016103ab565b926105ed83604083016103c0565b9260608201356001600160401b0381116103875761060b920161058d565b9091565b346103875761042261062e6106253660046105bc565b93929092611718565b604051918291826001600160e01b0319909116815260200190565b9060208282031261038757610398916103ab565b34610387576104c3610670366004610649565b6117df565b346103875761042261054e61068b36600461055e565b6117ff565b34610387576104226104106106a6366004610649565b61181e565b610398676765c793fa10079d601b1b610513565b6103986106ab565b34610387576106d73660046104c8565b61042261054e6106bf565b9190604083820312610387576103989060206103e982866103c0565b34610387576104c36107113660046106e2565b90611a0a565b91906040838203126103875761039890602061073382866103c0565b94016103ab565b34610387576104c361074d366004610717565b90611a37565b34610387576104c3610766366004610649565b611a8a565b34610387576104c361077e366004610717565b90611a93565b7ffcb9fcbfa83b897fb2d5cf4b58962164105c1e71489a37ef3ae0db3fdce576f690565b610398610784565b34610387576107c03660046104c8565b61042261054e6107a8565b34610387576107db3660046104c8565b61042261054e611ae7565b34610387576107f63660046104c8565b610422610507611b68565b34610387576108113660046104c8565b6104c3611c2a565b34610387576104c361082c36600461055e565b611cf9565b634e487b7160e01b600052604160045260246000fd5b90601f01601f191681019081106001600160401b0382111761086857604052565b610831565b906103b861087a60405190565b9283610847565b6001600160401b0381116108685760208091020190565b6006111561038757565b905035906103b882610898565b909291926108c46108bf82610881565b61086d565b938185526020808601920283019281841161038757915b8383106108e85750505050565b602080916108f684866108a2565b8152019201916108db565b9080601f8301121561038757816020610398933591016108af565b6001600160401b0381116108685760200290565b60ff81166103a4565b905035906103b882610930565b909291926109566108bf8261091c565b93602085920283019281841161038757915b8383106109755750505050565b602080916109838486610939565b815201920191610968565b9080601f8301121561038757600261039892610946565b909291926109b56108bf82610881565b93818552604060208601920283019281841161038757915b8383106109da5750505050565b60206040916109e9848661098e565b8152019201916109cd565b9080601f8301121561038757816020610398933591016109a5565b90929192610a1f6108bf8261091c565b93602085920283019281841161038757915b838310610a3e5750505050565b60208091610a4c8486610939565b815201920191610a31565b9080601f8301121561038757600461039892610a0f565b90929192610a7e6108bf82610881565b93818552608060208601920283019281841161038757915b838310610aa35750505050565b6020608091610ab28486610a57565b815201920191610a96565b9080601f830112156103875781602061039893359101610a6e565b6001600160401b03811161086857602090601f01601f19160190565b0190565b90826000939282370152565b90929192610b146108bf82610ad8565b9381855281830111610387576103b8916020850190610af8565b9080601f830112156103875781602061039893359101610b04565b929190610b586108bf82610881565b93818552602080860192028101918383116103875781905b838210610b7e575050505050565b81356001600160401b03811161038757602091610b9e8784938701610b2e565b815201910190610b70565b9080601f830112156103875781602061039893359101610b49565b906080828203126103875781356001600160401b0381116103875781610beb918401610901565b9260208301356001600160401b0381116103875782610c0b9185016109f4565b9260408101356001600160401b0381116103875783610c2b918301610abd565b9260608201356001600160401b038111610387576103989201610ba9565b90610c69610c62610c58845190565b8084529260200190565b9260200190565b9060005b818110610c7a5750505090565b909192610c97610c906001928651815260200190565b9460200190565b929101610c6d565b602080825261039892910190610c49565b3461038757610422610ccf610cc6366004610bc4565b92919091612341565b60405191829182610c9f565b3461038757610422610410610cf1366004610649565b61234f565b3461038757610422610410610d0c3660046103cd565b906124ad565b34610387576104c3610d25366004610649565b6124d3565b6001600160e01b03191690565b90610d4190610d2a565b600052602052604060002090565b610398916008021c6001600160a01b031690565b906103989154610d4f565b6000610d7e610398926003610d37565b610d63565b3461038757610422610507610d99366004610443565b610d6e565b6103989061038c906001600160a01b031682565b61039890610d9e565b61039890610db2565b90610d4190610dbb565b610398916008021c5b60ff1690565b906103989154610dce565b6000610df8610398926002610dc4565b610ddd565b3461038757610422610410610e13366004610649565b610de8565b610398600080610ddd565b3461038757610e333660046104c8565b610422610410610e18565b3461038757610e4e3660046104c8565b6104226105076124dc565b3461038757610e693660046104c8565b6104226105076124e6565b34610387576104c3610e87366004610649565b612597565b34610387576104c3610e9f3660046103cd565b906125ff565b34610387576104c3610eb8366004610649565b612629565b34610387576104c3610ed0366004610649565b61267b565b7fdf8b4c520ffe197c5343c6f5aec59570151ef9a492f2c624fd45ddde6135ec4290565b610398610ed5565b3461038757610f113660046104c8565b61042261054e610ef9565b90929192610f2c6108bf82610881565b938185526020808601920283019281841161038757915b838310610f505750505050565b60208091610f5e84866103c0565b815201920191610f43565b9080601f830112156103875781602061039893359101610f1c565b9190916040818403126103875780356001600160401b0381116103875783610fad918301610f69565b9260208201356001600160401b038111610387576103989201610f69565b34610387576104c3610fde366004610f84565b906127bb565b34610387576104c3610ff7366004610649565b6127e0565b346103875761100c3660046104c8565b6104c361285f565b34610387576110243660046104c8565b610422610410612867565b90610100828203126103875761104581836108a2565b92611053826020850161098e565b926110618360608301610a57565b9260e08201356001600160401b038111610387576103989201610b2e565b346103875761042261054e61109536600461102f565b92919091612ace565b34610387576104226104106110b4366004610717565b90612aef565b34610387576110ca3660046104c8565b610422610507612b0f565b34610387576104c36110e836600461055e565b612b96565b34610387576110fd3660046104c8565b6104c3612c1d565b34610387576111153660046104c8565b610422610507612c25565b6103986000610513565b610398611120565b34610387576111423660046104c8565b61042261054e61112a565b34610387576104c3611160366004610649565b612c78565b90610d4190610513565b6000610d7e610398926001611165565b346103875761042261050761119536600461055e565b61116f565b34610387576111aa3660046104c8565b61042261054e612c81565b9091606082840312610387576103986111ce84846103ab565b93604061073382602087016103ab565b34610387576104c36111f13660046111b5565b91612d14565b34610387576104c361120a366004610717565b90612d83565b34610387576104c3611223366004610649565b612dda565b34610387576112383660046104c8565b610422610507612de3565b34610387576104226104106112593660046103cd565b90612e60565b34610387576104c3611272366004610649565b612eb5565b34610387576104c361128a366004610649565b612f60565b6103989061038c565b610398905461128f565b156112a957565b60405162461bcd60e51b815260206004820152604560248201527f63616c6c6572206973206e656974686572204f776e6572206e6f722047656d4660448201527f6163746f7279206e6f72204d61726b6574506c616365206e6f722052616e646f6064820152646d5061636b60d81b608482015260a490fd5b0390fd5b90610398929161133e6113396006611298565b61038c565b6113473361038c565b1480156113bf575b80156113a2575b8015611385575b8015611372575b61136d906112a2565b6113dc565b5061136d61137e612867565b9050611364565b506113936113396009611298565b61139c3361038c565b1461135d565b506113b06113396008611298565b6113b93361038c565b14611356565b506113cd6113396007611298565b6113d63361038c565b1461134f565b906113ef92916113ea612f94565b6113f8565b906103b8612fd4565b509061140382612fe6565b61140b612c81565b8190611416565b9190565b1061143b576114369161143161142c600a611298565b610dbb565b613015565b600190565b604051638e85197360e01b8152600490fd5b61039891906000611326565b6103989061305d565b1561146957565b60405162461bcd60e51b81526020600482015260126024820152713737ba1027bbb732b91037b91020b236b4b760711b6044820152606490fd5b906103b8916114b13361181e565b80156114c6575b6114c190611462565b6114fe565b506114c16114d2612867565b90506114b8565b9081526040810192916103b8916020905b019015159052565b6040513d6000823e3d90fd5b61150e61142c61142c6007611298565b91823b1561038757611546926000928361152760405190565b80968195829461153b6302424ed360e01b90565b8452600484016114d9565b03925af1801561156f576115575750565b6103b89060006115678183610847565b8101906104c8565b6114f2565b906103b8916114a3565b610398600a611298565b1561158f57565b60405162461bcd60e51b815260206004820152601960248201527831b0b63632b91034b9903737ba103a34329029bbb0b83832b960391b6044820152606490fd5b90610398916115e2611339600c611298565b6115eb3361038c565b148015611601575b6115fc90611588565b611654565b506115fc61160d612867565b90506115f3565b905051906103b882610472565b906020828203126103875761039891611614565b9160206103b8929493611650604082019660008301906104d3565b0152565b6116b2916020915061166e611669600b611298565b612fe6565b61167e61142c61142c600b611298565b611688600c611298565b600061169360405190565b8096819582946116a763095ea7b360e01b90565b845260048401611635565b03925af1801561156f576116c7575b50600190565b6116e89060203d6020116116ed575b6116e08183610847565b810190611621565b6116c1565b503d6116d6565b6103989060006115d0565b610d2a6117126103989263ffffffff1690565b60e01b90565b5050505050611725600090565b5061039863150b7a026116ff565b1561173a57565b60405162461bcd60e51b8152602060048201526024808201527f41757468436f6e74726f6c3a2043616c6c6572206973206e6f7420746865206f6044820152633bb732b960e11b6064820152608490fd5b6103b89061179f61179a612867565b611733565b6117d4565b906001600160a01b03905b9181191691161790565b906117c96103986117d092610dbb565b82546117a4565b9055565b6103b890600a6117b9565b6103b89061178b565b90610d41565b6103989081565b61039890546117ee565b600161181861039892611810600090565b5060056117e8565b016117f5565b6103989061182a610ed5565b612aef565b906103b89161183d3361181e565b8015611852575b61184d90611462565b6118b5565b5061184d61185e612867565b9050611844565b9160206103b8929493611880604082019660008301906104d3565b01906104d3565b9160206103b89294936114ea604082019660008301906104d3565b9081526040810192916103b89160200152565b61190760206118ca61142c61142c6006611298565b6118d330610dbb565b906118de6007611298565b916118e860405190565b8095819482936118fc63e985e9c560e01b90565b845260048401611865565b03915afa801561156f57611921916000916119ed57501590565b61196e575b61193661142c61142c6007611298565b91823b1561038757611546926000928361194f60405190565b809681958294611963632ede643260e01b90565b8452600484016118a2565b61197e61142c61142c6006611298565b6119886007611298565b90803b156103875760016000916119c293836119a360405190565b8096819582946119b763a22cb46560e01b90565b845260048401611887565b03925af1801561156f576119d7575b50611926565b6119e79060006115678183610847565b386119d1565b611a06915060203d6020116116ed576116e08183610847565b1590565b906103b89161182f565b906103b891611a2a611a25826117ff565b613097565b90611a34916130c2565b50565b906103b891611a14565b6103b890611a4e3361181e565b8015611a63575b611a5e90611462565b611a76565b50611a5e611a6f612867565b9050611a55565b6103b890611a8381612fe6565b60076117b9565b6103b890611a41565b90611a9d3361038c565b611aa68261038c565b03611ab457611a3491613144565b60405163334bd91960e11b8152600490fd5b905051906103b8826103ba565b906020828203126103875761039891611ac6565b611b296020611afc61142c61142c600b611298565b611b0530610dbb565b90611b0f60405190565b938492839182916370a0823160e01b8352600483016104dc565b03915afa90811561156f57600091611b3f575090565b610398915060203d602011611b61575b611b598183610847565b810190611ad3565b503d611b4f565b6103986009611298565b611b7d61179a612867565b6103b8611bde565b6103989060a01c610dd7565b6103989054611b85565b15611ba257565b60405162461bcd60e51b815260206004820152601460248201527314185d5cd8589b194e881b9bdd081c185d5cd95960621b6044820152606490fd5b611bf0611beb600c611b91565b611b9b565b6103b8611c1e565b9060ff60a01b9060a01b6117af565b90611c176103986117d092151590565b8254611bf8565b6103b86000600c611c07565b6103b8611b72565b15611c3957565b60405162461bcd60e51b815260206004820152602660248201527f63616c6c6572206973206e6f7420746865206d61726b6574706c61636520636f6044820152651b9d1c9858dd60d21b6064820152608490fd5b6103b890611cb0611ca16113396007611298565b611caa3361038c565b14611c32565b6020611cd091611cc661142c61142c600a611298565b6116886007611298565b03925af1801561156f57611ce15750565b611a349060203d6020116116ed576116e08183610847565b6103b890611c8d565b15611d0957565b60405162461bcd60e51b815260206004820152602f60248201527f63616c6c6572206973206e656974686572206f776e6572206e6f722072616e6460448201526e1bdb541858dac818dbdb9d1c9858dd608a1b6064820152608490fd5b9061039894939291611d7b6113396008611298565b611d843361038c565b148015611db4575b8015611da1575b611d9c90611d02565b61217e565b50611d9c611dad612867565b9050611d93565b50611dc26113396007611298565b611dcb3361038c565b14611d8c565b634e487b7160e01b600052603260045260246000fd5b90611df0825190565b811015611e01576020809102010190565b611dd1565b634e487b7160e01b600052602160045260246000fd5b60061115611e2657565b611e06565b906103b882611e1c565b6103989051611e2b565b61039890611e2b565b6103f090611e3f565b6020810192916103b89190611e48565b634e487b7160e01b600052601160045260246000fd5b91908201809211611e8457565b611e61565b90929192611e996108bf82610881565b938185526020808601920283019281841161038757915b838310611ebd5750505050565b60208091611ecb8486611ac6565b815201920191611eb0565b9080601f8301121561038757815161039892602001611e89565b906020828203126103875781516001600160401b038111610387576103989201611ed6565b90610af481602093611e48565b90611f31610c62610c58845190565b9060005b818110611f425750505090565b909192611f55610c906001928651611f15565b929101611f35565b611f6961141260029390565b6000915b838310611f7a5750505050565b611f90610c62600192845160ff16815260200190565b92019190611f6d565b90610af481604093611f5d565b90611fb5610c62610c58845190565b9060005b818110611fc65750505090565b909192611fd9610c906001928651611f99565b929101611fb9565b611fed61141260049390565b6000915b838310611ffe5750505050565b612014610c62600192845160ff16815260200190565b92019190611ff1565b90610af481608093611fe1565b90612039610c62610c58845190565b9060005b81811061204a5750505090565b90919261205d610c90600192865161201d565b92910161203d565b60005b8381106120785750506000910152565b8181015183820152602001612068565b6120a96120b2602093610af49361209d815190565b80835293849260200190565b95869101612065565b601f01601f191690565b9061039891612088565b906120dc6120d2835190565b8083529160200190565b90816120ee6020830284019460200190565b926000915b83831061210257505050505090565b9091929394602061212561211e838560019503875289516120bc565b9760200190565b93019301919392906120f3565b92612162610398959361215461217094608088019088820360008a0152611f22565b908682036020880152611fa6565b90848203604086015261202a565b9160608184039101526120c6565b5080519094909360009260009461219486610513565b945b875b86101561223f576121ec9060208a6121c86121c38a6121bd61142c61142c6006611298565b93611de7565b611e35565b906121d260405190565b94859283918291630b513d9960e01b835260048301611e51565b03915afa91821561156f576121989261221792612210928b9261221f575b50611e77565b9660010190565b959050612196565b61223891925060203d8111611b6157611b598183610847565b903861220a565b919450929691949550612250612c81565b9061226161142c61142c6006611298565b602061226c60405190565b630265f21b60e51b815291829060049082905afa90811561156f5761229f9261141292610398928b916123225750611e77565b10612310578492836122b761142c61142c6006611298565b926122de6122c460405190565b97889687958694630ff1ac6760e01b865260048601612132565b03925af191821561156f5780926122f457505090565b61039892503d8091833e6123088183610847565b810190611ef0565b60405163f2cd224d60e01b8152600490fd5b61233b915060203d602011611b6157611b598183610847565b3861220a565b610398939291906060611d66565b6103989061182a610784565b90610398929161236e6113396006611298565b6123773361038c565b1480156123ef575b80156123d2575b80156123b5575b80156123a2575b61239d906112a2565b612436565b5061239d6123ae612867565b9050612394565b506123c36113396009611298565b6123cc3361038c565b1461238d565b506123e06113396008611298565b6123e93361038c565b14612386565b506123fd6113396007611298565b6124063361038c565b1461237f565b6040906116506103b8949695939661242c606084019860008501906104d3565b60208301906104d3565b509061244661142c806006611298565b9061245030610dbb565b91803b1561038757612483936000809461246960405190565b968795869485936323b872dd60e01b85526004850161240c565b03925af1801561156f576124975750600190565b6124a79060006115678183610847565b386116c1565b6103989190600061235b565b6103b8906124c861179a612867565b6103b890600b6117b9565b6103b8906124b9565b6103986007611298565b610398600b611298565b156124f757565b60405162461bcd60e51b815260206004820152602360248201527f41757468436f6e74726f6c3a2043616c6c6572206973206e6f7420612070617560448201526239b2b960e91b6064820152608490fd5b6103b89061255e612557610784565b3390612aef565b8015612573575b61256e906124f0565b612586565b5061256e61257f612867565b9050612565565b6103b890612592610784565b611a93565b6103b890612548565b906103b8916125ae3361181e565b80156125c3575b6125be90611462565b6125d6565b506125be6125cf612867565b90506125b5565b6125e661142c61142c6006611298565b91823b1561038757611546926000928361169360405190565b906103b8916125a0565b6103b89061261861179a612867565b6103b890612624610ed5565b611a37565b6103b890612609565b6103b89061263f3361181e565b8015612654575b61264f90611462565b612667565b5061264f612660612867565b9050612646565b6103b89061267481612fe6565b60096117b9565b6103b890612632565b906103b8916126923361181e565b80156126a7575b6126a290611462565b6126df565b506126a26126b3612867565b9050612699565b60408082526103989391926126d191840190610c49565b916020818403910152610c49565b6126f460206118ca61142c61142c6006611298565b03915afa801561156f5761270e916000916119ed57501590565b61275b575b61272361142c61142c6007611298565b91823b1561038757611546926000928361273c60405190565b8096819582946127506379dbd79860e01b90565b8452600484016126ba565b61276b61142c61142c6006611298565b6127756007611298565b90803b1561038757600160009161279093836119a360405190565b03925af1801561156f576127a5575b50612713565b6127b59060006115678183610847565b3861279f565b906103b891612684565b6103b8906127d461179a612867565b6103b890612624610784565b6103b8906127c5565b6127f461179a612867565b6103b861283b565b1561280357565b60405162461bcd60e51b815260206004820152601060248201526f14185d5cd8589b194e881c185d5cd95960821b6044820152606490fd5b61285061284b611a06600c611b91565b6127fc565b6103b86103b86001600c611c07565b6103b86127e9565b610398612557611120565b90610398949392916128876113396008611298565b6128903361038c565b1480156128c0575b80156128ad575b6128a890611d02565b612997565b506128a86128b9612867565b905061289f565b506128ce6113396007611298565b6128d73361038c565b14612898565b6128e961141260029390565b6000915b8383106128fa5750505050565b612910610c62600192845160ff16815260200190565b920191906128ed565b61292561141260049390565b6000915b8383106129365750505050565b61294c610c62600192845160ff16815260200190565b92019190612929565b909261298a9061298061039896946129766101008601976000870190611e48565b60208501906128dd565b6060830190612919565b60e0818403910152612088565b929192506129a3612c81565b6129b361142c61142c6006611298565b60206129be60405190565b630265f21b60e51b815291829060049082905afa90811561156f57600091612aaf575b506129f261142c61142c6006611298565b9060206129fe60405190565b928390630b513d9960e01b82528180612a1a8960048301611e51565b03915afa91821561156f57612a3e926114129261039892600092612a955750611e77565b10612310576020926000612a5861142c61142c6006611298565b92612a7f612a6560405190565b9788968795869463975781b760e01b865260048601612955565b03925af190811561156f57600091611b3f575090565b61223891925060203d602011611b6157611b598183610847565b612ac8915060203d602011611b6157611b598183610847565b386129e1565b610398939291906000612872565b61039890610dd7565b6103989054612adc565b610398916000612b04612b0a93611810600090565b01610dc4565b612ae5565b610398600c611298565b6103b890612b263361181e565b8015612b3b575b612b3690611462565b612b4e565b50612b36612b47612867565b9050612b2d565b612b5e61142c61142c6007611298565b803b1561038757611546600092918392612b7760405190565b94859384928391906356d6b49360e11b83526004830190815260200190565b6103b890612b19565b15612ba657565b60405162461bcd60e51b815260206004820152602360248201527f41757468436f6e74726f6c3a2043616c6c6572206973206e6f7420616e20616460448201526236b4b760e91b6064820152608490fd5b612c08612c033361181e565b612b9f565b6103b86103b8612c16610ed5565b3390611a93565b6103b8612bf7565b6103986006611298565b6103b890612c3c3361181e565b8015612c51575b612c4c90611462565b612c64565b50612c4c612c5d612867565b9050612c43565b6103b890612c7181612fe6565b600c6117b9565b6103b890612c2f565b611b296020611afc61142c61142c600a611298565b6103989060a81c610dd7565b6103989054612c96565b15612cb357565b60405162461bcd60e51b8152602060048201526013602482015272185b1c9958591e481a5b9a5d1a585b1a5e9959606a1b6044820152606490fd5b9060ff60a81b9060a81b6117af565b90612d0d6103986117d092151590565b8254612cee565b612d5590612d4e612d5c94612d34612d2f611a06600c612ca2565b612cac565b612d46612d3f611120565b33906130c2565b5060066117b9565b600a6117b9565b600b6117b9565b6103b86001600c612cfd565b906103b891612d79611a25826117ff565b90611a3491613144565b906103b891612d68565b6103b890612d9a3361181e565b8015612daf575b612daa90611462565b612dc2565b50612daa612dbb612867565b9050612da1565b6103b890612dd36116696006611298565b60066117b9565b6103b890612d8d565b6103986008611298565b906103989291612dfc3361181e565b8015612e11575b612e0c90611462565b612e24565b50612e0c612e1d612867565b9050612e03565b5090612e2f82612fe6565b612e37611ae7565b8111612e4e576114369161143161142c600b611298565b60405163a5a9c2b760e01b8152600490fd5b61039891906000612ded565b6103b890612e793361181e565b8015612e8e575b612e8990611462565b612ea1565b50612e89612e9a612867565b9050612e80565b6103b890612eae81612fe6565b60086117b9565b6103b890612e6c565b6103b890612ecd61179a612867565b612ee8565b61038c6103986103989290565b61039890612ed2565b612ef56113396000612edf565b612efe8261038c565b14612f4e57612f0c8161038c565b612f153361038c565b14612f3c576103b890612c16612f29611120565b91612f348184611a37565b612624610ed5565b604051630a98f1f360e21b8152600490fd5b60405163d92e233d60e01b8152600490fd5b6103b890612ebe565b6103986002610513565b90600019906117af565b90612f8d6103986117d092610513565b8254612f73565b612f9e60046117f5565b612fa6612f69565b908114612fb8576103b8906004612f7d565b604051633ee5aeb560e01b8152600490fd5b6103986001610513565b6103b8612fdf612fca565b6004612f7d565b612ffc612ff66113396000612edf565b9161038c565b1461300357565b60405163e6c4247b60e01b8152600490fd5b6130586004926130496103b89561302f63a9059cbb6116ff565b9261303960405190565b9687946020860190815201611635565b60208201810382520383610847565b6131a1565b637965db0b60e01b6001600160e01b031982161490811561307c575090565b61039891506001600160e01b0319166301ffc9a760e01b1490565b6103b890339061321b565b9060ff906117af565b906130bb6103986117d092151590565b82546130a2565b6130cf611a068383612aef565b1561313d576130ef60016130ea846000612b048660056117e8565b6130ab565b6131096131036130fd339390565b93610dbb565b91610dbb565b917f2f8788117e7eff1d82e926ec794901d17c78024a50270940304540a733656f0d61313460405190565b600090a4600190565b5050600090565b61314e8282612aef565b1561313d5761316860006130ea8482612b048660056117e8565b6131766131036130fd339390565b917ff6391f5c32d9c69d2a47ea670b442974b53935d1edc7fd64eb21e047a839171b61313460405190565b6131ad6131b491610dbb565b9182613253565b80516131c36114126000610513565b141590816131f7575b506131d45750565b611322906131e160405190565b635274afe760e01b8152918291600483016104dc565b613215915080602061320a611a06935190565b818301019101611621565b386131cc565b90613229611a068284612aef565b613231575050565b61132261323d60405190565b63e2517d3f60e01b815292839260048401611635565b610398916132616000610513565b91613298565b906132746108bf83610ad8565b918252565b3d15613293576132883d613267565b903d6000602084013e565b606090565b916132a230610dbb565b818131106132cc575060008281926020610398969551920190855af16132c6613279565b916132ef565b611322906132d960405190565b63cd78605960e01b8152918291600483016104dc565b906132fa5750613351565b81516133096114126000610513565b148061333b575b613318575090565b6113229061332560405190565b639996b31560e01b8152918291600483016104dc565b50803b61334b6114126000610513565b14613310565b80516133606114126000610513565b111561336e57805190602001fd5b604051630a12f52160e11b8152600490fdfea2646970667358221220271dc80acb9dc2b9b21f263aefaf97494fc3c801769ae1a8160b6ec48d19798564736f6c63430008190033","linkReferences":{}},"methodIdentifiers":{"ADMIN_ROLE()":"75b238fc","DECIMALS()":"2e0f2625","DEFAULT_ADMIN_ROLE()":"a217fddf","PAUSE_ROLE()":"389ed267","TON_FEES_RATE_DIVIDER()":"08ec897d","addAdmin(address)":"70480275","addPauser(address)":"82dc1ec4","aliveImplementation(address)":"550d01a3","approveGem(address,uint256)":"6fcf2fc9","approveWstonForMarketplace(uint256)":"40e58548","buyGem(uint256,bool)":"02424ed3","createPreminedGEM(uint8,uint8[2],uint8[4],string)":"912b431b","createPreminedGEMPool(uint8[],uint8[2][],uint8[4][],string[])":"425c7fc2","getAirdropAddress()":"3d007e57","getGemFactoryAddress()":"9d541be2","getMarketPlaceAddress()":"694eaa40","getRandomPackAddress()":"ec23919a","getRoleAdmin(bytes32)":"248a9ca3","getSwapPoolAddress()":"952377f3","getTONBalance()":"3b22f110","getTonAddress()":"6ae638d0","getWSTONBalance()":"bae77ac9","getWstonAddress()":"044bc779","grantRole(bytes32,address)":"2f2ff15d","hasRole(bytes32,address)":"91d14854","initialize(address,address,address)":"c0c53b8b","isAdmin(address)":"24d7806c","isOwner()":"8f32d59b","isPauser(address)":"46fbf68e","onERC721Received(address,address,uint256,bytes)":"150b7a02","pause()":"8456cb59","pauseProxy()":"63a8fd89","proxyImplementation(uint256)":"b911135f","putGemForSale(uint256,uint256)":"2ede6432","putGemListForSale(uint256[],uint256[])":"79dbd798","removeAdmin()":"9a202d47","removeGemFromSale(uint256)":"98d111b2","removePauser(address)":"6b2c0f55","renounceRole(bytes32,address)":"36568abe","revokeRole(bytes32,address)":"d547741f","selectorImplementation(bytes4)":"50d2a276","setAirdrop(address)":"72820dbc","setGemFactory(address)":"e6147518","setMarketPlace(address)":"30568a8d","setRandomPack(address)":"ed8c2472","setTon(address)":"4d288fec","setWston(address)":"247ee388","setWstonSwapPool(address)":"b23a1d0d","supportsInterface(bytes4)":"01ffc9a7","tonApproveWstonSwapPool(uint256)":"12608dfb","transferOwnership(address)":"f2fde38b","transferTON(address,uint256)":"ec7ae61d","transferTreasuryGEMto(address,uint256)":"48dbcef0","transferWSTON(address,uint256)":"0169dc31","unpause()":"3f4ba83a"},"id":76}