{"abi":[{"type":"function","name":"ADMIN_ROLE","inputs":[],"outputs":[{"name":"","type":"bytes32","internalType":"bytes32"}],"stateMutability":"view"},{"type":"function","name":"DECIMALS","inputs":[],"outputs":[{"name":"","type":"uint256","internalType":"uint256"}],"stateMutability":"view"},{"type":"function","name":"DEFAULT_ADMIN_ROLE","inputs":[],"outputs":[{"name":"","type":"bytes32","internalType":"bytes32"}],"stateMutability":"view"},{"type":"function","name":"PAUSE_ROLE","inputs":[],"outputs":[{"name":"","type":"bytes32","internalType":"bytes32"}],"stateMutability":"view"},{"type":"function","name":"addAdmin","inputs":[{"name":"account","type":"address","internalType":"address"}],"outputs":[],"stateMutability":"nonpayable"},{"type":"function","name":"addPauser","inputs":[{"name":"account","type":"address","internalType":"address"}],"outputs":[],"stateMutability":"nonpayable"},{"type":"function","name":"aliveImplementation","inputs":[{"name":"","type":"address","internalType":"address"}],"outputs":[{"name":"","type":"bool","internalType":"bool"}],"stateMutability":"view"},{"type":"function","name":"getRoleAdmin","inputs":[{"name":"role","type":"bytes32","internalType":"bytes32"}],"outputs":[{"name":"","type":"bytes32","internalType":"bytes32"}],"stateMutability":"view"},{"type":"function","name":"getStakingIndex","inputs":[],"outputs":[{"name":"","type":"uint256","internalType":"uint256"}],"stateMutability":"view"},{"type":"function","name":"grantRole","inputs":[{"name":"role","type":"bytes32","internalType":"bytes32"},{"name":"account","type":"address","internalType":"address"}],"outputs":[],"stateMutability":"nonpayable"},{"type":"function","name":"hasRole","inputs":[{"name":"role","type":"bytes32","internalType":"bytes32"},{"name":"account","type":"address","internalType":"address"}],"outputs":[{"name":"","type":"bool","internalType":"bool"}],"stateMutability":"view"},{"type":"function","name":"initialize","inputs":[{"name":"_ton","type":"address","internalType":"address"},{"name":"_wston","type":"address","internalType":"address"},{"name":"_initialStakingIndex","type":"uint256","internalType":"uint256"},{"name":"_treasury","type":"address","internalType":"address"}],"outputs":[],"stateMutability":"nonpayable"},{"type":"function","name":"isAdmin","inputs":[{"name":"account","type":"address","internalType":"address"}],"outputs":[{"name":"","type":"bool","internalType":"bool"}],"stateMutability":"view"},{"type":"function","name":"isOwner","inputs":[],"outputs":[{"name":"","type":"bool","internalType":"bool"}],"stateMutability":"view"},{"type":"function","name":"pause","inputs":[],"outputs":[],"stateMutability":"nonpayable"},{"type":"function","name":"pauseProxy","inputs":[],"outputs":[{"name":"","type":"bool","internalType":"bool"}],"stateMutability":"view"},{"type":"function","name":"paused","inputs":[],"outputs":[{"name":"","type":"bool","internalType":"bool"}],"stateMutability":"view"},{"type":"function","name":"proxyImplementation","inputs":[{"name":"","type":"uint256","internalType":"uint256"}],"outputs":[{"name":"","type":"address","internalType":"address"}],"stateMutability":"view"},{"type":"function","name":"removeAdmin","inputs":[{"name":"account","type":"address","internalType":"address"}],"outputs":[],"stateMutability":"nonpayable"},{"type":"function","name":"removePauser","inputs":[{"name":"account","type":"address","internalType":"address"}],"outputs":[],"stateMutability":"nonpayable"},{"type":"function","name":"renounceRole","inputs":[{"name":"role","type":"bytes32","internalType":"bytes32"},{"name":"callerConfirmation","type":"address","internalType":"address"}],"outputs":[],"stateMutability":"nonpayable"},{"type":"function","name":"revokeRole","inputs":[{"name":"role","type":"bytes32","internalType":"bytes32"},{"name":"account","type":"address","internalType":"address"}],"outputs":[],"stateMutability":"nonpayable"},{"type":"function","name":"selectorImplementation","inputs":[{"name":"","type":"bytes4","internalType":"bytes4"}],"outputs":[{"name":"","type":"address","internalType":"address"}],"stateMutability":"view"},{"type":"function","name":"stakingIndex","inputs":[],"outputs":[{"name":"","type":"uint256","internalType":"uint256"}],"stateMutability":"view"},{"type":"function","name":"supportsInterface","inputs":[{"name":"interfaceId","type":"bytes4","internalType":"bytes4"}],"outputs":[{"name":"","type":"bool","internalType":"bool"}],"stateMutability":"view"},{"type":"function","name":"swap","inputs":[{"name":"wstonAmount","type":"uint256","internalType":"uint256"}],"outputs":[],"stateMutability":"nonpayable"},{"type":"function","name":"ton","inputs":[],"outputs":[{"name":"","type":"address","internalType":"address"}],"stateMutability":"view"},{"type":"function","name":"transferOwnership","inputs":[{"name":"newOwner","type":"address","internalType":"address"}],"outputs":[],"stateMutability":"nonpayable"},{"type":"function","name":"treasury","inputs":[],"outputs":[{"name":"","type":"address","internalType":"address"}],"stateMutability":"view"},{"type":"function","name":"unpause","inputs":[],"outputs":[],"stateMutability":"nonpayable"},{"type":"function","name":"updateStakingIndex","inputs":[{"name":"newIndex","type":"uint256","internalType":"uint256"}],"outputs":[],"stateMutability":"nonpayable"},{"type":"function","name":"wston","inputs":[],"outputs":[{"name":"","type":"address","internalType":"address"}],"stateMutability":"view"},{"type":"event","name":"RoleAdminChanged","inputs":[{"name":"role","type":"bytes32","indexed":true,"internalType":"bytes32"},{"name":"previousAdminRole","type":"bytes32","indexed":true,"internalType":"bytes32"},{"name":"newAdminRole","type":"bytes32","indexed":true,"internalType":"bytes32"}],"anonymous":false},{"type":"event","name":"RoleGranted","inputs":[{"name":"role","type":"bytes32","indexed":true,"internalType":"bytes32"},{"name":"account","type":"address","indexed":true,"internalType":"address"},{"name":"sender","type":"address","indexed":true,"internalType":"address"}],"anonymous":false},{"type":"event","name":"RoleRevoked","inputs":[{"name":"role","type":"bytes32","indexed":true,"internalType":"bytes32"},{"name":"account","type":"address","indexed":true,"internalType":"address"},{"name":"sender","type":"address","indexed":true,"internalType":"address"}],"anonymous":false},{"type":"event","name":"StakingIndexUpdated","inputs":[{"name":"newIndex","type":"uint256","indexed":false,"internalType":"uint256"}],"anonymous":false},{"type":"event","name":"SwappedWstonForTon","inputs":[{"name":"user","type":"address","indexed":true,"internalType":"address"},{"name":"tonAmount","type":"uint256","indexed":false,"internalType":"uint256"},{"name":"wstonAmount","type":"uint256","indexed":false,"internalType":"uint256"}],"anonymous":false},{"type":"error","name":"AccessControlBadConfirmation","inputs":[]},{"type":"error","name":"AccessControlUnauthorizedAccount","inputs":[{"name":"account","type":"address","internalType":"address"},{"name":"neededRole","type":"bytes32","internalType":"bytes32"}]},{"type":"error","name":"ContractTonBalanceOrAllowanceTooLow","inputs":[]},{"type":"error","name":"FailedToApproveTon","inputs":[{"name":"amount","type":"uint256","internalType":"uint256"}]},{"type":"error","name":"ReentrancyGuardReentrantCall","inputs":[]},{"type":"error","name":"SameAdmin","inputs":[]},{"type":"error","name":"SameOwner","inputs":[]},{"type":"error","name":"WrongStakingIndex","inputs":[]},{"type":"error","name":"WstonAllowanceTooLow","inputs":[]},{"type":"error","name":"WstonBalanceTooLow","inputs":[]},{"type":"error","name":"ZeroAddress","inputs":[]}],"bytecode":{"object":"0x608060405234601f57600e6024565b604051611575610066823961157590f35b600080fd5b602a602c565b565b602a6057565b603c603c603c9290565b90565b603c60016032565b90603c603c6053926032565b9055565b602a605f603f565b6005604756fe6080604052600436101561001257600080fd5b60003560e01c806301ffc9a7146102125780631785f53c1461020d578063248a9ca31461020857806324d7806c146102035780632e0f2625146101fe5780632f2ff15d146101f957806330f50859146101f457806336568abe146101ef57806336b17e13146101ea578063389ed267146101e55780633f4ba83a146101e05780635074e0c8146101db57806350d2a276146101d6578063550d01a3146101d15780635c975abb146101cc57806361d027b3146101c757806363a8fd89146101c25780636b2c0f55146101bd57806370480275146101b857806375b238fc146101b357806382dc1ec4146101ae5780638456cb59146101a95780638f32d59b146101a457806391d148541461019f57806394b918de1461019a578063a217fddf14610195578063b911135f14610190578063be2030941461018b578063caa78a8614610186578063cc48b94714610181578063d547741f1461017c5763f2fde38b0361021757610849565b610830565b610815565b6107f1565b6107d5565b610785565b610750565b610726565b61070a565b6106ef565b6106d7565b6106bf565b6106a4565b610660565b610648565b61062d565b610607565b6105e0565b6105b9565b61053f565b6104f5565b6104dd565b6104c2565b61046f565b610412565b6103f7565b6103bc565b61037e565b61032f565b610304565b6102c0565b610259565b600080fd5b6001600160e01b031981165b0361021757565b9050359061023c8261021c565b565b90602082820312610217576102529161022f565b90565b9052565b346102175761028661027461026f36600461023e565b610861565b60405191829182901515815260200190565b0390f35b6001600160a01b031690565b6102288161028a565b9050359061023c82610296565b90602082820312610217576102529161029f565b34610217576102d86102d33660046102ac565b6108eb565b604051005b80610228565b9050359061023c826102dd565b9060208282031261021757610252916102e3565b346102175761028661031f61031a3660046102f0565b61090b565b6040519182918290815260200190565b34610217576102866102746103453660046102ac565b61092a565b600091031261021757565b6102526102526102529290565b610252676765c793fa10079d601b1b610355565b610252610362565b346102175761038e36600461034a565b61028661031f610376565b9190604083820312610217576102529060206103b582866102e3565b940161029f565b34610217576102d86103cf366004610399565b9061095e565b610252916008021c81565b9061025291546103d5565b610252600060096103e0565b346102175761040736600461034a565b61028661031f6103eb565b34610217576102d8610425366004610399565b90610968565b610252916008021c6001600160a01b031690565b90610252915461042b565b6102526000600761043f565b6102559061028a565b60208101929161023c9190610456565b346102175761047f36600461034a565b61028661048a61044a565b6040519182918261045f565b7ffcb9fcbfa83b897fb2d5cf4b58962164105c1e71489a37ef3ae0db3fdce576f690565b610252610496565b34610217576104d236600461034a565b61028661031f6104ba565b34610217576104ed36600461034a565b6102d8610a63565b346102175761050536600461034a565b61028661031f610a6b565b906001600160e01b0319165b600052602052604060002090565b600061053a610252926003610510565b61043f565b346102175761028661048a61055536600461023e565b61052a565b6102529061028a906001600160a01b031682565b6102529061055a565b6102529061056e565b9061051c90610577565b610252916008021c5b60ff1690565b90610252915461058a565b60006105b4610252926002610580565b610599565b34610217576102866102746105cf3660046102ac565b6105a4565b6102526001600a610599565b34610217576105f036600461034a565b6102866102746105d4565b6102526000600861043f565b346102175761061736600461034a565b61028661048a6105fb565b610252600080610599565b346102175761063d36600461034a565b610286610274610622565b34610217576102d861065b3660046102ac565b610a90565b34610217576102d86106733660046102ac565b610ab9565b7fdf8b4c520ffe197c5343c6f5aec59570151ef9a492f2c624fd45ddde6135ec4290565b610252610678565b34610217576106b436600461034a565b61028661031f61069c565b34610217576102d86106d23660046102ac565b610b44565b34610217576106e736600461034a565b6102d8610b7a565b34610217576106ff36600461034a565b610286610274610b82565b3461021757610286610274610720366004610399565b90610ba7565b34610217576102d86107393660046102f0565b611037565b6102526000610355565b61025261073e565b346102175761076036600461034a565b61028661031f610748565b9061051c90610355565b600061053a61025292600161076b565b346102175761028661048a61079b3660046102f0565b610775565b608081830312610217576107b4828261029f565b926102526107c5846020850161029f565b9360606103b582604087016102e3565b34610217576102d86107e83660046107a0565b929190916110e9565b34610217576102d86108043660046102f0565b6111b8565b6102526000600661043f565b346102175761082536600461034a565b61028661048a610809565b34610217576102d8610843366004610399565b906111dc565b34610217576102d861085c3660046102ac565b611283565b6102529061128c565b1561087157565b60405162461bcd60e51b8152602060048201526024808201527f41757468436f6e74726f6c3a2043616c6c6572206973206e6f7420746865206f6044820152633bb732b960e11b6064820152608490fd5b0390fd5b61023c906108da6108d5610b82565b61086a565b61023c906108e6610678565b610968565b61023c906108c6565b9061051c565b6102529081565b61025290546108fa565b60016109246102529261091c600090565b5060046108f4565b01610901565b61025290610936610678565b610ba7565b9061023c9161095161094c8261090b565b6112c6565b9061095b916112d1565b50565b9061023c9161093b565b906109773361028a565b61028a565b6109808261028a565b0361098e5761095b91611353565b60405163334bd91960e11b8152600490fd5b6109ab6108d5610b82565b61023c610a08565b6102529060081c610593565b61025290546109b3565b156109d057565b60405162461bcd60e51b815260206004820152601060248201526f14185d5cd8589b194e881c185d5cd95960821b6044820152606490fd5b610a21610a1c610a18600a6109bf565b1590565b6109c9565b61023c610a57565b9061ff009060081b5b9181191691161790565b90610a4c610252610a5392151590565b8254610a29565b9055565b61023c6000600a610a3c565b61023c6109a0565b6102526009610901565b61023c90610a846108d5610b82565b61023c906108e6610496565b61023c90610a75565b61023c90610aa86108d5610b82565b61023c90610ab4610678565b61095e565b61023c90610a99565b15610ac957565b60405162461bcd60e51b81526020600482015260126024820152713737ba1027bbb732b91037b91020b236b4b760711b6044820152606490fd5b61023c90610b103361092a565b8015610b25575b610b2090610ac2565b610b38565b50610b20610b31610b82565b9050610b17565b61023c90610ab4610496565b61023c90610b03565b610b586108d5610b82565b61023c610b6b610a1c610a18600a6109bf565b61023c61023c6001600a610a3c565b61023c610b4d565b610252610b8d61073e565b3390610ba7565b61025290610593565b6102529054610b94565b610252916000610bbc610bc29361091c600090565b01610580565b610b9d565b610bd890610bd36113ba565b610d12565b61023c6113fa565b6102529061028a565b6102529054610be0565b634e487b7160e01b600052604160045260246000fd5b90601f01601f1916810190811067ffffffffffffffff821117610c2b57604052565b610bf3565b9050519061023c826102dd565b906020828203126102175761025291610c30565b91602061023c929493610c6c60408201966000830190610456565b0190610456565b6040513d6000823e3d90fd5b634e487b7160e01b600052601160045260246000fd5b81810292918115918404141715610ca857565b610c7f565b634e487b7160e01b600052601260045260246000fd5b8115610ccd570490565b610cad565b801515610228565b9050519061023c82610cd2565b906020828203126102175761025291610cda565b90815260408101929161023c9160200152565b0152565b610d5a6020610d2c610d27610d276007610be9565b610577565b610d3530610577565b90610d3f60405190565b93849283918291636eb1769f60e11b83523360048401610c51565b03915afa908115610f8057600091611018575b50811161100657610d84610d27610d276007610be9565b906370a08231916020610d9660405190565b8092610da28660e01b90565b82528180610db3336004830161045f565b03915afa908115610f8057600091610fe7575b508111610fd557610e01610df4610de6610de06009610901565b84610c95565b610dee610362565b90610cc3565b610dee633b9aca00610355565b91610e12610d27610d276008610be9565b6020610e1d60405190565b6312608dfb60e01b81526004810186905291829060249082906000905af18015610f8057610e5191600091610fac57501590565b610f85576020610e9a91610e6b610d27610d276006610be9565b610e8f610e786008610be9565b92610e8260405190565b9586948593849360e01b90565b83526004830161045f565b03915afa908115610f8057600091610f51575b508211610f3f5780610ef97feb53aa1346bf80833deed132609343df1b6cdb928bd868803c6aa09a8ebeb60b92610ee7610d276007610be9565b610ef16008610be9565b90339061147a565b610f1b83610f0a610d276006610be9565b610f146008610be9565b339161147a565b610f2433610577565b92610f3a610f3160405190565b92839283610cfb565b0390a2565b6040516364a7800d60e11b8152600490fd5b610f73915060203d602011610f79575b610f6b8183610c09565b810190610c3d565b38610ead565b503d610f61565b610c73565b6108c283610f9260405190565b638ef9226b60e01b81529182916004830190815260200190565b610a18915060203d602011610fce575b610fc68183610c09565b810190610ce7565b503d610fbc565b6040516316a5d17360e11b8152600490fd5b611000915060203d602011610f7957610f6b8183610c09565b38610dc6565b6040516382cf63f960e01b8152600490fd5b611031915060203d602011610f7957610f6b8183610c09565b38610d6d565b61023c90610bc7565b1561104757565b60405162461bcd60e51b8152602060048201526013602482015272185b1c9958591e481a5b9a5d1a585b1a5e9959606a1b6044820152606490fd5b906001600160a01b0390610a32565b906110a1610252610a5392610577565b8254611082565b9060001990610a32565b906110c2610252610a5392610355565b82546110a8565b9060ff90610a32565b906110e2610252610a5392151590565b82546110c9565b9261112e6111359261112761113c9661110d611108610a18600a610b9d565b611040565b61111f61111861073e565b33906112d1565b506006611091565b6007611091565b6008611091565b60096110b2565b61023c6001600a6110d2565b61023c906111576108d5610b82565b61116b676765c793fa10079d601b1b610355565b81106111a6576111a18161031f7f30ce0c4920695ae7b30f6304002cac26f3bffd83b1b84b281d4495ec83956c499360096110b2565b0390a1565b6040516373fd31f360e01b8152600490fd5b61023c90611148565b9061023c916111d261094c8261090b565b9061095b91611353565b9061023c916111c1565b61023c906111f56108d5610b82565b611210565b61028a6102526102529290565b610252906111fa565b61121d6109726000611207565b6112268261028a565b14611271576112348161028a565b61123d3361028a565b1461125f5761023c9061125861125161073e565b918261095e565b3390610968565b604051630a98f1f360e21b8152600490fd5b60405163d92e233d60e01b8152600490fd5b61023c906111e6565b637965db0b60e01b6001600160e01b03198216149081156112ab575090565b61025291506001600160e01b0319166301ffc9a760e01b1490565b61023c903390611507565b6112de610a188383610ba7565b1561134c576112fe60016112f9846000610bbc8660046108f4565b6110d2565b61131861131261130c339390565b93610577565b91610577565b917f2f8788117e7eff1d82e926ec794901d17c78024a50270940304540a733656f0d61134360405190565b600090a4600190565b5050600090565b61135d8282610ba7565b1561134c5761137760006112f98482610bbc8660046108f4565b61138561131261130c339390565b917ff6391f5c32d9c69d2a47ea670b442974b53935d1edc7fd64eb21e047a839171b61134360405190565b6102526002610355565b6113c46005610901565b6113cc6113b0565b9081146113de5761023c9060056110b2565b604051633ee5aeb560e01b8152600490fd5b6102526001610355565b61023c6114056113f0565b60056110b2565b604090610d0e61023c949695939661142c60608401986000850190610456565b6020830190610456565b1561143d57565b60405162461bcd60e51b8152602060048201526015602482015274151bdad95b881d1c985b9cd9995c8819985a5b1959605a1b6044820152606490fd5b90602092600061148d6114b19694610577565b9261149760405190565b968795869485936323b872dd60e01b85526004850161140c565b03925af18015610f805761023c916000916114cd575b50611436565b6114e6915060203d602011610fce57610fc68183610c09565b386114c7565b91602061023c929493610d0e60408201966000830190610456565b90611515610a188284610ba7565b61151d575050565b6108c261152960405190565b63e2517d3f60e01b8152928392600484016114ec56fea2646970667358221220a61917b361dfa178fb39a808500babd7c7ac4c76ade9fc79b045d602cc1aa47a64736f6c63430008190033","linkReferences":{}},"methodIdentifiers":{"ADMIN_ROLE()":"75b238fc","DECIMALS()":"2e0f2625","DEFAULT_ADMIN_ROLE()":"a217fddf","PAUSE_ROLE()":"389ed267","addAdmin(address)":"70480275","addPauser(address)":"82dc1ec4","aliveImplementation(address)":"550d01a3","getRoleAdmin(bytes32)":"248a9ca3","getStakingIndex()":"5074e0c8","grantRole(bytes32,address)":"2f2ff15d","hasRole(bytes32,address)":"91d14854","initialize(address,address,uint256,address)":"be203094","isAdmin(address)":"24d7806c","isOwner()":"8f32d59b","pause()":"8456cb59","pauseProxy()":"63a8fd89","paused()":"5c975abb","proxyImplementation(uint256)":"b911135f","removeAdmin(address)":"1785f53c","removePauser(address)":"6b2c0f55","renounceRole(bytes32,address)":"36568abe","revokeRole(bytes32,address)":"d547741f","selectorImplementation(bytes4)":"50d2a276","stakingIndex()":"30f50859","supportsInterface(bytes4)":"01ffc9a7","swap(uint256)":"94b918de","ton()":"cc48b947","transferOwnership(address)":"f2fde38b","treasury()":"61d027b3","unpause()":"3f4ba83a","updateStakingIndex(uint256)":"caa78a86","wston()":"36b17e13"},"id":132}