{
  "_format": "hh-sol-artifact-1",
  "contractName": "Airdrop",
  "sourceName": "src/L2/Airdrop.sol",
  "abi": [
    {
      "inputs": [],
      "name": "AccessControlBadConfirmation",
      "type": "error"
    },
    {
      "inputs": [
        {
          "internalType": "address",
          "name": "account",
          "type": "address"
        },
        {
          "internalType": "bytes32",
          "name": "neededRole",
          "type": "bytes32"
        }
      ],
      "name": "AccessControlUnauthorizedAccount",
      "type": "error"
    },
    {
      "inputs": [],
      "name": "AlreadyInitialized",
      "type": "error"
    },
    {
      "inputs": [],
      "name": "ContractNotPaused",
      "type": "error"
    },
    {
      "inputs": [],
      "name": "ContractPaused",
      "type": "error"
    },
    {
      "inputs": [],
      "name": "NoEligibleUsers",
      "type": "error"
    },
    {
      "inputs": [],
      "name": "ReentrancyGuardReentrantCall",
      "type": "error"
    },
    {
      "inputs": [],
      "name": "SameAdmin",
      "type": "error"
    },
    {
      "inputs": [],
      "name": "SameOwner",
      "type": "error"
    },
    {
      "inputs": [],
      "name": "TokenNotAvailable",
      "type": "error"
    },
    {
      "inputs": [],
      "name": "TokenNotOwnedByTreasury",
      "type": "error"
    },
    {
      "inputs": [],
      "name": "UserAlreadyClaimedCurrentAirdrop",
      "type": "error"
    },
    {
      "inputs": [],
      "name": "UserNotEligible",
      "type": "error"
    },
    {
      "inputs": [],
      "name": "ZeroAddress",
      "type": "error"
    },
    {
      "anonymous": false,
      "inputs": [],
      "name": "EligibleTokenListCleared",
      "type": "event"
    },
    {
      "anonymous": false,
      "inputs": [
        {
          "indexed": true,
          "internalType": "bytes32",
          "name": "role",
          "type": "bytes32"
        },
        {
          "indexed": true,
          "internalType": "bytes32",
          "name": "previousAdminRole",
          "type": "bytes32"
        },
        {
          "indexed": true,
          "internalType": "bytes32",
          "name": "newAdminRole",
          "type": "bytes32"
        }
      ],
      "name": "RoleAdminChanged",
      "type": "event"
    },
    {
      "anonymous": false,
      "inputs": [
        {
          "indexed": true,
          "internalType": "bytes32",
          "name": "role",
          "type": "bytes32"
        },
        {
          "indexed": true,
          "internalType": "address",
          "name": "account",
          "type": "address"
        },
        {
          "indexed": true,
          "internalType": "address",
          "name": "sender",
          "type": "address"
        }
      ],
      "name": "RoleGranted",
      "type": "event"
    },
    {
      "anonymous": false,
      "inputs": [
        {
          "indexed": true,
          "internalType": "bytes32",
          "name": "role",
          "type": "bytes32"
        },
        {
          "indexed": true,
          "internalType": "address",
          "name": "account",
          "type": "address"
        },
        {
          "indexed": true,
          "internalType": "address",
          "name": "sender",
          "type": "address"
        }
      ],
      "name": "RoleRevoked",
      "type": "event"
    },
    {
      "anonymous": false,
      "inputs": [
        {
          "indexed": false,
          "internalType": "uint256[]",
          "name": "tokenIds",
          "type": "uint256[]"
        },
        {
          "indexed": false,
          "internalType": "address",
          "name": "_to",
          "type": "address"
        }
      ],
      "name": "TokensAssigned",
      "type": "event"
    },
    {
      "anonymous": false,
      "inputs": [
        {
          "indexed": false,
          "internalType": "uint256[]",
          "name": "tokenIds",
          "type": "uint256[]"
        },
        {
          "indexed": false,
          "internalType": "address",
          "name": "to",
          "type": "address"
        }
      ],
      "name": "TokensClaimed",
      "type": "event"
    },
    {
      "inputs": [],
      "name": "ADMIN_ROLE",
      "outputs": [
        {
          "internalType": "bytes32",
          "name": "",
          "type": "bytes32"
        }
      ],
      "stateMutability": "view",
      "type": "function"
    },
    {
      "inputs": [],
      "name": "DEFAULT_ADMIN_ROLE",
      "outputs": [
        {
          "internalType": "bytes32",
          "name": "",
          "type": "bytes32"
        }
      ],
      "stateMutability": "view",
      "type": "function"
    },
    {
      "inputs": [],
      "name": "PAUSE_ROLE",
      "outputs": [
        {
          "internalType": "bytes32",
          "name": "",
          "type": "bytes32"
        }
      ],
      "stateMutability": "view",
      "type": "function"
    },
    {
      "inputs": [
        {
          "internalType": "address",
          "name": "account",
          "type": "address"
        }
      ],
      "name": "addAdmin",
      "outputs": [],
      "stateMutability": "nonpayable",
      "type": "function"
    },
    {
      "inputs": [
        {
          "internalType": "address",
          "name": "account",
          "type": "address"
        }
      ],
      "name": "addPauser",
      "outputs": [],
      "stateMutability": "nonpayable",
      "type": "function"
    },
    {
      "inputs": [
        {
          "internalType": "address",
          "name": "",
          "type": "address"
        }
      ],
      "name": "aliveImplementation",
      "outputs": [
        {
          "internalType": "bool",
          "name": "",
          "type": "bool"
        }
      ],
      "stateMutability": "view",
      "type": "function"
    },
    {
      "inputs": [
        {
          "internalType": "uint256[]",
          "name": "_tokenIds",
          "type": "uint256[]"
        },
        {
          "internalType": "address",
          "name": "_to",
          "type": "address"
        }
      ],
      "name": "assignGemForAirdrop",
      "outputs": [
        {
          "internalType": "bool",
          "name": "",
          "type": "bool"
        }
      ],
      "stateMutability": "nonpayable",
      "type": "function"
    },
    {
      "inputs": [],
      "name": "claimAirdrop",
      "outputs": [],
      "stateMutability": "nonpayable",
      "type": "function"
    },
    {
      "inputs": [],
      "name": "clearEligibleTokensList",
      "outputs": [
        {
          "internalType": "bool",
          "name": "",
          "type": "bool"
        }
      ],
      "stateMutability": "nonpayable",
      "type": "function"
    },
    {
      "inputs": [],
      "name": "getGemFactory",
      "outputs": [
        {
          "internalType": "address",
          "name": "",
          "type": "address"
        }
      ],
      "stateMutability": "view",
      "type": "function"
    },
    {
      "inputs": [
        {
          "internalType": "bytes32",
          "name": "role",
          "type": "bytes32"
        }
      ],
      "name": "getRoleAdmin",
      "outputs": [
        {
          "internalType": "bytes32",
          "name": "",
          "type": "bytes32"
        }
      ],
      "stateMutability": "view",
      "type": "function"
    },
    {
      "inputs": [
        {
          "internalType": "address",
          "name": "_address",
          "type": "address"
        }
      ],
      "name": "getTokensEligible",
      "outputs": [
        {
          "internalType": "uint256[]",
          "name": "",
          "type": "uint256[]"
        }
      ],
      "stateMutability": "view",
      "type": "function"
    },
    {
      "inputs": [],
      "name": "getTreasury",
      "outputs": [
        {
          "internalType": "address",
          "name": "",
          "type": "address"
        }
      ],
      "stateMutability": "view",
      "type": "function"
    },
    {
      "inputs": [
        {
          "internalType": "address",
          "name": "_user",
          "type": "address"
        }
      ],
      "name": "getUserClaimed",
      "outputs": [
        {
          "internalType": "bool",
          "name": "",
          "type": "bool"
        }
      ],
      "stateMutability": "view",
      "type": "function"
    },
    {
      "inputs": [],
      "name": "getUsersWithEligibleTokens",
      "outputs": [
        {
          "internalType": "address[]",
          "name": "",
          "type": "address[]"
        }
      ],
      "stateMutability": "view",
      "type": "function"
    },
    {
      "inputs": [
        {
          "internalType": "bytes32",
          "name": "role",
          "type": "bytes32"
        },
        {
          "internalType": "address",
          "name": "account",
          "type": "address"
        }
      ],
      "name": "grantRole",
      "outputs": [],
      "stateMutability": "nonpayable",
      "type": "function"
    },
    {
      "inputs": [
        {
          "internalType": "address",
          "name": "_user",
          "type": "address"
        }
      ],
      "name": "hasEligibleTokens",
      "outputs": [
        {
          "internalType": "bool",
          "name": "",
          "type": "bool"
        }
      ],
      "stateMutability": "view",
      "type": "function"
    },
    {
      "inputs": [
        {
          "internalType": "bytes32",
          "name": "role",
          "type": "bytes32"
        },
        {
          "internalType": "address",
          "name": "account",
          "type": "address"
        }
      ],
      "name": "hasRole",
      "outputs": [
        {
          "internalType": "bool",
          "name": "",
          "type": "bool"
        }
      ],
      "stateMutability": "view",
      "type": "function"
    },
    {
      "inputs": [
        {
          "internalType": "address",
          "name": "_treasury",
          "type": "address"
        },
        {
          "internalType": "address",
          "name": "_gemFactory",
          "type": "address"
        }
      ],
      "name": "initialize",
      "outputs": [],
      "stateMutability": "nonpayable",
      "type": "function"
    },
    {
      "inputs": [
        {
          "internalType": "address",
          "name": "account",
          "type": "address"
        }
      ],
      "name": "isAdmin",
      "outputs": [
        {
          "internalType": "bool",
          "name": "",
          "type": "bool"
        }
      ],
      "stateMutability": "view",
      "type": "function"
    },
    {
      "inputs": [],
      "name": "isInitialized",
      "outputs": [
        {
          "internalType": "bool",
          "name": "",
          "type": "bool"
        }
      ],
      "stateMutability": "view",
      "type": "function"
    },
    {
      "inputs": [],
      "name": "isOwner",
      "outputs": [
        {
          "internalType": "bool",
          "name": "",
          "type": "bool"
        }
      ],
      "stateMutability": "view",
      "type": "function"
    },
    {
      "inputs": [],
      "name": "isPaused",
      "outputs": [
        {
          "internalType": "bool",
          "name": "",
          "type": "bool"
        }
      ],
      "stateMutability": "view",
      "type": "function"
    },
    {
      "inputs": [
        {
          "internalType": "address",
          "name": "account",
          "type": "address"
        }
      ],
      "name": "isPauser",
      "outputs": [
        {
          "internalType": "bool",
          "name": "",
          "type": "bool"
        }
      ],
      "stateMutability": "view",
      "type": "function"
    },
    {
      "inputs": [],
      "name": "pause",
      "outputs": [],
      "stateMutability": "nonpayable",
      "type": "function"
    },
    {
      "inputs": [],
      "name": "pauseProxy",
      "outputs": [
        {
          "internalType": "bool",
          "name": "",
          "type": "bool"
        }
      ],
      "stateMutability": "view",
      "type": "function"
    },
    {
      "inputs": [
        {
          "internalType": "uint256",
          "name": "",
          "type": "uint256"
        }
      ],
      "name": "proxyImplementation",
      "outputs": [
        {
          "internalType": "address",
          "name": "",
          "type": "address"
        }
      ],
      "stateMutability": "view",
      "type": "function"
    },
    {
      "inputs": [],
      "name": "removeAdmin",
      "outputs": [],
      "stateMutability": "nonpayable",
      "type": "function"
    },
    {
      "inputs": [
        {
          "internalType": "address",
          "name": "account",
          "type": "address"
        }
      ],
      "name": "removePauser",
      "outputs": [],
      "stateMutability": "nonpayable",
      "type": "function"
    },
    {
      "inputs": [
        {
          "internalType": "bytes32",
          "name": "role",
          "type": "bytes32"
        },
        {
          "internalType": "address",
          "name": "callerConfirmation",
          "type": "address"
        }
      ],
      "name": "renounceRole",
      "outputs": [],
      "stateMutability": "nonpayable",
      "type": "function"
    },
    {
      "inputs": [
        {
          "internalType": "bytes32",
          "name": "role",
          "type": "bytes32"
        },
        {
          "internalType": "address",
          "name": "account",
          "type": "address"
        }
      ],
      "name": "revokeRole",
      "outputs": [],
      "stateMutability": "nonpayable",
      "type": "function"
    },
    {
      "inputs": [
        {
          "internalType": "bytes4",
          "name": "",
          "type": "bytes4"
        }
      ],
      "name": "selectorImplementation",
      "outputs": [
        {
          "internalType": "address",
          "name": "",
          "type": "address"
        }
      ],
      "stateMutability": "view",
      "type": "function"
    },
    {
      "inputs": [
        {
          "internalType": "bytes4",
          "name": "interfaceId",
          "type": "bytes4"
        }
      ],
      "name": "supportsInterface",
      "outputs": [
        {
          "internalType": "bool",
          "name": "",
          "type": "bool"
        }
      ],
      "stateMutability": "view",
      "type": "function"
    },
    {
      "inputs": [
        {
          "internalType": "address",
          "name": "newOwner",
          "type": "address"
        }
      ],
      "name": "transferOwnership",
      "outputs": [],
      "stateMutability": "nonpayable",
      "type": "function"
    },
    {
      "inputs": [],
      "name": "unpause",
      "outputs": [],
      "stateMutability": "nonpayable",
      "type": "function"
    }
  ],
  "bytecode": "0x60808060405234601a576001600c55611a9a90816100208239f35b600080fdfe608080604052600436101561001357600080fd5b60003560e01c90816301ffc9a71461131257508063155f4fa8146111db5780631c6bd5b914611130578063248a9ca31461110157806324d7806c146110b15780632f2ff15d1461107257806336568abe1461103d578063389ed26714611014578063392e53cd14610fee5780633b19e84a14610fc55780633f4ba83a14610f8257806346fbf68e14610f32578063485cc95514610eab57806350d2a27614610e66578063550d01a314610e2757806356b2e41214610a265780635b88349d1461079357806363a8fd89146107705780636b2c0f55146106a1578063704802751461063857806375b238fc1461060f57806382dc1ec4146105a15780638456cb591461055c5780638f32d59b1461053757806391d14854146104ea5780639a202d471461045a578063a217fddf1461043e578063b187bd261461041b578063b911135f146103e7578063c55321e6146103a8578063cb21635614610369578063d547741f1461032a578063eeb261c1146102c7578063f00fe4fd1461029e5763f2fde38b146101a057600080fd5b34610299576020366003190112610299576101b9611365565b6101c96101c461159a565b6114d1565b6001600160a01b03811680156102875733146102755760008052600b6020527fdf7de25b7f1fd6d0b5205f0e18f1f35bd7b8d84cce336588d184533ce43a6f77546102699190610218906115bd565b61022181611601565b50600080516020611a05833981519152600052600b6020527fc95e36e7d138d7f7746dd268500efba0e7b562881b6fceb028c25eb9f900ad8e54610264906115bd565b61166e565b50610273336118b8565b005b604051630a98f1f360e21b8152600490fd5b60405163d92e233d60e01b8152600490fd5b600080fd5b34610299576000366003190112610299576005546040516001600160a01b039091168152602090f35b34610299576020366003190112610299576001600160a01b036102e8611365565b16600052600960205261032661030b61031260406000206040519283809261155c565b03826113ba565b6040519182916020835260208301906113db565b0390f35b346102995760403660031901126102995761027360043561034961137b565b9080600052600b6020526103646001604060002001546115bd565b61191f565b34610299576020366003190112610299576001600160a01b0361038a611365565b16600052600a602052602060ff604060002054166040519015158152f35b34610299576020366003190112610299576001600160a01b036103c9611365565b166000526008602052602060ff604060002054166040519015158152f35b34610299576020366003190112610299576004356000526001602052602060018060a01b0360406000205416604051908152f35b3461029957600036600319011261029957602060ff600754166040519015158152f35b3461029957600036600319011261029957602060405160008152f35b34610299576000366003190112610299573360009081526000805160206119e5833981519152602052604090205460ff16156104995761027333611842565b60405162461bcd60e51b815260206004820152602360248201527f41757468436f6e74726f6c3a2043616c6c6572206973206e6f7420616e20616460448201526236b4b760e91b6064820152608490fd5b346102995760403660031901126102995761050361137b565b600435600052600b60205260406000209060018060a01b0316600052602052602060ff604060002054166040519015158152f35b3461029957600036600319011261029957602061055261159a565b6040519015158152f35b34610299576000366003190112610299576105786101c461159a565b60075460ff811661058f5760ff1916600117600755005b60405163ab35696f60e01b8152600490fd5b34610299576020366003190112610299576102736105bd611365565b6105c86101c461159a565b6000805160206119c5833981519152600052600b6020527f783214dc8ca287b4dce3de7cccebbfe8fb16d61863fdb12cfb65f0d9c737449e5461060a906115bd565b6116eb565b34610299576000366003190112610299576020604051600080516020611a058339815191528152f35b3461029957602036600319011261029957610273610654611365565b61065f6101c461159a565b600080516020611a05833981519152600052600b6020527fc95e36e7d138d7f7746dd268500efba0e7b562881b6fceb028c25eb9f900ad8e54610264906115bd565b34610299576020366003190112610299576106ba611365565b336000908152600080516020611a45833981519152602052604090205460ff168015610762575b1561071157336001600160a01b038216036106ff57610273906117cc565b60405163334bd91960e11b8152600490fd5b60405162461bcd60e51b815260206004820152602360248201527f41757468436f6e74726f6c3a2043616c6c6572206973206e6f7420612070617560448201526239b2b960e91b6064820152608490fd5b5061076b61159a565b6106e1565b3461029957600036600319011261029957602060ff600054166040519015158152f35b346102995760003660031901126102995760ff6007541661058f576002600c5414610a14576002600c553360005260206008815260018060ff60406000205416151514610a02576107fa90336000526009835261080160406000206040519384809261155c565b03836113ba565b815180156109f0573360005260088452604060002060ff19906001828254161790556009855261083b6040600020805490600081556114b0565b33600052600a8552604060002090815416905560005b8181106108a2577f81017b6d9dcd50d1463b528b7a1c8c1dd866348804544848d3ca723d5f9c69a261089285876040519283926040845260408401906113db565b9033908301520390a16001600c55005b6005546001600160a01b03919082166108bb8287611529565b5192604051936331a9108f60e11b8552600485015260249088858381865afa80156109a85787956000916109c3575b50818060045416911614610902575b50505001610851565b909193506109108388611529565b5193803b156102995760008095604051928391634d723a7560e01b8352600483015282868301528160449889925af180156109a8576109b4575b50600454169261095a8388611529565b5190843b156102995760009283604051968794859363048dbcef60e41b85523360048601528401525af19182156109a8578492610999575b80806108f9565b6109a290611391565b86610992565b6040513d6000823e3d90fd5b6109bd90611391565b8861094a565b6109e391508a3d8c116109e9575b6109db81836113ba565b81019061153d565b8a6108ea565b503d6109d1565b60405163267c16a760e21b8152600490fd5b604051632ca1efb560e21b8152600490fd5b604051633ee5aeb560e01b8152600490fd5b34610299576040366003190112610299576004356001600160401b038082116102995736602383011215610299578160040135916024918311610e12578260051b60405193610a7860208301866113ba565b845282602085019183010191368311610299578301905b828210610e0257505050610aa161137b565b3360009081526000805160206119e5833981519152602052604090205490919060ff168015610def575b610ad49061140f565b6001600160a01b038216600090815260096020526040812084518154919590925b838110610c19575050505060018060a01b0382166000526008602052604060002060ff1990818154169055600a602052604060002090815460ff811615610b8f575b7f6010d17ca674a11494ef21d1535339e57b4cc5f748aff181d496b89917aaf68b610b71878760405192839260408452604084019061155c565b6001600160a01b0390911660208301520390a1602060405160018152f35b16600117905560065490600160401b821015610c05575091610b7191610bdc8460017f6010d17ca674a11494ef21d1535339e57b4cc5f748aff181d496b89917aaf68b9601600655611450565b81546001600160a01b0384811660039390931b92831b921b191617905590929091839185610b37565b634e487b7160e01b60009081526041600452fd5b610c238183611529565b5160005b848110610dc957506005546040516331a9108f60e11b8152600481018390526001600160a01b03909116906020818981855afa9081156109a857600091610daa575b506004546001600160a01b03908116911603610d985760405163276a28a360e01b8152600481018390526020818981855afa9081156109a857600091610d5d575b50610d4b57803b15610299576000808892604460405180948193634d723a7560e01b8352886004840152600180988401525af180156109a857610d3c575b50885490600160401b821015610d275781610d0b916001959493018b558a611481565b819291549060031b91821b91600019901b191617905501610af5565b87634e487b7160e01b60005260416004526000fd5b610d4590611391565b89610ce8565b604051636f4c40dd60e01b8152600490fd5b90506020813d602011610d90575b81610d78602093836113ba565b8101031261029957518015158103610299578a610caa565b3d9150610d6b565b60405163de5ba81760e01b8152600490fd5b610dc3915060203d6020116109e9576109db81836113ba565b8a610c69565b8082610dd76001938c611481565b90549060031b1c14610dea575b01610c27565b610de4565b50610ad4610dfb61159a565b9050610acb565b8135815260209182019101610a8f565b50634e487b7160e01b60009081526041600452fd5b34610299576020366003190112610299576001600160a01b03610e48611365565b166000526002602052602060ff604060002054166040519015158152f35b346102995760203660031901126102995760043563ffffffff60e01b8116809103610299576000526003602052602060018060a01b0360406000205416604051908152f35b3461029957604036600319011261029957610ec4611365565b610ecc61137b565b60ff60075460081c16610f2157610ee233611601565b50600480546001600160a01b03199081166001600160a01b039485161790915560058054909116919092161790556007805461ff001916610100179055005b60405162dc149f60e41b8152600490fd5b3461029957602036600319011261029957610f4b611365565b6001600160a01b03166000908152600080516020611a45833981519152602090815260409182902054915160ff9092161515825290f35b3461029957600036600319011261029957610f9e6101c461159a565b60075460ff811615610fb35760ff1916600755005b60405163dcdde9dd60e01b8152600490fd5b34610299576000366003190112610299576004546040516001600160a01b039091168152602090f35b3461029957600036600319011261029957602060ff60075460081c166040519015158152f35b346102995760003660031901126102995760206040516000805160206119c58339815191528152f35b346102995760403660031901126102995761105661137b565b336001600160a01b038216036106ff576102739060043561191f565b346102995760403660031901126102995761027360043561109161137b565b9080600052600b6020526110ac6001604060002001546115bd565b611763565b34610299576020366003190112610299576110ca611365565b6001600160a01b031660009081526000805160206119e5833981519152602090815260409182902054915160ff9092161515825290f35b3461029957602036600319011261029957600435600052600b6020526020600160406000200154604051908152f35b346102995760003660031901126102995760405180600654808352602080930180916006600052846000209060005b868282106111be578686611175828803836113ba565b604051928392818401908285525180915260408401929160005b82811061119e57505050500390f35b83516001600160a01b03168552869550938101939281019260010161118f565b83546001600160a01b03168552909301926001928301920161115f565b34610299576000366003190112610299573360009081526000805160206119e5833981519152602090815260409091205460ff1680156112ff575b61121f9061140f565b60065480156112ed5760005b81811061128c5782600654600060065580611270575b506040517f579909dd9ac17c7f62d01eabab0127d8ec5b8f3375e59d9a0785c1fd50c5fe23600080a160018152f35b6112869060066000528260002090810190611499565b81611241565b80611298600192611450565b838060a01b0391549060031b1c1680600052600985526112c26040600020805490600081556114b0565b60005260088452604060002060ff1990818154169055600a855260406000209081541690550161122b565b604051630404844760e01b8152600490fd5b5061121f61130b61159a565b9050611216565b34610299576020366003190112610299576004359063ffffffff60e01b821680920361029957602091637965db0b60e01b8114908115611354575b5015158152f35b6301ffc9a760e01b1490508361134d565b600435906001600160a01b038216820361029957565b602435906001600160a01b038216820361029957565b6001600160401b0381116113a457604052565b634e487b7160e01b600052604160045260246000fd5b90601f801991011681019081106001600160401b038211176113a457604052565b90815180825260208080930193019160005b8281106113fb575050505090565b8351855293810193928101926001016113ed565b1561141657565b60405162461bcd60e51b81526020600482015260126024820152713737ba1027bbb732b91037b91020b236b4b760711b6044820152606490fd5b60065481101561146b57600660005260206000200190600090565b634e487b7160e01b600052603260045260246000fd5b805482101561146b5760005260206000200190600090565b8181106114a4575050565b60008155600101611499565b90806114ba575050565b6114cf91600052602060002090810190611499565b565b156114d857565b60405162461bcd60e51b8152602060048201526024808201527f41757468436f6e74726f6c3a2043616c6c6572206973206e6f7420746865206f6044820152633bb732b960e11b6064820152608490fd5b805182101561146b5760209160051b010190565b9081602091031261029957516001600160a01b03811681036102995790565b9081548082526020809201926000526020600020916000905b828210611583575050505090565b835485529384019360019384019390910190611575565b3360009081526000805160206119a5833981519152602052604090205460ff1690565b80600052600b60205260406000203360005260205260ff60406000205416156115e35750565b6044906040519063e2517d3f60e01b82523360048301526024820152fd5b6001600160a01b031660008181526000805160206119a5833981519152602052604081205490919060ff1661166a57818052600b6020526040822081835260205260408220600160ff1982541617905533916000805160206119858339815191528180a4600190565b5090565b6001600160a01b031660008181526000805160206119e58339815191526020526040812054909190600080516020611a058339815191529060ff166116e657808352600b6020526040832082845260205260408320600160ff19825416179055600080516020611985833981519152339380a4600190565b505090565b6001600160a01b03166000818152600080516020611a4583398151915260205260408120549091906000805160206119c58339815191529060ff166116e657808352600b6020526040832082845260205260408320600160ff19825416179055600080516020611985833981519152339380a4600190565b90600091808352600b602052604083209160018060a01b03169182845260205260ff604084205416156000146116e657808352600b6020526040832082845260205260408320600160ff19825416179055600080516020611985833981519152339380a4600190565b6001600160a01b03166000818152600080516020611a4583398151915260205260408120549091906000805160206119c58339815191529060ff16156116e657808352600b602052604083208284526020526040832060ff198154169055600080516020611a25833981519152339380a4600190565b6001600160a01b031660008181526000805160206119e58339815191526020526040812054909190600080516020611a058339815191529060ff16156116e657808352600b602052604083208284526020526040832060ff198154169055600080516020611a25833981519152339380a4600190565b6001600160a01b031660008181526000805160206119a5833981519152602052604081205490919060ff161561166a57818052600b602052604082208183526020526040822060ff1981541690553391600080516020611a258339815191528180a4600190565b90600091808352600b602052604083209160018060a01b03169182845260205260ff6040842054166000146116e657808352600b602052604083208284526020526040832060ff198154169055600080516020611a25833981519152339380a460019056fe2f8788117e7eff1d82e926ec794901d17c78024a50270940304540a733656f0ddf7de25b7f1fd6d0b5205f0e18f1f35bd7b8d84cce336588d184533ce43a6f76fcb9fcbfa83b897fb2d5cf4b58962164105c1e71489a37ef3ae0db3fdce576f6c95e36e7d138d7f7746dd268500efba0e7b562881b6fceb028c25eb9f900ad8ddf8b4c520ffe197c5343c6f5aec59570151ef9a492f2c624fd45ddde6135ec42f6391f5c32d9c69d2a47ea670b442974b53935d1edc7fd64eb21e047a839171b783214dc8ca287b4dce3de7cccebbfe8fb16d61863fdb12cfb65f0d9c737449da2646970667358221220d426f743af39e9c520884ce240b12a86586ccf155d5af3b5744cdf7c7864c88e64736f6c63430008190033",
  "linkReferences": {},
  "deployedLinkReferences": {}
}