{"abi":[{"type":"function","name":"GEMIndexToOwner","inputs":[{"name":"","type":"uint256","internalType":"uint256"}],"outputs":[{"name":"","type":"address","internalType":"address"}],"stateMutability":"view"},{"type":"function","name":"Gems","inputs":[{"name":"","type":"uint256","internalType":"uint256"}],"outputs":[{"name":"tokenId","type":"uint256","internalType":"uint256"},{"name":"value","type":"uint256","internalType":"uint256"},{"name":"gemCooldownDueDate","type":"uint256","internalType":"uint256"},{"name":"randomRequestId","type":"uint256","internalType":"uint256"},{"name":"rarity","type":"uint8","internalType":"enum GemFactoryStorage.Rarity"},{"name":"miningTry","type":"uint8","internalType":"uint8"},{"name":"isLocked","type":"bool","internalType":"bool"},{"name":"tokenURI","type":"string","internalType":"string"}],"stateMutability":"view"},{"type":"function","name":"aliveImplementation","inputs":[{"name":"","type":"address","internalType":"address"}],"outputs":[{"name":"","type":"bool","internalType":"bool"}],"stateMutability":"view"},{"type":"function","name":"approve","inputs":[{"name":"to","type":"address","internalType":"address"},{"name":"tokenId","type":"uint256","internalType":"uint256"}],"outputs":[],"stateMutability":"nonpayable"},{"type":"function","name":"balanceOf","inputs":[{"name":"owner","type":"address","internalType":"address"}],"outputs":[{"name":"","type":"uint256","internalType":"uint256"}],"stateMutability":"view"},{"type":"function","name":"callbackGasLimit","inputs":[],"outputs":[{"name":"","type":"uint32","internalType":"uint32"}],"stateMutability":"view"},{"type":"function","name":"colorName","inputs":[{"name":"","type":"uint8","internalType":"uint8"},{"name":"","type":"uint8","internalType":"uint8"}],"outputs":[{"name":"","type":"string","internalType":"string"}],"stateMutability":"view"},{"type":"function","name":"colors","inputs":[{"name":"","type":"uint256","internalType":"uint256"},{"name":"","type":"uint256","internalType":"uint256"}],"outputs":[{"name":"","type":"uint8","internalType":"uint8"}],"stateMutability":"view"},{"type":"function","name":"colorsCount","inputs":[],"outputs":[{"name":"","type":"uint8","internalType":"uint8"}],"stateMutability":"view"},{"type":"function","name":"forgeTokens","inputs":[{"name":"_tokenIds","type":"uint256[]","internalType":"uint256[]"},{"name":"_rarity","type":"uint8","internalType":"enum GemFactoryStorage.Rarity"},{"name":"_color","type":"uint8[2]","internalType":"uint8[2]"}],"outputs":[{"name":"newGemId","type":"uint256","internalType":"uint256"}],"stateMutability":"nonpayable"},{"type":"function","name":"getApproved","inputs":[{"name":"tokenId","type":"uint256","internalType":"uint256"}],"outputs":[{"name":"","type":"address","internalType":"address"}],"stateMutability":"view"},{"type":"function","name":"isApprovedForAll","inputs":[{"name":"owner","type":"address","internalType":"address"},{"name":"operator","type":"address","internalType":"address"}],"outputs":[{"name":"","type":"bool","internalType":"bool"}],"stateMutability":"view"},{"type":"function","name":"name","inputs":[],"outputs":[{"name":"","type":"string","internalType":"string"}],"stateMutability":"view"},{"type":"function","name":"numberMiningGemsByRarity","inputs":[{"name":"","type":"uint8","internalType":"enum GemFactoryStorage.Rarity"}],"outputs":[{"name":"","type":"uint256","internalType":"uint256"}],"stateMutability":"view"},{"type":"function","name":"ownerOf","inputs":[{"name":"tokenId","type":"uint256","internalType":"uint256"}],"outputs":[{"name":"","type":"address","internalType":"address"}],"stateMutability":"view"},{"type":"function","name":"ownershipTokenCount","inputs":[{"name":"","type":"address","internalType":"address"}],"outputs":[{"name":"","type":"uint256","internalType":"uint256"}],"stateMutability":"view"},{"type":"function","name":"pauseProxy","inputs":[],"outputs":[{"name":"","type":"bool","internalType":"bool"}],"stateMutability":"view"},{"type":"function","name":"paused","inputs":[],"outputs":[{"name":"","type":"bool","internalType":"bool"}],"stateMutability":"view"},{"type":"function","name":"proxyImplementation","inputs":[{"name":"","type":"uint256","internalType":"uint256"}],"outputs":[{"name":"","type":"address","internalType":"address"}],"stateMutability":"view"},{"type":"function","name":"s_requests","inputs":[{"name":"","type":"uint256","internalType":"uint256"}],"outputs":[{"name":"tokenId","type":"uint256","internalType":"uint256"},{"name":"randomWord","type":"uint256","internalType":"uint256"},{"name":"chosenTokenId","type":"uint256","internalType":"uint256"},{"name":"requester","type":"address","internalType":"address"},{"name":"requested","type":"bool","internalType":"bool"},{"name":"fulfilled","type":"bool","internalType":"bool"}],"stateMutability":"view"},{"type":"function","name":"safeTransferFrom","inputs":[{"name":"from","type":"address","internalType":"address"},{"name":"to","type":"address","internalType":"address"},{"name":"tokenId","type":"uint256","internalType":"uint256"}],"outputs":[],"stateMutability":"nonpayable"},{"type":"function","name":"safeTransferFrom","inputs":[{"name":"from","type":"address","internalType":"address"},{"name":"to","type":"address","internalType":"address"},{"name":"tokenId","type":"uint256","internalType":"uint256"},{"name":"data","type":"bytes","internalType":"bytes"}],"outputs":[],"stateMutability":"nonpayable"},{"type":"function","name":"selectorImplementation","inputs":[{"name":"","type":"bytes4","internalType":"bytes4"}],"outputs":[{"name":"","type":"address","internalType":"address"}],"stateMutability":"view"},{"type":"function","name":"setApprovalForAll","inputs":[{"name":"operator","type":"address","internalType":"address"},{"name":"approved","type":"bool","internalType":"bool"}],"outputs":[],"stateMutability":"nonpayable"},{"type":"function","name":"supportsInterface","inputs":[{"name":"interfaceId","type":"bytes4","internalType":"bytes4"}],"outputs":[{"name":"","type":"bool","internalType":"bool"}],"stateMutability":"view"},{"type":"function","name":"symbol","inputs":[],"outputs":[{"name":"","type":"string","internalType":"string"}],"stateMutability":"view"},{"type":"function","name":"tokenMiningByUser","inputs":[{"name":"","type":"address","internalType":"address"}],"outputs":[{"name":"","type":"uint256","internalType":"uint256"}],"stateMutability":"view"},{"type":"function","name":"tokenReadyToMine","inputs":[{"name":"","type":"uint256","internalType":"uint256"}],"outputs":[{"name":"","type":"bool","internalType":"bool"}],"stateMutability":"view"},{"type":"function","name":"tokenURI","inputs":[{"name":"tokenId","type":"uint256","internalType":"uint256"}],"outputs":[{"name":"","type":"string","internalType":"string"}],"stateMutability":"view"},{"type":"function","name":"transferFrom","inputs":[{"name":"from","type":"address","internalType":"address"},{"name":"to","type":"address","internalType":"address"},{"name":"tokenId","type":"uint256","internalType":"uint256"}],"outputs":[],"stateMutability":"nonpayable"},{"type":"function","name":"userMiningStartTime","inputs":[{"name":"","type":"address","internalType":"address"},{"name":"","type":"uint256","internalType":"uint256"}],"outputs":[{"name":"","type":"uint256","internalType":"uint256"}],"stateMutability":"view"},{"type":"function","name":"userMiningToken","inputs":[{"name":"","type":"address","internalType":"address"},{"name":"","type":"uint256","internalType":"uint256"}],"outputs":[{"name":"","type":"bool","internalType":"bool"}],"stateMutability":"view"},{"type":"event","name":"Approval","inputs":[{"name":"owner","type":"address","indexed":true,"internalType":"address"},{"name":"approved","type":"address","indexed":true,"internalType":"address"},{"name":"tokenId","type":"uint256","indexed":true,"internalType":"uint256"}],"anonymous":false},{"type":"event","name":"ApprovalForAll","inputs":[{"name":"owner","type":"address","indexed":true,"internalType":"address"},{"name":"operator","type":"address","indexed":true,"internalType":"address"},{"name":"approved","type":"bool","indexed":false,"internalType":"bool"}],"anonymous":false},{"type":"event","name":"BackgroundColorAdded","inputs":[{"name":"id","type":"uint8","indexed":true,"internalType":"uint8"},{"name":"backgroundColor","type":"string","indexed":false,"internalType":"string"}],"anonymous":false},{"type":"event","name":"BatchMetadataUpdate","inputs":[{"name":"_fromTokenId","type":"uint256","indexed":false,"internalType":"uint256"},{"name":"_toTokenId","type":"uint256","indexed":false,"internalType":"uint256"}],"anonymous":false},{"type":"event","name":"CallBackGasLimitUpdated","inputs":[{"name":"newCallbackGasLimit","type":"uint32","indexed":false,"internalType":"uint32"}],"anonymous":false},{"type":"event","name":"ColorAdded","inputs":[{"name":"id","type":"uint8","indexed":true,"internalType":"uint8"},{"name":"color","type":"string","indexed":false,"internalType":"string"}],"anonymous":false},{"type":"event","name":"ColorValidated","inputs":[{"name":"color_0","type":"uint8","indexed":false,"internalType":"uint8"},{"name":"color_1","type":"uint8","indexed":false,"internalType":"uint8"}],"anonymous":false},{"type":"event","name":"ColorValidated","inputs":[{"name":"color0","type":"uint8","indexed":false,"internalType":"uint8"},{"name":"color1","type":"uint8","indexed":false,"internalType":"uint8"}],"anonymous":false},{"type":"event","name":"CountGemsByQuadrant","inputs":[{"name":"gemCount","type":"uint256","indexed":false,"internalType":"uint256"},{"name":"tokenIds","type":"uint256[]","indexed":false,"internalType":"uint256[]"}],"anonymous":false},{"type":"event","name":"Created","inputs":[{"name":"tokenId","type":"uint256","indexed":true,"internalType":"uint256"},{"name":"rarity","type":"uint8","indexed":false,"internalType":"enum GemFactoryStorage.Rarity"},{"name":"color","type":"uint8[2]","indexed":false,"internalType":"uint8[2]"},{"name":"miningTry","type":"uint8","indexed":false,"internalType":"uint8"},{"name":"value","type":"uint256","indexed":false,"internalType":"uint256"},{"name":"quadrants","type":"uint8[4]","indexed":false,"internalType":"uint8[4]"},{"name":"cooldownDueDate","type":"uint256","indexed":false,"internalType":"uint256"},{"name":"tokenURI","type":"string","indexed":false,"internalType":"string"},{"name":"owner","type":"address","indexed":false,"internalType":"address"}],"anonymous":false},{"type":"event","name":"EthSentBack","inputs":[{"name":"amount","type":"uint256","indexed":false,"internalType":"uint256"}],"anonymous":false},{"type":"event","name":"GemForged","inputs":[{"name":"gemOwner","type":"address","indexed":false,"internalType":"address"},{"name":"gemsTokenIds","type":"uint256[]","indexed":false,"internalType":"uint256[]"},{"name":"newGemCreatedId","type":"uint256","indexed":false,"internalType":"uint256"},{"name":"newRarity","type":"uint8","indexed":false,"internalType":"enum GemFactoryStorage.Rarity"},{"name":"forgedQuadrants","type":"uint8[4]","indexed":false,"internalType":"uint8[4]"},{"name":"color","type":"uint8[2]","indexed":false,"internalType":"uint8[2]"},{"name":"newValue","type":"uint256","indexed":false,"internalType":"uint256"}],"anonymous":false},{"type":"event","name":"GemMelted","inputs":[{"name":"_tokenId","type":"uint256","indexed":false,"internalType":"uint256"},{"name":"_from","type":"address","indexed":false,"internalType":"address"}],"anonymous":false},{"type":"event","name":"GemMiningClaimed","inputs":[{"name":"tokenId","type":"uint256","indexed":false,"internalType":"uint256"},{"name":"chosenTokenId","type":"uint256","indexed":false,"internalType":"uint256"},{"name":"minedGemCooldownDueDate","type":"uint256","indexed":false,"internalType":"uint256"},{"name":"initialGemCooldownDueDate","type":"uint256","indexed":false,"internalType":"uint256"},{"name":"miner","type":"address","indexed":false,"internalType":"address"}],"anonymous":false},{"type":"event","name":"GemMiningStarted","inputs":[{"name":"tokenId","type":"uint256","indexed":false,"internalType":"uint256"},{"name":"miner","type":"address","indexed":false,"internalType":"address"},{"name":"startMiningTime","type":"uint256","indexed":false,"internalType":"uint256"},{"name":"newminingTry","type":"uint256","indexed":false,"internalType":"uint256"}],"anonymous":false},{"type":"event","name":"GemsCoolDownPeriodModified","inputs":[{"name":"RareGemsCooldownPeriod","type":"uint32","indexed":false,"internalType":"uint32"},{"name":"UniqueGemsCooldownPeriod","type":"uint32","indexed":false,"internalType":"uint32"},{"name":"EpicGemsCooldownPeriod","type":"uint32","indexed":false,"internalType":"uint32"},{"name":"LegendaryGemsCooldownPeriod","type":"uint32","indexed":false,"internalType":"uint32"},{"name":"MythicGemsCooldownPeriod","type":"uint32","indexed":false,"internalType":"uint32"}],"anonymous":false},{"type":"event","name":"GemsMiningPeriodModified","inputs":[{"name":"RareGemsMiningPeriod","type":"uint32","indexed":false,"internalType":"uint32"},{"name":"UniqueGemsMiningPeriod","type":"uint32","indexed":false,"internalType":"uint32"},{"name":"EpicGemsMiningPeriod","type":"uint32","indexed":false,"internalType":"uint32"},{"name":"LegendaryGemsMiningPeriod","type":"uint32","indexed":false,"internalType":"uint32"},{"name":"MythicGemsMiningPeriod","type":"uint32","indexed":false,"internalType":"uint32"}],"anonymous":false},{"type":"event","name":"GemsMiningTryModified","inputs":[{"name":"RareGemsMiningTry","type":"uint8","indexed":false,"internalType":"uint8"},{"name":"UniqueGemsMiningTry","type":"uint8","indexed":false,"internalType":"uint8"},{"name":"EpicGemsMiningTry","type":"uint8","indexed":false,"internalType":"uint8"},{"name":"LegendaryGemsMiningTry","type":"uint8","indexed":false,"internalType":"uint8"},{"name":"MythicGemsMiningTry","type":"uint8","indexed":false,"internalType":"uint8"}],"anonymous":false},{"type":"event","name":"GemsValueModified","inputs":[{"name":"CommonGemsValue","type":"uint256","indexed":false,"internalType":"uint256"},{"name":"RareGemsValue","type":"uint256","indexed":false,"internalType":"uint256"},{"name":"UniqueGemsValue","type":"uint256","indexed":false,"internalType":"uint256"},{"name":"EpicGemsValue","type":"uint256","indexed":false,"internalType":"uint256"},{"name":"LegendaryValue","type":"uint256","indexed":false,"internalType":"uint256"},{"name":"MythicValue","type":"uint256","indexed":false,"internalType":"uint256"}],"anonymous":false},{"type":"event","name":"Initialized","inputs":[{"name":"version","type":"uint64","indexed":false,"internalType":"uint64"}],"anonymous":false},{"type":"event","name":"MetadataUpdate","inputs":[{"name":"_tokenId","type":"uint256","indexed":false,"internalType":"uint256"}],"anonymous":false},{"type":"event","name":"MiningCancelled","inputs":[{"name":"_tokenId","type":"uint256","indexed":false,"internalType":"uint256"},{"name":"owner","type":"address","indexed":false,"internalType":"address"},{"name":"timestamp","type":"uint256","indexed":false,"internalType":"uint256"}],"anonymous":false},{"type":"event","name":"NoGemAvailable","inputs":[{"name":"tokenId","type":"uint256","indexed":false,"internalType":"uint256"},{"name":"initialGemCooldownDueDate","type":"uint256","indexed":false,"internalType":"uint256"},{"name":"miner","type":"address","indexed":false,"internalType":"address"}],"anonymous":false},{"type":"event","name":"Paused","inputs":[{"name":"account","type":"address","indexed":false,"internalType":"address"}],"anonymous":false},{"type":"event","name":"RandomGemRequested","inputs":[{"name":"tokenId","type":"uint256","indexed":false,"internalType":"uint256"},{"name":"requestNumber","type":"uint256","indexed":false,"internalType":"uint256"}],"anonymous":false},{"type":"event","name":"Transfer","inputs":[{"name":"from","type":"address","indexed":true,"internalType":"address"},{"name":"to","type":"address","indexed":true,"internalType":"address"},{"name":"tokenId","type":"uint256","indexed":true,"internalType":"uint256"}],"anonymous":false},{"type":"event","name":"TransferGEM","inputs":[{"name":"from","type":"address","indexed":false,"internalType":"address"},{"name":"to","type":"address","indexed":false,"internalType":"address"},{"name":"tokenId","type":"uint256","indexed":false,"internalType":"uint256"},{"name":"gemCooldownDueDate","type":"uint256","indexed":false,"internalType":"uint256"}],"anonymous":false},{"type":"event","name":"Unpaused","inputs":[{"name":"account","type":"address","indexed":false,"internalType":"address"}],"anonymous":false},{"type":"error","name":"AddressZero","inputs":[]},{"type":"error","name":"AddressZero","inputs":[]},{"type":"error","name":"ColorNotExist","inputs":[]},{"type":"error","name":"ContractNotPaused","inputs":[]},{"type":"error","name":"ContractPaused","inputs":[]},{"type":"error","name":"CooldownPeriodNotElapsed","inputs":[]},{"type":"error","name":"ERC721IncorrectOwner","inputs":[{"name":"sender","type":"address","internalType":"address"},{"name":"tokenId","type":"uint256","internalType":"uint256"},{"name":"owner","type":"address","internalType":"address"}]},{"type":"error","name":"ERC721InsufficientApproval","inputs":[{"name":"operator","type":"address","internalType":"address"},{"name":"tokenId","type":"uint256","internalType":"uint256"}]},{"type":"error","name":"ERC721InvalidApprover","inputs":[{"name":"approver","type":"address","internalType":"address"}]},{"type":"error","name":"ERC721InvalidOperator","inputs":[{"name":"operator","type":"address","internalType":"address"}]},{"type":"error","name":"ERC721InvalidOwner","inputs":[{"name":"owner","type":"address","internalType":"address"}]},{"type":"error","name":"ERC721InvalidReceiver","inputs":[{"name":"receiver","type":"address","internalType":"address"}]},{"type":"error","name":"ERC721InvalidSender","inputs":[{"name":"sender","type":"address","internalType":"address"}]},{"type":"error","name":"ERC721NonexistentToken","inputs":[{"name":"tokenId","type":"uint256","internalType":"uint256"}]},{"type":"error","name":"FailedToSendEthBack","inputs":[]},{"type":"error","name":"GemAlreadyPicked","inputs":[]},{"type":"error","name":"GemIsLocked","inputs":[]},{"type":"error","name":"GemIsLocked","inputs":[]},{"type":"error","name":"GemIsNotLocked","inputs":[]},{"type":"error","name":"InvalidInitialization","inputs":[]},{"type":"error","name":"InvalidQuadrant","inputs":[{"name":"quadrant","type":"uint8","internalType":"uint8"},{"name":"value","type":"uint8","internalType":"uint8"}]},{"type":"error","name":"InvalidSumOfQuadrants","inputs":[]},{"type":"error","name":"MiningPeriodNotElapsed","inputs":[]},{"type":"error","name":"MismatchedArrayLengths","inputs":[]},{"type":"error","name":"NewGemInvalidQuadrant","inputs":[{"name":"quadrantIndex","type":"uint8","internalType":"uint8"},{"name":"expectedValue1","type":"uint8","internalType":"uint8"},{"name":"expectedValue2","type":"uint8","internalType":"uint8"}]},{"type":"error","name":"NoMiningTryLeft","inputs":[]},{"type":"error","name":"NotGemOwner","inputs":[]},{"type":"error","name":"NotGemOwner","inputs":[]},{"type":"error","name":"NotInitializing","inputs":[]},{"type":"error","name":"NotMining","inputs":[]},{"type":"error","name":"NotValidColor","inputs":[]},{"type":"error","name":"RequestNotMade","inputs":[]},{"type":"error","name":"SameSenderAndRecipient","inputs":[]},{"type":"error","name":"SumOfQuadrantsTooHigh","inputs":[{"name":"sum","type":"uint8","internalType":"uint8"},{"name":"rarity","type":"string","internalType":"string"}]},{"type":"error","name":"TransferFailed","inputs":[]},{"type":"error","name":"URIQueryForNonexistentToken","inputs":[{"name":"tokenId","type":"uint256","internalType":"uint256"}]},{"type":"error","name":"UnauthorizedCaller","inputs":[{"name":"caller","type":"address","internalType":"address"}]},{"type":"error","name":"WrongNumberOfGemToBeForged","inputs":[]},{"type":"error","name":"WrongRarity","inputs":[]},{"type":"error","name":"WrongRarity","inputs":[]}],"bytecode":{"object":"0x608060405234601957604051613fc261001f8239613fc290f35b600080fdfe610120604052600436101561001357600080fd5b60003560e01c806301ffc9a71461021357806306fdde031461020e578063081812fc14610209578063095ea7b31461020457806323b872dd146101ff57806324f74697146101fa57806333fcb648146101f5578063356edf74146101f057806342842e0e146101eb57806350d2a276146101e6578063550d01a3146101e15780635c975abb146101dc5780635f2d0023146101d757806361f7f6d7146101d25780636352211e146101cd57806363a8fd89146101c8578063676f79f1146101c357806370a08231146101be5780637866369b146101b957806395d89b41146101b457806397125c40146101af578063a168fa89146101aa578063a1770a7d146101a5578063a22cb465146101a0578063b88d4fde1461019b578063b911135f14610196578063c138907214610191578063c87b56dd1461018c578063cec21acb14610187578063e985e9c514610182578063ea094c391461017d5763f317d7dd03610218576110b0565b611005565b610fbb565b610f7d565b610f52565b610f37565b610f0c565b610ee0565b610e0b565b610db7565b610d6f565b610c70565b610c45565b610c2a565b610bff565b610be3565b610b7d565b610b57565b610b20565b610966565b6107d5565b6107ae565b61073a565b6106c8565b610699565b610647565b61045f565b61041d565b6103d6565b610376565b610303565b61025a565b600080fd5b6001600160e01b031981165b0361021857565b9050359061023d8261021d565b565b906020828203126102185761025391610230565b90565b9052565b346102185761028861027561027036600461023f565b6110ec565b6040515b91829182901515815260200190565b0390f35b600091031261021857565b60005b8381106102aa5750506000910152565b818101518382015260200161029a565b6102db6102e46020936102ee936102cf815190565b80835293849260200190565b95869101610297565b601f01601f191690565b0190565b6020808252610253929101906102ba565b346102185761031336600461028c565b61028861031e611121565b604051918291826102f2565b80610229565b9050359061023d8261032a565b906020828203126102185761025391610330565b6001600160a01b031690565b61025690610351565b60208101929161023d919061035d565b346102185761028861039161038c36600461033d565b611134565b60405191829182610366565b61022981610351565b9050359061023d8261039d565b9190604083820312610218576102539060206103cf82866103a6565b9401610330565b34610218576103ef6103e93660046103b3565b90611147565b604051005b90916060828403126102185761025361040d84846103a6565b9360406103cf82602087016103a6565b34610218576103ef6104303660046103f4565b91611196565b610253916008021c5b63ffffffff1690565b906102539154610436565b61025360106011610448565b346102185761046f36600461028c565b61028861047a610453565b6040519182918263ffffffff909116815260200190565b634e487b7160e01b600052604160045260246000fd5b90601f01601f191681019081106001600160401b038211176104c857604052565b610491565b9061023d6104da60405190565b92836104a7565b6001600160401b0381116104c85760208091020190565b9092919261050d610508826104e1565b6104cd565b938185526020808601920283019281841161021857915b8383106105315750505050565b6020809161053f8486610330565b815201920191610524565b9080601f8301121561021857816020610253933591016104f8565b6006111561021857565b9050359061023d82610565565b6001600160401b0381116104c85760200290565b60ff8116610229565b9050359061023d82610590565b909291926105b66105088261057c565b93602085920283019281841161021857915b8383106105d55750505050565b602080916105e38486610599565b8152019201916105c8565b9080601f83011215610218576002610253926105a6565b90916080828403126102185781356001600160401b038111610218576106308461025392850161054a565b936040610640826020870161056f565b94016105ee565b346102185761028861066361065d366004610605565b91611759565b6040519182918290815260200190565b610253916008021c5b60ff1690565b906102539154610673565b61025360006006610682565b34610218576106a936600461028c565b6102886106b461068d565b6040519182918260ff909116815260200190565b34610218576103ef6106db3660046103f4565b91611766565b6001600160e01b03191690565b906106f8906106e1565b600052602052604060002090565b610253916008021c6001600160a01b031690565b906102539154610706565b60006107356102539260036106ee565b61071a565b346102185761028861039161075036600461023f565b610725565b9060208282031261021857610253916103a6565b61025390610351906001600160a01b031682565b61025390610769565b6102539061077d565b906106f890610786565b60006107a961025392600261078f565b610682565b34610218576102886102756107c4366004610755565b610799565b61025360006010610682565b34610218576107e536600461028c565b6102886102756107c9565b91906040838203126102185761025390602061080c8286610599565b9401610599565b61067c6102536102539260ff1690565b906106f890610813565b634e487b7160e01b600052600060045260246000fd5b634e487b7160e01b600052602260045260246000fd5b9060016002830492168015610879575b602083101461087457565b610843565b91607f1691610869565b805460009392916108a061089683610859565b8085529360200190565b91600181169081156108f257506001146108b957505050565b6108cc9192939450600052602060002090565b916000925b8184106108de5750500190565b8054848401526020909301926001016108d1565b92949550505060ff1916825215156020020190565b9061025391610883565b9061023d61092b9261092260405190565b93848092610907565b03836104a7565b906000106109435761025390610911565b61082d565b6109616102539261095c6000936005610823565b610823565b610932565b346102185761028861031e61097c3660046107f0565b90610948565b634e487b7160e01b600052603260045260246000fd5b80548210156109bb576109b2600891600052602060002090565b91020190600090565b610982565b6102539081565b61025390546109c0565b6102539061067c565b61025390546109d1565b6102539060081c61067c565b61025390546109e4565b6102539060101c61067c565b61025390546109fa565b600490610a1b825490565b81101561021857610a2b91610998565b5090610a36826109c7565b91610a43600182016109c7565b91610a50600283016109c7565b91610a5d600382016109c7565b91610a6a600483016109da565b91610a77600482016109f0565b916102536007610a8960048501610a06565b9301610911565b634e487b7160e01b600052602160045260246000fd5b60061115610ab057565b610a90565b9061023d82610aa6565b61025390610ab5565b61025690610abf565b9081526101008101969095909490939092909160208701526040860152606085015260808401610b0091610ac8565b60ff1660a0830152151560c08201528082039060e00152610253916102ba565b3461021857610288610b3b610b3636600461033d565b610a10565b94610b4e98969894919493929360405190565b98899889610ad1565b3461021857610288610391610b6d36600461033d565b61177a565b610253600080610682565b3461021857610b8d36600461028c565b610288610275610b72565b6102536102536102539290565b906106f890610b98565b610253916008021c81565b906102539154610baf565b610bde61025392610bd9600093600c61078f565b610ba5565b610bba565b3461021857610288610663610bf93660046103b3565b90610bc5565b3461021857610288610663610c15366004610755565b611783565b60006107a961025392600d610ba5565b3461021857610288610275610c4036600461033d565b610c1a565b3461021857610c5536600461028c565b61028861031e6117e5565b6000610735610253926008610ba5565b3461021857610288610391610c8636600461033d565b610c60565b61025390610351565b6102539054610c8b565b6102539060a01c61067c565b6102539054610c9e565b6102539060a81c61067c565b6102539054610cb4565b610cd590600f610ba5565b90610cdf826109c7565b91610cec600182016109c7565b91610cf9600283016109c7565b91610d0660038201610c94565b916102536003610d17818501610caa565b9301610cc0565b9194610d5e610d6792989795610d5460a096610d4d61023d9a610d4660c08a019e60008b0152565b6020890152565b6040870152565b606085019061035d565b15156080830152565b019015159052565b3461021857610288610d8a610d8536600461033d565b610cca565b92610d9a96949692919260405190565b96879687610d1e565b6107a961025392610bd9600093600b61078f565b3461021857610288610275610dcd3660046103b3565b90610da3565b801515610229565b9050359061023d82610dd3565b919060408382031261021857610253906020610e0482866103a6565b9401610ddb565b34610218576103ef610e1e366004610de8565b906117f2565b6001600160401b0381116104c857602090601f01601f19160190565b90826000939282370152565b90929192610e5c61050882610e24565b93818552818301116102185761023d916020850190610e40565b9080601f830112156102185781602061025393359101610e4c565b9060808282031261021857610ea681836103a6565b92610eb482602085016103a6565b92610ec28360408301610330565b9260608201356001600160401b038111610218576102539201610e76565b34610218576103ef610ef3366004610e91565b929190916117fd565b6000610735610253926001610ba5565b3461021857610288610391610f2236600461033d565b610efc565b6000610bde61025392600a61078f565b3461021857610288610663610f4d366004610755565b610f27565b346102185761028861031e610f6836600461033d565b611875565b6000610bde61025392600961078f565b3461021857610288610663610f93366004610755565b610f6d565b919060408382031261021857610253906020610fb482866103a6565b94016103a6565b3461021857610288610275610fd1366004610f98565b906118e6565b90602082820312610218576102539161056f565b906106f890610abf565b6000610bde61025392600e610feb565b346102185761028861066361101b366004610fd7565b610ff5565b9190604083820312610218576102539060206103cf8286610330565b80548210156109bb576109b2600191600052602060002090565b90919060025b8310156109bb57602061106e60019290565b8185040193060290565b600790611083825490565b811015610218576110939161103c565b50600282101561021857610253916110aa91611056565b90610682565b34610218576102886106b46110c6366004611020565b90611078565b6106e16110d96102539290565b60e01b90565b61025363490649066110cc565b6110f76106e16110df565b6001600160e01b031982161490811561110e575090565b6102539150611914565b61025390610911565b610253600061112e61195f565b01611118565b6102539061114181611983565b506119d8565b61023d9133916119fd565b6103516102536102539290565b61025390611152565b60409061118f61023d94969593966111886060840198600085019061035d565b6020830152565b019061035d565b906111a1600061115f565b6111aa81610351565b6111b383610351565b1461120857506111c590833391611a5b565b6111ce82610351565b6111d782610351565b036111e157505050565b611204906111ee60405190565b6364283d7b60e01b815293849360048501611168565b0390fd5b6112049061121560405190565b633250574960e11b815291829160048301610366565b1561123257565b60405162461bcd60e51b815260206004820152601060248201526f14185d5cd8589b194e881c185d5cd95960821b6044820152606490fd5b9061025393929161128a61128561128160106109da565b1590565b61122b565b61155b565b6102539060181c61067c565b610253905461128f565b6102539060201c61067c565b61025390546112a5565b6102539060281c61067c565b61025390546112bb565b6102539060d01c61043f565b61025390546112d1565b6102539061043f565b61025390546112e7565b6102539060201c61043f565b61025390546112fa565b6102539060401c61043f565b6102539054611310565b6102539060601c61043f565b6102539054611326565b6102536101e06104cd565b6105086102539161057c565b369037565b9061023d61136e61136884611347565b9361057c565b83611353565b6102536004611358565b9061139e61139761138d845190565b8084529260200190565b9260200190565b9060005b8181106113af5750505090565b9091926113cc6113c56001928651815260200190565b9460200190565b9291016113a2565b6113e46113e060049390565b9190565b6000915b8383106113f55750505050565b61140b611397600192845160ff16815260200190565b920191906113e8565b6114206113e060029390565b6000915b8383106114315750505050565b611447611397600192845160ff16815260200190565b92019190611424565b929796946114aa906114a06101409661149661148e61023d9b966114b5986114816101608c019260008d019061035d565b8a820360208c015261137e565b9c6040890152565b6060870190610ac8565b60808501906113d4565b610100830190611414565b0152565b906114c661050883610e24565b918252565b61025360006114b9565b6102536114cb565b9796949561153861023d9761152e610160976115276115539860608f61151e6115409a9b61151461018084019d6000850190610ac8565b6020830190611414565b019060ff169052565b60808d0152565b60a08b01906113d4565b610120890152565b8681036101408801526000815260200190565b94019061035d565b50919061156860136109c7565b61157260146109c7565b9061157d60156109c7565b61158760166109c7565b61159160176109c7565b61159b60106109f0565b6115a56010610a06565b6115af601061129b565b6115b960106112b1565b906115c460106112c7565b926115cf60106112dd565b946115da60116112f0565b966115e56011611306565b986115f0601161131c565b9a6115fb6011611332565b9c61160461133c565b9e8f9161160f908352565b60208201526040015260608d015260808c015260ff1660a08b015260ff1660c08a015260ff1660e089015260ff1661010088015260ff1661012087015263ffffffff1661014086015263ffffffff1661016085015263ffffffff1661018084015263ffffffff166101a083015263ffffffff166101c0820152611690611374565b50826004928533600960086116a497612289565b939591949683888288868b6116b860405190565b9586956116c6953388611450565b037fb008433c5118253ef92bed2a1bd3b95470d4c373e1c4b9586459e65204efa8c491a16116f49033612ec2565b6116fe8733612f6a565b6117066114d5565b6117109088612f7c565b61171987610b98565b9561172360405190565b958695339461173296886114dd565b037f0e027f6f5631612aa005651eea501b4da1f9d6380d2c2d3cfa4b6b1fddd5b23e91a290565b610253929190600061126a565b909161023d926117746114d5565b926117fd565b61025390611983565b61178b61195f565b611795600061115f565b61179e81610351565b6117a784610351565b146117c257506102539160036117bd920161078f565b6109c7565b611204906117cf60405190565b6322718ad960e21b815291829160048301610366565b610253600161112e61195f565b61023d919033612fcd565b9061023d93929161180f838383611196565b6130ea565b6102ee61182c92602092611826815190565b94859290565b93849101610297565b611843906102539392611814565b90611814565b611869929161023d9161185b60405190565b948592602084019283611835565b908103825203836104a7565b61189b6118968260006118866131e6565b61188f83611983565b5001610ba5565b611118565b6118a361320a565b80516118b26113e06000610b98565b146118e05781516118c66113e06000610b98565b116118d657505061025390613212565b6102539250611849565b50905090565b6102539161190a61190f926118f9600090565b50600561190461195f565b0161078f565b61078f565b6109da565b6380ac58cd60e01b6001600160e01b0319821614908115611944575b811561193a575090565b6102539150613255565b6001600160e01b03198116635b5e139f60e01b149150611930565b7f80bb2b638cc20bc4d0a60d66940f3ab4a00c1d7b313497ca82fb0b4ab007930090565b61198c81613269565b9061199f61199a600061115f565b610351565b6119a883610351565b146119b1575090565b611204906119be60405190565b637e27328960e01b81529182916004830190815260200190565b6119f8610253916119e7600090565b5060046119f261195f565b01610ba5565b610c94565b9160019161023d93613283565b90600019905b9181191691161790565b90611a2a610253611a3192610b98565b8254611a0a565b9055565b906001600160a01b0390611a10565b90611a54610253611a3192610786565b8254611a35565b90611adb82611ad6836002611a6e61195f565b611ac2611a7a84613269565b9960008b86611a888361115f565b93611a9285610351565b611a9b82610351565b03611b98575b505050611aad82610351565b611ab68d610351565b03611b5a575b50610351565b611acb86610351565b03611b285701610ba5565b611a44565b611af6611af0611aea85610786565b93610786565b91610b98565b917fddf252ad1be2c89b69c2b068fc378daa952ba7f163c4a11628f55a4df523b3ef611b2160405190565b600090a490565b611b55611b356001610b98565b611b4f611b45886003860161078f565b916102ee836109c7565b90611a1a565b6119f2565b611b6690828781613283565b611b928b611b4f611b84611b7a6001610b98565b926003880161078f565b91611b8e836109c7565b0390565b38611abc565b611ba1926133d9565b8b8638611aa1565b60010190565b90611bb8825190565b8110156109bb576020809102010190565b909190600461105c565b9060045b8110156109bb576020020190565b634e487b7160e01b600052601160045260246000fd5b611c0a9060ff165b9160ff1690565b019060ff8211611c1657565b611be5565b906002611bd7565b60ff909116815260408101929161023d9160209061151e565b61067c6102536102539290565b634e487b7160e01b600052601260045260246000fd5b611c6b9060ff16611c03565b908115611c76570690565b611c49565b6001610253910160ff1690565b6102536102536102539260ff1690565b611ca86102536102539260ff1690565b610ab5565b6102536102536102539263ffffffff1690565b9190611ccb565b9290565b8201809211611c1657565b6102536101406104cd565b9061025690610ab5565b6102539051610ab5565b9060ff90611a10565b90611d0e610253611a3192610abf565b8254611cf5565b9061ff009060081b611a10565b90611d32610253611a3192610813565b8254611d15565b9062ff00009060101b611a10565b90611d57610253611a3192151590565b8254611d39565b9160001960089290920291821b911b611a10565b921b90565b9190611d88610253611a3193610b98565b908354611d5e565b61023d91600091611d77565b818110611da7575050565b80611db56000600193611d90565b01611d9c565b90611dce90600019906020036008021c90565b8154169055565b919091828210611de457505050565b61023d926020601f909101049060016020611e07601f86018290049390565b9390565b92830194060260008111611e1e575b500190611d9c565b611e2b9060018503611dbb565b38611e16565b90600160401b81116104c85761023d9160045b90611dd5565b91906008611a10910291611d7260ff841b90565b90600490611cc7611e73916102538486611e31565b602082049160005b838110611ee1575060208302900360008111611e98575b50505050565b9260009360005b818110611eb457505050015538808080611e92565b9091946020611ed7600192611ecd6102538a5160ff1690565b9085850290611e4a565b9601929101611e9f565b6000805b60208110611efa575083820155600101611e7b565b95906020611f1c600192611f12610253865160ff1690565b908a850290611e4a565b92019601611ee5565b9061023d91611e5e565b90600160401b81116104c85761023d916002611e44565b90600290611cc7611f5b916102538486611f2f565b602082049160005b838110611fbe575060208302900360008111611f7f5750505050565b9260009360005b818110611f9b57505050015538808080611e92565b9091946020611fb4600192611ecd6102538a5160ff1690565b9601929101611f86565b6000805b60208110611fd7575083820155600101611f63565b95906020611fef600192611f12610253865160ff1690565b92019601611fc2565b9061023d91611f46565b9190601f811161201157505050565b61202361023d93600052602060002090565b906020601f840181900483019310612046575b6020601f909101045b0190611d9c565b9091508190612036565b9060001960089091021c191690565b8161206991612050565b906002021790565b9061207a815190565b906001600160401b0382116104c85761209d826120978554610859565b85612002565b602090601f83116001146120cb57611a319291600091836120c0575b505061205f565b0151905038806120b9565b601f198316916120e085600052602060002090565b9260005b81811061211f57509160029391856001969410612105575b50505002019055565b612115910151601f841690612050565b90553880806120fc565b919360206001819287870151815501950192016120e4565b9061023d91612071565b600761221a61012061023d9461216161215b600083015190565b86611a1a565b61217861216f602083015190565b60018701611a1a565b61218f612186604083015190565b60028701611a1a565b6121a661219d606083015190565b60038701611a1a565b6121e6600486016121c26121bc60808501611ceb565b82611cfe565b6121d96121d360a085015160ff1690565b82611d22565b60c0830151151590611d47565b6121fd6121f460e083015190565b60058701611f25565b61221561220c61010083015190565b60068701611ff8565b015190565b9101612137565b91906109435761023d91612141565b80549190600160401b8310156104c8578261225391600161023d95018155610998565b90612221565b91908203918211611c1657565b61043f6102536102539290565b1561021857565b6000198114611c165760010190565b969295919390949660a0526101005260e0526122a3600090565b906122ac611374565b926122ba61199a600061115f565b6122c387610351565b14612c35576122d26000610ab5565b6122db88610ab5565b03612ac55761010051516122f26113e06002610b98565b03612ab35781519061231a61014061230e60a086015160ff1690565b94015163ffffffff1690565b919098979695949392985b61232d611374565b99600060805261233d6000610b98565b60c0525b61234f610253610100515190565b60c05110156126765761237a6119f861237461237060c05161010051611baf565b5190565b89610ba5565b61238c6123868a610351565b91610351565b03612664576123ae6123a661237060c05161010051611baf565b60a051613434565b612652576123db60046123d46123cc61237060c05161010051611baf565b60a051610998565b50016109da565b6123ed6123e78b610ab5565b91610ab5565b03612640576124586124428c61243d6124366124256110aa6000600561241e6123cc61237060c05161010051611baf565b5001611bc9565b926124306000610b98565b90611bd3565b5160ff1690565b611bfb565b6124508d6124306000610b98565b9060ff169052565b61249d61248f8c61243d6124366124846110aa6001600561241e6123cc61237060c05161010051611baf565b926124306001610b98565b6124508d6124306001610b98565b6124ed60056124b76123cc61237060c05161010051611baf565b50016124508d6124306124e76124d26110aa60028097611bc9565b61243d6124366124e188610b98565b86611bd3565b93610b98565b61252260056125076123cc61237060c05161010051611baf565b50016124508d6124306124e76124d26110aa60038097611bc9565b61252c6000610b98565b61253a610253610100515190565b811015612619576080516125549190156125595760010190565b61252c565b6125b061256e61237060c05161010051611baf565b61257e6123708461010051611baf565b61259661243661258e6000610b98565b60e051611c1b565b906125a761243661258e6001610b98565b9260a0516134c3565b8060805215611ba9577fca7a2fe4405fb5bae2732ff63f6d1976dec8ed09ba2fae7003a209e26154b08f6125ea61243661258e6000610b98565b6125fa61243661258e6001610b98565b9061261061260760405190565b92839283611c23565b0390a160010190565b5090919293949596979861262f60c05160010190565b60c052989796959493929190612341565b60405163036cae1f60e31b8152600490fd5b604051635399ebf560e01b8152600490fd5b6040516302b327b560e41b8152600490fd5b92959093989194999661268b60805115151590565b612aa15760029861243661271a8b61245061271461270e8e6126c96126af86611c3c565b9788926126e16126ce856126c96124366124e16000610b98565b611c5f565b6124506126db6000610b98565b84611bd3565b6127056126f8856126c96124366124e16001610b98565b6124506126db6001610b98565b61243088610b98565b92610b98565b8d611bd3565b60039b61273b8d6124508d6124306124e7876126c96124366124e188610b98565b6127456000610ab5565b61274e84610ab5565b03612a0d5750995b6127606000611c3c565b8d61276b6004611c3c565b60ff831610156127b057906127a66127ab926124508f8f9061279661243661279c9361243089611c88565b90611bfb565b9161243085611c88565b611c7b565b612760565b6128419495989b50612830915061283b936128359361293e999c9f9e61292d999c9f612826946127ec6124366127e66000610b98565b83611bd3565b612805611c0361067c6127ff6001611c3c565b87611bfb565b14806129e3575b806129ba575b80612991575b612946575b50505050610abf565b6127966001611c3c565b611c98565b9a611cad565b42611cc0565b966128d061284d611cd6565b61287f61285a6000610b98565b612862818452565b61286d8d6020850152565b6128788c6040850152565b6060830152565b61288c8c60808301611ce1565b60ff891660a0820152600060c08201526128a78d60e0830152565b6128b560e051610100830152565b6128c86128c06114d5565b610120830152565b60a051612230565b61190a82611ad66128f46128e460a0515490565b6128ee6001610b98565b90612259565b809861290f8260006129088260a051610998565b5001611a1a565b610bd961292661025361292185612266565b611cad565b8314612273565b611b4f612939826109c7565b61227a565b959493929190565b61243061245092612983856124506124e1612988996129728461245061296c6000610b98565b8b611bd3565b6129838461245061296c6001610b98565b610b98565b8f38808261281d565b506129a16124366127e684610b98565b6129b4611c0361067c6127ff6001611c3c565b14612818565b506129ca6124366127e686610b98565b6129dd611c0361067c6127ff6001611c3c565b14612812565b506129f46124366127e66001610b98565b612a07611c0361067c6127ff6001611c3c565b1461280c565b9050612a196001610ab5565b612a2283610ab5565b03612a385750612a318b611c3c565b995b612756565b612a418b610ab5565b612a4a83610ab5565b03612a5a5750612a316004611c3c565b612a638c610ab5565b612a6c83610ab5565b03612a7c5750612a316005611c3c565b99612a876004610ab5565b612a9083610ab5565b03612a33579950612a316006611c3c565b60405163d80d319f60e01b8152600490fd5b604051638c0673f560e01b8152600490fd5b612acf6001610ab5565b612ad888610ab5565b03612b1e576101005151612aef6113e06003610b98565b03612ab357602082015190612b0e61016061230e60c086015160ff1690565b925b989796959493929190612325565b612b286002610ab5565b612b3188610ab5565b03612b6d576101005151612b486113e06004610b98565b03612ab357604082015190612b6761018061230e60e086015160ff1690565b92612b10565b612b776003610ab5565b612b8088610ab5565b03612bb7576101005151612b976113e06005610b98565b03612ab357606082015190612b676101a061230e61010086015160ff1690565b612bc16004610ab5565b612bca88610ab5565b03612c01576101005151612be16113e06006610b98565b03612ab357608082015190612b676101c061230e61012086015160ff1690565b60405162461bcd60e51b815260206004820152600c60248201526b77726f6e672072617269747960a01b6044820152606490fd5b604051639fabe1c160e01b8152600490fd5b61023d9060015b810190611d9c565b906000036109435761023d90612c47565b61023d906001612c4e565b906000036109435761023d90612c67565b90600091612ca1612c9982600052602060002090565b92835461205f565b905555565b9192906020821015612cfe57601f8411600114612cc857611a3192935061205f565b5090612cf961023d936001612cf0612ce585600052602060002090565b92601f602091010490565b82019101611d9c565b612c83565b50612d378293612d15600194600052602060002090565b61203f6020601f860104820192601f861680612d3f575b50601f602091010490565b600202179055565b612d4b90888603611dbb565b38612d2c565b929091600160401b82116104c85760201115612d98576020811015612d7957611a319161205f565b60019160ff1916612d8f84600052602060002090565b55600202019055565b60019150600202019055565b908154612db081610859565b90818311612dd8575b818310612dc65750505050565b612dcf93612ca6565b38808080611e92565b612de483838387612d51565b612db9565b600061023d91612da4565b906000036109435761023d90612de9565b6000600761023d92612e1983808301611d90565b612e268360018301611d90565b612e338360028301611d90565b612e408360038301611d90565b826004820155612e538360058301612c56565b612e608360068301612c72565b01612df4565b906000036109435761023d90612e05565b8015611c16576000190190565b916001600160a01b0360089290920291821b911b611a10565b9190612eae610253611a3193610786565b908354612e84565b61023d91600091612e9d565b919091600090612ed26000610b98565b612edd610253865190565b811015612f6357612f5e90612f09612f036004612efd612370858b611baf565b90610998565b90612e66565b612f28612f1784600961078f565b611b4f612f23826109c7565b612e77565b612f4984612f446008612f3e612370868c611baf565b90610ba5565b612eb6565b611ba9612f596123708389611baf565b613bf7565b612ed2565b5050509050565b61023d91612f766114d5565b91613c20565b612fb8906106637ff8e1a15aba9398e019f0b49df1a4fde98ee17ae345cb5f6b5e2c27f5033e8ce793612fb38360006119f26131e6565b612137565b0390a1565b90611d0e610253611a3192151590565b612fd561195f565b612fe261199a600061115f565b612feb84610351565b146130495761303a611aea83613035876130308861190a7f17307eab39ab6107e8899845ad3d59bd9653f200f220920489ca2b5937696c319960056130449a0161078f565b612fbd565b610786565b9361027960405190565b0390a3565b6112048361305660405190565b630b61174360e31b815291829160048301610366565b9050519061023d8261021d565b90602082820312610218576102539161306c565b90926130be906130b761025396946130ad6080860197600087019061035d565b602085019061035d565b6040830152565b60608184039101526102ba565b3d156130e5576130da3d6114b9565b903d6000602084013e565b606090565b909291833b6130fc6113e06000610b98565b116131075750505050565b60209161311661303586610786565b9060003361314061312660405190565b97889687958694630a85bd0160e11b86526004860161308d565b03925af1600091816131b5575b5061318c575061315b6130cb565b90613164825190565b6131716113e06000610b98565b03613183576112049061121560405190565b50805190602001fd5b6131a6630a85bd0160e11b5b916001600160e01b03191690565b03611208575038808080611e92565b6131d891925060203d6020116131df575b6131d081836104a7565b810190613079565b903861314d565b503d6131c6565b7f0542a41881ee128a365a727b282c86fa859579490b9bb45aab8503648c8e790090565b6102536114d5565b61321b81611983565b5061322461320a565b80516132336113e06000610b98565b111561324b5761324561025392613c67565b90611849565b50506102536114d5565b6132656301ffc9a760e01b613198565b1490565b6119f861025391613278600090565b5060026119f261195f565b92909161328e61195f565b918081156133a0575b6132af575b505061023d92916004611ad69201610ba5565b6132b884611983565b916132c661199a600061115f565b6132cf82610351565b141580613386575b80613373575b6133505750611ad69261023d959492600492613300575b5092508193945061329c565b61330990610786565b61331286610786565b61331b85610b98565b917f8c5be1e5ebec7d5bd14f71427d1e84f3dd0314c0f7b2291e5b200ac8c7c3b92561334660405190565b600090a4386132f4565b6112049061335d60405190565b63a9fbf51f60e01b815291829160048301610366565b5061338161128182856118e6565b6132dd565b5061339081610351565b61339984610351565b14156132d7565b506133ae61199a600061115f565b6133b783610351565b1415613297565b91602061023d9294936114b56040820196600083019061035d565b6133e7611281848484613cfa565b6133f057505050565b61340061238661199a600061115f565b0361341257611204826119be60405190565b61120461341e60405190565b63177e802f60e01b8152928392600484016133be565b61344c61025392600492613446600090565b50610998565b5001610a06565b60208061346b611e03600195613467600290565b5090565b54926134818161347a866109d1565b60ff169052565b01611e928161347a86600001956109e4565b906102ee81604093613453565b9061023d61092b926134b160405190565b93848092613493565b610253906134a0565b9192949390946134d1600090565b5060009384966134de8290565b8114613bed5761243661354f612436613549613543600661351d61352c9861353d6124368f8f613532916135248861355a9f61351d9061243695610998565b50016134ba565b9e8f91610b98565b90611c1b565b9b61352c6001610b98565b9c610998565b99610b98565b89611c1b565b9661352c6001610b98565b9060ff851660ff8216148080613bde575b80613bcf575b613b9d578080613b8e575b613896578015908180613b7f575b80613b61575b8015613b25575b613adb57819081613aca575b81613aa2575b8115613a5d575b50613969578080613959575b80613916575b6139035780806138f3575b806138a9575b6137dc575b806137cc575b806137bc575b806137ac575b8061379c575b8061378c575b61360257505050505050565b90919293949596506136148160ff1690565b60ff84161495868061377b575b871561375c575b508615613736575b8615613710575b86156136ea575b86156136c2575b508515613697575b50841561365c575b5050505090565b929350909161366d9060ff16611c03565b149182613680575b505038808080613655565b90915061368f9060ff16611c03565b143880613675565b90945060ff851660ff83161490816136b2575b50933861364d565b60ff16905060ff831614386136aa565b90955060ff1660ff831614806136da575b9438613645565b5060ff841660ff84165b146136d3565b955060ff861660ff84161480613701575b9561363e565b5060ff811660ff8516146136fb565b955060ff851660ff84161480613727575b95613637565b5060ff821660ff851614613721565b955060ff851660ff8416148061374d575b95613630565b5060ff861660ff851614613747565b9096508061376c575b9538613628565b5060ff821660ff851614613765565b965060ff811660ff86161496613621565b5060ff821660ff861614156135f6565b5060ff821660ff821614156135f0565b5060ff861660ff861614156135ea565b5060ff861660ff821614156135e4565b5060ff821660ff871614156135de565b6137ef8794959697999293989960ff1690565b60ff84160361383157505050506138068360ff1690565b60ff821614938461381f575b841561365c575050505090565b935060ff841660ff83165b1493613812565b61383d88949860ff1690565b60ff84160361385457505050506138068360ff1690565b61386388939792949860ff1690565b60ff83160361387a57505050506138068360ff1690565b61388c88939792969594999860ff1690565b60ff8716036135d8575b5094959650509091506138068360ff1690565b5060ff871660ff83161480156138e4575b80156138d5575b806135d3575060ff831660ff8716146135d3565b5060ff871660ff8716146138c1565b5060ff831660ff8316146138ba565b5060ff831660ff881614156135cd565b5094505090919394506138068360ff1690565b5060ff871660ff8316148061394a575b806135c2575060ff831660ff83161480156135c2575060ff871660ff8716146135c2565b5060ff831660ff871614613926565b5060ff831660ff881614156135bc565b96975095919391156139ff575060ff851660ff84161494856139ee575b85156139c8575b85156139a15750841561365c575050505090565b90945060ff1660ff821614806139b9575b933861364d565b5060ff831660ff8316146139b2565b945060ff811660ff841614806139df575b9461398d565b5060ff841660ff8316146139d9565b945060ff841660ff83161494613986565b9394905060ff811660ff841614948580613a4c575b8615613a2f575085156136975750841561365c575050505090565b90955080613a3e579438613645565b5060ff841660ff83166136e4565b955060ff811660ff84161495613a14565b905080613a92575b80613a71575b386135b0565b5060ff871660ff831614158015613a6b575060ff831660ff83161415613a6b565b5060ff831660ff88161415613a65565b905060ff881660ff8416141580613aba575b906135a9565b5060ff881660ff88161415613ab4565b905060ff841660ff891614906135a3565b50969750959394919315613b1757505060ff84165b60ff8316149384613b0857841561365c575050505090565b935060ff831660ff821661382a565b93509350613af08460ff1690565b508080613b51575b8015613597575060ff831660ff89161480613597575060ff831660ff851614613597565b5060ff841660ff89161415613b2d565b5060ff881660ff84161480613590575060ff881660ff881614613590565b5060ff841660ff89161461358a565b5060ff831660ff88161461357c565b509050611c039193959650613bb492945060ff1690565b149182613bc057505090565b9091506132659060ff16611c03565b5060ff871660ff831614613571565b5060ff831660ff88161461356b565b5093955050505050565b613c01600061115f565b613c18612386613c12838581611a5b565b92610351565b146119b15750565b9061023d9291613c308282613d7e565b61180f600061115f565b9061023d613c50613c4a846114b9565b93610e24565b601f190160208401611353565b8115611c76570490565b613c7081613df0565b90613c816001926102ee6001610b98565b9180613c8c84613c3a565b936020018401905b613c9f575b50505090565b8115613cf557613cd99060001901926f181899199a1a9b1b9c1cb0b131b232b360811b600a82061a8453613cd3600a610b98565b90613c5d565b9081613ce86113e06000610b98565b14613cf557909181613c94565b613c99565b90613d0861199a600061115f565b613d1182610351565b14159283613d1f5750505090565b90919250613d2c82610351565b613d3584610351565b14928315613d6a575b508215613d50575b5050388080613c99565b613d62919250613c12612386916119d8565b143880613d46565b613d7791935082906118e6565b9138613d3e565b90613d89600061115f565b91613d9383610351565b613d9c82610351565b14613de357613dac918391611a5b565b613db861238683610351565b03613dc05750565b61120490613dcd60405190565b6339e3563760e11b815291829160048301610366565b6112048361121560405190565b613dfa6000610b98565b9072184f03e93ff9f4daa797ed6e38ed64bf6a1f0160401b613e1b81610b98565b821015613f6a575b506904ee2d6d415b85acef8160201b613e3b81610b98565b821015613f48575b50662386f26fc10000613e5581610b98565b821015613f26575b506305f5e100613e6c81610b98565b821015613f04575b50612710613e8181610b98565b821015613ee2575b50613e946064610b98565b811015613ec0575b613ea96113e0600a610b98565b1015613eb25790565b610253906102ee6001610b98565b613ed1613edc91613cd36064610b98565b916102ee6002610b98565b90613e9c565b613efd91613cd3613ef292610b98565b916102ee6004610b98565b9038613e89565b613f1f91613cd3613f1492610b98565b916102ee6008610b98565b9038613e74565b613f4191613cd3613f3692610b98565b916102ee6010610b98565b9038613e5d565b613f6391613cd3613f5892610b98565b916102ee6020610b98565b9038613e43565b613f8591613cd3613f7a92610b98565b916102ee6040610b98565b9038613e2356fea264697066735822122070ce0e710d2cf6357e6e99d9abbc3f4576301adf0d734fafe4ee6d046b44fb0864736f6c63430008190033","linkReferences":{}},"methodIdentifiers":{"GEMIndexToOwner(uint256)":"97125c40","Gems(uint256)":"61f7f6d7","aliveImplementation(address)":"550d01a3","approve(address,uint256)":"095ea7b3","balanceOf(address)":"70a08231","callbackGasLimit()":"24f74697","colorName(uint8,uint8)":"5f2d0023","colors(uint256,uint256)":"f317d7dd","colorsCount()":"356edf74","forgeTokens(uint256[],uint8,uint8[2])":"33fcb648","getApproved(uint256)":"081812fc","isApprovedForAll(address,address)":"e985e9c5","name()":"06fdde03","numberMiningGemsByRarity(uint8)":"ea094c39","ownerOf(uint256)":"6352211e","ownershipTokenCount(address)":"cec21acb","pauseProxy()":"63a8fd89","paused()":"5c975abb","proxyImplementation(uint256)":"b911135f","s_requests(uint256)":"a168fa89","safeTransferFrom(address,address,uint256)":"42842e0e","safeTransferFrom(address,address,uint256,bytes)":"b88d4fde","selectorImplementation(bytes4)":"50d2a276","setApprovalForAll(address,bool)":"a22cb465","supportsInterface(bytes4)":"01ffc9a7","symbol()":"95d89b41","tokenMiningByUser(address)":"c1389072","tokenReadyToMine(uint256)":"7866369b","tokenURI(uint256)":"c87b56dd","transferFrom(address,address,uint256)":"23b872dd","userMiningStartTime(address,uint256)":"676f79f1","userMiningToken(address,uint256)":"a1770a7d"},"id":56}