{
  "_format": "hh-sol-artifact-1",
  "contractName": "RandomPack",
  "sourceName": "src/L2/RandomPack.sol",
  "abi": [
    {
      "inputs": [],
      "name": "AccessControlBadConfirmation",
      "type": "error"
    },
    {
      "inputs": [
        {
          "internalType": "address",
          "name": "account",
          "type": "address"
        },
        {
          "internalType": "bytes32",
          "name": "neededRole",
          "type": "bytes32"
        }
      ],
      "name": "AccessControlUnauthorizedAccount",
      "type": "error"
    },
    {
      "inputs": [
        {
          "internalType": "address",
          "name": "target",
          "type": "address"
        }
      ],
      "name": "AddressEmptyCode",
      "type": "error"
    },
    {
      "inputs": [
        {
          "internalType": "address",
          "name": "account",
          "type": "address"
        }
      ],
      "name": "AddressInsufficientBalance",
      "type": "error"
    },
    {
      "inputs": [],
      "name": "AlreadyInitialized",
      "type": "error"
    },
    {
      "inputs": [],
      "name": "FailedInnerCall",
      "type": "error"
    },
    {
      "inputs": [],
      "name": "FailedToPayFees",
      "type": "error"
    },
    {
      "inputs": [],
      "name": "FailedToSendEthBack",
      "type": "error"
    },
    {
      "inputs": [],
      "name": "FailedToSendFeesToTreasury",
      "type": "error"
    },
    {
      "inputs": [],
      "name": "InvalidAddress",
      "type": "error"
    },
    {
      "inputs": [
        {
          "internalType": "address",
          "name": "have",
          "type": "address"
        },
        {
          "internalType": "address",
          "name": "want",
          "type": "address"
        }
      ],
      "name": "OnlyCoordinatorCanFulfill",
      "type": "error"
    },
    {
      "inputs": [],
      "name": "RandomPackFeesEqualToZero",
      "type": "error"
    },
    {
      "inputs": [],
      "name": "ReentrancyGuardReentrantCall",
      "type": "error"
    },
    {
      "inputs": [],
      "name": "RequestNotMade",
      "type": "error"
    },
    {
      "inputs": [
        {
          "internalType": "address",
          "name": "token",
          "type": "address"
        }
      ],
      "name": "SafeERC20FailedOperation",
      "type": "error"
    },
    {
      "inputs": [],
      "name": "SameAdmin",
      "type": "error"
    },
    {
      "inputs": [],
      "name": "SameOwner",
      "type": "error"
    },
    {
      "inputs": [],
      "name": "ZeroAddress",
      "type": "error"
    },
    {
      "inputs": [],
      "name": "invalidProbabilities",
      "type": "error"
    },
    {
      "anonymous": false,
      "inputs": [
        {
          "indexed": false,
          "internalType": "uint256",
          "name": "_callbackGasLimit",
          "type": "uint256"
        }
      ],
      "name": "CallBackGasLimitUpdated",
      "type": "event"
    },
    {
      "anonymous": false,
      "inputs": [],
      "name": "CommonGemMinted",
      "type": "event"
    },
    {
      "anonymous": false,
      "inputs": [],
      "name": "CommonGemToBeMinted",
      "type": "event"
    },
    {
      "anonymous": false,
      "inputs": [
        {
          "indexed": false,
          "internalType": "uint256",
          "name": "amount",
          "type": "uint256"
        }
      ],
      "name": "EthSentBack",
      "type": "event"
    },
    {
      "anonymous": false,
      "inputs": [
        {
          "indexed": false,
          "internalType": "address",
          "name": "gemFactory",
          "type": "address"
        }
      ],
      "name": "GemFactoryAddressUpdated",
      "type": "event"
    },
    {
      "anonymous": false,
      "inputs": [
        {
          "indexed": false,
          "internalType": "string",
          "name": "_tokenURI",
          "type": "string"
        }
      ],
      "name": "PerfectCommonGemURIUpdated",
      "type": "event"
    },
    {
      "anonymous": false,
      "inputs": [
        {
          "indexed": false,
          "internalType": "address",
          "name": "requestor",
          "type": "address"
        },
        {
          "indexed": false,
          "internalType": "uint256",
          "name": "requestId",
          "type": "uint256"
        }
      ],
      "name": "RandomGemRequested",
      "type": "event"
    },
    {
      "anonymous": false,
      "inputs": [
        {
          "indexed": false,
          "internalType": "uint256",
          "name": "tokenId",
          "type": "uint256"
        },
        {
          "indexed": false,
          "internalType": "address",
          "name": "newOwner",
          "type": "address"
        }
      ],
      "name": "RandomGemToBeTransferred",
      "type": "event"
    },
    {
      "anonymous": false,
      "inputs": [
        {
          "indexed": false,
          "internalType": "uint256",
          "name": "tokenId",
          "type": "uint256"
        },
        {
          "indexed": false,
          "internalType": "address",
          "name": "newOwner",
          "type": "address"
        }
      ],
      "name": "RandomGemTransferred",
      "type": "event"
    },
    {
      "anonymous": false,
      "inputs": [
        {
          "indexed": false,
          "internalType": "uint256",
          "name": "randomPackFees",
          "type": "uint256"
        }
      ],
      "name": "RandomPackFeesUpdated",
      "type": "event"
    },
    {
      "anonymous": false,
      "inputs": [
        {
          "indexed": true,
          "internalType": "bytes32",
          "name": "role",
          "type": "bytes32"
        },
        {
          "indexed": true,
          "internalType": "bytes32",
          "name": "previousAdminRole",
          "type": "bytes32"
        },
        {
          "indexed": true,
          "internalType": "bytes32",
          "name": "newAdminRole",
          "type": "bytes32"
        }
      ],
      "name": "RoleAdminChanged",
      "type": "event"
    },
    {
      "anonymous": false,
      "inputs": [
        {
          "indexed": true,
          "internalType": "bytes32",
          "name": "role",
          "type": "bytes32"
        },
        {
          "indexed": true,
          "internalType": "address",
          "name": "account",
          "type": "address"
        },
        {
          "indexed": true,
          "internalType": "address",
          "name": "sender",
          "type": "address"
        }
      ],
      "name": "RoleGranted",
      "type": "event"
    },
    {
      "anonymous": false,
      "inputs": [
        {
          "indexed": true,
          "internalType": "bytes32",
          "name": "role",
          "type": "bytes32"
        },
        {
          "indexed": true,
          "internalType": "address",
          "name": "account",
          "type": "address"
        },
        {
          "indexed": true,
          "internalType": "address",
          "name": "sender",
          "type": "address"
        }
      ],
      "name": "RoleRevoked",
      "type": "event"
    },
    {
      "anonymous": false,
      "inputs": [
        {
          "indexed": false,
          "internalType": "address",
          "name": "treasury",
          "type": "address"
        }
      ],
      "name": "TreasuryAddressUpdated",
      "type": "event"
    },
    {
      "inputs": [],
      "name": "ADMIN_ROLE",
      "outputs": [
        {
          "internalType": "bytes32",
          "name": "",
          "type": "bytes32"
        }
      ],
      "stateMutability": "view",
      "type": "function"
    },
    {
      "inputs": [],
      "name": "DEFAULT_ADMIN_ROLE",
      "outputs": [
        {
          "internalType": "bytes32",
          "name": "",
          "type": "bytes32"
        }
      ],
      "stateMutability": "view",
      "type": "function"
    },
    {
      "inputs": [],
      "name": "DIVIDER",
      "outputs": [
        {
          "internalType": "uint8",
          "name": "",
          "type": "uint8"
        }
      ],
      "stateMutability": "view",
      "type": "function"
    },
    {
      "inputs": [],
      "name": "PAUSE_ROLE",
      "outputs": [
        {
          "internalType": "bytes32",
          "name": "",
          "type": "bytes32"
        }
      ],
      "stateMutability": "view",
      "type": "function"
    },
    {
      "inputs": [
        {
          "internalType": "address",
          "name": "account",
          "type": "address"
        }
      ],
      "name": "addAdmin",
      "outputs": [],
      "stateMutability": "nonpayable",
      "type": "function"
    },
    {
      "inputs": [
        {
          "internalType": "address",
          "name": "account",
          "type": "address"
        }
      ],
      "name": "addPauser",
      "outputs": [],
      "stateMutability": "nonpayable",
      "type": "function"
    },
    {
      "inputs": [
        {
          "internalType": "address",
          "name": "",
          "type": "address"
        }
      ],
      "name": "aliveImplementation",
      "outputs": [
        {
          "internalType": "bool",
          "name": "",
          "type": "bool"
        }
      ],
      "stateMutability": "view",
      "type": "function"
    },
    {
      "inputs": [],
      "name": "getCallbackGasLimit",
      "outputs": [
        {
          "internalType": "uint32",
          "name": "",
          "type": "uint32"
        }
      ],
      "stateMutability": "view",
      "type": "function"
    },
    {
      "inputs": [],
      "name": "getGemFactoryAddress",
      "outputs": [
        {
          "internalType": "address",
          "name": "",
          "type": "address"
        }
      ],
      "stateMutability": "view",
      "type": "function"
    },
    {
      "inputs": [],
      "name": "getPaused",
      "outputs": [
        {
          "internalType": "bool",
          "name": "",
          "type": "bool"
        }
      ],
      "stateMutability": "view",
      "type": "function"
    },
    {
      "inputs": [],
      "name": "getPerfectCommonGemURI",
      "outputs": [
        {
          "internalType": "string",
          "name": "",
          "type": "string"
        }
      ],
      "stateMutability": "view",
      "type": "function"
    },
    {
      "inputs": [],
      "name": "getRandomPackFees",
      "outputs": [
        {
          "internalType": "uint256",
          "name": "",
          "type": "uint256"
        }
      ],
      "stateMutability": "view",
      "type": "function"
    },
    {
      "inputs": [],
      "name": "getRequestCount",
      "outputs": [
        {
          "internalType": "uint256",
          "name": "",
          "type": "uint256"
        }
      ],
      "stateMutability": "view",
      "type": "function"
    },
    {
      "inputs": [
        {
          "internalType": "bytes32",
          "name": "role",
          "type": "bytes32"
        }
      ],
      "name": "getRoleAdmin",
      "outputs": [
        {
          "internalType": "bytes32",
          "name": "",
          "type": "bytes32"
        }
      ],
      "stateMutability": "view",
      "type": "function"
    },
    {
      "inputs": [],
      "name": "getTonAddress",
      "outputs": [
        {
          "internalType": "address",
          "name": "",
          "type": "address"
        }
      ],
      "stateMutability": "view",
      "type": "function"
    },
    {
      "inputs": [],
      "name": "getTreasuryAddress",
      "outputs": [
        {
          "internalType": "address",
          "name": "",
          "type": "address"
        }
      ],
      "stateMutability": "view",
      "type": "function"
    },
    {
      "inputs": [
        {
          "internalType": "bytes32",
          "name": "role",
          "type": "bytes32"
        },
        {
          "internalType": "address",
          "name": "account",
          "type": "address"
        }
      ],
      "name": "grantRole",
      "outputs": [],
      "stateMutability": "nonpayable",
      "type": "function"
    },
    {
      "inputs": [
        {
          "internalType": "bytes32",
          "name": "role",
          "type": "bytes32"
        },
        {
          "internalType": "address",
          "name": "account",
          "type": "address"
        }
      ],
      "name": "hasRole",
      "outputs": [
        {
          "internalType": "bool",
          "name": "",
          "type": "bool"
        }
      ],
      "stateMutability": "view",
      "type": "function"
    },
    {
      "inputs": [
        {
          "internalType": "address",
          "name": "_coordinator",
          "type": "address"
        },
        {
          "internalType": "address",
          "name": "_ton",
          "type": "address"
        },
        {
          "internalType": "address",
          "name": "_gemFactory",
          "type": "address"
        },
        {
          "internalType": "address",
          "name": "_treasury",
          "type": "address"
        },
        {
          "internalType": "uint256",
          "name": "_randomPackFees",
          "type": "uint256"
        }
      ],
      "name": "initialize",
      "outputs": [],
      "stateMutability": "nonpayable",
      "type": "function"
    },
    {
      "inputs": [
        {
          "internalType": "address",
          "name": "account",
          "type": "address"
        }
      ],
      "name": "isAdmin",
      "outputs": [
        {
          "internalType": "bool",
          "name": "",
          "type": "bool"
        }
      ],
      "stateMutability": "view",
      "type": "function"
    },
    {
      "inputs": [],
      "name": "isOwner",
      "outputs": [
        {
          "internalType": "bool",
          "name": "",
          "type": "bool"
        }
      ],
      "stateMutability": "view",
      "type": "function"
    },
    {
      "inputs": [
        {
          "internalType": "address",
          "name": "account",
          "type": "address"
        }
      ],
      "name": "isPauser",
      "outputs": [
        {
          "internalType": "bool",
          "name": "",
          "type": "bool"
        }
      ],
      "stateMutability": "view",
      "type": "function"
    },
    {
      "inputs": [
        {
          "internalType": "address",
          "name": "",
          "type": "address"
        },
        {
          "internalType": "address",
          "name": "",
          "type": "address"
        },
        {
          "internalType": "uint256",
          "name": "",
          "type": "uint256"
        },
        {
          "internalType": "bytes",
          "name": "",
          "type": "bytes"
        }
      ],
      "name": "onERC721Received",
      "outputs": [
        {
          "internalType": "bytes4",
          "name": "",
          "type": "bytes4"
        }
      ],
      "stateMutability": "pure",
      "type": "function"
    },
    {
      "inputs": [],
      "name": "pause",
      "outputs": [],
      "stateMutability": "nonpayable",
      "type": "function"
    },
    {
      "inputs": [],
      "name": "pauseProxy",
      "outputs": [
        {
          "internalType": "bool",
          "name": "",
          "type": "bool"
        }
      ],
      "stateMutability": "view",
      "type": "function"
    },
    {
      "inputs": [
        {
          "internalType": "uint256",
          "name": "",
          "type": "uint256"
        }
      ],
      "name": "proxyImplementation",
      "outputs": [
        {
          "internalType": "address",
          "name": "",
          "type": "address"
        }
      ],
      "stateMutability": "view",
      "type": "function"
    },
    {
      "inputs": [
        {
          "internalType": "uint256",
          "name": "requestId",
          "type": "uint256"
        },
        {
          "internalType": "uint256",
          "name": "randomWord",
          "type": "uint256"
        }
      ],
      "name": "rawFulfillRandomWords",
      "outputs": [],
      "stateMutability": "nonpayable",
      "type": "function"
    },
    {
      "inputs": [],
      "name": "removeAdmin",
      "outputs": [],
      "stateMutability": "nonpayable",
      "type": "function"
    },
    {
      "inputs": [
        {
          "internalType": "address",
          "name": "account",
          "type": "address"
        }
      ],
      "name": "removePauser",
      "outputs": [],
      "stateMutability": "nonpayable",
      "type": "function"
    },
    {
      "inputs": [
        {
          "internalType": "bytes32",
          "name": "role",
          "type": "bytes32"
        },
        {
          "internalType": "address",
          "name": "callerConfirmation",
          "type": "address"
        }
      ],
      "name": "renounceRole",
      "outputs": [],
      "stateMutability": "nonpayable",
      "type": "function"
    },
    {
      "inputs": [],
      "name": "requestRandomGem",
      "outputs": [
        {
          "internalType": "uint256",
          "name": "",
          "type": "uint256"
        }
      ],
      "stateMutability": "payable",
      "type": "function"
    },
    {
      "inputs": [
        {
          "internalType": "bytes32",
          "name": "role",
          "type": "bytes32"
        },
        {
          "internalType": "address",
          "name": "account",
          "type": "address"
        }
      ],
      "name": "revokeRole",
      "outputs": [],
      "stateMutability": "nonpayable",
      "type": "function"
    },
    {
      "inputs": [
        {
          "internalType": "uint256",
          "name": "",
          "type": "uint256"
        }
      ],
      "name": "s_requests",
      "outputs": [
        {
          "internalType": "uint256",
          "name": "randomWord",
          "type": "uint256"
        },
        {
          "internalType": "uint256",
          "name": "chosenTokenId",
          "type": "uint256"
        },
        {
          "internalType": "address",
          "name": "requester",
          "type": "address"
        },
        {
          "internalType": "bool",
          "name": "requested",
          "type": "bool"
        },
        {
          "internalType": "bool",
          "name": "fulfilled",
          "type": "bool"
        }
      ],
      "stateMutability": "view",
      "type": "function"
    },
    {
      "inputs": [
        {
          "internalType": "bytes4",
          "name": "",
          "type": "bytes4"
        }
      ],
      "name": "selectorImplementation",
      "outputs": [
        {
          "internalType": "address",
          "name": "",
          "type": "address"
        }
      ],
      "stateMutability": "view",
      "type": "function"
    },
    {
      "inputs": [
        {
          "internalType": "uint32",
          "name": "_callbackGasLimit",
          "type": "uint32"
        }
      ],
      "name": "setCallbackGasLimit",
      "outputs": [],
      "stateMutability": "nonpayable",
      "type": "function"
    },
    {
      "inputs": [
        {
          "internalType": "address",
          "name": "_gemFactory",
          "type": "address"
        }
      ],
      "name": "setGemFactory",
      "outputs": [],
      "stateMutability": "nonpayable",
      "type": "function"
    },
    {
      "inputs": [
        {
          "internalType": "string",
          "name": "_tokenURI",
          "type": "string"
        }
      ],
      "name": "setPerfectCommonGemURI",
      "outputs": [],
      "stateMutability": "nonpayable",
      "type": "function"
    },
    {
      "inputs": [
        {
          "internalType": "uint8",
          "name": "_commonProb",
          "type": "uint8"
        },
        {
          "internalType": "uint8",
          "name": "_rareProb",
          "type": "uint8"
        },
        {
          "internalType": "uint8",
          "name": "_uniqueProb",
          "type": "uint8"
        },
        {
          "internalType": "uint8",
          "name": "_epicProb",
          "type": "uint8"
        },
        {
          "internalType": "uint8",
          "name": "_legendaryProb",
          "type": "uint8"
        },
        {
          "internalType": "uint8",
          "name": "_mythicProb",
          "type": "uint8"
        }
      ],
      "name": "setProbabilities",
      "outputs": [],
      "stateMutability": "nonpayable",
      "type": "function"
    },
    {
      "inputs": [
        {
          "internalType": "uint256",
          "name": "_randomPackFees",
          "type": "uint256"
        }
      ],
      "name": "setRandomPackFees",
      "outputs": [],
      "stateMutability": "nonpayable",
      "type": "function"
    },
    {
      "inputs": [
        {
          "internalType": "address",
          "name": "_ton",
          "type": "address"
        }
      ],
      "name": "setTon",
      "outputs": [],
      "stateMutability": "nonpayable",
      "type": "function"
    },
    {
      "inputs": [
        {
          "internalType": "address",
          "name": "_treasury",
          "type": "address"
        }
      ],
      "name": "setTreasury",
      "outputs": [],
      "stateMutability": "nonpayable",
      "type": "function"
    },
    {
      "inputs": [
        {
          "internalType": "bytes4",
          "name": "interfaceId",
          "type": "bytes4"
        }
      ],
      "name": "supportsInterface",
      "outputs": [
        {
          "internalType": "bool",
          "name": "",
          "type": "bool"
        }
      ],
      "stateMutability": "view",
      "type": "function"
    },
    {
      "inputs": [
        {
          "internalType": "address",
          "name": "newOwner",
          "type": "address"
        }
      ],
      "name": "transferOwnership",
      "outputs": [],
      "stateMutability": "nonpayable",
      "type": "function"
    },
    {
      "inputs": [],
      "name": "unpause",
      "outputs": [],
      "stateMutability": "nonpayable",
      "type": "function"
    }
  ],
  "bytecode": "0x60808060405234602657600160045562ffffff19600e5416600e556124d8908161002c8239f35b600080fdfe6080604081815260048036101561001557600080fd5b600092833560e01c90816301ffc9a71461159557508063150b7a021461152d57806315c0161614611479578063184fa84f1461145a578063248a9ca31461143057806324d7806c146113dc57806325b5b3b2146113755780632f2ff15d1461134c57806336568abe1461130557806337ed11db146112b1578063389ed267146112885780633be7bcbf146110f75780633db8df9814610dc05780633f4ba83a14610d515780633fad183414610d3257806346fbf68e14610cde5780634d288fec14610c9657806350d2a27614610c53578063550d01a314610c1557806362043bd814610bf957806363a8fd8914610bd75780636805b84b14610bb35780636ae638d014610b8a5780636b2c0f5514610ab95780636ecd19cb146108d7578063704802751461088857806375b238fc1461085f57806382dc1ec41461080b5780638456cb59146107cf5780638f32d59b146107a957806391d14854146107635780639a202d47146106cd5780639d541be2146106a4578063a168fa8914610645578063a217fddf1461062a578063a4eb718c146105ae578063b911135f1461057c578063d547741f14610541578063de8be8e714610519578063e0024604146104ec578063e614751814610476578063f0f44260146103f2578063f2fde38b146103365763f7013ef61461020757600080fd5b346103325760a0366003190112610332576102206115e9565b91610229611604565b9060443560018060a01b039384821680920361032e576064359285841680940361032a5760ff600e5460081c1661031e575050610265336119ad565b508360018060a01b031995168560065416176006558460085416176008558360095416176009551690600a541617600a55608435600c5565200b2000000066ffffffff00000019600e541617600e556102bf600d546116d0565b601f81116102e0575b506000600d5561010061ff0019600e541617600e5580f35b600d825261031890601f0160051c7fd7b6990105719101dabeb77144f2a3385c8033acd3af97e9423a695e81ad1eb590810190611816565b386102c8565b5162dc149f60e41b8152fd5b8780fd5b8680fd5b8280fd5b509034610332576020366003190112610332576103516115e9565b9161036261035d61182d565b61170a565b6001600160a01b03831680156103e35733146103d55750906103c260016103c7938580526005602052610399828288200154611850565b6103a2846119ad565b506000805160206124438339815191528652600560205285200154611850565b611894565b506103d133611b93565b5080f35b9051630a98f1f360e21b8152fd5b50905163d92e233d60e01b8152fd5b5090346103325760203660031901126103325761040d6115e9565b61041861035d61182d565b6001600160a01b03169182156104685750600980546001600160a01b03191683179055519081527fb6a5e89655cf506139085f051af608195ed056f8dc550b180a1c38d401e2b6c490602090a180f35b905163e6c4247b60e01b8152fd5b509034610332576020366003190112610332576104916115e9565b61049c61035d61182d565b6001600160a01b03169182156104685750600880546001600160a01b03191683179055519081527fed7acc23c47775012c7b3a370974b91aefab1849cacf173b5ea54273abb4815690602090a180f35b50503461051557816003193601126105155760095490516001600160a01b039091168152602090f35b5080fd5b50503461051557816003193601126105155760209063ffffffff600e5460181c169051908152f35b5090346103325780600319360112610332576103d191356105776001610565611604565b93838752600560205286200154611850565b611bfa565b50346103325760203660031901126103325735825260016020908152918190205490516001600160a01b039091168152f35b5034610332576020366003190112610332573563ffffffff8116808203610626577fe26fa4acf522c01381834acc8213105df00a52674031c6311f5dc24bd608819f926020926105ff61035d61182d565b66ffffffff000000600e549160181b169066ffffffff000000191617600e5551908152a180f35b8380fd5b50503461051557816003193601126105155751908152602090f35b5034610332576020366003190112610332578160a09360ff92358152600760205220805492600260018301549201549181519485526020850152600180861b038216908401528181851c161515606084015260a81c1615156080820152f35b50503461051557816003193601126105155760085490516001600160a01b039091168152602090f35b5090346103325782600319360112610332576000805160206124438339815191528352600560205280832033845260205260ff81842054161561071457826103d133611b0b565b906020608492519162461bcd60e51b8352820152602360248201527f41757468436f6e74726f6c3a2043616c6c6572206973206e6f7420616e20616460448201526236b4b760e91b6064820152fd5b50346103325781600319360112610332578160209360ff92610783611604565b90358252600586528282206001600160a01b039091168252855220549151911615158152f35b5050346105155781600319360112610515576020906107c661182d565b90519015158152f35b83346108085780600319360112610808576107eb61035d61182d565b6001600e546107fd60ff82161561178c565b60ff191617600e5580f35b80fd5b505034610515576020366003190112610515576103d19061085a600161082f6115e9565b9261083b61035d61182d565b6000805160206124238339815191528652600560205285200154611850565b611923565b505034610515578160031936011261051557602090516000805160206124438339815191528152f35b505034610515576020366003190112610515576103d1906103c260016108ac6115e9565b926108b861035d61182d565b6000805160206124438339815191528652600560205285200154611850565b508290346105155760209081600319360112610332578035916001600160401b0391828411610ab55736602385011215610ab55783810135610918816116b5565b9461092588519687611694565b818652366024838301011161032e578187926024869301838901378601015261094f61035d61182d565b8351928311610aa25750610964600d546116d0565b601f8111610a68575b5080601f83116001146109dc575093816109cb939285967f5c9db415e672f6d0f9a26180f0ff083c406f4c7aa95aec2c0e9536794035a4d896916109d1575b508160011b916000199060031b1c191617600d555b519182918261161a565b0390a180f35b9050830151876109ac565b90601f198316600d86528286209286905b828210610a50575050927f5c9db415e672f6d0f9a26180f0ff083c406f4c7aa95aec2c0e9536794035a4d8959692600192826109cb979610610a37575b5050811b01600d556109c1565b85015160001960f88460031b161c191690558780610a2a565b80600185968294968a015181550195019301906109ed565b610a9290600d8652828620601f850160051c810191848610610a98575b601f0160051c0190611816565b8561096d565b9091508190610a85565b634e487b7160e01b855260419052602484fd5b8480fd5b503461033257602036600319011261033257610ad36115e9565b916000805160206124238339815191528452600560205280842033855260205260ff81852054168015610b7c575b15610b2d57336001600160a01b03841603610b2057836103d184611a83565b5163334bd91960e11b8152fd5b906020608492519162461bcd60e51b8352820152602360248201527f41757468436f6e74726f6c3a2043616c6c6572206973206e6f7420612070617560448201526239b2b960e91b6064820152fd5b50610b8561182d565b610b01565b505034610515578160031936011261051557600a5490516001600160a01b039091168152602090f35b50503461051557816003193601126105155760209060ff600e541690519015158152f35b50503461051557816003193601126105155760ff602092541690519015158152f35b5050346105155781600319360112610515576020905160648152f35b5050346105155760203660031901126105155760209160ff9082906001600160a01b03610c406115e9565b1681526002855220541690519015158152f35b5034610332576020366003190112610332573563ffffffff60e01b811680910361033257825260036020908152918190205490516001600160a01b039091168152f35b833461080857602036600319011261080857610cb06115e9565b610cbb61035d61182d565b600a80546001600160a01b0319166001600160a01b039290921691909117905580f35b5050346105155760203660031901126105155760ff81602093610cff6115e9565b6000805160206124238339815191528252600586528282206001600160a01b039091168252855220549151911615158152f35b505034610515578160031936011261051557602090600b549051908152f35b5034610332578260031936011261033257610d6d61035d61182d565b600e549160ff831615610d8657505060ff1916600e5580f35b906020606492519162461bcd60e51b8352820152601460248201527314185d5cd8589b194e881b9bdd081c185d5cd95960621b6044820152fd5b50908260031936011261033257600e54610ddd60ff82161561178c565b60028354146110e9576002835560101c60ff16156110dc5733156110cf5760018060a01b039182600a541693836009541693600c54948451602096878201926323b872dd60e01b8452336024840152604483015260648201526064815260a081018181106001600160401b038211176110bc57865251610e6e9184918291828b5af1610e676117cb565b908861239f565b8051908682151592836110a3575b50505061108c57610ecc94955063ffffffff600e5460181c16906006541690868551610ea781611663565b8481528482820152828782015286518098819263a6c278f360e01b8352888301611e6b565b0381855afa9586156110825790879291849761104f575b50869291610f1d91875190610ef782611663565b86825286858301528882015287519889809481936309160b1560e11b83528a8301611e6b565b03925af1948515611045578295611016575b508482526007865283822060020180546001600160a81b0319163317600160a01b179055600b80546001019055348110610fa2575b50506001907fc2b05df6babf2be3ce649000124d86f0e7de5e71f99b8edb50dfb2f20a7569ae835180610f988733836117fb565b0390a15551908152f35b3403903482116110035780808084335af1610fbb6117cb565b5015610ff457907f27468d49151596d3863ccb02e3911b3146a62533facd0765451ba556bb4fd9c8856001938551908152a19038610f64565b509051631e53f7e560e11b8152fd5b634e487b7160e01b815260118352602490fd5b9094508581813d831161103e575b61102e8183611694565b8101031261051557519338610f2f565b503d611024565b84513d84823e3d90fd5b9196509181813d811161107b575b6110678183611694565b810103126103325751948691610f1d610ee3565b503d61105d565b85513d85823e3d90fd5b8351635274afe760e01b8152808401879052602490fd5b6110b39350820181019101611c5f565b15388681610e7c565b634e487b7160e01b855260418652602485fd5b5163e6c4247b60e01b8152fd5b51630d6a7ef360e41b8152fd5b5051633ee5aeb560e01b8152fd5b5090346103325760c03660031901126103325781359060ff80831693848403611284576024358281169283820361032a57604435938185169182860361128057606435938185169485810361127c5760843590838216988983036112785760a435938585169c8d8603611274578e61117061035d61182d565b158061126c575b80611264575b8061125c575b80611254575b8061124c575b61123c5760649695936111b06111b0946111b06111b598956111b095611762565b611762565b160361122c57888052600f60205285892060ff19988982541617905560018952858920908882541617905560028852848820908782541617905560038752838720908682541617905585528185209084825416179055600584528320918254161790556201000062ff000019600e541617600e5580f35b8551630d6a7ef360e41b81528490fd5b8c51630d6a7ef360e41b81528b90fd5b508d1561118f565b508b15611189565b508915611183565b50881561117d565b508715611177565b8f80fd5b8d80fd5b8b80fd5b8980fd5b8580fd5b505034610515578160031936011261051557602090516000805160206124238339815191528152f35b5090346103325780600319360112610332576006546001600160a01b031690338290036112e957836112e66024358535611c97565b80f35b60449350519163073e64fd60e21b835233908301526024820152fd5b50919034610515578060031936011261051557611320611604565b90336001600160a01b0383160361133d57506103d1919235611bfa565b5163334bd91960e11b81528390fd5b5090346103325780600319360112610332576103d191356113706001610565611604565b611a1a565b5090346103325760203660031901126103325781359161139661035d61182d565b82156113ce5750816020917fa9ba7fa833bd01c7d078c99360f9c0764c1de898c3300802f43fd0ec1dee717c93600c5551908152a180f35b905163173ecfb760e31b8152fd5b5050346105155760203660031901126105155760ff816020936113fd6115e9565b6000805160206124438339815191528252600586528282206001600160a01b039091168252855220549151911615158152f35b50346103325760203660031901126103325781602093600192358152600585522001549051908152f35b505034610515578160031936011261051557602090600c549051908152f35b50503461051557816003193601126105155780519082600d5461149b816116d0565b9081855260209260019160018116908160001461150b57506001146114d0575b6114cc86866109c1828b0383611694565b0390f35b929550600d83528583205b8284106114f857505050826114cc946109c19282010194386114bb565b80548685018801529286019281016114db565b60ff191687860152505050151560051b83010192506109c1826114cc386114bb565b5034610332576080366003190112610332576115476115e9565b50611550611604565b50606435906001600160401b0390818311610ab55736602384011215610ab55782013590811161062657369101602401116105155751630a85bd0160e11b8152602090f35b92505034610332576020366003190112610332573563ffffffff60e01b81168091036103325760209250637965db0b60e01b81149081156115d8575b5015158152f35b6301ffc9a760e01b149050386115d1565b600435906001600160a01b03821682036115ff57565b600080fd5b602435906001600160a01b03821682036115ff57565b6020808252825181830181905290939260005b82811061164f57505060409293506000838284010152601f8019910116010190565b81810186015184820160400152850161162d565b606081019081106001600160401b0382111761167e57604052565b634e487b7160e01b600052604160045260246000fd5b90601f801991011681019081106001600160401b0382111761167e57604052565b6001600160401b03811161167e57601f01601f191660200190565b90600182811c92168015611700575b60208310146116ea57565b634e487b7160e01b600052602260045260246000fd5b91607f16916116df565b1561171157565b60405162461bcd60e51b8152602060048201526024808201527f41757468436f6e74726f6c3a2043616c6c6572206973206e6f7420746865206f6044820152633bb732b960e11b6064820152608490fd5b9060ff8091169116019060ff821161177657565b634e487b7160e01b600052601160045260246000fd5b1561179357565b60405162461bcd60e51b815260206004820152601060248201526f14185d5cd8589b194e881c185d5cd95960821b6044820152606490fd5b3d156117f6573d906117dc826116b5565b916117ea6040519384611694565b82523d6000602084013e565b606090565b6001600160a01b039091168152602081019190915260400190565b818110611821575050565b60008155600101611816565b336000908152600080516020612483833981519152602052604090205460ff1690565b80600052600560205260406000203360005260205260ff60406000205416156118765750565b6044906040519063e2517d3f60e01b82523360048301526024820152fd5b6001600160a01b031660008181527f09f04f5809d5be59813a33617d16f069caae874a6b34f03139f63d934daddae660205260408120549091906000805160206124438339815191529060ff1661191e5780835260056020526040832082845260205260408320600160ff19825416179055600080516020612403833981519152339380a4600190565b505090565b6001600160a01b031660008181527f787f97f3270d439d97068e73d6d75a066b24f84c342661f177d4e43e00e9f51360205260408120549091906000805160206124238339815191529060ff1661191e5780835260056020526040832082845260205260408320600160ff19825416179055600080516020612403833981519152339380a4600190565b6001600160a01b03166000818152600080516020612483833981519152602052604081205490919060ff16611a165781805260056020526040822081835260205260408220600160ff1982541617905533916000805160206124038339815191528180a4600190565b5090565b906000918083526005602052604083209160018060a01b03169182845260205260ff6040842054161560001461191e5780835260056020526040832082845260205260408320600160ff19825416179055600080516020612403833981519152339380a4600190565b6001600160a01b031660008181527f787f97f3270d439d97068e73d6d75a066b24f84c342661f177d4e43e00e9f51360205260408120549091906000805160206124238339815191529060ff161561191e578083526005602052604083208284526020526040832060ff198154169055600080516020612463833981519152339380a4600190565b6001600160a01b031660008181527f09f04f5809d5be59813a33617d16f069caae874a6b34f03139f63d934daddae660205260408120549091906000805160206124438339815191529060ff161561191e578083526005602052604083208284526020526040832060ff198154169055600080516020612463833981519152339380a4600190565b6001600160a01b03166000818152600080516020612483833981519152602052604081205490919060ff1615611a16578180526005602052604082208183526020526040822060ff19815416905533916000805160206124638339815191528180a4600190565b906000918083526005602052604083209160018060a01b03169182845260205260ff60408420541660001461191e578083526005602052604083208284526020526040832060ff198154169055600080516020612463833981519152339380a4600190565b908160209103126115ff575180151581036115ff5790565b8115611c81570690565b634e487b7160e01b600052601260045260246000fd5b91906000918383526020916007835260408085209360ff9687600287015460a01c1615611e5a5786526007815281862060028101805460ff60a81b1916600160a81b1790558390556008548251639aa19da760e01b81526004969183908290899082906001600160a01b03165afa908115611e50578891611e23575b5015611e1257606484959406936005905b898216928315611dec576000198401938411978a97888a5b611d77578d908d828c16898111611d8a578b828592611d64959452600f8d5220541690611762565b99168d8114611d7757600101988a611d3c565b634e487b7160e01b8d5260118c5260248dfd5b5050919a5093949295508391985016881015611dc8575b168015611db5579495946000190190611d24565b634e487b7160e01b895260118852602489fd5b9050611dd5868285612292565b611de0578990611da1565b50975050505050505050565b985098505050505050611e0091508261209c565b611e0f57611e0d90611e97565b565b50565b94505050509250611e0d9150611e97565b611e439150833d8511611e49575b611e3b8183611694565b810190611c5f565b38611d13565b503d611e31565b84513d8a823e3d90fd5b82516392b8197960e01b8152600490fd5b919091604063ffffffff81606084019561ffff8082511686526020820151166020860152015116910152565b600954604080519093926001600160a01b0392831691906001600160401b03908287018281118482101761167e57875260009485845260209486868601528851936080850190858210908211176120885793869195948a52876001968783528784840152878c8401528760608401528b5196879363912b431b60e01b8552600491846004870152602486018b86915b60028310612061575050505060648501908a85925b84841061204157505050505061012491839161010060e4840152816101048401525af19283156120375790859392918793612002575b5082611fa195830155600281600954169201541686895180968195829463048dbcef60e41b8452600484016117fb565b03925af1948515611ff957507fdd20b2dff2d53ef41435ad0074aea6e1ce693777fcc9ea8e76c76a8f3607dd219394611fdb575b505080a1565b81611ff192903d10611e4957611e3b8183611694565b503880611fd5565b513d84823e3d90fd5b848193959294503d8311612030575b61201b8183611694565b81010312611284575184929091611fa1611f71565b503d612011565b88513d88823e3d90fd5b825160ff1681528d988c98508f97509390910192918201918c9101611f3b565b90939650889295989194975060ff86511681520193019101928894918c948b8d9895611f26565b634e487b7160e01b88526041600452602488fd5b91906000928380526020600f815260409260ff84872054166120bf575b50505050565b60085484516394ca644960e01b8152600481018890526001600160a01b03929188908290602490829087165afa9182156121c057889189936121de575b508161210a575050506120b9565b9061211491611c77565b81518110156121ca5790839160051b01015161215c83600186019280845560028560095416970196858854168b8a5180968195829463048dbcef60e41b8452600484016117fb565b03925af180156121c0577f5ea50d72ed96185eb6f31884978fae6836ea30ba583e3fb7c32b66135514723c9798506121a3575b5054925416908351928352820152a1600190565b6121b990843d8611611e4957611e3b8183611694565b503861218f565b86513d8a823e3d90fd5b634e487b7160e01b88526032600452602488fd5b915091503d8089833e6121f18183611694565b8101868282031261228e57815190858301516001600160401b039384821161127c570181601f8201121561228a578051938411612276578360051b9089519461223c89840187611694565b8552878086019282010192831161127c5787809101915b83831061226657505050509091386120fc565b8251815291810191889101612253565b634e487b7160e01b8b52604160045260248bfd5b8a80fd5b8880fd5b92919060ff1692600093808552602090600f825260409360ff85882054166122bc575b5050505050565b60085485516394ca644960e01b815260048101939093526001600160a01b03929088908290602490829087165afa9182156121c05788918993612307575b508161210a5750506122b5565b915091503d8089833e61231a8183611694565b8101868282031261228e57815190858301516001600160401b039384821161127c570181601f8201121561228a578051938411612276578360051b9089519461236589840187611694565b8552878086019282010192831161127c5787809101915b83831061238f57505050509091386122fa565b825181529181019188910161237c565b906123c657508051156123b457805190602001fd5b604051630a12f52160e11b8152600490fd5b815115806123f9575b6123d7575090565b604051639996b31560e01b81526001600160a01b039091166004820152602490fd5b50803b156123cf56fe2f8788117e7eff1d82e926ec794901d17c78024a50270940304540a733656f0dfcb9fcbfa83b897fb2d5cf4b58962164105c1e71489a37ef3ae0db3fdce576f6df8b4c520ffe197c5343c6f5aec59570151ef9a492f2c624fd45ddde6135ec42f6391f5c32d9c69d2a47ea670b442974b53935d1edc7fd64eb21e047a839171b05b8ccbb9d4d8fb16ea74ce3c29a41f1b461fbdaff4714a0d9a8eb05499746bca26469706673582212205c9ac221c0f00a2583af37a512db324b2292e91f9dfa818a7c43a8f6e27906d464736f6c63430008190033",
  "linkReferences": {},
  "deployedLinkReferences": {}
}