{"abi":[{"type":"function","name":"ADMIN_ROLE","inputs":[],"outputs":[{"name":"","type":"bytes32","internalType":"bytes32"}],"stateMutability":"view"},{"type":"function","name":"DECIMALS","inputs":[],"outputs":[{"name":"","type":"uint256","internalType":"uint256"}],"stateMutability":"view"},{"type":"function","name":"DEFAULT_ADMIN_ROLE","inputs":[],"outputs":[{"name":"","type":"bytes32","internalType":"bytes32"}],"stateMutability":"view"},{"type":"function","name":"PAUSE_ROLE","inputs":[],"outputs":[{"name":"","type":"bytes32","internalType":"bytes32"}],"stateMutability":"view"},{"type":"function","name":"TON_FEES_RATE_DIVIDER","inputs":[],"outputs":[{"name":"","type":"uint256","internalType":"uint256"}],"stateMutability":"view"},{"type":"function","name":"addAdmin","inputs":[{"name":"account","type":"address","internalType":"address"}],"outputs":[],"stateMutability":"nonpayable"},{"type":"function","name":"addPauser","inputs":[{"name":"account","type":"address","internalType":"address"}],"outputs":[],"stateMutability":"nonpayable"},{"type":"function","name":"aliveImplementation","inputs":[{"name":"","type":"address","internalType":"address"}],"outputs":[{"name":"","type":"bool","internalType":"bool"}],"stateMutability":"view"},{"type":"function","name":"approveGem","inputs":[{"name":"operator","type":"address","internalType":"address"},{"name":"_tokenId","type":"uint256","internalType":"uint256"}],"outputs":[],"stateMutability":"nonpayable"},{"type":"function","name":"approveGemFactory","inputs":[],"outputs":[],"stateMutability":"nonpayable"},{"type":"function","name":"approveWstonForMarketplace","inputs":[{"name":"amount","type":"uint256","internalType":"uint256"}],"outputs":[],"stateMutability":"nonpayable"},{"type":"function","name":"buyGem","inputs":[{"name":"_tokenId","type":"uint256","internalType":"uint256"},{"name":"_paymentMethod","type":"bool","internalType":"bool"}],"outputs":[],"stateMutability":"nonpayable"},{"type":"function","name":"counter","inputs":[],"outputs":[{"name":"","type":"uint256","internalType":"uint256"}],"stateMutability":"view"},{"type":"function","name":"createPreminedGEM","inputs":[{"name":"_rarity","type":"uint8","internalType":"enum GemFactoryStorage.Rarity"},{"name":"_color","type":"uint8[2]","internalType":"uint8[2]"},{"name":"_quadrants","type":"uint8[4]","internalType":"uint8[4]"},{"name":"_tokenURI","type":"string","internalType":"string"}],"outputs":[{"name":"","type":"uint256","internalType":"uint256"}],"stateMutability":"nonpayable"},{"type":"function","name":"createPreminedGEMPool","inputs":[{"name":"_rarities","type":"uint8[]","internalType":"enum GemFactoryStorage.Rarity[]"},{"name":"_colors","type":"uint8[2][]","internalType":"uint8[2][]"},{"name":"_quadrants","type":"uint8[4][]","internalType":"uint8[4][]"},{"name":"_tokenURIs","type":"string[]","internalType":"string[]"}],"outputs":[{"name":"","type":"uint256[]","internalType":"uint256[]"}],"stateMutability":"nonpayable"},{"type":"function","name":"getCounter","inputs":[],"outputs":[{"name":"","type":"uint256","internalType":"uint256"}],"stateMutability":"view"},{"type":"function","name":"getGemFactoryAddress","inputs":[],"outputs":[{"name":"","type":"address","internalType":"address"}],"stateMutability":"view"},{"type":"function","name":"getRandomPackAddress","inputs":[],"outputs":[{"name":"","type":"address","internalType":"address"}],"stateMutability":"view"},{"type":"function","name":"getRoleAdmin","inputs":[{"name":"role","type":"bytes32","internalType":"bytes32"}],"outputs":[{"name":"","type":"bytes32","internalType":"bytes32"}],"stateMutability":"view"},{"type":"function","name":"getTONBalance","inputs":[],"outputs":[{"name":"","type":"uint256","internalType":"uint256"}],"stateMutability":"view"},{"type":"function","name":"getWSTONBalance","inputs":[],"outputs":[{"name":"","type":"uint256","internalType":"uint256"}],"stateMutability":"view"},{"type":"function","name":"grantRole","inputs":[{"name":"role","type":"bytes32","internalType":"bytes32"},{"name":"account","type":"address","internalType":"address"}],"outputs":[],"stateMutability":"nonpayable"},{"type":"function","name":"hasRole","inputs":[{"name":"role","type":"bytes32","internalType":"bytes32"},{"name":"account","type":"address","internalType":"address"}],"outputs":[{"name":"","type":"bool","internalType":"bool"}],"stateMutability":"view"},{"type":"function","name":"incrementCounter","inputs":[],"outputs":[],"stateMutability":"nonpayable"},{"type":"function","name":"initialize","inputs":[{"name":"_wston","type":"address","internalType":"address"},{"name":"_ton","type":"address","internalType":"address"},{"name":"_gemFactory","type":"address","internalType":"address"}],"outputs":[],"stateMutability":"nonpayable"},{"type":"function","name":"isAdmin","inputs":[{"name":"account","type":"address","internalType":"address"}],"outputs":[{"name":"","type":"bool","internalType":"bool"}],"stateMutability":"view"},{"type":"function","name":"isOwner","inputs":[],"outputs":[{"name":"","type":"bool","internalType":"bool"}],"stateMutability":"view"},{"type":"function","name":"isPauser","inputs":[{"name":"account","type":"address","internalType":"address"}],"outputs":[{"name":"","type":"bool","internalType":"bool"}],"stateMutability":"view"},{"type":"function","name":"onERC721Received","inputs":[{"name":"","type":"address","internalType":"address"},{"name":"","type":"address","internalType":"address"},{"name":"","type":"uint256","internalType":"uint256"},{"name":"","type":"bytes","internalType":"bytes"}],"outputs":[{"name":"","type":"bytes4","internalType":"bytes4"}],"stateMutability":"pure"},{"type":"function","name":"pauseProxy","inputs":[],"outputs":[{"name":"","type":"bool","internalType":"bool"}],"stateMutability":"view"},{"type":"function","name":"proxyImplementation","inputs":[{"name":"","type":"uint256","internalType":"uint256"}],"outputs":[{"name":"","type":"address","internalType":"address"}],"stateMutability":"view"},{"type":"function","name":"putGemForSale","inputs":[{"name":"_tokenId","type":"uint256","internalType":"uint256"},{"name":"_price","type":"uint256","internalType":"uint256"}],"outputs":[],"stateMutability":"nonpayable"},{"type":"function","name":"putGemListForSale","inputs":[{"name":"tokenIds","type":"uint256[]","internalType":"uint256[]"},{"name":"prices","type":"uint256[]","internalType":"uint256[]"}],"outputs":[],"stateMutability":"nonpayable"},{"type":"function","name":"removeAdmin","inputs":[],"outputs":[],"stateMutability":"nonpayable"},{"type":"function","name":"removeGemFromSale","inputs":[{"name":"_tokenId","type":"uint256","internalType":"uint256"}],"outputs":[],"stateMutability":"nonpayable"},{"type":"function","name":"removePauser","inputs":[{"name":"account","type":"address","internalType":"address"}],"outputs":[],"stateMutability":"nonpayable"},{"type":"function","name":"renounceRole","inputs":[{"name":"role","type":"bytes32","internalType":"bytes32"},{"name":"callerConfirmation","type":"address","internalType":"address"}],"outputs":[],"stateMutability":"nonpayable"},{"type":"function","name":"revokeRole","inputs":[{"name":"role","type":"bytes32","internalType":"bytes32"},{"name":"account","type":"address","internalType":"address"}],"outputs":[],"stateMutability":"nonpayable"},{"type":"function","name":"selectorImplementation","inputs":[{"name":"","type":"bytes4","internalType":"bytes4"}],"outputs":[{"name":"","type":"address","internalType":"address"}],"stateMutability":"view"},{"type":"function","name":"setAirdrop","inputs":[{"name":"_airdrop","type":"address","internalType":"address"}],"outputs":[],"stateMutability":"nonpayable"},{"type":"function","name":"setGemFactory","inputs":[{"name":"_gemFactory","type":"address","internalType":"address"}],"outputs":[],"stateMutability":"nonpayable"},{"type":"function","name":"setMarketPlace","inputs":[{"name":"marketplace","type":"address","internalType":"address"}],"outputs":[],"stateMutability":"nonpayable"},{"type":"function","name":"setRandomPack","inputs":[{"name":"_randomPack","type":"address","internalType":"address"}],"outputs":[],"stateMutability":"nonpayable"},{"type":"function","name":"setWstonSwapPool","inputs":[{"name":"_wstonSwapPool","type":"address","internalType":"address"}],"outputs":[],"stateMutability":"nonpayable"},{"type":"function","name":"supportsInterface","inputs":[{"name":"interfaceId","type":"bytes4","internalType":"bytes4"}],"outputs":[{"name":"","type":"bool","internalType":"bool"}],"stateMutability":"view"},{"type":"function","name":"swapTONforWSTON","inputs":[{"name":"tonAmount","type":"uint256","internalType":"uint256"}],"outputs":[],"stateMutability":"nonpayable"},{"type":"function","name":"tonApproveMarketPlace","inputs":[],"outputs":[],"stateMutability":"nonpayable"},{"type":"function","name":"tonApproveWstonSwapPool","inputs":[],"outputs":[],"stateMutability":"nonpayable"},{"type":"function","name":"transferOwnership","inputs":[{"name":"newOwner","type":"address","internalType":"address"}],"outputs":[],"stateMutability":"nonpayable"},{"type":"function","name":"transferTON","inputs":[{"name":"_to","type":"address","internalType":"address"},{"name":"_amount","type":"uint256","internalType":"uint256"}],"outputs":[{"name":"","type":"bool","internalType":"bool"}],"stateMutability":"nonpayable"},{"type":"function","name":"transferTreasuryGEMto","inputs":[{"name":"_to","type":"address","internalType":"address"},{"name":"_tokenId","type":"uint256","internalType":"uint256"}],"outputs":[{"name":"","type":"bool","internalType":"bool"}],"stateMutability":"nonpayable"},{"type":"function","name":"transferWSTON","inputs":[{"name":"_to","type":"address","internalType":"address"},{"name":"_amount","type":"uint256","internalType":"uint256"}],"outputs":[{"name":"","type":"bool","internalType":"bool"}],"stateMutability":"nonpayable"},{"type":"function","name":"wstonApproveMarketPlace","inputs":[],"outputs":[],"stateMutability":"nonpayable"},{"type":"event","name":"RoleAdminChanged","inputs":[{"name":"role","type":"bytes32","indexed":true,"internalType":"bytes32"},{"name":"previousAdminRole","type":"bytes32","indexed":true,"internalType":"bytes32"},{"name":"newAdminRole","type":"bytes32","indexed":true,"internalType":"bytes32"}],"anonymous":false},{"type":"event","name":"RoleGranted","inputs":[{"name":"role","type":"bytes32","indexed":true,"internalType":"bytes32"},{"name":"account","type":"address","indexed":true,"internalType":"address"},{"name":"sender","type":"address","indexed":true,"internalType":"address"}],"anonymous":false},{"type":"event","name":"RoleRevoked","inputs":[{"name":"role","type":"bytes32","indexed":true,"internalType":"bytes32"},{"name":"account","type":"address","indexed":true,"internalType":"address"},{"name":"sender","type":"address","indexed":true,"internalType":"address"}],"anonymous":false},{"type":"error","name":"AccessControlBadConfirmation","inputs":[]},{"type":"error","name":"AccessControlUnauthorizedAccount","inputs":[{"name":"account","type":"address","internalType":"address"},{"name":"neededRole","type":"bytes32","internalType":"bytes32"}]},{"type":"error","name":"AddressEmptyCode","inputs":[{"name":"target","type":"address","internalType":"address"}]},{"type":"error","name":"AddressInsufficientBalance","inputs":[{"name":"account","type":"address","internalType":"address"}]},{"type":"error","name":"FailedInnerCall","inputs":[]},{"type":"error","name":"FailedToSendTON","inputs":[]},{"type":"error","name":"InvalidAddress","inputs":[]},{"type":"error","name":"NotEnoughTonAvailableInTreasury","inputs":[]},{"type":"error","name":"NotEnoughWstonAvailableInTreasury","inputs":[]},{"type":"error","name":"ReentrancyGuardReentrantCall","inputs":[]},{"type":"error","name":"SafeERC20FailedOperation","inputs":[{"name":"token","type":"address","internalType":"address"}]},{"type":"error","name":"SameAdmin","inputs":[]},{"type":"error","name":"SameOwner","inputs":[]},{"type":"error","name":"TonAddressIsNotSet","inputs":[]},{"type":"error","name":"UnsuffiscientTonBalance","inputs":[]},{"type":"error","name":"UnsuffiscientWstonBalance","inputs":[]},{"type":"error","name":"WstonAddressIsNotSet","inputs":[]},{"type":"error","name":"ZeroAddress","inputs":[]}],"bytecode":{"object":"0x608060405234601f57600e6024565b60405161333a6100b9823961333a90f35b600080fd5b602a605b565b565b9060ff60a01b9060a01b5b9181191691161790565b90565b9060516041605792151590565b8254602c565b9055565b6061606b565b602a6000600c6044565b602a602a602a602a602a602a602a60aa565b6041604160419290565b60416001607d565b90600019906037565b9060a46041605792607d565b8254608f565b602a60b26087565b6004609856fe6080604052600436101561001257600080fd5b60003560e01c80630169dc311461036257806301ffc9a71461035d57806302424ed31461035857806307db44701461035357806308ec897d1461034e5780630d727e2b14610349578063150b7a021461034457806320e641b71461033f578063248a9ca31461033a57806324d7806c146103355780632e0f2625146103305780632ede64321461032b5780632f2ff15d1461032657806330568a8d1461032157806336568abe1461031c578063389ed267146103175780633b22f1101461031257806340e585481461030d578063425c7fc21461030857806346fbf68e1461030357806348dbcef0146102fe57806350d2a276146102f9578063520aefae146102f4578063550d01a3146102ef5780635b34b966146102ea57806361bc221a146102e557806363a8fd89146102e05780636b2c0f55146102db5780636fcf2fc9146102d657806370480275146102d157806372820dbc146102cc57806375b238fc146102c757806379dbd798146102c257806382dc1ec4146102bd5780638ada066e146102b85780638f32d59b146102b357806391005b08146102ae578063912b431b146102a957806391d14854146102a457806398d111b21461029f5780639a202d471461029a5780639d541be214610295578063a217fddf14610290578063b23a1d0d1461028b578063b911135f14610286578063bae77ac914610281578063c0c53b8b1461027c578063d547741f14610277578063e614751814610272578063ec23919a1461026d578063ec7ae61d14610268578063ed8c2472146102635763f2fde38b036103675761123d565b611225565b611209565b6111ee565b6111d6565b6111bd565b6111a4565b611160565b611145565b611113565b6110f8565b6110cb565b6110b3565b61109b565b61107f565b611060565b610ff8565b610fdd565b610fc2565b610faa565b610f91565b610ec7565b610e83565b610e6b565b610e52565b610e3a565b610e1f565b610df9565b610dbf565b610da4565b610d2d565b610d06565b610c78565b610c5d565b610c32565b61079b565b610780565b610765565b610720565b610708565b6106ef565b6106b3565b61067c565b610645565b610616565b6105fe565b6105c4565b61052a565b6104eb565b6104b3565b61048a565b610437565b6103d4565b600080fd5b6001600160a01b031690565b90565b6103848161036c565b0361036757565b905035906103988261037b565b565b80610384565b905035906103988261039a565b9190604083820312610367576103789060206103c9828661038b565b94016103a0565b9052565b34610367576104026103f06103ea3660046103ad565b90611413565b60405191829182901515815260200190565b0390f35b6001600160e01b03198116610384565b9050359061039882610406565b906020828203126103675761037891610416565b34610367576104026103f061044d366004610423565b61141f565b801515610384565b9050359061039882610452565b91906040838203126103675761037890602061048382866103a0565b940161045a565b34610367576104a361049d366004610467565b9061153a565b604051005b600091031261036757565b34610367576104c33660046104a8565b6104a3611648565b6103786103786103789290565b6103786127106104cb565b6103786104d8565b34610367576104fb3660046104a8565b6104026105066104e3565b6040519182918290815260200190565b9060208282031261036757610378916103a0565b34610367576104a361053d366004610516565b6116cd565b909182601f83011215610367578135916001600160401b03831161036757602001926001830284011161036757565b9060808282031261036757610586818361038b565b92610594826020850161038b565b926105a283604083016103a0565b9260608201356001600160401b038111610367576105c09201610542565b9091565b34610367576104026105e36105da366004610571565b939290926116ef565b604051918291826001600160e01b0319909116815260200190565b346103675761060e3660046104a8565b6104a361176c565b346103675761040261050661062c366004610516565b61178b565b90602082820312610367576103789161038b565b34610367576104026103f061065b366004610631565b6117aa565b610378676765c793fa10079d601b1b6104cb565b610378610660565b346103675761068c3660046104a8565b610402610506610674565b9190604083820312610367576103789060206103c982866103a0565b34610367576104a36106c6366004610697565b90611996565b9190604083820312610367576103789060206106e882866103a0565b940161038b565b34610367576104a36107023660046106cc565b906119c0565b34610367576104a361071b366004610631565b611a43565b34610367576104a36107333660046106cc565b90611a4c565b7ffcb9fcbfa83b897fb2d5cf4b58962164105c1e71489a37ef3ae0db3fdce576f690565b610378610739565b34610367576107753660046104a8565b61040261050661075d565b34610367576107903660046104a8565b610402610506611aa0565b34610367576104a36107ae366004610516565b611bea565b634e487b7160e01b600052604160045260246000fd5b90601f01601f191681019081106001600160401b038211176107ea57604052565b6107b3565b906103986107fc60405190565b92836107c9565b6001600160401b0381116107ea5760208091020190565b6006111561036757565b905035906103988261081a565b9092919261084661084182610803565b6107ef565b938185526020808601920283019281841161036757915b83831061086a5750505050565b602080916108788486610824565b81520192019161085d565b9080601f830112156103675781602061037893359101610831565b6001600160401b0381116107ea5760200290565b60ff8116610384565b90503590610398826108b2565b909291926108d86108418261089e565b93602085920283019281841161036757915b8383106108f75750505050565b6020809161090584866108bb565b8152019201916108ea565b9080601f83011215610367576002610378926108c8565b9092919261093761084182610803565b93818552604060208601920283019281841161036757915b83831061095c5750505050565b602060409161096b8486610910565b81520192019161094f565b9080601f830112156103675781602061037893359101610927565b909291926109a16108418261089e565b93602085920283019281841161036757915b8383106109c05750505050565b602080916109ce84866108bb565b8152019201916109b3565b9080601f8301121561036757600461037892610991565b90929192610a0061084182610803565b93818552608060208601920283019281841161036757915b838310610a255750505050565b6020608091610a3484866109d9565b815201920191610a18565b9080601f8301121561036757816020610378933591016109f0565b6001600160401b0381116107ea57602090601f01601f19160190565b0190565b90826000939282370152565b90929192610a9661084182610a5a565b938185528183011161036757610398916020850190610a7a565b9080601f830112156103675781602061037893359101610a86565b929190610ada61084182610803565b93818552602080860192028101918383116103675781905b838210610b00575050505050565b81356001600160401b03811161036757602091610b208784938701610ab0565b815201910190610af2565b9080601f830112156103675781602061037893359101610acb565b906080828203126103675781356001600160401b0381116103675781610b6d918401610883565b9260208301356001600160401b0381116103675782610b8d918501610976565b9260408101356001600160401b0381116103675783610bad918301610a3f565b9260608201356001600160401b038111610367576103789201610b2b565b90610beb610be4610bda845190565b8084529260200190565b9260200190565b9060005b818110610bfc5750505090565b909192610c19610c126001928651815260200190565b9460200190565b929101610bef565b602080825261037892910190610bcb565b3461036757610402610c51610c48366004610b46565b92919091612231565b60405191829182610c21565b34610367576104026103f0610c73366004610631565b61223f565b34610367576104026103f0610c8e3660046103ad565b9061239e565b6001600160e01b03191690565b90610cab90610c94565b600052602052604060002090565b610378916008021c6001600160a01b031690565b906103789154610cb9565b6000610ce8610378926003610ca1565b610ccd565b6103d09061036c565b6020810192916103989190610ced565b3461036757610402610d21610d1c366004610423565b610cd8565b60405191829182610cf6565b3461036757610d3d3660046104a8565b6104a361240c565b6103789061036c906001600160a01b031682565b61037890610d45565b61037890610d59565b90610cab90610d62565b610378916008021c5b60ff1690565b906103789154610d75565b6000610d9f610378926002610d6b565b610d84565b34610367576104026103f0610dba366004610631565b610d8f565b3461036757610dcf3660046104a8565b6104a3612444565b610378916008021c81565b906103789154610dd7565b6103786000600d610de2565b3461036757610e093660046104a8565b610402610506610ded565b610378600080610d84565b3461036757610e2f3660046104a8565b6104026103f0610e14565b34610367576104a3610e4d366004610631565b612507565b34610367576104a3610e653660046103ad565b9061256f565b34610367576104a3610e7e366004610631565b6125f6565b34610367576104a3610e96366004610631565b612648565b7fdf8b4c520ffe197c5343c6f5aec59570151ef9a492f2c624fd45ddde6135ec4290565b610378610e9b565b3461036757610ed73660046104a8565b610402610506610ebf565b90929192610ef261084182610803565b938185526020808601920283019281841161036757915b838310610f165750505050565b60208091610f2484866103a0565b815201920191610f09565b9080601f830112156103675781602061037893359101610ee2565b9190916040818403126103675780356001600160401b0381116103675783610f73918301610f2f565b9260208201356001600160401b038111610367576103789201610f2f565b34610367576104a3610fa4366004610f4a565b90612788565b34610367576104a3610fbd366004610631565b6127ad565b3461036757610fd23660046104a8565b6104026105066127b6565b3461036757610fed3660046104a8565b6104026103f06127c0565b34610367576110083660046104a8565b6104a3612823565b9061010082820312610367576110268183610824565b926110348260208501610910565b9261104283606083016109d9565b9260e08201356001600160401b038111610367576103789201610ab0565b3461036757610402610506611076366004611010565b92919091612a87565b34610367576104026103f06110953660046106cc565b90612aa8565b34610367576104a36110ae366004610516565b612b3b565b34610367576110c33660046104a8565b6104a3612bc2565b34610367576110db3660046104a8565b610402610d21612bca565b61037860006104cb565b6103786110e6565b34610367576111083660046104a8565b6104026105066110f0565b34610367576104a3611126366004610631565b612c1d565b90610cab906104cb565b6000610ce861037892600161112b565b3461036757610402610d2161115b366004610516565b611135565b34610367576111703660046104a8565b610402610506612c26565b909160608284031261036757610378611194848461038b565b9360406106e8826020870161038b565b34610367576104a36111b736600461117b565b91612cb9565b34610367576104a36111d03660046106cc565b90612d28565b34610367576104a36111e9366004610631565b612d7f565b34610367576111fe3660046104a8565b610402610d21612d88565b34610367576104026103f061121f3660046103ad565b90612e05565b34610367576104a3611238366004610631565b612e5a565b34610367576104a3611250366004610631565b612f05565b6103789061036c565b6103789054611255565b1561126f57565b60405162461bcd60e51b815260206004820152604560248201527f63616c6c6572206973206e656974686572204f776e6572206e6f722047656d4660448201527f6163746f7279206e6f72204d61726b6574506c616365206e6f722052616e646f6064820152646d5061636b60d81b608482015260a490fd5b0390fd5b9061037892916113046112ff600661125e565b61036c565b61130d3361036c565b148015611385575b8015611368575b801561134b575b8015611338575b61133390611268565b6113a2565b506113336113446127c0565b905061132a565b506113596112ff600961125e565b6113623361036c565b14611323565b506113766112ff600861125e565b61137f3361036c565b1461131c565b506113936112ff600761125e565b61139c3361036c565b14611315565b906113b592916113b0612f18565b6113be565b90610398612f58565b50906113c982612f6a565b6113d1612c26565b81906113dc565b9190565b10611401576113fc916113f76113f2600a61125e565b610d62565b612f99565b600190565b604051638e85197360e01b8152600490fd5b610378919060006112ec565b61037890612fe1565b1561142f57565b60405162461bcd60e51b81526020600482015260126024820152713737ba1027bbb732b91037b91020b236b4b760711b6044820152606490fd5b9061039891611477336117aa565b801561148c575b61148790611428565b6114c4565b506114876114986127c0565b905061147e565b908152604081019291610398916020905b019015159052565b6040513d6000823e3d90fd5b6114d46113f26113f2600761125e565b91823b156103675761150c92600092836114ed60405190565b8096819582946115016302424ed360e01b90565b84526004840161149f565b03925af180156115355761151d5750565b61039890600061152d81836107c9565b8101906104a8565b6114b8565b9061039891611469565b61154d336117aa565b8015611565575b61155d90611428565b6103986115b8565b5061155d6115716127c0565b9050611554565b9050519061039882610452565b906020828203126103675761037891611578565b9160206103989294936115b460408201966000830190610ced565b0152565b6115ca6115c5600a61125e565b612f6a565b6000602061160c6115e16113f26113f2600a61125e565b6115eb600661125e565b604051948593849283919063095ea7b360e01b835283199060048401611599565b03925af180156115355761161d5750565b61163e9060203d602011611641575b61163681836107c9565b810190611585565b50565b503d61162c565b610398611544565b6103989061165d336117aa565b8015611672575b61166d90611428565b611685565b5061166d61167e6127c0565b9050611664565b6116956113f26113f2600c61125e565b803b156103675761150c6000929183926116ae60405190565b9485938492839190630d727e2b60e01b5b835260048301526024820190565b61039890611650565b610c946116e96103789263ffffffff1690565b60e01b90565b50505050506116fc600090565b5061037863150b7a026116d6565b611713336117aa565b801561172b575b61172390611428565b61039861173e565b506117236117376127c0565b905061171a565b61174b6115c5600b61125e565b6000602061160c6117626113f26113f2600b61125e565b6115eb600c61125e565b61039861170a565b90610cab565b6103789081565b610378905461177a565b60016117a46103789261179c600090565b506005611774565b01611781565b610378906117b6610e9b565b612aa8565b90610398916117c9336117aa565b80156117de575b6117d990611428565b611841565b506117d96117ea6127c0565b90506117d0565b91602061039892949361180c60408201966000830190610ced565b0190610ced565b9160206103989294936114b060408201966000830190610ced565b9081526040810192916103989160200152565b61189360206118566113f26113f2600661125e565b61185f30610d62565b9061186a600761125e565b9161187460405190565b80958194829361188863e985e9c560e01b90565b8452600484016117f1565b03915afa8015611535576118ad9160009161197957501590565b6118fa575b6118c26113f26113f2600761125e565b91823b156103675761150c92600092836118db60405190565b8096819582946118ef632ede643260e01b90565b84526004840161182e565b61190a6113f26113f2600661125e565b611914600761125e565b90803b1561036757600160009161194e938361192f60405190565b80968195829461194363a22cb46560e01b90565b845260048401611813565b03925af1801561153557611963575b506118b2565b61197390600061152d81836107c9565b3861195d565b611992915060203d6020116116415761163681836107c9565b1590565b90610398916117bb565b90610398916119b66119b18261178b565b61301b565b9061163e91613046565b90610398916119a0565b610398906119d7336117aa565b80156119ec575b6119e790611428565b611a2f565b506119e76119f86127c0565b90506119de565b906001600160a01b03905b9181191691161790565b90611a24610378611a2b92610d62565b82546119ff565b9055565b61039890611a3c81612f6a565b6007611a14565b610398906119ca565b90611a563361036c565b611a5f8261036c565b03611a6d5761163e916130c8565b60405163334bd91960e11b8152600490fd5b905051906103988261039a565b906020828203126103675761037891611a7f565b611ae26020611ab56113f26113f2600b61125e565b611abe30610d62565b90611ac860405190565b938492839182916370a0823160e01b835260048301610cf6565b03915afa90811561153557600091611af8575090565b610378915060203d602011611b1a575b611b1281836107c9565b810190611a8c565b503d611b08565b15611b2857565b60405162461bcd60e51b815260206004820152602760248201527f63616c6c657220697320206e6f7420746865206d61726b6574706c61636520636044820152661bdb9d1c9858dd60ca1b6064820152608490fd5b61039890611ba0611b916112ff600761125e565b611b9a3361036c565b14611b21565b602061160c91611bb66113f26113f2600a61125e565b611bc0600761125e565b6000611bcb60405190565b809681958294611bdf63095ea7b360e01b90565b845260048401611599565b61039890611b7d565b15611bfa57565b60405162461bcd60e51b815260206004820152602f60248201527f63616c6c6572206973206e656974686572206f776e6572206e6f722072616e6460448201526e1bdb541858dac818dbdb9d1c9858dd608a1b6064820152608490fd5b9061037894939291611c6c6112ff600861125e565b611c753361036c565b148015611ca5575b8015611c92575b611c8d90611bf3565b61206f565b50611c8d611c9e6127c0565b9050611c84565b50611cb36112ff600761125e565b611cbc3361036c565b14611c7d565b634e487b7160e01b600052603260045260246000fd5b90611ce1825190565b811015611cf2576020809102010190565b611cc2565b634e487b7160e01b600052602160045260246000fd5b60061115611d1757565b611cf7565b9061039882611d0d565b6103789051611d1c565b61037890611d1c565b6103d090611d30565b6020810192916103989190611d39565b634e487b7160e01b600052601160045260246000fd5b91908201809211611d7557565b611d52565b90929192611d8a61084182610803565b938185526020808601920283019281841161036757915b838310611dae5750505050565b60208091611dbc8486611a7f565b815201920191611da1565b9080601f8301121561036757815161037892602001611d7a565b906020828203126103675781516001600160401b038111610367576103789201611dc7565b90610a7681602093611d39565b90611e22610be4610bda845190565b9060005b818110611e335750505090565b909192611e46610c126001928651611e06565b929101611e26565b611e5a6113d860029390565b6000915b838310611e6b5750505050565b611e81610be4600192845160ff16815260200190565b92019190611e5e565b90610a7681604093611e4e565b90611ea6610be4610bda845190565b9060005b818110611eb75750505090565b909192611eca610c126001928651611e8a565b929101611eaa565b611ede6113d860049390565b6000915b838310611eef5750505050565b611f05610be4600192845160ff16815260200190565b92019190611ee2565b90610a7681608093611ed2565b90611f2a610be4610bda845190565b9060005b818110611f3b5750505090565b909192611f4e610c126001928651611f0e565b929101611f2e565b60005b838110611f695750506000910152565b8181015183820152602001611f59565b611f9a611fa3602093610a7693611f8e815190565b80835293849260200190565b95869101611f56565b601f01601f191690565b9061037891611f79565b90611fcd611fc3835190565b8083529160200190565b9081611fdf6020830284019460200190565b926000915b838310611ff357505050505090565b9091929394602061201661200f83856001950387528951611fad565b9760200190565b9301930191939290611fe4565b92612053610378959361204561206194608088019088820360008a0152611e13565b908682036020880152611e97565b908482036040860152611f1b565b916060818403910152611fb7565b509391929091600091600093612084856104cb565b935b612091610378895190565b85101561212f576120e360206120ad6113f26113f2600661125e565b6120bf6120ba898d611cd8565b611d26565b906120c960405190565b93849283918291630b513d9960e01b835260048301611d42565b03915afa8015611535576121099261210292899261210f575b50611d68565b9460010190565b93612086565b61212891925060203d8111611b1a57611b1281836107c9565b90386120fc565b909350959093949195612140612c26565b906121516113f26113f2600661125e565b602061215c60405190565b630265f21b60e51b815291829060049082905afa9081156115355761218f926113d892610378928b916122125750611d68565b10612200578492836121a76113f26113f2600661125e565b926121ce6121b460405190565b97889687958694630ff1ac6760e01b865260048601612023565b03925af19182156115355780926121e457505090565b61037892503d8091833e6121f881836107c9565b810190611de1565b60405163f2cd224d60e01b8152600490fd5b61222b915060203d602011611b1a57611b1281836107c9565b386120fc565b610378939291906060611c57565b610378906117b6610739565b90610378929161225e6112ff600661125e565b6122673361036c565b1480156122df575b80156122c2575b80156122a5575b8015612292575b61228d90611268565b612326565b5061228d61229e6127c0565b9050612284565b506122b36112ff600961125e565b6122bc3361036c565b1461227d565b506122d06112ff600861125e565b6122d93361036c565b14612276565b506122ed6112ff600761125e565b6122f63361036c565b1461226f565b6040906115b4610398949695939661231c60608401986000850190610ced565b6020830190610ced565b50906123366113f280600661125e565b9061234030610d62565b91803b1561036757612373936000809461235960405190565b968795869485936323b872dd60e01b8552600485016122fc565b03925af1801561153557612388575b50600190565b61239890600061152d81836107c9565b38612382565b6103789190600061224b565b6123b3336117aa565b80156123cb575b6123c390611428565b6103986123de565b506123c36123d76127c0565b90506123ba565b6123eb6115c5600b61125e565b6000602061160c6124026113f26113f2600b61125e565b6115eb600761125e565b6103986123aa565b6000198114611d755760010190565b9060001990611a0a565b9061243d610378611a2b926104cb565b8254612423565b610398612459612454600d611781565b612414565b600d61242d565b1561246757565b60405162461bcd60e51b815260206004820152602360248201527f41757468436f6e74726f6c3a2043616c6c6572206973206e6f7420612070617560448201526239b2b960e91b6064820152608490fd5b610398906124ce6124c7610739565b3390612aa8565b80156124e3575b6124de90612460565b6124f6565b506124de6124ef6127c0565b90506124d5565b61039890612502610739565b611a4c565b610398906124b8565b906103989161251e336117aa565b8015612533575b61252e90611428565b612546565b5061252e61253f6127c0565b9050612525565b6125566113f26113f2600661125e565b91823b156103675761150c9260009283611bcb60405190565b9061039891612510565b1561258057565b60405162461bcd60e51b8152602060048201526024808201527f41757468436f6e74726f6c3a2043616c6c6572206973206e6f7420746865206f6044820152633bb732b960e11b6064820152608490fd5b610398906125e56125e06127c0565b612579565b610398906125f1610e9b565b6119c0565b610398906125d1565b6103989061260c336117aa565b8015612621575b61261c90611428565b612634565b5061261c61262d6127c0565b9050612613565b6103989061264181612f6a565b6009611a14565b610398906125ff565b906103989161265f336117aa565b8015612674575b61266f90611428565b6126ac565b5061266f6126806127c0565b9050612666565b604080825261037893919261269e91840190610bcb565b916020818403910152610bcb565b6126c160206118566113f26113f2600661125e565b03915afa8015611535576126db9160009161197957501590565b612728575b6126f06113f26113f2600761125e565b91823b156103675761150c926000928361270960405190565b80968195829461271d6379dbd79860e01b90565b845260048401612687565b6127386113f26113f2600661125e565b612742600761125e565b90803b1561036757600160009161275d938361192f60405190565b03925af1801561153557612772575b506126e0565b61278290600061152d81836107c9565b3861276c565b9061039891612651565b610398906127a16125e06127c0565b610398906125f1610739565b61039890612792565b610378600d611781565b6103786124c76110e6565b6127d4336117aa565b80156127ec575b6127e490611428565b6103986127ff565b506127e46127f86127c0565b90506127db565b61280c6115c5600a61125e565b6000602061160c6124026113f26113f2600a61125e565b6103986127cb565b90610378949392916128406112ff600861125e565b6128493361036c565b148015612879575b8015612866575b61286190611bf3565b612950565b506128616128726127c0565b9050612858565b506128876112ff600761125e565b6128903361036c565b14612851565b6128a26113d860029390565b6000915b8383106128b35750505050565b6128c9610be4600192845160ff16815260200190565b920191906128a6565b6128de6113d860049390565b6000915b8383106128ef5750505050565b612905610be4600192845160ff16815260200190565b920191906128e2565b909261294390612939610378969461292f6101008601976000870190611d39565b6020850190612896565b60608301906128d2565b60e0818403910152611f79565b9291925061295c612c26565b61296c6113f26113f2600661125e565b602061297760405190565b630265f21b60e51b815291829060049082905afa90811561153557600091612a68575b506129ab6113f26113f2600661125e565b9060206129b760405190565b928390630b513d9960e01b825281806129d38960048301611d42565b03915afa918215611535576129f7926113d89261037892600092612a4e5750611d68565b10612200576020926000612a116113f26113f2600661125e565b92612a38612a1e60405190565b9788968795869463975781b760e01b86526004860161290e565b03925af190811561153557600091611af8575090565b61212891925060203d602011611b1a57611b1281836107c9565b612a81915060203d602011611b1a57611b1281836107c9565b3861299a565b61037893929190600061282b565b61037890610d7e565b6103789054612a95565b610378916000612abd612ac39361179c600090565b01610d6b565b612a9e565b61039890612ad5336117aa565b8015612aea575b612ae590611428565b612afd565b50612ae5612af66127c0565b9050612adc565b612b0d6113f26113f2600761125e565b803b156103675761150c600092918392612b2660405190565b94859384928391906356d6b49360e11b6116bf565b61039890612ac8565b15612b4b57565b60405162461bcd60e51b815260206004820152602360248201527f41757468436f6e74726f6c3a2043616c6c6572206973206e6f7420616e20616460448201526236b4b760e91b6064820152608490fd5b612bad612ba8336117aa565b612b44565b610398610398612bbb610e9b565b3390611a4c565b610398612b9c565b610378600661125e565b61039890612be1336117aa565b8015612bf6575b612bf190611428565b612c09565b50612bf1612c026127c0565b9050612be8565b61039890612c1681612f6a565b600c611a14565b61039890612bd4565b611ae26020611ab56113f26113f2600a61125e565b6103789060a81c610d7e565b6103789054612c3b565b15612c5857565b60405162461bcd60e51b8152602060048201526013602482015272185b1c9958591e481a5b9a5d1a585b1a5e9959606a1b6044820152606490fd5b9060ff60a81b9060a81b611a0a565b90612cb2610378611a2b92151590565b8254612c93565b612cfa90612cf3612d0194612cd9612cd4611992600c612c47565b612c51565b612ceb612ce46110e6565b3390613046565b506006611a14565b600a611a14565b600b611a14565b6103986001600c612ca2565b9061039891612d1e6119b18261178b565b9061163e916130c8565b9061039891612d0d565b61039890612d3f336117aa565b8015612d54575b612d4f90611428565b612d67565b50612d4f612d606127c0565b9050612d46565b61039890612d786115c5600661125e565b6006611a14565b61039890612d32565b610378600861125e565b906103789291612da1336117aa565b8015612db6575b612db190611428565b612dc9565b50612db1612dc26127c0565b9050612da8565b5090612dd482612f6a565b612ddc611aa0565b8111612df3576113fc916113f76113f2600b61125e565b60405163a5a9c2b760e01b8152600490fd5b61037891906000612d92565b61039890612e1e336117aa565b8015612e33575b612e2e90611428565b612e46565b50612e2e612e3f6127c0565b9050612e25565b61039890612e5381612f6a565b6008611a14565b61039890612e11565b61039890612e726125e06127c0565b612e8d565b61036c6103786103789290565b61037890612e77565b612e9a6112ff6000612e84565b612ea38261036c565b14612ef357612eb18161036c565b612eba3361036c565b14612ee15761039890612bbb612ece6110e6565b91612ed981846119c0565b6125f1610e9b565b604051630a98f1f360e21b8152600490fd5b60405163d92e233d60e01b8152600490fd5b61039890612e63565b61037860026104cb565b612f226004611781565b612f2a612f0e565b908114612f3c5761039890600461242d565b604051633ee5aeb560e01b8152600490fd5b61037860016104cb565b610398612f63612f4e565b600461242d565b612f80612f7a6112ff6000612e84565b9161036c565b14612f8757565b60405163e6c4247b60e01b8152600490fd5b612fdc600492612fcd61039895612fb363a9059cbb6116d6565b92612fbd60405190565b9687946020860190815201611599565b602082018103825203836107c9565b613125565b637965db0b60e01b6001600160e01b0319821614908115613000575090565b61037891506001600160e01b0319166301ffc9a760e01b1490565b61039890339061319f565b9060ff90611a0a565b9061303f610378611a2b92151590565b8254613026565b6130536119928383612aa8565b156130c157613073600161306e846000612abd866005611774565b61302f565b61308d613087613081339390565b93610d62565b91610d62565b917f2f8788117e7eff1d82e926ec794901d17c78024a50270940304540a733656f0d6130b860405190565b600090a4600190565b5050600090565b6130d28282612aa8565b156130c1576130ec600061306e8482612abd866005611774565b6130fa613087613081339390565b917ff6391f5c32d9c69d2a47ea670b442974b53935d1edc7fd64eb21e047a839171b6130b860405190565b61313161313891610d62565b91826131d7565b80516131476113d860006104cb565b1415908161317b575b506131585750565b6112e89061316560405190565b635274afe760e01b815291829160048301610cf6565b613199915080602061318e611992935190565b818301019101611585565b38613150565b906131ad6119928284612aa8565b6131b5575050565b6112e86131c160405190565b63e2517d3f60e01b815292839260048401611599565b610378916131e560006104cb565b9161321c565b906131f861084183610a5a565b918252565b3d156132175761320c3d6131eb565b903d6000602084013e565b606090565b9161322630610d62565b81813110613250575060008281926020610378969551920190855af161324a6131fd565b91613273565b6112e89061325d60405190565b63cd78605960e01b815291829160048301610cf6565b9061327e57506132d5565b815161328d6113d860006104cb565b14806132bf575b61329c575090565b6112e8906132a960405190565b639996b31560e01b815291829160048301610cf6565b50803b6132cf6113d860006104cb565b14613294565b80516132e46113d860006104cb565b11156132f257805190602001fd5b604051630a12f52160e11b8152600490fdfea2646970667358221220e9f246971cf80d26f0b5bba52e1ffccd495d70bc29df878465ab29008ea33f1964736f6c63430008190033","linkReferences":{}},"methodIdentifiers":{"ADMIN_ROLE()":"75b238fc","DECIMALS()":"2e0f2625","DEFAULT_ADMIN_ROLE()":"a217fddf","PAUSE_ROLE()":"389ed267","TON_FEES_RATE_DIVIDER()":"08ec897d","addAdmin(address)":"70480275","addPauser(address)":"82dc1ec4","aliveImplementation(address)":"550d01a3","approveGem(address,uint256)":"6fcf2fc9","approveGemFactory()":"07db4470","approveWstonForMarketplace(uint256)":"40e58548","buyGem(uint256,bool)":"02424ed3","counter()":"61bc221a","createPreminedGEM(uint8,uint8[2],uint8[4],string)":"912b431b","createPreminedGEMPool(uint8[],uint8[2][],uint8[4][],string[])":"425c7fc2","getCounter()":"8ada066e","getGemFactoryAddress()":"9d541be2","getRandomPackAddress()":"ec23919a","getRoleAdmin(bytes32)":"248a9ca3","getTONBalance()":"3b22f110","getWSTONBalance()":"bae77ac9","grantRole(bytes32,address)":"2f2ff15d","hasRole(bytes32,address)":"91d14854","incrementCounter()":"5b34b966","initialize(address,address,address)":"c0c53b8b","isAdmin(address)":"24d7806c","isOwner()":"8f32d59b","isPauser(address)":"46fbf68e","onERC721Received(address,address,uint256,bytes)":"150b7a02","pauseProxy()":"63a8fd89","proxyImplementation(uint256)":"b911135f","putGemForSale(uint256,uint256)":"2ede6432","putGemListForSale(uint256[],uint256[])":"79dbd798","removeAdmin()":"9a202d47","removeGemFromSale(uint256)":"98d111b2","removePauser(address)":"6b2c0f55","renounceRole(bytes32,address)":"36568abe","revokeRole(bytes32,address)":"d547741f","selectorImplementation(bytes4)":"50d2a276","setAirdrop(address)":"72820dbc","setGemFactory(address)":"e6147518","setMarketPlace(address)":"30568a8d","setRandomPack(address)":"ed8c2472","setWstonSwapPool(address)":"b23a1d0d","supportsInterface(bytes4)":"01ffc9a7","swapTONforWSTON(uint256)":"0d727e2b","tonApproveMarketPlace()":"520aefae","tonApproveWstonSwapPool()":"20e641b7","transferOwnership(address)":"f2fde38b","transferTON(address,uint256)":"ec7ae61d","transferTreasuryGEMto(address,uint256)":"48dbcef0","transferWSTON(address,uint256)":"0169dc31","wstonApproveMarketPlace()":"91005b08"},"id":111}