{
  "_format": "hh-sol-artifact-1",
  "contractName": "WTON",
  "sourceName": "src/L1/Mock/token/WTON.sol",
  "abi": [
    {
      "inputs": [
        {
          "internalType": "contract TON",
          "name": "_ton",
          "type": "address"
        }
      ],
      "stateMutability": "nonpayable",
      "type": "constructor"
    },
    {
      "inputs": [
        {
          "internalType": "address",
          "name": "spender",
          "type": "address"
        },
        {
          "internalType": "uint256",
          "name": "allowance",
          "type": "uint256"
        },
        {
          "internalType": "uint256",
          "name": "needed",
          "type": "uint256"
        }
      ],
      "name": "ERC20InsufficientAllowance",
      "type": "error"
    },
    {
      "inputs": [
        {
          "internalType": "address",
          "name": "sender",
          "type": "address"
        },
        {
          "internalType": "uint256",
          "name": "balance",
          "type": "uint256"
        },
        {
          "internalType": "uint256",
          "name": "needed",
          "type": "uint256"
        }
      ],
      "name": "ERC20InsufficientBalance",
      "type": "error"
    },
    {
      "inputs": [
        {
          "internalType": "address",
          "name": "approver",
          "type": "address"
        }
      ],
      "name": "ERC20InvalidApprover",
      "type": "error"
    },
    {
      "inputs": [
        {
          "internalType": "address",
          "name": "receiver",
          "type": "address"
        }
      ],
      "name": "ERC20InvalidReceiver",
      "type": "error"
    },
    {
      "inputs": [
        {
          "internalType": "address",
          "name": "sender",
          "type": "address"
        }
      ],
      "name": "ERC20InvalidSender",
      "type": "error"
    },
    {
      "inputs": [
        {
          "internalType": "address",
          "name": "spender",
          "type": "address"
        }
      ],
      "name": "ERC20InvalidSpender",
      "type": "error"
    },
    {
      "inputs": [
        {
          "internalType": "address",
          "name": "owner",
          "type": "address"
        }
      ],
      "name": "OwnableInvalidOwner",
      "type": "error"
    },
    {
      "inputs": [
        {
          "internalType": "address",
          "name": "account",
          "type": "address"
        }
      ],
      "name": "OwnableUnauthorizedAccount",
      "type": "error"
    },
    {
      "inputs": [],
      "name": "ReentrancyGuardReentrantCall",
      "type": "error"
    },
    {
      "anonymous": false,
      "inputs": [
        {
          "indexed": true,
          "internalType": "address",
          "name": "owner",
          "type": "address"
        },
        {
          "indexed": true,
          "internalType": "address",
          "name": "spender",
          "type": "address"
        },
        {
          "indexed": false,
          "internalType": "uint256",
          "name": "value",
          "type": "uint256"
        }
      ],
      "name": "Approval",
      "type": "event"
    },
    {
      "anonymous": false,
      "inputs": [
        {
          "indexed": false,
          "internalType": "address",
          "name": "layer2",
          "type": "address"
        }
      ],
      "name": "DepositManagerOnApproveData",
      "type": "event"
    },
    {
      "anonymous": false,
      "inputs": [
        {
          "indexed": true,
          "internalType": "address",
          "name": "previousOwner",
          "type": "address"
        },
        {
          "indexed": true,
          "internalType": "address",
          "name": "newOwner",
          "type": "address"
        }
      ],
      "name": "OwnershipTransferred",
      "type": "event"
    },
    {
      "anonymous": false,
      "inputs": [
        {
          "indexed": true,
          "internalType": "address",
          "name": "from",
          "type": "address"
        },
        {
          "indexed": true,
          "internalType": "address",
          "name": "to",
          "type": "address"
        },
        {
          "indexed": false,
          "internalType": "uint256",
          "name": "value",
          "type": "uint256"
        }
      ],
      "name": "Transfer",
      "type": "event"
    },
    {
      "anonymous": false,
      "inputs": [],
      "name": "WtonMinted",
      "type": "event"
    },
    {
      "inputs": [
        {
          "internalType": "address",
          "name": "owner",
          "type": "address"
        },
        {
          "internalType": "address",
          "name": "spender",
          "type": "address"
        }
      ],
      "name": "allowance",
      "outputs": [
        {
          "internalType": "uint256",
          "name": "",
          "type": "uint256"
        }
      ],
      "stateMutability": "view",
      "type": "function"
    },
    {
      "inputs": [
        {
          "internalType": "address",
          "name": "spender",
          "type": "address"
        },
        {
          "internalType": "uint256",
          "name": "value",
          "type": "uint256"
        }
      ],
      "name": "approve",
      "outputs": [
        {
          "internalType": "bool",
          "name": "",
          "type": "bool"
        }
      ],
      "stateMutability": "nonpayable",
      "type": "function"
    },
    {
      "inputs": [
        {
          "internalType": "address",
          "name": "spender",
          "type": "address"
        },
        {
          "internalType": "uint256",
          "name": "amount",
          "type": "uint256"
        },
        {
          "internalType": "bytes",
          "name": "data",
          "type": "bytes"
        }
      ],
      "name": "approveAndCall",
      "outputs": [
        {
          "internalType": "bool",
          "name": "",
          "type": "bool"
        }
      ],
      "stateMutability": "nonpayable",
      "type": "function"
    },
    {
      "inputs": [
        {
          "internalType": "address",
          "name": "account",
          "type": "address"
        }
      ],
      "name": "balanceOf",
      "outputs": [
        {
          "internalType": "uint256",
          "name": "",
          "type": "uint256"
        }
      ],
      "stateMutability": "view",
      "type": "function"
    },
    {
      "inputs": [
        {
          "internalType": "uint256",
          "name": "value",
          "type": "uint256"
        }
      ],
      "name": "burn",
      "outputs": [],
      "stateMutability": "nonpayable",
      "type": "function"
    },
    {
      "inputs": [
        {
          "internalType": "address",
          "name": "account",
          "type": "address"
        },
        {
          "internalType": "uint256",
          "name": "amount",
          "type": "uint256"
        }
      ],
      "name": "burnFrom",
      "outputs": [],
      "stateMutability": "nonpayable",
      "type": "function"
    },
    {
      "inputs": [],
      "name": "decimals",
      "outputs": [
        {
          "internalType": "uint8",
          "name": "",
          "type": "uint8"
        }
      ],
      "stateMutability": "view",
      "type": "function"
    },
    {
      "inputs": [
        {
          "internalType": "address",
          "name": "_to",
          "type": "address"
        },
        {
          "internalType": "uint256",
          "name": "_amount",
          "type": "uint256"
        }
      ],
      "name": "mint",
      "outputs": [
        {
          "internalType": "bool",
          "name": "",
          "type": "bool"
        }
      ],
      "stateMutability": "nonpayable",
      "type": "function"
    },
    {
      "inputs": [],
      "name": "name",
      "outputs": [
        {
          "internalType": "string",
          "name": "",
          "type": "string"
        }
      ],
      "stateMutability": "view",
      "type": "function"
    },
    {
      "inputs": [
        {
          "internalType": "address",
          "name": "owner",
          "type": "address"
        },
        {
          "internalType": "address",
          "name": "",
          "type": "address"
        },
        {
          "internalType": "uint256",
          "name": "tonAmount",
          "type": "uint256"
        },
        {
          "internalType": "bytes",
          "name": "data",
          "type": "bytes"
        }
      ],
      "name": "onApprove",
      "outputs": [
        {
          "internalType": "bool",
          "name": "",
          "type": "bool"
        }
      ],
      "stateMutability": "nonpayable",
      "type": "function"
    },
    {
      "inputs": [],
      "name": "owner",
      "outputs": [
        {
          "internalType": "address",
          "name": "",
          "type": "address"
        }
      ],
      "stateMutability": "view",
      "type": "function"
    },
    {
      "inputs": [],
      "name": "renounceOwnership",
      "outputs": [],
      "stateMutability": "nonpayable",
      "type": "function"
    },
    {
      "inputs": [
        {
          "internalType": "bytes4",
          "name": "interfaceId",
          "type": "bytes4"
        }
      ],
      "name": "supportsInterface",
      "outputs": [
        {
          "internalType": "bool",
          "name": "",
          "type": "bool"
        }
      ],
      "stateMutability": "view",
      "type": "function"
    },
    {
      "inputs": [
        {
          "internalType": "uint256",
          "name": "tonAmount",
          "type": "uint256"
        }
      ],
      "name": "swapFromTON",
      "outputs": [
        {
          "internalType": "bool",
          "name": "",
          "type": "bool"
        }
      ],
      "stateMutability": "nonpayable",
      "type": "function"
    },
    {
      "inputs": [
        {
          "internalType": "address",
          "name": "to",
          "type": "address"
        },
        {
          "internalType": "uint256",
          "name": "tonAmount",
          "type": "uint256"
        }
      ],
      "name": "swapFromTONAndTransfer",
      "outputs": [
        {
          "internalType": "bool",
          "name": "",
          "type": "bool"
        }
      ],
      "stateMutability": "nonpayable",
      "type": "function"
    },
    {
      "inputs": [
        {
          "internalType": "uint256",
          "name": "wtonAmount",
          "type": "uint256"
        }
      ],
      "name": "swapToTON",
      "outputs": [
        {
          "internalType": "bool",
          "name": "",
          "type": "bool"
        }
      ],
      "stateMutability": "nonpayable",
      "type": "function"
    },
    {
      "inputs": [
        {
          "internalType": "address",
          "name": "to",
          "type": "address"
        },
        {
          "internalType": "uint256",
          "name": "wtonAmount",
          "type": "uint256"
        }
      ],
      "name": "swapToTONAndTransfer",
      "outputs": [
        {
          "internalType": "bool",
          "name": "",
          "type": "bool"
        }
      ],
      "stateMutability": "nonpayable",
      "type": "function"
    },
    {
      "inputs": [],
      "name": "symbol",
      "outputs": [
        {
          "internalType": "string",
          "name": "",
          "type": "string"
        }
      ],
      "stateMutability": "view",
      "type": "function"
    },
    {
      "inputs": [],
      "name": "ton",
      "outputs": [
        {
          "internalType": "contract TON",
          "name": "",
          "type": "address"
        }
      ],
      "stateMutability": "view",
      "type": "function"
    },
    {
      "inputs": [],
      "name": "totalSupply",
      "outputs": [
        {
          "internalType": "uint256",
          "name": "",
          "type": "uint256"
        }
      ],
      "stateMutability": "view",
      "type": "function"
    },
    {
      "inputs": [
        {
          "internalType": "address",
          "name": "to",
          "type": "address"
        },
        {
          "internalType": "uint256",
          "name": "value",
          "type": "uint256"
        }
      ],
      "name": "transfer",
      "outputs": [
        {
          "internalType": "bool",
          "name": "",
          "type": "bool"
        }
      ],
      "stateMutability": "nonpayable",
      "type": "function"
    },
    {
      "inputs": [
        {
          "internalType": "address",
          "name": "from",
          "type": "address"
        },
        {
          "internalType": "address",
          "name": "to",
          "type": "address"
        },
        {
          "internalType": "uint256",
          "name": "value",
          "type": "uint256"
        }
      ],
      "name": "transferFrom",
      "outputs": [
        {
          "internalType": "bool",
          "name": "",
          "type": "bool"
        }
      ],
      "stateMutability": "nonpayable",
      "type": "function"
    },
    {
      "inputs": [
        {
          "internalType": "address",
          "name": "newOwner",
          "type": "address"
        }
      ],
      "name": "transferOwnership",
      "outputs": [],
      "stateMutability": "nonpayable",
      "type": "function"
    }
  ],
  "bytecode": "0x6080346103a757601f90601f196001600160401b036116843881900385810184168501838111868210176103ac578592829160405283396020948591810103126103a757516001600160a01b0380821695909490918690036103a7576100636103c2565b600b81526a2bb930b83832b2102a27a760a91b828201526100826103c2565b91600495868452632baa27a760e11b82850152600196600093888555331561038f578854336001600160a01b031980831682178c559b9091167f8be0079c531659141344cd1fd0a4f28419497f9722a3daafe3b4186f6b6457e08780a3805188811161037c5760059182548b81811c91168015610372575b8782101461035f5790818a849311610313575b5086908a83116001146102ae5788926102a3575b5050600019600383901b1c1916908a1b1781555b855197881161029057600654918983811c93168015610286575b858410146102735750868211610231575b5050819486116001146101ce575050918394918493946101c3575b50501b916000199060031b1c1916176006555b736e1734ac57e76fcd7fd66266ae0c2547db3a713a81600754161760075560085416176008556040516112a290816103e28239f35b01519250388061017b565b600683528183209493928692918316915b8883831061021757505050106101fe575b505050811b0160065561018e565b015160001960f88460031b161c191690553880806101f0565b8587015188559096019594850194879350908101906101df565b600685528385209087808a01821c830193868b1061026a575b01901c019088905b82811061025f5750610160565b858155018890610252565b9350829361024a565b634e487b7160e01b865260229052602485fd5b92607f169261014f565b634e487b7160e01b855260418252602485fd5b015190503880610121565b90868d941691858a52888a20928a5b8a8282106102f457505084116102db575b505050811b018155610135565b015160001960f88460031b161c191690553880806102ce565b91929395968291958786015181550195019301908e95949392916102bd565b9091508388528688208a808501861c820192898610610356575b918e918695949301871c01915b82811061034857505061010d565b8a81558594508e910161033a565b9250819261032d565b634e487b7160e01b885260228552602488fd5b90607f16906100fa565b634e487b7160e01b865260418352602486fd5b604051631e4fbdf760e01b8152808301869052602490fd5b600080fd5b634e487b7160e01b600052604160045260246000fd5b60408051919082016001600160401b038111838210176103ac5760405256fe6080604052600436101561001257600080fd5b60003560e01c806301ffc9a71461018757806306fdde0314610182578063095ea7b31461017d57806318160ddd1461017857806323b872dd14610173578063313ce5671461016e57806340c10f19146101695780634273ca161461016457806342966c681461015f578063588420b71461015a57806370a0823114610155578063715018a61461015057806379cc67901461014b5780638da5cb5b1461014657806395d89b4114610141578063a9059cbb1461013c578063cae9ca5114610137578063cc48b94714610132578063dd62ed3e1461012d578063e34869d714610128578063e3b99e8514610123578063f2fde38b1461011e5763f53fe70f1461011957600080fd5b610a3e565b6109b6565b610985565b61095d565b610911565b6108e8565b610811565b61074a565b610684565b61065b565b610636565b6105d8565b61059e565b61055f565b610540565b6104c2565b61046d565b610451565b6103af565b610391565b610360565b610225565b346101c15760203660031901126101c15760043563ffffffff60e01b81168091036101c1576040516301ffc9a760e01b9091148152602090f35b600080fd5b60009103126101c157565b919082519283825260005b8481106101fd575050826000602080949584010152601f8019910116010190565b6020818301810151848301820152016101dc565b9060206102229281815201906101d1565b90565b346101c157600080600319360112610331576040519080600554906001918060011c9260018216928315610327575b6020926020861085146103135785885260208801949081156102f25750600114610299575b610295876102898189038261079e565b60405191829182610211565b0390f35b600560005294509192917f036b6384b5eca791c62761152d0c79bb0604c104a5fb6f4eb0703f3154bb3db05b8386106102e15750505091019050610289826102953880610279565b8054858701529482019481016102c5565b60ff191685525050505090151560051b019050610289826102953880610279565b634e487b7160e01b82526022600452602482fd5b93607f1693610254565b80fd5b600435906001600160a01b03821682036101c157565b602435906001600160a01b03821682036101c157565b346101c15760403660031901126101c15761038661037c610334565b6024359033611196565b602060405160018152f35b346101c15760003660031901126101c1576020600454604051908152f35b346101c15760603660031901126101c1576103c8610334565b6103d061034a565b6044359060018060a01b03831660005260036020526103f3336040600020610b93565b549260018401610414575b6104089350610c07565b60405160018152602090f35b8284106104305761042b8361040895033383611225565b6103fe565b604051637dc7a0d960e11b81528061044d85873360048501610be9565b0390fd5b346101c15760003660031901126101c1576020604051601b8152f35b346101c15760403660031901126101c157610492610489610334565b60243590610cca565b60206040517f0989d9f2a7d52878602a18adb24e8b8687f1f764d9bbd018ebe64dce63d4f01b600080a160018152f35b346101c15760803660031901126101c1576104db610334565b6104e361034a565b506064356001600160401b038082116101c157366023830112156101c15781600401359081116101c15736602482840101116101c15761029592602461052e93019060443590610a66565b60405190151581529081906020820190565b346101c15760203660031901126101c15761055d60043533610f43565b005b346101c15760403660031901126101c157602061058f61057d610334565b610585610fba565b6024359033610d1f565b60016000556040519015158152f35b346101c15760203660031901126101c1576001600160a01b036105bf610334565b1660005260026020526020604060002054604051908152f35b346101c157600080600319360112610331576105f2610fdd565b600180546001600160a01b0319811690915581906001600160a01b03167f8be0079c531659141344cd1fd0a4f28419497f9722a3daafe3b4186f6b6457e08280a380f35b346101c15760403660031901126101c15761055d610652610334565b60243590610f43565b346101c15760003660031901126101c1576001546040516001600160a01b039091168152602090f35b346101c157600080600319360112610331576040519080600654906001918060011c9260018216928315610740575b6020926020861085146103135785885260208801949081156102f257506001146106e757610295876102898189038261079e565b600660005294509192917ff652222313e28459528d920b65115c16c04f3efc82aaedc97be59f3f377c0d3f5b83861061072f5750505091019050610289826102953880610279565b805485870152948201948101610713565b93607f16936106b3565b346101c15760403660031901126101c157610386610766610334565b6024359033610c07565b634e487b7160e01b600052604160045260246000fd5b6001600160401b03811161079957604052565b610770565b90601f801991011681019081106001600160401b0382111761079957604052565b6001600160401b03811161079957601f01601f191660200190565b9291926107e6826107bf565b916107f4604051938461079e565b8294818452818301116101c1578281602093846000960137010152565b346101c15760603660031901126101c15761082a610334565b6024356044356001600160401b0381116101c157366023820112156101c15761085d9036906024816004013591016107da565b60075460405163095ea7b360e01b81529192919060209082906001600160a01b031681600081610891888b60048401610bc2565b03925af19081156108e3576000916108b4575b50156101c1576104089233610e97565b6108d6915060203d6020116108dc575b6108ce818361079e565b810190610baa565b386108a4565b503d6108c4565b610bdd565b346101c15760003660031901126101c1576008546040516001600160a01b039091168152602090f35b346101c15760403660031901126101c157602061095461092f610334565b61093761034a565b6001600160a01b0390911660009081526003845260409020610b93565b54604051908152f35b346101c15760203660031901126101c157610976610fba565b602061058f6004353333610d1f565b346101c15760403660031901126101c157602061058f6109a3610334565b6109ab610fba565b602435903390611025565b346101c15760203660031901126101c1576109cf610334565b6109d7610fdd565b6001600160a01b03908116908115610a2557600180546001600160a01b031981168417909155167f8be0079c531659141344cd1fd0a4f28419497f9722a3daafe3b4186f6b6457e0600080a3005b604051631e4fbdf760e01b815260006004820152602490fd5b346101c15760203660031901126101c157610a57610fba565b602061058f6004353333611025565b6008549193909290916001600160a01b03163303610b0b57610aa5610aaa91610a9d86610a97610b06988880610d1f565b50610db5565b9336916107da565b610dce565b92610ab6838383611196565b7fd0aa23d1c7a13990297d5bd73e52289ecb3893b09d3f356c4b3e5515c87167aa610afe610ae386610de5565b6040516001600160a01b039097168752959081906020820190565b0390a1610e97565b600190565b60405162461bcd60e51b815260206004820152602660248201527f57544f4e3a206f6e6c792061636365707420544f4e20617070726f76652063616044820152656c6c6261636b60d01b6064820152608490fd5b6001600160a01b0316600090815260036020526040902090565b6001600160a01b0316600090815260026020526040902090565b9060018060a01b0316600052602052604060002090565b908160209103126101c1575180151581036101c15790565b6001600160a01b039091168152602081019190915260400190565b6040513d6000823e3d90fd5b604091949392606082019560018060a01b0316825260208201520152565b916001600160a01b0380841692908315610cb1578116938415610c9857610c2d81610b79565b54838110610c7a57610c75928492610c5960008051602061124d83398151915296610c5f940391610b79565b55610b79565b8054820190556040519081529081906020820190565b0390a3565b9061044d8460405193849363391434e360e21b855260048501610be9565b60405163ec442f0560e01b815260006004820152602490fd5b604051634b637e8f60e11b815260006004820152602490fd5b6001600160a01b03811691908215610c985760045490828201809211610d1a57600092610d0b60209260008051602061124d83398151915294600455610b79565b818154019055604051908152a3565b610d9f565b610d34602092610d2e85610db5565b90610cca565b6008546040516323b872dd60e01b81526001600160a01b039283166004820152306024820152604481019490945283916064918391600091165af180156108e357610d80575b50600190565b610d989060203d6020116108dc576108ce818361079e565b5038610d7a565b634e487b7160e01b600052601160045260246000fd5b90633b9aca0091828102928184041490151715610d1a57565b9060408251036101c1576040602083015192015190565b9060405191604083018381106001600160401b0382111761079957604052602083526020830152565b15610e165750565b60405162461bcd60e51b81526020600482015290819061044d9060248301906101d1565b15610e4157565b60405162461bcd60e51b815260206004820152602860248201527f45524332304f6e417070726f76653a206661696c656420746f2063616c6c206f6044820152676e417070726f766560c01b6064820152608490fd5b600091829182610f3596610ef8602097610eea6040519384928b840197632139e50b60e11b895260018060a01b0380911660248601528916604485015260648401526080608484015260a48301906101d1565b03601f19810183528261079e565b51925af13d15610f3757610f2e3d610f0f816107bf565b90610f1d604051928361079e565b81529182903d60008684013e610e0e565b0151610e3a565b565b610f2e60608092610e0e565b91906001600160a01b038316908115610cb157610f5f84610b79565b5493818510610f9c5781602091610f8a60008051602061124d83398151915294600097980391610b79565b558060045403600455604051908152a3565b61044d859260405193849363391434e360e21b855260048501610be9565b600260005414610fcb576002600055565b604051633ee5aeb560e01b8152600490fd5b6001546001600160a01b03163303610ff157565b60405163118cdaa760e01b8152336004820152602490fd5b908160209103126101c1575190565b91908203918211610d1a57565b9161103581633b9aca0093610f43565b60085491900490611056906001600160a01b03165b6001600160a01b031690565b6040516370a0823160e01b8152306004820152602093919290918483602481875afa80156108e3578593600091611169575b508281106110ff575b506008546110cb94506110ac906001600160a01b031661104a565b90600060405180968195829463a9059cbb60e01b845260048401610bc2565b03925af180156108e3576110e1575b5050600190565b816110f792903d106108dc576108ce818361079e565b5038806110da565b61110b91935082611018565b92803b156101c1576040516340c10f1960e01b815293600091859182908490829061113a903060048401610bc2565b03925af19182156108e3576110cb93859315611091578061115d61116392610786565b806101c6565b38611091565b6111899150843d861161118f575b611181818361079e565b810190611009565b38611088565b503d611177565b6001600160a01b03808216929190831561120c5782169384156111f357806111e97f8c5be1e5ebec7d5bd14f71427d1e84f3dd0314c0f7b2291e5b200ac8c7c3b925946111e4602095610b5f565b610b93565b55604051908152a3565b604051634a1406b160e11b815260006004820152602490fd5b60405163e602df0560e01b815260006004820152602490fd5b906001600160a01b038083161561120c578116156111f3576111e461124992610b5f565b5556feddf252ad1be2c89b69c2b068fc378daa952ba7f163c4a11628f55a4df523b3efa26469706673582212207a92086b51dce358533cdf61c14d101060324e665a943990f1a047484b3b716764736f6c63430008190033",
  "linkReferences": {},
  "deployedLinkReferences": {}
}