{"abi":[{"type":"constructor","inputs":[],"stateMutability":"nonpayable"},{"type":"function","name":"allowance","inputs":[{"name":"owner","type":"address","internalType":"address"},{"name":"spender","type":"address","internalType":"address"}],"outputs":[{"name":"","type":"uint256","internalType":"uint256"}],"stateMutability":"view"},{"type":"function","name":"approve","inputs":[{"name":"spender","type":"address","internalType":"address"},{"name":"value","type":"uint256","internalType":"uint256"}],"outputs":[{"name":"","type":"bool","internalType":"bool"}],"stateMutability":"nonpayable"},{"type":"function","name":"approveAndCall","inputs":[{"name":"spender","type":"address","internalType":"address"},{"name":"amount","type":"uint256","internalType":"uint256"},{"name":"data","type":"bytes","internalType":"bytes"}],"outputs":[{"name":"","type":"bool","internalType":"bool"}],"stateMutability":"nonpayable"},{"type":"function","name":"balanceOf","inputs":[{"name":"account","type":"address","internalType":"address"}],"outputs":[{"name":"","type":"uint256","internalType":"uint256"}],"stateMutability":"view"},{"type":"function","name":"callbackEnabled","inputs":[],"outputs":[{"name":"","type":"bool","internalType":"bool"}],"stateMutability":"view"},{"type":"function","name":"decimals","inputs":[],"outputs":[{"name":"","type":"uint8","internalType":"uint8"}],"stateMutability":"view"},{"type":"function","name":"enableCallback","inputs":[{"name":"_callbackEnabled","type":"bool","internalType":"bool"}],"outputs":[],"stateMutability":"nonpayable"},{"type":"function","name":"mint","inputs":[{"name":"_to","type":"address","internalType":"address"},{"name":"_amount","type":"uint256","internalType":"uint256"}],"outputs":[],"stateMutability":"nonpayable"},{"type":"function","name":"name","inputs":[],"outputs":[{"name":"","type":"string","internalType":"string"}],"stateMutability":"view"},{"type":"function","name":"owner","inputs":[],"outputs":[{"name":"","type":"address","internalType":"address"}],"stateMutability":"view"},{"type":"function","name":"renounceOwnership","inputs":[],"outputs":[],"stateMutability":"nonpayable"},{"type":"function","name":"seigManager","inputs":[],"outputs":[{"name":"","type":"address","internalType":"contract ISeigManager"}],"stateMutability":"view"},{"type":"function","name":"setSeigManager","inputs":[{"name":"_seigManager","type":"address","internalType":"contract ISeigManager"}],"outputs":[],"stateMutability":"nonpayable"},{"type":"function","name":"symbol","inputs":[],"outputs":[{"name":"","type":"string","internalType":"string"}],"stateMutability":"view"},{"type":"function","name":"totalSupply","inputs":[],"outputs":[{"name":"","type":"uint256","internalType":"uint256"}],"stateMutability":"view"},{"type":"function","name":"transfer","inputs":[{"name":"to","type":"address","internalType":"address"},{"name":"value","type":"uint256","internalType":"uint256"}],"outputs":[{"name":"","type":"bool","internalType":"bool"}],"stateMutability":"nonpayable"},{"type":"function","name":"transferFrom","inputs":[{"name":"from","type":"address","internalType":"address"},{"name":"to","type":"address","internalType":"address"},{"name":"value","type":"uint256","internalType":"uint256"}],"outputs":[{"name":"","type":"bool","internalType":"bool"}],"stateMutability":"nonpayable"},{"type":"function","name":"transferOwnership","inputs":[{"name":"newOwner","type":"address","internalType":"address"}],"outputs":[],"stateMutability":"nonpayable"},{"type":"event","name":"Approval","inputs":[{"name":"owner","type":"address","indexed":true,"internalType":"address"},{"name":"spender","type":"address","indexed":true,"internalType":"address"},{"name":"value","type":"uint256","indexed":false,"internalType":"uint256"}],"anonymous":false},{"type":"event","name":"OwnershipTransferred","inputs":[{"name":"previousOwner","type":"address","indexed":true,"internalType":"address"},{"name":"newOwner","type":"address","indexed":true,"internalType":"address"}],"anonymous":false},{"type":"event","name":"Transfer","inputs":[{"name":"from","type":"address","indexed":true,"internalType":"address"},{"name":"to","type":"address","indexed":true,"internalType":"address"},{"name":"value","type":"uint256","indexed":false,"internalType":"uint256"}],"anonymous":false},{"type":"error","name":"ERC20InsufficientAllowance","inputs":[{"name":"spender","type":"address","internalType":"address"},{"name":"allowance","type":"uint256","internalType":"uint256"},{"name":"needed","type":"uint256","internalType":"uint256"}]},{"type":"error","name":"ERC20InsufficientBalance","inputs":[{"name":"sender","type":"address","internalType":"address"},{"name":"balance","type":"uint256","internalType":"uint256"},{"name":"needed","type":"uint256","internalType":"uint256"}]},{"type":"error","name":"ERC20InvalidApprover","inputs":[{"name":"approver","type":"address","internalType":"address"}]},{"type":"error","name":"ERC20InvalidReceiver","inputs":[{"name":"receiver","type":"address","internalType":"address"}]},{"type":"error","name":"ERC20InvalidSender","inputs":[{"name":"sender","type":"address","internalType":"address"}]},{"type":"error","name":"ERC20InvalidSpender","inputs":[{"name":"spender","type":"address","internalType":"address"}]},{"type":"error","name":"OwnableInvalidOwner","inputs":[{"name":"owner","type":"address","internalType":"address"}]},{"type":"error","name":"OwnableUnauthorizedAccount","inputs":[{"name":"account","type":"address","internalType":"address"}]}],"bytecode":{"object":"0x608060405234610028575b610012610166565b61001a61002d565b6118ff61061c82396118ff90f35b610033565b60405190565b600080fd5b601f801991011690565b634e487b7160e01b600052604160045260246000fd5b9061006290610038565b810190811060018060401b0382111761007b575b604052565b610042565b9061009361008c61002d565b9283610058565b565b60018060401b0381116100b2575b6100ae602091610038565b0190565b610042565b906100c96100c483610095565b610080565b918252565b60007f546f6b616d616b204e6574776f726b20546f6b656e0000000000000000000000910152565b61010060156100b7565b9061010d602083016100ce565b565b6101176100f6565b90565b60007f544f4e0000000000000000000000000000000000000000000000000000000000910152565b61014c60036100b7565b906101596020830161011a565b565b610163610142565b90565b61017f61017161010f565b61017961015b565b90610181565b565b9061018c9133610217565b565b60001b90565b906101a560018060a01b039161018e565b91811990169116901790565b60018060a01b03901690565b90565b6101d46101cf6101d9926101b1565b6101bd565b6101b1565b90565b6101e5906101c0565b90565b6101f1906101dc565b90565b90565b9061020c610207610213926101e8565b6101f4565b8254610194565b9055565b90610222929161029d565b610241736e1734ac57e76fcd7fd66266ae0c2547db3a713a60066101f7565b565b90565b61025a61025561025f92610243565b6101bd565b6101b1565b90565b61026b90610246565b90565b610277906101b1565b90565b6102839061026e565b9052565b919061029b9060006020850194019061027a565b565b916102a79161056a565b6102b16000610262565b6102ba8161026e565b6102c38361026e565b146102d5575b506102d3906105bc565b565b6102f7906102e161002d565b918291631e4fbdf760e01b835260048301610287565b0390fd5b5190565b634e487b7160e01b600052602260045260246000fd5b9060016002830492168015610337575b602083109014610332575b565b6102ff565b91607f901691610325565b8050600052602060002090565b601f602091010490565b1b90565b9190600861037991029161037360001984610359565b92610359565b91811990169116901790565b90565b61039c6103976103a192610385565b6101bd565b610385565b90565b90565b91906103bd6103b86103c593610388565b6103a4565b90835461035d565b9055565b600090565b6103e0916103da6103c9565b916103a7565b565b5b8181106103ef575b5050565b806103fd60006001936103ce565b016103e3565b9190601f8111610413575b505050565b61041f61044593610342565b90602061042b8461034f565b8301931061044d575b61043d9061034f565b9001906103e2565b38808061040e565b915061043d81929050610434565b1c90565b90610470906000199060080261045b565b19901690565b816104809161045f565b90600202901790565b90610493816102fb565b9060018060401b038211610559575b6104b6826104b08554610315565b85610403565b600050602090601f83116001146104ef575b9180916104de936000926104e3575b5050610476565b90555b565b909150015138806104d7565b601f198316916104fe85610342565b9260005b818110610541575b509160029391856001969410610527575b505050020190556104e1565b610537910151601f84169061045f565b905538808061051b565b91936020600181928787015181550195019201610502565b610042565b9061056891610489565b565b9061057961058092600361055e565b600461055e565b565b60001c90565b60018060a01b03901690565b6105a06105a591610582565b610588565b90565b6105b29054610594565b90565b6000900190565b6105e26105dc6105cc60056105a8565b6105d78460056101f7565b6101e8565b916101e8565b907f8be0079c531659141344cd1fd0a4f28419497f9722a3daafe3b4186f6b6457e061060c61002d565b80610616816105b5565b0390a356fe60806040526004361015610013575b610a45565b61001e600035610154565b806306fdde031461014f575b8063095ea7b31461014a575b806318160ddd14610145575b806323b872dd14610140575b80633113ed5c1461013b575b8063313ce56714610136575b806340c10f1914610131575b8063633801131461012c575b80636fb7f55814610127575b806370a0823114610122575b8063715018a61461011d575b80637657f20a14610118575b80638da5cb5b14610113575b806395d89b411461010e575b8063a9059cbb14610109575b8063cae9ca5114610104575b8063dd62ed3e146100ff575b63f2fde38b146100fa575b61000e565b610a11565b6109da565b610974565b6107ff565b6107c9565b610793565b61073c565b6106b5565b61067f565b610629565b610558565b6104e3565b6104ad565b61044f565b6103ca565b610358565b6102fe565b610203565b60e01c90565b60405190565b600080fd5b600080fd5b6000910312610176575b565b610165565b5190565b60209181520190565b60005b83811061019d575b5050906000910152565b80602091830151818501520161018b565b601f801991011690565b6101d76101e06020936101e5936101ce8161017b565b9384809361017f565b95869101610188565b6101ae565b900190565b61020091602082019160008184039101526101b8565b90565b34610234575b61021436600461016a565b61023061021f610b76565b61022761015a565b918291826101ea565b0390f35b610160565b600080fd5b60018060a01b03901690565b6102539061023e565b90565b61025f8161024a565b901415610269575b565b600080fd5b9050359061027b82610256565b565b90565b6102898161027d565b901415610293575b565b600080fd5b905035906102a582610280565b565b91906040838203126102d1575b8060206102c76102ce936000870161026e565b9401610298565b90565b610165565b151590565b6102e4906102d6565b9052565b91906102fc906000602085019401906102db565b565b34610330575b61032c61031b6103153660046102a7565b90610b91565b61032361015a565b918291826102e8565b0390f35b610160565b61033e9061027d565b9052565b919061035690600060208501940190610335565b565b34610389575b61036936600461016a565b610385610374610be0565b61037c61015a565b91829182610342565b0390f35b610160565b90916060828403126103c5575b6103c26103ab846000850161026e565b9360406103bb826020870161026e565b9401610298565b90565b610165565b346103fc575b6103f86103e76103e136600461038e565b91610bf6565b6103ef61015a565b918291826102e8565b0390f35b610160565b61040a816102d6565b901415610414575b565b600080fd5b9050359061042682610401565b565b90602082820312610443575b60006104409201610419565b90565b610165565b6000900190565b3461047e575b610468610463366004610428565b610c91565b61047061015a565b8061047a81610448565b0390f35b610160565b60ff901690565b61049390610483565b9052565b91906104ab9060006020850194019061048a565b565b346104de575b6104be36600461016a565b6104da6104c9610cc0565b6104d161015a565b91829182610497565b0390f35b610160565b34610513575b6104fd6104f73660046102a7565b90610cd6565b61050561015a565b8061050f81610448565b0390f35b610160565b1c90565b60ff901690565b6105339060086105389302610518565b61051c565b90565b906105469154610523565b90565b6105556014600761053b565b90565b34610589575b61056936600461016a565b610585610574610549565b61057c61015a565b918291826102e8565b0390f35b610160565b60018060a01b03901690565b6105aa9060086105af9302610518565b61058e565b90565b906105bd915461059a565b90565b6105cc600060076105b2565b90565b90565b6105e66105e16105eb9261023e565b6105cf565b61023e565b90565b6105f7906105d2565b90565b610603906105ee565b90565b61060f906105fa565b9052565b919061062790600060208501940190610606565b565b3461065a575b61063a36600461016a565b6106566106456105c0565b61064d61015a565b91829182610613565b0390f35b610160565b9060208282031261067a575b6000610677920161026e565b90565b610165565b346106b0575b6106ac61069b61069636600461065f565b610d06565b6106a361015a565b91829182610342565b0390f35b610160565b346106e4575b6106c636600461016a565b6106ce610d76565b6106d661015a565b806106e081610448565b0390f35b610160565b6106f29061024a565b90565b6106fe816106e9565b901415610708575b565b600080fd5b9050359061071a826106f5565b565b90602082820312610737575b6000610734920161070d565b90565b610165565b3461076b575b61075561075036600461071c565b610dfe565b61075d61015a565b8061076781610448565b0390f35b610160565b6107799061024a565b9052565b919061079190600060208501940190610770565b565b346107c4575b6107a436600461016a565b6107c06107af610e3b565b6107b761015a565b9182918261077d565b0390f35b610160565b346107fa575b6107da36600461016a565b6107f66107e5610e51565b6107ed61015a565b918291826101ea565b0390f35b610160565b34610831575b61082d61081c6108163660046102a7565b90610e67565b61082461015a565b918291826102e8565b0390f35b610160565b600080fd5b600080fd5b634e487b7160e01b600052604160045260246000fd5b90610860906101ae565b810190811067ffffffffffffffff82111761087b575b604052565b610840565b9061089361088c61015a565b9283610856565b565b67ffffffffffffffff81116108b4575b6108b06020916101ae565b0190565b610840565b90826000939282370152565b909291926108da6108d582610895565b610880565b93818552818301116108f7575b6108f59160208501906108b9565b565b61083b565b9080601f8301121561091b575b816020610918933591016108c5565b90565b610836565b9160608383031261096f575b610939826000850161026e565b926109478360208301610298565b92604082013567ffffffffffffffff811161096a575b61096792016108fc565b90565b610239565b610165565b346109a6575b6109a261099161098b366004610920565b91610f22565b61099961015a565b918291826102e8565b0390f35b610160565b91906040838203126109d5575b8060206109cb6109d2936000870161026e565b940161026e565b90565b610165565b34610a0c575b610a086109f76109f13660046109ab565b90610fee565b6109ff61015a565b91829182610342565b0390f35b610160565b34610a40575b610a2a610a2536600461065f565b61107d565b610a3261015a565b80610a3c81610448565b0390f35b610160565b600080fd5b606090565b634e487b7160e01b600052602260045260246000fd5b9060016002830492168015610a87575b602083109014610a82575b565b610a4f565b91607f901691610a75565b60209181520190565b8050600052602060002090565b9060009291805490610ac3610abc83610a65565b8094610a92565b91600181169081600014610b1e575b50600114610ae0575b505050565b610aed9192939450610a9b565b916000925b818410610b06575b50500190388080610adb565b60018160209295939554848601520191019290610af2565b92949550505060ff19901682521515602002900190388080610adb565b90610b4591610aa8565b90565b90610b68610b6192610b5861015a565b93848092610b3b565b0383610856565b565b610b7390610b48565b90565b610b7e610a4a565b50610b896003610b6a565b90565b600090565b90610bac91610b9e610b8c565b50610ba7611088565b611095565b600190565b600090565b60001c90565b90565b610bcb610bd091610bb6565b610bbc565b90565b610bdd9054610bbf565b90565b610be8610bb1565b50610bf36002610bd3565b90565b90610c1c9291610c04610b8c565b50610c1783610c11611088565b836110e5565b611170565b600190565b610c3290610c2d611207565b610c84565b565b60a01b90565b90610c4960ff60a01b91610c34565b91811990169116901790565b610c5e906102d6565b90565b90565b90610c79610c74610c8092610c55565b610c61565b8254610c3a565b9055565b610c8f906007610c64565b565b610c9a90610c21565b565b600090565b90565b610cb8610cb3610cbd92610ca1565b6105cf565b610483565b90565b610cc8610c9c565b50610cd36012610ca4565b90565b90610ce09161125a565b565b610ceb906105ee565b90565b90610cf890610ce2565b600052602052604060002090565b610d1d610d2291610d15610bb1565b506000610cee565b610bd3565b90565b610d2d611207565b610d35610d62565b565b90565b610d4e610d49610d5392610d37565b6105cf565b61023e565b90565b610d5f90610d3a565b90565b610d74610d6f6000610d56565b6112d4565b565b610d7e610d25565b565b610d9190610d8c611207565b610df1565b565b60001b90565b90610daa60018060a01b0391610d93565b91811990169116901790565b610dbf906105d2565b90565b610dcb90610db6565b90565b90565b90610de6610de1610ded92610dc2565b610dce565b8254610d99565b9055565b610dfc906007610dd1565b565b610e0790610d80565b565b600090565b60018060a01b03901690565b610e26610e2b91610bb6565b610e0e565b90565b610e389054610e1a565b90565b610e43610e09565b50610e4e6005610e2e565b90565b610e59610a4a565b50610e646004610b6a565b90565b90610e8291610e74610b8c565b50610e7d611088565b611170565b600190565b610e90906105d2565b90565b610e9c90610e87565b90565b610ea8906105ee565b90565b60e01b90565b90505190610ebe82610401565b565b90602082820312610edb575b6000610ed89201610eb1565b90565b610165565b916020610f02929493610efb60408201966000830190610770565b0190610335565b565b610f0c61015a565b3d6000823e3d90fd5b15610f1d575b565b600080fd5b9190610f2c610b8c565b50610f47610f42610f3d6006610e2e565b610e93565b610e9f565b926020610f5261015a565b8095610f6163095ea7b3610eab565b825281600081610f75888860048401610ee0565b03925af1938415610fd1575b610f9d94610f9791600091610fa2575b50610f15565b3361150d565b600190565b610fc4915060203d602011610fca575b610fbc8183610856565b810190610ec0565b38610f91565b503d610fb2565b610f04565b90610fe090610ce2565b600052602052604060002090565b6110139161100961100e92611001610bb1565b506001610fd6565b610cee565b610bd3565b90565b61102790611022611207565b611029565b565b6110336000610d56565b61103c8161024a565b6110458361024a565b14611057575b50611055906112d4565b565b6110799061106361015a565b918291631e4fbdf760e01b83526004830161077d565b0390fd5b61108690611016565b565b611090610e09565b503390565b916001916110a2936115dc565b565b6040906110ce6110d594969593966110c460608401986000850190610770565b6020830190610335565b0190610335565b565b906110e2910361027d565b90565b916110f08284610fee565b6110fb60001961027d565b6111048261027d565b1415611111575b50505050565b61111a8261027d565b6111238261027d565b10611149575b9161113a61114094926000946110d7565b916115dc565b3880808061110b565b8261116c8361115661015a565b938493637dc7a0d960e11b8552600485016110a4565b0390fd5b92919061117d6000610d56565b936111878561024a565b6111908261024a565b146111e1575b61119f8561024a565b6111a88361024a565b146111bb575b6111b993945061172a565b565b6111dd856111c761015a565b91829163ec442f0560e01b83526004830161077d565b0390fd5b611203856111ed61015a565b918291634b637e8f60e11b83526004830161077d565b0390fd5b61120f610e3b565b611217611088565b9061122a6112248361024a565b9161024a565b1415611234575b50565b6112569061124061015a565b91829163118cdaa760e01b83526004830161077d565b0390fd5b91906112666000610d56565b926112708461024a565b6112798261024a565b1461128b575b611289929361172a565b565b6112ad8461129761015a565b91829163ec442f0560e01b83526004830161077d565b0390fd5b90565b906112c96112c46112d092610ce2565b6112b1565b8254610d99565b9055565b6112fa6112f46112e46005610e2e565b6112ef8460056112b4565b610ce2565b91610ce2565b907f8be0079c531659141344cd1fd0a4f28419497f9722a3daafe3b4186f6b6457e061132461015a565b8061132e81610448565b0390a3565b63ffffffff901690565b63ffffffff60e01b901690565b61135e61135961136392611333565b610eab565b61133d565b90565b5190565b60209181520190565b61139261139b6020936113a09361138981611366565b9384809361136a565b95869101610188565b6101ae565b900190565b90926113d9906113cf6113e696946113c560808601976000870190610770565b6020850190610770565b6040830190610335565b6060818403910152611373565b90565b906113fb6113f683610895565b610880565b918252565b606090565b3d600014611423575b6114173d6113e9565b903d6000602084013e5b565b61142b611400565b90611421565b90565b1561143d575b50565b61145e9061144961015a565b91829162461bcd60e51b8352600483016101ea565b0390fd5b60207f6e417070726f7665000000000000000000000000000000000000000000000000917f45524332304f6e417070726f76653a206661696c656420746f2063616c6c206f60008201520152565b6114bd602860409261017f565b6114c681611462565b0190565b6114e090602081019060008183039101526114b0565b90565b156114eb575b565b6114f361015a565b62461bcd60e51b815280611509600482016114ca565b0390fd5b60046000926115558493611547611582986020988561152f634273ca1661134a565b9461153861015a565b9889968d8801908152016113a5565b878201810382520383610856565b828583519301915af161157b611569611405565b91805061157583611431565b90611434565b01516114e3565b565b9061159160001991610d93565b91811990169116901790565b6115b16115ac6115b69261027d565b6105cf565b61027d565b90565b90565b906115d16115cc6115d89261159d565b6115b9565b8254611584565b9055565b9091926115e96000610d56565b6115f28161024a565b6115fb8461024a565b146116ba575b61160a8161024a565b6116138561024a565b14611694575b50611637846116328561162d866001610fd6565b610cee565b6115bc565b611641575b505050565b6116896116776116717f8c5be1e5ebec7d5bd14f71427d1e84f3dd0314c0f7b2291e5b200ac8c7c3b92593610ce2565b93610ce2565b9361168061015a565b91829182610342565b0390a338808061163c565b6116b6906116a061015a565b918291634a1406b160e11b83526004830161077d565b0390fd5b6116dc906116c661015a565b91829163e602df0560e01b83526004830161077d565b0390fd5b634e487b7160e01b600052601160045260246000fd5b61170561170b9193929361027d565b9261027d565b8201809211611717575b565b6116e0565b90611727910161027d565b90565b81600061173681610d56565b61173f8161024a565b6117488561024a565b14600014611823575b7fddf252ad1be2c89b69c2b068fc378daa952ba7f163c4a11628f55a4df523b3ef936117f4936117e2936117a56117dc9461179f6117988c6117936002610bd3565b6116f6565b60026115bc565b5b61024a565b6117ae8361024a565b146000146117f9575b50506117d66117cf886117ca6002610bd3565b6110d7565b60026115bc565b5b610ce2565b93610ce2565b936117eb61015a565b91829182610342565b0390a3565b61181e9161180691610cee565b6118188961181383610bd3565b61171c565b906115bc565b6117d7565b9091506118386118338484610cee565b610bd3565b6118418661027d565b61184a8261027d565b106118a2575b7fddf252ad1be2c89b69c2b068fc378daa952ba7f163c4a11628f55a4df523b3ef93856117f4946117a56117e29561189d61188e8c6117dc986110d7565b6118988786610cee565b6115bc565b6117a0565b836118c5876118af61015a565b93849363391434e360e21b8552600485016110a4565b0390fdfea2646970667358221220eb76b6a20bb1dc96eab820d3c9e1b4aa624a4a2c3c211ae6508e38ad2a309b0664736f6c63430008190033","linkReferences":{}},"methodIdentifiers":{"allowance(address,address)":"dd62ed3e","approve(address,uint256)":"095ea7b3","approveAndCall(address,uint256,bytes)":"cae9ca51","balanceOf(address)":"70a08231","callbackEnabled()":"63380113","decimals()":"313ce567","enableCallback(bool)":"3113ed5c","mint(address,uint256)":"40c10f19","name()":"06fdde03","owner()":"8da5cb5b","renounceOwnership()":"715018a6","seigManager()":"6fb7f558","setSeigManager(address)":"7657f20a","symbol()":"95d89b41","totalSupply()":"18160ddd","transfer(address,uint256)":"a9059cbb","transferFrom(address,address,uint256)":"23b872dd","transferOwnership(address)":"f2fde38b"},"id":103}