{"abi":[{"type":"function","name":"DECIMALS","inputs":[],"outputs":[{"name":"","type":"uint256","internalType":"uint256"}],"stateMutability":"view"},{"type":"event","name":"DebugAllowance","inputs":[{"name":"owner","type":"address","indexed":true,"internalType":"address"},{"name":"spender","type":"address","indexed":true,"internalType":"address"},{"name":"value","type":"uint256","indexed":false,"internalType":"uint256"}],"anonymous":false},{"type":"event","name":"DebugBalance","inputs":[{"name":"account","type":"address","indexed":true,"internalType":"address"},{"name":"balance","type":"uint256","indexed":false,"internalType":"uint256"}],"anonymous":false},{"type":"event","name":"Deposited","inputs":[{"name":"to","type":"address","indexed":false,"internalType":"address"},{"name":"token","type":"bool","indexed":false,"internalType":"bool"},{"name":"amount","type":"uint256","indexed":false,"internalType":"uint256"},{"name":"wstonAmount","type":"uint256","indexed":false,"internalType":"uint256"},{"name":"depositTime","type":"uint256","indexed":false,"internalType":"uint256"},{"name":"depositBlockNumber","type":"uint256","indexed":false,"internalType":"uint256"}],"anonymous":false},{"type":"event","name":"Paused","inputs":[{"name":"account","type":"address","indexed":false,"internalType":"address"}],"anonymous":false},{"type":"event","name":"SeigniorageUpdated","inputs":[],"anonymous":false},{"type":"event","name":"StakingIndexUpdated","inputs":[{"name":"stakingIndex","type":"uint256","indexed":false,"internalType":"uint256"}],"anonymous":false},{"type":"event","name":"Unpaused","inputs":[{"name":"account","type":"address","indexed":false,"internalType":"address"}],"anonymous":false},{"type":"event","name":"WithdrawalProcessed","inputs":[{"name":"_to","type":"address","indexed":false,"internalType":"address"},{"name":"amount","type":"uint256","indexed":false,"internalType":"uint256"}],"anonymous":false},{"type":"event","name":"WithdrawalRequested","inputs":[{"name":"_to","type":"address","indexed":true,"internalType":"address"},{"name":"amount","type":"uint256","indexed":false,"internalType":"uint256"}],"anonymous":false},{"type":"event","name":"decodeSuccess","inputs":[{"name":"to","type":"address","indexed":false,"internalType":"address"},{"name":"amount","type":"uint256","indexed":false,"internalType":"uint256"}],"anonymous":false},{"type":"error","name":"ApproveAndCallFailed","inputs":[]},{"type":"error","name":"ClaimWithdrawalFailed","inputs":[]},{"type":"error","name":"ContractNotPaused","inputs":[]},{"type":"error","name":"ContractPaused","inputs":[]},{"type":"error","name":"DepositFailed","inputs":[]},{"type":"error","name":"FailedToSwapFromTONToWTON","inputs":[{"name":"amount","type":"uint256","internalType":"uint256"}]},{"type":"error","name":"InvalidCaller","inputs":[]},{"type":"error","name":"InvalidOnApproveData","inputs":[]},{"type":"error","name":"InvalidToOrAmount","inputs":[]},{"type":"error","name":"MaximumNumberOfWithdrawalsReached","inputs":[]},{"type":"error","name":"MinimalWithdrawalAmount","inputs":[]},{"type":"error","name":"NoClaimableAmount","inputs":[{"name":"requestor","type":"address","internalType":"address"}]},{"type":"error","name":"NoRequestToProcess","inputs":[]},{"type":"error","name":"NotEnoughFunds","inputs":[]},{"type":"error","name":"ProcessRequestFailed","inputs":[]},{"type":"error","name":"RequestAlreadyProcessed","inputs":[]},{"type":"error","name":"SeigniorageUpdateFailed","inputs":[]},{"type":"error","name":"WithdrawalDelayNotElapsed","inputs":[]},{"type":"error","name":"WithdrawalRequestFailed","inputs":[]},{"type":"error","name":"WrontAmount","inputs":[]}],"bytecode":{"object":"0x60806040523460165760405160b4601c823960b490f35b600080fdfe60806040526004361015601157600080fd5b60003560e01c632e0f2625146055575b600080fd5b6000910312602157565b603a603a603a9290565b90565b603a676765c793fa10079d601b1b6030565b603a603d565b3460215760623660046026565b607a606a604f565b6040519182918290815260200190565b0390f3fea26469706673582212203b89ea65a1a7c76b8fbdfad8b35c62b1421665d63e8e8065d5888de39e44fbf264736f6c63430008190033","linkReferences":{}},"methodIdentifiers":{"DECIMALS()":"2e0f2625"},"id":49}