{"abi":[{"type":"function","name":"CHALLENGER_ROLE","inputs":[],"outputs":[{"name":"","type":"bytes32","internalType":"bytes32"}],"stateMutability":"view"},{"type":"function","name":"MINTER_ROLE","inputs":[],"outputs":[{"name":"","type":"bytes32","internalType":"bytes32"}],"stateMutability":"view"},{"type":"function","name":"OPERATOR_ROLE","inputs":[],"outputs":[{"name":"","type":"bytes32","internalType":"bytes32"}],"stateMutability":"view"},{"type":"function","name":"PAUSE_ROLE","inputs":[],"outputs":[{"name":"","type":"bytes32","internalType":"bytes32"}],"stateMutability":"view"}],"bytecode":{"object":"0x608060405234601d575b600f6021565b61028261002d823961028290f35b6027565b60405190565b600080fdfe60806040526004361015610013575b610247565b61001e600035610066565b8063389ed26714610061575b8063530adbb41461005c575b8063d539139314610057575b63f5b541a614610052575b61000e565b610211565b6101ac565b610147565b6100e2565b60e01c90565b60405190565b600080fd5b600080fd5b6000910312610088575b565b610077565b7ffcb9fcbfa83b897fb2d5cf4b58962164105c1e71489a37ef3ae0db3fdce576f690565b6100b961008d565b90565b90565b6100c8906100bc565b9052565b91906100e0906000602085019401906100bf565b565b34610113575b6100f336600461007c565b61010f6100fe6100b1565b61010661006c565b918291826100cc565b0390f35b610072565b7fbf02bad7114723a857a3af46cea17b778a3a951c96f183784d9a2448cc479ab690565b610144610118565b90565b34610178575b61015836600461007c565b61017461016361013c565b61016b61006c565b918291826100cc565b0390f35b610072565b7ff0887ba65ee2024ea881d91b74c2450ef19e1557f03bed3ea9f16b037cbe2dc990565b6101a961017d565b90565b346101dd575b6101bd36600461007c565b6101d96101c86101a1565b6101d061006c565b918291826100cc565b0390f35b610072565b7f523a704056dcd17bcf83bed8b68c59416dac1119be77755efe3bde0a64e46e0c90565b61020e6101e2565b90565b34610242575b61022236600461007c565b61023e61022d610206565b61023561006c565b918291826100cc565b0390f35b610072565b600080fdfea26469706673582212207e7db2b70a3aa92e6a56edf1fbf1c149b0284e8448f04b882389d05197d65b5364736f6c63430008190033","linkReferences":{}},"methodIdentifiers":{"CHALLENGER_ROLE()":"530adbb4","MINTER_ROLE()":"d5391393","OPERATOR_ROLE()":"f5b541a6","PAUSE_ROLE()":"389ed267"},"id":76}