{"abi":[{"type":"function","name":"ADMIN_ROLE","inputs":[],"outputs":[{"name":"","type":"bytes32","internalType":"bytes32"}],"stateMutability":"view"},{"type":"function","name":"DEFAULT_ADMIN_ROLE","inputs":[],"outputs":[{"name":"","type":"bytes32","internalType":"bytes32"}],"stateMutability":"view"},{"type":"function","name":"PAUSE_ROLE","inputs":[],"outputs":[{"name":"","type":"bytes32","internalType":"bytes32"}],"stateMutability":"view"},{"type":"function","name":"addAdmin","inputs":[{"name":"account","type":"address","internalType":"address"}],"outputs":[],"stateMutability":"nonpayable"},{"type":"function","name":"addPauser","inputs":[{"name":"account","type":"address","internalType":"address"}],"outputs":[],"stateMutability":"nonpayable"},{"type":"function","name":"aliveImplementation","inputs":[{"name":"","type":"address","internalType":"address"}],"outputs":[{"name":"","type":"bool","internalType":"bool"}],"stateMutability":"view"},{"type":"function","name":"createWSTONToken","inputs":[{"name":"_layer2Address","type":"address","internalType":"address"},{"name":"_depositManager","type":"address","internalType":"address"},{"name":"_seigManager","type":"address","internalType":"address"},{"name":"_minimumWithdrawalAmount","type":"uint256","internalType":"uint256"},{"name":"_maxNumWithdrawal","type":"uint8","internalType":"uint8"},{"name":"_name","type":"string","internalType":"string"},{"name":"_symbol","type":"string","internalType":"string"}],"outputs":[{"name":"","type":"address","internalType":"address"}],"stateMutability":"nonpayable"},{"type":"function","name":"getCounter","inputs":[],"outputs":[{"name":"","type":"uint256","internalType":"uint256"}],"stateMutability":"view"},{"type":"function","name":"getRoleAdmin","inputs":[{"name":"role","type":"bytes32","internalType":"bytes32"}],"outputs":[{"name":"","type":"bytes32","internalType":"bytes32"}],"stateMutability":"view"},{"type":"function","name":"grantRole","inputs":[{"name":"role","type":"bytes32","internalType":"bytes32"},{"name":"account","type":"address","internalType":"address"}],"outputs":[],"stateMutability":"nonpayable"},{"type":"function","name":"hasRole","inputs":[{"name":"role","type":"bytes32","internalType":"bytes32"},{"name":"account","type":"address","internalType":"address"}],"outputs":[{"name":"","type":"bool","internalType":"bool"}],"stateMutability":"view"},{"type":"function","name":"incrementCounter","inputs":[],"outputs":[],"stateMutability":"nonpayable"},{"type":"function","name":"initialize","inputs":[{"name":"_l1wton","type":"address","internalType":"address"},{"name":"_l1ton","type":"address","internalType":"address"}],"outputs":[],"stateMutability":"nonpayable"},{"type":"function","name":"isAdmin","inputs":[{"name":"account","type":"address","internalType":"address"}],"outputs":[{"name":"","type":"bool","internalType":"bool"}],"stateMutability":"view"},{"type":"function","name":"isOwner","inputs":[],"outputs":[{"name":"","type":"bool","internalType":"bool"}],"stateMutability":"view"},{"type":"function","name":"isPauser","inputs":[{"name":"account","type":"address","internalType":"address"}],"outputs":[{"name":"","type":"bool","internalType":"bool"}],"stateMutability":"view"},{"type":"function","name":"l1ton","inputs":[],"outputs":[{"name":"","type":"address","internalType":"address"}],"stateMutability":"view"},{"type":"function","name":"l1wton","inputs":[],"outputs":[{"name":"","type":"address","internalType":"address"}],"stateMutability":"view"},{"type":"function","name":"pauseProxy","inputs":[],"outputs":[{"name":"","type":"bool","internalType":"bool"}],"stateMutability":"view"},{"type":"function","name":"proxyImplementation","inputs":[{"name":"","type":"uint256","internalType":"uint256"}],"outputs":[{"name":"","type":"address","internalType":"address"}],"stateMutability":"view"},{"type":"function","name":"removeAdmin","inputs":[],"outputs":[],"stateMutability":"nonpayable"},{"type":"function","name":"removePauser","inputs":[{"name":"account","type":"address","internalType":"address"}],"outputs":[],"stateMutability":"nonpayable"},{"type":"function","name":"renounceRole","inputs":[{"name":"role","type":"bytes32","internalType":"bytes32"},{"name":"callerConfirmation","type":"address","internalType":"address"}],"outputs":[],"stateMutability":"nonpayable"},{"type":"function","name":"revokeRole","inputs":[{"name":"role","type":"bytes32","internalType":"bytes32"},{"name":"account","type":"address","internalType":"address"}],"outputs":[],"stateMutability":"nonpayable"},{"type":"function","name":"selectorImplementation","inputs":[{"name":"","type":"bytes4","internalType":"bytes4"}],"outputs":[{"name":"","type":"address","internalType":"address"}],"stateMutability":"view"},{"type":"function","name":"setWstonImplementation","inputs":[{"name":"_imp","type":"address","internalType":"address"}],"outputs":[],"stateMutability":"nonpayable"},{"type":"function","name":"supportsInterface","inputs":[{"name":"interfaceId","type":"bytes4","internalType":"bytes4"}],"outputs":[{"name":"","type":"bool","internalType":"bool"}],"stateMutability":"view"},{"type":"function","name":"transferOwnership","inputs":[{"name":"newOwner","type":"address","internalType":"address"}],"outputs":[],"stateMutability":"nonpayable"},{"type":"function","name":"upgradeWstonTo","inputs":[{"name":"wstonProxyAddress","type":"address","internalType":"address"},{"name":"newImplementation","type":"address","internalType":"address"}],"outputs":[],"stateMutability":"nonpayable"},{"type":"function","name":"wstonImplementation","inputs":[],"outputs":[{"name":"","type":"address","internalType":"address"}],"stateMutability":"view"},{"type":"event","name":"L1WrappedStakedTONContractUgraded","inputs":[{"name":"newImplementation","type":"address","indexed":false,"internalType":"address"}],"anonymous":false},{"type":"event","name":"RoleAdminChanged","inputs":[{"name":"role","type":"bytes32","indexed":true,"internalType":"bytes32"},{"name":"previousAdminRole","type":"bytes32","indexed":true,"internalType":"bytes32"},{"name":"newAdminRole","type":"bytes32","indexed":true,"internalType":"bytes32"}],"anonymous":false},{"type":"event","name":"RoleGranted","inputs":[{"name":"role","type":"bytes32","indexed":true,"internalType":"bytes32"},{"name":"account","type":"address","indexed":true,"internalType":"address"},{"name":"sender","type":"address","indexed":true,"internalType":"address"}],"anonymous":false},{"type":"event","name":"RoleRevoked","inputs":[{"name":"role","type":"bytes32","indexed":true,"internalType":"bytes32"},{"name":"account","type":"address","indexed":true,"internalType":"address"},{"name":"sender","type":"address","indexed":true,"internalType":"address"}],"anonymous":false},{"type":"event","name":"WSTONTokenCreated","inputs":[{"name":"wston","type":"address","indexed":true,"internalType":"address"},{"name":"layer2Address","type":"address","indexed":true,"internalType":"address"}],"anonymous":false},{"type":"error","name":"AccessControlBadConfirmation","inputs":[]},{"type":"error","name":"AccessControlUnauthorizedAccount","inputs":[{"name":"account","type":"address","internalType":"address"},{"name":"neededRole","type":"bytes32","internalType":"bytes32"}]},{"type":"error","name":"AlreadyInitialized","inputs":[]},{"type":"error","name":"NotContractOwner","inputs":[]},{"type":"error","name":"SameAdmin","inputs":[]},{"type":"error","name":"SameOwner","inputs":[]},{"type":"error","name":"ZeroAddress","inputs":[]}],"bytecode":{"object":"0x608060405234601957604051612aa461001f8239612aa490f35b600080fdfe6080604052600436101561001257600080fd5b60003560e01c806301ffc9a7146101f257806315a327d3146101ed5780631d03a009146101e8578063248a9ca3146101e357806324d7806c146101de5780632f2ff15d146101d957806336568abe146101d4578063389ed267146101cf57806346fbf68e146101ca578063485cc955146101c557806350d2a276146101c0578063550d01a3146101bb5780635b34b966146101b657806363a8fd89146101b15780636b2c0f55146101ac57806370480275146101a757806375b238fc146101a257806381baed051461019d57806382dc1ec4146101985780638ada066e146101935780638bd49a4f1461018e5780638f32d59b1461018957806391d14854146101845780639a202d471461017f578063a217fddf1461017a578063b911135f14610175578063c4bdcb3314610170578063d21bae661461016b578063d547741f146101665763f2fde38b036101f7576108f5565b6108dc565b6108c1565b610893565b610711565b6106dc565b6106a5565b610689565b61066e565b610655565b61063a565b610622565b61060a565b6105ef565b6105ab565b610593565b610578565b610555565b61053a565b6104c0565b610478565b610441565b610426565b6103e1565b6103c3565b610385565b610330565b6102ee565b6102ba565b610239565b600080fd5b6001600160e01b031981165b036101f757565b9050359061021c826101fc565b565b906020828203126101f7576102329161020f565b90565b9052565b346101f75761026661025461024f36600461021e565b61090d565b60405191829182901515815260200190565b0390f35b60009103126101f757565b610232916008021c5b6001600160a01b031690565b906102329154610275565b6102326000600661028a565b6102359061027e565b60208101929161021c91906102a1565b346101f7576102ca36600461026a565b6102666102d5610295565b6040515b918291826102aa565b6102326000600761028a565b346101f7576102fe36600461026a565b6102666102d56102e2565b80610208565b9050359061021c82610309565b906020828203126101f7576102329161030f565b346101f75761026661034b61034636600461031c565b61092d565b6040519182918290815260200190565b6102088161027e565b9050359061021c8261035b565b906020828203126101f75761023291610364565b346101f75761026661025461039b366004610371565b61094c565b91906040838203126101f7576102329060206103bc828661030f565b9401610364565b346101f7576103dc6103d63660046103a0565b90610980565b604051005b346101f7576103dc6103f43660046103a0565b9061098a565b7ffcb9fcbfa83b897fb2d5cf4b58962164105c1e71489a37ef3ae0db3fdce576f690565b6102326103fa565b346101f75761043636600461026a565b61026661034b61041e565b346101f757610266610254610457366004610371565b6109c6565b91906040838203126101f7576102329060206103bc8286610364565b346101f7576103dc61048b36600461045c565b90610a3e565b906001600160e01b0319165b600052602052604060002090565b60006104bb610232926003610491565b61028a565b346101f7576102666102d56104d636600461021e565b6104ab565b6102329061027e906001600160a01b031682565b610232906104db565b610232906104ef565b9061049d906104f8565b610232916008021c5b60ff1690565b90610232915461050b565b6000610535610232926002610501565b61051a565b346101f757610266610254610550366004610371565b610525565b346101f75761056536600461026a565b6103dc610add565b61023260008061051a565b346101f75761058836600461026a565b61026661025461056d565b346101f7576103dc6105a6366004610371565b610ba0565b346101f7576103dc6105be366004610371565b610c26565b7fdf8b4c520ffe197c5343c6f5aec59570151ef9a492f2c624fd45ddde6135ec4290565b6102326105c3565b346101f7576105ff36600461026a565b61026661034b6105e7565b346101f7576103dc61061d366004610371565b610c49565b346101f7576103dc610635366004610371565b610c6d565b346101f75761064a36600461026a565b61026661034b610c76565b346101f7576103dc61066836600461045c565b90610cad565b346101f75761067e36600461026a565b610266610254610dea565b346101f75761026661025461069f3660046103a0565b90610e08565b346101f7576106b536600461026a565b6103dc610ea6565b6102326102326102329290565b61023260006106bd565b6102326106ca565b346101f7576106ec36600461026a565b61026661034b6106d4565b9061049d906106bd565b60006104bb6102329260016106f7565b346101f7576102666102d561072736600461031c565b610701565b60ff8116610208565b9050359061021c8261072c565b634e487b7160e01b600052604160045260246000fd5b90601f01601f191681019081106001600160401b0382111761077957604052565b610742565b9061021c61078b60405190565b9283610758565b6001600160401b03811161077957602090601f01601f19160190565b0190565b90826000939282370152565b909291926107d36107ce82610792565b61077e565b93818552818301116101f75761021c9160208501906107b2565b9080601f830112156101f757816020610232933591016107be565b9060e0828203126101f75761081d8183610364565b9261082b8260208501610364565b926108398360408301610364565b92610847816060840161030f565b926108558260808501610735565b9260a08101356001600160401b0381116101f757836108759183016107ed565b9260c08201356001600160401b0381116101f75761023292016107ed565b346101f7576102666102d56108a9366004610808565b9594909493919361126a565b6102326000600561028a565b346101f7576108d136600461026a565b6102666102d56108b5565b346101f7576103dc6108ef3660046103a0565b90611296565b346101f7576103dc610908366004610371565b611327565b61023290611330565b9061049d565b6102329081565b610232905461091c565b60016109466102329261093e600090565b506004610916565b01610923565b610232906109586105c3565b610e08565b9061021c9161097361096e8261092d565b61136a565b9061097d91611395565b50565b9061021c9161095d565b906109993361027e565b61027e565b6109a28261027e565b036109b05761097d91611415565b60405163334bd91960e11b8152600490fd5b0390fd5b610232906109586103fa565b6102329060a01c610514565b61023290546109d2565b906001600160a01b03905b9181191691161790565b90610a0d610232610a14926104f8565b82546109e8565b9055565b9060ff60a01b9060a01b6109f3565b90610a37610232610a1492151590565b8254610a18565b90610a4960076109de565b610a8157610a6e610a7592610a66610a5f6106ca565b3390611395565b5060056109fd565b60066109fd565b61021c60016007610a27565b60405162dc149f60e41b8152600490fd5b634e487b7160e01b600052601160045260246000fd5b6000198114610ab75760010190565b610a92565b90600019906109f3565b90610ad6610232610a14926106bd565b8254610abc565b61021c610af2610aed6008610923565b610aa8565b6008610ac6565b15610b0057565b60405162461bcd60e51b815260206004820152602360248201527f41757468436f6e74726f6c3a2043616c6c6572206973206e6f7420612070617560448201526239b2b960e91b6064820152608490fd5b61021c90610b67610b606103fa565b3390610e08565b8015610b7c575b610b7790610af9565b610b8f565b50610b77610b88610dea565b9050610b6e565b61021c90610b9b6103fa565b61098a565b61021c90610b51565b15610bb057565b60405162461bcd60e51b8152602060048201526024808201527f41757468436f6e74726f6c3a2043616c6c6572206973206e6f7420746865206f6044820152633bb732b960e11b6064820152608490fd5b61021c90610c15610c10610dea565b610ba9565b61021c90610c216105c3565b610980565b61021c90610c01565b61021c90610c3e610c10610dea565b61021c9060076109fd565b61021c90610c2f565b61021c90610c61610c10610dea565b61021c90610c216103fa565b61021c90610c52565b6102326008610923565b9050519061021c8261035b565b906020828203126101f75761023291610c80565b6040513d6000823e3d90fd5b610cbe610cb9826104f8565b6104f8565b6020610cc960405190565b638da5cb5b60e01b815291829060049082905afa8015610da457610cf591600091610dbb575b5061027e565b610cfe3361027e565b03610da957610cb9610cb9610d12926104f8565b90813b156101f7576000610d2560405190565b928390631b2ce7f360e11b8252818381610d4287600483016102aa565b03925af1908115610da4577f279aa14d8d722d787fbebbe5d140862d29a9a4c04fb92fa9d21004435c7bbe9e92610d8192610d86575b506040516102d9565b0390a1565b610d9e906000610d968183610758565b81019061026a565b38610d78565b610ca1565b60405163bfcafd3760e01b8152600490fd5b610ddd915060203d602011610de3575b610dd58183610758565b810190610c8d565b38610cef565b503d610dcb565b610232610b606106ca565b61023290610514565b6102329054610df5565b610232916000610e1d610e239361093e600090565b01610501565b610dfe565b15610e2f57565b60405162461bcd60e51b815260206004820152602360248201527f41757468436f6e74726f6c3a2043616c6c6572206973206e6f7420616e20616460448201526236b4b760e91b6064820152608490fd5b610e91610e8c3361094c565b610e28565b61021c61021c610e9f6105c3565b339061098a565b61021c610e80565b15610eb557565b60405162461bcd60e51b81526020600482015260126024820152713737ba1027bbb732b91037b91020b236b4b760711b6044820152606490fd5b9061023297969594939291610f033361094c565b8015610f18575b610f1390610eae565b610f86565b50610f13610f24610dea565b9050610f0a565b61027e6102326102329290565b61023290610f2b565b15610f4857565b60405162461bcd60e51b8152602060048201526016602482015275416464726573732063616e6e6f74206265207a65726f60501b6044820152606490fd5b9061023297969594939291610fb1610fa16109946000610f38565b610faa8461027e565b1415610f41565b9061023297969594939291610fd5610fcc6109946000610f38565b610faa8561027e565b9061023297969594939291610ff9610ff06109946000610f38565b610faa8661027e565b6110f8565b6102329061027e565b6102329054610ffe565b60005b8381106110245750506000910152565b8181015183820152602001611014565b61105561105e6020936107ae93611049815190565b80835293849260200190565b95869101611011565b601f01601f191690565b989795939196949290966101408a019760008b01611085916102a1565b60208a01611092916102a1565b6040890161109f916102a1565b606088016110ac916102a1565b608087016110b9916102a1565b60a086016110c6916102a1565b60c085015260ff1660e08401528281036101008401526110e591611034565b9080820390610120015261023291611034565b96909593919294965061110a60405190565b6115a581018181106001600160401b038211176107795761113182916115a56114ca843990565b03906000f08015610da457611145906104f8565b966111506007611007565b883b156101f757600061117f9161116660405190565b928391829190631b2ce7f360e11b8352600483016102aa565b0381838d5af18015610da457611254575b5061119d610cb9896104f8565b926111a86005611007565b906111b36006611007565b93853b156101f75760009788946111ea938c6111ce60405190565b9c8d9b8c9a8b996309a09f4760e21b8b52339460048c01611068565b03925af18015610da45761123e575b5061120c611206836104f8565b916104f8565b907f5b269f580912912f2c48a9e34fcae47327ba565d31e351e53be7115f90a62f7f61123760405190565b600090a390565b61124e906000610d968183610758565b386111f9565b611264906000610d968183610758565b38611190565b610232969594939291906000610eef565b9061021c9161128c61096e8261092d565b9061097d91611415565b9061021c9161127b565b61021c906112af610c10610dea565b6112bc6109946000610f38565b6112c58261027e565b14611315576112d38161027e565b6112dc3361027e565b146113035761021c90610e9f6112f06106ca565b916112fb8184610980565b610c216105c3565b604051630a98f1f360e21b8152600490fd5b60405163d92e233d60e01b8152600490fd5b61021c906112a0565b637965db0b60e01b6001600160e01b031982161490811561134f575090565b61023291506001600160e01b0319166301ffc9a760e01b1490565b61021c903390611491565b9060ff906109f3565b9061138e610232610a1492151590565b8254611375565b6113a66113a28383610e08565b1590565b1561140e576113c660016113c1846000610e1d866004610916565b61137e565b6113da6112066113d4339390565b936104f8565b917f2f8788117e7eff1d82e926ec794901d17c78024a50270940304540a733656f0d61140560405190565b600090a4600190565b5050600090565b61141f8282610e08565b1561140e5761143960006113c18482610e1d866004610916565b6114476112066113d4339390565b917ff6391f5c32d9c69d2a47ea670b442974b53935d1edc7fd64eb21e047a839171b61140560405190565b91602061021c92949361148d604082019660008301906102a1565b0152565b9061149f6113a28284610e08565b6114a7575050565b6109c26114b360405190565b63e2517d3f60e01b81529283926004840161147256fe60806040523461002257610011610027565b60405161140761019e823961140790f35b600080fd5b61002f61004b565b565b61003e61003e61003e9290565b90565b61003e6000610031565b61005d610056610041565b33906100dd565b50565b9061006a9061003e565b600052602052604060002090565b61003e9061008c906001600160a01b031682565b6001600160a01b031690565b61003e90610078565b61003e90610098565b9061006a906100a1565b151590565b906100c961003e6100d9926100b4565b825460ff191660ff919091161790565b9055565b6100ee6100ea838361017b565b1590565b1561016457610114600161010f846000610109866004610060565b016100aa565b6100b9565b61013061012a610124339361003e565b936100a1565b916100a1565b917f2f8788117e7eff1d82e926ec794901d17c78024a50270940304540a733656f0d61015b60405190565b600090a4600190565b5050600090565b60ff1690565b61003e905461016b565b61003e91600061010961019893610190600090565b506004610060565b61017156fe60806040526004361015610015575b3661109f57005b60003560e01c806301ffc9a7146101e5578063248a9ca3146101e057806324d7806c146101db5780632f2ff15d146101d657806336568abe146101d15780633659cfe6146101cc578063389ed267146101c757806346fbf68e146101c25780634a5df50f146101bd57806350d2a276146101b8578063550d01a3146101b35780635c60da1b146101ae5780635cc797d8146101a957806363a8fd89146101a45780636b2c0f551461019f578063704802751461019a57806375b238fc146101955780637cb00d25146101905780637cd5f6631461018b57806382dc1ec4146101865780638b8f4a65146101815780638d4fdb401461017c5780638f32d59b1461017757806391d14854146101725780639a202d471461016d578063a217fddf14610168578063b911135f14610163578063d547741f1461015e5763f2fde38b0361000e5761080d565b6107f4565b6107d9565b6107a4565b61076d565b610751565b610736565b61071b565b610700565b6106e8565b6106cf565b61068e565b61065f565b61061b565b610603565b6105e8565b6105c4565b610571565b610556565b6104d0565b610445565b6103c5565b6103aa565b61035b565b610342565b610324565b6102e6565b610285565b61022c565b6001600160e01b031981165b036101fd57565b600080fd5b9050359061020f826101ea565b565b906020828203126101fd5761022591610202565b90565b9052565b346101fd5761025a610247610242366004610211565b610825565b6040515b91829182901515815260200190565b0390f35b806101f6565b9050359061020f8261025e565b906020828203126101fd5761022591610264565b346101fd5761025a6102a061029b366004610271565b610845565b6040519182918290815260200190565b6001600160a01b031690565b6101f6816102b0565b9050359061020f826102bc565b906020828203126101fd57610225916102c5565b346101fd5761025a6102476102fc3660046102d2565b610864565b91906040838203126101fd5761022590602061031d8286610264565b94016102c5565b346101fd5761033d610337366004610301565b90610898565b604051005b346101fd5761033d610355366004610301565b906108a2565b346101fd5761033d61036e3660046102d2565b610a6e565b60009103126101fd57565b7ffcb9fcbfa83b897fb2d5cf4b58962164105c1e71489a37ef3ae0db3fdce576f690565b61022561037e565b346101fd576103ba366004610373565b61025a6102a06103a2565b346101fd5761025a6102476103db3660046102d2565b610a77565b909182601f830112156101fd578135916001600160401b0383116101fd5760200192602083028401116101fd57565b916040838303126101fd5782356001600160401b0381116101fd578261043c6020946102259387016103e0565b949095016102c5565b346101fd5761033d61045836600461040f565b91610d16565b6001600160e01b03191690565b906104759061045e565b600052602052604060002090565b610225916008021c6001600160a01b031690565b906102259154610483565b60006104b261022592600361046b565b610497565b610228906102b0565b60208101929161020f91906104b7565b346101fd5761025a6104eb6104e6366004610211565b6104a2565b604051918291826104c0565b610225906102b0906001600160a01b031682565b610225906104f7565b6102259061050b565b9061047590610514565b610225916008021c5b60ff1690565b906102259154610527565b600061055161022592600261051d565b610536565b346101fd5761025a61024761056c3660046102d2565b610541565b346101fd57610581366004610373565b61025a6104eb610d21565b8015156101f6565b9050359061020f8261058c565b91906040838203126101fd576102259060206105bd82866102c5565b9401610594565b346101fd5761033d6105d73660046105a1565b90610d4d565b610225600080610536565b346101fd576105f8366004610373565b61025a6102476105dd565b346101fd5761033d6106163660046102d2565b610dfe565b346101fd5761033d61062e3660046102d2565b610e27565b7fdf8b4c520ffe197c5343c6f5aec59570151ef9a492f2c624fd45ddde6135ec4290565b610225610633565b346101fd5761066f366004610373565b61025a6102a0610657565b906020828203126101fd5761022591610594565b346101fd5761033d6106a136600461067a565b610e6f565b90916060828403126101fd576102256106bf84846102c5565b9360406105bd8260208701610264565b346101fd5761033d6106e23660046106a6565b91610e94565b346101fd5761033d6106fb3660046102d2565b610eba565b346101fd5761025a6104eb610716366004610271565b610ec3565b346101fd5761025a6104eb610731366004610211565b610ecc565b346101fd57610746366004610373565b61025a610247610f3e565b346101fd5761025a610247610767366004610301565b90610f49565b346101fd5761077d366004610373565b61033d610fe2565b6102256102256102259290565b6102256000610785565b610225610792565b346101fd576107b4366004610373565b61025a6102a061079c565b9061047590610785565b60006104b26102259260016107bf565b346101fd5761025a6104eb6107ef366004610271565b6107c9565b346101fd5761033d610807366004610301565b90611005565b346101fd5761033d6108203660046102d2565b611096565b610225906110a4565b90610475565b6102259081565b6102259054610834565b600161085e61022592610856600090565b50600461082e565b0161083b565b61022590610870610633565b610f49565b9061020f9161088b61088682610845565b6110de565b90610895916110e9565b50565b9061020f91610875565b906108b1336102b0565b6102b0565b6108ba826102b0565b036108c8576108959161116f565b60405163334bd91960e11b8152600490fd5b0390fd5b156108e557565b60405162461bcd60e51b8152602060048201526024808201527f41757468436f6e74726f6c3a2043616c6c6572206973206e6f7420746865206f6044820152633bb732b960e11b6064820152608490fd5b61020f9061094a610945610f3e565b6108de565b6109d9565b6102b06102256102259290565b6102259061094f565b1561096c57565b60405162461bcd60e51b815260206004820152600d60248201526c696e707574206973207a65726f60981b6044820152606490fd5b156109a857565b60405162461bcd60e51b815260206004820152600960248201526839b0b6b29030b2323960b91b6044820152606490fd5b610a3c906109fd6109ed6108ac600061095c565b6109f6836102b0565b1415610965565b610a376001610a0c6000610785565b610a31610a18826111cc565b610a2a610a24876102b0565b916102b0565b14156109a1565b8361122d565b610514565b7fbc7cd75a20ee27fd9adebab32041f755214dbc6bffa90cc0225b39da2e5c2d3b610a6660405190565b80805b0390a2565b61020f90610936565b6102259061087061037e565b9061020f9291610a94610945610f3e565b610c07565b15610aa057565b60405162461bcd60e51b8152806108da600482016020808252818101527f50726f78793a205f73656c6563746f727327732073697a65206973207a65726f604082015260600190565b61022590610530565b6102259054610ae9565b15610b0357565b60405162461bcd60e51b815260206004820152601860248201527750726f78793a205f696d70206973206e6f7420616c69766560401b6044820152606490fd5b634e487b7160e01b600052603260045260246000fd5b9190811015610b69576020020190565b610b43565b35610225816101ea565b610225906102b0565b6102259054610b78565b15610b9257565b60405162461bcd60e51b815260206004820152601d60248201527f4c69717569646974795661756c7450726f78793a2073616d6520696d700000006044820152606490fd5b906001600160a01b03905b9181191691161790565b90610bfc610225610c0392610514565b8254610bd7565b9055565b909291908392610c21610c1a6000610785565b8511610a99565b610c3c610c37610c3285600261051d565b610af2565b610afc565b610c466000610785565b845b811015610d0e57610d0781610cb386610cae87610ca8610c7f868e610ca2610c8f610c8a610c84610c7f610c489f8660039b610b59565b610b6e565b8861046b565b610b81565b610c9b610a248a6102b0565b1415610b8b565b8c610b59565b9061046b565b610bec565b610cc9610cc4610c7f838b89610b59565b61045e565b610cd287610514565b907f14ebc1c32aa68f4d766e89f3e546cee249f7df25183fc10ab1568d91c2ce9b7b610cfd60405190565b600090a360010190565b9050610c46565b509350505050565b9061020f9291610a83565b610225610d2e6000610785565b6111cc565b9061020f91610d43610945610f3e565b9061020f91611266565b9061020f91610d33565b15610d5e57565b60405162461bcd60e51b815260206004820152602360248201527f41757468436f6e74726f6c3a2043616c6c6572206973206e6f7420612070617560448201526239b2b960e91b6064820152608490fd5b61020f90610dc5610dbe61037e565b3390610f49565b8015610dda575b610dd590610d57565b610ded565b50610dd5610de6610f3e565b9050610dcc565b61020f90610df961037e565b6108a2565b61020f90610daf565b61020f90610e16610945610f3e565b61020f90610e22610633565b610898565b61020f90610e07565b61020f90610e3f610945610f3e565b610e64565b9060ff90610be2565b90610e5d610225610c0392151590565b8254610e44565b61020f906000610e4d565b61020f90610e30565b9061020f9291610e89610945610f3e565b9061020f929161122d565b9061020f9291610e78565b61020f90610eae610945610f3e565b61020f90610e2261037e565b61020f90610e9f565b610225906111cc565b6003610edb610c8a838361046b565b610eeb610a246108ac600061095c565b03610f01575050610225610c8a600060016107bf565b610f1b610c32610f14610c8a858561046b565b600261051d565b15610f2d5761022591610c8a9161046b565b5050610225610c8a600060016107bf565b610225610dbe610792565b610225916000610f5e610c3293610856600090565b0161051d565b15610f6b57565b60405162461bcd60e51b815260206004820152602360248201527f41757468436f6e74726f6c3a2043616c6c6572206973206e6f7420616e20616460448201526236b4b760e91b6064820152608490fd5b610fcd610fc833610864565b610f64565b61020f61020f610fdb610633565b33906108a2565b61020f610fbc565b9061020f91610ffb61088682610845565b906108959161116f565b9061020f91610fea565b61020f9061101e610945610f3e565b61102b6108ac600061095c565b611034826102b0565b1461108457611042816102b0565b61104b336102b0565b146110725761020f90610fdb61105f610792565b9161106a8184610898565b610e22610633565b604051630a98f1f360e21b8152600490fd5b60405163d92e233d60e01b8152600490fd5b61020f9061100f565b6112f3565b637965db0b60e01b6001600160e01b03198216149081156110c3575090565b61022591506001600160e01b0319166301ffc9a760e01b1490565b61020f903390611383565b6110fa6110f68383610f49565b1590565b156111685761111a6001611115846000610f5e86600461082e565b610e4d565b61113461112e611128339390565b93610514565b91610514565b917f2f8788117e7eff1d82e926ec794901d17c78024a50270940304540a733656f0d61115f60405190565b600090a4600190565b5050600090565b6111798282610f49565b156111685761119360006111158482610f5e86600461082e565b6111a161112e611128339390565b917ff6391f5c32d9c69d2a47ea670b442974b53935d1edc7fd64eb21e047a839171b61115f60405190565b610c8a610225916111db600090565b5060016107bf565b156111ea57565b60405162461bcd60e51b815260206004820152601b60248201527a50726f78793a206e6f7420636f6e7472616374206164647265737360281b6044820152606490fd5b61020f92918183611245611240836113bb565b6111e3565b611251575b5050611266565b610cae61125f9260016107bf565b388161124a565b610a6961129d7f72558d9bfba4210f9ef095c782589484151f6d90f7a81bb3cb9b33efc695d32492610a378561111583600261051d565b9261024b60405190565b156112ae57565b60405162461bcd60e51b815260206004820152601d60248201527f50726f78793a20696d706c204f522070726f78792069732066616c73650000006044820152606490fd5b6113086000356001600160e01b031916610ecc565b60008080926113196108ac8361095c565b611322826102b0565b14158061134d575b611333906112a7565b368280378136915af43d82803e15611349573d90f35b3d90fd5b5061133361135d6110f684610af2565b905061132a565b91602061020f92949361137f604082019660008301906104b7565b0152565b906113916110f68284610f49565b611399575050565b6108da6113a560405190565b63e2517d3f60e01b815292839260048401611364565b3b6113cd6113c96000610785565b9190565b119056fea2646970667358221220944a0f463a9b9d54339b12e685bd62a2e84a15d4cb035a2f60037713da6e10fc64736f6c63430008190033a2646970667358221220ea33069f7c7606313c855d0cf0584c4dd76c6efa86a0f8a01780b3234b710e9d64736f6c63430008190033","linkReferences":{}},"methodIdentifiers":{"ADMIN_ROLE()":"75b238fc","DEFAULT_ADMIN_ROLE()":"a217fddf","PAUSE_ROLE()":"389ed267","addAdmin(address)":"70480275","addPauser(address)":"82dc1ec4","aliveImplementation(address)":"550d01a3","createWSTONToken(address,address,address,uint256,uint8,string,string)":"c4bdcb33","getCounter()":"8ada066e","getRoleAdmin(bytes32)":"248a9ca3","grantRole(bytes32,address)":"2f2ff15d","hasRole(bytes32,address)":"91d14854","incrementCounter()":"5b34b966","initialize(address,address)":"485cc955","isAdmin(address)":"24d7806c","isOwner()":"8f32d59b","isPauser(address)":"46fbf68e","l1ton()":"15a327d3","l1wton()":"d21bae66","pauseProxy()":"63a8fd89","proxyImplementation(uint256)":"b911135f","removeAdmin()":"9a202d47","removePauser(address)":"6b2c0f55","renounceRole(bytes32,address)":"36568abe","revokeRole(bytes32,address)":"d547741f","selectorImplementation(bytes4)":"50d2a276","setWstonImplementation(address)":"81baed05","supportsInterface(bytes4)":"01ffc9a7","transferOwnership(address)":"f2fde38b","upgradeWstonTo(address,address)":"8bd49a4f","wstonImplementation()":"1d03a009"},"id":152}