{"abi":[{"type":"function","name":"DIVIDER","inputs":[],"outputs":[{"name":"","type":"uint8","internalType":"uint8"}],"stateMutability":"view"},{"type":"function","name":"s_requests","inputs":[{"name":"","type":"uint256","internalType":"uint256"}],"outputs":[{"name":"randomWord","type":"uint256","internalType":"uint256"},{"name":"chosenTokenId","type":"uint256","internalType":"uint256"},{"name":"requester","type":"address","internalType":"address"},{"name":"requested","type":"bool","internalType":"bool"},{"name":"fulfilled","type":"bool","internalType":"bool"}],"stateMutability":"view"},{"type":"event","name":"CallBackGasLimitUpdated","inputs":[{"name":"_callbackGasLimit","type":"uint256","indexed":false,"internalType":"uint256"}],"anonymous":false},{"type":"event","name":"CommonGemMinted","inputs":[],"anonymous":false},{"type":"event","name":"CommonGemToBeMinted","inputs":[],"anonymous":false},{"type":"event","name":"EthSentBack","inputs":[{"name":"amount","type":"uint256","indexed":false,"internalType":"uint256"}],"anonymous":false},{"type":"event","name":"GemFactoryAddressUpdated","inputs":[{"name":"gemFactory","type":"address","indexed":false,"internalType":"address"}],"anonymous":false},{"type":"event","name":"PerfectCommonGemURIUpdated","inputs":[{"name":"_tokenURI","type":"string","indexed":false,"internalType":"string"}],"anonymous":false},{"type":"event","name":"RandomGemRequested","inputs":[{"name":"requestor","type":"address","indexed":false,"internalType":"address"},{"name":"requestId","type":"uint256","indexed":false,"internalType":"uint256"}],"anonymous":false},{"type":"event","name":"RandomGemToBeTransferred","inputs":[{"name":"tokenId","type":"uint256","indexed":false,"internalType":"uint256"},{"name":"newOwner","type":"address","indexed":false,"internalType":"address"}],"anonymous":false},{"type":"event","name":"RandomGemTransferred","inputs":[{"name":"tokenId","type":"uint256","indexed":false,"internalType":"uint256"},{"name":"newOwner","type":"address","indexed":false,"internalType":"address"}],"anonymous":false},{"type":"event","name":"RandomPackFeesUpdated","inputs":[{"name":"randomPackFees","type":"uint256","indexed":false,"internalType":"uint256"}],"anonymous":false},{"type":"event","name":"TreasuryAddressUpdated","inputs":[{"name":"treasury","type":"address","indexed":false,"internalType":"address"}],"anonymous":false},{"type":"error","name":"AlreadyInitialized","inputs":[]},{"type":"error","name":"FailedToPayFees","inputs":[]},{"type":"error","name":"FailedToSendEthBack","inputs":[]},{"type":"error","name":"FailedToSendFeesToTreasury","inputs":[]},{"type":"error","name":"InvalidAddress","inputs":[]},{"type":"error","name":"RandomPackFeesEqualToZero","inputs":[]},{"type":"error","name":"RequestNotMade","inputs":[]},{"type":"error","name":"invalidProbabilities","inputs":[]}],"bytecode":{"object":"0x608060405234601f57600e608c565b6040516102316100ad823961023190f35b600080fd5b9060ff905b9181191691161790565b90565b9060436033604992151590565b82546024565b9055565b9061ff009060081b6029565b9060666033604992151590565b8254604d565b9062ff00009060101b6029565b9060866033604992151590565b8254606c565b6096600060076036565b60a0600060076059565b60aa600060076079565b56fe6080604052600436101561001257600080fd5b60003560e01c806362043bd8146100325763a168fa8903610037576101ca565b610075565b600080fd5b600091031261003757565b6100576100546100549290565b90565b60ff1690565b6100546064610047565b61005461005d565b9052565b565b346100375761008536600461003c565b6100a4610090610067565b6040519182918260ff909116815260200190565b0390f35b9060208282031261003757503590565b6100546100546100549290565b906100cf906100b8565b600052602052604060002090565b6100549081565b61005490546100dd565b610054905b6001600160a01b031690565b61005490546100ee565b6100549060a01c610057565b6100549054610109565b6100549060a81c610057565b610054905461011f565b6101409060006100c5565b610149816100e4565b91610156600183016100e4565b91610163600282016100ff565b916100546002610174818501610115565b930161012b565b61006f906100f3565b90959492610073946101b96101c2926101af6080966101a860a088019c6000890152565b6020870152565b604085019061017b565b15156060830152565b019015159052565b34610037576100a46101e56101e03660046100a8565b610135565b916101f295939560405190565b9586958661018456fea26469706673582212202151c05673361ceb898e8a7a3d948c84d93ecf3beea6ceb3f0cf80f9a53bfe2464736f6c63430008190033","linkReferences":{}},"methodIdentifiers":{"DIVIDER()":"62043bd8","s_requests(uint256)":"a168fa89"},"id":73}