{"abi":[{"type":"function","name":"DECIMALS","inputs":[],"outputs":[{"name":"","type":"uint256","internalType":"uint256"}],"stateMutability":"view"},{"type":"function","name":"TON_FEES_RATE_DIVIDER","inputs":[],"outputs":[{"name":"","type":"uint256","internalType":"uint256"}],"stateMutability":"view"},{"type":"function","name":"gemsForSale","inputs":[{"name":"","type":"uint256","internalType":"uint256"}],"outputs":[{"name":"seller","type":"address","internalType":"address"},{"name":"price","type":"uint256","internalType":"uint256"},{"name":"isActive","type":"bool","internalType":"bool"}],"stateMutability":"view"},{"type":"event","name":"GemBought","inputs":[{"name":"tokenId","type":"uint256","indexed":false,"internalType":"uint256"},{"name":"payer","type":"address","indexed":false,"internalType":"address"},{"name":"seller","type":"address","indexed":false,"internalType":"address"},{"name":"amount","type":"uint256","indexed":false,"internalType":"uint256"},{"name":"gemCoolDownDueDate","type":"uint256","indexed":false,"internalType":"uint256"}],"anonymous":false},{"type":"event","name":"GemFactoryAddressUpdated","inputs":[{"name":"gemfactory","type":"address","indexed":false,"internalType":"address"}],"anonymous":false},{"type":"event","name":"GemForSale","inputs":[{"name":"tokenId","type":"uint256","indexed":false,"internalType":"uint256"},{"name":"seller","type":"address","indexed":false,"internalType":"address"},{"name":"price","type":"uint256","indexed":false,"internalType":"uint256"}],"anonymous":false},{"type":"event","name":"GemRemovedFromSale","inputs":[{"name":"seller","type":"address","indexed":false,"internalType":"address"},{"name":"tokenId","type":"uint256","indexed":false,"internalType":"uint256"}],"anonymous":false},{"type":"event","name":"SetDiscountRate","inputs":[{"name":"discountRate","type":"uint256","indexed":false,"internalType":"uint256"}],"anonymous":false},{"type":"event","name":"SetStakingIndex","inputs":[{"name":"stakingIndex","type":"uint256","indexed":false,"internalType":"uint256"}],"anonymous":false},{"type":"event","name":"WSTONClaimed","inputs":[{"name":"tokenId","type":"uint256","indexed":false,"internalType":"uint256"},{"name":"claimer","type":"address","indexed":false,"internalType":"address"}],"anonymous":false},{"type":"error","name":"AddressZero","inputs":[]},{"type":"error","name":"AlreadyInitialized","inputs":[]},{"type":"error","name":"BuyerIsSeller","inputs":[{"name":"errorMessage","type":"string","internalType":"string"}]},{"type":"error","name":"FailedToPay","inputs":[]},{"type":"error","name":"FailedToSendFeesToTreasury","inputs":[]},{"type":"error","name":"GemIsAlreadyForSaleOrIsMining","inputs":[]},{"type":"error","name":"GemIsNotForSale","inputs":[]},{"type":"error","name":"GemNotApproved","inputs":[]},{"type":"error","name":"ListingGemFailed","inputs":[]},{"type":"error","name":"NoTokens","inputs":[]},{"type":"error","name":"NotGemOwner","inputs":[]},{"type":"error","name":"NotPaused","inputs":[]},{"type":"error","name":"Paused","inputs":[]},{"type":"error","name":"PurchaseFailed","inputs":[]},{"type":"error","name":"WrongLength","inputs":[]},{"type":"error","name":"WrongMsgValue","inputs":[]},{"type":"error","name":"WrongPrice","inputs":[]},{"type":"error","name":"WrongSeller","inputs":[]},{"type":"error","name":"WrongStakingIndex","inputs":[]}],"bytecode":{"object":"0x608060405234601f57600e6094565b60405161020f6100c0823961020f90f35b600080fd5b90600019905b9181191691161790565b603e603e603e9290565b90565b90604d603e6053926034565b82546024565b9055565b9060ff90602a565b151590565b906070603e605392605f565b82546057565b9061ff009060081b602a565b90608e603e605392605f565b82546076565b60a96b033b2e3c9fd0803ce800000060066041565b60b3600060076064565b60bd600060076082565b56fe6080604052600436101561001257600080fd5b60003560e01c806308ec897d146100425780632e0f26251461003d57639c41b42b03610047576101af565b6100cb565b610080565b600080fd5b600091031261004757565b6100646100646100649290565b90565b610064612710610057565b610064610067565b9052565b565b346100475761009036600461004c565b6100ab61009b610072565b6040519182918290815260200190565b0390f35b610064676765c793fa10079d601b1b610057565b6100646100af565b34610047576100db36600461004c565b6100ab61009b6100c3565b9060208282031261004757503590565b9061010090610057565b600052602052604060002090565b610064905b6001600160a01b031690565b610064905461010e565b6100649081565b6100649054610129565b60ff1690565b610064905461013a565b6101559060006100f6565b61015e8161011f565b91610064600261017060018501610130565b9301610140565b61007a90610113565b6040906101a761007e94969593966101a060608401986000850190610177565b6020830152565b019015159052565b34610047576100ab6101ca6101c53660046100e6565b61014a565b6040519193919384938461018056fea2646970667358221220ff242e57a1c7175cfbf652512e0a940de2412c4ef336f1e327cbb35315b9a11564736f6c63430008190033","linkReferences":{}},"methodIdentifiers":{"DECIMALS()":"2e0f2625","TON_FEES_RATE_DIVIDER()":"08ec897d","gemsForSale(uint256)":"9c41b42b"},"id":63}