{"abi":[{"type":"function","name":"approve","inputs":[{"name":"spender","type":"address","internalType":"address"},{"name":"id","type":"uint256","internalType":"uint256"}],"outputs":[],"stateMutability":"payable"},{"type":"function","name":"balanceOf","inputs":[{"name":"owner","type":"address","internalType":"address"}],"outputs":[{"name":"","type":"uint256","internalType":"uint256"}],"stateMutability":"view"},{"type":"function","name":"getApproved","inputs":[{"name":"id","type":"uint256","internalType":"uint256"}],"outputs":[{"name":"","type":"address","internalType":"address"}],"stateMutability":"view"},{"type":"function","name":"initialize","inputs":[{"name":"name_","type":"string","internalType":"string"},{"name":"symbol_","type":"string","internalType":"string"}],"outputs":[],"stateMutability":"nonpayable"},{"type":"function","name":"isApprovedForAll","inputs":[{"name":"owner","type":"address","internalType":"address"},{"name":"operator","type":"address","internalType":"address"}],"outputs":[{"name":"","type":"bool","internalType":"bool"}],"stateMutability":"view"},{"type":"function","name":"name","inputs":[],"outputs":[{"name":"","type":"string","internalType":"string"}],"stateMutability":"view"},{"type":"function","name":"ownerOf","inputs":[{"name":"id","type":"uint256","internalType":"uint256"}],"outputs":[{"name":"owner","type":"address","internalType":"address"}],"stateMutability":"view"},{"type":"function","name":"safeTransferFrom","inputs":[{"name":"from","type":"address","internalType":"address"},{"name":"to","type":"address","internalType":"address"},{"name":"id","type":"uint256","internalType":"uint256"}],"outputs":[],"stateMutability":"payable"},{"type":"function","name":"safeTransferFrom","inputs":[{"name":"from","type":"address","internalType":"address"},{"name":"to","type":"address","internalType":"address"},{"name":"id","type":"uint256","internalType":"uint256"},{"name":"data","type":"bytes","internalType":"bytes"}],"outputs":[],"stateMutability":"payable"},{"type":"function","name":"setApprovalForAll","inputs":[{"name":"operator","type":"address","internalType":"address"},{"name":"approved","type":"bool","internalType":"bool"}],"outputs":[],"stateMutability":"nonpayable"},{"type":"function","name":"supportsInterface","inputs":[{"name":"interfaceId","type":"bytes4","internalType":"bytes4"}],"outputs":[{"name":"","type":"bool","internalType":"bool"}],"stateMutability":"view"},{"type":"function","name":"symbol","inputs":[],"outputs":[{"name":"","type":"string","internalType":"string"}],"stateMutability":"view"},{"type":"function","name":"tokenURI","inputs":[{"name":"id","type":"uint256","internalType":"uint256"}],"outputs":[{"name":"","type":"string","internalType":"string"}],"stateMutability":"view"},{"type":"function","name":"transferFrom","inputs":[{"name":"from","type":"address","internalType":"address"},{"name":"to","type":"address","internalType":"address"},{"name":"id","type":"uint256","internalType":"uint256"}],"outputs":[],"stateMutability":"payable"},{"type":"event","name":"Approval","inputs":[{"name":"_owner","type":"address","indexed":true,"internalType":"address"},{"name":"_approved","type":"address","indexed":true,"internalType":"address"},{"name":"_tokenId","type":"uint256","indexed":true,"internalType":"uint256"}],"anonymous":false},{"type":"event","name":"ApprovalForAll","inputs":[{"name":"_owner","type":"address","indexed":true,"internalType":"address"},{"name":"_operator","type":"address","indexed":true,"internalType":"address"},{"name":"_approved","type":"bool","indexed":false,"internalType":"bool"}],"anonymous":false},{"type":"event","name":"Transfer","inputs":[{"name":"_from","type":"address","indexed":true,"internalType":"address"},{"name":"_to","type":"address","indexed":true,"internalType":"address"},{"name":"_tokenId","type":"uint256","indexed":true,"internalType":"uint256"}],"anonymous":false}],"bytecode":{"object":"0x608060405234601d575b600f6021565b611b3d61002d8239611b3d90f35b6027565b60405190565b600080fdfe60806040526004361015610013575b610918565b61001e600035610110565b806301ffc9a71461010b575b806306fdde0314610106575b8063081812fc14610101575b8063095ea7b3146100fc575b806323b872dd146100f7575b806342842e0e146100f2575b80634cd88b76146100ed575b80636352211e146100e8575b806370a08231146100e3575b806395d89b41146100de575b8063a22cb465146100d9575b8063b88d4fde146100d4575b8063c87b56dd146100cf575b63e985e9c5146100ca575b61000e565b6108e1565b61087c565b61084f565b610739565b6106ad565b610677565b6105fe565b6105c9565b610454565b61042a565b6103c4565b610331565b610276565b6101a7565b60e01c90565b60405190565b600080fd5b600080fd5b600080fd5b63ffffffff60e01b901690565b6101418161012b565b90141561014b575b565b600080fd5b9050359061015d82610138565b565b9060208282031261017a575b60006101779201610150565b90565b610121565b151590565b61018d9061017f565b9052565b91906101a590600060208501940190610184565b565b346101d8575b6101d46101c36101be36600461015f565b610985565b6101cb610116565b91829182610191565b0390f35b61011c565b60009103126101e9575b565b610121565b5190565b60209181520190565b60005b838110610210575b5050906000910152565b8060209183015181850152016101fe565b601f801991011690565b61024a61025360209361025893610241816101ee565b938480936101f2565b958691016101fb565b610221565b900190565b610273916020820191600081840391015261022b565b90565b346102a7575b6102873660046101dd565b6102a3610292610b24565b61029a610116565b9182918261025d565b0390f35b61011c565b90565b6102b8816102ac565b9014156102c2575b565b600080fd5b905035906102d4826102af565b565b906020828203126102f1575b60006102ee92016102c7565b90565b610121565b60018060a01b03901690565b61030b906102f6565b90565b61031790610302565b9052565b919061032f9060006020850194019061030e565b565b34610362575b61035e61034d6103483660046102d6565b610ba9565b610355610116565b9182918261031b565b0390f35b61011c565b61037081610302565b90141561037a575b565b600080fd5b9050359061038c82610367565b565b91906040838203126103b8575b8060206103ae6103b5936000870161037f565b94016102c7565b90565b610121565b6000900190565b6103d86103d236600461038e565b90610d1f565b6103e0610116565b806103ea816103bd565b0390f35b9091606082840312610425575b61042261040b846000850161037f565b93604061041b826020870161037f565b94016102c7565b90565b610121565b61043e6104383660046103ee565b9161104c565b610446610116565b80610450816103bd565b0390f35b6104686104623660046103ee565b9161132c565b610470610116565b8061047a816103bd565b0390f35b600080fd5b600080fd5b634e487b7160e01b600052604160045260246000fd5b906104a890610221565b810190811067ffffffffffffffff8211176104c3575b604052565b610488565b906104db6104d4610116565b928361049e565b565b67ffffffffffffffff81116104fc575b6104f8602091610221565b0190565b610488565b90826000939282370152565b9092919261052261051d826104dd565b6104c8565b938185528183011161053f575b61053d916020850190610501565b565b610483565b9080601f83011215610563575b8160206105609335910161050d565b90565b61047e565b9190916040818403126105c4575b600081013567ffffffffffffffff81116105bf575b83610597918301610544565b92602082013567ffffffffffffffff81116105ba575b6105b79201610544565b90565b610126565b610126565b610121565b346105f9575b6105e36105dd366004610568565b906116d4565b6105eb610116565b806105f5816103bd565b0390f35b61011c565b3461062f575b61062b61061a6106153660046102d6565b611798565b610622610116565b9182918261031b565b0390f35b61011c565b9060208282031261064f575b600061064c920161037f565b90565b610121565b61065d906102ac565b9052565b919061067590600060208501940190610654565b565b346106a8575b6106a461069361068e366004610634565b611863565b61069b610116565b91829182610661565b0390f35b61011c565b346106de575b6106be3660046101dd565b6106da6106c96118a7565b6106d1610116565b9182918261025d565b0390f35b61011c565b6106ec8161017f565b9014156106f6575b565b600080fd5b90503590610708826106e3565b565b9190604083820312610734575b80602061072a610731936000870161037f565b94016106fb565b90565b610121565b34610769575b61075361074d36600461070a565b906118bd565b61075b610116565b80610765816103bd565b0390f35b61011c565b67ffffffffffffffff811161078d575b610789602091610221565b0190565b610488565b909291926107a76107a28261076e565b6104c8565b93818552818301116107c4575b6107c2916020850190610501565b565b610483565b9080601f830112156107e8575b8160206107e593359101610792565b90565b61047e565b9060808282031261084a575b610806816000840161037f565b92610814826020850161037f565b9261082283604083016102c7565b92606082013567ffffffffffffffff8111610845575b61084292016107c9565b90565b610126565b610121565b61086661085d3660046107ed565b929190916119a1565b61086e610116565b80610878816103bd565b0390f35b346108ad575b6108a96108986108933660046102d6565b611a8a565b6108a0610116565b9182918261025d565b0390f35b61011c565b91906040838203126108dc575b8060206108d26108d9936000870161037f565b940161037f565b90565b610121565b34610913575b61090f6108fe6108f83660046108b2565b90611a96565b610906610116565b91829182610191565b0390f35b61011c565b600080fd5b600090565b90565b60e01b90565b61093f61093a61094492610922565b610925565b61012b565b90565b90565b61095e61095961096392610947565b610925565b61012b565b90565b90565b61097d61097861098292610966565b610925565b61012b565b90565b61098d61091d565b5061099b6301ffc9a761092b565b6109a48261012b565b14908191156109d9575b8191156109ba575b5090565b90506109d26109cc635b5e139f610969565b9161012b565b14386109b6565b90506109e86380ac58cd61094a565b6109f18261012b565b14906109ae565b606090565b634e487b7160e01b600052602260045260246000fd5b9060016002830492168015610a35575b602083109014610a30575b565b6109fd565b91607f901691610a23565b60209181520190565b8050600052602060002090565b9060009291805490610a71610a6a83610a13565b8094610a40565b91600181169081600014610acc575b50600114610a8e575b505050565b610a9b9192939450610a49565b916000925b818410610ab4575b50500190388080610a89565b60018160209295939554848601520191019290610aa0565b92949550505060ff19901682521515602002900190388080610a89565b90610af391610a56565b90565b90610b16610b0f92610b06610116565b93848092610ae9565b038361049e565b565b610b2190610af6565b90565b610b2c6109f8565b50610b376000610b18565b90565b600090565b90565b610b56610b51610b5b926102ac565b610b3f565b6102ac565b90565b90610b6890610b42565b600052602052604060002090565b60001c90565b60018060a01b03901690565b610b94610b9991610b76565b610b7c565b90565b610ba69054610b88565b90565b610bc0610bc591610bb8610b3a565b506004610b5e565b610b9c565b90565b610bdc610bd7610be1926102f6565b610b3f565b6102f6565b90565b610bed90610bc8565b90565b610bf990610be4565b90565b90610c0690610bf0565b600052602052604060002090565b90610c1e90610bf0565b600052602052604060002090565b60ff901690565b610c3f610c4491610b76565b610c2c565b90565b610c519054610c33565b90565b60007f4e4f545f415554484f52495a4544000000000000000000000000000000000000910152565b610c89600e6020926101f2565b610c9281610c54565b0190565b610cac9060208101906000818303910152610c7c565b90565b15610cb7575b565b610cbf610116565b62461bcd60e51b815280610cd560048201610c96565b0390fd5b60001b90565b90610cf060018060a01b0391610cd9565b91811990169116901790565b90565b90610d14610d0f610d1b92610bf0565b610cfc565b8254610cdf565b9055565b90610d85610d7f610d79610d3c610d37856002610b5e565b610b9c565b610d4581610302565b610d4e33610302565b14809015610dbe575b610d6090610caf565b610d7486610d6f876004610b5e565b610cff565b610bf0565b93610bf0565b91610b42565b917f8c5be1e5ebec7d5bd14f71427d1e84f3dd0314c0f7b2291e5b200ac8c7c3b925610daf610116565b80610db9816103bd565b0390a4565b50610d60610ddf610dda610dd3846005610bfc565b3390610c14565b610c47565b9050610d57565b60007f57524f4e475f46524f4d00000000000000000000000000000000000000000000910152565b610e1b600a6020926101f2565b610e2481610de6565b0190565b610e3e9060208101906000818303910152610e0e565b90565b15610e49575b565b610e51610116565b62461bcd60e51b815280610e6760048201610e28565b0390fd5b90565b610e82610e7d610e8792610e6b565b610b3f565b6102f6565b90565b610e9390610e6e565b90565b60007f494e56414c49445f524543495049454e54000000000000000000000000000000910152565b610ecb60116020926101f2565b610ed481610e96565b0190565b610eee9060208101906000818303910152610ebe565b90565b15610ef9575b565b610f01610116565b62461bcd60e51b815280610f1760048201610ed8565b0390fd5b90610f2590610bf0565b600052602052604060002090565b90565b610f42610f4791610b76565b610f33565b90565b610f549054610f36565b90565b634e487b7160e01b600052601160045260246000fd5b610f76906102ac565b60008114610f86575b6001900390565b610f57565b90610f9860001991610cd9565b91811990169116901790565b90565b90610fbc610fb7610fc392610b42565b610fa4565b8254610f8b565b9055565b610fd0906102ac565b6000198114610fe1575b6001900190565b610f57565b1b90565b9190600861100a91029161100460018060a01b0384610fe6565b92610fe6565b91811990169116901790565b919061102c61102761103493610bf0565b610cfc565b908354610fea565b9055565b61104a91611044610b3a565b91611016565b565b61115561114f61115b9294939461108661107761107261106d886002610b5e565b610b9c565b610302565b61108083610302565b14610e41565b6110ab61109b6110966000610e8a565b610302565b6110a488610302565b1415610ef1565b6110b481610302565b6110bd33610302565b148090156111c4575b809015611194575b6110d790610caf565b6110fc6110e5826003610f1b565b6110f66110f182610f4a565b610f6d565b90610fa7565b61112161110a876003610f1b565b61111b61111682610f4a565b610fc7565b90610fa7565b61113586611130876002610b5e565b610cff565b61114a6000611145876004610b5e565b611038565b610bf0565b93610bf0565b91610b42565b917fddf252ad1be2c89b69c2b068fc378daa952ba7f163c4a11628f55a4df523b3ef611185610116565b8061118f816103bd565b0390a4565b506110d76111b36111ae6111a9886004610b5e565b610b9c565b610302565b6111bc33610302565b1490506110ce565b506111e26111dd6111d6836005610bfc565b3390610c14565b610c47565b6110c6565b6111f090610bc8565b90565b6111fc906111e7565b90565b61120890610be4565b90565b9050519061121882610138565b565b90602082820312611235575b6000611232920161120b565b90565b610121565b60209181520190565b61124f6000809261123a565b0190565b90916112939361127c611286926112726080860196600087019061030e565b602085019061030e565b6040830190610654565b6060818303910152611243565b90565b61129e610116565b3d6000823e3d90fd5b60007f554e534146455f524543495049454e5400000000000000000000000000000000910152565b6112dc60106020926101f2565b6112e5816112a7565b0190565b6112ff90602081019060008183039101526112cf565b90565b1561130a575b565b611312610116565b62461bcd60e51b815280611328600482016112e9565b0390fd5b909161133981848461104c565b61134b61134584611ada565b1561017f565b91829215611362575b50506113609150611302565b565b6020925061137a6113756113a4956111f3565b6111ff565b906000611385610116565b80968195829461139863150b7a02610925565b84523360048501611253565b03925af1801561140c575b611360916000916113dd575b506113d56113cf630a85bd0160e11b61012b565b9161012b565b143880611354565b6113ff915060203d602011611405575b6113f7818361049e565b81019061121a565b386113bb565b503d6113ed565b611296565b60007f414c52454144595f494e495449414c495a454400000000000000000000000000910152565b61144660136020926101f2565b61144f81611411565b0190565b6114699060208101906000818303910152611439565b90565b15611474575b565b61147c610116565b62461bcd60e51b81528061149260048201611453565b0390fd5b601f602091010490565b919060086114bc9102916114b660001984610fe6565b92610fe6565b91811990169116901790565b91906114de6114d96114e693610b42565b610fa4565b9083546114a0565b9055565b600090565b611501916114fb6114ea565b916114c8565b565b5b818110611510575b5050565b8061151e60006001936114ef565b01611504565b9190601f8111611534575b505050565b61154061156693610a49565b90602061154c84611496565b8301931061156e575b61155e90611496565b900190611503565b38808061152f565b915061155e81929050611555565b1c90565b90611591906000199060080261157c565b19901690565b816115a191611580565b90600202901790565b906115b4816101ee565b9067ffffffffffffffff821161167c575b6115d9826115d38554610a13565b85611524565b600050602090601f8311600114611612575b91809161160193600092611606575b5050611597565b90555b565b909150015138806115fa565b601f1983169161162185610a49565b9260005b818110611664575b50916002939185600196941061164a575b50505002019055611604565b61165a910151601f841690611580565b905538808061163e565b91936020600181928787015181550195019201611625565b610488565b9061168b916115aa565b565b9061169960ff91610cd9565b91811990169116901790565b6116ae9061017f565b90565b90565b906116c96116c46116d0926116a5565b6116b1565b825461168d565b9055565b906116fe611705926116f76116f26116ec6006610c47565b1561017f565b61146c565b6000611681565b6001611681565b611711600160066116b4565b565b60007f4e4f545f4d494e54454400000000000000000000000000000000000000000000910152565b611748600a6020926101f2565b61175181611713565b0190565b61176b906020810190600081830391015261173b565b90565b15611776575b565b61177e610116565b62461bcd60e51b81528061179460048201611755565b0390fd5b6117af6117b4916117a7610b3a565b506002610b5e565b610b9c565b906117dc82926117d56117cf6117ca6000610e8a565b610302565b91610302565b141561176e565b565b60007f5a45524f5f414444524553530000000000000000000000000000000000000000910152565b611813600c6020926101f2565b61181c816117de565b0190565b6118369060208101906000818303910152611806565b90565b15611841575b565b611849610116565b62461bcd60e51b81528061185f60048201611820565b0390fd5b61189f6118a4916118726114ea565b506118986118886118836000610e8a565b610302565b61189183610302565b1415611839565b6003610f1b565b610f4a565b90565b6118af6109f8565b506118ba6001610b18565b90565b6118da826118d5836118d0336005610bfc565b610c14565b6116b4565b7f17307eab39ab6107e8899845ad3d59bd9653f200f220920489ca2b5937696c3161192261191061190a33610bf0565b93610bf0565b93611919610116565b91829182610191565b0390a3565b5190565b61194a6119536020936119589361194181611927565b9384809361123a565b958691016101fb565b610221565b900190565b90926119919061198761199e969461197d6080860197600087019061030e565b602085019061030e565b6040830190610654565b606081840391015261192b565b90565b9290926119af83858361104c565b6119c16119bb85611ada565b1561017f565b928393156119d9575b5050506119d79150611302565b565b6020935060006119f36119ee611a1c976111f3565b6111ff565b926119fc610116565b96879586948593611a1063150b7a02610925565b8552336004860161195d565b03925af18015611a85575b6119d791600091611a56575b50611a4d611a47630a85bd0160e11b61012b565b9161012b565b143880806119ca565b611a78915060203d602011611a7e575b611a70818361049e565b81019061121a565b38611a33565b503d611a66565b611296565b50611a936109f8565b90565b611abb91611ab1611ab692611aa961091d565b506005610bfc565b610c14565b610c47565b90565b611ad2611acd611ad792610e6b565b610b3f565b6102ac565b90565b611ae261091d565b50600050611aee6114ea565b503b611b03611afd6000611abe565b916102ac565b119056fea26469706673582212209d545c629205b36c7885d9643f48058b26c837e27e10ab7725134adf3d8ffb6064736f6c63430008190033","linkReferences":{}},"methodIdentifiers":{"approve(address,uint256)":"095ea7b3","balanceOf(address)":"70a08231","getApproved(uint256)":"081812fc","initialize(string,string)":"4cd88b76","isApprovedForAll(address,address)":"e985e9c5","name()":"06fdde03","ownerOf(uint256)":"6352211e","safeTransferFrom(address,address,uint256)":"42842e0e","safeTransferFrom(address,address,uint256,bytes)":"b88d4fde","setApprovalForAll(address,bool)":"a22cb465","supportsInterface(bytes4)":"01ffc9a7","symbol()":"95d89b41","tokenURI(uint256)":"c87b56dd","transferFrom(address,address,uint256)":"23b872dd"},"id":21}