{
  "_format": "hh-sol-artifact-1",
  "contractName": "GemFactory",
  "sourceName": "src/L2/GemFactory.sol",
  "abi": [
    {
      "inputs": [],
      "name": "AddressZero",
      "type": "error"
    },
    {
      "inputs": [],
      "name": "ColorNotExist",
      "type": "error"
    },
    {
      "inputs": [],
      "name": "ContractNotPaused",
      "type": "error"
    },
    {
      "inputs": [],
      "name": "ContractPaused",
      "type": "error"
    },
    {
      "inputs": [],
      "name": "CooldownPeriodNotElapsed",
      "type": "error"
    },
    {
      "inputs": [
        {
          "internalType": "address",
          "name": "sender",
          "type": "address"
        },
        {
          "internalType": "uint256",
          "name": "tokenId",
          "type": "uint256"
        },
        {
          "internalType": "address",
          "name": "owner",
          "type": "address"
        }
      ],
      "name": "ERC721IncorrectOwner",
      "type": "error"
    },
    {
      "inputs": [
        {
          "internalType": "address",
          "name": "operator",
          "type": "address"
        },
        {
          "internalType": "uint256",
          "name": "tokenId",
          "type": "uint256"
        }
      ],
      "name": "ERC721InsufficientApproval",
      "type": "error"
    },
    {
      "inputs": [
        {
          "internalType": "address",
          "name": "approver",
          "type": "address"
        }
      ],
      "name": "ERC721InvalidApprover",
      "type": "error"
    },
    {
      "inputs": [
        {
          "internalType": "address",
          "name": "operator",
          "type": "address"
        }
      ],
      "name": "ERC721InvalidOperator",
      "type": "error"
    },
    {
      "inputs": [
        {
          "internalType": "address",
          "name": "owner",
          "type": "address"
        }
      ],
      "name": "ERC721InvalidOwner",
      "type": "error"
    },
    {
      "inputs": [
        {
          "internalType": "address",
          "name": "receiver",
          "type": "address"
        }
      ],
      "name": "ERC721InvalidReceiver",
      "type": "error"
    },
    {
      "inputs": [
        {
          "internalType": "address",
          "name": "sender",
          "type": "address"
        }
      ],
      "name": "ERC721InvalidSender",
      "type": "error"
    },
    {
      "inputs": [
        {
          "internalType": "uint256",
          "name": "tokenId",
          "type": "uint256"
        }
      ],
      "name": "ERC721NonexistentToken",
      "type": "error"
    },
    {
      "inputs": [],
      "name": "FailedToSendEthBack",
      "type": "error"
    },
    {
      "inputs": [],
      "name": "GemAlreadyPicked",
      "type": "error"
    },
    {
      "inputs": [],
      "name": "GemIsLocked",
      "type": "error"
    },
    {
      "inputs": [],
      "name": "GemIsNotLocked",
      "type": "error"
    },
    {
      "inputs": [],
      "name": "InvalidInitialization",
      "type": "error"
    },
    {
      "inputs": [
        {
          "internalType": "uint8",
          "name": "quadrant",
          "type": "uint8"
        },
        {
          "internalType": "uint8",
          "name": "value",
          "type": "uint8"
        }
      ],
      "name": "InvalidQuadrant",
      "type": "error"
    },
    {
      "inputs": [],
      "name": "InvalidSumOfQuadrants",
      "type": "error"
    },
    {
      "inputs": [],
      "name": "MiningPeriodNotElapsed",
      "type": "error"
    },
    {
      "inputs": [],
      "name": "MismatchedArrayLengths",
      "type": "error"
    },
    {
      "inputs": [
        {
          "internalType": "uint8",
          "name": "quadrantIndex",
          "type": "uint8"
        },
        {
          "internalType": "uint8",
          "name": "expectedValue1",
          "type": "uint8"
        },
        {
          "internalType": "uint8",
          "name": "expectedValue2",
          "type": "uint8"
        }
      ],
      "name": "NewGemInvalidQuadrant",
      "type": "error"
    },
    {
      "inputs": [],
      "name": "NoMiningTryLeft",
      "type": "error"
    },
    {
      "inputs": [],
      "name": "NotGemOwner",
      "type": "error"
    },
    {
      "inputs": [],
      "name": "NotInitializing",
      "type": "error"
    },
    {
      "inputs": [],
      "name": "NotMining",
      "type": "error"
    },
    {
      "inputs": [
        {
          "internalType": "address",
          "name": "owner",
          "type": "address"
        }
      ],
      "name": "OwnableInvalidOwner",
      "type": "error"
    },
    {
      "inputs": [
        {
          "internalType": "address",
          "name": "account",
          "type": "address"
        }
      ],
      "name": "OwnableUnauthorizedAccount",
      "type": "error"
    },
    {
      "inputs": [],
      "name": "ReentrancyGuardReentrantCall",
      "type": "error"
    },
    {
      "inputs": [],
      "name": "RequestNotMade",
      "type": "error"
    },
    {
      "inputs": [],
      "name": "SameSenderAndRecipient",
      "type": "error"
    },
    {
      "inputs": [
        {
          "internalType": "uint8",
          "name": "sum",
          "type": "uint8"
        },
        {
          "internalType": "string",
          "name": "rarity",
          "type": "string"
        }
      ],
      "name": "SumOfQuadrantsTooHigh",
      "type": "error"
    },
    {
      "inputs": [],
      "name": "TransferFailed",
      "type": "error"
    },
    {
      "inputs": [
        {
          "internalType": "uint256",
          "name": "tokenId",
          "type": "uint256"
        }
      ],
      "name": "URIQueryForNonexistentToken",
      "type": "error"
    },
    {
      "inputs": [
        {
          "internalType": "address",
          "name": "caller",
          "type": "address"
        }
      ],
      "name": "UnauthorizedCaller",
      "type": "error"
    },
    {
      "inputs": [],
      "name": "WrongRarity",
      "type": "error"
    },
    {
      "anonymous": false,
      "inputs": [
        {
          "indexed": true,
          "internalType": "address",
          "name": "owner",
          "type": "address"
        },
        {
          "indexed": true,
          "internalType": "address",
          "name": "approved",
          "type": "address"
        },
        {
          "indexed": true,
          "internalType": "uint256",
          "name": "tokenId",
          "type": "uint256"
        }
      ],
      "name": "Approval",
      "type": "event"
    },
    {
      "anonymous": false,
      "inputs": [
        {
          "indexed": true,
          "internalType": "address",
          "name": "owner",
          "type": "address"
        },
        {
          "indexed": true,
          "internalType": "address",
          "name": "operator",
          "type": "address"
        },
        {
          "indexed": false,
          "internalType": "bool",
          "name": "approved",
          "type": "bool"
        }
      ],
      "name": "ApprovalForAll",
      "type": "event"
    },
    {
      "anonymous": false,
      "inputs": [
        {
          "indexed": true,
          "internalType": "uint8",
          "name": "id",
          "type": "uint8"
        },
        {
          "indexed": false,
          "internalType": "string",
          "name": "backgroundColor",
          "type": "string"
        }
      ],
      "name": "BackgroundColorAdded",
      "type": "event"
    },
    {
      "anonymous": false,
      "inputs": [
        {
          "indexed": false,
          "internalType": "uint256",
          "name": "_fromTokenId",
          "type": "uint256"
        },
        {
          "indexed": false,
          "internalType": "uint256",
          "name": "_toTokenId",
          "type": "uint256"
        }
      ],
      "name": "BatchMetadataUpdate",
      "type": "event"
    },
    {
      "anonymous": false,
      "inputs": [
        {
          "indexed": false,
          "internalType": "uint32",
          "name": "newCallbackGasLimit",
          "type": "uint32"
        }
      ],
      "name": "CallBackGasLimitUpdated",
      "type": "event"
    },
    {
      "anonymous": false,
      "inputs": [
        {
          "indexed": true,
          "internalType": "uint8",
          "name": "id",
          "type": "uint8"
        },
        {
          "indexed": false,
          "internalType": "string",
          "name": "color",
          "type": "string"
        }
      ],
      "name": "ColorAdded",
      "type": "event"
    },
    {
      "anonymous": false,
      "inputs": [
        {
          "indexed": false,
          "internalType": "uint8",
          "name": "color_0",
          "type": "uint8"
        },
        {
          "indexed": false,
          "internalType": "uint8",
          "name": "color_1",
          "type": "uint8"
        }
      ],
      "name": "ColorValidated",
      "type": "event"
    },
    {
      "anonymous": false,
      "inputs": [
        {
          "indexed": false,
          "internalType": "uint256",
          "name": "gemCount",
          "type": "uint256"
        },
        {
          "indexed": false,
          "internalType": "uint256[]",
          "name": "tokenIds",
          "type": "uint256[]"
        }
      ],
      "name": "CountGemsByQuadrant",
      "type": "event"
    },
    {
      "anonymous": false,
      "inputs": [
        {
          "indexed": true,
          "internalType": "uint256",
          "name": "tokenId",
          "type": "uint256"
        },
        {
          "indexed": false,
          "internalType": "enum GemFactoryStorage.Rarity",
          "name": "rarity",
          "type": "uint8"
        },
        {
          "indexed": false,
          "internalType": "uint8[2]",
          "name": "color",
          "type": "uint8[2]"
        },
        {
          "indexed": false,
          "internalType": "uint8",
          "name": "miningTry",
          "type": "uint8"
        },
        {
          "indexed": false,
          "internalType": "uint256",
          "name": "value",
          "type": "uint256"
        },
        {
          "indexed": false,
          "internalType": "uint8[4]",
          "name": "quadrants",
          "type": "uint8[4]"
        },
        {
          "indexed": false,
          "internalType": "uint256",
          "name": "cooldownDueDate",
          "type": "uint256"
        },
        {
          "indexed": false,
          "internalType": "string",
          "name": "tokenURI",
          "type": "string"
        },
        {
          "indexed": false,
          "internalType": "address",
          "name": "owner",
          "type": "address"
        }
      ],
      "name": "Created",
      "type": "event"
    },
    {
      "anonymous": false,
      "inputs": [
        {
          "indexed": false,
          "internalType": "uint256",
          "name": "amount",
          "type": "uint256"
        }
      ],
      "name": "EthSentBack",
      "type": "event"
    },
    {
      "anonymous": false,
      "inputs": [
        {
          "indexed": false,
          "internalType": "address",
          "name": "gemOwner",
          "type": "address"
        },
        {
          "indexed": false,
          "internalType": "uint256[]",
          "name": "gemsTokenIds",
          "type": "uint256[]"
        },
        {
          "indexed": false,
          "internalType": "uint256",
          "name": "newGemCreatedId",
          "type": "uint256"
        },
        {
          "indexed": false,
          "internalType": "enum GemFactoryStorage.Rarity",
          "name": "newRarity",
          "type": "uint8"
        },
        {
          "indexed": false,
          "internalType": "uint8[4]",
          "name": "forgedQuadrants",
          "type": "uint8[4]"
        },
        {
          "indexed": false,
          "internalType": "uint8[2]",
          "name": "color",
          "type": "uint8[2]"
        },
        {
          "indexed": false,
          "internalType": "uint256",
          "name": "newValue",
          "type": "uint256"
        }
      ],
      "name": "GemForged",
      "type": "event"
    },
    {
      "anonymous": false,
      "inputs": [
        {
          "indexed": false,
          "internalType": "uint256",
          "name": "_tokenId",
          "type": "uint256"
        },
        {
          "indexed": false,
          "internalType": "address",
          "name": "_from",
          "type": "address"
        }
      ],
      "name": "GemMelted",
      "type": "event"
    },
    {
      "anonymous": false,
      "inputs": [
        {
          "indexed": false,
          "internalType": "uint256",
          "name": "tokenId",
          "type": "uint256"
        },
        {
          "indexed": false,
          "internalType": "uint256",
          "name": "chosenTokenId",
          "type": "uint256"
        },
        {
          "indexed": false,
          "internalType": "uint256",
          "name": "minedGemCooldownDueDate",
          "type": "uint256"
        },
        {
          "indexed": false,
          "internalType": "uint256",
          "name": "initialGemCooldownDueDate",
          "type": "uint256"
        },
        {
          "indexed": false,
          "internalType": "address",
          "name": "miner",
          "type": "address"
        }
      ],
      "name": "GemMiningClaimed",
      "type": "event"
    },
    {
      "anonymous": false,
      "inputs": [
        {
          "indexed": false,
          "internalType": "uint256",
          "name": "tokenId",
          "type": "uint256"
        },
        {
          "indexed": false,
          "internalType": "address",
          "name": "miner",
          "type": "address"
        },
        {
          "indexed": false,
          "internalType": "uint256",
          "name": "startMiningTime",
          "type": "uint256"
        },
        {
          "indexed": false,
          "internalType": "uint256",
          "name": "newminingTry",
          "type": "uint256"
        }
      ],
      "name": "GemMiningStarted",
      "type": "event"
    },
    {
      "anonymous": false,
      "inputs": [
        {
          "indexed": false,
          "internalType": "uint32",
          "name": "RareGemsCooldownPeriod",
          "type": "uint32"
        },
        {
          "indexed": false,
          "internalType": "uint32",
          "name": "UniqueGemsCooldownPeriod",
          "type": "uint32"
        },
        {
          "indexed": false,
          "internalType": "uint32",
          "name": "EpicGemsCooldownPeriod",
          "type": "uint32"
        },
        {
          "indexed": false,
          "internalType": "uint32",
          "name": "LegendaryGemsCooldownPeriod",
          "type": "uint32"
        },
        {
          "indexed": false,
          "internalType": "uint32",
          "name": "MythicGemsCooldownPeriod",
          "type": "uint32"
        }
      ],
      "name": "GemsCoolDownPeriodModified",
      "type": "event"
    },
    {
      "anonymous": false,
      "inputs": [
        {
          "indexed": false,
          "internalType": "uint32",
          "name": "RareGemsMiningPeriod",
          "type": "uint32"
        },
        {
          "indexed": false,
          "internalType": "uint32",
          "name": "UniqueGemsMiningPeriod",
          "type": "uint32"
        },
        {
          "indexed": false,
          "internalType": "uint32",
          "name": "EpicGemsMiningPeriod",
          "type": "uint32"
        },
        {
          "indexed": false,
          "internalType": "uint32",
          "name": "LegendaryGemsMiningPeriod",
          "type": "uint32"
        },
        {
          "indexed": false,
          "internalType": "uint32",
          "name": "MythicGemsMiningPeriod",
          "type": "uint32"
        }
      ],
      "name": "GemsMiningPeriodModified",
      "type": "event"
    },
    {
      "anonymous": false,
      "inputs": [
        {
          "indexed": false,
          "internalType": "uint8",
          "name": "RareGemsMiningTry",
          "type": "uint8"
        },
        {
          "indexed": false,
          "internalType": "uint8",
          "name": "UniqueGemsMiningTry",
          "type": "uint8"
        },
        {
          "indexed": false,
          "internalType": "uint8",
          "name": "EpicGemsMiningTry",
          "type": "uint8"
        },
        {
          "indexed": false,
          "internalType": "uint8",
          "name": "LegendaryGemsMiningTry",
          "type": "uint8"
        },
        {
          "indexed": false,
          "internalType": "uint8",
          "name": "MythicGemsMiningTry",
          "type": "uint8"
        }
      ],
      "name": "GemsMiningTryModified",
      "type": "event"
    },
    {
      "anonymous": false,
      "inputs": [
        {
          "indexed": false,
          "internalType": "uint256",
          "name": "CommonGemsValue",
          "type": "uint256"
        },
        {
          "indexed": false,
          "internalType": "uint256",
          "name": "RareGemsValue",
          "type": "uint256"
        },
        {
          "indexed": false,
          "internalType": "uint256",
          "name": "UniqueGemsValue",
          "type": "uint256"
        },
        {
          "indexed": false,
          "internalType": "uint256",
          "name": "EpicGemsValue",
          "type": "uint256"
        },
        {
          "indexed": false,
          "internalType": "uint256",
          "name": "LegendaryValue",
          "type": "uint256"
        },
        {
          "indexed": false,
          "internalType": "uint256",
          "name": "MythicValue",
          "type": "uint256"
        }
      ],
      "name": "GemsValueModified",
      "type": "event"
    },
    {
      "anonymous": false,
      "inputs": [
        {
          "indexed": false,
          "internalType": "uint64",
          "name": "version",
          "type": "uint64"
        }
      ],
      "name": "Initialized",
      "type": "event"
    },
    {
      "anonymous": false,
      "inputs": [
        {
          "indexed": false,
          "internalType": "uint256",
          "name": "_tokenId",
          "type": "uint256"
        }
      ],
      "name": "MetadataUpdate",
      "type": "event"
    },
    {
      "anonymous": false,
      "inputs": [
        {
          "indexed": false,
          "internalType": "uint256",
          "name": "_tokenId",
          "type": "uint256"
        },
        {
          "indexed": false,
          "internalType": "address",
          "name": "owner",
          "type": "address"
        },
        {
          "indexed": false,
          "internalType": "uint256",
          "name": "timestamp",
          "type": "uint256"
        }
      ],
      "name": "MiningCancelled",
      "type": "event"
    },
    {
      "anonymous": false,
      "inputs": [
        {
          "indexed": false,
          "internalType": "uint256",
          "name": "tokenId",
          "type": "uint256"
        },
        {
          "indexed": false,
          "internalType": "uint256",
          "name": "initialGemCooldownDueDate",
          "type": "uint256"
        },
        {
          "indexed": false,
          "internalType": "address",
          "name": "miner",
          "type": "address"
        }
      ],
      "name": "NoGemAvailable",
      "type": "event"
    },
    {
      "anonymous": false,
      "inputs": [
        {
          "indexed": true,
          "internalType": "address",
          "name": "previousOwner",
          "type": "address"
        },
        {
          "indexed": true,
          "internalType": "address",
          "name": "newOwner",
          "type": "address"
        }
      ],
      "name": "OwnershipTransferred",
      "type": "event"
    },
    {
      "anonymous": false,
      "inputs": [
        {
          "indexed": false,
          "internalType": "address",
          "name": "account",
          "type": "address"
        }
      ],
      "name": "Paused",
      "type": "event"
    },
    {
      "anonymous": false,
      "inputs": [
        {
          "indexed": false,
          "internalType": "uint256",
          "name": "tokenId",
          "type": "uint256"
        },
        {
          "indexed": false,
          "internalType": "uint256",
          "name": "requestNumber",
          "type": "uint256"
        }
      ],
      "name": "RandomGemRequested",
      "type": "event"
    },
    {
      "anonymous": false,
      "inputs": [
        {
          "indexed": true,
          "internalType": "address",
          "name": "from",
          "type": "address"
        },
        {
          "indexed": true,
          "internalType": "address",
          "name": "to",
          "type": "address"
        },
        {
          "indexed": true,
          "internalType": "uint256",
          "name": "tokenId",
          "type": "uint256"
        }
      ],
      "name": "Transfer",
      "type": "event"
    },
    {
      "anonymous": false,
      "inputs": [
        {
          "indexed": false,
          "internalType": "address",
          "name": "from",
          "type": "address"
        },
        {
          "indexed": false,
          "internalType": "address",
          "name": "to",
          "type": "address"
        },
        {
          "indexed": false,
          "internalType": "uint256",
          "name": "tokenId",
          "type": "uint256"
        },
        {
          "indexed": false,
          "internalType": "uint256",
          "name": "gemCooldownDueDate",
          "type": "uint256"
        }
      ],
      "name": "TransferGEM",
      "type": "event"
    },
    {
      "anonymous": false,
      "inputs": [
        {
          "indexed": false,
          "internalType": "address",
          "name": "account",
          "type": "address"
        }
      ],
      "name": "Unpaused",
      "type": "event"
    },
    {
      "inputs": [
        {
          "internalType": "uint256",
          "name": "",
          "type": "uint256"
        }
      ],
      "name": "GEMIndexToOwner",
      "outputs": [
        {
          "internalType": "address",
          "name": "",
          "type": "address"
        }
      ],
      "stateMutability": "view",
      "type": "function"
    },
    {
      "inputs": [
        {
          "internalType": "uint256",
          "name": "",
          "type": "uint256"
        }
      ],
      "name": "Gems",
      "outputs": [
        {
          "internalType": "uint256",
          "name": "tokenId",
          "type": "uint256"
        },
        {
          "internalType": "uint256",
          "name": "value",
          "type": "uint256"
        },
        {
          "internalType": "uint256",
          "name": "gemCooldownDueDate",
          "type": "uint256"
        },
        {
          "internalType": "uint256",
          "name": "randomRequestId",
          "type": "uint256"
        },
        {
          "internalType": "enum GemFactoryStorage.Rarity",
          "name": "rarity",
          "type": "uint8"
        },
        {
          "internalType": "uint8",
          "name": "miningTry",
          "type": "uint8"
        },
        {
          "internalType": "bool",
          "name": "isLocked",
          "type": "bool"
        },
        {
          "internalType": "string",
          "name": "tokenURI",
          "type": "string"
        }
      ],
      "stateMutability": "view",
      "type": "function"
    },
    {
      "inputs": [
        {
          "internalType": "string",
          "name": "_colorName",
          "type": "string"
        },
        {
          "internalType": "uint8",
          "name": "_index1",
          "type": "uint8"
        },
        {
          "internalType": "uint8",
          "name": "_index2",
          "type": "uint8"
        }
      ],
      "name": "addColor",
      "outputs": [],
      "stateMutability": "nonpayable",
      "type": "function"
    },
    {
      "inputs": [
        {
          "internalType": "address",
          "name": "",
          "type": "address"
        }
      ],
      "name": "aliveImplementation",
      "outputs": [
        {
          "internalType": "bool",
          "name": "",
          "type": "bool"
        }
      ],
      "stateMutability": "view",
      "type": "function"
    },
    {
      "inputs": [
        {
          "internalType": "address",
          "name": "to",
          "type": "address"
        },
        {
          "internalType": "uint256",
          "name": "tokenId",
          "type": "uint256"
        }
      ],
      "name": "approve",
      "outputs": [],
      "stateMutability": "nonpayable",
      "type": "function"
    },
    {
      "inputs": [],
      "name": "availableGemsRandomPack",
      "outputs": [
        {
          "internalType": "bool",
          "name": "",
          "type": "bool"
        }
      ],
      "stateMutability": "view",
      "type": "function"
    },
    {
      "inputs": [
        {
          "internalType": "address",
          "name": "_owner",
          "type": "address"
        }
      ],
      "name": "balanceOf",
      "outputs": [
        {
          "internalType": "uint256",
          "name": "count",
          "type": "uint256"
        }
      ],
      "stateMutability": "view",
      "type": "function"
    },
    {
      "inputs": [],
      "name": "callbackGasLimit",
      "outputs": [
        {
          "internalType": "uint32",
          "name": "",
          "type": "uint32"
        }
      ],
      "stateMutability": "view",
      "type": "function"
    },
    {
      "inputs": [
        {
          "internalType": "uint8",
          "name": "",
          "type": "uint8"
        },
        {
          "internalType": "uint8",
          "name": "",
          "type": "uint8"
        }
      ],
      "name": "colorName",
      "outputs": [
        {
          "internalType": "string",
          "name": "",
          "type": "string"
        }
      ],
      "stateMutability": "view",
      "type": "function"
    },
    {
      "inputs": [
        {
          "internalType": "uint256",
          "name": "",
          "type": "uint256"
        },
        {
          "internalType": "uint256",
          "name": "",
          "type": "uint256"
        }
      ],
      "name": "colors",
      "outputs": [
        {
          "internalType": "uint8",
          "name": "",
          "type": "uint8"
        }
      ],
      "stateMutability": "view",
      "type": "function"
    },
    {
      "inputs": [],
      "name": "colorsCount",
      "outputs": [
        {
          "internalType": "uint8",
          "name": "",
          "type": "uint8"
        }
      ],
      "stateMutability": "view",
      "type": "function"
    },
    {
      "inputs": [
        {
          "internalType": "enum GemFactoryStorage.Rarity",
          "name": "_rarity",
          "type": "uint8"
        },
        {
          "internalType": "uint8[2]",
          "name": "_color",
          "type": "uint8[2]"
        },
        {
          "internalType": "uint8[4]",
          "name": "_quadrants",
          "type": "uint8[4]"
        },
        {
          "internalType": "string",
          "name": "_tokenURI",
          "type": "string"
        }
      ],
      "name": "createGEM",
      "outputs": [
        {
          "internalType": "uint256",
          "name": "",
          "type": "uint256"
        }
      ],
      "stateMutability": "nonpayable",
      "type": "function"
    },
    {
      "inputs": [
        {
          "internalType": "enum GemFactoryStorage.Rarity[]",
          "name": "_rarities",
          "type": "uint8[]"
        },
        {
          "internalType": "uint8[2][]",
          "name": "_colors",
          "type": "uint8[2][]"
        },
        {
          "internalType": "uint8[4][]",
          "name": "_quadrants",
          "type": "uint8[4][]"
        },
        {
          "internalType": "string[]",
          "name": "_tokenURIs",
          "type": "string[]"
        }
      ],
      "name": "createGEMPool",
      "outputs": [
        {
          "internalType": "uint256[]",
          "name": "",
          "type": "uint256[]"
        }
      ],
      "stateMutability": "nonpayable",
      "type": "function"
    },
    {
      "inputs": [],
      "name": "getAirdropAddress",
      "outputs": [
        {
          "internalType": "address",
          "name": "",
          "type": "address"
        }
      ],
      "stateMutability": "view",
      "type": "function"
    },
    {
      "inputs": [
        {
          "internalType": "uint256",
          "name": "tokenId",
          "type": "uint256"
        }
      ],
      "name": "getApproved",
      "outputs": [
        {
          "internalType": "address",
          "name": "",
          "type": "address"
        }
      ],
      "stateMutability": "view",
      "type": "function"
    },
    {
      "inputs": [
        {
          "internalType": "uint8",
          "name": "_index1",
          "type": "uint8"
        },
        {
          "internalType": "uint8",
          "name": "_index2",
          "type": "uint8"
        }
      ],
      "name": "getColorName",
      "outputs": [
        {
          "internalType": "string",
          "name": "",
          "type": "string"
        }
      ],
      "stateMutability": "view",
      "type": "function"
    },
    {
      "inputs": [],
      "name": "getCommonGemsValue",
      "outputs": [
        {
          "internalType": "uint256",
          "name": "",
          "type": "uint256"
        }
      ],
      "stateMutability": "view",
      "type": "function"
    },
    {
      "inputs": [],
      "name": "getEpicGemsCooldownPeriod",
      "outputs": [
        {
          "internalType": "uint32",
          "name": "",
          "type": "uint32"
        }
      ],
      "stateMutability": "view",
      "type": "function"
    },
    {
      "inputs": [],
      "name": "getEpicGemsMiningPeriod",
      "outputs": [
        {
          "internalType": "uint32",
          "name": "",
          "type": "uint32"
        }
      ],
      "stateMutability": "view",
      "type": "function"
    },
    {
      "inputs": [],
      "name": "getEpicGemsValue",
      "outputs": [
        {
          "internalType": "uint256",
          "name": "",
          "type": "uint256"
        }
      ],
      "stateMutability": "view",
      "type": "function"
    },
    {
      "inputs": [],
      "name": "getEpicminingTry",
      "outputs": [
        {
          "internalType": "uint8",
          "name": "",
          "type": "uint8"
        }
      ],
      "stateMutability": "view",
      "type": "function"
    },
    {
      "inputs": [
        {
          "internalType": "uint256",
          "name": "tokenId",
          "type": "uint256"
        }
      ],
      "name": "getGem",
      "outputs": [
        {
          "components": [
            {
              "internalType": "uint256",
              "name": "tokenId",
              "type": "uint256"
            },
            {
              "internalType": "uint256",
              "name": "value",
              "type": "uint256"
            },
            {
              "internalType": "uint256",
              "name": "gemCooldownDueDate",
              "type": "uint256"
            },
            {
              "internalType": "uint256",
              "name": "randomRequestId",
              "type": "uint256"
            },
            {
              "internalType": "enum GemFactoryStorage.Rarity",
              "name": "rarity",
              "type": "uint8"
            },
            {
              "internalType": "uint8",
              "name": "miningTry",
              "type": "uint8"
            },
            {
              "internalType": "bool",
              "name": "isLocked",
              "type": "bool"
            },
            {
              "internalType": "uint8[4]",
              "name": "quadrants",
              "type": "uint8[4]"
            },
            {
              "internalType": "uint8[2]",
              "name": "color",
              "type": "uint8[2]"
            },
            {
              "internalType": "string",
              "name": "tokenURI",
              "type": "string"
            }
          ],
          "internalType": "struct GemFactoryStorage.Gem",
          "name": "",
          "type": "tuple"
        }
      ],
      "stateMutability": "view",
      "type": "function"
    },
    {
      "inputs": [
        {
          "internalType": "enum GemFactoryStorage.Rarity",
          "name": "_rarity",
          "type": "uint8"
        }
      ],
      "name": "getGemListAvailableByRarity",
      "outputs": [
        {
          "internalType": "uint256",
          "name": "",
          "type": "uint256"
        },
        {
          "internalType": "uint256[]",
          "name": "",
          "type": "uint256[]"
        }
      ],
      "stateMutability": "view",
      "type": "function"
    },
    {
      "inputs": [],
      "name": "getGemsSupplyTotalValue",
      "outputs": [
        {
          "internalType": "uint256",
          "name": "totalValue",
          "type": "uint256"
        }
      ],
      "stateMutability": "view",
      "type": "function"
    },
    {
      "inputs": [],
      "name": "getLegendaryGemsCooldownPeriod",
      "outputs": [
        {
          "internalType": "uint32",
          "name": "",
          "type": "uint32"
        }
      ],
      "stateMutability": "view",
      "type": "function"
    },
    {
      "inputs": [],
      "name": "getLegendaryGemsMiningPeriod",
      "outputs": [
        {
          "internalType": "uint32",
          "name": "",
          "type": "uint32"
        }
      ],
      "stateMutability": "view",
      "type": "function"
    },
    {
      "inputs": [],
      "name": "getLegendaryGemsValue",
      "outputs": [
        {
          "internalType": "uint256",
          "name": "",
          "type": "uint256"
        }
      ],
      "stateMutability": "view",
      "type": "function"
    },
    {
      "inputs": [],
      "name": "getLegendaryminingTry",
      "outputs": [
        {
          "internalType": "uint8",
          "name": "",
          "type": "uint8"
        }
      ],
      "stateMutability": "view",
      "type": "function"
    },
    {
      "inputs": [],
      "name": "getMarketPlaceAddress",
      "outputs": [
        {
          "internalType": "address",
          "name": "",
          "type": "address"
        }
      ],
      "stateMutability": "view",
      "type": "function"
    },
    {
      "inputs": [],
      "name": "getMythicGemsCooldownPeriod",
      "outputs": [
        {
          "internalType": "uint32",
          "name": "",
          "type": "uint32"
        }
      ],
      "stateMutability": "view",
      "type": "function"
    },
    {
      "inputs": [],
      "name": "getMythicGemsMiningPeriod",
      "outputs": [
        {
          "internalType": "uint32",
          "name": "",
          "type": "uint32"
        }
      ],
      "stateMutability": "view",
      "type": "function"
    },
    {
      "inputs": [],
      "name": "getMythicGemsValue",
      "outputs": [
        {
          "internalType": "uint256",
          "name": "",
          "type": "uint256"
        }
      ],
      "stateMutability": "view",
      "type": "function"
    },
    {
      "inputs": [],
      "name": "getMythicminingTry",
      "outputs": [
        {
          "internalType": "uint8",
          "name": "",
          "type": "uint8"
        }
      ],
      "stateMutability": "view",
      "type": "function"
    },
    {
      "inputs": [
        {
          "internalType": "enum GemFactoryStorage.Rarity",
          "name": "rarity",
          "type": "uint8"
        }
      ],
      "name": "getNumberActiveMinersByRarity",
      "outputs": [
        {
          "internalType": "uint256",
          "name": "",
          "type": "uint256"
        }
      ],
      "stateMutability": "view",
      "type": "function"
    },
    {
      "inputs": [
        {
          "internalType": "address",
          "name": "_user",
          "type": "address"
        }
      ],
      "name": "getOwnershipTokenCount",
      "outputs": [
        {
          "internalType": "uint256",
          "name": "",
          "type": "uint256"
        }
      ],
      "stateMutability": "view",
      "type": "function"
    },
    {
      "inputs": [],
      "name": "getPaused",
      "outputs": [
        {
          "internalType": "bool",
          "name": "",
          "type": "bool"
        }
      ],
      "stateMutability": "view",
      "type": "function"
    },
    {
      "inputs": [
        {
          "internalType": "uint256",
          "name": "_requestId",
          "type": "uint256"
        }
      ],
      "name": "getRandomRequest",
      "outputs": [
        {
          "components": [
            {
              "internalType": "uint256",
              "name": "tokenId",
              "type": "uint256"
            },
            {
              "internalType": "uint256",
              "name": "randomWord",
              "type": "uint256"
            },
            {
              "internalType": "uint256",
              "name": "chosenTokenId",
              "type": "uint256"
            },
            {
              "internalType": "address",
              "name": "requester",
              "type": "address"
            },
            {
              "internalType": "bool",
              "name": "requested",
              "type": "bool"
            },
            {
              "internalType": "bool",
              "name": "fulfilled",
              "type": "bool"
            }
          ],
          "internalType": "struct GemFactoryStorage.RequestStatus",
          "name": "",
          "type": "tuple"
        }
      ],
      "stateMutability": "view",
      "type": "function"
    },
    {
      "inputs": [],
      "name": "getRareGemsCooldownPeriod",
      "outputs": [
        {
          "internalType": "uint32",
          "name": "",
          "type": "uint32"
        }
      ],
      "stateMutability": "view",
      "type": "function"
    },
    {
      "inputs": [],
      "name": "getRareGemsMiningPeriod",
      "outputs": [
        {
          "internalType": "uint32",
          "name": "",
          "type": "uint32"
        }
      ],
      "stateMutability": "view",
      "type": "function"
    },
    {
      "inputs": [],
      "name": "getRareGemsValue",
      "outputs": [
        {
          "internalType": "uint256",
          "name": "",
          "type": "uint256"
        }
      ],
      "stateMutability": "view",
      "type": "function"
    },
    {
      "inputs": [],
      "name": "getRareminingTry",
      "outputs": [
        {
          "internalType": "uint8",
          "name": "",
          "type": "uint8"
        }
      ],
      "stateMutability": "view",
      "type": "function"
    },
    {
      "inputs": [],
      "name": "getRequestCount",
      "outputs": [
        {
          "internalType": "uint256",
          "name": "",
          "type": "uint256"
        }
      ],
      "stateMutability": "view",
      "type": "function"
    },
    {
      "inputs": [],
      "name": "getRequestIds",
      "outputs": [
        {
          "internalType": "uint256[]",
          "name": "",
          "type": "uint256[]"
        }
      ],
      "stateMutability": "view",
      "type": "function"
    },
    {
      "inputs": [],
      "name": "getTonAddress",
      "outputs": [
        {
          "internalType": "address",
          "name": "",
          "type": "address"
        }
      ],
      "stateMutability": "view",
      "type": "function"
    },
    {
      "inputs": [],
      "name": "getTreasuryAddress",
      "outputs": [
        {
          "internalType": "address",
          "name": "",
          "type": "address"
        }
      ],
      "stateMutability": "view",
      "type": "function"
    },
    {
      "inputs": [],
      "name": "getUniqueGemsCooldownPeriod",
      "outputs": [
        {
          "internalType": "uint32",
          "name": "",
          "type": "uint32"
        }
      ],
      "stateMutability": "view",
      "type": "function"
    },
    {
      "inputs": [],
      "name": "getUniqueGemsMiningPeriod",
      "outputs": [
        {
          "internalType": "uint32",
          "name": "",
          "type": "uint32"
        }
      ],
      "stateMutability": "view",
      "type": "function"
    },
    {
      "inputs": [],
      "name": "getUniqueGemsValue",
      "outputs": [
        {
          "internalType": "uint256",
          "name": "",
          "type": "uint256"
        }
      ],
      "stateMutability": "view",
      "type": "function"
    },
    {
      "inputs": [],
      "name": "getUniqueminingTry",
      "outputs": [
        {
          "internalType": "uint8",
          "name": "",
          "type": "uint8"
        }
      ],
      "stateMutability": "view",
      "type": "function"
    },
    {
      "inputs": [
        {
          "internalType": "enum GemFactoryStorage.Rarity",
          "name": "_rarity",
          "type": "uint8"
        }
      ],
      "name": "getValueBasedOnRarity",
      "outputs": [
        {
          "internalType": "uint256",
          "name": "value",
          "type": "uint256"
        }
      ],
      "stateMutability": "view",
      "type": "function"
    },
    {
      "inputs": [],
      "name": "getWstonAddress",
      "outputs": [
        {
          "internalType": "address",
          "name": "",
          "type": "address"
        }
      ],
      "stateMutability": "view",
      "type": "function"
    },
    {
      "inputs": [
        {
          "internalType": "address",
          "name": "_owner",
          "type": "address"
        },
        {
          "internalType": "address",
          "name": "_wston",
          "type": "address"
        },
        {
          "internalType": "address",
          "name": "_ton",
          "type": "address"
        },
        {
          "internalType": "address",
          "name": "_treasury",
          "type": "address"
        }
      ],
      "name": "initialize",
      "outputs": [],
      "stateMutability": "nonpayable",
      "type": "function"
    },
    {
      "inputs": [
        {
          "internalType": "address",
          "name": "owner",
          "type": "address"
        },
        {
          "internalType": "address",
          "name": "operator",
          "type": "address"
        }
      ],
      "name": "isApprovedForAll",
      "outputs": [
        {
          "internalType": "bool",
          "name": "",
          "type": "bool"
        }
      ],
      "stateMutability": "view",
      "type": "function"
    },
    {
      "inputs": [
        {
          "internalType": "uint256",
          "name": "_tokenId",
          "type": "uint256"
        }
      ],
      "name": "isTokenLocked",
      "outputs": [
        {
          "internalType": "bool",
          "name": "",
          "type": "bool"
        }
      ],
      "stateMutability": "view",
      "type": "function"
    },
    {
      "inputs": [
        {
          "internalType": "uint256",
          "name": "_tokenId",
          "type": "uint256"
        }
      ],
      "name": "meltGEM",
      "outputs": [],
      "stateMutability": "nonpayable",
      "type": "function"
    },
    {
      "inputs": [],
      "name": "name",
      "outputs": [
        {
          "internalType": "string",
          "name": "",
          "type": "string"
        }
      ],
      "stateMutability": "view",
      "type": "function"
    },
    {
      "inputs": [
        {
          "internalType": "enum GemFactoryStorage.Rarity",
          "name": "",
          "type": "uint8"
        }
      ],
      "name": "numberMiningGemsByRarity",
      "outputs": [
        {
          "internalType": "uint256",
          "name": "",
          "type": "uint256"
        }
      ],
      "stateMutability": "view",
      "type": "function"
    },
    {
      "inputs": [],
      "name": "owner",
      "outputs": [
        {
          "internalType": "address",
          "name": "",
          "type": "address"
        }
      ],
      "stateMutability": "view",
      "type": "function"
    },
    {
      "inputs": [
        {
          "internalType": "uint256",
          "name": "tokenId",
          "type": "uint256"
        }
      ],
      "name": "ownerOf",
      "outputs": [
        {
          "internalType": "address",
          "name": "",
          "type": "address"
        }
      ],
      "stateMutability": "view",
      "type": "function"
    },
    {
      "inputs": [
        {
          "internalType": "address",
          "name": "",
          "type": "address"
        }
      ],
      "name": "ownershipTokenCount",
      "outputs": [
        {
          "internalType": "uint256",
          "name": "",
          "type": "uint256"
        }
      ],
      "stateMutability": "view",
      "type": "function"
    },
    {
      "inputs": [],
      "name": "pause",
      "outputs": [],
      "stateMutability": "nonpayable",
      "type": "function"
    },
    {
      "inputs": [],
      "name": "pauseProxy",
      "outputs": [
        {
          "internalType": "bool",
          "name": "",
          "type": "bool"
        }
      ],
      "stateMutability": "view",
      "type": "function"
    },
    {
      "inputs": [],
      "name": "paused",
      "outputs": [
        {
          "internalType": "bool",
          "name": "",
          "type": "bool"
        }
      ],
      "stateMutability": "view",
      "type": "function"
    },
    {
      "inputs": [],
      "name": "preMintedGemsAvailable",
      "outputs": [
        {
          "internalType": "uint256[]",
          "name": "GemsAvailable",
          "type": "uint256[]"
        }
      ],
      "stateMutability": "view",
      "type": "function"
    },
    {
      "inputs": [
        {
          "internalType": "uint256",
          "name": "",
          "type": "uint256"
        }
      ],
      "name": "proxyImplementation",
      "outputs": [
        {
          "internalType": "address",
          "name": "",
          "type": "address"
        }
      ],
      "stateMutability": "view",
      "type": "function"
    },
    {
      "inputs": [],
      "name": "renounceOwnership",
      "outputs": [],
      "stateMutability": "nonpayable",
      "type": "function"
    },
    {
      "inputs": [
        {
          "internalType": "uint256",
          "name": "",
          "type": "uint256"
        }
      ],
      "name": "s_requests",
      "outputs": [
        {
          "internalType": "uint256",
          "name": "tokenId",
          "type": "uint256"
        },
        {
          "internalType": "uint256",
          "name": "randomWord",
          "type": "uint256"
        },
        {
          "internalType": "uint256",
          "name": "chosenTokenId",
          "type": "uint256"
        },
        {
          "internalType": "address",
          "name": "requester",
          "type": "address"
        },
        {
          "internalType": "bool",
          "name": "requested",
          "type": "bool"
        },
        {
          "internalType": "bool",
          "name": "fulfilled",
          "type": "bool"
        }
      ],
      "stateMutability": "view",
      "type": "function"
    },
    {
      "inputs": [
        {
          "internalType": "address",
          "name": "from",
          "type": "address"
        },
        {
          "internalType": "address",
          "name": "to",
          "type": "address"
        },
        {
          "internalType": "uint256",
          "name": "tokenId",
          "type": "uint256"
        }
      ],
      "name": "safeTransferFrom",
      "outputs": [],
      "stateMutability": "nonpayable",
      "type": "function"
    },
    {
      "inputs": [
        {
          "internalType": "address",
          "name": "from",
          "type": "address"
        },
        {
          "internalType": "address",
          "name": "to",
          "type": "address"
        },
        {
          "internalType": "uint256",
          "name": "tokenId",
          "type": "uint256"
        },
        {
          "internalType": "bytes",
          "name": "data",
          "type": "bytes"
        }
      ],
      "name": "safeTransferFrom",
      "outputs": [],
      "stateMutability": "nonpayable",
      "type": "function"
    },
    {
      "inputs": [
        {
          "internalType": "bytes4",
          "name": "",
          "type": "bytes4"
        }
      ],
      "name": "selectorImplementation",
      "outputs": [
        {
          "internalType": "address",
          "name": "",
          "type": "address"
        }
      ],
      "stateMutability": "view",
      "type": "function"
    },
    {
      "inputs": [
        {
          "internalType": "address",
          "name": "_airdrop",
          "type": "address"
        }
      ],
      "name": "setAirdrop",
      "outputs": [],
      "stateMutability": "nonpayable",
      "type": "function"
    },
    {
      "inputs": [
        {
          "internalType": "address",
          "name": "operator",
          "type": "address"
        },
        {
          "internalType": "bool",
          "name": "approved",
          "type": "bool"
        }
      ],
      "name": "setApprovalForAll",
      "outputs": [],
      "stateMutability": "nonpayable",
      "type": "function"
    },
    {
      "inputs": [
        {
          "internalType": "uint32",
          "name": "_callbackGasLimit",
          "type": "uint32"
        }
      ],
      "name": "setCallbackGasLimit",
      "outputs": [],
      "stateMutability": "nonpayable",
      "type": "function"
    },
    {
      "inputs": [
        {
          "internalType": "uint32",
          "name": "_RareGemsCooldownPeriod",
          "type": "uint32"
        },
        {
          "internalType": "uint32",
          "name": "_UniqueGemsCooldownPeriod",
          "type": "uint32"
        },
        {
          "internalType": "uint32",
          "name": "_EpicGemsCooldownPeriod",
          "type": "uint32"
        },
        {
          "internalType": "uint32",
          "name": "_LegendaryGemsCooldownPeriod",
          "type": "uint32"
        },
        {
          "internalType": "uint32",
          "name": "_MythicGemsCooldownPeriod",
          "type": "uint32"
        }
      ],
      "name": "setGemsCooldownPeriods",
      "outputs": [],
      "stateMutability": "nonpayable",
      "type": "function"
    },
    {
      "inputs": [
        {
          "internalType": "uint32",
          "name": "_RareGemsMiningPeriod",
          "type": "uint32"
        },
        {
          "internalType": "uint32",
          "name": "_UniqueGemsMiningPeriod",
          "type": "uint32"
        },
        {
          "internalType": "uint32",
          "name": "_EpicGemsMiningPeriod",
          "type": "uint32"
        },
        {
          "internalType": "uint32",
          "name": "_LegendaryGemsMiningPeriod",
          "type": "uint32"
        },
        {
          "internalType": "uint32",
          "name": "_MythicGemsMiningPeriod",
          "type": "uint32"
        }
      ],
      "name": "setGemsMiningPeriods",
      "outputs": [],
      "stateMutability": "nonpayable",
      "type": "function"
    },
    {
      "inputs": [
        {
          "internalType": "uint256",
          "name": "_CommonGemsValue",
          "type": "uint256"
        },
        {
          "internalType": "uint256",
          "name": "_RareGemsValue",
          "type": "uint256"
        },
        {
          "internalType": "uint256",
          "name": "_UniqueGemsValue",
          "type": "uint256"
        },
        {
          "internalType": "uint256",
          "name": "_EpicGemsValue",
          "type": "uint256"
        },
        {
          "internalType": "uint256",
          "name": "_LegendaryGemsValue",
          "type": "uint256"
        },
        {
          "internalType": "uint256",
          "name": "_MythicGemsValue",
          "type": "uint256"
        }
      ],
      "name": "setGemsValue",
      "outputs": [],
      "stateMutability": "nonpayable",
      "type": "function"
    },
    {
      "inputs": [
        {
          "internalType": "uint256",
          "name": "_tokenId",
          "type": "uint256"
        },
        {
          "internalType": "bool",
          "name": "_isLocked",
          "type": "bool"
        }
      ],
      "name": "setIsLocked",
      "outputs": [],
      "stateMutability": "nonpayable",
      "type": "function"
    },
    {
      "inputs": [
        {
          "internalType": "address",
          "name": "_marketplace",
          "type": "address"
        }
      ],
      "name": "setMarketPlaceAddress",
      "outputs": [],
      "stateMutability": "nonpayable",
      "type": "function"
    },
    {
      "inputs": [
        {
          "internalType": "uint8",
          "name": "_RareminingTry",
          "type": "uint8"
        },
        {
          "internalType": "uint8",
          "name": "_UniqueminingTry",
          "type": "uint8"
        },
        {
          "internalType": "uint8",
          "name": "_EpicminingTry",
          "type": "uint8"
        },
        {
          "internalType": "uint8",
          "name": "_LegendaryminingTry",
          "type": "uint8"
        },
        {
          "internalType": "uint8",
          "name": "_MythicminingTry",
          "type": "uint8"
        }
      ],
      "name": "setMiningTries",
      "outputs": [],
      "stateMutability": "nonpayable",
      "type": "function"
    },
    {
      "inputs": [
        {
          "internalType": "uint256",
          "name": "tokenId",
          "type": "uint256"
        },
        {
          "internalType": "string",
          "name": "_tokenURI",
          "type": "string"
        }
      ],
      "name": "setTokenURI",
      "outputs": [],
      "stateMutability": "nonpayable",
      "type": "function"
    },
    {
      "inputs": [
        {
          "internalType": "address",
          "name": "_treasury",
          "type": "address"
        }
      ],
      "name": "setTreasury",
      "outputs": [],
      "stateMutability": "nonpayable",
      "type": "function"
    },
    {
      "inputs": [
        {
          "internalType": "address",
          "name": "_wston",
          "type": "address"
        }
      ],
      "name": "setWston",
      "outputs": [],
      "stateMutability": "nonpayable",
      "type": "function"
    },
    {
      "inputs": [
        {
          "internalType": "bytes4",
          "name": "interfaceId",
          "type": "bytes4"
        }
      ],
      "name": "supportsInterface",
      "outputs": [
        {
          "internalType": "bool",
          "name": "",
          "type": "bool"
        }
      ],
      "stateMutability": "view",
      "type": "function"
    },
    {
      "inputs": [],
      "name": "symbol",
      "outputs": [
        {
          "internalType": "string",
          "name": "",
          "type": "string"
        }
      ],
      "stateMutability": "view",
      "type": "function"
    },
    {
      "inputs": [
        {
          "internalType": "address",
          "name": "",
          "type": "address"
        }
      ],
      "name": "tokenMiningByUser",
      "outputs": [
        {
          "internalType": "uint256",
          "name": "",
          "type": "uint256"
        }
      ],
      "stateMutability": "view",
      "type": "function"
    },
    {
      "inputs": [
        {
          "internalType": "uint256",
          "name": "",
          "type": "uint256"
        }
      ],
      "name": "tokenReadyToMine",
      "outputs": [
        {
          "internalType": "bool",
          "name": "",
          "type": "bool"
        }
      ],
      "stateMutability": "view",
      "type": "function"
    },
    {
      "inputs": [
        {
          "internalType": "uint256",
          "name": "tokenId",
          "type": "uint256"
        }
      ],
      "name": "tokenURI",
      "outputs": [
        {
          "internalType": "string",
          "name": "",
          "type": "string"
        }
      ],
      "stateMutability": "view",
      "type": "function"
    },
    {
      "inputs": [
        {
          "internalType": "address",
          "name": "_owner",
          "type": "address"
        }
      ],
      "name": "tokensOfOwner",
      "outputs": [
        {
          "internalType": "uint256[]",
          "name": "ownerTokens",
          "type": "uint256[]"
        }
      ],
      "stateMutability": "view",
      "type": "function"
    },
    {
      "inputs": [],
      "name": "totalSupply",
      "outputs": [
        {
          "internalType": "uint256",
          "name": "",
          "type": "uint256"
        }
      ],
      "stateMutability": "view",
      "type": "function"
    },
    {
      "inputs": [
        {
          "internalType": "address",
          "name": "from",
          "type": "address"
        },
        {
          "internalType": "address",
          "name": "to",
          "type": "address"
        },
        {
          "internalType": "uint256",
          "name": "tokenId",
          "type": "uint256"
        }
      ],
      "name": "transferFrom",
      "outputs": [],
      "stateMutability": "nonpayable",
      "type": "function"
    },
    {
      "inputs": [
        {
          "internalType": "address",
          "name": "newOwner",
          "type": "address"
        }
      ],
      "name": "transferOwnership",
      "outputs": [],
      "stateMutability": "nonpayable",
      "type": "function"
    },
    {
      "inputs": [],
      "name": "unpause",
      "outputs": [],
      "stateMutability": "nonpayable",
      "type": "function"
    },
    {
      "inputs": [
        {
          "internalType": "address",
          "name": "",
          "type": "address"
        },
        {
          "internalType": "uint256",
          "name": "",
          "type": "uint256"
        }
      ],
      "name": "userMiningStartTime",
      "outputs": [
        {
          "internalType": "uint256",
          "name": "",
          "type": "uint256"
        }
      ],
      "stateMutability": "view",
      "type": "function"
    },
    {
      "inputs": [
        {
          "internalType": "address",
          "name": "",
          "type": "address"
        },
        {
          "internalType": "uint256",
          "name": "",
          "type": "uint256"
        }
      ],
      "name": "userMiningToken",
      "outputs": [
        {
          "internalType": "bool",
          "name": "",
          "type": "bool"
        }
      ],
      "stateMutability": "view",
      "type": "function"
    }
  ],
  "bytecode": "0x60808060405234601a576001601f5561578890816100208239f35b600080fdfe608080604052600436101561001357600080fd5b60003560e01c90816301ffc9a7146144b957508063044bc7791461449057806304e9fd7e14612e3557806306fdde03146143f1578063081812fc146143a6578063093ba92b14614382578063095ea7b31461429b5780630a8ce2101461427d5780630b513d99146141bc5780630ff1ac67146133c0578063162094c414613385578063166b35c91461336257806318160ddd1461333f5780631aac071d1461326d5780631c8802541461324657806323b872dd146131c7578063247ee3881461318457806324f746971461315d578063276a28a31461312b57806333d5efdb14613104578063356edf74146130e35780633d007e57146130ba5780633ec7af4a146130965780633f4ba83a1461302c5780633fad18341461300e57806342842e0e14612fc55780634cbe436014612f755780634d723a7514612f1957806350d2a27614612ed4578063550d01a314612e955780635c975abb14612cd55780635f2d002314612e3557806361f7f6d714612d935780636352211e14612d6357806363a8fd8914612d40578063676f79f114612cf85780636805b84b14612cd5578063694eaa4014612cac5780636ae638d014612c835780636c106fea14612c5f57806370a0823114611345578063715018a614612bf557806372820dbc14612bb257806377207e3714612b8b5780637866369b14612b5a5780638456cb5914612aff5780638462151c14612adb578063864ccaac14612ab45780638d41fe3014612a905780638da5cb5b14612a5a5780638e80a1651461286257806394ca64491461272157806395d89b411461263957806397125c4014612605578063975781b7146117e757806397d88628146117c95780639aa19da7146117a45780639d3415f614611786578063a168fa8914611715578063a1770a7d146116c8578063a20fa9e9146116aa578063a22cb4651461160a578063a4eb718c1461158e578063aa55187914610ebc578063aa723bb71461149e578063aae31df3146113c3578063ac33a2731461134a578063b4f6eae414611345578063b88d4fde14611213578063b911135f146111df578063bad39efd146111b8578063c0c2fd991461119a578063c138907214611160578063c28fb6b714611122578063c61a46c5146110fe578063c68a5385146110d7578063c87b56dd14611026578063cc98ef9614610fe3578063cec21acb14610fa9578063e002460414610f80578063e0dd8f1b14610f59578063e316dc1314610f3b578063e985e9c514610eed578063ea094c3914610ebc578063ea2b7b4314610e0a578063f0f4426014610dc7578063f2a6094d14610da1578063f2fde38b14610d7b578063f317d7dd14610d2a578063f41c472914610c4b578063f8c8765e1461079a578063f99a6bb5146104dd578063fb250435146104b65763ff198a1d1461042957600080fd5b346104b15760c03660031901126104b1577f6474c0fa1cc494f92527db3b4306654db98a8ff14de99d615b7e445e0266ef4360c060043560a43560843560643560443560243561047761507a565b856012558060135581601455826015558360165584601755604051958652602086015260408501526060840152608083015260a0820152a1005b600080fd5b346104b15760003660031901126104b157602063ffffffff60105460501c16604051908152f35b346104b1576020806003193601126104b1576004359060ff601054166107885733156107765760008281526008825260409020546001600160a01b0390339082160361076457600161052e8461494f565b5001549061053b8461494f565b61074e57600081556000600182015560006002820155600060038201556000600482015561057e600760068301926105768460058301614b3b565b018092614b3b565b6105888154614870565b9081610711575b505061059a3361481d565b6105a481546150b3565b9055600084815260088452604080822080546001600160a01b0319908116909155600080516020615713833981519152808752918320548416801593889390929085156106f3575b8484528852604083209081541690556000805160206156f38339815191528280a46106da5761063b6000928492601c541690604051948580948193630169dc3160e01b83523360048401614e91565b03925af19081156106ce57600091610698575b5015610686577f65aff8e0552d208dfaf55b1280e55553b7dba628290897ff43c8f086d5dbfd2a9160409182519182523390820152a1005b6040516312171d8360e31b8152600490fd5b90508181813d83116106c7575b6106af8183614670565b810103126104b1575180151581036104b1578361064e565b503d6106a5565b6040513d6000823e3d90fd5b604051637e27328960e01b815260048101859052602490fd5b6106fc856154e6565b61070583614837565b841981540190556105ec565b81601f600093116001146107295750555b848061058f565b908083918252610747601f888420940160051c840160018501614b3b565b5555610722565b634e487b7160e01b600052600060045260246000fd5b6040516302b327b560e41b8152600490fd5b604051639fabe1c160e01b8152600490fd5b60405163ab35696f60e01b8152600490fd5b346104b15760803660031901126104b1576107b36145bc565b6107bb6145d2565b6044356001600160a01b03811681036104b157606435916001600160a01b03831683036104b1577ff0c57e16840df040f15088dc2f81fe391c3923bec73e23a9662efc9c229c6a00928354926001600160401b03841680159081610c3b575b6001149081610c31575b159081610c28575b50610c165760016001600160401b0319851617855560ff8460401c1615610bfb575b6040519561085b8761463a565b600787526623b2b6a9aa27a760c91b60208801526040519661087c8861463a565b600388526247454d60e81b6020890152610894615671565b61089c615671565b8051906001600160401b038211610adb576108c56000805160206156b383398151915254614870565b601f8111610b9f575b50602090601f8311600114610afc576108f2929160009183610af1575b5050614b52565b6000805160206156b3833981519152555b86516001600160401b038111610adb577f80bb2b638cc20bc4d0a60d66940f3ab4a00c1d7b313497ca82fb0b4ab00793019061093f8254614870565b601f8111610a9e575b506020601f8211600114610a2f578161098b9493926109739260ff9b9c600092610a24575050614b52565b90555b61097e615671565b610986615671565b614e1d565b601a80546001600160a01b03199081166001600160a01b0395861617909155601b8054821692851692909217909155601c8054909116919092161790556011805463ffffffff60801b1916613d0960881b17905560401c16156109ea57005b805460ff60401b19169055604051600181527fc7f505b2f371ae2175ee4913f4499e1f2633a7b5936321eed1cdaeb6115181d290602090a1005b015190508c806108eb565b601f198216998360005260206000209a60005b818110610a8657509a600192849261098b97969560ff9d9e10610a6d575b505050811b019055610976565b015160001960f88460031b161c191690558b8080610a60565b838301518d556001909c019b60209384019301610a42565b610acb90836000526020600020601f840160051c81019160208510610ad1575b601f0160051c0190614b3b565b89610948565b9091508190610abe565b634e487b7160e01b600052604160045260246000fd5b015190508a806108eb565b6000805160206156b3833981519152600090815292917f37c58c799b6609234b945e882912ee9ad34948a1dfaa20a97485e1a7752bbf81915b601f1984168510610b84576001945083601f19811610610b6b575b505050811b016000805160206156b383398151915255610903565b015160001960f88460031b161c19169055898080610b50565b81810151835560209485019460019093019290910190610b35565b6000805160206156b3833981519152600052610bf5907f37c58c799b6609234b945e882912ee9ad34948a1dfaa20a97485e1a7752bbf81601f850160051c81019160208610610ad157601f0160051c0190614b3b565b896108ce565b6001600160481b031984166001600160401b0117855561084e565b60405163f92ee8a960e01b8152600490fd5b9050158761082c565b303b159150610824565b604086901c60ff1615915061081a565b346104b15760a03660031901126104b157610c6461453e565b610c6c61454e565b610c7461455e565b916064359260ff84168085036104b15760843560ff8116928382036104b15760ff60a09681937f06b36b7c2517dbb6d0fec68beba3c915efebf56980628b2181e3fcd96920910e99610cc461507a565b601054918460281b9060281b169161ff008a60081b169065ffffffffff0019161762ff00008460101b161763ff0000008660181b1617908460201b9060201b161717601055816040519716875216602086015216604084015260608301526080820152a1005b346104b15760403660031901126104b157600435602435906007548110156104b157610d55906149aa565b509060028110156104b15760ff6020928260051c015460f86040519360031b161c168152f35b346104b15760203660031901126104b157610d9f610d976145bc565b61098661507a565b005b346104b15760003660031901126104b157602060115463ffffffff60405191831c168152f35b346104b15760203660031901126104b157610de06145bc565b610de861507a565b601c80546001600160a01b0319166001600160a01b0392909216919091179055005b346104b1577f12db92c8c4542eebc521c0180f8ce8d4c77dad4fcfb9f9f9c1c8b31e0b9cd811610eb7610e3c3661474c565b91610e4895939561507a565b6010805463ffffffff60b01b60b086901b1663ffffffff60301b603089901b16600160301b600160d01b03199092169190911763ffffffff60501b60508a901b161763ffffffff60701b607085901b161763ffffffff60901b609086901b161717905560405195869586614a1d565b0390a1005b346104b15760203660031901126104b15760043560068110156104b157610ee4602091614991565b54604051908152f35b346104b15760403660031901126104b157610f066145bc565b610f17610f116145d2565b916147e4565b9060018060a01b0316600052602052602060ff604060002054166040519015158152f35b346104b15760003660031901126104b1576020601254604051908152f35b346104b15760003660031901126104b157602063ffffffff60105460b01c16604051908152f35b346104b15760003660031901126104b157601c546040516001600160a01b039091168152602090f35b346104b15760203660031901126104b1576001600160a01b03610fca6145bc565b1660005260096020526020604060002054604051908152f35b346104b15760203660031901126104b157610ffc6145bc565b61100461507a565b601d80546001600160a01b0319166001600160a01b0392909216919091179055005b346104b15760203660031901126104b1576004356000818152600860205260409020546001600160a01b0316156110bf5761106081614eac565b506000527f0542a41881ee128a365a727b282c86fa859579490b9bb45aab8503648c8e79006020526110bb61109860406000206148aa565b60006040516110a68161461f565b5260405191829160208352602083019061457c565b0390f35b60249060405190633af8b4af60e11b82526004820152fd5b346104b15760003660031901126104b157602063ffffffff60105460901c16604051908152f35b346104b15760003660031901126104b157602060ff60105460101c16604051908152f35b346104b15760003660031901126104b157601c546110bb9061114c906001600160a01b0316614a83565b604051918291602083526020830190614718565b346104b15760203660031901126104b1576001600160a01b036111816145bc565b16600052600a6020526020604060002054604051908152f35b346104b15760003660031901126104b1576020601754604051908152f35b346104b15760003660031901126104b157602063ffffffff60115460601c16604051908152f35b346104b15760203660031901126104b1576004356000526001602052602060018060a01b0360406000205416604051908152f35b346104b15760803660031901126104b15761122c6145bc565b6112346145d2565b604435916064356001600160401b0381116104b157366023820112156104b1576112689036906024816004013591016146c3565b60ff60105416610788576001600160a01b03838116908316146113335760ff60046112928661494f565b50015460101c1661132157836112e4610eb7926112d17f77bd69ae3010e08d8037a446f79c7047277d4cf3643e8690c9482338100f1c8c9787876150c0565b6112dc83878761514d565b828686615400565b60026112ef8261494f565b500154604080516001600160a01b03958616815295909416602086015292840152606083019190915281906080820190565b604051635399ebf560e01b8152600490fd5b604051636879d8a360e01b8152600490fd5b610fa9565b346104b15760003660031901126104b157604051601880548083526000918252602080840193927fb13d2d76d1f4b7be834882e410b3e3a8afaf69f83600ae24db354391d2378d2e92915b8282106113ac576110bb8561114c81890382614670565b835486529485019460019384019390910190611395565b346104b15760203660031901126104b157600060a06040516113e4816145e8565b8281528260208201528260408201528260608201528260808201520152600435600052600f60205260c0604060002060405190611420826145e8565b8054918281526001820154916020820192835260036002820154916040840192835201549260018060a01b03916060840191838616835260ff60a060808701968289831c1615158852019660a81c161515865260405196875251602087015251604086015251166060840152511515608083015251151560a0820152f35b346104b1576020806003193601126104b1576114bb600435614c3e565b6040519082825280518383015282810151604083015260408101516060830152606081015160808301526114f7608082015160a0840190614984565b60a081015160ff80911660c084015260c0820151151560e084015260e0820151610100908185016000905b876004831061157857505050508201516000949061018085015b600287106115615785806110bb6101208801516101c0808401526101e083019061457c565b82806001928685511681520192019601959061153c565b8060019287865116815201930191019091611522565b346104b15760203660031901126104b15760043563ffffffff8116908181036104b1577fac6522accfa77170701f8664616dbcb859ffbca2d931ffa46de278f184d5106b916020916115de61507a565b6011805463ffffffff60801b191660809290921b63ffffffff60801b16919091179055604051908152a1005b346104b15760403660031901126104b1576116236145bc565b61162b6147d5565b6001600160a01b0390911690811561169157611646336147e4565b8260005260205260406000209015159060ff1981541660ff83161790556040519081527f17307eab39ab6107e8899845ad3d59bd9653f200f220920489ca2b5937696c3160203392a3005b604051630b61174360e31b815260048101839052602490fd5b346104b15760003660031901126104b1576020601454604051908152f35b346104b15760403660031901126104b1576001600160a01b036116e96145bc565b16600052600b6020526040600020602435600052602052602060ff604060002054166040519015158152f35b346104b15760203660031901126104b157600435600052600f60205260c0604060002060ff81549160018101549060036002820154910154916040519485526020850152604084015260018060a01b0381166060840152818160a01c161515608084015260a81c16151560a0820152f35b346104b15760003660031901126104b1576020601654604051908152f35b346104b15760003660031901126104b15760206117bf614bbf565b6040519015158152f35b346104b15760003660031901126104b1576020601554604051908152f35b346104b1576101003660031901126104b157600660043510156104b15736604312156104b1576040516118198161463a565b80366064116104b1576024905b606482106125ed578236608312156104b1576040519061184582614655565b60e4823682116104b1576064905b8282106125d55750505060e4356001600160401b0381116104b15761187c9036906004016146fa565b601c549091906001600160a01b031633036125bd5760105460ff81166107885760ff82511660ff6020840151169060005260056020526040600020906000526020526118cc604060002054614870565b156125ab5760ff8451166118e9602086019160ff83511690614bab565b6118fc604087019160ff83511690614bab565b90611910606088019260ff84511690614bab565b93600435611ea8575060ff87511692600193848114159081611e9c575b50611e75575160ff16838114159081611e69575b50611e44575160ff16828114159081611e38575b50611e12575160ff16818114159081611e06575b50611de0575060ff166008811015611dab575060009160125461199563ffffffff6000955b1642614a4d565b906040516119a281614603565b60008152816020820152826040820152600060608201526119c860043560808301614c32565b60ff861660a0820152600060c08201528660e08201528461010082015283610120820152600454600160401b811015610adb57806001611a0b920160045561494f565b91909161074e578051825560208101516001830155604081015160028301556060810151600383015560808101516006811015611d955760048301805460a084015161ff0060089190911b1660ff9390931661ffff1990911617919091179055611a7e60c0820151151560048401614a5a565b60e081015160009060005b60048110611d7657505090610120916005840155611aaf61010082015160068501614b79565b01518051906001600160401b038211610adb57611acf6007840154614870565b601f8111611d41575b50602090601f8311600114611cd1579180611afe92600794600092611cc6575050614b52565b9101555b6004549485600019810111611cb057611b1e600019870161494f565b50600019870190819055600090815260086020526040902080546001600160a01b03191633908117909155611b529061481d565b611b5c8154614a74565b9055604051611b6a8161461f565b600081523315611c97576001600160a01b03611b8a6000198901336155cf565b16611c7e57611b9e906000198801336152cc565b611bac846000198801614ef4565b60405194611bbc86600435614984565b6000602087015b60028210611c655750505060ff1660608501526080840152600060a084015b60048210611c4c57602086867f0e027f6f5631612aa005651eea501b4da1f9d6380d2c2d3cfa4b6b1fddd5b23e611c2e888861012085015261018061014085015261018084019061457c565b9133610160820152806000198501930390a260405190600019018152f35b60208060019260ff8a5116815201970191019095611be2565b60208060019260ff865116815201930191019091611bc3565b6040516339e3563760e11b815260006004820152602490fd5b604051633250574960e11b815260006004820152602490fd5b634e487b7160e01b600052601160045260246000fd5b015190508b806108eb565b906007840160005260206000209160005b601f1985168110611d295750918391600193600795601f19811610611d10575b505050811b01910155611b02565b015160001960f88460031b161c191690558a8080611d02565b91926020600181928685015181550194019201611ce2565b611d7090600785016000526020600020601f850160051c81019160208610610ad157601f0160051c0190614b3b565b89611ad8565b90916020611d8c6001928460ff87511691614b65565b93019101611a89565b634e487b7160e01b600052602160045260246000fd5b60849060405190634967af1f60e11b8252600482015260406024820152600660448201526521a7a6a6a7a760d11b6064820152fd5b606490604051906358be4af360e11b825260036004830152602482015260026044820152fd5b60029150141586611969565b606482604051906358be4af360e11b825260026004830152602482015260026044820152fd5b60029150141587611955565b606483604051906358be4af360e11b8252806004830152602482015260026044820152fd5b60029150141588611941565b6040516358be4af360e11b8152600060048201526024810185905260026044820152606490fd5b6002915014158961192d565b95939291906004356001036120395760ff8851169260029384811415908161202d575b50612006575160ff16838114159081611ffa575b50611fd3575160ff16828114159081611fc7575b50611fa2575160ff16818114159081611f96575b50611f70575060ff16600c811015611f3d575063ffffffff8360d01c169261199563ffffffff60ff6013549360081c169561198e565b60849060405190634967af1f60e11b825260048201526040602482015260046044820152635241524560e01b6064820152fd5b606490604051906358be4af360e11b825260036004830152602482015260036044820152fd5b60039150141587611f07565b606482604051906358be4af360e11b8252806004830152602482015260036044820152fd5b60039150141588611ef3565b6040516358be4af360e11b8152600160048201526024810184905260036044820152606490fd5b60039150141589611edf565b6040516358be4af360e11b8152600060048201526024810185905260036044820152606490fd5b6003915014158a611ecb565b6004356002036121c45760ff885116926003938481141590816121b8575b50612192575160ff16838114159081612186575b50612160575160ff16828114159081612154575b5061212e575160ff16818114159081612122575b506120fd575060ff1660108110156120c8575063ffffffff601154169261199563ffffffff60ff6014549360101c169561198e565b60849060405190634967af1f60e11b82526004820152604060248201526006604482015265554e4951554560d01b6064820152fd5b606490604051906358be4af360e11b8252806004830152602482015260046044820152fd5b60049150141587612093565b606482604051906358be4af360e11b825260026004830152602482015260046044820152fd5b6004915014158861207f565b606483604051906358be4af360e11b825260016004830152602482015260046044820152fd5b6004915014158961206b565b606484604051906358be4af360e11b825260006004830152602482015260046044820152fd5b6004915014158a612057565b90916004356003036123555760ff88511660048114159081612349575b506123235760ff90511660048114159081612317575b506122f15760ff905116600481141590816122e5575b506122bf5760ff905116600481141590816122b3575b5061228d5760ff16601481101561225a575063ffffffff60115460201c169261199563ffffffff60ff6015549360181c169561198e565b60849060405190634967af1f60e11b825260048201526040602482015260046044820152634550494360e01b6064820152fd5b60646040516358be4af360e11b8152600360048201526004602482015260056044820152fd5b60059150141586612223565b60646040516358be4af360e11b8152600260048201526004602482015260056044820152fd5b6005915014158761220d565b60646040516358be4af360e11b8152600160048201526004602482015260056044820152fd5b600591501415886121f7565b60646040516358be4af360e11b8152600060048201526004602482015260056044820152fd5b600591501415896121e1565b60048035036124ec5760ff885116600581141590816124e0575b506124b95760ff905116600581141590816124ad575b506124865760ff9051166005811415908161247a575b506124535760ff90511660058114159081612447575b506124205760ff1660188110156123e8575063ffffffff60115460401c169261199563ffffffff60ff6016549360201c169561198e565b60849060405190634967af1f60e11b825260048201526040602482015260096044820152684c4547454e4441525960b81b6064820152fd5b6040516358be4af360e11b8152600360048201526005602482015260066044820152606490fd5b600691501415866123b1565b6040516358be4af360e11b8152600260048201526005602482015260066044820152606490fd5b6006915014158761239b565b6040516358be4af360e11b8152600160048201526005602482015260066044820152606490fd5b60069150141588612385565b6040516358be4af360e11b8152600060048201526005602482015260066044820152606490fd5b6006915014158961236f565b925060043560050361259957600660ff8851161492831593612589575b508215612579575b508115612569575b506125435763ffffffff60115460601c169261199563ffffffff60ff6017549360281c169561198e565b60646040516358be4af360e11b8152600060048201526006602482015260066044820152fd5b5160ff1660061415905085612519565b5160ff1660061415915086612511565b5160ff1660061415925087612509565b60405163036cae1f60e31b8152600490fd5b604051634441919d60e11b8152600490fd5b60405163d86ad9cf60e01b8152336004820152602490fd5b602080916125e28461456e565b815201910190611853565b602080916125fa8461456e565b815201910190611826565b346104b15760203660031901126104b1576004356000526008602052602060018060a01b0360406000205416604051908152f35b346104b15760003660031901126104b1576040517f80bb2b638cc20bc4d0a60d66940f3ab4a00c1d7b313497ca82fb0b4ab0079301805482600061267c83614870565b92838352602094600191866001821691826000146126ff5750506001146126c0575b50506126ac92500383614670565b6110bb60405192828493845283019061457c565b85925060005281600020906000915b8583106126e75750506126ac9350820101858061269e565b805483890185015287945086939092019181016126cf565b92509350506126ac94915060ff191682840152151560051b820101858061269e565b346104b1576020806003193601126104b15760043590600690600683101590816104b15760045490600093612755836149c5565b601c54909660009390916001600160a01b0390811691855b8781106127c7578a8a61277f816149c5565b9160005b8281106127a85750506110bb6040519283928352604060208401526040830190614718565b806127b5600192846149f7565b516127c082876149f7565b5201612783565b80600052600882528a8484604060002054161480612847575b8061281d575b6127f4575b5060010161276d565b96819a9761280f8261280760019561494f565b5054926149f7565b52968101999601958a6127eb565b50508860ff600461282d8461494f565b5001541690611d955786811015611d9557858c91146127e6565b5060ff60046128558461494f565b50015460101c16156127e0565b346104b15760603660031901126104b1576001600160401b036004358181116104b1576128939036906004016146fa565b9061289c61454e565b9060ff6128a761455e565b926128b061507a565b1691826000526020926005845260ff604060002092169182600052845260406000208551848111610adb576128e58254614870565b601f8111612a2a575b5085601f82116001146129c557908061290f926000916129ba575b50614b52565b90555b60405192604084019084821090821117610adb57604052825282820152600754600160401b811015610adb5780600161294e92016007556149aa565b91909161074e5761295e91614b79565b6006549160ff83169160ff8314611cb05760ff60017fe4d2864ec291f6f11cb3363fa1bd2a4d5ff49a2cfdf4bf7dfe3b90a26b8c776f940116809460ff1916176006556129b560405192828493845283019061457c565b0390a2005b905088015189612909565b601f1982169083600052876000209160005b898b838310612a155750505090836001949392106129fc575b5050811b019055612912565b89015160001960f88460031b161c1916905588806129f0565b840151855560019094019392830192016129d7565b612a54908360005287600020601f840160051c810191898510610ad157601f0160051c0190614b3b565b876128ee565b346104b15760003660031901126104b1576000805160206156d3833981519152546040516001600160a01b039091168152602090f35b346104b15760003660031901126104b157602060ff60105460181c16604051908152f35b346104b15760003660031901126104b157602063ffffffff60105460301c16604051908152f35b346104b15760203660031901126104b1576110bb61114c612afa6145bc565b614a83565b346104b15760003660031901126104b157612b1861507a565b60105460ff81166107885760019060ff1916176010557f62e78cea01bee320cd4e420270b5ea74000d11b0c9f74754ebdbfc544b05a2586020604051338152a1005b346104b15760203660031901126104b157600435600052600d602052602060ff604060002054166040519015158152f35b346104b15760003660031901126104b157602063ffffffff60115460401c16604051908152f35b346104b15760203660031901126104b157612bcb6145bc565b612bd361507a565b601e80546001600160a01b0319166001600160a01b0392909216919091179055005b346104b15760003660031901126104b157612c0e61507a565b6000805160206156d383398151915280546001600160a01b031981169091556000906001600160a01b03167f8be0079c531659141344cd1fd0a4f28419497f9722a3daafe3b4186f6b6457e08280a3005b346104b15760003660031901126104b157602060ff60105460081c16604051908152f35b346104b15760003660031901126104b157601b546040516001600160a01b039091168152602090f35b346104b15760003660031901126104b157601d546040516001600160a01b039091168152602090f35b346104b15760003660031901126104b157602060ff601054166040519015158152f35b346104b15760403660031901126104b1576001600160a01b03612d196145bc565b16600052600c60205260406000206024356000526020526020604060002054604051908152f35b346104b15760003660031901126104b157602060ff600054166040519015158152f35b346104b15760203660031901126104b1576020612d81600435614eac565b6040516001600160a01b039091168152f35b346104b15760203660031901126104b1576004356004548110156104b157612dba9061494f565b508054906110bb60018201549160028101549360ff600383015492612de66007600483015492016148aa565b93604051978897610100958952602089015260408801526060870152612e1160808701838316614984565b818160081c1660a087015260101c16151560c08501528060e085015283019061457c565b346104b15760403660031901126104b157612e4e61453e565b60ff612e5861454e565b9116600052600560205260ff604060002091166000526020526110bb612e8160406000206148aa565b60405191829160208352602083019061457c565b346104b15760203660031901126104b1576001600160a01b03612eb66145bc565b166000526002602052602060ff604060002054166040519015158152f35b346104b15760203660031901126104b15760043563ffffffff60e01b81168091036104b1576000526003602052602060018060a01b0360406000205416604051908152f35b346104b15760403660031901126104b157612f326147d5565b601e54336001600160a01b0391821614159081612f66575b506125bd57610d9f906004612f5f813561494f565b5001614a5a565b9050601d541633141582612f4a565b346104b15760003660031901126104b1576000600454906000915b808310612fa257602082604051908152f35b90612fbc60019182612fb38661494f565b50015490614a4d565b92019190612f90565b346104b157612fd3366147a0565b91604051612fe08161461f565b6000815260ff60105416610788576001600160a01b03838116908316146113335760ff60046112928661494f565b346104b15760003660031901126104b1576020601954604051908152f35b346104b15760003660031901126104b15761304561507a565b60105460ff8116156130845760ff19166010557f5db9ee0a495bf2e6ff9c91a7834c1ba4fdd244a5e8aa4e537bd38aeae4b073aa6020604051338152a1005b60405163dcdde9dd60e01b8152600490fd5b346104b15760003660031901126104b157602060ff60105460281c16604051908152f35b346104b15760003660031901126104b157601e546040516001600160a01b039091168152602090f35b346104b15760003660031901126104b157602060ff60065416604051908152f35b346104b15760003660031901126104b157602063ffffffff60105460701c16604051908152f35b346104b15760203660031901126104b157602060ff600461314c813561494f565b50015460101c166040519015158152f35b346104b15760003660031901126104b157602063ffffffff60115460801c16604051908152f35b346104b15760203660031901126104b15761319d6145bc565b6131a561507a565b601a80546001600160a01b0319166001600160a01b0392909216919091179055005b346104b1576131d5366147a0565b9160ff60105416610788576001600160a01b03828116908216146113335760ff60046132008561494f565b50015460101c1661132157610eb78361323b7f77bd69ae3010e08d8037a446f79c7047277d4cf3643e8690c9482338100f1c8c9585856150c0565b6112e481858561514d565b346104b15760003660031901126104b157602063ffffffff60105460d01c16604051908152f35b346104b1577f3b286e7240533ee960e022a65587f2b49f2264d9390fe4d81a57a23f1054d8b9610eb761329f3661474c565b90949291936132ac61507a565b6010805463ffffffff60d01b60d093841b1663ffffffff60d01b1990911617908190556011805463ffffffff60601b606095861b1663ffffffff9687166001600160801b0319909216821763ffffffff60201b60209a8b1b161763ffffffff60401b60409b8c1b1617179182905588519889989583901c8716969083901c8116959290921c8216939092901c1686614a1d565b346104b15760003660031901126104b157602061335a614a0b565b604051908152f35b346104b15760003660031901126104b157602060105460ff60405191831c168152f35b346104b15760403660031901126104b1576024356001600160401b0381116104b1576133b8610d9f9136906004016146fa565b600435614ef4565b346104b15760803660031901126104b1576004356001600160401b0381116104b157366023820112156104b15780600401356133fb81614691565b916134096040519384614670565b8183526024602084019260051b820101903682116104b157602401915b8183106141a357602435846001600160401b0382116104b157366023830112156104b15781600401359161345983614691565b926134676040519485614670565b80845260208401913660248360061b830101116104b15760248101925b60248360061b83010184106141495760443585876001600160401b0383116104b157366023840112156104b1578260040135926134c084614691565b936134ce6040519586614670565b80855260208501913660248360071b830101116104b15760248101925b60248360071b83010184106140ef57505050506001600160401b03606435116104b1573660236064350112156104b1576064356004013561352b81614691565b906135396040519283614670565b80825260208201903660248260051b6064350101116104b157602460643501915b60248260051b606435010183106140bc575050601c546001600160a01b0316330390506125bd5760ff6010541661078857825191805183148015906140b1575b80156140a6575b614094579184916135b285516149c5565b936000955b8387106135d457604051602080825281906110bb90820189614718565b6135e187829796976149f7565b51966006881015611d95576135f681846149f7565b5161360182896149f7565b519861360d83876149f7565b51601c546001600160a01b031633036125bd5760105460ff81166107885760ff84511660ff60208601511690600052600560205260406000209060005260205261365b604060002054614870565b156125ab576136968c60ff606061368c61367f838551168460208701511690614bab565b8360408601511690614bab565b9201511690614bab565b9083613bb0575060ff8c511660018114159081613ba4575b50613b7d5760ff60208d01511660018114159081613b71575b50613b4b5760ff60408d01511660018114159081613b3f575b50613b1a5760ff60608d01511660018114159081613b0e575b50613ae75760ff166008811015611dab575060125460009061371b8242614a4d565b918d6040519061372a82614603565b600082528360208301528460408301526000606083015261374e8760808401614c32565b60ff831660a0830152600060c083015260e08201528661010082015284610120820152600454600160401b811015610adb57806001613790920160045561494f565b91909161074e578051825560208101516001830155604081015160028301556060810151600383015560808101516006811015611d955760048301805460a084015161ff0060089190911b1660ff9390931661ffff199091161791909117905561380360c0820151151560048401614a5a565b60e081015160009060005b60048110613ac85750509061012091600584015561383461010082015160068501614b79565b01518051906001600160401b038211610adb576138546007840154614870565b601f8111613a93575b50602090601f8311600114613a2357918061388392600794600092613a18575050614b52565b9101555b6004549586600019810111611cb0576138a3600019880161494f565b50600019880190819055600090815260086020526040902080546001600160a01b031916339081179091556138d79061481d565b6138e18154614a74565b90556040516138ef8161461f565b600081523315611c97576001600160a01b0361390f6000198a01336155cf565b16611c7e57613923906000198901336152cc565b613931856000198901614ef4565b61393e6040518097614984565b600090602087015b600283106139ff5750505060ff1660608501526080840152600060a084015b600482106139e5575050600195969798999a9b507f0e027f6f5631612aa005651eea501b4da1f9d6380d2c2d3cfa4b6b1fddd5b23e916139b99161012085015261018061014085015261018084019061457c565b9133610160820152806000198501930390a2600019016139d982896149f7565b520195939291906135b7565b6020808f9260ff60019451168152019e019101909c613965565b60208060019260ff855116815201920192019190613946565b0151905038806108eb565b906007840160005260206000209160005b601f1985168110613a7b5750918391600193600795601f19811610613a62575b505050811b01910155613887565b015160001960f88460031b161c19169055388080613a54565b91926020600181928685015181550194019201613a34565b613ac290600785016000526020600020601f850160051c81019160208610610ad157601f0160051c0190614b3b565b3861385d565b90916020613ade6001928460ff87511691614b65565b9301910161380e565b6040516358be4af360e11b8152600360048201526001602482015260026044820152606490fd5b6002915014158d6136f9565b60646040516358be4af360e11b81526002806004830152600160248301526044820152fd5b6002915014158d6136e0565b60646040516358be4af360e11b8152600160048201526001602482015260026044820152fd5b6002915014158d6136c7565b6040516358be4af360e11b8152600060048201526001602482015260026044820152606490fd5b6002915014158d6136ae565b9060018403613d135760ff8d511660028114159081613d07575b50613ce05760ff60208e01511660028114159081613cd4575b50613cad5760ff60408e01511660028114159081613ca1575b50613c7b5760ff60608e01511660028114159081613c6f575b50613c4a5760ff16600c811015611f3d575063ffffffff8160d01c169061371b63ffffffff60ff6013549360081c169361198e565b60646040516358be4af360e11b81526003806004830152600260248301526044820152fd5b6003915014158e613c15565b60646040516358be4af360e11b8152600260048201526002602482015260036044820152fd5b6003915014158e613bfc565b6040516358be4af360e11b8152600160048201526002602482015260036044820152606490fd5b6003915014158e613be3565b6040516358be4af360e11b8152600060048201526002602482015260036044820152606490fd5b6003915014158e613bca565b60028403613e735760ff8d511660038114159081613e67575b50613e415760ff60208e01511660038114159081613e35575b50613e0f5760ff60408e01511660038114159081613e03575b50613ddd5760ff60608e01511660038114159081613dd1575b50613dab5760ff1660108110156120c8575063ffffffff601154169061371b63ffffffff60ff6014549360101c169361198e565b60646040516358be4af360e11b8152600360048201526003602482015260046044820152fd5b6004915014158e613d77565b60646040516358be4af360e11b8152600260048201526003602482015260046044820152fd5b6004915014158e613d5e565b60646040516358be4af360e11b8152600160048201526003602482015260046044820152fd5b6004915014158e613d45565b60646040516358be4af360e11b8152600060048201526003602482015260046044820152fd5b6004915014158e613d2c565b60038403613f3e5760ff8d511660048114159081613f32575b506123235760ff60208e01511660048114159081613f26575b506122f15760ff60408e01511660048114159081613f1a575b506122bf5760ff60608e01511660048114159081613f0e575b5061228d5760ff16601481101561225a575063ffffffff60115460201c169061371b63ffffffff60ff6015549360181c169361198e565b6005915014158e613ed7565b6005915014158e613ebe565b6005915014158e613ea5565b6005915014158e613e8c565b600484036140095760ff8d511660058114159081613ffd575b506124b95760ff60208e01511660058114159081613ff1575b506124865760ff60408e01511660058114159081613fe5575b506124535760ff60608e01511660058114159081613fd9575b506124205760ff1660188110156123e8575063ffffffff60115460401c169061371b63ffffffff60ff6016549360201c169361198e565b6006915014158e613fa2565b6006915014158e613f89565b6006915014158e613f70565b6006915014158e613f57565b506005830361259957600660ff8d5116148c811591614081575b811561406e575b811561405b575b506125435763ffffffff60115460601c169061371b63ffffffff60ff6017549360281c169361198e565b6060015160ff166006141590508c614031565b6040015160ff166006141590508c61402a565b6020015160ff166006141590508c614023565b604051632b477e7160e11b8152600490fd5b5081518314156135a1565b50845183141561359a565b6001600160401b038335116104b1576020806024926140e23685883560643501016146fa565b815201930192905061355a565b36601f850112156104b15760405161410681614655565b803660808701116104b15785905b6080870182106141315750508152608093909301926020016134eb565b6020809161413e8461456e565b815201910190614114565b36601f850112156104b1576040516141608161463a565b803660408701116104b15785905b60408701821061418b575050815260409390930192602001613484565b602080916141988461456e565b81520191019061416e565b823560068110156104b157815260209283019201613426565b346104b15760203660031901126104b15760043560068110156104b157806141ec57506020601254604051908152f35b600181036141ff5750602060135461335a565b600281036142125750602060145461335a565b600381036142255750602060155461335a565b600481036142385750602060165461335a565b60050361424957602060175461335a565b60405162461bcd60e51b815260206004820152600c60248201526b77726f6e672072617269747960a01b6044820152606490fd5b346104b15760003660031901126104b1576020601354604051908152f35b346104b15760403660031901126104b1576142b46145bc565b6024356142c081614eac565b3315158061436f575b8061434f575b614337576001600160a01b039283169282918491167f8c5be1e5ebec7d5bd14f71427d1e84f3dd0314c0f7b2291e5b200ac8c7c3b925600080a460009081526000805160206157338339815191526020526040902080546001600160a01b0319169091179055005b60405163a9fbf51f60e01b8152336004820152602490fd5b50614359816147e4565b3360005260205260ff60406000205416156142cf565b506001600160a01b0381163314156142c9565b346104b15760003660031901126104b157602063ffffffff60115416604051908152f35b346104b15760203660031901126104b1576004356143c381614eac565b50600052600080516020615733833981519152602052602060018060a01b0360406000205416604051908152f35b346104b15760003660031901126104b1576040516000805160206156b3833981519152805482600061442283614870565b92838352602094600191866001821691826000146126ff5750506001146144515750506126ac92500383614670565b85925060005281600020906000915b8583106144785750506126ac9350820101858061269e565b80548389018501528794508693909201918101614460565b346104b15760003660031901126104b157601a546040516001600160a01b039091168152602090f35b346104b15760203660031901126104b1576004359063ffffffff60e01b82168092036104b157602091632483248360e11b81149081156144fb575b5015158152f35b6380ac58cd60e01b81149150811561452d575b811561451c575b50836144f4565b6301ffc9a760e01b14905083614515565b635b5e139f60e01b8114915061450e565b6004359060ff821682036104b157565b6024359060ff821682036104b157565b6044359060ff821682036104b157565b359060ff821682036104b157565b919082519283825260005b8481106145a8575050826000602080949584010152601f8019910116010190565b602081830181015184830182015201614587565b600435906001600160a01b03821682036104b157565b602435906001600160a01b03821682036104b157565b60c081019081106001600160401b03821117610adb57604052565b61014081019081106001600160401b03821117610adb57604052565b602081019081106001600160401b03821117610adb57604052565b604081019081106001600160401b03821117610adb57604052565b608081019081106001600160401b03821117610adb57604052565b90601f801991011681019081106001600160401b03821117610adb57604052565b6001600160401b038111610adb5760051b60200190565b6001600160401b038111610adb57601f01601f191660200190565b9291926146cf826146a8565b916146dd6040519384614670565b8294818452818301116104b1578281602093846000960137010152565b9080601f830112156104b157816020614715933591016146c3565b90565b90815180825260208080930193019160005b828110614738575050505090565b83518552938101939281019260010161472a565b60a09060031901126104b15763ffffffff60043581811681036104b1579160243582811681036104b1579160443581811681036104b1579160643582811681036104b1579160843590811681036104b15790565b60609060031901126104b1576001600160a01b039060043582811681036104b1579160243590811681036104b1579060443590565b6024359081151582036104b157565b6001600160a01b031660009081527f80bb2b638cc20bc4d0a60d66940f3ab4a00c1d7b313497ca82fb0b4ab00793056020526040902090565b6001600160a01b0316600090815260096020526040902090565b6001600160a01b031660009081527f80bb2b638cc20bc4d0a60d66940f3ab4a00c1d7b313497ca82fb0b4ab00793036020526040902090565b90600182811c921680156148a0575b602083101461488a57565b634e487b7160e01b600052602260045260246000fd5b91607f169161487f565b906040519182600082546148bd81614870565b9081845260209460019160018116908160001461492d57506001146148ee575b5050506148ec92500383614670565b565b600090815285812095935091905b8183106149155750506148ec93508201013880806148dd565b855488840185015294850194879450918301916148fc565b925050506148ec94925060ff191682840152151560051b8201013880806148dd565b60045481101561496e57600460005260206000209060031b0190600090565b634e487b7160e01b600052603260045260246000fd5b906006821015611d955752565b6006811015611d9557600052600e602052604060002090565b60075481101561496e57600760005260206000200190600090565b906149cf82614691565b6149dc6040519182614670565b82815280926149ed601f1991614691565b0190602036910137565b805182101561496e5760209160051b010190565b6004546000198101908111611cb05790565b63ffffffff9182168152918116602083015291821660408201529181166060830152909116608082015260a00190565b91908201809211611cb057565b9062ff0000825491151560101b169062ff00001916179055565b6000198114611cb05760010190565b60018060a01b03809116600091818352602091600960205260409060408520548015600014614ac757505050505060405190614abe8261461f565b80825236813790565b614ad6909695929394966149c5565b93614adf614a0b565b938360015b86811115614af85750959750505050505050565b80825260088a528484848420541614614b1a575b614b1590614a74565b614ae4565b94614b338187614b2d614b15948c6149f7565b52614a74565b959050614b0c565b818110614b46575050565b60008155600101614b3b565b8160011b916000199060031b1c19161790565b9060ff809160031b9316831b921b19161790565b60009160005b60028110614b8c57505055565b90926020614ba26001928460ff88511691614b65565b94019101614b7f565b9060ff8091169116019060ff8211611cb057565b60048054601c549091906001600160a01b039081169060005b848110614be9575050505050600090565b8060005260086020528282604060002054161480614c18575b614c0e57600101614bd8565b5050505050600190565b5060ff84614c258361494f565b50015460101c1615614c02565b6006821015611d955752565b604090815192614c4d84614603565b6000938481526020908560208201528585820152606086606083015260809287608084015260a0978060a085015260c0918160c086015260e0998951614c9281614655565b608036823760e0870152610100928a51614cab8161463a565b8b36823784880152606061012080980152986004906004549a5b8b8110614d26578c5162461bcd60e51b815260206004820152602d60248201527f47656d2077697468207468652073706563696669656420746f6b656e4964206460448201526c1bd95cc81b9bdd08195e1a5cdd609a1b6064820152608490fd5b81614d308261494f565b505414614d3f57600101614cc5565b6007999c9394959697989b50614e169a9d9150614d5b9061494f565b50978892614da785519e8f92614d7084614603565b8654845260018701548a8501526002870154888501526003870154858501528601549760ff98899485948594858416908301614c32565b60089d8e938584861c169083015284601093841c16151591015260058951980154938480938282168b521c168b8901521c168686015260181c1690830152614dee82614655565b8b0152519360068601549082821686521c1690830152614e0d8261463a565b860152016148aa565b9082015290565b6001600160a01b03908116908115614e78576000805160206156d383398151915280546001600160a01b031981168417909155167f8be0079c531659141344cd1fd0a4f28419497f9722a3daafe3b4186f6b6457e0600080a3565b604051631e4fbdf760e01b815260006004820152602490fd5b6001600160a01b039091168152602081019190915260400190565b600081815260008051602061571383398151915260205260409020546001600160a01b0316908115614edc575090565b60249060405190637e27328960e01b82526004820152fd5b9091906001600160a01b03614f0882614eac565b163303610764576000908082526020917f0542a41881ee128a365a727b282c86fa859579490b9bb45aab8503648c8e7900835260408120908551956001600160401b03871161506657614f5b8354614870565b601f8111615038575b508491601f8811600114614fb45796614fa89281927ff8e1a15aba9398e019f0b49df1a4fde98ee17ae345cb5f6b5e2c27f5033e8ce7989992613a18575050614b52565b90555b604051908152a1565b9190601f198816848452868420935b81811061502157509160019391897ff8e1a15aba9398e019f0b49df1a4fde98ee17ae345cb5f6b5e2c27f5033e8ce7999a9410615008575b505050811b019055614fab565b015160001960f88460031b161c19169055388080614ffb565b929387600181928786015181550195019301614fc3565b61506090848452868420601f8a0160051c810191888b10610ad157601f0160051c0190614b3b565b38614f64565b634e487b7160e01b82526041600452602482fd5b6000805160206156d3833981519152546001600160a01b0316330361509b57565b60405163118cdaa760e01b8152336004820152602490fd5b8015611cb0576000190190565b90604092916150e76150e160ff60046150d88761494f565b50015416615511565b42614a4d565b60026150f28561494f565b5001556001600160a01b0391821660008181526009602052858120805491959161511b90614a74565b9055845260086020528484209060018060a01b031982541617905516815260096020522061514981546150b3565b9055565b6001600160a01b0382811693918415611c975782600095818752600080516020615713833981519152958660205260409785898220541697889233151580615221575b50906151b06000805160206156f383398151915293928561520257614837565b8054600101905585825260205289812080546001600160a01b0319168517905580a416928383036151e15750505050565b6064945051926364283d7b60e01b8452600484015260248301526044820152fd5b61520b886154e6565b61521486614837565b8054600019019055614837565b919350919394508061527d575b1561523f5791879187949338615190565b88878961525c576024915190637e27328960e01b82526004820152fd5b905163177e802f60e01b8152908190615279903360048401614e91565b0390fd5b5033881480156152b0575b8061522e575086835260008051602061573383398151915260205233868a852054161461522e565b506152ba886147e4565b33845260205260ff8984205416615288565b803b6152d757505050565b926153209360018060a01b031692604051630a85bd0160e11b9182825233600483015260009485602484015260448301526080606483015281806020988993608483019061457c565b038187895af18491816153bc575b5061538e575050503d600014615386573d615348816146a8565b906153566040519283614670565b81528091843d92013e5b8051928361538157604051633250574960e11b815260048101849052602490fd5b019050fd5b506060615360565b919450915063ffffffff60e01b16036153a45750565b60249060405190633250574960e11b82526004820152fd5b9091508681813d83116153f9575b6153d48183614670565b810103126153f557516001600160e01b0319811681036153f557903861532e565b8480fd5b503d6153ca565b813b61540d575b50505050565b604051630a85bd0160e11b8082523360048301526001600160a01b0392831660248301526044820194909452608060648201526020959290911693909290839061545b90608483019061457c565b039285816000958187895af18491816154a6575b50615489575050503d600014615386573d615348816146a8565b919450915063ffffffff60e01b16036153a4575038808080615407565b9091508681813d83116154df575b6154be8183614670565b810103126153f557516001600160e01b0319811681036153f557903861546f565b503d6154b4565b60009081526000805160206157338339815191526020526040902080546001600160a01b0319169055565b6006811015611d955780156155c957600181146155b957600281146155ac576003811461559c576004811461558c5760051461557d5760405162461bcd60e51b815260206004820152600e60248201526d496e76616c69642072617269747960901b6044820152606490fd5b63ffffffff60115460601c1690565b5063ffffffff60115460401c1690565b5063ffffffff60115460201c1690565b5063ffffffff6011541690565b5063ffffffff60105460d01c1690565b50600090565b6000828152600080516020615713833981519152602081905260408220546001600160a01b0390811694939285926000805160206156f38339815191529284615652575b8516948561563c575b508582526020526040812080546001600160a01b0319168517905580a490565b61564590614837565b600181540190553861561c565b61565b876154e6565b61566485614837565b8054600019019055615613565b60ff7ff0c57e16840df040f15088dc2f81fe391c3923bec73e23a9662efc9c229c6a005460401c16156156a057565b604051631afcd79f60e31b8152600490fdfe80bb2b638cc20bc4d0a60d66940f3ab4a00c1d7b313497ca82fb0b4ab00793009016d09d72d40fdae2fd8ceac6b6234c7706214fd39c1cd1e609a0528c199300ddf252ad1be2c89b69c2b068fc378daa952ba7f163c4a11628f55a4df523b3ef80bb2b638cc20bc4d0a60d66940f3ab4a00c1d7b313497ca82fb0b4ab007930280bb2b638cc20bc4d0a60d66940f3ab4a00c1d7b313497ca82fb0b4ab0079304a2646970667358221220bfb8b4c7ef905370c3bc0ca77241450b71c2cdb6049bef7be03f033cd69f8dfb64736f6c63430008190033",
  "linkReferences": {},
  "deployedLinkReferences": {}
}