{"abi":[{"type":"receive","stateMutability":"payable"},{"type":"function","name":"ADMIN_ROLE","inputs":[],"outputs":[{"name":"","type":"bytes32","internalType":"bytes32"}],"stateMutability":"view"},{"type":"function","name":"DECIMALS","inputs":[],"outputs":[{"name":"","type":"uint256","internalType":"uint256"}],"stateMutability":"view"},{"type":"function","name":"DEFAULT_ADMIN_ROLE","inputs":[],"outputs":[{"name":"","type":"bytes32","internalType":"bytes32"}],"stateMutability":"view"},{"type":"function","name":"PAUSE_ROLE","inputs":[],"outputs":[{"name":"","type":"bytes32","internalType":"bytes32"}],"stateMutability":"view"},{"type":"function","name":"TON_FEES_RATE_DIVIDER","inputs":[],"outputs":[{"name":"","type":"uint256","internalType":"uint256"}],"stateMutability":"view"},{"type":"function","name":"addAdmin","inputs":[{"name":"account","type":"address","internalType":"address"}],"outputs":[],"stateMutability":"nonpayable"},{"type":"function","name":"addPauser","inputs":[{"name":"account","type":"address","internalType":"address"}],"outputs":[],"stateMutability":"nonpayable"},{"type":"function","name":"aliveImplementation","inputs":[{"name":"","type":"address","internalType":"address"}],"outputs":[{"name":"","type":"bool","internalType":"bool"}],"stateMutability":"view"},{"type":"function","name":"buyGem","inputs":[{"name":"_tokenId","type":"uint256","internalType":"uint256"},{"name":"_paymentMethod","type":"bool","internalType":"bool"}],"outputs":[],"stateMutability":"payable"},{"type":"function","name":"gemsForSale","inputs":[{"name":"","type":"uint256","internalType":"uint256"}],"outputs":[{"name":"seller","type":"address","internalType":"address"},{"name":"price","type":"uint256","internalType":"uint256"},{"name":"isActive","type":"bool","internalType":"bool"}],"stateMutability":"view"},{"type":"function","name":"getGemFactoryAddress","inputs":[],"outputs":[{"name":"","type":"address","internalType":"address"}],"stateMutability":"view"},{"type":"function","name":"getGemForSale","inputs":[{"name":"_tokenId","type":"uint256","internalType":"uint256"}],"outputs":[{"name":"","type":"tuple","internalType":"struct MarketPlaceStorage.Sale","components":[{"name":"seller","type":"address","internalType":"address"},{"name":"price","type":"uint256","internalType":"uint256"},{"name":"isActive","type":"bool","internalType":"bool"}]}],"stateMutability":"view"},{"type":"function","name":"getPauseStatus","inputs":[],"outputs":[{"name":"","type":"bool","internalType":"bool"}],"stateMutability":"view"},{"type":"function","name":"getPaused","inputs":[],"outputs":[{"name":"","type":"bool","internalType":"bool"}],"stateMutability":"view"},{"type":"function","name":"getRoleAdmin","inputs":[{"name":"role","type":"bytes32","internalType":"bytes32"}],"outputs":[{"name":"","type":"bytes32","internalType":"bytes32"}],"stateMutability":"view"},{"type":"function","name":"getStakingIndex","inputs":[],"outputs":[{"name":"","type":"uint256","internalType":"uint256"}],"stateMutability":"view"},{"type":"function","name":"getTonFeesRate","inputs":[],"outputs":[{"name":"","type":"uint256","internalType":"uint256"}],"stateMutability":"view"},{"type":"function","name":"getTreasuryAddress","inputs":[],"outputs":[{"name":"","type":"address","internalType":"address"}],"stateMutability":"view"},{"type":"function","name":"getWstonAddress","inputs":[],"outputs":[{"name":"","type":"address","internalType":"address"}],"stateMutability":"view"},{"type":"function","name":"grantRole","inputs":[{"name":"role","type":"bytes32","internalType":"bytes32"},{"name":"account","type":"address","internalType":"address"}],"outputs":[],"stateMutability":"nonpayable"},{"type":"function","name":"hasRole","inputs":[{"name":"role","type":"bytes32","internalType":"bytes32"},{"name":"account","type":"address","internalType":"address"}],"outputs":[{"name":"","type":"bool","internalType":"bool"}],"stateMutability":"view"},{"type":"function","name":"initialize","inputs":[{"name":"_treasury","type":"address","internalType":"address"},{"name":"_gemfactory","type":"address","internalType":"address"},{"name":"_tonFeesRate","type":"uint256","internalType":"uint256"},{"name":"_wston","type":"address","internalType":"address"}],"outputs":[],"stateMutability":"nonpayable"},{"type":"function","name":"isAdmin","inputs":[{"name":"account","type":"address","internalType":"address"}],"outputs":[{"name":"","type":"bool","internalType":"bool"}],"stateMutability":"view"},{"type":"function","name":"isOwner","inputs":[],"outputs":[{"name":"","type":"bool","internalType":"bool"}],"stateMutability":"view"},{"type":"function","name":"isPauser","inputs":[{"name":"account","type":"address","internalType":"address"}],"outputs":[{"name":"","type":"bool","internalType":"bool"}],"stateMutability":"view"},{"type":"function","name":"pause","inputs":[],"outputs":[],"stateMutability":"nonpayable"},{"type":"function","name":"pauseProxy","inputs":[],"outputs":[{"name":"","type":"bool","internalType":"bool"}],"stateMutability":"view"},{"type":"function","name":"proxyImplementation","inputs":[{"name":"","type":"uint256","internalType":"uint256"}],"outputs":[{"name":"","type":"address","internalType":"address"}],"stateMutability":"view"},{"type":"function","name":"putGemForSale","inputs":[{"name":"_tokenId","type":"uint256","internalType":"uint256"},{"name":"_price","type":"uint256","internalType":"uint256"}],"outputs":[],"stateMutability":"nonpayable"},{"type":"function","name":"putGemListForSale","inputs":[{"name":"tokenIds","type":"uint256[]","internalType":"uint256[]"},{"name":"prices","type":"uint256[]","internalType":"uint256[]"}],"outputs":[],"stateMutability":"nonpayable"},{"type":"function","name":"removeAdmin","inputs":[],"outputs":[],"stateMutability":"nonpayable"},{"type":"function","name":"removeGemForSale","inputs":[{"name":"_tokenId","type":"uint256","internalType":"uint256"}],"outputs":[],"stateMutability":"nonpayable"},{"type":"function","name":"removePauser","inputs":[{"name":"account","type":"address","internalType":"address"}],"outputs":[],"stateMutability":"nonpayable"},{"type":"function","name":"renounceRole","inputs":[{"name":"role","type":"bytes32","internalType":"bytes32"},{"name":"callerConfirmation","type":"address","internalType":"address"}],"outputs":[],"stateMutability":"nonpayable"},{"type":"function","name":"revokeRole","inputs":[{"name":"role","type":"bytes32","internalType":"bytes32"},{"name":"account","type":"address","internalType":"address"}],"outputs":[],"stateMutability":"nonpayable"},{"type":"function","name":"selectorImplementation","inputs":[{"name":"","type":"bytes4","internalType":"bytes4"}],"outputs":[{"name":"","type":"address","internalType":"address"}],"stateMutability":"view"},{"type":"function","name":"setDiscountRate","inputs":[{"name":"_tonFeesRate","type":"uint256","internalType":"uint256"}],"outputs":[],"stateMutability":"nonpayable"},{"type":"function","name":"setGemFactory","inputs":[{"name":"_gemFactory","type":"address","internalType":"address"}],"outputs":[],"stateMutability":"nonpayable"},{"type":"function","name":"setStakingIndex","inputs":[{"name":"_stakingIndex","type":"uint256","internalType":"uint256"}],"outputs":[],"stateMutability":"nonpayable"},{"type":"function","name":"setWston","inputs":[{"name":"_wston","type":"address","internalType":"address"}],"outputs":[],"stateMutability":"nonpayable"},{"type":"function","name":"supportsInterface","inputs":[{"name":"interfaceId","type":"bytes4","internalType":"bytes4"}],"outputs":[{"name":"","type":"bool","internalType":"bool"}],"stateMutability":"view"},{"type":"function","name":"transferOwnership","inputs":[{"name":"newOwner","type":"address","internalType":"address"}],"outputs":[],"stateMutability":"nonpayable"},{"type":"function","name":"unpause","inputs":[],"outputs":[],"stateMutability":"nonpayable"},{"type":"event","name":"GemBought","inputs":[{"name":"tokenId","type":"uint256","indexed":false,"internalType":"uint256"},{"name":"payer","type":"address","indexed":false,"internalType":"address"},{"name":"seller","type":"address","indexed":false,"internalType":"address"},{"name":"amount","type":"uint256","indexed":false,"internalType":"uint256"},{"name":"gemCoolDownDueDate","type":"uint256","indexed":false,"internalType":"uint256"}],"anonymous":false},{"type":"event","name":"GemFactoryAddressUpdated","inputs":[{"name":"gemfactory","type":"address","indexed":false,"internalType":"address"}],"anonymous":false},{"type":"event","name":"GemForSale","inputs":[{"name":"tokenId","type":"uint256","indexed":false,"internalType":"uint256"},{"name":"seller","type":"address","indexed":false,"internalType":"address"},{"name":"price","type":"uint256","indexed":false,"internalType":"uint256"}],"anonymous":false},{"type":"event","name":"GemRemovedFromSale","inputs":[{"name":"seller","type":"address","indexed":false,"internalType":"address"},{"name":"tokenId","type":"uint256","indexed":false,"internalType":"uint256"}],"anonymous":false},{"type":"event","name":"RoleAdminChanged","inputs":[{"name":"role","type":"bytes32","indexed":true,"internalType":"bytes32"},{"name":"previousAdminRole","type":"bytes32","indexed":true,"internalType":"bytes32"},{"name":"newAdminRole","type":"bytes32","indexed":true,"internalType":"bytes32"}],"anonymous":false},{"type":"event","name":"RoleGranted","inputs":[{"name":"role","type":"bytes32","indexed":true,"internalType":"bytes32"},{"name":"account","type":"address","indexed":true,"internalType":"address"},{"name":"sender","type":"address","indexed":true,"internalType":"address"}],"anonymous":false},{"type":"event","name":"RoleRevoked","inputs":[{"name":"role","type":"bytes32","indexed":true,"internalType":"bytes32"},{"name":"account","type":"address","indexed":true,"internalType":"address"},{"name":"sender","type":"address","indexed":true,"internalType":"address"}],"anonymous":false},{"type":"event","name":"SetDiscountRate","inputs":[{"name":"discountRate","type":"uint256","indexed":false,"internalType":"uint256"}],"anonymous":false},{"type":"event","name":"SetStakingIndex","inputs":[{"name":"stakingIndex","type":"uint256","indexed":false,"internalType":"uint256"}],"anonymous":false},{"type":"event","name":"WSTONClaimed","inputs":[{"name":"tokenId","type":"uint256","indexed":false,"internalType":"uint256"},{"name":"claimer","type":"address","indexed":false,"internalType":"address"}],"anonymous":false},{"type":"error","name":"AccessControlBadConfirmation","inputs":[]},{"type":"error","name":"AccessControlUnauthorizedAccount","inputs":[{"name":"account","type":"address","internalType":"address"},{"name":"neededRole","type":"bytes32","internalType":"bytes32"}]},{"type":"error","name":"AddressZero","inputs":[]},{"type":"error","name":"AlreadyInitialized","inputs":[]},{"type":"error","name":"BuyerIsSeller","inputs":[{"name":"errorMessage","type":"string","internalType":"string"}]},{"type":"error","name":"FailedToPay","inputs":[]},{"type":"error","name":"FailedToSendFeesToTreasury","inputs":[]},{"type":"error","name":"GemIsAlreadyForSaleOrIsMining","inputs":[]},{"type":"error","name":"GemIsNotForSale","inputs":[]},{"type":"error","name":"GemNotApproved","inputs":[]},{"type":"error","name":"ListingGemFailed","inputs":[]},{"type":"error","name":"NoTokens","inputs":[]},{"type":"error","name":"NotGemOwner","inputs":[]},{"type":"error","name":"NotPaused","inputs":[]},{"type":"error","name":"Paused","inputs":[]},{"type":"error","name":"PurchaseFailed","inputs":[]},{"type":"error","name":"ReentrancyGuardReentrantCall","inputs":[]},{"type":"error","name":"SameAdmin","inputs":[]},{"type":"error","name":"SameOwner","inputs":[]},{"type":"error","name":"WrongLength","inputs":[]},{"type":"error","name":"WrongMsgValue","inputs":[]},{"type":"error","name":"WrongPrice","inputs":[]},{"type":"error","name":"WrongSeller","inputs":[]},{"type":"error","name":"WrongStakingIndex","inputs":[]},{"type":"error","name":"ZeroAddress","inputs":[]}],"bytecode":{"object":"0x60806040523461002257610011610027565b60405161260f610123823961260f90f35b600080fd5b61002f610031565b565b61002f61002f61002f61002f61002f61002f61002f610090565b6100586100586100589290565b90565b610058600161004b565b90600019905b9181191691161790565b9061008561005861008c9261004b565b8254610065565b9055565b6100986100f3565b61002f6100a361005b565b600c610075565b9060ff9061006b565b151590565b906100c861005861008c926100b3565b82546100aa565b9061ff009060081b61006b565b906100ec61005861008c926100b3565b82546100cf565b61010a6b033b2e3c9fd0803ce8000000600a610075565b6101166000600b6100b8565b61002f6000600b6100dc56fe60806040526004361015610023575b361561001957600080fd5b61002161193a565b005b60003560e01c806301ffc9a7146102ce57806302424ed3146102c9578063044bc779146102c457806308ec897d146102bf5780631d9023cb14610274578063247ee388146102ba578063248a9ca3146102b557806324d7806c146102b05780632e0f2625146102ab5780632ede6432146102a65780632f2ff15d146102a157806336568abe1461029c578063389ed267146102975780633f4ba83a1461029257806346fbf68e1461028d5780635074e0c81461028857806350d2a27614610283578063550d01a31461027e57806363a8fd89146102795780636805b84b146102745780636b2c0f551461026f578063704802751461026a57806375b238fc1461026557806379dbd798146102605780637c69febd1461025b57806382dc1ec4146102565780638456cb59146102515780638f32d59b1461024c57806391d14854146102475780639a202d47146102425780639c41b42b1461023d5780639d541be214610238578063a217fddf14610233578063a69c8fb21461022e578063adad692614610229578063b911135f14610224578063be2030941461021f578063c255bf161461021a578063ce49a36014610215578063d547741f14610210578063e00246041461020b578063e6147518146102065763f2fde38b0361000e57610c26565b610c0e565b610bf3565b610bda565b610bc2565b610b9b565b610b3d565b610aed565b610ac5565b610aaa565b610a8f565b610a62565b610a38565b610983565b610967565b61094c565b610934565b61091c565b610904565b6108eb565b6107b5565b610771565b610759565b61044c565b61073e565b610718565b61069e565b610635565b61061a565b610602565b6105e7565b6105a2565b610589565b61054d565b61050f565b6104d8565b6104bd565b610491565b610421565b6103da565b610391565b610315565b6001600160e01b031981165b036102e657565b600080fd5b905035906102f8826102d3565b565b906020828203126102e65761030e916102eb565b90565b9052565b346102e65761034261033061032b3660046102fa565b610c3e565b60405191829182901515815260200190565b0390f35b806102df565b905035906102f882610346565b8015156102df565b905035906102f882610359565b91906040838203126102e65761030e90602061038a828661034c565b9401610361565b6103a561039f36600461036e565b90610ca0565b604051005b60009103126102e657565b6001600160a01b031690565b610311906103b5565b6020810192916102f891906103c1565b346102e6576103ea3660046103aa565b6103426103f5610caa565b604051918291826103ca565b61030e61030e61030e9290565b61030e612710610401565b61030e61040e565b346102e6576104313660046103aa565b61034261043c610419565b6040519182918290815260200190565b346102e65761045c3660046103aa565b610342610330610cb4565b6102df816103b5565b905035906102f882610467565b906020828203126102e65761030e91610470565b346102e6576103a56104a436600461047d565b610d6a565b906020828203126102e65761030e9161034c565b346102e65761034261043c6104d33660046104a9565b610d79565b346102e6576103426103306104ee36600461047d565b610d98565b61030e676765c793fa10079d601b1b610401565b61030e6104f3565b346102e65761051f3660046103aa565b61034261043c610507565b91906040838203126102e65761030e906020610546828661034c565b940161034c565b346102e6576103a561056036600461052a565b90610ec3565b91906040838203126102e65761030e906020610582828661034c565b9401610470565b346102e6576103a561059c366004610566565b90610ef0565b346102e6576103a56105b5366004610566565b90610efa565b7ffcb9fcbfa83b897fb2d5cf4b58962164105c1e71489a37ef3ae0db3fdce576f690565b61030e6105bb565b346102e6576105f73660046103aa565b61034261043c6105df565b346102e6576106123660046103aa565b6103a5610f92565b346102e65761034261033061063036600461047d565b610f9a565b346102e6576106453660046103aa565b61034261043c610fa6565b906001600160e01b0319165b600052602052604060002090565b61030e916008021c6001600160a01b031690565b9061030e915461066a565b600061069961030e926003610650565b61067e565b346102e6576103426103f56106b43660046102fa565b610689565b61030e906103b5906001600160a01b031682565b61030e906106b9565b61030e906106cd565b9061065c906106d6565b61030e916008021c5b60ff1690565b9061030e91546106e9565b600061071361030e9260026106df565b6106f8565b346102e65761034261033061072e36600461047d565b610703565b61030e6000806106f8565b346102e65761074e3660046103aa565b610342610330610733565b346102e6576103a561076c36600461047d565b611057565b346102e6576103a561078436600461047d565b611080565b7fdf8b4c520ffe197c5343c6f5aec59570151ef9a492f2c624fd45ddde6135ec4290565b61030e610789565b346102e6576107c53660046103aa565b61034261043c6107ad565b634e487b7160e01b600052604160045260246000fd5b90601f01601f191681019081106001600160401b0382111761080757604052565b6107d0565b906102f861081960405190565b92836107e6565b6001600160401b0381116108075760208091020190565b9092919261084c61084782610820565b61080c565b93818552602080860192028301928184116102e657915b8383106108705750505050565b6020809161087e848661034c565b815201920191610863565b9080601f830112156102e65781602061030e93359101610837565b9190916040818403126102e65780356001600160401b0381116102e657836108cd918301610889565b9260208201356001600160401b0381116102e65761030e9201610889565b346102e6576103a56108fe3660046108a4565b906111fe565b346102e6576103a56109173660046104a9565b611272565b346102e6576103a561092f36600461047d565b611296565b346102e6576109443660046103aa565b6103a56112ca565b346102e65761095c3660046103aa565b6103426103306112d2565b346102e65761034261033061097d366004610566565b906112dd565b346102e6576109933660046103aa565b6103a561137b565b9061065c90610401565b61030e906103b5565b61030e90546109a5565b61030e9081565b61030e90546109b8565b61030e906106f2565b61030e90546109c9565b6109e790600461099b565b6109f0816109ae565b9161030e6002610a02600185016109bf565b93016109d2565b604090610a306102f89496959396610a29606084019860008501906103c1565b6020830152565b019015159052565b346102e657610342610a53610a4e3660046104a9565b6109dc565b60405191939193849384610a09565b346102e657610a723660046103aa565b6103426103f5611383565b61030e6000610401565b61030e610a7d565b346102e657610a9f3660046103aa565b61034261043c610a87565b346102e657610aba3660046103aa565b61034261043c61138d565b346102e6576103a5610ad83660046104a9565b611609565b600061069961030e92600161099b565b346102e6576103426103f5610b033660046104a9565b610add565b6080818303126102e657610b1c8282610470565b9261030e610b2d8460208501610470565b936060610582826040870161034c565b346102e6576103a5610b50366004610b08565b9291909161164c565b906040806102f893610b73600082015160008601906103c1565b610b8260208201516020860152565b01511515910152565b6060810192916102f89190610b59565b346102e657610342610bb6610bb13660046104a9565b61173b565b60405191829182610b8b565b346102e6576103a5610bd53660046104a9565b6117c2565b346102e6576103a5610bed366004610566565b906117e6565b346102e657610c033660046103aa565b6103426103f56117f0565b346102e6576103a5610c2136600461047d565b611839565b346102e6576103a5610c3936600461047d565b6118e4565b61030e90611979565b90610c52600b6109d2565b610c5f576102f891610c75565b6040516313d0ff5960e31b8152600490fd5b0390fd5b610c8891610c849133906121aa565b1590565b610c8e57565b6040516353afcfe360e01b8152600490fd5b906102f891610c47565b61030e60086109ae565b61030e600b6109d2565b15610cc557565b60405162461bcd60e51b8152602060048201526024808201527f41757468436f6e74726f6c3a2043616c6c6572206973206e6f7420746865206f6044820152633bb732b960e11b6064820152608490fd5b6102f890610d2a610d256112d2565b610cbe565b610d5f565b906001600160a01b03905b9181191691161790565b90610d5461030e610d5b926106d6565b8254610d2f565b9055565b6102f8906008610d44565b6102f890610d16565b9061065c565b6001610d9261030e92610d8a600090565b50600d610d73565b016109bf565b61030e90610da4610789565b6112dd565b90610db4600b6109d2565b610c5f576102f891610dee565b905051906102f882610467565b906020828203126102e65761030e91610dc1565b6040513d6000823e3d90fd5b610e03610dfe610dfe60066109ae565b6106d6565b6020610e0e60405190565b63020604bf60e21b81526004810184905291829060249082905afa908115610ebe57600091610e8f575b50610e53610e4d610e48306106d6565b6103b5565b916103b5565b03610e7d57610e6591610c849161222b565b610e6b57565b60405163176479df60e01b8152600490fd5b60405163077ad1ed60e51b8152600490fd5b610eb1915060203d602011610eb7575b610ea981836107e6565b810190610dce565b38610e38565b503d610e9f565b610de2565b906102f891610da9565b906102f891610ee3610ede82610d79565b61244a565b90610eed91612455565b50565b906102f891610ecd565b90610f04336103b5565b610f0d826103b5565b03610f1b57610eed916124d7565b60405163334bd91960e11b8152600490fd5b610f38610d256112d2565b6102f8610f48610c84600b6109d2565b610f54576102f8610f86565b604051636cd6020160e01b8152600490fd5b9060ff90610d3a565b90610f7f61030e610d5b92151590565b8254610f66565b6102f86000600b610f6f565b6102f8610f2d565b61030e90610da46105bb565b61030e600a6109bf565b15610fb757565b60405162461bcd60e51b815260206004820152602360248201527f41757468436f6e74726f6c3a2043616c6c6572206973206e6f7420612070617560448201526239b2b960e91b6064820152608490fd5b6102f89061101e6110176105bb565b33906112dd565b8015611033575b61102e90610fb0565b611046565b5061102e61103f6112d2565b9050611025565b6102f8906110526105bb565b610efa565b6102f890611008565b6102f89061106f610d256112d2565b6102f89061107b610789565b610ef0565b6102f890611060565b90611094600b6109d2565b610c5f576102f8916110d6565b634e487b7160e01b600052603260045260246000fd5b906110c0825190565b8110156110d1576020809102010190565b6110a1565b8051926110e1835190565b906000916110ef6000610401565b86146111ec5785036111da576111056000610401565b858110156111d25761115b6020611122610dfe610dfe60066109ae565b61113361112f85896110b7565b5190565b9061113d60405190565b9384928391829163020604bf60e21b83526004830190815260200190565b03915afa908115610ebe5784916111b4575b5061117d610e4d610e48306106d6565b03610e7d576111a8610c8461119561112f84886110b7565b6111a261112f858a6110b7565b9061222b565b610e6b57600101611105565b6111cc915060203d8111610eb757610ea981836107e6565b3861116d565b509350505050565b6040516349552d5960e11b8152600490fd5b60405163df95788360e01b8152600490fd5b906102f891611089565b6102f890611217610d256112d2565b61123d565b9060001990610d3a565b9061123661030e610d5b92610401565b825461121c565b61126d7f21a8eefc17e9c864964b5a4c0769d87f39cc0a7576773159e12358bc0095ffc59161043c816005611226565b0390a1565b6102f890611208565b6102f89061128a610d256112d2565b6102f89061107b6105bb565b6102f89061127b565b6112aa610d256112d2565b6102f86112b7600b6109d2565b610c5f576102f86102f86001600b610f6f565b6102f861129f565b61030e611017610a7d565b61030e9160006112f26112f893610d8a600090565b016106df565b6109d2565b1561130457565b60405162461bcd60e51b815260206004820152602360248201527f41757468436f6e74726f6c3a2043616c6c6572206973206e6f7420616e20616460448201526236b4b760e91b6064820152608490fd5b61136661136133610d98565b6112fd565b6102f86102f8611374610789565b3390610efa565b6102f8611355565b61030e60066109ae565b61030e60056109bf565b6113a1600b6109d2565b610c5f576102f890611461565b9081526040810192916102f891602090610a30565b9160001960089290920291821b911b610d3a565b91906113e861030e610d5b93610401565b9083546113c3565b6102f8916000916113d7565b60008082559060029061141283600183016113f0565b0155565b634e487b7160e01b600052600060045260246000fd5b9060000361143d576102f8906113fc565b611416565b9160206102f892949361145d604082019660008301906103c1565b0152565b60046114786002611472848461099b565b016109d2565b61148460015b91151590565b036115ea57611499610dfe610dfe60066109ae565b60206114a460405190565b9182906331a9108f60e11b825281806114c38888830190815260200190565b03915afa908115610ebe576000916115cb575b506114e3610e4d336103b5565b036115ac576114f8610dfe610dfe60066109ae565b91600091833b156102e6578261150d60405190565b948590634d723a7560e01b825281838161152a82898984016113ae565b03925af1928315610ebe5761156e83611573937f4d3db535b88041fd66b5878bff43bb7fa76399f971704cacc81234e39aa859e29761126d97611580575b5061099b565b61142c565b6040519182913383611442565b61159f90853d87116115a5575b61159781836107e6565b8101906103aa565b38611568565b503d61158d565b610c71906115b960405190565b6302b327b560e41b8152918291820190565b6115e4915060203d602011610eb757610ea981836107e6565b386114d6565b610c71906115f760405190565b6374f0c4bb60e11b8152918291820190565b6102f890611397565b61030e9060081c6106f2565b61030e9054611612565b9061ff009060081b610d3a565b9061164561030e610d5b92151590565b8254611628565b929192611659600b61161e565b6116a65761168c6116939261168561169a9661167d611676610a7d565b3390612455565b506005611226565b6006610d44565b6007610d44565b6008610d44565b6102f86001600b611635565b60405162dc149f60e41b8152600490fd5b61030e606061080c565b6116c96116b7565b600080825260208201819052604082015290565b61030e6116c1565b90610311906103b5565b906102f861172960026117006116b7565b9461171361170d826109ae565b876116e5565b611472611722600183016109bf565b6020880152565b15156040840152565b61030e906116ef565b61175261030e9161174a6116dd565b50600461099b565b611732565b6102f890611766610d256112d2565b61177a676765c793fa10079d601b1b610401565b81106117b05761126d8161043c7fa597abe6b82f0190c1192d690059f8a214908502cdc266fde36fd659711948d993600a611226565b6040516373fd31f360e01b8152600490fd5b6102f890611757565b906102f8916117dc610ede82610d79565b90610eed916124d7565b906102f8916117cb565b61030e60076109ae565b6102f890611809610d256112d2565b61126d7fed7acc23c47775012c7b3a370974b91aefab1849cacf173b5ea54273abb48156916103f5816006610d44565b6102f8906117fa565b6102f890611851610d256112d2565b61186c565b6103b561030e61030e9290565b61030e90611856565b611879610e486000611863565b611882826103b5565b146118d257611890816103b5565b611899336103b5565b146118c0576102f8906113746118ad610a7d565b916118b88184610ef0565b61107b610789565b604051630a98f1f360e21b8152600490fd5b60405163d92e233d60e01b8152600490fd5b6102f890611842565b6001600160401b03811161080757602090601f01601f19160190565b90611916610847836118ed565b918252565b3d156119355761192a3d611909565b903d6000602084013e565b606090565b61196160008061194a60076109ae565b60405160009134905af161195c61191b565b501590565b61196757565b6040516305c7acc960e01b8152600490fd5b637965db0b60e01b6001600160e01b0319821614908115611998575090565b61030e91506001600160e01b0319166301ffc9a760e01b1490565b906119c79392916119c261253e565b611d19565b906102f861257e565b634e487b7160e01b600052601160045260246000fd5b818102929181159184041417156119f957565b6119d0565b634e487b7160e01b600052601260045260246000fd5b8115611a1e570490565b6119fe565b919082018092116119f957565b905051906102f882610359565b906020828203126102e65761030e91611a30565b60409061145d6102f89496959396611a71606084019860008501906103c1565b60208301906103c1565b905051906102f882610346565b60ff81166102df565b905051906102f882611a88565b6001600160401b0381116108075760200290565b90929192611ac261084782611a9e565b9360208592028301928184116102e657915b838310611ae15750505050565b60208091611aef8486611a91565b815201920191611ad4565b9080601f830112156102e657600461030e92611ab2565b90929192611b2161084782611a9e565b9360208592028301928184116102e657915b838310611b405750505050565b60208091611b4e8486611a91565b815201920191611b33565b9080601f830112156102e657600261030e92611b11565b60005b838110611b835750506000910152565b8181015183820152602001611b73565b90929192611ba3610847826118ed565b93818552818301116102e6576102f8916020850190611b70565b9080601f830112156102e657815161030e92602001611b93565b9190916101c0818403126102e657611bf061014061080c565b92611bfb8183611a7b565b8452611c0a8160208401611a7b565b6020850152611c1c8160408401611a7b565b6040850152611c2e8160608401611a7b565b6060850152611c408160808401611a91565b6080850152611c528160a08401611a91565b60a0850152611c648160c08401611a30565b60c0850152611c768160e08401611afa565b60e0850152611c89816101608401611b59565b6101008501526101a08201516001600160401b0381116102e657611cad9201611bbd565b610120830152565b906020828203126102e65781516001600160401b0381116102e65761030e9201611bd7565b909594926102f894611d1261145d92611d08608096611cfe60a088019c6000890152565b60208701906103c1565b60408501906103c1565b6060830152565b50600092611d29610e4885611863565b611d32846103b5565b1461219857600490611d4c610c846002611472868661099b565b61218b57611d5f6001610d92858561099b565b611d7386611d6d868661099b565b016109ae565b91611d7d836103b5565b611d86336103b5565b1480612172575b61211f5715611fc057611dd1602082611dac610dfe610dfe60086109ae565b858a8a611db860405190565b968795869485936323b872dd60e01b85528d8501611a51565b03925af18015610ebe57611f93575b505b611df8866002611df2878761099b565b01610f6f565b611e08610dfe610dfe60066109ae565b803b156102e65786611e1960405190565b918290634d723a7560e01b8252818381611e36828c8c84016113ae565b03925af18015610ebe57611f77575b50611e56610dfe610dfe60066109ae565b803b156102e65786611e6760405190565b9182906323b872dd60e01b8252818381611e858b8d8b8d8501611a51565b03925af18015610ebe57611ed89488928792611f5b575b50611ead610dfe610dfe60066109ae565b90611eb760405190565b809781948293611ecb63aa723bb760e01b90565b8452830190815260200190565b03915afa928315610ebe576040611f3094611f1d92897f9be2432b8472bc411770bfc657166b0ccd4e6d3613ae58c16fa57f5eb2c98b009a92611f38575b5050015190565b91611f2760405190565b95869586611cda565b0390a1600190565b611f5492503d8091833e611f4c81836107e6565b810190611cb5565b3880611f16565b611f7190843d86116115a55761159781836107e6565b38611e9c565b611f8d90873d89116115a55761159781836107e6565b38611e45565b611fb49060203d602011611fb9575b611fac81836107e6565b810190611a3d565b611de0565b503d611fa2565b61201661030e612011611fed611fdf611fd9600a6109bf565b866119e6565b611fe76104f3565b90611a14565b61200b612003611ffd60056109bf565b836119e6565b611fe761040e565b90611a23565b612590565b341061210057612029610e4860076109ae565b612032836103b5565b14611de257612047610dfe610dfe60076109ae565b803b156102e6578661205860405190565b91829063081cb0a960e31b8252818381612078888b830190815260200190565b03925af18015610ebe576120e4575b506120b260208261209e610dfe610dfe60086109ae565b858a6120aa60076109ae565b604051611db8565b03925af18015610ebe576120c7575b50611de2565b6120df9060203d602011611fb957611fac81836107e6565b6120c1565b6120fa90873d89116115a55761159781836107e6565b38612087565b610c718361210d60405190565b633bf87c3160e11b8152918291820190565b610c718461212c60405190565b63b06bd67960e01b815291829182016020808252601d908201527f5573652052656d6f766547656d46726f6d4c69737420696e7374656164000000604082015260600190565b5061217c866103b5565b612185336103b5565b14611d8d565b610c71826115f760405190565b604051639fabe1c160e01b8152600490fd5b61030e92919060006119b3565b61030e90516103b5565b60026121ff60406102f8946121e16121db600083016121b7565b86610d44565b6121f86121ef602083015190565b60018701611226565b0151151590565b9101610f6f565b906102f8916121c1565b9081526060810193926102f892909160409161145d90611a71565b9061223c610dfe610dfe60066109ae565b602061224760405190565b6331a9108f60e11b81526004810185905291829060249082905afa908115610ebe5760009161242b575b5061227e610e4d336103b5565b036124195760009061228f82610401565b8114612407576122a5610dfe610dfe60066109ae565b9260206122b160405190565b63276a28a360e01b81526004810183905294859060249082905afa938415610ebe5783946123e6575b506001936122e78561147e565b146123d4576122fc610dfe610dfe60066109ae565b92833b156102e6578061230e60405190565b948590634d723a7560e01b825281838161232c8b89600484016113ae565b03925af1908115610ebe577f8b8052dfcc72d6fc28cd795f60661e1a701f185ce78c06a47b2ac29357d6ef8b9461239b926123b8575b5061237861236e6116b7565b91339083016116e5565b612383846020830152565b851515604082015261239683600461099b565b612206565b6123b26123a760405190565b928392339084612210565b0390a190565b6123ce90823d84116115a55761159781836107e6565b38612362565b60405163e970f37f60e01b8152600490fd5b61240091945060203d602011611fb957611fac81836107e6565b92386122da565b60405163f7760f2560e01b8152600490fd5b6040516302b327b560e41b8152600490fd5b612444915060203d602011610eb757610ea981836107e6565b38612271565b6102f89033906125a1565b612462610c8483836112dd565b156124d057612482600161247d8460006112f286600d610d73565b610f6f565b61249c612496612490339390565b936106d6565b916106d6565b917f2f8788117e7eff1d82e926ec794901d17c78024a50270940304540a733656f0d6124c760405190565b600090a4600190565b5050600090565b6124e182826112dd565b156124d0576124fb600061247d84826112f286600d610d73565b612509612496612490339390565b917ff6391f5c32d9c69d2a47ea670b442974b53935d1edc7fd64eb21e047a839171b6124c760405190565b61030e6002610401565b612548600c6109bf565b612550612534565b908114612562576102f890600c611226565b604051633ee5aeb560e01b8152600490fd5b61030e6001610401565b6102f8612589612574565b600c611226565b61030e90611fe7633b9aca00610401565b906125af610c8482846112dd565b6125b7575050565b610c716125c360405190565b63e2517d3f60e01b81529283926004840161144256fea2646970667358221220b841bc8ad2dfe2ea569379156839df067e8b2a3b11dc34d690e3cee6a2edd9c864736f6c63430008190033","linkReferences":{}},"methodIdentifiers":{"ADMIN_ROLE()":"75b238fc","DECIMALS()":"2e0f2625","DEFAULT_ADMIN_ROLE()":"a217fddf","PAUSE_ROLE()":"389ed267","TON_FEES_RATE_DIVIDER()":"08ec897d","addAdmin(address)":"70480275","addPauser(address)":"82dc1ec4","aliveImplementation(address)":"550d01a3","buyGem(uint256,bool)":"02424ed3","gemsForSale(uint256)":"9c41b42b","getGemFactoryAddress()":"9d541be2","getGemForSale(uint256)":"c255bf16","getPauseStatus()":"1d9023cb","getPaused()":"6805b84b","getRoleAdmin(bytes32)":"248a9ca3","getStakingIndex()":"5074e0c8","getTonFeesRate()":"a69c8fb2","getTreasuryAddress()":"e0024604","getWstonAddress()":"044bc779","grantRole(bytes32,address)":"2f2ff15d","hasRole(bytes32,address)":"91d14854","initialize(address,address,uint256,address)":"be203094","isAdmin(address)":"24d7806c","isOwner()":"8f32d59b","isPauser(address)":"46fbf68e","pause()":"8456cb59","pauseProxy()":"63a8fd89","proxyImplementation(uint256)":"b911135f","putGemForSale(uint256,uint256)":"2ede6432","putGemListForSale(uint256[],uint256[])":"79dbd798","removeAdmin()":"9a202d47","removeGemForSale(uint256)":"adad6926","removePauser(address)":"6b2c0f55","renounceRole(bytes32,address)":"36568abe","revokeRole(bytes32,address)":"d547741f","selectorImplementation(bytes4)":"50d2a276","setDiscountRate(uint256)":"7c69febd","setGemFactory(address)":"e6147518","setStakingIndex(uint256)":"ce49a360","setWston(address)":"247ee388","supportsInterface(bytes4)":"01ffc9a7","transferOwnership(address)":"f2fde38b","unpause()":"3f4ba83a"},"id":64}