{"abi":[{"type":"function","name":"GEMIndexToOwner","inputs":[{"name":"","type":"uint256","internalType":"uint256"}],"outputs":[{"name":"","type":"address","internalType":"address"}],"stateMutability":"view"},{"type":"function","name":"Gems","inputs":[{"name":"","type":"uint256","internalType":"uint256"}],"outputs":[{"name":"tokenId","type":"uint256","internalType":"uint256"},{"name":"value","type":"uint256","internalType":"uint256"},{"name":"gemCooldownDueDate","type":"uint256","internalType":"uint256"},{"name":"randomRequestId","type":"uint256","internalType":"uint256"},{"name":"rarity","type":"uint8","internalType":"enum GemFactoryStorage.Rarity"},{"name":"miningTry","type":"uint8","internalType":"uint8"},{"name":"isLocked","type":"bool","internalType":"bool"},{"name":"tokenURI","type":"string","internalType":"string"}],"stateMutability":"view"},{"type":"function","name":"callbackGasLimit","inputs":[],"outputs":[{"name":"","type":"uint32","internalType":"uint32"}],"stateMutability":"view"},{"type":"function","name":"colorName","inputs":[{"name":"","type":"uint8","internalType":"uint8"},{"name":"","type":"uint8","internalType":"uint8"}],"outputs":[{"name":"","type":"string","internalType":"string"}],"stateMutability":"view"},{"type":"function","name":"colors","inputs":[{"name":"","type":"uint256","internalType":"uint256"},{"name":"","type":"uint256","internalType":"uint256"}],"outputs":[{"name":"","type":"uint8","internalType":"uint8"}],"stateMutability":"view"},{"type":"function","name":"colorsCount","inputs":[],"outputs":[{"name":"","type":"uint8","internalType":"uint8"}],"stateMutability":"view"},{"type":"function","name":"numberMiningGemsByRarity","inputs":[{"name":"","type":"uint8","internalType":"enum GemFactoryStorage.Rarity"}],"outputs":[{"name":"","type":"uint256","internalType":"uint256"}],"stateMutability":"view"},{"type":"function","name":"ownershipTokenCount","inputs":[{"name":"","type":"address","internalType":"address"}],"outputs":[{"name":"","type":"uint256","internalType":"uint256"}],"stateMutability":"view"},{"type":"function","name":"paused","inputs":[],"outputs":[{"name":"","type":"bool","internalType":"bool"}],"stateMutability":"view"},{"type":"function","name":"s_requests","inputs":[{"name":"","type":"uint256","internalType":"uint256"}],"outputs":[{"name":"tokenId","type":"uint256","internalType":"uint256"},{"name":"randomWord","type":"uint256","internalType":"uint256"},{"name":"chosenTokenId","type":"uint256","internalType":"uint256"},{"name":"requester","type":"address","internalType":"address"},{"name":"requested","type":"bool","internalType":"bool"},{"name":"fulfilled","type":"bool","internalType":"bool"}],"stateMutability":"view"},{"type":"function","name":"tokenMiningByUser","inputs":[{"name":"","type":"address","internalType":"address"}],"outputs":[{"name":"","type":"uint256","internalType":"uint256"}],"stateMutability":"view"},{"type":"function","name":"tokenReadyToMine","inputs":[{"name":"","type":"uint256","internalType":"uint256"}],"outputs":[{"name":"","type":"bool","internalType":"bool"}],"stateMutability":"view"},{"type":"function","name":"userMiningStartTime","inputs":[{"name":"","type":"address","internalType":"address"},{"name":"","type":"uint256","internalType":"uint256"}],"outputs":[{"name":"","type":"uint256","internalType":"uint256"}],"stateMutability":"view"},{"type":"function","name":"userMiningToken","inputs":[{"name":"","type":"address","internalType":"address"},{"name":"","type":"uint256","internalType":"uint256"}],"outputs":[{"name":"","type":"bool","internalType":"bool"}],"stateMutability":"view"},{"type":"event","name":"BackgroundColorAdded","inputs":[{"name":"id","type":"uint8","indexed":true,"internalType":"uint8"},{"name":"backgroundColor","type":"string","indexed":false,"internalType":"string"}],"anonymous":false},{"type":"event","name":"CallBackGasLimitUpdated","inputs":[{"name":"newCallbackGasLimit","type":"uint32","indexed":false,"internalType":"uint32"}],"anonymous":false},{"type":"event","name":"ColorAdded","inputs":[{"name":"id","type":"uint8","indexed":true,"internalType":"uint8"},{"name":"color","type":"string","indexed":false,"internalType":"string"}],"anonymous":false},{"type":"event","name":"ColorValidated","inputs":[{"name":"color_0","type":"uint8","indexed":false,"internalType":"uint8"},{"name":"color_1","type":"uint8","indexed":false,"internalType":"uint8"}],"anonymous":false},{"type":"event","name":"CountGemsByQuadrant","inputs":[{"name":"gemCount","type":"uint256","indexed":false,"internalType":"uint256"},{"name":"tokenIds","type":"uint256[]","indexed":false,"internalType":"uint256[]"}],"anonymous":false},{"type":"event","name":"Created","inputs":[{"name":"tokenId","type":"uint256","indexed":true,"internalType":"uint256"},{"name":"rarity","type":"uint8","indexed":false,"internalType":"enum GemFactoryStorage.Rarity"},{"name":"color","type":"uint8[2]","indexed":false,"internalType":"uint8[2]"},{"name":"miningTry","type":"uint8","indexed":false,"internalType":"uint8"},{"name":"value","type":"uint256","indexed":false,"internalType":"uint256"},{"name":"quadrants","type":"uint8[4]","indexed":false,"internalType":"uint8[4]"},{"name":"cooldownDueDate","type":"uint256","indexed":false,"internalType":"uint256"},{"name":"tokenURI","type":"string","indexed":false,"internalType":"string"},{"name":"owner","type":"address","indexed":false,"internalType":"address"}],"anonymous":false},{"type":"event","name":"EthSentBack","inputs":[{"name":"amount","type":"uint256","indexed":false,"internalType":"uint256"}],"anonymous":false},{"type":"event","name":"GemForged","inputs":[{"name":"gemOwner","type":"address","indexed":false,"internalType":"address"},{"name":"gemsTokenIds","type":"uint256[]","indexed":false,"internalType":"uint256[]"},{"name":"newGemCreatedId","type":"uint256","indexed":false,"internalType":"uint256"},{"name":"newRarity","type":"uint8","indexed":false,"internalType":"enum GemFactoryStorage.Rarity"},{"name":"forgedQuadrants","type":"uint8[4]","indexed":false,"internalType":"uint8[4]"},{"name":"color","type":"uint8[2]","indexed":false,"internalType":"uint8[2]"},{"name":"newValue","type":"uint256","indexed":false,"internalType":"uint256"}],"anonymous":false},{"type":"event","name":"GemMelted","inputs":[{"name":"_tokenId","type":"uint256","indexed":false,"internalType":"uint256"},{"name":"_from","type":"address","indexed":false,"internalType":"address"}],"anonymous":false},{"type":"event","name":"GemMiningClaimed","inputs":[{"name":"tokenId","type":"uint256","indexed":false,"internalType":"uint256"},{"name":"chosenTokenId","type":"uint256","indexed":false,"internalType":"uint256"},{"name":"minedGemCooldownDueDate","type":"uint256","indexed":false,"internalType":"uint256"},{"name":"initialGemCooldownDueDate","type":"uint256","indexed":false,"internalType":"uint256"},{"name":"miner","type":"address","indexed":false,"internalType":"address"}],"anonymous":false},{"type":"event","name":"GemMiningStarted","inputs":[{"name":"tokenId","type":"uint256","indexed":false,"internalType":"uint256"},{"name":"miner","type":"address","indexed":false,"internalType":"address"},{"name":"startMiningTime","type":"uint256","indexed":false,"internalType":"uint256"},{"name":"newminingTry","type":"uint256","indexed":false,"internalType":"uint256"}],"anonymous":false},{"type":"event","name":"GemsCoolDownPeriodModified","inputs":[{"name":"RareGemsCooldownPeriod","type":"uint32","indexed":false,"internalType":"uint32"},{"name":"UniqueGemsCooldownPeriod","type":"uint32","indexed":false,"internalType":"uint32"},{"name":"EpicGemsCooldownPeriod","type":"uint32","indexed":false,"internalType":"uint32"},{"name":"LegendaryGemsCooldownPeriod","type":"uint32","indexed":false,"internalType":"uint32"},{"name":"MythicGemsCooldownPeriod","type":"uint32","indexed":false,"internalType":"uint32"}],"anonymous":false},{"type":"event","name":"GemsMiningPeriodModified","inputs":[{"name":"RareGemsMiningPeriod","type":"uint32","indexed":false,"internalType":"uint32"},{"name":"UniqueGemsMiningPeriod","type":"uint32","indexed":false,"internalType":"uint32"},{"name":"EpicGemsMiningPeriod","type":"uint32","indexed":false,"internalType":"uint32"},{"name":"LegendaryGemsMiningPeriod","type":"uint32","indexed":false,"internalType":"uint32"},{"name":"MythicGemsMiningPeriod","type":"uint32","indexed":false,"internalType":"uint32"}],"anonymous":false},{"type":"event","name":"GemsMiningTryModified","inputs":[{"name":"RareGemsMiningTry","type":"uint8","indexed":false,"internalType":"uint8"},{"name":"UniqueGemsMiningTry","type":"uint8","indexed":false,"internalType":"uint8"},{"name":"EpicGemsMiningTry","type":"uint8","indexed":false,"internalType":"uint8"},{"name":"LegendaryGemsMiningTry","type":"uint8","indexed":false,"internalType":"uint8"},{"name":"MythicGemsMiningTry","type":"uint8","indexed":false,"internalType":"uint8"}],"anonymous":false},{"type":"event","name":"GemsValueModified","inputs":[{"name":"CommonGemsValue","type":"uint256","indexed":false,"internalType":"uint256"},{"name":"RareGemsValue","type":"uint256","indexed":false,"internalType":"uint256"},{"name":"UniqueGemsValue","type":"uint256","indexed":false,"internalType":"uint256"},{"name":"EpicGemsValue","type":"uint256","indexed":false,"internalType":"uint256"},{"name":"LegendaryValue","type":"uint256","indexed":false,"internalType":"uint256"},{"name":"MythicValue","type":"uint256","indexed":false,"internalType":"uint256"}],"anonymous":false},{"type":"event","name":"MiningCancelled","inputs":[{"name":"_tokenId","type":"uint256","indexed":false,"internalType":"uint256"},{"name":"owner","type":"address","indexed":false,"internalType":"address"},{"name":"timestamp","type":"uint256","indexed":false,"internalType":"uint256"}],"anonymous":false},{"type":"event","name":"NoGemAvailable","inputs":[{"name":"tokenId","type":"uint256","indexed":false,"internalType":"uint256"},{"name":"initialGemCooldownDueDate","type":"uint256","indexed":false,"internalType":"uint256"},{"name":"miner","type":"address","indexed":false,"internalType":"address"}],"anonymous":false},{"type":"event","name":"Paused","inputs":[{"name":"account","type":"address","indexed":false,"internalType":"address"}],"anonymous":false},{"type":"event","name":"RandomGemRequested","inputs":[{"name":"tokenId","type":"uint256","indexed":false,"internalType":"uint256"},{"name":"requestNumber","type":"uint256","indexed":false,"internalType":"uint256"}],"anonymous":false},{"type":"event","name":"TransferGEM","inputs":[{"name":"from","type":"address","indexed":false,"internalType":"address"},{"name":"to","type":"address","indexed":false,"internalType":"address"},{"name":"tokenId","type":"uint256","indexed":false,"internalType":"uint256"},{"name":"gemCooldownDueDate","type":"uint256","indexed":false,"internalType":"uint256"}],"anonymous":false},{"type":"event","name":"Unpaused","inputs":[{"name":"account","type":"address","indexed":false,"internalType":"address"}],"anonymous":false},{"type":"error","name":"AddressZero","inputs":[]},{"type":"error","name":"ColorNotExist","inputs":[]},{"type":"error","name":"ContractNotPaused","inputs":[]},{"type":"error","name":"ContractPaused","inputs":[]},{"type":"error","name":"CooldownPeriodNotElapsed","inputs":[]},{"type":"error","name":"FailedToSendEthBack","inputs":[]},{"type":"error","name":"GemAlreadyPicked","inputs":[]},{"type":"error","name":"GemIsLocked","inputs":[]},{"type":"error","name":"GemIsNotLocked","inputs":[]},{"type":"error","name":"InvalidQuadrant","inputs":[{"name":"quadrant","type":"uint8","internalType":"uint8"},{"name":"value","type":"uint8","internalType":"uint8"}]},{"type":"error","name":"InvalidSumOfQuadrants","inputs":[]},{"type":"error","name":"MiningPeriodNotElapsed","inputs":[]},{"type":"error","name":"MismatchedArrayLengths","inputs":[]},{"type":"error","name":"NewGemInvalidQuadrant","inputs":[{"name":"quadrantIndex","type":"uint8","internalType":"uint8"},{"name":"expectedValue1","type":"uint8","internalType":"uint8"},{"name":"expectedValue2","type":"uint8","internalType":"uint8"}]},{"type":"error","name":"NoMiningTryLeft","inputs":[]},{"type":"error","name":"NotGemOwner","inputs":[]},{"type":"error","name":"NotMining","inputs":[]},{"type":"error","name":"RequestNotMade","inputs":[]},{"type":"error","name":"SameSenderAndRecipient","inputs":[]},{"type":"error","name":"SumOfQuadrantsTooHigh","inputs":[{"name":"sum","type":"uint8","internalType":"uint8"},{"name":"rarity","type":"string","internalType":"string"}]},{"type":"error","name":"TransferFailed","inputs":[]},{"type":"error","name":"URIQueryForNonexistentToken","inputs":[{"name":"tokenId","type":"uint256","internalType":"uint256"}]},{"type":"error","name":"UnauthorizedCaller","inputs":[{"name":"caller","type":"address","internalType":"address"}]},{"type":"error","name":"WrongRarity","inputs":[]}],"bytecode":{"object":"0x608060405234601957604051610ae861001f8239610ae890f35b600080fdfe6080604052600436101561001257600080fd5b60003560e01c806324f74697146100f2578063356edf74146100ed5780635c975abb146100e85780635f2d0023146100e357806361f7f6d7146100de578063676f79f1146100d95780637866369b146100d457806397125c40146100cf578063a168fa89146100ca578063a1770a7d146100c5578063c1389072146100c0578063cec21acb146100bb578063ea094c39146100b65763f317d7dd036100f757610a96565b6109ec565b61098c565b610961565b610921565b6108d9565b6107ce565b61076d565b61072c565b610635565b610442565b6101cf565b610194565b610138565b600080fd5b60009103126100f757565b610118916008021c63ffffffff1690565b90565b906101189154610107565b6101186010600d61011b565b9052565b565b346100f7576101483660046100fc565b61016a610153610126565b6040519182918263ffffffff909116815260200190565b0390f35b610118916008021c5b60ff1690565b90610118915461016e565b6101186000600261017d565b346100f7576101a43660046100fc565b61016a6101af610188565b6040519182918260ff909116815260200190565b6101186000600c61017d565b346100f7576101df3660046100fc565b61016a6101ea6101c3565b60405191829182901515815260200190565b60ff81165b036100f757565b90503590610136826101fc565b91906040838203126100f7576101189060206102318286610208565b9401610208565b6101776101186101189260ff1690565b9061025290610238565b600052602052604060002090565b634e487b7160e01b600052600060045260246000fd5b634e487b7160e01b600052602260045260246000fd5b90600160028304921680156102ac575b60208310146102a757565b610276565b91607f169161029c565b805460009392916102d36102c98361028c565b8085529360200190565b916001811690811561032557506001146102ec57505050565b6102ff9192939450600052602060002090565b916000925b8184106103115750500190565b805484840152602090930192600101610304565b92949550505060ff1916825215156020020190565b90610118916102b6565b634e487b7160e01b600052604160045260246000fd5b90601f01601f1916810190811067ffffffffffffffff82111761037c57604052565b610344565b9061013661039b9261039260405190565b9384809261033a565b038361035a565b906000106103b35761011890610381565b610260565b6103d1610118926103cc6000936001610248565b610248565b6103a2565b60005b8381106103e95750506000910152565b81810151838201526020016103d9565b61041a61042360209361042d9361040e815190565b80835293849260200190565b958691016103d6565b601f01601f191690565b0190565b6020808252610118929101906103f9565b346100f75761016a61045e610458366004610215565b906103b8565b60405191829182610431565b80610201565b905035906101368261046a565b906020828203126100f75761011891610470565b634e487b7160e01b600052603260045260246000fd5b80548210156104ca576104c1600891600052602060002090565b91020190600090565b610491565b6101189081565b61011890546104cf565b61011890610177565b61011890546104e0565b6101189060081c610177565b61011890546104f3565b6101189060101c610177565b6101189054610509565b9060009161052b835490565b8110156105a15761053c91926104a7565b5090610547826104d6565b91610554600182016104d6565b91610561600283016104d6565b9161056e600382016104d6565b9161057b600483016104e9565b91610588600482016104ff565b91610118600761059a60048501610515565b9301610381565b8280fd5b634e487b7160e01b600052602160045260246000fd5b600611156105c557565b6105a5565b90610136826105bb565b610118906105ca565b610132906105d4565b9081526101008101969095909490939092909160208701526040860152606085015260808401610615916105dd565b60ff1660a0830152151560c08201528082039060e00152610118916103f9565b346100f75761016a61065061064b36600461047d565b61051f565b9461066398969894919493929360405190565b988998896105e6565b6001600160a01b031690565b6102018161066c565b9050359061013682610678565b91906040838203126100f7576101189060206106aa8286610681565b9401610470565b6101189061066c906001600160a01b031682565b610118906106b1565b610118906106c5565b90610252906106ce565b6101186101186101189290565b90610252906106e1565b610118916008021c81565b9061011891546106f8565b6107276101189261072260009360086106d7565b6106ee565b610703565b346100f75761016a61074861074236600461068e565b9061070e565b6040519182918290815260200190565b60006107686101189260096106ee565b61017d565b346100f75761016a6101ea61078336600461047d565b610758565b610118916008021c61066c565b906101189154610788565b60006107b06101189260046106ee565b610795565b6101329061066c565b60208101929161013691906107b5565b346100f75761016a6107e96107e436600461047d565b6107a0565b604051918291826107be565b6101189061066c565b61011890546107f5565b6101189060a01c610177565b6101189054610808565b6101189060a81c610177565b610118905461081e565b61083f90600b6106ee565b90610849826104d6565b91610856600182016104d6565b91610863600283016104d6565b91610870600382016107fe565b916101186003610881818501610814565b930161082a565b91946108c86108d1929897956108be60a0966108b76101369a6108b060c08a019e60008b0152565b6020890152565b6040870152565b60608501906107b5565b15156080830152565b019015159052565b346100f75761016a6108f46108ef36600461047d565b610834565b9261090496949692919260405190565b96879687610888565b6107686101189261072260009360076106d7565b346100f75761016a6101ea61093736600461068e565b9061090d565b906020828203126100f75761011891610681565b60006107276101189260066106d7565b346100f75761016a61074861097736600461093d565b610951565b60006107276101189260056106d7565b346100f75761016a6107486109a236600461093d565b61097c565b600611156100f757565b90503590610136826109a7565b906020828203126100f757610118916109b1565b90610252906105d4565b600061072761011892600a6109d2565b346100f75761016a610748610a023660046109be565b6109dc565b91906040838203126100f7576101189060206106aa8286610470565b80548210156104ca576104c1600191600052602060002090565b90919060028310156104ca576020610a5460019290565b8185040193060290565b600390610a69825490565b8110156100f757610a7991610a23565b5060028210156100f75761011891610a9091610a3d565b9061017d565b346100f75761016a6101af610aac366004610a07565b90610a5e56fea2646970667358221220672ecada7288debfebc475247f5944238154d73cb00f02abdffa2cd44680ba0164736f6c63430008190033","linkReferences":{}},"methodIdentifiers":{"GEMIndexToOwner(uint256)":"97125c40","Gems(uint256)":"61f7f6d7","callbackGasLimit()":"24f74697","colorName(uint8,uint8)":"5f2d0023","colors(uint256,uint256)":"f317d7dd","colorsCount()":"356edf74","numberMiningGemsByRarity(uint8)":"ea094c39","ownershipTokenCount(address)":"cec21acb","paused()":"5c975abb","s_requests(uint256)":"a168fa89","tokenMiningByUser(address)":"c1389072","tokenReadyToMine(uint256)":"7866369b","userMiningStartTime(address,uint256)":"676f79f1","userMiningToken(address,uint256)":"a1770a7d"},"id":59}