{"abi":[{"type":"function","name":"DEFAULT_ADMIN_ROLE","inputs":[],"outputs":[{"name":"","type":"bytes32","internalType":"bytes32"}],"stateMutability":"view"},{"type":"function","name":"MINTER_ROLE","inputs":[],"outputs":[{"name":"","type":"bytes32","internalType":"bytes32"}],"stateMutability":"view"},{"type":"function","name":"accStaked","inputs":[{"name":"layer2","type":"address","internalType":"address"},{"name":"account","type":"address","internalType":"address"}],"outputs":[{"name":"wtonAmount","type":"uint256","internalType":"uint256"}],"stateMutability":"view"},{"type":"function","name":"accStakedAccount","inputs":[{"name":"account","type":"address","internalType":"address"}],"outputs":[{"name":"wtonAmount","type":"uint256","internalType":"uint256"}],"stateMutability":"view"},{"type":"function","name":"accStakedLayer2","inputs":[{"name":"layer2","type":"address","internalType":"address"}],"outputs":[{"name":"wtonAmount","type":"uint256","internalType":"uint256"}],"stateMutability":"view"},{"type":"function","name":"accUnstaked","inputs":[{"name":"layer2","type":"address","internalType":"address"},{"name":"account","type":"address","internalType":"address"}],"outputs":[{"name":"wtonAmount","type":"uint256","internalType":"uint256"}],"stateMutability":"view"},{"type":"function","name":"accUnstakedAccount","inputs":[{"name":"account","type":"address","internalType":"address"}],"outputs":[{"name":"wtonAmount","type":"uint256","internalType":"uint256"}],"stateMutability":"view"},{"type":"function","name":"accUnstakedLayer2","inputs":[{"name":"layer2","type":"address","internalType":"address"}],"outputs":[{"name":"wtonAmount","type":"uint256","internalType":"uint256"}],"stateMutability":"view"},{"type":"function","name":"addAdmin","inputs":[{"name":"account","type":"address","internalType":"address"}],"outputs":[],"stateMutability":"nonpayable"},{"type":"function","name":"aliveImplementation","inputs":[{"name":"","type":"address","internalType":"address"}],"outputs":[{"name":"","type":"bool","internalType":"bool"}],"stateMutability":"view"},{"type":"function","name":"deposit","inputs":[{"name":"layer2","type":"address","internalType":"address"},{"name":"amount","type":"uint256","internalType":"uint256"}],"outputs":[{"name":"","type":"bool","internalType":"bool"}],"stateMutability":"nonpayable"},{"type":"function","name":"deposit","inputs":[{"name":"layer2","type":"address","internalType":"address"},{"name":"accounts","type":"address[]","internalType":"address[]"},{"name":"amounts","type":"uint256[]","internalType":"uint256[]"}],"outputs":[{"name":"","type":"bool","internalType":"bool"}],"stateMutability":"nonpayable"},{"type":"function","name":"deposit","inputs":[{"name":"layer2","type":"address","internalType":"address"},{"name":"account","type":"address","internalType":"address"},{"name":"amount","type":"uint256","internalType":"uint256"}],"outputs":[{"name":"","type":"bool","internalType":"bool"}],"stateMutability":"nonpayable"},{"type":"function","name":"getDelayBlocks","inputs":[{"name":"layer2","type":"address","internalType":"address"}],"outputs":[{"name":"","type":"uint256","internalType":"uint256"}],"stateMutability":"view"},{"type":"function","name":"getRoleAdmin","inputs":[{"name":"role","type":"bytes32","internalType":"bytes32"}],"outputs":[{"name":"","type":"bytes32","internalType":"bytes32"}],"stateMutability":"view"},{"type":"function","name":"globalWithdrawalDelay","inputs":[],"outputs":[{"name":"","type":"uint256","internalType":"uint256"}],"stateMutability":"view"},{"type":"function","name":"grantRole","inputs":[{"name":"role","type":"bytes32","internalType":"bytes32"},{"name":"account","type":"address","internalType":"address"}],"outputs":[],"stateMutability":"nonpayable"},{"type":"function","name":"hasRole","inputs":[{"name":"role","type":"bytes32","internalType":"bytes32"},{"name":"account","type":"address","internalType":"address"}],"outputs":[{"name":"","type":"bool","internalType":"bool"}],"stateMutability":"view"},{"type":"function","name":"initialize","inputs":[{"name":"wton_","type":"address","internalType":"address"},{"name":"registry_","type":"address","internalType":"address"},{"name":"seigManager_","type":"address","internalType":"address"},{"name":"globalWithdrawalDelay_","type":"uint256","internalType":"uint256"}],"outputs":[],"stateMutability":"nonpayable"},{"type":"function","name":"isAdmin","inputs":[{"name":"account","type":"address","internalType":"address"}],"outputs":[{"name":"","type":"bool","internalType":"bool"}],"stateMutability":"view"},{"type":"function","name":"isOwner","inputs":[],"outputs":[{"name":"","type":"bool","internalType":"bool"}],"stateMutability":"view"},{"type":"function","name":"numPendingRequests","inputs":[{"name":"layer2","type":"address","internalType":"address"},{"name":"account","type":"address","internalType":"address"}],"outputs":[{"name":"","type":"uint256","internalType":"uint256"}],"stateMutability":"view"},{"type":"function","name":"numRequests","inputs":[{"name":"layer2","type":"address","internalType":"address"},{"name":"account","type":"address","internalType":"address"}],"outputs":[{"name":"","type":"uint256","internalType":"uint256"}],"stateMutability":"view"},{"type":"function","name":"oldDepositManager","inputs":[],"outputs":[{"name":"","type":"address","internalType":"address"}],"stateMutability":"view"},{"type":"function","name":"onApprove","inputs":[{"name":"owner","type":"address","internalType":"address"},{"name":"","type":"address","internalType":"address"},{"name":"amount","type":"uint256","internalType":"uint256"},{"name":"data","type":"bytes","internalType":"bytes"}],"outputs":[{"name":"","type":"bool","internalType":"bool"}],"stateMutability":"nonpayable"},{"type":"function","name":"pauseProxy","inputs":[],"outputs":[{"name":"","type":"bool","internalType":"bool"}],"stateMutability":"view"},{"type":"function","name":"pendingUnstaked","inputs":[{"name":"layer2","type":"address","internalType":"address"},{"name":"account","type":"address","internalType":"address"}],"outputs":[{"name":"wtonAmount","type":"uint256","internalType":"uint256"}],"stateMutability":"view"},{"type":"function","name":"pendingUnstakedAccount","inputs":[{"name":"account","type":"address","internalType":"address"}],"outputs":[{"name":"wtonAmount","type":"uint256","internalType":"uint256"}],"stateMutability":"view"},{"type":"function","name":"pendingUnstakedLayer2","inputs":[{"name":"layer2","type":"address","internalType":"address"}],"outputs":[{"name":"wtonAmount","type":"uint256","internalType":"uint256"}],"stateMutability":"view"},{"type":"function","name":"processRequest","inputs":[{"name":"layer2","type":"address","internalType":"address"},{"name":"receiveTON","type":"bool","internalType":"bool"}],"outputs":[{"name":"","type":"bool","internalType":"bool"}],"stateMutability":"nonpayable"},{"type":"function","name":"processRequests","inputs":[{"name":"layer2","type":"address","internalType":"address"},{"name":"n","type":"uint256","internalType":"uint256"},{"name":"receiveTON","type":"bool","internalType":"bool"}],"outputs":[{"name":"","type":"bool","internalType":"bool"}],"stateMutability":"nonpayable"},{"type":"function","name":"proxyImplementation","inputs":[{"name":"","type":"uint256","internalType":"uint256"}],"outputs":[{"name":"","type":"address","internalType":"address"}],"stateMutability":"view"},{"type":"function","name":"redeposit","inputs":[{"name":"layer2","type":"address","internalType":"address"}],"outputs":[{"name":"","type":"bool","internalType":"bool"}],"stateMutability":"nonpayable"},{"type":"function","name":"redepositMulti","inputs":[{"name":"layer2","type":"address","internalType":"address"},{"name":"n","type":"uint256","internalType":"uint256"}],"outputs":[{"name":"","type":"bool","internalType":"bool"}],"stateMutability":"nonpayable"},{"type":"function","name":"registry","inputs":[],"outputs":[{"name":"","type":"address","internalType":"address"}],"stateMutability":"view"},{"type":"function","name":"removeAdmin","inputs":[{"name":"account","type":"address","internalType":"address"}],"outputs":[],"stateMutability":"nonpayable"},{"type":"function","name":"renounceOwnership","inputs":[],"outputs":[],"stateMutability":"nonpayable"},{"type":"function","name":"renounceRole","inputs":[{"name":"role","type":"bytes32","internalType":"bytes32"},{"name":"callerConfirmation","type":"address","internalType":"address"}],"outputs":[],"stateMutability":"nonpayable"},{"type":"function","name":"requestWithdrawal","inputs":[{"name":"layer2","type":"address","internalType":"address"},{"name":"amount","type":"uint256","internalType":"uint256"}],"outputs":[{"name":"","type":"bool","internalType":"bool"}],"stateMutability":"nonpayable"},{"type":"function","name":"requestWithdrawalAll","inputs":[{"name":"layer2","type":"address","internalType":"address"}],"outputs":[{"name":"","type":"bool","internalType":"bool"}],"stateMutability":"nonpayable"},{"type":"function","name":"revokeRole","inputs":[{"name":"role","type":"bytes32","internalType":"bytes32"},{"name":"account","type":"address","internalType":"address"}],"outputs":[],"stateMutability":"nonpayable"},{"type":"function","name":"seigManager","inputs":[],"outputs":[{"name":"","type":"address","internalType":"address"}],"stateMutability":"view"},{"type":"function","name":"selectorImplementation","inputs":[{"name":"","type":"bytes4","internalType":"bytes4"}],"outputs":[{"name":"","type":"address","internalType":"address"}],"stateMutability":"view"},{"type":"function","name":"setGlobalWithdrawalDelay","inputs":[{"name":"globalWithdrawalDelay_","type":"uint256","internalType":"uint256"}],"outputs":[],"stateMutability":"nonpayable"},{"type":"function","name":"setSeigManager","inputs":[{"name":"seigManager_","type":"address","internalType":"address"}],"outputs":[],"stateMutability":"nonpayable"},{"type":"function","name":"setWithdrawalDelay","inputs":[{"name":"l2chain","type":"address","internalType":"address"},{"name":"withdrawalDelay_","type":"uint256","internalType":"uint256"}],"outputs":[],"stateMutability":"nonpayable"},{"type":"function","name":"slash","inputs":[{"name":"layer2","type":"address","internalType":"address"},{"name":"recipient","type":"address","internalType":"address"},{"name":"amount","type":"uint256","internalType":"uint256"}],"outputs":[{"name":"","type":"bool","internalType":"bool"}],"stateMutability":"nonpayable"},{"type":"function","name":"supportsInterface","inputs":[{"name":"interfaceId","type":"bytes4","internalType":"bytes4"}],"outputs":[{"name":"","type":"bool","internalType":"bool"}],"stateMutability":"view"},{"type":"function","name":"transferAdmin","inputs":[{"name":"newAdmin","type":"address","internalType":"address"}],"outputs":[],"stateMutability":"nonpayable"},{"type":"function","name":"transferOwnership","inputs":[{"name":"newAdmin","type":"address","internalType":"address"}],"outputs":[],"stateMutability":"nonpayable"},{"type":"function","name":"withdrawalDelay","inputs":[{"name":"","type":"address","internalType":"address"}],"outputs":[{"name":"","type":"uint256","internalType":"uint256"}],"stateMutability":"view"},{"type":"function","name":"withdrawalRequest","inputs":[{"name":"layer2","type":"address","internalType":"address"},{"name":"account","type":"address","internalType":"address"},{"name":"index","type":"uint256","internalType":"uint256"}],"outputs":[{"name":"withdrawableBlockNumber","type":"uint128","internalType":"uint128"},{"name":"amount","type":"uint128","internalType":"uint128"},{"name":"processed","type":"bool","internalType":"bool"}],"stateMutability":"view"},{"type":"function","name":"withdrawalRequestIndex","inputs":[{"name":"layer2","type":"address","internalType":"address"},{"name":"account","type":"address","internalType":"address"}],"outputs":[{"name":"index","type":"uint256","internalType":"uint256"}],"stateMutability":"view"},{"type":"function","name":"wton","inputs":[],"outputs":[{"name":"","type":"address","internalType":"address"}],"stateMutability":"view"},{"type":"event","name":"Deposited","inputs":[{"name":"layer2","type":"address","indexed":true,"internalType":"address"},{"name":"depositor","type":"address","indexed":false,"internalType":"address"},{"name":"amount","type":"uint256","indexed":false,"internalType":"uint256"}],"anonymous":false},{"type":"event","name":"RoleAdminChanged","inputs":[{"name":"role","type":"bytes32","indexed":true,"internalType":"bytes32"},{"name":"previousAdminRole","type":"bytes32","indexed":true,"internalType":"bytes32"},{"name":"newAdminRole","type":"bytes32","indexed":true,"internalType":"bytes32"}],"anonymous":false},{"type":"event","name":"RoleGranted","inputs":[{"name":"role","type":"bytes32","indexed":true,"internalType":"bytes32"},{"name":"account","type":"address","indexed":true,"internalType":"address"},{"name":"sender","type":"address","indexed":true,"internalType":"address"}],"anonymous":false},{"type":"event","name":"RoleRevoked","inputs":[{"name":"role","type":"bytes32","indexed":true,"internalType":"bytes32"},{"name":"account","type":"address","indexed":true,"internalType":"address"},{"name":"sender","type":"address","indexed":true,"internalType":"address"}],"anonymous":false},{"type":"event","name":"WithdrawalProcessed","inputs":[{"name":"layer2","type":"address","indexed":true,"internalType":"address"},{"name":"depositor","type":"address","indexed":false,"internalType":"address"},{"name":"amount","type":"uint256","indexed":false,"internalType":"uint256"}],"anonymous":false},{"type":"event","name":"WithdrawalRequested","inputs":[{"name":"layer2","type":"address","indexed":true,"internalType":"address"},{"name":"depositor","type":"address","indexed":false,"internalType":"address"},{"name":"amount","type":"uint256","indexed":false,"internalType":"uint256"}],"anonymous":false},{"type":"error","name":"AccessControlBadConfirmation","inputs":[]},{"type":"error","name":"AccessControlUnauthorizedAccount","inputs":[{"name":"account","type":"address","internalType":"address"},{"name":"neededRole","type":"bytes32","internalType":"bytes32"}]},{"type":"error","name":"AddressEmptyCode","inputs":[{"name":"target","type":"address","internalType":"address"}]},{"type":"error","name":"AddressInsufficientBalance","inputs":[{"name":"account","type":"address","internalType":"address"}]},{"type":"error","name":"FailedInnerCall","inputs":[]},{"type":"error","name":"SafeERC20FailedOperation","inputs":[{"name":"token","type":"address","internalType":"address"}]}],"bytecode":{"object":"0x608060405234601d575b600f6021565b6144f161002d82396144f190f35b6027565b60405190565b600080fdfe60806040526004361015610013575b611826565b61001e6000356103b7565b806255f5c1146103b2575b8063010ca390146103ad575b806301ffc9a7146103a8575b80631785f53c146103a3575b80632153c2391461039e575b8063248a9ca314610399575b806324d7806c14610394575b80632638fdf51461038f575b80632d2fab941461038a575b80632f2ff15d14610385575b806336568abe14610380575b80634273ca161461037b575b8063445e83b914610376575b806347e7ef2414610371575b80634ce970361461036c575b806350d2a27614610367575b8063550d01a314610362575b8063562fa0df1461035d575b80635c0df46b14610358575b806363a8fd8914610353575b80636b2160b71461034e575b80636ec3d5ae14610349575b80636fb7f55814610344575b8063704802751461033f575b8063715018a61461033a575b806375829def14610335575b80637657f20a14610330575b80637b1039991461032b575b80638340f54914610326575b80638af4a94814610321575b80638d62d9491461031c575b80638f32d59b14610317575b80638fbef2d014610312575b806391d148541461030d575b80639d91b87b14610308575b8063a0b2a91314610303575b8063a217fddf146102fe575b8063a3543989146102f9575b8063a79da341146102f4575b8063b5f19db2146102ef575b8063b8bee628146102ea575b8063b911135f146102e5575b8063c20a44c6146102e0575b8063c647f26e146102db575b8063cf756fdf146102d6575b8063d285f78c146102d1575b8063d5391393146102cc575b8063d547741f146102c7575b8063da95ebf7146102c2575b8063dc5a709f146102bd575b8063e74f8239146102b8575b8063f2fde38b146102b3575b8063f762eb57146102ae575b63fb0713b1146102a9575b61000e565b6117ef565b61177c565b611748565b611711565b6116dc565b6116a5565b611670565b61163a565b6115d5565b61159d565b61151e565b6114e7565b61145b565b6113d6565b6113a0565b61136c565b611316565b6112e0565b61126d565b611236565b6111ff565b6111c5565b611143565b61110d565b6110d7565b6110a0565b61102e565b610ffa565b610fc6565b610f92565b610f5e565b610f28565b610ef2565b610ead565b610e77565b610e32565b610dfb565b610bbf565b610b29565b610ab4565b6109ea565b6109b3565b61094a565b610839565b610804565b61079e565b610767565b610702565b6106cc565b610629565b61057c565b61053f565b61048d565b610457565b60e01c90565b60405190565b600080fd5b600080fd5b600080fd5b60018060a01b03901690565b6103e7906103d2565b90565b6103f3816103de565b9014156103fd575b565b600080fd5b9050359061040f826103ea565b565b9060208282031261042c575b60006104299201610402565b90565b6103c8565b90565b61043d90610431565b9052565b919061045590600060208501940190610434565b565b34610488575b61048461047361046e366004610411565b611857565b61047b6103bd565b91829182610441565b0390f35b6103c3565b346104be575b6104ba6104a96104a4366004610411565b611876565b6104b16103bd565b91829182610441565b0390f35b6103c3565b63ffffffff60e01b901690565b6104d9816104c3565b9014156104e3575b565b600080fd5b905035906104f5826104d0565b565b90602082820312610512575b600061050f92016104e8565b90565b6103c8565b151590565b61052590610517565b9052565b919061053d9060006020850194019061051c565b565b34610570575b61056c61055b6105563660046104f7565b61189a565b6105636103bd565b91829182610529565b0390f35b6103c3565b6000900190565b346105ab575b610595610590366004610411565b611992565b61059d6103bd565b806105a781610575565b0390f35b6103c3565b60009103126105bc575b565b6103c8565b1c90565b60018060a01b03901690565b6105e19060086105e693026105c1565b6105c5565b90565b906105f491546105d1565b90565b610603600060086105e9565b90565b61060f906103de565b9052565b919061062790600060208501940190610606565b565b3461065a575b61063a3660046105b0565b6106566106456105f7565b61064d6103bd565b91829182610613565b0390f35b6103c3565b90565b61066b8161065f565b901415610675575b565b600080fd5b9050359061068782610662565b565b906020828203126106a4575b60006106a1920161067a565b90565b6103c8565b6106b29061065f565b9052565b91906106ca906000602085019401906106a9565b565b346106fd575b6106f96106e86106e3366004610689565b6119ea565b6106f06103bd565b918291826106b6565b0390f35b6103c3565b34610733575b61072f61071e610719366004610411565b611a0c565b6107266103bd565b91829182610529565b0390f35b6103c3565b9190604083820312610762575b80602061075861075f9360008701610402565b9401610402565b90565b6103c8565b34610799575b61079561078461077e366004610738565b90611a41565b61078c6103bd565b91829182610441565b0390f35b6103c3565b346107d0575b6107cc6107bb6107b5366004610738565b90611a69565b6107c36103bd565b91829182610441565b0390f35b6103c3565b91906040838203126107ff575b8060206107f56107fc936000870161067a565b9401610402565b90565b6103c8565b34610834575b61081e6108183660046107d5565b90611abb565b6108266103bd565b8061083081610575565b0390f35b6103c3565b34610869575b61085361084d3660046107d5565b90611ac7565b61085b6103bd565b8061086581610575565b0390f35b6103c3565b61087781610431565b901415610881575b565b600080fd5b905035906108938261086e565b565b600080fd5b600080fd5b600080fd5b909182601f830112156108e2575b81359167ffffffffffffffff83116108dd575b6020900192600183028401116108d8575b565b61089f565b61089a565b610895565b90608082820312610945575b6109008160008401610402565b9261090e8260208501610402565b9261091c8360408301610886565b92606082013567ffffffffffffffff8111610940575b61093c92016108a4565b9091565b6103cd565b6103c8565b3461097f575b61097b61096a6109613660046108e7565b93929092611c6a565b6109726103bd565b91829182610529565b0390f35b6103c3565b91906040838203126109ae575b8060206109a46109ab9360008701610402565b9401610886565b90565b6103c8565b346109e5575b6109e16109d06109ca366004610984565b90611cc2565b6109d86103bd565b91829182610529565b0390f35b6103c3565b34610a1c575b610a18610a07610a01366004610984565b90611d00565b610a0f6103bd565b91829182610529565b0390f35b6103c3565b90565b610a38610a33610a3d926103d2565b610a21565b6103d2565b90565b610a4990610a24565b90565b610a5590610a40565b90565b90610a6290610a4c565b600052602052604060002090565b90565b610a83906008610a8893026105c1565b610a70565b90565b90610a969154610a73565b90565b6000610aac610ab1926015506015610a58565b610a8b565b90565b34610ae5575b610ae1610ad0610acb366004610411565b610a99565b610ad86103bd565b91829182610441565b0390f35b6103c3565b610af3906104c3565b90565b90610b0090610aea565b600052602052604060002090565b6000610b21610b26926003506003610af6565b6105e9565b90565b34610b5a575b610b56610b45610b403660046104f7565b610b0e565b610b4d6103bd565b91829182610613565b0390f35b6103c3565b90610b6990610a4c565b600052602052604060002090565b60ff901690565b610b8e906008610b9393026105c1565b610b77565b90565b90610ba19154610b7e565b90565b6000610bb7610bbc926002506002610b5f565b610b96565b90565b34610bf0575b610bec610bdb610bd6366004610411565b610ba4565b610be36103bd565b91829182610529565b0390f35b6103c3565b601f801991011690565b634e487b7160e01b600052604160045260246000fd5b90610c1f90610bf5565b810190811067ffffffffffffffff821117610c3a575b604052565b610bff565b90610c52610c4b6103bd565b9283610c15565b565b67ffffffffffffffff8111610c6d575b60208091020190565b610bff565b90929192610c87610c8282610c54565b610c3f565b93845081855260208086019202830192818411610cc8575b915b838310610caf575b50505050565b60208091610cbd8486610402565b815201920191610ca1565b61089f565b9080601f83011215610cec575b816020610ce993359101610c72565b90565b610895565b67ffffffffffffffff8111610d0a575b60208091020190565b610bff565b90929192610d24610d1f82610cf1565b610c3f565b93845081855260208086019202830192818411610d65575b915b838310610d4c575b50505050565b60208091610d5a8486610886565b815201920191610d3e565b61089f565b9080601f83011215610d89575b816020610d8693359101610d0f565b90565b610895565b91606083830312610df6575b610da78260008501610402565b92602081013567ffffffffffffffff8111610df1575b83610dc9918301610ccd565b92604082013567ffffffffffffffff8111610dec575b610de99201610d6a565b90565b6103cd565b6103cd565b6103c8565b34610e2d575b610e29610e18610e12366004610d8e565b91611ed5565b610e206103bd565b91829182610529565b0390f35b6103c3565b34610e64575b610e60610e4f610e49366004610738565b9061201e565b610e576103bd565b91829182610441565b0390f35b6103c3565b610e74600080610b96565b90565b34610ea8575b610e883660046105b0565b610ea4610e93610e69565b610e9b6103bd565b91829182610529565b0390f35b6103c3565b34610ede575b610eda610ec9610ec4366004610411565b612122565b610ed16103bd565b91829182610529565b0390f35b6103c3565b610eef60006014610a8b565b90565b34610f23575b610f033660046105b0565b610f1f610f0e610ee3565b610f166103bd565b91829182610441565b0390f35b6103c3565b34610f59575b610f393660046105b0565b610f55610f446121d4565b610f4c6103bd565b91829182610613565b0390f35b6103c3565b34610f8d575b610f77610f72366004610411565b612219565b610f7f6103bd565b80610f8981610575565b0390f35b6103c3565b34610fc1575b610fa33660046105b0565b610fab612253565b610fb36103bd565b80610fbd81610575565b0390f35b6103c3565b34610ff5575b610fdf610fda366004610411565b61240b565b610fe76103bd565b80610ff181610575565b0390f35b6103c3565b34611029575b61101361100e366004610411565b612456565b61101b6103bd565b8061102581610575565b0390f35b6103c3565b3461105f575b61103f3660046105b0565b61105b61104a612463565b6110526103bd565b91829182610613565b0390f35b6103c3565b909160608284031261109b575b6110986110818460008501610402565b9360406110918260208701610402565b9401610886565b90565b6103c8565b346110d2575b6110ce6110bd6110b7366004611064565b91612479565b6110c56103bd565b91829182610529565b0390f35b6103c3565b34611108575b6111046110f36110ee366004610411565b61249b565b6110fb6103bd565b91829182610441565b0390f35b6103c3565b3461113e575b61111e3660046105b0565b61113a6111296124ba565b6111316103bd565b91829182610613565b0390f35b6103c3565b34611174575b6111543660046105b0565b61117061115f6124d0565b6111676103bd565b91829182610529565b0390f35b6103c3565b60018060801b03901690565b61118e90611179565b9052565b6040906111bc6111c394969593966111b260608401986000850190611185565b6020830190611185565b019061051c565b565b346111fa575b6111f66111e26111dc366004611064565b916125a0565b6111ed9391936103bd565b93849384611192565b0390f35b6103c3565b34611231575b61122d61121c6112163660046107d5565b90612647565b6112246103bd565b91829182610529565b0390f35b6103c3565b34611268575b61126461125361124d366004610738565b90612672565b61125b6103bd565b91829182610441565b0390f35b6103c3565b3461129e575b61129a611289611284366004610411565b61269a565b6112916103bd565b91829182610441565b0390f35b6103c3565b90565b60001b90565b6112c06112bb6112c5926112a3565b6112a6565b61065f565b90565b6112d260006112ac565b90565b6112dd6112c8565b90565b34611311575b6112f13660046105b0565b61130d6112fc6112d5565b6113046103bd565b918291826106b6565b0390f35b6103c3565b34611347575b61134361133261132d366004610411565b6126b9565b61133a6103bd565b91829182610441565b0390f35b6103c3565b90602082820312611367575b60006113649201610886565b90565b6103c8565b3461139b575b61138561138036600461134c565b612714565b61138d6103bd565b8061139781610575565b0390f35b6103c3565b346113d1575b6113cd6113bc6113b7366004610411565b612721565b6113c46103bd565b91829182610441565b0390f35b6103c3565b34611407575b6114036113f26113ed366004610411565b6127aa565b6113fa6103bd565b91829182610529565b0390f35b6103c3565b61142061141b61142592610431565b610a21565b610431565b90565b906114329061140c565b600052602052604060002090565b6000611453611458926001506001611428565b6105e9565b90565b3461148c575b61148861147761147236600461134c565b611440565b61147f6103bd565b91829182610613565b0390f35b6103c3565b61149a81610517565b9014156114a4575b565b600080fd5b905035906114b682611491565b565b91906040838203126114e2575b8060206114d86114df9360008701610402565b94016114a9565b90565b6103c8565b34611519575b6115156115046114fe3660046114b8565b906127f1565b61150c6103bd565b91829182610529565b0390f35b6103c3565b34611550575b61154c61153b611535366004610738565b90612807565b6115436103bd565b91829182610441565b0390f35b6103c3565b608081830312611598575b61156d8260008301610402565b9261159561157e8460208501610402565b93606061158e8260408701610402565b9401610886565b90565b6103c8565b346115d0575b6115ba6115b1366004611555565b929190916128b4565b6115c26103bd565b806115cc81610575565b0390f35b6103c3565b34611606575b6116026115f16115ec366004610411565b612910565b6115f96103bd565b91829182610441565b0390f35b6103c3565b7ff0887ba65ee2024ea881d91b74c2450ef19e1557f03bed3ea9f16b037cbe2dc990565b61163761160b565b90565b3461166b575b61164b3660046105b0565b61166761165661162f565b61165e6103bd565b918291826106b6565b0390f35b6103c3565b346116a0575b61168a6116843660046107d5565b90612959565b6116926103bd565b8061169c81610575565b0390f35b6103c3565b346116d7575b6116d36116c26116bc366004610984565b90612965565b6116ca6103bd565b91829182610529565b0390f35b6103c3565b3461170c575b6116f66116f0366004610984565b90612984565b6116fe6103bd565b8061170881610575565b0390f35b6103c3565b34611743575b61173f61172e611728366004611064565b916129ac565b6117366103bd565b91829182610529565b0390f35b6103c3565b34611777575b61176161175c366004610411565b6129e1565b6117696103bd565b8061177381610575565b0390f35b6103c3565b346117ae575b6117aa611799611793366004610738565b906129ec565b6117a16103bd565b91829182610441565b0390f35b6103c3565b90916060828403126117ea575b6117e76117d08460008501610402565b9360406117e08260208701610886565b94016114a9565b90565b6103c8565b34611821575b61181d61180c6118063660046117b3565b91612a14565b6118146103bd565b91829182610529565b0390f35b6103c3565b600080fd5b600090565b60001c90565b61184261184791611830565b610a70565b90565b6118549054611836565b90565b61186e6118739161186661182b565b50600b610a58565b61184a565b90565b61188d6118929161188561182b565b50600a610a58565b61184a565b90565b600090565b6118ac906118a6611895565b50612a73565b90565b60209181520190565b60207f696e000000000000000000000000000000000000000000000000000000000000917f41636365737369626c653a2043616c6c6572206973206e6f7420616e2061646d60008201520152565b61191360226040926118af565b61191c816118b8565b0190565b6119369060208101906000818303910152611906565b90565b15611941575b565b6119496103bd565b62461bcd60e51b81528061195f60048201611920565b0390fd5b61197d9061197861197333611a0c565b611939565b61197f565b565b6119909061198b6112c8565b611ac7565b565b61199b90611963565b565b600090565b6119ab9061065f565b90565b906119b8906119a2565b600052602052604060002090565b90565b6119d56119da91611830565b6119c6565b90565b6119e790546119c9565b90565b6001611a03611a09926119fb61199d565b5060046119ae565b016119dd565b90565b611a2690611a18611895565b50611a216112c8565b612647565b90565b90611a3390610a4c565b600052602052604060002090565b611a6691611a5c611a6192611a5461182b565b50600c611a29565b610a58565b61184a565b90565b611a8e91611a84611a8992611a7c61182b565b506009611a29565b610a58565b61184a565b90565b90611aac91611aa7611aa2826119ea565b612ab3565b611aae565b565b90611ab891612b0e565b50565b90611ac591611a91565b565b90611ad8611ad3612bb9565b6103de565b611ae1826103de565b1415611af4575b611af191612bc6565b50565b611afc6103bd565b63334bd91960e11b815280611b1360048201610575565b0390fd5b611b23611b2891611830565b6105c5565b90565b611b359054611b17565b90565b60207f20617070726f76652063616c6c6261636b000000000000000000000000000000917f4465706f7369744d616e616765723a206f6e6c79206163636570742057544f4e60008201520152565b611b9360316040926118af565b611b9c81611b38565b0190565b611bb69060208101906000818303910152611b86565b90565b15611bc1575b565b611bc96103bd565b62461bcd60e51b815280611bdf60048201611ba0565b0390fd5b600080fd5b67ffffffffffffffff8111611c07575b611c03602091610bf5565b0190565b610bff565b90826000939282370152565b90929192611c2d611c2882611be8565b610c3f565b9381855281830111611c4a575b611c48916020850190611c0c565b565b611be3565b611c5a913691611c18565b90565b15611c65575b565b600080fd5b80929150611cb3611cae611cbd96611cb896611c84611895565b50611ca9611c9a611c956005611b2b565b6103de565b611ca3336103de565b14611bb9565b611c4f565b612c8a565b612e14565b611c5d565b600190565b611cfb91611cf691611cd2611895565b50611cf0611ceb611ce4836013611a29565b3390610a58565b61184a565b906132b7565b611c5d565b600190565b611d1a90611d1f92611d10611895565b5033913390612e14565b611c5d565b600190565b5190565b611d3c611d37611d41926112a3565b610a21565b610431565b90565b60007f6e6f206163636f756e7400000000000000000000000000000000000000000000910152565b611d79600a6020926118af565b611d8281611d44565b0190565b611d9c9060208101906000818303910152611d6c565b90565b15611da7575b565b611daf6103bd565b62461bcd60e51b815280611dc560048201611d86565b0390fd5b5190565b60007f77726f6e67206c656e7468000000000000000000000000000000000000000000910152565b611e02600b6020926118af565b611e0b81611dcd565b0190565b611e259060208101906000818303910152611df5565b90565b15611e30575b565b611e386103bd565b62461bcd60e51b815280611e4e60048201611e0f565b0390fd5b6001611e5e9101610431565b90565b634e487b7160e01b600052603260045260246000fd5b90611e8182611d24565b811015611e94575b602080910201900190565b611e61565b611ea390516103de565b90565b90611eb082611dc9565b811015611ec3575b602080910201900190565b611e61565b611ed29051610431565b90565b929190611ee0611895565b50611f07611eed82611d24565b611f00611efa6000611d28565b91610431565b1415611d9f565b611f33611f1382611d24565b611f2d611f27611f2286611dc9565b610431565b91610431565b14611e28565b611f3d6000611d28565b5b611f4f611f4a83611d24565b610431565b611f5882610431565b1015611fa4575b80611f9a611f95611f7b611f76611f9f9587611e77565b611e99565b611f8d611f888589611ea6565b611ec8565b33918a612e14565b611c5d565b611e52565b611f3e565b5050509050600190565b90611fb890610a4c565b600052602052604060002090565b90611fd090610a4c565b600052602052604060002090565b5490565b634e487b7160e01b600052601160045260246000fd5b61200761200d91939293610431565b92610431565b8203918211612019575b565b611fe2565b9061205b6120609161202e61182b565b5061205661204e61204983612044886012611fae565b611fc6565b611fde565b946013611a29565b610a58565b61184a565b61206a6000611d28565b61207383610431565b14612085575b61208291611ff8565b90565b50506120916000611d28565b90565b61209d90610a24565b90565b6120a990612094565b90565b6120b590610a40565b90565b60e01b90565b905051906120cb8261086e565b565b906020828203126120e8575b60006120e592016120be565b90565b6103c8565b91602061210f92949361210860408201966000830190610606565b0190610606565b565b6121196103bd565b3d6000823e3d90fd5b61212a611895565b5061214561214061213b6007611b2b565b6120a0565b6120ac565b9060206121506103bd565b809361215f63ce4cb8766120b8565b825281806121713387600484016120ed565b03915afa80156121ca575b6121989260009161219b575b5061219282612721565b91613905565b90565b6121bd915060203d6020116121c3575b6121b58183610c15565b8101906120cd565b38612188565b503d6121ab565b612111565b600090565b6121dc6121cf565b506121e76007611b2b565b90565b612204906121ff6121fa33611a0c565b611939565b612206565b565b612217906122126112c8565b611abb565b565b612222906121ea565b565b61223561223033611a0c565b611939565b61223d61223f565b565b61225161224a6112c8565b3390611ac7565b565b61225b612224565b565b6122779061227261226d33611a0c565b611939565b6123ab565b565b61228d612288612292926112a3565b610a21565b6103d2565b90565b61229e90612279565b90565b60007f41636365737369626c653a207a65726f20616464726573730000000000000000910152565b6122d660186020926118af565b6122df816122a1565b0190565b6122f990602081019060008183039101526122c9565b90565b15612304575b565b61230c6103bd565b62461bcd60e51b815280612322600482016122e3565b0390fd5b60007f41636365737369626c653a2073616d652061646d696e00000000000000000000910152565b61235b60166020926118af565b61236481612326565b0190565b61237e906020810190600081830391015261234e565b90565b15612389575b565b6123916103bd565b62461bcd60e51b8152806123a760048201612368565b0390fd5b612409906123d46123c46123bf6000612295565b6103de565b6123cd836103de565b14156122fc565b6123f06123e0826103de565b6123e9336103de565b1415612381565b6124026123fb6112c8565b9182611abb565b3390611ac7565b565b6124149061225d565b565b9061242760018060a01b03916112a6565b91811990169116901790565b90565b9061244b61244661245292610a4c565b612433565b8254612416565b9055565b612461906007612436565b565b61246b6121cf565b506124766006611b2b565b90565b6124969261249192612489611895565b503392612e14565b611c5d565b600190565b6124b26124b7916124aa61182b565b506010610a58565b61184a565b90565b6124c26121cf565b506124cd6005611b2b565b90565b6124d8611895565b506124eb6124e46112c8565b3390612647565b90565b600090565b8050600052602060002090565b61250981611fde565b821015612526575b61251c6002916124f3565b9102900190600090565b611e61565b60018060801b03901690565b61254361254891611830565b61252b565b90565b6125559054612537565b90565b60801c90565b61256a61256f91612558565b61252b565b90565b61257c905461255e565b90565b61258b61259091611830565b610b77565b90565b61259d905461257f565b90565b919290926125ac6124ee565b8050506125b7611895565b5060129381816125c78688611fae565b906125d191611fc6565b906125db91612500565b50600090016125e99061254b565b9482826125f68784611fae565b9061260091611fc6565b9061260a91612500565b506000900161261890612572565b9461262291611fae565b9061262c91611fc6565b9061263691612500565b506001900161264490612593565b90565b61266f91600061266461266a9361265c611895565b5060046119ae565b01610b5f565b612593565b90565b6126979161268d6126929261268561182b565b50600f611a29565b610a58565b61184a565b90565b6126b16126b6916126a961182b565b50600e610a58565b61184a565b90565b6126d06126d5916126c861182b565b506011610a58565b61184a565b90565b906126e5600019916112a6565b91811990169116901790565b90565b906127096127046127109261140c565b6126f1565b82546126d8565b9055565b61271f9060146126f4565b565b61272961182b565b50612734601461184a565b61275861275261274d612748856015610a58565b61184a565b610431565b91610431565b11600050600014612773575b5061276f601461184a565b5b90565b612781612786916015610a58565b61184a565b612770565b90565b6127a261279d6127a79261278b565b610a21565b610431565b90565b6127e76127ec916127b9611895565b506127d76127d26127cb836013611a29565b3390610a58565b61184a565b6127e1600161278e565b916132b7565b611c5d565b600190565b90612804916127fe611895565b50613c98565b90565b61282c916128226128279261281a61182b565b506013611a29565b610a58565b61184a565b90565b60007f616c726561647920696e697469616c697a656400000000000000000000000000910152565b61286460136020926118af565b61286d8161282f565b0190565b6128879060208101906000818303910152612857565b90565b15612892575b565b61289a6103bd565b62461bcd60e51b8152806128b060048201612871565b0390fd5b91612900612907926128f961290e96956128f26128d16005611b2b565b6128ec6128e66128e16000612295565b6103de565b916103de565b1461288a565b6005612436565b6006612436565b6007612436565b60146126f4565b565b61292761292c9161291f61182b565b50600d610a58565b61184a565b90565b9061294a91612945612940826119ea565b612ab3565b61294c565b565b9061295691612bc6565b50565b906129639161292f565b565b61298191612971611895565b5061297b82612721565b91613905565b90565b906129a56129aa9261299e6129993383614066565b611c5d565b6015610a58565b6126f4565b565b5050506129b7611895565b90565b6129d4906129cf6129ca33611a0c565b611939565b6129d6565b565b6129df9061240b565b565b6129ea906129ba565b565b612a1191612a07612a0c926129ff61182b565b506012611fae565b611fc6565b611fde565b90565b909192612a1f611895565b50612a2a6000611d28565b5b612a3484610431565b612a3d82610431565b1015612a69575b612a62612a3491612a5d612a588887613c98565b611c5d565b611e52565b9050612a2b565b5092505050600190565b612a7b611895565b50612a8c637965db0b60e01b6104c3565b612a95826104c3565b1490819115612aa3575b5090565b612aad9150614109565b38612a9f565b612ac590612abf612bb9565b90614153565b565b90612ad360ff916112a6565b91811990169116901790565b612ae890610517565b90565b90565b90612b03612afe612b0a92612adf565b612aeb565b8254612ac7565b9055565b612b16611895565b50612b2a612b248383612647565b15610517565b600014612bb2575b612b536001612b4e846000612b488660046119ae565b01610b5f565b612aee565b612b76612b70612b6a612b64612bb9565b936119a2565b93610a4c565b91610a4c565b917f2f8788117e7eff1d82e926ec794901d17c78024a50270940304540a733656f0d612ba06103bd565b80612baa81610575565b0390a4600190565b5050600090565b612bc16121cf565b503390565b612bce611895565b50612bd98282612647565b600014612c60575b612c016000612bfc8482612bf68660046119ae565b01610b5f565b612aee565b612c24612c1e612c18612c12612bb9565b936119a2565b93610a4c565b91610a4c565b917ff6391f5c32d9c69d2a47ea670b442974b53935d1edc7fd64eb21e047a839171b612c4e6103bd565b80612c5881610575565b0390a4600190565b5050600090565b5190565b90565b612c82612c7d612c8792612c6b565b610a21565b610431565b90565b602090612c956121cf565b50612cba612ca282612c67565b612cb4612cae85612c6e565b91610431565b14611c5d565b015190565b60007f7a65726f20616d6f756e74206f72207a65726f20616464726573730000000000910152565b612cf4601b6020926118af565b612cfd81612cbf565b0190565b612d179060208101906000818303910152612ce7565b90565b15612d22575b565b612d2a6103bd565b62461bcd60e51b815280612d4060048201612d01565b0390fd5b612d53612d5991939293610431565b92610431565b8201809211612d65575b565b611fe2565b612d7390610a24565b90565b612d7f90612d6a565b90565b612d8b90610a40565b90565b916020612db0929493612da960408201966000830190610606565b0190610434565b565b90505190612dbf82611491565b565b90602082820312612ddc575b6000612dd99201612db2565b90565b6103c8565b604090612e0b612e129496959396612e0160608401986000850190610606565b6020830190610606565b0190610434565b565b8291612f17602094612f9c96612e28611895565b50612e3b612e366000612295565b6103de565b612e44856103de565b14158090612ff2575b612e5690612d1a565b612e97612e7e83612e79612e7488612e6f8b6009611a29565b610a58565b61184a565b612d44565b612e9286612e8d896009611a29565b610a58565b6126f4565b612ec6612eb683612eb1612eac89600a610a58565b61184a565b612d44565b612ec187600a610a58565b6126f4565b612ef5612ee583612ee0612edb88600b610a58565b61184a565b612d44565b612ef086600b610a58565b6126f4565b612f07612f026005611b2b565b612d76565b90612f1130612d82565b916141c7565b612f2082610a4c565b7f8752a472e571a816aea92eec8dae9baf628e840f4929fbcc2d155e6233ff68a7612f496103bd565b80612f55878683612d8e565b0390a26000612f74612f6f612f6a6007611b2b565b6120a0565b6120ac565b92612f7d6103bd565b96879586948593612f9163412c6d506120b8565b855260048501612de1565b03925af18015612fed575b612fb991600091612fbe575b50611c5d565b600190565b612fe0915060203d602011612fe6575b612fd88183610c15565b810190612dc1565b38612fb3565b503d612fce565b612111565b50612e566130006000611d28565b61300984610431565b14159050612e4d565b60007f4465706f7369744d616e616765723a206e6f2072657175657374000000000000910152565b613047601a6020926118af565b61305081613012565b0190565b61306a906020810190600081830391015261303a565b90565b15613075575b565b61307d6103bd565b62461bcd60e51b81528061309360048201613054565b0390fd5b60207f2070656e64696e67207265717565737473000000000000000000000000000000917f4465706f7369744d616e616765723a206e2065786365656473206e756d206f6660008201520152565b6130f260316040926118af565b6130fb81613097565b0190565b61311590602081019060008183039101526130e5565b90565b15613120575b565b6131286103bd565b62461bcd60e51b81528061313e600482016130ff565b0390fd5b90565b61315961315461315e92611179565b610a21565b610431565b90565b60207f616c72656164792070726f636573736564000000000000000000000000000000917f4465706f7369744d616e616765723a2070656e64696e6720726571756573742060008201520152565b6131bc60316040926118af565b6131c581613161565b0190565b6131df90602081019060008183039101526131af565b90565b156131ea575b565b6131f26103bd565b62461bcd60e51b815280613208600482016131c9565b0390fd5b60207f2072657175657374000000000000000000000000000000000000000000000000917f4465706f7369744d616e616765723a206e6f2076616c69642070656e64696e6760008201520152565b61326760286040926118af565b6132708161320c565b0190565b61328a906020810190600081830391015261325a565b90565b15613295575b565b61329d6103bd565b62461bcd60e51b8152806132b360048201613274565b0390fd5b90916132c1611895565b506000506132cd61182b565b916012946132ed6132e86132e18489611fae565b3390611fc6565b611fde565b9261330d6000946133076133016000611d28565b91610431565b1161306d565b61334e6133358761333061332b613324888d611fae565b3390611fc6565b611fde565b611ff8565b61334761334184610431565b91610431565b1015613118565b6133588187612d44565b955b61336387610431565b61336c82610431565b101561341a575b8061337e858a611fae565b3361338891611fc6565b9061339291612500565b5061339c90613142565b958587016133a990612572565b6133b290613145565b600188016133bf90612593565b156133c990610517565b6133d2906131e2565b6133db87611d28565b6133e482610431565b116133ee9061328d565b6133f791612d44565b9560018091019061340791612aee565b61341361336391611e52565b905061335a565b5061359a9196506136209550602094935061346e6134548561344f61344a613443886009611a29565b3390610a58565b61184a565b612d44565b613469613462866009611a29565b3390610a58565b6126f4565b61349d61348d8561348861348387600a610a58565b61184a565b612d44565b61349885600a610a58565b6126f4565b6134cc6134bc856134b76134b233600b610a58565b61184a565b612d44565b6134c733600b610a58565b6126f4565b61350f6134f5856134f06134eb6134e488600c611a29565b3390610a58565b61184a565b611ff8565b61350a61350386600c611a29565b3390610a58565b6126f4565b61353e61352e8561352961352487600d610a58565b61184a565b611ff8565b61353985600d610a58565b6126f4565b61356d61355d8561355861355333600e610a58565b61184a565b611ff8565b61356833600e610a58565b6126f4565b61359461358561357e856013611a29565b3390610a58565b9161358f8361184a565b612d44565b906126f4565b6135a381610a4c565b7f8752a472e571a816aea92eec8dae9baf628e840f4929fbcc2d155e6233ff68a76135cc6103bd565b806135d8863383612d8e565b0390a26135f56135f06135eb6007611b2b565b6120a0565b6120ac565b9060006136006103bd565b80968195829461361363412c6d506120b8565b8452339060048501612de1565b03925af18015613671575b61363d91600091613642575b50611c5d565b600190565b613664915060203d60201161366a575b61365c8183610c15565b810190612dc1565b38613637565b503d613652565b612111565b60207f6265207a65726f00000000000000000000000000000000000000000000000000917f4465706f7369744d616e616765723a20616d6f756e74206d757374206e6f742060008201520152565b6136d160276040926118af565b6136da81613676565b0190565b6136f490602081019060008183039101526136c4565b90565b156136ff575b565b6137076103bd565b62461bcd60e51b81528061371d600482016136de565b0390fd5b90565b61373861373361373d92610431565b610a21565b611179565b90565b61374a6060610c3f565b90565b9061375790611179565b9052565b9061376590610517565b9052565b8050600052602060002090565b5490565b61378381613776565b8210156137a0575b613796600291613769565b9102900190600090565b611e61565b634e487b7160e01b600052600060045260246000fd5b6137c59051611179565b90565b906137d960018060801b03916112a6565b91811990169116901790565b6137f96137f46137fe92611179565b610a21565b611179565b90565b90565b90613819613814613820926137e5565b613801565b82546137c8565b9055565b60801b90565b9061383c60018060801b031991613824565b91811990169116901790565b9061385d613858613864926137e5565b613801565b825461382a565b9055565b6138729051610517565b90565b60016138b460406138bb946138ae6000860161389c613896600085016137bb565b82613804565b6138a8602084016137bb565b90613848565b01613868565b9101612aee565b565b91906138cf575b6138cd91613875565b565b6137a5565b90815491600160401b831015613900575b826138f89160016138fe9501815561377a565b906138bd565b565b610bff565b906020916139a1613ac894613918611895565b506139356139266000611d28565b61392f86610431565b116136f7565b61396461395f61395861395361394c876012611fae565b3390611fc6565b613721565b9243612d44565b613724565b9061398e61397186613724565b61398661397c613740565b946000860161374d565b87840161374d565b61399c60006040840161375b565b6138d4565b6139e46139ca836139c56139c06139b986600c611a29565b3390610a58565b61184a565b612d44565b6139df6139d884600c611a29565b3390610a58565b6126f4565b613a13613a03836139fe6139f985600d610a58565b61184a565b612d44565b613a0e83600d610a58565b6126f4565b613a42613a3283613a2d613a2833600e610a58565b61184a565b612d44565b613a3d33600e610a58565b6126f4565b613a4b81610a4c565b7f04c56a409d50971e45c5a2d96e5d557d2b0f1d66d40f14b141e4c958b0f39b32613a746103bd565b80613a80863383612d8e565b0390a2613a9d613a98613a936007611b2b565b6120a0565b6120ac565b906000613aa86103bd565b809681958294613abb63f850ffaa6120b8565b8452339060048501612de1565b03925af18015613b19575b613ae591600091613aea575b50611c5d565b600190565b613b0c915060203d602011613b12575b613b048183610c15565b810190612dc1565b38613adf565b503d613afa565b612111565b60207f6f63657373000000000000000000000000000000000000000000000000000000917f4465706f7369744d616e616765723a206e6f207265717565737420746f20707260008201520152565b613b7960256040926118af565b613b8281613b1e565b0190565b613b9c9060208101906000818303910152613b6c565b90565b15613ba7575b565b613baf6103bd565b62461bcd60e51b815280613bc560048201613b86565b0390fd5b60207f77616c2064656c61790000000000000000000000000000000000000000000000917f4465706f7369744d616e616765723a207761697420666f72207769746864726160008201520152565b613c2460296040926118af565b613c2d81613bc9565b0190565b613c479060208101906000818303910152613c17565b90565b15613c52575b565b613c5a6103bd565b62461bcd60e51b815280613c7060048201613c31565b0390fd5b613c7d90610a24565b90565b613c8990613c74565b90565b613c9590610a40565b90565b90613ca1611895565b50613d1d613d17613cc5613cc0613cb9866013611a29565b3390610a58565b61184a565b613cfd613ce5613ce0613cd9886012611fae565b3390611fc6565b611fde565b613cf7613cf184610431565b91610431565b11613b9f565b613d12613d0b866012611fae565b3390611fc6565b612500565b50613142565b91613d9e613d9960008501613d4d613d348261254b565b613d46613d4043610431565b91613145565b1115613c4a565b613d5b600180809801612aee565b613d94613d678761278e565b613d8e613d7f613d78886013611a29565b3390610a58565b91613d898361184a565b612d44565b906126f4565b612572565b613145565b91613de2613dc884613dc3613dbe613db787600c611a29565b3390610a58565b61184a565b611ff8565b613ddd613dd685600c611a29565b3390610a58565b6126f4565b613e11613e0184613dfc613df786600d610a58565b61184a565b611ff8565b613e0c84600d610a58565b6126f4565b613e40613e3084613e2b613e2633600e610a58565b61184a565b611ff8565b613e3b33600e610a58565b6126f4565b613e83613e6984613e64613e5f613e5887600f611a29565b3390610a58565b61184a565b612d44565b613e7e613e7785600f611a29565b3390610a58565b6126f4565b613eb2613ea284613e9d613e98866010610a58565b61184a565b612d44565b613ead846010610a58565b6126f4565b613ee1613ed184613ecc613ec7336011610a58565b61184a565b612d44565b613edc336011610a58565b6126f4565b600014613fc9575b613f03613efe613ef96005611b2b565b613c80565b613c8c565b6020613f0d6103bd565b8092613f1c63e3b99e856120b8565b825281600081613f30893360048401612d8e565b03925af18015613fc4575b7fcd1fce47d5ad89dd70b04c75bd6bdb8114d4d4ff7b4393f9fb5937e733ba958292613f76613f7c92613f8f94600091613f95575b50611c5d565b5b610a4c565b92613f856103bd565b9182913383612d8e565b0390a290565b613fb7915060203d602011613fbd575b613faf8183610c15565b810190612dc1565b38613f70565b503d613fa5565b612111565b613f8f613f7c7fcd1fce47d5ad89dd70b04c75bd6bdb8114d4d4ff7b4393f9fb5937e733ba95829261400e856140076140026005611b2b565b612d76565b3390614212565b613f77565b61401c90610a24565b90565b61402890614013565b90565b61403490610a40565b90565b90505190614044826103ea565b565b90602082820312614061575b600061405e9201614037565b90565b6103c8565b61407b61408091614075611895565b5061401f565b61402b565b602061408a6103bd565b809261409963570ca7356120b8565b825281806140a960048201610575565b03915afa908115614104575b6140d1916140cb916000916140d5575b506103de565b916103de565b1490565b6140f7915060203d6020116140fd575b6140ef8183610c15565b810190614046565b386140c5565b503d6140e5565b612111565b614111611895565b5061412b6141256301ffc9a760e01b6104c3565b916104c3565b1490565b91602061415192949361414a60408201966000830190610606565b01906106a9565b565b906141676141618284612647565b15610517565b614170575b5050565b61419161417b6103bd565b92839263e2517d3f60e01b84526004840161412f565b0390fd5b61419e90610a40565b90565b63ffffffff901690565b6141bf6141ba6141c4926141a1565b6120b8565b6104c3565b90565b9061420b906141fc614210956004956141e36323b872dd6141ab565b936141ec6103bd565b9788956020870190815201612de1565b60208201810382520383610c15565b61425b565b565b6142546004926142456142599561422c63a9059cbb6141ab565b926142356103bd565b9687946020860190815201612d8e565b60208201810382520383610c15565b61425b565b565b61426761426e91614195565b91826142f3565b61427781612c67565b61428a6142846000611d28565b91610431565b14159081916142c3575b5061429d575b50565b6142bf906142a96103bd565b918291635274afe760e01b835260048301610613565b0390fd5b6142e891508060206142d76142e293612c67565b818301019101612dc1565b15610517565b38614294565b606090565b614310916142ff6142ee565b5061430a6000611d28565b91614362565b90565b61431c90610a40565b90565b9061433161432c83611be8565b610c3f565b918252565b3d600014614354575b6143483d61431f565b903d6000602084013e5b565b61435c6142ee565b90614352565b9161436b6142ee565b5061437530614313565b803161438961438384610431565b91610431565b106143b4575b50600082819260206143b1969551920190855af16143ab614336565b916143da565b90565b6143d6906143c06103bd565b91829163cd78605960e01b835260048301610613565b0390fd5b906143ee906143e76142ee565b5015610517565b6000146143fc575b5061446b565b61440582612c67565b6144186144126000611d28565b91610431565b14809061444f575b614429575b5090565b61444b906144356103bd565b918291639996b31560e01b835260048301610613565b0390fd5b50803b61446561445f6000611d28565b91610431565b14614420565b61447481612c67565b6144876144816000611d28565b91610431565b11600014614498575b805190602001fd5b6144a06103bd565b630a12f52160e11b8152806144b760048201610575565b0390fdfea2646970667358221220715473698f62852da4e62fca312b619ecb03d59177c323c274afa090d4945c1e64736f6c63430008190033","linkReferences":{}},"methodIdentifiers":{"DEFAULT_ADMIN_ROLE()":"a217fddf","MINTER_ROLE()":"d5391393","accStaked(address,address)":"2d2fab94","accStakedAccount(address)":"0055f5c1","accStakedLayer2(address)":"010ca390","accUnstaked(address,address)":"9d91b87b","accUnstakedAccount(address)":"a3543989","accUnstakedLayer2(address)":"8af4a948","addAdmin(address)":"70480275","aliveImplementation(address)":"550d01a3","deposit(address,address,uint256)":"8340f549","deposit(address,address[],uint256[])":"562fa0df","deposit(address,uint256)":"47e7ef24","getDelayBlocks(address)":"b5f19db2","getRoleAdmin(bytes32)":"248a9ca3","globalWithdrawalDelay()":"6ec3d5ae","grantRole(bytes32,address)":"2f2ff15d","hasRole(bytes32,address)":"91d14854","initialize(address,address,address,uint256)":"cf756fdf","isAdmin(address)":"24d7806c","isOwner()":"8f32d59b","numPendingRequests(address,address)":"5c0df46b","numRequests(address,address)":"f762eb57","oldDepositManager()":"2153c239","onApprove(address,address,uint256,bytes)":"4273ca16","pauseProxy()":"63a8fd89","pendingUnstaked(address,address)":"2638fdf5","pendingUnstakedAccount(address)":"a0b2a913","pendingUnstakedLayer2(address)":"d285f78c","processRequest(address,bool)":"c20a44c6","processRequests(address,uint256,bool)":"fb0713b1","proxyImplementation(uint256)":"b911135f","redeposit(address)":"b8bee628","redepositMulti(address,uint256)":"445e83b9","registry()":"7b103999","removeAdmin(address)":"1785f53c","renounceOwnership()":"715018a6","renounceRole(bytes32,address)":"36568abe","requestWithdrawal(address,uint256)":"da95ebf7","requestWithdrawalAll(address)":"6b2160b7","revokeRole(bytes32,address)":"d547741f","seigManager()":"6fb7f558","selectorImplementation(bytes4)":"50d2a276","setGlobalWithdrawalDelay(uint256)":"a79da341","setSeigManager(address)":"7657f20a","setWithdrawalDelay(address,uint256)":"dc5a709f","slash(address,address,uint256)":"e74f8239","supportsInterface(bytes4)":"01ffc9a7","transferAdmin(address)":"75829def","transferOwnership(address)":"f2fde38b","withdrawalDelay(address)":"4ce97036","withdrawalRequest(address,address,uint256)":"8fbef2d0","withdrawalRequestIndex(address,address)":"c647f26e","wton()":"8d62d949"},"id":64}