{"abi":[{"type":"function","name":"ADMIN_ROLE","inputs":[],"outputs":[{"name":"","type":"bytes32","internalType":"bytes32"}],"stateMutability":"view"},{"type":"function","name":"DEFAULT_ADMIN_ROLE","inputs":[],"outputs":[{"name":"","type":"bytes32","internalType":"bytes32"}],"stateMutability":"view"},{"type":"function","name":"PAUSE_ROLE","inputs":[],"outputs":[{"name":"","type":"bytes32","internalType":"bytes32"}],"stateMutability":"view"},{"type":"function","name":"addAdmin","inputs":[{"name":"account","type":"address","internalType":"address"}],"outputs":[],"stateMutability":"nonpayable"},{"type":"function","name":"addPauser","inputs":[{"name":"account","type":"address","internalType":"address"}],"outputs":[],"stateMutability":"nonpayable"},{"type":"function","name":"getRoleAdmin","inputs":[{"name":"role","type":"bytes32","internalType":"bytes32"}],"outputs":[{"name":"","type":"bytes32","internalType":"bytes32"}],"stateMutability":"view"},{"type":"function","name":"grantRole","inputs":[{"name":"role","type":"bytes32","internalType":"bytes32"},{"name":"account","type":"address","internalType":"address"}],"outputs":[],"stateMutability":"nonpayable"},{"type":"function","name":"hasRole","inputs":[{"name":"role","type":"bytes32","internalType":"bytes32"},{"name":"account","type":"address","internalType":"address"}],"outputs":[{"name":"","type":"bool","internalType":"bool"}],"stateMutability":"view"},{"type":"function","name":"isAdmin","inputs":[{"name":"account","type":"address","internalType":"address"}],"outputs":[{"name":"","type":"bool","internalType":"bool"}],"stateMutability":"view"},{"type":"function","name":"isOwner","inputs":[],"outputs":[{"name":"","type":"bool","internalType":"bool"}],"stateMutability":"view"},{"type":"function","name":"isPauser","inputs":[{"name":"account","type":"address","internalType":"address"}],"outputs":[{"name":"","type":"bool","internalType":"bool"}],"stateMutability":"view"},{"type":"function","name":"removeAdmin","inputs":[],"outputs":[],"stateMutability":"nonpayable"},{"type":"function","name":"removePauser","inputs":[{"name":"account","type":"address","internalType":"address"}],"outputs":[],"stateMutability":"nonpayable"},{"type":"function","name":"renounceRole","inputs":[{"name":"role","type":"bytes32","internalType":"bytes32"},{"name":"callerConfirmation","type":"address","internalType":"address"}],"outputs":[],"stateMutability":"nonpayable"},{"type":"function","name":"revokeRole","inputs":[{"name":"role","type":"bytes32","internalType":"bytes32"},{"name":"account","type":"address","internalType":"address"}],"outputs":[],"stateMutability":"nonpayable"},{"type":"function","name":"supportsInterface","inputs":[{"name":"interfaceId","type":"bytes4","internalType":"bytes4"}],"outputs":[{"name":"","type":"bool","internalType":"bool"}],"stateMutability":"view"},{"type":"function","name":"transferOwnership","inputs":[{"name":"newOwner","type":"address","internalType":"address"}],"outputs":[],"stateMutability":"nonpayable"},{"type":"event","name":"RoleAdminChanged","inputs":[{"name":"role","type":"bytes32","indexed":true,"internalType":"bytes32"},{"name":"previousAdminRole","type":"bytes32","indexed":true,"internalType":"bytes32"},{"name":"newAdminRole","type":"bytes32","indexed":true,"internalType":"bytes32"}],"anonymous":false},{"type":"event","name":"RoleGranted","inputs":[{"name":"role","type":"bytes32","indexed":true,"internalType":"bytes32"},{"name":"account","type":"address","indexed":true,"internalType":"address"},{"name":"sender","type":"address","indexed":true,"internalType":"address"}],"anonymous":false},{"type":"event","name":"RoleRevoked","inputs":[{"name":"role","type":"bytes32","indexed":true,"internalType":"bytes32"},{"name":"account","type":"address","indexed":true,"internalType":"address"},{"name":"sender","type":"address","indexed":true,"internalType":"address"}],"anonymous":false},{"type":"error","name":"AccessControlBadConfirmation","inputs":[]},{"type":"error","name":"AccessControlUnauthorizedAccount","inputs":[{"name":"account","type":"address","internalType":"address"},{"name":"neededRole","type":"bytes32","internalType":"bytes32"}]},{"type":"error","name":"SameAdmin","inputs":[]},{"type":"error","name":"SameOwner","inputs":[]},{"type":"error","name":"ZeroAddress","inputs":[]}],"bytecode":{"object":"0x608060405234601d575b600f6021565b61102d61002d823961102d90f35b6027565b60405190565b600080fdfe60806040526004361015610013575b61070d565b61001e600035610143565b806301ffc9a71461013e575b8063248a9ca314610139575b806324d7806c14610134575b80632f2ff15d1461012f575b806336568abe1461012a575b8063389ed26714610125575b806346fbf68e14610120575b80636b2c0f551461011b575b80637048027514610116575b806375b238fc14610111575b806382dc1ec41461010c575b80638f32d59b14610107575b806391d1485414610102575b80639a202d47146100fd575b8063a217fddf146100f8575b8063d547741f146100f3575b63f2fde38b146100ee575b61000e565b6106d9565b6106a4565b61066e565b6105fd565b6105c6565b610590565b61055c565b610526565b6104c3565b61048f565b610459565b610423565b6103ae565b610379565b61030d565b610278565b6101d5565b60e01c90565b60405190565b600080fd5b600080fd5b63ffffffff60e01b901690565b61016f81610159565b901415610179575b565b600080fd5b9050359061018b82610166565b565b906020828203126101a8575b60006101a5920161017e565b90565b610154565b151590565b6101bb906101ad565b9052565b91906101d3906000602085019401906101b2565b565b34610206575b6102026101f16101ec36600461018d565b610717565b6101f9610149565b918291826101bf565b0390f35b61014f565b90565b6102178161020b565b901415610221575b565b600080fd5b905035906102338261020e565b565b90602082820312610250575b600061024d9201610226565b90565b610154565b61025e9061020b565b9052565b919061027690600060208501940190610255565b565b346102a9575b6102a561029461028f366004610235565b61077f565b61029c610149565b91829182610262565b0390f35b61014f565b60018060a01b03901690565b6102c3906102ae565b90565b6102cf816102ba565b9014156102d9575b565b600080fd5b905035906102eb826102c6565b565b90602082820312610308575b600061030592016102de565b90565b610154565b3461033e575b61033a6103296103243660046102ed565b6107a1565b610331610149565b918291826101bf565b0390f35b61014f565b919060408382031261036d575b80602061036361036a9360008701610226565b94016102de565b90565b610154565b6000900190565b346103a9575b61039361038d366004610343565b906107e8565b61039b610149565b806103a581610372565b0390f35b61014f565b346103de575b6103c86103c2366004610343565b906107f4565b6103d0610149565b806103da81610372565b0390f35b61014f565b60009103126103ef575b565b610154565b7ffcb9fcbfa83b897fb2d5cf4b58962164105c1e71489a37ef3ae0db3fdce576f690565b6104206103f4565b90565b34610454575b6104343660046103e3565b61045061043f610418565b610447610149565b91829182610262565b0390f35b61014f565b3461048a575b6104866104756104703660046102ed565b610844565b61047d610149565b918291826101bf565b0390f35b61014f565b346104be575b6104a86104a33660046102ed565b610969565b6104b0610149565b806104ba81610372565b0390f35b61014f565b346104f2575b6104dc6104d73660046102ed565b610a4d565b6104e4610149565b806104ee81610372565b0390f35b61014f565b7fdf8b4c520ffe197c5343c6f5aec59570151ef9a492f2c624fd45ddde6135ec4290565b6105236104f7565b90565b34610557575b6105373660046103e3565b61055361054261051b565b61054a610149565b91829182610262565b0390f35b61014f565b3461058b575b6105756105703660046102ed565b610a86565b61057d610149565b8061058781610372565b0390f35b61014f565b346105c1575b6105a13660046103e3565b6105bd6105ac610a91565b6105b4610149565b918291826101bf565b0390f35b61014f565b346105f8575b6105f46105e36105dd366004610343565b90610b26565b6105eb610149565b918291826101bf565b0390f35b61014f565b3461062c575b61060e3660046103e3565b610616610c2a565b61061e610149565b8061062881610372565b0390f35b61014f565b90565b60001b90565b61064e61064961065392610631565b610634565b61020b565b90565b610660600061063a565b90565b61066b610656565b90565b3461069f575b61067f3660046103e3565b61069b61068a610663565b610692610149565b91829182610262565b0390f35b61014f565b346106d4575b6106be6106b8366004610343565b90610c5e565b6106c6610149565b806106d081610372565b0390f35b61014f565b34610708575b6106f26106ed3660046102ed565b610d5c565b6106fa610149565b8061070481610372565b0390f35b61014f565b600080fd5b600090565b61072990610723610712565b50610d67565b90565b600090565b61073a9061020b565b90565b9061074790610731565b600052602052604060002090565b60001c90565b90565b61076a61076f91610755565b61075b565b90565b61077c905461075e565b90565b600161079861079e9261079061072c565b50600061073d565b01610772565b90565b6107bb906107ad610712565b506107b66104f7565b610b26565b90565b906107d9916107d46107cf8261077f565b610da7565b6107db565b565b906107e591610e02565b50565b906107f2916107be565b565b90610805610800610eb1565b6102ba565b61080e826102ba565b1415610821575b61081e91610ebe565b50565b610829610149565b63334bd91960e11b81528061084060048201610372565b0390fd5b61085e90610850610712565b506108596103f4565b610b26565b90565b60209181520190565b60207f7365720000000000000000000000000000000000000000000000000000000000917f41757468436f6e74726f6c3a2043616c6c6572206973206e6f7420612070617560008201520152565b6108c56023604092610861565b6108ce8161086a565b0190565b6108e890602081019060008183039101526108b8565b90565b156108f3575b565b6108fb610149565b62461bcd60e51b815280610911600482016108d2565b0390fd5b6109419061092b6109246103f4565b3390610b26565b809015610943575b61093c906108eb565b610956565b565b5061093c61094f610a91565b9050610933565b610967906109626103f4565b6107f4565b565b61097290610915565b565b60207f776e657200000000000000000000000000000000000000000000000000000000917f41757468436f6e74726f6c3a2043616c6c6572206973206e6f7420746865206f60008201520152565b6109cf6024604092610861565b6109d881610974565b0190565b6109f290602081019060008183039101526109c2565b90565b156109fd575b565b610a05610149565b62461bcd60e51b815280610a1b600482016109dc565b0390fd5b610a3890610a33610a2e610a91565b6109f5565b610a3a565b565b610a4b90610a466104f7565b6107e8565b565b610a5690610a1f565b565b610a7190610a6c610a67610a91565b6109f5565b610a73565b565b610a8490610a7f6103f4565b6107e8565b565b610a8f90610a58565b565b610a99610712565b50610aac610aa5610656565b3390610b26565b90565b90565b610ac6610ac1610acb926102ae565b610aaf565b6102ae565b90565b610ad790610ab2565b90565b610ae390610ace565b90565b90610af090610ada565b600052602052604060002090565b60ff901690565b610b11610b1691610755565b610afe565b90565b610b239054610b05565b90565b610b4d916000610b42610b4893610b3b610712565b508261073d565b01610ae6565b610b19565b90565b60207f6d696e0000000000000000000000000000000000000000000000000000000000917f41757468436f6e74726f6c3a2043616c6c6572206973206e6f7420616e20616460008201520152565b610bab6023604092610861565b610bb481610b50565b0190565b610bce9060208101906000818303910152610b9e565b90565b15610bd9575b565b610be1610149565b62461bcd60e51b815280610bf760048201610bb8565b0390fd5b610c0c610c07336107a1565b610bd1565b610c14610c16565b565b610c28610c216104f7565b33906107f4565b565b610c32610bfb565b565b90610c4f91610c4a610c458261077f565b610da7565b610c51565b565b90610c5b91610ebe565b50565b90610c6891610c34565b565b610c8390610c7e610c79610a91565b6109f5565b610cad565b565b610c99610c94610c9e92610631565b610aaf565b6102ae565b90565b610caa90610c85565b90565b610cbf610cba6000610ca1565b6102ba565b610cc8826102ba565b14610d39575b610cd7816102ba565b610ce0336102ba565b14610d16575b610d1490610d0d610cf5610656565b91610d0081846107e8565b610d086104f7565b6107e8565b33906107f4565b565b610d1e610149565b630a98f1f360e21b815280610d3560048201610372565b0390fd5b610d41610149565b63d92e233d60e01b815280610d5860048201610372565b0390fd5b610d6590610c6a565b565b610d6f610712565b50610d80637965db0b60e01b610159565b610d8982610159565b1490819115610d97575b5090565b610da19150610f5e565b38610d93565b610db990610db3610eb1565b90610fb5565b565b90610dc760ff91610634565b91811990169116901790565b610ddc906101ad565b90565b90565b90610df7610df2610dfe92610dd3565b610ddf565b8254610dbb565b9055565b610e0a610712565b50610e1e610e188383610b26565b156101ad565b600014610ea5575b610e466001610e41846000610e3b868261073d565b01610ae6565b610de2565b610e69610e63610e5d610e57610eb1565b93610731565b93610ada565b91610ada565b917f2f8788117e7eff1d82e926ec794901d17c78024a50270940304540a733656f0d610e93610149565b80610e9d81610372565b0390a4600190565b5050600090565b600090565b610eb9610eac565b503390565b610ec6610712565b50610ed18282610b26565b600014610f57575b610ef86000610ef38482610eed868261073d565b01610ae6565b610de2565b610f1b610f15610f0f610f09610eb1565b93610731565b93610ada565b91610ada565b917ff6391f5c32d9c69d2a47ea670b442974b53935d1edc7fd64eb21e047a839171b610f45610149565b80610f4f81610372565b0390a4600190565b5050600090565b610f66610712565b50610f80610f7a6301ffc9a760e01b610159565b91610159565b1490565b610f8d906102ba565b9052565b916020610fb3929493610fac60408201966000830190610f84565b0190610255565b565b90610fc9610fc38284610b26565b156101ad565b610fd2575b5050565b610ff3610fdd610149565b92839263e2517d3f60e01b845260048401610f91565b0390fdfea26469706673582212206733b844992487f6510688e260d50ae6571b57e81ed02416634accc92da89ea264736f6c63430008190033","linkReferences":{}},"methodIdentifiers":{"ADMIN_ROLE()":"75b238fc","DEFAULT_ADMIN_ROLE()":"a217fddf","PAUSE_ROLE()":"389ed267","addAdmin(address)":"70480275","addPauser(address)":"82dc1ec4","getRoleAdmin(bytes32)":"248a9ca3","grantRole(bytes32,address)":"2f2ff15d","hasRole(bytes32,address)":"91d14854","isAdmin(address)":"24d7806c","isOwner()":"8f32d59b","isPauser(address)":"46fbf68e","removeAdmin()":"9a202d47","removePauser(address)":"6b2c0f55","renounceRole(bytes32,address)":"36568abe","revokeRole(bytes32,address)":"d547741f","supportsInterface(bytes4)":"01ffc9a7","transferOwnership(address)":"f2fde38b"},"id":133}