{
  "_format": "hh-sol-artifact-1",
  "contractName": "RandomPackThanos",
  "sourceName": "src/L2/RandomPackThanos.sol",
  "abi": [
    {
      "inputs": [],
      "name": "AccessControlBadConfirmation",
      "type": "error"
    },
    {
      "inputs": [
        {
          "internalType": "address",
          "name": "account",
          "type": "address"
        },
        {
          "internalType": "bytes32",
          "name": "neededRole",
          "type": "bytes32"
        }
      ],
      "name": "AccessControlUnauthorizedAccount",
      "type": "error"
    },
    {
      "inputs": [],
      "name": "AlreadyInitialized",
      "type": "error"
    },
    {
      "inputs": [],
      "name": "FailedToPayFees",
      "type": "error"
    },
    {
      "inputs": [],
      "name": "FailedToSendEthBack",
      "type": "error"
    },
    {
      "inputs": [],
      "name": "FailedToSendFeesToTreasury",
      "type": "error"
    },
    {
      "inputs": [],
      "name": "InvalidAddress",
      "type": "error"
    },
    {
      "inputs": [
        {
          "internalType": "address",
          "name": "have",
          "type": "address"
        },
        {
          "internalType": "address",
          "name": "want",
          "type": "address"
        }
      ],
      "name": "OnlyCoordinatorCanFulfill",
      "type": "error"
    },
    {
      "inputs": [],
      "name": "RandomPackFeesEqualToZero",
      "type": "error"
    },
    {
      "inputs": [],
      "name": "ReentrancyGuardReentrantCall",
      "type": "error"
    },
    {
      "inputs": [],
      "name": "RequestNotMade",
      "type": "error"
    },
    {
      "inputs": [],
      "name": "SameAdmin",
      "type": "error"
    },
    {
      "inputs": [],
      "name": "SameOwner",
      "type": "error"
    },
    {
      "inputs": [],
      "name": "ZeroAddress",
      "type": "error"
    },
    {
      "inputs": [],
      "name": "invalidProbabilities",
      "type": "error"
    },
    {
      "anonymous": false,
      "inputs": [
        {
          "indexed": false,
          "internalType": "uint256",
          "name": "_callbackGasLimit",
          "type": "uint256"
        }
      ],
      "name": "CallBackGasLimitUpdated",
      "type": "event"
    },
    {
      "anonymous": false,
      "inputs": [],
      "name": "CommonGemMinted",
      "type": "event"
    },
    {
      "anonymous": false,
      "inputs": [],
      "name": "CommonGemToBeMinted",
      "type": "event"
    },
    {
      "anonymous": false,
      "inputs": [
        {
          "indexed": false,
          "internalType": "uint256",
          "name": "amount",
          "type": "uint256"
        }
      ],
      "name": "EthSentBack",
      "type": "event"
    },
    {
      "anonymous": false,
      "inputs": [
        {
          "indexed": false,
          "internalType": "address",
          "name": "gemFactory",
          "type": "address"
        }
      ],
      "name": "GemFactoryAddressUpdated",
      "type": "event"
    },
    {
      "anonymous": false,
      "inputs": [
        {
          "indexed": false,
          "internalType": "string",
          "name": "_tokenURI",
          "type": "string"
        }
      ],
      "name": "PerfectCommonGemURIUpdated",
      "type": "event"
    },
    {
      "anonymous": false,
      "inputs": [
        {
          "indexed": false,
          "internalType": "address",
          "name": "requestor",
          "type": "address"
        },
        {
          "indexed": false,
          "internalType": "uint256",
          "name": "requestId",
          "type": "uint256"
        }
      ],
      "name": "RandomGemRequested",
      "type": "event"
    },
    {
      "anonymous": false,
      "inputs": [
        {
          "indexed": false,
          "internalType": "uint256",
          "name": "tokenId",
          "type": "uint256"
        },
        {
          "indexed": false,
          "internalType": "address",
          "name": "newOwner",
          "type": "address"
        }
      ],
      "name": "RandomGemToBeTransferred",
      "type": "event"
    },
    {
      "anonymous": false,
      "inputs": [
        {
          "indexed": false,
          "internalType": "uint256",
          "name": "tokenId",
          "type": "uint256"
        },
        {
          "indexed": false,
          "internalType": "address",
          "name": "newOwner",
          "type": "address"
        }
      ],
      "name": "RandomGemTransferred",
      "type": "event"
    },
    {
      "anonymous": false,
      "inputs": [
        {
          "indexed": false,
          "internalType": "uint256",
          "name": "randomPackFees",
          "type": "uint256"
        }
      ],
      "name": "RandomPackFeesUpdated",
      "type": "event"
    },
    {
      "anonymous": false,
      "inputs": [
        {
          "indexed": true,
          "internalType": "bytes32",
          "name": "role",
          "type": "bytes32"
        },
        {
          "indexed": true,
          "internalType": "bytes32",
          "name": "previousAdminRole",
          "type": "bytes32"
        },
        {
          "indexed": true,
          "internalType": "bytes32",
          "name": "newAdminRole",
          "type": "bytes32"
        }
      ],
      "name": "RoleAdminChanged",
      "type": "event"
    },
    {
      "anonymous": false,
      "inputs": [
        {
          "indexed": true,
          "internalType": "bytes32",
          "name": "role",
          "type": "bytes32"
        },
        {
          "indexed": true,
          "internalType": "address",
          "name": "account",
          "type": "address"
        },
        {
          "indexed": true,
          "internalType": "address",
          "name": "sender",
          "type": "address"
        }
      ],
      "name": "RoleGranted",
      "type": "event"
    },
    {
      "anonymous": false,
      "inputs": [
        {
          "indexed": true,
          "internalType": "bytes32",
          "name": "role",
          "type": "bytes32"
        },
        {
          "indexed": true,
          "internalType": "address",
          "name": "account",
          "type": "address"
        },
        {
          "indexed": true,
          "internalType": "address",
          "name": "sender",
          "type": "address"
        }
      ],
      "name": "RoleRevoked",
      "type": "event"
    },
    {
      "anonymous": false,
      "inputs": [
        {
          "indexed": false,
          "internalType": "address",
          "name": "treasury",
          "type": "address"
        }
      ],
      "name": "TreasuryAddressUpdated",
      "type": "event"
    },
    {
      "inputs": [],
      "name": "ADMIN_ROLE",
      "outputs": [
        {
          "internalType": "bytes32",
          "name": "",
          "type": "bytes32"
        }
      ],
      "stateMutability": "view",
      "type": "function"
    },
    {
      "inputs": [],
      "name": "DEFAULT_ADMIN_ROLE",
      "outputs": [
        {
          "internalType": "bytes32",
          "name": "",
          "type": "bytes32"
        }
      ],
      "stateMutability": "view",
      "type": "function"
    },
    {
      "inputs": [],
      "name": "DIVIDER",
      "outputs": [
        {
          "internalType": "uint8",
          "name": "",
          "type": "uint8"
        }
      ],
      "stateMutability": "view",
      "type": "function"
    },
    {
      "inputs": [],
      "name": "PAUSE_ROLE",
      "outputs": [
        {
          "internalType": "bytes32",
          "name": "",
          "type": "bytes32"
        }
      ],
      "stateMutability": "view",
      "type": "function"
    },
    {
      "inputs": [
        {
          "internalType": "address",
          "name": "account",
          "type": "address"
        }
      ],
      "name": "addAdmin",
      "outputs": [],
      "stateMutability": "nonpayable",
      "type": "function"
    },
    {
      "inputs": [
        {
          "internalType": "address",
          "name": "account",
          "type": "address"
        }
      ],
      "name": "addPauser",
      "outputs": [],
      "stateMutability": "nonpayable",
      "type": "function"
    },
    {
      "inputs": [
        {
          "internalType": "address",
          "name": "",
          "type": "address"
        }
      ],
      "name": "aliveImplementation",
      "outputs": [
        {
          "internalType": "bool",
          "name": "",
          "type": "bool"
        }
      ],
      "stateMutability": "view",
      "type": "function"
    },
    {
      "inputs": [],
      "name": "getCallbackGasLimit",
      "outputs": [
        {
          "internalType": "uint32",
          "name": "",
          "type": "uint32"
        }
      ],
      "stateMutability": "view",
      "type": "function"
    },
    {
      "inputs": [],
      "name": "getGemFactoryAddress",
      "outputs": [
        {
          "internalType": "address",
          "name": "",
          "type": "address"
        }
      ],
      "stateMutability": "view",
      "type": "function"
    },
    {
      "inputs": [],
      "name": "getPaused",
      "outputs": [
        {
          "internalType": "bool",
          "name": "",
          "type": "bool"
        }
      ],
      "stateMutability": "view",
      "type": "function"
    },
    {
      "inputs": [],
      "name": "getPerfectCommonGemURI",
      "outputs": [
        {
          "internalType": "string",
          "name": "",
          "type": "string"
        }
      ],
      "stateMutability": "view",
      "type": "function"
    },
    {
      "inputs": [],
      "name": "getRandomPackFees",
      "outputs": [
        {
          "internalType": "uint256",
          "name": "",
          "type": "uint256"
        }
      ],
      "stateMutability": "view",
      "type": "function"
    },
    {
      "inputs": [],
      "name": "getRequestCount",
      "outputs": [
        {
          "internalType": "uint256",
          "name": "",
          "type": "uint256"
        }
      ],
      "stateMutability": "view",
      "type": "function"
    },
    {
      "inputs": [
        {
          "internalType": "bytes32",
          "name": "role",
          "type": "bytes32"
        }
      ],
      "name": "getRoleAdmin",
      "outputs": [
        {
          "internalType": "bytes32",
          "name": "",
          "type": "bytes32"
        }
      ],
      "stateMutability": "view",
      "type": "function"
    },
    {
      "inputs": [],
      "name": "getTreasuryAddress",
      "outputs": [
        {
          "internalType": "address",
          "name": "",
          "type": "address"
        }
      ],
      "stateMutability": "view",
      "type": "function"
    },
    {
      "inputs": [
        {
          "internalType": "bytes32",
          "name": "role",
          "type": "bytes32"
        },
        {
          "internalType": "address",
          "name": "account",
          "type": "address"
        }
      ],
      "name": "grantRole",
      "outputs": [],
      "stateMutability": "nonpayable",
      "type": "function"
    },
    {
      "inputs": [
        {
          "internalType": "bytes32",
          "name": "role",
          "type": "bytes32"
        },
        {
          "internalType": "address",
          "name": "account",
          "type": "address"
        }
      ],
      "name": "hasRole",
      "outputs": [
        {
          "internalType": "bool",
          "name": "",
          "type": "bool"
        }
      ],
      "stateMutability": "view",
      "type": "function"
    },
    {
      "inputs": [
        {
          "internalType": "address",
          "name": "_coordinator",
          "type": "address"
        },
        {
          "internalType": "address",
          "name": "_gemFactory",
          "type": "address"
        },
        {
          "internalType": "address",
          "name": "_treasury",
          "type": "address"
        },
        {
          "internalType": "uint256",
          "name": "_randomPackFees",
          "type": "uint256"
        }
      ],
      "name": "initialize",
      "outputs": [],
      "stateMutability": "nonpayable",
      "type": "function"
    },
    {
      "inputs": [
        {
          "internalType": "address",
          "name": "account",
          "type": "address"
        }
      ],
      "name": "isAdmin",
      "outputs": [
        {
          "internalType": "bool",
          "name": "",
          "type": "bool"
        }
      ],
      "stateMutability": "view",
      "type": "function"
    },
    {
      "inputs": [],
      "name": "isOwner",
      "outputs": [
        {
          "internalType": "bool",
          "name": "",
          "type": "bool"
        }
      ],
      "stateMutability": "view",
      "type": "function"
    },
    {
      "inputs": [
        {
          "internalType": "address",
          "name": "account",
          "type": "address"
        }
      ],
      "name": "isPauser",
      "outputs": [
        {
          "internalType": "bool",
          "name": "",
          "type": "bool"
        }
      ],
      "stateMutability": "view",
      "type": "function"
    },
    {
      "inputs": [
        {
          "internalType": "address",
          "name": "",
          "type": "address"
        },
        {
          "internalType": "address",
          "name": "",
          "type": "address"
        },
        {
          "internalType": "uint256",
          "name": "",
          "type": "uint256"
        },
        {
          "internalType": "bytes",
          "name": "",
          "type": "bytes"
        }
      ],
      "name": "onERC721Received",
      "outputs": [
        {
          "internalType": "bytes4",
          "name": "",
          "type": "bytes4"
        }
      ],
      "stateMutability": "pure",
      "type": "function"
    },
    {
      "inputs": [],
      "name": "pause",
      "outputs": [],
      "stateMutability": "nonpayable",
      "type": "function"
    },
    {
      "inputs": [],
      "name": "pauseProxy",
      "outputs": [
        {
          "internalType": "bool",
          "name": "",
          "type": "bool"
        }
      ],
      "stateMutability": "view",
      "type": "function"
    },
    {
      "inputs": [
        {
          "internalType": "uint256",
          "name": "",
          "type": "uint256"
        }
      ],
      "name": "proxyImplementation",
      "outputs": [
        {
          "internalType": "address",
          "name": "",
          "type": "address"
        }
      ],
      "stateMutability": "view",
      "type": "function"
    },
    {
      "inputs": [
        {
          "internalType": "uint256",
          "name": "requestId",
          "type": "uint256"
        },
        {
          "internalType": "uint256",
          "name": "randomWord",
          "type": "uint256"
        }
      ],
      "name": "rawFulfillRandomWords",
      "outputs": [],
      "stateMutability": "nonpayable",
      "type": "function"
    },
    {
      "inputs": [],
      "name": "removeAdmin",
      "outputs": [],
      "stateMutability": "nonpayable",
      "type": "function"
    },
    {
      "inputs": [
        {
          "internalType": "address",
          "name": "account",
          "type": "address"
        }
      ],
      "name": "removePauser",
      "outputs": [],
      "stateMutability": "nonpayable",
      "type": "function"
    },
    {
      "inputs": [
        {
          "internalType": "bytes32",
          "name": "role",
          "type": "bytes32"
        },
        {
          "internalType": "address",
          "name": "callerConfirmation",
          "type": "address"
        }
      ],
      "name": "renounceRole",
      "outputs": [],
      "stateMutability": "nonpayable",
      "type": "function"
    },
    {
      "inputs": [],
      "name": "requestRandomGem",
      "outputs": [
        {
          "internalType": "uint256",
          "name": "",
          "type": "uint256"
        }
      ],
      "stateMutability": "payable",
      "type": "function"
    },
    {
      "inputs": [
        {
          "internalType": "bytes32",
          "name": "role",
          "type": "bytes32"
        },
        {
          "internalType": "address",
          "name": "account",
          "type": "address"
        }
      ],
      "name": "revokeRole",
      "outputs": [],
      "stateMutability": "nonpayable",
      "type": "function"
    },
    {
      "inputs": [
        {
          "internalType": "uint256",
          "name": "",
          "type": "uint256"
        }
      ],
      "name": "s_requests",
      "outputs": [
        {
          "internalType": "uint256",
          "name": "randomWord",
          "type": "uint256"
        },
        {
          "internalType": "uint256",
          "name": "chosenTokenId",
          "type": "uint256"
        },
        {
          "internalType": "address",
          "name": "requester",
          "type": "address"
        },
        {
          "internalType": "bool",
          "name": "requested",
          "type": "bool"
        },
        {
          "internalType": "bool",
          "name": "fulfilled",
          "type": "bool"
        }
      ],
      "stateMutability": "view",
      "type": "function"
    },
    {
      "inputs": [
        {
          "internalType": "bytes4",
          "name": "",
          "type": "bytes4"
        }
      ],
      "name": "selectorImplementation",
      "outputs": [
        {
          "internalType": "address",
          "name": "",
          "type": "address"
        }
      ],
      "stateMutability": "view",
      "type": "function"
    },
    {
      "inputs": [
        {
          "internalType": "uint32",
          "name": "_callbackGasLimit",
          "type": "uint32"
        }
      ],
      "name": "setCallbackGasLimit",
      "outputs": [],
      "stateMutability": "nonpayable",
      "type": "function"
    },
    {
      "inputs": [
        {
          "internalType": "address",
          "name": "_gemFactory",
          "type": "address"
        }
      ],
      "name": "setGemFactory",
      "outputs": [],
      "stateMutability": "nonpayable",
      "type": "function"
    },
    {
      "inputs": [
        {
          "internalType": "string",
          "name": "_tokenURI",
          "type": "string"
        }
      ],
      "name": "setPerfectCommonGemURI",
      "outputs": [],
      "stateMutability": "nonpayable",
      "type": "function"
    },
    {
      "inputs": [
        {
          "internalType": "uint8",
          "name": "_commonProb",
          "type": "uint8"
        },
        {
          "internalType": "uint8",
          "name": "_rareProb",
          "type": "uint8"
        },
        {
          "internalType": "uint8",
          "name": "_uniqueProb",
          "type": "uint8"
        },
        {
          "internalType": "uint8",
          "name": "_epicProb",
          "type": "uint8"
        },
        {
          "internalType": "uint8",
          "name": "_legendaryProb",
          "type": "uint8"
        },
        {
          "internalType": "uint8",
          "name": "_mythicProb",
          "type": "uint8"
        }
      ],
      "name": "setProbabilities",
      "outputs": [],
      "stateMutability": "nonpayable",
      "type": "function"
    },
    {
      "inputs": [
        {
          "internalType": "uint256",
          "name": "_randomPackFees",
          "type": "uint256"
        }
      ],
      "name": "setRandomPackFees",
      "outputs": [],
      "stateMutability": "nonpayable",
      "type": "function"
    },
    {
      "inputs": [
        {
          "internalType": "address",
          "name": "_treasury",
          "type": "address"
        }
      ],
      "name": "setTreasury",
      "outputs": [],
      "stateMutability": "nonpayable",
      "type": "function"
    },
    {
      "inputs": [
        {
          "internalType": "bytes4",
          "name": "interfaceId",
          "type": "bytes4"
        }
      ],
      "name": "supportsInterface",
      "outputs": [
        {
          "internalType": "bool",
          "name": "",
          "type": "bool"
        }
      ],
      "stateMutability": "view",
      "type": "function"
    },
    {
      "inputs": [
        {
          "internalType": "address",
          "name": "newOwner",
          "type": "address"
        }
      ],
      "name": "transferOwnership",
      "outputs": [],
      "stateMutability": "nonpayable",
      "type": "function"
    },
    {
      "inputs": [],
      "name": "unpause",
      "outputs": [],
      "stateMutability": "nonpayable",
      "type": "function"
    },
    {
      "stateMutability": "payable",
      "type": "receive"
    }
  ],
  "bytecode": "0x60808060405234602657600160045562ffffff19600e5416600e556123a3908161002c8239f35b600080fdfe608060408181526004918236101561004f575b50361561001e57600080fd5b600080808060018060a01b036009541634905af161003a6116ec565b501561004257005b516305c7acc960e01b8152fd5b600090813560e01c90816301ffc9a7146114b657508063150b7a021461144d57806315c0161614611399578063184fa84f1461137a578063248a9ca31461134f57806324d7806c146112fb57806325b5b3b2146112935780632f2ff15d1461126957806336568abe1461122357806337ed11db146111ce578063389ed267146111a55780633be7bcbf1461100f5780633db8df9814610d625780633f4ba83a14610cf25780633fad183414610cd357806346fbf68e14610c7f57806350d2a27614610c3b578063550d01a314610bfd57806362043bd814610be157806363a8fd8914610bbf5780636805b84b14610b9b5780636b2c0f5514610ac95780636ecd19cb146108e8578063704802751461089957806375b238fc1461087057806382dc1ec41461081c5780638456cb59146107e05780638f32d59b146107ba57806391d14854146107735780639a202d47146106dc5780639d541be2146106b3578063a168fa8914610653578063a217fddf14610638578063a4eb718c146105bb578063b911135f14610588578063cf756fdf14610473578063d547741f14610437578063de8be8e71461040f578063e0024604146103e2578063e61475181461036b578063f0f44260146102e65763f2fde38b03610012579190346102e25760203660031901126102e25761024161150a565b9161025261024d61175b565b61162b565b6001600160a01b03831680156102d35733146102c55750906102b260016102b793858052600560205261028982828820015461177e565b610292846118db565b5060008051602061230e833981519152865260056020528520015461177e565b6117c2565b506102c133611ac1565b5080f35b9051630a98f1f360e21b8152fd5b50905163d92e233d60e01b8152fd5b8280fd5b509190346102e25760203660031901126102e25761030261150a565b61030d61024d61175b565b6001600160a01b031691821561035d5750600980546001600160a01b03191683179055519081527fb6a5e89655cf506139085f051af608195ed056f8dc550b180a1c38d401e2b6c490602090a180f35b905163e6c4247b60e01b8152fd5b509190346102e25760203660031901126102e25761038761150a565b61039261024d61175b565b6001600160a01b031691821561035d5750600880546001600160a01b03191683179055519081527fed7acc23c47775012c7b3a370974b91aefab1849cacf173b5ea54273abb4815690602090a180f35b50903461040b578160031936011261040b5760095490516001600160a01b039091168152602090f35b5080fd5b50903461040b578160031936011261040b5760209063ffffffff600e5460181c169051908152f35b509190346102e257806003193601126102e2576102c1913561046e600161045c611525565b9383875260056020528620015461177e565b611b28565b509190346102e25760803660031901126102e25761048f61150a565b90610498611525565b6001600160a01b03604435818116959193908690036105845760ff600e5460081c166105785750506104c9336118db565b508160018060a01b03199316836006541617600655168160085416176008556009541617600955606435600c5565200b2000000066ffffffff00000019600e541617600e55610519600d546115f1565b601f811161053a575b506000600d5561010061ff0019600e541617600e5580f35b600d825261057290601f0160051c7fd7b6990105719101dabeb77144f2a3385c8033acd3af97e9423a695e81ad1eb590810190611744565b38610522565b5162dc149f60e41b8152fd5b8680fd5b5091346102e25760203660031901126102e25735825260016020908152918190205490516001600160a01b039091168152f35b5091346102e25760203660031901126102e2573563ffffffff8116808203610634577fe26fa4acf522c01381834acc8213105df00a52674031c6311f5dc24bd608819f9260209261060d61024d61175b565b66ffffffff000000600e549160181b169066ffffffff000000191617600e5551908152a180f35b8380fd5b50903461040b578160031936011261040b5751908152602090f35b5091346102e25760203660031901126102e2578160a09360ff92358152600760205220805492600260018301549201549181519485526020850152600180861b038216908401528181851c161515606084015260a81c1615156080820152f35b50903461040b578160031936011261040b5760085490516001600160a01b039091168152602090f35b509190346102e257826003193601126102e25760008051602061230e8339815191528352600560205280832033845260205260ff81842054161561072457826102c133611a39565b906020608492519162461bcd60e51b8352820152602360248201527f41757468436f6e74726f6c3a2043616c6c6572206973206e6f7420616e20616460448201526236b4b760e91b6064820152fd5b5091346102e257816003193601126102e2578160209360ff92610794611525565b90358252600586528282206001600160a01b039091168252855220549151911615158152f35b50903461040b578160031936011261040b576020906107d761175b565b90519015158152f35b50346108195780600319360112610819576107fc61024d61175b565b6001600e5461080e60ff8216156116ad565b60ff191617600e5580f35b80fd5b50903461040b57602036600319011261040b576102c19061086b600161084061150a565b9261084c61024d61175b565b6000805160206122ee833981519152865260056020528520015461177e565b611851565b50903461040b578160031936011261040b576020905160008051602061230e8339815191528152f35b50903461040b57602036600319011261040b576102c1906102b260016108bd61150a565b926108c961024d61175b565b60008051602061230e833981519152865260056020528520015461177e565b50823461040b57602090816003193601126102e2578035916001600160401b0391828411610ac55736602385011215610ac55783810135610928816115d6565b94610935885196876115b5565b8186523660248383010111610584578187926024869301838901378601015261095f61024d61175b565b8351928311610ab25750610974600d546115f1565b601f8111610a78575b5080601f83116001146109ec575093816109db939285967f5c9db415e672f6d0f9a26180f0ff083c406f4c7aa95aec2c0e9536794035a4d896916109e1575b508160011b916000199060031b1c191617600d555b519182918261153b565b0390a180f35b9050830151876109bc565b90601f198316600d86528286209286905b828210610a60575050927f5c9db415e672f6d0f9a26180f0ff083c406f4c7aa95aec2c0e9536794035a4d8959692600192826109db979610610a47575b5050811b01600d556109d1565b85015160001960f88460031b161c191690558780610a3a565b80600185968294968a015181550195019301906109fd565b610aa290600d8652828620601f850160051c810191848610610aa8575b601f0160051c0190611744565b8561097d565b9091508190610a95565b634e487b7160e01b855260419052602484fd5b8480fd5b5091346102e25760203660031901126102e257610ae461150a565b916000805160206122ee8339815191528452600560205280842033855260205260ff81852054168015610b8d575b15610b3e57336001600160a01b03841603610b3157836102c1846119b1565b5163334bd91960e11b8152fd5b906020608492519162461bcd60e51b8352820152602360248201527f41757468436f6e74726f6c3a2043616c6c6572206973206e6f7420612070617560448201526239b2b960e91b6064820152fd5b50610b9661175b565b610b12565b50903461040b578160031936011261040b5760209060ff600e541690519015158152f35b50903461040b578160031936011261040b5760ff602092541690519015158152f35b50903461040b578160031936011261040b576020905160648152f35b50903461040b57602036600319011261040b5760209160ff9082906001600160a01b03610c2861150a565b1681526002855220541690519015158152f35b5091346102e25760203660031901126102e2573563ffffffff60e01b81168091036102e257825260036020908152918190205490516001600160a01b039091168152f35b50903461040b57602036600319011261040b5760ff81602093610ca061150a565b6000805160206122ee8339815191528252600586528282206001600160a01b039091168252855220549151911615158152f35b50903461040b578160031936011261040b57602090600b549051908152f35b5091346102e257826003193601126102e257610d0f61024d61175b565b600e549160ff831615610d2857505060ff1916600e5580f35b906020606492519162461bcd60e51b8352820152601460248201527314185d5cd8589b194e881b9bdd081c185d5cd95960621b6044820152fd5b5091826003193601126102e257600e54610d7f60ff8216156116ad565b6002825414611000576002825560101c60ff1615610ff257331561035d5782808080600c54305af1610daf6116ec565b5015610fe457600e54600654835194610e0b94939290916001600160a01b03169060181c63ffffffff16610de287611584565b8287526020878482809a0152828782015286518098819263a6c278f360e01b8352888301611d99565b0381855afa958615610fda57908792918497610fa7575b50869291610e5c91875190610e3682611584565b86825286858301528882015287519889809481936309160b1560e11b83528a8301611d99565b03925af1948515610f9d578295610f6e575b508482526007865283822060020180546001600160a81b0319163317600160a01b179055600b80546001019055600c5490808201808211610f5b573411610eef575b5050506001907fc2b05df6babf2be3ce649000124d86f0e7de5e71f99b8edb50dfb2f20a7569ae835180610ee5873383611729565b0390a15551908152f35b90610efd610f02923461171c565b61171c565b9080808084335af1610f126116ec565b5015610f4c57907f27468d49151596d3863ccb02e3911b3146a62533facd0765451ba556bb4fd9c8856001938551908152a1903880610eb0565b509051631e53f7e560e11b8152fd5b634e487b7160e01b845260118552602484fd5b9094508581813d8311610f96575b610f8681836115b5565b8101031261040b57519338610e6e565b503d610f7c565b84513d84823e3d90fd5b9196509181813d8111610fd3575b610fbf81836115b5565b810103126102e25751948691610e5c610e22565b503d610fb5565b85513d85823e3d90fd5b90516315c6fba760e01b8152fd5b9051630d6a7ef360e41b8152fd5b509051633ee5aeb560e01b8152fd5b509190346102e25760c03660031901126102e25781359060ff808316938484036111a1576024358281169283820361119d5760443593818516918286036111995760643593818516948581036111955760843590838216988983036111915760a435938585169c8d860361118d578e61108961024d61175b565b1580611185575b8061117d575b80611175575b8061116d575b80611165575b6111555760649695936110c96110c9946110c96110ce98956110c995611683565b611683565b160361114557888052600f60205285892060ff19988982541617905560018952858920908882541617905560028852848820908782541617905560038752838720908682541617905585528185209084825416179055600584528320918254161790556201000062ff000019600e541617600e5580f35b8551630d6a7ef360e41b81528490fd5b8c51630d6a7ef360e41b81528b90fd5b508d156110a8565b508b156110a2565b50891561109c565b508815611096565b508715611090565b8f80fd5b8d80fd5b8b80fd5b8980fd5b8780fd5b8580fd5b50903461040b578160031936011261040b57602090516000805160206122ee8339815191528152f35b509190346102e257806003193601126102e2576006546001600160a01b0316903382900361120757836112046024358535611bc5565b80f35b60449350519163073e64fd60e21b835233908301526024820152fd5b50903461040b578060031936011261040b5761123d611525565b90336001600160a01b0383160361125a57506102c1919235611b28565b5163334bd91960e11b81528390fd5b509190346102e257806003193601126102e2576102c1913561128e600161045c611525565b611948565b509190346102e25760203660031901126102e2578135916112b561024d61175b565b82156112ed5750816020917fa9ba7fa833bd01c7d078c99360f9c0764c1de898c3300802f43fd0ec1dee717c93600c5551908152a180f35b905163173ecfb760e31b8152fd5b50903461040b57602036600319011261040b5760ff8160209361131c61150a565b60008051602061230e8339815191528252600586528282206001600160a01b039091168252855220549151911615158152f35b5091346102e25760203660031901126102e25781602093600192358152600585522001549051908152f35b50903461040b578160031936011261040b57602090600c549051908152f35b50903461040b578160031936011261040b5780519082600d546113bb816115f1565b9081855260209260019160018116908160001461142b57506001146113f0575b6113ec86866109d1828b03836115b5565b0390f35b929550600d83528583205b82841061141857505050826113ec946109d19282010194866113db565b80548685018801529286019281016113fb565b60ff191687860152505050151560051b83010192506109d1826113ec866113db565b5091346102e25760803660031901126102e25761146861150a565b50611471611525565b50606435906001600160401b0390818311610ac55736602384011215610ac557820135908111610634573691016024011161040b5751630a85bd0160e11b8152602090f35b905083346102e25760203660031901126102e2573563ffffffff60e01b81168091036102e25760209250637965db0b60e01b81149081156114f9575b5015158152f35b6301ffc9a760e01b149050836114f2565b600435906001600160a01b038216820361152057565b600080fd5b602435906001600160a01b038216820361152057565b6020808252825181830181905290939260005b82811061157057505060409293506000838284010152601f8019910116010190565b81810186015184820160400152850161154e565b606081019081106001600160401b0382111761159f57604052565b634e487b7160e01b600052604160045260246000fd5b90601f801991011681019081106001600160401b0382111761159f57604052565b6001600160401b03811161159f57601f01601f191660200190565b90600182811c92168015611621575b602083101461160b57565b634e487b7160e01b600052602260045260246000fd5b91607f1691611600565b1561163257565b60405162461bcd60e51b8152602060048201526024808201527f41757468436f6e74726f6c3a2043616c6c6572206973206e6f7420746865206f6044820152633bb732b960e11b6064820152608490fd5b9060ff8091169116019060ff821161169757565b634e487b7160e01b600052601160045260246000fd5b156116b457565b60405162461bcd60e51b815260206004820152601060248201526f14185d5cd8589b194e881c185d5cd95960821b6044820152606490fd5b3d15611717573d906116fd826115d6565b9161170b60405193846115b5565b82523d6000602084013e565b606090565b9190820391821161169757565b6001600160a01b039091168152602081019190915260400190565b81811061174f575050565b60008155600101611744565b33600090815260008051602061234e833981519152602052604090205460ff1690565b80600052600560205260406000203360005260205260ff60406000205416156117a45750565b6044906040519063e2517d3f60e01b82523360048301526024820152fd5b6001600160a01b031660008181527f09f04f5809d5be59813a33617d16f069caae874a6b34f03139f63d934daddae6602052604081205490919060008051602061230e8339815191529060ff1661184c5780835260056020526040832082845260205260408320600160ff198254161790556000805160206122ce833981519152339380a4600190565b505090565b6001600160a01b031660008181527f787f97f3270d439d97068e73d6d75a066b24f84c342661f177d4e43e00e9f51360205260408120549091906000805160206122ee8339815191529060ff1661184c5780835260056020526040832082845260205260408320600160ff198254161790556000805160206122ce833981519152339380a4600190565b6001600160a01b0316600081815260008051602061234e833981519152602052604081205490919060ff166119445781805260056020526040822081835260205260408220600160ff1982541617905533916000805160206122ce8339815191528180a4600190565b5090565b906000918083526005602052604083209160018060a01b03169182845260205260ff6040842054161560001461184c5780835260056020526040832082845260205260408320600160ff198254161790556000805160206122ce833981519152339380a4600190565b6001600160a01b031660008181527f787f97f3270d439d97068e73d6d75a066b24f84c342661f177d4e43e00e9f51360205260408120549091906000805160206122ee8339815191529060ff161561184c578083526005602052604083208284526020526040832060ff19815416905560008051602061232e833981519152339380a4600190565b6001600160a01b031660008181527f09f04f5809d5be59813a33617d16f069caae874a6b34f03139f63d934daddae6602052604081205490919060008051602061230e8339815191529060ff161561184c578083526005602052604083208284526020526040832060ff19815416905560008051602061232e833981519152339380a4600190565b6001600160a01b0316600081815260008051602061234e833981519152602052604081205490919060ff1615611944578180526005602052604082208183526020526040822060ff198154169055339160008051602061232e8339815191528180a4600190565b906000918083526005602052604083209160018060a01b03169182845260205260ff60408420541660001461184c578083526005602052604083208284526020526040832060ff19815416905560008051602061232e833981519152339380a4600190565b90816020910312611520575180151581036115205790565b8115611baf570690565b634e487b7160e01b600052601260045260246000fd5b91906000918383526020916007835260408085209360ff9687600287015460a01c1615611d885786526007815281862060028101805460ff60a81b1916600160a81b1790558390556008548251639aa19da760e01b81526004969183908290899082906001600160a01b03165afa908115611d7e578891611d51575b5015611d4057606484959406936005905b898216928315611d1a576000198401938411978a97888a5b611ca5578d908d828c16898111611cb8578b828592611c92959452600f8d5220541690611683565b99168d8114611ca557600101988a611c6a565b634e487b7160e01b8d5260118c5260248dfd5b5050919a5093949295508391985016881015611cf6575b168015611ce3579495946000190190611c52565b634e487b7160e01b895260118852602489fd5b9050611d038682856121c0565b611d0e578990611ccf565b50975050505050505050565b985098505050505050611d2e915082611fca565b611d3d57611d3b90611dc5565b565b50565b94505050509250611d3b9150611dc5565b611d719150833d8511611d77575b611d6981836115b5565b810190611b8d565b38611c41565b503d611d5f565b84513d8a823e3d90fd5b82516392b8197960e01b8152600490fd5b919091604063ffffffff81606084019561ffff8082511686526020820151166020860152015116910152565b600954604080519093926001600160a01b0392831691906001600160401b03908287018281118482101761159f5787526000948584526020948686860152885193608085019085821090821117611fb65793869195948a52876001968783528784840152878c8401528760608401528b5196879363912b431b60e01b8552600491846004870152602486018b86915b60028310611f8f575050505060648501908a85925b848410611f6f57505050505061012491839161010060e4840152816101048401525af1928315611f655790859392918793611f30575b5082611ecf95830155600281600954169201541686895180968195829463048dbcef60e41b845260048401611729565b03925af1948515611f2757507fdd20b2dff2d53ef41435ad0074aea6e1ce693777fcc9ea8e76c76a8f3607dd219394611f09575b505080a1565b81611f1f92903d10611d7757611d6981836115b5565b503880611f03565b513d84823e3d90fd5b848193959294503d8311611f5e575b611f4981836115b5565b810103126111a1575184929091611ecf611e9f565b503d611f3f565b88513d88823e3d90fd5b825160ff1681528d988c98508f97509390910192918201918c9101611e69565b90939650889295989194975060ff86511681520193019101928894918c948b8d9895611e54565b634e487b7160e01b88526041600452602488fd5b91906000928380526020600f815260409260ff8487205416611fed575b50505050565b60085484516394ca644960e01b8152600481018890526001600160a01b03929188908290602490829087165afa9182156120ee578891899361210c575b508161203857505050611fe7565b9061204291611ba5565b81518110156120f85790839160051b01015161208a83600186019280845560028560095416970196858854168b8a5180968195829463048dbcef60e41b845260048401611729565b03925af180156120ee577f5ea50d72ed96185eb6f31884978fae6836ea30ba583e3fb7c32b66135514723c9798506120d1575b5054925416908351928352820152a1600190565b6120e790843d8611611d7757611d6981836115b5565b50386120bd565b86513d8a823e3d90fd5b634e487b7160e01b88526032600452602488fd5b915091503d8089833e61211f81836115b5565b810186828203126121bc57815190858301516001600160401b0393848211611195570181601f820112156121b85780519384116121a4578360051b9089519461216a898401876115b5565b855287808601928201019283116111955787809101915b838310612194575050505090913861202a565b8251815291810191889101612181565b634e487b7160e01b8b52604160045260248bfd5b8a80fd5b8880fd5b92919060ff1692600093808552602090600f825260409360ff85882054166121ea575b5050505050565b60085485516394ca644960e01b815260048101939093526001600160a01b03929088908290602490829087165afa9182156120ee5788918993612235575b50816120385750506121e3565b915091503d8089833e61224881836115b5565b810186828203126121bc57815190858301516001600160401b0393848211611195570181601f820112156121b85780519384116121a4578360051b90895194612293898401876115b5565b855287808601928201019283116111955787809101915b8383106122bd5750505050909138612228565b82518152918101918891016122aa56fe2f8788117e7eff1d82e926ec794901d17c78024a50270940304540a733656f0dfcb9fcbfa83b897fb2d5cf4b58962164105c1e71489a37ef3ae0db3fdce576f6df8b4c520ffe197c5343c6f5aec59570151ef9a492f2c624fd45ddde6135ec42f6391f5c32d9c69d2a47ea670b442974b53935d1edc7fd64eb21e047a839171b05b8ccbb9d4d8fb16ea74ce3c29a41f1b461fbdaff4714a0d9a8eb05499746bca2646970667358221220d579bc533296bfdd97ce772d9b86ee09b6ec5392164be65024390a450b8e8c4164736f6c63430008190033",
  "linkReferences": {},
  "deployedLinkReferences": {}
}