{"abi":[{"type":"function","name":"DRBInitialize","inputs":[{"name":"_coordinator","type":"address","internalType":"address"}],"outputs":[],"stateMutability":"nonpayable"},{"type":"function","name":"GEMIndexToOwner","inputs":[{"name":"","type":"uint256","internalType":"uint256"}],"outputs":[{"name":"","type":"address","internalType":"address"}],"stateMutability":"view"},{"type":"function","name":"Gems","inputs":[{"name":"","type":"uint256","internalType":"uint256"}],"outputs":[{"name":"tokenId","type":"uint256","internalType":"uint256"},{"name":"value","type":"uint256","internalType":"uint256"},{"name":"gemCooldownDueDate","type":"uint256","internalType":"uint256"},{"name":"randomRequestId","type":"uint256","internalType":"uint256"},{"name":"rarity","type":"uint8","internalType":"enum GemFactoryStorage.Rarity"},{"name":"miningTry","type":"uint8","internalType":"uint8"},{"name":"isLocked","type":"bool","internalType":"bool"},{"name":"tokenURI","type":"string","internalType":"string"}],"stateMutability":"view"},{"type":"function","name":"aliveImplementation","inputs":[{"name":"","type":"address","internalType":"address"}],"outputs":[{"name":"","type":"bool","internalType":"bool"}],"stateMutability":"view"},{"type":"function","name":"approve","inputs":[{"name":"to","type":"address","internalType":"address"},{"name":"tokenId","type":"uint256","internalType":"uint256"}],"outputs":[],"stateMutability":"nonpayable"},{"type":"function","name":"balanceOf","inputs":[{"name":"owner","type":"address","internalType":"address"}],"outputs":[{"name":"","type":"uint256","internalType":"uint256"}],"stateMutability":"view"},{"type":"function","name":"callbackGasLimit","inputs":[],"outputs":[{"name":"","type":"uint32","internalType":"uint32"}],"stateMutability":"view"},{"type":"function","name":"cancelMining","inputs":[{"name":"_tokenId","type":"uint256","internalType":"uint256"}],"outputs":[{"name":"","type":"bool","internalType":"bool"}],"stateMutability":"nonpayable"},{"type":"function","name":"colorName","inputs":[{"name":"","type":"uint8","internalType":"uint8"},{"name":"","type":"uint8","internalType":"uint8"}],"outputs":[{"name":"","type":"string","internalType":"string"}],"stateMutability":"view"},{"type":"function","name":"colors","inputs":[{"name":"","type":"uint256","internalType":"uint256"},{"name":"","type":"uint256","internalType":"uint256"}],"outputs":[{"name":"","type":"uint8","internalType":"uint8"}],"stateMutability":"view"},{"type":"function","name":"colorsCount","inputs":[],"outputs":[{"name":"","type":"uint8","internalType":"uint8"}],"stateMutability":"view"},{"type":"function","name":"getApproved","inputs":[{"name":"tokenId","type":"uint256","internalType":"uint256"}],"outputs":[{"name":"","type":"address","internalType":"address"}],"stateMutability":"view"},{"type":"function","name":"isApprovedForAll","inputs":[{"name":"owner","type":"address","internalType":"address"},{"name":"operator","type":"address","internalType":"address"}],"outputs":[{"name":"","type":"bool","internalType":"bool"}],"stateMutability":"view"},{"type":"function","name":"name","inputs":[],"outputs":[{"name":"","type":"string","internalType":"string"}],"stateMutability":"view"},{"type":"function","name":"numberMiningGemsByRarity","inputs":[{"name":"","type":"uint8","internalType":"enum GemFactoryStorage.Rarity"}],"outputs":[{"name":"","type":"uint256","internalType":"uint256"}],"stateMutability":"view"},{"type":"function","name":"ownerOf","inputs":[{"name":"tokenId","type":"uint256","internalType":"uint256"}],"outputs":[{"name":"","type":"address","internalType":"address"}],"stateMutability":"view"},{"type":"function","name":"ownershipTokenCount","inputs":[{"name":"","type":"address","internalType":"address"}],"outputs":[{"name":"","type":"uint256","internalType":"uint256"}],"stateMutability":"view"},{"type":"function","name":"pauseProxy","inputs":[],"outputs":[{"name":"","type":"bool","internalType":"bool"}],"stateMutability":"view"},{"type":"function","name":"paused","inputs":[],"outputs":[{"name":"","type":"bool","internalType":"bool"}],"stateMutability":"view"},{"type":"function","name":"pickMinedGEM","inputs":[{"name":"_tokenId","type":"uint256","internalType":"uint256"}],"outputs":[{"name":"","type":"uint256","internalType":"uint256"}],"stateMutability":"payable"},{"type":"function","name":"proxyImplementation","inputs":[{"name":"","type":"uint256","internalType":"uint256"}],"outputs":[{"name":"","type":"address","internalType":"address"}],"stateMutability":"view"},{"type":"function","name":"rawFulfillRandomWords","inputs":[{"name":"requestId","type":"uint256","internalType":"uint256"},{"name":"randomWord","type":"uint256","internalType":"uint256"}],"outputs":[],"stateMutability":"nonpayable"},{"type":"function","name":"s_requests","inputs":[{"name":"","type":"uint256","internalType":"uint256"}],"outputs":[{"name":"tokenId","type":"uint256","internalType":"uint256"},{"name":"randomWord","type":"uint256","internalType":"uint256"},{"name":"chosenTokenId","type":"uint256","internalType":"uint256"},{"name":"requester","type":"address","internalType":"address"},{"name":"requested","type":"bool","internalType":"bool"},{"name":"fulfilled","type":"bool","internalType":"bool"}],"stateMutability":"view"},{"type":"function","name":"safeTransferFrom","inputs":[{"name":"from","type":"address","internalType":"address"},{"name":"to","type":"address","internalType":"address"},{"name":"tokenId","type":"uint256","internalType":"uint256"}],"outputs":[],"stateMutability":"nonpayable"},{"type":"function","name":"safeTransferFrom","inputs":[{"name":"from","type":"address","internalType":"address"},{"name":"to","type":"address","internalType":"address"},{"name":"tokenId","type":"uint256","internalType":"uint256"},{"name":"data","type":"bytes","internalType":"bytes"}],"outputs":[],"stateMutability":"nonpayable"},{"type":"function","name":"selectorImplementation","inputs":[{"name":"","type":"bytes4","internalType":"bytes4"}],"outputs":[{"name":"","type":"address","internalType":"address"}],"stateMutability":"view"},{"type":"function","name":"setApprovalForAll","inputs":[{"name":"operator","type":"address","internalType":"address"},{"name":"approved","type":"bool","internalType":"bool"}],"outputs":[],"stateMutability":"nonpayable"},{"type":"function","name":"startMiningGEM","inputs":[{"name":"_tokenId","type":"uint256","internalType":"uint256"}],"outputs":[{"name":"","type":"bool","internalType":"bool"}],"stateMutability":"nonpayable"},{"type":"function","name":"supportsInterface","inputs":[{"name":"interfaceId","type":"bytes4","internalType":"bytes4"}],"outputs":[{"name":"","type":"bool","internalType":"bool"}],"stateMutability":"view"},{"type":"function","name":"symbol","inputs":[],"outputs":[{"name":"","type":"string","internalType":"string"}],"stateMutability":"view"},{"type":"function","name":"tokenMiningByUser","inputs":[{"name":"","type":"address","internalType":"address"}],"outputs":[{"name":"","type":"uint256","internalType":"uint256"}],"stateMutability":"view"},{"type":"function","name":"tokenReadyToMine","inputs":[{"name":"","type":"uint256","internalType":"uint256"}],"outputs":[{"name":"","type":"bool","internalType":"bool"}],"stateMutability":"view"},{"type":"function","name":"tokenURI","inputs":[{"name":"tokenId","type":"uint256","internalType":"uint256"}],"outputs":[{"name":"","type":"string","internalType":"string"}],"stateMutability":"view"},{"type":"function","name":"transferFrom","inputs":[{"name":"from","type":"address","internalType":"address"},{"name":"to","type":"address","internalType":"address"},{"name":"tokenId","type":"uint256","internalType":"uint256"}],"outputs":[],"stateMutability":"nonpayable"},{"type":"function","name":"userMiningStartTime","inputs":[{"name":"","type":"address","internalType":"address"},{"name":"","type":"uint256","internalType":"uint256"}],"outputs":[{"name":"","type":"uint256","internalType":"uint256"}],"stateMutability":"view"},{"type":"function","name":"userMiningToken","inputs":[{"name":"","type":"address","internalType":"address"},{"name":"","type":"uint256","internalType":"uint256"}],"outputs":[{"name":"","type":"bool","internalType":"bool"}],"stateMutability":"view"},{"type":"event","name":"Approval","inputs":[{"name":"owner","type":"address","indexed":true,"internalType":"address"},{"name":"approved","type":"address","indexed":true,"internalType":"address"},{"name":"tokenId","type":"uint256","indexed":true,"internalType":"uint256"}],"anonymous":false},{"type":"event","name":"ApprovalForAll","inputs":[{"name":"owner","type":"address","indexed":true,"internalType":"address"},{"name":"operator","type":"address","indexed":true,"internalType":"address"},{"name":"approved","type":"bool","indexed":false,"internalType":"bool"}],"anonymous":false},{"type":"event","name":"BackgroundColorAdded","inputs":[{"name":"id","type":"uint8","indexed":true,"internalType":"uint8"},{"name":"backgroundColor","type":"string","indexed":false,"internalType":"string"}],"anonymous":false},{"type":"event","name":"BatchMetadataUpdate","inputs":[{"name":"_fromTokenId","type":"uint256","indexed":false,"internalType":"uint256"},{"name":"_toTokenId","type":"uint256","indexed":false,"internalType":"uint256"}],"anonymous":false},{"type":"event","name":"CallBackGasLimitUpdated","inputs":[{"name":"newCallbackGasLimit","type":"uint32","indexed":false,"internalType":"uint32"}],"anonymous":false},{"type":"event","name":"ColorAdded","inputs":[{"name":"id","type":"uint8","indexed":true,"internalType":"uint8"},{"name":"color","type":"string","indexed":false,"internalType":"string"}],"anonymous":false},{"type":"event","name":"ColorValidated","inputs":[{"name":"color_0","type":"uint8","indexed":false,"internalType":"uint8"},{"name":"color_1","type":"uint8","indexed":false,"internalType":"uint8"}],"anonymous":false},{"type":"event","name":"CountGemsByQuadrant","inputs":[{"name":"gemCount","type":"uint256","indexed":false,"internalType":"uint256"},{"name":"tokenIds","type":"uint256[]","indexed":false,"internalType":"uint256[]"}],"anonymous":false},{"type":"event","name":"Created","inputs":[{"name":"tokenId","type":"uint256","indexed":true,"internalType":"uint256"},{"name":"rarity","type":"uint8","indexed":false,"internalType":"enum GemFactoryStorage.Rarity"},{"name":"color","type":"uint8[2]","indexed":false,"internalType":"uint8[2]"},{"name":"miningTry","type":"uint8","indexed":false,"internalType":"uint8"},{"name":"value","type":"uint256","indexed":false,"internalType":"uint256"},{"name":"quadrants","type":"uint8[4]","indexed":false,"internalType":"uint8[4]"},{"name":"cooldownDueDate","type":"uint256","indexed":false,"internalType":"uint256"},{"name":"tokenURI","type":"string","indexed":false,"internalType":"string"},{"name":"owner","type":"address","indexed":false,"internalType":"address"}],"anonymous":false},{"type":"event","name":"DRBCoordiantorInitialized","inputs":[{"name":"coordinator","type":"address","indexed":false,"internalType":"address"}],"anonymous":false},{"type":"event","name":"EthSentBack","inputs":[{"name":"amount","type":"uint256","indexed":false,"internalType":"uint256"}],"anonymous":false},{"type":"event","name":"GemForged","inputs":[{"name":"gemOwner","type":"address","indexed":false,"internalType":"address"},{"name":"gemsTokenIds","type":"uint256[]","indexed":false,"internalType":"uint256[]"},{"name":"newGemCreatedId","type":"uint256","indexed":false,"internalType":"uint256"},{"name":"newRarity","type":"uint8","indexed":false,"internalType":"enum GemFactoryStorage.Rarity"},{"name":"forgedQuadrants","type":"uint8[4]","indexed":false,"internalType":"uint8[4]"},{"name":"color","type":"uint8[2]","indexed":false,"internalType":"uint8[2]"},{"name":"newValue","type":"uint256","indexed":false,"internalType":"uint256"}],"anonymous":false},{"type":"event","name":"GemMelted","inputs":[{"name":"_tokenId","type":"uint256","indexed":false,"internalType":"uint256"},{"name":"_from","type":"address","indexed":false,"internalType":"address"}],"anonymous":false},{"type":"event","name":"GemMiningClaimed","inputs":[{"name":"tokenId","type":"uint256","indexed":false,"internalType":"uint256"},{"name":"chosenTokenId","type":"uint256","indexed":false,"internalType":"uint256"},{"name":"minedGemCooldownDueDate","type":"uint256","indexed":false,"internalType":"uint256"},{"name":"initialGemCooldownDueDate","type":"uint256","indexed":false,"internalType":"uint256"},{"name":"miner","type":"address","indexed":false,"internalType":"address"}],"anonymous":false},{"type":"event","name":"GemMiningStarted","inputs":[{"name":"tokenId","type":"uint256","indexed":false,"internalType":"uint256"},{"name":"miner","type":"address","indexed":false,"internalType":"address"},{"name":"startMiningTime","type":"uint256","indexed":false,"internalType":"uint256"},{"name":"newminingTry","type":"uint256","indexed":false,"internalType":"uint256"}],"anonymous":false},{"type":"event","name":"GemsCoolDownPeriodModified","inputs":[{"name":"RareGemsCooldownPeriod","type":"uint32","indexed":false,"internalType":"uint32"},{"name":"UniqueGemsCooldownPeriod","type":"uint32","indexed":false,"internalType":"uint32"},{"name":"EpicGemsCooldownPeriod","type":"uint32","indexed":false,"internalType":"uint32"},{"name":"LegendaryGemsCooldownPeriod","type":"uint32","indexed":false,"internalType":"uint32"},{"name":"MythicGemsCooldownPeriod","type":"uint32","indexed":false,"internalType":"uint32"}],"anonymous":false},{"type":"event","name":"GemsMiningPeriodModified","inputs":[{"name":"RareGemsMiningPeriod","type":"uint32","indexed":false,"internalType":"uint32"},{"name":"UniqueGemsMiningPeriod","type":"uint32","indexed":false,"internalType":"uint32"},{"name":"EpicGemsMiningPeriod","type":"uint32","indexed":false,"internalType":"uint32"},{"name":"LegendaryGemsMiningPeriod","type":"uint32","indexed":false,"internalType":"uint32"},{"name":"MythicGemsMiningPeriod","type":"uint32","indexed":false,"internalType":"uint32"}],"anonymous":false},{"type":"event","name":"GemsMiningTryModified","inputs":[{"name":"RareGemsMiningTry","type":"uint8","indexed":false,"internalType":"uint8"},{"name":"UniqueGemsMiningTry","type":"uint8","indexed":false,"internalType":"uint8"},{"name":"EpicGemsMiningTry","type":"uint8","indexed":false,"internalType":"uint8"},{"name":"LegendaryGemsMiningTry","type":"uint8","indexed":false,"internalType":"uint8"},{"name":"MythicGemsMiningTry","type":"uint8","indexed":false,"internalType":"uint8"}],"anonymous":false},{"type":"event","name":"GemsValueModified","inputs":[{"name":"CommonGemsValue","type":"uint256","indexed":false,"internalType":"uint256"},{"name":"RareGemsValue","type":"uint256","indexed":false,"internalType":"uint256"},{"name":"UniqueGemsValue","type":"uint256","indexed":false,"internalType":"uint256"},{"name":"EpicGemsValue","type":"uint256","indexed":false,"internalType":"uint256"},{"name":"LegendaryValue","type":"uint256","indexed":false,"internalType":"uint256"},{"name":"MythicValue","type":"uint256","indexed":false,"internalType":"uint256"}],"anonymous":false},{"type":"event","name":"Initialized","inputs":[{"name":"version","type":"uint64","indexed":false,"internalType":"uint64"}],"anonymous":false},{"type":"event","name":"MetadataUpdate","inputs":[{"name":"_tokenId","type":"uint256","indexed":false,"internalType":"uint256"}],"anonymous":false},{"type":"event","name":"MiningCancelled","inputs":[{"name":"_tokenId","type":"uint256","indexed":false,"internalType":"uint256"},{"name":"owner","type":"address","indexed":false,"internalType":"address"},{"name":"timestamp","type":"uint256","indexed":false,"internalType":"uint256"}],"anonymous":false},{"type":"event","name":"NoGemAvailable","inputs":[{"name":"tokenId","type":"uint256","indexed":false,"internalType":"uint256"},{"name":"initialGemCooldownDueDate","type":"uint256","indexed":false,"internalType":"uint256"},{"name":"miner","type":"address","indexed":false,"internalType":"address"}],"anonymous":false},{"type":"event","name":"Paused","inputs":[{"name":"account","type":"address","indexed":false,"internalType":"address"}],"anonymous":false},{"type":"event","name":"RandomGemRequested","inputs":[{"name":"tokenId","type":"uint256","indexed":false,"internalType":"uint256"},{"name":"requestNumber","type":"uint256","indexed":false,"internalType":"uint256"}],"anonymous":false},{"type":"event","name":"Transfer","inputs":[{"name":"from","type":"address","indexed":true,"internalType":"address"},{"name":"to","type":"address","indexed":true,"internalType":"address"},{"name":"tokenId","type":"uint256","indexed":true,"internalType":"uint256"}],"anonymous":false},{"type":"event","name":"TransferGEM","inputs":[{"name":"from","type":"address","indexed":false,"internalType":"address"},{"name":"to","type":"address","indexed":false,"internalType":"address"},{"name":"tokenId","type":"uint256","indexed":false,"internalType":"uint256"},{"name":"gemCooldownDueDate","type":"uint256","indexed":false,"internalType":"uint256"}],"anonymous":false},{"type":"event","name":"Unpaused","inputs":[{"name":"account","type":"address","indexed":false,"internalType":"address"}],"anonymous":false},{"type":"error","name":"AddressZero","inputs":[]},{"type":"error","name":"ColorNotExist","inputs":[]},{"type":"error","name":"ContractNotPaused","inputs":[]},{"type":"error","name":"ContractPaused","inputs":[]},{"type":"error","name":"CooldownPeriodNotElapsed","inputs":[]},{"type":"error","name":"DRBAlreadyInitialized","inputs":[]},{"type":"error","name":"ERC721IncorrectOwner","inputs":[{"name":"sender","type":"address","internalType":"address"},{"name":"tokenId","type":"uint256","internalType":"uint256"},{"name":"owner","type":"address","internalType":"address"}]},{"type":"error","name":"ERC721InsufficientApproval","inputs":[{"name":"operator","type":"address","internalType":"address"},{"name":"tokenId","type":"uint256","internalType":"uint256"}]},{"type":"error","name":"ERC721InvalidApprover","inputs":[{"name":"approver","type":"address","internalType":"address"}]},{"type":"error","name":"ERC721InvalidOperator","inputs":[{"name":"operator","type":"address","internalType":"address"}]},{"type":"error","name":"ERC721InvalidOwner","inputs":[{"name":"owner","type":"address","internalType":"address"}]},{"type":"error","name":"ERC721InvalidReceiver","inputs":[{"name":"receiver","type":"address","internalType":"address"}]},{"type":"error","name":"ERC721InvalidSender","inputs":[{"name":"sender","type":"address","internalType":"address"}]},{"type":"error","name":"ERC721NonexistentToken","inputs":[{"name":"tokenId","type":"uint256","internalType":"uint256"}]},{"type":"error","name":"FailedToSendEthBack","inputs":[]},{"type":"error","name":"GemAlreadyPicked","inputs":[]},{"type":"error","name":"GemIsLocked","inputs":[]},{"type":"error","name":"GemIsNotLocked","inputs":[]},{"type":"error","name":"InvalidInitialization","inputs":[]},{"type":"error","name":"InvalidQuadrant","inputs":[{"name":"quadrant","type":"uint8","internalType":"uint8"},{"name":"value","type":"uint8","internalType":"uint8"}]},{"type":"error","name":"InvalidSumOfQuadrants","inputs":[]},{"type":"error","name":"MiningPeriodNotElapsed","inputs":[]},{"type":"error","name":"MismatchedArrayLengths","inputs":[]},{"type":"error","name":"NewGemInvalidQuadrant","inputs":[{"name":"quadrantIndex","type":"uint8","internalType":"uint8"},{"name":"expectedValue1","type":"uint8","internalType":"uint8"},{"name":"expectedValue2","type":"uint8","internalType":"uint8"}]},{"type":"error","name":"NoMiningTryLeft","inputs":[]},{"type":"error","name":"NotGemOwner","inputs":[]},{"type":"error","name":"NotInitializing","inputs":[]},{"type":"error","name":"NotMining","inputs":[]},{"type":"error","name":"OnlyCoordinatorCanFulfill","inputs":[{"name":"have","type":"address","internalType":"address"},{"name":"want","type":"address","internalType":"address"}]},{"type":"error","name":"ReentrancyGuardReentrantCall","inputs":[]},{"type":"error","name":"RequestNotMade","inputs":[]},{"type":"error","name":"SameSenderAndRecipient","inputs":[]},{"type":"error","name":"SumOfQuadrantsTooHigh","inputs":[{"name":"sum","type":"uint8","internalType":"uint8"},{"name":"rarity","type":"string","internalType":"string"}]},{"type":"error","name":"TransferFailed","inputs":[]},{"type":"error","name":"URIQueryForNonexistentToken","inputs":[{"name":"tokenId","type":"uint256","internalType":"uint256"}]},{"type":"error","name":"UnauthorizedCaller","inputs":[{"name":"caller","type":"address","internalType":"address"}]},{"type":"error","name":"WrongRarity","inputs":[]}],"bytecode":{"object":"0x608060405234601f57600e6053565b6040516135356100a7823961353590f35b600080fd5b9060ff60a01b9060a01b5b9181191691161790565b90565b9060496039604f92151590565b82546024565b9055565b60596065565b606360006020603c565b565b60636098565b6039603960399290565b60396001606b565b9060001990602f565b9060926039604f92606b565b8254607d565b606360a06075565b601f608656fe6080604052600436101561001257600080fd5b60003560e01c806301ffc9a71461025257806306fdde031461024d578063081812fc14610248578063095ea7b3146102435780631da0fc9c1461023e57806323b872dd1461023957806324f7469714610234578063274f24551461022f578063356edf741461022a57806337ed11db1461022557806342842e0e1461022057806350d2a2761461021b578063550d01a3146102165780635c975abb146102115780635f2d00231461020c57806361f7f6d7146102075780636352211e1461020257806363a8fd89146101fd578063676f79f1146101f857806370a08231146101f35780637807adc8146101ee5780637866369b146101e957806395d89b41146101e457806397125c40146101df578063a168fa89146101da578063a1770a7d146101d5578063a22cb465146101d0578063ad6caa47146101cb578063b88d4fde146101c6578063b911135f146101c1578063c1389072146101bc578063c87b56dd146101b7578063cec21acb146101b2578063e985e9c5146101ad578063ea094c39146101a85763f317d7dd036102575761101d565b610f8e565b610f2d565b610eef565b610ec4565b610ea9565b610e7e565b610e52565b610d62565b610d49565b610cf5565b610cad565b610bae565b610b83565b610b68565b610b40565b610b25565b610b09565b610aa3565b610a7d565b610a46565b61088c565b6106a9565b610682565b61060e565b61059c565b610583565b610538565b6104eb565b6104b9565b610477565b610433565b610415565b6103b5565b610342565b610299565b600080fd5b6001600160e01b031981165b0361025757565b9050359061027c8261025c565b565b90602082820312610257576102929161026f565b90565b9052565b34610257576102c76102b46102af36600461027e565b611059565b6040515b91829182901515815260200190565b0390f35b600091031261025757565b60005b8381106102e95750506000910152565b81810151838201526020016102d9565b61031a61032360209361032d9361030e815190565b80835293849260200190565b958691016102d6565b601f01601f191690565b0190565b6020808252610292929101906102f9565b34610257576103523660046102cb565b6102c761035d61108e565b60405191829182610331565b80610268565b9050359061027c82610369565b90602082820312610257576102929161036f565b6001600160a01b031690565b61029590610390565b60208101929161027c919061039c565b34610257576102c76103d06103cb36600461037c565b6110a1565b604051918291826103a5565b61026881610390565b9050359061027c826103dc565b91906040838203126102575761029290602061040e82866103e5565b940161036f565b346102575761042e6104283660046103f2565b906110b4565b604051005b34610257576102c76102b461044936600461037c565b611381565b90916060828403126102575761029261046784846103e5565b93604061040e82602087016103e5565b346102575761042e61048a36600461044e565b916113ba565b610292916008021c5b63ffffffff1690565b906102929154610490565b610292601060116104a2565b34610257576104c93660046102cb565b6102c76104d46104ad565b6040519182918263ffffffff909116815260200190565b6102c76105016104fc36600461037c565b6118f1565b6040515b9182918290815260200190565b610292916008021c5b60ff1690565b906102929154610512565b61029260006006610521565b34610257576105483660046102cb565b6102c761055361052c565b6040519182918260ff909116815260200190565b91906040838203126102575761029290602061040e828661036f565b346102575761042e610596366004610567565b90611917565b346102575761042e6105af36600461044e565b91611980565b6001600160e01b03191690565b906105cc906105b5565b600052602052604060002090565b610292916008021c6001600160a01b031690565b9061029291546105da565b60006106096102929260036105c2565b6105ee565b34610257576102c76103d061062436600461027e565b6105f9565b9060208282031261025757610292916103e5565b61029290610390906001600160a01b031682565b6102929061063d565b61029290610651565b906105cc9061065a565b600061067d610292926002610663565b610521565b34610257576102c76102b4610698366004610629565b61066d565b61029260006010610521565b34610257576106b93660046102cb565b6102c76102b461069d565b60ff8116610268565b9050359061027c826106c4565b9190604083820312610257576102929060206106f682866106cd565b94016106cd565b61051b6102926102929260ff1690565b906105cc906106fd565b634e487b7160e01b600052600060045260246000fd5b634e487b7160e01b600052602260045260246000fd5b9060016002830492168015610763575b602083101461075e57565b61072d565b91607f1691610753565b8054600093929161078a61078083610743565b8085529360200190565b91600181169081156107dc57506001146107a357505050565b6107b69192939450600052602060002090565b916000925b8184106107c85750500190565b8054848401526020909301926001016107bb565b92949550505060ff1916825215156020020190565b906102929161076d565b634e487b7160e01b600052604160045260246000fd5b90601f01601f191681019081106001600160401b0382111761083257604052565b6107fb565b9061027c6108519261084860405190565b938480926107f1565b0383610811565b906000106108695761029290610837565b610717565b61088761029292610882600093600561070d565b61070d565b610858565b34610257576102c761035d6108a23660046106da565b9061086e565b634e487b7160e01b600052603260045260246000fd5b80548210156108e1576108d8600891600052602060002090565b91020190600090565b6108a8565b6102929081565b61029290546108e6565b6102929061051b565b61029290546108f7565b6102929060081c61051b565b610292905461090a565b6102929060101c61051b565b6102929054610920565b600490610941825490565b81101561025757610951916108be565b509061095c826108ed565b91610969600182016108ed565b91610976600283016108ed565b91610983600382016108ed565b9161099060048301610900565b9161099d60048201610916565b9161029260076109af6004850161092c565b9301610837565b634e487b7160e01b600052602160045260246000fd5b600611156109d657565b6109b6565b9061027c826109cc565b610292906109db565b610295906109e5565b9081526101008101969095909490939092909160208701526040860152606085015260808401610a26916109ee565b60ff1660a0830152151560c08201528082039060e00152610292916102f9565b34610257576102c7610a61610a5c36600461037c565b610936565b94610a7498969894919493929360405190565b988998896109f7565b34610257576102c76103d0610a9336600461037c565b611994565b610292600080610521565b3461025757610ab33660046102cb565b6102c76102b4610a98565b6102926102926102929290565b906105cc90610abe565b610292916008021c81565b906102929154610ad5565b610b0461029292610aff600093600c610663565b610acb565b610ae0565b34610257576102c7610501610b1f3660046103f2565b90610aeb565b34610257576102c7610501610b3b366004610629565b61199d565b346102575761042e610b53366004610629565b6119fa565b600061067d61029292600d610acb565b34610257576102c76102b4610b7e36600461037c565b610b58565b3461025757610b933660046102cb565b6102c761035d611a57565b6000610609610292926008610acb565b34610257576102c76103d0610bc436600461037c565b610b9e565b61029290610390565b6102929054610bc9565b6102929060a01c61051b565b6102929054610bdc565b6102929060a81c61051b565b6102929054610bf2565b610c1390600f610acb565b90610c1d826108ed565b91610c2a600182016108ed565b91610c37600283016108ed565b91610c4460038201610bd2565b916102926003610c55818501610be8565b9301610bfe565b9194610c9c610ca592989795610c9260a096610c8b61027c9a610c8460c08a019e60008b0152565b6020890152565b6040870152565b606085019061039c565b15156080830152565b019015159052565b34610257576102c7610cc8610cc336600461037c565b610c08565b92610cd896949692919260405190565b96879687610c5c565b61067d61029292610aff600093600b610663565b34610257576102c76102b4610d0b3660046103f2565b90610ce1565b801515610268565b9050359061027c82610d11565b919060408382031261025757610292906020610d4282866103e5565b9401610d19565b346102575761042e610d5c366004610d26565b90611a64565b34610257576102c76102b4610d7836600461037c565b611b9b565b9061027c610d8a60405190565b9283610811565b6001600160401b03811161083257602090601f01601f19160190565b90826000939282370152565b90929192610dce610dc982610d91565b610d7d565b93818552818301116102575761027c916020850190610dad565b9080601f830112156102575781602061029293359101610db9565b9060808282031261025757610e1881836103e5565b92610e2682602085016103e5565b92610e34836040830161036f565b9260608201356001600160401b038111610257576102929201610de8565b346102575761042e610e65366004610e03565b92919091611ba6565b6000610609610292926001610acb565b34610257576102c76103d0610e9436600461037c565b610e6e565b6000610b0461029292600a610663565b34610257576102c7610501610ebf366004610629565b610e99565b34610257576102c761035d610eda36600461037c565b611c1e565b6000610b04610292926009610663565b34610257576102c7610501610f05366004610629565b610edf565b919060408382031261025757610292906020610f2682866103e5565b94016103e5565b34610257576102c76102b4610f43366004610f0a565b90611ca8565b6006111561025757565b9050359061027c82610f49565b906020828203126102575761029291610f53565b906105cc906109e5565b6000610b0461029292600e610f74565b34610257576102c7610501610fa4366004610f60565b610f7e565b80548210156108e1576108d8600191600052602060002090565b90919060025b8310156108e1576020610fdb60019290565b8185040193060290565b600790610ff0825490565b8110156102575761100091610fa9565b506002821015610257576102929161101791610fc3565b90610521565b34610257576102c7610553611033366004610567565b90610fe5565b6105b56110466102929290565b60e01b90565b6102926349064906611039565b6110646105b561104c565b6001600160e01b031982161490811561107b575090565b6102929150611cd1565b61029290610837565b610292600061109b611d1c565b01611085565b610292906110ae81611d40565b50611d90565b61027c913391611db0565b156110c657565b60405162461bcd60e51b815260206004820152601060248201526f14185d5cd8589b194e881c185d5cd95960821b6044820152606490fd5b0390fd5b906102929161112061111b6111176010610900565b1590565b6110bf565b611198565b6103906102926102929290565b61029290611125565b61051b6102926102929290565b6102926102926102929260ff1690565b61029590611148565b61119161027c9461118a606094989795611180608086019a6000870152565b602085019061039c565b6040830152565b0190611158565b50906111ac6111a76000611132565b610390565b6111b533610390565b1461136f576111c382611994565b6111d56111cf33610390565b91610390565b0361135d576004916111f360026111ec83866108be565b50016108ed565b42906111fe565b9190565b1161133e576112188361121183826108be565b500161092c565b61131f576112318361122a83826108be565b5001610900565b61124461123e60006109db565b916109db565b146113005761125e8361125783826108be565b5001610916565b61127261126b600061113b565b9160ff1690565b146112e1576112bf836112b5836112a87fcfdb0da0eda7e72692cc304e4e58d2543a70ce5269931e91e02337cbff2a1ef1969790565b600e600c600b3393611e46565b61125783826108be565b906112d96112cc60405190565b9283924290339085611161565b0390a1600190565b6110fe836112ee60405190565b63bc758f1b60e01b8152918291820190565b6110fe8361130d60405190565b63036cae1f60e31b8152918291820190565b6110fe8361132c60405190565b635399ebf560e01b8152918291820190565b6110fe8361134b60405190565b634a448f3760e01b8152918291820190565b6040516302b327b560e41b8152600490fd5b604051639fabe1c160e01b8152600490fd5b610292906000611102565b6040906113b361027c94969593966113ac6060840198600085019061039c565b6020830152565b019061039c565b906113c56000611132565b6113ce81610390565b6113d783610390565b1461142857506113e990833391611ee3565b6113f282610390565b6113fb82610390565b0361140557505050565b6110fe9061141260405190565b6364283d7b60e01b81529384936004850161138c565b6110fe9061143560405190565b633250574960e11b8152918291600483016103a5565b906102929161146061111b6111176010610900565b906114729161146d612035565b611610565b9061027c612075565b634e487b7160e01b600052601160045260246000fd5b9190820180921161149e57565b61147b565b6102929060801c610499565b61029290546114a3565b6114c66102926102929290565b61ffff1690565b90600019905b9181191691161790565b906114ed6102926114f492610abe565b82546114cd565b9055565b9060ff60a01b9060a01b6114d3565b906115176102926114f492151590565b82546114f8565b906001600160a01b03906114d3565b9061153d6102926114f49261065a565b825461151e565b919060086114d391029161155860ff841b90565b921b90565b919061156e6102926114f493151590565b908354611544565b61027c9160009161155d565b9160001960089290920291821b911b6114d3565b91906115a76102926114f493610abe565b908354611582565b61027c91600091611596565b9190820391821161149e57565b906115d5610dc983610d91565b918252565b3d156115f4576115e93d6115c8565b903d6000602084013e565b606090565b90815260408101929161027c9160200152565b0152565b5061161a81611994565b6116266111cf33610390565b0361135d5761164261163d82610aff33600c610663565b6108ed565b9061166861029260049361166261165d8661122a87826108be565b612108565b90611491565b42106118d25761167c8261121183826108be565b6000929061168b845b91151590565b146118b4576116af6116aa83610aff6116a382611994565b600b610663565b610900565b6116b96001611685565b03611895576116da6116cb60116114af565b6116d4856114b9565b8061226c565b93906116f38560036116ec87876108be565b50016114dd565b61173261172886600f611711888761170b8585610acb565b016114dd565b610aff600160036117228585610acb565b01611507565b600333910161152d565b61174f61174861174260196108ed565b60010190565b60196114dd565b6117688261176386610aff6116a382611994565b611576565b6117888261178386610aff61177c82611994565b600c610663565b6115af565b8034116117df575b5050906117c360036111ec837f92f40ca7d6cff5022608e05da6b963f9ac5a227ea2da740f7d35831bb78c285d956108be565b906117d96117d060405190565b928392836115f9565b0390a190565b6117ec61180b91346115bb565b91806117f760405190565b60009085335af16118066115da565b501590565b6118765760036111ec847f92f40ca7d6cff5022608e05da6b963f9ac5a227ea2da740f7d35831bb78c285d95947f27468d49151596d3863ccb02e3911b3146a62533facd0765451ba556bb4fd9c86118696117c39661050560405190565b0390a19450945050611790565b6110fe8261188360405190565b631e53f7e560e11b8152918291820190565b6110fe906118a260405190565b63126552f960e01b8152918291820190565b6110fe906118c160405190565b622a569d60e11b8152918291820190565b6110fe826118df60405190565b6334ced31760e11b8152918291820190565b61029290600061144b565b91602061027c9294936113b36040820196600083019061039c565b9061192d6111a76119286020610bd2565b61065a565b61193633610390565b036119445761027c91612606565b6110fe6119546119286020610bd2565b60405163073e64fd60e21b815291829133600484016118fc565b61029260006115c8565b61029261196e565b909161027c9261198e611978565b92611ba6565b61029290611d40565b6119a5611d1c565b6119af6000611132565b6119b881610390565b6119c184610390565b146119d7575061029291600361163d9201610663565b6110fe906119e460405190565b6322718ad960e21b8152918291600483016103a5565b611a046020610be8565b611a4557611a36816103d07f7ba1607c66ed196dd1c0fbb5e5aeea4ec29fe62880f58c244f91af5330d6e6e193612a4f565b0390a161027c60016020611507565b604051637a1a52b760e01b8152600490fd5b610292600161109b611d1c565b61027c919033612a62565b9061029291611a8461111b6111176010610900565b611aa9565b90815260608101939261027c92909160409161160c90602083019061039c565b50611abd611ab8826008610acb565b610bd2565b611ac96111cf33610390565b0361135d576004611ade8161121184826108be565b611ae86001611685565b036118b457611aff6116aa83610aff33600b610663565b611b096001611685565b0361189557611b1d60036111ec84846108be565b611b2a6111fa6000610abe565b03611b7c5781611b6c7fca17641f3c9a2465d959a125078cfc9df9fe8f8f67f9a9a4b4a7e22ae7c6e9aa93611b5f6112d99490565b600e600c600b3393612af7565b6040519182914290339084611a89565b6110fe90611b8960405190565b635e288c1960e11b8152918291820190565b610292906000611a6f565b9061027c939291611bb88383836113ba565b612b88565b61032d611bd592602092611bcf815190565b94859290565b938491016102d6565b611bec906102929392611bbd565b90611bbd565b611c12929161027c91611c0460405190565b948592602084019283611bde565b90810382520383610811565b611c5d611c588260007f0542a41881ee128a365a727b282c86fa859579490b9bb45aab8503648c8e7900611c5183611d40565b5001610acb565b611085565b611c65612c84565b8051611c746111fa6000610abe565b14611ca2578151611c886111fa6000610abe565b11611c9857505061029290612c8c565b6102929250611bf2565b50905090565b61029291611ccc6116aa92611cbb600090565b506005611cc6611d1c565b01610663565b610663565b6380ac58cd60e01b6001600160e01b0319821614908115611d01575b8115611cf7575090565b6102929150612ccf565b6001600160e01b03198116635b5e139f60e01b149150611ced565b7f80bb2b638cc20bc4d0a60d66940f3ab4a00c1d7b313497ca82fb0b4ab007930090565b611d4981612ce3565b90611d576111a76000611132565b611d6083610390565b14611d69575090565b6110fe90611d7660405190565b637e27328960e01b81529182916004830190815260200190565b611ab861029291611d9f600090565b506004611daa611d1c565b01610acb565b9160019161027c93612cfd565b9060ff906114d3565b90611dd66102926114f492151590565b8254611dbd565b9062ff00009060101b6114d3565b90611dfb6102926114f492151590565b8254611ddd565b60ff165b801561149e576000190190565b9061ff009060081b6114d3565b90611e306102926114f4926106fd565b8254611e13565b600019811461149e5760010190565b8561122a91611e83611e7c83610aff8a611ec699611ccc600161027c9f611ecc9f90610aff611e779260049f610663565b611dc6565b42906114dd565b611e9a600185611e9385856108be565b5001611deb565b611ec184611ea884846108be565b5001611ebb611eb682610916565b611e02565b90611e20565b6108be565b90610f74565b611edd611ed8826108ed565b611e37565b906114dd565b90611f6382611f5e836002611ef6611d1c565b611f4a611f0284612ce3565b9960008b86611f1083611132565b93611f1a85610390565b611f2382610390565b0361201a575b505050611f3582610390565b611f3e8d610390565b03611fdc575b50610390565b611f5386610390565b03611fb05701610acb565b61152d565b611f7e611f78611f728561065a565b9361065a565b91610abe565b917fddf252ad1be2c89b69c2b068fc378daa952ba7f163c4a11628f55a4df523b3ef611fa960405190565b600090a490565b611fd7611fbd6001610abe565b611edd611fcd8860038601610663565b9161032d836108ed565b611daa565b611fe890828781612cfd565b6120148b611edd612006611ffc6001610abe565b9260038801610663565b91612010836108ed565b0390565b38611f44565b61202392612e38565b8b8638611f29565b6102926002610abe565b61203f601f6108ed565b61204761202b565b9081146120595761027c90601f6114dd565b604051633ee5aeb560e01b8152600490fd5b6102926001610abe565b61027c61208061206b565b601f6114dd565b6102929060b01c610499565b6102929054612087565b6102926102926102929263ffffffff1690565b6102929060901c610499565b61029290546120b0565b6102929060701c610499565b61029290546120c6565b6102929060501c610499565b61029290546120dc565b6102929060301c610499565b61029290546120f2565b61211260016109db565b61211b826109db565b03612133575061029261212e60106120fe565b61209d565b61213d60026109db565b612146826109db565b03612159575061029261212e60106120e8565b61216360036109db565b61216c826109db565b0361217f575061029261212e60106120d2565b61218960046109db565b612192826109db565b036121a5575061029261212e60106120bc565b6121b261123e60056109db565b036121c45761029261212e6010612093565b60405162461bcd60e51b815260206004820152600c60248201526b77726f6e672072617269747960a01b6044820152606490fd5b6102926060610d7d565b9050519061027c82610369565b906020828203126102575761029291612202565b805161ffff16825261027c9190604090819060208181015161ffff1690850152015163ffffffff16910152565b60608101929161027c9190612223565b6040513d6000823e3d90fd5b9092916122c491602061228161192882610bd2565b6122896121f8565b61ffff841681529061ffff88168284015263ffffffff851660408301526040519586928391829163a6c278f360e01b5b835260048301612250565b03915afa918215612378576122b96020936123399560009161237d575b5080976123296122f361192888610bd2565b9461231c63122c162a936123126123086121f8565b61ffff909a168a52565b61ffff16888a0152565b63ffffffff166040870152565b6040519687958694859360e01b90565b03925af19081156123785760009161234f575090565b610292915060203d602011612371575b6123698183610811565b81019061220f565b503d61235f565b612260565b6123949150853d8711612371576123698183610811565b386122e1565b9060ff60a81b9060a81b6114d3565b906123b96102926114f492151590565b825461239a565b6102929060181c61051b565b6020600161243b6124079361240784848181816123f76123f3839d6123ef600490565b5090565b9790565b9661240e81600099549d8e6108f7565b60ff169052565b0195019461241f816124078c61090a565b01930192612430816124078a610920565b0193849201956123c0565b50505050565b9061032d816080936123cc565b9061027c6108519261245f60405190565b93848092612441565b6102929061244e565b9060048110156108e1576020020190565b906124a261249b612491845190565b8084529260200190565b9260200190565b9060005b8181106124b35750505090565b9091926124d06124c96001928651815260200190565b9460200190565b9291016124a6565b90815260406020820181905261029292910190612482565b90815260608101939261027c9290916040916113b3906113ac565b634e487b7160e01b600052601260045260246000fd5b811561252b570690565b61250b565b90612539825190565b8110156108e1576020809102010190565b9050519061027c82610d11565b90602082820312610257576102929161254a565b91602061027c92949361160c6040820196600083019061039c565b1561258d57565b60405162461bcd60e51b81526020600482015260186024820152773330b4b632b2103a37903a3930b739b332b9103a37b5b2b760411b6044820152606490fd5b9095949261027c946125ff6113b3926125f86080966125f160a088019c6000890152565b6020870152565b6040850152565b6060830152565b90600f91612622611117600361261c8487610acb565b01610be8565b612a3d5761263d600160036126378487610acb565b016123a9565b61264d82600161170b8487610acb565b612662600061265c8386610acb565b016108ed565b9260049361268a600561268361267d600061265c8888610acb565b886108be565b5001612468565b6000946126f26126ac6126a561269f89610abe565b85612471565b5160ff1690565b6126c26126a56126bc6001610abe565b86612471565b936002946126ec6126a56126db6126a56126bc8a610abe565b936126e66003610abe565b90612471565b92612f01565b917fdd6ebb40766c50572c78f680f70ff043535bc04e71ac56a352f7c3df1e11ec5161271d60405190565b806127298686836124d8565b0390a161273588610abe565b8211156129865761275c6127f09695949361275661276b9461276094612521565b90612530565b5190565b8261170b8887610acb565b6127966127778761113b565b8861278f6127898561265c8b8a610acb565b826108be565b5001611e20565b60206127a8611928611928601c610bd2565b6127bd60036127b78988610acb565b01610bd2565b906127cc8461265c8a89610acb565b91898b6127d860405190565b998a958694859363048dbcef60e41b8552840161256b565b03925af19081156123785761280f879289968491612957575b50612586565b8483828061281d8a89610acb565b01612827906108ed565b61283190846108be565b500161283c906108ed565b836128478a89610acb565b01612851906108ed565b90838661285e8c8b610acb565b01612868906108ed565b61287290826108be565b500161287d90610900565b61288690613116565b6128909042611491565b9161289b8b8a610acb565b6003016128a790610bd2565b6040519384936128b89387866125cd565b037fb9874b9aa8f1986f23eedb12a3ecf1c3033ff8e7d332f10b701fa43226dc6ec991a161292961027c9a61122a6127896129469c61265c61293f9d61122a9c6129106127899c6129349b611e9361292e9c826108be565b610aff8d60036116ec61292288610abe565b928b6108be565b613116565b42611491565b906116ec84876108be565b600e610f74565b611edd612952826108ed565b611e06565b612979915060203d60201161297f575b6129718183610811565b810190612557565b38612809565b503d612967565b505050906127898261293461292e6129298a61122a6127898c61265c61027c9f9c9d6129469f9e61293f9f8061122a9f8f611e93907fccaae9bb2bca53d8b0d708515a73d3a7e963ed3e3e583c0a554f72651e8db52a612a0f61292e6129298f61122a6127898a61265c8f8f6129109f879e612a04610aff92610abe565b9061170b8585610acb565b612a1e60036127b78b8b610acb565b90612a35612a2b60405190565b92839286846124f0565b0390a1612789565b6040516392b8197960e01b8152600490fd5b612a5b61027c9161065a565b602061152d565b612a6a611d1c565b612a776111a76000611132565b612a8084610390565b14612ad457612ac5611f728361192887611e7788611ccc7f17307eab39ab6107e8899845ad3d59bd9653f200f220920489ca2b5937696c31996005612acf9a01610663565b936102b860405190565b0390a3565b6110fe83612ae160405190565b630b61174360e31b8152918291600483016103a5565b8561122a91612b2a600061178384610aff8b611ec69a611ccc61027c9f6129469f8891610aff60049f9261176393610663565b611ec1600085611e9385856108be565b9050519061027c8261025c565b906020828203126102575761029291612b3a565b9092612b7b9061118a61029296946111806080860197600087019061039c565b60608184039101526102f9565b909291833b612b9a6111fa6000610abe565b11612ba55750505050565b602091612bb46119288661065a565b90600033612bde612bc460405190565b97889687958694630a85bd0160e11b865260048601612b5b565b03925af160009181612c53575b50612c2a5750612bf96115da565b90612c02825190565b612c0f6111fa6000610abe565b03612c21576110fe9061143560405190565b50805190602001fd5b612c44630a85bd0160e11b5b916001600160e01b03191690565b0361142857503880808061243b565b612c7691925060203d602011612c7d575b612c6e8183610811565b810190612b47565b9038612beb565b503d612c64565b610292611978565b612c9581611d40565b50612c9e612c84565b8051612cad6111fa6000610abe565b1115612cc557612cbf61029292613246565b90611bf2565b5050610292611978565b612cdf6301ffc9a760e01b612c36565b1490565b611ab861029291612cf2600090565b506002611daa611d1c565b929091612d08611d1c565b91808115612e1a575b612d29575b505061027c92916004611f5e9201610acb565b612d3284611d40565b91612d406111a76000611132565b612d4982610390565b141580612e00575b80612ded575b612dca5750611f5e9261027c959492600492612d7a575b50925081939450612d16565b612d839061065a565b612d8c8661065a565b612d9585610abe565b917f8c5be1e5ebec7d5bd14f71427d1e84f3dd0314c0f7b2291e5b200ac8c7c3b925612dc060405190565b600090a438612d6e565b6110fe90612dd760405190565b63a9fbf51f60e01b8152918291600483016103a5565b50612dfb6111178285611ca8565b612d57565b50612e0a81610390565b612e1384610390565b1415612d51565b50612e286111a76000611132565b612e3183610390565b1415612d11565b612e466111178484846132d9565b612e4f57505050565b612e5f6111cf6111a76000611132565b03612e71576110fe82611d7660405190565b6110fe612e7d60405190565b63177e802f60e01b81529283926004840161256b565b6001600160401b0381116108325760208091020190565b906115d5610dc983612e93565b369037565b9061027c612ed2612ecc84612eaa565b93612e93565b601f190160208401612eb7565b612eeb9060ff1661126b565b019060ff821161149e57565b9091906004610fc9565b9093929091600092612f3c612f1585610abe565b93612f37600494612f37612f2f612f2a885490565b612ebc565b9a8896612edf565b612edf565b95612f45835490565b95845b875b81101561305d57612fb7612fa3612f8f87612f8961101760016005612f7c8f612f836110178c9285612f7c858c6108be565b5001612ef7565b966108be565b90612edf565b612f8961101760026005612f7c888d6108be565b612f8961101760036005612f7c878c6108be565b612fc360ff8b1661126b565b1080613038575b80613021575b612fe4575b612f4a906001015b9050612f48565b9492612fdd613018613011612f4a936117426130048c6111ec8d8d6108be565b61300e838a612530565b52565b9560010190565b96915050612fd5565b506130336111178661121184826108be565b612fd0565b50613047611ab8826008610acb565b6130576111cf6111a7601c610bd2565b14612fca565b50939550939550505061307861307284612ebc565b94610abe565b838110156130a3578061174261309461275c61309e9487612530565b61300e8389612530565b613078565b509190509190565b6102929060d01c610499565b61029290546130ab565b61029290610499565b61029290546130c1565b6102929060201c610499565b61029290546130d4565b6102929060401c610499565b61029290546130ea565b6102929060601c610499565b6102929054613100565b61312060006109db565b613129826109db565b1461321b5761313860016109db565b613141826109db565b1461320d5761315060026109db565b613159826109db565b146131ff5761316860036109db565b613171826109db565b146131f15761318060046109db565b613189826109db565b146131e35761319b61123e60056109db565b146131d65760405162461bcd60e51b815260206004820152600e60248201526d496e76616c69642072617269747960901b6044820152606490fd5b61029261212e601161310c565b5061029261212e60116130f6565b5061029261212e60116130e0565b5061029261212e60116130ca565b5061029261212e60106130b7565b506102926000610abe565b9061027c612ed2613236846115c8565b93610d91565b811561252b570490565b61324f81613363565b9061326060019261032d6001610abe565b918061326b84613226565b936020018401905b61327e575b50505090565b81156132d4576132b89060001901926f181899199a1a9b1b9c1cb0b131b232b360811b600a82061a84536132b2600a610abe565b9061323c565b90816132c76111fa6000610abe565b146132d457909181613273565b613278565b906132e76111a76000611132565b6132f082610390565b141592836132fe5750505090565b9091925061330b82610390565b61331484610390565b1492831561334f575b50821561332f575b5050388080613278565b6133479192506133416111cf91611d90565b92610390565b143880613325565b61335c9193508290611ca8565b913861331d565b61336d6000610abe565b9072184f03e93ff9f4daa797ed6e38ed64bf6a1f0160401b61338e81610abe565b8210156134dd575b506904ee2d6d415b85acef8160201b6133ae81610abe565b8210156134bb575b50662386f26fc100006133c881610abe565b821015613499575b506305f5e1006133df81610abe565b821015613477575b506127106133f481610abe565b821015613455575b506134076064610abe565b811015613433575b61341c6111fa600a610abe565b10156134255790565b6102929061032d6001610abe565b61344461344f916132b26064610abe565b9161032d6002610abe565b9061340f565b613470916132b261346592610abe565b9161032d6004610abe565b90386133fc565b613492916132b261348792610abe565b9161032d6008610abe565b90386133e7565b6134b4916132b26134a992610abe565b9161032d6010610abe565b90386133d0565b6134d6916132b26134cb92610abe565b9161032d6020610abe565b90386133b6565b6134f8916132b26134ed92610abe565b9161032d6040610abe565b903861339656fea2646970667358221220f022aa8018669d364ebeb076754dd62a4f1a67e744fb72539d758ab5777baad064736f6c63430008190033","linkReferences":{}},"methodIdentifiers":{"DRBInitialize(address)":"7807adc8","GEMIndexToOwner(uint256)":"97125c40","Gems(uint256)":"61f7f6d7","aliveImplementation(address)":"550d01a3","approve(address,uint256)":"095ea7b3","balanceOf(address)":"70a08231","callbackGasLimit()":"24f74697","cancelMining(uint256)":"ad6caa47","colorName(uint8,uint8)":"5f2d0023","colors(uint256,uint256)":"f317d7dd","colorsCount()":"356edf74","getApproved(uint256)":"081812fc","isApprovedForAll(address,address)":"e985e9c5","name()":"06fdde03","numberMiningGemsByRarity(uint8)":"ea094c39","ownerOf(uint256)":"6352211e","ownershipTokenCount(address)":"cec21acb","pauseProxy()":"63a8fd89","paused()":"5c975abb","pickMinedGEM(uint256)":"274f2455","proxyImplementation(uint256)":"b911135f","rawFulfillRandomWords(uint256,uint256)":"37ed11db","s_requests(uint256)":"a168fa89","safeTransferFrom(address,address,uint256)":"42842e0e","safeTransferFrom(address,address,uint256,bytes)":"b88d4fde","selectorImplementation(bytes4)":"50d2a276","setApprovalForAll(address,bool)":"a22cb465","startMiningGEM(uint256)":"1da0fc9c","supportsInterface(bytes4)":"01ffc9a7","symbol()":"95d89b41","tokenMiningByUser(address)":"c1389072","tokenReadyToMine(uint256)":"7866369b","tokenURI(uint256)":"c87b56dd","transferFrom(address,address,uint256)":"23b872dd","userMiningStartTime(address,uint256)":"676f79f1","userMiningToken(address,uint256)":"a1770a7d"},"id":57}