{
  "_format": "hh-sol-artifact-1",
  "contractName": "WstonSwapPool",
  "sourceName": "src/L2/WstonSwapPool.sol",
  "abi": [
    {
      "inputs": [],
      "name": "AccessControlBadConfirmation",
      "type": "error"
    },
    {
      "inputs": [
        {
          "internalType": "address",
          "name": "account",
          "type": "address"
        },
        {
          "internalType": "bytes32",
          "name": "neededRole",
          "type": "bytes32"
        }
      ],
      "name": "AccessControlUnauthorizedAccount",
      "type": "error"
    },
    {
      "inputs": [],
      "name": "ContractTonBalanceOrAllowanceTooLow",
      "type": "error"
    },
    {
      "inputs": [
        {
          "internalType": "uint256",
          "name": "amount",
          "type": "uint256"
        }
      ],
      "name": "FailedToApproveTon",
      "type": "error"
    },
    {
      "inputs": [],
      "name": "FailedToTransferTON",
      "type": "error"
    },
    {
      "inputs": [],
      "name": "ReentrancyGuardReentrantCall",
      "type": "error"
    },
    {
      "inputs": [],
      "name": "SameAdmin",
      "type": "error"
    },
    {
      "inputs": [],
      "name": "SameOwner",
      "type": "error"
    },
    {
      "inputs": [],
      "name": "WrongStakingIndex",
      "type": "error"
    },
    {
      "inputs": [],
      "name": "WstonAllowanceTooLow",
      "type": "error"
    },
    {
      "inputs": [],
      "name": "WstonBalanceTooLow",
      "type": "error"
    },
    {
      "inputs": [],
      "name": "ZeroAddress",
      "type": "error"
    },
    {
      "anonymous": false,
      "inputs": [
        {
          "indexed": true,
          "internalType": "bytes32",
          "name": "role",
          "type": "bytes32"
        },
        {
          "indexed": true,
          "internalType": "bytes32",
          "name": "previousAdminRole",
          "type": "bytes32"
        },
        {
          "indexed": true,
          "internalType": "bytes32",
          "name": "newAdminRole",
          "type": "bytes32"
        }
      ],
      "name": "RoleAdminChanged",
      "type": "event"
    },
    {
      "anonymous": false,
      "inputs": [
        {
          "indexed": true,
          "internalType": "bytes32",
          "name": "role",
          "type": "bytes32"
        },
        {
          "indexed": true,
          "internalType": "address",
          "name": "account",
          "type": "address"
        },
        {
          "indexed": true,
          "internalType": "address",
          "name": "sender",
          "type": "address"
        }
      ],
      "name": "RoleGranted",
      "type": "event"
    },
    {
      "anonymous": false,
      "inputs": [
        {
          "indexed": true,
          "internalType": "bytes32",
          "name": "role",
          "type": "bytes32"
        },
        {
          "indexed": true,
          "internalType": "address",
          "name": "account",
          "type": "address"
        },
        {
          "indexed": true,
          "internalType": "address",
          "name": "sender",
          "type": "address"
        }
      ],
      "name": "RoleRevoked",
      "type": "event"
    },
    {
      "anonymous": false,
      "inputs": [
        {
          "indexed": false,
          "internalType": "uint256",
          "name": "newIndex",
          "type": "uint256"
        }
      ],
      "name": "StakingIndexUpdated",
      "type": "event"
    },
    {
      "anonymous": false,
      "inputs": [
        {
          "indexed": true,
          "internalType": "address",
          "name": "user",
          "type": "address"
        },
        {
          "indexed": false,
          "internalType": "uint256",
          "name": "tonAmount",
          "type": "uint256"
        },
        {
          "indexed": false,
          "internalType": "uint256",
          "name": "wstonAmount",
          "type": "uint256"
        }
      ],
      "name": "SwappedWstonForTon",
      "type": "event"
    },
    {
      "inputs": [],
      "name": "ADMIN_ROLE",
      "outputs": [
        {
          "internalType": "bytes32",
          "name": "",
          "type": "bytes32"
        }
      ],
      "stateMutability": "view",
      "type": "function"
    },
    {
      "inputs": [],
      "name": "DECIMALS",
      "outputs": [
        {
          "internalType": "uint256",
          "name": "",
          "type": "uint256"
        }
      ],
      "stateMutability": "view",
      "type": "function"
    },
    {
      "inputs": [],
      "name": "DEFAULT_ADMIN_ROLE",
      "outputs": [
        {
          "internalType": "bytes32",
          "name": "",
          "type": "bytes32"
        }
      ],
      "stateMutability": "view",
      "type": "function"
    },
    {
      "inputs": [],
      "name": "PAUSE_ROLE",
      "outputs": [
        {
          "internalType": "bytes32",
          "name": "",
          "type": "bytes32"
        }
      ],
      "stateMutability": "view",
      "type": "function"
    },
    {
      "inputs": [
        {
          "internalType": "address",
          "name": "account",
          "type": "address"
        }
      ],
      "name": "addAdmin",
      "outputs": [],
      "stateMutability": "nonpayable",
      "type": "function"
    },
    {
      "inputs": [
        {
          "internalType": "address",
          "name": "account",
          "type": "address"
        }
      ],
      "name": "addPauser",
      "outputs": [],
      "stateMutability": "nonpayable",
      "type": "function"
    },
    {
      "inputs": [
        {
          "internalType": "address",
          "name": "",
          "type": "address"
        }
      ],
      "name": "aliveImplementation",
      "outputs": [
        {
          "internalType": "bool",
          "name": "",
          "type": "bool"
        }
      ],
      "stateMutability": "view",
      "type": "function"
    },
    {
      "inputs": [],
      "name": "getPaused",
      "outputs": [
        {
          "internalType": "bool",
          "name": "",
          "type": "bool"
        }
      ],
      "stateMutability": "view",
      "type": "function"
    },
    {
      "inputs": [
        {
          "internalType": "bytes32",
          "name": "role",
          "type": "bytes32"
        }
      ],
      "name": "getRoleAdmin",
      "outputs": [
        {
          "internalType": "bytes32",
          "name": "",
          "type": "bytes32"
        }
      ],
      "stateMutability": "view",
      "type": "function"
    },
    {
      "inputs": [],
      "name": "getStakingIndex",
      "outputs": [
        {
          "internalType": "uint256",
          "name": "",
          "type": "uint256"
        }
      ],
      "stateMutability": "view",
      "type": "function"
    },
    {
      "inputs": [],
      "name": "getTonAddress",
      "outputs": [
        {
          "internalType": "address",
          "name": "",
          "type": "address"
        }
      ],
      "stateMutability": "view",
      "type": "function"
    },
    {
      "inputs": [],
      "name": "getTreasuryAddress",
      "outputs": [
        {
          "internalType": "address",
          "name": "",
          "type": "address"
        }
      ],
      "stateMutability": "view",
      "type": "function"
    },
    {
      "inputs": [],
      "name": "getWstonAddress",
      "outputs": [
        {
          "internalType": "address",
          "name": "",
          "type": "address"
        }
      ],
      "stateMutability": "view",
      "type": "function"
    },
    {
      "inputs": [
        {
          "internalType": "bytes32",
          "name": "role",
          "type": "bytes32"
        },
        {
          "internalType": "address",
          "name": "account",
          "type": "address"
        }
      ],
      "name": "grantRole",
      "outputs": [],
      "stateMutability": "nonpayable",
      "type": "function"
    },
    {
      "inputs": [
        {
          "internalType": "bytes32",
          "name": "role",
          "type": "bytes32"
        },
        {
          "internalType": "address",
          "name": "account",
          "type": "address"
        }
      ],
      "name": "hasRole",
      "outputs": [
        {
          "internalType": "bool",
          "name": "",
          "type": "bool"
        }
      ],
      "stateMutability": "view",
      "type": "function"
    },
    {
      "inputs": [
        {
          "internalType": "address",
          "name": "_ton",
          "type": "address"
        },
        {
          "internalType": "address",
          "name": "_wston",
          "type": "address"
        },
        {
          "internalType": "uint256",
          "name": "_initialStakingIndex",
          "type": "uint256"
        },
        {
          "internalType": "address",
          "name": "_treasury",
          "type": "address"
        }
      ],
      "name": "initialize",
      "outputs": [],
      "stateMutability": "nonpayable",
      "type": "function"
    },
    {
      "inputs": [
        {
          "internalType": "address",
          "name": "account",
          "type": "address"
        }
      ],
      "name": "isAdmin",
      "outputs": [
        {
          "internalType": "bool",
          "name": "",
          "type": "bool"
        }
      ],
      "stateMutability": "view",
      "type": "function"
    },
    {
      "inputs": [],
      "name": "isOwner",
      "outputs": [
        {
          "internalType": "bool",
          "name": "",
          "type": "bool"
        }
      ],
      "stateMutability": "view",
      "type": "function"
    },
    {
      "inputs": [
        {
          "internalType": "address",
          "name": "account",
          "type": "address"
        }
      ],
      "name": "isPauser",
      "outputs": [
        {
          "internalType": "bool",
          "name": "",
          "type": "bool"
        }
      ],
      "stateMutability": "view",
      "type": "function"
    },
    {
      "inputs": [],
      "name": "pause",
      "outputs": [],
      "stateMutability": "nonpayable",
      "type": "function"
    },
    {
      "inputs": [],
      "name": "pauseProxy",
      "outputs": [
        {
          "internalType": "bool",
          "name": "",
          "type": "bool"
        }
      ],
      "stateMutability": "view",
      "type": "function"
    },
    {
      "inputs": [
        {
          "internalType": "uint256",
          "name": "",
          "type": "uint256"
        }
      ],
      "name": "proxyImplementation",
      "outputs": [
        {
          "internalType": "address",
          "name": "",
          "type": "address"
        }
      ],
      "stateMutability": "view",
      "type": "function"
    },
    {
      "inputs": [],
      "name": "removeAdmin",
      "outputs": [],
      "stateMutability": "nonpayable",
      "type": "function"
    },
    {
      "inputs": [
        {
          "internalType": "address",
          "name": "account",
          "type": "address"
        }
      ],
      "name": "removePauser",
      "outputs": [],
      "stateMutability": "nonpayable",
      "type": "function"
    },
    {
      "inputs": [
        {
          "internalType": "bytes32",
          "name": "role",
          "type": "bytes32"
        },
        {
          "internalType": "address",
          "name": "callerConfirmation",
          "type": "address"
        }
      ],
      "name": "renounceRole",
      "outputs": [],
      "stateMutability": "nonpayable",
      "type": "function"
    },
    {
      "inputs": [
        {
          "internalType": "bytes32",
          "name": "role",
          "type": "bytes32"
        },
        {
          "internalType": "address",
          "name": "account",
          "type": "address"
        }
      ],
      "name": "revokeRole",
      "outputs": [],
      "stateMutability": "nonpayable",
      "type": "function"
    },
    {
      "inputs": [
        {
          "internalType": "bytes4",
          "name": "",
          "type": "bytes4"
        }
      ],
      "name": "selectorImplementation",
      "outputs": [
        {
          "internalType": "address",
          "name": "",
          "type": "address"
        }
      ],
      "stateMutability": "view",
      "type": "function"
    },
    {
      "inputs": [
        {
          "internalType": "address",
          "name": "_ton",
          "type": "address"
        }
      ],
      "name": "setTon",
      "outputs": [],
      "stateMutability": "nonpayable",
      "type": "function"
    },
    {
      "inputs": [
        {
          "internalType": "address",
          "name": "_treasury",
          "type": "address"
        }
      ],
      "name": "setTreasury",
      "outputs": [],
      "stateMutability": "nonpayable",
      "type": "function"
    },
    {
      "inputs": [
        {
          "internalType": "address",
          "name": "_wston",
          "type": "address"
        }
      ],
      "name": "setWston",
      "outputs": [],
      "stateMutability": "nonpayable",
      "type": "function"
    },
    {
      "inputs": [
        {
          "internalType": "bytes4",
          "name": "interfaceId",
          "type": "bytes4"
        }
      ],
      "name": "supportsInterface",
      "outputs": [
        {
          "internalType": "bool",
          "name": "",
          "type": "bool"
        }
      ],
      "stateMutability": "view",
      "type": "function"
    },
    {
      "inputs": [
        {
          "internalType": "uint256",
          "name": "wstonAmount",
          "type": "uint256"
        }
      ],
      "name": "swap",
      "outputs": [],
      "stateMutability": "nonpayable",
      "type": "function"
    },
    {
      "inputs": [],
      "name": "ton",
      "outputs": [
        {
          "internalType": "address",
          "name": "",
          "type": "address"
        }
      ],
      "stateMutability": "view",
      "type": "function"
    },
    {
      "inputs": [
        {
          "internalType": "address",
          "name": "newOwner",
          "type": "address"
        }
      ],
      "name": "transferOwnership",
      "outputs": [],
      "stateMutability": "nonpayable",
      "type": "function"
    },
    {
      "inputs": [],
      "name": "treasury",
      "outputs": [
        {
          "internalType": "address",
          "name": "",
          "type": "address"
        }
      ],
      "stateMutability": "view",
      "type": "function"
    },
    {
      "inputs": [],
      "name": "unpause",
      "outputs": [],
      "stateMutability": "nonpayable",
      "type": "function"
    },
    {
      "inputs": [
        {
          "internalType": "uint256",
          "name": "newIndex",
          "type": "uint256"
        }
      ],
      "name": "updateStakingIndex",
      "outputs": [],
      "stateMutability": "nonpayable",
      "type": "function"
    },
    {
      "inputs": [],
      "name": "wston",
      "outputs": [
        {
          "internalType": "address",
          "name": "",
          "type": "address"
        }
      ],
      "stateMutability": "view",
      "type": "function"
    }
  ],
  "bytecode": "0x60808060405234601a57600160055561155190816100208239f35b600080fdfe60806040908082526004918236101561001757600080fd5b600091823560e01c90816301ffc9a714610e5e57508063044bc77914610cdb578063247ee38814610e16578063248a9ca314610dec57806324d7806c14610d985780632e0f262514610d735780632f2ff15d14610d4857806336568abe14610d0357806336b17e1314610cdb578063389ed26714610cb35780633f4ba83a14610c3f57806346fbf68e14610beb5780634d288fec14610ba35780635074e0c814610b8557806350d2a27614610b41578063550d01a314610b0457806361d027b3146102cf57806363a8fd8914610ae35780636805b84b14610abd5780636ae638d0146103365780636b2c0f55146109ec578063704802751461099f57806375b238fc1461097757806382dc1ec4146109255780638456cb59146108b25780638f32d59b1461088d57806391d148541461084757806394b918de146105825780639a202d47146104ec578063a217fddf146104d2578063b911135f1461049f578063be203094146103d2578063caa78a861461035e578063cc48b94714610336578063d547741f146102f7578063e0024604146102cf578063f0f44260146102845763f2fde38b146101c757600080fd5b34610280576020366003190112610280576101e0610eb2565b906101f16101ec610f3b565b610ee3565b6001600160a01b038216801561027057331461026157600161024e91849585610253965280602052610227838389200154610fae565b6102308561110b565b506000805160206114dc833981519152875260205285200154610fae565b610ff2565b5061025d336112f1565b5080f35b51630a98f1f360e21b81528390fd5b815163d92e233d60e01b81528590fd5b5080fd5b82346102cc5760203660031901126102cc5761029e610eb2565b6102a96101ec610f3b565b600880546001600160a01b0319166001600160a01b039290921691909117905580f35b80fd5b503461028057816003193601126102805760085490516001600160a01b039091168152602090f35b50823461033257816003193601126103325761025d9161032d600183359261031d610ecd565b9484885260205286200154610fae565b611358565b8280fd5b503461028057816003193601126102805760065490516001600160a01b039091168152602090f35b50829034610332576020366003190112610332578135916103806101ec610f3b565b676765c793fa10079d601b1b83106103c45750816020917f30ce0c4920695ae7b30f6304002cac26f3bffd83b1b84b281d4495ec83956c499360095551908152a180f35b90516373fd31f360e01b8152fd5b50829034610332576080366003190112610332576103ee610eb2565b906103f7610ecd565b6001600160a01b036064358181169591939086900361049b5760ff600a54166104625750506104253361110b565b508160018060a01b03199316836006541617600655168160075416176007556008541617600855604435600955600160ff19600a541617600a5580f35b906020606492519162461bcd60e51b83528201526013602482015272185b1c9958591e481a5b9a5d1a585b1a5e9959606a1b6044820152fd5b8680fd5b5082346103325760203660031901126103325735825260016020908152918190205490516001600160a01b039091168152f35b503461028057816003193601126102805751908152602090f35b508290346103325782600319360112610332576000805160206114dc83398151915283528160205280832033845260205260ff818420541615610533578261025d33611269565b906020608492519162461bcd60e51b8352820152602360248201527f41757468436f6e74726f6c3a2043616c6c6572206973206e6f7420616e20616460448201526236b4b760e91b6064820152fd5b50913461028057602092836003193601126103325781356002600554146108395760026005556007548251636eb1769f60e11b81523381860152306024808301919091526001600160a01b039792881695909183816044818a5afa908115610753579085918991610808575b50106107fa578451838184816370a0823160e01b9a8b825233878301525afa9081156107535790859189916107c9575b50106107bb576009548085029085820414851517156107a957633b9aca0090676765c793fa10079d601b1b9004049587848a60085416858951809481936312608dfb60e01b83528d898401525af190811561079f578991610772575b501561075d57838960065416918a6008541694885180948193825287878301525afa90811561075357908791899161071e575b50106107105750847feb53aa1346bf80833deed132609343df1b6cdb928bd868803c6aa09a8ebeb60b9596976106ec856106fd943384600754166113bd565b8060065416339160085416906113bd565b82519485528401523392a2600160055580f35b84516364a7800d60e11b8152fd5b809250858092503d831161074c575b6107378183610f5e565b8101031261074857869051386106ad565b8780fd5b503d61072d565b86513d8a823e3d90fd5b508451638ef9226b60e01b8152908101869052fd5b6107929150853d8711610798575b61078a8183610f5e565b810190610f96565b3861067a565b503d610780565b87513d8b823e3d90fd5b50634e487b7160e01b87526011905285fd5b84516316a5d17360e11b8152fd5b809250858092503d83116107f3575b6107e28183610f5e565b81010312610748578490513861061e565b503d6107d8565b84516382cf63f960e01b8152fd5b809250858092503d8311610832575b6108218183610f5e565b8101031261074857849051386105ee565b503d610817565b5051633ee5aeb560e01b8152fd5b5082346103325781600319360112610332578160209360ff92610868610ecd565b813583529086528282206001600160a01b039091168252855220549151911615158152f35b50346102805781600319360112610280576020906108a9610f3b565b90519015158152f35b5082346103325782600319360112610332576108cf6101ec610f3b565b600a549160ff8360081c166108ef5761ff0019831661010017600a558380f35b906020606492519162461bcd60e51b8352820152601060248201526f14185d5cd8589b194e881c185d5cd95960821b6044820152fd5b50823461033257602036600319011261033257610972600161025d93610949610eb2565b936109556101ec610f3b565b6000805160206114bc833981519152875260205285200154610fae565b611081565b5034610280578160031936011261028057602090516000805160206114dc8339815191528152f35b5082346103325760203660031901126103325761024e600161025d936109c3610eb2565b936109cf6101ec610f3b565b6000805160206114dc833981519152875260205285200154610fae565b50823461033257602036600319011261033257610a07610eb2565b916000805160206114bc83398151915284528160205280842033855260205260ff81852054168015610aaf575b15610a6057336001600160a01b03841603610a53578361025d846111e1565b5163334bd91960e11b8152fd5b906020608492519162461bcd60e51b8352820152602360248201527f41757468436f6e74726f6c3a2043616c6c6572206973206e6f7420612070617560448201526239b2b960e91b6064820152fd5b50610ab8610f3b565b610a34565b503461028057816003193601126102805760209060ff600a5460081c1690519015158152f35b503461028057816003193601126102805760ff602092541690519015158152f35b50346102805760203660031901126102805760209160ff9082906001600160a01b03610b2e610eb2565b1681526002855220541690519015158152f35b508234610332576020366003190112610332573563ffffffff60e01b811680910361033257825260036020908152918190205490516001600160a01b039091168152f35b50346102805781600319360112610280576020906009549051908152f35b82346102cc5760203660031901126102cc57610bbd610eb2565b610bc86101ec610f3b565b600680546001600160a01b0319166001600160a01b039290921691909117905580f35b508234610332576020366003190112610332578160209360ff92610c0d610eb2565b6000805160206114bc83398151915283529086528282206001600160a01b039091168252855220549151911615158152f35b508234610332578260031936011261033257610c5c6101ec610f3b565b600a549160ff8360081c1615610c7957505061ff001916600a5580f35b906020606492519162461bcd60e51b8352820152601460248201527314185d5cd8589b194e881b9bdd081c185d5cd95960621b6044820152fd5b5034610280578160031936011261028057602090516000805160206114bc8339815191528152f35b503461028057816003193601126102805760075490516001600160a01b039091168152602090f35b5034610280578060031936011261028057610d1c610ecd565b90336001600160a01b03831603610d39575061025d919235611358565b5163334bd91960e11b81528390fd5b50823461033257816003193601126103325761025d91610d6e600183359261031d610ecd565b611178565b503461028057816003193601126102805751676765c793fa10079d601b1b8152602090f35b508234610332576020366003190112610332578160209360ff92610dba610eb2565b6000805160206114dc83398151915283529086528282206001600160a01b039091168252855220549151911615158152f35b50823461033257602036600319011261033257816020938260019335825285522001549051908152f35b82346102cc5760203660031901126102cc57610e30610eb2565b610e3b6101ec610f3b565b600780546001600160a01b0319166001600160a01b039290921691909117905580f35b83908534610332576020366003190112610332573563ffffffff60e01b81168091036103325760209250637965db0b60e01b8114908115610ea1575b5015158152f35b6301ffc9a760e01b14905083610e9a565b600435906001600160a01b0382168203610ec857565b600080fd5b602435906001600160a01b0382168203610ec857565b15610eea57565b60405162461bcd60e51b8152602060048201526024808201527f41757468436f6e74726f6c3a2043616c6c6572206973206e6f7420746865206f6044820152633bb732b960e11b6064820152608490fd5b33600090815260008051602061149c833981519152602052604090205460ff1690565b90601f8019910116810190811067ffffffffffffffff821117610f8057604052565b634e487b7160e01b600052604160045260246000fd5b90816020910312610ec857518015158103610ec85790565b80600052600460205260406000203360005260205260ff6040600020541615610fd45750565b6044906040519063e2517d3f60e01b82523360048301526024820152fd5b6001600160a01b031660008181527f2fb794d17134dfdec181ddbac1babb5ab1eb140204ef4d982f294e7fc8b6902260205260408120549091906000805160206114dc8339815191529060ff1661107c5780835260046020526040832082845260205260408320600160ff1982541617905560008051602061147c833981519152339380a4600190565b505090565b6001600160a01b031660008181527f2ed987ab732d519c59d4a2f2f586b9ca6af9f18905fa2093aceeb8d462ffc84260205260408120549091906000805160206114bc8339815191529060ff1661107c5780835260046020526040832082845260205260408320600160ff1982541617905560008051602061147c833981519152339380a4600190565b6001600160a01b0316600081815260008051602061149c833981519152602052604081205490919060ff166111745781805260046020526040822081835260205260408220600160ff19825416179055339160008051602061147c8339815191528180a4600190565b5090565b906000918083526004602052604083209160018060a01b03169182845260205260ff6040842054161560001461107c5780835260046020526040832082845260205260408320600160ff1982541617905560008051602061147c833981519152339380a4600190565b6001600160a01b031660008181527f2ed987ab732d519c59d4a2f2f586b9ca6af9f18905fa2093aceeb8d462ffc84260205260408120549091906000805160206114bc8339815191529060ff161561107c578083526004602052604083208284526020526040832060ff1981541690556000805160206114fc833981519152339380a4600190565b6001600160a01b031660008181527f2fb794d17134dfdec181ddbac1babb5ab1eb140204ef4d982f294e7fc8b6902260205260408120549091906000805160206114dc8339815191529060ff161561107c578083526004602052604083208284526020526040832060ff1981541690556000805160206114fc833981519152339380a4600190565b6001600160a01b0316600081815260008051602061149c833981519152602052604081205490919060ff1615611174578180526004602052604082208183526020526040822060ff19815416905533916000805160206114fc8339815191528180a4600190565b906000918083526004602052604083209160018060a01b03169182845260205260ff60408420541660001461107c578083526004602052604083208284526020526040832060ff1981541690556000805160206114fc833981519152339380a4600190565b6040516323b872dd60e01b81526001600160a01b03928316600482015292821660248401526044830193909352909160209183916064918391600091165af190811561146f57600091611450575b501561141357565b60405162461bcd60e51b8152602060048201526015602482015274151bdad95b881d1c985b9cd9995c8819985a5b1959605a1b6044820152606490fd5b611469915060203d6020116107985761078a8183610f5e565b3861140b565b6040513d6000823e3d90fdfe2f8788117e7eff1d82e926ec794901d17c78024a50270940304540a733656f0d17ef568e3e12ab5b9c7254a8d58478811de00f9e6eb34345acd53bf8fd09d3ecfcb9fcbfa83b897fb2d5cf4b58962164105c1e71489a37ef3ae0db3fdce576f6df8b4c520ffe197c5343c6f5aec59570151ef9a492f2c624fd45ddde6135ec42f6391f5c32d9c69d2a47ea670b442974b53935d1edc7fd64eb21e047a839171ba2646970667358221220f42865c4290adef0362fc620d1f46a6252c764def756300f5556b12352c9364a64736f6c63430008190033",
  "linkReferences": {},
  "deployedLinkReferences": {}
}