{"abi":[{"type":"receive","stateMutability":"payable"},{"type":"function","name":"ADMIN_ROLE","inputs":[],"outputs":[{"name":"","type":"bytes32","internalType":"bytes32"}],"stateMutability":"view"},{"type":"function","name":"DEFAULT_ADMIN_ROLE","inputs":[],"outputs":[{"name":"","type":"bytes32","internalType":"bytes32"}],"stateMutability":"view"},{"type":"function","name":"DIVIDER","inputs":[],"outputs":[{"name":"","type":"uint8","internalType":"uint8"}],"stateMutability":"view"},{"type":"function","name":"PAUSE_ROLE","inputs":[],"outputs":[{"name":"","type":"bytes32","internalType":"bytes32"}],"stateMutability":"view"},{"type":"function","name":"addAdmin","inputs":[{"name":"account","type":"address","internalType":"address"}],"outputs":[],"stateMutability":"nonpayable"},{"type":"function","name":"addPauser","inputs":[{"name":"account","type":"address","internalType":"address"}],"outputs":[],"stateMutability":"nonpayable"},{"type":"function","name":"aliveImplementation","inputs":[{"name":"","type":"address","internalType":"address"}],"outputs":[{"name":"","type":"bool","internalType":"bool"}],"stateMutability":"view"},{"type":"function","name":"getCallbackGasLimit","inputs":[],"outputs":[{"name":"","type":"uint32","internalType":"uint32"}],"stateMutability":"view"},{"type":"function","name":"getGemFactoryAddress","inputs":[],"outputs":[{"name":"","type":"address","internalType":"address"}],"stateMutability":"view"},{"type":"function","name":"getPaused","inputs":[],"outputs":[{"name":"","type":"bool","internalType":"bool"}],"stateMutability":"view"},{"type":"function","name":"getPerfectCommonGemURI","inputs":[],"outputs":[{"name":"","type":"string","internalType":"string"}],"stateMutability":"view"},{"type":"function","name":"getRandomPackFees","inputs":[],"outputs":[{"name":"","type":"uint256","internalType":"uint256"}],"stateMutability":"view"},{"type":"function","name":"getRequestCount","inputs":[],"outputs":[{"name":"","type":"uint256","internalType":"uint256"}],"stateMutability":"view"},{"type":"function","name":"getRoleAdmin","inputs":[{"name":"role","type":"bytes32","internalType":"bytes32"}],"outputs":[{"name":"","type":"bytes32","internalType":"bytes32"}],"stateMutability":"view"},{"type":"function","name":"getTreasuryAddress","inputs":[],"outputs":[{"name":"","type":"address","internalType":"address"}],"stateMutability":"view"},{"type":"function","name":"grantRole","inputs":[{"name":"role","type":"bytes32","internalType":"bytes32"},{"name":"account","type":"address","internalType":"address"}],"outputs":[],"stateMutability":"nonpayable"},{"type":"function","name":"hasRole","inputs":[{"name":"role","type":"bytes32","internalType":"bytes32"},{"name":"account","type":"address","internalType":"address"}],"outputs":[{"name":"","type":"bool","internalType":"bool"}],"stateMutability":"view"},{"type":"function","name":"initialize","inputs":[{"name":"_coordinator","type":"address","internalType":"address"},{"name":"_gemFactory","type":"address","internalType":"address"},{"name":"_treasury","type":"address","internalType":"address"},{"name":"_randomPackFees","type":"uint256","internalType":"uint256"}],"outputs":[],"stateMutability":"nonpayable"},{"type":"function","name":"isAdmin","inputs":[{"name":"account","type":"address","internalType":"address"}],"outputs":[{"name":"","type":"bool","internalType":"bool"}],"stateMutability":"view"},{"type":"function","name":"isOwner","inputs":[],"outputs":[{"name":"","type":"bool","internalType":"bool"}],"stateMutability":"view"},{"type":"function","name":"isPauser","inputs":[{"name":"account","type":"address","internalType":"address"}],"outputs":[{"name":"","type":"bool","internalType":"bool"}],"stateMutability":"view"},{"type":"function","name":"onERC721Received","inputs":[{"name":"","type":"address","internalType":"address"},{"name":"","type":"address","internalType":"address"},{"name":"","type":"uint256","internalType":"uint256"},{"name":"","type":"bytes","internalType":"bytes"}],"outputs":[{"name":"","type":"bytes4","internalType":"bytes4"}],"stateMutability":"pure"},{"type":"function","name":"pause","inputs":[],"outputs":[],"stateMutability":"nonpayable"},{"type":"function","name":"pauseProxy","inputs":[],"outputs":[{"name":"","type":"bool","internalType":"bool"}],"stateMutability":"view"},{"type":"function","name":"proxyImplementation","inputs":[{"name":"","type":"uint256","internalType":"uint256"}],"outputs":[{"name":"","type":"address","internalType":"address"}],"stateMutability":"view"},{"type":"function","name":"rawFulfillRandomWords","inputs":[{"name":"requestId","type":"uint256","internalType":"uint256"},{"name":"randomWord","type":"uint256","internalType":"uint256"}],"outputs":[],"stateMutability":"nonpayable"},{"type":"function","name":"removeAdmin","inputs":[],"outputs":[],"stateMutability":"nonpayable"},{"type":"function","name":"removePauser","inputs":[{"name":"account","type":"address","internalType":"address"}],"outputs":[],"stateMutability":"nonpayable"},{"type":"function","name":"renounceRole","inputs":[{"name":"role","type":"bytes32","internalType":"bytes32"},{"name":"callerConfirmation","type":"address","internalType":"address"}],"outputs":[],"stateMutability":"nonpayable"},{"type":"function","name":"requestRandomGem","inputs":[],"outputs":[{"name":"","type":"uint256","internalType":"uint256"}],"stateMutability":"payable"},{"type":"function","name":"revokeRole","inputs":[{"name":"role","type":"bytes32","internalType":"bytes32"},{"name":"account","type":"address","internalType":"address"}],"outputs":[],"stateMutability":"nonpayable"},{"type":"function","name":"s_requests","inputs":[{"name":"","type":"uint256","internalType":"uint256"}],"outputs":[{"name":"randomWord","type":"uint256","internalType":"uint256"},{"name":"chosenTokenId","type":"uint256","internalType":"uint256"},{"name":"requester","type":"address","internalType":"address"},{"name":"requested","type":"bool","internalType":"bool"},{"name":"fulfilled","type":"bool","internalType":"bool"}],"stateMutability":"view"},{"type":"function","name":"selectorImplementation","inputs":[{"name":"","type":"bytes4","internalType":"bytes4"}],"outputs":[{"name":"","type":"address","internalType":"address"}],"stateMutability":"view"},{"type":"function","name":"setCallbackGasLimit","inputs":[{"name":"_callbackGasLimit","type":"uint32","internalType":"uint32"}],"outputs":[],"stateMutability":"nonpayable"},{"type":"function","name":"setGemFactory","inputs":[{"name":"_gemFactory","type":"address","internalType":"address"}],"outputs":[],"stateMutability":"nonpayable"},{"type":"function","name":"setPerfectCommonGemURI","inputs":[{"name":"_tokenURI","type":"string","internalType":"string"}],"outputs":[],"stateMutability":"nonpayable"},{"type":"function","name":"setProbabilities","inputs":[{"name":"_commonProb","type":"uint8","internalType":"uint8"},{"name":"_rareProb","type":"uint8","internalType":"uint8"},{"name":"_uniqueProb","type":"uint8","internalType":"uint8"},{"name":"_epicProb","type":"uint8","internalType":"uint8"},{"name":"_legendaryProb","type":"uint8","internalType":"uint8"},{"name":"_mythicProb","type":"uint8","internalType":"uint8"}],"outputs":[],"stateMutability":"nonpayable"},{"type":"function","name":"setRandomPackFees","inputs":[{"name":"_randomPackFees","type":"uint256","internalType":"uint256"}],"outputs":[],"stateMutability":"nonpayable"},{"type":"function","name":"setTreasury","inputs":[{"name":"_treasury","type":"address","internalType":"address"}],"outputs":[],"stateMutability":"nonpayable"},{"type":"function","name":"supportsInterface","inputs":[{"name":"interfaceId","type":"bytes4","internalType":"bytes4"}],"outputs":[{"name":"","type":"bool","internalType":"bool"}],"stateMutability":"view"},{"type":"function","name":"transferOwnership","inputs":[{"name":"newOwner","type":"address","internalType":"address"}],"outputs":[],"stateMutability":"nonpayable"},{"type":"function","name":"unpause","inputs":[],"outputs":[],"stateMutability":"nonpayable"},{"type":"event","name":"CallBackGasLimitUpdated","inputs":[{"name":"_callbackGasLimit","type":"uint256","indexed":false,"internalType":"uint256"}],"anonymous":false},{"type":"event","name":"CommonGemMinted","inputs":[],"anonymous":false},{"type":"event","name":"CommonGemToBeMinted","inputs":[],"anonymous":false},{"type":"event","name":"EthSentBack","inputs":[{"name":"amount","type":"uint256","indexed":false,"internalType":"uint256"}],"anonymous":false},{"type":"event","name":"GemFactoryAddressUpdated","inputs":[{"name":"gemFactory","type":"address","indexed":false,"internalType":"address"}],"anonymous":false},{"type":"event","name":"PerfectCommonGemURIUpdated","inputs":[{"name":"_tokenURI","type":"string","indexed":false,"internalType":"string"}],"anonymous":false},{"type":"event","name":"RandomGemRequested","inputs":[{"name":"requestor","type":"address","indexed":false,"internalType":"address"},{"name":"requestId","type":"uint256","indexed":false,"internalType":"uint256"}],"anonymous":false},{"type":"event","name":"RandomGemToBeTransferred","inputs":[{"name":"tokenId","type":"uint256","indexed":false,"internalType":"uint256"},{"name":"newOwner","type":"address","indexed":false,"internalType":"address"}],"anonymous":false},{"type":"event","name":"RandomGemTransferred","inputs":[{"name":"tokenId","type":"uint256","indexed":false,"internalType":"uint256"},{"name":"newOwner","type":"address","indexed":false,"internalType":"address"}],"anonymous":false},{"type":"event","name":"RandomPackFeesUpdated","inputs":[{"name":"randomPackFees","type":"uint256","indexed":false,"internalType":"uint256"}],"anonymous":false},{"type":"event","name":"RoleAdminChanged","inputs":[{"name":"role","type":"bytes32","indexed":true,"internalType":"bytes32"},{"name":"previousAdminRole","type":"bytes32","indexed":true,"internalType":"bytes32"},{"name":"newAdminRole","type":"bytes32","indexed":true,"internalType":"bytes32"}],"anonymous":false},{"type":"event","name":"RoleGranted","inputs":[{"name":"role","type":"bytes32","indexed":true,"internalType":"bytes32"},{"name":"account","type":"address","indexed":true,"internalType":"address"},{"name":"sender","type":"address","indexed":true,"internalType":"address"}],"anonymous":false},{"type":"event","name":"RoleRevoked","inputs":[{"name":"role","type":"bytes32","indexed":true,"internalType":"bytes32"},{"name":"account","type":"address","indexed":true,"internalType":"address"},{"name":"sender","type":"address","indexed":true,"internalType":"address"}],"anonymous":false},{"type":"event","name":"TreasuryAddressUpdated","inputs":[{"name":"treasury","type":"address","indexed":false,"internalType":"address"}],"anonymous":false},{"type":"error","name":"AccessControlBadConfirmation","inputs":[]},{"type":"error","name":"AccessControlUnauthorizedAccount","inputs":[{"name":"account","type":"address","internalType":"address"},{"name":"neededRole","type":"bytes32","internalType":"bytes32"}]},{"type":"error","name":"AlreadyInitialized","inputs":[]},{"type":"error","name":"FailedToPayFees","inputs":[]},{"type":"error","name":"FailedToSendEthBack","inputs":[]},{"type":"error","name":"FailedToSendFeesToTreasury","inputs":[]},{"type":"error","name":"InvalidAddress","inputs":[]},{"type":"error","name":"OnlyCoordinatorCanFulfill","inputs":[{"name":"have","type":"address","internalType":"address"},{"name":"want","type":"address","internalType":"address"}]},{"type":"error","name":"RandomPackFeesEqualToZero","inputs":[]},{"type":"error","name":"ReentrancyGuardReentrantCall","inputs":[]},{"type":"error","name":"RequestNotMade","inputs":[]},{"type":"error","name":"SameAdmin","inputs":[]},{"type":"error","name":"SameOwner","inputs":[]},{"type":"error","name":"ZeroAddress","inputs":[]},{"type":"error","name":"invalidProbabilities","inputs":[]}],"bytecode":{"object":"0x60806040523461002257610011610027565b604051612a4761013e8239612a4790f35b600080fd5b61002f6100a7565b565b9060ff905b9181191691161790565b90565b9061005361004061005a92151590565b8254610031565b9055565b9061ff009060081b610036565b9061007b61004061005a92151590565b825461005e565b9062ff00009060101b610036565b906100a061004061005a92151590565b8254610082565b6100af6100d3565b6100bb6000600e610043565b6100c76000600e61006b565b61002f6000600e610090565b61002f61002f61002f61002f61002f61002f61002f61002f61002f61012b565b6100406100406100409290565b61004060016100f3565b9060001990610036565b9061012461004061005a926100f3565b825461010a565b61002f610136610100565b600461011456fe60806040526004361015610023575b361561001957600080fd5b610021611e4e565b005b60003560e01c806301ffc9a7146102c3578063150b7a02146102be57806315c01616146102b9578063184fa84f146102b4578063248a9ca3146102af57806324d7806c146102aa57806325b5b3b2146102a55780632f2ff15d146102a057806336568abe1461029b57806337ed11db14610296578063389ed267146102915780633be7bcbf1461028c5780633db8df98146102875780633f4ba83a146102825780633fad18341461027d57806346fbf68e1461027857806350d2a27614610273578063550d01a31461026e57806362043bd81461026957806363a8fd89146102645780636805b84b1461025f5780636b2c0f551461025a5780636ecd19cb14610255578063704802751461025057806375b238fc1461024b57806382dc1ec4146102465780638456cb59146102415780638f32d59b1461023c57806391d14854146102375780639a202d47146102325780639d541be21461022d578063a168fa8914610228578063a217fddf14610223578063a4eb718c1461021e578063b911135f14610219578063cf756fdf14610214578063d547741f1461020f578063de8be8e71461020a578063e002460414610205578063e614751814610200578063f0f44260146101fb5763f2fde38b0361000e57610d96565b610d7e565b610d66565b610d4b565b610d19565b610d00565b610ce4565b610c94565b610c6c565b610c24565b610be1565b610ad3565b610abb565b610a9f565b610a84565b610a6c565b610a54565b610a39565b6109f5565b6109dd565b6108de565b6108c3565b6108a8565b61086e565b610834565b6107ae565b610721565b610706565b6106ee565b6106d8565b6106b9565b61062e565b6105e9565b6105ad565b610594565b610554565b610539565b61050a565b6104ca565b6104a3565b6103f2565b61030a565b6001600160e01b031981165b036102db57565b600080fd5b905035906102ed826102c8565b565b906020828203126102db57610303916102e0565b90565b9052565b346102db576103376103256103203660046102ef565b610dae565b60405191829182901515815260200190565b0390f35b6001600160a01b031690565b6102d48161033b565b905035906102ed82610347565b806102d4565b905035906102ed8261035d565b909182601f830112156102db578135916001600160401b0383116102db5760200192600183028401116102db57565b906080828203126102db576103b48183610350565b926103c28260208501610350565b926103d08360408301610363565b9260608201356001600160401b0381116102db576103ee9201610370565b9091565b346102db5761033761041161040836600461039f565b93929092610dd0565b604051918291826001600160e01b0319909116815260200190565b60009103126102db57565b60005b83811061044a5750506000910152565b818101518382015260200161043a565b61047b61048460209361048e9361046f815190565b80835293849260200190565b95869101610437565b601f01601f191690565b0190565b60208082526103039291019061045a565b346102db576104b336600461042c565b6103376104be610ee3565b60405191829182610492565b346102db576104da36600461042c565b6103376104e5610eed565b6040515b9182918290815260200190565b906020828203126102db5761030391610363565b346102db576103376104e56105203660046104f6565b610efd565b906020828203126102db5761030391610350565b346102db5761033761032561054f366004610525565b610f1c565b346102db5761056c6105673660046104f6565b611024565b604051005b91906040838203126102db5761030390602061058d8286610363565b9401610350565b346102db5761056c6105a7366004610571565b90611050565b346102db5761056c6105c0366004610571565b9061105a565b91906040838203126102db576103039060206105e28286610363565b9401610363565b346102db5761056c6105fc3660046105c6565b906110b4565b7ffcb9fcbfa83b897fb2d5cf4b58962164105c1e71489a37ef3ae0db3fdce576f690565b610303610602565b346102db5761063e36600461042c565b6103376104e5610626565b60ff81166102d4565b905035906102ed82610649565b909160c0828403126102db576106758383610652565b926106838160208501610652565b926106918260408301610652565b926103036106a28460608501610652565b9360a06106b28260808701610652565b9401610652565b346102db5761056c6106cc36600461065f565b94939093929192611302565b6106e336600461042c565b6103376104e561167d565b346102db576106fe36600461042c565b61056c611713565b346102db5761071636600461042c565b6103376104e561171b565b346102db57610337610325610737366004610525565b611725565b6001600160e01b03191690565b906107539061073c565b600052602052604060002090565b610303916008021c6001600160a01b031690565b906103039154610761565b6000610790610303926003610749565b610775565b6103069061033b565b6020810192916102ed9190610795565b346102db576103376107c96107c43660046102ef565b610780565b6040519182918261079e565b6103039061033b906001600160a01b031682565b610303906107d5565b610303906107e9565b90610753906107f2565b610303916008021c5b60ff1690565b906103039154610805565b600061082f6103039260026107fb565b610814565b346102db5761033761032561084a366004610525565b61081f565b61080e6103036103039290565b610303606461084f565b61030361085c565b346102db5761087e36600461042c565b610337610889610866565b6040519182918260ff909116815260200190565b610303600080610814565b346102db576108b836600461042c565b61033761032561089d565b346102db576108d336600461042c565b610337610325611731565b346102db5761056c6108f1366004610525565b6117e2565b634e487b7160e01b600052604160045260246000fd5b90601f01601f191681019081106001600160401b0382111761092d57604052565b6108f6565b906102ed61093f60405190565b928361090c565b6001600160401b03811161092d57602090601f01601f19160190565b90826000939282370152565b9092919261098361097e82610946565b610932565b93818552818301116102db576102ed916020850190610962565b9080601f830112156102db578160206103039335910161096e565b906020828203126102db5781356001600160401b0381116102db57610303920161099d565b346102db5761056c6109f03660046109b8565b6119c5565b346102db5761056c610a08366004610525565b6119ee565b7fdf8b4c520ffe197c5343c6f5aec59570151ef9a492f2c624fd45ddde6135ec4290565b610303610a0d565b346102db57610a4936600461042c565b6103376104e5610a31565b346102db5761056c610a67366004610525565b611a12565b346102db57610a7c36600461042c565b61056c611a48565b346102db57610a9436600461042c565b610337610325611a50565b346102db57610337610325610ab5366004610571565b90611a5b565b346102db57610acb36600461042c565b61056c611af9565b346102db57610ae336600461042c565b6103376107c9611b01565b6103036103036103039290565b9061075390610aee565b6103039081565b6103039054610b05565b6103039061033b565b6103039054610b16565b6103039060a01c61080e565b6103039054610b29565b6103039060a81c61080e565b6103039054610b3f565b610b60906007610afb565b610b6981610b0c565b91610b7660018301610b0c565b91610b8360028201610b1f565b916103036002610b94818501610b35565b9301610b4b565b909594926102ed94610bd0610bd992610bc6608096610bbf60a088019c6000890152565b6020870152565b6040850190610795565b15156060830152565b019015159052565b346102db57610337610bfc610bf73660046104f6565b610b55565b91610c0995939560405190565b95869586610b9b565b6103036000610aee565b610303610c12565b346102db57610c3436600461042c565b6103376104e5610c1c565b63ffffffff81166102d4565b905035906102ed82610c3f565b906020828203126102db5761030391610c4b565b346102db5761056c610c7f366004610c58565b611bc3565b6000610790610303926001610afb565b346102db576103376107c9610caa3660046104f6565b610c84565b6080818303126102db57610cc38282610350565b92610303610cd48460208501610350565b9360606105e28260408701610350565b346102db5761056c610cf7366004610caf565b92919091611c37565b346102db5761056c610d13366004610571565b90611cda565b346102db57610d2936600461042c565b610337610d34611ce4565b6040519182918263ffffffff909116815260200190565b346102db57610d5b36600461042c565b6103376107c9611cee565b346102db5761056c610d79366004610525565b611d52565b346102db5761056c610d91366004610525565b611db5565b346102db5761056c610da9366004610525565b611e45565b61030390611e88565b61073c610dca6103039263ffffffff1690565b60e01b90565b5050505050610ddd600090565b5061030363150b7a02610db7565b634e487b7160e01b600052602260045260246000fd5b9060016002830492168015610e21575b6020831014610e1c57565b610deb565b91607f1691610e11565b80546000939291610e48610e3e83610e01565b8085529360200190565b9160018116908115610e9a5750600114610e6157505050565b610e749192939450600052602060002090565b916000925b818410610e865750500190565b805484840152602090930192600101610e79565b92949550505060ff1916825215156020020190565b9061030391610e2b565b906102ed610ed392610eca60405190565b93848092610eaf565b038361090c565b61030390610eb9565b610303600d610eda565b610303600c610b0c565b90610753565b6001610f1661030392610f0e600090565b506005610ef7565b01610b0c565b61030390610f28610a0d565b611a5b565b15610f3457565b60405162461bcd60e51b8152602060048201526024808201527f41757468436f6e74726f6c3a2043616c6c6572206973206e6f7420746865206f6044820152633bb732b960e11b6064820152608490fd5b0390fd5b6102ed90610f9d610f98611a50565b610f2d565b610fcd565b90600019905b9181191691161790565b90610fc2610303610fc992610aee565b8254610fa2565b9055565b610fd76000610aee565b81146110125761100d816104e57fa9ba7fa833bd01c7d078c99360f9c0764c1de898c3300802f43fd0ec1dee717c93600c610fb2565b0390a1565b60405163173ecfb760e31b8152600490fd5b6102ed90610f89565b906102ed9161104361103e82610efd565b611ec2565b9061104d91611ecd565b50565b906102ed9161102d565b906110693361033b565b61033b565b6110728261033b565b036110805761104d91611f4f565b60405163334bd91960e11b8152600490fd5b9160206102ed9294936110ad60408201966000830190610795565b0190610795565b906110ca6110646110c56006610b1f565b6107f2565b6110d33361033b565b036110e1576102ed91612057565b610f856110f16110c56006610b1f565b60405163073e64fd60e21b81529182913360048401611092565b906102ed959493929161111f610f98611a50565b6111b9565b634e487b7160e01b600052601160045260246000fd5b6111499060ff165b9160ff1690565b019060ff821161115557565b611124565b906107539061084f565b9060ff90610fa8565b61080e6103036103039260ff1690565b9061118d610303610fc99261116d565b8254611164565b9062ff00009060101b610fa8565b906111b2610303610fc992151590565b8254611194565b949390916000916111c98361084f565b60ff881614806112ee575b806112da575b806112c6575b806112b2575b8061129e575b61128c576112108661120b8361120b8961120b8861120b8f8d9061113a565b61113a565b61121e61114261080e61085c565b0361128c5761127061124a9561126561127b9461125a60059861124f6112809d61124a600f9b8c61115a565b61117d565b61124a60018a61115a565b61124a60028861115a565b61124a60038661115a565b61124a60048461115a565b61115a565b6102ed6001600e6111a2565b604051630d6a7ef360e41b8152600490fd5b506112a88361084f565b60ff8716146111ec565b506112bc8361084f565b60ff8216146111e6565b506112d08361084f565b60ff8616146111e0565b506112e48361084f565b60ff8316146111da565b506112f88361084f565b60ff8516146111d4565b906102ed959493929161110b565b6103039061080e565b6103039054611310565b1561132a57565b60405162461bcd60e51b815260206004820152601060248201526f14185d5cd8589b194e881c185d5cd95960821b6044820152606490fd5b6103039061137f61137a611376600e611319565b1590565b611323565b6113909061138b6121f2565b6114aa565b906102ed612232565b6103039060101c61080e565b6103039054611399565b61033b6103036103039290565b610303906113af565b906113d261097e83610946565b918252565b3d156113f1576113e63d6113c5565b903d6000602084013e565b606090565b6103039060181c5b63ffffffff1690565b61030390546113f6565b61141e6103036103039290565b61ffff1690565b9060ff60a01b9060a01b610fa8565b90611444610303610fc992151590565b8254611425565b906001600160a01b0390610fa8565b9061146a610303610fc9926107f2565b825461144b565b9190820180921161115557565b9190820391821161115557565b9160206102ed9294936114a660408201966000830190610795565b0152565b506114b8611376600e6113a5565b61128c5760006114ca611064826113bc565b6114d33361033b565b1461166b5761150781806114e6306107f2565b6114f0600c610b0c565b60405190818003925af16115026113d7565b501590565b61165957611527611518600e611407565b61152183611411565b806122ac565b91906115416001600261153b866007610afb565b01611434565b61155961154f846007610afb565b600233910161145a565b61157661156f611569600b610b0c565b60010190565b600b610fb2565b61158c610303611586600c610b0c565b83611471565b34116115d1575b50507fc2b05df6babf2be3ce649000124d86f0e7de5e71f99b8edb50dfb2f20a7569ae6115bf60405190565b806115cb84338361148b565b0390a190565b6115f16115e161160b923461147e565b6115eb600c610b0c565b9061147e565b91806115fc60405190565b60009085335af16115026113d7565b6116475761163d7f27468d49151596d3863ccb02e3911b3146a62533facd0765451ba556bb4fd9c8916104e960405190565b0390a13880611593565b604051631e53f7e560e11b8152600490fd5b6040516315c6fba760e01b8152600490fd5b60405163e6c4247b60e01b8152600490fd5b6103036000611362565b611692610f98611a50565b6102ed6116dd565b156116a157565b60405162461bcd60e51b815260206004820152601460248201527314185d5cd8589b194e881b9bdd081c185d5cd95960621b6044820152606490fd5b6116ef6116ea600e611319565b61169a565b6102ed611707565b9061118d610303610fc992151590565b6102ed6000600e6116f7565b6102ed611687565b610303600b610b0c565b61030390610f28610602565b610303600e611319565b1561174257565b60405162461bcd60e51b815260206004820152602360248201527f41757468436f6e74726f6c3a2043616c6c6572206973206e6f7420612070617560448201526239b2b960e91b6064820152608490fd5b6102ed906117a96117a2610602565b3390611a5b565b80156117be575b6117b99061173b565b6117d1565b506117b96117ca611a50565b90506117b0565b6102ed906117dd610602565b61105a565b6102ed90611793565b6102ed906117fa610f98611a50565b611995565b9160001960089290920291821b911b610fa8565b9190611824610303610fc993610aee565b9083546117ff565b6102ed91600091611813565b818110611843575050565b80611851600060019361182c565b01611838565b9190601f811161186657505050565b6118786102ed93600052602060002090565b906020601f84018190048301931061189a575b6020601f909101040190611838565b909150819061188b565b9060001960089091021c191690565b816118bd916118a4565b906002021790565b906118ce815190565b906001600160401b03821161092d576118f1826118eb8554610e01565b85611857565b602090601f831160011461191f57610fc9929160009183611914575b50506118b3565b01519050388061190d565b601f1983169161193485600052602060002090565b9260005b81811061197357509160029391856001969410611959575b50505002019055565b611969910151601f8416906118a4565b9055388080611950565b91936020600181928787015181550195019201611938565b906102ed916118c5565b61100d7f5c9db415e672f6d0f9a26180f0ff083c406f4c7aa95aec2c0e9536794035a4d8916104be81600d61198b565b6102ed906117eb565b6102ed906119dd610f98611a50565b6102ed906119e9610a0d565b611050565b6102ed906119ce565b6102ed90611a06610f98611a50565b6102ed906119e9610602565b6102ed906119f7565b611a26610f98611a50565b6102ed611a3961137a611376600e611319565b6102ed6102ed6001600e6116f7565b6102ed611a1b565b6103036117a2610c12565b610303916000611a70611a7693610f0e600090565b016107fb565b611319565b15611a8257565b60405162461bcd60e51b815260206004820152602360248201527f41757468436f6e74726f6c3a2043616c6c6572206973206e6f7420616e20616460448201526236b4b760e91b6064820152608490fd5b611ae4611adf33610f1c565b611a7b565b6102ed6102ed611af2610a0d565b339061105a565b6102ed611ad3565b6103036008610b1f565b6102ed90611b1a610f98611a50565b611b87565b9066ffffffff0000009060181b610fa8565b6113fe6103036103039263ffffffff1690565b90611b54610303610fc992611b31565b8254611b1f565b6103036103036103039263ffffffff1690565b61030690611b5b565b6020810192916102ed9190611b6e565b61100d7fe26fa4acf522c01381834acc8213105df00a52674031c6311f5dc24bd608819f91611bb781600e611b44565b60405191829182611b77565b6102ed90611b0b565b6103039060081c61080e565b6103039054611bcc565b6113fe6103036103039290565b611c046000611bfe8354610e01565b83611857565b60009055565b6102ed90611bef565b9061ff009060081b610fa8565b90611c30610303610fc992151590565b8254611c13565b9291611c43600e611bd8565b611cae57611c74611c7b92611c6d611c8296611c67611c60610c12565b3390611ecd565b506123d7565b600861145a565b600961145a565b600c610fb2565b611c98611c9162200b20611be2565b600e611b44565b611ca2600d611c0a565b6102ed6001600e611c20565b60405162dc149f60e41b8152600490fd5b906102ed91611cd061103e82610efd565b9061104d91611f4f565b906102ed91611cbf565b610303600e611407565b6103036009610b1f565b6102ed90611d07610f98611a50565b611d1461106460006113bc565b611d1d8261033b565b1461166b5761100d816107c97fed7acc23c47775012c7b3a370974b91aefab1849cacf173b5ea54273abb4815693600861145a565b6102ed90611cf8565b6102ed90611d6a610f98611a50565b611d7761106460006113bc565b611d808261033b565b1461166b5761100d816107c97fb6a5e89655cf506139085f051af608195ed056f8dc550b180a1c38d401e2b6c493600961145a565b6102ed90611d5b565b6102ed90611dcd610f98611a50565b611dda61106460006113bc565b611de38261033b565b14611e3357611df18161033b565b611dfa3361033b565b14611e21576102ed90611af2611e0e610c12565b91611e198184611050565b6119e9610a0d565b604051630a98f1f360e21b8152600490fd5b60405163d92e233d60e01b8152600490fd5b6102ed90611dbe565b611e70600080611e5e6009610b1f565b60405160009134905af16115026113d7565b611e7657565b6040516305c7acc960e01b8152600490fd5b637965db0b60e01b6001600160e01b0319821614908115611ea7575090565b61030391506001600160e01b0319166301ffc9a760e01b1490565b6102ed9033906123ea565b611eda6113768383611a5b565b15611f4857611efa6001611ef5846000611a70866005610ef7565b6116f7565b611f14611f0e611f08339390565b936107f2565b916107f2565b917f2f8788117e7eff1d82e926ec794901d17c78024a50270940304540a733656f0d611f3f60405190565b600090a4600190565b5050600090565b611f598282611a5b565b15611f4857611f736000611ef58482611a70866005610ef7565b611f81611f0e611f08339390565b917ff6391f5c32d9c69d2a47ea670b442974b53935d1edc7fd64eb21e047a839171b611f3f60405190565b9060ff60a81b9060a81b610fa8565b90611fcb610303610fc992151590565b8254611fac565b8015156102d4565b905051906102ed82611fd2565b906020828203126102db5761030391611fda565b6040513d6000823e3d90fd5b6103036103036103039260ff1690565b634e487b7160e01b600052601260045260246000fd5b90612037565b9190565b908115612042570690565b612017565b60ff168015611155576000190190565b9060076120676103038483610afb565b9261207761137660028601610b35565b6121d6578260006120a46120aa9360019561209f600160026120998585610afb565b01611fbb565b610afb565b01610fb2565b6120ba6110c56110c56008610b1f565b60206120c560405190565b639aa19da760e01b815291829060049082905afa80156121d1576120ef916000916121a857501590565b61219d5761210c61210661210161085c565b612007565b8361202d565b81612117600561084f565b905b612142575b5050506121359061212f600061084f565b83612860565b61104d576102ed90612548565b61214c600061084f565b60ff821611156121985761216a61030361216583612007565b6126f5565b821015612181575b61217b90612047565b82612119565b61218c848287612860565b15612172575050505050565b61211e565b50506102ed90612548565b611376915060203d6020116121ca575b6121c2818361090c565b810190611fe7565b503d6121b8565b611ffb565b6040516392b8197960e01b8152600490fd5b6103036002610aee565b6121fc6004610b0c565b6122046121e8565b908114612216576102ed906004610fb2565b604051633ee5aeb560e01b8152600490fd5b6103036001610aee565b6102ed61223d612228565b6004610fb2565b6103036060610932565b905051906102ed8261035d565b906020828203126102db576103039161224e565b805161ffff1682526102ed9190604090819060208181015161ffff1690850152015163ffffffff16910152565b6060810192916102ed919061226f565b9092916123059160206122c26110c56006610b1f565b6122ca612244565b61ffff841681529061ffff88168284015263ffffffff851660408301526040519586928391829163a6c278f360e01b5b83526004830161229c565b03915afa9182156121d1576122fa60209361237b956000916123ba575b50809761236b6123356110c56006610b1f565b9461235e63122c162a9361235461234a612244565b61ffff909a168a52565b61ffff16888a0152565b63ffffffff166040870152565b6040519687958694859360e01b90565b03925af19081156121d157600091612391575090565b610303915060203d6020116123b3575b6123ab818361090c565b81019061225b565b503d6123a1565b6123d19150853d87116123b3576123ab818361090c565b38612322565b6123e36102ed916107f2565b600661145a565b906123f86113768284611a5b565b612400575050565b610f8561240c60405190565b63e2517d3f60e01b81529283926004840161148b565b6001600160401b03811161092d5760200290565b61097e61030391612422565b634e487b7160e01b600052602160045260246000fd5b6006111561246257565b612442565b906102ed82612458565b61030390612467565b61030690612471565b61248f61203360029390565b6000915b8383106124a05750505050565b6124bd6124b6600192845160ff16815260200190565b9260200190565b92019190612493565b6124d261203360049390565b6000915b8383106124e35750505050565b6124f96124b6600192845160ff16815260200190565b920191906124d6565b90916103039361252c61253692612522610100860196600087019061247a565b6020850190612483565b60608301906124c6565b60e08183039101526000815260200190565b6125586110c56110c56009610b1f565b6125e5602060009261256a6002612436565b906125866125778661084f565b60ff1686840181905284840152565b6125906004612436565b916125bb61259e600161084f565b60ff16878501819052858501819052604085018190526060850152565b856125c560405190565b8096819582946125d963912b431b60e01b90565b84528460048501612502565b03925af180156121d15761265b9360209284926126bb575b5061260c600182019283610fb2565b61263161262b60026126246110c56110c56009610b1f565b9301610b1f565b92610b0c565b918461263c60405190565b8097819582946126506348dbcef060e01b90565b84526004840161148b565b03925af19081156121d1575061269e575b507fdd20b2dff2d53ef41435ad0074aea6e1ce693777fcc9ea8e76c76a8f3607dd2161269760405190565b808061100d565b6126b69060203d6020116121ca576121c2818361090c565b61266c565b6126d3919250833d85116123b3576123ab818361090c565b90386125fd565b60ff1660ff81146111555760010190565b906107539061116d565b6126ff600061084f565b91825b6127186103036127126001610aee565b8561147e565b61272185612007565b116127565761030361274d61274761271893612741611a7689600f6126eb565b9061113a565b956126da565b94915050612702565b9092506103039150612007565b6001600160401b03811161092d5760208091020190565b9092919261278a61097e82612763565b93818552602080860192028301928184116102db57915b8383106127ae5750505050565b602080916127bc848661224e565b8152019201916127a1565b9080601f830112156102db5781516103039260200161277a565b9190916040818403126102db576127f8838261224e565b9260208201516001600160401b0381116102db5761030392016127c7565b634e487b7160e01b600052603260045260246000fd5b90612835825190565b811015612846576020809102010190565b612816565b9081526040810192916102ed916020906110ad565b9091612870611a7684600f6126eb565b92600080946128816111428361084f565b1161288e575b5050505090565b6128c7916128a26110c56110c56008610b1f565b604051938492839182916394ca644960e01b83526004830160ff909116815260200190565b03915afa9182156121d157849185936129eb575b506128e585610aee565b82116128f2575083612887565b61296994926129076129119361290d9361202d565b9061282c565b5190565b90612920600184019283610fb2565b602060026129346110c56110c56009610b1f565b94019361294085610b1f565b9061294a85610b0c565b918461295560405190565b8099819582946126506348dbcef060e01b90565b03925af19182156121d1577f5ea50d72ed96185eb6f31884978fae6836ea30ba583e3fb7c32b66135514723c946129b0936129aa93506129ce575b50610b0c565b91610b1f565b906129c66129bd60405190565b9283928361284b565b0390a1600190565b6129e69060203d6020116121ca576121c2818361090c565b6129a4565b909250612a0a91503d8086833e612a02818361090c565b8101906127e1565b91386128db56fea2646970667358221220a0270d0e052dca4c16e5bc4afdfa9516263dc61d34e0336b1a73143495c6bb1264736f6c63430008190033","linkReferences":{}},"methodIdentifiers":{"ADMIN_ROLE()":"75b238fc","DEFAULT_ADMIN_ROLE()":"a217fddf","DIVIDER()":"62043bd8","PAUSE_ROLE()":"389ed267","addAdmin(address)":"70480275","addPauser(address)":"82dc1ec4","aliveImplementation(address)":"550d01a3","getCallbackGasLimit()":"de8be8e7","getGemFactoryAddress()":"9d541be2","getPaused()":"6805b84b","getPerfectCommonGemURI()":"15c01616","getRandomPackFees()":"184fa84f","getRequestCount()":"3fad1834","getRoleAdmin(bytes32)":"248a9ca3","getTreasuryAddress()":"e0024604","grantRole(bytes32,address)":"2f2ff15d","hasRole(bytes32,address)":"91d14854","initialize(address,address,address,uint256)":"cf756fdf","isAdmin(address)":"24d7806c","isOwner()":"8f32d59b","isPauser(address)":"46fbf68e","onERC721Received(address,address,uint256,bytes)":"150b7a02","pause()":"8456cb59","pauseProxy()":"63a8fd89","proxyImplementation(uint256)":"b911135f","rawFulfillRandomWords(uint256,uint256)":"37ed11db","removeAdmin()":"9a202d47","removePauser(address)":"6b2c0f55","renounceRole(bytes32,address)":"36568abe","requestRandomGem()":"3db8df98","revokeRole(bytes32,address)":"d547741f","s_requests(uint256)":"a168fa89","selectorImplementation(bytes4)":"50d2a276","setCallbackGasLimit(uint32)":"a4eb718c","setGemFactory(address)":"e6147518","setPerfectCommonGemURI(string)":"6ecd19cb","setProbabilities(uint8,uint8,uint8,uint8,uint8,uint8)":"3be7bcbf","setRandomPackFees(uint256)":"25b5b3b2","setTreasury(address)":"f0f44260","supportsInterface(bytes4)":"01ffc9a7","transferOwnership(address)":"f2fde38b","unpause()":"3f4ba83a"},"id":74}