{"abi":[{"type":"function","name":"l1ton","inputs":[],"outputs":[{"name":"","type":"address","internalType":"address"}],"stateMutability":"view"},{"type":"function","name":"l1wton","inputs":[],"outputs":[{"name":"","type":"address","internalType":"address"}],"stateMutability":"view"},{"type":"function","name":"wstonImplementation","inputs":[],"outputs":[{"name":"","type":"address","internalType":"address"}],"stateMutability":"view"},{"type":"event","name":"L1WrappedStakedTONContractUgraded","inputs":[{"name":"newImplementation","type":"address","indexed":false,"internalType":"address"}],"anonymous":false},{"type":"event","name":"WSTONTokenCreated","inputs":[{"name":"wston","type":"address","indexed":true,"internalType":"address"},{"name":"layer2Address","type":"address","indexed":true,"internalType":"address"}],"anonymous":false},{"type":"error","name":"AlreadyInitialized","inputs":[]},{"type":"error","name":"NotContractOwner","inputs":[]}],"bytecode":{"object":"0x608060405234601d575b600f6021565b6101f661002d82396101f690f35b6027565b60405190565b600080fdfe60806040526004361015610013575b6101bb565b61001e600035610055565b806315a327d314610050575b80631d03a0091461004b575b63d21bae6614610046575b61000e565b610185565b610141565b6100fc565b60e01c90565b60405190565b600080fd5b600080fd5b6000910312610077575b565b610066565b1c90565b60018060a01b03901690565b61009c9060086100a1930261007c565b610080565b90565b906100af915461008c565b90565b6100be600060016100a4565b90565b60018060a01b03901690565b6100d6906100c1565b90565b6100e2906100cd565b9052565b91906100fa906000602085019401906100d9565b565b3461012d575b61010d36600461006b565b6101296101186100b2565b61012061005b565b918291826100e6565b0390f35b610061565b61013e600060026100a4565b90565b34610172575b61015236600461006b565b61016e61015d610132565b61016561005b565b918291826100e6565b0390f35b610061565b6101826000806100a4565b90565b346101b6575b61019636600461006b565b6101b26101a1610177565b6101a961005b565b918291826100e6565b0390f35b610061565b600080fdfea2646970667358221220c71f51862683a99711e7c23b03f0a64789605488b24112374b414a1f918a61a664736f6c63430008190033","linkReferences":{}},"methodIdentifiers":{"l1ton()":"15a327d3","l1wton()":"d21bae66","wstonImplementation()":"1d03a009"},"id":58}