{"abi":[{"type":"function","name":"ADMIN_ROLE","inputs":[],"outputs":[{"name":"","type":"bytes32","internalType":"bytes32"}],"stateMutability":"view"},{"type":"function","name":"DEFAULT_ADMIN_ROLE","inputs":[],"outputs":[{"name":"","type":"bytes32","internalType":"bytes32"}],"stateMutability":"view"},{"type":"function","name":"PAUSE_ROLE","inputs":[],"outputs":[{"name":"","type":"bytes32","internalType":"bytes32"}],"stateMutability":"view"},{"type":"function","name":"addAdmin","inputs":[{"name":"account","type":"address","internalType":"address"}],"outputs":[],"stateMutability":"nonpayable"},{"type":"function","name":"addPauser","inputs":[{"name":"account","type":"address","internalType":"address"}],"outputs":[],"stateMutability":"nonpayable"},{"type":"function","name":"aliveImplementation","inputs":[{"name":"","type":"address","internalType":"address"}],"outputs":[{"name":"","type":"bool","internalType":"bool"}],"stateMutability":"view"},{"type":"function","name":"createWSTONToken","inputs":[{"name":"_layer2Address","type":"address","internalType":"address"},{"name":"_depositManager","type":"address","internalType":"address"},{"name":"_seigManager","type":"address","internalType":"address"},{"name":"_minimumWithdrawalAmount","type":"uint256","internalType":"uint256"},{"name":"_maxNumWithdrawal","type":"uint8","internalType":"uint8"},{"name":"_name","type":"string","internalType":"string"},{"name":"_symbol","type":"string","internalType":"string"}],"outputs":[{"name":"","type":"address","internalType":"address"}],"stateMutability":"nonpayable"},{"type":"function","name":"getRoleAdmin","inputs":[{"name":"role","type":"bytes32","internalType":"bytes32"}],"outputs":[{"name":"","type":"bytes32","internalType":"bytes32"}],"stateMutability":"view"},{"type":"function","name":"grantRole","inputs":[{"name":"role","type":"bytes32","internalType":"bytes32"},{"name":"account","type":"address","internalType":"address"}],"outputs":[],"stateMutability":"nonpayable"},{"type":"function","name":"hasRole","inputs":[{"name":"role","type":"bytes32","internalType":"bytes32"},{"name":"account","type":"address","internalType":"address"}],"outputs":[{"name":"","type":"bool","internalType":"bool"}],"stateMutability":"view"},{"type":"function","name":"initialize","inputs":[{"name":"_l1wton","type":"address","internalType":"address"},{"name":"_l1ton","type":"address","internalType":"address"}],"outputs":[],"stateMutability":"nonpayable"},{"type":"function","name":"isAdmin","inputs":[{"name":"account","type":"address","internalType":"address"}],"outputs":[{"name":"","type":"bool","internalType":"bool"}],"stateMutability":"view"},{"type":"function","name":"isOwner","inputs":[],"outputs":[{"name":"","type":"bool","internalType":"bool"}],"stateMutability":"view"},{"type":"function","name":"isPauser","inputs":[{"name":"account","type":"address","internalType":"address"}],"outputs":[{"name":"","type":"bool","internalType":"bool"}],"stateMutability":"view"},{"type":"function","name":"l1ton","inputs":[],"outputs":[{"name":"","type":"address","internalType":"address"}],"stateMutability":"view"},{"type":"function","name":"l1wton","inputs":[],"outputs":[{"name":"","type":"address","internalType":"address"}],"stateMutability":"view"},{"type":"function","name":"pauseProxy","inputs":[],"outputs":[{"name":"","type":"bool","internalType":"bool"}],"stateMutability":"view"},{"type":"function","name":"proxyImplementation","inputs":[{"name":"","type":"uint256","internalType":"uint256"}],"outputs":[{"name":"","type":"address","internalType":"address"}],"stateMutability":"view"},{"type":"function","name":"removeAdmin","inputs":[],"outputs":[],"stateMutability":"nonpayable"},{"type":"function","name":"removePauser","inputs":[{"name":"account","type":"address","internalType":"address"}],"outputs":[],"stateMutability":"nonpayable"},{"type":"function","name":"renounceRole","inputs":[{"name":"role","type":"bytes32","internalType":"bytes32"},{"name":"callerConfirmation","type":"address","internalType":"address"}],"outputs":[],"stateMutability":"nonpayable"},{"type":"function","name":"revokeRole","inputs":[{"name":"role","type":"bytes32","internalType":"bytes32"},{"name":"account","type":"address","internalType":"address"}],"outputs":[],"stateMutability":"nonpayable"},{"type":"function","name":"selectorImplementation","inputs":[{"name":"","type":"bytes4","internalType":"bytes4"}],"outputs":[{"name":"","type":"address","internalType":"address"}],"stateMutability":"view"},{"type":"function","name":"setWstonImplementation","inputs":[{"name":"_imp","type":"address","internalType":"address"}],"outputs":[],"stateMutability":"nonpayable"},{"type":"function","name":"supportsInterface","inputs":[{"name":"interfaceId","type":"bytes4","internalType":"bytes4"}],"outputs":[{"name":"","type":"bool","internalType":"bool"}],"stateMutability":"view"},{"type":"function","name":"transferOwnership","inputs":[{"name":"newOwner","type":"address","internalType":"address"}],"outputs":[],"stateMutability":"nonpayable"},{"type":"function","name":"upgradeWstonTo","inputs":[{"name":"wstonProxyAddress","type":"address","internalType":"address"},{"name":"newImplementation","type":"address","internalType":"address"}],"outputs":[],"stateMutability":"nonpayable"},{"type":"function","name":"wstonImplementation","inputs":[],"outputs":[{"name":"","type":"address","internalType":"address"}],"stateMutability":"view"},{"type":"event","name":"L1WrappedStakedTONContractUgraded","inputs":[{"name":"newImplementation","type":"address","indexed":false,"internalType":"address"}],"anonymous":false},{"type":"event","name":"RoleAdminChanged","inputs":[{"name":"role","type":"bytes32","indexed":true,"internalType":"bytes32"},{"name":"previousAdminRole","type":"bytes32","indexed":true,"internalType":"bytes32"},{"name":"newAdminRole","type":"bytes32","indexed":true,"internalType":"bytes32"}],"anonymous":false},{"type":"event","name":"RoleGranted","inputs":[{"name":"role","type":"bytes32","indexed":true,"internalType":"bytes32"},{"name":"account","type":"address","indexed":true,"internalType":"address"},{"name":"sender","type":"address","indexed":true,"internalType":"address"}],"anonymous":false},{"type":"event","name":"RoleRevoked","inputs":[{"name":"role","type":"bytes32","indexed":true,"internalType":"bytes32"},{"name":"account","type":"address","indexed":true,"internalType":"address"},{"name":"sender","type":"address","indexed":true,"internalType":"address"}],"anonymous":false},{"type":"event","name":"WSTONTokenCreated","inputs":[{"name":"wston","type":"address","indexed":true,"internalType":"address"},{"name":"layer2Address","type":"address","indexed":true,"internalType":"address"}],"anonymous":false},{"type":"error","name":"AccessControlBadConfirmation","inputs":[]},{"type":"error","name":"AccessControlUnauthorizedAccount","inputs":[{"name":"account","type":"address","internalType":"address"},{"name":"neededRole","type":"bytes32","internalType":"bytes32"}]},{"type":"error","name":"AlreadyInitialized","inputs":[]},{"type":"error","name":"NotContractOwner","inputs":[]},{"type":"error","name":"SameAdmin","inputs":[]},{"type":"error","name":"SameOwner","inputs":[]},{"type":"error","name":"ZeroAddress","inputs":[]}],"bytecode":{"object":"0x6080604052346019576040516129e061001f82396129e090f35b600080fdfe6080604052600436101561001257600080fd5b60003560e01c806301ffc9a7146101d257806315a327d3146101cd5780631d03a009146101c8578063248a9ca3146101c357806324d7806c146101be5780632f2ff15d146101b957806336568abe146101b4578063389ed267146101af57806346fbf68e146101aa578063485cc955146101a557806350d2a276146101a0578063550d01a31461019b57806363a8fd89146101965780636b2c0f5514610191578063704802751461018c57806375b238fc1461018757806381baed051461018257806382dc1ec41461017d5780638bd49a4f146101785780638f32d59b1461017357806391d148541461016e5780639a202d4714610169578063a217fddf14610164578063b911135f1461015f578063c4bdcb331461015a578063d21bae6614610155578063d547741f146101505763f2fde38b036101d7576108a2565b610889565b61086e565b610840565b6106be565b610689565b610652565b610636565b61061b565b610602565b6105ea565b6105d2565b6105b7565b610573565b61055b565b610540565b61051a565b6104a0565b610458565b610421565b610406565b6103c1565b6103a3565b610365565b610310565b6102ce565b61029a565b610219565b600080fd5b6001600160e01b031981165b036101d757565b905035906101fc826101dc565b565b906020828203126101d757610212916101ef565b90565b9052565b346101d75761024661023461022f3660046101fe565b6108ba565b60405191829182901515815260200190565b0390f35b60009103126101d757565b610212916008021c5b6001600160a01b031690565b906102129154610255565b6102126000600661026a565b6102159061025e565b6020810192916101fc9190610281565b346101d7576102aa36600461024a565b6102466102b5610275565b6040515b9182918261028a565b6102126000600761026a565b346101d7576102de36600461024a565b6102466102b56102c2565b806101e8565b905035906101fc826102e9565b906020828203126101d757610212916102ef565b346101d75761024661032b6103263660046102fc565b6108da565b6040519182918290815260200190565b6101e88161025e565b905035906101fc8261033b565b906020828203126101d75761021291610344565b346101d75761024661023461037b366004610351565b6108f9565b91906040838203126101d75761021290602061039c82866102ef565b9401610344565b346101d7576103bc6103b6366004610380565b9061092d565b604051005b346101d7576103bc6103d4366004610380565b90610937565b7ffcb9fcbfa83b897fb2d5cf4b58962164105c1e71489a37ef3ae0db3fdce576f690565b6102126103da565b346101d75761041636600461024a565b61024661032b6103fe565b346101d757610246610234610437366004610351565b610973565b91906040838203126101d75761021290602061039c8286610344565b346101d7576103bc61046b36600461043c565b906109eb565b906001600160e01b0319165b600052602052604060002090565b600061049b610212926003610471565b61026a565b346101d7576102466102b56104b63660046101fe565b61048b565b6102129061025e906001600160a01b031682565b610212906104bb565b610212906104cf565b9061047d906104d8565b610212916008021c5b60ff1690565b9061021291546104eb565b60006105156102129260026104e1565b6104fa565b346101d757610246610234610530366004610351565b610505565b6102126000806104fa565b346101d75761055036600461024a565b610246610234610535565b346101d7576103bc61056e366004610351565b610ae6565b346101d7576103bc610586366004610351565b610b6c565b7fdf8b4c520ffe197c5343c6f5aec59570151ef9a492f2c624fd45ddde6135ec4290565b61021261058b565b346101d7576105c736600461024a565b61024661032b6105af565b346101d7576103bc6105e5366004610351565b610b8f565b346101d7576103bc6105fd366004610351565b610bb3565b346101d7576103bc61061536600461043c565b90610be9565b346101d75761062b36600461024a565b610246610234610d26565b346101d75761024661023461064c366004610380565b90610d44565b346101d75761066236600461024a565b6103bc610de2565b6102126102126102129290565b610212600061066a565b610212610677565b346101d75761069936600461024a565b61024661032b610681565b9061047d9061066a565b600061049b6102129260016106a4565b346101d7576102466102b56106d43660046102fc565b6106ae565b60ff81166101e8565b905035906101fc826106d9565b634e487b7160e01b600052604160045260246000fd5b90601f01601f191681019081106001600160401b0382111761072657604052565b6106ef565b906101fc61073860405190565b9283610705565b6001600160401b03811161072657602090601f01601f19160190565b0190565b90826000939282370152565b9092919261078061077b8261073f565b61072b565b93818552818301116101d7576101fc91602085019061075f565b9080601f830112156101d7578160206102129335910161076b565b9060e0828203126101d7576107ca8183610344565b926107d88260208501610344565b926107e68360408301610344565b926107f481606084016102ef565b9261080282608085016106e2565b9260a08101356001600160401b0381116101d7578361082291830161079a565b9260c08201356001600160401b0381116101d757610212920161079a565b346101d7576102466102b56108563660046107b5565b959490949391936111a6565b6102126000600561026a565b346101d75761087e36600461024a565b6102466102b5610862565b346101d7576103bc61089c366004610380565b906111d2565b346101d7576103bc6108b5366004610351565b611263565b6102129061126c565b9061047d565b6102129081565b61021290546108c9565b60016108f3610212926108eb600090565b5060046108c3565b016108d0565b6102129061090561058b565b610d44565b906101fc9161092061091b826108da565b6112a6565b9061092a916112d1565b50565b906101fc9161090a565b906109463361025e565b61025e565b61094f8261025e565b0361095d5761092a91611351565b60405163334bd91960e11b8152600490fd5b0390fd5b610212906109056103da565b6102129060a01c6104f4565b610212905461097f565b906001600160a01b03905b9181191691161790565b906109ba6102126109c1926104d8565b8254610995565b9055565b9060ff60a01b9060a01b6109a0565b906109e46102126109c192151590565b82546109c5565b906109f6600761098b565b610a2e57610a1b610a2292610a13610a0c610677565b33906112d1565b5060056109aa565b60066109aa565b6101fc600160076109d4565b60405162dc149f60e41b8152600490fd5b15610a4657565b60405162461bcd60e51b815260206004820152602360248201527f41757468436f6e74726f6c3a2043616c6c6572206973206e6f7420612070617560448201526239b2b960e91b6064820152608490fd5b6101fc90610aad610aa66103da565b3390610d44565b8015610ac2575b610abd90610a3f565b610ad5565b50610abd610ace610d26565b9050610ab4565b6101fc90610ae16103da565b610937565b6101fc90610a97565b15610af657565b60405162461bcd60e51b8152602060048201526024808201527f41757468436f6e74726f6c3a2043616c6c6572206973206e6f7420746865206f6044820152633bb732b960e11b6064820152608490fd5b6101fc90610b5b610b56610d26565b610aef565b6101fc90610b6761058b565b61092d565b6101fc90610b47565b6101fc90610b84610b56610d26565b6101fc9060076109aa565b6101fc90610b75565b6101fc90610ba7610b56610d26565b6101fc90610b676103da565b6101fc90610b98565b905051906101fc8261033b565b906020828203126101d75761021291610bbc565b6040513d6000823e3d90fd5b610bfa610bf5826104d8565b6104d8565b6020610c0560405190565b638da5cb5b60e01b815291829060049082905afa8015610ce057610c3191600091610cf7575b5061025e565b610c3a3361025e565b03610ce557610bf5610bf5610c4e926104d8565b90813b156101d7576000610c6160405190565b928390631b2ce7f360e11b8252818381610c7e876004830161028a565b03925af1908115610ce0577f279aa14d8d722d787fbebbe5d140862d29a9a4c04fb92fa9d21004435c7bbe9e92610cbd92610cc2575b506040516102b9565b0390a1565b610cda906000610cd28183610705565b81019061024a565b38610cb4565b610bdd565b60405163bfcafd3760e01b8152600490fd5b610d19915060203d602011610d1f575b610d118183610705565b810190610bc9565b38610c2b565b503d610d07565b610212610aa6610677565b610212906104f4565b6102129054610d31565b610212916000610d59610d5f936108eb600090565b016104e1565b610d3a565b15610d6b57565b60405162461bcd60e51b815260206004820152602360248201527f41757468436f6e74726f6c3a2043616c6c6572206973206e6f7420616e20616460448201526236b4b760e91b6064820152608490fd5b610dcd610dc8336108f9565b610d64565b6101fc6101fc610ddb61058b565b3390610937565b6101fc610dbc565b15610df157565b60405162461bcd60e51b81526020600482015260126024820152713737ba1027bbb732b91037b91020b236b4b760711b6044820152606490fd5b9061021297969594939291610e3f336108f9565b8015610e54575b610e4f90610dea565b610ec2565b50610e4f610e60610d26565b9050610e46565b61025e6102126102129290565b61021290610e67565b15610e8457565b60405162461bcd60e51b8152602060048201526016602482015275416464726573732063616e6e6f74206265207a65726f60501b6044820152606490fd5b9061021297969594939291610eed610edd6109416000610e74565b610ee68461025e565b1415610e7d565b9061021297969594939291610f11610f086109416000610e74565b610ee68561025e565b9061021297969594939291610f35610f2c6109416000610e74565b610ee68661025e565b611034565b6102129061025e565b6102129054610f3a565b60005b838110610f605750506000910152565b8181015183820152602001610f50565b610f91610f9a60209361075b93610f85815190565b80835293849260200190565b95869101610f4d565b601f01601f191690565b989795939196949290966101408a019760008b01610fc191610281565b60208a01610fce91610281565b60408901610fdb91610281565b60608801610fe891610281565b60808701610ff591610281565b60a0860161100291610281565b60c085015260ff1660e084015282810361010084015261102191610f70565b9080820390610120015261021291610f70565b96909593919294965061104660405190565b6115a581018181106001600160401b038211176107265761106d82916115a5611406843990565b03906000f08015610ce057611081906104d8565b9661108c6007610f43565b883b156101d75760006110bb916110a260405190565b928391829190631b2ce7f360e11b83526004830161028a565b0381838d5af18015610ce057611190575b506110d9610bf5896104d8565b926110e46005610f43565b906110ef6006610f43565b93853b156101d7576000978894611126938c61110a60405190565b9c8d9b8c9a8b996309a09f4760e21b8b52339460048c01610fa4565b03925af18015610ce05761117a575b50611148611142836104d8565b916104d8565b907f5b269f580912912f2c48a9e34fcae47327ba565d31e351e53be7115f90a62f7f61117360405190565b600090a390565b61118a906000610cd28183610705565b38611135565b6111a0906000610cd28183610705565b386110cc565b610212969594939291906000610e2b565b906101fc916111c861091b826108da565b9061092a91611351565b906101fc916111b7565b6101fc906111eb610b56610d26565b6111f86109416000610e74565b6112018261025e565b146112515761120f8161025e565b6112183361025e565b1461123f576101fc90610ddb61122c610677565b91611237818461092d565b610b6761058b565b604051630a98f1f360e21b8152600490fd5b60405163d92e233d60e01b8152600490fd5b6101fc906111dc565b637965db0b60e01b6001600160e01b031982161490811561128b575090565b61021291506001600160e01b0319166301ffc9a760e01b1490565b6101fc9033906113cd565b9060ff906109a0565b906112ca6102126109c192151590565b82546112b1565b6112e26112de8383610d44565b1590565b1561134a5761130260016112fd846000610d598660046108c3565b6112ba565b611316611142611310339390565b936104d8565b917f2f8788117e7eff1d82e926ec794901d17c78024a50270940304540a733656f0d61134160405190565b600090a4600190565b5050600090565b61135b8282610d44565b1561134a5761137560006112fd8482610d598660046108c3565b611383611142611310339390565b917ff6391f5c32d9c69d2a47ea670b442974b53935d1edc7fd64eb21e047a839171b61134160405190565b9160206101fc9294936113c960408201966000830190610281565b0152565b906113db6112de8284610d44565b6113e3575050565b61096f6113ef60405190565b63e2517d3f60e01b8152928392600484016113ae56fe60806040523461002257610011610027565b60405161140761019e823961140790f35b600080fd5b61002f61004b565b565b61003e61003e61003e9290565b90565b61003e6000610031565b61005d610056610041565b33906100dd565b50565b9061006a9061003e565b600052602052604060002090565b61003e9061008c906001600160a01b031682565b6001600160a01b031690565b61003e90610078565b61003e90610098565b9061006a906100a1565b151590565b906100c961003e6100d9926100b4565b825460ff191660ff919091161790565b9055565b6100ee6100ea838361017b565b1590565b1561016457610114600161010f846000610109866004610060565b016100aa565b6100b9565b61013061012a610124339361003e565b936100a1565b916100a1565b917f2f8788117e7eff1d82e926ec794901d17c78024a50270940304540a733656f0d61015b60405190565b600090a4600190565b5050600090565b60ff1690565b61003e905461016b565b61003e91600061010961019893610190600090565b506004610060565b61017156fe60806040526004361015610015575b3661109f57005b60003560e01c806301ffc9a7146101e5578063248a9ca3146101e057806324d7806c146101db5780632f2ff15d146101d657806336568abe146101d15780633659cfe6146101cc578063389ed267146101c757806346fbf68e146101c25780634a5df50f146101bd57806350d2a276146101b8578063550d01a3146101b35780635c60da1b146101ae5780635cc797d8146101a957806363a8fd89146101a45780636b2c0f551461019f578063704802751461019a57806375b238fc146101955780637cb00d25146101905780637cd5f6631461018b57806382dc1ec4146101865780638b8f4a65146101815780638d4fdb401461017c5780638f32d59b1461017757806391d14854146101725780639a202d471461016d578063a217fddf14610168578063b911135f14610163578063d547741f1461015e5763f2fde38b0361000e5761080d565b6107f4565b6107d9565b6107a4565b61076d565b610751565b610736565b61071b565b610700565b6106e8565b6106cf565b61068e565b61065f565b61061b565b610603565b6105e8565b6105c4565b610571565b610556565b6104d0565b610445565b6103c5565b6103aa565b61035b565b610342565b610324565b6102e6565b610285565b61022c565b6001600160e01b031981165b036101fd57565b600080fd5b9050359061020f826101ea565b565b906020828203126101fd5761022591610202565b90565b9052565b346101fd5761025a610247610242366004610211565b610825565b6040515b91829182901515815260200190565b0390f35b806101f6565b9050359061020f8261025e565b906020828203126101fd5761022591610264565b346101fd5761025a6102a061029b366004610271565b610845565b6040519182918290815260200190565b6001600160a01b031690565b6101f6816102b0565b9050359061020f826102bc565b906020828203126101fd57610225916102c5565b346101fd5761025a6102476102fc3660046102d2565b610864565b91906040838203126101fd5761022590602061031d8286610264565b94016102c5565b346101fd5761033d610337366004610301565b90610898565b604051005b346101fd5761033d610355366004610301565b906108a2565b346101fd5761033d61036e3660046102d2565b610a6e565b60009103126101fd57565b7ffcb9fcbfa83b897fb2d5cf4b58962164105c1e71489a37ef3ae0db3fdce576f690565b61022561037e565b346101fd576103ba366004610373565b61025a6102a06103a2565b346101fd5761025a6102476103db3660046102d2565b610a77565b909182601f830112156101fd578135916001600160401b0383116101fd5760200192602083028401116101fd57565b916040838303126101fd5782356001600160401b0381116101fd578261043c6020946102259387016103e0565b949095016102c5565b346101fd5761033d61045836600461040f565b91610d16565b6001600160e01b03191690565b906104759061045e565b600052602052604060002090565b610225916008021c6001600160a01b031690565b906102259154610483565b60006104b261022592600361046b565b610497565b610228906102b0565b60208101929161020f91906104b7565b346101fd5761025a6104eb6104e6366004610211565b6104a2565b604051918291826104c0565b610225906102b0906001600160a01b031682565b610225906104f7565b6102259061050b565b9061047590610514565b610225916008021c5b60ff1690565b906102259154610527565b600061055161022592600261051d565b610536565b346101fd5761025a61024761056c3660046102d2565b610541565b346101fd57610581366004610373565b61025a6104eb610d21565b8015156101f6565b9050359061020f8261058c565b91906040838203126101fd576102259060206105bd82866102c5565b9401610594565b346101fd5761033d6105d73660046105a1565b90610d4d565b610225600080610536565b346101fd576105f8366004610373565b61025a6102476105dd565b346101fd5761033d6106163660046102d2565b610dfe565b346101fd5761033d61062e3660046102d2565b610e27565b7fdf8b4c520ffe197c5343c6f5aec59570151ef9a492f2c624fd45ddde6135ec4290565b610225610633565b346101fd5761066f366004610373565b61025a6102a0610657565b906020828203126101fd5761022591610594565b346101fd5761033d6106a136600461067a565b610e6f565b90916060828403126101fd576102256106bf84846102c5565b9360406105bd8260208701610264565b346101fd5761033d6106e23660046106a6565b91610e94565b346101fd5761033d6106fb3660046102d2565b610eba565b346101fd5761025a6104eb610716366004610271565b610ec3565b346101fd5761025a6104eb610731366004610211565b610ecc565b346101fd57610746366004610373565b61025a610247610f3e565b346101fd5761025a610247610767366004610301565b90610f49565b346101fd5761077d366004610373565b61033d610fe2565b6102256102256102259290565b6102256000610785565b610225610792565b346101fd576107b4366004610373565b61025a6102a061079c565b9061047590610785565b60006104b26102259260016107bf565b346101fd5761025a6104eb6107ef366004610271565b6107c9565b346101fd5761033d610807366004610301565b90611005565b346101fd5761033d6108203660046102d2565b611096565b610225906110a4565b90610475565b6102259081565b6102259054610834565b600161085e61022592610856600090565b50600461082e565b0161083b565b61022590610870610633565b610f49565b9061020f9161088b61088682610845565b6110de565b90610895916110e9565b50565b9061020f91610875565b906108b1336102b0565b6102b0565b6108ba826102b0565b036108c8576108959161116f565b60405163334bd91960e11b8152600490fd5b0390fd5b156108e557565b60405162461bcd60e51b8152602060048201526024808201527f41757468436f6e74726f6c3a2043616c6c6572206973206e6f7420746865206f6044820152633bb732b960e11b6064820152608490fd5b61020f9061094a610945610f3e565b6108de565b6109d9565b6102b06102256102259290565b6102259061094f565b1561096c57565b60405162461bcd60e51b815260206004820152600d60248201526c696e707574206973207a65726f60981b6044820152606490fd5b156109a857565b60405162461bcd60e51b815260206004820152600960248201526839b0b6b29030b2323960b91b6044820152606490fd5b610a3c906109fd6109ed6108ac600061095c565b6109f6836102b0565b1415610965565b610a376001610a0c6000610785565b610a31610a18826111cc565b610a2a610a24876102b0565b916102b0565b14156109a1565b8361122d565b610514565b7fbc7cd75a20ee27fd9adebab32041f755214dbc6bffa90cc0225b39da2e5c2d3b610a6660405190565b80805b0390a2565b61020f90610936565b6102259061087061037e565b9061020f9291610a94610945610f3e565b610c07565b15610aa057565b60405162461bcd60e51b8152806108da600482016020808252818101527f50726f78793a205f73656c6563746f727327732073697a65206973207a65726f604082015260600190565b61022590610530565b6102259054610ae9565b15610b0357565b60405162461bcd60e51b815260206004820152601860248201527750726f78793a205f696d70206973206e6f7420616c69766560401b6044820152606490fd5b634e487b7160e01b600052603260045260246000fd5b9190811015610b69576020020190565b610b43565b35610225816101ea565b610225906102b0565b6102259054610b78565b15610b9257565b60405162461bcd60e51b815260206004820152601d60248201527f4c69717569646974795661756c7450726f78793a2073616d6520696d700000006044820152606490fd5b906001600160a01b03905b9181191691161790565b90610bfc610225610c0392610514565b8254610bd7565b9055565b909291908392610c21610c1a6000610785565b8511610a99565b610c3c610c37610c3285600261051d565b610af2565b610afc565b610c466000610785565b845b811015610d0e57610d0781610cb386610cae87610ca8610c7f868e610ca2610c8f610c8a610c84610c7f610c489f8660039b610b59565b610b6e565b8861046b565b610b81565b610c9b610a248a6102b0565b1415610b8b565b8c610b59565b9061046b565b610bec565b610cc9610cc4610c7f838b89610b59565b61045e565b610cd287610514565b907f14ebc1c32aa68f4d766e89f3e546cee249f7df25183fc10ab1568d91c2ce9b7b610cfd60405190565b600090a360010190565b9050610c46565b509350505050565b9061020f9291610a83565b610225610d2e6000610785565b6111cc565b9061020f91610d43610945610f3e565b9061020f91611266565b9061020f91610d33565b15610d5e57565b60405162461bcd60e51b815260206004820152602360248201527f41757468436f6e74726f6c3a2043616c6c6572206973206e6f7420612070617560448201526239b2b960e91b6064820152608490fd5b61020f90610dc5610dbe61037e565b3390610f49565b8015610dda575b610dd590610d57565b610ded565b50610dd5610de6610f3e565b9050610dcc565b61020f90610df961037e565b6108a2565b61020f90610daf565b61020f90610e16610945610f3e565b61020f90610e22610633565b610898565b61020f90610e07565b61020f90610e3f610945610f3e565b610e64565b9060ff90610be2565b90610e5d610225610c0392151590565b8254610e44565b61020f906000610e4d565b61020f90610e30565b9061020f9291610e89610945610f3e565b9061020f929161122d565b9061020f9291610e78565b61020f90610eae610945610f3e565b61020f90610e2261037e565b61020f90610e9f565b610225906111cc565b6003610edb610c8a838361046b565b610eeb610a246108ac600061095c565b03610f01575050610225610c8a600060016107bf565b610f1b610c32610f14610c8a858561046b565b600261051d565b15610f2d5761022591610c8a9161046b565b5050610225610c8a600060016107bf565b610225610dbe610792565b610225916000610f5e610c3293610856600090565b0161051d565b15610f6b57565b60405162461bcd60e51b815260206004820152602360248201527f41757468436f6e74726f6c3a2043616c6c6572206973206e6f7420616e20616460448201526236b4b760e91b6064820152608490fd5b610fcd610fc833610864565b610f64565b61020f61020f610fdb610633565b33906108a2565b61020f610fbc565b9061020f91610ffb61088682610845565b906108959161116f565b9061020f91610fea565b61020f9061101e610945610f3e565b61102b6108ac600061095c565b611034826102b0565b1461108457611042816102b0565b61104b336102b0565b146110725761020f90610fdb61105f610792565b9161106a8184610898565b610e22610633565b604051630a98f1f360e21b8152600490fd5b60405163d92e233d60e01b8152600490fd5b61020f9061100f565b6112f3565b637965db0b60e01b6001600160e01b03198216149081156110c3575090565b61022591506001600160e01b0319166301ffc9a760e01b1490565b61020f903390611383565b6110fa6110f68383610f49565b1590565b156111685761111a6001611115846000610f5e86600461082e565b610e4d565b61113461112e611128339390565b93610514565b91610514565b917f2f8788117e7eff1d82e926ec794901d17c78024a50270940304540a733656f0d61115f60405190565b600090a4600190565b5050600090565b6111798282610f49565b156111685761119360006111158482610f5e86600461082e565b6111a161112e611128339390565b917ff6391f5c32d9c69d2a47ea670b442974b53935d1edc7fd64eb21e047a839171b61115f60405190565b610c8a610225916111db600090565b5060016107bf565b156111ea57565b60405162461bcd60e51b815260206004820152601b60248201527a50726f78793a206e6f7420636f6e7472616374206164647265737360281b6044820152606490fd5b61020f92918183611245611240836113bb565b6111e3565b611251575b5050611266565b610cae61125f9260016107bf565b388161124a565b610a6961129d7f72558d9bfba4210f9ef095c782589484151f6d90f7a81bb3cb9b33efc695d32492610a378561111583600261051d565b9261024b60405190565b156112ae57565b60405162461bcd60e51b815260206004820152601d60248201527f50726f78793a20696d706c204f522070726f78792069732066616c73650000006044820152606490fd5b6113086000356001600160e01b031916610ecc565b60008080926113196108ac8361095c565b611322826102b0565b14158061134d575b611333906112a7565b368280378136915af43d82803e15611349573d90f35b3d90fd5b5061133361135d6110f684610af2565b905061132a565b91602061020f92949361137f604082019660008301906104b7565b0152565b906113916110f68284610f49565b611399575050565b6108da6113a560405190565b63e2517d3f60e01b815292839260048401611364565b3b6113cd6113c96000610785565b9190565b119056fea2646970667358221220944a0f463a9b9d54339b12e685bd62a2e84a15d4cb035a2f60037713da6e10fc64736f6c63430008190033a26469706673582212209251bfaf99f8fdeb950f908349ce3d76c18e7640d810c020e6fddc4b9d7f972d64736f6c63430008190033","linkReferences":{}},"methodIdentifiers":{"ADMIN_ROLE()":"75b238fc","DEFAULT_ADMIN_ROLE()":"a217fddf","PAUSE_ROLE()":"389ed267","addAdmin(address)":"70480275","addPauser(address)":"82dc1ec4","aliveImplementation(address)":"550d01a3","createWSTONToken(address,address,address,uint256,uint8,string,string)":"c4bdcb33","getRoleAdmin(bytes32)":"248a9ca3","grantRole(bytes32,address)":"2f2ff15d","hasRole(bytes32,address)":"91d14854","initialize(address,address)":"485cc955","isAdmin(address)":"24d7806c","isOwner()":"8f32d59b","isPauser(address)":"46fbf68e","l1ton()":"15a327d3","l1wton()":"d21bae66","pauseProxy()":"63a8fd89","proxyImplementation(uint256)":"b911135f","removeAdmin()":"9a202d47","removePauser(address)":"6b2c0f55","renounceRole(bytes32,address)":"36568abe","revokeRole(bytes32,address)":"d547741f","selectorImplementation(bytes4)":"50d2a276","setWstonImplementation(address)":"81baed05","supportsInterface(bytes4)":"01ffc9a7","transferOwnership(address)":"f2fde38b","upgradeWstonTo(address,address)":"8bd49a4f","wstonImplementation()":"1d03a009"},"id":56}