{"abi":[{"type":"function","name":"DEFAULT_ADMIN_ROLE","inputs":[],"outputs":[{"name":"","type":"bytes32","internalType":"bytes32"}],"stateMutability":"view"},{"type":"function","name":"MINTER_ROLE","inputs":[],"outputs":[{"name":"","type":"bytes32","internalType":"bytes32"}],"stateMutability":"view"},{"type":"function","name":"OPERATOR_ROLE","inputs":[],"outputs":[{"name":"","type":"bytes32","internalType":"bytes32"}],"stateMutability":"view"},{"type":"function","name":"addAdmin","inputs":[{"name":"account","type":"address","internalType":"address"}],"outputs":[],"stateMutability":"nonpayable"},{"type":"function","name":"addMinter","inputs":[{"name":"account","type":"address","internalType":"address"}],"outputs":[],"stateMutability":"nonpayable"},{"type":"function","name":"addOperator","inputs":[{"name":"account","type":"address","internalType":"address"}],"outputs":[],"stateMutability":"nonpayable"},{"type":"function","name":"aliveImplementation","inputs":[{"name":"","type":"address","internalType":"address"}],"outputs":[{"name":"","type":"bool","internalType":"bool"}],"stateMutability":"view"},{"type":"function","name":"deployCoinage","inputs":[{"name":"layer2","type":"address","internalType":"address"},{"name":"seigManager","type":"address","internalType":"address"}],"outputs":[{"name":"","type":"bool","internalType":"bool"}],"stateMutability":"nonpayable"},{"type":"function","name":"getRoleAdmin","inputs":[{"name":"role","type":"bytes32","internalType":"bytes32"}],"outputs":[{"name":"","type":"bytes32","internalType":"bytes32"}],"stateMutability":"view"},{"type":"function","name":"grantRole","inputs":[{"name":"role","type":"bytes32","internalType":"bytes32"},{"name":"account","type":"address","internalType":"address"}],"outputs":[],"stateMutability":"nonpayable"},{"type":"function","name":"hasRole","inputs":[{"name":"role","type":"bytes32","internalType":"bytes32"},{"name":"account","type":"address","internalType":"address"}],"outputs":[{"name":"","type":"bool","internalType":"bool"}],"stateMutability":"view"},{"type":"function","name":"isAdmin","inputs":[{"name":"account","type":"address","internalType":"address"}],"outputs":[{"name":"","type":"bool","internalType":"bool"}],"stateMutability":"view"},{"type":"function","name":"isMinter","inputs":[{"name":"account","type":"address","internalType":"address"}],"outputs":[{"name":"","type":"bool","internalType":"bool"}],"stateMutability":"view"},{"type":"function","name":"isOperator","inputs":[{"name":"account","type":"address","internalType":"address"}],"outputs":[{"name":"","type":"bool","internalType":"bool"}],"stateMutability":"view"},{"type":"function","name":"isOwner","inputs":[],"outputs":[{"name":"","type":"bool","internalType":"bool"}],"stateMutability":"view"},{"type":"function","name":"layer2ByIndex","inputs":[{"name":"index","type":"uint256","internalType":"uint256"}],"outputs":[{"name":"","type":"address","internalType":"address"}],"stateMutability":"view"},{"type":"function","name":"layer2s","inputs":[{"name":"layer2","type":"address","internalType":"address"}],"outputs":[{"name":"","type":"bool","internalType":"bool"}],"stateMutability":"view"},{"type":"function","name":"numLayer2s","inputs":[],"outputs":[{"name":"","type":"uint256","internalType":"uint256"}],"stateMutability":"view"},{"type":"function","name":"pauseProxy","inputs":[],"outputs":[{"name":"","type":"bool","internalType":"bool"}],"stateMutability":"view"},{"type":"function","name":"proxyImplementation","inputs":[{"name":"","type":"uint256","internalType":"uint256"}],"outputs":[{"name":"","type":"address","internalType":"address"}],"stateMutability":"view"},{"type":"function","name":"register","inputs":[{"name":"layer2","type":"address","internalType":"address"}],"outputs":[{"name":"","type":"bool","internalType":"bool"}],"stateMutability":"nonpayable"},{"type":"function","name":"registerAndDeployCoinage","inputs":[{"name":"layer2","type":"address","internalType":"address"},{"name":"seigManager","type":"address","internalType":"address"}],"outputs":[{"name":"","type":"bool","internalType":"bool"}],"stateMutability":"nonpayable"},{"type":"function","name":"registerAndDeployCoinageAndSetCommissionRate","inputs":[{"name":"layer2","type":"address","internalType":"address"},{"name":"seigManager","type":"address","internalType":"address"},{"name":"commissionRate","type":"uint256","internalType":"uint256"},{"name":"isCommissionRateNegative","type":"bool","internalType":"bool"}],"outputs":[{"name":"","type":"bool","internalType":"bool"}],"stateMutability":"nonpayable"},{"type":"function","name":"removeAdmin","inputs":[{"name":"account","type":"address","internalType":"address"}],"outputs":[],"stateMutability":"nonpayable"},{"type":"function","name":"removeMinter","inputs":[{"name":"account","type":"address","internalType":"address"}],"outputs":[],"stateMutability":"nonpayable"},{"type":"function","name":"removeOperator","inputs":[{"name":"account","type":"address","internalType":"address"}],"outputs":[],"stateMutability":"nonpayable"},{"type":"function","name":"renounceMinter","inputs":[],"outputs":[],"stateMutability":"nonpayable"},{"type":"function","name":"renounceOperator","inputs":[],"outputs":[],"stateMutability":"nonpayable"},{"type":"function","name":"renounceOwnership","inputs":[],"outputs":[],"stateMutability":"nonpayable"},{"type":"function","name":"renounceRole","inputs":[{"name":"role","type":"bytes32","internalType":"bytes32"},{"name":"callerConfirmation","type":"address","internalType":"address"}],"outputs":[],"stateMutability":"nonpayable"},{"type":"function","name":"revokeMinter","inputs":[{"name":"account","type":"address","internalType":"address"}],"outputs":[],"stateMutability":"nonpayable"},{"type":"function","name":"revokeOperator","inputs":[{"name":"account","type":"address","internalType":"address"}],"outputs":[],"stateMutability":"nonpayable"},{"type":"function","name":"revokeRole","inputs":[{"name":"role","type":"bytes32","internalType":"bytes32"},{"name":"account","type":"address","internalType":"address"}],"outputs":[],"stateMutability":"nonpayable"},{"type":"function","name":"selectorImplementation","inputs":[{"name":"","type":"bytes4","internalType":"bytes4"}],"outputs":[{"name":"","type":"address","internalType":"address"}],"stateMutability":"view"},{"type":"function","name":"supportsInterface","inputs":[{"name":"interfaceId","type":"bytes4","internalType":"bytes4"}],"outputs":[{"name":"","type":"bool","internalType":"bool"}],"stateMutability":"view"},{"type":"function","name":"transferAdmin","inputs":[{"name":"newAdmin","type":"address","internalType":"address"}],"outputs":[],"stateMutability":"nonpayable"},{"type":"function","name":"transferOwnership","inputs":[{"name":"newAdmin","type":"address","internalType":"address"}],"outputs":[],"stateMutability":"nonpayable"},{"type":"function","name":"unregister","inputs":[{"name":"layer2","type":"address","internalType":"address"}],"outputs":[{"name":"","type":"bool","internalType":"bool"}],"stateMutability":"nonpayable"},{"type":"event","name":"RoleAdminChanged","inputs":[{"name":"role","type":"bytes32","indexed":true,"internalType":"bytes32"},{"name":"previousAdminRole","type":"bytes32","indexed":true,"internalType":"bytes32"},{"name":"newAdminRole","type":"bytes32","indexed":true,"internalType":"bytes32"}],"anonymous":false},{"type":"event","name":"RoleGranted","inputs":[{"name":"role","type":"bytes32","indexed":true,"internalType":"bytes32"},{"name":"account","type":"address","indexed":true,"internalType":"address"},{"name":"sender","type":"address","indexed":true,"internalType":"address"}],"anonymous":false},{"type":"event","name":"RoleRevoked","inputs":[{"name":"role","type":"bytes32","indexed":true,"internalType":"bytes32"},{"name":"account","type":"address","indexed":true,"internalType":"address"},{"name":"sender","type":"address","indexed":true,"internalType":"address"}],"anonymous":false},{"type":"error","name":"AccessControlBadConfirmation","inputs":[]},{"type":"error","name":"AccessControlUnauthorizedAccount","inputs":[{"name":"account","type":"address","internalType":"address"},{"name":"neededRole","type":"bytes32","internalType":"bytes32"}]}],"bytecode":{"object":"0x608060405234601d575b600f6021565b61228761002d823961228790f35b6027565b60405190565b600080fdfe60806040526004361015610013575b610f6d565b61001e6000356102a8565b806301ffc9a7146102a3575b80630d42d4971461029e575b80631785f53c14610299575b8063248a9ca314610294575b806324d7806c1461028f575b80632ab6f8db1461028a575b80632ec2c24614610285575b80632f2ff15d14610280575b80633092afd51461027b575b806336568abe14610276575b80633eb2a66c14610271575b80634420e4861461026c575b806350d2a27614610267575b8063550d01a314610262575b806361cdc5b81461025d575b806363a8fd8914610258575b80636d70f7ae14610253575b8063704802751461024e575b8063715018a614610249575b806375829def14610244575b8063851086041461023f575b80638f32d59b1461023a575b806391d1485414610235575b8063983b2d5614610230575b8063986502751461022b575b80639870d7fe14610226575b8063a217fddf14610221575b8063aa271e1a1461021c575b8063ac8a584a14610217575b8063b7ffb17914610212575b8063b911135f1461020d575b8063bcb1a71e14610208575b8063cfbd488514610203575b8063d5391393146101fe575b8063d547741f146101f9575b8063f2fde38b146101f4575b8063f5b541a6146101ef575b63fad8b32a146101ea575b61000e565b610f39565b610f03565b610ea0565b610e6b565b610e35565b610dd2565b610d9b565b610d65565b610ce0565b610c8c565b610c56565b610c20565b610baf565b610b7b565b610b47565b610b10565b610ada565b610aa3565b610a40565b610a0c565b6109d8565b6109a2565b61096c565b610928565b6108f2565b610825565b610757565b61071d565b610652565b61061e565b6105e9565b610584565b610550565b61051a565b6104e4565b610443565b6103a7565b61033a565b60e01c90565b60405190565b600080fd5b600080fd5b63ffffffff60e01b901690565b6102d4816102be565b9014156102de575b565b600080fd5b905035906102f0826102cb565b565b9060208282031261030d575b600061030a92016102e3565b90565b6102b9565b151590565b61032090610312565b9052565b919061033890600060208501940190610317565b565b3461036b575b6103676103566103513660046102f2565b610f77565b61035e6102ae565b91829182610324565b0390f35b6102b4565b600091031261037c575b565b6102b9565b90565b61038d90610381565b9052565b91906103a590600060208501940190610384565b565b346103d8575b6103b8366004610370565b6103d46103c3610fbb565b6103cb6102ae565b91829182610391565b0390f35b6102b4565b60018060a01b03901690565b6103f2906103dd565b90565b6103fe816103e9565b901415610408575b565b600080fd5b9050359061041a826103f5565b565b90602082820312610437575b6000610434920161040d565b90565b6102b9565b6000900190565b34610472575b61045c61045736600461041c565b6110b4565b6104646102ae565b8061046e8161043c565b0390f35b6102b4565b90565b61048381610477565b90141561048d575b565b600080fd5b9050359061049f8261047a565b565b906020828203126104bc575b60006104b99201610492565b90565b6102b9565b6104ca90610477565b9052565b91906104e2906000602085019401906104c1565b565b34610515575b6105116105006104fb3660046104a1565b61110c565b6105086102ae565b918291826104ce565b0390f35b6102b4565b3461054b575b61054761053661053136600461041c565b61112e565b61053e6102ae565b91829182610324565b0390f35b6102b4565b3461057f575b610561366004610370565b61056961114b565b6105716102ae565b8061057b8161043c565b0390f35b6102b4565b346105b5575b6105b16105a061059b36600461041c565b61122b565b6105a86102ae565b91829182610324565b0390f35b6102b4565b91906040838203126105e4575b8060206105da6105e19360008701610492565b940161040d565b90565b6102b9565b34610619575b6106036105fd3660046105ba565b9061126b565b61060b6102ae565b806106158161043c565b0390f35b6102b4565b3461064d575b61063761063236600461041c565b6112a6565b61063f6102ae565b806106498161043c565b0390f35b6102b4565b34610682575b61066c6106663660046105ba565b906112b1565b6106746102ae565b8061067e8161043c565b0390f35b6102b4565b61069081610381565b90141561069a575b565b600080fd5b905035906106ac82610687565b565b6106b781610312565b9014156106c1575b565b600080fd5b905035906106d3826106ae565b565b608081830312610718575b6106ed826000830161040d565b926107156106fe846020850161040d565b93606061070e826040870161069f565b94016106c6565b90565b6102b9565b34610752575b61074e61073d6107343660046106d5565b9291909161157c565b6107456102ae565b91829182610324565b0390f35b6102b4565b34610788575b61078461077361076e36600461041c565b61167e565b61077b6102ae565b91829182610324565b0390f35b6102b4565b610796906102be565b90565b906107a39061078d565b600052602052604060002090565b1c90565b60018060a01b03901690565b6107d19060086107d693026107b1565b6107b5565b90565b906107e491546107c1565b90565b60006107fa6107ff926003506003610799565b6107d9565b90565b61080b906103e9565b9052565b919061082390600060208501940190610802565b565b34610856575b61085261084161083c3660046102f2565b6107e7565b6108496102ae565b9182918261080f565b0390f35b6102b4565b90565b61087261086d610877926103dd565b61085b565b6103dd565b90565b6108839061085e565b90565b61088f9061087a565b90565b9061089c90610886565b600052602052604060002090565b60ff901690565b6108c19060086108c693026107b1565b6108aa565b90565b906108d491546108b1565b90565b60006108ea6108ef926002506002610892565b6108c9565b90565b34610923575b61091f61090e61090936600461041c565b6108d7565b6109166102ae565b91829182610324565b0390f35b6102b4565b34610959575b61095561094461093f36600461041c565b611694565b61094c6102ae565b91829182610324565b0390f35b6102b4565b6109696000806108c9565b90565b3461099d575b61097d366004610370565b61099961098861095e565b6109906102ae565b91829182610324565b0390f35b6102b4565b346109d3575b6109cf6109be6109b936600461041c565b6116b3565b6109c66102ae565b91829182610324565b0390f35b6102b4565b34610a07575b6109f16109ec36600461041c565b6116ff565b6109f96102ae565b80610a038161043c565b0390f35b6102b4565b34610a3b575b610a1d366004610370565b610a25611739565b610a2d6102ae565b80610a378161043c565b0390f35b6102b4565b34610a6f575b610a59610a5436600461041c565b6118f1565b610a616102ae565b80610a6b8161043c565b0390f35b6102b4565b9190604083820312610a9e575b806020610a94610a9b936000870161040d565b940161040d565b90565b6102b9565b34610ad5575b610ad1610ac0610aba366004610a74565b906119e7565b610ac86102ae565b91829182610324565b0390f35b6102b4565b34610b0b575b610aeb366004610370565b610b07610af66119fe565b610afe6102ae565b91829182610324565b0390f35b6102b4565b34610b42575b610b3e610b2d610b273660046105ba565b90611a1c565b610b356102ae565b91829182610324565b0390f35b6102b4565b34610b76575b610b60610b5b36600461041c565b611a76565b610b686102ae565b80610b728161043c565b0390f35b6102b4565b34610baa575b610b8c366004610370565b610b94611a81565b610b9c6102ae565b80610ba68161043c565b0390f35b6102b4565b34610bde575b610bc8610bc336600461041c565b611ac4565b610bd06102ae565b80610bda8161043c565b0390f35b6102b4565b90565b60001b90565b610c00610bfb610c0592610be3565b610be6565b610477565b90565b610c126000610bec565b90565b610c1d610c08565b90565b34610c51575b610c31366004610370565b610c4d610c3c610c15565b610c446102ae565b918291826104ce565b0390f35b6102b4565b34610c87575b610c83610c72610c6d36600461041c565b611acf565b610c7a6102ae565b91829182610324565b0390f35b6102b4565b34610cbb575b610ca5610ca036600461041c565b611b1b565b610cad6102ae565b80610cb78161043c565b0390f35b6102b4565b90602082820312610cdb575b6000610cd8920161069f565b90565b6102b9565b34610d11575b610d0d610cfc610cf7366004610cc0565b611b4c565b610d046102ae565b9182918261080f565b0390f35b6102b4565b610d2a610d25610d2f92610381565b61085b565b610381565b90565b90610d3c90610d16565b600052602052604060002090565b6000610d5d610d62926001506001610d32565b6107d9565b90565b34610d96575b610d92610d81610d7c366004610cc0565b610d4a565b610d896102ae565b9182918261080f565b0390f35b6102b4565b34610dcd575b610dc9610db8610db2366004610a74565b90611b6b565b610dc06102ae565b91829182610324565b0390f35b6102b4565b34610e01575b610deb610de636600461041c565b611bcb565b610df36102ae565b80610dfd8161043c565b0390f35b6102b4565b7ff0887ba65ee2024ea881d91b74c2450ef19e1557f03bed3ea9f16b037cbe2dc990565b610e32610e06565b90565b34610e66575b610e46366004610370565b610e62610e51610e2a565b610e596102ae565b918291826104ce565b0390f35b6102b4565b34610e9b575b610e85610e7f3660046105ba565b90611c00565b610e8d6102ae565b80610e978161043c565b0390f35b6102b4565b34610ecf575b610eb9610eb436600461041c565b611c33565b610ec16102ae565b80610ecb8161043c565b0390f35b6102b4565b7f523a704056dcd17bcf83bed8b68c59416dac1119be77755efe3bde0a64e46e0c90565b610f00610ed4565b90565b34610f34575b610f14366004610370565b610f30610f1f610ef8565b610f276102ae565b918291826104ce565b0390f35b6102b4565b34610f68575b610f52610f4d36600461041c565b611c6d565b610f5a6102ae565b80610f648161043c565b0390f35b6102b4565b600080fd5b600090565b610f8990610f83610f72565b50611c78565b90565b600090565b60001c90565b90565b610fa6610fab91610f91565b610f97565b90565b610fb89054610f9a565b90565b610fc3610f8c565b50610fce6006610fae565b90565b60209181520190565b60207f6d696e0000000000000000000000000000000000000000000000000000000000917f41757468436f6e74726f6c3a2043616c6c6572206973206e6f7420616e20616460008201520152565b6110356023604092610fd1565b61103e81610fda565b0190565b6110589060208101906000818303910152611028565b90565b15611063575b565b61106b6102ae565b62461bcd60e51b81528061108160048201611042565b0390fd5b61109f9061109a6110953361112e565b61105b565b6110a1565b565b6110b2906110ad610c08565b6112b1565b565b6110bd90611085565b565b600090565b6110cd90610477565b90565b906110da906110c4565b600052602052604060002090565b90565b6110f76110fc91610f91565b6110e8565b90565b61110990546110eb565b90565b600161112561112b9261111d6110bf565b5060046110d0565b016110ff565b90565b6111489061113a610f72565b50611143610c08565b611a1c565b90565b61115d611156610ed4565b33906112b1565b565b9061117c9180506111776111723361112e565b61105b565b6111f4565b90565b61118b61119091610f91565b6108aa565b90565b61119d905461117f565b90565b156111a8575b565b600080fd5b906111b960ff91610be6565b91811990169116901790565b6111ce90610312565b90565b90565b906111e96111e46111f0926111c5565b6111d1565b82546111ad565b9055565b611221611226926000925061121a611215611210836005610892565b611193565b6111a0565b6005610892565b6111d4565b600190565b61123e90611237610f72565b805061115f565b90565b9061125c916112576112528261110c565b611cb8565b61125e565b565b9061126891611ccc565b50565b9061127591611241565b565b6112919061128c6112873361112e565b61105b565b611293565b565b6112a49061129f610e06565b6112b1565b565b6112af90611277565b565b906112c26112bd611d77565b6103e9565b6112cb826103e9565b14156112de575b6112db91611d84565b50565b6112e66102ae565b63334bd91960e11b8152806112fd6004820161043c565b0390fd5b61130a9061085e565b90565b61131690611301565b90565b6113229061087a565b90565b601f801991011690565b634e487b7160e01b600052604160045260246000fd5b9061134f90611325565b810190811067ffffffffffffffff82111761136a575b604052565b61132f565b60e01b90565b90505190611382826103f5565b565b9060208282031261139f575b600061139c9201611375565b90565b6102b9565b6113ac6102ae565b3d6000823e3d90fd5b60207f61746f7200000000000000000000000000000000000000000000000000000000917f73656e646572206973206e6569746865722061646d696e206e6f72206f70657260008201520152565b6114106024604092610fd1565b611419816113b5565b0190565b6114339060208101906000818303910152611403565b90565b1561143e575b565b6114466102ae565b62461bcd60e51b81528061145c6004820161141d565b0390fd5b939291908450611478611471610e06565b3390611a1c565b809015611495575b9461148d61149296611436565b61153e565b90565b506114a76114a28261130d565b611319565b9460206114b26102ae565b80976114c163570ca73561136f565b825281806114d16004820161043c565b03915afa958615611539575b6114929661148d9160009161150a575b506115006114fa336103e9565b916103e9565b1491965050611480565b61152c915060203d602011611532575b6115248183611345565b810190611384565b386114ed565b503d61151a565b6113a4565b91611572939161157795935061155b61155682611f2b565b6111a0565b61156d6115688383612066565b6111a0565b61212e565b6111a0565b600190565b9061159293929161158b610f72565b8050611460565b90565b9081506115aa6115a3610e06565b3390611a1c565b8090156115c7575b916115bf6115c493611436565b611670565b90565b506115d96115d48261130d565b611319565b9160206115e46102ae565b80946115f363570ca73561136f565b825281806116036004820161043c565b03915afa92831561166b575b6115c4936115bf9160009161163c575b5061163261162c336103e9565b916103e9565b14919350506115b2565b61165e915060203d602011611664575b6116568183611345565b810190611384565b3861161f565b503d61164c565b6113a4565b9061167b9150611f2b565b90565b6116919061168a610f72565b8050611595565b90565b6116ab6116b0916116a3610f72565b506005610892565b611193565b90565b6116cd906116bf610f72565b506116c8610ed4565b611a1c565b90565b6116ea906116e56116e03361112e565b61105b565b6116ec565b565b6116fd906116f8610c08565b61126b565b565b611708906116d0565b565b61171b6117163361112e565b61105b565b611723611725565b565b611737611730610c08565b33906112b1565b565b61174161170a565b565b61175d906117586117533361112e565b61105b565b611891565b565b61177361176e61177892610be3565b61085b565b6103dd565b90565b6117849061175f565b90565b60007f41636365737369626c653a207a65726f20616464726573730000000000000000910152565b6117bc6018602092610fd1565b6117c581611787565b0190565b6117df90602081019060008183039101526117af565b90565b156117ea575b565b6117f26102ae565b62461bcd60e51b815280611808600482016117c9565b0390fd5b60007f41636365737369626c653a2073616d652061646d696e00000000000000000000910152565b6118416016602092610fd1565b61184a8161180c565b0190565b6118649060208101906000818303910152611834565b90565b1561186f575b565b6118776102ae565b62461bcd60e51b81528061188d6004820161184e565b0390fd5b6118ef906118ba6118aa6118a5600061177b565b6103e9565b6118b3836103e9565b14156117e2565b6118d66118c6826103e9565b6118cf336103e9565b1415611867565b6118e86118e1610c08565b918261126b565b33906112b1565b565b6118fa90611743565b565b9190825061191261190b610e06565b3390611a1c565b80901561192f575b9261192761192c94611436565b6119d8565b90565b5061194161193c8261130d565b611319565b92602061194c6102ae565b809561195b63570ca73561136f565b8252818061196b6004820161043c565b03915afa9384156119d3575b61192c94611927916000916119a4575b5061199a611994336103e9565b916103e9565b149194505061191a565b6119c6915060203d6020116119cc575b6119be8183611345565b810190611384565b38611987565b503d6119b4565b6113a4565b906119e4929150612066565b90565b906119fb916119f4610f72565b80506118fc565b90565b611a06610f72565b50611a19611a12610c08565b3390611a1c565b90565b611a44916000611a39611a3f93611a31610f72565b5060046110d0565b01610892565b611193565b90565b611a6190611a5c611a573361112e565b61105b565b611a63565b565b611a7490611a6f610e06565b61126b565b565b611a7f90611a47565b565b611a93611a8c610e06565b33906112b1565b565b611aaf90611aaa611aa53361112e565b61105b565b611ab1565b565b611ac290611abd610ed4565b61126b565b565b611acd90611a95565b565b611ae990611adb610f72565b50611ae4610e06565b611a1c565b90565b611b0690611b01611afc3361112e565b61105b565b611b08565b565b611b1990611b14610ed4565b6112b1565b565b611b2490611aec565b565b600090565b611b37611b3c91610f91565b6107b5565b90565b611b499054611b2b565b90565b611b63611b6891611b5b611b26565b506007610d32565b611b3f565b90565b611b9791611b9291611b7b610f72565b50611b8d611b8882611f2b565b6111a0565b612066565b6111a0565b600190565b611bb690611bb1611bac3361112e565b61105b565b611bb8565b565b611bc990611bc4610e06565b611c00565b565b611bd490611b9c565b565b90611bf191611bec611be78261110c565b611cb8565b611bf3565b565b90611bfd91611d84565b50565b90611c0a91611bd6565b565b611c2690611c21611c1c3361112e565b61105b565b611c28565b565b611c31906118f1565b565b611c3c90611c0c565b565b611c5890611c53611c4e3361112e565b61105b565b611c5a565b565b611c6b90611c66610ed4565b611c00565b565b611c7690611c3e565b565b611c80610f72565b50611c91637965db0b60e01b6102be565b611c9a826102be565b1490819115611ca8575b5090565b611cb291506121c5565b38611ca4565b611cca90611cc4611d77565b9061220f565b565b611cd4610f72565b50611ce8611ce28383611a1c565b15610312565b600014611d70575b611d116001611d0c846000611d068660046110d0565b01610892565b6111d4565b611d34611d2e611d28611d22611d77565b936110c4565b93610886565b91610886565b917f2f8788117e7eff1d82e926ec794901d17c78024a50270940304540a733656f0d611d5e6102ae565b80611d688161043c565b0390a4600190565b5050600090565b611d7f611b26565b503390565b611d8c610f72565b50611d978282611a1c565b600014611e1e575b611dbf6000611dba8482611db48660046110d0565b01610892565b6111d4565b611de2611ddc611dd6611dd0611d77565b936110c4565b93610886565b91610886565b917ff6391f5c32d9c69d2a47ea670b442974b53935d1edc7fd64eb21e047a839171b611e0c6102ae565b80611e168161043c565b0390a4600190565b5050600090565b90505190611e32826106ae565b565b90602082820312611e4f575b6000611e4c9201611e25565b90565b6102b9565b90611e6560018060a01b0391610be6565b91811990169116901790565b90565b90611e89611e84611e9092610886565b611e71565b8254611e54565b9055565b90565b611eab611ea6611eb092611e94565b61085b565b610381565b90565b634e487b7160e01b600052601160045260246000fd5b611ed8611ede91939293610381565b92610381565b8201809211611eea575b565b611eb3565b90611efc60001991610be6565b91811990169116901790565b90565b90611f20611f1b611f2792610d16565b611f08565b8254611eef565b9055565b611f33610f72565b50611f58611f53611f4d611f48846005610892565b611193565b15610312565b6111a0565b611f69611f648261130d565b611319565b906020611f746102ae565b8093611f8363882eed2c61136f565b82528180611f936004820161043c565b03915afa91821561203d575b611fe392611fb59160009161200e575b506111a0565b611fca6001611fc5836005610892565b6111d4565b611fde611fd76006610fae565b6007610d32565b611e74565b612009612002611ff36001611e97565b611ffd6006610fae565b611ec9565b6006611f0b565b600190565b612030915060203d602011612036575b6120288183611345565b810190611e34565b38611faf565b503d61201e565b6113a4565b61204b9061085e565b90565b61205790612042565b90565b6120639061087a565b90565b6120af60209161208861208360009561207d610f72565b5061204e565b61205a565b906120916102ae565b9485809481936120a463833a774f61136f565b83526004830161080f565b03925af19081156120f6575b6000916120c7575b5090565b6120e9915060203d6020116120ef575b6120e18183611345565b810190611e34565b386120c3565b503d6120d7565b6113a4565b60409061212561212c949695939661211b60608401986000850190610802565b6020830190610384565b0190610317565b565b602092600061215161214c6121799795612146610f72565b5061204e565b61205a565b9261215a6102ae565b9687958694859361216e634224ed6661136f565b8552600485016120fb565b03925af19081156121c0575b600091612191575b5090565b6121b3915060203d6020116121b9575b6121ab8183611345565b810190611e34565b3861218d565b503d6121a1565b6113a4565b6121cd610f72565b506121e76121e16301ffc9a760e01b6102be565b916102be565b1490565b91602061220d92949361220660408201966000830190610802565b01906104c1565b565b9061222361221d8284611a1c565b15610312565b61222c575b5050565b61224d6122376102ae565b92839263e2517d3f60e01b8452600484016121eb565b0390fdfea2646970667358221220fcc4d23442def7ae8c5aa109c3ab48a8747f4b324c504b6a8686632e90ca001b64736f6c63430008190033","linkReferences":{}},"methodIdentifiers":{"DEFAULT_ADMIN_ROLE()":"a217fddf","MINTER_ROLE()":"d5391393","OPERATOR_ROLE()":"f5b541a6","addAdmin(address)":"70480275","addMinter(address)":"983b2d56","addOperator(address)":"9870d7fe","aliveImplementation(address)":"550d01a3","deployCoinage(address,address)":"85108604","getRoleAdmin(bytes32)":"248a9ca3","grantRole(bytes32,address)":"2f2ff15d","hasRole(bytes32,address)":"91d14854","isAdmin(address)":"24d7806c","isMinter(address)":"aa271e1a","isOperator(address)":"6d70f7ae","isOwner()":"8f32d59b","layer2ByIndex(uint256)":"b7ffb179","layer2s(address)":"61cdc5b8","numLayer2s()":"0d42d497","pauseProxy()":"63a8fd89","proxyImplementation(uint256)":"b911135f","register(address)":"4420e486","registerAndDeployCoinage(address,address)":"bcb1a71e","registerAndDeployCoinageAndSetCommissionRate(address,address,uint256,bool)":"3eb2a66c","removeAdmin(address)":"1785f53c","removeMinter(address)":"3092afd5","removeOperator(address)":"ac8a584a","renounceMinter()":"98650275","renounceOperator()":"2ab6f8db","renounceOwnership()":"715018a6","renounceRole(bytes32,address)":"36568abe","revokeMinter(address)":"cfbd4885","revokeOperator(address)":"fad8b32a","revokeRole(bytes32,address)":"d547741f","selectorImplementation(bytes4)":"50d2a276","supportsInterface(bytes4)":"01ffc9a7","transferAdmin(address)":"75829def","transferOwnership(address)":"f2fde38b","unregister(address)":"2ec2c246"},"id":66}