{
  "_format": "hh-sol-artifact-1",
  "contractName": "MarketPlaceThanos",
  "sourceName": "src/L2/MarketPlaceThanos.sol",
  "abi": [
    {
      "inputs": [],
      "name": "AccessControlBadConfirmation",
      "type": "error"
    },
    {
      "inputs": [
        {
          "internalType": "address",
          "name": "account",
          "type": "address"
        },
        {
          "internalType": "bytes32",
          "name": "neededRole",
          "type": "bytes32"
        }
      ],
      "name": "AccessControlUnauthorizedAccount",
      "type": "error"
    },
    {
      "inputs": [],
      "name": "AddressZero",
      "type": "error"
    },
    {
      "inputs": [],
      "name": "AlreadyInitialized",
      "type": "error"
    },
    {
      "inputs": [
        {
          "internalType": "string",
          "name": "errorMessage",
          "type": "string"
        }
      ],
      "name": "BuyerIsSeller",
      "type": "error"
    },
    {
      "inputs": [],
      "name": "FailedToPay",
      "type": "error"
    },
    {
      "inputs": [],
      "name": "FailedToSendFeesToTreasury",
      "type": "error"
    },
    {
      "inputs": [],
      "name": "GemIsAlreadyForSaleOrIsMining",
      "type": "error"
    },
    {
      "inputs": [],
      "name": "GemIsNotForSale",
      "type": "error"
    },
    {
      "inputs": [],
      "name": "GemNotApproved",
      "type": "error"
    },
    {
      "inputs": [],
      "name": "ListingGemFailed",
      "type": "error"
    },
    {
      "inputs": [],
      "name": "NoTokens",
      "type": "error"
    },
    {
      "inputs": [],
      "name": "NotGemOwner",
      "type": "error"
    },
    {
      "inputs": [],
      "name": "NotPaused",
      "type": "error"
    },
    {
      "inputs": [],
      "name": "Paused",
      "type": "error"
    },
    {
      "inputs": [],
      "name": "PurchaseFailed",
      "type": "error"
    },
    {
      "inputs": [],
      "name": "ReentrancyGuardReentrantCall",
      "type": "error"
    },
    {
      "inputs": [],
      "name": "SameAdmin",
      "type": "error"
    },
    {
      "inputs": [],
      "name": "SameOwner",
      "type": "error"
    },
    {
      "inputs": [],
      "name": "WrongLength",
      "type": "error"
    },
    {
      "inputs": [],
      "name": "WrongMsgValue",
      "type": "error"
    },
    {
      "inputs": [],
      "name": "WrongPrice",
      "type": "error"
    },
    {
      "inputs": [],
      "name": "WrongSeller",
      "type": "error"
    },
    {
      "inputs": [],
      "name": "WrongStakingIndex",
      "type": "error"
    },
    {
      "inputs": [],
      "name": "ZeroAddress",
      "type": "error"
    },
    {
      "anonymous": false,
      "inputs": [
        {
          "indexed": false,
          "internalType": "uint256",
          "name": "tokenId",
          "type": "uint256"
        },
        {
          "indexed": false,
          "internalType": "address",
          "name": "payer",
          "type": "address"
        },
        {
          "indexed": false,
          "internalType": "address",
          "name": "seller",
          "type": "address"
        },
        {
          "indexed": false,
          "internalType": "uint256",
          "name": "amount",
          "type": "uint256"
        },
        {
          "indexed": false,
          "internalType": "uint256",
          "name": "gemCoolDownDueDate",
          "type": "uint256"
        }
      ],
      "name": "GemBought",
      "type": "event"
    },
    {
      "anonymous": false,
      "inputs": [
        {
          "indexed": false,
          "internalType": "address",
          "name": "gemfactory",
          "type": "address"
        }
      ],
      "name": "GemFactoryAddressUpdated",
      "type": "event"
    },
    {
      "anonymous": false,
      "inputs": [
        {
          "indexed": false,
          "internalType": "uint256",
          "name": "tokenId",
          "type": "uint256"
        },
        {
          "indexed": false,
          "internalType": "address",
          "name": "seller",
          "type": "address"
        },
        {
          "indexed": false,
          "internalType": "uint256",
          "name": "price",
          "type": "uint256"
        }
      ],
      "name": "GemForSale",
      "type": "event"
    },
    {
      "anonymous": false,
      "inputs": [
        {
          "indexed": false,
          "internalType": "address",
          "name": "seller",
          "type": "address"
        },
        {
          "indexed": false,
          "internalType": "uint256",
          "name": "tokenId",
          "type": "uint256"
        }
      ],
      "name": "GemRemovedFromSale",
      "type": "event"
    },
    {
      "anonymous": false,
      "inputs": [
        {
          "indexed": true,
          "internalType": "bytes32",
          "name": "role",
          "type": "bytes32"
        },
        {
          "indexed": true,
          "internalType": "bytes32",
          "name": "previousAdminRole",
          "type": "bytes32"
        },
        {
          "indexed": true,
          "internalType": "bytes32",
          "name": "newAdminRole",
          "type": "bytes32"
        }
      ],
      "name": "RoleAdminChanged",
      "type": "event"
    },
    {
      "anonymous": false,
      "inputs": [
        {
          "indexed": true,
          "internalType": "bytes32",
          "name": "role",
          "type": "bytes32"
        },
        {
          "indexed": true,
          "internalType": "address",
          "name": "account",
          "type": "address"
        },
        {
          "indexed": true,
          "internalType": "address",
          "name": "sender",
          "type": "address"
        }
      ],
      "name": "RoleGranted",
      "type": "event"
    },
    {
      "anonymous": false,
      "inputs": [
        {
          "indexed": true,
          "internalType": "bytes32",
          "name": "role",
          "type": "bytes32"
        },
        {
          "indexed": true,
          "internalType": "address",
          "name": "account",
          "type": "address"
        },
        {
          "indexed": true,
          "internalType": "address",
          "name": "sender",
          "type": "address"
        }
      ],
      "name": "RoleRevoked",
      "type": "event"
    },
    {
      "anonymous": false,
      "inputs": [
        {
          "indexed": false,
          "internalType": "uint256",
          "name": "discountRate",
          "type": "uint256"
        }
      ],
      "name": "SetDiscountRate",
      "type": "event"
    },
    {
      "anonymous": false,
      "inputs": [
        {
          "indexed": false,
          "internalType": "uint256",
          "name": "stakingIndex",
          "type": "uint256"
        }
      ],
      "name": "SetStakingIndex",
      "type": "event"
    },
    {
      "anonymous": false,
      "inputs": [
        {
          "indexed": false,
          "internalType": "uint256",
          "name": "tokenId",
          "type": "uint256"
        },
        {
          "indexed": false,
          "internalType": "address",
          "name": "claimer",
          "type": "address"
        }
      ],
      "name": "WSTONClaimed",
      "type": "event"
    },
    {
      "inputs": [],
      "name": "ADMIN_ROLE",
      "outputs": [
        {
          "internalType": "bytes32",
          "name": "",
          "type": "bytes32"
        }
      ],
      "stateMutability": "view",
      "type": "function"
    },
    {
      "inputs": [],
      "name": "DECIMALS",
      "outputs": [
        {
          "internalType": "uint256",
          "name": "",
          "type": "uint256"
        }
      ],
      "stateMutability": "view",
      "type": "function"
    },
    {
      "inputs": [],
      "name": "DEFAULT_ADMIN_ROLE",
      "outputs": [
        {
          "internalType": "bytes32",
          "name": "",
          "type": "bytes32"
        }
      ],
      "stateMutability": "view",
      "type": "function"
    },
    {
      "inputs": [],
      "name": "PAUSE_ROLE",
      "outputs": [
        {
          "internalType": "bytes32",
          "name": "",
          "type": "bytes32"
        }
      ],
      "stateMutability": "view",
      "type": "function"
    },
    {
      "inputs": [],
      "name": "TON_FEES_RATE_DIVIDER",
      "outputs": [
        {
          "internalType": "uint256",
          "name": "",
          "type": "uint256"
        }
      ],
      "stateMutability": "view",
      "type": "function"
    },
    {
      "inputs": [
        {
          "internalType": "address",
          "name": "account",
          "type": "address"
        }
      ],
      "name": "addAdmin",
      "outputs": [],
      "stateMutability": "nonpayable",
      "type": "function"
    },
    {
      "inputs": [
        {
          "internalType": "address",
          "name": "account",
          "type": "address"
        }
      ],
      "name": "addPauser",
      "outputs": [],
      "stateMutability": "nonpayable",
      "type": "function"
    },
    {
      "inputs": [
        {
          "internalType": "address",
          "name": "",
          "type": "address"
        }
      ],
      "name": "aliveImplementation",
      "outputs": [
        {
          "internalType": "bool",
          "name": "",
          "type": "bool"
        }
      ],
      "stateMutability": "view",
      "type": "function"
    },
    {
      "inputs": [
        {
          "internalType": "uint256",
          "name": "_tokenId",
          "type": "uint256"
        },
        {
          "internalType": "bool",
          "name": "_paymentMethod",
          "type": "bool"
        }
      ],
      "name": "buyGem",
      "outputs": [],
      "stateMutability": "payable",
      "type": "function"
    },
    {
      "inputs": [
        {
          "internalType": "uint256",
          "name": "",
          "type": "uint256"
        }
      ],
      "name": "gemsForSale",
      "outputs": [
        {
          "internalType": "address",
          "name": "seller",
          "type": "address"
        },
        {
          "internalType": "uint256",
          "name": "price",
          "type": "uint256"
        },
        {
          "internalType": "bool",
          "name": "isActive",
          "type": "bool"
        }
      ],
      "stateMutability": "view",
      "type": "function"
    },
    {
      "inputs": [],
      "name": "getGemFactoryAddress",
      "outputs": [
        {
          "internalType": "address",
          "name": "",
          "type": "address"
        }
      ],
      "stateMutability": "view",
      "type": "function"
    },
    {
      "inputs": [
        {
          "internalType": "uint256",
          "name": "_tokenId",
          "type": "uint256"
        }
      ],
      "name": "getGemForSale",
      "outputs": [
        {
          "components": [
            {
              "internalType": "address",
              "name": "seller",
              "type": "address"
            },
            {
              "internalType": "uint256",
              "name": "price",
              "type": "uint256"
            },
            {
              "internalType": "bool",
              "name": "isActive",
              "type": "bool"
            }
          ],
          "internalType": "struct MarketPlaceStorage.Sale",
          "name": "",
          "type": "tuple"
        }
      ],
      "stateMutability": "view",
      "type": "function"
    },
    {
      "inputs": [],
      "name": "getPauseStatus",
      "outputs": [
        {
          "internalType": "bool",
          "name": "",
          "type": "bool"
        }
      ],
      "stateMutability": "view",
      "type": "function"
    },
    {
      "inputs": [],
      "name": "getPaused",
      "outputs": [
        {
          "internalType": "bool",
          "name": "",
          "type": "bool"
        }
      ],
      "stateMutability": "view",
      "type": "function"
    },
    {
      "inputs": [
        {
          "internalType": "bytes32",
          "name": "role",
          "type": "bytes32"
        }
      ],
      "name": "getRoleAdmin",
      "outputs": [
        {
          "internalType": "bytes32",
          "name": "",
          "type": "bytes32"
        }
      ],
      "stateMutability": "view",
      "type": "function"
    },
    {
      "inputs": [],
      "name": "getStakingIndex",
      "outputs": [
        {
          "internalType": "uint256",
          "name": "",
          "type": "uint256"
        }
      ],
      "stateMutability": "view",
      "type": "function"
    },
    {
      "inputs": [],
      "name": "getTonFeesRate",
      "outputs": [
        {
          "internalType": "uint256",
          "name": "",
          "type": "uint256"
        }
      ],
      "stateMutability": "view",
      "type": "function"
    },
    {
      "inputs": [],
      "name": "getTreasuryAddress",
      "outputs": [
        {
          "internalType": "address",
          "name": "",
          "type": "address"
        }
      ],
      "stateMutability": "view",
      "type": "function"
    },
    {
      "inputs": [],
      "name": "getWstonAddress",
      "outputs": [
        {
          "internalType": "address",
          "name": "",
          "type": "address"
        }
      ],
      "stateMutability": "view",
      "type": "function"
    },
    {
      "inputs": [
        {
          "internalType": "bytes32",
          "name": "role",
          "type": "bytes32"
        },
        {
          "internalType": "address",
          "name": "account",
          "type": "address"
        }
      ],
      "name": "grantRole",
      "outputs": [],
      "stateMutability": "nonpayable",
      "type": "function"
    },
    {
      "inputs": [
        {
          "internalType": "bytes32",
          "name": "role",
          "type": "bytes32"
        },
        {
          "internalType": "address",
          "name": "account",
          "type": "address"
        }
      ],
      "name": "hasRole",
      "outputs": [
        {
          "internalType": "bool",
          "name": "",
          "type": "bool"
        }
      ],
      "stateMutability": "view",
      "type": "function"
    },
    {
      "inputs": [
        {
          "internalType": "address",
          "name": "_treasury",
          "type": "address"
        },
        {
          "internalType": "address",
          "name": "_gemfactory",
          "type": "address"
        },
        {
          "internalType": "uint256",
          "name": "_tonFeesRate",
          "type": "uint256"
        },
        {
          "internalType": "address",
          "name": "_wston",
          "type": "address"
        }
      ],
      "name": "initialize",
      "outputs": [],
      "stateMutability": "nonpayable",
      "type": "function"
    },
    {
      "inputs": [
        {
          "internalType": "address",
          "name": "account",
          "type": "address"
        }
      ],
      "name": "isAdmin",
      "outputs": [
        {
          "internalType": "bool",
          "name": "",
          "type": "bool"
        }
      ],
      "stateMutability": "view",
      "type": "function"
    },
    {
      "inputs": [],
      "name": "isOwner",
      "outputs": [
        {
          "internalType": "bool",
          "name": "",
          "type": "bool"
        }
      ],
      "stateMutability": "view",
      "type": "function"
    },
    {
      "inputs": [
        {
          "internalType": "address",
          "name": "account",
          "type": "address"
        }
      ],
      "name": "isPauser",
      "outputs": [
        {
          "internalType": "bool",
          "name": "",
          "type": "bool"
        }
      ],
      "stateMutability": "view",
      "type": "function"
    },
    {
      "inputs": [],
      "name": "pause",
      "outputs": [],
      "stateMutability": "nonpayable",
      "type": "function"
    },
    {
      "inputs": [],
      "name": "pauseProxy",
      "outputs": [
        {
          "internalType": "bool",
          "name": "",
          "type": "bool"
        }
      ],
      "stateMutability": "view",
      "type": "function"
    },
    {
      "inputs": [
        {
          "internalType": "uint256",
          "name": "",
          "type": "uint256"
        }
      ],
      "name": "proxyImplementation",
      "outputs": [
        {
          "internalType": "address",
          "name": "",
          "type": "address"
        }
      ],
      "stateMutability": "view",
      "type": "function"
    },
    {
      "inputs": [
        {
          "internalType": "uint256",
          "name": "_tokenId",
          "type": "uint256"
        },
        {
          "internalType": "uint256",
          "name": "_price",
          "type": "uint256"
        }
      ],
      "name": "putGemForSale",
      "outputs": [],
      "stateMutability": "nonpayable",
      "type": "function"
    },
    {
      "inputs": [
        {
          "internalType": "uint256[]",
          "name": "tokenIds",
          "type": "uint256[]"
        },
        {
          "internalType": "uint256[]",
          "name": "prices",
          "type": "uint256[]"
        }
      ],
      "name": "putGemListForSale",
      "outputs": [],
      "stateMutability": "nonpayable",
      "type": "function"
    },
    {
      "inputs": [],
      "name": "removeAdmin",
      "outputs": [],
      "stateMutability": "nonpayable",
      "type": "function"
    },
    {
      "inputs": [
        {
          "internalType": "uint256",
          "name": "_tokenId",
          "type": "uint256"
        }
      ],
      "name": "removeGemForSale",
      "outputs": [],
      "stateMutability": "nonpayable",
      "type": "function"
    },
    {
      "inputs": [
        {
          "internalType": "address",
          "name": "account",
          "type": "address"
        }
      ],
      "name": "removePauser",
      "outputs": [],
      "stateMutability": "nonpayable",
      "type": "function"
    },
    {
      "inputs": [
        {
          "internalType": "bytes32",
          "name": "role",
          "type": "bytes32"
        },
        {
          "internalType": "address",
          "name": "callerConfirmation",
          "type": "address"
        }
      ],
      "name": "renounceRole",
      "outputs": [],
      "stateMutability": "nonpayable",
      "type": "function"
    },
    {
      "inputs": [
        {
          "internalType": "bytes32",
          "name": "role",
          "type": "bytes32"
        },
        {
          "internalType": "address",
          "name": "account",
          "type": "address"
        }
      ],
      "name": "revokeRole",
      "outputs": [],
      "stateMutability": "nonpayable",
      "type": "function"
    },
    {
      "inputs": [
        {
          "internalType": "bytes4",
          "name": "",
          "type": "bytes4"
        }
      ],
      "name": "selectorImplementation",
      "outputs": [
        {
          "internalType": "address",
          "name": "",
          "type": "address"
        }
      ],
      "stateMutability": "view",
      "type": "function"
    },
    {
      "inputs": [
        {
          "internalType": "uint256",
          "name": "_tonFeesRate",
          "type": "uint256"
        }
      ],
      "name": "setDiscountRate",
      "outputs": [],
      "stateMutability": "nonpayable",
      "type": "function"
    },
    {
      "inputs": [
        {
          "internalType": "address",
          "name": "_gemFactory",
          "type": "address"
        }
      ],
      "name": "setGemFactory",
      "outputs": [],
      "stateMutability": "nonpayable",
      "type": "function"
    },
    {
      "inputs": [
        {
          "internalType": "uint256",
          "name": "_stakingIndex",
          "type": "uint256"
        }
      ],
      "name": "setStakingIndex",
      "outputs": [],
      "stateMutability": "nonpayable",
      "type": "function"
    },
    {
      "inputs": [
        {
          "internalType": "address",
          "name": "_wston",
          "type": "address"
        }
      ],
      "name": "setWston",
      "outputs": [],
      "stateMutability": "nonpayable",
      "type": "function"
    },
    {
      "inputs": [
        {
          "internalType": "bytes4",
          "name": "interfaceId",
          "type": "bytes4"
        }
      ],
      "name": "supportsInterface",
      "outputs": [
        {
          "internalType": "bool",
          "name": "",
          "type": "bool"
        }
      ],
      "stateMutability": "view",
      "type": "function"
    },
    {
      "inputs": [
        {
          "internalType": "address",
          "name": "newOwner",
          "type": "address"
        }
      ],
      "name": "transferOwnership",
      "outputs": [],
      "stateMutability": "nonpayable",
      "type": "function"
    },
    {
      "inputs": [],
      "name": "unpause",
      "outputs": [],
      "stateMutability": "nonpayable",
      "type": "function"
    },
    {
      "stateMutability": "payable",
      "type": "receive"
    }
  ],
  "bytecode": "0x608080604052346035576b033b2e3c9fd0803ce8000000600a5561ffff19600b5416600b556001600c55612037908161003b8239f35b600080fdfe6080604081815260049182361015610073575b50361561001e57600080fd5b600080808060018060a01b036007541634905af13d1561006e573d610042816118e5565b9061004f8451928361179a565b8152600060203d92013e5b1561006157005b516305c7acc960e01b8152fd5b61005a565b600090813560e01c90816301ffc9a7146116b35750806302424ed314611093578063044bc7791461106a57806308ec897d1461104d5780631d9023cb14610c96578063247ee38814611002578063248a9ca314610fd757806324d7806c14610f825780632e0f262514610f5c5780632ede643214610e8f5780632f2ff15d14610e6557806336568abe14610e1f578063389ed26714610df65780633f4ba83a14610db357806346fbf68e14610d5e5780635074e0c814610d3f57806350d2a27614610cfb578063550d01a314610cbd57806363a8fd8914610c9b5780636805b84b14610c965780636b2c0f5514610bc25780637048027514610b7357806375b238fc14610b4a57806379dbd798146109de5780637c69febd1461098d57806382dc1ec4146109395780638456cb59146108f45780638f32d59b146108ce57806391d14854146108885780639a202d47146107ef5780639c41b42b146107a35780639d541be21461077a578063a217fddf1461075f578063a69c8fb214610740578063adad6926146105bd578063b911135f1461058a578063be203094146104e6578063c255bf1614610464578063ce49a360146103f0578063d547741f146103b4578063e00246041461038b578063e6147518146103155763f2fde38b03610012579190346103115760203660031901126103115761027061172a565b9161028161027c6118c2565b611821565b6001600160a01b03831680156103025733146102f45750906102e160016102e693858052600d6020526102b8828288200154611b52565b6102c184611caf565b50600080516020611fc28339815191528652600d60205285200154611b52565b611b96565b506102f033611e95565b5080f35b9051630a98f1f360e21b8152fd5b50905163d92e233d60e01b8152fd5b8280fd5b5090346103875760203660031901126103875760207fed7acc23c47775012c7b3a370974b91aefab1849cacf173b5ea54273abb481569161035461172a565b61035f61027c6118c2565b600680546001600160a01b0319166001600160a01b039290921691821790559051908152a180f35b5080fd5b50903461038757816003193601126103875760075490516001600160a01b039091168152602090f35b509190346103115780600319360112610311576102f091356103eb60016103d9611740565b93838752600d60205286200154611b52565b611efc565b509190346103115760203660031901126103115781359161041261027c6118c2565b676765c793fa10079d601b1b83106104565750816020917fa597abe6b82f0190c1192d690059f8a214908502cdc266fde36fd659711948d993600a5551908152a180f35b90516373fd31f360e01b8152fd5b509134610311576020366003190112610311578282916060948380516104898161177f565b828152826020820152015280358252602052209080516104a88161177f565b60018060a01b03835416928382528260ff60026001840154936020860194855201541692019115158252825193845251602084015251151590820152f35b509190346103115760803660031901126103115761050261172a565b9061050b611740565b916064359360018060a01b03928386168096036105855760ff600b5460081c1661057957505061053a33611caf565b506044356005558160018060a01b0319931683600654161760065516816007541617600755600854161760085561010061ff0019600b541617600b5580f35b5162dc149f60e41b8152fd5b600080fd5b5091346103115760203660031901126103115735825260016020908152918190205490516001600160a01b039091168152f35b509190346103115760208060031936011261073c57823560ff600b541661072d57808552838252600160ff600285882001541615150361071e5760065483516331a9108f60e11b81528581018390526001600160a01b03918216918482602481865afa9182156107145788926106e5575b50339116036106d5578086913b15610387578180916044875180948193634d723a7560e01b8352888c8401528160248401525af180156106cb576106b3575b5093817f4d3db535b88041fd66b5878bff43bb7fa76399f971704cacc81234e39aa859e2955282528460028482208281558260018201550155825191338352820152a180f35b6106bc90611756565b6106c757843861066d565b8480fd5b85513d84823e3d90fd5b505050516302b327b560e41b8152fd5b610706919250853d871161070d575b6106fe818361179a565b810190611879565b903861062e565b503d6106f4565b86513d8a823e3d90fd5b5050516374f0c4bb60e11b8152fd5b5050516313d0ff5960e31b8152fd5b8380fd5b5090346103875781600319360112610387576020906005549051908152f35b50903461038757816003193601126103875751908152602090f35b50903461038757816003193601126103875760065490516001600160a01b039091168152602090f35b50913461031157602036600319011261031157606092818392358252602052209060018060a01b038254169160ff60026001830154920154169082519384526020840152151590820152f35b50919034610311578260031936011261031157600080516020611fc28339815191528352600d6020528083203360005260205260ff8160002054161561083957826102f033611e0d565b906020608492519162461bcd60e51b8352820152602360248201527f41757468436f6e74726f6c3a2043616c6c6572206973206e6f7420616e20616460448201526236b4b760e91b6064820152fd5b509134610311578160031936011261031157816020936108a6611740565b92358152600d8552209060018060a01b0316600052825260ff81600020541690519015158152f35b5090346103875781600319360112610387576020906108eb6118c2565b90519015158152f35b50913461031157826003193601126103115761091161027c6118c2565b600b549160ff831661092c5760ff198316600117600b558380f35b516313d0ff5960e31b8152fd5b509034610387576020366003190112610387576102f090610988600161095d61172a565b9261096961027c6118c2565b600080516020611f828339815191528652600d60205285200154611b52565b611c25565b509134610311576020366003190112610311577f21a8eefc17e9c864964b5a4c0769d87f39cc0a7576773159e12358bc0095ffc59160209135906109d261027c6118c2565b8160055551908152a180f35b509190346103115780600319360112610311576001600160401b039082358281116106c757610a1090369085016117bb565b602492602435908111610b4657610a2a90369086016117bb565b9060ff600b5416610b365780519382518515610b26578503610b1657865b858110610a53578780f35b6006546001600160a01b0390811690610a6c8386611898565b51875192839163020604bf60e21b83528b830152818660209586935afa928315610b0c578b93610aed575b505030911603610add57610ac0610aae8285611898565b51610ab98387611898565b5190611966565b15610acd57600101610a48565b845163176479df60e01b81528790fd5b845163077ad1ed60e51b81528790fd5b610b04929350803d1061070d576106fe818361179a565b903880610a97565b88513d8d823e3d90fd5b83516349552d5960e11b81528690fd5b845163df95788360e01b81528790fd5b82516313d0ff5960e31b81528590fd5b8580fd5b50903461038757816003193601126103875760209051600080516020611fc28339815191528152f35b509034610387576020366003190112610387576102f0906102e16001610b9761172a565b92610ba361027c6118c2565b600080516020611fc28339815191528652600d60205285200154611b52565b50913461031157602036600319011261031157610bdd61172a565b91600080516020611f828339815191528452600d6020528084203360005260205260ff8160002054168015610c88575b15610c3957336001600160a01b03841603610c2c57836102f084611d85565b5163334bd91960e11b8152fd5b906020608492519162461bcd60e51b8352820152602360248201527f41757468436f6e74726f6c3a2043616c6c6572206973206e6f7420612070617560448201526239b2b960e91b6064820152fd5b50610c916118c2565b610c0d565b611707565b50903461038757816003193601126103875760ff602092541690519015158152f35b5090346103875760203660031901126103875760209160ff9082906001600160a01b03610ce861172a565b1681526002855220541690519015158152f35b509134610311576020366003190112610311573563ffffffff60e01b811680910361031157825260036020908152918190205490516001600160a01b039091168152f35b509034610387578160031936011261038757602090600a549051908152f35b5090346103875760203660031901126103875760209181610d7d61172a565b91600080516020611f828339815191528152600d8552209060018060a01b0316600052825260ff81600020541690519015158152f35b509134610311578260031936011261031157610dd061027c6118c2565b600b549160ff831615610de957505060ff1916600b5580f35b51636cd6020160e01b8152fd5b50903461038757816003193601126103875760209051600080516020611f828339815191528152f35b509034610387578060031936011261038757610e39611740565b90336001600160a01b03831603610e5657506102f0919235611efc565b5163334bd91960e11b81528390fd5b509190346103115780600319360112610311576102f09135610e8a60016103d9611740565b611d1c565b50919034610311578060031936011261031157813560ff600b5416610f4e57600654825163020604bf60e21b8152848101839052906001600160a01b03906020908390602490829085165afa918215610f44578692610f23575b5030911603610f1557610eff9060243590611966565b15610f08578280f35b5163176479df60e01b8152fd5b505163077ad1ed60e51b8152fd5b610f3d91925060203d60201161070d576106fe818361179a565b9038610ee9565b84513d88823e3d90fd5b50516313d0ff5960e31b8152fd5b50903461038757816003193601126103875751676765c793fa10079d601b1b8152602090f35b5090346103875760203660031901126103875760209181610fa161172a565b91600080516020611fc28339815191528152600d8552209060018060a01b0316600052825260ff81600020541690519015158152f35b5091346103115760203660031901126103115781602093600192358152600d85522001549051908152f35b503461104a57602036600319011261104a5761101c61172a565b61102761027c6118c2565b600880546001600160a01b0319166001600160a01b039290921691909117905580f35b80fd5b509034610387578160031936011261038757602090516127108152f35b50903461038757816003193601126103875760085490516001600160a01b039091168152602090f35b50908060031936011261038757823590602493843580151581036106c75760ff600b54166116a4576002600c5414611695576002600c5533156116865783855260209282845260ff600282882001541615611677578486528284528086209260018401549360018060a01b0380915416938433148061166f575b61162c571561150957806008541686845180926323b872dd60e01b8252818c8161113b8c8c338c8501611936565b03925af180156114b7576114d5575b505b868852818652828820600201805460ff191690556006548116803b1561141457888a60448a83809589519687958694634d723a7560e01b86528b8601528401525af180156114b7579089916114c1575b50508060065416803b156114145783516323b872dd60e01b815290899082908183816111cc8e338d8c8501611936565b03925af180156114b7579189918b949361149d575b506006541684519a8b809263aa723bb760e01b82528b868301525afa98891561149357889961125a575b5050508681015181519586523394860194909452840152606083015260808201527f9be2432b8472bc411770bfc657166b0ccd4e6d3613ae58c16fa57f5eb2c98b009060a090a16001600c5580f35b909198503d8089833e61126d818361179a565b81019886828b03126114145781516001600160401b03928382116114775701906101c0828c031261148f5784519361014085018581108582111761147b5786528251855288830151898601528583015186860152606083015160608601526112d760808401611958565b60808601526112e860a08401611958565b60a08601526112f960c08401611929565b60c08601528b60ff8401121561147757855160808101818110868211176114635787526101608401929190808e8511610585578b60e08701915b86831061144b5750505060e08701528c61017f850112156114475786519187830191838310878411176114345750508652806101a08401928d8411610585578a90915b84831061141c575050506101008501525191821161141457019780601f8a0112156114185788516113a6816118e5565b916113b38551938461179a565b81835287828c01011161141457885b818110611401575081018601889052610120820152965080807f9be2432b8472bc411770bfc657166b0ccd4e6d3613ae58c16fa57f5eb2c98b0061120b565b8a810188015183820189015287016113c2565b8880fd5b8780fd5b819061142784611958565b8152019101908a90611376565b604190634e487b7160e01b600052526000fd5b8b80fd5b819061145684611958565b8152019101908c90611333565b83604184634e487b7160e01b600052526000fd5b8a80fd5b50604190634e487b7160e01b600052526000fd5b8980fd5b83513d8a823e3d90fd5b6114a991939450611756565b6114185790878992386111e1565b84513d8b823e3d90fd5b6114ca90611756565b61141857873861119c565b8681813d8311611502575b6114ea818361179a565b81010312611414576114fb90611929565b503861114a565b503d6114e0565b676765c793fa10079d601b1b611521600a5487611900565b0461271061153160055483611900565b04810180911161161a57633b9aca009004341061160b57806007541680850361155b575b5061114c565b803b15611414578880918b86518094819363081cb0a960e31b83528b898401525af180156114b7576115f8575b506115b586868360085416878c86600754168951968795869485936323b872dd60e01b85528c8501611936565b03925af180156114b75715611555578681813d83116115f1575b6115d9818361179a565b81010312611414576115ea90611929565b5038611555565b503d6115cf565b61160490989198611756565b9638611588565b509051633bf87c3160e11b8152fd5b634e487b7160e01b8952601183528989fd5b835163b06bd67960e01b8152808401889052601d818c01527f5573652052656d6f766547656d46726f6d4c69737420696e73746561640000006044820152606490fd5b50600161110d565b516374f0c4bb60e11b81529050fd5b509051639fabe1c160e01b8152fd5b509051633ee5aeb560e01b8152fd5b5090516313d0ff5960e31b8152fd5b90508334610311576020366003190112610311573563ffffffff60e01b81168091036103115760209250637965db0b60e01b81149081156116f6575b5015158152f35b6301ffc9a760e01b149050836116ef565b3461058557600036600319011261058557602060ff600b54166040519015158152f35b600435906001600160a01b038216820361058557565b602435906001600160a01b038216820361058557565b6001600160401b03811161176957604052565b634e487b7160e01b600052604160045260246000fd5b606081019081106001600160401b0382111761176957604052565b90601f801991011681019081106001600160401b0382111761176957604052565b81601f82011215610585578035916020916001600160401b038411611769578360051b90604051946117ef8584018761179a565b85528380860192820101928311610585578301905b828210611812575050505090565b81358152908301908301611804565b1561182857565b60405162461bcd60e51b8152602060048201526024808201527f41757468436f6e74726f6c3a2043616c6c6572206973206e6f7420746865206f6044820152633bb732b960e11b6064820152608490fd5b9081602091031261058557516001600160a01b03811681036105855790565b80518210156118ac5760209160051b010190565b634e487b7160e01b600052603260045260246000fd5b336000908152600080516020611fa2833981519152602052604090205460ff1690565b6001600160401b03811161176957601f01601f191660200190565b8181029291811591840414171561191357565b634e487b7160e01b600052601160045260246000fd5b5190811515820361058557565b6001600160a01b03918216815291166020820152604081019190915260600190565b519060ff8216820361058557565b90600654600060018060a01b038092166040928351926331a9108f60e11b845260049287848601526020948581602481855afa908115611b0b578391611b35575b508333911603611b25578615611b1557855163276a28a360e01b81528481018990528581602481855afa8015611b0b578390611ad6575b60019150151514611ac657803b15610387578180916044885180948193634d723a7560e01b83528d8a840152600160248401525af18015611abc57927f8b8052dfcc72d6fc28cd795f60661e1a701f185ce78c06a47b2ac29357d6ef8b989694926002926060999795611aad575b50855191611a598361177f565b338352868684019289845281850196600188528b825288522092511660018060a01b0319835416178255516001820155019051151560ff8019835416911617905581519384523390840152820152a1600190565b611ab690611756565b38611a4c565b86513d84823e3d90fd5b855163e970f37f60e01b81528490fd5b508581813d8311611b04575b611aec818361179a565b8101031261031157611aff600191611929565b6119de565b503d611ae2565b87513d85823e3d90fd5b855163f7760f2560e01b81528490fd5b85516302b327b560e41b81528490fd5b611b4c9150863d881161070d576106fe818361179a565b386119a7565b80600052600d60205260406000203360005260205260ff6040600020541615611b785750565b6044906040519063e2517d3f60e01b82523360048301526024820152fd5b6001600160a01b031660008181527f88b4bb17cd989dc2b732e34571fa88bf3f14ba2c8a5a9b857d8c67161bbf09246020526040812054909190600080516020611fc28339815191529060ff16611c2057808352600d6020526040832082845260205260408320600160ff19825416179055600080516020611f62833981519152339380a4600190565b505090565b6001600160a01b031660008181527f16e35dd8a8dbb734e1efb62ed62f7a565ef620743c89077f09f0989eaf5193ac6020526040812054909190600080516020611f828339815191529060ff16611c2057808352600d6020526040832082845260205260408320600160ff19825416179055600080516020611f62833981519152339380a4600190565b6001600160a01b03166000818152600080516020611fa2833981519152602052604081205490919060ff16611d1857818052600d6020526040822081835260205260408220600160ff198254161790553391600080516020611f628339815191528180a4600190565b5090565b90600091808352600d602052604083209160018060a01b03169182845260205260ff60408420541615600014611c2057808352600d6020526040832082845260205260408320600160ff19825416179055600080516020611f62833981519152339380a4600190565b6001600160a01b031660008181527f16e35dd8a8dbb734e1efb62ed62f7a565ef620743c89077f09f0989eaf5193ac6020526040812054909190600080516020611f828339815191529060ff1615611c2057808352600d602052604083208284526020526040832060ff198154169055600080516020611fe2833981519152339380a4600190565b6001600160a01b031660008181527f88b4bb17cd989dc2b732e34571fa88bf3f14ba2c8a5a9b857d8c67161bbf09246020526040812054909190600080516020611fc28339815191529060ff1615611c2057808352600d602052604083208284526020526040832060ff198154169055600080516020611fe2833981519152339380a4600190565b6001600160a01b03166000818152600080516020611fa2833981519152602052604081205490919060ff1615611d1857818052600d602052604082208183526020526040822060ff1981541690553391600080516020611fe28339815191528180a4600190565b90600091808352600d602052604083209160018060a01b03169182845260205260ff604084205416600014611c2057808352600d602052604083208284526020526040832060ff198154169055600080516020611fe2833981519152339380a460019056fe2f8788117e7eff1d82e926ec794901d17c78024a50270940304540a733656f0dfcb9fcbfa83b897fb2d5cf4b58962164105c1e71489a37ef3ae0db3fdce576f681955a0a11e65eac625c29e8882660bae4e165a75d72780094acae8ece9a29eedf8b4c520ffe197c5343c6f5aec59570151ef9a492f2c624fd45ddde6135ec42f6391f5c32d9c69d2a47ea670b442974b53935d1edc7fd64eb21e047a839171ba2646970667358221220f0753d7934b63b051b8284db766641e7d1eb8a915129c35703bc00b939c3186d64736f6c63430008190033",
  "linkReferences": {},
  "deployedLinkReferences": {}
}