{"abi":[{"type":"function","name":"ADMIN_ROLE","inputs":[],"outputs":[{"name":"","type":"bytes32","internalType":"bytes32"}],"stateMutability":"view"},{"type":"function","name":"DEFAULT_ADMIN_ROLE","inputs":[],"outputs":[{"name":"","type":"bytes32","internalType":"bytes32"}],"stateMutability":"view"},{"type":"function","name":"PAUSE_ROLE","inputs":[],"outputs":[{"name":"","type":"bytes32","internalType":"bytes32"}],"stateMutability":"view"},{"type":"function","name":"addAdmin","inputs":[{"name":"account","type":"address","internalType":"address"}],"outputs":[],"stateMutability":"nonpayable"},{"type":"function","name":"addPauser","inputs":[{"name":"account","type":"address","internalType":"address"}],"outputs":[],"stateMutability":"nonpayable"},{"type":"function","name":"aliveImplementation","inputs":[{"name":"","type":"address","internalType":"address"}],"outputs":[{"name":"","type":"bool","internalType":"bool"}],"stateMutability":"view"},{"type":"function","name":"approveGem","inputs":[{"name":"operator","type":"address","internalType":"address"},{"name":"_tokenId","type":"uint256","internalType":"uint256"}],"outputs":[],"stateMutability":"nonpayable"},{"type":"function","name":"approveWstonForMarketplace","inputs":[{"name":"amount","type":"uint256","internalType":"uint256"}],"outputs":[],"stateMutability":"nonpayable"},{"type":"function","name":"buyGem","inputs":[{"name":"_tokenId","type":"uint256","internalType":"uint256"},{"name":"_paymentMethod","type":"bool","internalType":"bool"}],"outputs":[],"stateMutability":"nonpayable"},{"type":"function","name":"createPreminedGEM","inputs":[{"name":"_rarity","type":"uint8","internalType":"enum GemFactoryStorage.Rarity"},{"name":"_color","type":"uint8[2]","internalType":"uint8[2]"},{"name":"_quadrants","type":"uint8[4]","internalType":"uint8[4]"},{"name":"_tokenURI","type":"string","internalType":"string"}],"outputs":[{"name":"","type":"uint256","internalType":"uint256"}],"stateMutability":"nonpayable"},{"type":"function","name":"createPreminedGEMPool","inputs":[{"name":"_rarities","type":"uint8[]","internalType":"enum GemFactoryStorage.Rarity[]"},{"name":"_colors","type":"uint8[2][]","internalType":"uint8[2][]"},{"name":"_quadrants","type":"uint8[4][]","internalType":"uint8[4][]"},{"name":"_tokenURIs","type":"string[]","internalType":"string[]"}],"outputs":[{"name":"","type":"uint256[]","internalType":"uint256[]"}],"stateMutability":"nonpayable"},{"type":"function","name":"getAirdropAddress","inputs":[],"outputs":[{"name":"","type":"address","internalType":"address"}],"stateMutability":"view"},{"type":"function","name":"getGemFactoryAddress","inputs":[],"outputs":[{"name":"","type":"address","internalType":"address"}],"stateMutability":"view"},{"type":"function","name":"getMarketPlaceAddress","inputs":[],"outputs":[{"name":"","type":"address","internalType":"address"}],"stateMutability":"view"},{"type":"function","name":"getRandomPackAddress","inputs":[],"outputs":[{"name":"","type":"address","internalType":"address"}],"stateMutability":"view"},{"type":"function","name":"getRoleAdmin","inputs":[{"name":"role","type":"bytes32","internalType":"bytes32"}],"outputs":[{"name":"","type":"bytes32","internalType":"bytes32"}],"stateMutability":"view"},{"type":"function","name":"getSwapPoolAddress","inputs":[],"outputs":[{"name":"","type":"address","internalType":"address"}],"stateMutability":"view"},{"type":"function","name":"getTONBalance","inputs":[],"outputs":[{"name":"","type":"uint256","internalType":"uint256"}],"stateMutability":"view"},{"type":"function","name":"getTonAddress","inputs":[],"outputs":[{"name":"","type":"address","internalType":"address"}],"stateMutability":"view"},{"type":"function","name":"getWSTONBalance","inputs":[],"outputs":[{"name":"","type":"uint256","internalType":"uint256"}],"stateMutability":"view"},{"type":"function","name":"getWstonAddress","inputs":[],"outputs":[{"name":"","type":"address","internalType":"address"}],"stateMutability":"view"},{"type":"function","name":"grantRole","inputs":[{"name":"role","type":"bytes32","internalType":"bytes32"},{"name":"account","type":"address","internalType":"address"}],"outputs":[],"stateMutability":"nonpayable"},{"type":"function","name":"hasRole","inputs":[{"name":"role","type":"bytes32","internalType":"bytes32"},{"name":"account","type":"address","internalType":"address"}],"outputs":[{"name":"","type":"bool","internalType":"bool"}],"stateMutability":"view"},{"type":"function","name":"initialize","inputs":[{"name":"_wston","type":"address","internalType":"address"},{"name":"_ton","type":"address","internalType":"address"},{"name":"_gemFactory","type":"address","internalType":"address"}],"outputs":[],"stateMutability":"nonpayable"},{"type":"function","name":"isAdmin","inputs":[{"name":"account","type":"address","internalType":"address"}],"outputs":[{"name":"","type":"bool","internalType":"bool"}],"stateMutability":"view"},{"type":"function","name":"isOwner","inputs":[],"outputs":[{"name":"","type":"bool","internalType":"bool"}],"stateMutability":"view"},{"type":"function","name":"isPauser","inputs":[{"name":"account","type":"address","internalType":"address"}],"outputs":[{"name":"","type":"bool","internalType":"bool"}],"stateMutability":"view"},{"type":"function","name":"onERC721Received","inputs":[{"name":"","type":"address","internalType":"address"},{"name":"","type":"address","internalType":"address"},{"name":"","type":"uint256","internalType":"uint256"},{"name":"","type":"bytes","internalType":"bytes"}],"outputs":[{"name":"","type":"bytes4","internalType":"bytes4"}],"stateMutability":"pure"},{"type":"function","name":"pause","inputs":[],"outputs":[],"stateMutability":"nonpayable"},{"type":"function","name":"pauseProxy","inputs":[],"outputs":[{"name":"","type":"bool","internalType":"bool"}],"stateMutability":"view"},{"type":"function","name":"proxyImplementation","inputs":[{"name":"","type":"uint256","internalType":"uint256"}],"outputs":[{"name":"","type":"address","internalType":"address"}],"stateMutability":"view"},{"type":"function","name":"putGemForSale","inputs":[{"name":"_tokenId","type":"uint256","internalType":"uint256"},{"name":"_price","type":"uint256","internalType":"uint256"}],"outputs":[],"stateMutability":"nonpayable"},{"type":"function","name":"putGemListForSale","inputs":[{"name":"tokenIds","type":"uint256[]","internalType":"uint256[]"},{"name":"prices","type":"uint256[]","internalType":"uint256[]"}],"outputs":[],"stateMutability":"nonpayable"},{"type":"function","name":"removeAdmin","inputs":[],"outputs":[],"stateMutability":"nonpayable"},{"type":"function","name":"removeGemFromSale","inputs":[{"name":"_tokenId","type":"uint256","internalType":"uint256"}],"outputs":[],"stateMutability":"nonpayable"},{"type":"function","name":"removePauser","inputs":[{"name":"account","type":"address","internalType":"address"}],"outputs":[],"stateMutability":"nonpayable"},{"type":"function","name":"renounceRole","inputs":[{"name":"role","type":"bytes32","internalType":"bytes32"},{"name":"callerConfirmation","type":"address","internalType":"address"}],"outputs":[],"stateMutability":"nonpayable"},{"type":"function","name":"revokeRole","inputs":[{"name":"role","type":"bytes32","internalType":"bytes32"},{"name":"account","type":"address","internalType":"address"}],"outputs":[],"stateMutability":"nonpayable"},{"type":"function","name":"selectorImplementation","inputs":[{"name":"","type":"bytes4","internalType":"bytes4"}],"outputs":[{"name":"","type":"address","internalType":"address"}],"stateMutability":"view"},{"type":"function","name":"setAirdrop","inputs":[{"name":"_airdrop","type":"address","internalType":"address"}],"outputs":[],"stateMutability":"nonpayable"},{"type":"function","name":"setGemFactory","inputs":[{"name":"_gemFactory","type":"address","internalType":"address"}],"outputs":[],"stateMutability":"nonpayable"},{"type":"function","name":"setMarketPlace","inputs":[{"name":"marketplace","type":"address","internalType":"address"}],"outputs":[],"stateMutability":"nonpayable"},{"type":"function","name":"setRandomPack","inputs":[{"name":"_randomPack","type":"address","internalType":"address"}],"outputs":[],"stateMutability":"nonpayable"},{"type":"function","name":"setWstonSwapPool","inputs":[{"name":"_wstonSwapPool","type":"address","internalType":"address"}],"outputs":[],"stateMutability":"nonpayable"},{"type":"function","name":"supportsInterface","inputs":[{"name":"interfaceId","type":"bytes4","internalType":"bytes4"}],"outputs":[{"name":"","type":"bool","internalType":"bool"}],"stateMutability":"view"},{"type":"function","name":"tonApproveWstonSwapPool","inputs":[{"name":"_amount","type":"uint256","internalType":"uint256"}],"outputs":[{"name":"","type":"bool","internalType":"bool"}],"stateMutability":"nonpayable"},{"type":"function","name":"transferOwnership","inputs":[{"name":"newOwner","type":"address","internalType":"address"}],"outputs":[],"stateMutability":"nonpayable"},{"type":"function","name":"transferTON","inputs":[{"name":"_to","type":"address","internalType":"address"},{"name":"_amount","type":"uint256","internalType":"uint256"}],"outputs":[{"name":"","type":"bool","internalType":"bool"}],"stateMutability":"nonpayable"},{"type":"function","name":"transferTreasuryGEMto","inputs":[{"name":"_to","type":"address","internalType":"address"},{"name":"_tokenId","type":"uint256","internalType":"uint256"}],"outputs":[{"name":"","type":"bool","internalType":"bool"}],"stateMutability":"nonpayable"},{"type":"function","name":"transferWSTON","inputs":[{"name":"_to","type":"address","internalType":"address"},{"name":"_amount","type":"uint256","internalType":"uint256"}],"outputs":[{"name":"","type":"bool","internalType":"bool"}],"stateMutability":"nonpayable"},{"type":"function","name":"unpause","inputs":[],"outputs":[],"stateMutability":"nonpayable"},{"type":"event","name":"RoleAdminChanged","inputs":[{"name":"role","type":"bytes32","indexed":true,"internalType":"bytes32"},{"name":"previousAdminRole","type":"bytes32","indexed":true,"internalType":"bytes32"},{"name":"newAdminRole","type":"bytes32","indexed":true,"internalType":"bytes32"}],"anonymous":false},{"type":"event","name":"RoleGranted","inputs":[{"name":"role","type":"bytes32","indexed":true,"internalType":"bytes32"},{"name":"account","type":"address","indexed":true,"internalType":"address"},{"name":"sender","type":"address","indexed":true,"internalType":"address"}],"anonymous":false},{"type":"event","name":"RoleRevoked","inputs":[{"name":"role","type":"bytes32","indexed":true,"internalType":"bytes32"},{"name":"account","type":"address","indexed":true,"internalType":"address"},{"name":"sender","type":"address","indexed":true,"internalType":"address"}],"anonymous":false},{"type":"error","name":"AccessControlBadConfirmation","inputs":[]},{"type":"error","name":"AccessControlUnauthorizedAccount","inputs":[{"name":"account","type":"address","internalType":"address"},{"name":"neededRole","type":"bytes32","internalType":"bytes32"}]},{"type":"error","name":"AddressEmptyCode","inputs":[{"name":"target","type":"address","internalType":"address"}]},{"type":"error","name":"AddressInsufficientBalance","inputs":[{"name":"account","type":"address","internalType":"address"}]},{"type":"error","name":"FailedInnerCall","inputs":[]},{"type":"error","name":"InvalidAddress","inputs":[]},{"type":"error","name":"NotEnoughWstonAvailableInTreasury","inputs":[]},{"type":"error","name":"ReentrancyGuardReentrantCall","inputs":[]},{"type":"error","name":"SafeERC20FailedOperation","inputs":[{"name":"token","type":"address","internalType":"address"}]},{"type":"error","name":"SameAdmin","inputs":[]},{"type":"error","name":"SameOwner","inputs":[]},{"type":"error","name":"TonAddressIsNotSet","inputs":[]},{"type":"error","name":"UnsuffiscientTonBalance","inputs":[]},{"type":"error","name":"UnsuffiscientWstonBalance","inputs":[]},{"type":"error","name":"WstonAddressIsNotSet","inputs":[]},{"type":"error","name":"ZeroAddress","inputs":[]}],"bytecode":{"object":"0x608060405234601f57600e6024565b60405161328e6100b9823961328e90f35b600080fd5b602a605b565b565b9060ff60a01b9060a01b5b9181191691161790565b90565b9060516041605792151590565b8254602c565b9055565b6061606b565b602a6000600c6044565b602a602a602a602a602a602a602a60aa565b6041604160419290565b60416001607d565b90600019906037565b9060a46041605792607d565b8254608f565b602a60b26087565b6004609856fe6080604052600436101561001257600080fd5b60003560e01c80630169dc311461034257806301ffc9a71461033d57806302424ed314610338578063044bc7791461033357806312608dfb1461032e578063150b7a0214610329578063248a9ca31461032457806324d7806c1461031f5780632ede64321461031a5780632f2ff15d1461031557806330568a8d1461031057806336568abe1461030b578063389ed267146103065780633b22f110146103015780633d007e57146102fc5780633f4ba83a146102f757806340e58548146102f2578063425c7fc2146102ed57806346fbf68e146102e857806348dbcef0146102e357806350d2a276146102de578063550d01a3146102d957806363a8fd89146102d4578063694eaa40146102cf5780636ae638d0146102ca5780636b2c0f55146102c55780636fcf2fc9146102c057806370480275146102bb57806372820dbc146102b657806375b238fc146102b157806379dbd798146102ac57806382dc1ec4146102a75780638456cb59146102a25780638f32d59b1461029d578063912b431b1461029857806391d1485414610293578063952377f31461028e57806398d111b2146102895780639a202d47146102845780639d541be21461027f578063a217fddf1461027a578063b23a1d0d14610275578063b911135f14610270578063bae77ac91461026b578063c0c53b8b14610266578063d547741f14610261578063e61475181461025c578063ec23919a14610257578063ec7ae61d14610252578063ed8c24721461024d5763f2fde38b03610347576111a2565b61118a565b61116e565b611153565b61113b565b611122565b611109565b6110c5565b6110aa565b611078565b61105d565b611023565b61100b565b610ff3565b610fd8565b610fbc565b610f9d565b610f32565b610f1a565b610f02565b610ee9565b610e1f565b610ddb565b610dc3565b610daa565b610d92565b610d77565b610d5c565b610d41565b610d1b565b610ca1565b610c2c565b610c11565b610be6565b61074f565b610737565b61071c565b610701565b6106e6565b6106a1565b610689565b610670565b610634565b6105fd565b6105be565b610584565b6104e7565b6104ac565b61046a565b610417565b6103b4565b600080fd5b6001600160a01b031690565b90565b6103648161034c565b0361034757565b905035906103788261035b565b565b80610364565b905035906103788261037a565b9190604083820312610347576103589060206103a9828661036b565b9401610380565b9052565b34610347576103e26103d06103ca36600461038d565b90611378565b60405191829182901515815260200190565b0390f35b6001600160e01b03198116610364565b90503590610378826103e6565b9060208282031261034757610358916103f6565b34610347576103e26103d061042d366004610403565b611384565b801515610364565b9050359061037882610432565b9190604083820312610347576103589060206104638286610380565b940161043a565b346103475761048361047d366004610447565b9061149f565b604051005b600091031261034757565b6103b09061034c565b6020810192916103789190610493565b34610347576104bc366004610488565b6103e26104c76114a9565b6040519182918261049c565b906020828203126103475761035891610380565b34610347576103e26103d06104fd3660046104d3565b61161f565b909182601f83011215610347578135916001600160401b03831161034757602001926001830284011161034757565b9060808282031261034757610546818361036b565b92610554826020850161036b565b926105628360408301610380565b9260608201356001600160401b038111610347576105809201610502565b9091565b34610347576103e26105a361059a366004610531565b93929092611643565b604051918291826001600160e01b0319909116815260200190565b34610347576103e26105d96105d43660046104d3565b611675565b6040519182918290815260200190565b90602082820312610347576103589161036b565b34610347576103e26103d06106133660046105e9565b611694565b9190604083820312610347576103589060206103a98286610380565b3461034757610483610647366004610618565b90611880565b9190604083820312610347576103589060206106698286610380565b940161036b565b346103475761048361068336600461064d565b906118ad565b346103475761048361069c3660046105e9565b611930565b34610347576104836106b436600461064d565b90611939565b7ffcb9fcbfa83b897fb2d5cf4b58962164105c1e71489a37ef3ae0db3fdce576f690565b6103586106ba565b34610347576106f6366004610488565b6103e26105d96106de565b3461034757610711366004610488565b6103e26105d961196c565b346103475761072c366004610488565b6103e26104c7611979565b3461034757610747366004610488565b610483611a98565b34610347576104836107623660046104d3565b611b67565b634e487b7160e01b600052604160045260246000fd5b90601f01601f191681019081106001600160401b0382111761079e57604052565b610767565b906103786107b060405190565b928361077d565b6001600160401b03811161079e5760208091020190565b6006111561034757565b90503590610378826107ce565b909291926107fa6107f5826107b7565b6107a3565b938185526020808601920283019281841161034757915b83831061081e5750505050565b6020809161082c84866107d8565b815201920191610811565b9080601f8301121561034757816020610358933591016107e5565b6001600160401b03811161079e5760200290565b60ff8116610364565b9050359061037882610866565b9092919261088c6107f582610852565b93602085920283019281841161034757915b8383106108ab5750505050565b602080916108b9848661086f565b81520192019161089e565b9080601f830112156103475760026103589261087c565b909291926108eb6107f5826107b7565b93818552604060208601920283019281841161034757915b8383106109105750505050565b602060409161091f84866108c4565b815201920191610903565b9080601f8301121561034757816020610358933591016108db565b909291926109556107f582610852565b93602085920283019281841161034757915b8383106109745750505050565b60208091610982848661086f565b815201920191610967565b9080601f8301121561034757600461035892610945565b909291926109b46107f5826107b7565b93818552608060208601920283019281841161034757915b8383106109d95750505050565b60206080916109e8848661098d565b8152019201916109cc565b9080601f8301121561034757816020610358933591016109a4565b6001600160401b03811161079e57602090601f01601f19160190565b0190565b90826000939282370152565b90929192610a4a6107f582610a0e565b938185528183011161034757610378916020850190610a2e565b9080601f830112156103475781602061035893359101610a3a565b929190610a8e6107f5826107b7565b93818552602080860192028101918383116103475781905b838210610ab4575050505050565b81356001600160401b03811161034757602091610ad48784938701610a64565b815201910190610aa6565b9080601f830112156103475781602061035893359101610a7f565b906080828203126103475781356001600160401b0381116103475781610b21918401610837565b9260208301356001600160401b0381116103475782610b4191850161092a565b9260408101356001600160401b0381116103475783610b619183016109f3565b9260608201356001600160401b038111610347576103589201610adf565b90610b9f610b98610b8e845190565b8084529260200190565b9260200190565b9060005b818110610bb05750505090565b909192610bcd610bc66001928651815260200190565b9460200190565b929101610ba3565b602080825261035892910190610b7f565b34610347576103e2610c05610bfc366004610afa565b929190916121e0565b60405191829182610bd5565b34610347576103e26103d0610c273660046105e9565b6121ee565b34610347576103e26103d0610c4236600461038d565b9061234c565b6001600160e01b03191690565b90610c5f90610c48565b600052602052604060002090565b610358916008021c6001600160a01b031690565b906103589154610c6d565b6000610c9c610358926003610c55565b610c81565b34610347576103e26104c7610cb7366004610403565b610c8c565b6103589061034c906001600160a01b031682565b61035890610cbc565b61035890610cd0565b90610c5f90610cd9565b610358916008021c5b60ff1690565b906103589154610cec565b6000610d16610358926002610ce2565b610cfb565b34610347576103e26103d0610d313660046105e9565b610d06565b610358600080610cfb565b3461034757610d51366004610488565b6103e26103d0610d36565b3461034757610d6c366004610488565b6103e26104c7612358565b3461034757610d87366004610488565b6103e26104c7612362565b3461034757610483610da53660046105e9565b612413565b3461034757610483610dbd36600461038d565b9061247b565b3461034757610483610dd63660046105e9565b6124a5565b3461034757610483610dee3660046105e9565b6124f7565b7fdf8b4c520ffe197c5343c6f5aec59570151ef9a492f2c624fd45ddde6135ec4290565b610358610df3565b3461034757610e2f366004610488565b6103e26105d9610e17565b90929192610e4a6107f5826107b7565b938185526020808601920283019281841161034757915b838310610e6e5750505050565b60208091610e7c8486610380565b815201920191610e61565b9080601f830112156103475781602061035893359101610e3a565b9190916040818403126103475780356001600160401b0381116103475783610ecb918301610e87565b9260208201356001600160401b038111610347576103589201610e87565b3461034757610483610efc366004610ea2565b90612637565b3461034757610483610f153660046105e9565b61265c565b3461034757610f2a366004610488565b6104836126db565b3461034757610f42366004610488565b6103e26103d06126e3565b906101008282031261034757610f6381836107d8565b92610f7182602085016108c4565b92610f7f836060830161098d565b9260e08201356001600160401b038111610347576103589201610a64565b34610347576103e26105d9610fb3366004610f4d565b92919091612963565b34610347576103e26103d0610fd236600461064d565b90612984565b3461034757610fe8366004610488565b6103e26104c76129a4565b34610347576104836110063660046104d3565b612a2b565b346103475761101b366004610488565b610483612ab2565b3461034757611033366004610488565b6103e26104c7612aba565b6103586103586103589290565b610358600061103e565b61035861104b565b346103475761106d366004610488565b6103e26105d9611055565b346103475761048361108b3660046105e9565b612b0d565b90610c5f9061103e565b6000610c9c610358926001611090565b34610347576103e26104c76110c03660046104d3565b61109a565b34610347576110d5366004610488565b6103e26105d9612b16565b9091606082840312610347576103586110f9848461036b565b936040610669826020870161036b565b346103475761048361111c3660046110e0565b91612bec565b346103475761048361113536600461064d565b90612c5b565b346103475761048361114e3660046105e9565b612cb2565b3461034757611163366004610488565b6103e26104c7612cbb565b34610347576103e26103d061118436600461038d565b90612d38565b346103475761048361119d3660046105e9565b612d8d565b34610347576104836111b53660046105e9565b612e38565b6103589061034c565b61035890546111ba565b156111d457565b60405162461bcd60e51b815260206004820152604560248201527f63616c6c6572206973206e656974686572204f776e6572206e6f722047656d4660448201527f6163746f7279206e6f72204d61726b6574506c616365206e6f722052616e646f6064820152646d5061636b60d81b608482015260a490fd5b0390fd5b90610358929161126961126460066111c3565b61034c565b6112723361034c565b1480156112ea575b80156112cd575b80156112b0575b801561129d575b611298906111cd565b611307565b506112986112a96126e3565b905061128f565b506112be61126460096111c3565b6112c73361034c565b14611288565b506112db61126460086111c3565b6112e43361034c565b14611281565b506112f861126460076111c3565b6113013361034c565b1461127a565b9061131a9291611315612e6c565b611323565b90610378612eac565b509061132e82612ebe565b611336612b16565b8190611341565b9190565b10611366576113619161135c611357600a6111c3565b610cd9565b612eed565b600190565b604051638e85197360e01b8152600490fd5b61035891906000611251565b61035890612f35565b1561139457565b60405162461bcd60e51b81526020600482015260126024820152713737ba1027bbb732b91037b91020b236b4b760711b6044820152606490fd5b90610378916113dc33611694565b80156113f1575b6113ec9061138d565b611429565b506113ec6113fd6126e3565b90506113e3565b908152604081019291610378916020905b019015159052565b6040513d6000823e3d90fd5b61143961135761135760076111c3565b91823b1561034757611471926000928361145260405190565b8096819582946114666302424ed360e01b90565b845260048401611404565b03925af1801561149a576114825750565b610378906000611492818361077d565b810190610488565b61141d565b90610378916113ce565b610358600a6111c3565b156114ba57565b60405162461bcd60e51b815260206004820152601960248201527831b0b63632b91034b9903737ba103a34329029bbb0b83832b960391b6044820152606490fd5b906103589161150d611264600c6111c3565b6115163361034c565b14801561152c575b611527906114b3565b61157f565b506115276115386126e3565b905061151e565b9050519061037882610432565b90602082820312610347576103589161153f565b91602061037892949361157b60408201966000830190610493565b0152565b6115dd9160209150611599611594600b6111c3565b612ebe565b6115a9611357611357600b6111c3565b6115b3600c6111c3565b60006115be60405190565b8096819582946115d263095ea7b360e01b90565b845260048401611560565b03925af1801561149a576115f2575b50600190565b6116139060203d602011611618575b61160b818361077d565b81019061154c565b6115ec565b503d611601565b6103589060006114fb565b610c4861163d6103589263ffffffff1690565b60e01b90565b5050505050611650600090565b5061035863150b7a0261162a565b90610c5f565b6103589081565b6103589054611664565b600161168e61035892611686600090565b50600561165e565b0161166b565b610358906116a0610df3565b612984565b90610378916116b333611694565b80156116c8575b6116c39061138d565b61172b565b506116c36116d46126e3565b90506116ba565b9160206103789294936116f660408201966000830190610493565b0190610493565b91602061037892949361141560408201966000830190610493565b9081526040810192916103789160200152565b61177d602061174061135761135760066111c3565b61174930610cd9565b9061175460076111c3565b9161175e60405190565b80958194829361177263e985e9c560e01b90565b8452600484016116db565b03915afa801561149a576117979160009161186357501590565b6117e4575b6117ac61135761135760076111c3565b91823b156103475761147192600092836117c560405190565b8096819582946117d9632ede643260e01b90565b845260048401611718565b6117f461135761135760066111c3565b6117fe60076111c3565b90803b15610347576001600091611838938361181960405190565b80968195829461182d63a22cb46560e01b90565b8452600484016116fd565b03925af1801561149a5761184d575b5061179c565b61185d906000611492818361077d565b38611847565b61187c915060203d6020116116185761160b818361077d565b1590565b90610378916116a5565b90610378916118a061189b82611675565b612f6f565b906118aa91612f9a565b50565b906103789161188a565b610378906118c433611694565b80156118d9575b6118d49061138d565b61191c565b506118d46118e56126e3565b90506118cb565b906001600160a01b03905b9181191691161790565b9061191161035861191892610cd9565b82546118ec565b9055565b6103789061192981612ebe565b6007611901565b610378906118b7565b906119433361034c565b61194c8261034c565b0361195a576118aa9161301c565b60405163334bd91960e11b8152600490fd5b61197530610cd9565b3190565b61035860096111c3565b1561198a57565b60405162461bcd60e51b8152602060048201526024808201527f41757468436f6e74726f6c3a2043616c6c6572206973206e6f7420746865206f6044820152633bb732b960e11b6064820152608490fd5b6119eb6119e66126e3565b611983565b610378611a4c565b6103589060a01c610cf5565b61035890546119f3565b15611a1057565b60405162461bcd60e51b815260206004820152601460248201527314185d5cd8589b194e881b9bdd081c185d5cd95960621b6044820152606490fd5b611a5e611a59600c6119ff565b611a09565b610378611a8c565b9060ff60a01b9060a01b6118f7565b90611a8561035861191892151590565b8254611a66565b6103786000600c611a75565b6103786119db565b15611aa757565b60405162461bcd60e51b815260206004820152602660248201527f63616c6c6572206973206e6f7420746865206d61726b6574706c61636520636f6044820152651b9d1c9858dd60d21b6064820152608490fd5b61037890611b1e611b0f61126460076111c3565b611b183361034c565b14611aa0565b6020611b3e91611b34611357611357600a6111c3565b6115b360076111c3565b03925af1801561149a57611b4f5750565b6118aa9060203d6020116116185761160b818361077d565b61037890611afb565b15611b7757565b60405162461bcd60e51b815260206004820152602f60248201527f63616c6c6572206973206e656974686572206f776e6572206e6f722072616e6460448201526e1bdb541858dac818dbdb9d1c9858dd608a1b6064820152608490fd5b9061035894939291611be961126460086111c3565b611bf23361034c565b148015611c22575b8015611c0f575b611c0a90611b70565b61200d565b50611c0a611c1b6126e3565b9050611c01565b50611c3061126460076111c3565b611c393361034c565b14611bfa565b634e487b7160e01b600052603260045260246000fd5b90611c5e825190565b811015611c6f576020809102010190565b611c3f565b634e487b7160e01b600052602160045260246000fd5b60061115611c9457565b611c74565b9061037882611c8a565b6103589051611c99565b905051906103788261037a565b906020828203126103475761035891611cad565b61035890611c99565b6103b090611cce565b6020810192916103789190611cd7565b634e487b7160e01b600052601160045260246000fd5b91908201809211611d1357565b611cf0565b90929192611d286107f5826107b7565b938185526020808601920283019281841161034757915b838310611d4c5750505050565b60208091611d5a8486611cad565b815201920191611d3f565b9080601f8301121561034757815161035892602001611d18565b906020828203126103475781516001600160401b038111610347576103589201611d65565b90610a2a81602093611cd7565b90611dc0610b98610b8e845190565b9060005b818110611dd15750505090565b909192611de4610bc66001928651611da4565b929101611dc4565b611df861133d60029390565b6000915b838310611e095750505050565b611e1f610b98600192845160ff16815260200190565b92019190611dfc565b90610a2a81604093611dec565b90611e44610b98610b8e845190565b9060005b818110611e555750505090565b909192611e68610bc66001928651611e28565b929101611e48565b611e7c61133d60049390565b6000915b838310611e8d5750505050565b611ea3610b98600192845160ff16815260200190565b92019190611e80565b90610a2a81608093611e70565b90611ec8610b98610b8e845190565b9060005b818110611ed95750505090565b909192611eec610bc66001928651611eac565b929101611ecc565b60005b838110611f075750506000910152565b8181015183820152602001611ef7565b611f38611f41602093610a2a93611f2c815190565b80835293849260200190565b95869101611ef4565b601f01601f191690565b9061035891611f17565b90611f6b611f61835190565b8083529160200190565b9081611f7d6020830284019460200190565b926000915b838310611f9157505050505090565b90919293946020611fb4611fad83856001950387528951611f4b565b9760200190565b9301930191939290611f82565b92611ff16103589593611fe3611fff94608088019088820360008a0152611db1565b908682036020880152611e35565b908482036040860152611eb9565b916060818403910152611f55565b508051909490936000926000946120238661103e565b945b875b8610156120de5761207b9060208a6120576120528a61204c61135761135760066111c3565b93611c55565b611ca3565b9061206160405190565b94859283918291630b513d9960e01b835260048301611ce0565b03915afa91821561149a57612027926120a69261209f928b926120ae575b50611d06565b9660010190565b959050612025565b6120d091925060203d81116120d7575b6120c8818361077d565b810190611cba565b9038612099565b503d6120be565b9194509296919495506120ef612b16565b9061210061135761135760066111c3565b602061210b60405190565b630265f21b60e51b815291829060049082905afa90811561149a5761213e9261133d92610358928b916121c15750611d06565b106121af5784928361215661135761135760066111c3565b9261217d61216360405190565b97889687958694630ff1ac6760e01b865260048601611fc1565b03925af191821561149a57809261219357505090565b61035892503d8091833e6121a7818361077d565b810190611d7f565b60405163f2cd224d60e01b8152600490fd5b6121da915060203d6020116120d7576120c8818361077d565b38612099565b610358939291906060611bd4565b610358906116a06106ba565b90610358929161220d61126460066111c3565b6122163361034c565b14801561228e575b8015612271575b8015612254575b8015612241575b61223c906111cd565b6122d5565b5061223c61224d6126e3565b9050612233565b5061226261126460096111c3565b61226b3361034c565b1461222c565b5061227f61126460086111c3565b6122883361034c565b14612225565b5061229c61126460076111c3565b6122a53361034c565b1461221e565b60409061157b61037894969593966122cb60608401986000850190610493565b6020830190610493565b50906122e56113578060066111c3565b906122ef30610cd9565b91803b1561034757612322936000809461230860405190565b968795869485936323b872dd60e01b8552600485016122ab565b03925af1801561149a576123365750600190565b612346906000611492818361077d565b386115ec565b610358919060006121fa565b61035860076111c3565b610358600b6111c3565b1561237357565b60405162461bcd60e51b815260206004820152602360248201527f41757468436f6e74726f6c3a2043616c6c6572206973206e6f7420612070617560448201526239b2b960e91b6064820152608490fd5b610378906123da6123d36106ba565b3390612984565b80156123ef575b6123ea9061236c565b612402565b506123ea6123fb6126e3565b90506123e1565b6103789061240e6106ba565b611939565b610378906123c4565b906103789161242a33611694565b801561243f575b61243a9061138d565b612452565b5061243a61244b6126e3565b9050612431565b61246261135761135760066111c3565b91823b156103475761147192600092836115be60405190565b906103789161241c565b610378906124946119e66126e3565b610378906124a0610df3565b6118ad565b61037890612485565b610378906124bb33611694565b80156124d0575b6124cb9061138d565b6124e3565b506124cb6124dc6126e3565b90506124c2565b610378906124f081612ebe565b6009611901565b610378906124ae565b906103789161250e33611694565b8015612523575b61251e9061138d565b61255b565b5061251e61252f6126e3565b9050612515565b604080825261035893919261254d91840190610b7f565b916020818403910152610b7f565b612570602061174061135761135760066111c3565b03915afa801561149a5761258a9160009161186357501590565b6125d7575b61259f61135761135760076111c3565b91823b156103475761147192600092836125b860405190565b8096819582946125cc6379dbd79860e01b90565b845260048401612536565b6125e761135761135760066111c3565b6125f160076111c3565b90803b1561034757600160009161260c938361181960405190565b03925af1801561149a57612621575b5061258f565b612631906000611492818361077d565b3861261b565b9061037891612500565b610378906126506119e66126e3565b610378906124a06106ba565b61037890612641565b6126706119e66126e3565b6103786126b7565b1561267f57565b60405162461bcd60e51b815260206004820152601060248201526f14185d5cd8589b194e881c185d5cd95960821b6044820152606490fd5b6126cc6126c761187c600c6119ff565b612678565b6103786103786001600c611a75565b610378612665565b6103586123d361104b565b906103589493929161270361126460086111c3565b61270c3361034c565b14801561273c575b8015612729575b61272490611b70565b612813565b506127246127356126e3565b905061271b565b5061274a61126460076111c3565b6127533361034c565b14612714565b61276561133d60029390565b6000915b8383106127765750505050565b61278c610b98600192845160ff16815260200190565b92019190612769565b6127a161133d60049390565b6000915b8383106127b25750505050565b6127c8610b98600192845160ff16815260200190565b920191906127a5565b9092612806906127fc61035896946127f26101008601976000870190611cd7565b6020850190612759565b6060830190612795565b60e0818403910152611f17565b9291925061281f612b16565b61282f61135761135760066111c3565b602061283a60405190565b630265f21b60e51b815291829060049082905afa90811561149a57600091612944575b5061286e61135761135760066111c3565b90602061287a60405190565b928390630b513d9960e01b825281806128968960048301611ce0565b03915afa91821561149a576128ba9261133d926103589260009261292a5750611d06565b106121af5760209260006128d461135761135760066111c3565b926128fb6128e160405190565b9788968795869463975781b760e01b8652600486016127d1565b03925af190811561149a57600091612911575090565b610358915060203d6020116120d7576120c8818361077d565b6120d091925060203d6020116120d7576120c8818361077d565b61295d915060203d6020116120d7576120c8818361077d565b3861285d565b6103589392919060006126ee565b61035890610cf5565b6103589054612971565b61035891600061299961299f93611686600090565b01610ce2565b61297a565b610358600c6111c3565b610378906129bb33611694565b80156129d0575b6129cb9061138d565b6129e3565b506129cb6129dc6126e3565b90506129c2565b6129f361135761135760076111c3565b803b1561034757611471600092918392612a0c60405190565b94859384928391906356d6b49360e11b83526004830190815260200190565b610378906129ae565b15612a3b57565b60405162461bcd60e51b815260206004820152602360248201527f41757468436f6e74726f6c3a2043616c6c6572206973206e6f7420616e20616460448201526236b4b760e91b6064820152608490fd5b612a9d612a9833611694565b612a34565b610378610378612aab610df3565b3390611939565b610378612a8c565b61035860066111c3565b61037890612ad133611694565b8015612ae6575b612ae19061138d565b612af9565b50612ae1612af26126e3565b9050612ad8565b61037890612b0681612ebe565b600c611901565b61037890612ac4565b612b586020612b2b611357611357600a6111c3565b612b3430610cd9565b90612b3e60405190565b938492839182916370a0823160e01b83526004830161049c565b03915afa90811561149a57600091612911575090565b6103589060a81c610cf5565b6103589054612b6e565b15612b8b57565b60405162461bcd60e51b8152602060048201526013602482015272185b1c9958591e481a5b9a5d1a585b1a5e9959606a1b6044820152606490fd5b9060ff60a81b9060a81b6118f7565b90612be561035861191892151590565b8254612bc6565b612c2d90612c26612c3494612c0c612c0761187c600c612b7a565b612b84565b612c1e612c1761104b565b3390612f9a565b506006611901565b600a611901565b600b611901565b6103786001600c612bd5565b9061037891612c5161189b82611675565b906118aa9161301c565b9061037891612c40565b61037890612c7233611694565b8015612c87575b612c829061138d565b612c9a565b50612c82612c936126e3565b9050612c79565b61037890612cab61159460066111c3565b6006611901565b61037890612c65565b61035860086111c3565b906103589291612cd433611694565b8015612ce9575b612ce49061138d565b612cfc565b50612ce4612cf56126e3565b9050612cdb565b5090612d0782612ebe565b612d0f61196c565b8111612d26576113619161135c611357600b6111c3565b60405163a5a9c2b760e01b8152600490fd5b61035891906000612cc5565b61037890612d5133611694565b8015612d66575b612d619061138d565b612d79565b50612d61612d726126e3565b9050612d58565b61037890612d8681612ebe565b6008611901565b61037890612d44565b61037890612da56119e66126e3565b612dc0565b61034c6103586103589290565b61035890612daa565b612dcd6112646000612db7565b612dd68261034c565b14612e2657612de48161034c565b612ded3361034c565b14612e145761037890612aab612e0161104b565b91612e0c81846118ad565b6124a0610df3565b604051630a98f1f360e21b8152600490fd5b60405163d92e233d60e01b8152600490fd5b61037890612d96565b610358600261103e565b90600019906118f7565b90612e656103586119189261103e565b8254612e4b565b612e76600461166b565b612e7e612e41565b908114612e9057610378906004612e55565b604051633ee5aeb560e01b8152600490fd5b610358600161103e565b610378612eb7612ea2565b6004612e55565b612ed4612ece6112646000612db7565b9161034c565b14612edb57565b60405163e6c4247b60e01b8152600490fd5b612f30600492612f2161037895612f0763a9059cbb61162a565b92612f1160405190565b9687946020860190815201611560565b6020820181038252038361077d565b613079565b637965db0b60e01b6001600160e01b0319821614908115612f54575090565b61035891506001600160e01b0319166301ffc9a760e01b1490565b6103789033906130f3565b9060ff906118f7565b90612f9361035861191892151590565b8254612f7a565b612fa761187c8383612984565b1561301557612fc76001612fc284600061299986600561165e565b612f83565b612fe1612fdb612fd5339390565b93610cd9565b91610cd9565b917f2f8788117e7eff1d82e926ec794901d17c78024a50270940304540a733656f0d61300c60405190565b600090a4600190565b5050600090565b6130268282612984565b15613015576130406000612fc2848261299986600561165e565b61304e612fdb612fd5339390565b917ff6391f5c32d9c69d2a47ea670b442974b53935d1edc7fd64eb21e047a839171b61300c60405190565b61308561308c91610cd9565b918261312b565b805161309b61133d600061103e565b141590816130cf575b506130ac5750565b61124d906130b960405190565b635274afe760e01b81529182916004830161049c565b6130ed91508060206130e261187c935190565b81830101910161154c565b386130a4565b9061310161187c8284612984565b613109575050565b61124d61311560405190565b63e2517d3f60e01b815292839260048401611560565b61035891613139600061103e565b91613170565b9061314c6107f583610a0e565b918252565b3d1561316b576131603d61313f565b903d6000602084013e565b606090565b9161317a30610cd9565b818131106131a4575060008281926020610358969551920190855af161319e613151565b916131c7565b61124d906131b160405190565b63cd78605960e01b81529182916004830161049c565b906131d25750613229565b81516131e161133d600061103e565b1480613213575b6131f0575090565b61124d906131fd60405190565b639996b31560e01b81529182916004830161049c565b50803b61322361133d600061103e565b146131e8565b805161323861133d600061103e565b111561324657805190602001fd5b604051630a12f52160e11b8152600490fdfea264697066735822122087148d39c2201ea29aa68d48cd1e6caa101ddce029b42ab086ba5d5b4cd0ec1564736f6c63430008190033","linkReferences":{}},"methodIdentifiers":{"ADMIN_ROLE()":"75b238fc","DEFAULT_ADMIN_ROLE()":"a217fddf","PAUSE_ROLE()":"389ed267","addAdmin(address)":"70480275","addPauser(address)":"82dc1ec4","aliveImplementation(address)":"550d01a3","approveGem(address,uint256)":"6fcf2fc9","approveWstonForMarketplace(uint256)":"40e58548","buyGem(uint256,bool)":"02424ed3","createPreminedGEM(uint8,uint8[2],uint8[4],string)":"912b431b","createPreminedGEMPool(uint8[],uint8[2][],uint8[4][],string[])":"425c7fc2","getAirdropAddress()":"3d007e57","getGemFactoryAddress()":"9d541be2","getMarketPlaceAddress()":"694eaa40","getRandomPackAddress()":"ec23919a","getRoleAdmin(bytes32)":"248a9ca3","getSwapPoolAddress()":"952377f3","getTONBalance()":"3b22f110","getTonAddress()":"6ae638d0","getWSTONBalance()":"bae77ac9","getWstonAddress()":"044bc779","grantRole(bytes32,address)":"2f2ff15d","hasRole(bytes32,address)":"91d14854","initialize(address,address,address)":"c0c53b8b","isAdmin(address)":"24d7806c","isOwner()":"8f32d59b","isPauser(address)":"46fbf68e","onERC721Received(address,address,uint256,bytes)":"150b7a02","pause()":"8456cb59","pauseProxy()":"63a8fd89","proxyImplementation(uint256)":"b911135f","putGemForSale(uint256,uint256)":"2ede6432","putGemListForSale(uint256[],uint256[])":"79dbd798","removeAdmin()":"9a202d47","removeGemFromSale(uint256)":"98d111b2","removePauser(address)":"6b2c0f55","renounceRole(bytes32,address)":"36568abe","revokeRole(bytes32,address)":"d547741f","selectorImplementation(bytes4)":"50d2a276","setAirdrop(address)":"72820dbc","setGemFactory(address)":"e6147518","setMarketPlace(address)":"30568a8d","setRandomPack(address)":"ed8c2472","setWstonSwapPool(address)":"b23a1d0d","supportsInterface(bytes4)":"01ffc9a7","tonApproveWstonSwapPool(uint256)":"12608dfb","transferOwnership(address)":"f2fde38b","transferTON(address,uint256)":"ec7ae61d","transferTreasuryGEMto(address,uint256)":"48dbcef0","transferWSTON(address,uint256)":"0169dc31","unpause()":"3f4ba83a"},"id":13}