{"abi":[{"type":"receive","stateMutability":"payable"},{"type":"function","name":"ADMIN_ROLE","inputs":[],"outputs":[{"name":"","type":"bytes32","internalType":"bytes32"}],"stateMutability":"view"},{"type":"function","name":"DECIMALS","inputs":[],"outputs":[{"name":"","type":"uint256","internalType":"uint256"}],"stateMutability":"view"},{"type":"function","name":"DEFAULT_ADMIN_ROLE","inputs":[],"outputs":[{"name":"","type":"bytes32","internalType":"bytes32"}],"stateMutability":"view"},{"type":"function","name":"PAUSE_ROLE","inputs":[],"outputs":[{"name":"","type":"bytes32","internalType":"bytes32"}],"stateMutability":"view"},{"type":"function","name":"TON_FEES_RATE_DIVIDER","inputs":[],"outputs":[{"name":"","type":"uint256","internalType":"uint256"}],"stateMutability":"view"},{"type":"function","name":"addAdmin","inputs":[{"name":"account","type":"address","internalType":"address"}],"outputs":[],"stateMutability":"nonpayable"},{"type":"function","name":"addPauser","inputs":[{"name":"account","type":"address","internalType":"address"}],"outputs":[],"stateMutability":"nonpayable"},{"type":"function","name":"aliveImplementation","inputs":[{"name":"","type":"address","internalType":"address"}],"outputs":[{"name":"","type":"bool","internalType":"bool"}],"stateMutability":"view"},{"type":"function","name":"approveGem","inputs":[{"name":"operator","type":"address","internalType":"address"},{"name":"_tokenId","type":"uint256","internalType":"uint256"}],"outputs":[],"stateMutability":"nonpayable"},{"type":"function","name":"approveWstonForMarketplace","inputs":[{"name":"amount","type":"uint256","internalType":"uint256"}],"outputs":[],"stateMutability":"nonpayable"},{"type":"function","name":"buyGem","inputs":[{"name":"_tokenId","type":"uint256","internalType":"uint256"},{"name":"_paymentMethod","type":"bool","internalType":"bool"}],"outputs":[],"stateMutability":"nonpayable"},{"type":"function","name":"createPreminedGEM","inputs":[{"name":"_rarity","type":"uint8","internalType":"enum GemFactoryStorage.Rarity"},{"name":"_color","type":"uint8[2]","internalType":"uint8[2]"},{"name":"_quadrants","type":"uint8[4]","internalType":"uint8[4]"},{"name":"_tokenURI","type":"string","internalType":"string"}],"outputs":[{"name":"","type":"uint256","internalType":"uint256"}],"stateMutability":"nonpayable"},{"type":"function","name":"createPreminedGEMPool","inputs":[{"name":"_rarities","type":"uint8[]","internalType":"enum GemFactoryStorage.Rarity[]"},{"name":"_colors","type":"uint8[2][]","internalType":"uint8[2][]"},{"name":"_quadrants","type":"uint8[4][]","internalType":"uint8[4][]"},{"name":"_tokenURIs","type":"string[]","internalType":"string[]"}],"outputs":[{"name":"","type":"uint256[]","internalType":"uint256[]"}],"stateMutability":"nonpayable"},{"type":"function","name":"getAirdropAddress","inputs":[],"outputs":[{"name":"","type":"address","internalType":"address"}],"stateMutability":"view"},{"type":"function","name":"getGemFactoryAddress","inputs":[],"outputs":[{"name":"","type":"address","internalType":"address"}],"stateMutability":"view"},{"type":"function","name":"getMarketPlaceAddress","inputs":[],"outputs":[{"name":"","type":"address","internalType":"address"}],"stateMutability":"view"},{"type":"function","name":"getRandomPackAddress","inputs":[],"outputs":[{"name":"","type":"address","internalType":"address"}],"stateMutability":"view"},{"type":"function","name":"getRoleAdmin","inputs":[{"name":"role","type":"bytes32","internalType":"bytes32"}],"outputs":[{"name":"","type":"bytes32","internalType":"bytes32"}],"stateMutability":"view"},{"type":"function","name":"getSwapPoolAddress","inputs":[],"outputs":[{"name":"","type":"address","internalType":"address"}],"stateMutability":"view"},{"type":"function","name":"getTONBalance","inputs":[],"outputs":[{"name":"","type":"uint256","internalType":"uint256"}],"stateMutability":"view"},{"type":"function","name":"getWSTONBalance","inputs":[],"outputs":[{"name":"","type":"uint256","internalType":"uint256"}],"stateMutability":"view"},{"type":"function","name":"getWstonAddress","inputs":[],"outputs":[{"name":"","type":"address","internalType":"address"}],"stateMutability":"view"},{"type":"function","name":"grantRole","inputs":[{"name":"role","type":"bytes32","internalType":"bytes32"},{"name":"account","type":"address","internalType":"address"}],"outputs":[],"stateMutability":"nonpayable"},{"type":"function","name":"hasRole","inputs":[{"name":"role","type":"bytes32","internalType":"bytes32"},{"name":"account","type":"address","internalType":"address"}],"outputs":[{"name":"","type":"bool","internalType":"bool"}],"stateMutability":"view"},{"type":"function","name":"initialize","inputs":[{"name":"_wston","type":"address","internalType":"address"},{"name":"_gemFactory","type":"address","internalType":"address"}],"outputs":[],"stateMutability":"nonpayable"},{"type":"function","name":"isAdmin","inputs":[{"name":"account","type":"address","internalType":"address"}],"outputs":[{"name":"","type":"bool","internalType":"bool"}],"stateMutability":"view"},{"type":"function","name":"isOwner","inputs":[],"outputs":[{"name":"","type":"bool","internalType":"bool"}],"stateMutability":"view"},{"type":"function","name":"isPauser","inputs":[{"name":"account","type":"address","internalType":"address"}],"outputs":[{"name":"","type":"bool","internalType":"bool"}],"stateMutability":"view"},{"type":"function","name":"onERC721Received","inputs":[{"name":"","type":"address","internalType":"address"},{"name":"","type":"address","internalType":"address"},{"name":"","type":"uint256","internalType":"uint256"},{"name":"","type":"bytes","internalType":"bytes"}],"outputs":[{"name":"","type":"bytes4","internalType":"bytes4"}],"stateMutability":"pure"},{"type":"function","name":"pause","inputs":[],"outputs":[],"stateMutability":"nonpayable"},{"type":"function","name":"pauseProxy","inputs":[],"outputs":[{"name":"","type":"bool","internalType":"bool"}],"stateMutability":"view"},{"type":"function","name":"proxyImplementation","inputs":[{"name":"","type":"uint256","internalType":"uint256"}],"outputs":[{"name":"","type":"address","internalType":"address"}],"stateMutability":"view"},{"type":"function","name":"putGemForSale","inputs":[{"name":"_tokenId","type":"uint256","internalType":"uint256"},{"name":"_price","type":"uint256","internalType":"uint256"}],"outputs":[],"stateMutability":"nonpayable"},{"type":"function","name":"putGemListForSale","inputs":[{"name":"tokenIds","type":"uint256[]","internalType":"uint256[]"},{"name":"prices","type":"uint256[]","internalType":"uint256[]"}],"outputs":[],"stateMutability":"nonpayable"},{"type":"function","name":"removeAdmin","inputs":[],"outputs":[],"stateMutability":"nonpayable"},{"type":"function","name":"removeGemFromSale","inputs":[{"name":"_tokenId","type":"uint256","internalType":"uint256"}],"outputs":[],"stateMutability":"nonpayable"},{"type":"function","name":"removePauser","inputs":[{"name":"account","type":"address","internalType":"address"}],"outputs":[],"stateMutability":"nonpayable"},{"type":"function","name":"renounceRole","inputs":[{"name":"role","type":"bytes32","internalType":"bytes32"},{"name":"callerConfirmation","type":"address","internalType":"address"}],"outputs":[],"stateMutability":"nonpayable"},{"type":"function","name":"revokeRole","inputs":[{"name":"role","type":"bytes32","internalType":"bytes32"},{"name":"account","type":"address","internalType":"address"}],"outputs":[],"stateMutability":"nonpayable"},{"type":"function","name":"selectorImplementation","inputs":[{"name":"","type":"bytes4","internalType":"bytes4"}],"outputs":[{"name":"","type":"address","internalType":"address"}],"stateMutability":"view"},{"type":"function","name":"setAirdrop","inputs":[{"name":"_airdrop","type":"address","internalType":"address"}],"outputs":[],"stateMutability":"nonpayable"},{"type":"function","name":"setGemFactory","inputs":[{"name":"_gemFactory","type":"address","internalType":"address"}],"outputs":[],"stateMutability":"nonpayable"},{"type":"function","name":"setMarketPlace","inputs":[{"name":"marketplace","type":"address","internalType":"address"}],"outputs":[],"stateMutability":"nonpayable"},{"type":"function","name":"setRandomPack","inputs":[{"name":"_randomPack","type":"address","internalType":"address"}],"outputs":[],"stateMutability":"nonpayable"},{"type":"function","name":"setWston","inputs":[{"name":"_wston","type":"address","internalType":"address"}],"outputs":[],"stateMutability":"nonpayable"},{"type":"function","name":"setWstonSwapPool","inputs":[{"name":"_wstonSwapPool","type":"address","internalType":"address"}],"outputs":[],"stateMutability":"nonpayable"},{"type":"function","name":"supportsInterface","inputs":[{"name":"interfaceId","type":"bytes4","internalType":"bytes4"}],"outputs":[{"name":"","type":"bool","internalType":"bool"}],"stateMutability":"view"},{"type":"function","name":"transferOwnership","inputs":[{"name":"newOwner","type":"address","internalType":"address"}],"outputs":[],"stateMutability":"nonpayable"},{"type":"function","name":"transferTON","inputs":[{"name":"_to","type":"address","internalType":"address"},{"name":"_amount","type":"uint256","internalType":"uint256"}],"outputs":[{"name":"","type":"bool","internalType":"bool"}],"stateMutability":"nonpayable"},{"type":"function","name":"transferTreasuryGEMto","inputs":[{"name":"_to","type":"address","internalType":"address"},{"name":"_tokenId","type":"uint256","internalType":"uint256"}],"outputs":[{"name":"","type":"bool","internalType":"bool"}],"stateMutability":"nonpayable"},{"type":"function","name":"transferWSTON","inputs":[{"name":"_to","type":"address","internalType":"address"},{"name":"_amount","type":"uint256","internalType":"uint256"}],"outputs":[{"name":"","type":"bool","internalType":"bool"}],"stateMutability":"nonpayable"},{"type":"function","name":"unpause","inputs":[],"outputs":[],"stateMutability":"nonpayable"},{"type":"event","name":"RoleAdminChanged","inputs":[{"name":"role","type":"bytes32","indexed":true,"internalType":"bytes32"},{"name":"previousAdminRole","type":"bytes32","indexed":true,"internalType":"bytes32"},{"name":"newAdminRole","type":"bytes32","indexed":true,"internalType":"bytes32"}],"anonymous":false},{"type":"event","name":"RoleGranted","inputs":[{"name":"role","type":"bytes32","indexed":true,"internalType":"bytes32"},{"name":"account","type":"address","indexed":true,"internalType":"address"},{"name":"sender","type":"address","indexed":true,"internalType":"address"}],"anonymous":false},{"type":"event","name":"RoleRevoked","inputs":[{"name":"role","type":"bytes32","indexed":true,"internalType":"bytes32"},{"name":"account","type":"address","indexed":true,"internalType":"address"},{"name":"sender","type":"address","indexed":true,"internalType":"address"}],"anonymous":false},{"type":"error","name":"AccessControlBadConfirmation","inputs":[]},{"type":"error","name":"AccessControlUnauthorizedAccount","inputs":[{"name":"account","type":"address","internalType":"address"},{"name":"neededRole","type":"bytes32","internalType":"bytes32"}]},{"type":"error","name":"AddressEmptyCode","inputs":[{"name":"target","type":"address","internalType":"address"}]},{"type":"error","name":"AddressInsufficientBalance","inputs":[{"name":"account","type":"address","internalType":"address"}]},{"type":"error","name":"FailedInnerCall","inputs":[]},{"type":"error","name":"FailedToSendTON","inputs":[]},{"type":"error","name":"InvalidAddress","inputs":[]},{"type":"error","name":"NotEnoughTonAvailableInTreasury","inputs":[]},{"type":"error","name":"NotEnoughWstonAvailableInTreasury","inputs":[]},{"type":"error","name":"ReentrancyGuardReentrantCall","inputs":[]},{"type":"error","name":"SafeERC20FailedOperation","inputs":[{"name":"token","type":"address","internalType":"address"}]},{"type":"error","name":"SameAdmin","inputs":[]},{"type":"error","name":"SameOwner","inputs":[]},{"type":"error","name":"TonAddressIsNotSet","inputs":[]},{"type":"error","name":"UnsuffiscientTonBalance","inputs":[]},{"type":"error","name":"UnsuffiscientWstonBalance","inputs":[]},{"type":"error","name":"WstonAddressIsNotSet","inputs":[]},{"type":"error","name":"ZeroAddress","inputs":[]}],"bytecode":{"object":"0x608060405234601f57600e6024565b60405161351f6100b9823961351f90f35b600080fd5b602a605b565b565b9060ff60a01b9060a01b5b9181191691161790565b90565b9060516041605792151590565b8254602c565b9055565b6061606b565b602a6000600c6044565b602a602a602a602a602a602a602a60aa565b6041604160419290565b60416001607d565b90600019906037565b9060a46041605792607d565b8254608f565b602a60b26087565b6004609856fe6080604052600436101561001b575b361561001957600080fd5b005b60003560e01c80630169dc311461035b57806301ffc9a71461035657806302424ed314610351578063044bc7791461034c57806308ec897d14610347578063150b7a0214610342578063247ee3881461033d578063248a9ca31461033857806324d7806c146103335780632e0f26251461032e5780632ede6432146103295780632f2ff15d1461032457806330568a8d1461031f57806336568abe1461031a578063389ed267146103155780633b22f110146103105780633d007e571461030b5780633f4ba83a1461030657806340e5854814610301578063425c7fc2146102fc57806346fbf68e146102f7578063485cc955146102f257806348dbcef0146102ed57806350d2a276146102e8578063550d01a3146102e357806363a8fd89146102de578063694eaa40146102d95780636b2c0f55146102d45780636fcf2fc9146102cf57806370480275146102ca57806372820dbc146102c557806375b238fc146102c057806379dbd798146102bb57806382dc1ec4146102b65780638456cb59146102b15780638f32d59b146102ac578063912b431b146102a757806391d14854146102a2578063952377f31461029d57806398d111b2146102985780639a202d47146102935780639d541be21461028e578063a217fddf14610289578063b23a1d0d14610284578063b911135f1461027f578063bae77ac91461027a578063d547741f14610275578063e614751814610270578063ec23919a1461026b578063ec7ae61d14610266578063ed8c2472146102615763f2fde38b0361000e576111f5565b6111dd565b6111c1565b6111a6565b61118e565b611175565b61115a565b61113f565b61110d565b6110f2565b6110c5565b6110ad565b611095565b61107a565b61105e565b61103f565b610fd4565b610fbc565b610fa4565b610f8b565b610ec1565b610e7d565b610e65565b610e4c565b610e34565b610e19565b610dfe565b610dd8565b610d5e565b610ce9565b610cd0565b610c99565b610c6e565b6107d7565b6107bf565b6107a4565b610789565b61076e565b610729565b610711565b6106f8565b6106bc565b610685565b61064e565b610633565b610607565b6105b9565b61050c565b6104c5565b610483565b610430565b6103cd565b6001600160a01b031690565b90565b61037881610360565b0361037f57565b600080fd5b905035906103918261036f565b565b80610378565b9050359061039182610393565b919060408382031261037f5761036c9060206103c28286610384565b9401610399565b9052565b3461037f576103fb6103e96103e33660046103a6565b906113cb565b60405191829182901515815260200190565b0390f35b6001600160e01b03198116610378565b90503590610391826103ff565b9060208282031261037f5761036c9161040f565b3461037f576103fb6103e961044636600461041c565b6113d7565b801515610378565b905035906103918261044b565b919060408382031261037f5761036c90602061047c8286610399565b9401610453565b3461037f5761049c610496366004610460565b906117ca565b604051005b600091031261037f57565b6103c990610360565b60208101929161039191906104ac565b3461037f576104d53660046104a1565b6103fb6104e06117d4565b604051918291826104b5565b61036c61036c61036c9290565b61036c6127106104ec565b61036c6104f9565b3461037f5761051c3660046104a1565b6103fb610527610504565b6040519182918290815260200190565b909182601f8301121561037f578135916001600160401b03831161037f57602001926001830284011161037f57565b9060808282031261037f5761057b8183610384565b926105898260208501610384565b926105978360408301610399565b9260608201356001600160401b03811161037f576105b59201610537565b9091565b3461037f576103fb6105d86105cf366004610566565b939290926117f7565b604051918291826001600160e01b0319909116815260200190565b9060208282031261037f5761036c91610384565b3461037f5761049c61061a3660046105f3565b6118be565b9060208282031261037f5761036c91610399565b3461037f576103fb61052761064936600461061f565b6118de565b3461037f576103fb6103e96106643660046105f3565b6118fd565b61036c676765c793fa10079d601b1b6104ec565b61036c610669565b3461037f576106953660046104a1565b6103fb61052761067d565b919060408382031261037f5761036c9060206103c28286610399565b3461037f5761049c6106cf3660046106a0565b90611b33565b919060408382031261037f5761036c9060206106f18286610399565b9401610384565b3461037f5761049c61070b3660046106d5565b90611b60565b3461037f5761049c6107243660046105f3565b611bb3565b3461037f5761049c61073c3660046106d5565b90611bbc565b7ffcb9fcbfa83b897fb2d5cf4b58962164105c1e71489a37ef3ae0db3fdce576f690565b61036c610742565b3461037f5761077e3660046104a1565b6103fb610527610766565b3461037f576107993660046104a1565b6103fb610527611bef565b3461037f576107b43660046104a1565b6103fb6104e0611bfc565b3461037f576107cf3660046104a1565b61049c611cbe565b3461037f5761049c6107ea36600461061f565b611dd7565b634e487b7160e01b600052604160045260246000fd5b90601f01601f191681019081106001600160401b0382111761082657604052565b6107ef565b9061039161083860405190565b9283610805565b6001600160401b0381116108265760208091020190565b6006111561037f57565b9050359061039182610856565b9092919261088261087d8261083f565b61082b565b938185526020808601920283019281841161037f57915b8383106108a65750505050565b602080916108b48486610860565b815201920191610899565b9080601f8301121561037f5781602061036c9335910161086d565b6001600160401b0381116108265760200290565b60ff8116610378565b90503590610391826108ee565b9092919261091461087d826108da565b93602085920283019281841161037f57915b8383106109335750505050565b6020809161094184866108f7565b815201920191610926565b9080601f8301121561037f57600261036c92610904565b9092919261097361087d8261083f565b93818552604060208601920283019281841161037f57915b8383106109985750505050565b60206040916109a7848661094c565b81520192019161098b565b9080601f8301121561037f5781602061036c93359101610963565b909291926109dd61087d826108da565b93602085920283019281841161037f57915b8383106109fc5750505050565b60208091610a0a84866108f7565b8152019201916109ef565b9080601f8301121561037f57600461036c926109cd565b90929192610a3c61087d8261083f565b93818552608060208601920283019281841161037f57915b838310610a615750505050565b6020608091610a708486610a15565b815201920191610a54565b9080601f8301121561037f5781602061036c93359101610a2c565b6001600160401b03811161082657602090601f01601f19160190565b0190565b90826000939282370152565b90929192610ad261087d82610a96565b938185528183011161037f57610391916020850190610ab6565b9080601f8301121561037f5781602061036c93359101610ac2565b929190610b1661087d8261083f565b938185526020808601920281019183831161037f5781905b838210610b3c575050505050565b81356001600160401b03811161037f57602091610b5c8784938701610aec565b815201910190610b2e565b9080601f8301121561037f5781602061036c93359101610b07565b9060808282031261037f5781356001600160401b03811161037f5781610ba99184016108bf565b9260208301356001600160401b03811161037f5782610bc99185016109b2565b9260408101356001600160401b03811161037f5783610be9918301610a7b565b9260608201356001600160401b03811161037f5761036c9201610b67565b90610c27610c20610c16845190565b8084529260200190565b9260200190565b9060005b818110610c385750505090565b909192610c55610c4e6001928651815260200190565b9460200190565b929101610c2b565b602080825261036c92910190610c07565b3461037f576103fb610c8d610c84366004610b82565b929190916123f7565b60405191829182610c5d565b3461037f576103fb6103e9610caf3660046105f3565b612405565b919060408382031261037f5761036c9060206106f18286610384565b3461037f5761049c610ce3366004610cb4565b9061248f565b3461037f576103fb6103e9610cff3660046103a6565b9061262b565b6001600160e01b03191690565b90610d1c90610d05565b600052602052604060002090565b61036c916008021c6001600160a01b031690565b9061036c9154610d2a565b6000610d5961036c926003610d12565b610d3e565b3461037f576103fb6104e0610d7436600461041c565b610d49565b61036c90610360906001600160a01b031682565b61036c90610d79565b61036c90610d8d565b90610d1c90610d96565b61036c916008021c5b60ff1690565b9061036c9154610da9565b6000610dd361036c926002610d9f565b610db8565b3461037f576103fb6103e9610dee3660046105f3565b610dc3565b61036c600080610db8565b3461037f57610e0e3660046104a1565b6103fb6103e9610df3565b3461037f57610e293660046104a1565b6103fb6104e0612637565b3461037f5761049c610e473660046105f3565b6126e8565b3461037f5761049c610e5f3660046103a6565b90612750565b3461037f5761049c610e783660046105f3565b61277a565b3461037f5761049c610e903660046105f3565b6127cc565b7fdf8b4c520ffe197c5343c6f5aec59570151ef9a492f2c624fd45ddde6135ec4290565b61036c610e95565b3461037f57610ed13660046104a1565b6103fb610527610eb9565b90929192610eec61087d8261083f565b938185526020808601920283019281841161037f57915b838310610f105750505050565b60208091610f1e8486610399565b815201920191610f03565b9080601f8301121561037f5781602061036c93359101610edc565b91909160408184031261037f5780356001600160401b03811161037f5783610f6d918301610f29565b9260208201356001600160401b03811161037f5761036c9201610f29565b3461037f5761049c610f9e366004610f44565b9061290c565b3461037f5761049c610fb73660046105f3565b612931565b3461037f57610fcc3660046104a1565b61049c6129b0565b3461037f57610fe43660046104a1565b6103fb6103e96129b8565b906101008282031261037f576110058183610860565b92611013826020850161094c565b926110218360608301610a15565b9260e08201356001600160401b03811161037f5761036c9201610aec565b3461037f576103fb610527611055366004610fef565b92919091612c38565b3461037f576103fb6103e96110743660046106d5565b90612c59565b3461037f5761108a3660046104a1565b6103fb6104e0612c79565b3461037f5761049c6110a836600461061f565b612d00565b3461037f576110bd3660046104a1565b61049c612d87565b3461037f576110d53660046104a1565b6103fb6104e0612d8f565b61036c60006104ec565b61036c6110e0565b3461037f576111023660046104a1565b6103fb6105276110ea565b3461037f5761049c6111203660046105f3565b612de2565b90610d1c906104ec565b6000610d5961036c926001611125565b3461037f576103fb6104e061115536600461061f565b61112f565b3461037f5761116a3660046104a1565b6103fb610527612deb565b3461037f5761049c6111883660046106d5565b90612e5e565b3461037f5761049c6111a13660046105f3565b612eba565b3461037f576111b63660046104a1565b6103fb6104e0612ec3565b3461037f576103fb6103e96111d73660046103a6565b90612ff0565b3461037f5761049c6111f03660046105f3565b613045565b3461037f5761049c6112083660046105f3565b6130f0565b61036c90610360565b61036c905461120d565b1561122757565b60405162461bcd60e51b815260206004820152604560248201527f63616c6c6572206973206e656974686572204f776e6572206e6f722047656d4660448201527f6163746f7279206e6f72204d61726b6574506c616365206e6f722052616e646f6064820152646d5061636b60d81b608482015260a490fd5b0390fd5b9061036c92916112bc6112b76006611216565b610360565b6112c533610360565b14801561133d575b8015611320575b8015611303575b80156112f0575b6112eb90611220565b61135a565b506112eb6112fc6129b8565b90506112e2565b506113116112b76009611216565b61131a33610360565b146112db565b5061132e6112b76008611216565b61133733610360565b146112d4565b5061134b6112b76007611216565b61135433610360565b146112cd565b9061136d9291611368613124565b611376565b90610391613164565b509061138182613176565b611389612deb565b8190611394565b9190565b106113b9576113b4916113af6113aa600a611216565b610d96565b6131a5565b600190565b604051638e85197360e01b8152600490fd5b61036c919060006112a4565b61036c906131ed565b156113e757565b60405162461bcd60e51b81526020600482015260126024820152713737ba1027bbb732b91037b91020b236b4b760711b6044820152606490fd5b906103919161142f336118fd565b8015611444575b61143f906113e0565b611573565b5061143f6114506129b8565b9050611436565b905051906103918261036f565b9050519061039182610393565b905051906103918261044b565b919060608382031261037f576114bf90604061149a606061082b565b946114a58382611457565b86526114b48360208301611464565b602087015201611471565b6040830152565b9060608282031261037f5761036c9161147e565b6040513d6000823e3d90fd5b9060208282031261037f5761036c91611464565b634e487b7160e01b600052601160045260246000fd5b8181029291811591840414171561152357565b6114fa565b634e487b7160e01b600052601260045260246000fd5b8115611548570490565b611528565b9190820180921161152357565b908152604081019291610391916020905b019015159052565b90600091611580836104ec565b90821561160b575b6115986113aa6113aa6007611216565b6302424ed3813b1561037f5785936115c3916115ce6115b660405190565b9788968795869460e01b90565b84526004840161155a565b03925af18015611606576115e0575050565b8161039192903d106115ff575b6115f78183610805565b8101906104a1565b503d6115ed565b6114da565b905061161d6113aa6113aa6007611216565b606061162860405190565b63612adf8b60e11b81526004810184905291829060249082905afa90811561160657849161179b575b506116626113aa6113aa6007611216565b602061166d60405190565b630a0e9c1960e31b815291829060049082905afa8015611606576116b3926116a5928792611775575b5060200151611510565b611510565b6116ad610669565b9061153e565b6116c36113aa6113aa6007611216565b60206116ce60405190565b63534e47d960e11b815291829060049082905afa9182156116065761170d61170561171894611713948991611746575b5083611510565b6116ad6104f9565b9061154d565b613227565b908161172e61139061172930610d96565b319290565b101561158857604051636e2600c960e01b8152600490fd5b611768915060203d60201161176e575b6117608183610805565b8101906114e6565b386116fe565b503d611756565b6116a0919250611793602091823d841161176e576117608183610805565b929150611696565b6117bd915060603d6060116117c3575b6117b58183610805565b8101906114c6565b38611651565b503d6117ab565b9061039191611421565b61036c600a611216565b610d056117f161036c9263ffffffff1690565b60e01b90565b5050505050611804600090565b5061036c63150b7a026117de565b1561181957565b60405162461bcd60e51b8152602060048201526024808201527f41757468436f6e74726f6c3a2043616c6c6572206973206e6f7420746865206f6044820152633bb732b960e11b6064820152608490fd5b6103919061187e6118796129b8565b611812565b6118b3565b906001600160a01b03905b9181191691161790565b906118a861036c6118af92610d96565b8254611883565b9055565b61039190600a611898565b6103919061186a565b90610d1c565b61036c9081565b61036c90546118cd565b60016118f761036c926118ef600090565b5060056118c7565b016118d4565b61036c90611909610e95565b612c59565b906103919161191c336118fd565b8015611931575b61192c906113e0565b6119ac565b5061192c61193d6129b8565b9050611923565b9060208282031261037f5761036c91611471565b916020610391929493611973604082019660008301906104ac565b01906104ac565b91602061039192949361156b604082019660008301906104ac565b9081526040810192916103919160200152565b0152565b6119fe60206119c16113aa6113aa6006611216565b6119ca30610d96565b906119d56007611216565b916119df60405190565b8095819482936119f363e985e9c560e01b90565b845260048401611958565b03915afa801561160657611a1991600091611b06575b501590565b611a87575b611a2e6113aa6113aa6007611216565b91823b1561037f57611a669260009283611a4760405190565b809681958294611a5b632ede643260e01b90565b845260048401611995565b03925af1801561160657611a775750565b6103919060006115f78183610805565b611a976113aa6113aa6006611216565b611aa16007611216565b90803b1561037f576001600091611adb9383611abc60405190565b809681958294611ad063a22cb46560e01b90565b84526004840161197a565b03925af1801561160657611af0575b50611a1e565b611b009060006115f78183610805565b38611aea565b611b28915060203d602011611b2c575b611b208183610805565b810190611944565b1590565b503d611b16565b906103919161190e565b9061039191611b53611b4e826118de565b613238565b90611b5d91613263565b50565b9061039191611b3d565b61039190611b77336118fd565b8015611b8c575b611b87906113e0565b611b9f565b50611b87611b986129b8565b9050611b7e565b61039190611bac81613176565b6007611898565b61039190611b6a565b90611bc633610360565b611bcf82610360565b03611bdd57611b5d916132e5565b60405163334bd91960e11b8152600490fd5b611bf830610d96565b3190565b61036c6009611216565b611c116118796129b8565b610391611c72565b61036c9060a01c610db2565b61036c9054611c19565b15611c3657565b60405162461bcd60e51b815260206004820152601460248201527314185d5cd8589b194e881b9bdd081c185d5cd95960621b6044820152606490fd5b611c84611c7f600c611c25565b611c2f565b610391611cb2565b9060ff60a01b9060a01b61188e565b90611cab61036c6118af92151590565b8254611c8c565b6103916000600c611c9b565b610391611c06565b15611ccd57565b60405162461bcd60e51b815260206004820152602660248201527f63616c6c6572206973206e6f7420746865206d61726b6574706c61636520636f6044820152651b9d1c9858dd60d21b6064820152608490fd5b61039190611d44611d356112b76007611216565b611d3e33610360565b14611cc6565b611d64565b9160206103919294936119a8604082019660008301906104ac565b6020611dae91611d7a6113aa6113aa600a611216565b611d846007611216565b6000611d8f60405190565b809681958294611da363095ea7b360e01b90565b845260048401611d49565b03925af1801561160657611dbf5750565b611b5d9060203d602011611b2c57611b208183610805565b61039190611d21565b15611de757565b60405162461bcd60e51b815260206004820152602f60248201527f63616c6c6572206973206e656974686572206f776e6572206e6f722072616e6460448201526e1bdb541858dac818dbdb9d1c9858dd608a1b6064820152608490fd5b9061036c94939291611e596112b76008611216565b611e6233610360565b148015611e92575b8015611e7f575b611e7a90611de0565b612234565b50611e7a611e8b6129b8565b9050611e71565b50611ea06112b76007611216565b611ea933610360565b14611e6a565b634e487b7160e01b600052603260045260246000fd5b90611ece825190565b811015611edf576020809102010190565b611eaf565b634e487b7160e01b600052602160045260246000fd5b60061115611f0457565b611ee4565b9061039182611efa565b61036c9051611f09565b61036c90611f09565b6103c990611f1d565b6020810192916103919190611f26565b90929192611f4f61087d8261083f565b938185526020808601920283019281841161037f57915b838310611f735750505050565b60208091611f818486611464565b815201920191611f66565b9080601f8301121561037f57815161036c92602001611f3f565b9060208282031261037f5781516001600160401b03811161037f5761036c9201611f8c565b90610ab281602093611f26565b90611fe7610c20610c16845190565b9060005b818110611ff85750505090565b90919261200b610c4e6001928651611fcb565b929101611feb565b61201f61139060029390565b6000915b8383106120305750505050565b612046610c20600192845160ff16815260200190565b92019190612023565b90610ab281604093612013565b9061206b610c20610c16845190565b9060005b81811061207c5750505090565b90919261208f610c4e600192865161204f565b92910161206f565b6120a361139060049390565b6000915b8383106120b45750505050565b6120ca610c20600192845160ff16815260200190565b920191906120a7565b90610ab281608093612097565b906120ef610c20610c16845190565b9060005b8181106121005750505090565b909192612113610c4e60019286516120d3565b9291016120f3565b60005b83811061212e5750506000910152565b818101518382015260200161211e565b61215f612168602093610ab293612153815190565b80835293849260200190565b9586910161211b565b601f01601f191690565b9061036c9161213e565b90612192612188835190565b8083529160200190565b90816121a46020830284019460200190565b926000915b8383106121b857505050505090565b909192939460206121db6121d483856001950387528951612172565b9760200190565b93019301919392906121a9565b9261221861036c959361220a61222694608088019088820360008a0152611fd8565b90868203602088015261205c565b9084820360408601526120e0565b91606081840391015261217c565b5080519094909360009260009461224a866104ec565b945b875b8610156122f5576122a29060208a61227e6122798a6122736113aa6113aa6006611216565b93611ec5565b611f13565b9061228860405190565b94859283918291630b513d9960e01b835260048301611f2f565b03915afa9182156116065761224e926122cd926122c6928b926122d5575b5061154d565b9660010190565b95905061224c565b6122ee91925060203d811161176e576117608183610805565b90386122c0565b919450929691949550612306612deb565b906123176113aa6113aa6006611216565b602061232260405190565b630265f21b60e51b815291829060049082905afa90811561160657612355926113909261036c928b916123d8575061154d565b106123c65784928361236d6113aa6113aa6006611216565b9261239461237a60405190565b97889687958694630ff1ac6760e01b8652600486016121e8565b03925af19182156116065780926123aa57505090565b61036c92503d8091833e6123be8183610805565b810190611fa6565b60405163f2cd224d60e01b8152600490fd5b6123f1915060203d60201161176e576117608183610805565b386122c0565b61036c939291906060611e44565b61036c90611909610742565b61036c9060a81c610db2565b61036c9054612411565b1561242e57565b60405162461bcd60e51b8152602060048201526013602482015272185b1c9958591e481a5b9a5d1a585b1a5e9959606a1b6044820152606490fd5b9060ff60a81b9060a81b61188e565b9061248861036c6118af92151590565b8254612469565b6124c56124cc926124ab6124a6611b28600c61241d565b612427565b6124bd6124b66110e0565b3390613263565b506006611898565b600a611898565b6103916001600c612478565b9061036c92916124eb6112b76006611216565b6124f433610360565b14801561256c575b801561254f575b8015612532575b801561251f575b61251a90611220565b6125b3565b5061251a61252b6129b8565b9050612511565b506125406112b76009611216565b61254933610360565b1461250a565b5061255d6112b76008611216565b61256633610360565b14612503565b5061257a6112b76007611216565b61258333610360565b146124fc565b6040906119a861039194969593966125a9606084019860008501906104ac565b60208301906104ac565b50906125c36113aa806006611216565b906125cd30610d96565b91803b1561037f5761260093600080946125e660405190565b968795869485936323b872dd60e01b855260048501612589565b03925af1801561160657612615575b50600190565b6126259060006115f78183610805565b3861260f565b61036c919060006124d8565b61036c6007611216565b1561264857565b60405162461bcd60e51b815260206004820152602360248201527f41757468436f6e74726f6c3a2043616c6c6572206973206e6f7420612070617560448201526239b2b960e91b6064820152608490fd5b610391906126af6126a8610742565b3390612c59565b80156126c4575b6126bf90612641565b6126d7565b506126bf6126d06129b8565b90506126b6565b610391906126e3610742565b611bbc565b61039190612699565b90610391916126ff336118fd565b8015612714575b61270f906113e0565b612727565b5061270f6127206129b8565b9050612706565b6127376113aa6113aa6006611216565b91823b1561037f57611a669260009283611d8f60405190565b90610391916126f1565b610391906127696118796129b8565b61039190612775610e95565b611b60565b6103919061275a565b61039190612790336118fd565b80156127a5575b6127a0906113e0565b6127b8565b506127a06127b16129b8565b9050612797565b610391906127c581613176565b6009611898565b61039190612783565b90610391916127e3336118fd565b80156127f8575b6127f3906113e0565b612830565b506127f36128046129b8565b90506127ea565b604080825261036c93919261282291840190610c07565b916020818403910152610c07565b61284560206119c16113aa6113aa6006611216565b03915afa80156116065761285f91600091611b0657501590565b6128ac575b6128746113aa6113aa6007611216565b91823b1561037f57611a66926000928361288d60405190565b8096819582946128a16379dbd79860e01b90565b84526004840161280b565b6128bc6113aa6113aa6006611216565b6128c66007611216565b90803b1561037f5760016000916128e19383611abc60405190565b03925af18015611606576128f6575b50612864565b6129069060006115f78183610805565b386128f0565b90610391916127d5565b610391906129256118796129b8565b61039190612775610742565b61039190612916565b6129456118796129b8565b61039161298c565b1561295457565b60405162461bcd60e51b815260206004820152601060248201526f14185d5cd8589b194e881c185d5cd95960821b6044820152606490fd5b6129a161299c611b28600c611c25565b61294d565b6103916103916001600c611c9b565b61039161293a565b61036c6126a86110e0565b9061036c949392916129d86112b76008611216565b6129e133610360565b148015612a11575b80156129fe575b6129f990611de0565b612ae8565b506129f9612a0a6129b8565b90506129f0565b50612a1f6112b76007611216565b612a2833610360565b146129e9565b612a3a61139060029390565b6000915b838310612a4b5750505050565b612a61610c20600192845160ff16815260200190565b92019190612a3e565b612a7661139060049390565b6000915b838310612a875750505050565b612a9d610c20600192845160ff16815260200190565b92019190612a7a565b9092612adb90612ad161036c9694612ac76101008601976000870190611f26565b6020850190612a2e565b6060830190612a6a565b60e081840391015261213e565b92919250612af4612deb565b612b046113aa6113aa6006611216565b6020612b0f60405190565b630265f21b60e51b815291829060049082905afa90811561160657600091612c19575b50612b436113aa6113aa6006611216565b906020612b4f60405190565b928390630b513d9960e01b82528180612b6b8960048301611f2f565b03915afa91821561160657612b8f926113909261036c92600092612bff575061154d565b106123c6576020926000612ba96113aa6113aa6006611216565b92612bd0612bb660405190565b9788968795869463975781b760e01b865260048601612aa6565b03925af190811561160657600091612be6575090565b61036c915060203d60201161176e576117608183610805565b6122ee91925060203d60201161176e576117608183610805565b612c32915060203d60201161176e576117608183610805565b38612b32565b61036c9392919060006129c3565b61036c90610db2565b61036c9054612c46565b61036c916000612c6e612c74936118ef600090565b01610d9f565b612c4f565b61036c600c611216565b61039190612c90336118fd565b8015612ca5575b612ca0906113e0565b612cb8565b50612ca0612cb16129b8565b9050612c97565b612cc86113aa6113aa6007611216565b803b1561037f57611a66600092918392612ce160405190565b94859384928391906356d6b49360e11b83526004830190815260200190565b61039190612c83565b15612d1057565b60405162461bcd60e51b815260206004820152602360248201527f41757468436f6e74726f6c3a2043616c6c6572206973206e6f7420616e20616460448201526236b4b760e91b6064820152608490fd5b612d72612d6d336118fd565b612d09565b610391610391612d80610e95565b3390611bbc565b610391612d61565b61036c6006611216565b61039190612da6336118fd565b8015612dbb575b612db6906113e0565b612dce565b50612db6612dc76129b8565b9050612dad565b61039190612ddb81613176565b600c611898565b61039190612d99565b612e2d6020612e006113aa6113aa600a611216565b612e0930610d96565b90612e1360405190565b938492839182916370a0823160e01b8352600483016104b5565b03915afa90811561160657600091612be6575090565b9061039191612e54611b4e826118de565b90611b5d916132e5565b9061039191612e43565b61039190612e75336118fd565b8015612e8a575b612e85906113e0565b612e9d565b50612e85612e966129b8565b9050612e7c565b61039190612eb3612eae6006611216565b613176565b6006611898565b61039190612e68565b61036c6008611216565b15612ed457565b60405162461bcd60e51b815260206004820152601960248201527831b0b63632b91034b9903737ba103a34329029bbb0b83832b960391b6044820152606490fd5b9061036c9291612f286112b7600c611216565b612f3133610360565b148015612f47575b612f4290612ecd565b612f8b565b50612f42612f536129b8565b9050612f39565b90612f6761087d83610a96565b918252565b3d15612f8657612f7b3d612f5a565b903d6000602084013e565b606090565b50612f9581613176565b612f9d611bef565b8211612fde5760008091612fc393612fb460405190565b90818003925af1611a14612f6c565b612fcc57600190565b604051633f45558560e01b8152600490fd5b60405163a5a9c2b760e01b8152600490fd5b61036c91906000612f15565b61039190613009336118fd565b801561301e575b613019906113e0565b613031565b5061301961302a6129b8565b9050613010565b6103919061303e81613176565b6008611898565b61039190612ffc565b6103919061305d6118796129b8565b613078565b61036061036c61036c9290565b61036c90613062565b6130856112b7600061306f565b61308e82610360565b146130de5761309c81610360565b6130a533610360565b146130cc5761039190612d806130b96110e0565b916130c48184611b60565b612775610e95565b604051630a98f1f360e21b8152600490fd5b60405163d92e233d60e01b8152600490fd5b6103919061304e565b61036c60026104ec565b906000199061188e565b9061311d61036c6118af926104ec565b8254613103565b61312e60046118d4565b6131366130f9565b9081146131485761039190600461310d565b604051633ee5aeb560e01b8152600490fd5b61036c60016104ec565b61039161316f61315a565b600461310d565b61318c6131866112b7600061306f565b91610360565b1461319357565b60405163e6c4247b60e01b8152600490fd5b6131e86004926131d9610391956131bf63a9059cbb6117de565b926131c960405190565b9687946020860190815201611d49565b60208201810382520383610805565b613342565b637965db0b60e01b6001600160e01b031982161490811561320c575090565b61036c91506001600160e01b0319166301ffc9a760e01b1490565b61036c906116ad633b9aca006104ec565b6103919033906133bc565b9060ff9061188e565b9061325c61036c6118af92151590565b8254613243565b613270611b288383612c59565b156132de57613290600161328b846000612c6e8660056118c7565b61324c565b6132aa6132a461329e339390565b93610d96565b91610d96565b917f2f8788117e7eff1d82e926ec794901d17c78024a50270940304540a733656f0d6132d560405190565b600090a4600190565b5050600090565b6132ef8282612c59565b156132de57613309600061328b8482612c6e8660056118c7565b6133176132a461329e339390565b917ff6391f5c32d9c69d2a47ea670b442974b53935d1edc7fd64eb21e047a839171b6132d560405190565b61334e61335591610d96565b91826133f4565b805161336461139060006104ec565b14159081613398575b506133755750565b6112a09061338260405190565b635274afe760e01b8152918291600483016104b5565b6133b691508060206133ab611b28935190565b818301019101611944565b3861336d565b906133ca611b288284612c59565b6133d2575050565b6112a06133de60405190565b63e2517d3f60e01b815292839260048401611d49565b61036c9161340260006104ec565b61340b30610d96565b8181311061343557506000828192602061036c969551920190855af161342f612f6c565b91613458565b6112a09061344260405190565b63cd78605960e01b8152918291600483016104b5565b9061346357506134ba565b815161347261139060006104ec565b14806134a4575b613481575090565b6112a09061348e60405190565b639996b31560e01b8152918291600483016104b5565b50803b6134b461139060006104ec565b14613479565b80516134c961139060006104ec565b11156134d757805190602001fd5b604051630a12f52160e11b8152600490fdfea264697066735822122026230c9aee3adeee5848e996429c5c1523310358cdb8581ea3140006b5104a7764736f6c63430008190033","linkReferences":{}},"methodIdentifiers":{"ADMIN_ROLE()":"75b238fc","DECIMALS()":"2e0f2625","DEFAULT_ADMIN_ROLE()":"a217fddf","PAUSE_ROLE()":"389ed267","TON_FEES_RATE_DIVIDER()":"08ec897d","addAdmin(address)":"70480275","addPauser(address)":"82dc1ec4","aliveImplementation(address)":"550d01a3","approveGem(address,uint256)":"6fcf2fc9","approveWstonForMarketplace(uint256)":"40e58548","buyGem(uint256,bool)":"02424ed3","createPreminedGEM(uint8,uint8[2],uint8[4],string)":"912b431b","createPreminedGEMPool(uint8[],uint8[2][],uint8[4][],string[])":"425c7fc2","getAirdropAddress()":"3d007e57","getGemFactoryAddress()":"9d541be2","getMarketPlaceAddress()":"694eaa40","getRandomPackAddress()":"ec23919a","getRoleAdmin(bytes32)":"248a9ca3","getSwapPoolAddress()":"952377f3","getTONBalance()":"3b22f110","getWSTONBalance()":"bae77ac9","getWstonAddress()":"044bc779","grantRole(bytes32,address)":"2f2ff15d","hasRole(bytes32,address)":"91d14854","initialize(address,address)":"485cc955","isAdmin(address)":"24d7806c","isOwner()":"8f32d59b","isPauser(address)":"46fbf68e","onERC721Received(address,address,uint256,bytes)":"150b7a02","pause()":"8456cb59","pauseProxy()":"63a8fd89","proxyImplementation(uint256)":"b911135f","putGemForSale(uint256,uint256)":"2ede6432","putGemListForSale(uint256[],uint256[])":"79dbd798","removeAdmin()":"9a202d47","removeGemFromSale(uint256)":"98d111b2","removePauser(address)":"6b2c0f55","renounceRole(bytes32,address)":"36568abe","revokeRole(bytes32,address)":"d547741f","selectorImplementation(bytes4)":"50d2a276","setAirdrop(address)":"72820dbc","setGemFactory(address)":"e6147518","setMarketPlace(address)":"30568a8d","setRandomPack(address)":"ed8c2472","setWston(address)":"247ee388","setWstonSwapPool(address)":"b23a1d0d","supportsInterface(bytes4)":"01ffc9a7","transferOwnership(address)":"f2fde38b","transferTON(address,uint256)":"ec7ae61d","transferTreasuryGEMto(address,uint256)":"48dbcef0","transferWSTON(address,uint256)":"0169dc31","unpause()":"3f4ba83a"},"id":79}