{
  "_format": "hh-sol-artifact-1",
  "contractName": "L1WrappedStakedTONFactoryProxy",
  "sourceName": "src/L1/L1WrappedStakedTONFactoryProxy.sol",
  "abi": [
    {
      "inputs": [],
      "name": "AccessControlBadConfirmation",
      "type": "error"
    },
    {
      "inputs": [
        {
          "internalType": "address",
          "name": "account",
          "type": "address"
        },
        {
          "internalType": "bytes32",
          "name": "neededRole",
          "type": "bytes32"
        }
      ],
      "name": "AccessControlUnauthorizedAccount",
      "type": "error"
    },
    {
      "inputs": [],
      "name": "SameAdmin",
      "type": "error"
    },
    {
      "inputs": [],
      "name": "SameOwner",
      "type": "error"
    },
    {
      "inputs": [],
      "name": "ZeroAddress",
      "type": "error"
    },
    {
      "anonymous": false,
      "inputs": [
        {
          "indexed": true,
          "internalType": "bytes32",
          "name": "role",
          "type": "bytes32"
        },
        {
          "indexed": true,
          "internalType": "bytes32",
          "name": "previousAdminRole",
          "type": "bytes32"
        },
        {
          "indexed": true,
          "internalType": "bytes32",
          "name": "newAdminRole",
          "type": "bytes32"
        }
      ],
      "name": "RoleAdminChanged",
      "type": "event"
    },
    {
      "anonymous": false,
      "inputs": [
        {
          "indexed": true,
          "internalType": "bytes32",
          "name": "role",
          "type": "bytes32"
        },
        {
          "indexed": true,
          "internalType": "address",
          "name": "account",
          "type": "address"
        },
        {
          "indexed": true,
          "internalType": "address",
          "name": "sender",
          "type": "address"
        }
      ],
      "name": "RoleGranted",
      "type": "event"
    },
    {
      "anonymous": false,
      "inputs": [
        {
          "indexed": true,
          "internalType": "bytes32",
          "name": "role",
          "type": "bytes32"
        },
        {
          "indexed": true,
          "internalType": "address",
          "name": "account",
          "type": "address"
        },
        {
          "indexed": true,
          "internalType": "address",
          "name": "sender",
          "type": "address"
        }
      ],
      "name": "RoleRevoked",
      "type": "event"
    },
    {
      "anonymous": false,
      "inputs": [
        {
          "indexed": true,
          "internalType": "address",
          "name": "impl",
          "type": "address"
        },
        {
          "indexed": false,
          "internalType": "bool",
          "name": "alive",
          "type": "bool"
        }
      ],
      "name": "SetAliveImplementation",
      "type": "event"
    },
    {
      "anonymous": false,
      "inputs": [
        {
          "indexed": true,
          "internalType": "bytes4",
          "name": "selector",
          "type": "bytes4"
        },
        {
          "indexed": true,
          "internalType": "address",
          "name": "impl",
          "type": "address"
        }
      ],
      "name": "SetSelectorImplementation",
      "type": "event"
    },
    {
      "anonymous": false,
      "inputs": [
        {
          "indexed": true,
          "internalType": "address",
          "name": "implementation",
          "type": "address"
        }
      ],
      "name": "Upgraded",
      "type": "event"
    },
    {
      "stateMutability": "payable",
      "type": "fallback"
    },
    {
      "inputs": [],
      "name": "ADMIN_ROLE",
      "outputs": [
        {
          "internalType": "bytes32",
          "name": "",
          "type": "bytes32"
        }
      ],
      "stateMutability": "view",
      "type": "function"
    },
    {
      "inputs": [],
      "name": "DEFAULT_ADMIN_ROLE",
      "outputs": [
        {
          "internalType": "bytes32",
          "name": "",
          "type": "bytes32"
        }
      ],
      "stateMutability": "view",
      "type": "function"
    },
    {
      "inputs": [],
      "name": "PAUSE_ROLE",
      "outputs": [
        {
          "internalType": "bytes32",
          "name": "",
          "type": "bytes32"
        }
      ],
      "stateMutability": "view",
      "type": "function"
    },
    {
      "inputs": [
        {
          "internalType": "address",
          "name": "account",
          "type": "address"
        }
      ],
      "name": "addAdmin",
      "outputs": [],
      "stateMutability": "nonpayable",
      "type": "function"
    },
    {
      "inputs": [
        {
          "internalType": "address",
          "name": "account",
          "type": "address"
        }
      ],
      "name": "addPauser",
      "outputs": [],
      "stateMutability": "nonpayable",
      "type": "function"
    },
    {
      "inputs": [
        {
          "internalType": "address",
          "name": "",
          "type": "address"
        }
      ],
      "name": "aliveImplementation",
      "outputs": [
        {
          "internalType": "bool",
          "name": "",
          "type": "bool"
        }
      ],
      "stateMutability": "view",
      "type": "function"
    },
    {
      "inputs": [
        {
          "internalType": "bytes32",
          "name": "role",
          "type": "bytes32"
        }
      ],
      "name": "getRoleAdmin",
      "outputs": [
        {
          "internalType": "bytes32",
          "name": "",
          "type": "bytes32"
        }
      ],
      "stateMutability": "view",
      "type": "function"
    },
    {
      "inputs": [
        {
          "internalType": "bytes4",
          "name": "_selector",
          "type": "bytes4"
        }
      ],
      "name": "getSelectorImplementation2",
      "outputs": [
        {
          "internalType": "address",
          "name": "impl",
          "type": "address"
        }
      ],
      "stateMutability": "view",
      "type": "function"
    },
    {
      "inputs": [
        {
          "internalType": "bytes32",
          "name": "role",
          "type": "bytes32"
        },
        {
          "internalType": "address",
          "name": "account",
          "type": "address"
        }
      ],
      "name": "grantRole",
      "outputs": [],
      "stateMutability": "nonpayable",
      "type": "function"
    },
    {
      "inputs": [
        {
          "internalType": "bytes32",
          "name": "role",
          "type": "bytes32"
        },
        {
          "internalType": "address",
          "name": "account",
          "type": "address"
        }
      ],
      "name": "hasRole",
      "outputs": [
        {
          "internalType": "bool",
          "name": "",
          "type": "bool"
        }
      ],
      "stateMutability": "view",
      "type": "function"
    },
    {
      "inputs": [],
      "name": "implementation",
      "outputs": [
        {
          "internalType": "address",
          "name": "",
          "type": "address"
        }
      ],
      "stateMutability": "view",
      "type": "function"
    },
    {
      "inputs": [
        {
          "internalType": "uint256",
          "name": "_index",
          "type": "uint256"
        }
      ],
      "name": "implementation2",
      "outputs": [
        {
          "internalType": "address",
          "name": "",
          "type": "address"
        }
      ],
      "stateMutability": "view",
      "type": "function"
    },
    {
      "inputs": [
        {
          "internalType": "address",
          "name": "account",
          "type": "address"
        }
      ],
      "name": "isAdmin",
      "outputs": [
        {
          "internalType": "bool",
          "name": "",
          "type": "bool"
        }
      ],
      "stateMutability": "view",
      "type": "function"
    },
    {
      "inputs": [],
      "name": "isOwner",
      "outputs": [
        {
          "internalType": "bool",
          "name": "",
          "type": "bool"
        }
      ],
      "stateMutability": "view",
      "type": "function"
    },
    {
      "inputs": [
        {
          "internalType": "address",
          "name": "account",
          "type": "address"
        }
      ],
      "name": "isPauser",
      "outputs": [
        {
          "internalType": "bool",
          "name": "",
          "type": "bool"
        }
      ],
      "stateMutability": "view",
      "type": "function"
    },
    {
      "inputs": [],
      "name": "pauseProxy",
      "outputs": [
        {
          "internalType": "bool",
          "name": "",
          "type": "bool"
        }
      ],
      "stateMutability": "view",
      "type": "function"
    },
    {
      "inputs": [
        {
          "internalType": "uint256",
          "name": "",
          "type": "uint256"
        }
      ],
      "name": "proxyImplementation",
      "outputs": [
        {
          "internalType": "address",
          "name": "",
          "type": "address"
        }
      ],
      "stateMutability": "view",
      "type": "function"
    },
    {
      "inputs": [],
      "name": "removeAdmin",
      "outputs": [],
      "stateMutability": "nonpayable",
      "type": "function"
    },
    {
      "inputs": [
        {
          "internalType": "address",
          "name": "account",
          "type": "address"
        }
      ],
      "name": "removePauser",
      "outputs": [],
      "stateMutability": "nonpayable",
      "type": "function"
    },
    {
      "inputs": [
        {
          "internalType": "bytes32",
          "name": "role",
          "type": "bytes32"
        },
        {
          "internalType": "address",
          "name": "callerConfirmation",
          "type": "address"
        }
      ],
      "name": "renounceRole",
      "outputs": [],
      "stateMutability": "nonpayable",
      "type": "function"
    },
    {
      "inputs": [
        {
          "internalType": "bytes32",
          "name": "role",
          "type": "bytes32"
        },
        {
          "internalType": "address",
          "name": "account",
          "type": "address"
        }
      ],
      "name": "revokeRole",
      "outputs": [],
      "stateMutability": "nonpayable",
      "type": "function"
    },
    {
      "inputs": [
        {
          "internalType": "bytes4",
          "name": "",
          "type": "bytes4"
        }
      ],
      "name": "selectorImplementation",
      "outputs": [
        {
          "internalType": "address",
          "name": "",
          "type": "address"
        }
      ],
      "stateMutability": "view",
      "type": "function"
    },
    {
      "inputs": [
        {
          "internalType": "address",
          "name": "newImplementation",
          "type": "address"
        },
        {
          "internalType": "bool",
          "name": "_alive",
          "type": "bool"
        }
      ],
      "name": "setAliveImplementation2",
      "outputs": [],
      "stateMutability": "nonpayable",
      "type": "function"
    },
    {
      "inputs": [
        {
          "internalType": "address",
          "name": "newImplementation",
          "type": "address"
        },
        {
          "internalType": "uint256",
          "name": "_index",
          "type": "uint256"
        },
        {
          "internalType": "bool",
          "name": "_alive",
          "type": "bool"
        }
      ],
      "name": "setImplementation2",
      "outputs": [],
      "stateMutability": "nonpayable",
      "type": "function"
    },
    {
      "inputs": [
        {
          "internalType": "bool",
          "name": "_pause",
          "type": "bool"
        }
      ],
      "name": "setProxyPause",
      "outputs": [],
      "stateMutability": "nonpayable",
      "type": "function"
    },
    {
      "inputs": [
        {
          "internalType": "bytes4[]",
          "name": "_selectors",
          "type": "bytes4[]"
        },
        {
          "internalType": "address",
          "name": "_imp",
          "type": "address"
        }
      ],
      "name": "setSelectorImplementations2",
      "outputs": [],
      "stateMutability": "nonpayable",
      "type": "function"
    },
    {
      "inputs": [
        {
          "internalType": "bytes4",
          "name": "interfaceId",
          "type": "bytes4"
        }
      ],
      "name": "supportsInterface",
      "outputs": [
        {
          "internalType": "bool",
          "name": "",
          "type": "bool"
        }
      ],
      "stateMutability": "view",
      "type": "function"
    },
    {
      "inputs": [
        {
          "internalType": "address",
          "name": "newOwner",
          "type": "address"
        }
      ],
      "name": "transferOwnership",
      "outputs": [],
      "stateMutability": "nonpayable",
      "type": "function"
    },
    {
      "inputs": [
        {
          "internalType": "address",
          "name": "impl",
          "type": "address"
        }
      ],
      "name": "upgradeTo",
      "outputs": [],
      "stateMutability": "nonpayable",
      "type": "function"
    },
    {
      "stateMutability": "payable",
      "type": "receive"
    }
  ],
  "bytecode": "0x608060405234601f57600f336024565b5060405161149d90816100b58239f35b600080fd5b6001600160a01b031660008181527f17ef568e3e12ab5b9c7254a8d58478811de00f9e6eb34345acd53bf8fd09d3ec602052604081205490919060ff1660b05781805260046020526040822081835260205260408220600160ff1982541617905533917f2f8788117e7eff1d82e926ec794901d17c78024a50270940304540a733656f0d8180a4600190565b509056fe60806040526004361015610015575b3661132c57005b60003560e01c806301ffc9a7146101e0578063248a9ca3146101db57806324d7806c146101d65780632f2ff15d146101d157806336568abe146101cc5780633659cfe6146101c7578063389ed267146101c257806346fbf68e146101bd5780634a5df50f146101b857806350d2a276146101b3578063550d01a3146101ae5780635c60da1b146101a95780635cc797d8146101a457806363a8fd891461019f5780636b2c0f551461019a578063704802751461019557806375b238fc146101905780637cb00d251461018b5780637cd5f6631461018657806382dc1ec4146101815780638b8f4a65146101635780638d4fdb401461017c5780638f32d59b1461017757806391d14854146101725780639a202d471461016d578063a217fddf14610168578063b911135f14610163578063d547741f1461015e5763f2fde38b0361000e57610bf4565b610bb5565b610a38565b610b99565b610afe565b610aca565b610aa5565b610a6c565b6109ca565b61092d565b6108f1565b6108c8565b61085a565b61079a565b610777565b61073e565b61070a565b6106cb565b610654565b6104b9565b610479565b610450565b610381565b61033a565b6102f9565b6102ad565b610252565b6101fc565b6001600160e01b03198116036101f757565b600080fd5b346101f75760203660031901126101f757602060043561021b816101e5565b63ffffffff60e01b16637965db0b60e01b8114908115610241575b506040519015158152f35b6301ffc9a760e01b14905038610236565b346101f75760203660031901126101f75760043560005260046020526020600160406000200154604051908152f35b600435906001600160a01b03821682036101f757565b602435906001600160a01b03821682036101f757565b346101f75760203660031901126101f757602060ff6102ed6102cd610281565b6000805160206114488339815191526000526004845260406000206106b4565b54166040519015158152f35b346101f75760403660031901126101f757610338600435610318610297565b90806000526004602052610333600160406000200154610f3e565b6110de565b005b346101f75760403660031901126101f757610353610297565b336001600160a01b0382160361036f5761033890600435611248565b60405163334bd91960e11b8152600490fd5b346101f75760203660031901126101f75761039a610281565b6103aa6103a5610f1b565b610d15565b6001600160a01b038116801561041b57600080805260016020526000805160206113e88339815191525490926103f4916103ef906001600160a01b0316841415610d6d565b611262565b7fbc7cd75a20ee27fd9adebab32041f755214dbc6bffa90cc0225b39da2e5c2d3b8280a280f35b60405162461bcd60e51b815260206004820152600d60248201526c696e707574206973207a65726f60981b6044820152606490fd5b346101f75760003660031901126101f75760206040516000805160206114288339815191528152f35b346101f75760203660031901126101f757602060ff6102ed610499610281565b6000805160206114288339815191526000526004845260406000206106b4565b346101f75760403660031901126101f75760043567ffffffffffffffff8082116101f757366023830112156101f75781600401359081116101f7576024820191602436918360051b0101116101f757610510610297565b9161051c6103a5610f1b565b81156105f7579061053e6105396105328561069a565b5460ff1690565b610da5565b6001600160a01b0391838316919060005b82811061055857005b80610593858761058b61057e6105796105746001988b8b610dec565b610e12565b61063b565b546001600160a01b031690565b161415610e1f565b6105ad876105a8610579610574858989610dec565b610e6b565b846105cc6105bf610574848888610dec565b6001600160e01b03191690565b7f14ebc1c32aa68f4d766e89f3e546cee249f7df25183fc10ab1568d91c2ce9b7b600080a30161054f565b606460405162461bcd60e51b815260206004820152602060248201527f50726f78793a205f73656c6563746f727327732073697a65206973207a65726f6044820152fd5b63ffffffff60e01b166000526003602052604060002090565b346101f75760203660031901126101f757600435610671816101e5565b63ffffffff60e01b166000526003602052602060018060a01b0360406000205416604051908152f35b6001600160a01b0316600090815260026020526040902090565b9060018060a01b0316600052602052604060002090565b346101f75760203660031901126101f7576001600160a01b036106ec610281565b166000526002602052602060ff604060002054166040519015158152f35b346101f75760008060031936011261073b5780806020925260018252604060018060a01b0391205416604051908152f35b80fd5b346101f75760403660031901126101f757610757610281565b60243580151581036101f757610338916107726103a5610f1b565b6112d8565b346101f75760003660031901126101f757602060ff600054166040519015158152f35b346101f75760203660031901126101f7576107b3610281565b600080516020611428833981519152600052600460205260ff6107e4336000805160206113c88339815191526106b4565b5416801561084c575b156107fb5761033890610cfc565b60405162461bcd60e51b815260206004820152602360248201527f41757468436f6e74726f6c3a2043616c6c6572206973206e6f7420612070617560448201526239b2b960e91b6064820152608490fd5b50610855610f1b565b6107ed565b346101f75760203660031901126101f757610338610876610281565b6108816103a5610f1b565b60008051602061144883398151915260005260046020527f2fb794d17134dfdec181ddbac1babb5ab1eb140204ef4d982f294e7fc8b69023546108c390610f3e565b610f7f565b346101f75760003660031901126101f75760206040516000805160206114488339815191528152f35b346101f75760203660031901126101f7576004358015158091036101f75761091a6103a5610f1b565b60ff801960005416911617600055600080f35b346101f75760603660031901126101f757610946610281565b60443580151581036101f75761095d6103a5610f1b565b813b15610987576103389181156112d8576024356000526001602052610772816040600020610e6b565b60405162461bcd60e51b815260206004820152601b60248201527a50726f78793a206e6f7420636f6e7472616374206164647265737360281b6044820152606490fd5b346101f75760203660031901126101f7576103386109e6610281565b6109f16103a5610f1b565b60008051602061142883398151915260005260046020527f2ed987ab732d519c59d4a2f2f586b9ca6af9f18905fa2093aceeb8d462ffc84354610a3390610f3e565b611026565b346101f75760203660031901126101f7576004356000526001602052602060018060a01b0360406000205416604051908152f35b346101f75760203660031901126101f7576020610a93600435610a8e816101e5565b610e8a565b6040516001600160a01b039091168152f35b346101f75760003660031901126101f7576020610ac0610f1b565b6040519015158152f35b346101f75760403660031901126101f757602060ff6102ed610aea610297565b6004356000526004845260406000206106b4565b346101f75760008060031936011261073b576000805160206114488339815191528152600460205260ff610b3533604084206106b4565b541615610b4857610b4533610cc7565b80f35b60405162461bcd60e51b815260206004820152602360248201527f41757468436f6e74726f6c3a2043616c6c6572206973206e6f7420616e20616460448201526236b4b760e91b6064820152608490fd5b346101f75760003660031901126101f757602060405160008152f35b346101f75760403660031901126101f757610338600435610bd4610297565b90806000526004602052610bef600160406000200154610f3e565b611248565b346101f75760203660031901126101f757610c0d610281565b610c186103a5610f1b565b6001600160a01b0381168015610cb5573314610ca357600080805260046020527f17ef568e3e12ab5b9c7254a8d58478811de00f9e6eb34345acd53bf8fd09d3ed549091610c9991610c6990610f3e565b610c728161105a565b50600080516020611448833981519152835260046020526108c36001604085200154610f3e565b50610b4533610ce3565b604051630a98f1f360e21b8152600490fd5b60405163d92e233d60e01b8152600490fd5b336001600160a01b0382160361036f57610ce0906110f8565b50565b336001600160a01b0382160361036f57610ce090611197565b336001600160a01b0382160361036f57610ce090611214565b15610d1c57565b60405162461bcd60e51b8152602060048201526024808201527f41757468436f6e74726f6c3a2043616c6c6572206973206e6f7420746865206f6044820152633bb732b960e11b6064820152608490fd5b15610d7457565b60405162461bcd60e51b815260206004820152600960248201526839b0b6b29030b2323960b91b6044820152606490fd5b15610dac57565b60405162461bcd60e51b815260206004820152601860248201527750726f78793a205f696d70206973206e6f7420616c69766560401b6044820152606490fd5b9190811015610dfc5760051b0190565b634e487b7160e01b600052603260045260246000fd5b35610e1c816101e5565b90565b15610e2657565b60405162461bcd60e51b815260206004820152601d60248201527f4c69717569646974795661756c7450726f78793a2073616d6520696d700000006044820152606490fd5b80546001600160a01b0319166001600160a01b03909216919091179055565b6001600160e01b031981166000908152600360205260409020546001600160a01b0391908216610ed757506000805260016020526000805160206113e8833981519152541690565b541690565b60ff610eed83610ee68461063b565b541661069a565b541615610efd57610ed29061063b565b506000805260016020526000805160206113e8833981519152541690565b60008052600460205260ff610ed2336000805160206114088339815191526106b4565b80600052600460205260ff610f573360406000206106b4565b541615610f615750565b6044906040519063e2517d3f60e01b82523360048301526024820152fd5b600080516020611448833981519152600081815260046020529060ff610fc5847f2fb794d17134dfdec181ddbac1babb5ab1eb140204ef4d982f294e7fc8b690226106b4565b5416611020578082526004602052610fe083604084206106b4565b805460ff1916600117905533926001600160a01b0316917f2f8788117e7eff1d82e926ec794901d17c78024a50270940304540a733656f0d9080a4600190565b50905090565b600080516020611428833981519152600081815260046020529060ff610fc5846000805160206113c88339815191526106b4565b6000808052600460205260ff61107e836000805160206114088339815191526106b4565b54166110d957808052600460205261109982604083206106b4565b805460ff1916600117905533916001600160a01b0316907f2f8788117e7eff1d82e926ec794901d17c78024a50270940304540a733656f0d8180a4600190565b905090565b600090808252600460205260ff610fc584604085206106b4565b600080516020611448833981519152600081815260046020529060ff61113e847f2fb794d17134dfdec181ddbac1babb5ab1eb140204ef4d982f294e7fc8b690226106b4565b54161561102057808252600460205261115a83604084206106b4565b805460ff1916905533926001600160a01b0316917ff6391f5c32d9c69d2a47ea670b442974b53935d1edc7fd64eb21e047a839171b9080a4600190565b6000808052600460205260ff6111bb836000805160206114088339815191526106b4565b5416156110d95780805260046020526111d782604083206106b4565b805460ff1916905533916001600160a01b0316907ff6391f5c32d9c69d2a47ea670b442974b53935d1edc7fd64eb21e047a839171b8180a4600190565b600080516020611428833981519152600081815260046020529060ff61113e846000805160206113c88339815191526106b4565b600090808252600460205260ff61113e84604085206106b4565b803b156109875760008052600160205261128a816000805160206113e8833981519152610e6b565b60018060a01b03168060005260026020526040600020600160ff198254161790557f72558d9bfba4210f9ef095c782589484151f6d90f7a81bb3cb9b33efc695d324602060405160018152a2565b60207f72558d9bfba4210f9ef095c782589484151f6d90f7a81bb3cb9b33efc695d3249160018060a01b031692836000526002825260406000209015159060ff1981541660ff8316179055604051908152a2565b600061134281356001600160e01b031916610e8a565b6001600160a01b0381161515806113bb575b1561137657818091368280378136915af43d82803e15611372573d90f35b3d90fd5b60405162461bcd60e51b815260206004820152601d60248201527f50726f78793a20696d706c204f522070726f78792069732066616c73650000006044820152606490fd5b5060ff8254161561135456fe2ed987ab732d519c59d4a2f2f586b9ca6af9f18905fa2093aceeb8d462ffc842a6eef7e35abe7026729641147f7915573c7e97b47efa546f5f6e3230263bcb4917ef568e3e12ab5b9c7254a8d58478811de00f9e6eb34345acd53bf8fd09d3ecfcb9fcbfa83b897fb2d5cf4b58962164105c1e71489a37ef3ae0db3fdce576f6df8b4c520ffe197c5343c6f5aec59570151ef9a492f2c624fd45ddde6135ec42a2646970667358221220d52b6bf4cd155dba8613cc6d89b4951039aeb449c73c059318082c967281454d64736f6c63430008190033",
  "linkReferences": {},
  "deployedLinkReferences": {}
}