{"abi":[{"type":"function","name":"globalWithdrawalDelay","inputs":[],"outputs":[{"name":"","type":"uint256","internalType":"uint256"}],"stateMutability":"view"},{"type":"function","name":"oldDepositManager","inputs":[],"outputs":[{"name":"","type":"address","internalType":"address"}],"stateMutability":"view"},{"type":"function","name":"withdrawalDelay","inputs":[{"name":"","type":"address","internalType":"address"}],"outputs":[{"name":"","type":"uint256","internalType":"uint256"}],"stateMutability":"view"}],"bytecode":{"object":"0x608060405234601d575b600f6021565b6102e861002d82396102e890f35b6027565b60405190565b600080fdfe60806040526004361015610013575b6102ad565b61001e600035610055565b80632153c23914610050575b80634ce970361461004b575b636ec3d5ae14610046575b61000e565b610277565b610232565b6100fc565b60e01c90565b60405190565b600080fd5b600080fd5b6000910312610077575b565b610066565b1c90565b60018060a01b03901690565b61009c9060086100a1930261007c565b610080565b90565b906100af915461008c565b90565b6100be600060036100a4565b90565b60018060a01b03901690565b6100d6906100c1565b90565b6100e2906100cd565b9052565b91906100fa906000602085019401906100d9565b565b3461012d575b61010d36600461006b565b6101296101186100b2565b61012061005b565b918291826100e6565b0390f35b610061565b61013b816100cd565b901415610145575b565b600080fd5b9050359061015782610132565b565b90602082820312610174575b6000610171920161014a565b90565b610066565b90565b61019061018b610195926100c1565b610179565b6100c1565b90565b6101a19061017c565b90565b6101ad90610198565b90565b906101ba906101a4565b600052602052604060002090565b90565b6101db9060086101e0930261007c565b6101c8565b90565b906101ee91546101cb565b90565b60006102046102099260105060106101b0565b6101e3565b90565b90565b6102189061020c565b9052565b91906102309060006020850194019061020f565b565b34610263575b61025f61024e610249366004610159565b6101f1565b61025661005b565b9182918261021c565b0390f35b610061565b6102746000600f6101e3565b90565b346102a8575b61028836600461006b565b6102a4610293610268565b61029b61005b565b9182918261021c565b0390f35b610061565b600080fdfea26469706673582212200d76f9b7902e9a403dd66d5eac8bebc5ab458b167e409f9c9e0610668b6f67fc64736f6c63430008190033","linkReferences":{}},"methodIdentifiers":{"globalWithdrawalDelay()":"6ec3d5ae","oldDepositManager()":"2153c239","withdrawalDelay(address)":"4ce97036"},"id":65}