{
  "_format": "hh-sol-artifact-1",
  "contractName": "GemFactoryForging",
  "sourceName": "src/L2/GemFactoryForging.sol",
  "abi": [
    {
      "inputs": [],
      "name": "AddressZero",
      "type": "error"
    },
    {
      "inputs": [],
      "name": "AddressZero",
      "type": "error"
    },
    {
      "inputs": [],
      "name": "ColorNotExist",
      "type": "error"
    },
    {
      "inputs": [],
      "name": "ContractNotPaused",
      "type": "error"
    },
    {
      "inputs": [],
      "name": "ContractPaused",
      "type": "error"
    },
    {
      "inputs": [],
      "name": "CooldownPeriodNotElapsed",
      "type": "error"
    },
    {
      "inputs": [
        {
          "internalType": "address",
          "name": "sender",
          "type": "address"
        },
        {
          "internalType": "uint256",
          "name": "tokenId",
          "type": "uint256"
        },
        {
          "internalType": "address",
          "name": "owner",
          "type": "address"
        }
      ],
      "name": "ERC721IncorrectOwner",
      "type": "error"
    },
    {
      "inputs": [
        {
          "internalType": "address",
          "name": "operator",
          "type": "address"
        },
        {
          "internalType": "uint256",
          "name": "tokenId",
          "type": "uint256"
        }
      ],
      "name": "ERC721InsufficientApproval",
      "type": "error"
    },
    {
      "inputs": [
        {
          "internalType": "address",
          "name": "approver",
          "type": "address"
        }
      ],
      "name": "ERC721InvalidApprover",
      "type": "error"
    },
    {
      "inputs": [
        {
          "internalType": "address",
          "name": "operator",
          "type": "address"
        }
      ],
      "name": "ERC721InvalidOperator",
      "type": "error"
    },
    {
      "inputs": [
        {
          "internalType": "address",
          "name": "owner",
          "type": "address"
        }
      ],
      "name": "ERC721InvalidOwner",
      "type": "error"
    },
    {
      "inputs": [
        {
          "internalType": "address",
          "name": "receiver",
          "type": "address"
        }
      ],
      "name": "ERC721InvalidReceiver",
      "type": "error"
    },
    {
      "inputs": [
        {
          "internalType": "address",
          "name": "sender",
          "type": "address"
        }
      ],
      "name": "ERC721InvalidSender",
      "type": "error"
    },
    {
      "inputs": [
        {
          "internalType": "uint256",
          "name": "tokenId",
          "type": "uint256"
        }
      ],
      "name": "ERC721NonexistentToken",
      "type": "error"
    },
    {
      "inputs": [],
      "name": "FailedToSendEthBack",
      "type": "error"
    },
    {
      "inputs": [],
      "name": "GemAlreadyPicked",
      "type": "error"
    },
    {
      "inputs": [],
      "name": "GemIsLocked",
      "type": "error"
    },
    {
      "inputs": [],
      "name": "GemIsLocked",
      "type": "error"
    },
    {
      "inputs": [],
      "name": "GemIsNotLocked",
      "type": "error"
    },
    {
      "inputs": [],
      "name": "InvalidInitialization",
      "type": "error"
    },
    {
      "inputs": [
        {
          "internalType": "uint8",
          "name": "quadrant",
          "type": "uint8"
        },
        {
          "internalType": "uint8",
          "name": "value",
          "type": "uint8"
        }
      ],
      "name": "InvalidQuadrant",
      "type": "error"
    },
    {
      "inputs": [],
      "name": "InvalidSumOfQuadrants",
      "type": "error"
    },
    {
      "inputs": [],
      "name": "MiningPeriodNotElapsed",
      "type": "error"
    },
    {
      "inputs": [],
      "name": "MismatchedArrayLengths",
      "type": "error"
    },
    {
      "inputs": [
        {
          "internalType": "uint8",
          "name": "quadrantIndex",
          "type": "uint8"
        },
        {
          "internalType": "uint8",
          "name": "expectedValue1",
          "type": "uint8"
        },
        {
          "internalType": "uint8",
          "name": "expectedValue2",
          "type": "uint8"
        }
      ],
      "name": "NewGemInvalidQuadrant",
      "type": "error"
    },
    {
      "inputs": [],
      "name": "NoMiningTryLeft",
      "type": "error"
    },
    {
      "inputs": [],
      "name": "NotGemOwner",
      "type": "error"
    },
    {
      "inputs": [],
      "name": "NotGemOwner",
      "type": "error"
    },
    {
      "inputs": [],
      "name": "NotInitializing",
      "type": "error"
    },
    {
      "inputs": [],
      "name": "NotMining",
      "type": "error"
    },
    {
      "inputs": [],
      "name": "NotValidColor",
      "type": "error"
    },
    {
      "inputs": [],
      "name": "RequestNotMade",
      "type": "error"
    },
    {
      "inputs": [],
      "name": "SameSenderAndRecipient",
      "type": "error"
    },
    {
      "inputs": [
        {
          "internalType": "uint8",
          "name": "sum",
          "type": "uint8"
        },
        {
          "internalType": "string",
          "name": "rarity",
          "type": "string"
        }
      ],
      "name": "SumOfQuadrantsTooHigh",
      "type": "error"
    },
    {
      "inputs": [],
      "name": "TransferFailed",
      "type": "error"
    },
    {
      "inputs": [
        {
          "internalType": "uint256",
          "name": "tokenId",
          "type": "uint256"
        }
      ],
      "name": "URIQueryForNonexistentToken",
      "type": "error"
    },
    {
      "inputs": [
        {
          "internalType": "address",
          "name": "caller",
          "type": "address"
        }
      ],
      "name": "UnauthorizedCaller",
      "type": "error"
    },
    {
      "inputs": [],
      "name": "WrongNumberOfGemToBeForged",
      "type": "error"
    },
    {
      "inputs": [],
      "name": "WrongRarity",
      "type": "error"
    },
    {
      "inputs": [],
      "name": "WrongRarity",
      "type": "error"
    },
    {
      "anonymous": false,
      "inputs": [
        {
          "indexed": true,
          "internalType": "address",
          "name": "owner",
          "type": "address"
        },
        {
          "indexed": true,
          "internalType": "address",
          "name": "approved",
          "type": "address"
        },
        {
          "indexed": true,
          "internalType": "uint256",
          "name": "tokenId",
          "type": "uint256"
        }
      ],
      "name": "Approval",
      "type": "event"
    },
    {
      "anonymous": false,
      "inputs": [
        {
          "indexed": true,
          "internalType": "address",
          "name": "owner",
          "type": "address"
        },
        {
          "indexed": true,
          "internalType": "address",
          "name": "operator",
          "type": "address"
        },
        {
          "indexed": false,
          "internalType": "bool",
          "name": "approved",
          "type": "bool"
        }
      ],
      "name": "ApprovalForAll",
      "type": "event"
    },
    {
      "anonymous": false,
      "inputs": [
        {
          "indexed": true,
          "internalType": "uint8",
          "name": "id",
          "type": "uint8"
        },
        {
          "indexed": false,
          "internalType": "string",
          "name": "backgroundColor",
          "type": "string"
        }
      ],
      "name": "BackgroundColorAdded",
      "type": "event"
    },
    {
      "anonymous": false,
      "inputs": [
        {
          "indexed": false,
          "internalType": "uint256",
          "name": "_fromTokenId",
          "type": "uint256"
        },
        {
          "indexed": false,
          "internalType": "uint256",
          "name": "_toTokenId",
          "type": "uint256"
        }
      ],
      "name": "BatchMetadataUpdate",
      "type": "event"
    },
    {
      "anonymous": false,
      "inputs": [
        {
          "indexed": false,
          "internalType": "uint32",
          "name": "newCallbackGasLimit",
          "type": "uint32"
        }
      ],
      "name": "CallBackGasLimitUpdated",
      "type": "event"
    },
    {
      "anonymous": false,
      "inputs": [
        {
          "indexed": true,
          "internalType": "uint8",
          "name": "id",
          "type": "uint8"
        },
        {
          "indexed": false,
          "internalType": "string",
          "name": "color",
          "type": "string"
        }
      ],
      "name": "ColorAdded",
      "type": "event"
    },
    {
      "anonymous": false,
      "inputs": [
        {
          "indexed": false,
          "internalType": "uint8",
          "name": "color_0",
          "type": "uint8"
        },
        {
          "indexed": false,
          "internalType": "uint8",
          "name": "color_1",
          "type": "uint8"
        }
      ],
      "name": "ColorValidated",
      "type": "event"
    },
    {
      "anonymous": false,
      "inputs": [
        {
          "indexed": false,
          "internalType": "uint8",
          "name": "color0",
          "type": "uint8"
        },
        {
          "indexed": false,
          "internalType": "uint8",
          "name": "color1",
          "type": "uint8"
        }
      ],
      "name": "ColorValidated",
      "type": "event"
    },
    {
      "anonymous": false,
      "inputs": [
        {
          "indexed": false,
          "internalType": "uint256",
          "name": "gemCount",
          "type": "uint256"
        },
        {
          "indexed": false,
          "internalType": "uint256[]",
          "name": "tokenIds",
          "type": "uint256[]"
        }
      ],
      "name": "CountGemsByQuadrant",
      "type": "event"
    },
    {
      "anonymous": false,
      "inputs": [
        {
          "indexed": true,
          "internalType": "uint256",
          "name": "tokenId",
          "type": "uint256"
        },
        {
          "indexed": false,
          "internalType": "enum GemFactoryStorage.Rarity",
          "name": "rarity",
          "type": "uint8"
        },
        {
          "indexed": false,
          "internalType": "uint8[2]",
          "name": "color",
          "type": "uint8[2]"
        },
        {
          "indexed": false,
          "internalType": "uint8",
          "name": "miningTry",
          "type": "uint8"
        },
        {
          "indexed": false,
          "internalType": "uint256",
          "name": "value",
          "type": "uint256"
        },
        {
          "indexed": false,
          "internalType": "uint8[4]",
          "name": "quadrants",
          "type": "uint8[4]"
        },
        {
          "indexed": false,
          "internalType": "uint256",
          "name": "cooldownDueDate",
          "type": "uint256"
        },
        {
          "indexed": false,
          "internalType": "string",
          "name": "tokenURI",
          "type": "string"
        },
        {
          "indexed": false,
          "internalType": "address",
          "name": "owner",
          "type": "address"
        }
      ],
      "name": "Created",
      "type": "event"
    },
    {
      "anonymous": false,
      "inputs": [
        {
          "indexed": false,
          "internalType": "uint256",
          "name": "amount",
          "type": "uint256"
        }
      ],
      "name": "EthSentBack",
      "type": "event"
    },
    {
      "anonymous": false,
      "inputs": [
        {
          "indexed": false,
          "internalType": "address",
          "name": "gemOwner",
          "type": "address"
        },
        {
          "indexed": false,
          "internalType": "uint256[]",
          "name": "gemsTokenIds",
          "type": "uint256[]"
        },
        {
          "indexed": false,
          "internalType": "uint256",
          "name": "newGemCreatedId",
          "type": "uint256"
        },
        {
          "indexed": false,
          "internalType": "enum GemFactoryStorage.Rarity",
          "name": "newRarity",
          "type": "uint8"
        },
        {
          "indexed": false,
          "internalType": "uint8[4]",
          "name": "forgedQuadrants",
          "type": "uint8[4]"
        },
        {
          "indexed": false,
          "internalType": "uint8[2]",
          "name": "color",
          "type": "uint8[2]"
        },
        {
          "indexed": false,
          "internalType": "uint256",
          "name": "newValue",
          "type": "uint256"
        }
      ],
      "name": "GemForged",
      "type": "event"
    },
    {
      "anonymous": false,
      "inputs": [
        {
          "indexed": false,
          "internalType": "uint256",
          "name": "_tokenId",
          "type": "uint256"
        },
        {
          "indexed": false,
          "internalType": "address",
          "name": "_from",
          "type": "address"
        }
      ],
      "name": "GemMelted",
      "type": "event"
    },
    {
      "anonymous": false,
      "inputs": [
        {
          "indexed": false,
          "internalType": "uint256",
          "name": "tokenId",
          "type": "uint256"
        },
        {
          "indexed": false,
          "internalType": "uint256",
          "name": "chosenTokenId",
          "type": "uint256"
        },
        {
          "indexed": false,
          "internalType": "uint256",
          "name": "minedGemCooldownDueDate",
          "type": "uint256"
        },
        {
          "indexed": false,
          "internalType": "uint256",
          "name": "initialGemCooldownDueDate",
          "type": "uint256"
        },
        {
          "indexed": false,
          "internalType": "address",
          "name": "miner",
          "type": "address"
        }
      ],
      "name": "GemMiningClaimed",
      "type": "event"
    },
    {
      "anonymous": false,
      "inputs": [
        {
          "indexed": false,
          "internalType": "uint256",
          "name": "tokenId",
          "type": "uint256"
        },
        {
          "indexed": false,
          "internalType": "address",
          "name": "miner",
          "type": "address"
        },
        {
          "indexed": false,
          "internalType": "uint256",
          "name": "startMiningTime",
          "type": "uint256"
        },
        {
          "indexed": false,
          "internalType": "uint256",
          "name": "newminingTry",
          "type": "uint256"
        }
      ],
      "name": "GemMiningStarted",
      "type": "event"
    },
    {
      "anonymous": false,
      "inputs": [
        {
          "indexed": false,
          "internalType": "uint32",
          "name": "RareGemsCooldownPeriod",
          "type": "uint32"
        },
        {
          "indexed": false,
          "internalType": "uint32",
          "name": "UniqueGemsCooldownPeriod",
          "type": "uint32"
        },
        {
          "indexed": false,
          "internalType": "uint32",
          "name": "EpicGemsCooldownPeriod",
          "type": "uint32"
        },
        {
          "indexed": false,
          "internalType": "uint32",
          "name": "LegendaryGemsCooldownPeriod",
          "type": "uint32"
        },
        {
          "indexed": false,
          "internalType": "uint32",
          "name": "MythicGemsCooldownPeriod",
          "type": "uint32"
        }
      ],
      "name": "GemsCoolDownPeriodModified",
      "type": "event"
    },
    {
      "anonymous": false,
      "inputs": [
        {
          "indexed": false,
          "internalType": "uint32",
          "name": "RareGemsMiningPeriod",
          "type": "uint32"
        },
        {
          "indexed": false,
          "internalType": "uint32",
          "name": "UniqueGemsMiningPeriod",
          "type": "uint32"
        },
        {
          "indexed": false,
          "internalType": "uint32",
          "name": "EpicGemsMiningPeriod",
          "type": "uint32"
        },
        {
          "indexed": false,
          "internalType": "uint32",
          "name": "LegendaryGemsMiningPeriod",
          "type": "uint32"
        },
        {
          "indexed": false,
          "internalType": "uint32",
          "name": "MythicGemsMiningPeriod",
          "type": "uint32"
        }
      ],
      "name": "GemsMiningPeriodModified",
      "type": "event"
    },
    {
      "anonymous": false,
      "inputs": [
        {
          "indexed": false,
          "internalType": "uint8",
          "name": "RareGemsMiningTry",
          "type": "uint8"
        },
        {
          "indexed": false,
          "internalType": "uint8",
          "name": "UniqueGemsMiningTry",
          "type": "uint8"
        },
        {
          "indexed": false,
          "internalType": "uint8",
          "name": "EpicGemsMiningTry",
          "type": "uint8"
        },
        {
          "indexed": false,
          "internalType": "uint8",
          "name": "LegendaryGemsMiningTry",
          "type": "uint8"
        },
        {
          "indexed": false,
          "internalType": "uint8",
          "name": "MythicGemsMiningTry",
          "type": "uint8"
        }
      ],
      "name": "GemsMiningTryModified",
      "type": "event"
    },
    {
      "anonymous": false,
      "inputs": [
        {
          "indexed": false,
          "internalType": "uint256",
          "name": "CommonGemsValue",
          "type": "uint256"
        },
        {
          "indexed": false,
          "internalType": "uint256",
          "name": "RareGemsValue",
          "type": "uint256"
        },
        {
          "indexed": false,
          "internalType": "uint256",
          "name": "UniqueGemsValue",
          "type": "uint256"
        },
        {
          "indexed": false,
          "internalType": "uint256",
          "name": "EpicGemsValue",
          "type": "uint256"
        },
        {
          "indexed": false,
          "internalType": "uint256",
          "name": "LegendaryValue",
          "type": "uint256"
        },
        {
          "indexed": false,
          "internalType": "uint256",
          "name": "MythicValue",
          "type": "uint256"
        }
      ],
      "name": "GemsValueModified",
      "type": "event"
    },
    {
      "anonymous": false,
      "inputs": [
        {
          "indexed": false,
          "internalType": "uint64",
          "name": "version",
          "type": "uint64"
        }
      ],
      "name": "Initialized",
      "type": "event"
    },
    {
      "anonymous": false,
      "inputs": [
        {
          "indexed": false,
          "internalType": "uint256",
          "name": "_tokenId",
          "type": "uint256"
        }
      ],
      "name": "MetadataUpdate",
      "type": "event"
    },
    {
      "anonymous": false,
      "inputs": [
        {
          "indexed": false,
          "internalType": "uint256",
          "name": "_tokenId",
          "type": "uint256"
        },
        {
          "indexed": false,
          "internalType": "address",
          "name": "owner",
          "type": "address"
        },
        {
          "indexed": false,
          "internalType": "uint256",
          "name": "timestamp",
          "type": "uint256"
        }
      ],
      "name": "MiningCancelled",
      "type": "event"
    },
    {
      "anonymous": false,
      "inputs": [
        {
          "indexed": false,
          "internalType": "uint256",
          "name": "tokenId",
          "type": "uint256"
        },
        {
          "indexed": false,
          "internalType": "uint256",
          "name": "initialGemCooldownDueDate",
          "type": "uint256"
        },
        {
          "indexed": false,
          "internalType": "address",
          "name": "miner",
          "type": "address"
        }
      ],
      "name": "NoGemAvailable",
      "type": "event"
    },
    {
      "anonymous": false,
      "inputs": [
        {
          "indexed": false,
          "internalType": "address",
          "name": "account",
          "type": "address"
        }
      ],
      "name": "Paused",
      "type": "event"
    },
    {
      "anonymous": false,
      "inputs": [
        {
          "indexed": false,
          "internalType": "uint256",
          "name": "tokenId",
          "type": "uint256"
        },
        {
          "indexed": false,
          "internalType": "uint256",
          "name": "requestNumber",
          "type": "uint256"
        }
      ],
      "name": "RandomGemRequested",
      "type": "event"
    },
    {
      "anonymous": false,
      "inputs": [
        {
          "indexed": true,
          "internalType": "address",
          "name": "from",
          "type": "address"
        },
        {
          "indexed": true,
          "internalType": "address",
          "name": "to",
          "type": "address"
        },
        {
          "indexed": true,
          "internalType": "uint256",
          "name": "tokenId",
          "type": "uint256"
        }
      ],
      "name": "Transfer",
      "type": "event"
    },
    {
      "anonymous": false,
      "inputs": [
        {
          "indexed": false,
          "internalType": "address",
          "name": "from",
          "type": "address"
        },
        {
          "indexed": false,
          "internalType": "address",
          "name": "to",
          "type": "address"
        },
        {
          "indexed": false,
          "internalType": "uint256",
          "name": "tokenId",
          "type": "uint256"
        },
        {
          "indexed": false,
          "internalType": "uint256",
          "name": "gemCooldownDueDate",
          "type": "uint256"
        }
      ],
      "name": "TransferGEM",
      "type": "event"
    },
    {
      "anonymous": false,
      "inputs": [
        {
          "indexed": false,
          "internalType": "address",
          "name": "account",
          "type": "address"
        }
      ],
      "name": "Unpaused",
      "type": "event"
    },
    {
      "inputs": [
        {
          "internalType": "uint256",
          "name": "",
          "type": "uint256"
        }
      ],
      "name": "GEMIndexToOwner",
      "outputs": [
        {
          "internalType": "address",
          "name": "",
          "type": "address"
        }
      ],
      "stateMutability": "view",
      "type": "function"
    },
    {
      "inputs": [
        {
          "internalType": "uint256",
          "name": "",
          "type": "uint256"
        }
      ],
      "name": "Gems",
      "outputs": [
        {
          "internalType": "uint256",
          "name": "tokenId",
          "type": "uint256"
        },
        {
          "internalType": "uint256",
          "name": "value",
          "type": "uint256"
        },
        {
          "internalType": "uint256",
          "name": "gemCooldownDueDate",
          "type": "uint256"
        },
        {
          "internalType": "uint256",
          "name": "randomRequestId",
          "type": "uint256"
        },
        {
          "internalType": "enum GemFactoryStorage.Rarity",
          "name": "rarity",
          "type": "uint8"
        },
        {
          "internalType": "uint8",
          "name": "miningTry",
          "type": "uint8"
        },
        {
          "internalType": "bool",
          "name": "isLocked",
          "type": "bool"
        },
        {
          "internalType": "string",
          "name": "tokenURI",
          "type": "string"
        }
      ],
      "stateMutability": "view",
      "type": "function"
    },
    {
      "inputs": [
        {
          "internalType": "address",
          "name": "",
          "type": "address"
        }
      ],
      "name": "aliveImplementation",
      "outputs": [
        {
          "internalType": "bool",
          "name": "",
          "type": "bool"
        }
      ],
      "stateMutability": "view",
      "type": "function"
    },
    {
      "inputs": [
        {
          "internalType": "address",
          "name": "to",
          "type": "address"
        },
        {
          "internalType": "uint256",
          "name": "tokenId",
          "type": "uint256"
        }
      ],
      "name": "approve",
      "outputs": [],
      "stateMutability": "nonpayable",
      "type": "function"
    },
    {
      "inputs": [
        {
          "internalType": "address",
          "name": "owner",
          "type": "address"
        }
      ],
      "name": "balanceOf",
      "outputs": [
        {
          "internalType": "uint256",
          "name": "",
          "type": "uint256"
        }
      ],
      "stateMutability": "view",
      "type": "function"
    },
    {
      "inputs": [],
      "name": "callbackGasLimit",
      "outputs": [
        {
          "internalType": "uint32",
          "name": "",
          "type": "uint32"
        }
      ],
      "stateMutability": "view",
      "type": "function"
    },
    {
      "inputs": [
        {
          "internalType": "uint8",
          "name": "",
          "type": "uint8"
        },
        {
          "internalType": "uint8",
          "name": "",
          "type": "uint8"
        }
      ],
      "name": "colorName",
      "outputs": [
        {
          "internalType": "string",
          "name": "",
          "type": "string"
        }
      ],
      "stateMutability": "view",
      "type": "function"
    },
    {
      "inputs": [
        {
          "internalType": "uint256",
          "name": "",
          "type": "uint256"
        },
        {
          "internalType": "uint256",
          "name": "",
          "type": "uint256"
        }
      ],
      "name": "colors",
      "outputs": [
        {
          "internalType": "uint8",
          "name": "",
          "type": "uint8"
        }
      ],
      "stateMutability": "view",
      "type": "function"
    },
    {
      "inputs": [],
      "name": "colorsCount",
      "outputs": [
        {
          "internalType": "uint8",
          "name": "",
          "type": "uint8"
        }
      ],
      "stateMutability": "view",
      "type": "function"
    },
    {
      "inputs": [
        {
          "internalType": "uint256[]",
          "name": "_tokenIds",
          "type": "uint256[]"
        },
        {
          "internalType": "enum GemFactoryStorage.Rarity",
          "name": "_rarity",
          "type": "uint8"
        },
        {
          "internalType": "uint8[2]",
          "name": "_color",
          "type": "uint8[2]"
        }
      ],
      "name": "forgeTokens",
      "outputs": [
        {
          "internalType": "uint256",
          "name": "newGemId",
          "type": "uint256"
        }
      ],
      "stateMutability": "nonpayable",
      "type": "function"
    },
    {
      "inputs": [
        {
          "internalType": "uint256",
          "name": "tokenId",
          "type": "uint256"
        }
      ],
      "name": "getApproved",
      "outputs": [
        {
          "internalType": "address",
          "name": "",
          "type": "address"
        }
      ],
      "stateMutability": "view",
      "type": "function"
    },
    {
      "inputs": [
        {
          "internalType": "address",
          "name": "owner",
          "type": "address"
        },
        {
          "internalType": "address",
          "name": "operator",
          "type": "address"
        }
      ],
      "name": "isApprovedForAll",
      "outputs": [
        {
          "internalType": "bool",
          "name": "",
          "type": "bool"
        }
      ],
      "stateMutability": "view",
      "type": "function"
    },
    {
      "inputs": [],
      "name": "name",
      "outputs": [
        {
          "internalType": "string",
          "name": "",
          "type": "string"
        }
      ],
      "stateMutability": "view",
      "type": "function"
    },
    {
      "inputs": [
        {
          "internalType": "enum GemFactoryStorage.Rarity",
          "name": "",
          "type": "uint8"
        }
      ],
      "name": "numberMiningGemsByRarity",
      "outputs": [
        {
          "internalType": "uint256",
          "name": "",
          "type": "uint256"
        }
      ],
      "stateMutability": "view",
      "type": "function"
    },
    {
      "inputs": [
        {
          "internalType": "uint256",
          "name": "tokenId",
          "type": "uint256"
        }
      ],
      "name": "ownerOf",
      "outputs": [
        {
          "internalType": "address",
          "name": "",
          "type": "address"
        }
      ],
      "stateMutability": "view",
      "type": "function"
    },
    {
      "inputs": [
        {
          "internalType": "address",
          "name": "",
          "type": "address"
        }
      ],
      "name": "ownershipTokenCount",
      "outputs": [
        {
          "internalType": "uint256",
          "name": "",
          "type": "uint256"
        }
      ],
      "stateMutability": "view",
      "type": "function"
    },
    {
      "inputs": [],
      "name": "pauseProxy",
      "outputs": [
        {
          "internalType": "bool",
          "name": "",
          "type": "bool"
        }
      ],
      "stateMutability": "view",
      "type": "function"
    },
    {
      "inputs": [],
      "name": "paused",
      "outputs": [
        {
          "internalType": "bool",
          "name": "",
          "type": "bool"
        }
      ],
      "stateMutability": "view",
      "type": "function"
    },
    {
      "inputs": [
        {
          "internalType": "uint256",
          "name": "",
          "type": "uint256"
        }
      ],
      "name": "proxyImplementation",
      "outputs": [
        {
          "internalType": "address",
          "name": "",
          "type": "address"
        }
      ],
      "stateMutability": "view",
      "type": "function"
    },
    {
      "inputs": [
        {
          "internalType": "uint256",
          "name": "",
          "type": "uint256"
        }
      ],
      "name": "s_requests",
      "outputs": [
        {
          "internalType": "uint256",
          "name": "tokenId",
          "type": "uint256"
        },
        {
          "internalType": "uint256",
          "name": "randomWord",
          "type": "uint256"
        },
        {
          "internalType": "uint256",
          "name": "chosenTokenId",
          "type": "uint256"
        },
        {
          "internalType": "address",
          "name": "requester",
          "type": "address"
        },
        {
          "internalType": "bool",
          "name": "requested",
          "type": "bool"
        },
        {
          "internalType": "bool",
          "name": "fulfilled",
          "type": "bool"
        }
      ],
      "stateMutability": "view",
      "type": "function"
    },
    {
      "inputs": [
        {
          "internalType": "address",
          "name": "from",
          "type": "address"
        },
        {
          "internalType": "address",
          "name": "to",
          "type": "address"
        },
        {
          "internalType": "uint256",
          "name": "tokenId",
          "type": "uint256"
        }
      ],
      "name": "safeTransferFrom",
      "outputs": [],
      "stateMutability": "nonpayable",
      "type": "function"
    },
    {
      "inputs": [
        {
          "internalType": "address",
          "name": "from",
          "type": "address"
        },
        {
          "internalType": "address",
          "name": "to",
          "type": "address"
        },
        {
          "internalType": "uint256",
          "name": "tokenId",
          "type": "uint256"
        },
        {
          "internalType": "bytes",
          "name": "data",
          "type": "bytes"
        }
      ],
      "name": "safeTransferFrom",
      "outputs": [],
      "stateMutability": "nonpayable",
      "type": "function"
    },
    {
      "inputs": [
        {
          "internalType": "bytes4",
          "name": "",
          "type": "bytes4"
        }
      ],
      "name": "selectorImplementation",
      "outputs": [
        {
          "internalType": "address",
          "name": "",
          "type": "address"
        }
      ],
      "stateMutability": "view",
      "type": "function"
    },
    {
      "inputs": [
        {
          "internalType": "address",
          "name": "operator",
          "type": "address"
        },
        {
          "internalType": "bool",
          "name": "approved",
          "type": "bool"
        }
      ],
      "name": "setApprovalForAll",
      "outputs": [],
      "stateMutability": "nonpayable",
      "type": "function"
    },
    {
      "inputs": [
        {
          "internalType": "bytes4",
          "name": "interfaceId",
          "type": "bytes4"
        }
      ],
      "name": "supportsInterface",
      "outputs": [
        {
          "internalType": "bool",
          "name": "",
          "type": "bool"
        }
      ],
      "stateMutability": "view",
      "type": "function"
    },
    {
      "inputs": [],
      "name": "symbol",
      "outputs": [
        {
          "internalType": "string",
          "name": "",
          "type": "string"
        }
      ],
      "stateMutability": "view",
      "type": "function"
    },
    {
      "inputs": [
        {
          "internalType": "address",
          "name": "",
          "type": "address"
        }
      ],
      "name": "tokenMiningByUser",
      "outputs": [
        {
          "internalType": "uint256",
          "name": "",
          "type": "uint256"
        }
      ],
      "stateMutability": "view",
      "type": "function"
    },
    {
      "inputs": [
        {
          "internalType": "uint256",
          "name": "",
          "type": "uint256"
        }
      ],
      "name": "tokenReadyToMine",
      "outputs": [
        {
          "internalType": "bool",
          "name": "",
          "type": "bool"
        }
      ],
      "stateMutability": "view",
      "type": "function"
    },
    {
      "inputs": [
        {
          "internalType": "uint256",
          "name": "tokenId",
          "type": "uint256"
        }
      ],
      "name": "tokenURI",
      "outputs": [
        {
          "internalType": "string",
          "name": "",
          "type": "string"
        }
      ],
      "stateMutability": "view",
      "type": "function"
    },
    {
      "inputs": [
        {
          "internalType": "address",
          "name": "from",
          "type": "address"
        },
        {
          "internalType": "address",
          "name": "to",
          "type": "address"
        },
        {
          "internalType": "uint256",
          "name": "tokenId",
          "type": "uint256"
        }
      ],
      "name": "transferFrom",
      "outputs": [],
      "stateMutability": "nonpayable",
      "type": "function"
    },
    {
      "inputs": [
        {
          "internalType": "address",
          "name": "",
          "type": "address"
        },
        {
          "internalType": "uint256",
          "name": "",
          "type": "uint256"
        }
      ],
      "name": "userMiningStartTime",
      "outputs": [
        {
          "internalType": "uint256",
          "name": "",
          "type": "uint256"
        }
      ],
      "stateMutability": "view",
      "type": "function"
    },
    {
      "inputs": [
        {
          "internalType": "address",
          "name": "",
          "type": "address"
        },
        {
          "internalType": "uint256",
          "name": "",
          "type": "uint256"
        }
      ],
      "name": "userMiningToken",
      "outputs": [
        {
          "internalType": "bool",
          "name": "",
          "type": "bool"
        }
      ],
      "stateMutability": "view",
      "type": "function"
    }
  ],
  "bytecode": "0x60808060405234601557612b28908161001b8239f35b600080fdfe608080604052600436101561001357600080fd5b60003560e01c90816301ffc9a714611d305750806306fdde0314611c7f578063081812fc14611c34578063095ea7b314611b4d57806323b872dd14611b3657806324f7469714611b0f57806333fcb648146109c7578063356edf74146109a657806342842e0e1461097857806350d2a27614610933578063550d01a3146108f45780635c975abb146108d15780635f2d00231461086b57806361f7f6d7146107c95780636352211e1461079957806363a8fd8914610776578063676f79f11461072e57806370a08231146106d95780637866369b146106a857806395d89b41146105c057806397125c401461058c578063a168fa891461051b578063a1770a7d146104ce578063a22cb4651461042e578063b88d4fde14610399578063b911135f14610365578063c13890721461032b578063c87b56dd146102af578063cec21acb14610275578063e985e9c514610227578063ea094c39146101f25763f317d7dd1461017f57600080fd5b346101ed5760403660031901126101ed57600435602435906007548110156101ed5760076000527fa66cc928b5edb82af9bd49922954155ab7b0942694bea4ce44661d9a8736c688019060028110156101ed5760ff6020928260051c015460f86040519360031b161c168152f35b600080fd5b346101ed5760203660031901126101ed5760043560068110156101ed57600052600e6020526020604060002054604051908152f35b346101ed5760403660031901126101ed57610240611df5565b61025161024b611e0b565b91611f01565b9060018060a01b0316600052602052602060ff604060002054166040519015158152f35b346101ed5760203660031901126101ed576001600160a01b03610296611df5565b1660005260096020526020604060002054604051908152f35b346101ed5760203660031901126101ed576004356102cc8161225f565b506000527f0542a41881ee128a365a727b282c86fa859579490b9bb45aab8503648c8e79006020526103276103046040600020611f74565b600060405161031281611e8c565b52604051918291602083526020830190611db5565b0390f35b346101ed5760203660031901126101ed576001600160a01b0361034c611df5565b16600052600a6020526020604060002054604051908152f35b346101ed5760203660031901126101ed576004356000526001602052602060018060a01b0360406000205416604051908152f35b346101ed5760803660031901126101ed576103b2611df5565b6103ba611e0b565b90604435606435926001600160401b0384116101ed57366023850112156101ed578360040135926103ea8461205b565b936103f86040519586611ea7565b80855236602482880101116101ed57602081600092602461042c99018389013786010152610427838383612076565b6122f1565b005b346101ed5760403660031901126101ed57610447611df5565b602435908115158092036101ed576001600160a01b03169081156104b55761046e33611f01565b82600052602052604060002060ff1981541660ff83161790556040519081527f17307eab39ab6107e8899845ad3d59bd9653f200f220920489ca2b5937696c3160203392a3005b604051630b61174360e31b815260048101839052602490fd5b346101ed5760403660031901126101ed576001600160a01b036104ef611df5565b16600052600b6020526040600020602435600052602052602060ff604060002054166040519015158152f35b346101ed5760203660031901126101ed57600435600052600f60205260c0604060002060ff81549160018101549060036002820154910154916040519485526020850152604084015260018060a01b0381166060840152818160a01c161515608084015260a81c16151560a0820152f35b346101ed5760203660031901126101ed576004356000526008602052602060018060a01b0360406000205416604051908152f35b346101ed5760003660031901126101ed576040517f80bb2b638cc20bc4d0a60d66940f3ab4a00c1d7b313497ca82fb0b4ab0079301805482600061060383611f3a565b9283835260209460019186600182169182600014610686575050600114610647575b505061063392500383611ea7565b610327604051928284938452830190611db5565b85925060005281600020906000915b85831061066e57505061063393508201018580610625565b80548389018501528794508693909201918101610656565b925093505061063394915060ff191682840152151560051b8201018580610625565b346101ed5760203660031901126101ed57600435600052600d602052602060ff604060002054166040519015158152f35b346101ed5760203660031901126101ed576106f2611df5565b6001600160a01b038116156107155761070c602091611ec8565b54604051908152f35b6040516322718ad960e21b815260006004820152602490fd5b346101ed5760403660031901126101ed576001600160a01b0361074f611df5565b16600052600c60205260406000206024356000526020526020604060002054604051908152f35b346101ed5760003660031901126101ed57602060ff600054166040519015158152f35b346101ed5760203660031901126101ed5760206107b760043561225f565b6040516001600160a01b039091168152f35b346101ed5760203660031901126101ed576004356004548110156101ed576107f090612019565b5080549061032760018201549160028101549360ff60038301549261081c600760048301549201611f74565b936040519788976101009589526020890152604088015260608701526108476080870183831661204e565b818160081c1660a087015260101c16151560c08501528060e0850152830190611db5565b346101ed5760403660031901126101ed5760043560ff81168091036101ed576024359060ff82168092036101ed5760005260056020526040600020906000526020526103276108bd6040600020611f74565b604051918291602083526020830190611db5565b346101ed5760003660031901126101ed57602060ff601054166040519015158152f35b346101ed5760203660031901126101ed576001600160a01b03610915611df5565b166000526002602052602060ff604060002054166040519015158152f35b346101ed5760203660031901126101ed5760043563ffffffff60e01b81168091036101ed576000526003602052602060018060a01b0360406000205416604051908152f35b346101ed5761042c61098936611e21565b906040519261099784611e8c565b60008452610427838383612076565b346101ed5760003660031901126101ed57602060ff60065416604051908152f35b346101ed5760803660031901126101ed576004356001600160401b0381116101ed57366023820112156101ed5780600401356001600160401b038111611600578060051b9160405191610a1d6020850184611ea7565b82526020820160248194830101913683116101ed57602401905b828210611aff57505050600660243510156101ed5736606312156101ed57604051610a6181611e56565b806084366084116101ed576044915b818310611ae5575050506010549160ff8316611aad57601354926014549060155494601654916017546011549360405198896101e08101106001600160401b036101e08c0111176116005763ffffffff9687956101e08c016040528b5260208b015260408a01526060890152608088015260ff8160081c1660a088015260ff8160101c1660c088015260ff8160181c1660e088015260ff8160201c1661010088015260ff8160281c1661012088015260d01c16610140860152818116610160860152818160201c16610180860152818160401c166101a086015260601c166101c08401526080604051610b6281611e71565b36903760405193610b7285611e71565b60803686373315611a9b57600060243561198a5760028351036119785784519563ffffffff61014060ff60a089015116970151169591969290965b60405197610bba89611e71565b6080368a376000976000955b8751871015610de157610bd9878961228f565b5160005260086020523360018060a01b036040600020541603610dcf5760ff6004610c0d610c078a8c61228f565b51612019565b50015460101c16610dbd578360ff6004610c2a610c078b8d61228f565b5001541690610da7576006811015610da75760243503610d955760ff610ce98c826060816005610cd98f8f8185610c798187610c6c610c0787610c079961228f565b50015416828c51166122c6565b16895285610ca28187610c8f610c07878761228f565b50015460081c168260208d0151166122c6565b1660208a015285610cce8187610cbb610c07878761228f565b50015460101c168260408d0151166122c6565b1660408a015261228f565b50015460181c16920151166122c6565b1660608c015260005b8851811015610d89578a15610d0a575b600101610cf2565b99506001610d3b8b8b610d28610d208c8e61228f565b51928d61228f565b5160ff6020818451169301511692612483565b9a8b610d49575b9050610d02565b7fca7a2fe4405fb5bae2732ff63f6d1976dec8ed09ba2fae7003a209e26154b08f60408c60ff6020818351169201511682519182526020820152a1610d42565b50600190960195610bc6565b60405163036cae1f60e31b8152600490fd5b634e487b7160e01b600052602160045260246000fd5b604051635399ebf560e01b8152600490fd5b6040516302b327b560e41b8152600490fd5b919487898c93968c156119665784516001908116865260208601805182169052604086018051821690526060860180519091169052600087610da75760243561190757506002955b60005b60ff81166004811015610e6d5760ff918c83610e6284610e5c8e848f600199610e54916122a3565b5116906122c6565b936122a3565b911690520116610e2c565b5050888a898960ff83511660ff610e83836122b4565b1614806118ec575b806118d1575b806118b6575b611899575b50610da75760ff610eae6024356122b4565b16926006841015610da75763ffffffff8316420142116112d657604051806101408101106001600160401b03610140830111176116005761014081016040526000815281602082015263ffffffff8416420160408201526000606082015284608082015260ff891660a0820152600060c08201528260e082015286610100820152604051610f3b81611e8c565b60008152610120820152600454600160401b81101561160057806001610f649201600455612019565b91909161132a578051825560208101516001830155604081015160028301556060810151600383015560808101516006811015610da757600483015461ff0060a084015160081b169060ff62ff000060c0860151151560101b1693169062ffffff1916171717600483015560e081015160009060005b6004811061186b575050600583015561010081015160009060005b6002811061183d575050600683015561012001518051906001600160401b038211611600576110276007840154611f3a565b601f8111611808575b50602090601f83116001146117985791806110659260079460009261178d575b50508160011b916000199060031b1c19161790565b9101555b60045494856000198101116112d6576110856000198701612019565b506000198781019182905563ffffffff9091168703016101ed576000198601600052600860205260406000203360018060a01b03198254161790553360005260096020526040600020805460001981146112d6576001019055604051906101608201338352610160602084015289518091526101808301919060005b8181106117775750505090807fb008433c5118253ef92bed2a1bd3b95470d4c373e1c4b9586459e65204efa8c49260001989016040830152611146606083018961204e565b6111536080830187612209565b61116161010083018b612234565b846101408301520390a160005b875181101561134057611184610c07828a61228f565b61132a5760008155600060018201556000600282015560006003820155600060048201556111c7600760068301926111bf84600583016122da565b0180926122da565b6111d18154611f3a565b90816112ec575b50503360005260096020526040600020805480156112d657600019019055611200818961228f565b51600090815260086020526040902080546001600160a01b0319169055611227818961228f565b516000818152600080516020612ab383398151915260205260409020546001600160a01b0316806112b7575b6000828152600080516020612ab38339815191526020526040812080546001600160a01b0319169055829082600080516020612a938339815191528280a41561129f575060010161116e565b60249060405190637e27328960e01b82526004820152fd5b6112c082612439565b6112c981611ec8565b8054600019019055611253565b634e487b7160e01b600052601160045260246000fd5b81601f600093116001146113045750555b89806111d8565b908083918252611323601f60208420940160051c8401600185016122da565b55556112fd565b634e487b7160e01b600052600060045260246000fd5b508760405161134e81611e8c565b600080825260001988018152600080516020612ab383398151915260208190526040909120546001600160a01b03168015159182611754575b61139033611ec8565b805460010190556000198a0160008181526020929092526040822080546001600160a01b0319163390811790915590929091600080516020612a938339815191529080a461173b57333b611616575b50604051966113ed88611e8c565b6000885260001987016000527f0542a41881ee128a365a727b282c86fa859579490b9bb45aab8503648c8e7900602052604060002088516001600160401b0381116116005760209961143f8354611f3a565b601f81116115c5575b508a90601f831160011461154a579360ff9361148c8463ffffffff9b9a98956114d2956114e79b9960009261153f5750508160011b916000199060031b1c19161790565b90555b7ff8e1a15aba9398e019f0b49df1a4fde98ee17ae345cb5f6b5e2c27f5033e8ce78c6040518d600019018152a16114c9604051809b61204e565b8b8a0190612234565b166060870152608086015260a0850190612209565b1642016101208201526101806101408201526000610180820152336101608201527f0e027f6f5631612aa005651eea501b4da1f9d6380d2c2d3cfa4b6b1fddd5b23e6101a0600019840192a260405190600019018152f35b015190503880611050565b90836000528b6000209160005b601f19851681106115ae5750936001846114d2946114e79a989460ff9863ffffffff9e9d9b98601f19811610611595575b505050811b01905561148f565b015160001960f88460031b161c191690558f8080611588565b91928d600181928685015181550194019201611557565b6115f090846000528c600020601f850160051c8101918e86106115f6575b601f0160051c01906122da565b8b611448565b90915081906115e3565b634e487b7160e01b600052604160045260246000fd5b604051630a85bd0160e11b81523360048201526000602482015260001988016044820152608060648201529060209082908190611657906084830190611db5565b03816000335af1600091816116f6575b506116c1573d156116ba573d61167c8161205b565b9061168a6040519283611ea7565b81523d6000602083013e5b805190816116b557604051633250574960e11b8152336004820152602490fd5b602001fd5b6060611695565b6001600160e01b03191663757a42ff60e11b016116de57876113df565b604051633250574960e11b8152336004820152602490fd5b9091506020813d602011611733575b8161171260209383611ea7565b810103126101ed57516001600160e01b0319811681036101ed579089611667565b3d9150611705565b6040516339e3563760e11b815260006004820152602490fd5b6117616000198b01612439565b61176a82611ec8565b8054600019019055611387565b8251845260209384019390920191600101611101565b015190508d80611050565b906007840160005260206000209160005b601f19851681106117f05750918391600193600795601f198116106117d7575b505050811b01910155611069565b015160001960f88460031b161c191690558c80806117c9565b919260206001819286850151815501940192016117a9565b61183790600785016000526020600020601f850160051c810191602086106115f657601f0160051c01906122da565b8b611030565b909160206118626001928460ff875116919060ff809160031b9316831b921b19161790565b93019101610ff5565b909160206118906001928460ff875116919060ff809160031b9316831b921b19161790565b93019101610fda565b60ff16808352806020840152806040840152606083015288610e9c565b5060ff60608401511660ff6118ca836122b4565b1614610e97565b5060ff60408401511660ff6118e5836122b4565b1614610e91565b5060ff60208401511660ff611900836122b4565b1614610e8b565b6000975060243560010361191f57506003955b610e29565b600097506024356002036119365750600495610e29565b6000975060243560030361194d5750600595610e29565b60009750956003196024350161191a5760069650610e29565b60405163d80d319f60e01b8152600490fd5b604051638c0673f560e01b8152600490fd5b5060006024356001036119c65760038351036119785760208501519563ffffffff61016060ff60c089015116970151165b959196929096610bad565b5060006024356002036119fb5760048351036119785760408501519563ffffffff61018060ff60e089015116970151166119bb565b506000602435600303611a315760058351036119785760608501519563ffffffff6101a060ff61010089015116970151166119bb565b506000602435600403611a675760068351036119785760808501519563ffffffff6101c060ff61012089015116970151166119bb565b60405162461bcd60e51b815260206004820152600c60248201526b77726f6e672072617269747960a01b6044820152606490fd5b604051639fabe1c160e01b8152600490fd5b60405162461bcd60e51b815260206004820152601060248201526f14185d5cd8589b194e881c185d5cd95960821b6044820152606490fd5b823560ff811681036101ed57815260209283019201610a70565b8135815260209182019101610a37565b346101ed5760003660031901126101ed57602063ffffffff60115460801c16604051908152f35b346101ed5761042c611b4736611e21565b91612076565b346101ed5760403660031901126101ed57611b66611df5565b602435611b728161225f565b33151580611c21575b80611c01575b611be9576001600160a01b039283169282918491167f8c5be1e5ebec7d5bd14f71427d1e84f3dd0314c0f7b2291e5b200ac8c7c3b925600080a46000908152600080516020612ad38339815191526020526040902080546001600160a01b0319169091179055005b60405163a9fbf51f60e01b8152336004820152602490fd5b50611c0b81611f01565b3360005260205260ff6040600020541615611b81565b506001600160a01b038116331415611b7b565b346101ed5760203660031901126101ed57600435611c518161225f565b50600052600080516020612ad3833981519152602052602060018060a01b0360406000205416604051908152f35b346101ed5760003660031901126101ed576040517f80bb2b638cc20bc4d0a60d66940f3ab4a00c1d7b313497ca82fb0b4ab00793008054826000611cc283611f3a565b9283835260209460019186600182169182600014610686575050600114611cf157505061063392500383611ea7565b85925060005281600020906000915b858310611d1857505061063393508201018580610625565b80548389018501528794508693909201918101611d00565b346101ed5760203660031901126101ed576004359063ffffffff60e01b82168092036101ed57602091632483248360e11b8114908115611d72575b5015158152f35b6380ac58cd60e01b811491508115611da4575b8115611d93575b5083611d6b565b6301ffc9a760e01b14905083611d8c565b635b5e139f60e01b81149150611d85565b919082519283825260005b848110611de1575050826000602080949584010152601f8019910116010190565b602081830181015184830182015201611dc0565b600435906001600160a01b03821682036101ed57565b602435906001600160a01b03821682036101ed57565b60609060031901126101ed576001600160a01b039060043582811681036101ed579160243590811681036101ed579060443590565b604081019081106001600160401b0382111761160057604052565b608081019081106001600160401b0382111761160057604052565b602081019081106001600160401b0382111761160057604052565b90601f801991011681019081106001600160401b0382111761160057604052565b6001600160a01b031660009081527f80bb2b638cc20bc4d0a60d66940f3ab4a00c1d7b313497ca82fb0b4ab00793036020526040902090565b6001600160a01b031660009081527f80bb2b638cc20bc4d0a60d66940f3ab4a00c1d7b313497ca82fb0b4ab00793056020526040902090565b90600182811c92168015611f6a575b6020831014611f5457565b634e487b7160e01b600052602260045260246000fd5b91607f1691611f49565b90604051918260008254611f8781611f3a565b90818452602094600191600181169081600014611ff75750600114611fb8575b505050611fb692500383611ea7565b565b600090815285812095935091905b818310611fdf575050611fb69350820101388080611fa7565b85548884018501529485019487945091830191611fc6565b92505050611fb694925060ff191682840152151560051b820101388080611fa7565b60045481101561203857600460005260206000209060031b0190600090565b634e487b7160e01b600052603260045260246000fd5b906006821015610da75752565b6001600160401b03811161160057601f01601f191660200190565b6001600160a01b03828116939184156121f05782600095818752600080516020612ab383398151915295866020526040978589822054169788923315158061214a575b50906120d9600080516020612a9383398151915293928561212b57611ec8565b8054600101905585825260205289812080546001600160a01b0319168517905580a4169283830361210a5750505050565b6064945051926364283d7b60e01b8452600484015260248301526044820152fd5b61213488612439565b61213d86611ec8565b8054600019019055611ec8565b91935091939450806121a1575b1561216857918791879493386120b9565b888789612185576024915190637e27328960e01b82526004820152fd5b604491519063177e802f60e01b82523360048301526024820152fd5b5033881480156121d4575b806121575750868352600080516020612ad383398151915260205233868a8520541614612157565b506121de88611f01565b33845260205260ff89842054166121ac565b604051633250574960e11b815260006004820152602490fd5b6000915b6004831061221a57505050565b60019060ff8351168152602080910192019201919061220d565b6000915b6002831061224557505050565b60019060ff83511681526020809101920192019190612238565b6000818152600080516020612ab383398151915260205260409020546001600160a01b031690811561129f575090565b80518210156120385760209160051b010190565b9060048110156120385760051b0190565b60ff60019116019060ff82116112d657565b9060ff8091169116019060ff82116112d657565b8181106122e5575050565b600081556001016122da565b813b6122fe575b50505050565b604051630a85bd0160e11b8082523360048301526001600160a01b0392831660248301526044820194909452608060648201526020959290911693909290839061234c906084830190611db5565b039285816000958187895af18491816123f5575b506123c0575050503d6000146123b8573d61237a8161205b565b906123886040519283611ea7565b81528091843d92013e5b805192836123b357604051633250574960e11b815260048101849052602490fd5b019050fd5b506060612392565b919450915063ffffffff60e01b16036123dd5750388080806122f8565b60249060405190633250574960e11b82526004820152fd5b9091508681813d8311612432575b61240d8183611ea7565b8101031261242e57516001600160e01b03198116810361242e579038612360565b8480fd5b503d612403565b6000908152600080516020612ad38339815191526020526040902080546001600160a01b0319169055565b9060ff6040519254818116845260081c166020830152611fb682611e56565b600094939190818114612a8857600661249e6124a592612019565b5001612464565b9260ff906124c2600661249e846020818a51169901511695612019565b94826020818851169701511691848214808091612a7f575b80612a76575b612a50578080612a47575b612781578015908180612a3e575b80612a2c575b8015612a02575b6129ab578190816129a1575b81612985575b8115612952575b5061283a578080612830575b80612805575b6127e15780806127d7575b806127a5575b6126d5575b806126cb575b806126c1575b806126b7575b806126ad575b806126a3575b6125725750505050505050565b83949596979850929091921690808214968780612697575b881561267c575b508715612660575b8715612644575b8715612628575b871561260b575b5086156125ea575b5085156125c6575b505050505090565b1493509091836125de575b50505038808080806125be565b161490503880806125d1565b90955081861490816125ff575b5094386125b6565b905082851614386125f7565b90965081148061261d575b95386125ae565b508383861614612616565b809750821480612639575b966125a7565b508084871614612633565b965084821480612655575b966125a0565b50828487161461264f565b965084821480612671575b96612599565b50868487161461266b565b9097508061268c575b9638612591565b508284871614612685565b8786168214985061258a565b5082851415612565565b508282141561255f565b5086851415612559565b5086821415612553565b508287141561254d565b9890929691828114600014612714575050508192939495965016938285149485612708575b85156125c657505050505090565b848316821495506126fa565b919690918082036127425750505081929394959650169382851494856127085785156125c657505050505090565b94909691988282146000146127745750505081929394959650169382851494856127085785156125c657505050505090565b8782969398949203612547575b5091509394959650819250169382851494856127085785156125c657505050505090565b5087831480156127ce575b80156127c5575b806125425750838614612542565b508786146127b7565b508383146127b0565b508388141561253c565b5091509394508192959650169382851494856127085785156125c657505050505090565b5087831480612827575b80612531575083831480156125315750878614612531565b5083861461280f565b508388141561252b565b9092919798509594956000146128db575081169385851495866128cf575b86156128b3575b8615612896575b50851561287557505050505090565b16149250908261288c575b505038808080806125be565b1490503880612880565b90955081861614806128aa575b9438612866565b508284146128a3565b9550828514806128c4575b9561285f565b5083828216146128be565b81831685149650612858565b93959250811693828514958680612946575b871561292b575b50861561290a5750851561287557505050505090565b90955082828716149081612921575b509438612866565b9050841438612919565b9096508061293b575b95386128f4565b508382821614612934565b828416821497506128ed565b90508061297b575b80612966575b3861251f565b50878314158015612960575083831415612960565b508388141561295a565b90508884141580612997575b90612518565b5088871415612991565b8986149150612512565b50849791939295969899506000146129e5575050169281841494856129d9575b851561287557505050505090565b818116841495506129cb565b93509350169281841494856129d957851561287557505050505090565b508080612a22575b80156125065750838914806125065750838514612506565b5084891415612a0a565b50888414806124ff57508887146124ff565b508489146124f9565b508388146124eb565b509150929450819395965016149283612a6a575b50505090565b16149050388080612a64565b508783146124e0565b508388146124da565b506000945050505056feddf252ad1be2c89b69c2b068fc378daa952ba7f163c4a11628f55a4df523b3ef80bb2b638cc20bc4d0a60d66940f3ab4a00c1d7b313497ca82fb0b4ab007930280bb2b638cc20bc4d0a60d66940f3ab4a00c1d7b313497ca82fb0b4ab0079304a26469706673582212204cfdc0716ef22df60fe123cde6008d4564ebb47e57a9d09536ce425156bae77364736f6c63430008190033",
  "linkReferences": {},
  "deployedLinkReferences": {}
}