{"abi":[{"type":"function","name":"ADMIN_ROLE","inputs":[],"outputs":[{"name":"","type":"bytes32","internalType":"bytes32"}],"stateMutability":"view"},{"type":"function","name":"DECIMALS","inputs":[],"outputs":[{"name":"","type":"uint256","internalType":"uint256"}],"stateMutability":"view"},{"type":"function","name":"DEFAULT_ADMIN_ROLE","inputs":[],"outputs":[{"name":"","type":"bytes32","internalType":"bytes32"}],"stateMutability":"view"},{"type":"function","name":"PAUSE_ROLE","inputs":[],"outputs":[{"name":"","type":"bytes32","internalType":"bytes32"}],"stateMutability":"view"},{"type":"function","name":"addAdmin","inputs":[{"name":"account","type":"address","internalType":"address"}],"outputs":[],"stateMutability":"nonpayable"},{"type":"function","name":"addPauser","inputs":[{"name":"account","type":"address","internalType":"address"}],"outputs":[],"stateMutability":"nonpayable"},{"type":"function","name":"aliveImplementation","inputs":[{"name":"","type":"address","internalType":"address"}],"outputs":[{"name":"","type":"bool","internalType":"bool"}],"stateMutability":"view"},{"type":"function","name":"getPaused","inputs":[],"outputs":[{"name":"","type":"bool","internalType":"bool"}],"stateMutability":"view"},{"type":"function","name":"getRoleAdmin","inputs":[{"name":"role","type":"bytes32","internalType":"bytes32"}],"outputs":[{"name":"","type":"bytes32","internalType":"bytes32"}],"stateMutability":"view"},{"type":"function","name":"getStakingIndex","inputs":[],"outputs":[{"name":"","type":"uint256","internalType":"uint256"}],"stateMutability":"view"},{"type":"function","name":"getTreasuryAddress","inputs":[],"outputs":[{"name":"","type":"address","internalType":"address"}],"stateMutability":"view"},{"type":"function","name":"getWstonAddress","inputs":[],"outputs":[{"name":"","type":"address","internalType":"address"}],"stateMutability":"view"},{"type":"function","name":"grantRole","inputs":[{"name":"role","type":"bytes32","internalType":"bytes32"},{"name":"account","type":"address","internalType":"address"}],"outputs":[],"stateMutability":"nonpayable"},{"type":"function","name":"hasRole","inputs":[{"name":"role","type":"bytes32","internalType":"bytes32"},{"name":"account","type":"address","internalType":"address"}],"outputs":[{"name":"","type":"bool","internalType":"bool"}],"stateMutability":"view"},{"type":"function","name":"initialize","inputs":[{"name":"_wston","type":"address","internalType":"address"},{"name":"_initialStakingIndex","type":"uint256","internalType":"uint256"},{"name":"_treasury","type":"address","internalType":"address"}],"outputs":[],"stateMutability":"nonpayable"},{"type":"function","name":"isAdmin","inputs":[{"name":"account","type":"address","internalType":"address"}],"outputs":[{"name":"","type":"bool","internalType":"bool"}],"stateMutability":"view"},{"type":"function","name":"isOwner","inputs":[],"outputs":[{"name":"","type":"bool","internalType":"bool"}],"stateMutability":"view"},{"type":"function","name":"isPauser","inputs":[{"name":"account","type":"address","internalType":"address"}],"outputs":[{"name":"","type":"bool","internalType":"bool"}],"stateMutability":"view"},{"type":"function","name":"pause","inputs":[],"outputs":[],"stateMutability":"nonpayable"},{"type":"function","name":"pauseProxy","inputs":[],"outputs":[{"name":"","type":"bool","internalType":"bool"}],"stateMutability":"view"},{"type":"function","name":"proxyImplementation","inputs":[{"name":"","type":"uint256","internalType":"uint256"}],"outputs":[{"name":"","type":"address","internalType":"address"}],"stateMutability":"view"},{"type":"function","name":"removeAdmin","inputs":[],"outputs":[],"stateMutability":"nonpayable"},{"type":"function","name":"removePauser","inputs":[{"name":"account","type":"address","internalType":"address"}],"outputs":[],"stateMutability":"nonpayable"},{"type":"function","name":"renounceRole","inputs":[{"name":"role","type":"bytes32","internalType":"bytes32"},{"name":"callerConfirmation","type":"address","internalType":"address"}],"outputs":[],"stateMutability":"nonpayable"},{"type":"function","name":"revokeRole","inputs":[{"name":"role","type":"bytes32","internalType":"bytes32"},{"name":"account","type":"address","internalType":"address"}],"outputs":[],"stateMutability":"nonpayable"},{"type":"function","name":"selectorImplementation","inputs":[{"name":"","type":"bytes4","internalType":"bytes4"}],"outputs":[{"name":"","type":"address","internalType":"address"}],"stateMutability":"view"},{"type":"function","name":"setTreasury","inputs":[{"name":"_treasury","type":"address","internalType":"address"}],"outputs":[],"stateMutability":"nonpayable"},{"type":"function","name":"setWston","inputs":[{"name":"_wston","type":"address","internalType":"address"}],"outputs":[],"stateMutability":"nonpayable"},{"type":"function","name":"supportsInterface","inputs":[{"name":"interfaceId","type":"bytes4","internalType":"bytes4"}],"outputs":[{"name":"","type":"bool","internalType":"bool"}],"stateMutability":"view"},{"type":"function","name":"swap","inputs":[{"name":"wstonAmount","type":"uint256","internalType":"uint256"}],"outputs":[],"stateMutability":"nonpayable"},{"type":"function","name":"ton","inputs":[],"outputs":[{"name":"","type":"address","internalType":"address"}],"stateMutability":"view"},{"type":"function","name":"transferOwnership","inputs":[{"name":"newOwner","type":"address","internalType":"address"}],"outputs":[],"stateMutability":"nonpayable"},{"type":"function","name":"treasury","inputs":[],"outputs":[{"name":"","type":"address","internalType":"address"}],"stateMutability":"view"},{"type":"function","name":"unpause","inputs":[],"outputs":[],"stateMutability":"nonpayable"},{"type":"function","name":"updateStakingIndex","inputs":[{"name":"newIndex","type":"uint256","internalType":"uint256"}],"outputs":[],"stateMutability":"nonpayable"},{"type":"function","name":"wston","inputs":[],"outputs":[{"name":"","type":"address","internalType":"address"}],"stateMutability":"view"},{"type":"event","name":"RoleAdminChanged","inputs":[{"name":"role","type":"bytes32","indexed":true,"internalType":"bytes32"},{"name":"previousAdminRole","type":"bytes32","indexed":true,"internalType":"bytes32"},{"name":"newAdminRole","type":"bytes32","indexed":true,"internalType":"bytes32"}],"anonymous":false},{"type":"event","name":"RoleGranted","inputs":[{"name":"role","type":"bytes32","indexed":true,"internalType":"bytes32"},{"name":"account","type":"address","indexed":true,"internalType":"address"},{"name":"sender","type":"address","indexed":true,"internalType":"address"}],"anonymous":false},{"type":"event","name":"RoleRevoked","inputs":[{"name":"role","type":"bytes32","indexed":true,"internalType":"bytes32"},{"name":"account","type":"address","indexed":true,"internalType":"address"},{"name":"sender","type":"address","indexed":true,"internalType":"address"}],"anonymous":false},{"type":"event","name":"StakingIndexUpdated","inputs":[{"name":"newIndex","type":"uint256","indexed":false,"internalType":"uint256"}],"anonymous":false},{"type":"event","name":"SwappedWstonForTon","inputs":[{"name":"user","type":"address","indexed":true,"internalType":"address"},{"name":"tonAmount","type":"uint256","indexed":false,"internalType":"uint256"},{"name":"wstonAmount","type":"uint256","indexed":false,"internalType":"uint256"}],"anonymous":false},{"type":"error","name":"AccessControlBadConfirmation","inputs":[]},{"type":"error","name":"AccessControlUnauthorizedAccount","inputs":[{"name":"account","type":"address","internalType":"address"},{"name":"neededRole","type":"bytes32","internalType":"bytes32"}]},{"type":"error","name":"ContractTonBalanceOrAllowanceTooLow","inputs":[]},{"type":"error","name":"FailedToApproveTon","inputs":[{"name":"amount","type":"uint256","internalType":"uint256"}]},{"type":"error","name":"FailedToTransferTON","inputs":[]},{"type":"error","name":"ReentrancyGuardReentrantCall","inputs":[]},{"type":"error","name":"SameAdmin","inputs":[]},{"type":"error","name":"SameOwner","inputs":[]},{"type":"error","name":"WrongStakingIndex","inputs":[]},{"type":"error","name":"WstonAllowanceTooLow","inputs":[]},{"type":"error","name":"WstonBalanceTooLow","inputs":[]},{"type":"error","name":"ZeroAddress","inputs":[]}],"bytecode":{"object":"0x608060405234601f57600e6024565b60405161166b610066823961166b90f35b600080fd5b602a602c565b565b602a6057565b603c603c603c9290565b90565b603c60016032565b90603c603c6053926032565b9055565b602a605f603f565b6005604756fe6080604052600436101561001257600080fd5b60003560e01c806301ffc9a714610252578063044bc7791461024d578063247ee38814610248578063248a9ca31461024357806324d7806c1461023e5780632e0f2625146102395780632f2ff15d1461023457806336568abe1461022f57806336b17e131461022a578063389ed267146102255780633f4ba83a1461022057806346fbf68e1461021b5780635074e0c81461021657806350d2a27614610211578063550d01a31461020c57806361d027b31461020757806363a8fd89146102025780636805b84b146101fd5780636b2c0f55146101f857806370480275146101f357806375b238fc146101ee57806382dc1ec4146101e95780638456cb59146101e45780638f32d59b146101df57806391d14854146101da57806394b918de146101d55780639a202d47146101d0578063a217fddf146101cb578063b911135f146101c6578063c350a1b5146101c1578063caa78a86146101bc578063cc48b947146101b7578063d547741f146101b2578063e0024604146101ad578063f0f44260146101a85763f2fde38b03610257576108b2565b61089a565b61087f565b610866565b61084b565b610827565b61080e565b6107ca565b610795565b61076b565b610753565b610737565b61071c565b610704565b6106ec565b6106d1565b61068d565b610675565b61065a565b61063f565b610619565b6105f2565b610578565b61052e565b610513565b6104fb565b6104e0565b610499565b610455565b61043c565b6103fe565b6103ba565b61038f565b61034b565b6102fa565b610299565b600080fd5b6001600160e01b031981165b0361025757565b9050359061027c8261025c565b565b90602082820312610257576102929161026f565b90565b9052565b34610257576102c66102b46102af36600461027e565b6108ca565b60405191829182901515815260200190565b0390f35b600091031261025757565b6001600160a01b031690565b610295906102d5565b60208101929161027c91906102e1565b346102575761030a3660046102ca565b6102c66103156108e6565b604051918291826102ea565b610268816102d5565b9050359061027c82610321565b90602082820312610257576102929161032a565b346102575761036361035e366004610337565b6109a0565b604051005b80610268565b9050359061027c82610368565b90602082820312610257576102929161036e565b34610257576102c66103aa6103a536600461037b565b6109c0565b6040519182918290815260200190565b34610257576102c66102b46103d0366004610337565b6109df565b6102926102926102929290565b610292676765c793fa10079d601b1b6103d5565b6102926103e2565b346102575761040e3660046102ca565b6102c66103aa6103f6565b919060408382031261025757610292906020610435828661036e565b940161032a565b346102575761036361044f366004610419565b90610a13565b3461025757610363610468366004610419565b90610a1d565b610292916008021c6001600160a01b031690565b90610292915461046e565b61029260006007610482565b34610257576104a93660046102ca565b6102c661031561048d565b7ffcb9fcbfa83b897fb2d5cf4b58962164105c1e71489a37ef3ae0db3fdce576f690565b6102926104b4565b34610257576104f03660046102ca565b6102c66103aa6104d8565b346102575761050b3660046102ca565b610363610b0b565b34610257576102c66102b4610529366004610337565b610b13565b346102575761053e3660046102ca565b6102c66103aa610b1f565b906001600160e01b0319165b600052602052604060002090565b6000610573610292926003610549565b610482565b34610257576102c661031561058e36600461027e565b610563565b610292906102d5906001600160a01b031682565b61029290610593565b610292906105a7565b90610555906105b0565b610292916008021c5b60ff1690565b9061029291546105c3565b60006105ed6102929260026105b9565b6105d2565b34610257576102c66102b4610608366004610337565b6105dd565b61029260006008610482565b34610257576106293660046102ca565b6102c661031561060d565b6102926000806105d2565b346102575761064f3660046102ca565b6102c66102b4610634565b346102575761066a3660046102ca565b6102c66102b4610b29565b3461025757610363610688366004610337565b610bda565b34610257576103636106a0366004610337565b610c03565b7fdf8b4c520ffe197c5343c6f5aec59570151ef9a492f2c624fd45ddde6135ec4290565b6102926106a5565b34610257576106e13660046102ca565b6102c66103aa6106c9565b34610257576103636106ff366004610337565b610c27565b34610257576107143660046102ca565b610363610caa565b346102575761072c3660046102ca565b6102c66102b4610cb2565b34610257576102c66102b461074d366004610419565b90610cd0565b346102575761036361076636600461037b565b6110c1565b346102575761077b3660046102ca565b610363611148565b61029260006103d5565b610292610783565b34610257576107a53660046102ca565b6102c66103aa61078d565b90610555906103d5565b60006105736102929260016107b0565b34610257576102c66103156107e036600461037b565b6107ba565b9091606082840312610257576102926107fe848461032a565b936040610435826020870161036e565b34610257576103636108213660046107e5565b916111d3565b346102575761036361083a36600461037b565b611297565b61029260006006610482565b346102575761085b3660046102ca565b6102c661031561083f565b3461025757610363610879366004610419565b906112bb565b346102575761088f3660046102ca565b6102c66103156112c5565b34610257576103636108ad366004610337565b6112e9565b34610257576103636108c5366004610337565b611394565b6102929061139d565b610292906102d5565b61029290546108d3565b61029260076108dc565b156108f757565b60405162461bcd60e51b8152602060048201526024808201527f41757468436f6e74726f6c3a2043616c6c6572206973206e6f7420746865206f6044820152633bb732b960e11b6064820152608490fd5b0390fd5b61027c9061096061095b610cb2565b6108f0565b610995565b906001600160a01b03905b9181191691161790565b9061098a610292610991926105b0565b8254610965565b9055565b61027c90600761097a565b61027c9061094c565b90610555565b6102929081565b61029290546109af565b60016109d9610292926109d1600090565b5060046109a9565b016109b6565b610292906109eb6106a5565b610cd0565b9061027c91610a06610a01826109c0565b6113d7565b90610a10916113e2565b50565b9061027c916109f0565b90610a2c336102d5565b6102d5565b610a35826102d5565b03610a4357610a1091611464565b60405163334bd91960e11b8152600490fd5b610a6061095b610cb2565b61027c610ac1565b6102929060081c6105cc565b6102929054610a68565b15610a8557565b60405162461bcd60e51b815260206004820152601460248201527314185d5cd8589b194e881b9bdd081c185d5cd95960621b6044820152606490fd5b610ad3610ace600a610a74565b610a7e565b61027c610aff565b9061ff009060081b610970565b90610af861029261099192151590565b8254610adb565b61027c6000600a610ae8565b61027c610a55565b610292906109eb6104b4565b61029260096109b6565b610292600a610a74565b15610b3a57565b60405162461bcd60e51b815260206004820152602360248201527f41757468436f6e74726f6c3a2043616c6c6572206973206e6f7420612070617560448201526239b2b960e91b6064820152608490fd5b61027c90610ba1610b9a6104b4565b3390610cd0565b8015610bb6575b610bb190610b33565b610bc9565b50610bb1610bc2610cb2565b9050610ba8565b61027c90610bd56104b4565b610a1d565b61027c90610b8b565b61027c90610bf261095b610cb2565b61027c90610bfe6106a5565b610a13565b61027c90610be3565b61027c90610c1b61095b610cb2565b61027c90610bfe6104b4565b61027c90610c0c565b610c3b61095b610cb2565b61027c610c82565b15610c4a57565b60405162461bcd60e51b815260206004820152601060248201526f14185d5cd8589b194e881c185d5cd95960821b6044820152606490fd5b610c9b610c96610c92600a610a74565b1590565b610c43565b61027c61027c6001600a610ae8565b61027c610c30565b610292610b9a610783565b610292906105cc565b6102929054610cbd565b610292916000610ce5610ceb936109d1600090565b016105b9565b610cc6565b610d0190610cfc6114cb565b610e43565b61027c61150b565b634e487b7160e01b600052604160045260246000fd5b90601f01601f1916810190811067ffffffffffffffff821117610d4157604052565b610d09565b9050519061027c82610368565b906020828203126102575761029291610d46565b91602061027c929493610d82604082019660008301906102e1565b01906102e1565b6040513d6000823e3d90fd5b634e487b7160e01b600052601160045260246000fd5b81810292918115918404141715610dbe57565b610d95565b634e487b7160e01b600052601260045260246000fd5b8115610de3570490565b610dc3565b801515610268565b9050519061027c82610de8565b906020828203126102575761029291610df0565b91602061027c929493610e2c604082019660008301906102e1565b0152565b90815260408101929161027c9160200152565b610e8b6020610e5d610e58610e5860076108dc565b6105b0565b610e66306105b0565b90610e7060405190565b93849283918291636eb1769f60e11b83523360048401610d67565b03915afa908115611038576000916110a2575b50811161109057610eb5610e58610e5860076108dc565b6020610ec060405190565b9182906370a0823160e01b82528180610edc33600483016102ea565b03915afa90811561103857600091611061575b50811161104f57610f2a610f1d610f0f610f0960096109b6565b84610dab565b610f176103e2565b90610dd9565b610f17633b9aca006103d5565b90610f3560086108dc565b8290311061103d57610f6081610f4e610e5860076108dc565b610f5860086108dc565b90339061158b565b610f70610e58610e5860086108dc565b6020610f7b60405190565b91829063ec7ae61d60e01b825281600081610f9a893360048401610e11565b03925af1801561103857610fb49160009161100f57501590565b610ffe577feb53aa1346bf80833deed132609343df1b6cdb928bd868803c6aa09a8ebeb60b90610fe3336105b0565b92610ff9610ff060405190565b92839283610e30565b0390a2565b60405162975f3b60e41b8152600490fd5b610c92915060203d602011611031575b6110298183610d1f565b810190610dfd565b503d61101f565b610d89565b6040516364a7800d60e11b8152600490fd5b6040516316a5d17360e11b8152600490fd5b611083915060203d602011611089575b61107b8183610d1f565b810190610d53565b38610eef565b503d611071565b6040516382cf63f960e01b8152600490fd5b6110bb915060203d6020116110895761107b8183610d1f565b38610e9e565b61027c90610cf0565b156110d157565b60405162461bcd60e51b815260206004820152602360248201527f41757468436f6e74726f6c3a2043616c6c6572206973206e6f7420616e20616460448201526236b4b760e91b6064820152608490fd5b61113361112e336109df565b6110ca565b61027c61027c6111416106a5565b3390610a1d565b61027c611122565b1561115757565b60405162461bcd60e51b8152602060048201526013602482015272185b1c9958591e481a5b9a5d1a585b1a5e9959606a1b6044820152606490fd5b9060001990610970565b906111ac610292610991926103d5565b8254611192565b9060ff90610970565b906111cc61029261099192151590565b82546111b3565b61121b9261120d611214926111f36111ee610c92600a610cc6565b611150565b6112056111fe610783565b33906113e2565b50600761097a565b600861097a565b600961119c565b61027c6001600a6111bc565b61027c9061123661095b610cb2565b61124a676765c793fa10079d601b1b6103d5565b811061128557611280816103aa7f30ce0c4920695ae7b30f6304002cac26f3bffd83b1b84b281d4495ec83956c4993600961119c565b0390a1565b6040516373fd31f360e01b8152600490fd5b61027c90611227565b9061027c916112b1610a01826109c0565b90610a1091611464565b9061027c916112a0565b61029260086108dc565b61027c906112de61095b610cb2565b61027c90600861097a565b61027c906112cf565b61027c9061130161095b610cb2565b61131c565b6102d56102926102929290565b61029290611306565b611329610a276000611313565b611332826102d5565b1461138257611340816102d5565b611349336102d5565b146113705761027c9061114161135d610783565b916113688184610a13565b610bfe6106a5565b604051630a98f1f360e21b8152600490fd5b60405163d92e233d60e01b8152600490fd5b61027c906112f2565b637965db0b60e01b6001600160e01b03198216149081156113bc575090565b61029291506001600160e01b0319166301ffc9a760e01b1490565b61027c9033906115fd565b6113ef610c928383610cd0565b1561145d5761140f600161140a846000610ce58660046109a9565b6111bc565b61142961142361141d339390565b936105b0565b916105b0565b917f2f8788117e7eff1d82e926ec794901d17c78024a50270940304540a733656f0d61145460405190565b600090a4600190565b5050600090565b61146e8282610cd0565b1561145d57611488600061140a8482610ce58660046109a9565b61149661142361141d339390565b917ff6391f5c32d9c69d2a47ea670b442974b53935d1edc7fd64eb21e047a839171b61145460405190565b61029260026103d5565b6114d560056109b6565b6114dd6114c1565b9081146114ef5761027c90600561119c565b604051633ee5aeb560e01b8152600490fd5b61029260016103d5565b61027c611516611501565b600561119c565b604090610e2c61027c949695939661153d606084019860008501906102e1565b60208301906102e1565b1561154e57565b60405162461bcd60e51b8152602060048201526015602482015274151bdad95b881d1c985b9cd9995c8819985a5b1959605a1b6044820152606490fd5b90602092600061159e6115c296946105b0565b926115a860405190565b968795869485936323b872dd60e01b85526004850161151d565b03925af180156110385761027c916000916115de575b50611547565b6115f7915060203d602011611031576110298183610d1f565b386115d8565b9061160b610c928284610cd0565b611613575050565b61094861161f60405190565b63e2517d3f60e01b815292839260048401610e1156fea26469706673582212201cd43477e3c852550189a843d45be70929f89ee60a535d3900af36de9070aa8964736f6c63430008190033","linkReferences":{}},"methodIdentifiers":{"ADMIN_ROLE()":"75b238fc","DECIMALS()":"2e0f2625","DEFAULT_ADMIN_ROLE()":"a217fddf","PAUSE_ROLE()":"389ed267","addAdmin(address)":"70480275","addPauser(address)":"82dc1ec4","aliveImplementation(address)":"550d01a3","getPaused()":"6805b84b","getRoleAdmin(bytes32)":"248a9ca3","getStakingIndex()":"5074e0c8","getTreasuryAddress()":"e0024604","getWstonAddress()":"044bc779","grantRole(bytes32,address)":"2f2ff15d","hasRole(bytes32,address)":"91d14854","initialize(address,uint256,address)":"c350a1b5","isAdmin(address)":"24d7806c","isOwner()":"8f32d59b","isPauser(address)":"46fbf68e","pause()":"8456cb59","pauseProxy()":"63a8fd89","proxyImplementation(uint256)":"b911135f","removeAdmin()":"9a202d47","removePauser(address)":"6b2c0f55","renounceRole(bytes32,address)":"36568abe","revokeRole(bytes32,address)":"d547741f","selectorImplementation(bytes4)":"50d2a276","setTreasury(address)":"f0f44260","setWston(address)":"247ee388","supportsInterface(bytes4)":"01ffc9a7","swap(uint256)":"94b918de","ton()":"cc48b947","transferOwnership(address)":"f2fde38b","treasury()":"61d027b3","unpause()":"3f4ba83a","updateStakingIndex(uint256)":"caa78a86","wston()":"36b17e13"},"id":83}