{"abi":[{"type":"function","name":"DEFAULT_ADMIN_ROLE","inputs":[],"outputs":[{"name":"","type":"bytes32","internalType":"bytes32"}],"stateMutability":"view"},{"type":"function","name":"MINTER_ROLE","inputs":[],"outputs":[{"name":"","type":"bytes32","internalType":"bytes32"}],"stateMutability":"view"},{"type":"function","name":"addAdmin","inputs":[{"name":"account","type":"address","internalType":"address"}],"outputs":[],"stateMutability":"nonpayable"},{"type":"function","name":"aliveImplementation","inputs":[{"name":"","type":"address","internalType":"address"}],"outputs":[{"name":"","type":"bool","internalType":"bool"}],"stateMutability":"view"},{"type":"function","name":"candidate","inputs":[],"outputs":[{"name":"","type":"address","internalType":"address"}],"stateMutability":"view"},{"type":"function","name":"castVote","inputs":[{"name":"_agendaID","type":"uint256","internalType":"uint256"},{"name":"_vote","type":"uint256","internalType":"uint256"},{"name":"_comment","type":"string","internalType":"string"}],"outputs":[],"stateMutability":"nonpayable"},{"type":"function","name":"changeMember","inputs":[{"name":"_memberIndex","type":"uint256","internalType":"uint256"}],"outputs":[{"name":"","type":"bool","internalType":"bool"}],"stateMutability":"nonpayable"},{"type":"function","name":"changeOperator","inputs":[{"name":"_operator","type":"address","internalType":"address"}],"outputs":[],"stateMutability":"nonpayable"},{"type":"function","name":"claimActivityReward","inputs":[],"outputs":[],"stateMutability":"nonpayable"},{"type":"function","name":"committee","inputs":[],"outputs":[{"name":"","type":"address","internalType":"address"}],"stateMutability":"view"},{"type":"function","name":"currentFork","inputs":[],"outputs":[{"name":"","type":"uint256","internalType":"uint256"}],"stateMutability":"pure"},{"type":"function","name":"getRoleAdmin","inputs":[{"name":"role","type":"bytes32","internalType":"bytes32"}],"outputs":[{"name":"","type":"bytes32","internalType":"bytes32"}],"stateMutability":"view"},{"type":"function","name":"grantRole","inputs":[{"name":"role","type":"bytes32","internalType":"bytes32"},{"name":"account","type":"address","internalType":"address"}],"outputs":[],"stateMutability":"nonpayable"},{"type":"function","name":"hasRole","inputs":[{"name":"role","type":"bytes32","internalType":"bytes32"},{"name":"account","type":"address","internalType":"address"}],"outputs":[{"name":"","type":"bool","internalType":"bool"}],"stateMutability":"view"},{"type":"function","name":"initialize","inputs":[{"name":"_candidate","type":"address","internalType":"address"},{"name":"_isLayer2Candidate","type":"bool","internalType":"bool"},{"name":"_memo","type":"string","internalType":"string"},{"name":"_committee","type":"address","internalType":"address"},{"name":"_seigManager","type":"address","internalType":"address"}],"outputs":[],"stateMutability":"nonpayable"},{"type":"function","name":"isAdmin","inputs":[{"name":"account","type":"address","internalType":"address"}],"outputs":[{"name":"","type":"bool","internalType":"bool"}],"stateMutability":"view"},{"type":"function","name":"isCandidateContract","inputs":[],"outputs":[{"name":"","type":"bool","internalType":"bool"}],"stateMutability":"pure"},{"type":"function","name":"isCandidateFwContract","inputs":[],"outputs":[{"name":"","type":"bool","internalType":"bool"}],"stateMutability":"pure"},{"type":"function","name":"isLayer2","inputs":[],"outputs":[{"name":"","type":"bool","internalType":"bool"}],"stateMutability":"pure"},{"type":"function","name":"isLayer2Candidate","inputs":[],"outputs":[{"name":"","type":"bool","internalType":"bool"}],"stateMutability":"view"},{"type":"function","name":"isOwner","inputs":[],"outputs":[{"name":"","type":"bool","internalType":"bool"}],"stateMutability":"view"},{"type":"function","name":"lastEpoch","inputs":[{"name":"","type":"uint256","internalType":"uint256"}],"outputs":[{"name":"","type":"uint256","internalType":"uint256"}],"stateMutability":"pure"},{"type":"function","name":"memo","inputs":[],"outputs":[{"name":"","type":"string","internalType":"string"}],"stateMutability":"view"},{"type":"function","name":"operator","inputs":[],"outputs":[{"name":"","type":"address","internalType":"address"}],"stateMutability":"view"},{"type":"function","name":"pauseProxy","inputs":[],"outputs":[{"name":"","type":"bool","internalType":"bool"}],"stateMutability":"view"},{"type":"function","name":"proxyImplementation","inputs":[{"name":"","type":"uint256","internalType":"uint256"}],"outputs":[{"name":"","type":"address","internalType":"address"}],"stateMutability":"view"},{"type":"function","name":"removeAdmin","inputs":[{"name":"account","type":"address","internalType":"address"}],"outputs":[],"stateMutability":"nonpayable"},{"type":"function","name":"renounceOwnership","inputs":[],"outputs":[],"stateMutability":"nonpayable"},{"type":"function","name":"renounceRole","inputs":[{"name":"role","type":"bytes32","internalType":"bytes32"},{"name":"callerConfirmation","type":"address","internalType":"address"}],"outputs":[],"stateMutability":"nonpayable"},{"type":"function","name":"retireMember","inputs":[],"outputs":[{"name":"","type":"bool","internalType":"bool"}],"stateMutability":"nonpayable"},{"type":"function","name":"revokeRole","inputs":[{"name":"role","type":"bytes32","internalType":"bytes32"},{"name":"account","type":"address","internalType":"address"}],"outputs":[],"stateMutability":"nonpayable"},{"type":"function","name":"seigManager","inputs":[],"outputs":[{"name":"","type":"address","internalType":"address"}],"stateMutability":"view"},{"type":"function","name":"selectorImplementation","inputs":[{"name":"","type":"bytes4","internalType":"bytes4"}],"outputs":[{"name":"","type":"address","internalType":"address"}],"stateMutability":"view"},{"type":"function","name":"setCommittee","inputs":[{"name":"_committee","type":"address","internalType":"address"}],"outputs":[],"stateMutability":"nonpayable"},{"type":"function","name":"setMemo","inputs":[{"name":"_memo","type":"string","internalType":"string"}],"outputs":[],"stateMutability":"nonpayable"},{"type":"function","name":"setSeigManager","inputs":[{"name":"_seigManager","type":"address","internalType":"address"}],"outputs":[],"stateMutability":"nonpayable"},{"type":"function","name":"stakedOf","inputs":[{"name":"_account","type":"address","internalType":"address"}],"outputs":[{"name":"amount","type":"uint256","internalType":"uint256"}],"stateMutability":"view"},{"type":"function","name":"supportsInterface","inputs":[{"name":"interfaceId","type":"bytes4","internalType":"bytes4"}],"outputs":[{"name":"","type":"bool","internalType":"bool"}],"stateMutability":"view"},{"type":"function","name":"totalStaked","inputs":[],"outputs":[{"name":"totalsupply","type":"uint256","internalType":"uint256"}],"stateMutability":"view"},{"type":"function","name":"transferAdmin","inputs":[{"name":"newAdmin","type":"address","internalType":"address"}],"outputs":[],"stateMutability":"nonpayable"},{"type":"function","name":"transferOwnership","inputs":[{"name":"newAdmin","type":"address","internalType":"address"}],"outputs":[],"stateMutability":"nonpayable"},{"type":"function","name":"updateSeigniorage","inputs":[],"outputs":[{"name":"","type":"bool","internalType":"bool"}],"stateMutability":"nonpayable"},{"type":"event","name":"RoleAdminChanged","inputs":[{"name":"role","type":"bytes32","indexed":true,"internalType":"bytes32"},{"name":"previousAdminRole","type":"bytes32","indexed":true,"internalType":"bytes32"},{"name":"newAdminRole","type":"bytes32","indexed":true,"internalType":"bytes32"}],"anonymous":false},{"type":"event","name":"RoleGranted","inputs":[{"name":"role","type":"bytes32","indexed":true,"internalType":"bytes32"},{"name":"account","type":"address","indexed":true,"internalType":"address"},{"name":"sender","type":"address","indexed":true,"internalType":"address"}],"anonymous":false},{"type":"event","name":"RoleRevoked","inputs":[{"name":"role","type":"bytes32","indexed":true,"internalType":"bytes32"},{"name":"account","type":"address","indexed":true,"internalType":"address"},{"name":"sender","type":"address","indexed":true,"internalType":"address"}],"anonymous":false},{"type":"event","name":"TransferCoinage","inputs":[{"name":"from","type":"address","indexed":false,"internalType":"address"},{"name":"to","type":"address","indexed":false,"internalType":"address"},{"name":"amount","type":"uint256","indexed":false,"internalType":"uint256"}],"anonymous":false},{"type":"error","name":"AccessControlBadConfirmation","inputs":[]},{"type":"error","name":"AccessControlUnauthorizedAccount","inputs":[{"name":"account","type":"address","internalType":"address"},{"name":"neededRole","type":"bytes32","internalType":"bytes32"}]}],"bytecode":{"object":"0x608060405234601d575b600f6021565b61317561002d823961317590f35b6027565b60405190565b600080fdfe60806040526004361015610013575b61143b565b61001e6000356102ec565b806301ffc9a7146102e7575b806306394c9b146102e2575b806311e4c914146102dd575b806311f19e04146102d8575b80631785f53c146102d3575b8063183d2d1c146102ce575b8063248a9ca3146102c9575b806324d7806c146102c4575b806324f99b1e146102bf575b806325d60861146102ba575b80632f2ff15d146102b5575b806330070970146102b0575b806336568abe146102ab575b806350d2a276146102a6575b8063550d01a3146102a1575b8063570ca7351461029c575b806358c3b87014610297575b806363a8fd8914610292575b80636c8381f81461028d575b80636fb7f55814610288575b80637048027514610283575b8063715018a61461027e575b806375829def14610279575b8063764a785614610274575b80637657f20a1461026f575b806377ff21c41461026a575b8063817b1cd214610265575b8063882eed2c14610260575b80638bf7a3ab1461025b575b80638f32d59b14610256575b806391d1485414610251575b80639b6382681461024c575b8063a217fddf14610247575b8063acb4c06114610242575b8063af500ba31461023d575b8063b911135f14610238575b8063bddae40e14610233575b8063c4ef9c001461022e575b8063d539139314610229575b8063d547741f14610224575b8063d864e7401461021f575b63f2fde38b1461021a575b61000e565b611407565b6113d1565b61138d565b611357565b6112f2565b6112be565b611288565b611203565b6111cd565b611197565b611124565b6110de565b6110a8565b611074565b61103e565b611008565b610fd2565b610f9e565b610f68565b610f34565b610f00565b610ecc565b610e96565b610e51565b610e0c565b610dc8565b610bb9565b610b83565b610ab6565b6109e9565b6109b1565b6107f5565b610791565b610720565b610643565b61060d565b61056a565b610525565b6104ef565b6104b9565b61041f565b610383565b60e01c90565b60405190565b600080fd5b600080fd5b600080fd5b63ffffffff60e01b901690565b61031d81610307565b901415610327575b565b600080fd5b9050359061033982610314565b565b90602082820312610356575b6000610353920161032c565b90565b6102fd565b151590565b6103699061035b565b9052565b919061038190600060208501940190610360565b565b346103b4575b6103b061039f61039a36600461033b565b611484565b6103a76102f2565b9182918261036d565b0390f35b6102f8565b60018060a01b03901690565b6103ce906103b9565b90565b6103da816103c5565b9014156103e4575b565b600080fd5b905035906103f6826103d1565b565b90602082820312610413575b600061041092016103e9565b90565b6102fd565b6000900190565b34610447575b6104303660046103f8565b506104396102f2565b8061044381610418565b0390f35b6102f8565b90565b6104588161044c565b901415610462575b565b600080fd5b905035906104748261044f565b565b90602082820312610491575b600061048e9201610467565b90565b6102fd565b61049f9061044c565b9052565b91906104b790600060208501940190610496565b565b346104ea575b6104e66104d56104d0366004610476565b6114e1565b6104dd6102f2565b918291826104a3565b0390f35b6102f8565b34610520575b61051c61050b610506366004610476565b6118e8565b6105136102f2565b9182918261036d565b0390f35b6102f8565b34610554575b61053e6105393660046103f8565b6119d8565b6105466102f2565b8061055081610418565b0390f35b6102f8565b6000910312610565575b565b6102fd565b3461059b575b61057b366004610559565b6105976105866119e3565b61058e6102f2565b918291826104a3565b0390f35b6102f8565b90565b6105ac816105a0565b9014156105b6575b565b600080fd5b905035906105c8826105a3565b565b906020828203126105e5575b60006105e292016105bb565b90565b6102fd565b6105f3906105a0565b9052565b919061060b906000602085019401906105ea565b565b3461063e575b61063a6106296106243660046105ca565b611a46565b6106316102f2565b918291826105f7565b0390f35b6102f8565b34610674575b61067061065f61065a3660046103f8565b611a68565b6106676102f2565b9182918261036d565b0390f35b6102f8565b600080fd5b600080fd5b600080fd5b909182601f830112156106c6575b81359167ffffffffffffffff83116106c1575b6020900192600183028401116106bc575b565b610683565b61067e565b610679565b9160608383031261071b575b6106e48260008501610467565b926106f28360208301610467565b92604082013567ffffffffffffffff8111610716575b6107129201610688565b9091565b610302565b6102fd565b34610753575b61073d6107343660046106cb565b92919091611c87565b6107456102f2565b8061074f81610418565b0390f35b6102f8565b9060208282031261078c575b600082013567ffffffffffffffff8111610787575b6107839201610688565b9091565b610302565b6102fd565b346107c1575b6107ab6107a5366004610758565b90611eb8565b6107b36102f2565b806107bd81610418565b0390f35b6102f8565b91906040838203126107f0575b8060206107e66107ed93600087016105bb565b94016103e9565b90565b6102fd565b34610825575b61080f6108093660046107c6565b90611eee565b6108176102f2565b8061082181610418565b0390f35b6102f8565b6108338161035b565b90141561083d575b565b600080fd5b9050359061084f8261082a565b565b600080fd5b601f801991011690565b634e487b7160e01b600052604160045260246000fd5b9061088090610856565b810190811067ffffffffffffffff82111761089b575b604052565b610860565b906108b36108ac6102f2565b9283610876565b565b67ffffffffffffffff81116108d4575b6108d0602091610856565b0190565b610860565b90826000939282370152565b909291926108fa6108f5826108b5565b6108a0565b9381855281830111610917575b6109159160208501906108d9565b565b610851565b9080601f8301121561093b575b816020610938933591016108e5565b90565b610679565b919060a0838203126109ac575b61095a81600085016103e9565b926109688260208301610842565b92604082013567ffffffffffffffff81116109a7575b61098d846109a492850161091c565b93608061099d82606087016103e9565b94016103e9565b90565b610302565b6102fd565b346109e4575b6109ce6109c5366004610940565b93929092612156565b6109d66102f2565b806109e081610418565b0390f35b6102f8565b34610a19575b610a036109fd3660046107c6565b906121fe565b610a0b6102f2565b80610a1581610418565b0390f35b6102f8565b610a2790610307565b90565b90610a3490610a1e565b600052602052604060002090565b1c90565b60018060a01b03901690565b610a62906008610a679302610a42565b610a46565b90565b90610a759154610a52565b90565b6000610a8b610a90926003506003610a2a565b610a6a565b90565b610a9c906103c5565b9052565b9190610ab490600060208501940190610a93565b565b34610ae7575b610ae3610ad2610acd36600461033b565b610a78565b610ada6102f2565b91829182610aa0565b0390f35b6102f8565b90565b610b03610afe610b08926103b9565b610aec565b6103b9565b90565b610b1490610aef565b90565b610b2090610b0b565b90565b90610b2d90610b17565b600052602052604060002090565b60ff901690565b610b52906008610b579302610a42565b610b3b565b90565b90610b659154610b42565b90565b6000610b7b610b80926002506002610b23565b610b5a565b90565b34610bb4575b610bb0610b9f610b9a3660046103f8565b610b68565b610ba76102f2565b9182918261036d565b0390f35b6102f8565b34610bea575b610bca366004610559565b610be6610bd5612253565b610bdd6102f2565b91829182610aa0565b0390f35b6102f8565b634e487b7160e01b600052600060045260246000fd5b634e487b7160e01b600052602260045260246000fd5b9060016002830492168015610c3d575b602083109014610c38575b565b610c05565b91607f901691610c2b565b60209181520190565b8050600052602060002090565b9060009291805490610c79610c7283610c1b565b8094610c48565b91600181169081600014610cd4575b50600114610c96575b505050565b610ca39192939450610c51565b916000925b818410610cbc575b50500190388080610c91565b60018160209295939554848601520191019290610ca8565b92949550505060ff19901682521515602002900190388080610c91565b90610cfb91610c5e565b90565b90610d1e610d1792610d0e6102f2565b93848092610cf1565b0383610876565b565b9060009011610d36575b610d3390610cfe565b90565b610bef565b610d4760006007610d20565b90565b5190565b60209181520190565b60005b838110610d6c575b5050906000910152565b806020918301518185015201610d5a565b610d9c610da5602093610daa93610d9381610d4a565b93848093610d4e565b95869101610d57565b610856565b900190565b610dc59160208201916000818403910152610d7d565b90565b34610df9575b610dd9366004610559565b610df5610de4610d3b565b610dec6102f2565b91829182610daf565b0390f35b6102f8565b610e09600080610b5a565b90565b34610e3d575b610e1d366004610559565b610e39610e28610dfe565b610e306102f2565b9182918261036d565b0390f35b6102f8565b610e4e60016006610a6a565b90565b34610e82575b610e62366004610559565b610e7e610e6d610e42565b610e756102f2565b91829182610aa0565b0390f35b6102f8565b610e9360006009610a6a565b90565b34610ec7575b610ea7366004610559565b610ec3610eb2610e87565b610eba6102f2565b91829182610aa0565b0390f35b6102f8565b34610efb575b610ee5610ee03660046103f8565b612298565b610eed6102f2565b80610ef781610418565b0390f35b6102f8565b34610f2f575b610f11366004610559565b610f196122d2565b610f216102f2565b80610f2b81610418565b0390f35b6102f8565b34610f63575b610f4d610f483660046103f8565b612462565b610f556102f2565b80610f5f81610418565b0390f35b6102f8565b34610f99575b610f79366004610559565b610f95610f8461259b565b610f8c6102f2565b9182918261036d565b0390f35b6102f8565b34610fcd575b610fb7610fb23660046103f8565b6126bc565b610fbf6102f2565b80610fc981610418565b0390f35b6102f8565b34611003575b610fe3366004610559565b610fff610fee6126c7565b610ff66102f2565b9182918261036d565b0390f35b6102f8565b34611039575b611019366004610559565b611035611024612710565b61102c6102f2565b918291826104a3565b0390f35b6102f8565b3461106f575b61104f366004610559565b61106b61105a61279e565b6110626102f2565b9182918261036d565b0390f35b6102f8565b346110a3575b611085366004610559565b61108d6129f0565b6110956102f2565b8061109f81610418565b0390f35b6102f8565b346110d9575b6110b9366004610559565b6110d56110c46129fa565b6110cc6102f2565b9182918261036d565b0390f35b6102f8565b34611110575b61110c6110fb6110f53660046107c6565b90612a18565b6111036102f2565b9182918261036d565b0390f35b6102f8565b61112160006006610b5a565b90565b34611155575b611135366004610559565b611151611140611115565b6111486102f2565b9182918261036d565b0390f35b6102f8565b90565b60001b90565b61117761117261117c9261115a565b61115d565b6105a0565b90565b6111896000611163565b90565b61119461117f565b90565b346111c8575b6111a8366004610559565b6111c46111b361118c565b6111bb6102f2565b918291826105f7565b0390f35b6102f8565b346111fe575b6111de366004610559565b6111fa6111e9612a43565b6111f16102f2565b9182918261036d565b0390f35b6102f8565b34611234575b61123061121f61121a3660046103f8565b612a51565b6112276102f2565b918291826104a3565b0390f35b6102f8565b61124d6112486112529261044c565b610aec565b61044c565b90565b9061125f90611239565b600052602052604060002090565b6000611280611285926001506001611255565b610a6a565b90565b346112b9575b6112b56112a461129f366004610476565b61126d565b6112ac6102f2565b91829182610aa0565b0390f35b6102f8565b346112ed575b6112d76112d23660046103f8565b612b2f565b6112df6102f2565b806112e981610418565b0390f35b6102f8565b34611323575b611303366004610559565b61131f61130e612cc4565b6113166102f2565b9182918261036d565b0390f35b6102f8565b7ff0887ba65ee2024ea881d91b74c2450ef19e1557f03bed3ea9f16b037cbe2dc990565b611354611328565b90565b34611388575b611368366004610559565b61138461137361134c565b61137b6102f2565b918291826105f7565b0390f35b6102f8565b346113bd575b6113a76113a13660046107c6565b90612d03565b6113af6102f2565b806113b981610418565b0390f35b6102f8565b6113ce60006008610a6a565b90565b34611402575b6113e2366004610559565b6113fe6113ed6113c2565b6113f56102f2565b91829182610aa0565b0390f35b6102f8565b34611436575b61142061141b3660046103f8565b612d36565b6114286102f2565b8061143281610418565b0390f35b6102f8565b600080fd5b600090565b9061144f90610a1e565b600052602052604060002090565b60001c90565b61146f6114749161145d565b610b3b565b90565b6114819054611463565b90565b61148c611440565b506114a061149b826005611445565b611477565b908191156114ad575b5090565b6114b79150612d41565b386114a9565b600090565b90565b6114d96114d46114de926114c2565b610aec565b61044c565b90565b506114ea6114bd565b506114f560016114c5565b90565b60081c90565b61150a61150f916114f8565b610a46565b90565b61151c90546114fe565b90565b60207f646964617465206f66207468697320636f6e7472616374000000000000000000917f43616e6469646174653a2073656e646572206973206e6f74207468652063616e60008201520152565b61157a6037604092610d4e565b6115838161151f565b0190565b61159d906020810190600081830391015261156d565b90565b156115a8575b565b6115b06102f2565b62461bcd60e51b8152806115c660048201611587565b0390fd5b6115d390610aef565b90565b6115df906115ca565b90565b6115eb90610b0b565b90565b600080fd5b60e01b90565b90505190611606826103d1565b565b90602082820312611623575b600061162092016115f9565b90565b6102fd565b6116306102f2565b3d6000823e3d90fd5b60207f7261746f72206f66207468697320636f6e747261637400000000000000000000917f43616e6469646174653a2073656e646572206973206e6f7420746865206f706560008201520152565b6116946036604092610d4e565b61169d81611639565b0190565b6116b79060208101906000818303910152611687565b90565b156116c2575b565b6116ca6102f2565b62461bcd60e51b8152806116e0600482016116a1565b0390fd5b9081506116f16006611477565b6000146117af575b61171361170e6117096006611512565b6115d6565b6115e2565b91602061171e6102f2565b809461172d63570ca7356115f3565b8252818061173d60048201610418565b03915afa9283156117aa575b611778936117729160009161177b575b5061176c611766336103c5565b916103c5565b146116ba565b5b611851565b90565b61179d915060203d6020116117a3575b6117958183610876565b810190611608565b38611759565b503d61178b565b611628565b611778916117d86117c06006611512565b6117d26117cc336103c5565b916103c5565b146115a0565b611773565b6117e96117ee9161145d565b610a46565b90565b6117fb90546117dd565b90565b61180790610aef565b90565b611813906117fe565b90565b61181f90610b0b565b90565b9050519061182f8261082a565b565b9060208282031261184c575b60006118499201611822565b90565b6102fd565b61189c6000926020925061187561187061186b60086117f1565b61180a565b611816565b9061187e6102f2565b9485809481936118916311f19e046115f3565b8352600483016104a3565b03925af19081156118e3575b6000916118b4575b5090565b6118d6915060203d6020116118dc575b6118ce8183610876565b810190611831565b386118b0565b503d6118c4565b611628565b6118fb906118f4611440565b80506116e4565b90565b60207f696e000000000000000000000000000000000000000000000000000000000000917f41636365737369626c653a2043616c6c6572206973206e6f7420616e2061646d60008201520152565b6119596022604092610d4e565b611962816118fe565b0190565b61197c906020810190600081830391015261194c565b90565b15611987575b565b61198f6102f2565b62461bcd60e51b8152806119a560048201611966565b0390fd5b6119c3906119be6119b933611a68565b61197f565b6119c5565b565b6119d6906119d161117f565b6121fe565b565b6119e1906119a9565b565b6119eb6114bd565b506119f660016114c5565b90565b600090565b611a07906105a0565b90565b90611a14906119fe565b600052602052604060002090565b90565b611a31611a369161145d565b611a22565b90565b611a439054611a25565b90565b6001611a5f611a6592611a576119f9565b506004611a0a565b01611a39565b90565b611a8290611a74611440565b50611a7d61117f565b612a18565b90565b929190611a926006611477565b600014611b4f575b611ab4611aaf611aaa6006611512565b6115d6565b6115e2565b936020611abf6102f2565b8096611ace63570ca7356115f3565b82528180611ade60048201610418565b03915afa948515611b4a575b611b1995611b1391600091611b1b575b50611b0d611b07336103c5565b916103c5565b146116ba565b5b611be9565b565b611b3d915060203d602011611b43575b611b358183610876565b810190611608565b38611afa565b503d611b2b565b611628565b611b1993611b78611b606006611512565b611b72611b6c336103c5565b916103c5565b146115a0565b611b14565b6000910312611b89575b565b6102fd565b9190611ba881611ba181611bad95610d4e565b80956108d9565b610856565b900190565b611bd9611be69593949294611bcf60608401966000850190610496565b6020830190610496565b6040818503910152611b8e565b90565b9190611c05611c00611bfb60086117f1565b61180a565b611816565b90813b15611c82575b60008094611c3c611c1d6102f2565b97889687958694611c316324f99b1e6115f3565b865260048601611bb2565b03925af18015611c7d575b611c4f575b50565b611c709060003d600011611c76575b611c688183610876565b810190611b7d565b38611c4c565b503d611c5e565b611628565b6115ee565b90611c93939291611a85565b565b90611cb091611cab611ca633611a68565b61197f565b611eaa565b565b5090565b601f602091010490565b1b90565b91906008611ce0910291611cda60001984611cc0565b92611cc0565b91811990169116901790565b90565b9190611d05611d00611d0d93611239565b611cec565b908354611cc4565b9055565b611d2391611d1d6114bd565b91611cef565b565b5b818110611d32575b5050565b80611d406000600193611d11565b01611d26565b9190601f8111611d56575b505050565b611d62611d8893610c51565b906020611d6e84611cb6565b83019310611d90575b611d8090611cb6565b900190611d25565b388080611d51565b9150611d8081929050611d77565b90611daf9060001990600802610a42565b19901690565b81611dbf91611d9e565b90600202901790565b91611dd39082611cb2565b9067ffffffffffffffff8211611e98575b611df882611df28554610c1b565b85611d46565b600090601f8311600114611e2e575b918091611e1d93600092611e22575b5050611db5565b90555b565b90915001353880611e16565b90601f19831691611e3e85610c51565b92825b818110611e80575b509160029391856001969410611e66575b50505002019055611e20565b611e7691601f8516910135611d9e565b9055388080611e5a565b92936020600181928786013581550195019301611e41565b610860565b90611ea89291611dc8565b565b90611eb6916007611e9d565b565b90611ec291611c95565b565b90611edf91611eda611ed582611a46565b612d56565b611ee1565b565b90611eeb91612d6a565b50565b90611ef891611ec4565b565b611f0e611f09611f139261115a565b610aec565b6103b9565b90565b611f1f90611efa565b90565b60007f43616e6469646174653a20696e707574206973207a65726f0000000000000000910152565b611f576018602092610d4e565b611f6081611f22565b0190565b611f7a9060208101906000818303910152611f4a565b90565b15611f85575b565b611f8d6102f2565b62461bcd60e51b815280611fa360048201611f64565b0390fd5b60081b90565b90611fc0610100600160a81b0391611fa7565b91811990169116901790565b90565b90611fe4611fdf611feb92610b17565b611fcc565b8254611fad565b9055565b90611ffb60ff9161115d565b91811990169116901790565b6120109061035b565b90565b90565b9061202b61202661203292612007565b612013565b8254611fef565b9055565b9061204760018060a01b039161115d565b91811990169116901790565b9061206861206361206f92610b17565b611fcc565b8254612036565b9055565b9061207d81610d4a565b9067ffffffffffffffff8211612145575b6120a28261209c8554610c1b565b85611d46565b600050602090601f83116001146120db575b9180916120ca936000926120cf575b5050611db5565b90555b565b909150015138806120c3565b601f198316916120ea85610c51565b9260005b81811061212d575b509160029391856001969410612113575b505050020190556120cd565b612123910151601f841690611d9e565b9055388080612107565b919360206001819287870151815501950192016120ee565b610860565b9061215491612073565b565b6121be92936121b06121c596936121a96121b7946121a26121776000611f16565b612180816103c5565b612189846103c5565b1415908191156121e2575b8191156121c7575b50611f7d565b6006611fcf565b6006612016565b6008612053565b6009612053565b600761214a565b565b6121d191506103c5565b6121da896103c5565b14153861219c565b90506121ed816103c5565b6121f6886103c5565b141590612194565b9061220f61220a612e15565b6103c5565b612218826103c5565b141561222b575b61222891612e22565b50565b6122336102f2565b63334bd91960e11b81528061224a60048201610418565b0390fd5b600090565b61225b61224e565b506122666006611512565b90565b6122839061227e61227933611a68565b61197f565b612285565b565b6122969061229161117f565b611eee565b565b6122a190612269565b565b6122b46122af33611a68565b61197f565b6122bc6122be565b565b6122d06122c961117f565b33906121fe565b565b6122da6122a3565b565b6122f6906122f16122ec33611a68565b61197f565b612402565b565b60007f41636365737369626c653a207a65726f20616464726573730000000000000000910152565b61232d6018602092610d4e565b612336816122f8565b0190565b6123509060208101906000818303910152612320565b90565b1561235b575b565b6123636102f2565b62461bcd60e51b8152806123796004820161233a565b0390fd5b60007f41636365737369626c653a2073616d652061646d696e00000000000000000000910152565b6123b26016602092610d4e565b6123bb8161237d565b0190565b6123d590602081019060008183039101526123a5565b90565b156123e0575b565b6123e86102f2565b62461bcd60e51b8152806123fe600482016123bf565b0390fd5b6124609061242b61241b6124166000611f16565b6103c5565b612424836103c5565b1415612353565b612447612437826103c5565b612440336103c5565b14156123d8565b61245961245261117f565b9182611eee565b33906121fe565b565b61246b906122dc565b565b60007f43616e6469646174653a20536569674d616e61676572206973207a65726f0000910152565b6124a2601e602092610d4e565b6124ab8161246d565b0190565b6124c59060208101906000818303910152612495565b90565b156124d0575b565b6124d86102f2565b62461bcd60e51b8152806124ee600482016124af565b0390fd5b6124fb90610aef565b90565b612507906124f2565b90565b61251390610b0b565b90565b60007f6661696c20757064617465536569676e696f7261676500000000000000000000910152565b61254b6016602092610d4e565b61255481612516565b0190565b61256e906020810190600081830391015261253e565b90565b15612579575b565b6125816102f2565b62461bcd60e51b81528061259760048201612558565b0390fd5b6125a3611440565b506125d36125b160096117f1565b6125cc6125c66125c16000611f16565b6103c5565b916103c5565b14156124c8565b6125ed6125e86125e360096117f1565b6124fe565b61250a565b60206125f76102f2565b809261260663764a78566115f3565b82528160008161261860048201610418565b03925af18015612669575b6126359160009161263a575b50612571565b600190565b61265c915060203d602011612662575b6126548183610876565b810190611831565b3861262f565b503d61264a565b611628565b6126889061268361267e33611a68565b61197f565b61268a565b565b6126ba906126b36126a361269e6000611f16565b6103c5565b6126ac836103c5565b1415611f7d565b6009612053565b565b6126c59061266e565b565b6126cf611440565b50600190565b6126de90610b0b565b90565b905051906126ee8261044f565b565b9060208282031261270b575b600061270892016126e1565b90565b6102fd565b6127186114bd565b50612729612724612f71565b6126d5565b60206127336102f2565b80926127426318160ddd6115f3565b8252818061275260048201610418565b03915afa908115612799575b60009161276a575b5090565b61278c915060203d602011612792575b6127848183610876565b8101906126f0565b38612766565b503d61277a565b611628565b6127a6611440565b50600190565b6127b66006611477565b600014612870575b6127d86127d36127ce6006611512565b6115d6565b6115e2565b60206127e26102f2565b80926127f163570ca7356115f3565b8252818061280160048201610418565b03915afa801561286b575b6128319160009161283c575b5061282b612825336103c5565b916103c5565b146116ba565b5b61283a61289a565b565b61285e915060203d602011612864575b6128568183610876565b810190611608565b38612818565b503d61284c565b611628565b61289561287d6006611512565b61288f612889336103c5565b916103c5565b146115a0565b612832565b6000506128a561224e565b506128b06006611477565b6000146129e1575b6128d26128cd6128c86006611512565b6115d6565b6115e2565b60206128dc6102f2565b80926128eb63570ca7356115f3565b825281806128fb60048201610418565b03915afa9081156129dc575b6000916129ad575b505b61292b61292661292160086117f1565b61180a565b611816565b803b156129a8575b6129626000929183926129446102f2565b948580948193612957636becff276115f3565b835260048301610aa0565b03925af180156129a3575b612975575b50565b6129969060003d60001161299c575b61298e8183610876565b810190611b7d565b38612972565b503d612984565b611628565b6115ee565b6129cf915060203d6020116129d5575b6129c78183610876565b810190611608565b3861290f565b503d6129bd565b611628565b6129eb6006611512565b612911565b6129f86127ac565b565b612a02611440565b50612a15612a0e61117f565b3390612a18565b90565b612a40916000612a35612a3b93612a2d611440565b506004611a0a565b01610b23565b611477565b90565b612a4b611440565b50600190565b6020612a9591612a5f6114bd565b50612a70612a6b612f71565b6126d5565b612a786102f2565b8080958194612a8a6370a082316115f3565b835260048301610aa0565b03915afa908115612adc575b600091612aad575b5090565b612acf915060203d602011612ad5575b612ac78183610876565b8101906126f0565b38612aa9565b503d612abd565b611628565b612afb90612af6612af133611a68565b61197f565b612afd565b565b612b2d90612b26612b16612b116000611f16565b6103c5565b612b1f836103c5565b1415611f7d565b6008612053565b565b612b3890612ae1565b565b8050612b466006611477565b600014612c04575b612b68612b63612b5e6006611512565b6115d6565b6115e2565b906020612b736102f2565b8093612b8263570ca7356115f3565b82528180612b9260048201610418565b03915afa918215612bff575b612bcd92612bc791600091612bd0575b50612bc1612bbb336103c5565b916103c5565b146116ba565b5b612c32565b90565b612bf2915060203d602011612bf8575b612bea8183610876565b810190611608565b38612bae565b503d612be0565b611628565b612bcd90612c2d612c156006611512565b612c27612c21336103c5565b916103c5565b146115a0565b612bc8565b50612c4d612c48612c4360086117f1565b61180a565b611816565b6020612c576102f2565b8092612c6663c4ef9c006115f3565b825281600081612c7860048201610418565b03925af1908115612cbf575b600091612c90575b5090565b612cb2915060203d602011612cb8575b612caa8183610876565b810190611831565b38612c8c565b503d612ca0565b611628565b612cd6612ccf611440565b8050612b3a565b90565b90612cf491612cef612cea82611a46565b612d56565b612cf6565b565b90612d0091612e22565b50565b90612d0d91612cd9565b565b612d2990612d24612d1f33611a68565b61197f565b612d2b565b565b612d3490612462565b565b612d3f90612d0f565b565b612d5390612d4d611440565b50613073565b90565b612d6890612d62612e15565b906130d7565b565b612d72611440565b50612d86612d808383612a18565b1561035b565b600014612e0e575b612daf6001612daa846000612da4866004611a0a565b01610b23565b612016565b612dd2612dcc612dc6612dc0612e15565b936119fe565b93610b17565b91610b17565b917f2f8788117e7eff1d82e926ec794901d17c78024a50270940304540a733656f0d612dfc6102f2565b80612e0681610418565b0390a4600190565b5050600090565b612e1d61224e565b503390565b612e2a611440565b50612e358282612a18565b600014612ebc575b612e5d6000612e588482612e52866004611a0a565b01610b23565b612016565b612e80612e7a612e74612e6e612e15565b936119fe565b93610b17565b91610b17565b917ff6391f5c32d9c69d2a47ea670b442974b53935d1edc7fd64eb21e047a839171b612eaa6102f2565b80612eb481610418565b0390a4600190565b5050600090565b600090565b612ed190610b0b565b90565b60007f43616e6469646174653a20636f696e616765206973207a65726f000000000000910152565b612f09601a602092610d4e565b612f1281612ed4565b0190565b612f2c9060208101906000818303910152612efc565b90565b15612f37575b565b612f3f6102f2565b62461bcd60e51b815280612f5560048201612f16565b0390fd5b612f6290610aef565b90565b612f6e90612f59565b90565b612f79612ec3565b50600050612f8561224e565b50612f906006611477565b600014613060575b61300c6020612fa76006611512565b5b612fcd612fbd612fb86000611f16565b6103c5565b612fc6836103c5565b1415612f2f565b612fe7612fe2612fdd60096117f1565b6124fe565b61250a565b612fef6102f2565b8080958194613001634c063c196115f3565b835260048301610aa0565b03915afa801561305b575b6130299160009161302c575b50612f65565b90565b61304e915060203d602011613054575b6130468183610876565b810190611608565b38613023565b503d61303c565b611628565b61300c602061306e30612ec8565b612fa8565b61307b611440565b5061308c637965db0b60e01b610307565b61309582610307565b14908191156130a3575b5090565b6130ad9150613119565b3861309f565b9160206130d59294936130ce60408201966000830190610a93565b01906105ea565b565b906130eb6130e58284612a18565b1561035b565b6130f4575b5050565b6131156130ff6102f2565b92839263e2517d3f60e01b8452600484016130b3565b0390fd5b613121611440565b5061313b6131356301ffc9a760e01b610307565b91610307565b149056fea2646970667358221220c5caf9efbcaac236896fd9c9e0cbfac5cf926c07ca76a10ec91b51ae27e78f2d64736f6c63430008190033","linkReferences":{}},"methodIdentifiers":{"DEFAULT_ADMIN_ROLE()":"a217fddf","MINTER_ROLE()":"d5391393","addAdmin(address)":"70480275","aliveImplementation(address)":"550d01a3","candidate()":"6c8381f8","castVote(uint256,uint256,string)":"24f99b1e","changeMember(uint256)":"11f19e04","changeOperator(address)":"06394c9b","claimActivityReward()":"8bf7a3ab","committee()":"d864e740","currentFork()":"183d2d1c","getRoleAdmin(bytes32)":"248a9ca3","grantRole(bytes32,address)":"2f2ff15d","hasRole(bytes32,address)":"91d14854","initialize(address,bool,string,address,address)":"30070970","isAdmin(address)":"24d7806c","isCandidateContract()":"77ff21c4","isCandidateFwContract()":"acb4c061","isLayer2()":"882eed2c","isLayer2Candidate()":"9b638268","isOwner()":"8f32d59b","lastEpoch(uint256)":"11e4c914","memo()":"58c3b870","operator()":"570ca735","pauseProxy()":"63a8fd89","proxyImplementation(uint256)":"b911135f","removeAdmin(address)":"1785f53c","renounceOwnership()":"715018a6","renounceRole(bytes32,address)":"36568abe","retireMember()":"c4ef9c00","revokeRole(bytes32,address)":"d547741f","seigManager()":"6fb7f558","selectorImplementation(bytes4)":"50d2a276","setCommittee(address)":"bddae40e","setMemo(string)":"25d60861","setSeigManager(address)":"7657f20a","stakedOf(address)":"af500ba3","supportsInterface(bytes4)":"01ffc9a7","totalStaked()":"817b1cd2","transferAdmin(address)":"75829def","transferOwnership(address)":"f2fde38b","updateSeigniorage()":"764a7856"},"id":61}