{"abi":[{"type":"constructor","inputs":[],"stateMutability":"nonpayable"},{"type":"function","name":"DECIMALS","inputs":[],"outputs":[{"name":"","type":"uint256","internalType":"uint256"}],"stateMutability":"view"},{"type":"function","name":"aliveImplementation","inputs":[{"name":"","type":"address","internalType":"address"}],"outputs":[{"name":"","type":"bool","internalType":"bool"}],"stateMutability":"view"},{"type":"function","name":"allowance","inputs":[{"name":"owner","type":"address","internalType":"address"},{"name":"spender","type":"address","internalType":"address"}],"outputs":[{"name":"","type":"uint256","internalType":"uint256"}],"stateMutability":"view"},{"type":"function","name":"approve","inputs":[{"name":"spender","type":"address","internalType":"address"},{"name":"value","type":"uint256","internalType":"uint256"}],"outputs":[{"name":"","type":"bool","internalType":"bool"}],"stateMutability":"nonpayable"},{"type":"function","name":"balanceOf","inputs":[{"name":"account","type":"address","internalType":"address"}],"outputs":[{"name":"","type":"uint256","internalType":"uint256"}],"stateMutability":"view"},{"type":"function","name":"claimWithdrawalIndex","inputs":[{"name":"_index","type":"uint256","internalType":"uint256"},{"name":"_token","type":"bool","internalType":"bool"}],"outputs":[],"stateMutability":"nonpayable"},{"type":"function","name":"claimWithdrawalTotal","inputs":[{"name":"_token","type":"bool","internalType":"bool"}],"outputs":[],"stateMutability":"nonpayable"},{"type":"function","name":"counter","inputs":[],"outputs":[{"name":"","type":"uint256","internalType":"uint256"}],"stateMutability":"view"},{"type":"function","name":"decimals","inputs":[],"outputs":[{"name":"","type":"uint8","internalType":"uint8"}],"stateMutability":"view"},{"type":"function","name":"depositWTONAndGetWSTON","inputs":[{"name":"_amount","type":"uint256","internalType":"uint256"},{"name":"_token","type":"bool","internalType":"bool"}],"outputs":[],"stateMutability":"nonpayable"},{"type":"function","name":"depositWTONAndGetWSTONTo","inputs":[{"name":"_to","type":"address","internalType":"address"},{"name":"_amount","type":"uint256","internalType":"uint256"},{"name":"_token","type":"bool","internalType":"bool"}],"outputs":[],"stateMutability":"nonpayable"},{"type":"function","name":"getCounter","inputs":[],"outputs":[{"name":"","type":"uint256","internalType":"uint256"}],"stateMutability":"view"},{"type":"function","name":"getLastWithdrawalRequest","inputs":[{"name":"requester","type":"address","internalType":"address"}],"outputs":[{"name":"","type":"tuple","internalType":"struct L1WrappedStakedTONStorage.WithdrawalRequest","components":[{"name":"withdrawableBlockNumber","type":"uint256","internalType":"uint256"},{"name":"amount","type":"uint256","internalType":"uint256"},{"name":"processed","type":"bool","internalType":"bool"}]}],"stateMutability":"view"},{"type":"function","name":"getTotalClaimableAmountByUser","inputs":[{"name":"user","type":"address","internalType":"address"}],"outputs":[{"name":"totalClaimableAmount","type":"uint256","internalType":"uint256"}],"stateMutability":"view"},{"type":"function","name":"getWithdrawalRequest","inputs":[{"name":"requester","type":"address","internalType":"address"},{"name":"index","type":"uint256","internalType":"uint256"}],"outputs":[{"name":"","type":"tuple","internalType":"struct L1WrappedStakedTONStorage.WithdrawalRequest","components":[{"name":"withdrawableBlockNumber","type":"uint256","internalType":"uint256"},{"name":"amount","type":"uint256","internalType":"uint256"},{"name":"processed","type":"bool","internalType":"bool"}]}],"stateMutability":"view"},{"type":"function","name":"incrementCounter","inputs":[],"outputs":[],"stateMutability":"nonpayable"},{"type":"function","name":"initialize","inputs":[{"name":"_layer2Address","type":"address","internalType":"address"},{"name":"_wton","type":"address","internalType":"address"},{"name":"_ton","type":"address","internalType":"address"},{"name":"_depositManager","type":"address","internalType":"address"},{"name":"_seigManager","type":"address","internalType":"address"},{"name":"_owner","type":"address","internalType":"address"},{"name":"_name","type":"string","internalType":"string"},{"name":"_symbol","type":"string","internalType":"string"}],"outputs":[],"stateMutability":"nonpayable"},{"type":"function","name":"name","inputs":[],"outputs":[{"name":"","type":"string","internalType":"string"}],"stateMutability":"view"},{"type":"function","name":"onApprove","inputs":[{"name":"_to","type":"address","internalType":"address"},{"name":"_amount","type":"uint256","internalType":"uint256"},{"name":"data","type":"bytes","internalType":"bytes"}],"outputs":[{"name":"","type":"bool","internalType":"bool"}],"stateMutability":"nonpayable"},{"type":"function","name":"owner","inputs":[],"outputs":[{"name":"","type":"address","internalType":"address"}],"stateMutability":"view"},{"type":"function","name":"pause","inputs":[],"outputs":[],"stateMutability":"nonpayable"},{"type":"function","name":"pauseProxy","inputs":[],"outputs":[{"name":"","type":"bool","internalType":"bool"}],"stateMutability":"view"},{"type":"function","name":"proxyImplementation","inputs":[{"name":"","type":"uint256","internalType":"uint256"}],"outputs":[{"name":"","type":"address","internalType":"address"}],"stateMutability":"view"},{"type":"function","name":"renounceOwnership","inputs":[],"outputs":[],"stateMutability":"nonpayable"},{"type":"function","name":"requestWithdrawal","inputs":[{"name":"_wstonAmount","type":"uint256","internalType":"uint256"}],"outputs":[],"stateMutability":"nonpayable"},{"type":"function","name":"selectorImplementation","inputs":[{"name":"","type":"bytes4","internalType":"bytes4"}],"outputs":[{"name":"","type":"address","internalType":"address"}],"stateMutability":"view"},{"type":"function","name":"setDepositManagerAddress","inputs":[{"name":"_depositManager","type":"address","internalType":"address"}],"outputs":[],"stateMutability":"nonpayable"},{"type":"function","name":"setSeigManagerAddress","inputs":[{"name":"_seigManager","type":"address","internalType":"address"}],"outputs":[],"stateMutability":"nonpayable"},{"type":"function","name":"stakeOf","inputs":[],"outputs":[{"name":"","type":"uint256","internalType":"uint256"}],"stateMutability":"view"},{"type":"function","name":"symbol","inputs":[],"outputs":[{"name":"","type":"string","internalType":"string"}],"stateMutability":"view"},{"type":"function","name":"totalSupply","inputs":[],"outputs":[{"name":"","type":"uint256","internalType":"uint256"}],"stateMutability":"view"},{"type":"function","name":"transfer","inputs":[{"name":"to","type":"address","internalType":"address"},{"name":"value","type":"uint256","internalType":"uint256"}],"outputs":[{"name":"","type":"bool","internalType":"bool"}],"stateMutability":"nonpayable"},{"type":"function","name":"transferFrom","inputs":[{"name":"from","type":"address","internalType":"address"},{"name":"to","type":"address","internalType":"address"},{"name":"value","type":"uint256","internalType":"uint256"}],"outputs":[{"name":"","type":"bool","internalType":"bool"}],"stateMutability":"nonpayable"},{"type":"function","name":"transferOwnership","inputs":[{"name":"newOwner","type":"address","internalType":"address"}],"outputs":[],"stateMutability":"nonpayable"},{"type":"function","name":"unpause","inputs":[],"outputs":[],"stateMutability":"nonpayable"},{"type":"function","name":"updateSeigniorage","inputs":[],"outputs":[{"name":"","type":"bool","internalType":"bool"}],"stateMutability":"nonpayable"},{"type":"event","name":"Approval","inputs":[{"name":"owner","type":"address","indexed":true,"internalType":"address"},{"name":"spender","type":"address","indexed":true,"internalType":"address"},{"name":"value","type":"uint256","indexed":false,"internalType":"uint256"}],"anonymous":false},{"type":"event","name":"DebugAllowance","inputs":[{"name":"owner","type":"address","indexed":true,"internalType":"address"},{"name":"spender","type":"address","indexed":true,"internalType":"address"},{"name":"value","type":"uint256","indexed":false,"internalType":"uint256"}],"anonymous":false},{"type":"event","name":"DebugBalance","inputs":[{"name":"account","type":"address","indexed":true,"internalType":"address"},{"name":"balance","type":"uint256","indexed":false,"internalType":"uint256"}],"anonymous":false},{"type":"event","name":"Deposited","inputs":[{"name":"to","type":"address","indexed":false,"internalType":"address"},{"name":"token","type":"bool","indexed":false,"internalType":"bool"},{"name":"amount","type":"uint256","indexed":false,"internalType":"uint256"},{"name":"wstonAmount","type":"uint256","indexed":false,"internalType":"uint256"},{"name":"depositTime","type":"uint256","indexed":false,"internalType":"uint256"},{"name":"depositBlockNumber","type":"uint256","indexed":false,"internalType":"uint256"}],"anonymous":false},{"type":"event","name":"Initialized","inputs":[{"name":"version","type":"uint64","indexed":false,"internalType":"uint64"}],"anonymous":false},{"type":"event","name":"OwnershipTransferred","inputs":[{"name":"previousOwner","type":"address","indexed":true,"internalType":"address"},{"name":"newOwner","type":"address","indexed":true,"internalType":"address"}],"anonymous":false},{"type":"event","name":"Paused","inputs":[{"name":"account","type":"address","indexed":false,"internalType":"address"}],"anonymous":false},{"type":"event","name":"SeigniorageUpdated","inputs":[],"anonymous":false},{"type":"event","name":"StakingIndexUpdated","inputs":[{"name":"stakingIndex","type":"uint256","indexed":false,"internalType":"uint256"}],"anonymous":false},{"type":"event","name":"Transfer","inputs":[{"name":"from","type":"address","indexed":true,"internalType":"address"},{"name":"to","type":"address","indexed":true,"internalType":"address"},{"name":"value","type":"uint256","indexed":false,"internalType":"uint256"}],"anonymous":false},{"type":"event","name":"Unpaused","inputs":[{"name":"account","type":"address","indexed":false,"internalType":"address"}],"anonymous":false},{"type":"event","name":"WithdrawalProcessed","inputs":[{"name":"_to","type":"address","indexed":false,"internalType":"address"},{"name":"amount","type":"uint256","indexed":false,"internalType":"uint256"}],"anonymous":false},{"type":"event","name":"WithdrawalRequested","inputs":[{"name":"_to","type":"address","indexed":true,"internalType":"address"},{"name":"amount","type":"uint256","indexed":false,"internalType":"uint256"}],"anonymous":false},{"type":"event","name":"decodeSuccess","inputs":[{"name":"to","type":"address","indexed":false,"internalType":"address"},{"name":"amount","type":"uint256","indexed":false,"internalType":"uint256"}],"anonymous":false},{"type":"error","name":"AddressEmptyCode","inputs":[{"name":"target","type":"address","internalType":"address"}]},{"type":"error","name":"AddressInsufficientBalance","inputs":[{"name":"account","type":"address","internalType":"address"}]},{"type":"error","name":"ApproveAndCallFailed","inputs":[]},{"type":"error","name":"ClaimWithdrawalFailed","inputs":[]},{"type":"error","name":"ContractNotPaused","inputs":[]},{"type":"error","name":"ContractPaused","inputs":[]},{"type":"error","name":"DepositFailed","inputs":[]},{"type":"error","name":"ERC20InsufficientAllowance","inputs":[{"name":"spender","type":"address","internalType":"address"},{"name":"allowance","type":"uint256","internalType":"uint256"},{"name":"needed","type":"uint256","internalType":"uint256"}]},{"type":"error","name":"ERC20InsufficientBalance","inputs":[{"name":"sender","type":"address","internalType":"address"},{"name":"balance","type":"uint256","internalType":"uint256"},{"name":"needed","type":"uint256","internalType":"uint256"}]},{"type":"error","name":"ERC20InvalidApprover","inputs":[{"name":"approver","type":"address","internalType":"address"}]},{"type":"error","name":"ERC20InvalidReceiver","inputs":[{"name":"receiver","type":"address","internalType":"address"}]},{"type":"error","name":"ERC20InvalidSender","inputs":[{"name":"sender","type":"address","internalType":"address"}]},{"type":"error","name":"ERC20InvalidSpender","inputs":[{"name":"spender","type":"address","internalType":"address"}]},{"type":"error","name":"FailedInnerCall","inputs":[]},{"type":"error","name":"FailedToSwapFromTONToWTON","inputs":[{"name":"amount","type":"uint256","internalType":"uint256"}]},{"type":"error","name":"InvalidCaller","inputs":[]},{"type":"error","name":"InvalidInitialization","inputs":[]},{"type":"error","name":"InvalidOnApproveData","inputs":[]},{"type":"error","name":"InvalidToOrAmount","inputs":[]},{"type":"error","name":"MaximumNumberOfWithdrawalsReached","inputs":[]},{"type":"error","name":"MinimalWithdrawalAmount","inputs":[]},{"type":"error","name":"NoClaimableAmount","inputs":[{"name":"requestor","type":"address","internalType":"address"}]},{"type":"error","name":"NoRequestToProcess","inputs":[]},{"type":"error","name":"NotEnoughFunds","inputs":[]},{"type":"error","name":"NotInitializing","inputs":[]},{"type":"error","name":"OwnableInvalidOwner","inputs":[{"name":"owner","type":"address","internalType":"address"}]},{"type":"error","name":"OwnableUnauthorizedAccount","inputs":[{"name":"account","type":"address","internalType":"address"}]},{"type":"error","name":"ProcessRequestFailed","inputs":[]},{"type":"error","name":"ReentrancyGuardReentrantCall","inputs":[]},{"type":"error","name":"RequestAlreadyProcessed","inputs":[]},{"type":"error","name":"SafeERC20FailedOperation","inputs":[{"name":"token","type":"address","internalType":"address"}]},{"type":"error","name":"SeigniorageUpdateFailed","inputs":[]},{"type":"error","name":"WithdrawalDelayNotElapsed","inputs":[]},{"type":"error","name":"WithdrawalRequestFailed","inputs":[]},{"type":"error","name":"WrontAmount","inputs":[]}],"bytecode":{"object":"0x60806040523461002257610011610027565b60405161337b6101b3823961337b90f35b600080fd5b61002f610039565b610037610104565b565b610037610086565b61004e61004e61004e9290565b90565b61004e6001610041565b90600019905b9181191691161790565b9061007b61004e61008292610041565b825461005b565b9055565b610037610091610051565b600461006b565b61004e9060401c60ff1690565b61004e9054610098565b61004e905b6001600160401b031690565b61004e90546100af565b906001600160401b0390610061565b61004e906100b4906001600160401b031682565b906100fd61004e610082926100d9565b82546100ca565b7ff0c57e16840df040f15088dc2f81fe391c3923bec73e23a9662efc9c229c6a0061012e816100a5565b6101a05761013b816100c0565b6001600160401b0391908290811603610152575050565b816101817fc7f505b2f371ae2175ee4913f4499e1f2633a7b5936321eed1cdaeb6115181d29361019b936100ed565b604051918291826001600160401b03909116815260200190565b0390a1565b60405163f92ee8a960e01b8152600490fdfe6080604052600436101561001257600080fd5b60003560e01c806306fdde0314610252578063095ea7b31461024d57806318160ddd1461024857806323b872dd146102435780632e0f26251461023e578063313ce567146102395780633f4ba83a1461023457806350d2a2761461022f57806352171bfe1461022a578063550d01a3146102255780635b34b966146102205780635f4c5eae1461021b57806361bc221a1461021657806363a8fd891461021157806370448bd41461020c57806370a0823114610207578063715018a614610202578063764a7856146101fd5780637a244819146101f85780637ed72d16146101f35780637f4649b7146101ee5780638456cb59146101e95780638ada066e146101e45780638da5cb5b146101df57806395d89b41146101da5780639ee679e8146101d5578063a9059cbb146101d0578063aa738524146101cb578063b911135f146101c6578063c40753f9146101c1578063d6960d12146101bc578063dd62ed3e146101b7578063ea300b18146101b2578063ef090e4c146101ad578063f2847e64146101a85763f2fde38b0361025757610ba5565b610b89565b610b67565b6109ea565b61095a565b61091c565b610903565b6108bf565b61088d565b610871565b610859565b61082a565b61080f565b6107f4565b6107dc565b6107c4565b61079d565b61074e565b610733565b61071b565b610700565b6106e5565b6106ca565b6106a4565b610669565b61062e565b610613565b610588565b610538565b610478565b610449565b61042e565b6103e9565b610394565b610366565b6102d6565b600080fd5b600091031261025757565b60005b83811061027a5750506000910152565b818101518382015260200161026a565b6102ab6102b46020936102be9361029f815190565b80835293849260200190565b95869101610267565b601f01601f191690565b0190565b60208082526102d39291019061028a565b90565b34610257576102e636600461025c565b6102fd6102f1610cb5565b604051918291826102c2565b0390f35b6001600160a01b031690565b61031681610301565b0361025757565b9050359061032a8261030d565b565b80610316565b9050359061032a8261032c565b9190604083820312610257576102d390602061035b828661031d565b9401610332565b9052565b34610257576102fd61038261037c36600461033f565b90610cc8565b60405191829182901515815260200190565b34610257576103a436600461025c565b6102fd6103af610ce9565b6040515b9182918290815260200190565b9091606082840312610257576102d36103d9848461031d565b93604061035b826020870161031d565b34610257576102fd6103826103ff3660046103c0565b91610cfc565b6102d36102d36102d39290565b6102d3676765c793fa10079d601b1b610405565b6102d3610412565b346102575761043e36600461025c565b6102fd6103af610426565b346102575761045936600461025c565b6102fd610464610d1f565b6040519182918260ff909116815260200190565b346102575761048836600461025c565b610490610e1d565b604051005b6001600160e01b03198116610316565b9050359061032a82610495565b90602082820312610257576102d3916104a5565b6001600160e01b03191690565b906104dd906104c6565b600052602052604060002090565b6102d3916008021c6001600160a01b031690565b906102d391546104eb565b600061051a6102d39260036104d3565b6104ff565b61036290610301565b60208101929161032a919061051f565b34610257576102fd61055361054e3660046104b2565b61050a565b60405191829182610528565b801515610316565b9050359061032a8261055f565b90602082820312610257576102d391610567565b346102575761049061059b366004610574565b610ed5565b90602082820312610257576102d39161031d565b6102d390610301906001600160a01b031682565b6102d3906105b4565b6102d3906105c8565b906104dd906105d1565b6102d3916008021c5b60ff1690565b906102d391546105e4565b600061060e6102d39260026105da565b6105f3565b34610257576102fd6103826106293660046105a0565b6105fe565b346102575761063e36600461025c565b610490610f29565b9190604083820312610257576102d39060206106628286610332565b9401610567565b346102575761049061067c366004610646565b90610f9a565b6102d3916008021c81565b906102d39154610682565b6102d36000601361068d565b34610257576106b436600461025c565b6102fd6103af610698565b6102d36000806105f3565b34610257576106da36600461025c565b6102fd6103826106bf565b34610257576102fd6103af6106fb3660046105a0565b611049565b34610257576102fd6103af6107163660046105a0565b6110fd565b346102575761072b36600461025c565b610490611155565b346102575761074336600461025c565b6102fd6103826111b3565b3461025757610490610761366004610646565b9061125d565b8051825261032a9190604090819061078460208201516020860152565b01511515910152565b60608101929161032a9190610767565b34610257576102fd6107b86107b33660046105a0565b611298565b6040519182918261078d565b34610257576104906107d73660046105a0565b611316565b34610257576107ec36600461025c565b610490611373565b346102575761080436600461025c565b6102fd6103af61137b565b346102575761081f36600461025c565b6102fd610553611385565b346102575761083a36600461025c565b6102fd6102f1611398565b90602082820312610257576102d391610332565b346102575761049061086c366004610845565b6114bd565b34610257576102fd61038261088736600461033f565b906114c6565b34610257576104906108a03660046105a0565b6114e8565b906104dd90610405565b600061051a6102d39260016108a5565b34610257576102fd6105536108d5366004610845565b6108af565b9091606082840312610257576102d36108f3848461031d565b9360406106628260208701610332565b34610257576104906109163660046108da565b91611523565b346102575761092c36600461025c565b6102fd6103af611550565b9190604083820312610257576102d3906020610953828661031d565b940161031d565b34610257576102fd6103af610970366004610937565b906115d1565b909182601f83011215610257578135916001600160401b03831161025757602001926001830284011161025757565b91606083830312610257576109ba828461031d565b926109c88360208301610332565b9260408201356001600160401b038111610257576109e69201610976565b9091565b34610257576102fd610382610a003660046109a5565b92919091611658565b634e487b7160e01b600052604160045260246000fd5b90601f01601f191681019081106001600160401b03821117610a4057604052565b610a09565b9061032a610a5260405190565b9283610a1f565b6001600160401b038111610a4057602090601f01601f19160190565b90826000939282370152565b90929192610a96610a9182610a59565b610a45565b93818552818301116102575761032a916020850190610a75565b9080601f83011215610257578160206102d393359101610a81565b9190916101008184031261025757610ae3838261031d565b92610af1816020840161031d565b92610aff826040850161031d565b92610b0d836060830161031d565b92610b1b816080840161031d565b92610b298260a0850161031d565b9260c08101356001600160401b0381116102575783610b49918301610ab0565b9260e08201356001600160401b038111610257576102d39201610ab0565b3461025757610490610b7a366004610acb565b969590959491949392936119b6565b34610257576102fd6107b8610b9f36600461033f565b906119c6565b3461025757610490610bb83660046105a0565b611a3b565b634e487b7160e01b600052602260045260246000fd5b9060016002830492168015610bf3575b6020831014610bee57565b610bbd565b91607f1691610be3565b80546000939291610c1a610c1083610bd3565b8085529360200190565b9160018116908115610c6c5750600114610c3357505050565b610c469192939450600052602060002090565b916000925b818410610c585750500190565b805484840152602090930192600101610c4b565b92949550505060ff1916825215156020020190565b906102d391610bfd565b9061032a610ca592610c9c60405190565b93848092610c81565b0383610a1f565b6102d390610c8b565b6102d36003610cc2611a44565b01610cac565b610cd3919033611a68565b600190565b6102d39081565b6102d39054610cd8565b6102d36002610cf6611a44565b01610cdf565b610cd3929190610d0d833383611aa0565b611b05565b6105ed6102d36102d39290565b6102d3601b610d12565b610d31611b92565b61032a610d93565b6102d3906105ed565b6102d39054610d39565b15610d5357565b60405162461bcd60e51b815260206004820152601460248201527314185d5cd8589b194e881b9bdd081c185d5cd95960621b6044820152606490fd5b0390fd5b610da5610da06005610d42565b610d4c565b61032a610dd7565b9060ff905b9181191691161790565b90610dcc6102d3610dd392151590565b8254610dad565b9055565b610de360006005610dbc565b7f5db9ee0a495bf2e6ff9c91a7834c1ba4fdd244a5e8aa4e537bd38aeae4b073aa610e0d60405190565b80610e183382610528565b0390a1565b61032a610d29565b15610e2c57565b60405162461bcd60e51b815260206004820152601060248201526f14185d5cd8589b194e881c185d5cd95960821b6044820152606490fd5b61032a90610e81610e7c610e786005610d42565b1590565b610e25565b610ec4565b15610e8d57565b60405162461bcd60e51b815260206004820152600f60248201526e6661696c656420746f20636c61696d60881b6044820152606490fd5b610ed061032a91611c36565b610e86565b61032a90610e64565b634e487b7160e01b600052601160045260246000fd5b6000198114610f035760010190565b610ede565b9060001990610db2565b90610f226102d3610dd392610405565b8254610f08565b61032a610f3e610f396013610cdf565b610ef4565b6013610f12565b9061032a91610f5a610e7c610e786005610d42565b90610f6c91610f67611e79565b610f74565b61032a611eb9565b610f8291610e78913361201b565b610f8857565b6040516379cacff160e01b8152600490fd5b9061032a91610f45565b634e487b7160e01b600052603260045260246000fd5b8054821015610fdd57610fd4600391600052602060002090565b91020190600090565b610fa4565b6102d36060610a45565b9061032a61102a6002610ffd610fe2565b9461100e61100a82610cdf565b8752565b61102461101d60018301610cdf565b6020880152565b01610d42565b15156040840152565b6102d390610fec565b91908201809211610f0357565b90600061105f61105a84600f6105da565b610cdf565b600e6110756102d361107187846105da565b5490565b8210156110f6576110928261108d87611098946105da565b610fba565b50611033565b6110a8610e786040830151151590565b806110e1575b6110c1575b5060010161105f565b61105f565b6110bc91926110d460206110da93015190565b9061103c565b91906110b3565b50805143906110ef565b9190565b11156110ae565b5090925050565b61105a6102d39161110c600090565b506000611117611a44565b016105da565b611125611b92565b61032a611143565b6103016102d36102d39290565b6102d39061112d565b61032a611150600061113a565b6124b0565b61032a61111d565b6102d390610301565b6102d3905461115d565b6102d39060081c610301565b6102d39054611170565b9050519061032a8261055f565b90602082820312610257576102d391611186565b6040513d6000823e3d90fd5b600060206111f76111cf6111ca6111ca6009611166565b6105d1565b6111d9600561117c565b604051948593849283919062f0f85b60e51b5b835260048301610528565b03925af19081156112365760009161120d575090565b6102d3915060203d60201161122f575b6112278183610a1f565b810190611193565b503d61121d565b6111a7565b9061032a91611250610e7c610e786005610d42565b61032a91610ed0916126ac565b9061032a9161123b565b61126f610fe2565b600080825260208201819052604082015290565b6102d3611267565b91908203918211610f0357565b6110926102d3916112a7611283565b5061108d6112cc6112bc61105a84600f6105da565b6112c66001610405565b9061128b565b91600e6105da565b61032a906112e0611b92565b61130b565b906001600160a01b0390610db2565b906113046102d3610dd3926105d1565b82546112e5565b61032a9060086112f4565b61032a906112d4565b611327611b92565b61032a61133a610e7c610e786005610d42565b61032a61134960016005610dbc565b7f62e78cea01bee320cd4e420270b5ea74000d11b0c9f74754ebdbfc544b05a258610e0d60405190565b61032a61131f565b6102d36013610cdf565b6102d360006113926126b8565b01611166565b6102d36004610cc2611a44565b61032a906113b9610e7c610e786005610d42565b61142a565b9050519061032a8261032c565b90602082820312610257576102d3916113be565b156113e657565b60405162461bcd60e51b815260206004820152601c60248201527b19985a5b1959081d1bc81c995c5d595cdd081dda5d1a191c985dd85b60221b6044820152606490fd5b611467602061143f6111ca6111ca6008611166565b611449600561117c565b9061145360405190565b93849283918291635af8ced960e11b6111ec565b03915afa80156112365761032a926114879260009261148c575b506127dd565b6113df565b6114af91925060203d6020116114b6575b6114a78183610a1f565b8101906113cb565b9038611481565b503d61149d565b61032a906113a5565b610cd3919033611b05565b61032a906114dd611b92565b61032a9060096112f4565b61032a906114d1565b9061032a9291611507610e7c610e786005610d42565b90610f6c9291611515611e79565b91610e7891610f829361201b565b9061032a92916114f1565b91602061032a9294936115496040820196600083019061051f565b019061051f565b6115a260206115656111ca6111ca6009611166565b61156f600561117c565b90611579306105d1565b9161158360405190565b80958194829361159763ce4cb87660e01b90565b84526004840161152e565b03915afa908115611236576000916115b8575090565b6102d3915060203d6020116114b6576114a78183610a1f565b6102d3916115ef61105a926115e4600090565b506001611117611a44565b6105da565b156115fb57565b60405162461bcd60e51b815260206004820152602860248201527f6f6e6c792061636365707420544f4e206f722057544f4e20617070726f76652060448201526763616c6c6261636b60c01b6064820152608490fd5b1561025757565b91926116999193611667600090565b5061167a6116756007611166565b610301565b61168333610301565b148015611715575b611694906115f4565b6129db565b9290916116a96116756007611166565b6116b233610301565b036116fa5792826116e6600193610cd3966116d86116d26116eb98610301565b91610301565b1490816116f0575b50611651565b61201b565b611651565b84915014386116e0565b92826116e6600093610cd3966116d86116d26116eb98610301565b506116946117266116756006611166565b61172f33610301565b14905061168b565b6102d39060401c6105ed565b6102d39054611737565b6102d3905b6001600160401b031690565b6102d3905461174d565b6117526102d36102d39290565b906001600160401b0390610db2565b6117526102d36102d3926001600160401b031690565b906117aa6102d3610dd392611784565b8254611775565b9060ff60401b9060401b610db2565b906117d06102d3610dd392151590565b82546117b1565b61036290611768565b60208101929161032a91906117d7565b94611846979294969196611802612a0c565b9586959061181b611815610e7889611743565b9861175e565b9960009a6118288c611768565b6001600160401b038216149081611928575b61185360019e8f611768565b916001600160401b031690565b149081611903575b155b90816118fa575b506118e8578b9989988c6118778d611768565b91019d6118858f928361179a565b6118959a6118d8575b505061195a565b61189e57505050565b6118cc610e18927fc7f505b2f371ae2175ee4913f4499e1f2633a7b5936321eed1cdaeb6115181d2946117c0565b604051918291826117e0565b6118e1916117c0565b8c8b61188e565b60405163f92ee8a960e01b8152600490fd5b15905038611864565b905061185d8c61191f6110eb611918306105d1565b3b92610405565b1491905061185b565b8a915061183a565b90610100600160a81b039060081b610db2565b906119536102d3610dd3926105d1565b8254611930565b9195936119886119969461198161199d9861197c6119a49c61198f979a612a47565b612a66565b60086112f4565b60096112f4565b6005611943565b60066112f4565b60076112f4565b61032a6119af610412565b600a610f12565b9061032a979695949392916117f0565b6102d39161108d611092926119d9611283565b50600e6105da565b61032a906119ed611b92565b6119f7600061113a565b611a0081610301565b611a0983610301565b14611a18575061032a906124b0565b610d8f90611a2560405190565b631e4fbdf760e01b815291829160048301610528565b61032a906119e1565b7f52c63247e1f47db19d5ce0460030c497f067ca4cebf71ba98eeadabe20bace0090565b9160019161032a93612a6f565b604090611a9c61032a9496959396611a956060840198600085019061051f565b6020830152565b0152565b91611aab82846115d1565b6000198103611abb575b50505050565b818110611ae15791611ad2611ad894926000940390565b91612a6f565b38808080611ab5565b82610d8f83611aef60405190565b637dc7a0d960e11b815293849360048501611a75565b929190611b12600061113a565b93611b1c85610301565b611b2582610301565b14611b6f57611b3385610301565b611b3c83610301565b14611b4c5761032a939450612b5c565b610d8f85611b5960405190565b63ec442f0560e01b815291829160048301610528565b610d8f85611b7c60405190565b634b637e8f60e11b815291829160048301610528565b611b9a611385565b3390611ba86116d283610301565b03611bb05750565b610d8f90611bbd60405190565b63118cdaa760e01b815291829160048301610528565b91602061032a929493611bee6040820196600083019061051f565b019015159052565b634e487b7160e01b600052601260045260246000fd5b8115611c16570490565b611bf6565b91602061032a929493611a9c6040820196600083019061051f565b906000611c4281610405565b805b600e611c566102d361107133846105da565b821015611cde57611c6e6110928361108d33856105da565b90611c7f610e786040840151151590565b80611cd1575b611c99575b5050600101611c44565b611c44565b926110d46020611cc993611cc460016002611cbd8961108d611c949b9c33906105da565b5001610dbc565b015190565b919038611c8a565b5081850151431015611c85565b5050909192611cec83610405565b8214611e545715611dd157611d4160206001611d0e6111ca6111ca6008611166565b611d18600561117c565b86611d2260405190565b809681958294611d3663c20a44c660e01b90565b845260048401611bd3565b03925af191821561123657611d72611daa93611d85936000805160206133268339815191529691611db25750611651565b611d7f633b9aca00610405565b90611c0c565b611d9d81611d966111ca6007611166565b3390612cae565b6040519182913383611c1b565b0390a1600190565b611dcb915060203d60201161122f576112278183610a1f565b386116e0565b611e1090602083611de86111ca6111ca6008611166565b611df2600561117c565b82611dfc60405190565b809781958294611d3663c20a44c660e01b90565b03925af19283156112365760008051602061332683398151915293611daa93611e3e9291611db25750611651565b611e4f81611d966111ca6006611166565b611d9d565b6040516395ae4d3960e01b815280610d8f3360048301610528565b6102d36002610405565b611e836004610cdf565b611e8b611e6f565b908114611e9d5761032a906004610f12565b604051633ee5aeb560e01b8152600490fd5b6102d36001610405565b61032a611ec4611eaf565b6004610f12565b15611ed257565b60405162461bcd60e51b815260206004820152601c60248201527b6661696c656420746f2075706461746520736569676e696f7261676560201b6044820152606490fd5b611f316102d3949293611a956060840195600085019061051f565b604081840391015261028a565b15611f4557565b60405162461bcd60e51b8152602060048201526015602482015274185c1c1c9bdd99505b9910d85b1b0819985a5b1959605a1b6044820152606490fd5b81810292918115918404141715610f0357565b15611f9c57565b60405162461bcd60e51b815260206004820152600e60248201526d19195c1bdcda5d0819985a5b195960921b6044820152606490fd5b9194612014611a9c9298979561200d60a09661200661032a9a611ffd60c08a019e60008b019061051f565b15156020890152565b6040870152565b6060850152565b6080830152565b9060009261202883612d6b565b60009361203485610405565b831461249e57612044600b610cdf565b6120506110eb87610405565b141580612439575b61239f575b61206843600b610f12565b6120736119af612dae565b60008051602061330683398151915261208f6103af600a610cdf565b0390a1508061227e576120f9906020846120c1856120b06111ca6006611166565b6120b9306105d1565b938491612e70565b6120d16111ca6111ca6006611166565b6120db6008611166565b916120e560405190565b80968194829361159763dd62ed3e60e01b90565b03915afa8015611236578592839161225f575b5083116121e4575b61215f915060208361212c6111ca6111ca6008611166565b612136600561117c565b8861214060405190565b8097819582946121546347e7ef2460e01b90565b845260048401611c1b565b03925af1948515611236577fc2cf288cd8c138e724d1e17ce848afd04e0d32e56883d38635d5a81523dbce0295611daa936121a092916121c5575b50611f95565b6121a983612ea6565b935b6121b58582612ec8565b6040519485944393429387611fd2565b6121de915060203d60201161122f576112278183610a1f565b3861219a565b60206122256121f96111ca6111ca6006611166565b6122036008611166565b604051958693849283919063095ea7b360e01b83526000199060048401611c1b565b03925af19182156112365761215f92612242575b50849150612114565b61225a9060203d60201161122f576112278183610a1f565b612239565b612278915060203d6020116114b6576114a78183610a1f565b3861210c565b61231b906122a3836122936111ca6007611166565b8661229d306105d1565b91612e70565b60206122d66122e26122b56008611166565b6122bf600561117c565b906122c960405190565b938492868401928361152e565b90810382520382610a1f565b6122f26111ca6111ca6007611166565b85886122fe6006611166565b6040519788958694859363cae9ca5160e01b855260048501611f16565b03925af1948515611236577fc2cf288cd8c138e724d1e17ce848afd04e0d32e56883d38635d5a81523dbce0295611daa9361235c9291612380575b50611f3e565b61237a61237561236f633b9aca00610405565b85611f82565b612ea6565b936121ab565b612399915060203d60201161122f576112278183610a1f565b38612356565b6123af6111ca6111ca600561117c565b60206123ba60405190565b633b253c2b60e11b815291829060049082908a905af18015611236576123e791879161241a575b50611ecb565b7ff5098c5d9dbf181d9c0d6092494a5858de094059750ccf72e28485c5480b493961241160405190565b600090a161205d565b612433915060203d60201161122f576112278183610a1f565b386123e1565b5061244a6111ca6111ca6009611166565b602061245560405190565b631e6b913d60e31b815291829060049082905afa90811561123657869161247f575b504311612058565b612498915060203d6020116114b6576114a78183610a1f565b38612477565b60405163396f493960e01b8152600490fd5b6124da6124d460006124c06126b8565b016111ca846124ce83611166565b926112f4565b916105d1565b907f8be0079c531659141344cd1fd0a4f28419497f9722a3daafe3b4186f6b6457e061250560405190565b80805b0390a3565b906102d39291612523610e7c610e786005610d42565b5090600e6125376102d361107133846105da565b83101561269a5761255361254f8461108d33856105da565b5090565b9161256060028401610d42565b60019490151585146126885761257584610cdf565b431061267657846002611cbd6125919361108d849733906105da565b1561261557611d72906125a49201610cdf565b6125d0816020846125bb6111ca6111ca6008611166565b6125c5600561117c565b6000611dfc60405190565b03925af180156112365760008051602061332683398151915293612602611d9d9261260f95600091611db25750611651565b611d966111ca6007611166565b0390a190565b61261f9101610cdf565b6126378160206000611de86111ca6111ca6008611166565b03925af180156112365760008051602061332683398151915293612669611e4f9261260f95600091611db25750611651565b611d966111ca6006611166565b6040516378f67ae160e11b8152600490fd5b6040516329af1d3160e21b8152600490fd5b60405163e92d106b60e01b8152600490fd5b6102d39190600061250d565b7f9016d09d72d40fdae2fd8ceac6b6234c7706214fd39c1cd1e609a0528c19930090565b156126e357565b60405162461bcd60e51b815260206004820152603560248201527f6661696c656420746f2072657175657374207769746864726177616c2066726f60448201527436903a3432903232b837b9b4ba1036b0b730b3b2b960591b6064820152608490fd5b634e487b7160e01b600052600060045260246000fd5b6002612799604061032a9461277b612775600083015190565b86610f12565b612792612789602083015190565b60018701610f12565b0151151590565b9101610dbc565b91906127af5761032a9161275c565b612746565b80549190600160401b831015610a4057826127d791600161032a95018155610fba565b906127a0565b906000906127ea336110fd565b831161296757612874916127ff6119af612dae565b60008051602061330683398151915261281b6103af600a610cdf565b0390a15061283761282f61236f600a610cdf565b611d7f610412565b9060208261284b6111ca6111ca6008611166565b612855600561117c565b600061286060405190565b80988195829461215463da95ebf760e01b90565b03925af1928315611236576128d49361289591600091612948575b506126dc565b6128c86128b06128a96102d333600e6105da565b924361103c565b926128c16128bc610fe2565b948552565b6020840152565b600060408301526127b4565b6128ff6128e16001610405565b6128f96128ef33600f6105da565b916102be83610cdf565b90610f12565b6129098133612f03565b7fe670e4e82118d22a1f9ee18920455ebc958bae26a90a05d31d3378788b1b0e44612940612936336105d1565b926103b360405190565b0390a2600190565b612961915060203d60201161122f576112278183610a1f565b3861288f565b604051631036b5ad60e31b8152600490fd5b1561298057565b60405162461bcd60e51b815260206004820152602d60248201527f496e76616c6964206f6e417070726f7665206461746120666f72204c3157726160448201526c383832b229ba30b5b2b22a27a760991b6064820152608490fd5b91906129ec6129ff9161254f600090565b6129f96110eb6034610405565b14612979565b6014823560601c92013590565b7ff0c57e16840df040f15088dc2f81fe391c3923bec73e23a9662efc9c229c6a0090565b9061032a91612a3d612f3f565b9061032a9161312c565b9061032a91612a30565b61032a90612a5d612f3f565b61032a90613142565b61032a90612a51565b909192612a7a611a44565b612a84600061113a565b612a8d81610301565b612a9685610301565b14612b3957612aa481610301565b612aad86610301565b14612b16575084612ac8856115ef866001612acd96016105da565b610f12565b612ad657505050565b612508612b0c612b067f8c5be1e5ebec7d5bd14f71427d1e84f3dd0314c0f7b2291e5b200ac8c7c3b925936105d1565b936105d1565b936103b360405190565b610d8f90612b2360405190565b634a1406b160e11b815291829160048301610528565b610d8f90612b4660405190565b63e602df0560e01b815291829160048301610528565b612b64611a44565b82612b6f600061113a565b612b7881610301565b612b8185610301565b03612c12577fddf252ad1be2c89b69c2b068fc378daa952ba7f163c4a11628f55a4df523b3ef9383612b0c93612bd0612b0694611675600261250899016128f98d612bcb83610cdf565b61103c565b612bd982610301565b03612bf7575060026111ca91016128f989612bf383610cdf565b0390565b6111ca91612c0591906105da565b6128f9896102be83610cdf565b905081612c2261105a85836105da565b868110612c7157936125089386612bd0612b0c95611675612b0696612ac887612c6b8f7fddf252ad1be2c89b69c2b068fc378daa952ba7f163c4a11628f55a4df523b3ef9e0390565b926105da565b84610d8f88612c7f60405190565b63391434e360e21b815293849360048501611a75565b6104c6612ca86102d39263ffffffff1690565b60e01b90565b612cf1600492612ce261032a95612cc863a9059cbb612c95565b92612cd260405190565b9687946020860190815201611c1b565b60208201810382520383610a1f565b61314b565b8054821015610fdd57610fd4600191600052602060002090565b916001600160a01b0360089290920291821b911b610db2565b9190612d3a6102d3610dd3936105d1565b908354612d10565b80549190600160401b831015610a405782612d6591600161032a95018155612cf6565b90612d29565b612d81610e78612d7c8360126105da565b610d42565b612d885750565b6001612da982612da261032a94612d9d601190565b612d42565b60126105da565b610dbc565b612db6611550565b612dbe610ce9565b612dcb6110eb6000610405565b1180612e34575b15612e2457612dec612df491612de6610412565b90611f82565b611d7f610ce9565b612dff81600a610f12565b600080516020613306833981519152612e1760405190565b828152806020810161260f565b50612e2f600a610cdf565b612df4565b50612e3f6000610405565b8111612dd2565b604090611a9c61032a9496959396612e666060840198600085019061051f565b602083019061051f565b90612cf190612ce261032a95600495612e8c6323b872dd612c95565b93612e9660405190565b9788956020870190815201612e46565b612ebe6102d391612eb5600090565b50612de6610412565b611d7f600a610cdf565b9190612ed4600061113a565b92612ede84610301565b612ee782610301565b14612ef65761032a9293612b5c565b610d8f84611b5960405190565b9190612f0f600061113a565b92612f1984610301565b612f2282610301565b14612f32579261032a9293612b5c565b610d8f84611b7c60405190565b612f4a610e786131c5565b612f5057565b604051631afcd79f60e31b8152600490fd5b9061032a91612f6f612f3f565b61310a565b9160001960089290920291821b911b610db2565b9190612f996102d3610dd393610405565b908354612f74565b61032a91600091612f88565b818110612fb8575050565b80612fc66000600193612fa1565b01612fad565b9190601f8111612fdb57505050565b612fed61032a93600052602060002090565b906020601f84018190048301931061300f575b6020601f909101040190612fad565b9091508190613000565b9060001960089091021c191690565b8161303291613019565b906002021790565b90613043815190565b906001600160401b038211610a4057613066826130608554610bd3565b85612fcc565b602090601f831160011461309457610dd3929160009183613089575b5050613028565b015190503880613082565b601f198316916130a985600052602060002090565b9260005b8181106130e8575091600293918560019694106130ce575b50505002019055565b6130de910151601f841690613019565b90553880806130c5565b919360206001819287870151815501950192016130ad565b9061032a9161303a565b90600461032a9261312661311c611a44565b9160038301613100565b01613100565b9061032a91612f62565b61032a906119ed612f3f565b61032a90613136565b61315761315e916105d1565b91826131d8565b805161316d6110eb6000610405565b141590816131a1575b5061317e5750565b610d8f9061318b60405190565b635274afe760e01b815291829160048301610528565b6131bf91508060206131b4610e78935190565b818301019101611193565b38613176565b6102d360006131d2612a0c565b01611743565b6102d3916131e66000610405565b9161321d565b906131f9610a9183610a59565b918252565b3d156132185761320d3d6131ec565b903d6000602084013e565b606090565b91613227306105d1565b818131106132515750600082819260206102d3969551920190855af161324b6131fe565b91613274565b610d8f9061325e60405190565b63cd78605960e01b815291829160048301610528565b9061327f57506132d6565b815161328e6110eb6000610405565b14806132c0575b61329d575090565b610d8f906132aa60405190565b639996b31560e01b815291829160048301610528565b50803b6132d06110eb6000610405565b14613295565b80516132e56110eb6000610405565b11156132f357805190602001fd5b604051630a12f52160e11b8152600490fdfe30ce0c4920695ae7b30f6304002cac26f3bffd83b1b84b281d4495ec83956c495abb0fc89def2ee3226cc48f5621ee8e2b45f6dcc7898d2bdb5d480533c32bc0a2646970667358221220c501cbff83519e8aa1440751cfee0de771861afd33634cdb2ea4476f9b9dd48c64736f6c63430008190033","linkReferences":{}},"methodIdentifiers":{"DECIMALS()":"2e0f2625","aliveImplementation(address)":"550d01a3","allowance(address,address)":"dd62ed3e","approve(address,uint256)":"095ea7b3","balanceOf(address)":"70a08231","claimWithdrawalIndex(uint256,bool)":"7a244819","claimWithdrawalTotal(bool)":"52171bfe","counter()":"61bc221a","decimals()":"313ce567","depositWTONAndGetWSTON(uint256,bool)":"5f4c5eae","depositWTONAndGetWSTONTo(address,uint256,bool)":"c40753f9","getCounter()":"8ada066e","getLastWithdrawalRequest(address)":"7ed72d16","getTotalClaimableAmountByUser(address)":"70448bd4","getWithdrawalRequest(address,uint256)":"f2847e64","incrementCounter()":"5b34b966","initialize(address,address,address,address,address,address,string,string)":"ef090e4c","name()":"06fdde03","onApprove(address,uint256,bytes)":"ea300b18","owner()":"8da5cb5b","pause()":"8456cb59","pauseProxy()":"63a8fd89","proxyImplementation(uint256)":"b911135f","renounceOwnership()":"715018a6","requestWithdrawal(uint256)":"9ee679e8","selectorImplementation(bytes4)":"50d2a276","setDepositManagerAddress(address)":"7f4649b7","setSeigManagerAddress(address)":"aa738524","stakeOf()":"d6960d12","symbol()":"95d89b41","totalSupply()":"18160ddd","transfer(address,uint256)":"a9059cbb","transferFrom(address,address,uint256)":"23b872dd","transferOwnership(address)":"f2fde38b","unpause()":"3f4ba83a","updateSeigniorage()":"764a7856"},"id":104}