{"abi":[{"type":"function","name":"ADMIN_ROLE","inputs":[],"outputs":[{"name":"","type":"bytes32","internalType":"bytes32"}],"stateMutability":"view"},{"type":"function","name":"DECIMALS","inputs":[],"outputs":[{"name":"","type":"uint256","internalType":"uint256"}],"stateMutability":"view"},{"type":"function","name":"DEFAULT_ADMIN_ROLE","inputs":[],"outputs":[{"name":"","type":"bytes32","internalType":"bytes32"}],"stateMutability":"view"},{"type":"function","name":"PAUSE_ROLE","inputs":[],"outputs":[{"name":"","type":"bytes32","internalType":"bytes32"}],"stateMutability":"view"},{"type":"function","name":"TON_FEES_RATE_DIVIDER","inputs":[],"outputs":[{"name":"","type":"uint256","internalType":"uint256"}],"stateMutability":"view"},{"type":"function","name":"addAdmin","inputs":[{"name":"account","type":"address","internalType":"address"}],"outputs":[],"stateMutability":"nonpayable"},{"type":"function","name":"addPauser","inputs":[{"name":"account","type":"address","internalType":"address"}],"outputs":[],"stateMutability":"nonpayable"},{"type":"function","name":"aliveImplementation","inputs":[{"name":"","type":"address","internalType":"address"}],"outputs":[{"name":"","type":"bool","internalType":"bool"}],"stateMutability":"view"},{"type":"function","name":"buyCommonGem","inputs":[],"outputs":[{"name":"","type":"bool","internalType":"bool"}],"stateMutability":"nonpayable"},{"type":"function","name":"buyGem","inputs":[{"name":"_tokenId","type":"uint256","internalType":"uint256"},{"name":"_paymentMethod","type":"bool","internalType":"bool"}],"outputs":[],"stateMutability":"nonpayable"},{"type":"function","name":"commonGemTokenUri","inputs":[],"outputs":[{"name":"","type":"string","internalType":"string"}],"stateMutability":"view"},{"type":"function","name":"gemsForSale","inputs":[{"name":"","type":"uint256","internalType":"uint256"}],"outputs":[{"name":"seller","type":"address","internalType":"address"},{"name":"price","type":"uint256","internalType":"uint256"},{"name":"isActive","type":"bool","internalType":"bool"}],"stateMutability":"view"},{"type":"function","name":"getGemFactoryAddress","inputs":[],"outputs":[{"name":"","type":"address","internalType":"address"}],"stateMutability":"view"},{"type":"function","name":"getRoleAdmin","inputs":[{"name":"role","type":"bytes32","internalType":"bytes32"}],"outputs":[{"name":"","type":"bytes32","internalType":"bytes32"}],"stateMutability":"view"},{"type":"function","name":"getStakingIndex","inputs":[],"outputs":[{"name":"","type":"uint256","internalType":"uint256"}],"stateMutability":"view"},{"type":"function","name":"getTonFeesRate","inputs":[],"outputs":[{"name":"","type":"uint256","internalType":"uint256"}],"stateMutability":"view"},{"type":"function","name":"getTreasuryAddress","inputs":[],"outputs":[{"name":"","type":"address","internalType":"address"}],"stateMutability":"view"},{"type":"function","name":"grantRole","inputs":[{"name":"role","type":"bytes32","internalType":"bytes32"},{"name":"account","type":"address","internalType":"address"}],"outputs":[],"stateMutability":"nonpayable"},{"type":"function","name":"hasRole","inputs":[{"name":"role","type":"bytes32","internalType":"bytes32"},{"name":"account","type":"address","internalType":"address"}],"outputs":[{"name":"","type":"bool","internalType":"bool"}],"stateMutability":"view"},{"type":"function","name":"initialize","inputs":[{"name":"_treasury","type":"address","internalType":"address"},{"name":"_gemfactory","type":"address","internalType":"address"},{"name":"_tonFeesRate","type":"uint256","internalType":"uint256"},{"name":"_wston","type":"address","internalType":"address"},{"name":"_ton","type":"address","internalType":"address"}],"outputs":[],"stateMutability":"nonpayable"},{"type":"function","name":"isAdmin","inputs":[{"name":"account","type":"address","internalType":"address"}],"outputs":[{"name":"","type":"bool","internalType":"bool"}],"stateMutability":"view"},{"type":"function","name":"isOwner","inputs":[],"outputs":[{"name":"","type":"bool","internalType":"bool"}],"stateMutability":"view"},{"type":"function","name":"isPauser","inputs":[{"name":"account","type":"address","internalType":"address"}],"outputs":[{"name":"","type":"bool","internalType":"bool"}],"stateMutability":"view"},{"type":"function","name":"pauseProxy","inputs":[],"outputs":[{"name":"","type":"bool","internalType":"bool"}],"stateMutability":"view"},{"type":"function","name":"proxyImplementation","inputs":[{"name":"","type":"uint256","internalType":"uint256"}],"outputs":[{"name":"","type":"address","internalType":"address"}],"stateMutability":"view"},{"type":"function","name":"putGemForSale","inputs":[{"name":"_tokenId","type":"uint256","internalType":"uint256"},{"name":"_price","type":"uint256","internalType":"uint256"}],"outputs":[],"stateMutability":"nonpayable"},{"type":"function","name":"putGemListForSale","inputs":[{"name":"tokenIds","type":"uint256[]","internalType":"uint256[]"},{"name":"prices","type":"uint256[]","internalType":"uint256[]"}],"outputs":[],"stateMutability":"nonpayable"},{"type":"function","name":"removeAdmin","inputs":[],"outputs":[],"stateMutability":"nonpayable"},{"type":"function","name":"removeGemForSale","inputs":[{"name":"_tokenId","type":"uint256","internalType":"uint256"}],"outputs":[],"stateMutability":"nonpayable"},{"type":"function","name":"removePauser","inputs":[{"name":"account","type":"address","internalType":"address"}],"outputs":[],"stateMutability":"nonpayable"},{"type":"function","name":"renounceRole","inputs":[{"name":"role","type":"bytes32","internalType":"bytes32"},{"name":"callerConfirmation","type":"address","internalType":"address"}],"outputs":[],"stateMutability":"nonpayable"},{"type":"function","name":"revokeRole","inputs":[{"name":"role","type":"bytes32","internalType":"bytes32"},{"name":"account","type":"address","internalType":"address"}],"outputs":[],"stateMutability":"nonpayable"},{"type":"function","name":"selectorImplementation","inputs":[{"name":"","type":"bytes4","internalType":"bytes4"}],"outputs":[{"name":"","type":"address","internalType":"address"}],"stateMutability":"view"},{"type":"function","name":"setCommonGemTokenUri","inputs":[{"name":"_tokenURI","type":"string","internalType":"string"}],"outputs":[],"stateMutability":"nonpayable"},{"type":"function","name":"setDiscountRate","inputs":[{"name":"_tonFeesRate","type":"uint256","internalType":"uint256"}],"outputs":[],"stateMutability":"nonpayable"},{"type":"function","name":"setStakingIndex","inputs":[{"name":"_stakingIndex","type":"uint256","internalType":"uint256"}],"outputs":[],"stateMutability":"nonpayable"},{"type":"function","name":"setTonFeesRate","inputs":[{"name":"_tonFeesRate","type":"uint256","internalType":"uint256"}],"outputs":[],"stateMutability":"nonpayable"},{"type":"function","name":"supportsInterface","inputs":[{"name":"interfaceId","type":"bytes4","internalType":"bytes4"}],"outputs":[{"name":"","type":"bool","internalType":"bool"}],"stateMutability":"view"},{"type":"function","name":"transferOwnership","inputs":[{"name":"newOwner","type":"address","internalType":"address"}],"outputs":[],"stateMutability":"nonpayable"},{"type":"event","name":"GemBought","inputs":[{"name":"tokenId","type":"uint256","indexed":false,"internalType":"uint256"},{"name":"payer","type":"address","indexed":false,"internalType":"address"},{"name":"seller","type":"address","indexed":false,"internalType":"address"},{"name":"amount","type":"uint256","indexed":false,"internalType":"uint256"},{"name":"gemCoolDownDueDate","type":"uint256","indexed":false,"internalType":"uint256"}],"anonymous":false},{"type":"event","name":"GemFactoryAddressUpdated","inputs":[{"name":"gemfactory","type":"address","indexed":false,"internalType":"address"}],"anonymous":false},{"type":"event","name":"GemForSale","inputs":[{"name":"tokenId","type":"uint256","indexed":false,"internalType":"uint256"},{"name":"seller","type":"address","indexed":false,"internalType":"address"},{"name":"price","type":"uint256","indexed":false,"internalType":"uint256"}],"anonymous":false},{"type":"event","name":"GemRemovedFromSale","inputs":[{"name":"seller","type":"address","indexed":false,"internalType":"address"},{"name":"tokenId","type":"uint256","indexed":false,"internalType":"uint256"}],"anonymous":false},{"type":"event","name":"RoleAdminChanged","inputs":[{"name":"role","type":"bytes32","indexed":true,"internalType":"bytes32"},{"name":"previousAdminRole","type":"bytes32","indexed":true,"internalType":"bytes32"},{"name":"newAdminRole","type":"bytes32","indexed":true,"internalType":"bytes32"}],"anonymous":false},{"type":"event","name":"RoleGranted","inputs":[{"name":"role","type":"bytes32","indexed":true,"internalType":"bytes32"},{"name":"account","type":"address","indexed":true,"internalType":"address"},{"name":"sender","type":"address","indexed":true,"internalType":"address"}],"anonymous":false},{"type":"event","name":"RoleRevoked","inputs":[{"name":"role","type":"bytes32","indexed":true,"internalType":"bytes32"},{"name":"account","type":"address","indexed":true,"internalType":"address"},{"name":"sender","type":"address","indexed":true,"internalType":"address"}],"anonymous":false},{"type":"event","name":"SetDiscountRate","inputs":[{"name":"discountRate","type":"uint256","indexed":false,"internalType":"uint256"}],"anonymous":false},{"type":"event","name":"SetStakingIndex","inputs":[{"name":"stakingIndex","type":"uint256","indexed":false,"internalType":"uint256"}],"anonymous":false},{"type":"event","name":"WSTONClaimed","inputs":[{"name":"tokenId","type":"uint256","indexed":false,"internalType":"uint256"},{"name":"claimer","type":"address","indexed":false,"internalType":"address"}],"anonymous":false},{"type":"error","name":"AccessControlBadConfirmation","inputs":[]},{"type":"error","name":"AccessControlUnauthorizedAccount","inputs":[{"name":"account","type":"address","internalType":"address"},{"name":"neededRole","type":"bytes32","internalType":"bytes32"}]},{"type":"error","name":"AddressEmptyCode","inputs":[{"name":"target","type":"address","internalType":"address"}]},{"type":"error","name":"AddressInsufficientBalance","inputs":[{"name":"account","type":"address","internalType":"address"}]},{"type":"error","name":"AddressZero","inputs":[]},{"type":"error","name":"AlreadyInitialized","inputs":[]},{"type":"error","name":"BuyerIsSeller","inputs":[{"name":"errorMessage","type":"string","internalType":"string"}]},{"type":"error","name":"FailedInnerCall","inputs":[]},{"type":"error","name":"FailedToPay","inputs":[]},{"type":"error","name":"FailedToSendFeesToTreasury","inputs":[]},{"type":"error","name":"GemIsAlreadyForSaleOrIsMining","inputs":[]},{"type":"error","name":"GemIsNotForSale","inputs":[]},{"type":"error","name":"GemNotApproved","inputs":[]},{"type":"error","name":"ListingGemFailed","inputs":[]},{"type":"error","name":"NoTokens","inputs":[]},{"type":"error","name":"NotGemOwner","inputs":[]},{"type":"error","name":"NotPaused","inputs":[]},{"type":"error","name":"Paused","inputs":[]},{"type":"error","name":"PurchaseFailed","inputs":[]},{"type":"error","name":"ReentrancyGuardReentrantCall","inputs":[]},{"type":"error","name":"SafeERC20FailedOperation","inputs":[{"name":"token","type":"address","internalType":"address"}]},{"type":"error","name":"SameAdmin","inputs":[]},{"type":"error","name":"SameOwner","inputs":[]},{"type":"error","name":"WrongLength","inputs":[]},{"type":"error","name":"WrongMsgValue","inputs":[]},{"type":"error","name":"WrongPrice","inputs":[]},{"type":"error","name":"WrongSeller","inputs":[]},{"type":"error","name":"WrongStakingIndex","inputs":[]},{"type":"error","name":"ZeroAddress","inputs":[]}],"bytecode":{"object":"0x60806040523461002257610011610027565b604051612e906101238239612e9090f35b600080fd5b61002f610031565b565b61002f61002f61002f61002f61002f61002f61002f610090565b6100586100586100589290565b90565b610058600161004b565b90600019905b9181191691161790565b9061008561005861008c9261004b565b8254610065565b9055565b6100986100f3565b61002f6100a361005b565b600c610075565b9060ff9061006b565b151590565b906100c861005861008c926100b3565b82546100aa565b9061ff009060081b61006b565b906100ec61005861008c926100b3565b82546100cf565b61010a6b033b2e3c9fd0803ce8000000600a610075565b6101166000600b6100b8565b61002f6000600b6100dc56fe6080604052600436101561001257600080fd5b60003560e01c806301ffc9a71461028257806302424ed31461027d57806308ec897d14610278578063248a9ca31461027357806324d7806c1461026e5780632dd355c2146102695780632e0f2625146102645780632ede64321461025f5780632f2ff15d1461025a578063333609681461025557806333e1a2231461025057806336568abe1461024b578063389ed2671461024657806346fbf68e146102415780635074e0c81461023c57806350d2a27614610237578063550d01a31461023257806363a8fd891461022d5780636b2c0f551461022857806370480275146102235780637525e5261461021e57806375b238fc1461021957806379dbd798146102145780637c69febd1461020f57806382dc1ec41461020a5780638f32d59b1461020557806391d14854146102005780639a202d47146101fb5780639c41b42b146101f65780639d541be2146101f1578063a217fddf146101ec578063a27682ef146101e7578063a69c8fb2146101e2578063adad6926146101dd578063b911135f146101d8578063ce49a360146101d3578063d547741f146101ce578063e0024604146101c95763f2fde38b0361028757610d92565b610d77565b610d5e565b610d46565b610d2b565b610d03565b610ce8565b610cd0565b610c23565b610bf6565b610bcc565b610b17565b610afb565b610ae0565b610ac8565b610ab0565b610a97565b61099d565b610956565b61093e565b610926565b61090b565b6108e5565b61085f565b6107d2565b6107b7565b61079c565b610757565b61073b565b6106cf565b6104e7565b6104ab565b61046d565b610439565b61041e565b6103cd565b61038e565b610345565b6102c9565b600080fd5b6001600160e01b031981165b0361028757565b905035906102ac8261028c565b565b90602082820312610287576102c29161029f565b90565b9052565b34610287576102f66102e46102df3660046102ae565b610daa565b60405191829182901515815260200190565b0390f35b80610298565b905035906102ac826102fa565b801515610298565b905035906102ac8261030d565b9190604083820312610287576102c290602061033e8286610300565b9401610315565b346102875761035e610358366004610322565b90610e34565b604051005b600091031261028757565b6102c26102c26102c29290565b6102c261271061036e565b6102c261037b565b346102875761039e366004610363565b6102f66103a9610386565b6040519182918290815260200190565b90602082820312610287576102c291610300565b34610287576102f66103a96103e33660046103b9565b610e44565b6001600160a01b031690565b610298816103e8565b905035906102ac826103f4565b90602082820312610287576102c2916103fd565b34610287576102f66102e461043436600461040a565b610e63565b346102875761035e61044c3660046103b9565b610f1b565b6102c2676765c793fa10079d601b1b61036e565b6102c2610451565b346102875761047d366004610363565b6102f66103a9610465565b9190604083820312610287576102c29060206104a48286610300565b9401610300565b346102875761035e6104be366004610488565b906110af565b9190604083820312610287576102c29060206104e08286610300565b94016103fd565b346102875761035e6104fa3660046104c4565b906110dc565b634e487b7160e01b600052600060045260246000fd5b634e487b7160e01b600052602260045260246000fd5b906001600283049216801561054c575b602083101461054757565b610516565b91607f169161053c565b805460009392916105736105698361052c565b8085529360200190565b91600181169081156105c5575060011461058c57505050565b61059f9192939450600052602060002090565b916000925b8184106105b15750500190565b8054848401526020909301926001016105a4565b92949550505060ff1916825215156020020190565b906102c291610556565b634e487b7160e01b600052604160045260246000fd5b90601f01601f191681019081106001600160401b0382111761061b57604052565b6105e4565b906102ac61063a9261063160405190565b938480926105da565b03836105fa565b90600010610652576102c290610620565b610500565b6102c26000600e610641565b60005b8381106106765750506000910152565b8181015183820152602001610666565b6106a76106b06020936106ba9361069b815190565b80835293849260200190565b95869101610663565b601f01601f191690565b0190565b60208082526102c292910190610686565b34610287576106df366004610363565b6102f66106ea610657565b604051918291826106be565b919060a0838203126102875761070c81846103fd565b9261071a82602083016103fd565b926102c261072b8460408501610300565b9360806104e082606087016103fd565b346102875761035e61074e3660046106f6565b939290926112a9565b346102875761035e61076a3660046104c4565b90611332565b7ffcb9fcbfa83b897fb2d5cf4b58962164105c1e71489a37ef3ae0db3fdce576f690565b6102c2610770565b34610287576107ac366004610363565b6102f66103a9610794565b34610287576102f66102e46107cd36600461040a565b611365565b34610287576107e2366004610363565b6102f66103a9611371565b6001600160e01b03191690565b90610804906107ed565b600052602052604060002090565b6102c2916008021c6001600160a01b031690565b906102c29154610812565b60006108416102c29260036107fa565b610826565b6102c5906103e8565b6020810192916102ac9190610846565b34610287576102f661087a6108753660046102ae565b610831565b6040519182918261084f565b6102c2906103e8906001600160a01b031682565b6102c290610886565b6102c29061089a565b90610804906108a3565b6102c2916008021c5b60ff1690565b906102c291546108b6565b60006108e06102c29260026108ac565b6108c5565b34610287576102f66102e46108fb36600461040a565b6108d0565b6102c26000806108c5565b346102875761091b366004610363565b6102f66102e4610900565b346102875761035e61093936600461040a565b611422565b346102875761035e61095136600461040a565b61144b565b3461028757610966366004610363565b6102f66102e4611838565b7fdf8b4c520ffe197c5343c6f5aec59570151ef9a492f2c624fd45ddde6135ec4290565b6102c2610971565b34610287576109ad366004610363565b6102f66103a9610995565b906102ac6109c560405190565b92836105fa565b6001600160401b03811161061b5760208091020190565b909291926109f86109f3826109cc565b6109b8565b938185526020808601920283019281841161028757915b838310610a1c5750505050565b60208091610a2a8486610300565b815201920191610a0f565b9080601f83011215610287578160206102c2933591016109e3565b9190916040818403126102875780356001600160401b0381116102875783610a79918301610a35565b9260208201356001600160401b038111610287576102c29201610a35565b346102875761035e610aaa366004610a50565b906119c4565b346102875761035e610ac33660046103b9565b611a1f565b346102875761035e610adb36600461040a565b611a43565b3461028757610af0366004610363565b6102f66102e4611a4c565b34610287576102f66102e4610b113660046104c4565b90611a57565b3461028757610b27366004610363565b61035e611af5565b906108049061036e565b6102c2906103e8565b6102c29054610b39565b6102c29081565b6102c29054610b4c565b6102c2906108bf565b6102c29054610b5d565b610b7b906004610b2f565b610b8481610b42565b916102c26002610b9660018501610b53565b9301610b66565b604090610bc46102ac9496959396610bbd60608401986000850190610846565b6020830152565b019015159052565b34610287576102f6610be7610be23660046103b9565b610b70565b60405191939193849384610b9d565b3461028757610c06366004610363565b6102f661087a611afd565b6102c2600061036e565b6102c2610c11565b3461028757610c33366004610363565b6102f66103a9610c1b565b6001600160401b03811161061b57602090601f01601f19160190565b90826000939282370152565b90929192610c766109f382610c3e565b9381855281830111610287576102ac916020850190610c5a565b9080601f83011215610287578160206102c293359101610c66565b906020828203126102875781356001600160401b038111610287576102c29201610c90565b346102875761035e610ce3366004610cab565b611c17565b3461028757610cf8366004610363565b6102f66103a9611c20565b346102875761035e610d163660046103b9565b611e2b565b60006108416102c2926001610b2f565b34610287576102f661087a610d413660046103b9565b610d1b565b346102875761035e610d593660046103b9565b611e7a565b346102875761035e610d713660046104c4565b90611e9e565b3461028757610d87366004610363565b6102f661087a611ea8565b346102875761035e610da536600461040a565b611f54565b6102c290611f5d565b15610dba57565b60405162461bcd60e51b815260206004820152601060248201526f14185d5cd8589b194e881c185d5cd95960821b6044820152606490fd5b0390fd5b906102ac91610e14610e0f610e0b600b610b66565b1590565b610db3565b610e20565b1561028757565b6102ac91610e2f91339061280d565b610e19565b906102ac91610df6565b90610804565b6001610e5d6102c292610e55600090565b50600d610e3e565b01610b53565b6102c290610e6f610971565b611a57565b15610e7b57565b60405162461bcd60e51b8152602060048201526024808201527f41757468436f6e74726f6c3a2043616c6c6572206973206e6f7420746865206f6044820152633bb732b960e11b6064820152608490fd5b6102ac90610ee0610edb611a4c565b610e74565b610f10565b90600019905b9181191691161790565b90610f056102c2610f0c9261036e565b8254610ee5565b9055565b6102ac906005610ef5565b6102ac90610ecc565b906102ac91610f39610e0f610e0b600b610b66565b610ffa565b905051906102ac826103f4565b90602082820312610287576102c291610f3e565b6040513d6000823e3d90fd5b15610f7257565b60405162461bcd60e51b81526020600482015260176024820152761d1a1948139195081a5cc81b9bdd08185c1c1c9bdd9959604a1b6044820152606490fd5b15610fb857565b60405162461bcd60e51b815260206004820152601a6024820152796661696c656420746f207075742067656d20666f722073616c6560301b6044820152606490fd5b61100f61100a61100a6006610b42565b6108a3565b91602061101b60405190565b63020604bf60e21b81526004810184905293849060249082905afa9182156110aa57611071611076936102ac9560009161107b575b5061106b611065611060306108a3565b6103e8565b916103e8565b14610f6b565b6128a2565b610fb1565b61109d915060203d6020116110a3575b61109581836105fa565b810190610f4b565b38611050565b503d61108b565b610f5f565b906102ac91610f24565b906102ac916110cf6110ca82610e44565b612ac1565b906110d991612acc565b50565b906102ac916110b9565b6102c29060081c6108bf565b6102c290546110e6565b1561110357565b60405162461bcd60e51b8152602060048201526013602482015272185b1c9958591e481a5b9a5d1a585b1a5e9959606a1b6044820152606490fd5b1561114557565b60405162461bcd60e51b8152602060048201526024808201527f646973636f756e742072617465206d757374206265206c657373207468616e206044820152633130302560e01b6064820152608490fd5b906001600160a01b0390610eeb565b906111b56102c2610f0c926108a3565b8254611196565b9160001960089290920291821b911b610eeb565b91906111e16102c2610f0c9361036e565b9083546111bc565b6102ac916000916111d0565b818110611200575050565b8061120e60006001936111e9565b016111f5565b9190601f811161122357505050565b6112356102ac93600052602060002090565b906020601f840181900483019310611257575b6020601f9091010401906111f5565b9091508190611248565b6112766000611270835461052c565b83611214565b60009055565b6102ac90611261565b9061ff009060081b610eeb565b906112a26102c2610f0c92151590565b8254611285565b61130e9061130761131c969593611300611315966112d26112cd610e0b600b6110f2565b6110fc565b6112e66112df606461036e565b821061113e565b6112f86112f1610c11565b3390612acc565b506005610ef5565b60066111a5565b60076111a5565b60086111a5565b60096111a5565b611326600e61127c565b6102ac6001600b611292565b9061133c336103e8565b611345826103e8565b03611353576110d991612b4e565b60405163334bd91960e11b8152600490fd5b6102c290610e6f610770565b6102c2600a610b53565b1561138257565b60405162461bcd60e51b815260206004820152602360248201527f41757468436f6e74726f6c3a2043616c6c6572206973206e6f7420612070617560448201526239b2b960e91b6064820152608490fd5b6102ac906113e96113e2610770565b3390611a57565b80156113fe575b6113f99061137b565b611411565b506113f961140a611a4c565b90506113f0565b6102ac9061141d610770565b611332565b6102ac906113d3565b6102ac9061143a610edb611a4c565b6102ac90611446610971565b6110dc565b6102ac9061142b565b6102c290611468610e0f610e0b600b610b66565b611666565b905051906102ac826102fa565b90602082820312610287576102c29161146d565b6001600160401b03811161061b5760200290565b6109f36102c29161148e565b6108bf6102c26102c29290565b634e487b7160e01b600052602160045260246000fd5b600611156114db57565b6114bb565b906102ac826114d1565b6102c2906114e0565b6102c5906114ea565b61150c61150860029390565b9190565b6000915b83831061151d5750505050565b61153a611533600192845160ff16815260200190565b9260200190565b92019190611510565b61154f61150860049390565b6000915b8383106115605750505050565b611576611533600192845160ff16815260200190565b92019190611553565b805460009392916115926105698361052c565b91600181169081156105c557506001146115ab57505050565b6115be9192939450600052602060002090565b916000925b8184106115d05750500190565b8054848401526020909301926001016115c3565b90926116199061160f6102c2969461160561010086019760008701906114f3565b60208501906114fc565b6060830190611543565b60e081840391015261157f565b905051906102ac8261030d565b90602082820312610287576102c291611626565b9160206102ac92949361166260408201966000830190610846565b0152565b5061167761100a61100a6006610b42565b602061168260405190565b63e316dc1360e01b815291829060049082905afa80156110aa576116c891600091611819575b506116b661100a6008610b42565b6116c06007610b42565b903390612bc4565b6116d861100a61100a6007610b42565b600061175c6020600e6116eb60026114a2565b946117076116f8866114ae565b60ff1686880181905284880152565b61171160046114a2565b8560019761173e6117218a6114ae565b60ff16838501819052878501819052604085018190526060850152565b6040519687958694859363912b431b60e01b855285600486016115e4565b03925af180156110aa576117ac602091849384916117ec575b5061178661100a61100a6007610b42565b9061179060405190565b958693849283919063048dbcef60e41b83523360048401611647565b03925af19081156110aa57506117c0575090565b6117e19060203d6020116117e5575b6117d981836105fa565b810190611633565b5090565b503d6117cf565b61180c9150833d8511611812575b61180481836105fa565b81019061147a565b38611775565b503d6117fa565b611832915060203d6020116118125761180481836105fa565b386116a8565b6102c26000611454565b906102ac91611857610e0f610e0b600b610b66565b611891565b634e487b7160e01b600052603260045260246000fd5b9061187b825190565b81101561188c576020809102010190565b61185c565b80516000906118a3611508600061036e565b146119b25781516118b86115086102c2865190565b036119a0576118c7600061036e565b6118d26102c2845190565b81101561199a576119289060206118ef61100a61100a6006610b42565b6119006118fc8488611872565b5190565b9061190a60405190565b9485928391829163020604bf60e21b83526004830190815260200190565b03915afa9182156110aa5761197d92611951918591611982575061106b611065611060306108a3565b6119776110766119646118fc8488611872565b6119716118fc858a611872565b906128a2565b60010190565b6118c7565b61109d915060203d81116110a35761109581836105fa565b50505050565b6040516349552d5960e11b8152600490fd5b60405163df95788360e01b8152600490fd5b906102ac91611842565b6102ac906119dd610edb611a4c565b611a1a7f21a8eefc17e9c864964b5a4c0769d87f39cc0a7576773159e12358bc0095ffc591611a0f6112df606461036e565b6103a9816005610ef5565b0390a1565b6102ac906119ce565b6102ac90611a37610edb611a4c565b6102ac90611446610770565b6102ac90611a28565b6102c26113e2610c11565b6102c2916000611a6c611a7293610e55600090565b016108ac565b610b66565b15611a7e57565b60405162461bcd60e51b815260206004820152602360248201527f41757468436f6e74726f6c3a2043616c6c6572206973206e6f7420616e20616460448201526236b4b760e91b6064820152608490fd5b611ae0611adb33610e63565b611a77565b6102ac6102ac611aee610971565b3390611332565b6102ac611acf565b6102c26006610b42565b6102ac90611b16610edb611a4c565b611c0c565b9060001960089091021c191690565b81611b3491611b1b565b906002021790565b90611b45815190565b906001600160401b03821161061b57611b6882611b62855461052c565b85611214565b602090601f8311600114611b9657610f0c929160009183611b8b575b5050611b2a565b015190503880611b84565b601f19831691611bab85600052602060002090565b9260005b818110611bea57509160029391856001969410611bd0575b50505002019055565b611be0910151601f841690611b1b565b9055388080611bc7565b91936020600181928787015181550195019201611baf565b906102ac91611b3c565b6102ac90600e611c02565b6102ac90611b07565b6102c26005610b53565b6102ac90611c3e610e0f610e0b600b610b66565b611c83565b9081526040810192916102ac91602090610bc4565b600080825590600290611c6e83600183016111e9565b0155565b90600003610652576102ac90611c58565b6004611c9a6002611c948484610b2f565b01610b66565b611ca660015b91151590565b03611e0c57611cbb61100a61100a6006610b42565b6020611cc660405190565b9182906331a9108f60e11b82528180611ce58888830190815260200190565b03915afa9081156110aa57600091611ded575b50611d05611065336103e8565b03611dce57611d1a61100a61100a6006610b42565b91600091833b156102875782611d2f60405190565b948590634d723a7560e01b8252818381611d4c8289898401611c43565b03925af19283156110aa57611d9083611d95937f4d3db535b88041fd66b5878bff43bb7fa76399f971704cacc81234e39aa859e297611a1a97611da2575b50610b2f565b611c72565b6040519182913383611647565b611dc190853d8711611dc7575b611db981836105fa565b810190610363565b38611d8a565b503d611daf565b610df290611ddb60405190565b6302b327b560e41b8152918291820190565b611e06915060203d6020116110a35761109581836105fa565b38611cf8565b610df290611e1960405190565b6374f0c4bb60e11b8152918291820190565b6102ac90611c2a565b6102ac90611e43610edb611a4c565b611e57676765c793fa10079d601b1b61036e565b8110611e68576102ac90600a610ef5565b6040516373fd31f360e01b8152600490fd5b6102ac90611e34565b906102ac91611e946110ca82610e44565b906110d991612b4e565b906102ac91611e83565b6102c26007610b42565b6102ac90611ec1610edb611a4c565b611edc565b6103e86102c26102c29290565b6102c290611ec6565b611ee96110606000611ed3565b611ef2826103e8565b14611f4257611f00816103e8565b611f09336103e8565b14611f30576102ac90611aee611f1d610c11565b91611f2881846110dc565b611446610971565b604051630a98f1f360e21b8152600490fd5b60405163d92e233d60e01b8152600490fd5b6102ac90611eb2565b637965db0b60e01b6001600160e01b0319821614908115611f7c575090565b6102c291506001600160e01b0319166301ffc9a760e01b1490565b90611fab939291611fa6612c18565b6122b8565b906102ac612c58565b634e487b7160e01b600052601160045260246000fd5b81810292918115918404141715611fdd57565b611fb4565b634e487b7160e01b600052601260045260246000fd5b8115612002570490565b611fe2565b91908201809211611fdd57565b6040906116626102ac949695939661203460608401986000850190610846565b6020830190610846565b9060ff90610eeb565b906120576102c2610f0c92151590565b825461203e565b60ff8116610298565b905051906102ac8261205e565b909291926120846109f38261148e565b93602085920283019281841161028757915b8383106120a35750505050565b602080916120b18486612067565b815201920191612096565b9080601f830112156102875760046102c292612074565b909291926120e36109f38261148e565b93602085920283019281841161028757915b8383106121025750505050565b602080916121108486612067565b8152019201916120f5565b9080601f830112156102875760026102c2926120d3565b909291926121426109f382610c3e565b9381855281830111610287576102ac916020850190610663565b9080601f830112156102875781516102c292602001612132565b9190916101c0818403126102875761218f6101406109b8565b9261219a818361146d565b84526121a9816020840161146d565b60208501526121bb816040840161146d565b60408501526121cd816060840161146d565b60608501526121df8160808401612067565b60808501526121f18160a08401612067565b60a08501526122038160c08401611626565b60c08501526122158160e084016120bc565b60e085015261222881610160840161211b565b6101008501526101a08201516001600160401b0381116102875761224c920161215c565b610120830152565b906020828203126102875781516001600160401b038111610287576102c29201612176565b909594926102ac946122b1611662926122a760809661229d60a088019c6000890152565b6020870190610846565b6040850190610846565b6060830152565b506000926122c584611ed3565b6122ce816103e8565b6122d7856103e8565b146127fb576004916122f1610e0b6002611c948787610b2f565b6127ee576123046001610e5d8686610b2f565b9061230e8761036e565b82146127cf5761233161232b886123258888610b2f565b01610b42565b936103e8565b61233a846103e8565b146127b057612348836103e8565b612351336103e8565b1480612797575b612744571561257c5761239d60208261237761100a61100a6008610b42565b858a8a61238360405190565b968795869485936323b872dd60e01b5b85528d8501612014565b03925af180156110aa5761255f575b505b6123c48660026123be8787610b2f565b01612047565b6123d461100a61100a6006610b42565b803b1561028757866123e560405190565b918290634d723a7560e01b8252818381612402828c8c8401611c43565b03925af180156110aa57612543575b5061242261100a61100a6006610b42565b803b15610287578661243360405190565b9182906323b872dd60e01b82528183816124518b8d8b8d8501612014565b03925af180156110aa576124a49488928792612527575b5061247961100a61100a6006610b42565b9061248360405190565b80978194829361249763aa723bb760e01b90565b8452830190815260200190565b03915afa9283156110aa5760406124fc946124e992897f9be2432b8472bc411770bfc657166b0ccd4e6d3613ae58c16fa57f5eb2c98b009a92612504575b5050015190565b916124f360405190565b95869586612279565b0390a1600190565b61252092503d8091833e61251881836105fa565b810190612254565b38806124e2565b61253d90843d8611611dc757611db981836105fa565b38612468565b61255990873d8911611dc757611db981836105fa565b38612411565b6125779060203d6020116117e5576117d981836105fa565b6123ac565b6125cf6125ca6125a6612598612592600a610b53565b85611fca565b6125a0610451565b90611ff8565b6125c46125bc6125b66005610b53565b83611fca565b6125a061037b565b90612007565b612c6a565b6125df61100a61100a6009610b42565b9060206323b872dd926125f26007610b42565b90898b8961261c61260260405190565b978896879586946126138d60e01b90565b86528501612014565b03925af180156110aa57612727575b506126396110606007610b42565b612642846103e8565b0361264e575b506123ae565b61265e61100a61100a6007610b42565b90813b15610287578761267060405190565b92839063081cb0a960e31b8252818381612690898c830190815260200190565b03925af19081156110aa57849260209261270b575b506126b661100a61100a6008610b42565b6123938a6126c46007610b42565b936126df886126d260405190565b9889978896879560e01b90565b03925af180156110aa5715612648576127069060203d6020116117e5576117d981836105fa565b612648565b612721908a3d8c11611dc757611db981836105fa565b386126a5565b61273f9060203d6020116117e5576117d981836105fa565b61262b565b610df28461275160405190565b63b06bd67960e01b815291829182016020808252601d908201527f5573652052656d6f766547656d46726f6d4c69737420696e7374656164000000604082015260600190565b506127a1866103e8565b6127aa336103e8565b14612358565b610df2846127bd60405190565b630bcca81960e41b8152918291820190565b610df2846127dc60405190565b63f7760f2560e01b8152918291820190565b610df283611e1960405190565b604051639fabe1c160e01b8152600490fd5b6102c29291906000611f97565b6102c260606109b8565b906102c5906103e8565b6102c290516103e8565b600261287660406102ac946128586128526000830161282e565b866111a5565b61286f612866602083015190565b60018701610ef5565b0151151590565b9101612047565b906102ac91612838565b9081526060810193926102ac92909160409161166290612034565b906128b361100a61100a6006610b42565b60206128be60405190565b6331a9108f60e11b81526004810185905291829060249082905afa9081156110aa57600091612aa2575b506128f5611065336103e8565b03612a90576000906129068261036e565b8114612a7e5761291c61100a61100a6006610b42565b92602061292860405190565b63276a28a360e01b81526004810183905294859060249082905afa9384156110aa578394612a5d575b5060019361295e85611ca0565b14612a4b5761297361100a61100a6006610b42565b92833b15610287578061298560405190565b948590634d723a7560e01b82528183816129a38b8960048401611c43565b03925af19081156110aa577f8b8052dfcc72d6fc28cd795f60661e1a701f185ce78c06a47b2ac29357d6ef8b94612a1292612a2f575b506129ef6129e561281a565b9133908301612824565b6129fa846020830152565b8515156040820152612a0d836004610b2f565b61287d565b612a29612a1e60405190565b928392339084612887565b0390a190565b612a4590823d8411611dc757611db981836105fa565b386129d9565b60405163e970f37f60e01b8152600490fd5b612a7791945060203d6020116117e5576117d981836105fa565b9238612951565b60405163f7760f2560e01b8152600490fd5b6040516302b327b560e41b8152600490fd5b612abb915060203d6020116110a35761109581836105fa565b386128e8565b6102ac903390612c7b565b612ad9610e0b8383611a57565b15612b4757612af96001612af4846000611a6c86600d610e3e565b612047565b612b13612b0d612b07339390565b936108a3565b916108a3565b917f2f8788117e7eff1d82e926ec794901d17c78024a50270940304540a733656f0d612b3e60405190565b600090a4600190565b5050600090565b612b588282611a57565b15612b4757612b726000612af48482611a6c86600d610e3e565b612b80612b0d612b07339390565b917ff6391f5c32d9c69d2a47ea670b442974b53935d1edc7fd64eb21e047a839171b612b3e60405190565b6107ed612bbe6102c29263ffffffff1690565b60e01b90565b90612c0990612bfa6102ac95600495612be06323b872dd612bab565b93612bea60405190565b9788956020870190815201612014565b602082018103825203836105fa565b612cb3565b6102c2600261036e565b612c22600c610b53565b612c2a612c0e565b908114612c3c576102ac90600c610ef5565b604051633ee5aeb560e01b8152600490fd5b6102c2600161036e565b6102ac612c63612c4e565b600c610ef5565b6102c2906125a0633b9aca0061036e565b90612c89610e0b8284611a57565b612c91575050565b610df2612c9d60405190565b63e2517d3f60e01b815292839260048401611647565b612cbf612cc6916108a3565b9182612d2d565b8051612cd5611508600061036e565b14159081612d09575b50612ce65750565b610df290612cf360405190565b635274afe760e01b81529182916004830161084f565b612d279150806020612d1c610e0b935190565b818301019101611633565b38612cde565b6102c291612d3b600061036e565b91612d72565b90612d4e6109f383610c3e565b918252565b3d15612d6d57612d623d612d41565b903d6000602084013e565b606090565b91612d7c306108a3565b81813110612da65750600082819260206102c2969551920190855af1612da0612d53565b91612dc9565b610df290612db360405190565b63cd78605960e01b81529182916004830161084f565b90612dd45750612e2b565b8151612de3611508600061036e565b1480612e15575b612df2575090565b610df290612dff60405190565b639996b31560e01b81529182916004830161084f565b50803b612e25611508600061036e565b14612dea565b8051612e3a611508600061036e565b1115612e4857805190602001fd5b604051630a12f52160e11b8152600490fdfea2646970667358221220d6cbf75ad3df962e5b0031da33a9a04e8adf9248c4918b10cbcaca8b59c8d7b664736f6c63430008190033","linkReferences":{}},"methodIdentifiers":{"ADMIN_ROLE()":"75b238fc","DECIMALS()":"2e0f2625","DEFAULT_ADMIN_ROLE()":"a217fddf","PAUSE_ROLE()":"389ed267","TON_FEES_RATE_DIVIDER()":"08ec897d","addAdmin(address)":"70480275","addPauser(address)":"82dc1ec4","aliveImplementation(address)":"550d01a3","buyCommonGem()":"7525e526","buyGem(uint256,bool)":"02424ed3","commonGemTokenUri()":"33360968","gemsForSale(uint256)":"9c41b42b","getGemFactoryAddress()":"9d541be2","getRoleAdmin(bytes32)":"248a9ca3","getStakingIndex()":"5074e0c8","getTonFeesRate()":"a69c8fb2","getTreasuryAddress()":"e0024604","grantRole(bytes32,address)":"2f2ff15d","hasRole(bytes32,address)":"91d14854","initialize(address,address,uint256,address,address)":"33e1a223","isAdmin(address)":"24d7806c","isOwner()":"8f32d59b","isPauser(address)":"46fbf68e","pauseProxy()":"63a8fd89","proxyImplementation(uint256)":"b911135f","putGemForSale(uint256,uint256)":"2ede6432","putGemListForSale(uint256[],uint256[])":"79dbd798","removeAdmin()":"9a202d47","removeGemForSale(uint256)":"adad6926","removePauser(address)":"6b2c0f55","renounceRole(bytes32,address)":"36568abe","revokeRole(bytes32,address)":"d547741f","selectorImplementation(bytes4)":"50d2a276","setCommonGemTokenUri(string)":"a27682ef","setDiscountRate(uint256)":"7c69febd","setStakingIndex(uint256)":"ce49a360","setTonFeesRate(uint256)":"2dd355c2","supportsInterface(bytes4)":"01ffc9a7","transferOwnership(address)":"f2fde38b"},"id":108}