{"abi":[{"type":"constructor","inputs":[],"stateMutability":"nonpayable"},{"type":"fallback","stateMutability":"payable"},{"type":"receive","stateMutability":"payable"},{"type":"function","name":"DEFAULT_ADMIN_ROLE","inputs":[],"outputs":[{"name":"","type":"bytes32","internalType":"bytes32"}],"stateMutability":"view"},{"type":"function","name":"MINTER_ROLE","inputs":[],"outputs":[{"name":"","type":"bytes32","internalType":"bytes32"}],"stateMutability":"view"},{"type":"function","name":"OPERATOR_ROLE","inputs":[],"outputs":[{"name":"","type":"bytes32","internalType":"bytes32"}],"stateMutability":"view"},{"type":"function","name":"addAdmin","inputs":[{"name":"account","type":"address","internalType":"address"}],"outputs":[],"stateMutability":"nonpayable"},{"type":"function","name":"addMinter","inputs":[{"name":"account","type":"address","internalType":"address"}],"outputs":[],"stateMutability":"nonpayable"},{"type":"function","name":"addOperator","inputs":[{"name":"account","type":"address","internalType":"address"}],"outputs":[],"stateMutability":"nonpayable"},{"type":"function","name":"aliveImplementation","inputs":[{"name":"","type":"address","internalType":"address"}],"outputs":[{"name":"","type":"bool","internalType":"bool"}],"stateMutability":"view"},{"type":"function","name":"getRoleAdmin","inputs":[{"name":"role","type":"bytes32","internalType":"bytes32"}],"outputs":[{"name":"","type":"bytes32","internalType":"bytes32"}],"stateMutability":"view"},{"type":"function","name":"getSelectorImplementation2","inputs":[{"name":"_selector","type":"bytes4","internalType":"bytes4"}],"outputs":[{"name":"impl","type":"address","internalType":"address"}],"stateMutability":"view"},{"type":"function","name":"grantRole","inputs":[{"name":"role","type":"bytes32","internalType":"bytes32"},{"name":"account","type":"address","internalType":"address"}],"outputs":[],"stateMutability":"nonpayable"},{"type":"function","name":"hasRole","inputs":[{"name":"role","type":"bytes32","internalType":"bytes32"},{"name":"account","type":"address","internalType":"address"}],"outputs":[{"name":"","type":"bool","internalType":"bool"}],"stateMutability":"view"},{"type":"function","name":"implementation","inputs":[],"outputs":[{"name":"","type":"address","internalType":"address"}],"stateMutability":"view"},{"type":"function","name":"implementation2","inputs":[{"name":"_index","type":"uint256","internalType":"uint256"}],"outputs":[{"name":"","type":"address","internalType":"address"}],"stateMutability":"view"},{"type":"function","name":"isAdmin","inputs":[{"name":"account","type":"address","internalType":"address"}],"outputs":[{"name":"","type":"bool","internalType":"bool"}],"stateMutability":"view"},{"type":"function","name":"isMinter","inputs":[{"name":"account","type":"address","internalType":"address"}],"outputs":[{"name":"","type":"bool","internalType":"bool"}],"stateMutability":"view"},{"type":"function","name":"isOperator","inputs":[{"name":"account","type":"address","internalType":"address"}],"outputs":[{"name":"","type":"bool","internalType":"bool"}],"stateMutability":"view"},{"type":"function","name":"isOwner","inputs":[],"outputs":[{"name":"","type":"bool","internalType":"bool"}],"stateMutability":"view"},{"type":"function","name":"pauseProxy","inputs":[],"outputs":[{"name":"","type":"bool","internalType":"bool"}],"stateMutability":"view"},{"type":"function","name":"proxyImplementation","inputs":[{"name":"","type":"uint256","internalType":"uint256"}],"outputs":[{"name":"","type":"address","internalType":"address"}],"stateMutability":"view"},{"type":"function","name":"removeAdmin","inputs":[{"name":"account","type":"address","internalType":"address"}],"outputs":[],"stateMutability":"nonpayable"},{"type":"function","name":"removeMinter","inputs":[{"name":"account","type":"address","internalType":"address"}],"outputs":[],"stateMutability":"nonpayable"},{"type":"function","name":"removeOperator","inputs":[{"name":"account","type":"address","internalType":"address"}],"outputs":[],"stateMutability":"nonpayable"},{"type":"function","name":"renounceMinter","inputs":[],"outputs":[],"stateMutability":"nonpayable"},{"type":"function","name":"renounceOperator","inputs":[],"outputs":[],"stateMutability":"nonpayable"},{"type":"function","name":"renounceOwnership","inputs":[],"outputs":[],"stateMutability":"nonpayable"},{"type":"function","name":"renounceRole","inputs":[{"name":"role","type":"bytes32","internalType":"bytes32"},{"name":"callerConfirmation","type":"address","internalType":"address"}],"outputs":[],"stateMutability":"nonpayable"},{"type":"function","name":"revokeMinter","inputs":[{"name":"account","type":"address","internalType":"address"}],"outputs":[],"stateMutability":"nonpayable"},{"type":"function","name":"revokeOperator","inputs":[{"name":"account","type":"address","internalType":"address"}],"outputs":[],"stateMutability":"nonpayable"},{"type":"function","name":"revokeRole","inputs":[{"name":"role","type":"bytes32","internalType":"bytes32"},{"name":"account","type":"address","internalType":"address"}],"outputs":[],"stateMutability":"nonpayable"},{"type":"function","name":"selectorImplementation","inputs":[{"name":"","type":"bytes4","internalType":"bytes4"}],"outputs":[{"name":"","type":"address","internalType":"address"}],"stateMutability":"view"},{"type":"function","name":"setAliveImplementation2","inputs":[{"name":"newImplementation","type":"address","internalType":"address"},{"name":"_alive","type":"bool","internalType":"bool"}],"outputs":[],"stateMutability":"nonpayable"},{"type":"function","name":"setImplementation2","inputs":[{"name":"newImplementation","type":"address","internalType":"address"},{"name":"_index","type":"uint256","internalType":"uint256"},{"name":"_alive","type":"bool","internalType":"bool"}],"outputs":[],"stateMutability":"nonpayable"},{"type":"function","name":"setProxyPause","inputs":[{"name":"_pause","type":"bool","internalType":"bool"}],"outputs":[],"stateMutability":"nonpayable"},{"type":"function","name":"setSelectorImplementations2","inputs":[{"name":"_selectors","type":"bytes4[]","internalType":"bytes4[]"},{"name":"_imp","type":"address","internalType":"address"}],"outputs":[],"stateMutability":"nonpayable"},{"type":"function","name":"supportsInterface","inputs":[{"name":"interfaceId","type":"bytes4","internalType":"bytes4"}],"outputs":[{"name":"","type":"bool","internalType":"bool"}],"stateMutability":"view"},{"type":"function","name":"transferAdmin","inputs":[{"name":"newAdmin","type":"address","internalType":"address"}],"outputs":[],"stateMutability":"nonpayable"},{"type":"function","name":"transferOwnership","inputs":[{"name":"newAdmin","type":"address","internalType":"address"}],"outputs":[],"stateMutability":"nonpayable"},{"type":"function","name":"upgradeTo","inputs":[{"name":"impl","type":"address","internalType":"address"}],"outputs":[],"stateMutability":"nonpayable"},{"type":"event","name":"RoleAdminChanged","inputs":[{"name":"role","type":"bytes32","indexed":true,"internalType":"bytes32"},{"name":"previousAdminRole","type":"bytes32","indexed":true,"internalType":"bytes32"},{"name":"newAdminRole","type":"bytes32","indexed":true,"internalType":"bytes32"}],"anonymous":false},{"type":"event","name":"RoleGranted","inputs":[{"name":"role","type":"bytes32","indexed":true,"internalType":"bytes32"},{"name":"account","type":"address","indexed":true,"internalType":"address"},{"name":"sender","type":"address","indexed":true,"internalType":"address"}],"anonymous":false},{"type":"event","name":"RoleRevoked","inputs":[{"name":"role","type":"bytes32","indexed":true,"internalType":"bytes32"},{"name":"account","type":"address","indexed":true,"internalType":"address"},{"name":"sender","type":"address","indexed":true,"internalType":"address"}],"anonymous":false},{"type":"event","name":"SetAliveImplementation","inputs":[{"name":"impl","type":"address","indexed":true,"internalType":"address"},{"name":"alive","type":"bool","indexed":false,"internalType":"bool"}],"anonymous":false},{"type":"event","name":"SetSelectorImplementation","inputs":[{"name":"selector","type":"bytes4","indexed":true,"internalType":"bytes4"},{"name":"impl","type":"address","indexed":true,"internalType":"address"}],"anonymous":false},{"type":"event","name":"Upgraded","inputs":[{"name":"implementation","type":"address","indexed":true,"internalType":"address"}],"anonymous":false},{"type":"error","name":"AccessControlBadConfirmation","inputs":[]},{"type":"error","name":"AccessControlUnauthorizedAccount","inputs":[{"name":"account","type":"address","internalType":"address"},{"name":"neededRole","type":"bytes32","internalType":"bytes32"}]}],"bytecode":{"object":"0x608060405234610028575b6100126100b5565b61001a61002d565b6122d46103de82396122d490f35b610033565b60405190565b600080fd5b90565b90565b60001b90565b61005861005361005d92610038565b61003e565b61003b565b90565b61006a6000610044565b90565b7ff0887ba65ee2024ea881d91b74c2450ef19e1557f03bed3ea9f16b037cbe2dc990565b7f523a704056dcd17bcf83bed8b68c59416dac1119be77755efe3bde0a64e46e0c90565b6100e96100c0610060565b6100ca33826101c2565b506100dc816100d761006d565b6102b8565b6100e4610091565b6102b8565b565b600090565b151590565b6100fe9061003b565b90565b9061010b906100f5565b600052602052604060002090565b60018060a01b03901690565b90565b61013c61013761014192610119565b610125565b610119565b90565b61014d90610128565b90565b61015990610144565b90565b9061016690610150565b600052602052604060002090565b9061018060ff9161003e565b91811990169116901790565b610195906100f0565b90565b90565b906101b06101ab6101b79261018c565b610198565b8254610174565b9055565b6000900190565b6101ca6100eb565b506101de6101d88383610355565b156100f0565b600014610266575b61020760016102028460006101fc866004610101565b0161015c565b61019b565b61022a61022461021e610218610385565b936100f5565b93610150565b91610150565b917f2f8788117e7eff1d82e926ec794901d17c78024a50270940304540a733656f0d61025461002d565b8061025e816101bb565b0390a4600190565b5050600090565b9061027a6000199161003e565b91811990169116901790565b60001c90565b61029590610286565b90565b906102ad6102a86102b4926100f5565b61028c565b825461026d565b9055565b906102f46102ee6102e86102cb856103bb565b946102e38560016102dd846004610101565b01610298565b6100f5565b936100f5565b916100f5565b917fbd79b86ffe0ab8e8776151514217cd7cacd52c909f66475c3af44e129f0b00ff61031e61002d565b80610328816101bb565b0390a4565b60ff901690565b61034061034591610286565b61032d565b90565b6103529054610334565b90565b61037d9160006103726103789361036a6100eb565b506004610101565b0161015c565b610348565b90565b600090565b61038d610380565b503390565b600090565b90565b6103a66103ab91610286565b610397565b90565b6103b8905461039a565b90565b60016103d46103da926103cc610392565b506004610101565b016103ae565b9056fe6080604052600436101561001f575b361561001a575b611eb6565b611e94565b61002a6000356102b4565b806301ffc9a7146102af575b80631785f53c146102aa575b8063248a9ca3146102a5575b806324d7806c146102a0575b80632ab6f8db1461029b575b80632f2ff15d14610296575b80633092afd514610291575b806336568abe1461028c575b80633659cfe614610287575b80634a5df50f14610282575b806350d2a2761461027d575b8063550d01a314610278575b80635c60da1b14610273575b80635cc797d81461026e575b806363a8fd8914610269575b80636d70f7ae14610264575b8063704802751461025f575b8063715018a61461025a575b806375829def14610255575b80637cb00d2514610250575b80637cd5f6631461024b575b80638b8f4a6514610246575b80638d4fdb4014610241575b80638f32d59b1461023c575b806391d1485414610237575b8063983b2d5614610232575b8063986502751461022d575b80639870d7fe14610228575b8063a217fddf14610223575b8063aa271e1a1461021e575b8063ac8a584a14610219575b8063b911135f14610214575b8063cfbd48851461020f575b8063d53913931461020a575b8063d547741f14610205575b8063f2fde38b14610200575b8063f5b541a6146101fb575b63fad8b32a146101f6575b61000e565b610fc9565b610f93565b610f30565b610efb565b610ec5565b610e62565b610e2c565b610da9565b610d73565b610d3d565b610ccc565b610c98565b610c64565b610c2d565b610bf7565b610bc1565b610b8b565b610b36565b610a9c565b610a48565b610a14565b6109e0565b6109aa565b610974565b610931565b6108a5565b61086f565b6107a2565b6106d5565b610606565b6105d1565b61059d565b610568565b610505565b6104be565b610488565b6103e7565b61034b565b60e01c90565b60405190565b600080fd5b600080fd5b600080fd5b63ffffffff60e01b901690565b6102e5816102cf565b9014156102ef575b565b600080fd5b90503590610301826102dc565b565b9060208282031261031e575b600061031b92016102f4565b90565b6102c5565b151590565b61033190610323565b9052565b919061034990600060208501940190610328565b565b3461037c575b610378610367610362366004610303565b611002565b61036f6102ba565b91829182610335565b0390f35b6102c0565b60018060a01b03901690565b61039690610381565b90565b6103a28161038d565b9014156103ac575b565b600080fd5b905035906103be82610399565b565b906020828203126103db575b60006103d892016103b1565b90565b6102c5565b6000900190565b34610416575b6104006103fb3660046103c0565b6110fa565b6104086102ba565b80610412816103e0565b0390f35b6102c0565b90565b6104278161041b565b901415610431575b565b600080fd5b905035906104438261041e565b565b90602082820312610460575b600061045d9201610436565b90565b6102c5565b61046e9061041b565b9052565b919061048690600060208501940190610465565b565b346104b9575b6104b56104a461049f366004610445565b611158565b6104ac6102ba565b91829182610472565b0390f35b6102c0565b346104ef575b6104eb6104da6104d53660046103c0565b61117a565b6104e26102ba565b91829182610335565b0390f35b6102c0565b6000910312610500575b565b6102c5565b34610534575b6105163660046104f4565b61051e611197565b6105266102ba565b80610530816103e0565b0390f35b6102c0565b9190604083820312610563575b8060206105596105609360008701610436565b94016103b1565b90565b6102c5565b34610598575b61058261057c366004610539565b906111d5565b61058a6102ba565b80610594816103e0565b0390f35b6102c0565b346105cc575b6105b66105b13660046103c0565b611210565b6105be6102ba565b806105c8816103e0565b0390f35b6102c0565b34610601575b6105eb6105e5366004610539565b9061121b565b6105f36102ba565b806105fd816103e0565b0390f35b6102c0565b34610635575b61061f61061a3660046103c0565b611475565b6106276102ba565b80610631816103e0565b0390f35b6102c0565b600080fd5b600080fd5b600080fd5b909182601f83011215610687575b81359167ffffffffffffffff8311610682575b60209001926020830284011161067d575b565b610644565b61063f565b61063a565b916040838303126106d0575b600083013567ffffffffffffffff81116106cb575b826106bf6020946106c8938701610649565b949095016103b1565b90565b6102ca565b6102c5565b34610705575b6106ef6106e936600461068c565b91611844565b6106f76102ba565b80610701816103e0565b0390f35b6102c0565b610713906102cf565b90565b906107209061070a565b600052602052604060002090565b1c90565b60018060a01b03901690565b61074e906008610753930261072e565b610732565b90565b90610761915461073e565b90565b600061077761077c926003506003610716565b610756565b90565b6107889061038d565b9052565b91906107a09060006020850194019061077f565b565b346107d3575b6107cf6107be6107b9366004610303565b610764565b6107c66102ba565b9182918261078c565b0390f35b6102c0565b90565b6107ef6107ea6107f492610381565b6107d8565b610381565b90565b610800906107db565b90565b61080c906107f7565b90565b9061081990610803565b600052602052604060002090565b60ff901690565b61083e906008610843930261072e565b610827565b90565b90610851915461082e565b90565b600061086761086c92600250600261080f565b610846565b90565b346108a0575b61089c61088b6108863660046103c0565b610854565b6108936102ba565b91829182610335565b0390f35b6102c0565b346108d6575b6108b63660046104f4565b6108d26108c1611856565b6108c96102ba565b9182918261078c565b0390f35b6102c0565b6108e481610323565b9014156108ee575b565b600080fd5b90503590610900826108db565b565b919060408382031261092c575b80602061092261092993600087016103b1565b94016108f3565b90565b6102c5565b34610961575b61094b610945366004610902565b9061189d565b6109536102ba565b8061095d816103e0565b0390f35b6102c0565b610971600080610846565b90565b346109a5575b6109853660046104f4565b6109a1610990610966565b6109986102ba565b91829182610335565b0390f35b6102c0565b346109db575b6109d76109c66109c13660046103c0565b6118a9565b6109ce6102ba565b91829182610335565b0390f35b6102c0565b34610a0f575b6109f96109f43660046103c0565b6118f5565b610a016102ba565b80610a0b816103e0565b0390f35b6102c0565b34610a43575b610a253660046104f4565b610a2d61192f565b610a356102ba565b80610a3f816103e0565b0390f35b6102c0565b34610a77575b610a61610a5c3660046103c0565b611abf565b610a696102ba565b80610a73816103e0565b0390f35b6102c0565b90602082820312610a97575b6000610a9492016108f3565b90565b6102c5565b34610acb575b610ab5610ab0366004610a7c565b611b3a565b610abd6102ba565b80610ac7816103e0565b0390f35b6102c0565b90565b610adc81610ad0565b901415610ae6575b565b600080fd5b90503590610af882610ad3565b565b9091606082840312610b31575b610b2e610b1784600085016103b1565b936040610b278260208701610aeb565b94016108f3565b90565b6102c5565b34610b66575b610b50610b4a366004610afa565b91611b70565b610b586102ba565b80610b62816103e0565b0390f35b6102c0565b90602082820312610b86575b6000610b839201610aeb565b90565b6102c5565b34610bbc575b610bb8610ba7610ba2366004610b6b565b611b7d565b610baf6102ba565b9182918261078c565b0390f35b6102c0565b34610bf2575b610bee610bdd610bd8366004610303565b611baa565b610be56102ba565b9182918261078c565b0390f35b6102c0565b34610c28575b610c083660046104f4565b610c24610c13611c35565b610c1b6102ba565b91829182610335565b0390f35b6102c0565b34610c5f575b610c5b610c4a610c44366004610539565b90611c53565b610c526102ba565b91829182610335565b0390f35b6102c0565b34610c93575b610c7d610c783660046103c0565b611cad565b610c856102ba565b80610c8f816103e0565b0390f35b6102c0565b34610cc7575b610ca93660046104f4565b610cb1611cb8565b610cb96102ba565b80610cc3816103e0565b0390f35b6102c0565b34610cfb575b610ce5610ce03660046103c0565b611cfb565b610ced6102ba565b80610cf7816103e0565b0390f35b6102c0565b90565b60001b90565b610d1d610d18610d2292610d00565b610d03565b61041b565b90565b610d2f6000610d09565b90565b610d3a610d25565b90565b34610d6e575b610d4e3660046104f4565b610d6a610d59610d32565b610d616102ba565b91829182610472565b0390f35b6102c0565b34610da4575b610da0610d8f610d8a3660046103c0565b611d06565b610d976102ba565b91829182610335565b0390f35b6102c0565b34610dd8575b610dc2610dbd3660046103c0565b611d52565b610dca6102ba565b80610dd4816103e0565b0390f35b6102c0565b610df1610dec610df692610ad0565b6107d8565b610ad0565b90565b90610e0390610ddd565b600052602052604060002090565b6000610e24610e29926001506001610df9565b610756565b90565b34610e5d575b610e59610e48610e43366004610b6b565b610e11565b610e506102ba565b9182918261078c565b0390f35b6102c0565b34610e91575b610e7b610e763660046103c0565b611d8c565b610e836102ba565b80610e8d816103e0565b0390f35b6102c0565b7ff0887ba65ee2024ea881d91b74c2450ef19e1557f03bed3ea9f16b037cbe2dc990565b610ec2610e96565b90565b34610ef6575b610ed63660046104f4565b610ef2610ee1610eba565b610ee96102ba565b91829182610472565b0390f35b6102c0565b34610f2b575b610f15610f0f366004610539565b90611dc1565b610f1d6102ba565b80610f27816103e0565b0390f35b6102c0565b34610f5f575b610f49610f443660046103c0565b611df4565b610f516102ba565b80610f5b816103e0565b0390f35b6102c0565b7f523a704056dcd17bcf83bed8b68c59416dac1119be77755efe3bde0a64e46e0c90565b610f90610f64565b90565b34610fc4575b610fa43660046104f4565b610fc0610faf610f88565b610fb76102ba565b91829182610472565b0390f35b6102c0565b34610ff8575b610fe2610fdd3660046103c0565b611e2e565b610fea6102ba565b80610ff4816103e0565b0390f35b6102c0565b600090565b6110149061100e610ffd565b50611ebb565b90565b60209181520190565b60207f6d696e0000000000000000000000000000000000000000000000000000000000917f41757468436f6e74726f6c3a2043616c6c6572206973206e6f7420616e20616460008201520152565b61107b6023604092611017565b61108481611020565b0190565b61109e906020810190600081830391015261106e565b90565b156110a9575b565b6110b16102ba565b62461bcd60e51b8152806110c760048201611088565b0390fd5b6110e5906110e06110db3361117a565b6110a1565b6110e7565b565b6110f8906110f3610d25565b61121b565b565b611103906110cb565b565b600090565b6111139061041b565b90565b906111209061110a565b600052602052604060002090565b60001c90565b90565b6111436111489161112e565b611134565b90565b6111559054611137565b90565b600161117161117792611169611105565b506004611116565b0161114b565b90565b61119490611186610ffd565b5061118f610d25565b611c53565b90565b6111a96111a2610f64565b339061121b565b565b906111c6916111c16111bc82611158565b611efb565b6111c8565b565b906111d291611f0f565b50565b906111df916111ab565b565b6111fb906111f66111f13361117a565b6110a1565b6111fd565b565b61120e90611209610e96565b61121b565b565b611219906111e1565b565b9061122c611227611fba565b61038d565b6112358261038d565b1415611248575b61124591611fc7565b50565b6112506102ba565b63334bd91960e11b815280611267600482016103e0565b0390fd5b6112859061128061127b3361117a565b6110a1565b6113d5565b565b61129b6112966112a092610d00565b6107d8565b610381565b90565b6112ac90611287565b90565b60007f696e707574206973207a65726f00000000000000000000000000000000000000910152565b6112e4600d602092611017565b6112ed816112af565b0190565b61130790602081019060008183039101526112d7565b90565b15611312575b565b61131a6102ba565b62461bcd60e51b815280611330600482016112f1565b0390fd5b61134861134361134d92610d00565b6107d8565b610ad0565b90565b60007f73616d6520616464720000000000000000000000000000000000000000000000910152565b6113856009602092611017565b61138e81611350565b0190565b6113a89060208101906000818303910152611378565b90565b156113b3575b565b6113bb6102ba565b62461bcd60e51b8152806113d160048201611392565b0390fd5b61143d906113fe6113ee6113e960006112a3565b61038d565b6113f78361038d565b141561130a565b611438600161140d6000611334565b61143261141982612068565b61142b6114258761038d565b9161038d565b14156113ab565b83612087565b610803565b7fbc7cd75a20ee27fd9adebab32041f755214dbc6bffa90cc0225b39da2e5c2d3b6114666102ba565b80611470816103e0565b0390a2565b61147e9061126b565b565b9061149c92916114976114923361117a565b6110a1565b6116fc565b565b5090565b60007f50726f78793a205f73656c6563746f727327732073697a65206973207a65726f910152565b6114d660208092611017565b6114df816114a2565b0190565b6114f990602081019060008183039101526114ca565b90565b15611504575b565b61150c6102ba565b62461bcd60e51b815280611522600482016114e3565b0390fd5b6115326115379161112e565b610827565b90565b6115449054611526565b90565b60007f50726f78793a205f696d70206973206e6f7420616c6976650000000000000000910152565b61157c6018602092611017565b61158581611547565b0190565b61159f906020810190600081830391015261156f565b90565b156115aa575b565b6115b26102ba565b62461bcd60e51b8152806115c860048201611589565b0390fd5b60016115d89101610ad0565b90565b634e487b7160e01b600052603260045260246000fd5b9190811015611604575b60209002900190565b6115db565b35611613816102dc565b90565b6116226116279161112e565b610732565b90565b6116349054611616565b90565b60007f4c69717569646974795661756c7450726f78793a2073616d6520696d70000000910152565b61166c601d602092611017565b61167581611637565b0190565b61168f906020810190600081830391015261165f565b90565b1561169a575b565b6116a26102ba565b62461bcd60e51b8152806116b860048201611679565b0390fd5b906116cd60018060a01b0391610d03565b91811990169116901790565b90565b906116f16116ec6116f892610803565b6116d9565b82546116bc565b9055565b9291909261170a848261149e565b926117276117186000611334565b61172186610ad0565b116114fc565b61174261173d61173885600261080f565b61153a565b6115a2565b61174c6000611334565b5b61175685610ad0565b61175f82610ad0565b101561183c575b611835816117d5866117d0876117ca6117c5868e6117bf6117a66117a161179b6117966117569f8660039b6115f1565b611609565b88610716565b61162a565b6117b86117b28a61038d565b9161038d565b1415611692565b8c6115f1565b611609565b90610716565b6116dc565b6117f06117eb6117e6838b896115f1565b611609565b61070a565b6117f987610803565b907f14ebc1c32aa68f4d766e89f3e546cee249f7df25183fc10ab1568d91c2ce9b7b6118236102ba565b8061182d816103e0565b0390a36115cc565b905061174d565b509350505050565b9061184f9291611480565b565b600090565b61185e611851565b5061187161186c6000611334565b612068565b90565b9061188f9161188a6118853361117a565b6110a1565b611891565b565b9061189b916120b6565b565b906118a791611874565b565b6118c3906118b5610ffd565b506118be610f64565b611c53565b90565b6118e0906118db6118d63361117a565b6110a1565b6118e2565b565b6118f3906118ee610d25565b6111d5565b565b6118fe906118c6565b565b61191161190c3361117a565b6110a1565b61191961191b565b565b61192d611926610d25565b339061121b565b565b611937611900565b565b6119539061194e6119493361117a565b6110a1565b611a5f565b565b60007f41636365737369626c653a207a65726f20616464726573730000000000000000910152565b61198a6018602092611017565b61199381611955565b0190565b6119ad906020810190600081830391015261197d565b90565b156119b8575b565b6119c06102ba565b62461bcd60e51b8152806119d660048201611997565b0390fd5b60007f41636365737369626c653a2073616d652061646d696e00000000000000000000910152565b611a0f6016602092611017565b611a18816119da565b0190565b611a329060208101906000818303910152611a02565b90565b15611a3d575b565b611a456102ba565b62461bcd60e51b815280611a5b60048201611a1c565b0390fd5b611abd90611a88611a78611a7360006112a3565b61038d565b611a818361038d565b14156119b0565b611aa4611a948261038d565b611a9d3361038d565b1415611a35565b611ab6611aaf610d25565b91826111d5565b339061121b565b565b611ac890611939565b565b611ae490611adf611ada3361117a565b6110a1565b611b2d565b565b90611af260ff91610d03565b91811990169116901790565b611b0790610323565b90565b90565b90611b22611b1d611b2992611afe565b611b0a565b8254611ae6565b9055565b611b38906000611b0d565b565b611b4390611aca565b565b90611b619291611b5c611b573361117a565b6110a1565b611b63565b565b90611b6e9291612087565b565b90611b7b9291611b45565b565b611b8f90611b89611851565b50612068565b90565b90611b9c90611334565b600052602052604060002090565b611bc1611bc691611bb9611851565b506003610716565b61162a565b611bd8611bd360006112a3565b61038d565b611be18261038d565b14600014611c02575b50611bff611bfa60006001611b92565b61162a565b90565b611c15611c1082600261080f565b61153a565b611c32575b50611c2f611c2a60006001611b92565b61162a565b90565b90565b611c3d610ffd565b50611c50611c49610d25565b3390611c53565b90565b611c7b916000611c70611c7693611c68610ffd565b506004611116565b0161080f565b61153a565b90565b611c9890611c93611c8e3361117a565b6110a1565b611c9a565b565b611cab90611ca6610e96565b6111d5565b565b611cb690611c7e565b565b611cca611cc3610e96565b339061121b565b565b611ce690611ce1611cdc3361117a565b6110a1565b611ce8565b565b611cf990611cf4610f64565b6111d5565b565b611d0490611ccc565b565b611d2090611d12610ffd565b50611d1b610e96565b611c53565b90565b611d3d90611d38611d333361117a565b6110a1565b611d3f565b565b611d5090611d4b610f64565b61121b565b565b611d5b90611d23565b565b611d7790611d72611d6d3361117a565b6110a1565b611d79565b565b611d8a90611d85610e96565b611dc1565b565b611d9590611d5d565b565b90611db291611dad611da882611158565b611efb565b611db4565b565b90611dbe91611fc7565b50565b90611dcb91611d97565b565b611de790611de2611ddd3361117a565b6110a1565b611de9565b565b611df290611abf565b565b611dfd90611dcd565b565b611e1990611e14611e0f3361117a565b6110a1565b611e1b565b565b611e2c90611e27610f64565b611dc1565b565b611e3790611dff565b565b60007f63616e6e6f742072656365697665204574686572000000000000000000000000910152565b611e6e6014602092611017565b611e7781611e39565b0190565b611e919060208101906000818303910152611e61565b90565b611e9c6102ba565b62461bcd60e51b815280611eb260048201611e7b565b0390fd5b612193565b611ec3610ffd565b50611ed4637965db0b60e01b6102cf565b611edd826102cf565b1490819115611eeb575b5090565b611ef59150612212565b38611ee7565b611f0d90611f07611fba565b9061225c565b565b611f17610ffd565b50611f2b611f258383611c53565b15610323565b600014611fb3575b611f546001611f4f846000611f49866004611116565b0161080f565b611b0d565b611f77611f71611f6b611f65611fba565b9361110a565b93610803565b91610803565b917f2f8788117e7eff1d82e926ec794901d17c78024a50270940304540a733656f0d611fa16102ba565b80611fab816103e0565b0390a4600190565b5050600090565b611fc2611851565b503390565b611fcf610ffd565b50611fda8282611c53565b600014612061575b6120026000611ffd8482611ff7866004611116565b0161080f565b611b0d565b61202561201f612019612013611fba565b9361110a565b93610803565b91610803565b917ff6391f5c32d9c69d2a47ea670b442974b53935d1edc7fd64eb21e047a839171b61204f6102ba565b80612059816103e0565b0390a4600190565b5050600090565b61207f61208491612077611851565b506001610df9565b61162a565b90565b82918161209a9461209c575b50506120b6565b565b6120aa6120af926001610df9565b6116dc565b3881612093565b6121096120f77f72558d9bfba4210f9ef095c782589484151f6d90f7a81bb3cb9b33efc695d324926120f2856120ed83600261080f565b611b0d565b610803565b926121006102ba565b91829182610335565b0390a2565b60007f50726f78793a20696d706c204f522070726f78792069732066616c7365000000910152565b612143601d602092611017565b61214c8161210e565b0190565b6121669060208101906000818303910152612136565b90565b15612171575b565b6121796102ba565b62461bcd60e51b81528061218f60048201612150565b0390fd5b6121a763ffffffff60e01b60003516611baa565b60008080926121bd6121b8836112a3565b61038d565b6121c68261038d565b141580906121f5575b6121d890612169565b368280378136915af43d82803e6000146121f1575b3d90f35b3d90fd5b506121d861220b6122058461153a565b15610323565b90506121cf565b61221a610ffd565b5061223461222e6301ffc9a760e01b6102cf565b916102cf565b1490565b91602061225a9294936122536040820196600083019061077f565b0190610465565b565b9061227061226a8284611c53565b15610323565b612279575b5050565b61229a6122846102ba565b92839263e2517d3f60e01b845260048401612238565b0390fdfea26469706673582212208bb135a3221ba43df09b31eaca1c04b687ff4b5c209a1ec91d2428503ae3457a64736f6c63430008190033","linkReferences":{}},"methodIdentifiers":{"DEFAULT_ADMIN_ROLE()":"a217fddf","MINTER_ROLE()":"d5391393","OPERATOR_ROLE()":"f5b541a6","addAdmin(address)":"70480275","addMinter(address)":"983b2d56","addOperator(address)":"9870d7fe","aliveImplementation(address)":"550d01a3","getRoleAdmin(bytes32)":"248a9ca3","getSelectorImplementation2(bytes4)":"8d4fdb40","grantRole(bytes32,address)":"2f2ff15d","hasRole(bytes32,address)":"91d14854","implementation()":"5c60da1b","implementation2(uint256)":"8b8f4a65","isAdmin(address)":"24d7806c","isMinter(address)":"aa271e1a","isOperator(address)":"6d70f7ae","isOwner()":"8f32d59b","pauseProxy()":"63a8fd89","proxyImplementation(uint256)":"b911135f","removeAdmin(address)":"1785f53c","removeMinter(address)":"3092afd5","removeOperator(address)":"ac8a584a","renounceMinter()":"98650275","renounceOperator()":"2ab6f8db","renounceOwnership()":"715018a6","renounceRole(bytes32,address)":"36568abe","revokeMinter(address)":"cfbd4885","revokeOperator(address)":"fad8b32a","revokeRole(bytes32,address)":"d547741f","selectorImplementation(bytes4)":"50d2a276","setAliveImplementation2(address,bool)":"5cc797d8","setImplementation2(address,uint256,bool)":"7cd5f663","setProxyPause(bool)":"7cb00d25","setSelectorImplementations2(bytes4[],address)":"4a5df50f","supportsInterface(bytes4)":"01ffc9a7","transferAdmin(address)":"75829def","transferOwnership(address)":"f2fde38b","upgradeTo(address)":"3659cfe6"},"id":96}