{"abi":[{"type":"function","name":"REFACTOR_BOUNDARY","inputs":[],"outputs":[{"name":"","type":"uint256","internalType":"uint256"}],"stateMutability":"view"},{"type":"function","name":"REFACTOR_DIVIDER","inputs":[],"outputs":[{"name":"","type":"uint256","internalType":"uint256"}],"stateMutability":"view"},{"type":"function","name":"_allowances","inputs":[{"name":"","type":"address","internalType":"address"},{"name":"","type":"address","internalType":"address"}],"outputs":[{"name":"","type":"uint256","internalType":"uint256"}],"stateMutability":"view"},{"type":"function","name":"accountBalanceIds","inputs":[{"name":"","type":"address","internalType":"address"},{"name":"","type":"uint256","internalType":"uint256"}],"outputs":[{"name":"","type":"uint256","internalType":"uint256"}],"stateMutability":"view"},{"type":"function","name":"accountBalanceSnapshots","inputs":[{"name":"","type":"address","internalType":"address"},{"name":"","type":"uint256","internalType":"uint256"}],"outputs":[{"name":"balance","type":"uint256","internalType":"uint256"},{"name":"refactoredCount","type":"uint256","internalType":"uint256"}],"stateMutability":"view"},{"type":"function","name":"factorSnapshotIds","inputs":[{"name":"","type":"uint256","internalType":"uint256"}],"outputs":[{"name":"","type":"uint256","internalType":"uint256"}],"stateMutability":"view"},{"type":"function","name":"factorSnapshots","inputs":[{"name":"","type":"uint256","internalType":"uint256"}],"outputs":[{"name":"factor","type":"uint256","internalType":"uint256"},{"name":"refactorCount","type":"uint256","internalType":"uint256"}],"stateMutability":"view"},{"type":"function","name":"lastSnapshotId","inputs":[],"outputs":[{"name":"","type":"uint256","internalType":"uint256"}],"stateMutability":"view"},{"type":"function","name":"name","inputs":[],"outputs":[{"name":"","type":"string","internalType":"string"}],"stateMutability":"view"},{"type":"function","name":"seigManager","inputs":[],"outputs":[{"name":"","type":"address","internalType":"address"}],"stateMutability":"view"},{"type":"function","name":"symbol","inputs":[],"outputs":[{"name":"","type":"string","internalType":"string"}],"stateMutability":"view"},{"type":"function","name":"totalSupplySnapshotIds","inputs":[{"name":"","type":"uint256","internalType":"uint256"}],"outputs":[{"name":"","type":"uint256","internalType":"uint256"}],"stateMutability":"view"},{"type":"function","name":"totalSupplySnapshots","inputs":[{"name":"","type":"uint256","internalType":"uint256"}],"outputs":[{"name":"balance","type":"uint256","internalType":"uint256"},{"name":"refactoredCount","type":"uint256","internalType":"uint256"}],"stateMutability":"view"}],"bytecode":{"object":"0x608060405234601d575b600f6021565b610b4261002d8239610b4290f35b6027565b60405190565b600080fdfe60806040526004361015610013575b610b07565b61001e6000356100fe565b8062d87a9c146100f9575b8063024c2ddd146100f4575b80630461fdc5146100ef575b806306fdde03146100ea575b806356fabf68146100e5575b80635deaecec146100e0575b8063614db8b2146100db575b806369f499b1146100d6575b80636fb7f558146100d1575b8063837afbc0146100cc575b806395d89b41146100c7575b8063b7c246d7146100c2575b63b7d78b1a146100bd575b61000e565b610ad0565b610a70565b6109f8565b6109b3565b61096e565b6108d4565b61084c565b6107e1565b610769565b61068d565b610432565b6102de565b610185565b60e01c90565b60405190565b600080fd5b600080fd5b6000910312610120575b565b61010f565b90565b90565b90565b61014261013d61014792610125565b61012b565b610128565b90565b610154600261012e565b90565b61015f61014a565b90565b61016b90610128565b9052565b919061018390600060208501940190610162565b565b346101b6575b610196366004610114565b6101b26101a1610157565b6101a9610104565b9182918261016f565b0390f35b61010a565b60018060a01b03901690565b6101d0906101bb565b90565b6101dc816101c7565b9014156101e6575b565b600080fd5b905035906101f8826101d3565b565b9190604083820312610224575b80602061021a61022193600087016101eb565b94016101eb565b90565b61010f565b61023d610238610242926101bb565b61012b565b6101bb565b90565b61024e90610229565b90565b61025a90610245565b90565b9061026790610251565b600052602052604060002090565b9061027f90610251565b600052602052604060002090565b1c90565b90565b6102a49060086102a9930261028d565b610291565b90565b906102b79154610294565b90565b6102d66102db926102d1600093600350600361025d565b610275565b6102ac565b90565b34610310575b61030c6102fb6102f53660046101fa565b906102ba565b610303610104565b9182918261016f565b0390f35b61010a565b61031e81610128565b901415610328575b565b600080fd5b9050359061033a82610315565b565b9190604083820312610366575b80602061035c61036393600087016101eb565b940161032d565b90565b61010f565b9061037590610251565b600052602052604060002090565b61039761039261039c92610128565b61012b565b610128565b90565b906103a990610383565b600052602052604060002090565b60001c90565b6103c96103ce916103b7565b610291565b90565b6103db90546103bd565b90565b906103ed6103f292600961036b565b61039f565b9061040b6001610404600085016103d1565b93016103d1565b90565b91602061043092949361042960408201966000830190610162565b0190610162565b565b34610465575b61044c61044636600461033c565b906103de565b90610461610458610104565b9283928361040e565b0390f35b61010a565b634e487b7160e01b600052600060045260246000fd5b634e487b7160e01b600052602260045260246000fd5b90600160028304921680156104b8575b6020831090146104b3575b565b610480565b91607f9016916104a6565b60209181520190565b8050600052602060002090565b90600092918054906104f46104ed83610496565b80946104c3565b9160018116908160001461054f575b50600114610511575b505050565b61051e91929394506104cc565b916000925b818410610537575b5050019038808061050c565b60018160209295939554848601520191019290610523565b92949550505060ff1990168252151560200290019038808061050c565b90610576916104d9565b90565b601f801991011690565b634e487b7160e01b600052604160045260246000fd5b906105a390610579565b810190811067ffffffffffffffff8211176105be575b604052565b610583565b906105e36105dc926105d3610104565b9384809261056c565b0383610599565b565b90600090116105fb575b6105f8906105c3565b90565b61046a565b61060c600060016105e5565b90565b5190565b60209181520190565b60005b838110610631575b5050906000910152565b80602091830151818501520161061f565b61066161066a60209361066f936106588161060f565b93848093610613565b9586910161061c565b610579565b900190565b61068a9160208201916000818403910152610642565b90565b346106be575b61069e366004610114565b6106ba6106a9610600565b6106b1610104565b91829182610674565b0390f35b61010a565b906020828203126106de575b60006106db920161032d565b90565b61010f565b634e487b7160e01b600052603260045260246000fd5b5490565b8050600052602060002090565b610713816106f9565b821015610730575b6107266001916106fd565b9102900190600090565b6106e3565b60065060005061074560066106f9565b811015610764575b61075b61076191600661070a565b906102ac565b90565b600080fd5b3461079a575b6107966107856107803660046106c3565b610735565b61078d610104565b9182918261016f565b0390f35b61010a565b906107a990610383565b600052602052604060002090565b6107c590600750600761079f565b906107de60016107d7600085016103d1565b93016103d1565b90565b34610813575b6107fa6107f53660046106c3565b6107b7565b9061080f610806610104565b9283928361040e565b0390f35b61010a565b60045060005061082860046106f9565b811015610847575b61083e61084491600461070a565b906102ac565b90565b600080fd5b3461087d575b6108796108686108633660046106c3565b610818565b610870610104565b9182918261016f565b0390f35b61010a565b9061088c90610251565b600052602052604060002090565b6108a8906008600050610882565b6108b1816106f9565b8210156108cf575b6108cc916108c69161070a565b906102ac565b90565b600080fd5b34610906575b6109026108f16108eb36600461033c565b9061089a565b6108f9610104565b9182918261016f565b0390f35b61010a565b60018060a01b03901690565b61092790600861092c930261028d565b61090b565b90565b9061093a9154610917565b90565b61094860008061092f565b90565b610954906101c7565b9052565b919061096c9060006020850194019061094b565b565b3461099f575b61097f366004610114565b61099b61098a61093d565b610992610104565b91829182610958565b0390f35b61010a565b6109b06000600a6102ac565b90565b346109e4575b6109c4366004610114565b6109e06109cf6109a4565b6109d7610104565b9182918261016f565b0390f35b61010a565b6109f5600060026105e5565b90565b34610a29575b610a09366004610114565b610a25610a146109e9565b610a1c610104565b91829182610674565b0390f35b61010a565b90565b610a45610a40610a4a92610a2e565b61012b565b610128565b90565b610a626b204fce5e3e25026110000000610a31565b90565b610a6d610a4d565b90565b34610aa1575b610a81366004610114565b610a9d610a8c610a65565b610a94610104565b9182918261016f565b0390f35b61010a565b610ab490600550600561039f565b90610acd6001610ac6600085016103d1565b93016103d1565b90565b34610b02575b610ae9610ae43660046106c3565b610aa6565b90610afe610af5610104565b9283928361040e565b0390f35b61010a565b600080fdfea2646970667358221220813e021058ebd438dcdb5ca975e3b4fbc8f4ecf1bf2e6c0bd4ebe6c53acf22de64736f6c63430008190033","linkReferences":{}},"methodIdentifiers":{"REFACTOR_BOUNDARY()":"b7c246d7","REFACTOR_DIVIDER()":"00d87a9c","_allowances(address,address)":"024c2ddd","accountBalanceIds(address,uint256)":"69f499b1","accountBalanceSnapshots(address,uint256)":"0461fdc5","factorSnapshotIds(uint256)":"56fabf68","factorSnapshots(uint256)":"5deaecec","lastSnapshotId()":"837afbc0","name()":"06fdde03","seigManager()":"6fb7f558","symbol()":"95d89b41","totalSupplySnapshotIds(uint256)":"614db8b2","totalSupplySnapshots(uint256)":"b7d78b1a"},"id":99}