{"abi":[{"type":"function","name":"MINTER_ROLE","inputs":[],"outputs":[{"name":"","type":"bytes32","internalType":"bytes32"}],"stateMutability":"view"}],"bytecode":{"object":"0x608060405234601d575b600f6021565b61010761002d823961010790f35b6027565b60405190565b600080fdfe608060405260043610156011575b60cc565b601a600035602c565b63d5391393146028575b600d565b60a0565b60e01c90565b60405190565b600080fd5b600080fd5b6000910312604d575b565b603d565b7ff0887ba65ee2024ea881d91b74c2450ef19e1557f03bed3ea9f16b037cbe2dc990565b607b6051565b90565b90565b608890607e565b9052565b9190609e906000602085019401906081565b565b3460c8575b60ae3660046042565b60c460b66075565b60bc6032565b91829182608c565b0390f35b6038565b600080fdfea264697066735822122060cd1d66d47c2e6623f78bd8c513a41efda6fd2eb9e0e775d088b3b7107fb0ba64736f6c63430008190033","linkReferences":{}},"methodIdentifiers":{"MINTER_ROLE()":"d5391393"},"id":71}