{"abi":[{"type":"function","name":"MINTER_ROLE","inputs":[],"outputs":[{"name":"","type":"bytes32","internalType":"bytes32"}],"stateMutability":"view"},{"type":"function","name":"OPERATOR_ROLE","inputs":[],"outputs":[{"name":"","type":"bytes32","internalType":"bytes32"}],"stateMutability":"view"}],"bytecode":{"object":"0x608060405234601d575b600f6021565b61019661002d823961019690f35b6027565b60405190565b600080fdfe60806040526004361015610013575b61015b565b61001e600035610044565b8063d53913931461003f575b63f5b541a61461003a575b61000e565b610125565b6100c0565b60e01c90565b60405190565b600080fd5b600080fd5b6000910312610066575b565b610055565b7ff0887ba65ee2024ea881d91b74c2450ef19e1557f03bed3ea9f16b037cbe2dc990565b61009761006b565b90565b90565b6100a69061009a565b9052565b91906100be9060006020850194019061009d565b565b346100f1575b6100d136600461005a565b6100ed6100dc61008f565b6100e461004a565b918291826100aa565b0390f35b610050565b7f523a704056dcd17bcf83bed8b68c59416dac1119be77755efe3bde0a64e46e0c90565b6101226100f6565b90565b34610156575b61013636600461005a565b61015261014161011a565b61014961004a565b918291826100aa565b0390f35b610050565b600080fdfea2646970667358221220286038e4912e8db244a785a280cf9fd61884ae562e068002d18cf4270b22a9b864736f6c63430008190033","linkReferences":{}},"methodIdentifiers":{"MINTER_ROLE()":"d5391393","OPERATOR_ROLE()":"f5b541a6"},"id":75}