{"abi":[{"type":"function","name":"ADMIN_ROLE","inputs":[],"outputs":[{"name":"","type":"bytes32","internalType":"bytes32"}],"stateMutability":"view"},{"type":"function","name":"DECIMALS","inputs":[],"outputs":[{"name":"","type":"uint256","internalType":"uint256"}],"stateMutability":"view"},{"type":"function","name":"DEFAULT_ADMIN_ROLE","inputs":[],"outputs":[{"name":"","type":"bytes32","internalType":"bytes32"}],"stateMutability":"view"},{"type":"function","name":"PAUSE_ROLE","inputs":[],"outputs":[{"name":"","type":"bytes32","internalType":"bytes32"}],"stateMutability":"view"},{"type":"function","name":"addAdmin","inputs":[{"name":"account","type":"address","internalType":"address"}],"outputs":[],"stateMutability":"nonpayable"},{"type":"function","name":"addPauser","inputs":[{"name":"account","type":"address","internalType":"address"}],"outputs":[],"stateMutability":"nonpayable"},{"type":"function","name":"aliveImplementation","inputs":[{"name":"","type":"address","internalType":"address"}],"outputs":[{"name":"","type":"bool","internalType":"bool"}],"stateMutability":"view"},{"type":"function","name":"getPaused","inputs":[],"outputs":[{"name":"","type":"bool","internalType":"bool"}],"stateMutability":"view"},{"type":"function","name":"getRoleAdmin","inputs":[{"name":"role","type":"bytes32","internalType":"bytes32"}],"outputs":[{"name":"","type":"bytes32","internalType":"bytes32"}],"stateMutability":"view"},{"type":"function","name":"getStakingIndex","inputs":[],"outputs":[{"name":"","type":"uint256","internalType":"uint256"}],"stateMutability":"view"},{"type":"function","name":"getTonAddress","inputs":[],"outputs":[{"name":"","type":"address","internalType":"address"}],"stateMutability":"view"},{"type":"function","name":"getTreasuryAddress","inputs":[],"outputs":[{"name":"","type":"address","internalType":"address"}],"stateMutability":"view"},{"type":"function","name":"getWstonAddress","inputs":[],"outputs":[{"name":"","type":"address","internalType":"address"}],"stateMutability":"view"},{"type":"function","name":"grantRole","inputs":[{"name":"role","type":"bytes32","internalType":"bytes32"},{"name":"account","type":"address","internalType":"address"}],"outputs":[],"stateMutability":"nonpayable"},{"type":"function","name":"hasRole","inputs":[{"name":"role","type":"bytes32","internalType":"bytes32"},{"name":"account","type":"address","internalType":"address"}],"outputs":[{"name":"","type":"bool","internalType":"bool"}],"stateMutability":"view"},{"type":"function","name":"initialize","inputs":[{"name":"_ton","type":"address","internalType":"address"},{"name":"_wston","type":"address","internalType":"address"},{"name":"_initialStakingIndex","type":"uint256","internalType":"uint256"},{"name":"_treasury","type":"address","internalType":"address"}],"outputs":[],"stateMutability":"nonpayable"},{"type":"function","name":"isAdmin","inputs":[{"name":"account","type":"address","internalType":"address"}],"outputs":[{"name":"","type":"bool","internalType":"bool"}],"stateMutability":"view"},{"type":"function","name":"isOwner","inputs":[],"outputs":[{"name":"","type":"bool","internalType":"bool"}],"stateMutability":"view"},{"type":"function","name":"isPauser","inputs":[{"name":"account","type":"address","internalType":"address"}],"outputs":[{"name":"","type":"bool","internalType":"bool"}],"stateMutability":"view"},{"type":"function","name":"pause","inputs":[],"outputs":[],"stateMutability":"nonpayable"},{"type":"function","name":"pauseProxy","inputs":[],"outputs":[{"name":"","type":"bool","internalType":"bool"}],"stateMutability":"view"},{"type":"function","name":"proxyImplementation","inputs":[{"name":"","type":"uint256","internalType":"uint256"}],"outputs":[{"name":"","type":"address","internalType":"address"}],"stateMutability":"view"},{"type":"function","name":"removeAdmin","inputs":[],"outputs":[],"stateMutability":"nonpayable"},{"type":"function","name":"removePauser","inputs":[{"name":"account","type":"address","internalType":"address"}],"outputs":[],"stateMutability":"nonpayable"},{"type":"function","name":"renounceRole","inputs":[{"name":"role","type":"bytes32","internalType":"bytes32"},{"name":"callerConfirmation","type":"address","internalType":"address"}],"outputs":[],"stateMutability":"nonpayable"},{"type":"function","name":"revokeRole","inputs":[{"name":"role","type":"bytes32","internalType":"bytes32"},{"name":"account","type":"address","internalType":"address"}],"outputs":[],"stateMutability":"nonpayable"},{"type":"function","name":"selectorImplementation","inputs":[{"name":"","type":"bytes4","internalType":"bytes4"}],"outputs":[{"name":"","type":"address","internalType":"address"}],"stateMutability":"view"},{"type":"function","name":"setTon","inputs":[{"name":"_ton","type":"address","internalType":"address"}],"outputs":[],"stateMutability":"nonpayable"},{"type":"function","name":"setTreasury","inputs":[{"name":"_treasury","type":"address","internalType":"address"}],"outputs":[],"stateMutability":"nonpayable"},{"type":"function","name":"setWston","inputs":[{"name":"_wston","type":"address","internalType":"address"}],"outputs":[],"stateMutability":"nonpayable"},{"type":"function","name":"supportsInterface","inputs":[{"name":"interfaceId","type":"bytes4","internalType":"bytes4"}],"outputs":[{"name":"","type":"bool","internalType":"bool"}],"stateMutability":"view"},{"type":"function","name":"swap","inputs":[{"name":"wstonAmount","type":"uint256","internalType":"uint256"}],"outputs":[],"stateMutability":"nonpayable"},{"type":"function","name":"ton","inputs":[],"outputs":[{"name":"","type":"address","internalType":"address"}],"stateMutability":"view"},{"type":"function","name":"transferOwnership","inputs":[{"name":"newOwner","type":"address","internalType":"address"}],"outputs":[],"stateMutability":"nonpayable"},{"type":"function","name":"treasury","inputs":[],"outputs":[{"name":"","type":"address","internalType":"address"}],"stateMutability":"view"},{"type":"function","name":"unpause","inputs":[],"outputs":[],"stateMutability":"nonpayable"},{"type":"function","name":"updateStakingIndex","inputs":[{"name":"newIndex","type":"uint256","internalType":"uint256"}],"outputs":[],"stateMutability":"nonpayable"},{"type":"function","name":"wston","inputs":[],"outputs":[{"name":"","type":"address","internalType":"address"}],"stateMutability":"view"},{"type":"event","name":"RoleAdminChanged","inputs":[{"name":"role","type":"bytes32","indexed":true,"internalType":"bytes32"},{"name":"previousAdminRole","type":"bytes32","indexed":true,"internalType":"bytes32"},{"name":"newAdminRole","type":"bytes32","indexed":true,"internalType":"bytes32"}],"anonymous":false},{"type":"event","name":"RoleGranted","inputs":[{"name":"role","type":"bytes32","indexed":true,"internalType":"bytes32"},{"name":"account","type":"address","indexed":true,"internalType":"address"},{"name":"sender","type":"address","indexed":true,"internalType":"address"}],"anonymous":false},{"type":"event","name":"RoleRevoked","inputs":[{"name":"role","type":"bytes32","indexed":true,"internalType":"bytes32"},{"name":"account","type":"address","indexed":true,"internalType":"address"},{"name":"sender","type":"address","indexed":true,"internalType":"address"}],"anonymous":false},{"type":"event","name":"StakingIndexUpdated","inputs":[{"name":"newIndex","type":"uint256","indexed":false,"internalType":"uint256"}],"anonymous":false},{"type":"event","name":"SwappedWstonForTon","inputs":[{"name":"user","type":"address","indexed":true,"internalType":"address"},{"name":"tonAmount","type":"uint256","indexed":false,"internalType":"uint256"},{"name":"wstonAmount","type":"uint256","indexed":false,"internalType":"uint256"}],"anonymous":false},{"type":"error","name":"AccessControlBadConfirmation","inputs":[]},{"type":"error","name":"AccessControlUnauthorizedAccount","inputs":[{"name":"account","type":"address","internalType":"address"},{"name":"neededRole","type":"bytes32","internalType":"bytes32"}]},{"type":"error","name":"ContractTonBalanceOrAllowanceTooLow","inputs":[]},{"type":"error","name":"FailedToApproveTon","inputs":[{"name":"amount","type":"uint256","internalType":"uint256"}]},{"type":"error","name":"FailedToTransferTON","inputs":[]},{"type":"error","name":"ReentrancyGuardReentrantCall","inputs":[]},{"type":"error","name":"SameAdmin","inputs":[]},{"type":"error","name":"SameOwner","inputs":[]},{"type":"error","name":"WrongStakingIndex","inputs":[]},{"type":"error","name":"WstonAllowanceTooLow","inputs":[]},{"type":"error","name":"WstonBalanceTooLow","inputs":[]},{"type":"error","name":"ZeroAddress","inputs":[]}],"bytecode":{"object":"0x608060405234601f57600e6024565b6040516117ac61006682396117ac90f35b600080fd5b602a602c565b565b602a6057565b603c603c603c9290565b90565b603c60016032565b90603c603c6053926032565b9055565b602a605f603f565b6005604756fe6080604052600436101561001257600080fd5b60003560e01c806301ffc9a714610272578063044bc7791461026d578063247ee38814610268578063248a9ca31461026357806324d7806c1461025e5780632e0f2625146102595780632f2ff15d1461025457806336568abe1461024f57806336b17e131461024a578063389ed267146102455780633f4ba83a1461024057806346fbf68e1461023b5780634d288fec146102365780635074e0c81461023157806350d2a2761461022c578063550d01a31461022757806361d027b31461022257806363a8fd891461021d5780636805b84b146102185780636ae638d0146102135780636b2c0f551461020e578063704802751461020957806375b238fc1461020457806382dc1ec4146101ff5780638456cb59146101fa5780638f32d59b146101f557806391d14854146101f057806394b918de146101eb5780639a202d47146101e6578063a217fddf146101e1578063b911135f146101dc578063be203094146101d7578063caa78a86146101d2578063cc48b947146101cd578063d547741f146101c8578063e0024604146101c3578063f0f44260146101be5763f2fde38b0361027757610914565b6108fc565b6108e1565b6108c8565b6108ad565b610889565b61086d565b61081d565b6107e8565b6107be565b6107a6565b61078a565b61076f565b610757565b61073f565b610724565b6106e0565b6106c8565b6106ad565b610692565b610677565b610651565b61062a565b6105b0565b610566565b61054e565b610533565b61051b565b610500565b6104b9565b610475565b61045c565b61041e565b6103da565b6103af565b61036b565b61031a565b6102b9565b600080fd5b6001600160e01b031981165b0361027757565b9050359061029c8261027c565b565b90602082820312610277576102b29161028f565b90565b9052565b34610277576102e66102d46102cf36600461029e565b61092c565b60405191829182901515815260200190565b0390f35b600091031261027757565b6001600160a01b031690565b6102b5906102f5565b60208101929161029c9190610301565b346102775761032a3660046102ea565b6102e6610335610948565b6040519182918261030a565b610288816102f5565b9050359061029c82610341565b90602082820312610277576102b29161034a565b346102775761038361037e366004610357565b610a02565b604051005b80610288565b9050359061029c82610388565b90602082820312610277576102b29161038e565b34610277576102e66103ca6103c536600461039b565b610a22565b6040519182918290815260200190565b34610277576102e66102d46103f0366004610357565b610a41565b6102b26102b26102b29290565b6102b2676765c793fa10079d601b1b6103f5565b6102b2610402565b346102775761042e3660046102ea565b6102e66103ca610416565b9190604083820312610277576102b2906020610455828661038e565b940161034a565b346102775761038361046f366004610439565b90610a75565b3461027757610383610488366004610439565b90610a7f565b6102b2916008021c6001600160a01b031690565b906102b2915461048e565b6102b2600060076104a2565b34610277576104c93660046102ea565b6102e66103356104ad565b7ffcb9fcbfa83b897fb2d5cf4b58962164105c1e71489a37ef3ae0db3fdce576f690565b6102b26104d4565b34610277576105103660046102ea565b6102e66103ca6104f8565b346102775761052b3660046102ea565b610383610b6d565b34610277576102e66102d4610549366004610357565b610b75565b3461027757610383610561366004610357565b610b9b565b34610277576105763660046102ea565b6102e66103ca610ba4565b906001600160e01b0319165b600052602052604060002090565b60006105ab6102b2926003610581565b6104a2565b34610277576102e66103356105c636600461029e565b61059b565b6102b2906102f5906001600160a01b031682565b6102b2906105cb565b6102b2906105df565b9061058d906105e8565b6102b2916008021c5b60ff1690565b906102b291546105fb565b60006106256102b29260026105f1565b61060a565b34610277576102e66102d4610640366004610357565b610615565b6102b2600060086104a2565b34610277576106613660046102ea565b6102e6610335610645565b6102b260008061060a565b34610277576106873660046102ea565b6102e66102d461066c565b34610277576106a23660046102ea565b6102e66102d4610bae565b34610277576106bd3660046102ea565b6102e6610335610bb8565b34610277576103836106db366004610357565b610c69565b34610277576103836106f3366004610357565b610c92565b7fdf8b4c520ffe197c5343c6f5aec59570151ef9a492f2c624fd45ddde6135ec4290565b6102b26106f8565b34610277576107343660046102ea565b6102e66103ca61071c565b3461027757610383610752366004610357565b610cb6565b34610277576107673660046102ea565b610383610d39565b346102775761077f3660046102ea565b6102e66102d4610d41565b34610277576102e66102d46107a0366004610439565b90610d5f565b34610277576103836107b936600461039b565b6111dc565b34610277576107ce3660046102ea565b610383611263565b6102b260006103f5565b6102b26107d6565b34610277576107f83660046102ea565b6102e66103ca6107e0565b9061058d906103f5565b60006105ab6102b2926001610803565b34610277576102e661033561083336600461039b565b61080d565b6080818303126102775761084c828261034a565b926102b261085d846020850161034a565b936060610455826040870161038e565b3461027757610383610880366004610838565b929190916112ee565b346102775761038361089c36600461039b565b6113bd565b6102b2600060066104a2565b34610277576108bd3660046102ea565b6102e66103356108a1565b34610277576103836108db366004610439565b906113e1565b34610277576108f13660046102ea565b6102e66103356113eb565b346102775761038361090f366004610357565b61140f565b3461027757610383610927366004610357565b6114ba565b6102b2906114c3565b6102b2906102f5565b6102b29054610935565b6102b2600761093e565b1561095957565b60405162461bcd60e51b8152602060048201526024808201527f41757468436f6e74726f6c3a2043616c6c6572206973206e6f7420746865206f6044820152633bb732b960e11b6064820152608490fd5b0390fd5b61029c906109c26109bd610d41565b610952565b6109f7565b906001600160a01b03905b9181191691161790565b906109ec6102b26109f3926105e8565b82546109c7565b9055565b61029c9060076109dc565b61029c906109ae565b9061058d565b6102b29081565b6102b29054610a11565b6001610a3b6102b292610a33600090565b506004610a0b565b01610a18565b6102b290610a4d6106f8565b610d5f565b9061029c91610a68610a6382610a22565b6114fd565b90610a7291611508565b50565b9061029c91610a52565b90610a8e336102f5565b6102f5565b610a97826102f5565b03610aa557610a729161158a565b60405163334bd91960e11b8152600490fd5b610ac26109bd610d41565b61029c610b23565b6102b29060081c610604565b6102b29054610aca565b15610ae757565b60405162461bcd60e51b815260206004820152601460248201527314185d5cd8589b194e881b9bdd081c185d5cd95960621b6044820152606490fd5b610b35610b30600a610ad6565b610ae0565b61029c610b61565b9061ff009060081b6109d2565b90610b5a6102b26109f392151590565b8254610b3d565b61029c6000600a610b4a565b61029c610ab7565b6102b290610a4d6104d4565b61029c90610b906109bd610d41565b61029c9060066109dc565b61029c90610b81565b6102b26009610a18565b6102b2600a610ad6565b6102b2600661093e565b15610bc957565b60405162461bcd60e51b815260206004820152602360248201527f41757468436f6e74726f6c3a2043616c6c6572206973206e6f7420612070617560448201526239b2b960e91b6064820152608490fd5b61029c90610c30610c296104d4565b3390610d5f565b8015610c45575b610c4090610bc2565b610c58565b50610c40610c51610d41565b9050610c37565b61029c90610c646104d4565b610a7f565b61029c90610c1a565b61029c90610c816109bd610d41565b61029c90610c8d6106f8565b610a75565b61029c90610c72565b61029c90610caa6109bd610d41565b61029c90610c8d6104d4565b61029c90610c9b565b610cca6109bd610d41565b61029c610d11565b15610cd957565b60405162461bcd60e51b815260206004820152601060248201526f14185d5cd8589b194e881c185d5cd95960821b6044820152606490fd5b610d2a610d25610d21600a610ad6565b1590565b610cd2565b61029c61029c6001600a610b4a565b61029c610cbf565b6102b2610c296107d6565b6102b290610604565b6102b29054610d4c565b6102b2916000610d74610d7a93610a33600090565b016105f1565b610d55565b610d9090610d8b6115f1565b610eb7565b61029c611631565b634e487b7160e01b600052604160045260246000fd5b90601f01601f1916810190811067ffffffffffffffff821117610dd057604052565b610d98565b9050519061029c82610388565b90602082820312610277576102b291610dd5565b91602061029c929493610e1160408201966000830190610301565b0190610301565b6040513d6000823e3d90fd5b634e487b7160e01b600052601160045260246000fd5b81810292918115918404141715610e4d57565b610e24565b634e487b7160e01b600052601260045260246000fd5b8115610e72570490565b610e52565b801515610288565b9050519061029c82610e77565b90602082820312610277576102b291610e7f565b90815260408101929161029c9160200152565b0152565b610eff6020610ed1610ecc610ecc600761093e565b6105e8565b610eda306105e8565b90610ee460405190565b93849283918291636eb1769f60e11b83523360048401610df6565b03915afa908115611125576000916111bd575b5081116111ab57610f29610ecc610ecc600761093e565b906370a08231916020610f3b60405190565b8092610f478660e01b90565b82528180610f58336004830161030a565b03915afa9081156111255760009161118c575b50811161117a57610fa6610f99610f8b610f856009610a18565b84610e3a565b610f93610402565b90610e68565b610f93633b9aca006103f5565b91610fb7610ecc610ecc600861093e565b6020610fc260405190565b6312608dfb60e01b81526004810186905291829060249082906000905af1801561112557610ff69160009161115157501590565b61112a57602061103f91611010610ecc610ecc600661093e565b61103461101d600861093e565b9261102760405190565b9586948593849360e01b90565b83526004830161030a565b03915afa908115611125576000916110f6575b5082116110e4578061109e7feb53aa1346bf80833deed132609343df1b6cdb928bd868803c6aa09a8ebeb60b9261108c610ecc600761093e565b611096600861093e565b9033906116b1565b6110c0836110af610ecc600661093e565b6110b9600861093e565b33916116b1565b6110c9336105e8565b926110df6110d660405190565b92839283610ea0565b0390a2565b6040516364a7800d60e11b8152600490fd5b611118915060203d60201161111e575b6111108183610dae565b810190610de2565b38611052565b503d611106565b610e18565b6109aa8361113760405190565b638ef9226b60e01b81529182916004830190815260200190565b610d21915060203d602011611173575b61116b8183610dae565b810190610e8c565b503d611161565b6040516316a5d17360e11b8152600490fd5b6111a5915060203d60201161111e576111108183610dae565b38610f6b565b6040516382cf63f960e01b8152600490fd5b6111d6915060203d60201161111e576111108183610dae565b38610f12565b61029c90610d7f565b156111ec57565b60405162461bcd60e51b815260206004820152602360248201527f41757468436f6e74726f6c3a2043616c6c6572206973206e6f7420616e20616460448201526236b4b760e91b6064820152608490fd5b61124e61124933610a41565b6111e5565b61029c61029c61125c6106f8565b3390610a7f565b61029c61123d565b1561127257565b60405162461bcd60e51b8152602060048201526013602482015272185b1c9958591e481a5b9a5d1a585b1a5e9959606a1b6044820152606490fd5b90600019906109d2565b906112c76102b26109f3926103f5565b82546112ad565b9060ff906109d2565b906112e76102b26109f392151590565b82546112ce565b9261133361133a9261132c6113419661131261130d610d21600a610d55565b61126b565b61132461131d6107d6565b3390611508565b5060066109dc565b60076109dc565b60086109dc565b60096112b7565b61029c6001600a6112d7565b61029c9061135c6109bd610d41565b611370676765c793fa10079d601b1b6103f5565b81106113ab576113a6816103ca7f30ce0c4920695ae7b30f6304002cac26f3bffd83b1b84b281d4495ec83956c499360096112b7565b0390a1565b6040516373fd31f360e01b8152600490fd5b61029c9061134d565b9061029c916113d7610a6382610a22565b90610a729161158a565b9061029c916113c6565b6102b2600861093e565b61029c906114046109bd610d41565b61029c9060086109dc565b61029c906113f5565b61029c906114276109bd610d41565b611442565b6102f56102b26102b29290565b6102b29061142c565b61144f610a896000611439565b611458826102f5565b146114a857611466816102f5565b61146f336102f5565b146114965761029c9061125c6114836107d6565b9161148e8184610a75565b610c8d6106f8565b604051630a98f1f360e21b8152600490fd5b60405163d92e233d60e01b8152600490fd5b61029c90611418565b637965db0b60e01b6001600160e01b03198216149081156114e2575090565b6102b291506001600160e01b0319166301ffc9a760e01b1490565b61029c90339061173e565b611515610d218383610d5f565b15611583576115356001611530846000610d74866004610a0b565b6112d7565b61154f611549611543339390565b936105e8565b916105e8565b917f2f8788117e7eff1d82e926ec794901d17c78024a50270940304540a733656f0d61157a60405190565b600090a4600190565b5050600090565b6115948282610d5f565b15611583576115ae60006115308482610d74866004610a0b565b6115bc611549611543339390565b917ff6391f5c32d9c69d2a47ea670b442974b53935d1edc7fd64eb21e047a839171b61157a60405190565b6102b260026103f5565b6115fb6005610a18565b6116036115e7565b9081146116155761029c9060056112b7565b604051633ee5aeb560e01b8152600490fd5b6102b260016103f5565b61029c61163c611627565b60056112b7565b604090610eb361029c949695939661166360608401986000850190610301565b6020830190610301565b1561167457565b60405162461bcd60e51b8152602060048201526015602482015274151bdad95b881d1c985b9cd9995c8819985a5b1959605a1b6044820152606490fd5b9060209260006116c46116e896946105e8565b926116ce60405190565b968795869485936323b872dd60e01b855260048501611643565b03925af180156111255761029c91600091611704575b5061166d565b61171d915060203d6020116111735761116b8183610dae565b386116fe565b91602061029c929493610eb360408201966000830190610301565b9061174c610d218284610d5f565b611754575050565b6109aa61176060405190565b63e2517d3f60e01b81529283926004840161172356fea2646970667358221220e068a7b42cfda9c914ec634a0a0e6a806ce6fe5933e8a69a52ee181b2b94c1fb64736f6c63430008190033","linkReferences":{}},"methodIdentifiers":{"ADMIN_ROLE()":"75b238fc","DECIMALS()":"2e0f2625","DEFAULT_ADMIN_ROLE()":"a217fddf","PAUSE_ROLE()":"389ed267","addAdmin(address)":"70480275","addPauser(address)":"82dc1ec4","aliveImplementation(address)":"550d01a3","getPaused()":"6805b84b","getRoleAdmin(bytes32)":"248a9ca3","getStakingIndex()":"5074e0c8","getTonAddress()":"6ae638d0","getTreasuryAddress()":"e0024604","getWstonAddress()":"044bc779","grantRole(bytes32,address)":"2f2ff15d","hasRole(bytes32,address)":"91d14854","initialize(address,address,uint256,address)":"be203094","isAdmin(address)":"24d7806c","isOwner()":"8f32d59b","isPauser(address)":"46fbf68e","pause()":"8456cb59","pauseProxy()":"63a8fd89","proxyImplementation(uint256)":"b911135f","removeAdmin()":"9a202d47","removePauser(address)":"6b2c0f55","renounceRole(bytes32,address)":"36568abe","revokeRole(bytes32,address)":"d547741f","selectorImplementation(bytes4)":"50d2a276","setTon(address)":"4d288fec","setTreasury(address)":"f0f44260","setWston(address)":"247ee388","supportsInterface(bytes4)":"01ffc9a7","swap(uint256)":"94b918de","ton()":"cc48b947","transferOwnership(address)":"f2fde38b","treasury()":"61d027b3","unpause()":"3f4ba83a","updateStakingIndex(uint256)":"caa78a86","wston()":"36b17e13"},"id":80}