{"abi":[{"type":"function","name":"ADMIN_ROLE","inputs":[],"outputs":[{"name":"","type":"bytes32","internalType":"bytes32"}],"stateMutability":"view"},{"type":"function","name":"DEFAULT_ADMIN_ROLE","inputs":[],"outputs":[{"name":"","type":"bytes32","internalType":"bytes32"}],"stateMutability":"view"},{"type":"function","name":"PAUSE_ROLE","inputs":[],"outputs":[{"name":"","type":"bytes32","internalType":"bytes32"}],"stateMutability":"view"},{"type":"function","name":"addAdmin","inputs":[{"name":"account","type":"address","internalType":"address"}],"outputs":[],"stateMutability":"nonpayable"},{"type":"function","name":"addPauser","inputs":[{"name":"account","type":"address","internalType":"address"}],"outputs":[],"stateMutability":"nonpayable"},{"type":"function","name":"aliveImplementation","inputs":[{"name":"","type":"address","internalType":"address"}],"outputs":[{"name":"","type":"bool","internalType":"bool"}],"stateMutability":"view"},{"type":"function","name":"assignGemForAirdrop","inputs":[{"name":"_tokenIds","type":"uint256[]","internalType":"uint256[]"},{"name":"_to","type":"address","internalType":"address"}],"outputs":[{"name":"","type":"bool","internalType":"bool"}],"stateMutability":"nonpayable"},{"type":"function","name":"claimAirdrop","inputs":[],"outputs":[],"stateMutability":"nonpayable"},{"type":"function","name":"clearEligibleTokensList","inputs":[],"outputs":[{"name":"","type":"bool","internalType":"bool"}],"stateMutability":"nonpayable"},{"type":"function","name":"getGemFactory","inputs":[],"outputs":[{"name":"","type":"address","internalType":"address"}],"stateMutability":"view"},{"type":"function","name":"getRoleAdmin","inputs":[{"name":"role","type":"bytes32","internalType":"bytes32"}],"outputs":[{"name":"","type":"bytes32","internalType":"bytes32"}],"stateMutability":"view"},{"type":"function","name":"getTokensEligible","inputs":[{"name":"_address","type":"address","internalType":"address"}],"outputs":[{"name":"","type":"uint256[]","internalType":"uint256[]"}],"stateMutability":"view"},{"type":"function","name":"getTreasury","inputs":[],"outputs":[{"name":"","type":"address","internalType":"address"}],"stateMutability":"view"},{"type":"function","name":"getUserClaimed","inputs":[{"name":"_user","type":"address","internalType":"address"}],"outputs":[{"name":"","type":"bool","internalType":"bool"}],"stateMutability":"view"},{"type":"function","name":"getUsersWithEligibleTokens","inputs":[],"outputs":[{"name":"","type":"address[]","internalType":"address[]"}],"stateMutability":"view"},{"type":"function","name":"grantRole","inputs":[{"name":"role","type":"bytes32","internalType":"bytes32"},{"name":"account","type":"address","internalType":"address"}],"outputs":[],"stateMutability":"nonpayable"},{"type":"function","name":"hasEligibleTokens","inputs":[{"name":"_user","type":"address","internalType":"address"}],"outputs":[{"name":"","type":"bool","internalType":"bool"}],"stateMutability":"view"},{"type":"function","name":"hasRole","inputs":[{"name":"role","type":"bytes32","internalType":"bytes32"},{"name":"account","type":"address","internalType":"address"}],"outputs":[{"name":"","type":"bool","internalType":"bool"}],"stateMutability":"view"},{"type":"function","name":"initialize","inputs":[{"name":"_treasury","type":"address","internalType":"address"},{"name":"_gemFactory","type":"address","internalType":"address"}],"outputs":[],"stateMutability":"nonpayable"},{"type":"function","name":"isAdmin","inputs":[{"name":"account","type":"address","internalType":"address"}],"outputs":[{"name":"","type":"bool","internalType":"bool"}],"stateMutability":"view"},{"type":"function","name":"isInitialized","inputs":[],"outputs":[{"name":"","type":"bool","internalType":"bool"}],"stateMutability":"view"},{"type":"function","name":"isOwner","inputs":[],"outputs":[{"name":"","type":"bool","internalType":"bool"}],"stateMutability":"view"},{"type":"function","name":"isPaused","inputs":[],"outputs":[{"name":"","type":"bool","internalType":"bool"}],"stateMutability":"view"},{"type":"function","name":"isPauser","inputs":[{"name":"account","type":"address","internalType":"address"}],"outputs":[{"name":"","type":"bool","internalType":"bool"}],"stateMutability":"view"},{"type":"function","name":"pause","inputs":[],"outputs":[],"stateMutability":"nonpayable"},{"type":"function","name":"pauseProxy","inputs":[],"outputs":[{"name":"","type":"bool","internalType":"bool"}],"stateMutability":"view"},{"type":"function","name":"proxyImplementation","inputs":[{"name":"","type":"uint256","internalType":"uint256"}],"outputs":[{"name":"","type":"address","internalType":"address"}],"stateMutability":"view"},{"type":"function","name":"removeAdmin","inputs":[],"outputs":[],"stateMutability":"nonpayable"},{"type":"function","name":"removePauser","inputs":[{"name":"account","type":"address","internalType":"address"}],"outputs":[],"stateMutability":"nonpayable"},{"type":"function","name":"renounceRole","inputs":[{"name":"role","type":"bytes32","internalType":"bytes32"},{"name":"callerConfirmation","type":"address","internalType":"address"}],"outputs":[],"stateMutability":"nonpayable"},{"type":"function","name":"revokeRole","inputs":[{"name":"role","type":"bytes32","internalType":"bytes32"},{"name":"account","type":"address","internalType":"address"}],"outputs":[],"stateMutability":"nonpayable"},{"type":"function","name":"selectorImplementation","inputs":[{"name":"","type":"bytes4","internalType":"bytes4"}],"outputs":[{"name":"","type":"address","internalType":"address"}],"stateMutability":"view"},{"type":"function","name":"supportsInterface","inputs":[{"name":"interfaceId","type":"bytes4","internalType":"bytes4"}],"outputs":[{"name":"","type":"bool","internalType":"bool"}],"stateMutability":"view"},{"type":"function","name":"transferOwnership","inputs":[{"name":"newOwner","type":"address","internalType":"address"}],"outputs":[],"stateMutability":"nonpayable"},{"type":"function","name":"unpause","inputs":[],"outputs":[],"stateMutability":"nonpayable"},{"type":"event","name":"EligibleTokenListCleared","inputs":[],"anonymous":false},{"type":"event","name":"RoleAdminChanged","inputs":[{"name":"role","type":"bytes32","indexed":true,"internalType":"bytes32"},{"name":"previousAdminRole","type":"bytes32","indexed":true,"internalType":"bytes32"},{"name":"newAdminRole","type":"bytes32","indexed":true,"internalType":"bytes32"}],"anonymous":false},{"type":"event","name":"RoleGranted","inputs":[{"name":"role","type":"bytes32","indexed":true,"internalType":"bytes32"},{"name":"account","type":"address","indexed":true,"internalType":"address"},{"name":"sender","type":"address","indexed":true,"internalType":"address"}],"anonymous":false},{"type":"event","name":"RoleRevoked","inputs":[{"name":"role","type":"bytes32","indexed":true,"internalType":"bytes32"},{"name":"account","type":"address","indexed":true,"internalType":"address"},{"name":"sender","type":"address","indexed":true,"internalType":"address"}],"anonymous":false},{"type":"event","name":"TokensAssigned","inputs":[{"name":"tokenIds","type":"uint256[]","indexed":false,"internalType":"uint256[]"},{"name":"_to","type":"address","indexed":false,"internalType":"address"}],"anonymous":false},{"type":"event","name":"TokensClaimed","inputs":[{"name":"tokenIds","type":"uint256[]","indexed":false,"internalType":"uint256[]"},{"name":"to","type":"address","indexed":false,"internalType":"address"}],"anonymous":false},{"type":"error","name":"AccessControlBadConfirmation","inputs":[]},{"type":"error","name":"AccessControlUnauthorizedAccount","inputs":[{"name":"account","type":"address","internalType":"address"},{"name":"neededRole","type":"bytes32","internalType":"bytes32"}]},{"type":"error","name":"AlreadyInitialized","inputs":[]},{"type":"error","name":"ContractNotPaused","inputs":[]},{"type":"error","name":"ContractPaused","inputs":[]},{"type":"error","name":"NoEligibleUsers","inputs":[]},{"type":"error","name":"ReentrancyGuardReentrantCall","inputs":[]},{"type":"error","name":"SameAdmin","inputs":[]},{"type":"error","name":"SameOwner","inputs":[]},{"type":"error","name":"TokenNotAvailable","inputs":[]},{"type":"error","name":"TokenNotOwnedByTreasury","inputs":[]},{"type":"error","name":"UserAlreadyClaimedCurrentAirdrop","inputs":[]},{"type":"error","name":"UserNotEligible","inputs":[]},{"type":"error","name":"ZeroAddress","inputs":[]}],"bytecode":{"object":"0x608060405234601f57600e6024565b604051611d166100608239611d1690f35b600080fd5b602a6051565b565b6036603660369290565b90565b60366001602c565b9060366036604d92602c565b9055565b602a60596039565b600c604156fe6080604052600436101561001257600080fd5b60003560e01c806301ffc9a714610242578063155f4fa81461023d5780631c6bd5b914610238578063248a9ca31461023357806324d7806c1461022e5780632f2ff15d1461022957806336568abe14610224578063389ed2671461021f578063392e53cd1461021a5780633b19e84a146102155780633f4ba83a1461021057806346fbf68e1461020b578063485cc9551461020657806350d2a27614610201578063550d01a3146101fc57806356b2e412146101f75780635b88349d146101f257806363a8fd89146101ed5780636b2c0f55146101e857806370480275146101e357806375b238fc146101de57806382dc1ec4146101d95780638456cb59146101d45780638f32d59b146101cf57806391d14854146101ca5780639a202d47146101c5578063a217fddf146101c0578063b187bd26146101bb578063b911135f146101b6578063c55321e6146101b1578063cb216356146101ac578063d547741f146101a7578063eeb261c1146101a2578063f00fe4fd1461019d5763f2fde38b0361024757610a22565b610a07565b6109e0565b610978565b61095d565b610942565b610927565b6108f2565b6108d7565b6108a0565b610884565b610869565b610851565b610839565b61081e565b6107da565b6107c2565b6107a7565b610784565b610768565b61064b565b6105d1565b61056a565b610533565b61051b565b6104f4565b6104c9565b6104ae565b610469565b61044b565b61040d565b6103b8565b61036a565b6102c5565b610289565b600080fd5b6001600160e01b031981165b0361024757565b9050359061026c8261024c565b565b90602082820312610247576102829161025f565b90565b9052565b34610247576102b66102a461029f36600461026e565b610a3a565b60405191829182901515815260200190565b0390f35b600091031261024757565b34610247576102d53660046102ba565b6102b66102a4610ce4565b6001600160a01b031690565b610285906102e0565b90610302816020936102ec565b0190565b9061032661031f610315845190565b8084529260200190565b9260200190565b9060005b8181106103375750505090565b90919261035161034a60019286516102f5565b9460200190565b92910161032a565b602080825261028292910190610306565b346102475761037a3660046102ba565b6102b6610385610d8a565b60405191829182610359565b80610258565b9050359061026c82610391565b906020828203126102475761028291610397565b34610247576102b66103d36103ce3660046103a4565b610dab565b6040519182918290815260200190565b610258816102e0565b9050359061026c826103e3565b9060208282031261024757610282916103ec565b34610247576102b66102a46104233660046103f9565b610dca565b9190604083820312610247576102829060206104448286610397565b94016103ec565b346102475761046461045e366004610428565b90610dfe565b604051005b346102475761046461047c366004610428565b90610e08565b7ffcb9fcbfa83b897fb2d5cf4b58962164105c1e71489a37ef3ae0db3fdce576f690565b610282610482565b34610247576104be3660046102ba565b6102b66103d36104a6565b34610247576104d93660046102ba565b6102b66102a4610e56565b60208101929161026c91906102ec565b34610247576105043660046102ba565b6102b661050f610e60565b604051918291826104e4565b346102475761052b3660046102ba565b610464610f28565b34610247576102b66102a46105493660046103f9565b610f30565b91906040838203126102475761028290602061044482866103ec565b346102475761046461057d36600461054e565b90610f86565b906001600160e01b0319165b600052602052604060002090565b610282916008021c6001600160a01b031690565b90610282915461059d565b60006105cc610282926003610583565b6105b1565b34610247576102b661050f6105e736600461026e565b6105bc565b610282906102e0906001600160a01b031682565b610282906105ec565b61028290610600565b9061058f90610609565b610282916008021c5b60ff1690565b90610282915461061c565b6000610646610282926002610612565b61062b565b34610247576102b66102a46106613660046103f9565b610636565b634e487b7160e01b600052604160045260246000fd5b90601f01601f191681019081106001600160401b0382111761069d57604052565b610666565b9061026c6106af60405190565b928361067c565b6001600160401b03811161069d5760208091020190565b909291926106e26106dd826106b6565b6106a2565b938185526020808601920283019281841161024757915b8383106107065750505050565b602080916107148486610397565b8152019201916106f9565b9080601f8301121561024757816020610282933591016106cd565b9190604083820312610247578235906001600160401b0382116102475760206104448261028294870161071f565b34610247576102b66102a461077e36600461073a565b90611462565b34610247576107943660046102ba565b6104646117ff565b61028260008061062b565b34610247576107b73660046102ba565b6102b66102a461079c565b34610247576104646107d53660046103f9565b6118ae565b34610247576104646107ed3660046103f9565b6118d7565b7fdf8b4c520ffe197c5343c6f5aec59570151ef9a492f2c624fd45ddde6135ec4290565b6102826107f2565b346102475761082e3660046102ba565b6102b66103d3610816565b346102475761046461084c3660046103f9565b6118fb565b34610247576108613660046102ba565b61046461192f565b34610247576108793660046102ba565b6102b66102a4611937565b34610247576102b66102a461089a366004610428565b90611942565b34610247576108b03660046102ba565b6104646119db565b6102826102826102829290565b61028260006108b8565b6102826108c5565b34610247576108e73660046102ba565b6102b66103d36108cf565b34610247576109023660046102ba565b6102b66102a46119e3565b9061058f906108b8565b60006105cc61028292600161090d565b34610247576102b661050f61093d3660046103a4565b610917565b34610247576102b66102a46109583660046103f9565b6119ed565b34610247576102b66102a46109733660046103f9565b611a04565b346102475761046461098b366004610428565b90611a36565b906109a061031f610315845190565b9060005b8181106109b15750505090565b9091926109c761034a6001928651815260200190565b9291016109a4565b602080825261028292910190610991565b34610247576102b66109fb6109f63660046103f9565b611a40565b604051918291826109cf565b3461024757610a173660046102ba565b6102b661050f611a57565b3461024757610464610a353660046103f9565b611b03565b61028290611b0c565b15610a4a57565b60405162461bcd60e51b81526020600482015260126024820152713737ba1027bbb732b91037b91020b236b4b760711b6044820152606490fd5b0390fd5b61028290610a9533610dca565b8015610aaa575b610aa590610a43565b610c03565b50610aa5610ab6611937565b9050610a9c565b634e487b7160e01b600052603260045260246000fd5b8054821015610af657610aed600191600052602060002090565b91020190600090565b610abd565b9160001960089290920291821b911b5b9181191691161790565b9190610b26610282610b2e936108b8565b908354610afb565b9055565b61026c91600091610b15565b818110610b49575050565b80610b576000600193610b32565b01610b3e565b919091828210610b6c57505050565b61026c9291610b819091600052602060002090565b9182019101610b3e565b90600160401b811161069d5781610ba361026c935490565b90828155610b5d565b600061026c91610b8b565b634e487b7160e01b600052600060045260246000fd5b90600003610bde5761026c90610bac565b610bb7565b9060ff90610b0b565b90610bfc610282610b2e92151590565b8254610be3565b50600690610c0f825490565b90600090610c1c826108b8565b8314610cd257610c2b826108b8565b835b811015610c9157610c8a81610c8485610c78610c55610c4f610c2d978c610ad3565b906105b1565b610c6983610c64836009610612565b610bcd565b610c7d83610c78836008610612565b610bec565b600a610612565b60010190565b9050610c2b565b5092610c9d9250610bcd565b7f579909dd9ac17c7f62d01eabab0127d8ec5b8f3375e59d9a0785c1fd50c5fe23610cc760405190565b80805b0390a1600190565b604051630404844760e01b8152600490fd5b6102826000610a88565b610282906102e0565b6102829054610cee565b90610d1c610d10610315845490565b92600052602060002090565b9060005b818110610d2d5750505090565b909192610d4e610d47600192610d4287610cf7565b6102f5565b9460010190565b929101610d20565b9061028291610d01565b9061026c610d7a92610d7160405190565b93848092610d56565b038361067c565b61028290610d60565b6102826006610d81565b9061058f565b6102829081565b6102829054610d9a565b6001610dc461028292610dbc600090565b50600b610d94565b01610da1565b61028290610dd66107f2565b611942565b9061026c91610df1610dec82610dab565b611b46565b90610dfb91611b51565b50565b9061026c91610ddb565b90610e17336102e0565b6102e0565b610e20826102e0565b03610e2e57610dfb91611bce565b60405163334bd91960e11b8152600490fd5b6102829060081c610625565b6102829054610e40565b6102826007610e4c565b6102826004610cf7565b15610e7157565b60405162461bcd60e51b8152602060048201526024808201527f41757468436f6e74726f6c3a2043616c6c6572206973206e6f7420746865206f6044820152633bb732b960e11b6064820152608490fd5b610ed2610ecd611937565b610e6a565b61026c610eed565b61028290610625565b6102829054610eda565b610efe610efa6007610ee3565b1590565b610f0a5761026c610f1c565b60405163dcdde9dd60e01b8152600490fd5b61026c60006007610bec565b61026c610ec2565b61028290610dd6610482565b906001600160a01b0390610b0b565b90610f5b610282610b2e92610609565b8254610f3c565b9061ff009060081b610b0b565b90610f7f610282610b2e92151590565b8254610f62565b90610f916007610e4c565b610fc957610fb6610fbd92610fae610fa76108c5565b3390611b51565b506004610f4b565b6005610f4b565b61026c60016007610f6f565b60405162dc149f60e41b8152600490fd5b906102829291610fe933610dca565b8015610ffe575b610ff990610a43565b611185565b50610ff961100a611937565b9050610ff0565b9061101a825190565b811015610af6576020809102010190565b610282916008021c81565b90610282915461102b565b9050519061026c826103e3565b906020828203126102475761028291611041565b6040513d6000823e3d90fd5b801515610258565b9050519061026c8261106e565b906020828203126102475761028291611076565b80549190600160401b83101561069d57826110ba91600161026c95018155610ad3565b90610b15565b916001600160a01b0360089290920291821b911b610b0b565b91906110ea610282610b2e93610609565b9083546110c0565b80549190600160401b83101561069d578261111591600161026c95018155610ad3565b906110d9565b9061112a610d10610315845490565b9060005b81811061113b5750505090565b909192611158610d4760019261115087610da1565b815260200190565b92910161112e565b9291602061117d61026c936040870190878203600089015261111b565b9401906102ec565b5091611195610282836009610612565b9261119e815190565b8454936000916111ad836108b8565b935b815b8510156113da576111c96111c58683611011565b5190565b956111d3856108b8565b8881101561120357806111f26111ec6111fe938d610ad3565b90611036565b8914610c845760010190565b6111d3565b509291949590939561122061121b61121b6005610cf7565b610609565b602061122b60405190565b6331a9108f60e11b81526004810185905291829060249082905afa9081156113555788916113ac575b5061126b611265610e126004610cf7565b916102e0565b0361139a5761128061121b61121b6005610cf7565b602061128b60405190565b63276a28a360e01b81526004810185905291829060249082905afa90811561135557889161136c575b5061135a576112c961121b61121b6005610cf7565b90813b1561024757876112db60405190565b634d723a7560e01b81526004810185905260016024820152928390604490829084905af18015611355576111b19361131d93610c8492611329575b508b611097565b949192959390506111af565b611348908b3d8d1161134e575b611340818361067c565b8101906102ba565b38611316565b503d611336565b611062565b604051636f4c40dd60e01b8152600490fd5b61138d915060203d8111611393575b611385818361067c565b810190611083565b386112b4565b503d61137b565b60405163de5ba81760e01b8152600490fd5b6113cd915060203d81116113d3575b6113c5818361067c565b81019061104e565b38611254565b503d6113bb565b5050929491507f6010d17ca674a11494ef21d1535339e57b4cc5f748aff181d496b89917aaf68b935061141290610c78846008610612565b611428610efa61142384600a610612565b610ee3565b611442575b610cca61143960405190565b92839283611160565b6114526001610c7884600a610612565b61145d8260066110f2565b61142d565b61028291906000610fda565b6114786007610ee3565b6114845761026c611496565b60405163ab35696f60e01b8152600490fd5b61149e611c56565b6114a6611554565b61026c611c96565b906114bd610d10610315845490565b9060005b8181106114ce5750505090565b9091926114e3610d4760019261115087610da1565b9291016114c1565b90610282916114ae565b9061026c610d7a9261150660405190565b938480926114eb565b610282906114f5565b91602061026c929493611533604082019660008301906102ec565b0152565b9291602061117d61026c9360408701908782036000890152610991565b611562611423336008610612565b600190151581146117ed5761158061157b336009610612565b61150f565b90611589825190565b90600091611596836108b8565b81146117db576115ac6001610c78336008610612565b6115bb83610c64336009610612565b6115ca83610c7833600a610612565b816115d4846108b8565b905b61161d575b505050506116187f81017b6d9dcd50d1463b528b7a1c8c1dd866348804544848d3ca723d5f9c69a29161160d60405190565b918291339083611537565b0390a1565b818110156117d65761166f602061163a61121b61121b6005610cf7565b6116476111c5858a611011565b9061165160405190565b938492839182916331a9108f60e11b83526004830190815260200190565b03915afa9081156113555785916117b8575b50611692611265610e126004610cf7565b146116a2575b6001015b826115d6565b6116b261121b61121b6005610cf7565b6116bf6111c58388611011565b90803b156102475785809161170193826116d860405190565b8096819582946116ec634d723a7560e01b90565b84526004840152151560248301526044820190565b03925af180156113555761179c575b5061172161121b61121b6004610cf7565b9061172f6111c58288611011565b91803b1561024757611764869391849261174860405190565b958693849283919063048dbcef60e41b83523360048401611518565b03925af19182156113555761169c92611780575b509050611698565b61179690863d881161134e57611340818361067c565b38611778565b6117b290853d871161134e57611340818361067c565b38611710565b6117d0915060203d81116113d3576113c5818361067c565b38611681565b6115db565b60405163267c16a760e21b8152600490fd5b604051632ca1efb560e21b8152600490fd5b61026c61146e565b1561180e57565b60405162461bcd60e51b815260206004820152602360248201527f41757468436f6e74726f6c3a2043616c6c6572206973206e6f7420612070617560448201526239b2b960e91b6064820152608490fd5b61026c9061187561186e610482565b3390611942565b801561188a575b61188590611807565b61189d565b50611885611896611937565b905061187c565b61026c906118a9610482565b610e08565b61026c9061185f565b61026c906118c6610ecd611937565b61026c906118d26107f2565b610dfe565b61026c906118b7565b61026c906118ef610ecd611937565b61026c906118d2610482565b61026c906118e0565b61190f610ecd611937565b61026c61191c6007610ee3565b6114845761026c61026c60016007610bec565b61026c611904565b61028261186e6108c5565b61028291600061195761142393610dbc600090565b01610612565b1561196457565b60405162461bcd60e51b815260206004820152602360248201527f41757468436f6e74726f6c3a2043616c6c6572206973206e6f7420616e20616460448201526236b4b760e91b6064820152608490fd5b6119c66119c133610dca565b61195d565b61026c61026c6119d46107f2565b3390610e08565b61026c6119b5565b6102826007610ee3565b611423610282916119fc600090565b506008610612565b61142361028291611a13600090565b50600a610612565b9061026c91611a2c610dec82610dab565b90610dfb91611bce565b9061026c91611a1b565b61157b61028291611a4f606090565b506009610612565b6102826005610cf7565b61026c90611a70610ecd611937565b611a8b565b6102e06102826102829290565b61028290611a75565b611a98610e126000611a82565b611aa1826102e0565b14611af157611aaf816102e0565b611ab8336102e0565b14611adf5761026c906119d4611acc6108c5565b91611ad78184610dfe565b6118d26107f2565b604051630a98f1f360e21b8152600490fd5b60405163d92e233d60e01b8152600490fd5b61026c90611a61565b637965db0b60e01b6001600160e01b0319821614908115611b2b575090565b61028291506001600160e01b0319166301ffc9a760e01b1490565b61026c903390611ca8565b611b5e610efa8383611942565b15611bc757611b796001610c7884600061195786600b610d94565b611b93611b8d611b87339390565b93610609565b91610609565b917f2f8788117e7eff1d82e926ec794901d17c78024a50270940304540a733656f0d611bbe60405190565b600090a4600190565b5050600090565b611bd88282611942565b15611bc757611bf26000610c78848261195786600b610d94565b611c00611b8d611b87339390565b917ff6391f5c32d9c69d2a47ea670b442974b53935d1edc7fd64eb21e047a839171b611bbe60405190565b61028260026108b8565b9060001990610b0b565b90611c4f610282610b2e926108b8565b8254611c35565b611c60600c610da1565b611c68611c2b565b908114611c7a5761026c90600c611c3f565b604051633ee5aeb560e01b8152600490fd5b61028260016108b8565b61026c611ca1611c8c565b600c611c3f565b90611cb6610efa8284611942565b611cbe575050565b610a84611cca60405190565b63e2517d3f60e01b81529283926004840161151856fea2646970667358221220fb64222f81300679ee313b270e08b23195fb172e27ffe2e06326b4e8c064667964736f6c63430008190033","linkReferences":{}},"methodIdentifiers":{"ADMIN_ROLE()":"75b238fc","DEFAULT_ADMIN_ROLE()":"a217fddf","PAUSE_ROLE()":"389ed267","addAdmin(address)":"70480275","addPauser(address)":"82dc1ec4","aliveImplementation(address)":"550d01a3","assignGemForAirdrop(uint256[],address)":"56b2e412","claimAirdrop()":"5b88349d","clearEligibleTokensList()":"155f4fa8","getGemFactory()":"f00fe4fd","getRoleAdmin(bytes32)":"248a9ca3","getTokensEligible(address)":"eeb261c1","getTreasury()":"3b19e84a","getUserClaimed(address)":"c55321e6","getUsersWithEligibleTokens()":"1c6bd5b9","grantRole(bytes32,address)":"2f2ff15d","hasEligibleTokens(address)":"cb216356","hasRole(bytes32,address)":"91d14854","initialize(address,address)":"485cc955","isAdmin(address)":"24d7806c","isInitialized()":"392e53cd","isOwner()":"8f32d59b","isPaused()":"b187bd26","isPauser(address)":"46fbf68e","pause()":"8456cb59","pauseProxy()":"63a8fd89","proxyImplementation(uint256)":"b911135f","removeAdmin()":"9a202d47","removePauser(address)":"6b2c0f55","renounceRole(bytes32,address)":"36568abe","revokeRole(bytes32,address)":"d547741f","selectorImplementation(bytes4)":"50d2a276","supportsInterface(bytes4)":"01ffc9a7","transferOwnership(address)":"f2fde38b","unpause()":"3f4ba83a"},"id":52}