{"abi":[{"type":"function","name":"arithmeticError","inputs":[],"outputs":[{"name":"","type":"bytes","internalType":"bytes"}],"stateMutability":"view"},{"type":"function","name":"assertionError","inputs":[],"outputs":[{"name":"","type":"bytes","internalType":"bytes"}],"stateMutability":"view"},{"type":"function","name":"divisionError","inputs":[],"outputs":[{"name":"","type":"bytes","internalType":"bytes"}],"stateMutability":"view"},{"type":"function","name":"encodeStorageError","inputs":[],"outputs":[{"name":"","type":"bytes","internalType":"bytes"}],"stateMutability":"view"},{"type":"function","name":"enumConversionError","inputs":[],"outputs":[{"name":"","type":"bytes","internalType":"bytes"}],"stateMutability":"view"},{"type":"function","name":"indexOOBError","inputs":[],"outputs":[{"name":"","type":"bytes","internalType":"bytes"}],"stateMutability":"view"},{"type":"function","name":"memOverflowError","inputs":[],"outputs":[{"name":"","type":"bytes","internalType":"bytes"}],"stateMutability":"view"},{"type":"function","name":"popError","inputs":[],"outputs":[{"name":"","type":"bytes","internalType":"bytes"}],"stateMutability":"view"},{"type":"function","name":"zeroVarError","inputs":[],"outputs":[{"name":"","type":"bytes","internalType":"bytes"}],"stateMutability":"view"}],"bytecode":{"object":"0x6080604052346021575b600f6025565b61082361003182393081505061082390f35b602b565b60405190565b600080fdfe60806040526004361015610013575b6107e8565b61001e6000356100bb565b806305ee8612146100b6575b806310332977146100b1575b80631de45560146100ac575b80638995290f146100a7575b8063986c5f68146100a2575b8063b22dc54d1461009d575b8063b67689da14610098575b8063d160e4de14610093575b63fa784a441461008e575b61000e565b6107bd565b61070c565b61065b565b6105aa565b6104f9565b610448565b610397565b6102e6565b610235565b60e01c90565b60405190565b600080fd5b60009103126100d8575b565b6100c7565b90565b60ff901690565b90565b6100fe6100f9610103926100dd565b6100e7565b6100e0565b90565b61010f906100ea565b9052565b919061012790600060208501940190610106565b565b601f801991011690565b634e487b7160e01b600052604160045260246000fd5b9061015390610129565b810190811067ffffffffffffffff82111761016e575b604052565b610133565b61017b6100c1565b6101a98161019a6032600460208401634e487b7160e01b815201610113565b60208201810382520382610149565b90565b6101b4610173565b90565b5190565b60209181520190565b60005b8381106101d9575b5050906000910152565b8060209183015181850152016101c7565b61020961021260209361021793610200816101b7565b938480936101bb565b958691016101c4565b610129565b900190565b61023291602082019160008184039101526101ea565b90565b6102403660046100cc565b61025c61024b6101ac565b6102536100c1565b9182918261021c565b0390f35b90565b61027761027261027c92610260565b6100e7565b6100e0565b90565b61028890610263565b9052565b91906102a09060006020850194019061027f565b565b6102aa6100c1565b6102d8816102c96001600460208401634e487b7160e01b81520161028c565b60208201810382520382610149565b90565b6102e36102a2565b90565b6102f13660046100cc565b61030d6102fc6102db565b6103046100c1565b9182918261021c565b0390f35b90565b61032861032361032d92610311565b6100e7565b6100e0565b90565b61033990610314565b9052565b919061035190600060208501940190610330565b565b61035b6100c1565b6103898161037a6021600460208401634e487b7160e01b81520161033d565b60208201810382520382610149565b90565b610394610353565b90565b6103a23660046100cc565b6103be6103ad61038c565b6103b56100c1565b9182918261021c565b0390f35b90565b6103d96103d46103de926103c2565b6100e7565b6100e0565b90565b6103ea906103c5565b9052565b9190610402906000602085019401906103e1565b565b61040c6100c1565b61043a8161042b6011600460208401634e487b7160e01b8152016103ee565b60208201810382520382610149565b90565b610445610404565b90565b6104533660046100cc565b61046f61045e61043d565b6104666100c1565b9182918261021c565b0390f35b90565b61048a61048561048f92610473565b6100e7565b6100e0565b90565b61049b90610476565b9052565b91906104b390600060208501940190610492565b565b6104bd6100c1565b6104eb816104dc6041600460208401634e487b7160e01b81520161049f565b60208201810382520382610149565b90565b6104f66104b5565b90565b6105043660046100cc565b61052061050f6104ee565b6105176100c1565b9182918261021c565b0390f35b90565b61053b61053661054092610524565b6100e7565b6100e0565b90565b61054c90610527565b9052565b919061056490600060208501940190610543565b565b61056e6100c1565b61059c8161058d6031600460208401634e487b7160e01b815201610550565b60208201810382520382610149565b90565b6105a7610566565b90565b6105b53660046100cc565b6105d16105c061059f565b6105c86100c1565b9182918261021c565b0390f35b90565b6105ec6105e76105f1926105d5565b6100e7565b6100e0565b90565b6105fd906105d8565b9052565b9190610615906000602085019401906105f4565b565b61061f6100c1565b61064d8161063e6051600460208401634e487b7160e01b815201610601565b60208201810382520382610149565b90565b610658610617565b90565b6106663660046100cc565b610682610671610650565b6106796100c1565b9182918261021c565b0390f35b90565b61069d6106986106a292610686565b6100e7565b6100e0565b90565b6106ae90610689565b9052565b91906106c6906000602085019401906106a5565b565b6106d06100c1565b6106fe816106ef6022600460208401634e487b7160e01b8152016106b2565b60208201810382520382610149565b90565b6107096106c8565b90565b6107173660046100cc565b610733610722610701565b61072a6100c1565b9182918261021c565b0390f35b90565b61074e61074961075392610737565b6100e7565b6100e0565b90565b61075f9061073a565b9052565b919061077790600060208501940190610756565b565b6107816100c1565b6107af816107a06012600460208401634e487b7160e01b815201610763565b60208201810382520382610149565b90565b6107ba610779565b90565b6107c83660046100cc565b6107e46107d36107b2565b6107db6100c1565b9182918261021c565b0390f35b600080fdfea2646970667358221220d09850214012a71912efaa64529fadd8dcc2e2361df353aae6e92da982c268fb64736f6c63430008190033","linkReferences":{}},"methodIdentifiers":{"arithmeticError()":"8995290f","assertionError()":"10332977","divisionError()":"fa784a44","encodeStorageError()":"d160e4de","enumConversionError()":"1de45560","indexOOBError()":"05ee8612","memOverflowError()":"986c5f68","popError()":"b22dc54d","zeroVarError()":"b67689da"},"id":4}