{"abi":[{"type":"constructor","inputs":[],"stateMutability":"nonpayable"},{"type":"function","name":"approveAndCall","inputs":[{"name":"spender","type":"address","internalType":"address"},{"name":"amount","type":"uint256","internalType":"uint256"},{"name":"data","type":"bytes","internalType":"bytes"}],"outputs":[{"name":"","type":"bool","internalType":"bool"}],"stateMutability":"nonpayable"},{"type":"function","name":"callbackEnabled","inputs":[],"outputs":[{"name":"","type":"bool","internalType":"bool"}],"stateMutability":"view"},{"type":"function","name":"enableCallback","inputs":[{"name":"_callbackEnabled","type":"bool","internalType":"bool"}],"outputs":[],"stateMutability":"nonpayable"},{"type":"function","name":"owner","inputs":[],"outputs":[{"name":"","type":"address","internalType":"address"}],"stateMutability":"view"},{"type":"function","name":"renounceOwnership","inputs":[],"outputs":[],"stateMutability":"nonpayable"},{"type":"function","name":"seigManager","inputs":[],"outputs":[{"name":"","type":"address","internalType":"contract ISeigManager"}],"stateMutability":"view"},{"type":"function","name":"setSeigManager","inputs":[{"name":"_seigManager","type":"address","internalType":"contract ISeigManager"}],"outputs":[],"stateMutability":"nonpayable"},{"type":"function","name":"transferOwnership","inputs":[{"name":"newOwner","type":"address","internalType":"address"}],"outputs":[],"stateMutability":"nonpayable"},{"type":"event","name":"OwnershipTransferred","inputs":[{"name":"previousOwner","type":"address","indexed":true,"internalType":"address"},{"name":"newOwner","type":"address","indexed":true,"internalType":"address"}],"anonymous":false},{"type":"error","name":"OwnableInvalidOwner","inputs":[{"name":"owner","type":"address","internalType":"address"}]},{"type":"error","name":"OwnableUnauthorizedAccount","inputs":[{"name":"account","type":"address","internalType":"address"}]}],"bytecode":{"object":"0x608060405234610028575b610012610038565b61001a61002d565b610d8f61023e8239610d8f90f35b610033565b60405190565b600080fd5b610041336100cc565b565b60001b90565b9061005a60018060a01b0391610043565b91811990169116901790565b60018060a01b03901690565b90565b61008961008461008e92610066565b610072565b610066565b90565b61009a90610075565b90565b6100a690610091565b90565b90565b906100c16100bc6100c89261009d565b6100a9565b8254610049565b9055565b6100d590610150565b6100f4736e1734ac57e76fcd7fd66266ae0c2547db3a713a60016100ac565b565b90565b61010d610108610112926100f6565b610072565b610066565b90565b61011e906100f9565b90565b61012a90610066565b90565b61013690610121565b9052565b919061014e9060006020850194019061012d565b565b61015a6000610115565b61016381610121565b61016c83610121565b1461017e575b5061017c906101de565b565b6101a09061018a61002d565b918291631e4fbdf760e01b83526004830161013a565b0390fd5b60001c90565b60018060a01b03901690565b6101c26101c7916101a4565b6101aa565b90565b6101d490546101b6565b90565b6000900190565b6102046101fe6101ee60006101ca565b6101f98460006100ac565b61009d565b9161009d565b907f8be0079c531659141344cd1fd0a4f28419497f9722a3daafe3b4186f6b6457e061022e61002d565b80610238816101d7565b0390a356fe60806040526004361015610013575b610617565b61001e6000356100aa565b80633113ed5c146100a5575b806363380113146100a0575b80636fb7f5581461009b575b8063715018a614610096575b80637657f20a14610091575b80638da5cb5b1461008c575b8063cae9ca5114610087575b63f2fde38b14610082575b61000e565b6105e3565b61058c565b6103bd565b610366565b6102d3565b61029d565b6101c0565b610118565b60e01c90565b60405190565b600080fd5b600080fd5b600080fd5b151590565b6100d3816100c5565b9014156100dd575b565b600080fd5b905035906100ef826100ca565b565b9060208282031261010c575b600061010992016100e2565b90565b6100bb565b6000900190565b34610147575b61013161012c3660046100f1565b61068c565b6101396100b0565b8061014381610111565b0390f35b6100b6565b6000910312610158575b565b6100bb565b1c90565b60ff901690565b61017890600861017d930261015d565b610161565b90565b9061018b9154610168565b90565b61019a60146002610180565b90565b6101a6906100c5565b9052565b91906101be9060006020850194019061019d565b565b346101f1575b6101d136600461014c565b6101ed6101dc61018e565b6101e46100b0565b918291826101aa565b0390f35b6100b6565b60018060a01b03901690565b610212906008610217930261015d565b6101f6565b90565b906102259154610202565b90565b6102346000600261021a565b90565b60018060a01b03901690565b90565b61025a61025561025f92610237565b610243565b610237565b90565b61026b90610246565b90565b61027790610262565b90565b6102839061026e565b9052565b919061029b9060006020850194019061027a565b565b346102ce575b6102ae36600461014c565b6102ca6102b9610228565b6102c16100b0565b91829182610287565b0390f35b6100b6565b34610302575b6102e436600461014c565b6102ec6106e8565b6102f46100b0565b806102fe81610111565b0390f35b6100b6565b61031090610237565b90565b61031c90610307565b90565b61032881610313565b901415610332575b565b600080fd5b905035906103448261031f565b565b90602082820312610361575b600061035e9201610337565b90565b6100bb565b34610395575b61037f61037a366004610346565b610770565b6103876100b0565b8061039181610111565b0390f35b6100b6565b6103a390610307565b9052565b91906103bb9060006020850194019061039a565b565b346103ee575b6103ce36600461014c565b6103ea6103d96107b3565b6103e16100b0565b918291826103a7565b0390f35b6100b6565b6103fc81610307565b901415610406575b565b600080fd5b90503590610418826103f3565b565b90565b6104268161041a565b901415610430575b565b600080fd5b905035906104428261041d565b565b600080fd5b600080fd5b601f801991011690565b634e487b7160e01b600052604160045260246000fd5b906104789061044e565b810190811067ffffffffffffffff821117610493575b604052565b610458565b906104ab6104a46100b0565b928361046e565b565b67ffffffffffffffff81116104cc575b6104c860209161044e565b0190565b610458565b90826000939282370152565b909291926104f26104ed826104ad565b610498565b938185528183011161050f575b61050d9160208501906104d1565b565b610449565b9080601f83011215610533575b816020610530933591016104dd565b90565b610444565b91606083830312610587575b610551826000850161040b565b9261055f8360208301610435565b92604082013567ffffffffffffffff8111610582575b61057f9201610514565b90565b6100c0565b6100bb565b346105be575b6105ba6105a96105a3366004610538565b91610876565b6105b16100b0565b918291826101aa565b0390f35b6100b6565b906020828203126105de575b60006105db920161040b565b90565b6100bb565b34610612575b6105fc6105f73660046105c3565b610991565b6106046100b0565b8061060e81610111565b0390f35b6100b6565b600080fd5b61062d9061062861099c565b61067f565b565b60a01b90565b9061064460ff60a01b9161062f565b91811990169116901790565b610659906100c5565b90565b90565b9061067461066f61067b92610650565b61065c565b8254610635565b9055565b61068a90600261065f565b565b6106959061061c565b565b61069f61099c565b6106a76106d4565b565b90565b6106c06106bb6106c5926106a9565b610243565b610237565b90565b6106d1906106ac565b90565b6106e66106e160006106c8565b610a1e565b565b6106f0610697565b565b610703906106fe61099c565b610763565b565b60001b90565b9061071c60018060a01b0391610705565b91811990169116901790565b61073190610246565b90565b61073d90610728565b90565b90565b9061075861075361075f92610734565b610740565b825461070b565b9055565b61076e906002610743565b565b610779906106f2565b565b600090565b60001c90565b60018060a01b03901690565b61079e6107a391610780565b610786565b90565b6107b09054610792565b90565b6107bb61077b565b506107c660006107a6565b90565b600090565b6107d790610246565b90565b6107e3906107ce565b90565b6107ef90610262565b90565b60e01b90565b90505190610805826100ca565b565b90602082820312610822575b600061081f92016107f8565b90565b6100bb565b6108309061041a565b9052565b91602061085692949361084f6040820196600083019061039a565b0190610827565b565b6108606100b0565b3d6000823e3d90fd5b15610871575b565b600080fd5b91906108806107c9565b5061089b61089661089160016107a6565b6107da565b6107e6565b9260206108a66100b0565b80956108b563095ea7b36107f2565b8252816000816108c9888860048401610834565b03925af1938415610925575b6108f1946108eb916000916108f6575b50610869565b33610cd5565b600190565b610918915060203d60201161091e575b610910818361046e565b810190610807565b386108e5565b503d610906565b610858565b61093b9061093661099c565b61093d565b565b61094760006106c8565b61095081610307565b61095983610307565b1461096b575b5061096990610a1e565b565b61098d906109776100b0565b918291631e4fbdf760e01b8352600483016103a7565b0390fd5b61099a9061092a565b565b6109a46107b3565b6109ac610d4c565b906109bf6109b983610307565b91610307565b14156109c9575b50565b6109eb906109d56100b0565b91829163118cdaa760e01b8352600483016103a7565b0390fd5b6109f890610262565b90565b90565b90610a13610a0e610a1a926109ef565b6109fb565b825461070b565b9055565b610a44610a3e610a2e60006107a6565b610a398460006109fe565b6109ef565b916109ef565b907f8be0079c531659141344cd1fd0a4f28419497f9722a3daafe3b4186f6b6457e0610a6e6100b0565b80610a7881610111565b0390a3565b63ffffffff901690565b63ffffffff60e01b901690565b610aa8610aa3610aad92610a7d565b6107f2565b610a87565b90565b5190565b60209181520190565b60005b838110610ad2575b5050906000910152565b806020918301518185015201610ac0565b610b02610b0b602093610b1093610af981610ab0565b93848093610ab4565b95869101610abd565b61044e565b900190565b9092610b4990610b3f610b569694610b356080860197600087019061039a565b602085019061039a565b6040830190610827565b6060818403910152610ae3565b90565b90610b6b610b66836104ad565b610498565b918252565b606090565b3d600014610b93575b610b873d610b59565b903d6000602084013e5b565b610b9b610b70565b90610b91565b90565b5190565b60209181520190565b610bd0610bd9602093610bde93610bc781610ba4565b93848093610ba8565b95869101610abd565b61044e565b900190565b610bf99160208201916000818403910152610bb1565b90565b15610c05575b50565b610c2690610c116100b0565b91829162461bcd60e51b835260048301610be3565b0390fd5b60207f6e417070726f7665000000000000000000000000000000000000000000000000917f45524332304f6e417070726f76653a206661696c656420746f2063616c6c206f60008201520152565b610c856028604092610ba8565b610c8e81610c2a565b0190565b610ca89060208101906000818303910152610c78565b90565b15610cb3575b565b610cbb6100b0565b62461bcd60e51b815280610cd160048201610c92565b0390fd5b6004600092610d1d8493610d0f610d4a9860209885610cf7634273ca16610a94565b94610d006100b0565b9889968d880190815201610b15565b87820181038252038361046e565b828583519301915af1610d43610d31610b75565b918050610d3d83610ba1565b90610bfc565b0151610cab565b565b610d5461077b565b50339056fea264697066735822122022a474c74aae18163441f34ce7e7ece007bdc61356dfb2fccfba72dd5399392564736f6c63430008190033","linkReferences":{}},"methodIdentifiers":{"approveAndCall(address,uint256,bytes)":"cae9ca51","callbackEnabled()":"63380113","enableCallback(bool)":"3113ed5c","owner()":"8da5cb5b","renounceOwnership()":"715018a6","seigManager()":"6fb7f558","setSeigManager(address)":"7657f20a","transferOwnership(address)":"f2fde38b"},"id":102}