{
  "_format": "hh-sol-artifact-1",
  "contractName": "GemFactoryMining",
  "sourceName": "src/L2/GemFactoryMining.sol",
  "abi": [
    {
      "inputs": [],
      "name": "AddressZero",
      "type": "error"
    },
    {
      "inputs": [],
      "name": "ColorNotExist",
      "type": "error"
    },
    {
      "inputs": [],
      "name": "ContractNotPaused",
      "type": "error"
    },
    {
      "inputs": [],
      "name": "ContractPaused",
      "type": "error"
    },
    {
      "inputs": [],
      "name": "CooldownPeriodNotElapsed",
      "type": "error"
    },
    {
      "inputs": [],
      "name": "DRBAlreadyInitialized",
      "type": "error"
    },
    {
      "inputs": [
        {
          "internalType": "address",
          "name": "sender",
          "type": "address"
        },
        {
          "internalType": "uint256",
          "name": "tokenId",
          "type": "uint256"
        },
        {
          "internalType": "address",
          "name": "owner",
          "type": "address"
        }
      ],
      "name": "ERC721IncorrectOwner",
      "type": "error"
    },
    {
      "inputs": [
        {
          "internalType": "address",
          "name": "operator",
          "type": "address"
        },
        {
          "internalType": "uint256",
          "name": "tokenId",
          "type": "uint256"
        }
      ],
      "name": "ERC721InsufficientApproval",
      "type": "error"
    },
    {
      "inputs": [
        {
          "internalType": "address",
          "name": "approver",
          "type": "address"
        }
      ],
      "name": "ERC721InvalidApprover",
      "type": "error"
    },
    {
      "inputs": [
        {
          "internalType": "address",
          "name": "operator",
          "type": "address"
        }
      ],
      "name": "ERC721InvalidOperator",
      "type": "error"
    },
    {
      "inputs": [
        {
          "internalType": "address",
          "name": "owner",
          "type": "address"
        }
      ],
      "name": "ERC721InvalidOwner",
      "type": "error"
    },
    {
      "inputs": [
        {
          "internalType": "address",
          "name": "receiver",
          "type": "address"
        }
      ],
      "name": "ERC721InvalidReceiver",
      "type": "error"
    },
    {
      "inputs": [
        {
          "internalType": "address",
          "name": "sender",
          "type": "address"
        }
      ],
      "name": "ERC721InvalidSender",
      "type": "error"
    },
    {
      "inputs": [
        {
          "internalType": "uint256",
          "name": "tokenId",
          "type": "uint256"
        }
      ],
      "name": "ERC721NonexistentToken",
      "type": "error"
    },
    {
      "inputs": [],
      "name": "FailedToSendEthBack",
      "type": "error"
    },
    {
      "inputs": [],
      "name": "GemAlreadyPicked",
      "type": "error"
    },
    {
      "inputs": [],
      "name": "GemIsLocked",
      "type": "error"
    },
    {
      "inputs": [],
      "name": "GemIsNotLocked",
      "type": "error"
    },
    {
      "inputs": [],
      "name": "InvalidInitialization",
      "type": "error"
    },
    {
      "inputs": [
        {
          "internalType": "uint8",
          "name": "quadrant",
          "type": "uint8"
        },
        {
          "internalType": "uint8",
          "name": "value",
          "type": "uint8"
        }
      ],
      "name": "InvalidQuadrant",
      "type": "error"
    },
    {
      "inputs": [],
      "name": "InvalidSumOfQuadrants",
      "type": "error"
    },
    {
      "inputs": [],
      "name": "MiningPeriodNotElapsed",
      "type": "error"
    },
    {
      "inputs": [],
      "name": "MismatchedArrayLengths",
      "type": "error"
    },
    {
      "inputs": [
        {
          "internalType": "uint8",
          "name": "quadrantIndex",
          "type": "uint8"
        },
        {
          "internalType": "uint8",
          "name": "expectedValue1",
          "type": "uint8"
        },
        {
          "internalType": "uint8",
          "name": "expectedValue2",
          "type": "uint8"
        }
      ],
      "name": "NewGemInvalidQuadrant",
      "type": "error"
    },
    {
      "inputs": [],
      "name": "NoMiningTryLeft",
      "type": "error"
    },
    {
      "inputs": [],
      "name": "NotGemOwner",
      "type": "error"
    },
    {
      "inputs": [],
      "name": "NotInitializing",
      "type": "error"
    },
    {
      "inputs": [],
      "name": "NotMining",
      "type": "error"
    },
    {
      "inputs": [
        {
          "internalType": "address",
          "name": "have",
          "type": "address"
        },
        {
          "internalType": "address",
          "name": "want",
          "type": "address"
        }
      ],
      "name": "OnlyCoordinatorCanFulfill",
      "type": "error"
    },
    {
      "inputs": [],
      "name": "ReentrancyGuardReentrantCall",
      "type": "error"
    },
    {
      "inputs": [],
      "name": "RequestNotMade",
      "type": "error"
    },
    {
      "inputs": [],
      "name": "SameSenderAndRecipient",
      "type": "error"
    },
    {
      "inputs": [
        {
          "internalType": "uint8",
          "name": "sum",
          "type": "uint8"
        },
        {
          "internalType": "string",
          "name": "rarity",
          "type": "string"
        }
      ],
      "name": "SumOfQuadrantsTooHigh",
      "type": "error"
    },
    {
      "inputs": [],
      "name": "TransferFailed",
      "type": "error"
    },
    {
      "inputs": [
        {
          "internalType": "uint256",
          "name": "tokenId",
          "type": "uint256"
        }
      ],
      "name": "URIQueryForNonexistentToken",
      "type": "error"
    },
    {
      "inputs": [
        {
          "internalType": "address",
          "name": "caller",
          "type": "address"
        }
      ],
      "name": "UnauthorizedCaller",
      "type": "error"
    },
    {
      "inputs": [],
      "name": "WrongRarity",
      "type": "error"
    },
    {
      "anonymous": false,
      "inputs": [
        {
          "indexed": true,
          "internalType": "address",
          "name": "owner",
          "type": "address"
        },
        {
          "indexed": true,
          "internalType": "address",
          "name": "approved",
          "type": "address"
        },
        {
          "indexed": true,
          "internalType": "uint256",
          "name": "tokenId",
          "type": "uint256"
        }
      ],
      "name": "Approval",
      "type": "event"
    },
    {
      "anonymous": false,
      "inputs": [
        {
          "indexed": true,
          "internalType": "address",
          "name": "owner",
          "type": "address"
        },
        {
          "indexed": true,
          "internalType": "address",
          "name": "operator",
          "type": "address"
        },
        {
          "indexed": false,
          "internalType": "bool",
          "name": "approved",
          "type": "bool"
        }
      ],
      "name": "ApprovalForAll",
      "type": "event"
    },
    {
      "anonymous": false,
      "inputs": [
        {
          "indexed": true,
          "internalType": "uint8",
          "name": "id",
          "type": "uint8"
        },
        {
          "indexed": false,
          "internalType": "string",
          "name": "backgroundColor",
          "type": "string"
        }
      ],
      "name": "BackgroundColorAdded",
      "type": "event"
    },
    {
      "anonymous": false,
      "inputs": [
        {
          "indexed": false,
          "internalType": "uint256",
          "name": "_fromTokenId",
          "type": "uint256"
        },
        {
          "indexed": false,
          "internalType": "uint256",
          "name": "_toTokenId",
          "type": "uint256"
        }
      ],
      "name": "BatchMetadataUpdate",
      "type": "event"
    },
    {
      "anonymous": false,
      "inputs": [
        {
          "indexed": false,
          "internalType": "uint32",
          "name": "newCallbackGasLimit",
          "type": "uint32"
        }
      ],
      "name": "CallBackGasLimitUpdated",
      "type": "event"
    },
    {
      "anonymous": false,
      "inputs": [
        {
          "indexed": true,
          "internalType": "uint8",
          "name": "id",
          "type": "uint8"
        },
        {
          "indexed": false,
          "internalType": "string",
          "name": "color",
          "type": "string"
        }
      ],
      "name": "ColorAdded",
      "type": "event"
    },
    {
      "anonymous": false,
      "inputs": [
        {
          "indexed": false,
          "internalType": "uint8",
          "name": "color_0",
          "type": "uint8"
        },
        {
          "indexed": false,
          "internalType": "uint8",
          "name": "color_1",
          "type": "uint8"
        }
      ],
      "name": "ColorValidated",
      "type": "event"
    },
    {
      "anonymous": false,
      "inputs": [
        {
          "indexed": false,
          "internalType": "uint256",
          "name": "gemCount",
          "type": "uint256"
        },
        {
          "indexed": false,
          "internalType": "uint256[]",
          "name": "tokenIds",
          "type": "uint256[]"
        }
      ],
      "name": "CountGemsByQuadrant",
      "type": "event"
    },
    {
      "anonymous": false,
      "inputs": [
        {
          "indexed": true,
          "internalType": "uint256",
          "name": "tokenId",
          "type": "uint256"
        },
        {
          "indexed": false,
          "internalType": "enum GemFactoryStorage.Rarity",
          "name": "rarity",
          "type": "uint8"
        },
        {
          "indexed": false,
          "internalType": "uint8[2]",
          "name": "color",
          "type": "uint8[2]"
        },
        {
          "indexed": false,
          "internalType": "uint8",
          "name": "miningTry",
          "type": "uint8"
        },
        {
          "indexed": false,
          "internalType": "uint256",
          "name": "value",
          "type": "uint256"
        },
        {
          "indexed": false,
          "internalType": "uint8[4]",
          "name": "quadrants",
          "type": "uint8[4]"
        },
        {
          "indexed": false,
          "internalType": "uint256",
          "name": "cooldownDueDate",
          "type": "uint256"
        },
        {
          "indexed": false,
          "internalType": "string",
          "name": "tokenURI",
          "type": "string"
        },
        {
          "indexed": false,
          "internalType": "address",
          "name": "owner",
          "type": "address"
        }
      ],
      "name": "Created",
      "type": "event"
    },
    {
      "anonymous": false,
      "inputs": [
        {
          "indexed": false,
          "internalType": "address",
          "name": "coordinator",
          "type": "address"
        }
      ],
      "name": "DRBCoordiantorInitialized",
      "type": "event"
    },
    {
      "anonymous": false,
      "inputs": [
        {
          "indexed": false,
          "internalType": "uint256",
          "name": "amount",
          "type": "uint256"
        }
      ],
      "name": "EthSentBack",
      "type": "event"
    },
    {
      "anonymous": false,
      "inputs": [
        {
          "indexed": false,
          "internalType": "address",
          "name": "gemOwner",
          "type": "address"
        },
        {
          "indexed": false,
          "internalType": "uint256[]",
          "name": "gemsTokenIds",
          "type": "uint256[]"
        },
        {
          "indexed": false,
          "internalType": "uint256",
          "name": "newGemCreatedId",
          "type": "uint256"
        },
        {
          "indexed": false,
          "internalType": "enum GemFactoryStorage.Rarity",
          "name": "newRarity",
          "type": "uint8"
        },
        {
          "indexed": false,
          "internalType": "uint8[4]",
          "name": "forgedQuadrants",
          "type": "uint8[4]"
        },
        {
          "indexed": false,
          "internalType": "uint8[2]",
          "name": "color",
          "type": "uint8[2]"
        },
        {
          "indexed": false,
          "internalType": "uint256",
          "name": "newValue",
          "type": "uint256"
        }
      ],
      "name": "GemForged",
      "type": "event"
    },
    {
      "anonymous": false,
      "inputs": [
        {
          "indexed": false,
          "internalType": "uint256",
          "name": "_tokenId",
          "type": "uint256"
        },
        {
          "indexed": false,
          "internalType": "address",
          "name": "_from",
          "type": "address"
        }
      ],
      "name": "GemMelted",
      "type": "event"
    },
    {
      "anonymous": false,
      "inputs": [
        {
          "indexed": false,
          "internalType": "uint256",
          "name": "tokenId",
          "type": "uint256"
        },
        {
          "indexed": false,
          "internalType": "uint256",
          "name": "chosenTokenId",
          "type": "uint256"
        },
        {
          "indexed": false,
          "internalType": "uint256",
          "name": "minedGemCooldownDueDate",
          "type": "uint256"
        },
        {
          "indexed": false,
          "internalType": "uint256",
          "name": "initialGemCooldownDueDate",
          "type": "uint256"
        },
        {
          "indexed": false,
          "internalType": "address",
          "name": "miner",
          "type": "address"
        }
      ],
      "name": "GemMiningClaimed",
      "type": "event"
    },
    {
      "anonymous": false,
      "inputs": [
        {
          "indexed": false,
          "internalType": "uint256",
          "name": "tokenId",
          "type": "uint256"
        },
        {
          "indexed": false,
          "internalType": "address",
          "name": "miner",
          "type": "address"
        },
        {
          "indexed": false,
          "internalType": "uint256",
          "name": "startMiningTime",
          "type": "uint256"
        },
        {
          "indexed": false,
          "internalType": "uint256",
          "name": "newminingTry",
          "type": "uint256"
        }
      ],
      "name": "GemMiningStarted",
      "type": "event"
    },
    {
      "anonymous": false,
      "inputs": [
        {
          "indexed": false,
          "internalType": "uint32",
          "name": "RareGemsCooldownPeriod",
          "type": "uint32"
        },
        {
          "indexed": false,
          "internalType": "uint32",
          "name": "UniqueGemsCooldownPeriod",
          "type": "uint32"
        },
        {
          "indexed": false,
          "internalType": "uint32",
          "name": "EpicGemsCooldownPeriod",
          "type": "uint32"
        },
        {
          "indexed": false,
          "internalType": "uint32",
          "name": "LegendaryGemsCooldownPeriod",
          "type": "uint32"
        },
        {
          "indexed": false,
          "internalType": "uint32",
          "name": "MythicGemsCooldownPeriod",
          "type": "uint32"
        }
      ],
      "name": "GemsCoolDownPeriodModified",
      "type": "event"
    },
    {
      "anonymous": false,
      "inputs": [
        {
          "indexed": false,
          "internalType": "uint32",
          "name": "RareGemsMiningPeriod",
          "type": "uint32"
        },
        {
          "indexed": false,
          "internalType": "uint32",
          "name": "UniqueGemsMiningPeriod",
          "type": "uint32"
        },
        {
          "indexed": false,
          "internalType": "uint32",
          "name": "EpicGemsMiningPeriod",
          "type": "uint32"
        },
        {
          "indexed": false,
          "internalType": "uint32",
          "name": "LegendaryGemsMiningPeriod",
          "type": "uint32"
        },
        {
          "indexed": false,
          "internalType": "uint32",
          "name": "MythicGemsMiningPeriod",
          "type": "uint32"
        }
      ],
      "name": "GemsMiningPeriodModified",
      "type": "event"
    },
    {
      "anonymous": false,
      "inputs": [
        {
          "indexed": false,
          "internalType": "uint8",
          "name": "RareGemsMiningTry",
          "type": "uint8"
        },
        {
          "indexed": false,
          "internalType": "uint8",
          "name": "UniqueGemsMiningTry",
          "type": "uint8"
        },
        {
          "indexed": false,
          "internalType": "uint8",
          "name": "EpicGemsMiningTry",
          "type": "uint8"
        },
        {
          "indexed": false,
          "internalType": "uint8",
          "name": "LegendaryGemsMiningTry",
          "type": "uint8"
        },
        {
          "indexed": false,
          "internalType": "uint8",
          "name": "MythicGemsMiningTry",
          "type": "uint8"
        }
      ],
      "name": "GemsMiningTryModified",
      "type": "event"
    },
    {
      "anonymous": false,
      "inputs": [
        {
          "indexed": false,
          "internalType": "uint256",
          "name": "CommonGemsValue",
          "type": "uint256"
        },
        {
          "indexed": false,
          "internalType": "uint256",
          "name": "RareGemsValue",
          "type": "uint256"
        },
        {
          "indexed": false,
          "internalType": "uint256",
          "name": "UniqueGemsValue",
          "type": "uint256"
        },
        {
          "indexed": false,
          "internalType": "uint256",
          "name": "EpicGemsValue",
          "type": "uint256"
        },
        {
          "indexed": false,
          "internalType": "uint256",
          "name": "LegendaryValue",
          "type": "uint256"
        },
        {
          "indexed": false,
          "internalType": "uint256",
          "name": "MythicValue",
          "type": "uint256"
        }
      ],
      "name": "GemsValueModified",
      "type": "event"
    },
    {
      "anonymous": false,
      "inputs": [
        {
          "indexed": false,
          "internalType": "uint64",
          "name": "version",
          "type": "uint64"
        }
      ],
      "name": "Initialized",
      "type": "event"
    },
    {
      "anonymous": false,
      "inputs": [
        {
          "indexed": false,
          "internalType": "uint256",
          "name": "_tokenId",
          "type": "uint256"
        }
      ],
      "name": "MetadataUpdate",
      "type": "event"
    },
    {
      "anonymous": false,
      "inputs": [
        {
          "indexed": false,
          "internalType": "uint256",
          "name": "_tokenId",
          "type": "uint256"
        },
        {
          "indexed": false,
          "internalType": "address",
          "name": "owner",
          "type": "address"
        },
        {
          "indexed": false,
          "internalType": "uint256",
          "name": "timestamp",
          "type": "uint256"
        }
      ],
      "name": "MiningCancelled",
      "type": "event"
    },
    {
      "anonymous": false,
      "inputs": [
        {
          "indexed": false,
          "internalType": "uint256",
          "name": "tokenId",
          "type": "uint256"
        },
        {
          "indexed": false,
          "internalType": "uint256",
          "name": "initialGemCooldownDueDate",
          "type": "uint256"
        },
        {
          "indexed": false,
          "internalType": "address",
          "name": "miner",
          "type": "address"
        }
      ],
      "name": "NoGemAvailable",
      "type": "event"
    },
    {
      "anonymous": false,
      "inputs": [
        {
          "indexed": false,
          "internalType": "address",
          "name": "account",
          "type": "address"
        }
      ],
      "name": "Paused",
      "type": "event"
    },
    {
      "anonymous": false,
      "inputs": [
        {
          "indexed": false,
          "internalType": "uint256",
          "name": "tokenId",
          "type": "uint256"
        },
        {
          "indexed": false,
          "internalType": "uint256",
          "name": "requestNumber",
          "type": "uint256"
        }
      ],
      "name": "RandomGemRequested",
      "type": "event"
    },
    {
      "anonymous": false,
      "inputs": [
        {
          "indexed": true,
          "internalType": "address",
          "name": "from",
          "type": "address"
        },
        {
          "indexed": true,
          "internalType": "address",
          "name": "to",
          "type": "address"
        },
        {
          "indexed": true,
          "internalType": "uint256",
          "name": "tokenId",
          "type": "uint256"
        }
      ],
      "name": "Transfer",
      "type": "event"
    },
    {
      "anonymous": false,
      "inputs": [
        {
          "indexed": false,
          "internalType": "address",
          "name": "from",
          "type": "address"
        },
        {
          "indexed": false,
          "internalType": "address",
          "name": "to",
          "type": "address"
        },
        {
          "indexed": false,
          "internalType": "uint256",
          "name": "tokenId",
          "type": "uint256"
        },
        {
          "indexed": false,
          "internalType": "uint256",
          "name": "gemCooldownDueDate",
          "type": "uint256"
        }
      ],
      "name": "TransferGEM",
      "type": "event"
    },
    {
      "anonymous": false,
      "inputs": [
        {
          "indexed": false,
          "internalType": "address",
          "name": "account",
          "type": "address"
        }
      ],
      "name": "Unpaused",
      "type": "event"
    },
    {
      "inputs": [
        {
          "internalType": "address",
          "name": "_coordinator",
          "type": "address"
        }
      ],
      "name": "DRBInitialize",
      "outputs": [],
      "stateMutability": "nonpayable",
      "type": "function"
    },
    {
      "inputs": [
        {
          "internalType": "uint256",
          "name": "",
          "type": "uint256"
        }
      ],
      "name": "GEMIndexToOwner",
      "outputs": [
        {
          "internalType": "address",
          "name": "",
          "type": "address"
        }
      ],
      "stateMutability": "view",
      "type": "function"
    },
    {
      "inputs": [
        {
          "internalType": "uint256",
          "name": "",
          "type": "uint256"
        }
      ],
      "name": "Gems",
      "outputs": [
        {
          "internalType": "uint256",
          "name": "tokenId",
          "type": "uint256"
        },
        {
          "internalType": "uint256",
          "name": "value",
          "type": "uint256"
        },
        {
          "internalType": "uint256",
          "name": "gemCooldownDueDate",
          "type": "uint256"
        },
        {
          "internalType": "uint256",
          "name": "randomRequestId",
          "type": "uint256"
        },
        {
          "internalType": "enum GemFactoryStorage.Rarity",
          "name": "rarity",
          "type": "uint8"
        },
        {
          "internalType": "uint8",
          "name": "miningTry",
          "type": "uint8"
        },
        {
          "internalType": "bool",
          "name": "isLocked",
          "type": "bool"
        },
        {
          "internalType": "string",
          "name": "tokenURI",
          "type": "string"
        }
      ],
      "stateMutability": "view",
      "type": "function"
    },
    {
      "inputs": [
        {
          "internalType": "address",
          "name": "",
          "type": "address"
        }
      ],
      "name": "aliveImplementation",
      "outputs": [
        {
          "internalType": "bool",
          "name": "",
          "type": "bool"
        }
      ],
      "stateMutability": "view",
      "type": "function"
    },
    {
      "inputs": [
        {
          "internalType": "address",
          "name": "to",
          "type": "address"
        },
        {
          "internalType": "uint256",
          "name": "tokenId",
          "type": "uint256"
        }
      ],
      "name": "approve",
      "outputs": [],
      "stateMutability": "nonpayable",
      "type": "function"
    },
    {
      "inputs": [
        {
          "internalType": "address",
          "name": "owner",
          "type": "address"
        }
      ],
      "name": "balanceOf",
      "outputs": [
        {
          "internalType": "uint256",
          "name": "",
          "type": "uint256"
        }
      ],
      "stateMutability": "view",
      "type": "function"
    },
    {
      "inputs": [],
      "name": "callbackGasLimit",
      "outputs": [
        {
          "internalType": "uint32",
          "name": "",
          "type": "uint32"
        }
      ],
      "stateMutability": "view",
      "type": "function"
    },
    {
      "inputs": [
        {
          "internalType": "uint256",
          "name": "_tokenId",
          "type": "uint256"
        }
      ],
      "name": "cancelMining",
      "outputs": [
        {
          "internalType": "bool",
          "name": "",
          "type": "bool"
        }
      ],
      "stateMutability": "nonpayable",
      "type": "function"
    },
    {
      "inputs": [
        {
          "internalType": "uint8",
          "name": "",
          "type": "uint8"
        },
        {
          "internalType": "uint8",
          "name": "",
          "type": "uint8"
        }
      ],
      "name": "colorName",
      "outputs": [
        {
          "internalType": "string",
          "name": "",
          "type": "string"
        }
      ],
      "stateMutability": "view",
      "type": "function"
    },
    {
      "inputs": [
        {
          "internalType": "uint256",
          "name": "",
          "type": "uint256"
        },
        {
          "internalType": "uint256",
          "name": "",
          "type": "uint256"
        }
      ],
      "name": "colors",
      "outputs": [
        {
          "internalType": "uint8",
          "name": "",
          "type": "uint8"
        }
      ],
      "stateMutability": "view",
      "type": "function"
    },
    {
      "inputs": [],
      "name": "colorsCount",
      "outputs": [
        {
          "internalType": "uint8",
          "name": "",
          "type": "uint8"
        }
      ],
      "stateMutability": "view",
      "type": "function"
    },
    {
      "inputs": [
        {
          "internalType": "uint256",
          "name": "tokenId",
          "type": "uint256"
        }
      ],
      "name": "getApproved",
      "outputs": [
        {
          "internalType": "address",
          "name": "",
          "type": "address"
        }
      ],
      "stateMutability": "view",
      "type": "function"
    },
    {
      "inputs": [
        {
          "internalType": "address",
          "name": "owner",
          "type": "address"
        },
        {
          "internalType": "address",
          "name": "operator",
          "type": "address"
        }
      ],
      "name": "isApprovedForAll",
      "outputs": [
        {
          "internalType": "bool",
          "name": "",
          "type": "bool"
        }
      ],
      "stateMutability": "view",
      "type": "function"
    },
    {
      "inputs": [],
      "name": "name",
      "outputs": [
        {
          "internalType": "string",
          "name": "",
          "type": "string"
        }
      ],
      "stateMutability": "view",
      "type": "function"
    },
    {
      "inputs": [
        {
          "internalType": "enum GemFactoryStorage.Rarity",
          "name": "",
          "type": "uint8"
        }
      ],
      "name": "numberMiningGemsByRarity",
      "outputs": [
        {
          "internalType": "uint256",
          "name": "",
          "type": "uint256"
        }
      ],
      "stateMutability": "view",
      "type": "function"
    },
    {
      "inputs": [
        {
          "internalType": "uint256",
          "name": "tokenId",
          "type": "uint256"
        }
      ],
      "name": "ownerOf",
      "outputs": [
        {
          "internalType": "address",
          "name": "",
          "type": "address"
        }
      ],
      "stateMutability": "view",
      "type": "function"
    },
    {
      "inputs": [
        {
          "internalType": "address",
          "name": "",
          "type": "address"
        }
      ],
      "name": "ownershipTokenCount",
      "outputs": [
        {
          "internalType": "uint256",
          "name": "",
          "type": "uint256"
        }
      ],
      "stateMutability": "view",
      "type": "function"
    },
    {
      "inputs": [],
      "name": "pauseProxy",
      "outputs": [
        {
          "internalType": "bool",
          "name": "",
          "type": "bool"
        }
      ],
      "stateMutability": "view",
      "type": "function"
    },
    {
      "inputs": [],
      "name": "paused",
      "outputs": [
        {
          "internalType": "bool",
          "name": "",
          "type": "bool"
        }
      ],
      "stateMutability": "view",
      "type": "function"
    },
    {
      "inputs": [
        {
          "internalType": "uint256",
          "name": "_tokenId",
          "type": "uint256"
        }
      ],
      "name": "pickMinedGEM",
      "outputs": [
        {
          "internalType": "uint256",
          "name": "",
          "type": "uint256"
        }
      ],
      "stateMutability": "payable",
      "type": "function"
    },
    {
      "inputs": [
        {
          "internalType": "uint256",
          "name": "",
          "type": "uint256"
        }
      ],
      "name": "proxyImplementation",
      "outputs": [
        {
          "internalType": "address",
          "name": "",
          "type": "address"
        }
      ],
      "stateMutability": "view",
      "type": "function"
    },
    {
      "inputs": [
        {
          "internalType": "uint256",
          "name": "requestId",
          "type": "uint256"
        },
        {
          "internalType": "uint256",
          "name": "randomWord",
          "type": "uint256"
        }
      ],
      "name": "rawFulfillRandomWords",
      "outputs": [],
      "stateMutability": "nonpayable",
      "type": "function"
    },
    {
      "inputs": [
        {
          "internalType": "uint256",
          "name": "",
          "type": "uint256"
        }
      ],
      "name": "s_requests",
      "outputs": [
        {
          "internalType": "uint256",
          "name": "tokenId",
          "type": "uint256"
        },
        {
          "internalType": "uint256",
          "name": "randomWord",
          "type": "uint256"
        },
        {
          "internalType": "uint256",
          "name": "chosenTokenId",
          "type": "uint256"
        },
        {
          "internalType": "address",
          "name": "requester",
          "type": "address"
        },
        {
          "internalType": "bool",
          "name": "requested",
          "type": "bool"
        },
        {
          "internalType": "bool",
          "name": "fulfilled",
          "type": "bool"
        }
      ],
      "stateMutability": "view",
      "type": "function"
    },
    {
      "inputs": [
        {
          "internalType": "address",
          "name": "from",
          "type": "address"
        },
        {
          "internalType": "address",
          "name": "to",
          "type": "address"
        },
        {
          "internalType": "uint256",
          "name": "tokenId",
          "type": "uint256"
        }
      ],
      "name": "safeTransferFrom",
      "outputs": [],
      "stateMutability": "nonpayable",
      "type": "function"
    },
    {
      "inputs": [
        {
          "internalType": "address",
          "name": "from",
          "type": "address"
        },
        {
          "internalType": "address",
          "name": "to",
          "type": "address"
        },
        {
          "internalType": "uint256",
          "name": "tokenId",
          "type": "uint256"
        },
        {
          "internalType": "bytes",
          "name": "data",
          "type": "bytes"
        }
      ],
      "name": "safeTransferFrom",
      "outputs": [],
      "stateMutability": "nonpayable",
      "type": "function"
    },
    {
      "inputs": [
        {
          "internalType": "bytes4",
          "name": "",
          "type": "bytes4"
        }
      ],
      "name": "selectorImplementation",
      "outputs": [
        {
          "internalType": "address",
          "name": "",
          "type": "address"
        }
      ],
      "stateMutability": "view",
      "type": "function"
    },
    {
      "inputs": [
        {
          "internalType": "address",
          "name": "operator",
          "type": "address"
        },
        {
          "internalType": "bool",
          "name": "approved",
          "type": "bool"
        }
      ],
      "name": "setApprovalForAll",
      "outputs": [],
      "stateMutability": "nonpayable",
      "type": "function"
    },
    {
      "inputs": [
        {
          "internalType": "uint256",
          "name": "_tokenId",
          "type": "uint256"
        }
      ],
      "name": "startMiningGEM",
      "outputs": [
        {
          "internalType": "bool",
          "name": "",
          "type": "bool"
        }
      ],
      "stateMutability": "nonpayable",
      "type": "function"
    },
    {
      "inputs": [
        {
          "internalType": "bytes4",
          "name": "interfaceId",
          "type": "bytes4"
        }
      ],
      "name": "supportsInterface",
      "outputs": [
        {
          "internalType": "bool",
          "name": "",
          "type": "bool"
        }
      ],
      "stateMutability": "view",
      "type": "function"
    },
    {
      "inputs": [],
      "name": "symbol",
      "outputs": [
        {
          "internalType": "string",
          "name": "",
          "type": "string"
        }
      ],
      "stateMutability": "view",
      "type": "function"
    },
    {
      "inputs": [
        {
          "internalType": "address",
          "name": "",
          "type": "address"
        }
      ],
      "name": "tokenMiningByUser",
      "outputs": [
        {
          "internalType": "uint256",
          "name": "",
          "type": "uint256"
        }
      ],
      "stateMutability": "view",
      "type": "function"
    },
    {
      "inputs": [
        {
          "internalType": "uint256",
          "name": "",
          "type": "uint256"
        }
      ],
      "name": "tokenReadyToMine",
      "outputs": [
        {
          "internalType": "bool",
          "name": "",
          "type": "bool"
        }
      ],
      "stateMutability": "view",
      "type": "function"
    },
    {
      "inputs": [
        {
          "internalType": "uint256",
          "name": "tokenId",
          "type": "uint256"
        }
      ],
      "name": "tokenURI",
      "outputs": [
        {
          "internalType": "string",
          "name": "",
          "type": "string"
        }
      ],
      "stateMutability": "view",
      "type": "function"
    },
    {
      "inputs": [
        {
          "internalType": "address",
          "name": "from",
          "type": "address"
        },
        {
          "internalType": "address",
          "name": "to",
          "type": "address"
        },
        {
          "internalType": "uint256",
          "name": "tokenId",
          "type": "uint256"
        }
      ],
      "name": "transferFrom",
      "outputs": [],
      "stateMutability": "nonpayable",
      "type": "function"
    },
    {
      "inputs": [
        {
          "internalType": "address",
          "name": "",
          "type": "address"
        },
        {
          "internalType": "uint256",
          "name": "",
          "type": "uint256"
        }
      ],
      "name": "userMiningStartTime",
      "outputs": [
        {
          "internalType": "uint256",
          "name": "",
          "type": "uint256"
        }
      ],
      "stateMutability": "view",
      "type": "function"
    },
    {
      "inputs": [
        {
          "internalType": "address",
          "name": "",
          "type": "address"
        },
        {
          "internalType": "uint256",
          "name": "",
          "type": "uint256"
        }
      ],
      "name": "userMiningToken",
      "outputs": [
        {
          "internalType": "bool",
          "name": "",
          "type": "bool"
        }
      ],
      "stateMutability": "view",
      "type": "function"
    }
  ],
  "bytecode": "0x608080604052346027576001601f556020805460ff60a01b191690556123a5908161002d8239f35b600080fdfe608080604052600436101561001357600080fd5b60003560e01c90816301ffc9a714611a7f5750806306fdde03146119b8578063081812fc1461196d578063095ea7b3146118865780631da0fc9c1461168a57806323b872dd1461167357806324f746971461164c578063274f245514611253578063356edf741461123257806337ed11db14610bfe57806342842e0e14610bd657806350d2a27614610b91578063550d01a314610b525780635c975abb14610b2f5780635f2d002314610ac957806361f7f6d714610a0d5780636352211e146109dd57806363a8fd89146109ba578063676f79f11461097257806370a08231146109265780637807adc8146108a25780637866369b1461087157806395d89b411461075d57806397125c4014610729578063a168fa89146106b8578063a1770a7d1461066b578063a22cb465146105cb578063ad6caa4714610442578063b88d4fde146103b8578063b911135f14610384578063c13890721461034a578063c87b56dd146102ce578063cec21acb14610294578063e985e9c514610246578063ea094c39146102155763f317d7dd146101ab57600080fd5b34610210576101b936611ba5565b906007548110156102105760076000527fa66cc928b5edb82af9bd49922954155ab7b0942694bea4ce44661d9a8736c688019060028110156102105760ff6020928260051c015460f86040519360031b161c168152f35b600080fd5b346102105760203660031901126102105760043560068110156102105761023d602091611ddb565b54604051908152f35b346102105760403660031901126102105761025f611b44565b61027061026a611b5a565b91611c28565b9060018060a01b0316600052602052602060ff604060002054166040519015158152f35b34610210576020366003190112610210576001600160a01b036102b5611b44565b1660005260096020526020604060002054604051908152f35b34610210576020366003190112610210576004356102eb81612172565b506000527f0542a41881ee128a365a727b282c86fa859579490b9bb45aab8503648c8e79006020526103466103236040600020611cb8565b600060405161033181611c7c565b52604051918291602083526020830190611b04565b0390f35b34610210576020366003190112610210576001600160a01b0361036b611b44565b16600052600a6020526020604060002054604051908152f35b34610210576020366003190112610210576004356000526001602052602060018060a01b0360406000205416604051908152f35b34610210576080366003190112610210576103d1611b44565b6103d9611b5a565b606435916001600160401b03831161021057366023840112156102105782600401359161040583611dc0565b926104136040519485611c97565b80845236602482870101116102105760208160009260246104409801838801378501015260443591612047565b005b34610210576020806003193601126102105760043561046660ff6010541615611df4565b60008181526008835260409020546001600160a01b031633036105b957600160ff600461049284611d8b565b50015460101c161515036105a85733600052600b82526040600020816000528252600160ff604060002054161515036105965760036104d082611d8b565b5001546105845760607fca17641f3c9a2465d959a125078cfc9df9fe8f8f67f9a9a4b4a7e22ae7c6e9aa9161050433611bbb565b816000528452604060002060ff19815416905561052033611bd5565b81600052845260006040812055600461053882611d8b565b5001805462ff00001916905561055d60ff600461055484611d8b565b50015416611ddb565b6105678154612227565b90556040519081523384820152426040820152a160405160018152f35b604051635e288c1960e11b8152600490fd5b60405163126552f960e01b8152600490fd5b604051622a569d60e11b8152600490fd5b6040516302b327b560e41b8152600490fd5b34610210576040366003190112610210576105e4611b44565b60243590811515809203610210576001600160a01b03169081156106525761060b33611c28565b82600052602052604060002060ff1981541660ff83161790556040519081527f17307eab39ab6107e8899845ad3d59bd9653f200f220920489ca2b5937696c3160203392a3005b604051630b61174360e31b815260048101839052602490fd5b34610210576040366003190112610210576001600160a01b0361068c611b44565b16600052600b6020526040600020602435600052602052602060ff604060002054166040519015158152f35b3461021057602036600319011261021057600435600052600f60205260c0604060002060ff81549160018101549060036002820154910154916040519485526020850152604084015260018060a01b0381166060840152818160a01c161515608084015260a81c16151560a0820152f35b34610210576020366003190112610210576004356000526008602052602060018060a01b0360406000205416604051908152f35b34610210576000366003190112610210576040517f80bb2b638cc20bc4d0a60d66940f3ab4a00c1d7b313497ca82fb0b4ab0079301805490600182811c91818416916000918315610867575b602095868610851461085157868895878752918260001461082f5750506001146107f0575b50506107dc92500383611c97565b610346604051928284938452830190611b04565b85925060005281600020906000915b8583106108175750506107dc935082010185806107ce565b805483890185015287945086939092019181016107ff565b92509350506107dc94915060ff191682840152151560051b82010185806107ce565b634e487b7160e01b600052602260045260246000fd5b93607f16936107a9565b3461021057602036600319011261021057600435600052600d602052602060ff604060002054166040519015158152f35b34610210576020366003190112610210576108bb611b44565b6020549060ff8260a01c166109145760018060a01b03167f7ba1607c66ed196dd1c0fbb5e5aeea4ec29fe62880f58c244f91af5330d6e6e16020604051838152a16001600160a81b031990911617600160a01b17602055005b604051637a1a52b760e01b8152600490fd5b346102105760203660031901126102105761093f611b44565b6001600160a01b038116156109595761023d602091611bef565b6040516322718ad960e21b815260006004820152602490fd5b34610210576040366003190112610210576001600160a01b03610993611b44565b16600052600c60205260406000206024356000526020526020604060002054604051908152f35b3461021057600036600319011261021057602060ff600054166040519015158152f35b346102105760203660031901126102105760206109fb600435612172565b6040516001600160a01b039091168152f35b346102105760203660031901126102105760043560045481101561021057610a3490611d8b565b508054906001810154916002820154600383015491600484015492610a5f600760ff86169601611cb8565b92604051966101009388526020880152604087015260608601526006841015610ab35760ff6103469386956080870152818160081c1660a087015260101c16151560c08501528060e0850152830190611b04565b634e487b7160e01b600052602160045260246000fd5b346102105760403660031901126102105760043560ff8116809103610210576024359060ff8216809203610210576000526005602052604060002090600052602052610346610b1b6040600020611cb8565b604051918291602083526020830190611b04565b3461021057600036600319011261021057602060ff601054166040519015158152f35b34610210576020366003190112610210576001600160a01b03610b73611b44565b166000526002602052602060ff604060002054166040519015158152f35b346102105760203660031901126102105760043563ffffffff60e01b8116809103610210576000526003602052602060018060a01b0360406000205416604051908152f35b3461021057610440610be736611b70565b9060405192610bf584611c7c565b60008452612047565b3461021057610c0c36611ba5565b6020549091906001600160a01b031633819003611214575080600052600f908160205260ff60036040600020015460a01c161561120257600081815260208390526040902060038101805460ff60a81b1916600160a81b179055600181018490555492610c7884611d8b565b509060ff60056040519301548181168452818160081c166020850152818160101c16604085015260181c1660608301528160808101106001600160401b036080840111176111ec576080820160405260ff8251169060ff6020840151169260ff6060816040840151169201511692610d0d600094610d0860045494610d08610cff8761224b565b9960009661227d565b61227d565b60005b8381106110fa5750505050610d248261224b565b9260005b8381106110db575050604051604081018382526040602083015284518091526060820190602086019060005b8181106110c55750505090807fdd6ebb40766c50572c78f680f70ff043535bc04e71ac56a352f7c3df1e11ec51920390a18115806110475761103157600492610dba92610da29206906121f8565b51836000528460205280600260406000200155611d8b565b5001805461ff0019169055601c546000828152602084815260408083206003810154600290910154915163048dbcef60e41b815294929385936001600160a01b039081169385938492610e129291166004840161220c565b03925af190811561102557600091610fea575b5015610faa5780600052816020527fb9874b9aa8f1986f23eedb12a3ecf1c3033ff8e7d332f10b701fa43226dc6ec960a06002610e688160406000200154611d8b565b5001548360005284602052604060002090610ea1610e9b60ff6004610e9260028701549654611d8b565b50015416612291565b4261200a565b8560005286602052600180851b036003604060002001541691604051938985526020850152604084015260608301526080820152a15b6004610ee284611d8b565b5001805462ff00001916905560006003610efb85611d8b565b500155600052602052610f1c610e9b60ff6004610e92604060002054611d8b565b6002610f2783611d8b565b500155610f3a60ff600461055484611d8b565b610f448154612227565b90556001600160a01b03610f5782612172565b16600052600b602052604060002081600052602052604060002060ff19815416905560018060a01b03610f8982612172565b16600052600c60205260406000209060005260205260006040812055600080f35b60405162461bcd60e51b81526020600482015260186024820152773330b4b632b2103a37903a3930b739b332b9103a37b5b2b760411b6044820152606490fd5b90506020813d60201161101d575b8161100560209383611c97565b81010312610210575180151581036102105784610e25565b3d9150610ff8565b6040513d6000823e3d90fd5b634e487b7160e01b600052601260045260246000fd5b5050505080600052816020527fccaae9bb2bca53d8b0d708515a73d3a7e963ed3e3e583c0a554f72651e8db52a6060611095610e9b60ff6004610e9260406000206000600282015554611d8b565b836000528460205260018060a01b03600360406000200154166040519187835260208301526040820152a1610ed7565b8251845260209384019390920191600101610d54565b806110e8600192846121f8565b516110f382886121f8565b5201610d28565b61114561112b60ff600561110d85611d8b565b5001541660ff600561111e86611d8b565b50015460081c169061227d565b60ff600561113885611d8b565b50015460101c169061227d565b60ff61116861115384611d8b565b509282600581881695015460181c169061227d565b1610806111c6575b806111ab575b611183575b600101610d10565b9491600180809261119389611d8b565b505461119f828c6121f8565b5201930195905061117b565b5060ff60046111b983611d8b565b50015460101c1615611176565b50600081815260086020526040902054601c546001600160a01b03908116911614611170565b634e487b7160e01b600052604160045260246000fd5b6040516392b8197960e01b8152600490fd5b6044906040519063073e64fd60e21b82523360048301526024820152fd5b3461021057600036600319011261021057602060ff60065416604051908152f35b6020806003193601126102105760105460043561127360ff831615611df4565b6002601f541461163a576002601f5561128b81612172565b6001600160a01b03929033908416036105b95733600052600c845260406000208260005284526040600020549060ff60046112c585611d8b565b500154166006811015610ab3576001810361159457509063ffffffff6112ef9260301c169061200a565b42106115825760ff600461130283611d8b565b50015460101c16156105a8578161131882612172565b16600052600b83526040600020816000528352600160ff604060002054161515036105965761138763ffffffff60115460801c16928454168460405161135d81611c61565b600081526000828201528560408201526040518094819263a6c278f360e01b8352600483016121cc565b0381845afa93841561102557859260009561154f575b508492916113dd91604051906113b282611c61565b6000825260008583015260408201526040519687809481936309160b1560e11b8352600483016121cc565b03925af192831561102557600093611520575b508260036113fd84611d8b565b5001556000838152600f85526040902082815560030180546001600160a81b0319163317600160a01b179055601980546001019055348110611484575b50604081600361146a7f92f40ca7d6cff5022608e05da6b963f9ac5a227ea2da740f7d35831bb78c285d94611d8b565b500154825191825285820152a16001601f55604051908152f35b340334811161150a57600080808084335af161149e612017565b50156114f8577f92f40ca7d6cff5022608e05da6b963f9ac5a227ea2da740f7d35831bb78c285d917f27468d49151596d3863ccb02e3911b3146a62533facd0765451ba556bb4fd9c8856040938451908152a1915061143a565b604051631e53f7e560e11b8152600490fd5b634e487b7160e01b600052601160045260246000fd5b9092508381813d8311611548575b6115388183611c97565b81010312610210575191846113f0565b503d61152e565b9194509181813d811161157b575b6115678183611c97565b8101031261021057519284916113dd61139d565b503d61155d565b6040516334ced31760e11b8152600490fd5b600281036115b157509063ffffffff6112ef9260501c169061200a565b600381036115ce57509063ffffffff6112ef9260701c169061200a565b600481036115eb57509063ffffffff6112ef9260901c169061200a565b600503611606579063ffffffff6112ef9260b01c169061200a565b60405162461bcd60e51b815260048101869052600c60248201526b77726f6e672072617269747960a01b6044820152606490fd5b604051633ee5aeb560e01b8152600490fd5b3461021057600036600319011261021057602063ffffffff60115460801c16604051908152f35b346102105761044061168436611b70565b91611e33565b346102105760203660031901126102105760043560ff906116af826010541615611df4565b331561187457336001600160a01b036116c783612172565b16036105b95760026116d882611d8b565b5001544210611862578160046116ed83611d8b565b50015460101c166118505781600461170483611d8b565b500154166006811015610ab3571561183e5781600461172283611d8b565b50015460081c161561182c5761173733611bbb565b816000526020526040600020600160ff1982541617905561175733611bd5565b8160005260205242604060002055600461177082611d8b565b5001805462ff0000191662010000179055600461178c82611d8b565b500190815491838360081c1692831561150a5761ff00191660001993840160081b61ff00161790556117c383600461055484611d8b565b92835492831461150a577fcfdb0da0eda7e72692cc304e4e58d2543a70ce5269931e91e02337cbff2a1ef1936001608094019055600461180283611d8b565b50015460081c166040519182523360208301524260408301526060820152a1602060405160018152f35b60405163bc758f1b60e01b8152600490fd5b60405163036cae1f60e31b8152600490fd5b604051635399ebf560e01b8152600490fd5b604051634a448f3760e01b8152600490fd5b604051639fabe1c160e01b8152600490fd5b346102105760403660031901126102105761189f611b44565b6024356118ab81612172565b3315158061195a575b8061193a575b611922576001600160a01b039283169282918491167f8c5be1e5ebec7d5bd14f71427d1e84f3dd0314c0f7b2291e5b200ac8c7c3b925600080a460009081526000805160206123508339815191526020526040902080546001600160a01b0319169091179055005b60405163a9fbf51f60e01b8152336004820152602490fd5b5061194481611c28565b3360005260205260ff60406000205416156118ba565b506001600160a01b0381163314156118b4565b346102105760203660031901126102105760043561198a81612172565b50600052600080516020612350833981519152602052602060018060a01b0360406000205416604051908152f35b34610210576000366003190112610210576040517f80bb2b638cc20bc4d0a60d66940f3ab4a00c1d7b313497ca82fb0b4ab0079300805490600182811c91818416916000918315611a75575b602095868610851461085157868895878752918260001461082f575050600114611a365750506107dc92500383611c97565b85925060005281600020906000915b858310611a5d5750506107dc935082010185806107ce565b80548389018501528794508693909201918101611a45565b93607f1693611a04565b34610210576020366003190112610210576004359063ffffffff60e01b821680920361021057602091632483248360e11b8114908115611ac1575b5015158152f35b6380ac58cd60e01b811491508115611af3575b8115611ae2575b5083611aba565b6301ffc9a760e01b14905083611adb565b635b5e139f60e01b81149150611ad4565b919082519283825260005b848110611b30575050826000602080949584010152601f8019910116010190565b602081830181015184830182015201611b0f565b600435906001600160a01b038216820361021057565b602435906001600160a01b038216820361021057565b6060906003190112610210576001600160a01b0390600435828116810361021057916024359081168103610210579060443590565b6040906003190112610210576004359060243590565b6001600160a01b03166000908152600b6020526040902090565b6001600160a01b03166000908152600c6020526040902090565b6001600160a01b031660009081527f80bb2b638cc20bc4d0a60d66940f3ab4a00c1d7b313497ca82fb0b4ab00793036020526040902090565b6001600160a01b031660009081527f80bb2b638cc20bc4d0a60d66940f3ab4a00c1d7b313497ca82fb0b4ab00793056020526040902090565b606081019081106001600160401b038211176111ec57604052565b602081019081106001600160401b038211176111ec57604052565b90601f801991011681019081106001600160401b038211176111ec57604052565b9060405190600083549060018260011c9060018416968715611d81575b6020948584108914611d6d5787988489979899529081600014611d4b5750600114611d0c575b505050611d0a92500383611c97565b565b600090815285812095935091905b818310611d33575050611d0a9350820101388080611cfb565b85548884018501529485019487945091830191611d1a565b92505050611d0a94925060ff191682840152151560051b820101388080611cfb565b634e487b7160e01b85526022600452602485fd5b91607f1691611cd5565b600454811015611daa57600460005260206000209060031b0190600090565b634e487b7160e01b600052603260045260246000fd5b6001600160401b0381116111ec57601f01601f191660200190565b6006811015610ab357600052600e602052604060002090565b15611dfb57565b60405162461bcd60e51b815260206004820152601060248201526f14185d5cd8589b194e881c185d5cd95960821b6044820152606490fd5b6001600160a01b0382811693918415611ff157826000958187527f80bb2b638cc20bc4d0a60d66940f3ab4a00c1d7b313497ca82fb0b4ab00793029586602052604085818a20541697889233151580611f46575b5090611eb97fddf252ad1be2c89b69c2b068fc378daa952ba7f163c4a11628f55a4df523b3ef939285611f0a57611bef565b80546001019055858b52602052808a2080546001600160a01b03191685179055519880a416808303611eeb5750505050565b6364283d7b60e01b845260048401526024830152604482015260649150fd5b878d52600080516020612350833981519152602052838d2080546001600160a01b0319169055611f3986611bef565b8054600019019055611bef565b9193509193945080611fa2575b15611f645791879187949338611e87565b828789611f81576024915190637e27328960e01b82526004820152fd5b905163177e802f60e01b8152908190611f9e90336004840161220c565b0390fd5b503388148015611fd5575b80611f5357508689526000805160206123508339815191526020523386848b20541614611f53565b50611fdf88611c28565b338a5260205260ff838a205416611fad565b604051633250574960e11b815260006004820152602490fd5b9190820180921161150a57565b3d15612042573d9061202882611dc0565b916120366040519384611c97565b82523d6000602084013e565b606090565b9190612054828285611e33565b803b612061575b50505050565b6120a360018060a01b0380921694604051938493630a85bd0160e11b968786523360048701521660248501526044840152608060648401526084830190611b04565b03906020816000938185885af190829082612122575b50506120f157826120c8612017565b80519190826120ea57604051633250574960e11b815260048101839052602490fd5b9050602001fd5b6001600160e01b0319160361210a57503880808061205b565b60249060405190633250574960e11b82526004820152fd5b909192506020813d60201161216a575b8161213f60209383611c97565b810103126121665751906001600160e01b03198216820361216357509038806120b9565b80fd5b5080fd5b3d9150612132565b60008181527f80bb2b638cc20bc4d0a60d66940f3ab4a00c1d7b313497ca82fb0b4ab007930260205260409020546001600160a01b03169081156121b4575090565b60249060405190637e27328960e01b82526004820152fd5b919091604063ffffffff81606084019561ffff8082511686526020820151166020860152015116910152565b8051821015611daa5760209160051b010190565b6001600160a01b039091168152602081019190915260400190565b801561150a576000190190565b6001600160401b0381116111ec5760051b60200190565b9061225582612234565b6122626040519182611c97565b8281528092612273601f1991612234565b0190602036910137565b9060ff8091169116019060ff821161150a57565b6006811015610ab35780156123495760018114612339576002811461232c576003811461231c576004811461230c576005146122fd5760405162461bcd60e51b815260206004820152600e60248201526d496e76616c69642072617269747960901b6044820152606490fd5b63ffffffff60115460601c1690565b5063ffffffff60115460401c1690565b5063ffffffff60115460201c1690565b5063ffffffff6011541690565b5063ffffffff60105460d01c1690565b5060009056fe80bb2b638cc20bc4d0a60d66940f3ab4a00c1d7b313497ca82fb0b4ab0079304a26469706673582212208488aac9e4c45ef77aff224640d0b02b0491ab1fa664b58530bc462d1fc0099964736f6c63430008190033",
  "linkReferences": {},
  "deployedLinkReferences": {}
}