{"abi":[{"type":"constructor","inputs":[{"name":"avgL2GasUsed","type":"uint256","internalType":"uint256"},{"name":"premiumPercentage","type":"uint256","internalType":"uint256"},{"name":"flatFee","type":"uint256","internalType":"uint256"},{"name":"calldataSizeBytes","type":"uint256","internalType":"uint256"}],"stateMutability":"nonpayable"},{"type":"function","name":"calculateDirectFundingPrice","inputs":[{"name":"_request","type":"tuple","internalType":"struct IDRBCoordinator.RandomWordsRequest","components":[{"name":"security","type":"uint16","internalType":"uint16"},{"name":"mode","type":"uint16","internalType":"uint16"},{"name":"callbackGasLimit","type":"uint32","internalType":"uint32"}]}],"outputs":[{"name":"","type":"uint256","internalType":"uint256"}],"stateMutability":"view"},{"type":"function","name":"estimateDirectFundingPrice","inputs":[{"name":"gasPrice","type":"uint256","internalType":"uint256"},{"name":"_request","type":"tuple","internalType":"struct IDRBCoordinator.RandomWordsRequest","components":[{"name":"security","type":"uint16","internalType":"uint16"},{"name":"mode","type":"uint16","internalType":"uint16"},{"name":"callbackGasLimit","type":"uint32","internalType":"uint32"}]}],"outputs":[{"name":"","type":"uint256","internalType":"uint256"}],"stateMutability":"view"},{"type":"function","name":"fulfillRandomness","inputs":[{"name":"requestId","type":"uint256","internalType":"uint256"}],"outputs":[],"stateMutability":"nonpayable"},{"type":"function","name":"owner","inputs":[],"outputs":[{"name":"","type":"address","internalType":"address"}],"stateMutability":"view"},{"type":"function","name":"renounceOwnership","inputs":[],"outputs":[],"stateMutability":"nonpayable"},{"type":"function","name":"requestRandomWordDirectFunding","inputs":[{"name":"_request","type":"tuple","internalType":"struct IDRBCoordinator.RandomWordsRequest","components":[{"name":"security","type":"uint16","internalType":"uint16"},{"name":"mode","type":"uint16","internalType":"uint16"},{"name":"callbackGasLimit","type":"uint32","internalType":"uint32"}]}],"outputs":[{"name":"requestId","type":"uint256","internalType":"uint256"}],"stateMutability":"payable"},{"type":"function","name":"s_l1FeeCalculationMode","inputs":[],"outputs":[{"name":"","type":"uint8","internalType":"uint8"}],"stateMutability":"view"},{"type":"function","name":"s_l1FeeCoefficient","inputs":[],"outputs":[{"name":"","type":"uint8","internalType":"uint8"}],"stateMutability":"view"},{"type":"function","name":"setL1FeeCalculation","inputs":[{"name":"mode","type":"uint8","internalType":"uint8"},{"name":"coefficient","type":"uint8","internalType":"uint8"}],"outputs":[],"stateMutability":"nonpayable"},{"type":"function","name":"transferOwnership","inputs":[{"name":"newOwner","type":"address","internalType":"address"}],"outputs":[],"stateMutability":"nonpayable"},{"type":"event","name":"FulfillRandomness","inputs":[{"name":"requestId","type":"uint256","indexed":false,"internalType":"uint256"},{"name":"success","type":"bool","indexed":false,"internalType":"bool"},{"name":"fulfiller","type":"address","indexed":false,"internalType":"address"}],"anonymous":false},{"type":"event","name":"L1FeeCalculationSet","inputs":[{"name":"mode","type":"uint8","indexed":false,"internalType":"uint8"},{"name":"coefficient","type":"uint8","indexed":false,"internalType":"uint8"}],"anonymous":false},{"type":"event","name":"OwnershipTransferred","inputs":[{"name":"previousOwner","type":"address","indexed":true,"internalType":"address"},{"name":"newOwner","type":"address","indexed":true,"internalType":"address"}],"anonymous":false},{"type":"event","name":"RandomWordsRequested","inputs":[{"name":"requestId","type":"uint256","indexed":false,"internalType":"uint256"},{"name":"requestedTime","type":"uint256","indexed":false,"internalType":"uint256"}],"anonymous":false},{"type":"error","name":"AlreadyFullfilled","inputs":[]},{"type":"error","name":"InsufficientAmount","inputs":[]},{"type":"error","name":"InvalidL1FeeCalculationMode","inputs":[{"name":"mode","type":"uint8","internalType":"uint8"}]},{"type":"error","name":"InvalidL1FeeCoefficient","inputs":[{"name":"coefficient","type":"uint8","internalType":"uint8"}]},{"type":"error","name":"NoRequestFound","inputs":[]},{"type":"error","name":"OwnableInvalidOwner","inputs":[{"name":"owner","type":"address","internalType":"address"}]},{"type":"error","name":"OwnableUnauthorizedAccount","inputs":[{"name":"account","type":"address","internalType":"address"}]},{"type":"error","name":"ReentrancyGuardReentrantCall","inputs":[]}],"bytecode":{"object":"0x608060405234610034575b61001e610015610118565b9291909161019d565b610026610039565b6120696104c3823961206990f35b61003f565b60405190565b600080fd5b601f801991011690565b634e487b7160e01b600052604160045260246000fd5b9061006e90610044565b810190811060018060401b03821117610087575b604052565b61004e565b9061009f610098610039565b9283610064565b565b600080fd5b90565b6100b2816100a6565b9014156100bc575b565b600080fd5b905051906100ce826100a9565b565b608081830312610113575b6100e882600083016100c1565b926101106100f984602085016100c1565b93606061010982604087016100c1565b94016100c1565b90565b6100a1565b61013661252c8038038061012b8161008c565b9283398101906100d0565b90919293565b60001b90565b9061014f6000199161013c565b91811990169116901790565b90565b61017261016d610177926100a6565b61015b565b6100a6565b90565b90565b9061019261018d6101999261015e565b61017a565b8254610142565b9055565b916101c46101cb926101bd6101d296956101b6336102c7565b600161017d565b600261017d565b600361017d565b600461017d565b565b90565b60ff901690565b6101f26101ed6101f7926101d4565b61015b565b6101d7565b90565b61020460046101de565b90565b60a01b90565b9061021c60ff60a01b91610207565b91811990169116901790565b61023c610237610241926101d7565b61015b565b6101d7565b90565b90565b9061025c61025761026392610228565b610244565b825461020d565b9055565b60a81b90565b9061027c60ff60a81b91610267565b91811990169116901790565b90565b61029f61029a6102a492610288565b61015b565b6101d7565b90565b906102bc6102b76102c39261028b565b610244565b825461026d565b9055565b6102d0906102f0565b6102e26102db6101fa565b6000610247565b6102ee606460006102a7565b565b6102f990610361565b565b90565b60018060a01b03901690565b61031e610319610323926102fb565b61015b565b6102fe565b90565b61032f9061030a565b90565b61033b906102fe565b90565b61034790610332565b9052565b919061035f9060006020850194019061033e565b565b61036b6000610326565b61037481610332565b61037d83610332565b1461038f575b5061038d90610463565b565b6103b19061039b610039565b918291631e4fbdf760e01b83526004830161034b565b0390fd5b60001c90565b60018060a01b03901690565b6103d36103d8916103b5565b6103bb565b90565b6103e590546103c7565b90565b906103f960018060a01b039161013c565b91811990169116901790565b61041961041461041e926102fe565b61015b565b6102fe565b90565b61042a90610405565b90565b61043690610421565b90565b90565b9061045161044c6104589261042d565b610439565b82546103e8565b9055565b6000900190565b61048961048361047360006103db565b61047e84600061043c565b61042d565b9161042d565b907f8be0079c531659141344cd1fd0a4f28419497f9722a3daafe3b4186f6b6457e06104b3610039565b806104bd8161045c565b0390a356fe60806040526004361015610013575b61052b565b61001e6000356100cc565b8063122c162a146100c7575b806314530741146100c2575b806340e3290f146100bd575b8063495bd94e146100b8575b8063715018a6146100b3575b8063807ca9d6146100ae575b80638da5cb5b146100a9575b806390bd5c74146100a4575b8063a6c278f31461009f575b63f2fde38b1461009a575b61000e565b6104f7565b61047a565b610444565b6103ff565b61038d565b61032a565b6102f6565b610279565b6101d0565b61013c565b60e01c90565b60405190565b600080fd5b600080fd5b908160609103126100f1575b90565b6100dd565b90606082820312610111575b600061010e92016100e2565b90565b6100d8565b90565b61012290610116565b9052565b919061013a90600060208501940190610119565b565b61016361015261014d3660046100f6565b610a81565b61015a6100d2565b91829182610126565b0390f35b600080fd5b60ff901690565b61017c8161016c565b901415610186575b565b600080fd5b9050359061019882610173565b565b91906040838203126101c4575b8060206101ba6101c1936000870161018b565b940161018b565b90565b6100d8565b6000900190565b34610200575b6101ea6101e436600461019a565b90610ab7565b6101f26100d2565b806101fc816101c9565b0390f35b610167565b6000910312610211575b565b6100d8565b1c90565b60ff901690565b6102319060086102369302610216565b61021a565b90565b906102449154610221565b90565b61025360146000610239565b90565b61025f9061016c565b9052565b919061027790600060208501940190610256565b565b346102aa575b61028a366004610205565b6102a6610295610247565b61029d6100d2565b91829182610263565b0390f35b610167565b6102b881610116565b9014156102c2575b565b600080fd5b905035906102d4826102af565b565b906020828203126102f1575b60006102ee92016102c7565b90565b6100d8565b34610325575b61030f61030a3660046102d6565b61107c565b6103176100d2565b80610321816101c9565b0390f35b610167565b34610359575b61033b366004610205565b6103436110d5565b61034b6100d2565b80610355816101c9565b0390f35b610167565b9190608083820312610388575b80602061037e61038593600087016102c7565b94016100e2565b90565b6100d8565b346103bf575b6103bb6103aa6103a436600461035e565b906110df565b6103b26100d2565b91829182610126565b0390f35b610167565b60018060a01b03901690565b6103d9906103c4565b90565b6103e5906103d0565b9052565b91906103fd906000602085019401906103dc565b565b34610430575b610410366004610205565b61042c61041b6110fa565b6104236100d2565b918291826103e9565b0390f35b610167565b61044160156000610239565b90565b34610475575b610455366004610205565b610471610460610435565b6104686100d2565b91829182610263565b0390f35b610167565b346104ab575b6104a76104966104913660046100f6565b611110565b61049e6100d2565b91829182610126565b0390f35b610167565b6104b9816103d0565b9014156104c3575b565b600080fd5b905035906104d5826104b0565b565b906020828203126104f2575b60006104ef92016104c8565b90565b6100d8565b34610526575b61051061050b3660046104d7565b61118d565b6105186100d2565b80610522816101c9565b0390f35b610167565b600080fd5b600090565b906105499180506105446111e3565b610991565b9061055261122f565b565b1561055c575b565b600080fd5b60001c90565b90565b61057661057b91610561565b610567565b90565b610588905461056a565b90565b634e487b7160e01b600052601160045260246000fd5b6105aa90610116565b60001981146105bb575b6001900190565b61058b565b60001b90565b906105d3600019916105c0565b91811990169116901790565b90565b6105f66105f16105fb92610116565b6105df565b610116565b90565b90565b9061061661061161061d926105e2565b6105fe565b82546105c6565b9055565b9061062b906105e2565b600052602052604060002090565b61ffff901690565b61064a81610639565b901415610654575b565b600080fd5b3561066381610641565b90565b9061067361ffff916105c0565b91811990169116901790565b61069361068e61069892610639565b6105df565b610639565b90565b90565b906106b36106ae6106ba9261067f565b61069b565b8254610666565b9055565b60101b90565b906106d363ffff0000916106be565b91811990169116901790565b906106f46106ef6106fb9261067f565b61069b565b82546106c4565b9055565b63ffffffff901690565b610712816106ff565b90141561071c575b565b600080fd5b3561072b81610709565b90565b60201b90565b9061074663ffffffff60201b9161072e565b91811990169116901790565b61076661076161076b926106ff565b6105df565b6106ff565b90565b90565b9061078661078161078d92610752565b61076e565b8254610734565b9055565b906107d5604060006107db9401926107b66107b0600083018050610659565b8561069e565b6107cd6107c7602083018050610659565b856106df565b018050610721565b90610771565b565b906107e791610791565b565b601f801991011690565b634e487b7160e01b600052604160045260246000fd5b90610813906107e9565b810190811067ffffffffffffffff82111761082e575b604052565b6107f3565b9061084661083f6100d2565b9283610809565b565b6108526060610833565b90565b9061085f90610116565b9052565b9061086d906103d0565b9052565b9061087b906105e2565b600052602052604060002090565b6108939051610116565b90565b6108a090516103d0565b90565b906108b460018060a01b03916105c0565b91811990169116901790565b6108d46108cf6108d9926103c4565b6105df565b6103c4565b90565b6108e5906108c0565b90565b6108f1906108dc565b90565b90565b9061090c610907610913926108e8565b6108f4565b82546108a3565b9055565b6002610958604061095f9461093a61093160008301610889565b60008701610601565b61095261094960208301610889565b60018701610601565b01610896565b91016108f7565b565b9061096b91610917565b565b91602061098f92949361098860408201966000830190610119565b0190610119565b565b919091507fc904ef81354df41ed9256aa2ab862017f6ab3f33f3f7ca50016a1786083d086d6109c0833a611300565b6109dc6109cc82610116565b6109d534610116565b1015610554565b610a516109e9600561057e565b916109fd6109f6846105a1565b6005610601565b610a128396610a0d856006610621565b6107dd565b610a34610a1d610848565b91610a2b4260008501610855565b60208301610855565b610a413360408301610863565b610a4c836007610871565b610961565b610a676000610a61836007610871565b0161057e565b90610a7c610a736100d2565b9283928361096d565b0390a1565b610a9490610a8d610530565b8050610535565b90565b90610aa991610aa46113a4565b610aab565b565b90610ab591611513565b565b90610ac191610a97565b565b610ad490610acf6111e3565b610ed6565b610adc61122f565b565b90565b610af5610af0610afa92610ade565b6105df565b610116565b90565b60209181520190565b60007f4e6f207265717565737420666f756e6400000000000000000000000000000000910152565b610b3b6010602092610afd565b610b4481610b06565b0190565b610b5e9060208101906000818303910152610b2e565b90565b15610b69575b565b610b716100d2565b62461bcd60e51b815280610b8760048201610b48565b0390fd5b90610b95906105e2565b600052602052604060002090565b60ff901690565b610bb6610bbb91610561565b610ba3565b90565b610bc89054610baa565b90565b151590565b60007f416c72656164792066756c66696c6c6564000000000000000000000000000000910152565b610c056011602092610afd565b610c0e81610bd0565b0190565b610c289060208101906000818303910152610bf8565b90565b15610c33575b565b610c3b6100d2565b62461bcd60e51b815280610c5160048201610c12565b0390fd5b90565b610c6c610c67610c7192610c55565b6105df565b610116565b90565b610c83610c8991939293610116565b92610116565b8203918211610c95575b565b61058b565b90565b90565b610cac610cb191610c9a565b610c9d565b9052565b90565b610cc4610cc991610116565b610cb5565b9052565b60209392610cec8583610ce48295610cf497610ca0565b018092610cb8565b018092610cb8565b0190565b60209080500190565b5190565b610d11610d1691610561565b6105e2565b90565b60018060a01b03901690565b610d31610d3691610561565b610d19565b90565b610d439054610d25565b90565b60201c90565b63ffffffff901690565b610d62610d6791610d46565b610d4c565b90565b610d749054610d56565b90565b610d8b610d86610d90926106ff565b6105df565b610116565b90565b610d9d6060610833565b90565b90610daa90610bcb565b9052565b610db89051610bcb565b90565b90610dc760ff916105c0565b91811990169116901790565b610ddc90610bcb565b90565b90565b90610df7610df2610dfe92610dd3565b610ddf565b8254610dbb565b9055565b60081b90565b90610e1561ff0091610e02565b91811990169116901790565b90610e36610e31610e3d92610dd3565b610ddf565b8254610e08565b9055565b90610e8260406001610e8894610e65610e5c60008701610889565b60008301610601565b0192610e7c610e7660208301610dae565b85610de2565b01610dae565b90610e21565b565b90610e9491610e41565b565b610e9f90610bcb565b9052565b604090610ecd610ed49496959396610ec360608401986000850190610119565b6020830190610e96565b01906103dc565b565b7fbf52e7473231c98c03552838ea271b6ad66f7cbcbdc3a9aad5128e85785cb6b190610f2a610f116000610f0b846007610871565b0161057e565b610f24610f1e6000610ae1565b91610116565b11610b61565b610f51610f4c610f466001610f40856008610b8b565b01610bbe565b15610bcb565b610c2b565b610faa610f67610f616001610c58565b43610c74565b610f92610f726100d2565b8092610f8660208301918742914084610ccd565b90810382520382610809565b610fa4610f9e82610d01565b91610cf8565b20610d05565b611061611020610fc66002610fc0866007610871565b01610d39565b610fce6100d2565b610ffc81610fed87896004602085016337ed11db60e01b81520161096d565b60208201810382520382610809565b61101a611015600061100f896006610621565b01610d6a565b610d77565b91611609565b9161103661102c610d93565b9160008301610855565b611044600160208301610da0565b6110518360408301610da0565b61105c846008610b8b565b610e8a565b61107761106c6100d2565b928392339184610ea3565b0390a1565b61108590610ac3565b565b61108f6113a4565b6110976110c1565b565b6110ad6110a86110b292610ade565b6105df565b6103c4565b90565b6110be90611099565b90565b6110d36110ce60006110b5565b61165f565b565b6110dd611087565b565b906110f2916110ec610530565b50611300565b90565b600090565b6111026110f5565b5061110d6000610d39565b90565b6111239061111c610530565b503a611300565b90565b611137906111326113a4565b611139565b565b61114360006110b5565b61114c816103d0565b611155836103d0565b14611167575b506111659061165f565b565b611189906111736100d2565b918291631e4fbdf760e01b8352600483016103e9565b0390fd5b61119690611126565b565b90565b6111af6111aa6111b492611198565b6105c0565b610c9a565b90565b6111e07f9b779b17422d0df92223018b32b4d1fa46e071723d6817e2486d003becc55f0061119b565b90565b6111eb6116be565b61120c575b61120a60016112056112006111b7565b6116f3565b611708565b565b6112146100d2565b633ee5aeb560e01b81528061122b600482016101c9565b0390fd5b611249600061124461123f6111b7565b6116f3565b611708565b565b61125a61126091939293610116565b92610116565b820180921161126c575b565b61058b565b61128061128691939293610116565b92610116565b91611292838202610116565b928184049014901517156112a3575b565b61058b565b90565b6112bf6112ba6112c4926112a8565b6105df565b610116565b90565b634e487b7160e01b600052601260045260246000fd5b6112e96112ef91610116565b91610116565b9081156112fb575b0490565b6112c7565b6113796113696113466113899361134061132860406113a198611321610530565b5001610721565b61133b611335600161057e565b91610d77565b61124b565b90611271565b611363611353600261057e565b61135d60646112ab565b9061124b565b90611271565b61137360646112ab565b906112dd565b611383600361057e565b9061124b565b61139b611396600461057e565b611848565b9061124b565b90565b6113ac6110fa565b6113b4611994565b906113c76113c1836103d0565b916103d0565b14156113d1575b50565b6113f3906113dd6100d2565b91829163118cdaa760e01b8352600483016103e9565b0390fd5b90565b61140e611409611413926113f7565b6105df565b61016c565b90565b61142a61142561142f92610ade565b6105df565b61016c565b90565b61144661144161144b926112a8565b6105df565b61016c565b90565b60a01b90565b9061146360ff60a01b9161144e565b91811990169116901790565b61148361147e6114889261016c565b6105df565b61016c565b90565b90565b906114a361149e6114aa9261146f565b61148b565b8254611454565b9055565b60a81b90565b906114c360ff60a81b916114ae565b91811990169116901790565b906114e46114df6114eb9261146f565b61148b565b82546114b4565b9055565b91602061151192949361150a60408201966000830190610256565b0190610256565b565b61151d60056113fa565b6115268261016c565b10156115df575b6115376000611416565b6115408361016c565b148090156115c5575b6115a0575b908161157c7f8e63dc2f2e669ce73bebd2580bb9dd9a5d17fa2d046ac02057d8349fc0b0c2f393600061148e565b6115878260006114cf565b61159b6115926100d2565b928392836114ef565b0390a1565b6115c1826115ac6100d2565b91829162d4503560e51b835260048301610263565b0390fd5b506115d06064611432565b6115d98361016c565b11611549565b611600906115eb6100d2565b918291621c300f60e81b835260048301610263565b0390fd5b600090565b90611612611604565b505a611388811061165a575b6113888491036040810490036040810490031115611655575b813b15611650575b60009283809360208451940192f190565b600080fd5b600080fd5b600080fd5b61168561167f61166f6000610d39565b61167a8460006108f7565b6108e8565b916108e8565b907f8be0079c531659141344cd1fd0a4f28419497f9722a3daafe3b4186f6b6457e06116af6100d2565b806116b9816101c9565b0390a3565b6116c6611604565b506116df6116da6116d56111b7565b6116f3565b6119a1565b90565b600090565b6116f090610c9a565b90565b611705906116ff6116e2565b506116e7565b90565b55565b60a01c90565b61171d6117229161170b565b61021a565b90565b61172f9054611711565b90565b61174661174161174b92610c55565b6105df565b61016c565b90565b6117586001611732565b90565b6117656000611416565b90565b90565b61177f61177a61178492611768565b6105df565b61016c565b90565b611791600261176b565b90565b600f602160991b0190565b6117a8906108c0565b90565b6117b49061179f565b90565b6117c76117c2611794565b6117ab565b90565b6117d3906108dc565b90565b90565b6117ed6117e86117f2926117d6565b6105df565b610116565b90565b6117ff60476117d9565b90565b60e01b90565b90505190611815826102af565b565b90602082820312611832575b600061182f9201611808565b90565b6100d8565b61183f6100d2565b3d6000823e3d90fd5b611850610530565b5061185b6000611725565b61186b61186661174e565b61016c565b6118748261016c565b1460001461189b575b506118936118989161188d6117f5565b9061124b565b611d0e565b90565b6118ab6118a661175b565b61016c565b6118b48261016c565b14600014611958575b50602061190c916118e66118d76118d26117b7565b6117ca565b916118e06117f5565b9061124b565b906118ef6100d2565b808095819461190163f1c7a58b611802565b835260048301610126565b03915afa908115611953575b600091611924575b5090565b611946915060203d60201161194c575b61193e8183610809565b810190611817565b38611920565b503d611934565b611837565b61197161196b611966611787565b61016c565b9161016c565b14600014611986575b61198390611a16565b90565b506119916000610ae1565b90565b61199c6110f5565b503390565b6119a9611604565b505490565b90565b6119c56119c06119ca926119ae565b6105df565b610116565b90565b6119d760446119b1565b90565b90565b6119f16119ec6119f6926119da565b6105df565b610116565b90565b611a0290610116565b604d8111611a11575b600a0a90565b61058b565b611a34611a4491611a25610530565b50611a2e6119cd565b9061124b565b611a3e60106119dd565b90611271565b611a54611a4f6117b7565b6117ca565b90611a5d6100d2565b90611a6b630c18c162611802565b825260208280611a7d600482016101c9565b0381865afa908115611c4d575b611a9c92600092611c1c575b5061124b565b611aa46100d2565b90611ab263519b4bd3611802565b825260208280611ac4600482016101c9565b0381865afa908115611c17575b611ae392600092611be6575b50611271565b90611aec6100d2565b611af963313ce567611802565b815260208180611b0b600482016101c9565b0381855afa8015611be1575b611b2991600091611bb2575b506119f9565b906020611b346100d2565b8092611b4363f45e65d8611802565b82528180611b53600482016101c9565b03915afa8015611bad575b611b7993611b7492600092611b7c575b50611271565b6112dd565b90565b611b9f91925060203d602011611ba6575b611b978183610809565b810190611817565b9038611b6e565b503d611b8d565b611837565b611bd4915060203d602011611bda575b611bcc8183610809565b810190611817565b38611b23565b503d611bc2565b611837565b611c0991925060203d602011611c10575b611c018183610809565b810190611817565b9038611add565b503d611bf7565b611837565b611c3f91925060203d602011611c46575b611c378183610809565b810190611817565b9038611a96565b503d611c2d565b611837565b90505190611c5f82610709565b565b90602082820312611c7c575b6000611c799201611c52565b90565b6100d8565b611c95611c90611c9a926119da565b6105df565b6106ff565b90565b611ca9611caf916106ff565b916106ff565b900290611cbb826106ff565b91821415611cc6575b565b61058b565b60a81c90565b611cdd611ce291611ccb565b61021a565b90565b611cef9054611cd1565b90565b611d06611d01611d0b9261016c565b6105df565b610116565b90565b611d2c611d3c91611d1d610530565b50611d266119cd565b9061124b565b611d3660106119dd565b90611271565b611d4c611d476117b7565b6117ca565b90611d556100d2565b611d6263c5985918611802565b815260208180611d74600482016101c9565b0381865afa801561202e575b611d9d91600091611fff575b50611d976010611c81565b90611c9d565b611da56100d2565b90611db363519b4bd3611802565b825260208280611dc5600482016101c9565b0381875afa908115611ffa575b611ded92600092611fc5575b50611de890610d77565b611271565b90611df66100d2565b611e036368d5dca6611802565b815260208180611e15600482016101c9565b0381875afa908115611fc0575b600091611f91575b50611e336100d2565b92611e4163f8206140611802565b845260208480611e53600482016101c9565b0381885afa938415611f8c575b611e8f94611e8993611e8392600092611f57575b50611e7e90610d77565b611271565b9061124b565b90611271565b611e996000611ce5565b6020611ea36100d2565b8094611eb263313ce567611802565b82528180611ec2600482016101c9565b03915afa8015611f52575b611f05611f1093611eff611ef0611f0b94611f2098600091611f23575b506119f9565b611efa60106119dd565b611271565b906112dd565b91611cf2565b611271565b611f1a60646112ab565b906112dd565b90565b611f45915060203d602011611f4b575b611f3d8183610809565b810190611817565b38611eea565b503d611f33565b611837565b611e7e919250611f7e9060203d602011611f85575b611f768183610809565b810190611817565b9190611e74565b503d611f6c565b611837565b611fb3915060203d602011611fb9575b611fab8183610809565b810190611c61565b38611e2a565b503d611fa1565b611837565b611de8919250611fec9060203d602011611ff3575b611fe48183610809565b810190611817565b9190611dde565b503d611fda565b611837565b612021915060203d602011612027575b6120198183610809565b810190611c61565b38611d8c565b503d61200f565b61183756fea2646970667358221220e415806a2a4c14af82e5b3c8817c1c00e7debce2a645aae05df793ea32cfe1d564736f6c63430008190033","linkReferences":{}},"methodIdentifiers":{"calculateDirectFundingPrice((uint16,uint16,uint32))":"a6c278f3","estimateDirectFundingPrice(uint256,(uint16,uint16,uint32))":"807ca9d6","fulfillRandomness(uint256)":"495bd94e","owner()":"8da5cb5b","renounceOwnership()":"715018a6","requestRandomWordDirectFunding((uint16,uint16,uint32))":"122c162a","s_l1FeeCalculationMode()":"40e3290f","s_l1FeeCoefficient()":"90bd5c74","setL1FeeCalculation(uint8,uint8)":"14530741","transferOwnership(address)":"f2fde38b"},"id":117}