{"abi":[{"type":"function","name":"DECIMALS","inputs":[],"outputs":[{"name":"","type":"uint256","internalType":"uint256"}],"stateMutability":"view"},{"type":"function","name":"aliveImplementation","inputs":[{"name":"","type":"address","internalType":"address"}],"outputs":[{"name":"","type":"bool","internalType":"bool"}],"stateMutability":"view"},{"type":"function","name":"allowance","inputs":[{"name":"owner","type":"address","internalType":"address"},{"name":"spender","type":"address","internalType":"address"}],"outputs":[{"name":"","type":"uint256","internalType":"uint256"}],"stateMutability":"view"},{"type":"function","name":"approve","inputs":[{"name":"spender","type":"address","internalType":"address"},{"name":"value","type":"uint256","internalType":"uint256"}],"outputs":[{"name":"","type":"bool","internalType":"bool"}],"stateMutability":"nonpayable"},{"type":"function","name":"balanceOf","inputs":[{"name":"account","type":"address","internalType":"address"}],"outputs":[{"name":"","type":"uint256","internalType":"uint256"}],"stateMutability":"view"},{"type":"function","name":"claimWithdrawalIndex","inputs":[{"name":"_index","type":"uint256","internalType":"uint256"}],"outputs":[],"stateMutability":"nonpayable"},{"type":"function","name":"claimWithdrawalTotal","inputs":[],"outputs":[],"stateMutability":"nonpayable"},{"type":"function","name":"decimals","inputs":[],"outputs":[{"name":"","type":"uint8","internalType":"uint8"}],"stateMutability":"view"},{"type":"function","name":"depositWTONAndGetWSTON","inputs":[{"name":"_amount","type":"uint256","internalType":"uint256"},{"name":"_token","type":"bool","internalType":"bool"}],"outputs":[],"stateMutability":"nonpayable"},{"type":"function","name":"depositWTONAndGetWSTONTo","inputs":[{"name":"_to","type":"address","internalType":"address"},{"name":"_amount","type":"uint256","internalType":"uint256"},{"name":"_token","type":"bool","internalType":"bool"}],"outputs":[],"stateMutability":"nonpayable"},{"type":"function","name":"getDepositManager","inputs":[],"outputs":[{"name":"","type":"address","internalType":"address"}],"stateMutability":"view"},{"type":"function","name":"getLastWithdrawalRequest","inputs":[{"name":"requester","type":"address","internalType":"address"}],"outputs":[{"name":"","type":"tuple","internalType":"struct L1WrappedStakedTONStorage.WithdrawalRequest","components":[{"name":"withdrawableBlockNumber","type":"uint256","internalType":"uint256"},{"name":"amount","type":"uint256","internalType":"uint256"},{"name":"processed","type":"bool","internalType":"bool"}]}],"stateMutability":"view"},{"type":"function","name":"getLayer2Address","inputs":[],"outputs":[{"name":"","type":"address","internalType":"address"}],"stateMutability":"view"},{"type":"function","name":"getPaused","inputs":[],"outputs":[{"name":"","type":"bool","internalType":"bool"}],"stateMutability":"view"},{"type":"function","name":"getSeigManager","inputs":[],"outputs":[{"name":"","type":"address","internalType":"address"}],"stateMutability":"view"},{"type":"function","name":"getStakingIndex","inputs":[],"outputs":[{"name":"","type":"uint256","internalType":"uint256"}],"stateMutability":"view"},{"type":"function","name":"getTonAddress","inputs":[],"outputs":[{"name":"","type":"address","internalType":"address"}],"stateMutability":"view"},{"type":"function","name":"getTotalClaimableAmountByUser","inputs":[{"name":"user","type":"address","internalType":"address"}],"outputs":[{"name":"totalClaimableAmount","type":"uint256","internalType":"uint256"}],"stateMutability":"view"},{"type":"function","name":"getWithdrawalRequest","inputs":[{"name":"requester","type":"address","internalType":"address"},{"name":"index","type":"uint256","internalType":"uint256"}],"outputs":[{"name":"","type":"tuple","internalType":"struct L1WrappedStakedTONStorage.WithdrawalRequest","components":[{"name":"withdrawableBlockNumber","type":"uint256","internalType":"uint256"},{"name":"amount","type":"uint256","internalType":"uint256"},{"name":"processed","type":"bool","internalType":"bool"}]}],"stateMutability":"view"},{"type":"function","name":"getWithdrawalRequestIndex","inputs":[{"name":"_user","type":"address","internalType":"address"}],"outputs":[{"name":"","type":"uint256","internalType":"uint256"}],"stateMutability":"view"},{"type":"function","name":"getWtonAddress","inputs":[],"outputs":[{"name":"","type":"address","internalType":"address"}],"stateMutability":"view"},{"type":"function","name":"getlastSeigBlock","inputs":[],"outputs":[{"name":"","type":"uint256","internalType":"uint256"}],"stateMutability":"view"},{"type":"function","name":"initialize","inputs":[{"name":"_layer2Address","type":"address","internalType":"address"},{"name":"_wton","type":"address","internalType":"address"},{"name":"_ton","type":"address","internalType":"address"},{"name":"_depositManager","type":"address","internalType":"address"},{"name":"_seigManager","type":"address","internalType":"address"},{"name":"_owner","type":"address","internalType":"address"},{"name":"_minimumWithdrawalAmount","type":"uint256","internalType":"uint256"},{"name":"_maxNumWithdrawal","type":"uint8","internalType":"uint8"},{"name":"_name","type":"string","internalType":"string"},{"name":"_symbol","type":"string","internalType":"string"}],"outputs":[],"stateMutability":"nonpayable"},{"type":"function","name":"name","inputs":[],"outputs":[{"name":"","type":"string","internalType":"string"}],"stateMutability":"view"},{"type":"function","name":"onApprove","inputs":[{"name":"_to","type":"address","internalType":"address"},{"name":"","type":"address","internalType":"address"},{"name":"_amount","type":"uint256","internalType":"uint256"},{"name":"data","type":"bytes","internalType":"bytes"}],"outputs":[{"name":"","type":"bool","internalType":"bool"}],"stateMutability":"nonpayable"},{"type":"function","name":"owner","inputs":[],"outputs":[{"name":"","type":"address","internalType":"address"}],"stateMutability":"view"},{"type":"function","name":"pause","inputs":[],"outputs":[],"stateMutability":"nonpayable"},{"type":"function","name":"pauseProxy","inputs":[],"outputs":[{"name":"","type":"bool","internalType":"bool"}],"stateMutability":"view"},{"type":"function","name":"processWithdrawalRequest","inputs":[{"name":"numRequests","type":"uint256","internalType":"uint256"}],"outputs":[{"name":"","type":"bool","internalType":"bool"}],"stateMutability":"nonpayable"},{"type":"function","name":"proxyImplementation","inputs":[{"name":"","type":"uint256","internalType":"uint256"}],"outputs":[{"name":"","type":"address","internalType":"address"}],"stateMutability":"view"},{"type":"function","name":"renounceOwnership","inputs":[],"outputs":[],"stateMutability":"nonpayable"},{"type":"function","name":"requestWithdrawal","inputs":[{"name":"_wstonAmount","type":"uint256","internalType":"uint256"}],"outputs":[],"stateMutability":"nonpayable"},{"type":"function","name":"selectorImplementation","inputs":[{"name":"","type":"bytes4","internalType":"bytes4"}],"outputs":[{"name":"","type":"address","internalType":"address"}],"stateMutability":"view"},{"type":"function","name":"setDepositManagerAddress","inputs":[{"name":"_depositManager","type":"address","internalType":"address"}],"outputs":[],"stateMutability":"nonpayable"},{"type":"function","name":"setMaxNumWithdrawal","inputs":[{"name":"_maxNumWithdrawal","type":"uint8","internalType":"uint8"}],"outputs":[],"stateMutability":"nonpayable"},{"type":"function","name":"setSeigManagerAddress","inputs":[{"name":"_seigManager","type":"address","internalType":"address"}],"outputs":[],"stateMutability":"nonpayable"},{"type":"function","name":"stakeOf","inputs":[],"outputs":[{"name":"","type":"uint256","internalType":"uint256"}],"stateMutability":"view"},{"type":"function","name":"symbol","inputs":[],"outputs":[{"name":"","type":"string","internalType":"string"}],"stateMutability":"view"},{"type":"function","name":"totalSupply","inputs":[],"outputs":[{"name":"","type":"uint256","internalType":"uint256"}],"stateMutability":"view"},{"type":"function","name":"transfer","inputs":[{"name":"to","type":"address","internalType":"address"},{"name":"value","type":"uint256","internalType":"uint256"}],"outputs":[{"name":"","type":"bool","internalType":"bool"}],"stateMutability":"nonpayable"},{"type":"function","name":"transferFrom","inputs":[{"name":"from","type":"address","internalType":"address"},{"name":"to","type":"address","internalType":"address"},{"name":"value","type":"uint256","internalType":"uint256"}],"outputs":[{"name":"","type":"bool","internalType":"bool"}],"stateMutability":"nonpayable"},{"type":"function","name":"transferOwnership","inputs":[{"name":"newOwner","type":"address","internalType":"address"}],"outputs":[],"stateMutability":"nonpayable"},{"type":"function","name":"unpause","inputs":[],"outputs":[],"stateMutability":"nonpayable"},{"type":"function","name":"updateSeigniorage","inputs":[],"outputs":[{"name":"","type":"bool","internalType":"bool"}],"stateMutability":"nonpayable"},{"type":"event","name":"Approval","inputs":[{"name":"owner","type":"address","indexed":true,"internalType":"address"},{"name":"spender","type":"address","indexed":true,"internalType":"address"},{"name":"value","type":"uint256","indexed":false,"internalType":"uint256"}],"anonymous":false},{"type":"event","name":"DebugAllowance","inputs":[{"name":"owner","type":"address","indexed":true,"internalType":"address"},{"name":"spender","type":"address","indexed":true,"internalType":"address"},{"name":"value","type":"uint256","indexed":false,"internalType":"uint256"}],"anonymous":false},{"type":"event","name":"DebugBalance","inputs":[{"name":"account","type":"address","indexed":true,"internalType":"address"},{"name":"balance","type":"uint256","indexed":false,"internalType":"uint256"}],"anonymous":false},{"type":"event","name":"Deposited","inputs":[{"name":"to","type":"address","indexed":false,"internalType":"address"},{"name":"token","type":"bool","indexed":false,"internalType":"bool"},{"name":"amount","type":"uint256","indexed":false,"internalType":"uint256"},{"name":"wstonAmount","type":"uint256","indexed":false,"internalType":"uint256"},{"name":"depositTime","type":"uint256","indexed":false,"internalType":"uint256"},{"name":"depositBlockNumber","type":"uint256","indexed":false,"internalType":"uint256"}],"anonymous":false},{"type":"event","name":"Initialized","inputs":[{"name":"version","type":"uint64","indexed":false,"internalType":"uint64"}],"anonymous":false},{"type":"event","name":"OwnershipTransferred","inputs":[{"name":"previousOwner","type":"address","indexed":true,"internalType":"address"},{"name":"newOwner","type":"address","indexed":true,"internalType":"address"}],"anonymous":false},{"type":"event","name":"Paused","inputs":[{"name":"account","type":"address","indexed":false,"internalType":"address"}],"anonymous":false},{"type":"event","name":"SeigniorageUpdated","inputs":[],"anonymous":false},{"type":"event","name":"StakingIndexUpdated","inputs":[{"name":"stakingIndex","type":"uint256","indexed":false,"internalType":"uint256"}],"anonymous":false},{"type":"event","name":"Transfer","inputs":[{"name":"from","type":"address","indexed":true,"internalType":"address"},{"name":"to","type":"address","indexed":true,"internalType":"address"},{"name":"value","type":"uint256","indexed":false,"internalType":"uint256"}],"anonymous":false},{"type":"event","name":"Unpaused","inputs":[{"name":"account","type":"address","indexed":false,"internalType":"address"}],"anonymous":false},{"type":"event","name":"WithdrawalProcessed","inputs":[{"name":"_to","type":"address","indexed":false,"internalType":"address"},{"name":"amount","type":"uint256","indexed":false,"internalType":"uint256"}],"anonymous":false},{"type":"event","name":"WithdrawalRequested","inputs":[{"name":"_to","type":"address","indexed":true,"internalType":"address"},{"name":"amount","type":"uint256","indexed":false,"internalType":"uint256"}],"anonymous":false},{"type":"event","name":"decodeSuccess","inputs":[{"name":"to","type":"address","indexed":false,"internalType":"address"},{"name":"amount","type":"uint256","indexed":false,"internalType":"uint256"}],"anonymous":false},{"type":"error","name":"AddressEmptyCode","inputs":[{"name":"target","type":"address","internalType":"address"}]},{"type":"error","name":"AddressInsufficientBalance","inputs":[{"name":"account","type":"address","internalType":"address"}]},{"type":"error","name":"ApproveAndCallFailed","inputs":[]},{"type":"error","name":"ClaimWithdrawalFailed","inputs":[]},{"type":"error","name":"ContractNotPaused","inputs":[]},{"type":"error","name":"ContractPaused","inputs":[]},{"type":"error","name":"DepositFailed","inputs":[]},{"type":"error","name":"ERC20InsufficientAllowance","inputs":[{"name":"spender","type":"address","internalType":"address"},{"name":"allowance","type":"uint256","internalType":"uint256"},{"name":"needed","type":"uint256","internalType":"uint256"}]},{"type":"error","name":"ERC20InsufficientBalance","inputs":[{"name":"sender","type":"address","internalType":"address"},{"name":"balance","type":"uint256","internalType":"uint256"},{"name":"needed","type":"uint256","internalType":"uint256"}]},{"type":"error","name":"ERC20InvalidApprover","inputs":[{"name":"approver","type":"address","internalType":"address"}]},{"type":"error","name":"ERC20InvalidReceiver","inputs":[{"name":"receiver","type":"address","internalType":"address"}]},{"type":"error","name":"ERC20InvalidSender","inputs":[{"name":"sender","type":"address","internalType":"address"}]},{"type":"error","name":"ERC20InvalidSpender","inputs":[{"name":"spender","type":"address","internalType":"address"}]},{"type":"error","name":"FailedInnerCall","inputs":[]},{"type":"error","name":"FailedToSwapFromTONToWTON","inputs":[{"name":"amount","type":"uint256","internalType":"uint256"}]},{"type":"error","name":"InvalidCaller","inputs":[]},{"type":"error","name":"InvalidInitialization","inputs":[]},{"type":"error","name":"InvalidOnApproveData","inputs":[]},{"type":"error","name":"InvalidToOrAmount","inputs":[]},{"type":"error","name":"MaximumNumberOfWithdrawalsReached","inputs":[]},{"type":"error","name":"MinimalWithdrawalAmount","inputs":[]},{"type":"error","name":"NoClaimableAmount","inputs":[{"name":"requestor","type":"address","internalType":"address"}]},{"type":"error","name":"NoRequestToProcess","inputs":[]},{"type":"error","name":"NotEnoughFunds","inputs":[]},{"type":"error","name":"NotInitializing","inputs":[]},{"type":"error","name":"OwnableInvalidOwner","inputs":[{"name":"owner","type":"address","internalType":"address"}]},{"type":"error","name":"OwnableUnauthorizedAccount","inputs":[{"name":"account","type":"address","internalType":"address"}]},{"type":"error","name":"ProcessRequestFailed","inputs":[]},{"type":"error","name":"ReentrancyGuardReentrantCall","inputs":[]},{"type":"error","name":"RequestAlreadyProcessed","inputs":[]},{"type":"error","name":"SafeERC20FailedOperation","inputs":[{"name":"token","type":"address","internalType":"address"}]},{"type":"error","name":"SeigniorageUpdateFailed","inputs":[]},{"type":"error","name":"WithdrawalDelayNotElapsed","inputs":[]},{"type":"error","name":"WithdrawalRequestFailed","inputs":[]},{"type":"error","name":"WrontAmount","inputs":[]}],"bytecode":{"object":"0x608060405234601f57600e6024565b6040516136b361006682396136b390f35b600080fd5b602a602c565b565b602a6057565b603c603c603c9290565b90565b603c60016032565b90603c603c6053926032565b9055565b602a605f603f565b6004604756fe6080604052600436101561001257600080fd5b60003560e01c806306fdde03146102d2578063095ea7b3146102cd5780630c5c16e6146102c857806318160ddd146102c357806323b872dd146102be57806326827d1c146102b95780632e0f2625146102b4578063313ce567146102af57806331ae1f02146102aa5780633f0ab0ad146102a55780633f4ba83a146102a05780634273ca161461029b57806343148e5a146102965780635074e0c81461029157806350d2a2761461028c578063550d01a3146102875780635645eedf146102825780635a3b20bf1461027d5780635f4c5eae1461027857806363a8fd89146102735780636805b84b1461026e5780636ae638d01461026957806370448bd41461026457806370a082311461025f578063715018a61461025a5780637447ce0e14610255578063764a7856146102505780637ed72d161461024b5780637f4649b7146102465780638456cb59146102415780638da5cb5b1461023c57806395d89b41146102375780639ee679e814610232578063a9059cbb1461022d578063aa73852414610228578063b6f2059314610223578063b911135f1461021e578063c40753f914610219578063d6960d1214610214578063d91714a61461020f578063dd62ed3e1461020a578063e06d97ba14610205578063f2847e64146102005763f2fde38b036102d757610d1d565b610d01565b610ce6565b610cca565b610c8c565b610c71565b610c58565b610c14565b610bdf565b610bc7565b610bab565b610b93565b610b78565b610b5d565b610b45565b610b2d565b610b06565b610ab5565b610a9d565b610a71565b610a56565b610a3b565b610a20565b610a05565b6109ea565b6109c6565b610973565b61095b565b61092c565b6108b2565b61080d565b6107f2565b6107bf565b610725565b61070a565b6106e3565b61069b565b610680565b610632565b610486565b610431565b610414565b6103e6565b610356565b600080fd5b60009103126102d757565b60005b8381106102fa5750506000910152565b81810151838201526020016102ea565b61032b61033460209361033e9361031f815190565b80835293849260200190565b958691016102e7565b601f01601f191690565b0190565b60208082526103539291019061030a565b90565b346102d7576103663660046102dc565b61037d610371610e2d565b60405191829182610342565b0390f35b6001600160a01b031690565b61039681610381565b036102d757565b905035906103aa8261038d565b565b80610396565b905035906103aa826103ac565b91906040838203126102d7576103539060206103db828661039d565b94016103b2565b9052565b346102d75761037d6104026103fc3660046103bf565b90610e40565b60405191829182901515815260200190565b346102d7576104243660046102dc565b61042c610eb6565b604051005b346102d7576104413660046102dc565b61037d61044c610ecf565b6040515b9182918290815260200190565b90916060828403126102d757610353610476848461039d565b9360406103db826020870161039d565b346102d75761037d61040261049c36600461045d565b91610ee2565b60ff8116610396565b905035906103aa826104a2565b634e487b7160e01b600052604160045260246000fd5b90601f01601f191681019081106001600160401b038211176104ef57604052565b6104b8565b906103aa61050160405190565b92836104ce565b6001600160401b0381116104ef57602090601f01601f19160190565b90826000939282370152565b9092919261054561054082610508565b6104f4565b93818552818301116102d7576103aa916020850190610524565b9080601f830112156102d75781602061035393359101610530565b90610140828203126102d757610590818361039d565b9261059e826020850161039d565b926105ac836040830161039d565b926105ba816060840161039d565b926105c8826080850161039d565b926105d68360a0830161039d565b926105e48160c084016103b2565b926105f28260e085016104ab565b926101008101356001600160401b0381116102d7578361061391830161055f565b926101208201356001600160401b0381116102d757610353920161055f565b346102d75761042c61064536600461057a565b9897909796919695929594939461121c565b6103536103536103539290565b610353676765c793fa10079d601b1b610657565b610353610664565b346102d7576106903660046102dc565b61037d61044c610678565b346102d7576106ab3660046102dc565b61037d6106b661123b565b6040519182918260ff909116815260200190565b6103e290610381565b6020810192916103aa91906106ca565b346102d7576106f33660046102dc565b61037d6106fe611258565b604051918291826106d3565b346102d75761071a3660046102dc565b61037d61044c611262565b346102d7576107353660046102dc565b61042c6112f3565b909182601f830112156102d7578135916001600160401b0383116102d75760200192600183028401116102d757565b906080828203126102d757610781818361039d565b9261078f826020850161039d565b9261079d83604083016103b2565b9260608201356001600160401b0381116102d7576107bb920161073d565b9091565b346102d75761037d6104026107d536600461076c565b9392909261131a565b906020828203126102d7576103539161039d565b346102d75761037d61044c6108083660046107de565b61144e565b346102d75761081d3660046102dc565b61037d61044c61146a565b6001600160e01b03198116610396565b905035906103aa82610828565b906020828203126102d75761035391610838565b6001600160e01b03191690565b9061087090610859565b600052602052604060002090565b610353916008021c6001600160a01b031690565b90610353915461087e565b60006108ad610353926003610866565b610892565b346102d75761037d6106fe6108c8366004610845565b61089d565b61035390610381906001600160a01b031682565b610353906108cd565b610353906108e1565b90610870906108ea565b610353916008021c5b60ff1690565b9061035391546108fd565b60006109276103539260026108f3565b61090c565b346102d75761037d6104026109423660046107de565b610917565b906020828203126102d757610353916104ab565b346102d75761042c61096e366004610947565b61148b565b346102d7576109833660046102dc565b61037d6106fe6114aa565b801515610396565b905035906103aa8261098e565b91906040838203126102d7576103539060206109bf82866103b2565b9401610996565b346102d75761042c6109d93660046109a3565b906114f5565b61035360008061090c565b346102d7576109fa3660046102dc565b61037d6104026109df565b346102d757610a153660046102dc565b61037d6104026114ff565b346102d757610a303660046102dc565b61037d6106fe611509565b346102d75761037d61044c610a513660046107de565b6115d3565b346102d75761037d61044c610a6c3660046107de565b61167e565b346102d757610a813660046102dc565b61042c6116d6565b906020828203126102d757610353916103b2565b346102d75761042c610ab0366004610a89565b6116fc565b346102d757610ac53660046102dc565b61037d610402611732565b805182526103aa91906040908190610aed60208201516020860152565b01511515910152565b6060810192916103aa9190610ad0565b346102d75761037d610b21610b1c3660046107de565b6117eb565b60405191829182610af6565b346102d75761042c610b403660046107de565b61183e565b346102d757610b553660046102dc565b61042c611899565b346102d757610b6d3660046102dc565b61037d6106fe6118a1565b346102d757610b883660046102dc565b61037d6103716118b4565b346102d75761042c610ba6366004610a89565b61199f565b346102d75761037d610402610bc13660046103bf565b906119a8565b346102d75761042c610bda3660046107de565b6119ca565b346102d757610bef3660046102dc565b61037d6106fe6119d3565b9061087090610657565b60006108ad610353926001610bfa565b346102d75761037d6106fe610c2a366004610a89565b610c04565b90916060828403126102d757610353610c48848461039d565b9360406109bf82602087016103b2565b346102d75761042c610c6b366004610c2f565b91611a0d565b346102d757610c813660046102dc565b61037d61044c611a3a565b346102d757610c9c3660046102dc565b61037d6106fe611abb565b91906040838203126102d757610353906020610cc3828661039d565b940161039d565b346102d75761037d61044c610ce0366004610ca7565b90611ac5565b346102d75761037d610402610cfc366004610a89565b611b17565b346102d75761037d610b21610d173660046103bf565b90611bb0565b346102d75761042c610d303660046107de565b611c25565b634e487b7160e01b600052602260045260246000fd5b9060016002830492168015610d6b575b6020831014610d6657565b610d35565b91607f1691610d5b565b80546000939291610d92610d8883610d4b565b8085529360200190565b9160018116908115610de45750600114610dab57505050565b610dbe9192939450600052602060002090565b916000925b818410610dd05750500190565b805484840152602090930192600101610dc3565b92949550505060ff1916825215156020020190565b9061035391610d75565b906103aa610e1d92610e1460405190565b93848092610df9565b03836104ce565b61035390610e03565b6103536003610e3a611c2e565b01610e24565b610e4b919033611c52565b600190565b61035390610906565b6103539054610e50565b610e6d6005610e59565b610e79576103aa610e8f565b60405163ab35696f60e01b8152600490fd5b0390fd5b610e9e610e9a611cc2565b1590565b610ea457565b60405163be88008d60e01b8152600490fd5b6103aa610e63565b6103539081565b6103539054610ebe565b6103536002610edc611c2e565b01610ec5565b610e4b929190610ef3833383611f27565b611f8c565b6103539060401c610906565b6103539054610ef8565b610353905b6001600160401b031690565b6103539054610f0e565b610f136103536103539290565b906001600160401b03905b9181191691161790565b610f13610353610353926001600160401b031690565b90610f71610353610f7892610f4b565b8254610f36565b9055565b9060ff60401b9060401b610f41565b90610f9b610353610f7892151590565b8254610f7c565b6103e290610f29565b6020810192916103aa9190610fa2565b959196929894909793610fcc612019565b998a98610fe4610fde610e9a8c610f04565b9a610f1f565b9a60009b610ff18d610f29565b6001600160401b038216149081611101575b61101d6110106001610f29565b916001600160401b031690565b1490816110d8575b155b90816110cf575b506110bd5761105b998c8e8d61104f6110476001610f29565b848401610f61565b6110a9575b50506111aa565b611063575050565b8061106e9201610f8b565b7fc7f505b2f371ae2175ee4913f4499e1f2633a7b5936321eed1cdaeb6115181d261109860405190565b806110a4600182610fab565b0390a1565b6110b69160019101610f8b565b8c8e611054565b60405163f92ee8a960e01b8152600490fd5b1590503861102e565b90506110278d6110f86110f46110ed306108ea565b3b92610657565b9190565b14919050611025565b8c9150611003565b906001600160a01b0390610f41565b90611128610353610f78926108ea565b8254611109565b90610100600160a81b039060081b610f41565b90611152610353610f78926108ea565b825461112f565b9060001990610f41565b90611173610353610f7892610657565b8254611159565b9060ff90610f41565b6109066103536103539260ff1690565b906111a3610353610f7892611183565b825461117a565b6111e76111ee9293956111e06111f5966111d96111fc9a61120a9f6112039e9f906111d491612054565b612073565b6008611118565b6009611118565b6005611142565b6006611118565b6007611118565b600c611163565b600d611193565b6103aa611215610664565b600a611163565b906103aa999897969594939291610fbb565b6109066103536103539290565b610353601b61122e565b61035390610381565b6103539054611245565b610353600861124e565b610353600b610ec5565b61127461207c565b6103aa611284610e9a6005610e59565b611290576103aa6112b2565b60405163dcdde9dd60e01b8152600490fd5b906111a3610353610f7892151590565b6112be600060056112a2565b7f5db9ee0a495bf2e6ff9c91a7834c1ba4fdd244a5e8aa4e537bd38aeae4b073aa6112e860405190565b806110a433826106d3565b6103aa61126c565b9160206103aa929493611316604082019660008301906106ca565b0152565b9192905060009361133361132e600761124e565b610381565b61133c33610381565b141580611430575b61141e57611351916120bd565b9290917ff2614fcbf14cbf4a7da32993c2a710192b418d7acc7875c66a07eb81d3c07ba561137e60405190565b8061138a8787836112fb565b0390a161139f61139984610381565b91610381565b1415908115611413575b50611401576113da92506113c061132e600761124e565b6113c933610381565b036113f557610e9a91600191612180565b6113e357600190565b6040516379cacff160e01b8152600490fd5b610e9a91600091612180565b604051638754d27160e01b8152600490fd5b8391501415386113a9565b6040516348f5c3ed60e01b8152600490fd5b5061143e61132e600661124e565b61144733610381565b1415611344565b6114656103539161145d600090565b50600f6108f3565b610ec5565b610353600a610ec5565b6103aa9061148061207c565b6103aa90600d611193565b6103aa90611474565b6103539060081c610381565b6103539054611494565b61035360056114a0565b906114bf6005610e59565b610e79576103aa91906114d9916114d46125ef565b6114e1565b6103aa61262f565b6114ef91610e9a9133612180565b6113e357565b906103aa916114b4565b6103536005610e59565b610353600761124e565b634e487b7160e01b600052603260045260246000fd5b805482101561154c57611543600391600052602060002090565b91020190600090565b611513565b61035360606104f4565b906103aa611599600261156c611551565b9461157d61157982610ec5565b8752565b61159361158c60018301610ec5565b6020880152565b01610e59565b15156040840152565b6103539061155b565b634e487b7160e01b600052601160045260246000fd5b919082018092116115ce57565b6115ab565b906000906115e561146584600f6108f3565b916000916115f36000610657565b845b811015611675576116196116138261160e89600e6108f3565b611529565b506115a2565b611629610e9a6040830151151590565b80611668575b611644575b506115f5906001015b90506115f3565b6116606115f5929461165a602061163d94015190565b906115c1565b939150611634565b508085015143101561162f565b50935091505090565b6114656103539161168d600090565b506000611698611c2e565b016108f3565b6116a661207c565b6103aa6116c4565b6103816103536103539290565b610353906116ae565b6103aa6116d160006116bb565b612641565b6103aa61169e565b6116e86005610e59565b610e79576103aa90610e9a610e9e91612886565b6103aa906116de565b905051906103aa8261098e565b906020828203126102d75761035391611705565b6040513d6000823e3d90fd5b6000602061177661174e611749611749600961124e565b6108ea565b61175860056114a0565b604051948593849283919062f0f85b60e51b5b8352600483016106d3565b03925af19081156117b55760009161178c575090565b610353915060203d6020116117ae575b6117a681836104ce565b810190611712565b503d61179c565b611726565b6117c2611551565b600080825260208201819052604082015290565b6103536117ba565b919082039182116115ce57565b611613610353916117fa6117d6565b5061160e61181f61180f61146584600f6108f3565b6118196001610657565b906117de565b91600e6108f3565b6103aa9061183361207c565b6103aa906008611118565b6103aa90611827565b61184f61207c565b6103aa61185c6005610e59565b610e79576103aa61186f600160056112a2565b7f62e78cea01bee320cd4e420270b5ea74000d11b0c9f74754ebdbfc544b05a2586112e860405190565b6103aa611847565b61035360006118ae612891565b0161124e565b6103536004610e3a611c2e565b6118cb6005610e59565b610e79576103aa906118f9565b905051906103aa826103ac565b906020828203126102d757610353916118d8565b611936602061190e611749611749600861124e565b61191860056114a0565b9061192260405190565b93849283918291635af8ced960e11b61176b565b03915afa80156117b55761195692610e9a9260009261196e575b5061294c565b61195c57565b604051631a71704d60e01b8152600490fd5b61199191925060203d602011611998575b61198981836104ce565b8101906118e5565b9038611950565b503d61197f565b6103aa906118c1565b610e4b919033611f8c565b6103aa906119bf61207c565b6103aa906009611118565b6103aa906119b3565b610353600961124e565b91906119e96005610e59565b610e79576103aa92906114d992916119ff6125ef565b91610e9a916114ef93612180565b906103aa92916119dd565b9160206103aa929493611a33604082019660008301906106ca565b01906106ca565b611a8c6020611a4f611749611749600961124e565b611a5960056114a0565b90611a63306108ea565b91611a6d60405190565b809581948293611a8163ce4cb87660e01b90565b845260048401611a18565b03915afa9081156117b557600091611aa2575090565b610353915060203d6020116119985761198981836104ce565b610353600661124e565b61035391611ae361146592611ad8600090565b506001611698611c2e565b6108f3565b604090611b0f6103aa9496959396611b08606084019860008501906106ca565b6020830152565b019015159052565b60206001611b6292611b27600090565b50611b38611749611749600861124e565b906000611b4560056114a0565b6040519687958694859363fb0713b160e01b855260048501611ae8565b03925af180156117b557611b7c91600091611b9757501590565b611b8557600190565b60405163afaae7a560e01b8152600490fd5b610e9a915060203d6020116117ae576117a681836104ce565b6103539161160e61161392611bc36117d6565b50600e6108f3565b6103aa90611bd761207c565b611be160006116bb565b611bea81610381565b611bf383610381565b14611c0257506103aa90612641565b610e8b90611c0f60405190565b631e4fbdf760e01b8152918291600483016106d3565b6103aa90611bcb565b7f52c63247e1f47db19d5ce0460030c497f067ca4cebf71ba98eeadabe20bace0090565b916001916103aa93612b6e565b91906008610f41910291611c7360ff841b90565b921b90565b9190611c89610353610f7893611183565b908354611c5f565b6103aa91600091611c78565b634e487b7160e01b600052601260045260246000fd5b8115611cbd570490565b611c9d565b6000611ccd81610657565b90815b600e611ce6610353611ce233846108f3565b5490565b821015611d6e57611cfe6116138361160e33856108f3565b90611d0f610e9a6040840151151590565b80611d61575b611d29575b5050600101611cd0565b611cd0565b9361165a6020611d5993611d5460016002611d4d8961160e611d249b9d33906108f3565b50016112a2565b015190565b929038611d1a565b5081840151431015611d15565b505090611d7a82610657565b8114611eec57611dab90611d9883611d933360106108f3565b611c91565b611da5633b9aca00610657565b90611cb3565b90611de86020611dc1611749611749600761124e565b611dca306108ea565b90611dd460405190565b938492839182916370a0823160e01b61176b565b03915afa9081156117b5578291611ecd575b508211611e425750611e3a81611e2d60008051602061365e83398151915293611e26611749600761124e565b3390612f21565b60405191829133836112fb565b0390a1600190565b611e4a612cf2565b611e5382610657565b8111611e85575b5050611e3a81611e8060008051602061365e83398151915293611e26611749600761124e565b611e2d565b60206001611ea992611e9d611749611749600861124e565b9085611b4560056114a0565b03925af19081156117b557611ec29291611b9757501590565b611b85573880611e5a565b611ee6915060203d6020116119985761198981836104ce565b38611dfa565b6040516395ae4d3960e01b815280610e8b33600483016106d3565b6040906113166103aa9496959396611b08606084019860008501906106ca565b91611f328284611ac5565b6000198103611f42575b50505050565b818110611f685791611f59611f5f94926000940390565b91612b6e565b38808080611f3c565b82610e8b83611f7660405190565b637dc7a0d960e11b815293849360048501611f07565b929190611f9960006116bb565b93611fa385610381565b611fac82610381565b14611ff657611fba85610381565b611fc383610381565b14611fd3576103aa939450612f69565b610e8b85611fe060405190565b63ec442f0560e01b8152918291600483016106d3565b610e8b8561200360405190565b634b637e8f60e11b8152918291600483016106d3565b7ff0c57e16840df040f15088dc2f81fe391c3923bec73e23a9662efc9c229c6a0090565b906103aa9161204a6130a2565b906103aa9161328f565b906103aa9161203d565b6103aa9061206a6130a2565b6103aa906132a5565b6103aa9061205e565b6120846118a1565b339061209261139983610381565b0361209a5750565b610e8b906120a760405190565b63118cdaa760e01b8152918291600483016106d3565b91906120c8565b5090565b6120d56110f46040610657565b036120ea576020600c83013560601c92013590565b604051639ab71d2560e01b8152600490fd5b612117610353949293611b08606084019560008501906106ca565b604081840391015261030a565b818102929181159184041417156115ce57565b91946121796113169298979561217260a09661216b6103aa9a61216260c08a019e60008b01906106ca565b15156020890152565b6040870152565b6060850152565b6080830152565b90600061218c83613323565b60009061219882610657565b83146125d3576121a8600b610ec5565b6121b46110f484610657565b14158061256e575b6124df575b6121cc43600b611163565b6121d7611215613361565b7f30ce0c4920695ae7b30f6304002cac26f3bffd83b1b84b281d4495ec83956c4961220561044c600a610ec5565b0390a150836123cb5761226e60208461223685612225611749600661124e565b61222e306108ea565b9384916133d4565b612246611749611749600661124e565b612250600861124e565b9161225a60405190565b809581948293611a8163dd62ed3e60e01b90565b03915afa9081156117b55782916123ac575b508211612338575b6122d160208361229e611749611749600861124e565b6122a860056114a0565b856122b260405190565b8096819582946122c66347e7ef2460e01b90565b8452600484016112fb565b03925af19081156117b5576122ea9291611b9757501590565b6113e357611e3a7fc2cf288cd8c138e724d1e17ce848afd04e0d32e56883d38635d5a81523dbce029361231c8361340a565b935b612328858261342c565b6040519485944393429387612137565b80602061237a61234e611749611749600661124e565b612358600861124e565b604051948593849283919063095ea7b360e01b835260001990600484016112fb565b03925af180156117b55761238f575b50612288565b6123a79060203d6020116117ae576117a681836104ce565b612389565b6123c5915060203d6020116119985761198981836104ce565b38612280565b6123ec826123dc611749600761124e565b856123e6306108ea565b916133d4565b612467602061242261242e612401600861124e565b61240b60056114a0565b9061241560405190565b9384928684019283611a18565b908103825203826104ce565b61243e611749611749600761124e565b858561244a600661124e565b6040519687958694859363cae9ca5160e01b8552600485016120fc565b03925af19081156117b5576124809291611b9757501590565b6124cd57611e3a7fc2cf288cd8c138e724d1e17ce848afd04e0d32e56883d38635d5a81523dbce02936124c76124c26124bc633b9aca00610657565b85612124565b61340a565b9361231e565b604051631a964e0160e31b8152600490fd5b6124ef61174961174960056114a0565b60206124fa60405190565b633b253c2b60e11b8152918290600490829087905af180156117b557612525918491611b9757501590565b61255c577ff5098c5d9dbf181d9c0d6092494a5858de094059750ccf72e28485c5480b493961255360405190565b600090a16121c1565b604051632893c9ab60e01b8152600490fd5b5061257f611749611749600961124e565b602061258a60405190565b631e6b913d60e31b815291829060049082905afa9081156117b55783916125b4575b5043116121bc565b6125cd915060203d6020116119985761198981836104ce565b386125ac565b60405163396f493960e01b8152600490fd5b6103536002610657565b6125f96004610ec5565b6126016125e5565b908114612613576103aa906004611163565b604051633ee5aeb560e01b8152600490fd5b6103536001610657565b6103aa61263a612625565b6004611163565b61266b6126656000612651612891565b016117498461265f8361124e565b92611118565b916108ea565b907f8be0079c531659141344cd1fd0a4f28419497f9722a3daafe3b4186f6b6457e061269660405190565b80805b0390a3565b906126a96005610e59565b610e7957610353916126c6565b60ff1680156115ce576000190190565b50600e906126da610353611ce233856108f3565b811015612874576126f26120c48261160e33866108f3565b906126ff60028301610e59565b60019390151584146128625761271483610ec5565b43106128505761275c92612737856002611d4d611d989661160e849733906108f3565b610edc6127453360106108f3565b61275661275182610e59565b6126b6565b90611193565b6127716020611dc1611749611749600761124e565b03915afa9081156117b557600091612831575b5081116127b5576127af81611e2d60008051602061365e83398151915293611e26611749600761124e565b0390a190565b816127be612cf2565b6127c86000610657565b81116127f5575b50506127af81611e8060008051602061365e83398151915293611e26611749600761124e565b61280c91602091611b38611749611749600861124e565b03925af180156117b55761282691600091611b9757501590565b611b855781386127cf565b61284a915060203d6020116119985761198981836104ce565b38612784565b6040516378f67ae160e11b8152600490fd5b6040516329af1d3160e21b8152600490fd5b60405163e92d106b60e01b8152600490fd5b61035390600061269e565b7f9016d09d72d40fdae2fd8ceac6b6234c7706214fd39c1cd1e609a0528c19930090565b634e487b7160e01b600052600060045260246000fd5b600261290860406103aa946128ea6128e4600083015190565b86611163565b6129016128f8602083015190565b60018701611163565b0151151590565b91016112a2565b919061291e576103aa916128cb565b6128b5565b80549190600160401b8310156104ef57826129469160016103aa95018155611529565b9061290f565b906129563361167e565b8211612b5c57612969610353600c610ec5565b8210612b4a5761298261297d3360106108f3565b610e59565b612999612992610906600d610e59565b9160ff1690565b14612b38576129a9611215613361565b7f30ce0c4920695ae7b30f6304002cac26f3bffd83b1b84b281d4495ec83956c496129d761044c600a610ec5565b0390a16129f86129f06129ea600a610ec5565b84612124565b611da5610664565b612a37602082612a0e611749611749600861124e565b612a1860056114a0565b6000612a2360405190565b8096819582946122c663da95ebf760e01b90565b03925af180156117b557612a5191600091611b9757501590565b61195c57612a9891612a8c612a74612a6d61035333600e6108f3565b92436115c1565b92612a85612a80611551565b948552565b6020840152565b60006040830152612923565b612ac3612aa56001610657565b612abd612ab333600f6108f3565b9161033e83610ec5565b90611163565b612aef612ad0600161122e565b612756612ade3360106108f3565b91612ae883610e59565b0160ff1690565b612af98133613467565b7fe670e4e82118d22a1f9ee18920455ebc958bae26a90a05d31d3378788b1b0e44612b30612b26336108ea565b9261045060405190565b0390a2600190565b60405163283da26360e21b8152600490fd5b604051636b15d6e560e01b8152600490fd5b604051631036b5ad60e31b8152600490fd5b909192612b79611c2e565b612b8360006116bb565b612b8c81610381565b612b9585610381565b14612c3857612ba381610381565b612bac86610381565b14612c15575084612bc785611ae3866001612bcc96016108f3565b611163565b612bd557505050565b612699612c0b612c057f8c5be1e5ebec7d5bd14f71427d1e84f3dd0314c0f7b2291e5b200ac8c7c3b925936108ea565b936108ea565b9361045060405190565b610e8b90612c2260405190565b634a1406b160e11b8152918291600483016106d3565b610e8b90612c4560405190565b63e602df0560e01b8152918291600483016106d3565b6001600160801b038116610396565b905051906103aa82612c5b565b90916060828403126102d757610353612c908484612c6a565b936040612ca08260208701612c6a565b9401611705565b6040906113166103aa9496959396612cc7606084019860008501906106ca565b60208301906106ca565b6103539081906001600160801b031681565b60001981146115ce5760010190565b612d3e906000612d08611749611749600861124e565b906020612d1560056114a0565b612d1e306108ea565b938491612d2a60405190565b809881948293611a8163f762eb5760e01b90565b03915afa9081156117b557612d8a94600092612ee7575b50602083612d69611749611749600861124e565b612d7360056114a0565b604051809981948293611a8163c647f26e60e01b90565b03915afa9485156117b557600095612ec6575b5091600091612dab83610657565b8114612eb75785612dbb916117de565b93612dc583610657565b855b811015612ead57612e1d6060612de3611749611749600861124e565b612ded60056114a0565b9086612df9868d6115c1565b92612e0360405190565b958694859384936308fbef2d60e41b855260048501612ca7565b03915afa9081156117b55785908692612e7c575b50612e3c4391612cd1565b11159081612e73575b50612e5a575b612dc7906001015b9050612dc5565b93612e53612e6a612dc792612ce3565b95915050612e4b565b15905038612e45565b9050612e9f915060603d8111612ea6575b612e9781836104ce565b810190612c77565b9190612e31565b503d612e8d565b5094505050905090565b50509050610353919250610657565b612ee091955060203d6020116119985761198981836104ce565b9338612d9d565b612f0191925060203d6020116119985761198981836104ce565b9038612d55565b610859612f1b6103539263ffffffff1690565b60e01b90565b612f64600492612f556103aa95612f3b63a9059cbb612f08565b92612f4560405190565b96879460208601908152016112fb565b602082018103825203836104ce565b6134a3565b612f71611c2e565b82612f7c60006116bb565b612f8581610381565b612f8e85610381565b0361301f577fddf252ad1be2c89b69c2b068fc378daa952ba7f163c4a11628f55a4df523b3ef9383612c0b93612fdd612c059461132e60026126999901612abd8d612fd883610ec5565b6115c1565b612fe682610381565b03613004575060026117499101612abd8961300083610ec5565b0390565b6117499161301291906108f3565b612abd8961033e83610ec5565b90508161302f61146585836108f3565b86811061307e57936126999386612fdd612c0b9561132e612c0596612bc7876130788f7fddf252ad1be2c89b69c2b068fc378daa952ba7f163c4a11628f55a4df523b3ef9e0390565b926108f3565b84610e8b8861308c60405190565b63391434e360e21b815293849360048501611f07565b6130ad610e9a61351d565b6130b357565b604051631afcd79f60e31b8152600490fd5b906103aa916130d26130a2565b61326d565b9160001960089290920291821b911b610f41565b91906130fc610353610f7893610657565b9083546130d7565b6103aa916000916130eb565b81811061311b575050565b806131296000600193613104565b01613110565b9190601f811161313e57505050565b6131506103aa93600052602060002090565b906020601f840181900483019310613172575b6020601f909101040190613110565b9091508190613163565b9060001960089091021c191690565b816131959161317c565b906002021790565b906131a6815190565b906001600160401b0382116104ef576131c9826131c38554610d4b565b8561312f565b602090601f83116001146131f757610f789291600091836131ec575b505061318b565b0151905038806131e5565b601f1983169161320c85600052602060002090565b9260005b81811061324b57509160029391856001969410613231575b50505002019055565b613241910151601f84169061317c565b9055388080613228565b91936020600181928787015181550195019201613210565b906103aa9161319d565b9060046103aa9261328961327f611c2e565b9160038301613263565b01613263565b906103aa916130c5565b6103aa90611bd76130a2565b6103aa90613299565b805482101561154c57611543600191600052602060002090565b916001600160a01b0360089290920291821b911b610f41565b91906132f2610353610f78936108ea565b9083546132c8565b80549190600160401b8310156104ef578261331d9160016103aa950181556132ae565b906132e1565b613334610e9a61297d8360126108f3565b61333b5750565b600161335c826133556103aa94613350601190565b6132fa565b60126108f3565b6112a2565b613369611a3a565b613371610ecf565b61337e6110f46000610657565b11806133c2575b156133b25761339f6133a791613399610664565b90612124565b611da5610ecf565b61035381600a611163565b506133bd600a610ec5565b6133a7565b506133cd6000610657565b8111613385565b90612f6490612f556103aa956004956133f06323b872dd612f08565b936133fa60405190565b9788956020870190815201612ca7565b61342261035391613419600090565b50613399610664565b611da5600a610ec5565b919061343860006116bb565b9261344284610381565b61344b82610381565b1461345a576103aa9293612f69565b610e8b84611fe060405190565b919061347360006116bb565b9261347d84610381565b61348682610381565b1461349657926103aa9293612f69565b610e8b8461200360405190565b6134af6134b6916108ea565b9182613530565b80516134c56110f46000610657565b141590816134f9575b506134d65750565b610e8b906134e360405190565b635274afe760e01b8152918291600483016106d3565b613517915080602061350c610e9a935190565b818301019101611712565b386134ce565b610353600061352a612019565b01610f04565b6103539161353e6000610657565b91613575565b9061355161054083610508565b918252565b3d15613570576135653d613544565b903d6000602084013e565b606090565b9161357f306108ea565b818131106135a9575060008281926020610353969551920190855af16135a3613556565b916135cc565b610e8b906135b660405190565b63cd78605960e01b8152918291600483016106d3565b906135d7575061362e565b81516135e66110f46000610657565b1480613618575b6135f5575090565b610e8b9061360260405190565b639996b31560e01b8152918291600483016106d3565b50803b6136286110f46000610657565b146135ed565b805161363d6110f46000610657565b111561364b57805190602001fd5b604051630a12f52160e11b8152600490fdfe5abb0fc89def2ee3226cc48f5621ee8e2b45f6dcc7898d2bdb5d480533c32bc0a26469706673582212203018ded357e2d84853bd29841ce30b44688c32a59bfaf87483d443aa2b9598d964736f6c63430008190033","linkReferences":{}},"methodIdentifiers":{"DECIMALS()":"2e0f2625","aliveImplementation(address)":"550d01a3","allowance(address,address)":"dd62ed3e","approve(address,uint256)":"095ea7b3","balanceOf(address)":"70a08231","claimWithdrawalIndex(uint256)":"7447ce0e","claimWithdrawalTotal()":"0c5c16e6","decimals()":"313ce567","depositWTONAndGetWSTON(uint256,bool)":"5f4c5eae","depositWTONAndGetWSTONTo(address,uint256,bool)":"c40753f9","getDepositManager()":"31ae1f02","getLastWithdrawalRequest(address)":"7ed72d16","getLayer2Address()":"5a3b20bf","getPaused()":"6805b84b","getSeigManager()":"b6f20593","getStakingIndex()":"5074e0c8","getTonAddress()":"6ae638d0","getTotalClaimableAmountByUser(address)":"70448bd4","getWithdrawalRequest(address,uint256)":"f2847e64","getWithdrawalRequestIndex(address)":"43148e5a","getWtonAddress()":"d91714a6","getlastSeigBlock()":"3f0ab0ad","initialize(address,address,address,address,address,address,uint256,uint8,string,string)":"26827d1c","name()":"06fdde03","onApprove(address,address,uint256,bytes)":"4273ca16","owner()":"8da5cb5b","pause()":"8456cb59","pauseProxy()":"63a8fd89","processWithdrawalRequest(uint256)":"e06d97ba","proxyImplementation(uint256)":"b911135f","renounceOwnership()":"715018a6","requestWithdrawal(uint256)":"9ee679e8","selectorImplementation(bytes4)":"50d2a276","setDepositManagerAddress(address)":"7f4649b7","setMaxNumWithdrawal(uint8)":"5645eedf","setSeigManagerAddress(address)":"aa738524","stakeOf()":"d6960d12","symbol()":"95d89b41","totalSupply()":"18160ddd","transfer(address,uint256)":"a9059cbb","transferFrom(address,address,uint256)":"23b872dd","transferOwnership(address)":"f2fde38b","unpause()":"3f4ba83a","updateSeigniorage()":"764a7856"},"id":55}