{"abi":[{"type":"constructor","inputs":[],"stateMutability":"nonpayable"},{"type":"function","name":"onApprove","inputs":[{"name":"owner","type":"address","internalType":"address"},{"name":"spender","type":"address","internalType":"address"},{"name":"amount","type":"uint256","internalType":"uint256"},{"name":"data","type":"bytes","internalType":"bytes"}],"outputs":[{"name":"","type":"bool","internalType":"bool"}],"stateMutability":"nonpayable"},{"type":"function","name":"supportsInterface","inputs":[{"name":"interfaceId","type":"bytes4","internalType":"bytes4"}],"outputs":[{"name":"","type":"bool","internalType":"bool"}],"stateMutability":"view"}],"bytecode":{"object":"0x608060405234601d575b600f6021565b6102df61002d82396102df90f35b6027565b60405190565b600080fdfe60806040526004361015610013575b610269565b61001e600035610044565b806301ffc9a71461003f575b634273ca161461003a575b61000e565b61022f565b6100db565b60e01c90565b60405190565b600080fd5b600080fd5b600080fd5b63ffffffff60e01b901690565b6100758161005f565b90141561007f575b565b600080fd5b905035906100918261006c565b565b906020828203126100ae575b60006100ab9201610084565b90565b610055565b151590565b6100c1906100b3565b9052565b91906100d9906000602085019401906100b8565b565b3461010c575b6101086100f76100f2366004610093565b610273565b6100ff61004a565b918291826100c5565b0390f35b610050565b60018060a01b03901690565b61012690610111565b90565b6101328161011d565b90141561013c575b565b600080fd5b9050359061014e82610129565b565b90565b61015c81610150565b901415610166575b565b600080fd5b9050359061017882610153565b565b600080fd5b600080fd5b600080fd5b909182601f830112156101c7575b81359167ffffffffffffffff83116101c2575b6020900192600183028401116101bd575b565b610184565b61017f565b61017a565b9060808282031261022a575b6101e58160008401610141565b926101f38260208501610141565b92610201836040830161016b565b92606082013567ffffffffffffffff8111610225575b6102219201610189565b9091565b61005a565b610055565b34610264575b61026061024f6102463660046101cc565b93929092610299565b61025761004a565b918291826100c5565b0390f35b610050565b600080fd5b600090565b61027b61026e565b5061029561028f6301ffc9a760e01b61005f565b9161005f565b1490565b50505050506102a661026e565b9056fea26469706673582212204ea16e001e520f5c3b5f188aa698fab568a3f67fdb4c1372ad189c196ea4f78364736f6c63430008190033","linkReferences":{}},"methodIdentifiers":{"onApprove(address,address,uint256,bytes)":"4273ca16","supportsInterface(bytes4)":"01ffc9a7"},"id":101}