{
  "_format": "hh-sol-artifact-1",
  "contractName": "RandomPackStorage",
  "sourceName": "src/L2/RandomPackStorage.sol",
  "abi": [
    {
      "inputs": [],
      "name": "AlreadyInitialized",
      "type": "error"
    },
    {
      "inputs": [],
      "name": "FailedToPayFees",
      "type": "error"
    },
    {
      "inputs": [],
      "name": "FailedToSendEthBack",
      "type": "error"
    },
    {
      "inputs": [],
      "name": "FailedToSendFeesToTreasury",
      "type": "error"
    },
    {
      "inputs": [],
      "name": "InvalidAddress",
      "type": "error"
    },
    {
      "inputs": [],
      "name": "RandomPackFeesEqualToZero",
      "type": "error"
    },
    {
      "inputs": [],
      "name": "RequestNotMade",
      "type": "error"
    },
    {
      "inputs": [],
      "name": "invalidProbabilities",
      "type": "error"
    },
    {
      "anonymous": false,
      "inputs": [
        {
          "indexed": false,
          "internalType": "uint256",
          "name": "_callbackGasLimit",
          "type": "uint256"
        }
      ],
      "name": "CallBackGasLimitUpdated",
      "type": "event"
    },
    {
      "anonymous": false,
      "inputs": [],
      "name": "CommonGemMinted",
      "type": "event"
    },
    {
      "anonymous": false,
      "inputs": [],
      "name": "CommonGemToBeMinted",
      "type": "event"
    },
    {
      "anonymous": false,
      "inputs": [
        {
          "indexed": false,
          "internalType": "uint256",
          "name": "amount",
          "type": "uint256"
        }
      ],
      "name": "EthSentBack",
      "type": "event"
    },
    {
      "anonymous": false,
      "inputs": [
        {
          "indexed": false,
          "internalType": "address",
          "name": "gemFactory",
          "type": "address"
        }
      ],
      "name": "GemFactoryAddressUpdated",
      "type": "event"
    },
    {
      "anonymous": false,
      "inputs": [
        {
          "indexed": false,
          "internalType": "string",
          "name": "_tokenURI",
          "type": "string"
        }
      ],
      "name": "PerfectCommonGemURIUpdated",
      "type": "event"
    },
    {
      "anonymous": false,
      "inputs": [
        {
          "indexed": false,
          "internalType": "address",
          "name": "requestor",
          "type": "address"
        },
        {
          "indexed": false,
          "internalType": "uint256",
          "name": "requestId",
          "type": "uint256"
        }
      ],
      "name": "RandomGemRequested",
      "type": "event"
    },
    {
      "anonymous": false,
      "inputs": [
        {
          "indexed": false,
          "internalType": "uint256",
          "name": "tokenId",
          "type": "uint256"
        },
        {
          "indexed": false,
          "internalType": "address",
          "name": "newOwner",
          "type": "address"
        }
      ],
      "name": "RandomGemToBeTransferred",
      "type": "event"
    },
    {
      "anonymous": false,
      "inputs": [
        {
          "indexed": false,
          "internalType": "uint256",
          "name": "tokenId",
          "type": "uint256"
        },
        {
          "indexed": false,
          "internalType": "address",
          "name": "newOwner",
          "type": "address"
        }
      ],
      "name": "RandomGemTransferred",
      "type": "event"
    },
    {
      "anonymous": false,
      "inputs": [
        {
          "indexed": false,
          "internalType": "uint256",
          "name": "randomPackFees",
          "type": "uint256"
        }
      ],
      "name": "RandomPackFeesUpdated",
      "type": "event"
    },
    {
      "anonymous": false,
      "inputs": [
        {
          "indexed": false,
          "internalType": "address",
          "name": "treasury",
          "type": "address"
        }
      ],
      "name": "TreasuryAddressUpdated",
      "type": "event"
    },
    {
      "inputs": [],
      "name": "DIVIDER",
      "outputs": [
        {
          "internalType": "uint8",
          "name": "",
          "type": "uint8"
        }
      ],
      "stateMutability": "view",
      "type": "function"
    },
    {
      "inputs": [
        {
          "internalType": "uint256",
          "name": "",
          "type": "uint256"
        }
      ],
      "name": "s_requests",
      "outputs": [
        {
          "internalType": "uint256",
          "name": "randomWord",
          "type": "uint256"
        },
        {
          "internalType": "uint256",
          "name": "chosenTokenId",
          "type": "uint256"
        },
        {
          "internalType": "address",
          "name": "requester",
          "type": "address"
        },
        {
          "internalType": "bool",
          "name": "requested",
          "type": "bool"
        },
        {
          "internalType": "bool",
          "name": "fulfilled",
          "type": "bool"
        }
      ],
      "stateMutability": "view",
      "type": "function"
    }
  ],
  "bytecode": "0x6080806040523460205762ffffff196007541660075560e990816100268239f35b600080fdfe6080806040526004361015601257600080fd5b600090813560e01c90816362043bd8146096575063a168fa8914603457600080fd5b346093576020366003190112609357604060a0916004358152806020522060ff81549160026001820154910154906040519384526020840152600180851b03811660408401528181851c161515606084015260a81c1615156080820152f35b80fd5b90503460af578160031936011260af5780606460209252f35b5080fdfea264697066735822122027914f59729227dbe4b8e49d4dfbf7b01a3dae3a722aca077e93260c341c197764736f6c63430008190033",
  "linkReferences": {},
  "deployedLinkReferences": {}
}