{"abi":[{"type":"function","name":"aliveImplementation","inputs":[{"name":"","type":"address","internalType":"address"}],"outputs":[{"name":"","type":"bool","internalType":"bool"}],"stateMutability":"view"},{"type":"function","name":"pauseProxy","inputs":[],"outputs":[{"name":"","type":"bool","internalType":"bool"}],"stateMutability":"view"},{"type":"function","name":"proxyImplementation","inputs":[{"name":"","type":"uint256","internalType":"uint256"}],"outputs":[{"name":"","type":"address","internalType":"address"}],"stateMutability":"view"},{"type":"function","name":"selectorImplementation","inputs":[{"name":"","type":"bytes4","internalType":"bytes4"}],"outputs":[{"name":"","type":"address","internalType":"address"}],"stateMutability":"view"}],"bytecode":{"object":"0x608060405234601d575b600f6021565b61045161002d823961045190f35b6027565b60405190565b600080fdfe60806040526004361015610013575b610416565b61001e600035610066565b806350d2a27614610061575b8063550d01a31461005c575b806363a8fd8914610057575b63b911135f14610052575b61000e565b6103e0565b610311565b6102bc565b610180565b60e01c90565b60405190565b600080fd5b600080fd5b63ffffffff60e01b901690565b6100928161007c565b90141561009c575b565b600080fd5b905035906100ae82610089565b565b906020828203126100cb575b60006100c892016100a1565b90565b610077565b6100d99061007c565b90565b906100e6906100d0565b600052602052604060002090565b1c90565b60018060a01b03901690565b61011490600861011993026100f4565b6100f8565b90565b906101279154610104565b90565b600061013d6101429260035060036100dc565b61011c565b90565b60018060a01b03901690565b61015a90610145565b90565b61016690610151565b9052565b919061017e9060006020850194019061015d565b565b346101b1575b6101ad61019c6101973660046100b0565b61012a565b6101a461006c565b9182918261016a565b0390f35b610072565b6101bf81610151565b9014156101c9575b565b600080fd5b905035906101db826101b6565b565b906020828203126101f8575b60006101f592016101ce565b90565b610077565b90565b61021461020f61021992610145565b6101fd565b610145565b90565b61022590610200565b90565b6102319061021c565b90565b9061023e90610228565b600052602052604060002090565b60ff901690565b61026390600861026893026100f4565b61024c565b90565b906102769154610253565b90565b600061028c610291926002506002610234565b61026b565b90565b151590565b6102a290610294565b9052565b91906102ba90600060208501940190610299565b565b346102ed575b6102e96102d86102d33660046101dd565b610279565b6102e061006c565b918291826102a6565b0390f35b610072565b60009103126102fe575b565b610077565b61030e60008061026b565b90565b34610342575b6103223660046102f2565b61033e61032d610303565b61033561006c565b918291826102a6565b0390f35b610072565b90565b61035381610347565b90141561035d575b565b600080fd5b9050359061036f8261034a565b565b9060208282031261038c575b60006103899201610362565b90565b610077565b6103a56103a06103aa92610347565b6101fd565b610347565b90565b906103b790610391565b600052602052604060002090565b60006103d86103dd9260015060016103ad565b61011c565b90565b34610411575b61040d6103fc6103f7366004610371565b6103c5565b61040461006c565b9182918261016a565b0390f35b610072565b600080fdfea26469706673582212208fdffca257b7e0da834dbf2b2d04c0fb8ce35ad8c1db4884e96886349962d8b964736f6c63430008190033","linkReferences":{}},"methodIdentifiers":{"aliveImplementation(address)":"550d01a3","pauseProxy()":"63a8fd89","proxyImplementation(uint256)":"b911135f","selectorImplementation(bytes4)":"50d2a276"},"id":149}