{"abi":[{"type":"function","name":"DECIMALS","inputs":[],"outputs":[{"name":"","type":"uint256","internalType":"uint256"}],"stateMutability":"view"},{"type":"function","name":"ton","inputs":[],"outputs":[{"name":"","type":"address","internalType":"address"}],"stateMutability":"view"},{"type":"function","name":"treasury","inputs":[],"outputs":[{"name":"","type":"address","internalType":"address"}],"stateMutability":"view"},{"type":"function","name":"wston","inputs":[],"outputs":[{"name":"","type":"address","internalType":"address"}],"stateMutability":"view"},{"type":"event","name":"StakingIndexUpdated","inputs":[{"name":"newIndex","type":"uint256","indexed":false,"internalType":"uint256"}],"anonymous":false},{"type":"event","name":"SwappedWstonForTon","inputs":[{"name":"user","type":"address","indexed":true,"internalType":"address"},{"name":"tonAmount","type":"uint256","indexed":false,"internalType":"uint256"},{"name":"wstonAmount","type":"uint256","indexed":false,"internalType":"uint256"}],"anonymous":false},{"type":"error","name":"ContractTonBalanceOrAllowanceTooLow","inputs":[]},{"type":"error","name":"FailedToApproveTon","inputs":[{"name":"amount","type":"uint256","internalType":"uint256"}]},{"type":"error","name":"FailedToTransferTON","inputs":[]},{"type":"error","name":"WrongStakingIndex","inputs":[]},{"type":"error","name":"WstonAllowanceTooLow","inputs":[]},{"type":"error","name":"WstonBalanceTooLow","inputs":[]}],"bytecode":{"object":"0x6080604052346019576040516101bc61001f82396101bc90f35b600080fdfe6080604052600436101561001257600080fd5b60003560e01c80632e0f26251461005257806336b17e131461004d57806361d027b3146100485763cc48b947036100575761016b565b610145565b610112565b6100a2565b600080fd5b600091031261005757565b6100746100746100749290565b90565b610074676765c793fa10079d601b1b610067565b610074610077565b9052565b90815260200190565b565b34610057576100b236600461005c565b6100c96100bd61008b565b60405191829182610097565b0390f35b610074916008021c5b6001600160a01b031690565b9061007491546100cd565b610074600060016100e2565b610093906100d6565b6020810192916100a091906100f9565b346100575761012236600461005c565b6100c961012d6100ed565b60405191829182610102565b610074600060026100e2565b346100575761015536600461005c565b6100c961012d610139565b6100746000806100e2565b346100575761017b36600461005c565b6100c961012d61016056fea2646970667358221220296064e262d5bb4dd303212a4f0d180ae5e6d14a147aa506343069c76864415a64736f6c63430008190033","linkReferences":{}},"methodIdentifiers":{"DECIMALS()":"2e0f2625","ton()":"cc48b947","treasury()":"61d027b3","wston()":"36b17e13"},"id":80}