{"abi":[{"type":"function","name":"ADMIN_ROLE","inputs":[],"outputs":[{"name":"","type":"bytes32","internalType":"bytes32"}],"stateMutability":"view"},{"type":"function","name":"DEFAULT_ADMIN_ROLE","inputs":[],"outputs":[{"name":"","type":"bytes32","internalType":"bytes32"}],"stateMutability":"view"},{"type":"function","name":"DIVIDER","inputs":[],"outputs":[{"name":"","type":"uint8","internalType":"uint8"}],"stateMutability":"view"},{"type":"function","name":"PAUSE_ROLE","inputs":[],"outputs":[{"name":"","type":"bytes32","internalType":"bytes32"}],"stateMutability":"view"},{"type":"function","name":"addAdmin","inputs":[{"name":"account","type":"address","internalType":"address"}],"outputs":[],"stateMutability":"nonpayable"},{"type":"function","name":"addPauser","inputs":[{"name":"account","type":"address","internalType":"address"}],"outputs":[],"stateMutability":"nonpayable"},{"type":"function","name":"aliveImplementation","inputs":[{"name":"","type":"address","internalType":"address"}],"outputs":[{"name":"","type":"bool","internalType":"bool"}],"stateMutability":"view"},{"type":"function","name":"getCallbackGasLimit","inputs":[],"outputs":[{"name":"","type":"uint32","internalType":"uint32"}],"stateMutability":"view"},{"type":"function","name":"getGemFactoryAddress","inputs":[],"outputs":[{"name":"","type":"address","internalType":"address"}],"stateMutability":"view"},{"type":"function","name":"getPaused","inputs":[],"outputs":[{"name":"","type":"bool","internalType":"bool"}],"stateMutability":"view"},{"type":"function","name":"getPerfectCommonGemURI","inputs":[],"outputs":[{"name":"","type":"string","internalType":"string"}],"stateMutability":"view"},{"type":"function","name":"getRandomPackFees","inputs":[],"outputs":[{"name":"","type":"uint256","internalType":"uint256"}],"stateMutability":"view"},{"type":"function","name":"getRequestCount","inputs":[],"outputs":[{"name":"","type":"uint256","internalType":"uint256"}],"stateMutability":"view"},{"type":"function","name":"getRoleAdmin","inputs":[{"name":"role","type":"bytes32","internalType":"bytes32"}],"outputs":[{"name":"","type":"bytes32","internalType":"bytes32"}],"stateMutability":"view"},{"type":"function","name":"getTonAddress","inputs":[],"outputs":[{"name":"","type":"address","internalType":"address"}],"stateMutability":"view"},{"type":"function","name":"getTreasuryAddress","inputs":[],"outputs":[{"name":"","type":"address","internalType":"address"}],"stateMutability":"view"},{"type":"function","name":"grantRole","inputs":[{"name":"role","type":"bytes32","internalType":"bytes32"},{"name":"account","type":"address","internalType":"address"}],"outputs":[],"stateMutability":"nonpayable"},{"type":"function","name":"hasRole","inputs":[{"name":"role","type":"bytes32","internalType":"bytes32"},{"name":"account","type":"address","internalType":"address"}],"outputs":[{"name":"","type":"bool","internalType":"bool"}],"stateMutability":"view"},{"type":"function","name":"initialize","inputs":[{"name":"_coordinator","type":"address","internalType":"address"},{"name":"_ton","type":"address","internalType":"address"},{"name":"_gemFactory","type":"address","internalType":"address"},{"name":"_treasury","type":"address","internalType":"address"},{"name":"_randomPackFees","type":"uint256","internalType":"uint256"}],"outputs":[],"stateMutability":"nonpayable"},{"type":"function","name":"isAdmin","inputs":[{"name":"account","type":"address","internalType":"address"}],"outputs":[{"name":"","type":"bool","internalType":"bool"}],"stateMutability":"view"},{"type":"function","name":"isOwner","inputs":[],"outputs":[{"name":"","type":"bool","internalType":"bool"}],"stateMutability":"view"},{"type":"function","name":"isPauser","inputs":[{"name":"account","type":"address","internalType":"address"}],"outputs":[{"name":"","type":"bool","internalType":"bool"}],"stateMutability":"view"},{"type":"function","name":"onERC721Received","inputs":[{"name":"","type":"address","internalType":"address"},{"name":"","type":"address","internalType":"address"},{"name":"","type":"uint256","internalType":"uint256"},{"name":"","type":"bytes","internalType":"bytes"}],"outputs":[{"name":"","type":"bytes4","internalType":"bytes4"}],"stateMutability":"pure"},{"type":"function","name":"pause","inputs":[],"outputs":[],"stateMutability":"nonpayable"},{"type":"function","name":"pauseProxy","inputs":[],"outputs":[{"name":"","type":"bool","internalType":"bool"}],"stateMutability":"view"},{"type":"function","name":"proxyImplementation","inputs":[{"name":"","type":"uint256","internalType":"uint256"}],"outputs":[{"name":"","type":"address","internalType":"address"}],"stateMutability":"view"},{"type":"function","name":"rawFulfillRandomWords","inputs":[{"name":"requestId","type":"uint256","internalType":"uint256"},{"name":"randomWord","type":"uint256","internalType":"uint256"}],"outputs":[],"stateMutability":"nonpayable"},{"type":"function","name":"removeAdmin","inputs":[],"outputs":[],"stateMutability":"nonpayable"},{"type":"function","name":"removePauser","inputs":[{"name":"account","type":"address","internalType":"address"}],"outputs":[],"stateMutability":"nonpayable"},{"type":"function","name":"renounceRole","inputs":[{"name":"role","type":"bytes32","internalType":"bytes32"},{"name":"callerConfirmation","type":"address","internalType":"address"}],"outputs":[],"stateMutability":"nonpayable"},{"type":"function","name":"requestRandomGem","inputs":[],"outputs":[{"name":"","type":"uint256","internalType":"uint256"}],"stateMutability":"payable"},{"type":"function","name":"revokeRole","inputs":[{"name":"role","type":"bytes32","internalType":"bytes32"},{"name":"account","type":"address","internalType":"address"}],"outputs":[],"stateMutability":"nonpayable"},{"type":"function","name":"s_requests","inputs":[{"name":"","type":"uint256","internalType":"uint256"}],"outputs":[{"name":"randomWord","type":"uint256","internalType":"uint256"},{"name":"chosenTokenId","type":"uint256","internalType":"uint256"},{"name":"requester","type":"address","internalType":"address"},{"name":"requested","type":"bool","internalType":"bool"},{"name":"fulfilled","type":"bool","internalType":"bool"}],"stateMutability":"view"},{"type":"function","name":"selectorImplementation","inputs":[{"name":"","type":"bytes4","internalType":"bytes4"}],"outputs":[{"name":"","type":"address","internalType":"address"}],"stateMutability":"view"},{"type":"function","name":"setCallbackGasLimit","inputs":[{"name":"_callbackGasLimit","type":"uint32","internalType":"uint32"}],"outputs":[],"stateMutability":"nonpayable"},{"type":"function","name":"setGemFactory","inputs":[{"name":"_gemFactory","type":"address","internalType":"address"}],"outputs":[],"stateMutability":"nonpayable"},{"type":"function","name":"setPerfectCommonGemURI","inputs":[{"name":"_tokenURI","type":"string","internalType":"string"}],"outputs":[],"stateMutability":"nonpayable"},{"type":"function","name":"setProbabilities","inputs":[{"name":"_commonProb","type":"uint8","internalType":"uint8"},{"name":"_rareProb","type":"uint8","internalType":"uint8"},{"name":"_uniqueProb","type":"uint8","internalType":"uint8"},{"name":"_epicProb","type":"uint8","internalType":"uint8"},{"name":"_legendaryProb","type":"uint8","internalType":"uint8"},{"name":"_mythicProb","type":"uint8","internalType":"uint8"}],"outputs":[],"stateMutability":"nonpayable"},{"type":"function","name":"setRandomPackFees","inputs":[{"name":"_randomPackFees","type":"uint256","internalType":"uint256"}],"outputs":[],"stateMutability":"nonpayable"},{"type":"function","name":"setTon","inputs":[{"name":"_ton","type":"address","internalType":"address"}],"outputs":[],"stateMutability":"nonpayable"},{"type":"function","name":"setTreasury","inputs":[{"name":"_treasury","type":"address","internalType":"address"}],"outputs":[],"stateMutability":"nonpayable"},{"type":"function","name":"supportsInterface","inputs":[{"name":"interfaceId","type":"bytes4","internalType":"bytes4"}],"outputs":[{"name":"","type":"bool","internalType":"bool"}],"stateMutability":"view"},{"type":"function","name":"transferOwnership","inputs":[{"name":"newOwner","type":"address","internalType":"address"}],"outputs":[],"stateMutability":"nonpayable"},{"type":"function","name":"unpause","inputs":[],"outputs":[],"stateMutability":"nonpayable"},{"type":"event","name":"CallBackGasLimitUpdated","inputs":[{"name":"_callbackGasLimit","type":"uint256","indexed":false,"internalType":"uint256"}],"anonymous":false},{"type":"event","name":"CommonGemMinted","inputs":[],"anonymous":false},{"type":"event","name":"CommonGemToBeMinted","inputs":[],"anonymous":false},{"type":"event","name":"EthSentBack","inputs":[{"name":"amount","type":"uint256","indexed":false,"internalType":"uint256"}],"anonymous":false},{"type":"event","name":"GemFactoryAddressUpdated","inputs":[{"name":"gemFactory","type":"address","indexed":false,"internalType":"address"}],"anonymous":false},{"type":"event","name":"PerfectCommonGemURIUpdated","inputs":[{"name":"_tokenURI","type":"string","indexed":false,"internalType":"string"}],"anonymous":false},{"type":"event","name":"RandomGemRequested","inputs":[{"name":"requestor","type":"address","indexed":false,"internalType":"address"},{"name":"requestId","type":"uint256","indexed":false,"internalType":"uint256"}],"anonymous":false},{"type":"event","name":"RandomGemToBeTransferred","inputs":[{"name":"tokenId","type":"uint256","indexed":false,"internalType":"uint256"},{"name":"newOwner","type":"address","indexed":false,"internalType":"address"}],"anonymous":false},{"type":"event","name":"RandomGemTransferred","inputs":[{"name":"tokenId","type":"uint256","indexed":false,"internalType":"uint256"},{"name":"newOwner","type":"address","indexed":false,"internalType":"address"}],"anonymous":false},{"type":"event","name":"RandomPackFeesUpdated","inputs":[{"name":"randomPackFees","type":"uint256","indexed":false,"internalType":"uint256"}],"anonymous":false},{"type":"event","name":"RoleAdminChanged","inputs":[{"name":"role","type":"bytes32","indexed":true,"internalType":"bytes32"},{"name":"previousAdminRole","type":"bytes32","indexed":true,"internalType":"bytes32"},{"name":"newAdminRole","type":"bytes32","indexed":true,"internalType":"bytes32"}],"anonymous":false},{"type":"event","name":"RoleGranted","inputs":[{"name":"role","type":"bytes32","indexed":true,"internalType":"bytes32"},{"name":"account","type":"address","indexed":true,"internalType":"address"},{"name":"sender","type":"address","indexed":true,"internalType":"address"}],"anonymous":false},{"type":"event","name":"RoleRevoked","inputs":[{"name":"role","type":"bytes32","indexed":true,"internalType":"bytes32"},{"name":"account","type":"address","indexed":true,"internalType":"address"},{"name":"sender","type":"address","indexed":true,"internalType":"address"}],"anonymous":false},{"type":"event","name":"TreasuryAddressUpdated","inputs":[{"name":"treasury","type":"address","indexed":false,"internalType":"address"}],"anonymous":false},{"type":"error","name":"AccessControlBadConfirmation","inputs":[]},{"type":"error","name":"AccessControlUnauthorizedAccount","inputs":[{"name":"account","type":"address","internalType":"address"},{"name":"neededRole","type":"bytes32","internalType":"bytes32"}]},{"type":"error","name":"AddressEmptyCode","inputs":[{"name":"target","type":"address","internalType":"address"}]},{"type":"error","name":"AddressInsufficientBalance","inputs":[{"name":"account","type":"address","internalType":"address"}]},{"type":"error","name":"AlreadyInitialized","inputs":[]},{"type":"error","name":"FailedInnerCall","inputs":[]},{"type":"error","name":"FailedToPayFees","inputs":[]},{"type":"error","name":"FailedToSendEthBack","inputs":[]},{"type":"error","name":"FailedToSendFeesToTreasury","inputs":[]},{"type":"error","name":"InvalidAddress","inputs":[]},{"type":"error","name":"OnlyCoordinatorCanFulfill","inputs":[{"name":"have","type":"address","internalType":"address"},{"name":"want","type":"address","internalType":"address"}]},{"type":"error","name":"RandomPackFeesEqualToZero","inputs":[]},{"type":"error","name":"ReentrancyGuardReentrantCall","inputs":[]},{"type":"error","name":"RequestNotMade","inputs":[]},{"type":"error","name":"SafeERC20FailedOperation","inputs":[{"name":"token","type":"address","internalType":"address"}]},{"type":"error","name":"SameAdmin","inputs":[]},{"type":"error","name":"SameOwner","inputs":[]},{"type":"error","name":"ZeroAddress","inputs":[]},{"type":"error","name":"invalidProbabilities","inputs":[]}],"bytecode":{"object":"0x60806040523461002257610011610027565b604051612c3361013e8239612c3390f35b600080fd5b61002f6100a7565b565b9060ff905b9181191691161790565b90565b9061005361004061005a92151590565b8254610031565b9055565b9061ff009060081b610036565b9061007b61004061005a92151590565b825461005e565b9062ff00009060101b610036565b906100a061004061005a92151590565b8254610082565b6100af6100d3565b6100bb6000600e610043565b6100c76000600e61006b565b61002f6000600e610090565b61002f61002f61002f61002f61002f61002f61002f61002f61002f61012b565b6100406100406100409290565b61004060016100f3565b9060001990610036565b9061012461004061005a926100f3565b825461010a565b61002f610136610100565b600461011456fe6080604052600436101561001257600080fd5b60003560e01c806301ffc9a7146102d2578063150b7a02146102cd57806315c01616146102c8578063184fa84f146102c3578063248a9ca3146102be57806324d7806c146102b957806325b5b3b2146102b45780632f2ff15d146102af57806336568abe146102aa57806337ed11db146102a5578063389ed267146102a05780633be7bcbf1461029b5780633db8df98146102965780633f4ba83a146102915780633fad18341461028c57806346fbf68e146102875780634d288fec1461028257806350d2a2761461027d578063550d01a31461027857806362043bd81461027357806363a8fd891461026e5780636805b84b146102695780636ae638d0146102645780636b2c0f551461025f5780636ecd19cb1461025a578063704802751461025557806375b238fc1461025057806382dc1ec41461024b5780638456cb59146102465780638f32d59b1461024157806391d148541461023c5780639a202d47146102375780639d541be214610232578063a168fa891461022d578063a217fddf14610228578063a4eb718c14610223578063b911135f1461021e578063d547741f14610219578063de8be8e714610214578063e00246041461020f578063e61475181461020a578063f0f4426014610205578063f2fde38b146102005763f7013ef6036102d757610de4565b610d87565b610d6f565b610d57565b610d3c565b610d0a565b610cf1565b610cd6565b610cae565b610c66565b610c23565b610b15565b610afd565b610ae1565b610ac6565b610aae565b610a96565b610a7b565b610a37565b610a1f565b610920565b610905565b6108ea565b6108cf565b610895565b61085b565b6107d5565b61074b565b610730565b610715565b6106fd565b6106e7565b6106c8565b61063d565b6105f8565b6105bc565b6105a3565b610563565b610548565b610519565b6104d9565b6104b2565b610401565b610319565b600080fd5b6001600160e01b031981165b036102d757565b905035906102fc826102dc565b565b906020828203126102d757610312916102ef565b90565b9052565b346102d75761034661033461032f3660046102fe565b610e00565b60405191829182901515815260200190565b0390f35b6001600160a01b031690565b6102e88161034a565b905035906102fc82610356565b806102e8565b905035906102fc8261036c565b909182601f830112156102d7578135916001600160401b0383116102d75760200192600183028401116102d757565b906080828203126102d7576103c3818361035f565b926103d1826020850161035f565b926103df8360408301610372565b9260608201356001600160401b0381116102d7576103fd920161037f565b9091565b346102d7576103466104206104173660046103ae565b93929092610e22565b604051918291826001600160e01b0319909116815260200190565b60009103126102d757565b60005b8381106104595750506000910152565b8181015183820152602001610449565b61048a61049360209361049d9361047e815190565b80835293849260200190565b95869101610446565b601f01601f191690565b0190565b602080825261031292910190610469565b346102d7576104c236600461043b565b6103466104cd610f35565b604051918291826104a1565b346102d7576104e936600461043b565b6103466104f4610f3f565b6040515b9182918290815260200190565b906020828203126102d75761031291610372565b346102d7576103466104f461052f366004610505565b610f4f565b906020828203126102d7576103129161035f565b346102d75761034661033461055e366004610534565b610f6e565b346102d75761057b610576366004610505565b611076565b604051005b91906040838203126102d75761031290602061059c8286610372565b940161035f565b346102d75761057b6105b6366004610580565b906110a2565b346102d75761057b6105cf366004610580565b906110ac565b91906040838203126102d7576103129060206105f18286610372565b9401610372565b346102d75761057b61060b3660046105d5565b90611106565b7ffcb9fcbfa83b897fb2d5cf4b58962164105c1e71489a37ef3ae0db3fdce576f690565b610312610611565b346102d75761064d36600461043b565b6103466104f4610635565b60ff81166102e8565b905035906102fc82610658565b909160c0828403126102d7576106848383610661565b926106928160208501610661565b926106a08260408301610661565b926103126106b18460608501610661565b9360a06106c18260808701610661565b9401610661565b346102d75761057b6106db36600461066e565b94939093929192611354565b6106f236600461043b565b6103466104f4611686565b346102d75761070d36600461043b565b61057b61171c565b346102d75761072536600461043b565b6103466104f4611724565b346102d757610346610334610746366004610534565b61172e565b346102d75761057b61075e366004610534565b611754565b6001600160e01b03191690565b9061077a90610763565b600052602052604060002090565b610312916008021c6001600160a01b031690565b906103129154610788565b60006107b7610312926003610770565b61079c565b6103159061034a565b6020810192916102fc91906107bc565b346102d7576103466107f06107eb3660046102fe565b6107a7565b604051918291826107c5565b6103129061034a906001600160a01b031682565b610312906107fc565b61031290610810565b9061077a90610819565b610312916008021c5b60ff1690565b90610312915461082c565b6000610856610312926002610822565b61083b565b346102d757610346610334610871366004610534565b610846565b6108356103126103129290565b6103126064610876565b610312610883565b346102d7576108a536600461043b565b6103466108b061088d565b6040519182918260ff909116815260200190565b61031260008061083b565b346102d7576108df36600461043b565b6103466103346108c4565b346102d7576108fa36600461043b565b61034661033461175d565b346102d75761091536600461043b565b6103466107f0611767565b346102d75761057b610933366004610534565b611818565b634e487b7160e01b600052604160045260246000fd5b90601f01601f191681019081106001600160401b0382111761096f57604052565b610938565b906102fc61098160405190565b928361094e565b6001600160401b03811161096f57602090601f01601f19160190565b90826000939282370152565b909291926109c56109c082610988565b610974565b93818552818301116102d7576102fc9160208501906109a4565b9080601f830112156102d757816020610312933591016109b0565b906020828203126102d75781356001600160401b0381116102d75761031292016109df565b346102d75761057b610a323660046109fa565b6119fb565b346102d75761057b610a4a366004610534565b611a24565b7fdf8b4c520ffe197c5343c6f5aec59570151ef9a492f2c624fd45ddde6135ec4290565b610312610a4f565b346102d757610a8b36600461043b565b6103466104f4610a73565b346102d75761057b610aa9366004610534565b611a48565b346102d757610abe36600461043b565b61057b611a7e565b346102d757610ad636600461043b565b610346610334611a86565b346102d757610346610334610af7366004610580565b90611a91565b346102d757610b0d36600461043b565b61057b611b2f565b346102d757610b2536600461043b565b6103466107f0611b37565b6103126103126103129290565b9061077a90610b30565b6103129081565b6103129054610b47565b6103129061034a565b6103129054610b58565b6103129060a01c610835565b6103129054610b6b565b6103129060a81c610835565b6103129054610b81565b610ba2906007610b3d565b610bab81610b4e565b91610bb860018301610b4e565b91610bc560028201610b61565b916103126002610bd6818501610b77565b9301610b8d565b909594926102fc94610c12610c1b92610c08608096610c0160a088019c6000890152565b6020870152565b60408501906107bc565b15156060830152565b019015159052565b346102d757610346610c3e610c39366004610505565b610b97565b91610c4b95939560405190565b95869586610bdd565b6103126000610b30565b610312610c54565b346102d757610c7636600461043b565b6103466104f4610c5e565b63ffffffff81166102e8565b905035906102fc82610c81565b906020828203126102d75761031291610c8d565b346102d75761057b610cc1366004610c9a565b611bf9565b60006107b7610312926001610b3d565b346102d7576103466107f0610cec366004610505565b610cc6565b346102d75761057b610d04366004610580565b90611c1d565b346102d757610d1a36600461043b565b610346610d25611c27565b6040519182918263ffffffff909116815260200190565b346102d757610d4c36600461043b565b6103466107f0611c31565b346102d75761057b610d6a366004610534565b611c95565b346102d75761057b610d82366004610534565b611cf8565b346102d75761057b610d9a366004610534565b611d88565b919060a0838203126102d757610db5818461035f565b92610dc3826020830161035f565b92610312610dd4846040850161035f565b9360806105f1826060870161035f565b346102d75761057b610df7366004610d9f565b93929092611dfc565b61031290611e91565b610763610e1c6103129263ffffffff1690565b60e01b90565b5050505050610e2f600090565b5061031263150b7a02610e09565b634e487b7160e01b600052602260045260246000fd5b9060016002830492168015610e73575b6020831014610e6e57565b610e3d565b91607f1691610e63565b80546000939291610e9a610e9083610e53565b8085529360200190565b9160018116908115610eec5750600114610eb357505050565b610ec69192939450600052602060002090565b916000925b818410610ed85750500190565b805484840152602090930192600101610ecb565b92949550505060ff1916825215156020020190565b9061031291610e7d565b906102fc610f2592610f1c60405190565b93848092610f01565b038361094e565b61031290610f0b565b610312600d610f2c565b610312600c610b4e565b9061077a565b6001610f6861031292610f60600090565b506005610f49565b01610b4e565b61031290610f7a610a4f565b611a91565b15610f8657565b60405162461bcd60e51b8152602060048201526024808201527f41757468436f6e74726f6c3a2043616c6c6572206973206e6f7420746865206f6044820152633bb732b960e11b6064820152608490fd5b0390fd5b6102fc90610fef610fea611a86565b610f7f565b61101f565b90600019905b9181191691161790565b9061101461031261101b92610b30565b8254610ff4565b9055565b6110296000610b30565b81146110645761105f816104f47fa9ba7fa833bd01c7d078c99360f9c0764c1de898c3300802f43fd0ec1dee717c93600c611004565b0390a1565b60405163173ecfb760e31b8152600490fd5b6102fc90610fdb565b906102fc9161109561109082610f4f565b611ecb565b9061109f91611ed6565b50565b906102fc9161107f565b906110bb3361034a565b61034a565b6110c48261034a565b036110d25761109f91611f58565b60405163334bd91960e11b8152600490fd5b9160206102fc9294936110ff604082019660008301906107bc565b01906107bc565b9061111c6110b66111176006610b61565b610819565b6111253361034a565b03611133576102fc91612060565b610fd76111436111176006610b61565b60405163073e64fd60e21b815291829133600484016110e4565b906102fc9594939291611171610fea611a86565b61120b565b634e487b7160e01b600052601160045260246000fd5b61119b9060ff165b9160ff1690565b019060ff82116111a757565b611176565b9061077a90610876565b9060ff90610ffa565b6108356103126103129260ff1690565b906111df61031261101b926111bf565b82546111b6565b9062ff00009060101b610ffa565b9061120461031261101b92151590565b82546111e6565b9493909160009161121b83610876565b60ff88161480611340575b8061132c575b80611318575b80611304575b806112f0575b6112de576112628661125d8361125d8961125d8861125d8f8d9061118c565b61118c565b611270611194610835610883565b036112de576112c261129c956112b76112cd946112ac6005986112a16112d29d61129c600f9b8c6111ac565b6111cf565b61129c60018a6111ac565b61129c6002886111ac565b61129c6003866111ac565b61129c6004846111ac565b6111ac565b6102fc6001600e6111f4565b604051630d6a7ef360e41b8152600490fd5b506112fa83610876565b60ff87161461123e565b5061130e83610876565b60ff821614611238565b5061132283610876565b60ff861614611232565b5061133683610876565b60ff83161461122c565b5061134a83610876565b60ff851614611226565b906102fc959493929161115d565b61031290610835565b6103129054611362565b1561137c57565b60405162461bcd60e51b815260206004820152601060248201526f14185d5cd8589b194e881c185d5cd95960821b6044820152606490fd5b610312906113d16113cc6113c8600e61136b565b1590565b611375565b6113e2906113dd6121fb565b6114ef565b906102fc61223b565b6103129060101c610835565b61031290546113eb565b61034a6103126103129290565b61031290611401565b6103129060181c5b63ffffffff1690565b6103129054611417565b61143f6103126103129290565b61ffff1690565b9060ff60a01b9060a01b610ffa565b9061146561031261101b92151590565b8254611446565b906001600160a01b0390610ffa565b9061148b61031261101b92610819565b825461146c565b919082039182116111a757565b906114ac6109c083610988565b918252565b3d156114cb576114c03d61149f565b903d6000602084013e565b606090565b9160206102fc9294936114eb604082019660008301906107bc565b0152565b506114fd6113c8600e6113f7565b6112de57600061150f6110b68261140e565b6115183361034a565b146116745761154961152d611117600a610b61565b6115376009610b61565b611541600c610b4e565b913390612277565b611565611556600e611428565b61155f83611432565b80612329565b919061157f60016002611579866007610b3d565b01611455565b61159761158d846007610b3d565b600233910161147b565b6115b46115ad6115a7600b610b4e565b60010190565b600b611004565b8034116115fa575b50507fc2b05df6babf2be3ce649000124d86f0e7de5e71f99b8edb50dfb2f20a7569ae6115e860405190565b806115f48433836114d0565b0390a190565b6116076116269134611492565b918061161260405190565b60009085335af16116216114b1565b501590565b611662576116587f27468d49151596d3863ccb02e3911b3146a62533facd0765451ba556bb4fd9c8916104f860405190565b0390a138806115bc565b604051631e53f7e560e11b8152600490fd5b60405163e6c4247b60e01b8152600490fd5b61031260006113b4565b61169b610fea611a86565b6102fc6116e6565b156116aa57565b60405162461bcd60e51b815260206004820152601460248201527314185d5cd8589b194e881b9bdd081c185d5cd95960621b6044820152606490fd5b6116f86116f3600e61136b565b6116a3565b6102fc611710565b906111df61031261101b92151590565b6102fc6000600e611700565b6102fc611690565b610312600b610b4e565b61031290610f7a610611565b6102fc90611749610fea611a86565b6102fc90600a61147b565b6102fc9061173a565b610312600e61136b565b610312600a610b61565b1561177857565b60405162461bcd60e51b815260206004820152602360248201527f41757468436f6e74726f6c3a2043616c6c6572206973206e6f7420612070617560448201526239b2b960e91b6064820152608490fd5b6102fc906117df6117d8610611565b3390611a91565b80156117f4575b6117ef90611771565b611807565b506117ef611800611a86565b90506117e6565b6102fc90611813610611565b6110ac565b6102fc906117c9565b6102fc90611830610fea611a86565b6119cb565b9160001960089290920291821b911b610ffa565b919061185a61031261101b93610b30565b908354611835565b6102fc91600091611849565b818110611879575050565b806118876000600193611862565b0161186e565b9190601f811161189c57505050565b6118ae6102fc93600052602060002090565b906020601f8401819004830193106118d0575b6020601f90910104019061186e565b90915081906118c1565b9060001960089091021c191690565b816118f3916118da565b906002021790565b90611904815190565b906001600160401b03821161096f57611927826119218554610e53565b8561188d565b602090601f83116001146119555761101b92916000918361194a575b50506118e9565b015190503880611943565b601f1983169161196a85600052602060002090565b9260005b8181106119a95750916002939185600196941061198f575b50505002019055565b61199f910151601f8416906118da565b9055388080611986565b9193602060018192878701518155019501920161196e565b906102fc916118fb565b61105f7f5c9db415e672f6d0f9a26180f0ff083c406f4c7aa95aec2c0e9536794035a4d8916104cd81600d6119c1565b6102fc90611821565b6102fc90611a13610fea611a86565b6102fc90611a1f610a4f565b6110a2565b6102fc90611a04565b6102fc90611a3c610fea611a86565b6102fc90611a1f610611565b6102fc90611a2d565b611a5c610fea611a86565b6102fc611a6f6113cc6113c8600e61136b565b6102fc6102fc6001600e611700565b6102fc611a51565b6103126117d8610c54565b610312916000611aa6611aac93610f60600090565b01610822565b61136b565b15611ab857565b60405162461bcd60e51b815260206004820152602360248201527f41757468436f6e74726f6c3a2043616c6c6572206973206e6f7420616e20616460448201526236b4b760e91b6064820152608490fd5b611b1a611b1533610f6e565b611ab1565b6102fc6102fc611b28610a4f565b33906110ac565b6102fc611b09565b6103126008610b61565b6102fc90611b50610fea611a86565b611bbd565b9066ffffffff0000009060181b610ffa565b61141f6103126103129263ffffffff1690565b90611b8a61031261101b92611b67565b8254611b55565b6103126103126103129263ffffffff1690565b61031590611b91565b6020810192916102fc9190611ba4565b61105f7fe26fa4acf522c01381834acc8213105df00a52674031c6311f5dc24bd608819f91611bed81600e611b7a565b60405191829182611bad565b6102fc90611b41565b906102fc91611c1361109082610f4f565b9061109f91611f58565b906102fc91611c02565b610312600e611428565b6103126009610b61565b6102fc90611c4a610fea611a86565b611c576110b6600061140e565b611c608261034a565b146116745761105f816107f07fed7acc23c47775012c7b3a370974b91aefab1849cacf173b5ea54273abb4815693600861147b565b6102fc90611c3b565b6102fc90611cad610fea611a86565b611cba6110b6600061140e565b611cc38261034a565b146116745761105f816107f07fb6a5e89655cf506139085f051af608195ed056f8dc550b180a1c38d401e2b6c493600961147b565b6102fc90611c9e565b6102fc90611d10610fea611a86565b611d1d6110b6600061140e565b611d268261034a565b14611d7657611d348161034a565b611d3d3361034a565b14611d64576102fc90611b28611d51610c54565b91611d5c81846110a2565b611a1f610a4f565b604051630a98f1f360e21b8152600490fd5b60405163d92e233d60e01b8152600490fd5b6102fc90611d01565b6103129060081c610835565b6103129054611d91565b61141f6103126103129290565b611dc96000611dc38354610e53565b8361188d565b60009055565b6102fc90611db4565b9061ff009060081b610ffa565b90611df561031261101b92151590565b8254611dd8565b91939293611e0a600e611d9d565b611e8057611e5494611e3f611e4692611e38611e4d96611e32611e2b610c54565b3390611ed6565b50612454565b600861147b565b600961147b565b600a61147b565b600c611004565b611e6a611e6362200b20611da7565b600e611b7a565b611e74600d611dcf565b6102fc6001600e611de5565b60405162dc149f60e41b8152600490fd5b637965db0b60e01b6001600160e01b0319821614908115611eb0575090565b61031291506001600160e01b0319166301ffc9a760e01b1490565b6102fc903390612467565b611ee36113c88383611a91565b15611f5157611f036001611efe846000611aa6866005610f49565b611700565b611f1d611f17611f11339390565b93610819565b91610819565b917f2f8788117e7eff1d82e926ec794901d17c78024a50270940304540a733656f0d611f4860405190565b600090a4600190565b5050600090565b611f628282611a91565b15611f5157611f7c6000611efe8482611aa6866005610f49565b611f8a611f17611f11339390565b917ff6391f5c32d9c69d2a47ea670b442974b53935d1edc7fd64eb21e047a839171b611f4860405190565b9060ff60a81b9060a81b610ffa565b90611fd461031261101b92151590565b8254611fb5565b8015156102e8565b905051906102fc82611fdb565b906020828203126102d75761031291611fe3565b6040513d6000823e3d90fd5b6103126103126103129260ff1690565b634e487b7160e01b600052601260045260246000fd5b90612040565b9190565b90811561204b570690565b612020565b60ff1680156111a7576000190190565b9060076120706103128483610b3d565b926120806113c860028601610b77565b6121df578260006120ad6120b3936001956120a8600160026120a28585610b3d565b01611fc4565b610b3d565b01611004565b6120c36111176111176008610b61565b60206120ce60405190565b639aa19da760e01b815291829060049082905afa80156121da576120f8916000916121b157501590565b6121a65761211561210f61210a610883565b612010565b83612036565b816121206005610876565b905b61214b575b50505061213e906121386000610876565b836128dd565b61109f576102fc906125c5565b6121556000610876565b60ff821611156121a15761217361031261216e83612010565b612772565b82101561218a575b61218490612050565b82612122565b6121958482876128dd565b1561217b575050505050565b612127565b50506102fc906125c5565b6113c8915060203d6020116121d3575b6121cb818361094e565b810190611ff0565b503d6121c1565b612004565b6040516392b8197960e01b8152600490fd5b6103126002610b30565b6122056004610b4e565b61220d6121f1565b90811461221f576102fc906004611004565b604051633ee5aeb560e01b8152600490fd5b6103126001610b30565b6102fc612246612231565b6004611004565b6040906114eb6102fc949695939661226d606084019860008501906107bc565b60208301906107bc565b906122bc906122ad6102fc956004956122936323b872dd610e09565b9361229d60405190565b978895602087019081520161224d565b6020820181038252038361094e565b612a8e565b6103126060610974565b905051906102fc8261036c565b906020828203126102d757610312916122cb565b805161ffff1682526102fc9190604090819060208181015161ffff1690850152015163ffffffff16910152565b6060810192916102fc91906122ec565b90929161238291602061233f6111176006610b61565b6123476122c1565b61ffff841681529061ffff88168284015263ffffffff851660408301526040519586928391829163a6c278f360e01b5b835260048301612319565b03915afa9182156121da576123776020936123f895600091612437575b5080976123e86123b26111176006610b61565b946123db63122c162a936123d16123c76122c1565b61ffff909a168a52565b61ffff16888a0152565b63ffffffff166040870152565b6040519687958694859360e01b90565b03925af19081156121da5760009161240e575090565b610312915060203d602011612430575b612428818361094e565b8101906122d8565b503d61241e565b61244e9150853d871161243057612428818361094e565b3861239f565b6124606102fc91610819565b600661147b565b906124756113c88284611a91565b61247d575050565b610fd761248960405190565b63e2517d3f60e01b8152928392600484016114d0565b6001600160401b03811161096f5760200290565b6109c06103129161249f565b634e487b7160e01b600052602160045260246000fd5b600611156124df57565b6124bf565b906102fc826124d5565b610312906124e4565b610315906124ee565b61250c61203c60029390565b6000915b83831061251d5750505050565b61253a612533600192845160ff16815260200190565b9260200190565b92019190612510565b61254f61203c60049390565b6000915b8383106125605750505050565b612576612533600192845160ff16815260200190565b92019190612553565b9091610312936125a96125b39261259f61010086019660008701906124f7565b6020850190612500565b6060830190612543565b60e08183039101526000815260200190565b6125d56111176111176009610b61565b61266260206000926125e760026124b3565b906126036125f486610876565b60ff1686840181905284840152565b61260d60046124b3565b9161263861261b6001610876565b60ff16878501819052858501819052604085018190526060850152565b8561264260405190565b80968195829461265663912b431b60e01b90565b8452846004850161257f565b03925af180156121da576126d8936020928492612738575b50612689600182019283611004565b6126ae6126a860026126a16111176111176009610b61565b9301610b61565b92610b4e565b91846126b960405190565b8097819582946126cd6348dbcef060e01b90565b8452600484016114d0565b03925af19081156121da575061271b575b507fdd20b2dff2d53ef41435ad0074aea6e1ce693777fcc9ea8e76c76a8f3607dd2161271460405190565b808061105f565b6127339060203d6020116121d3576121cb818361094e565b6126e9565b612750919250833d851161243057612428818361094e565b903861267a565b60ff1660ff81146111a75760010190565b9061077a906111bf565b61277c6000610876565b91825b61279561031261278f6001610b30565b85611492565b61279e85612010565b116127d3576103126127ca6127c4612795936127be611aac89600f612768565b9061118c565b95612757565b9491505061277f565b9092506103129150612010565b6001600160401b03811161096f5760208091020190565b909291926128076109c0826127e0565b93818552602080860192028301928184116102d757915b83831061282b5750505050565b6020809161283984866122cb565b81520192019161281e565b9080601f830112156102d7578151610312926020016127f7565b9190916040818403126102d75761287583826122cb565b9260208201516001600160401b0381116102d7576103129201612844565b634e487b7160e01b600052603260045260246000fd5b906128b2825190565b8110156128c3576020809102010190565b612893565b9081526040810192916102fc916020906110ff565b90916128ed611aac84600f612768565b92600080946128fe61119483610876565b1161290b575b5050505090565b6129449161291f6111176111176008610b61565b604051938492839182916394ca644960e01b83526004830160ff909116815260200190565b03915afa9182156121da5784918593612a68575b5061296285610b30565b821161296f575083612904565b6129e6949261298461298e9361298a93612036565b906128a9565b5190565b9061299d600184019283611004565b602060026129b16111176111176009610b61565b9401936129bd85610b61565b906129c785610b4e565b91846129d260405190565b8099819582946126cd6348dbcef060e01b90565b03925af19182156121da577f5ea50d72ed96185eb6f31884978fae6836ea30ba583e3fb7c32b66135514723c94612a2d93612a279350612a4b575b50610b4e565b91610b61565b90612a43612a3a60405190565b928392836128c8565b0390a1600190565b612a639060203d6020116121d3576121cb818361094e565b612a21565b909250612a8791503d8086833e612a7f818361094e565b81019061285e565b9138612958565b612a9a612aa191610819565b9182612b08565b8051612ab061203c6000610b30565b14159081612ae4575b50612ac15750565b610fd790612ace60405190565b635274afe760e01b8152918291600483016107c5565b612b029150806020612af76113c8935190565b818301019101611ff0565b38612ab9565b61031291612b166000610b30565b612b1f30610819565b81813110612b49575060008281926020610312969551920190855af1612b436114b1565b91612b6c565b610fd790612b5660405190565b63cd78605960e01b8152918291600483016107c5565b90612b775750612bce565b8151612b8661203c6000610b30565b1480612bb8575b612b95575090565b610fd790612ba260405190565b639996b31560e01b8152918291600483016107c5565b50803b612bc861203c6000610b30565b14612b8d565b8051612bdd61203c6000610b30565b1115612beb57805190602001fd5b604051630a12f52160e11b8152600490fdfea2646970667358221220e85f1711b964ca6c4e980a3699cc289e9af75829f827907bf59a2e5f15aabd5164736f6c63430008190033","linkReferences":{}},"methodIdentifiers":{"ADMIN_ROLE()":"75b238fc","DEFAULT_ADMIN_ROLE()":"a217fddf","DIVIDER()":"62043bd8","PAUSE_ROLE()":"389ed267","addAdmin(address)":"70480275","addPauser(address)":"82dc1ec4","aliveImplementation(address)":"550d01a3","getCallbackGasLimit()":"de8be8e7","getGemFactoryAddress()":"9d541be2","getPaused()":"6805b84b","getPerfectCommonGemURI()":"15c01616","getRandomPackFees()":"184fa84f","getRequestCount()":"3fad1834","getRoleAdmin(bytes32)":"248a9ca3","getTonAddress()":"6ae638d0","getTreasuryAddress()":"e0024604","grantRole(bytes32,address)":"2f2ff15d","hasRole(bytes32,address)":"91d14854","initialize(address,address,address,address,uint256)":"f7013ef6","isAdmin(address)":"24d7806c","isOwner()":"8f32d59b","isPauser(address)":"46fbf68e","onERC721Received(address,address,uint256,bytes)":"150b7a02","pause()":"8456cb59","pauseProxy()":"63a8fd89","proxyImplementation(uint256)":"b911135f","rawFulfillRandomWords(uint256,uint256)":"37ed11db","removeAdmin()":"9a202d47","removePauser(address)":"6b2c0f55","renounceRole(bytes32,address)":"36568abe","requestRandomGem()":"3db8df98","revokeRole(bytes32,address)":"d547741f","s_requests(uint256)":"a168fa89","selectorImplementation(bytes4)":"50d2a276","setCallbackGasLimit(uint32)":"a4eb718c","setGemFactory(address)":"e6147518","setPerfectCommonGemURI(string)":"6ecd19cb","setProbabilities(uint8,uint8,uint8,uint8,uint8,uint8)":"3be7bcbf","setRandomPackFees(uint256)":"25b5b3b2","setTon(address)":"4d288fec","setTreasury(address)":"f0f44260","supportsInterface(bytes4)":"01ffc9a7","transferOwnership(address)":"f2fde38b","unpause()":"3f4ba83a"},"id":71}