{"abi":[{"type":"constructor","inputs":[],"stateMutability":"nonpayable"},{"type":"function","name":"autoCoinageLogic","inputs":[],"outputs":[{"name":"","type":"address","internalType":"address"}],"stateMutability":"view"},{"type":"function","name":"deploy","inputs":[],"outputs":[{"name":"","type":"address","internalType":"address"}],"stateMutability":"nonpayable"},{"type":"function","name":"owner","inputs":[],"outputs":[{"name":"","type":"address","internalType":"address"}],"stateMutability":"view"},{"type":"function","name":"renounceOwnership","inputs":[],"outputs":[],"stateMutability":"nonpayable"},{"type":"function","name":"setAutoCoinageLogic","inputs":[{"name":"newLogic","type":"address","internalType":"address"}],"outputs":[],"stateMutability":"nonpayable"},{"type":"function","name":"transferOwnership","inputs":[{"name":"newOwner","type":"address","internalType":"address"}],"outputs":[],"stateMutability":"nonpayable"},{"type":"event","name":"OwnershipTransferred","inputs":[{"name":"previousOwner","type":"address","indexed":true,"internalType":"address"},{"name":"newOwner","type":"address","indexed":true,"internalType":"address"}],"anonymous":false},{"type":"error","name":"OwnableInvalidOwner","inputs":[{"name":"owner","type":"address","internalType":"address"}]},{"type":"error","name":"OwnableUnauthorizedAccount","inputs":[{"name":"account","type":"address","internalType":"address"}]}],"bytecode":{"object":"0x608060405234610028575b610012610038565b61001a61002d565b614b136102148239614b1390f35b610033565b60405190565b600080fd5b610041336100ac565b565b90565b60018060a01b03901690565b90565b61006961006461006e92610043565b610052565b610046565b90565b61007a90610055565b90565b61008690610046565b90565b6100929061007d565b9052565b91906100aa90600060208501940190610089565b565b6100b66000610071565b6100bf8161007d565b6100c88361007d565b146100da575b506100d8906101b4565b565b6100fc906100e661002d565b918291631e4fbdf760e01b835260048301610096565b0390fd5b60001c90565b60018060a01b03901690565b61011e61012391610100565b610106565b90565b6101309054610112565b90565b60001b90565b9061014a60018060a01b0391610133565b91811990169116901790565b61016a61016561016f92610046565b610052565b610046565b90565b61017b90610156565b90565b61018790610172565b90565b90565b906101a261019d6101a99261017e565b61018a565b8254610139565b9055565b6000900190565b6101da6101d46101c46000610126565b6101cf84600061018d565b61017e565b9161017e565b907f8be0079c531659141344cd1fd0a4f28419497f9722a3daafe3b4186f6b6457e061020461002d565b8061020e816101ad565b0390a356fe60806040526004361015610013575b6102bb565b61001e600035610088565b8063715018a614610083575b8063775c300c1461007e575b80638ad6876314610079575b80638da5cb5b14610074575b8063989e3f281461006f575b63f2fde38b1461006a575b61000e565b610287565b610253565b6101d6565b6101a0565b610125565b6100b6565b60e01c90565b60405190565b600080fd5b600080fd5b60009103126100aa575b565b610099565b6000900190565b346100e5575b6100c736600461009e565b6100cf610314565b6100d761008e565b806100e1816100af565b0390f35b610094565b60018060a01b03901690565b6100ff906100ea565b90565b61010b906100f6565b9052565b919061012390600060208501940190610102565b565b34610156575b61013636600461009e565b6101526101416104e5565b61014961008e565b9182918261010f565b0390f35b610094565b1c90565b60018060a01b03901690565b61017b906008610180930261015b565b61015f565b90565b9061018e915461016b565b90565b61019d60006001610183565b90565b346101d1575b6101b136600461009e565b6101cd6101bc610191565b6101c461008e565b9182918261010f565b0390f35b610094565b34610207575b6101e736600461009e565b6102036101f26105f1565b6101fa61008e565b9182918261010f565b0390f35b610094565b610215816100f6565b90141561021f575b565b600080fd5b905035906102318261020c565b565b9060208282031261024e575b600061024b9201610224565b90565b610099565b34610282575b61026c610267366004610233565b610679565b61027461008e565b8061027e816100af565b0390f35b610094565b346102b6575b6102a061029b366004610233565b6106eb565b6102a861008e565b806102b2816100af565b0390f35b610094565b600080fd5b6102c86106f6565b6102d0610300565b565b90565b90565b6102ec6102e76102f1926102d2565b6102d5565b6100ea565b90565b6102fd906102d8565b90565b61031261030d60006102f4565b610749565b565b61031c6102c0565b565b600090565b634e487b7160e01b600052604160045260246000fd5b61034161008e565b3d6000823e3d90fd5b61035e610359610363926100ea565b6102d5565b6100ea565b90565b61036f9061034a565b90565b61037b90610366565b90565b90565b90565b61039861039361039d9261037e565b6102d5565b610381565b90565b6103b4676765c793fa10079d601b1b610384565b90565b600080fd5b601f801991011690565b906103d0906103bc565b810190811067ffffffffffffffff8211176103eb575b604052565b610323565b60e01b90565b6000910312610402575b565b610099565b60209181520190565b60007f5374616b656457544f4e00000000000000000000000000000000000000000000910152565b610445600a602092610407565b61044e81610410565b0190565b60007f7357544f4e000000000000000000000000000000000000000000000000000000910152565b6104876005602092610407565b61049081610452565b0190565b61049d90610381565b9052565b9160606104e39294936104dc6104d16104c4608084018481036000860152610438565b838103602085015261047a565b966040830190610494565b0190610102565b565b6104ed61031e565b506104f661008e565b614328810181811067ffffffffffffffff8211176105c5575b61052182916143286107b684396100af565b03906000f080156105c0575b61053690610372565b61053e6103a0565b813b156105bb575b60006105729161055461008e565b8093819261056563bd3a13f66103f0565b83523390600484016104a1565b038183865af180156105b6575b610588575b5090565b6105a99060003d6000116105af575b6105a181836103c6565b8101906103f6565b38610584565b503d610597565b610339565b6103b7565b610339565b610323565b60001c90565b6105dc6105e1916105ca565b61015f565b90565b6105ee90546105d0565b90565b6105f961031e565b5061060460006105e4565b90565b610618906106136106f6565b61066c565b565b60001b90565b9061063160018060a01b039161061a565b91811990169116901790565b61064690610366565b90565b90565b9061066161065c6106689261063d565b610649565b8254610620565b9055565b61067790600161064c565b565b61068290610607565b565b610695906106906106f6565b610697565b565b6106a160006102f4565b6106aa816100f6565b6106b3836100f6565b146106c5575b506106c390610749565b565b6106e7906106d161008e565b918291631e4fbdf760e01b83526004830161010f565b0390fd5b6106f490610684565b565b6106fe6105f1565b6107066107a8565b90610719610713836100f6565b916100f6565b1415610723575b50565b6107459061072f61008e565b91829163118cdaa760e01b83526004830161010f565b0390fd5b61076f61076961075960006105e4565b61076484600061064c565b61063d565b9161063d565b907f8be0079c531659141344cd1fd0a4f28419497f9722a3daafe3b4186f6b6457e061079961008e565b806107a3816100af565b0390a3565b6107b061031e565b50339056fe608060405234601d575b600f6021565b6142fb61002d82396142fb90f35b6027565b60405190565b600080fdfe60806040526004361015610013575b611d31565b61001e60003561042e565b8062d87a9c14610429575b806301f6a80a14610424575b806301ffc9a71461041f575b8063024c2ddd1461041a575b80630461fdc514610415575b806306fdde0314610410575b806308eef06d1461040b575b80631397704214610406575b80631785f53c14610401575b806318160ddd146103fc575b806319d5dce9146103f7575b8063248a9ca3146103f2575b806324d7806c146103ed575b80632ab6f8db146103e8575b80632f2ff15d146103e3575b80633092afd5146103de575b8063313ce567146103d9575b806336568abe146103d4575b806340c10f19146103cf575b806342966c68146103ca575b80634ee2cd7e146103c5575b806350d2a276146103c0575b806354f703f8146103bb575b8063550d01a3146103b6575b806356fabf68146103b1575b80635deaecec146103ac575b8063614db8b2146103a7575b806363a8fd89146103a2575b80636957f38b1461039d575b806369f499b114610398575b80636d70f7ae14610393575b80636fb7f5581461038e575b80637048027514610389575b806370a0823114610384575b8063715018a61461037f575b806375829def1461037a575b80637657f20a14610375575b806379cc679014610370575b8063817e9d311461036b575b8063837afbc014610366575b80638639583f14610361575b80638f32d59b1461035c575b806391d1485414610357575b806395d89b4114610352575b8063981b24d01461034d575b8063983b2d5614610348575b80639865027514610343575b80639870d7fe1461033e575b8063a217fddf14610339575b8063aa271e1a14610334575b8063ac8a584a1461032f575b8063b7c246d71461032a575b8063b7d78b1a14610325575b8063b911135f14610320575b8063bd3a13f61461031b575b8063cfbd488514610316575b8063d539139314610311575b8063d547741f1461030c575b8063f2fde38b14610307575b8063f5b541a614610302575b63fad8b32a146102fd575b61000e565b611cfd565b611cc7565b611c64565b611c2f565b611bf9565b611b96565b611b5e565b611a19565b6119af565b61194f565b6118d9565b6118a3565b61186d565b6117fc565b6117c8565b611794565b61175e565b611728565b6116e2565b6116ac565b611674565b61163e565b6115f9565b6115c4565b611590565b61155c565b611528565b6114f2565b6114be565b611488565b611443565b61140c565b611383565b61134d565b611309565b61129e565b611226565b61116a565b6110d4565b61109e565b610fd3565b610f9f565b610f48565b610f13565b610edd565b610e7f565b610e4a565b610de7565b610db1565b610d7b565b610cd7565b610ca1565b610c6d565b610c10565b610bd9565b610b26565b610915565b6107e8565b61068f565b6105dd565b6104b5565b60e01c90565b60405190565b600080fd5b600080fd5b6000910312610450575b565b61043f565b90565b90565b90565b61047261046d61047792610455565b61045b565b610458565b90565b610484600261045e565b90565b61048f61047a565b90565b61049b90610458565b9052565b91906104b390600060208501940190610492565b565b346104e6575b6104c6366004610444565b6104e26104d1610487565b6104d9610434565b9182918261049f565b0390f35b61043a565b600080fd5b600080fd5b601f801991011690565b634e487b7160e01b600052604160045260246000fd5b9061051f906104f5565b810190811067ffffffffffffffff82111761053a575b604052565b6104ff565b9061055261054b610434565b9283610515565b565b61055d81610458565b901415610567575b565b600080fd5b9050359061057982610554565b565b91906040838203126105b8575b6105b1906020610598604061053f565b946105a6836000830161056c565b60008701520161056c565b6020830152565b6104f0565b906040828203126105d8575b60006105d5920161057b565b90565b61043f565b3461060e575b61060a6105f96105f43660046105bd565b611d48565b610601610434565b9182918261049f565b0390f35b61043a565b63ffffffff60e01b901690565b61062981610613565b901415610633575b565b600080fd5b9050359061064582610620565b565b90602082820312610662575b600061065f9201610638565b90565b61043f565b151590565b61067590610667565b9052565b919061068d9060006020850194019061066c565b565b346106c0575b6106bc6106ab6106a6366004610647565b611d7b565b6106b3610434565b91829182610679565b0390f35b61043a565b60018060a01b03901690565b6106da906106c5565b90565b6106e6816106d1565b9014156106f0575b565b600080fd5b90503590610702826106dd565b565b919060408382031261072e575b80602061072461072b93600087016106f5565b94016106f5565b90565b61043f565b61074761074261074c926106c5565b61045b565b6106c5565b90565b61075890610733565b90565b6107649061074f565b90565b906107719061075b565b600052602052604060002090565b906107899061075b565b600052602052604060002090565b1c90565b90565b6107ae9060086107b39302610797565b61079b565b90565b906107c1915461079e565b90565b6107e06107e5926107db6000936008506008610767565b61077f565b6107b6565b90565b3461081a575b6108166108056107ff366004610704565b906107c4565b61080d610434565b9182918261049f565b0390f35b61043a565b9190604083820312610849575b80602061083f61084693600087016106f5565b940161056c565b90565b61043f565b906108589061075b565b600052602052604060002090565b61087a61087561087f92610458565b61045b565b610458565b90565b9061088c90610866565b600052602052604060002090565b60001c90565b6108ac6108b19161089a565b61079b565b90565b6108be90546108a0565b90565b906108d06108d592600e61084e565b610882565b906108ee60016108e7600085016108b4565b93016108b4565b90565b91602061091392949361090c60408201966000830190610492565b0190610492565b565b34610948575b61092f61092936600461081f565b906108c1565b9061094461093b610434565b928392836108f1565b0390f35b61043a565b634e487b7160e01b600052600060045260246000fd5b634e487b7160e01b600052602260045260246000fd5b906001600283049216801561099b575b602083109014610996575b565b610963565b91607f901691610989565b60209181520190565b8050600052602060002090565b90600092918054906109d76109d083610979565b80946109a6565b91600181169081600014610a32575b506001146109f4575b505050565b610a0191929394506109af565b916000925b818410610a1a575b505001903880806109ef565b60018160209295939554848601520191019290610a06565b92949550505060ff199016825215156020029001903880806109ef565b90610a59916109bc565b90565b90610a7c610a7592610a6c610434565b93848092610a4f565b0383610515565b565b9060009011610a94575b610a9190610a5c565b90565b61094d565b610aa560006006610a7e565b90565b5190565b60209181520190565b60005b838110610aca575b5050906000910152565b806020918301518185015201610ab8565b610afa610b03602093610b0893610af181610aa8565b93848093610aac565b95869101610ab5565b6104f5565b900190565b610b239160208201916000818403910152610adb565b90565b34610b57575b610b37366004610444565b610b53610b42610a99565b610b4a610434565b91829182610b0d565b0390f35b61043a565b610b6590610458565b9052565b90602080610b8d93610b8360008201516000860190610b5c565b0151910190610b5c565b565b90602080610bb393610ba960008201516000860190610b5c565b0151910190610b5c565b565b916040610bd7929493610bd060808201966000830190610b69565b0190610b8f565b565b34610c0b575b610bea366004610444565b610bf2611e15565b90610c07610bfe610434565b92839283610bb5565b0390f35b61043a565b34610c41575b610c21366004610444565b610c3d610c2c611ec8565b610c34610434565b9182918261049f565b0390f35b61043a565b90602082820312610c61575b6000610c5e92016106f5565b90565b61043f565b6000900190565b34610c9c575b610c86610c81366004610c46565b61203a565b610c8e610434565b80610c9881610c66565b0390f35b61043a565b34610cd2575b610cb2366004610444565b610cce610cbd612045565b610cc5610434565b9182918261049f565b0390f35b61043a565b34610d09575b610cf0610ceb366004610c46565b612061565b90610d05610cfc610434565b92839283610bb5565b0390f35b61043a565b90565b610d1a81610d0e565b901415610d24575b565b600080fd5b90503590610d3682610d11565b565b90602082820312610d53575b6000610d509201610d29565b90565b61043f565b610d6190610d0e565b9052565b9190610d7990600060208501940190610d58565b565b34610dac575b610da8610d97610d92366004610d38565b6120d7565b610d9f610434565b91829182610d65565b0390f35b61043a565b34610de2575b610dde610dcd610dc8366004610c46565b6120f9565b610dd5610434565b91829182610679565b0390f35b61043a565b34610e16575b610df8366004610444565b610e00612116565b610e08610434565b80610e1281610c66565b0390f35b61043a565b9190604083820312610e45575b806020610e3b610e429360008701610d29565b94016106f5565b90565b61043f565b34610e7a575b610e64610e5e366004610e1b565b90612154565b610e6c610434565b80610e7681610c66565b0390f35b61043a565b34610eae575b610e98610e93366004610c46565b61218f565b610ea0610434565b80610eaa81610c66565b0390f35b61043a565b60ff901690565b610ec390610eb3565b9052565b9190610edb90600060208501940190610eba565b565b34610f0e575b610eee366004610444565b610f0a610ef96121be565b610f01610434565b91829182610ec7565b0390f35b61043a565b34610f43575b610f2d610f27366004610e1b565b906121d4565b610f35610434565b80610f3f81610c66565b0390f35b61043a565b34610f7a575b610f76610f65610f5f36600461081f565b90612224565b610f6d610434565b91829182610679565b0390f35b61043a565b90602082820312610f9a575b6000610f97920161056c565b90565b61043f565b34610fce575b610fb8610fb3366004610f7f565b61223c565b610fc0610434565b80610fca81610c66565b0390f35b61043a565b34611005575b611001610ff0610fea36600461081f565b90612248565b610ff8610434565b9182918261049f565b0390f35b61043a565b61101390610613565b90565b906110209061100a565b600052602052604060002090565b60018060a01b03901690565b61104a90600861104f9302610797565b61102e565b90565b9061105d915461103a565b90565b6000611073611078926003506003611016565b611052565b90565b611084906106d1565b9052565b919061109c9060006020850194019061107b565b565b346110cf575b6110cb6110ba6110b5366004610647565b611060565b6110c2610434565b91829182611088565b0390f35b61043a565b34611105575b6110e5366004610444565b6111016110f06123da565b6110f8610434565b9182918261049f565b0390f35b61043a565b906111149061075b565b600052602052604060002090565b60ff901690565b61113990600861113e9302610797565b611122565b90565b9061114c9154611129565b90565b600061116261116792600250600261110a565b611141565b90565b3461119b575b611197611186611181366004610c46565b61114f565b61118e610434565b91829182610679565b0390f35b61043a565b634e487b7160e01b600052603260045260246000fd5b5490565b8050600052602060002090565b6111d0816111b6565b8210156111ed575b6111e36001916111ba565b9102900190600090565b6111a0565b600b50600050611202600b6111b6565b811015611221575b61121861121e91600b6111c7565b906107b6565b90565b600080fd5b34611257575b61125361124261123d366004610f7f565b6111f2565b61124a610434565b9182918261049f565b0390f35b61043a565b9061126690610866565b600052602052604060002090565b61128290600c50600c61125c565b9061129b6001611294600085016108b4565b93016108b4565b90565b346112d0575b6112b76112b2366004610f7f565b611274565b906112cc6112c3610434565b928392836108f1565b0390f35b61043a565b6009506000506112e560096111b6565b811015611304575b6112fb6113019160096111c7565b906107b6565b90565b600080fd5b3461133a575b611336611325611320366004610f7f565b6112d5565b61132d610434565b9182918261049f565b0390f35b61043a565b61134a600080611141565b90565b3461137e575b61135e366004610444565b61137a61136961133f565b611371610434565b91829182610679565b0390f35b61043a565b346113b5575b61139c611397366004610f7f565b612421565b906113b16113a8610434565b92839283610bb5565b0390f35b61043a565b906113c49061075b565b600052602052604060002090565b6113e090600d6000506113ba565b6113e9816111b6565b821015611407575b611404916113fe916111c7565b906107b6565b90565b600080fd5b3461143e575b61143a61142961142336600461081f565b906113d2565b611431610434565b9182918261049f565b0390f35b61043a565b34611474575b61147061145f61145a366004610c46565b61244b565b611467610434565b91829182610679565b0390f35b61043a565b61148560006005611052565b90565b346114b9575b611499366004610444565b6114b56114a4611479565b6114ac610434565b91829182611088565b0390f35b61043a565b346114ed575b6114d76114d2366004610c46565b612497565b6114df610434565b806114e981610c66565b0390f35b61043a565b34611523575b61151f61150e611509366004610c46565b6124a2565b611516610434565b9182918261049f565b0390f35b61043a565b34611557575b611539366004610444565b6115416124ee565b611549610434565b8061155381610c66565b0390f35b61043a565b3461158b575b611575611570366004610c46565b6126a6565b61157d610434565b8061158781610c66565b0390f35b61043a565b346115bf575b6115a96115a4366004610c46565b6126f1565b6115b1610434565b806115bb81610c66565b0390f35b61043a565b346115f4575b6115de6115d836600461081f565b906126fe565b6115e6610434565b806115f081610c66565b0390f35b61043a565b3461162a575b611626611615611610366004610f7f565b6127bd565b61161d610434565b91829182610679565b0390f35b61043a565b61163b6000600f6107b6565b90565b3461166f575b61164f366004610444565b61166b61165a61162f565b611662610434565b9182918261049f565b0390f35b61043a565b346116a7575b61168e61168836600461081f565b9061288b565b906116a361169a610434565b92839283610bb5565b0390f35b61043a565b346116dd575b6116bd366004610444565b6116d96116c86128b8565b6116d0610434565b91829182610679565b0390f35b61043a565b34611714575b6117106116ff6116f9366004610e1b565b906128f7565b611707610434565b91829182610679565b0390f35b61043a565b61172560006007610a7e565b90565b34611759575b611739366004610444565b611755611744611719565b61174c610434565b91829182610b0d565b0390f35b61043a565b3461178f575b61178b61177a611775366004610f7f565b612922565b611782610434565b9182918261049f565b0390f35b61043a565b346117c3575b6117ad6117a8366004610c46565b61296f565b6117b5610434565b806117bf81610c66565b0390f35b61043a565b346117f7575b6117d9366004610444565b6117e161297a565b6117e9610434565b806117f381610c66565b0390f35b61043a565b3461182b575b611815611810366004610c46565b6129bd565b61181d610434565b8061182781610c66565b0390f35b61043a565b90565b60001b90565b61184d61184861185292611830565b611833565b610d0e565b90565b61185f6000611839565b90565b61186a611855565b90565b3461189e575b61187e366004610444565b61189a611889611862565b611891610434565b91829182610d65565b0390f35b61043a565b346118d4575b6118d06118bf6118ba366004610c46565b6129c8565b6118c7610434565b91829182610679565b0390f35b61043a565b34611908575b6118f26118ed366004610c46565b612a14565b6118fa610434565b8061190481610c66565b0390f35b61043a565b90565b61192461191f6119299261190d565b61045b565b610458565b90565b6119416b204fce5e3e25026110000000611910565b90565b61194c61192c565b90565b34611980575b611960366004610444565b61197c61196b611944565b611973610434565b9182918261049f565b0390f35b61043a565b61199390600a50600a610882565b906119ac60016119a5600085016108b4565b93016108b4565b90565b346119e1575b6119c86119c3366004610f7f565b611985565b906119dd6119d4610434565b928392836108f1565b0390f35b61043a565b906119f090610866565b600052602052604060002090565b6000611a11611a169260015060016119e6565b611052565b90565b34611a4a575b611a46611a35611a30366004610f7f565b6119fe565b611a3d610434565b91829182611088565b0390f35b61043a565b600080fd5b600080fd5b67ffffffffffffffff8111611a78575b611a746020916104f5565b0190565b6104ff565b90826000939282370152565b90929192611a9e611a9982611a59565b61053f565b9381855281830111611abb575b611ab9916020850190611a7d565b565b611a54565b9080601f83011215611adf575b816020611adc93359101611a89565b90565b611a4f565b608081830312611b59575b600081013567ffffffffffffffff8111611b54575b82611b10918301611ac0565b92602082013567ffffffffffffffff8111611b4f575b611b3584611b4c928501611ac0565b936060611b45826040870161056c565b94016106f5565b90565b6104eb565b6104eb565b61043f565b34611b91575b611b7b611b72366004611ae4565b92919091612d28565b611b83610434565b80611b8d81610c66565b0390f35b61043a565b34611bc5575b611baf611baa366004610c46565b612de9565b611bb7610434565b80611bc181610c66565b0390f35b61043a565b7ff0887ba65ee2024ea881d91b74c2450ef19e1557f03bed3ea9f16b037cbe2dc990565b611bf6611bca565b90565b34611c2a575b611c0a366004610444565b611c26611c15611bee565b611c1d610434565b91829182610d65565b0390f35b61043a565b34611c5f575b611c49611c43366004610e1b565b90612e1e565b611c51610434565b80611c5b81610c66565b0390f35b61043a565b34611c93575b611c7d611c78366004610c46565b612e51565b611c85610434565b80611c8f81610c66565b0390f35b61043a565b7f523a704056dcd17bcf83bed8b68c59416dac1119be77755efe3bde0a64e46e0c90565b611cc4611c98565b90565b34611cf8575b611cd8366004610444565b611cf4611ce3611cbc565b611ceb610434565b91829182610d65565b0390f35b61043a565b34611d2c575b611d16611d11366004610c46565b612e8b565b611d1e610434565b80611d2881610c66565b0390f35b61043a565b600080fd5b600090565b611d459051610458565b90565b611d7390611d54611d36565b50611d6d6020611d6660008401611d3b565b9201611d3b565b90612ebc565b90565b600090565b611d8d90611d87611d76565b50612f71565b90565b611d9a604061053f565b90565b600090565b611daa611d90565b908150611db5611d9d565b82526020808301611dc4611d9d565b81520150565b611dd2611da2565b90565b611ddf604061053f565b90565b611dea611dd5565b908150611df5611d9d565b82526020808301611e04611d9d565b81520150565b611e12611de2565b90565b611e1d611dca565b50611e26611e0a565b50611e2f613017565b90611e386130d1565b919190565b611e49611e4e9161089a565b61102e565b90565b611e5b9054611e3d565b90565b611e6790610733565b90565b611e7390611e5e565b90565b611e7f9061074f565b90565b60e01b90565b90505190611e9582610554565b565b90602082820312611eb2575b6000611eaf9201611e88565b90565b61043f565b611ebf610434565b3d6000823e3d90fd5b611ed0611d36565b50611eeb611ee6611ee16005611e51565b611e6a565b611e76565b6020611ef5610434565b8092611f046313977042611e82565b82528180611f1460048201610c66565b03915afa908115611f5b575b600091611f2c575b5090565b611f4e915060203d602011611f54575b611f468183610515565b810190611e97565b38611f28565b503d611f3c565b611eb7565b60207f6d696e0000000000000000000000000000000000000000000000000000000000917f41757468436f6e74726f6c3a2043616c6c6572206973206e6f7420616e20616460008201520152565b611fbb6023604092610aac565b611fc481611f60565b0190565b611fde9060208101906000818303910152611fae565b90565b15611fe9575b565b611ff1610434565b62461bcd60e51b81528061200760048201611fc8565b0390fd5b6120259061202061201b336120f9565b611fe1565b612027565b565b61203890612033611855565b6121d4565b565b6120439061200b565b565b61204d611d36565b5061205e612059613017565b611d48565b90565b61207c9061206d611dca565b50612076611e0a565b50613144565b906120856130d1565b919190565b600090565b61209890610d0e565b90565b906120a59061208f565b600052602052604060002090565b90565b6120c26120c79161089a565b6120b3565b90565b6120d490546120b6565b90565b60016120f06120f6926120e861208a565b50600461209b565b016120ca565b90565b61211390612105611d76565b5061210e611855565b6128f7565b90565b612128612121611c98565b33906121d4565b565b906121459161214061213b826120d7565b6131db565b612147565b565b9061215191613236565b50565b9061215e9161212a565b565b61217a90612175612170336120f9565b611fe1565b61217c565b565b61218d90612188611bca565b6121d4565b565b61219890612160565b565b600090565b90565b6121b66121b16121bb9261219f565b61045b565b610eb3565b90565b6121c661219a565b506121d1601b6121a2565b90565b906121e56121e06132e6565b6106d1565b6121ee826106d1565b1415612201575b6121fe916132f3565b50565b612209610434565b63334bd91960e11b81528061222060048201610c66565b0390fd5b9061223791612231611d76565b506134b2565b600190565b6122469033613755565b565b6122649161225e91612258611d36565b5061288b565b9061390a565b90565b634e487b7160e01b600052601160045260246000fd5b60011c90565b9391909393925b60018211612297575b5050565b90919280820481116122d1575b600183166122c2575b806122b991029261227d565b9092919261228a565b93846122b991029490506122ad565b612267565b9291928115612378575b801561236f575b8080600114612365575b600214612344575b60208210610133821016604e8310600b83101617612334575b92612321918193946001612283565b809204811161232f575b0290565b612267565b0a91821161233f575b565b612267565b5060ff8111612360575b60020a91821161235b575b565b612267565b612267565b5050509050600190565b50509050600090565b50509050600190565b906123976123916123a093610458565b91610458565b600019916122d6565b90565b6123b26123b891939293610458565b92610458565b916123c4838202610458565b928184049014901517156123d5575b565b612267565b6123e2611d36565b5061241e6123ee6130d1565b6124186123fd60008301611d3b565b91612412602061240b61047a565b9201611d3b565b90612381565b906123a3565b90565b9061242a611dca565b50612433611e0a565b5061244661244083613a8c565b92613ae0565b919190565b61246590612457611d76565b50612460611c98565b6128f7565b90565b6124829061247d612478336120f9565b611fe1565b612484565b565b61249590612490611855565b612154565b565b6124a090612468565b565b6124b76124bc916124b1611d36565b50613144565b611d48565b90565b6124d06124cb336120f9565b611fe1565b6124d86124da565b565b6124ec6124e5611855565b33906121d4565b565b6124f66124bf565b565b6125129061250d612508336120f9565b611fe1565b612646565b565b61252861252361252d92611830565b61045b565b6106c5565b90565b61253990612514565b90565b60007f41636365737369626c653a207a65726f20616464726573730000000000000000910152565b6125716018602092610aac565b61257a8161253c565b0190565b6125949060208101906000818303910152612564565b90565b1561259f575b565b6125a7610434565b62461bcd60e51b8152806125bd6004820161257e565b0390fd5b60007f41636365737369626c653a2073616d652061646d696e00000000000000000000910152565b6125f66016602092610aac565b6125ff816125c1565b0190565b61261990602081019060008183039101526125e9565b90565b15612624575b565b61262c610434565b62461bcd60e51b81528061264260048201612603565b0390fd5b6126a49061266f61265f61265a6000612530565b6106d1565b612668836106d1565b1415612597565b61268b61267b826106d1565b612684336106d1565b141561261c565b61269d612696611855565b9182612154565b33906121d4565b565b6126af906124f8565b565b906126c260018060a01b0391611833565b91811990169116901790565b90565b906126e66126e16126ed9261075b565b6126ce565b82546126b1565b9055565b6126fc9060056126d1565b565b9061270891613755565b565b61271e61271961272392611830565b61045b565b610458565b90565b634e487b7160e01b600052601260045260246000fd5b61274861274e91610458565b91610458565b90811561275a575b0490565b612726565b61276890610458565b6000198114612779575b6001900190565b612267565b612788604061053f565b90565b9061279590610458565b9052565b9160406127bb9294936127b460808201966000830190610b8f565b0190610b8f565b565b906127c6611d76565b506127cf6130d1565b906127da600061270a565b92925b6127ed6127e861192c565b610458565b6127f685610458565b10151561281f575b61280a6128199161275f565b9361281361047a565b9061273c565b926127dd565b916128667f29ca2230155ed7b305631c2160bcce185fe471567c0e99ae17de3b6a909a838d9394929461285d61285361277e565b946000860161278b565b6020840161278b565b61286f82613ba1565b61288361287a610434565b92839283612799565b0390a1600190565b6128ad6128b39193929361289d611dca565b506128a6611e0a565b5084613bfc565b92613ae0565b919190565b6128c0611d76565b506128d36128cc611855565b33906128f7565b90565b6128e26128e79161089a565b611122565b90565b6128f490546128d6565b90565b61291f91600061291461291a9361290c611d76565b50600461209b565b0161110a565b6128ea565b90565b61293761293d91612931611d36565b50612421565b9061390a565b90565b61295a90612955612950336120f9565b611fe1565b61295c565b565b61296d90612968611bca565b612154565b565b61297890612940565b565b61298c612985611bca565b33906121d4565b565b6129a8906129a361299e336120f9565b611fe1565b6129aa565b565b6129bb906129b6611c98565b612154565b565b6129c69061298e565b565b6129e2906129d4611d76565b506129dd611bca565b6128f7565b90565b6129ff906129fa6129f5336120f9565b611fe1565b612a01565b565b612a1290612a0d611c98565b6121d4565b565b612a1d906129e5565b565b90612a299061270a565b600052602052604060002090565b60007f616c726561647920696e697469616c697a656400000000000000000000000000910152565b612a6c6013602092610aac565b612a7581612a37565b0190565b612a8f9060208101906000818303910152612a5f565b90565b15612a9a575b565b612aa2610434565b62461bcd60e51b815280612ab860048201612a79565b0390fd5b601f602091010490565b1b90565b91906008612ae6910291612ae060001984612ac6565b92612ac6565b91811990169116901790565b90565b9190612b0b612b06612b1393610866565b612af2565b908354612aca565b9055565b612b2991612b23611d36565b91612af5565b565b5b818110612b38575b5050565b80612b466000600193612b17565b01612b2c565b9190601f8111612b5c575b505050565b612b68612b8e936109af565b906020612b7484612abc565b83019310612b96575b612b8690612abc565b900190612b2b565b388080612b57565b9150612b8681929050612b7d565b90612bb59060001990600802610797565b19901690565b81612bc591612ba4565b90600202901790565b90612bd881610aa8565b9067ffffffffffffffff8211612ca0575b612bfd82612bf78554610979565b85612b4c565b600050602090601f8311600114612c36575b918091612c2593600092612c2a575b5050612bbb565b90555b565b90915001513880612c1e565b601f19831691612c45856109af565b9260005b818110612c88575b509160029391856001969410612c6e575b50505002019055612c28565b612c7e910151601f841690612ba4565b9055388080612c62565b91936020600181928787015181550195019201612c49565b6104ff565b90612caf91612bce565b565b90612cbe60001991611833565b91811990169116901790565b90612cdf612cda612ce692610866565b612af2565b8254612cb1565b9055565b6001612d136020612d1a94612d0d612d0460008301611d3b565b60008701612cca565b01611d3b565b9101612cca565b565b90612d2691612cea565b565b91612dac612db89493612d7c612db194612d75600093612d6e612d5686612d5081600c612a1f565b016108b4565b612d68612d628861270a565b91610458565b14612a92565b6006612ca5565b6007612ca5565b612d90612d8761277e565b9382850161278b565b612da5612d9c8261270a565b6020850161278b565b600c612a1f565b612d1c565b60056126d1565b565b612dd490612dcf612dca336120f9565b611fe1565b612dd6565b565b612de790612de2611bca565b612e1e565b565b612df290612dba565b565b90612e0f91612e0a612e05826120d7565b6131db565b612e11565b565b90612e1b916132f3565b50565b90612e2891612df4565b565b612e4490612e3f612e3a336120f9565b611fe1565b612e46565b565b612e4f906126a6565b565b612e5a90612e2a565b565b612e7690612e71612e6c336120f9565b611fe1565b612e78565b565b612e8990612e84611c98565b612e1e565b565b612e9490612e5c565b565b612ea5612eab91939293610458565b92610458565b8203918211612eb7575b565b612267565b90612ec5611d36565b50612ed0600061270a565b612ed983610458565b14612f62575b612efd612eea6130d1565b92612ef760008501611d3b565b90613c99565b90602082930190612f0d82611d3b565b612f1f612f1983610458565b91610458565b11612f2b575b50505090565b612f5a935090612f4e612f5492612f49612f4361047a565b93611d3b565b612e96565b90612381565b906123a3565b388080612f25565b5050612f6e600061270a565b90565b612f79611d76565b50612f8a637965db0b60e01b610613565b612f9382610613565b1490819115612fa1575b5090565b612fab9150613cc0565b38612f9d565b90565b612fc8612fc3612fcd92612fb1565b61045b565b610458565b90565b906130096130006001612fe1611d90565b94612ffa612ff1600083016108b4565b6000880161278b565b016108b4565b6020840161278b565b565b61301490612fd0565b90565b61301f611dca565b50613058613053613030600061270a565b61303a60096111b6565b8161304482610458565b141561305b575b50600a610882565b61300b565b90565b613084915061307761307e916130716001612fb4565b90612e96565b60096111c7565b906107b6565b3861304b565b906130c36130ba600161309b611dd5565b946130b46130ab600083016108b4565b6000880161278b565b016108b4565b6020840161278b565b565b6130ce9061308a565b90565b6130d9611e0a565b5061311261310d6130ea600061270a565b6130f4600b6111b6565b816130fe82610458565b1415613115575b50600c61125c565b6130c5565b90565b61313e91506131316131389161312b6001612fb4565b90612e96565b600b6111c7565b906107b6565b38613105565b61319461319991613153611dca565b5061315e600061270a565b9061317261316d82600d6113ba565b6111b6565b8261317c82610458565b141561319c575b5061318f90600e61084e565b610882565b61300b565b90565b8192506131ce6131d4916131c86131b761318f95600d6113ba565b916131c26001612fb4565b90612e96565b906111c7565b906107b6565b9190613183565b6131ed906131e76132e6565b90613d0a565b565b906131fb60ff91611833565b91811990169116901790565b61321090610667565b90565b90565b9061322b61322661323292613207565b613213565b82546131ef565b9055565b61323e611d76565b5061325261324c83836128f7565b15610667565b6000146132da575b61327b600161327684600061327086600461209b565b0161110a565b613216565b61329e61329861329261328c6132e6565b9361208f565b9361075b565b9161075b565b917f2f8788117e7eff1d82e926ec794901d17c78024a50270940304540a733656f0d6132c8610434565b806132d281610c66565b0390a4600190565b5050600090565b600090565b6132ee6132e1565b503390565b6132fb611d76565b5061330682826128f7565b60001461338d575b61332e6000613329848261332386600461209b565b0161110a565b613216565b61335161334b61334561333f6132e6565b9361208f565b9361075b565b9161075b565b917ff6391f5c32d9c69d2a47ea670b442974b53935d1edc7fd64eb21e047a839171b61337b610434565b8061338581610c66565b0390a4600190565b5050600090565b60207f207a65726f206164647265737300000000000000000000000000000000000000917f4175746f5265666163746f72436f696e6167653a206d696e7420746f2074686560008201520152565b6133ef602d604092610aac565b6133f881613394565b0190565b61341290602081019060008183039101526133e2565b90565b1561341d575b565b613425610434565b62461bcd60e51b81528061343b600482016133fc565b0390fd5b61344e61345491939293610458565b92610458565b8201809211613460575b565b612267565b61346f604061053f565b90565b6134a96134b09461349f60c09498979561349561010086019a6000870190610b69565b6040850190610b69565b6080830190610b69565b0190610b69565b565b906134bd6000612530565b6134c6816106d1565b6134cf846106d1565b14156134da90613415565b6134e26130d1565b6134ea613017565b836134f486613144565b95816134ff88611d48565b61350885611d48565b916135129161343f565b61351b90613d4c565b926135259161343f565b61352e90613d4c565b936020900161353c81611d3b565b613544613465565b9360008501906135539161278b565b60208401906135619161278b565b61356a90611d3b565b613572613465565b9460008601906135819161278b565b602085019061358f9161278b565b61359d600180838786613e38565b6135a69061075b565b9586936135b1610434565b9384936135be9385613472565b037f452b30c947ea249a4a1a2c0410f1780e479e022d06691644108f38c3b3e17c4791a26135eb9061075b565b906135f4610434565b6135ff81928261049f565b037fddf252ad1be2c89b69c2b068fc378daa952ba7f163c4a11628f55a4df523b3ef91a3565b60207f6865207a65726f20616464726573730000000000000000000000000000000000917f4175746f5265666163746f72436f696e6167653a206275726e2066726f6d207460008201520152565b613680602f604092610aac565b61368981613625565b0190565b6136a39060208101906000818303910152613673565b90565b156136ae575b565b6136b6610434565b62461bcd60e51b8152806136cc6004820161368d565b0390fd5b60007f696e73756666696369656e742062616c616e6365000000000000000000000000910152565b6137056014602092610aac565b61370e816136d0565b0190565b61372890602081019060008183039101526136f8565b90565b15613733575b565b61373b610434565b62461bcd60e51b81528061375160048201613712565b0390fd5b61375f6000612530565b61377b61376b826106d1565b613774846106d1565b14156136a6565b826137846130d1565b61378c613017565b9061379685613144565b946137a083611d48565b6137a987611d48565b90856137b481610458565b6137bd84610458565b101580906138eb575b6137cf9061372b565b6137d891612e96565b6137e190613d4c565b946137eb91612e96565b6137f490613d4c565b916020900161380281611d3b565b61380a613465565b9560008701906138199161278b565b60208601906138279161278b565b61383090611d3b565b613838613465565b9260008401906138479161278b565b60208301906138559161278b565b613863600180838786613e38565b61386c9061075b565b948593613877610434565b9384936138849385613472565b037f452b30c947ea249a4a1a2c0410f1780e479e022d06691644108f38c3b3e17c4791a26138b19061075b565b916138ba610434565b6138c581928261049f565b037fddf252ad1be2c89b69c2b068fc378daa952ba7f163c4a11628f55a4df523b3ef91a3565b506137cf6138f882610458565b61390184610458565b101590506137c6565b90613913611d36565b5061392060008301611d3b565b61393361392d600061270a565b91610458565b146139f5575b81602060006139a194019261396b61396561395386611d3b565b61395f60008501611d3b565b90613c99565b8561278b565b01602061397782611d3b565b92019161399461398e61398985611d3b565b610458565b91610458565b116139a4575b5050611d3b565b90565b6139ee916139e26139e8926139dc6139bb87611d3b565b936139d66139d06139ca61047a565b94611d3b565b91611d3b565b90612e96565b90612381565b906123a3565b8261278b565b388061399a565b5050613a01600061270a565b90565b60007f736e617073686f744964203e2070726f6772657373536e617073686f74496400910152565b613a39601f602092610aac565b613a4281613a04565b0190565b613a5c9060208101906000818303910152613a2c565b90565b15613a67575b565b613a6f610434565b62461bcd60e51b815280613a8560048201613a46565b0390fd5b90565b613ad8613ad1613add92613a9e611dca565b50613ac2613ab2613aad611ec8565b610458565b613abb83610458565b1115613a5f565b613acc6009613a89565b613f56565b600a610882565b61300b565b90565b613b2c613b25613b3192613af2611e0a565b50613b16613b06613b01611ec8565b610458565b613b0f83610458565b1115613a5f565b613b20600b613a89565b613f56565b600c61125c565b6130c5565b90565b8050600052602060002090565b5490565b613b4e81613b41565b821015613b6b575b613b61600191613b34565b9102900190600090565b6111a0565b90815491600160401b831015613b9c575b82613b94916001613b9a95018155613b45565b90612af5565b565b6104ff565b613bea90613be5613bb0611ec8565b613bba600b613a89565b81613bc482614138565b613bd6613bd083610458565b91610458565b10613bec575b5050600c61125c565b612d1c565b565b613bf591613b70565b3881613bdc565b613c6091613c56613c4e613c5b93613c12611dca565b50613c36613c26613c21611ec8565b610458565b613c2f83610458565b1115613a5f565b613c49613c4485600d6113ba565b613a89565b613f56565b91600e61084e565b610882565b61300b565b90565b90565b613c7a613c75613c7f92613c63565b61045b565b610458565b90565b613c96676765c793fa10079d601b1b613c66565b90565b613cbd91613caf91613ca9611d36565b50614231565b613cb7613c82565b9061273c565b90565b613cc8611d76565b50613ce2613cdc6301ffc9a760e01b610613565b91610613565b1490565b916020613d08929493613d016040820196600083019061107b565b0190610d58565b565b90613d1e613d1882846128f7565b15610667565b613d27575b5050565b613d48613d32610434565b92839263e2517d3f60e01b845260048401613ce6565b0390fd5b613d7290613d58611d36565b50613d6c6000613d666130d1565b01611d3b565b9061429e565b90565b60007f7a65726f206163636f756e740000000000000000000000000000000000000000910152565b613daa600c602092610aac565b613db381613d75565b0190565b613dcd9060208101906000818303910152613d9d565b90565b15613dd8575b565b613de0610434565b62461bcd60e51b815280613df660048201613db7565b0390fd5b6001613e236020613e2a94613e1d613e1460008301611d3b565b60008701612cca565b01611d3b565b9101612cca565b565b90613e3691613dfa565b565b90929193613e44611ec8565b91613e60613e5b613e5688600d6113ba565b613a89565b614138565b90613e6b6009613a89565b9684613e7689614138565b96613ed3575b50505050613e8b575b50505050565b613eba9381613eb593613ea6613ea083610458565b91610458565b10613ec3575b5050600a610882565b613e2c565b38808080613e85565b613ecc91613b70565b3881613eac565b613f22613f2792613f2c95613f03613ef3613eee6000612530565b6106d1565b613efc846106d1565b1415613dd0565b613f15613f0f85610458565b91610458565b10613f35575b600e61084e565b610882565b613e2c565b38808084613e7c565b613f5183613f4c613f4784600d6113ba565b613a89565b613b70565b613f1b565b9190613f60611d36565b50613f6a83613b41565b600090613f7f613f798361270a565b91610458565b14614128575b613f8e84613b41565b90613fbe613fb9613fb3613fad600195613fa787612fb4565b90612e96565b88613b45565b906107b6565b610458565b613fc784610458565b10156140f2575b613fe9613fe4613fde8388613b45565b906107b6565b610458565b613ff284610458565b106140e1575b6140019061270a565b918161401e61400f87613b41565b61401883612fb4565b90612e96565b905b61403f575b5050506140369061403c9293613b45565b906107b6565b90565b61404884610458565b61405182610458565b11156140dc575b614087614077614068868461343f565b61407186612fb4565b9061343f565b614081600261045e565b9061273c565b61409a6140948289613b45565b906107b6565b6140ac6140a685610458565b91610458565b11156000146140c0575b839450935b614020565b8391506140d6906140d083612fb4565b90612e96565b906140bb565b614025565b9150506140ef91925061270a565b90565b5061411f915092614119614125939461411361410d84613b41565b91612fb4565b90612e96565b90613b45565b906107b6565b90565b905061413591925061270a565b90565b614140611d36565b5061414a81613b41565b61415d614157600061270a565b91610458565b14600050600014614178575b50614174600061270a565b5b90565b6141a18161419b61418b6141a794613b41565b6141956001612fb4565b90612e96565b90613b45565b906107b6565b614175565b60007f64732d6d6174682d6d756c2d6f766572666c6f77000000000000000000000000910152565b6141e16014602092610aac565b6141ea816141ac565b0190565b61420490602081019060008183039101526141d4565b90565b1561420f575b565b614217610434565b62461bcd60e51b81528061422d600482016141ee565b0390fd5b91909161423c611d36565b92614247600061270a565b61425082610458565b1491829215614267575b505061426590614207565b565b909350614265915061429661429061428a61428287856123a3565b96879761273c565b92610458565b91610458565b14903861425a565b906142bd6142c2926142ae611d36565b506142b7613c82565b90614231565b61273c565b9056fea264697066735822122050af2b5f3856eae90368fbd526fb674a456c5af27f7b423f7b15722f52559d9364736f6c63430008190033a2646970667358221220fce46f6bf334cce5e91eb6fdd29ddcf1fbe5b93c4906fedc58171e75d4738cb364736f6c63430008190033","linkReferences":{}},"methodIdentifiers":{"autoCoinageLogic()":"8ad68763","deploy()":"775c300c","owner()":"8da5cb5b","renounceOwnership()":"715018a6","setAutoCoinageLogic(address)":"989e3f28","transferOwnership(address)":"f2fde38b"},"id":63}