{"abi":[{"type":"function","name":"ADMIN_ROLE","inputs":[],"outputs":[{"name":"","type":"bytes32","internalType":"bytes32"}],"stateMutability":"view"},{"type":"function","name":"DEFAULT_ADMIN_ROLE","inputs":[],"outputs":[{"name":"","type":"bytes32","internalType":"bytes32"}],"stateMutability":"view"},{"type":"function","name":"DIVIDER","inputs":[],"outputs":[{"name":"","type":"uint8","internalType":"uint8"}],"stateMutability":"view"},{"type":"function","name":"PAUSE_ROLE","inputs":[],"outputs":[{"name":"","type":"bytes32","internalType":"bytes32"}],"stateMutability":"view"},{"type":"function","name":"addAdmin","inputs":[{"name":"account","type":"address","internalType":"address"}],"outputs":[],"stateMutability":"nonpayable"},{"type":"function","name":"addPauser","inputs":[{"name":"account","type":"address","internalType":"address"}],"outputs":[],"stateMutability":"nonpayable"},{"type":"function","name":"aliveImplementation","inputs":[{"name":"","type":"address","internalType":"address"}],"outputs":[{"name":"","type":"bool","internalType":"bool"}],"stateMutability":"view"},{"type":"function","name":"getCallbackGasLimit","inputs":[],"outputs":[{"name":"","type":"uint32","internalType":"uint32"}],"stateMutability":"view"},{"type":"function","name":"getCounter","inputs":[],"outputs":[{"name":"","type":"uint256","internalType":"uint256"}],"stateMutability":"view"},{"type":"function","name":"getGemFactoryAddress","inputs":[],"outputs":[{"name":"","type":"address","internalType":"address"}],"stateMutability":"view"},{"type":"function","name":"getPaused","inputs":[],"outputs":[{"name":"","type":"bool","internalType":"bool"}],"stateMutability":"view"},{"type":"function","name":"getPerfectCommonGemURI","inputs":[],"outputs":[{"name":"","type":"string","internalType":"string"}],"stateMutability":"view"},{"type":"function","name":"getRandomPackFees","inputs":[],"outputs":[{"name":"","type":"uint256","internalType":"uint256"}],"stateMutability":"view"},{"type":"function","name":"getRequestCount","inputs":[],"outputs":[{"name":"","type":"uint256","internalType":"uint256"}],"stateMutability":"view"},{"type":"function","name":"getRoleAdmin","inputs":[{"name":"role","type":"bytes32","internalType":"bytes32"}],"outputs":[{"name":"","type":"bytes32","internalType":"bytes32"}],"stateMutability":"view"},{"type":"function","name":"getTonAddress","inputs":[],"outputs":[{"name":"","type":"address","internalType":"address"}],"stateMutability":"view"},{"type":"function","name":"getTreasuryAddress","inputs":[],"outputs":[{"name":"","type":"address","internalType":"address"}],"stateMutability":"view"},{"type":"function","name":"grantRole","inputs":[{"name":"role","type":"bytes32","internalType":"bytes32"},{"name":"account","type":"address","internalType":"address"}],"outputs":[],"stateMutability":"nonpayable"},{"type":"function","name":"hasRole","inputs":[{"name":"role","type":"bytes32","internalType":"bytes32"},{"name":"account","type":"address","internalType":"address"}],"outputs":[{"name":"","type":"bool","internalType":"bool"}],"stateMutability":"view"},{"type":"function","name":"incrementCounter","inputs":[],"outputs":[],"stateMutability":"nonpayable"},{"type":"function","name":"initialize","inputs":[{"name":"_coordinator","type":"address","internalType":"address"},{"name":"_ton","type":"address","internalType":"address"},{"name":"_gemFactory","type":"address","internalType":"address"},{"name":"_treasury","type":"address","internalType":"address"},{"name":"_randomPackFees","type":"uint256","internalType":"uint256"}],"outputs":[],"stateMutability":"nonpayable"},{"type":"function","name":"isAdmin","inputs":[{"name":"account","type":"address","internalType":"address"}],"outputs":[{"name":"","type":"bool","internalType":"bool"}],"stateMutability":"view"},{"type":"function","name":"isOwner","inputs":[],"outputs":[{"name":"","type":"bool","internalType":"bool"}],"stateMutability":"view"},{"type":"function","name":"isPauser","inputs":[{"name":"account","type":"address","internalType":"address"}],"outputs":[{"name":"","type":"bool","internalType":"bool"}],"stateMutability":"view"},{"type":"function","name":"onERC721Received","inputs":[{"name":"","type":"address","internalType":"address"},{"name":"","type":"address","internalType":"address"},{"name":"","type":"uint256","internalType":"uint256"},{"name":"","type":"bytes","internalType":"bytes"}],"outputs":[{"name":"","type":"bytes4","internalType":"bytes4"}],"stateMutability":"pure"},{"type":"function","name":"pause","inputs":[],"outputs":[],"stateMutability":"nonpayable"},{"type":"function","name":"pauseProxy","inputs":[],"outputs":[{"name":"","type":"bool","internalType":"bool"}],"stateMutability":"view"},{"type":"function","name":"proxyImplementation","inputs":[{"name":"","type":"uint256","internalType":"uint256"}],"outputs":[{"name":"","type":"address","internalType":"address"}],"stateMutability":"view"},{"type":"function","name":"rawFulfillRandomWords","inputs":[{"name":"requestId","type":"uint256","internalType":"uint256"},{"name":"randomWord","type":"uint256","internalType":"uint256"}],"outputs":[],"stateMutability":"nonpayable"},{"type":"function","name":"removeAdmin","inputs":[],"outputs":[],"stateMutability":"nonpayable"},{"type":"function","name":"removePauser","inputs":[{"name":"account","type":"address","internalType":"address"}],"outputs":[],"stateMutability":"nonpayable"},{"type":"function","name":"renounceRole","inputs":[{"name":"role","type":"bytes32","internalType":"bytes32"},{"name":"callerConfirmation","type":"address","internalType":"address"}],"outputs":[],"stateMutability":"nonpayable"},{"type":"function","name":"requestRandomGem","inputs":[],"outputs":[{"name":"","type":"uint256","internalType":"uint256"}],"stateMutability":"payable"},{"type":"function","name":"revokeRole","inputs":[{"name":"role","type":"bytes32","internalType":"bytes32"},{"name":"account","type":"address","internalType":"address"}],"outputs":[],"stateMutability":"nonpayable"},{"type":"function","name":"s_requests","inputs":[{"name":"","type":"uint256","internalType":"uint256"}],"outputs":[{"name":"randomWord","type":"uint256","internalType":"uint256"},{"name":"chosenTokenId","type":"uint256","internalType":"uint256"},{"name":"requester","type":"address","internalType":"address"},{"name":"requested","type":"bool","internalType":"bool"},{"name":"fulfilled","type":"bool","internalType":"bool"}],"stateMutability":"view"},{"type":"function","name":"selectorImplementation","inputs":[{"name":"","type":"bytes4","internalType":"bytes4"}],"outputs":[{"name":"","type":"address","internalType":"address"}],"stateMutability":"view"},{"type":"function","name":"setCallbackGasLimit","inputs":[{"name":"_callbackGasLimit","type":"uint32","internalType":"uint32"}],"outputs":[],"stateMutability":"nonpayable"},{"type":"function","name":"setGemFactory","inputs":[{"name":"_gemFactory","type":"address","internalType":"address"}],"outputs":[],"stateMutability":"nonpayable"},{"type":"function","name":"setPerfectCommonGemURI","inputs":[{"name":"_tokenURI","type":"string","internalType":"string"}],"outputs":[],"stateMutability":"nonpayable"},{"type":"function","name":"setProbabilities","inputs":[{"name":"_commonProb","type":"uint8","internalType":"uint8"},{"name":"_rareProb","type":"uint8","internalType":"uint8"},{"name":"_uniqueProb","type":"uint8","internalType":"uint8"},{"name":"_epicProb","type":"uint8","internalType":"uint8"},{"name":"_legendaryProb","type":"uint8","internalType":"uint8"},{"name":"_mythicProb","type":"uint8","internalType":"uint8"}],"outputs":[],"stateMutability":"nonpayable"},{"type":"function","name":"setRandomPackFees","inputs":[{"name":"_randomPackFees","type":"uint256","internalType":"uint256"}],"outputs":[],"stateMutability":"nonpayable"},{"type":"function","name":"setTon","inputs":[{"name":"_ton","type":"address","internalType":"address"}],"outputs":[],"stateMutability":"nonpayable"},{"type":"function","name":"setTreasury","inputs":[{"name":"_treasury","type":"address","internalType":"address"}],"outputs":[],"stateMutability":"nonpayable"},{"type":"function","name":"supportsInterface","inputs":[{"name":"interfaceId","type":"bytes4","internalType":"bytes4"}],"outputs":[{"name":"","type":"bool","internalType":"bool"}],"stateMutability":"view"},{"type":"function","name":"transferOwnership","inputs":[{"name":"newOwner","type":"address","internalType":"address"}],"outputs":[],"stateMutability":"nonpayable"},{"type":"function","name":"unpause","inputs":[],"outputs":[],"stateMutability":"nonpayable"},{"type":"event","name":"CallBackGasLimitUpdated","inputs":[{"name":"_callbackGasLimit","type":"uint256","indexed":false,"internalType":"uint256"}],"anonymous":false},{"type":"event","name":"CommonGemMinted","inputs":[],"anonymous":false},{"type":"event","name":"CommonGemToBeMinted","inputs":[],"anonymous":false},{"type":"event","name":"EthSentBack","inputs":[{"name":"amount","type":"uint256","indexed":false,"internalType":"uint256"}],"anonymous":false},{"type":"event","name":"GemFactoryAddressUpdated","inputs":[{"name":"gemFactory","type":"address","indexed":false,"internalType":"address"}],"anonymous":false},{"type":"event","name":"PerfectCommonGemURIUpdated","inputs":[{"name":"_tokenURI","type":"string","indexed":false,"internalType":"string"}],"anonymous":false},{"type":"event","name":"RandomGemRequested","inputs":[{"name":"requestor","type":"address","indexed":false,"internalType":"address"},{"name":"requestId","type":"uint256","indexed":false,"internalType":"uint256"}],"anonymous":false},{"type":"event","name":"RandomGemToBeTransferred","inputs":[{"name":"tokenId","type":"uint256","indexed":false,"internalType":"uint256"},{"name":"newOwner","type":"address","indexed":false,"internalType":"address"}],"anonymous":false},{"type":"event","name":"RandomGemTransferred","inputs":[{"name":"tokenId","type":"uint256","indexed":false,"internalType":"uint256"},{"name":"newOwner","type":"address","indexed":false,"internalType":"address"}],"anonymous":false},{"type":"event","name":"RandomPackFeesUpdated","inputs":[{"name":"randomPackFees","type":"uint256","indexed":false,"internalType":"uint256"}],"anonymous":false},{"type":"event","name":"RoleAdminChanged","inputs":[{"name":"role","type":"bytes32","indexed":true,"internalType":"bytes32"},{"name":"previousAdminRole","type":"bytes32","indexed":true,"internalType":"bytes32"},{"name":"newAdminRole","type":"bytes32","indexed":true,"internalType":"bytes32"}],"anonymous":false},{"type":"event","name":"RoleGranted","inputs":[{"name":"role","type":"bytes32","indexed":true,"internalType":"bytes32"},{"name":"account","type":"address","indexed":true,"internalType":"address"},{"name":"sender","type":"address","indexed":true,"internalType":"address"}],"anonymous":false},{"type":"event","name":"RoleRevoked","inputs":[{"name":"role","type":"bytes32","indexed":true,"internalType":"bytes32"},{"name":"account","type":"address","indexed":true,"internalType":"address"},{"name":"sender","type":"address","indexed":true,"internalType":"address"}],"anonymous":false},{"type":"event","name":"TreasuryAddressUpdated","inputs":[{"name":"treasury","type":"address","indexed":false,"internalType":"address"}],"anonymous":false},{"type":"error","name":"AccessControlBadConfirmation","inputs":[]},{"type":"error","name":"AccessControlUnauthorizedAccount","inputs":[{"name":"account","type":"address","internalType":"address"},{"name":"neededRole","type":"bytes32","internalType":"bytes32"}]},{"type":"error","name":"AddressEmptyCode","inputs":[{"name":"target","type":"address","internalType":"address"}]},{"type":"error","name":"AddressInsufficientBalance","inputs":[{"name":"account","type":"address","internalType":"address"}]},{"type":"error","name":"AlreadyInitialized","inputs":[]},{"type":"error","name":"FailedInnerCall","inputs":[]},{"type":"error","name":"FailedToPayFees","inputs":[]},{"type":"error","name":"FailedToSendEthBack","inputs":[]},{"type":"error","name":"FailedToSendFeesToTreasury","inputs":[]},{"type":"error","name":"InvalidAddress","inputs":[]},{"type":"error","name":"OnlyCoordinatorCanFulfill","inputs":[{"name":"have","type":"address","internalType":"address"},{"name":"want","type":"address","internalType":"address"}]},{"type":"error","name":"RandomPackFeesEqualToZero","inputs":[]},{"type":"error","name":"ReentrancyGuardReentrantCall","inputs":[]},{"type":"error","name":"RequestNotMade","inputs":[]},{"type":"error","name":"SafeERC20FailedOperation","inputs":[{"name":"token","type":"address","internalType":"address"}]},{"type":"error","name":"SameAdmin","inputs":[]},{"type":"error","name":"SameOwner","inputs":[]},{"type":"error","name":"ZeroAddress","inputs":[]},{"type":"error","name":"invalidProbabilities","inputs":[]}],"bytecode":{"object":"0x60806040523461002257610011610027565b604051612cbb6101468239612cbb90f35b600080fd5b61002f610031565b565b61002f6100af565b9060ff905b9181191691161790565b90565b9061005b61004861006292151590565b8254610039565b9055565b9061ff009060081b61003e565b9061008361004861006292151590565b8254610066565b9062ff00009060101b61003e565b906100a861004861006292151590565b825461008a565b6100b76100db565b6100c36000600e61004b565b6100cf6000600e610073565b61002f6000600e610098565b61002f61002f61002f61002f61002f61002f61002f61002f61002f610133565b6100486100486100489290565b61004860016100fb565b906000199061003e565b9061012c610048610062926100fb565b8254610112565b61002f61013e610108565b600461011c56fe6080604052600436101561001257600080fd5b60003560e01c806301ffc9a7146102f2578063150b7a02146102ed57806315c01616146102e8578063184fa84f146102e3578063248a9ca3146102de57806324d7806c146102d957806325b5b3b2146102d45780632f2ff15d146102cf57806336568abe146102ca57806337ed11db146102c5578063389ed267146102c05780633be7bcbf146102bb5780633db8df98146102b65780633f4ba83a146102b15780633fad1834146102ac57806346fbf68e146102a75780634d288fec146102a257806350d2a2761461029d578063550d01a3146102985780635b34b9661461029357806362043bd81461028e57806363a8fd89146102895780636805b84b146102845780636ae638d01461027f5780636b2c0f551461027a5780636ecd19cb14610275578063704802751461027057806375b238fc1461026b57806382dc1ec4146102665780638456cb59146102615780638ada066e1461025c5780638f32d59b1461025757806391d14854146102525780639a202d471461024d5780639d541be214610248578063a168fa8914610243578063a217fddf1461023e578063a4eb718c14610239578063b911135f14610234578063d547741f1461022f578063de8be8e71461022a578063e002460414610225578063e614751814610220578063f0f442601461021b578063f2fde38b146102165763f7013ef6036102f757610e37565b610dda565b610dc2565b610daa565b610d8f565b610d5d565b610d44565b610d29565b610d01565b610cb9565b610c76565b610b68565b610b50565b610b34565b610b19565b610afe565b610ae6565b610ace565b610ab3565b610a6f565b610a57565b610958565b61093d565b610922565b610907565b6108cd565b610896565b61087b565b6107f5565b61076b565b610750565b610735565b61071d565b610707565b6106e8565b61065d565b610618565b6105dc565b6105c3565b610583565b610568565b610539565b6104f9565b6104d2565b610421565b610339565b600080fd5b6001600160e01b031981165b036102f757565b9050359061031c826102fc565b565b906020828203126102f7576103329161030f565b90565b9052565b346102f75761036661035461034f36600461031e565b610e53565b60405191829182901515815260200190565b0390f35b6001600160a01b031690565b6103088161036a565b9050359061031c82610376565b80610308565b9050359061031c8261038c565b909182601f830112156102f7578135916001600160401b0383116102f75760200192600183028401116102f757565b906080828203126102f7576103e3818361037f565b926103f1826020850161037f565b926103ff8360408301610392565b9260608201356001600160401b0381116102f75761041d920161039f565b9091565b346102f7576103666104406104373660046103ce565b93929092610e75565b604051918291826001600160e01b0319909116815260200190565b60009103126102f757565b60005b8381106104795750506000910152565b8181015183820152602001610469565b6104aa6104b36020936104bd9361049e815190565b80835293849260200190565b95869101610466565b601f01601f191690565b0190565b602080825261033292910190610489565b346102f7576104e236600461045b565b6103666104ed610f88565b604051918291826104c1565b346102f75761050936600461045b565b610366610514610f92565b6040515b9182918290815260200190565b906020828203126102f75761033291610392565b346102f75761036661051461054f366004610525565b610fa2565b906020828203126102f7576103329161037f565b346102f75761036661035461057e366004610554565b610fc1565b346102f75761059b610596366004610525565b6110c9565b604051005b91906040838203126102f7576103329060206105bc8286610392565b940161037f565b346102f75761059b6105d63660046105a0565b906110f5565b346102f75761059b6105ef3660046105a0565b906110ff565b91906040838203126102f7576103329060206106118286610392565b9401610392565b346102f75761059b61062b3660046105f5565b90611159565b7ffcb9fcbfa83b897fb2d5cf4b58962164105c1e71489a37ef3ae0db3fdce576f690565b610332610631565b346102f75761066d36600461045b565b610366610514610655565b60ff8116610308565b9050359061031c82610678565b909160c0828403126102f7576106a48383610681565b926106b28160208501610681565b926106c08260408301610681565b926103326106d18460608501610681565b9360a06106e18260808701610681565b9401610681565b346102f75761059b6106fb36600461068e565b949390939291926113a7565b61071236600461045b565b6103666105146116d9565b346102f75761072d36600461045b565b61059b61176f565b346102f75761074536600461045b565b610366610514611777565b346102f757610366610354610766366004610554565b611781565b346102f75761059b61077e366004610554565b6117a7565b6001600160e01b03191690565b9061079a90610783565b600052602052604060002090565b610332916008021c6001600160a01b031690565b9061033291546107a8565b60006107d7610332926003610790565b6107bc565b6103359061036a565b60208101929161031c91906107dc565b346102f75761036661081061080b36600461031e565b6107c7565b604051918291826107e5565b6103329061036a906001600160a01b031682565b6103329061081c565b61033290610830565b9061079a90610839565b610332916008021c5b60ff1690565b90610332915461084c565b6000610876610332926002610842565b61085b565b346102f757610366610354610891366004610554565b610866565b346102f7576108a636600461045b565b61059b6117bf565b6108556103326103329290565b61033260646108ae565b6103326108bb565b346102f7576108dd36600461045b565b6103666108e86108c5565b6040519182918260ff909116815260200190565b61033260008061085b565b346102f75761091736600461045b565b6103666103546108fc565b346102f75761093236600461045b565b6103666103546117db565b346102f75761094d36600461045b565b6103666108106117e5565b346102f75761059b61096b366004610554565b611896565b634e487b7160e01b600052604160045260246000fd5b90601f01601f191681019081106001600160401b038211176109a757604052565b610970565b9061031c6109b960405190565b9283610986565b6001600160401b0381116109a757602090601f01601f19160190565b90826000939282370152565b909291926109fd6109f8826109c0565b6109ac565b93818552818301116102f75761031c9160208501906109dc565b9080601f830112156102f757816020610332933591016109e8565b906020828203126102f75781356001600160401b0381116102f7576103329201610a17565b346102f75761059b610a6a366004610a32565b611a79565b346102f75761059b610a82366004610554565b611aa2565b7fdf8b4c520ffe197c5343c6f5aec59570151ef9a492f2c624fd45ddde6135ec4290565b610332610a87565b346102f757610ac336600461045b565b610366610514610aab565b346102f75761059b610ae1366004610554565b611ac6565b346102f757610af636600461045b565b61059b611afc565b346102f757610b0e36600461045b565b610366610514611b04565b346102f757610b2936600461045b565b610366610354611b0e565b346102f757610366610354610b4a3660046105a0565b90611b19565b346102f757610b6036600461045b565b61059b611bb7565b346102f757610b7836600461045b565b610366610810611bbf565b6103326103326103329290565b9061079a90610b83565b6103329081565b6103329054610b9a565b6103329061036a565b6103329054610bab565b6103329060a01c610855565b6103329054610bbe565b6103329060a81c610855565b6103329054610bd4565b610bf5906007610b90565b610bfe81610ba1565b91610c0b60018301610ba1565b91610c1860028201610bb4565b916103326002610c29818501610bca565b9301610be0565b9095949261031c94610c65610c6e92610c5b608096610c5460a088019c6000890152565b6020870152565b60408501906107dc565b15156060830152565b019015159052565b346102f757610366610c91610c8c366004610525565b610bea565b91610c9e95939560405190565b95869586610c30565b6103326000610b83565b610332610ca7565b346102f757610cc936600461045b565b610366610514610cb1565b63ffffffff8116610308565b9050359061031c82610cd4565b906020828203126102f75761033291610ce0565b346102f75761059b610d14366004610ced565b611c81565b60006107d7610332926001610b90565b346102f757610366610810610d3f366004610525565b610d19565b346102f75761059b610d573660046105a0565b90611ca5565b346102f757610d6d36600461045b565b610366610d78611caf565b6040519182918263ffffffff909116815260200190565b346102f757610d9f36600461045b565b610366610810611cb9565b346102f75761059b610dbd366004610554565b611d1d565b346102f75761059b610dd5366004610554565b611d80565b346102f75761059b610ded366004610554565b611e10565b919060a0838203126102f757610e08818461037f565b92610e16826020830161037f565b92610332610e27846040850161037f565b936080610611826060870161037f565b346102f75761059b610e4a366004610df2565b93929092611e84565b61033290611f19565b610783610e6f6103329263ffffffff1690565b60e01b90565b5050505050610e82600090565b5061033263150b7a02610e5c565b634e487b7160e01b600052602260045260246000fd5b9060016002830492168015610ec6575b6020831014610ec157565b610e90565b91607f1691610eb6565b80546000939291610eed610ee383610ea6565b8085529360200190565b9160018116908115610f3f5750600114610f0657505050565b610f199192939450600052602060002090565b916000925b818410610f2b5750500190565b805484840152602090930192600101610f1e565b92949550505060ff1916825215156020020190565b9061033291610ed0565b9061031c610f7892610f6f60405190565b93848092610f54565b0383610986565b61033290610f5e565b610332600d610f7f565b610332600c610ba1565b9061079a565b6001610fbb61033292610fb3600090565b506005610f9c565b01610ba1565b61033290610fcd610a87565b611b19565b15610fd957565b60405162461bcd60e51b8152602060048201526024808201527f41757468436f6e74726f6c3a2043616c6c6572206973206e6f7420746865206f6044820152633bb732b960e11b6064820152608490fd5b0390fd5b61031c9061104261103d611b0e565b610fd2565b611072565b90600019905b9181191691161790565b9061106761033261106e92610b83565b8254611047565b9055565b61107c6000610b83565b81146110b7576110b2816105147fa9ba7fa833bd01c7d078c99360f9c0764c1de898c3300802f43fd0ec1dee717c93600c611057565b0390a1565b60405163173ecfb760e31b8152600490fd5b61031c9061102e565b9061031c916110e86110e382610fa2565b611f53565b906110f291611f5e565b50565b9061031c916110d2565b9061110e3361036a565b61036a565b6111178261036a565b03611125576110f291611fe0565b60405163334bd91960e11b8152600490fd5b91602061031c929493611152604082019660008301906107dc565b01906107dc565b9061116f61110961116a6006610bb4565b610839565b6111783361036a565b036111865761031c916120e8565b61102a61119661116a6006610bb4565b60405163073e64fd60e21b81529182913360048401611137565b9061031c95949392916111c461103d611b0e565b61125e565b634e487b7160e01b600052601160045260246000fd5b6111ee9060ff165b9160ff1690565b019060ff82116111fa57565b6111c9565b9061079a906108ae565b9060ff9061104d565b6108556103326103329260ff1690565b9061123261033261106e92611212565b8254611209565b9062ff00009060101b61104d565b9061125761033261106e92151590565b8254611239565b9493909160009161126e836108ae565b60ff88161480611393575b8061137f575b8061136b575b80611357575b80611343575b611331576112b5866112b0836112b0896112b0886112b08f8d906111df565b6111df565b6112c36111e76108556108bb565b03611331576113156112ef9561130a611320946112ff6005986112f46113259d6112ef600f9b8c6111ff565b611222565b6112ef60018a6111ff565b6112ef6002886111ff565b6112ef6003866111ff565b6112ef6004846111ff565b6111ff565b61031c6001600e611247565b604051630d6a7ef360e41b8152600490fd5b5061134d836108ae565b60ff871614611291565b50611361836108ae565b60ff82161461128b565b50611375836108ae565b60ff861614611285565b50611389836108ae565b60ff83161461127f565b5061139d836108ae565b60ff851614611279565b9061031c95949392916111b0565b61033290610855565b61033290546113b5565b156113cf57565b60405162461bcd60e51b815260206004820152601060248201526f14185d5cd8589b194e881c185d5cd95960821b6044820152606490fd5b6103329061142461141f61141b600e6113be565b1590565b6113c8565b61143590611430612283565b611542565b9061031c6122c3565b6103329060101c610855565b610332905461143e565b61036a6103326103329290565b61033290611454565b6103329060181c5b63ffffffff1690565b610332905461146a565b6114926103326103329290565b61ffff1690565b9060ff60a01b9060a01b61104d565b906114b861033261106e92151590565b8254611499565b906001600160a01b039061104d565b906114de61033261106e92610839565b82546114bf565b919082039182116111fa57565b906114ff6109f8836109c0565b918252565b3d1561151e576115133d6114f2565b903d6000602084013e565b606090565b91602061031c92949361153e604082019660008301906107dc565b0152565b5061155061141b600e61144a565b61133157600061156261110982611461565b61156b3361036a565b146116c75761159c61158061116a600a610bb4565b61158a6009610bb4565b611594600c610ba1565b9133906122ff565b6115b86115a9600e61147b565b6115b283611485565b806123b1565b91906115d2600160026115cc866007610b90565b016114a8565b6115ea6115e0846007610b90565b60023391016114ce565b6116076116006115fa600b610ba1565b60010190565b600b611057565b80341161164d575b50507fc2b05df6babf2be3ce649000124d86f0e7de5e71f99b8edb50dfb2f20a7569ae61163b60405190565b80611647843383611523565b0390a190565b61165a61167991346114e5565b918061166560405190565b60009085335af1611674611504565b501590565b6116b5576116ab7f27468d49151596d3863ccb02e3911b3146a62533facd0765451ba556bb4fd9c89161051860405190565b0390a1388061160f565b604051631e53f7e560e11b8152600490fd5b60405163e6c4247b60e01b8152600490fd5b6103326000611407565b6116ee61103d611b0e565b61031c611739565b156116fd57565b60405162461bcd60e51b815260206004820152601460248201527314185d5cd8589b194e881b9bdd081c185d5cd95960621b6044820152606490fd5b61174b611746600e6113be565b6116f6565b61031c611763565b9061123261033261106e92151590565b61031c6000600e611753565b61031c6116e3565b610332600b610ba1565b61033290610fcd610631565b61031c9061179c61103d611b0e565b61031c90600a6114ce565b61031c9061178d565b60001981146111fa5760010190565b61031c6117d46117cf6010610ba1565b6117b0565b6010611057565b610332600e6113be565b610332600a610bb4565b156117f657565b60405162461bcd60e51b815260206004820152602360248201527f41757468436f6e74726f6c3a2043616c6c6572206973206e6f7420612070617560448201526239b2b960e91b6064820152608490fd5b61031c9061185d611856610631565b3390611b19565b8015611872575b61186d906117ef565b611885565b5061186d61187e611b0e565b9050611864565b61031c90611891610631565b6110ff565b61031c90611847565b61031c906118ae61103d611b0e565b611a49565b9160001960089290920291821b911b61104d565b91906118d861033261106e93610b83565b9083546118b3565b61031c916000916118c7565b8181106118f7575050565b8061190560006001936118e0565b016118ec565b9190601f811161191a57505050565b61192c61031c93600052602060002090565b906020601f84018190048301931061194e575b6020601f9091010401906118ec565b909150819061193f565b9060001960089091021c191690565b8161197191611958565b906002021790565b90611982815190565b906001600160401b0382116109a7576119a58261199f8554610ea6565b8561190b565b602090601f83116001146119d35761106e9291600091836119c8575b5050611967565b0151905038806119c1565b601f198316916119e885600052602060002090565b9260005b818110611a2757509160029391856001969410611a0d575b50505002019055565b611a1d910151601f841690611958565b9055388080611a04565b919360206001819287870151815501950192016119ec565b9061031c91611979565b6110b27f5c9db415e672f6d0f9a26180f0ff083c406f4c7aa95aec2c0e9536794035a4d8916104ed81600d611a3f565b61031c9061189f565b61031c90611a9161103d611b0e565b61031c90611a9d610a87565b6110f5565b61031c90611a82565b61031c90611aba61103d611b0e565b61031c90611a9d610631565b61031c90611aab565b611ada61103d611b0e565b61031c611aed61141f61141b600e6113be565b61031c61031c6001600e611753565b61031c611acf565b6103326010610ba1565b610332611856610ca7565b610332916000611b2e611b3493610fb3600090565b01610842565b6113be565b15611b4057565b60405162461bcd60e51b815260206004820152602360248201527f41757468436f6e74726f6c3a2043616c6c6572206973206e6f7420616e20616460448201526236b4b760e91b6064820152608490fd5b611ba2611b9d33610fc1565b611b39565b61031c61031c611bb0610a87565b33906110ff565b61031c611b91565b6103326008610bb4565b61031c90611bd861103d611b0e565b611c45565b9066ffffffff0000009060181b61104d565b6114726103326103329263ffffffff1690565b90611c1261033261106e92611bef565b8254611bdd565b6103326103326103329263ffffffff1690565b61033590611c19565b60208101929161031c9190611c2c565b6110b27fe26fa4acf522c01381834acc8213105df00a52674031c6311f5dc24bd608819f91611c7581600e611c02565b60405191829182611c35565b61031c90611bc9565b9061031c91611c9b6110e382610fa2565b906110f291611fe0565b9061031c91611c8a565b610332600e61147b565b6103326009610bb4565b61031c90611cd261103d611b0e565b611cdf6111096000611461565b611ce88261036a565b146116c7576110b2816108107fed7acc23c47775012c7b3a370974b91aefab1849cacf173b5ea54273abb481569360086114ce565b61031c90611cc3565b61031c90611d3561103d611b0e565b611d426111096000611461565b611d4b8261036a565b146116c7576110b2816108107fb6a5e89655cf506139085f051af608195ed056f8dc550b180a1c38d401e2b6c49360096114ce565b61031c90611d26565b61031c90611d9861103d611b0e565b611da56111096000611461565b611dae8261036a565b14611dfe57611dbc8161036a565b611dc53361036a565b14611dec5761031c90611bb0611dd9610ca7565b91611de481846110f5565b611a9d610a87565b604051630a98f1f360e21b8152600490fd5b60405163d92e233d60e01b8152600490fd5b61031c90611d89565b6103329060081c610855565b6103329054611e19565b6114726103326103329290565b611e516000611e4b8354610ea6565b8361190b565b60009055565b61031c90611e3c565b9061ff009060081b61104d565b90611e7d61033261106e92151590565b8254611e60565b91939293611e92600e611e25565b611f0857611edc94611ec7611ece92611ec0611ed596611eba611eb3610ca7565b3390611f5e565b506124dc565b60086114ce565b60096114ce565b600a6114ce565b600c611057565b611ef2611eeb62200b20611e2f565b600e611c02565b611efc600d611e57565b61031c6001600e611e6d565b60405162dc149f60e41b8152600490fd5b637965db0b60e01b6001600160e01b0319821614908115611f38575090565b61033291506001600160e01b0319166301ffc9a760e01b1490565b61031c9033906124ef565b611f6b61141b8383611b19565b15611fd957611f8b6001611f86846000611b2e866005610f9c565b611753565b611fa5611f9f611f99339390565b93610839565b91610839565b917f2f8788117e7eff1d82e926ec794901d17c78024a50270940304540a733656f0d611fd060405190565b600090a4600190565b5050600090565b611fea8282611b19565b15611fd9576120046000611f868482611b2e866005610f9c565b612012611f9f611f99339390565b917ff6391f5c32d9c69d2a47ea670b442974b53935d1edc7fd64eb21e047a839171b611fd060405190565b9060ff60a81b9060a81b61104d565b9061205c61033261106e92151590565b825461203d565b801515610308565b9050519061031c82612063565b906020828203126102f7576103329161206b565b6040513d6000823e3d90fd5b6103326103326103329260ff1690565b634e487b7160e01b600052601260045260246000fd5b906120c8565b9190565b9081156120d3570690565b6120a8565b60ff1680156111fa576000190190565b9060076120f86103328483610b90565b9261210861141b60028601610bca565b6122675782600061213561213b936001956121306001600261212a8585610b90565b0161204c565b610b90565b01611057565b61214b61116a61116a6008610bb4565b602061215660405190565b639aa19da760e01b815291829060049082905afa8015612262576121809160009161223957501590565b61222e5761219d6121976121926108bb565b612098565b836120be565b816121a860056108ae565b905b6121d3575b5050506121c6906121c060006108ae565b83612965565b6110f25761031c9061264d565b6121dd60006108ae565b60ff82161115612229576121fb6103326121f683612098565b6127fa565b821015612212575b61220c906120d8565b826121aa565b61221d848287612965565b15612203575050505050565b6121af565b505061031c9061264d565b61141b915060203d60201161225b575b6122538183610986565b810190612078565b503d612249565b61208c565b6040516392b8197960e01b8152600490fd5b6103326002610b83565b61228d6004610ba1565b612295612279565b9081146122a75761031c906004611057565b604051633ee5aeb560e01b8152600490fd5b6103326001610b83565b61031c6122ce6122b9565b6004611057565b60409061153e61031c94969593966122f5606084019860008501906107dc565b60208301906107dc565b906123449061233561031c9560049561231b6323b872dd610e5c565b9361232560405190565b97889560208701908152016122d5565b60208201810382520383610986565b612b16565b61033260606109ac565b9050519061031c8261038c565b906020828203126102f75761033291612353565b805161ffff16825261031c9190604090819060208181015161ffff1690850152015163ffffffff16910152565b60608101929161031c9190612374565b90929161240a9160206123c761116a6006610bb4565b6123cf612349565b61ffff841681529061ffff88168284015263ffffffff851660408301526040519586928391829163a6c278f360e01b5b8352600483016123a1565b03915afa918215612262576123ff602093612480956000916124bf575b50809761247061243a61116a6006610bb4565b9461246363122c162a9361245961244f612349565b61ffff909a168a52565b61ffff16888a0152565b63ffffffff166040870152565b6040519687958694859360e01b90565b03925af190811561226257600091612496575090565b610332915060203d6020116124b8575b6124b08183610986565b810190612360565b503d6124a6565b6124d69150853d87116124b8576124b08183610986565b38612427565b6124e861031c91610839565b60066114ce565b906124fd61141b8284611b19565b612505575050565b61102a61251160405190565b63e2517d3f60e01b815292839260048401611523565b6001600160401b0381116109a75760200290565b6109f861033291612527565b634e487b7160e01b600052602160045260246000fd5b6006111561256757565b612547565b9061031c8261255d565b6103329061256c565b61033590612576565b6125946120c460029390565b6000915b8383106125a55750505050565b6125c26125bb600192845160ff16815260200190565b9260200190565b92019190612598565b6125d76120c460049390565b6000915b8383106125e85750505050565b6125fe6125bb600192845160ff16815260200190565b920191906125db565b90916103329361263161263b92612627610100860196600087019061257f565b6020850190612588565b60608301906125cb565b60e08183039101526000815260200190565b61265d61116a61116a6009610bb4565b6126ea602060009261266f600261253b565b9061268b61267c866108ae565b60ff1686840181905284840152565b612695600461253b565b916126c06126a360016108ae565b60ff16878501819052858501819052604085018190526060850152565b856126ca60405190565b8096819582946126de63912b431b60e01b90565b84528460048501612607565b03925af18015612262576127609360209284926127c0575b50612711600182019283611057565b612736612730600261272961116a61116a6009610bb4565b9301610bb4565b92610ba1565b918461274160405190565b8097819582946127556348dbcef060e01b90565b845260048401611523565b03925af190811561226257506127a3575b507fdd20b2dff2d53ef41435ad0074aea6e1ce693777fcc9ea8e76c76a8f3607dd2161279c60405190565b80806110b2565b6127bb9060203d60201161225b576122538183610986565b612771565b6127d8919250833d85116124b8576124b08183610986565b9038612702565b60ff1660ff81146111fa5760010190565b9061079a90611212565b61280460006108ae565b91825b61281d6103326128176001610b83565b856114e5565b61282685612098565b1161285b5761033261285261284c61281d93612846611b3489600f6127f0565b906111df565b956127df565b94915050612807565b9092506103329150612098565b6001600160401b0381116109a75760208091020190565b9092919261288f6109f882612868565b93818552602080860192028301928184116102f757915b8383106128b35750505050565b602080916128c18486612353565b8152019201916128a6565b9080601f830112156102f75781516103329260200161287f565b9190916040818403126102f7576128fd8382612353565b9260208201516001600160401b0381116102f75761033292016128cc565b634e487b7160e01b600052603260045260246000fd5b9061293a825190565b81101561294b576020809102010190565b61291b565b90815260408101929161031c91602090611152565b9091612975611b3484600f6127f0565b92600080946129866111e7836108ae565b11612993575b5050505090565b6129cc916129a761116a61116a6008610bb4565b604051938492839182916394ca644960e01b83526004830160ff909116815260200190565b03915afa9182156122625784918593612af0575b506129ea85610b83565b82116129f757508361298c565b612a6e9492612a0c612a1693612a12936120be565b90612931565b5190565b90612a25600184019283611057565b60206002612a3961116a61116a6009610bb4565b940193612a4585610bb4565b90612a4f85610ba1565b9184612a5a60405190565b8099819582946127556348dbcef060e01b90565b03925af1918215612262577f5ea50d72ed96185eb6f31884978fae6836ea30ba583e3fb7c32b66135514723c94612ab593612aaf9350612ad3575b50610ba1565b91610bb4565b90612acb612ac260405190565b92839283612950565b0390a1600190565b612aeb9060203d60201161225b576122538183610986565b612aa9565b909250612b0f91503d8086833e612b078183610986565b8101906128e6565b91386129e0565b612b22612b2991610839565b9182612b90565b8051612b386120c46000610b83565b14159081612b6c575b50612b495750565b61102a90612b5660405190565b635274afe760e01b8152918291600483016107e5565b612b8a9150806020612b7f61141b935190565b818301019101612078565b38612b41565b61033291612b9e6000610b83565b612ba730610839565b81813110612bd1575060008281926020610332969551920190855af1612bcb611504565b91612bf4565b61102a90612bde60405190565b63cd78605960e01b8152918291600483016107e5565b90612bff5750612c56565b8151612c0e6120c46000610b83565b1480612c40575b612c1d575090565b61102a90612c2a60405190565b639996b31560e01b8152918291600483016107e5565b50803b612c506120c46000610b83565b14612c15565b8051612c656120c46000610b83565b1115612c7357805190602001fd5b604051630a12f52160e11b8152600490fdfea2646970667358221220955283d635485ca3cf9f570533c074ecfdefad60aca25d7fa72a5c72e41c717e64736f6c63430008190033","linkReferences":{}},"methodIdentifiers":{"ADMIN_ROLE()":"75b238fc","DEFAULT_ADMIN_ROLE()":"a217fddf","DIVIDER()":"62043bd8","PAUSE_ROLE()":"389ed267","addAdmin(address)":"70480275","addPauser(address)":"82dc1ec4","aliveImplementation(address)":"550d01a3","getCallbackGasLimit()":"de8be8e7","getCounter()":"8ada066e","getGemFactoryAddress()":"9d541be2","getPaused()":"6805b84b","getPerfectCommonGemURI()":"15c01616","getRandomPackFees()":"184fa84f","getRequestCount()":"3fad1834","getRoleAdmin(bytes32)":"248a9ca3","getTonAddress()":"6ae638d0","getTreasuryAddress()":"e0024604","grantRole(bytes32,address)":"2f2ff15d","hasRole(bytes32,address)":"91d14854","incrementCounter()":"5b34b966","initialize(address,address,address,address,uint256)":"f7013ef6","isAdmin(address)":"24d7806c","isOwner()":"8f32d59b","isPauser(address)":"46fbf68e","onERC721Received(address,address,uint256,bytes)":"150b7a02","pause()":"8456cb59","pauseProxy()":"63a8fd89","proxyImplementation(uint256)":"b911135f","rawFulfillRandomWords(uint256,uint256)":"37ed11db","removeAdmin()":"9a202d47","removePauser(address)":"6b2c0f55","renounceRole(bytes32,address)":"36568abe","requestRandomGem()":"3db8df98","revokeRole(bytes32,address)":"d547741f","s_requests(uint256)":"a168fa89","selectorImplementation(bytes4)":"50d2a276","setCallbackGasLimit(uint32)":"a4eb718c","setGemFactory(address)":"e6147518","setPerfectCommonGemURI(string)":"6ecd19cb","setProbabilities(uint8,uint8,uint8,uint8,uint8,uint8)":"3be7bcbf","setRandomPackFees(uint256)":"25b5b3b2","setTon(address)":"4d288fec","setTreasury(address)":"f0f44260","supportsInterface(bytes4)":"01ffc9a7","transferOwnership(address)":"f2fde38b","unpause()":"3f4ba83a"},"id":109}