{
  "_format": "hh-sol-artifact-1",
  "contractName": "Treasury",
  "sourceName": "src/L2/Treasury.sol",
  "abi": [
    {
      "inputs": [],
      "name": "AccessControlBadConfirmation",
      "type": "error"
    },
    {
      "inputs": [
        {
          "internalType": "address",
          "name": "account",
          "type": "address"
        },
        {
          "internalType": "bytes32",
          "name": "neededRole",
          "type": "bytes32"
        }
      ],
      "name": "AccessControlUnauthorizedAccount",
      "type": "error"
    },
    {
      "inputs": [
        {
          "internalType": "address",
          "name": "target",
          "type": "address"
        }
      ],
      "name": "AddressEmptyCode",
      "type": "error"
    },
    {
      "inputs": [
        {
          "internalType": "address",
          "name": "account",
          "type": "address"
        }
      ],
      "name": "AddressInsufficientBalance",
      "type": "error"
    },
    {
      "inputs": [],
      "name": "FailedInnerCall",
      "type": "error"
    },
    {
      "inputs": [],
      "name": "FailedToSendTON",
      "type": "error"
    },
    {
      "inputs": [],
      "name": "InvalidAddress",
      "type": "error"
    },
    {
      "inputs": [],
      "name": "NotEnoughTonAvailableInTreasury",
      "type": "error"
    },
    {
      "inputs": [],
      "name": "NotEnoughWstonAvailableInTreasury",
      "type": "error"
    },
    {
      "inputs": [],
      "name": "ReentrancyGuardReentrantCall",
      "type": "error"
    },
    {
      "inputs": [
        {
          "internalType": "address",
          "name": "token",
          "type": "address"
        }
      ],
      "name": "SafeERC20FailedOperation",
      "type": "error"
    },
    {
      "inputs": [],
      "name": "SameAdmin",
      "type": "error"
    },
    {
      "inputs": [],
      "name": "SameOwner",
      "type": "error"
    },
    {
      "inputs": [],
      "name": "TonAddressIsNotSet",
      "type": "error"
    },
    {
      "inputs": [],
      "name": "UnsuffiscientTonBalance",
      "type": "error"
    },
    {
      "inputs": [],
      "name": "UnsuffiscientWstonBalance",
      "type": "error"
    },
    {
      "inputs": [],
      "name": "WstonAddressIsNotSet",
      "type": "error"
    },
    {
      "inputs": [],
      "name": "ZeroAddress",
      "type": "error"
    },
    {
      "anonymous": false,
      "inputs": [
        {
          "indexed": true,
          "internalType": "bytes32",
          "name": "role",
          "type": "bytes32"
        },
        {
          "indexed": true,
          "internalType": "bytes32",
          "name": "previousAdminRole",
          "type": "bytes32"
        },
        {
          "indexed": true,
          "internalType": "bytes32",
          "name": "newAdminRole",
          "type": "bytes32"
        }
      ],
      "name": "RoleAdminChanged",
      "type": "event"
    },
    {
      "anonymous": false,
      "inputs": [
        {
          "indexed": true,
          "internalType": "bytes32",
          "name": "role",
          "type": "bytes32"
        },
        {
          "indexed": true,
          "internalType": "address",
          "name": "account",
          "type": "address"
        },
        {
          "indexed": true,
          "internalType": "address",
          "name": "sender",
          "type": "address"
        }
      ],
      "name": "RoleGranted",
      "type": "event"
    },
    {
      "anonymous": false,
      "inputs": [
        {
          "indexed": true,
          "internalType": "bytes32",
          "name": "role",
          "type": "bytes32"
        },
        {
          "indexed": true,
          "internalType": "address",
          "name": "account",
          "type": "address"
        },
        {
          "indexed": true,
          "internalType": "address",
          "name": "sender",
          "type": "address"
        }
      ],
      "name": "RoleRevoked",
      "type": "event"
    },
    {
      "inputs": [],
      "name": "ADMIN_ROLE",
      "outputs": [
        {
          "internalType": "bytes32",
          "name": "",
          "type": "bytes32"
        }
      ],
      "stateMutability": "view",
      "type": "function"
    },
    {
      "inputs": [],
      "name": "DECIMALS",
      "outputs": [
        {
          "internalType": "uint256",
          "name": "",
          "type": "uint256"
        }
      ],
      "stateMutability": "view",
      "type": "function"
    },
    {
      "inputs": [],
      "name": "DEFAULT_ADMIN_ROLE",
      "outputs": [
        {
          "internalType": "bytes32",
          "name": "",
          "type": "bytes32"
        }
      ],
      "stateMutability": "view",
      "type": "function"
    },
    {
      "inputs": [],
      "name": "PAUSE_ROLE",
      "outputs": [
        {
          "internalType": "bytes32",
          "name": "",
          "type": "bytes32"
        }
      ],
      "stateMutability": "view",
      "type": "function"
    },
    {
      "inputs": [],
      "name": "TON_FEES_RATE_DIVIDER",
      "outputs": [
        {
          "internalType": "uint256",
          "name": "",
          "type": "uint256"
        }
      ],
      "stateMutability": "view",
      "type": "function"
    },
    {
      "inputs": [
        {
          "internalType": "address",
          "name": "account",
          "type": "address"
        }
      ],
      "name": "addAdmin",
      "outputs": [],
      "stateMutability": "nonpayable",
      "type": "function"
    },
    {
      "inputs": [
        {
          "internalType": "address",
          "name": "account",
          "type": "address"
        }
      ],
      "name": "addPauser",
      "outputs": [],
      "stateMutability": "nonpayable",
      "type": "function"
    },
    {
      "inputs": [
        {
          "internalType": "address",
          "name": "",
          "type": "address"
        }
      ],
      "name": "aliveImplementation",
      "outputs": [
        {
          "internalType": "bool",
          "name": "",
          "type": "bool"
        }
      ],
      "stateMutability": "view",
      "type": "function"
    },
    {
      "inputs": [
        {
          "internalType": "address",
          "name": "operator",
          "type": "address"
        },
        {
          "internalType": "uint256",
          "name": "_tokenId",
          "type": "uint256"
        }
      ],
      "name": "approveGem",
      "outputs": [],
      "stateMutability": "nonpayable",
      "type": "function"
    },
    {
      "inputs": [
        {
          "internalType": "uint256",
          "name": "amount",
          "type": "uint256"
        }
      ],
      "name": "approveWstonForMarketplace",
      "outputs": [],
      "stateMutability": "nonpayable",
      "type": "function"
    },
    {
      "inputs": [
        {
          "internalType": "uint256",
          "name": "_tokenId",
          "type": "uint256"
        },
        {
          "internalType": "bool",
          "name": "_paymentMethod",
          "type": "bool"
        }
      ],
      "name": "buyGem",
      "outputs": [],
      "stateMutability": "nonpayable",
      "type": "function"
    },
    {
      "inputs": [
        {
          "internalType": "enum GemFactoryStorage.Rarity",
          "name": "_rarity",
          "type": "uint8"
        },
        {
          "internalType": "uint8[2]",
          "name": "_color",
          "type": "uint8[2]"
        },
        {
          "internalType": "uint8[4]",
          "name": "_quadrants",
          "type": "uint8[4]"
        },
        {
          "internalType": "string",
          "name": "_tokenURI",
          "type": "string"
        }
      ],
      "name": "createPreminedGEM",
      "outputs": [
        {
          "internalType": "uint256",
          "name": "",
          "type": "uint256"
        }
      ],
      "stateMutability": "nonpayable",
      "type": "function"
    },
    {
      "inputs": [
        {
          "internalType": "enum GemFactoryStorage.Rarity[]",
          "name": "_rarities",
          "type": "uint8[]"
        },
        {
          "internalType": "uint8[2][]",
          "name": "_colors",
          "type": "uint8[2][]"
        },
        {
          "internalType": "uint8[4][]",
          "name": "_quadrants",
          "type": "uint8[4][]"
        },
        {
          "internalType": "string[]",
          "name": "_tokenURIs",
          "type": "string[]"
        }
      ],
      "name": "createPreminedGEMPool",
      "outputs": [
        {
          "internalType": "uint256[]",
          "name": "",
          "type": "uint256[]"
        }
      ],
      "stateMutability": "nonpayable",
      "type": "function"
    },
    {
      "inputs": [],
      "name": "getAirdropAddress",
      "outputs": [
        {
          "internalType": "address",
          "name": "",
          "type": "address"
        }
      ],
      "stateMutability": "view",
      "type": "function"
    },
    {
      "inputs": [],
      "name": "getGemFactoryAddress",
      "outputs": [
        {
          "internalType": "address",
          "name": "",
          "type": "address"
        }
      ],
      "stateMutability": "view",
      "type": "function"
    },
    {
      "inputs": [],
      "name": "getMarketPlaceAddress",
      "outputs": [
        {
          "internalType": "address",
          "name": "",
          "type": "address"
        }
      ],
      "stateMutability": "view",
      "type": "function"
    },
    {
      "inputs": [],
      "name": "getRandomPackAddress",
      "outputs": [
        {
          "internalType": "address",
          "name": "",
          "type": "address"
        }
      ],
      "stateMutability": "view",
      "type": "function"
    },
    {
      "inputs": [
        {
          "internalType": "bytes32",
          "name": "role",
          "type": "bytes32"
        }
      ],
      "name": "getRoleAdmin",
      "outputs": [
        {
          "internalType": "bytes32",
          "name": "",
          "type": "bytes32"
        }
      ],
      "stateMutability": "view",
      "type": "function"
    },
    {
      "inputs": [],
      "name": "getSwapPoolAddress",
      "outputs": [
        {
          "internalType": "address",
          "name": "",
          "type": "address"
        }
      ],
      "stateMutability": "view",
      "type": "function"
    },
    {
      "inputs": [],
      "name": "getTONBalance",
      "outputs": [
        {
          "internalType": "uint256",
          "name": "",
          "type": "uint256"
        }
      ],
      "stateMutability": "view",
      "type": "function"
    },
    {
      "inputs": [],
      "name": "getTonAddress",
      "outputs": [
        {
          "internalType": "address",
          "name": "",
          "type": "address"
        }
      ],
      "stateMutability": "view",
      "type": "function"
    },
    {
      "inputs": [],
      "name": "getWSTONBalance",
      "outputs": [
        {
          "internalType": "uint256",
          "name": "",
          "type": "uint256"
        }
      ],
      "stateMutability": "view",
      "type": "function"
    },
    {
      "inputs": [],
      "name": "getWstonAddress",
      "outputs": [
        {
          "internalType": "address",
          "name": "",
          "type": "address"
        }
      ],
      "stateMutability": "view",
      "type": "function"
    },
    {
      "inputs": [
        {
          "internalType": "bytes32",
          "name": "role",
          "type": "bytes32"
        },
        {
          "internalType": "address",
          "name": "account",
          "type": "address"
        }
      ],
      "name": "grantRole",
      "outputs": [],
      "stateMutability": "nonpayable",
      "type": "function"
    },
    {
      "inputs": [
        {
          "internalType": "bytes32",
          "name": "role",
          "type": "bytes32"
        },
        {
          "internalType": "address",
          "name": "account",
          "type": "address"
        }
      ],
      "name": "hasRole",
      "outputs": [
        {
          "internalType": "bool",
          "name": "",
          "type": "bool"
        }
      ],
      "stateMutability": "view",
      "type": "function"
    },
    {
      "inputs": [
        {
          "internalType": "address",
          "name": "_wston",
          "type": "address"
        },
        {
          "internalType": "address",
          "name": "_ton",
          "type": "address"
        },
        {
          "internalType": "address",
          "name": "_gemFactory",
          "type": "address"
        }
      ],
      "name": "initialize",
      "outputs": [],
      "stateMutability": "nonpayable",
      "type": "function"
    },
    {
      "inputs": [
        {
          "internalType": "address",
          "name": "account",
          "type": "address"
        }
      ],
      "name": "isAdmin",
      "outputs": [
        {
          "internalType": "bool",
          "name": "",
          "type": "bool"
        }
      ],
      "stateMutability": "view",
      "type": "function"
    },
    {
      "inputs": [],
      "name": "isOwner",
      "outputs": [
        {
          "internalType": "bool",
          "name": "",
          "type": "bool"
        }
      ],
      "stateMutability": "view",
      "type": "function"
    },
    {
      "inputs": [
        {
          "internalType": "address",
          "name": "account",
          "type": "address"
        }
      ],
      "name": "isPauser",
      "outputs": [
        {
          "internalType": "bool",
          "name": "",
          "type": "bool"
        }
      ],
      "stateMutability": "view",
      "type": "function"
    },
    {
      "inputs": [
        {
          "internalType": "address",
          "name": "",
          "type": "address"
        },
        {
          "internalType": "address",
          "name": "",
          "type": "address"
        },
        {
          "internalType": "uint256",
          "name": "",
          "type": "uint256"
        },
        {
          "internalType": "bytes",
          "name": "",
          "type": "bytes"
        }
      ],
      "name": "onERC721Received",
      "outputs": [
        {
          "internalType": "bytes4",
          "name": "",
          "type": "bytes4"
        }
      ],
      "stateMutability": "pure",
      "type": "function"
    },
    {
      "inputs": [],
      "name": "pause",
      "outputs": [],
      "stateMutability": "nonpayable",
      "type": "function"
    },
    {
      "inputs": [],
      "name": "pauseProxy",
      "outputs": [
        {
          "internalType": "bool",
          "name": "",
          "type": "bool"
        }
      ],
      "stateMutability": "view",
      "type": "function"
    },
    {
      "inputs": [
        {
          "internalType": "uint256",
          "name": "",
          "type": "uint256"
        }
      ],
      "name": "proxyImplementation",
      "outputs": [
        {
          "internalType": "address",
          "name": "",
          "type": "address"
        }
      ],
      "stateMutability": "view",
      "type": "function"
    },
    {
      "inputs": [
        {
          "internalType": "uint256",
          "name": "_tokenId",
          "type": "uint256"
        },
        {
          "internalType": "uint256",
          "name": "_price",
          "type": "uint256"
        }
      ],
      "name": "putGemForSale",
      "outputs": [],
      "stateMutability": "nonpayable",
      "type": "function"
    },
    {
      "inputs": [
        {
          "internalType": "uint256[]",
          "name": "tokenIds",
          "type": "uint256[]"
        },
        {
          "internalType": "uint256[]",
          "name": "prices",
          "type": "uint256[]"
        }
      ],
      "name": "putGemListForSale",
      "outputs": [],
      "stateMutability": "nonpayable",
      "type": "function"
    },
    {
      "inputs": [],
      "name": "removeAdmin",
      "outputs": [],
      "stateMutability": "nonpayable",
      "type": "function"
    },
    {
      "inputs": [
        {
          "internalType": "uint256",
          "name": "_tokenId",
          "type": "uint256"
        }
      ],
      "name": "removeGemFromSale",
      "outputs": [],
      "stateMutability": "nonpayable",
      "type": "function"
    },
    {
      "inputs": [
        {
          "internalType": "address",
          "name": "account",
          "type": "address"
        }
      ],
      "name": "removePauser",
      "outputs": [],
      "stateMutability": "nonpayable",
      "type": "function"
    },
    {
      "inputs": [
        {
          "internalType": "bytes32",
          "name": "role",
          "type": "bytes32"
        },
        {
          "internalType": "address",
          "name": "callerConfirmation",
          "type": "address"
        }
      ],
      "name": "renounceRole",
      "outputs": [],
      "stateMutability": "nonpayable",
      "type": "function"
    },
    {
      "inputs": [
        {
          "internalType": "bytes32",
          "name": "role",
          "type": "bytes32"
        },
        {
          "internalType": "address",
          "name": "account",
          "type": "address"
        }
      ],
      "name": "revokeRole",
      "outputs": [],
      "stateMutability": "nonpayable",
      "type": "function"
    },
    {
      "inputs": [
        {
          "internalType": "bytes4",
          "name": "",
          "type": "bytes4"
        }
      ],
      "name": "selectorImplementation",
      "outputs": [
        {
          "internalType": "address",
          "name": "",
          "type": "address"
        }
      ],
      "stateMutability": "view",
      "type": "function"
    },
    {
      "inputs": [
        {
          "internalType": "address",
          "name": "_airdrop",
          "type": "address"
        }
      ],
      "name": "setAirdrop",
      "outputs": [],
      "stateMutability": "nonpayable",
      "type": "function"
    },
    {
      "inputs": [
        {
          "internalType": "address",
          "name": "_gemFactory",
          "type": "address"
        }
      ],
      "name": "setGemFactory",
      "outputs": [],
      "stateMutability": "nonpayable",
      "type": "function"
    },
    {
      "inputs": [
        {
          "internalType": "address",
          "name": "marketplace",
          "type": "address"
        }
      ],
      "name": "setMarketPlace",
      "outputs": [],
      "stateMutability": "nonpayable",
      "type": "function"
    },
    {
      "inputs": [
        {
          "internalType": "address",
          "name": "_randomPack",
          "type": "address"
        }
      ],
      "name": "setRandomPack",
      "outputs": [],
      "stateMutability": "nonpayable",
      "type": "function"
    },
    {
      "inputs": [
        {
          "internalType": "address",
          "name": "_ton",
          "type": "address"
        }
      ],
      "name": "setTon",
      "outputs": [],
      "stateMutability": "nonpayable",
      "type": "function"
    },
    {
      "inputs": [
        {
          "internalType": "address",
          "name": "_wston",
          "type": "address"
        }
      ],
      "name": "setWston",
      "outputs": [],
      "stateMutability": "nonpayable",
      "type": "function"
    },
    {
      "inputs": [
        {
          "internalType": "address",
          "name": "_wstonSwapPool",
          "type": "address"
        }
      ],
      "name": "setWstonSwapPool",
      "outputs": [],
      "stateMutability": "nonpayable",
      "type": "function"
    },
    {
      "inputs": [
        {
          "internalType": "bytes4",
          "name": "interfaceId",
          "type": "bytes4"
        }
      ],
      "name": "supportsInterface",
      "outputs": [
        {
          "internalType": "bool",
          "name": "",
          "type": "bool"
        }
      ],
      "stateMutability": "view",
      "type": "function"
    },
    {
      "inputs": [
        {
          "internalType": "uint256",
          "name": "_amount",
          "type": "uint256"
        }
      ],
      "name": "tonApproveWstonSwapPool",
      "outputs": [
        {
          "internalType": "bool",
          "name": "",
          "type": "bool"
        }
      ],
      "stateMutability": "nonpayable",
      "type": "function"
    },
    {
      "inputs": [
        {
          "internalType": "address",
          "name": "newOwner",
          "type": "address"
        }
      ],
      "name": "transferOwnership",
      "outputs": [],
      "stateMutability": "nonpayable",
      "type": "function"
    },
    {
      "inputs": [
        {
          "internalType": "address",
          "name": "_to",
          "type": "address"
        },
        {
          "internalType": "uint256",
          "name": "_amount",
          "type": "uint256"
        }
      ],
      "name": "transferTON",
      "outputs": [
        {
          "internalType": "bool",
          "name": "",
          "type": "bool"
        }
      ],
      "stateMutability": "nonpayable",
      "type": "function"
    },
    {
      "inputs": [
        {
          "internalType": "address",
          "name": "_to",
          "type": "address"
        },
        {
          "internalType": "uint256",
          "name": "_tokenId",
          "type": "uint256"
        }
      ],
      "name": "transferTreasuryGEMto",
      "outputs": [
        {
          "internalType": "bool",
          "name": "",
          "type": "bool"
        }
      ],
      "stateMutability": "nonpayable",
      "type": "function"
    },
    {
      "inputs": [
        {
          "internalType": "address",
          "name": "_to",
          "type": "address"
        },
        {
          "internalType": "uint256",
          "name": "_amount",
          "type": "uint256"
        }
      ],
      "name": "transferWSTON",
      "outputs": [
        {
          "internalType": "bool",
          "name": "",
          "type": "bool"
        }
      ],
      "stateMutability": "nonpayable",
      "type": "function"
    },
    {
      "inputs": [],
      "name": "unpause",
      "outputs": [],
      "stateMutability": "nonpayable",
      "type": "function"
    }
  ],
  "bytecode": "0x608080604052346027576001600455600c805460ff60a01b19169055612f21908161002d8239f35b600080fdfe6080604052600436101561001257600080fd5b6000803560e01c80630169dc311461230757806301ffc9a7146122b057806302424ed3146121f3578063044bc779146121ca57806308ec897d146121ad57806312608dfb146120bf578063150b7a0214612055578063247ee3881461200d578063248a9ca314611fe057806324d7806c14611f885780632e0f262514611f615780632ede643214611df15780632f2ff15d14611db357806330568a8d14611d2057806336568abe14611cea578063389ed26714611cc15780633b22f11014611ca65780633d007e5714611c7d5780633f4ba83a14611c0957806340e5854814611b36578063425c7fc21461143657806346fbf68e146113de57806348dbcef0146112f05780634d288fec146112a857806350d2a27614611263578063550d01a31461122457806363a8fd8914611202578063694eaa40146111d95780636ae638d0146111b05780636b2c0f55146110d65780636fcf2fc91461102e5780637048027514610fe057806372820dbc14610f4d57806375b238fc14610f2457806379dbd79814610d4457806382dc1ec414610cf15780638456cb5914610c7c5780638f32d59b14610c57578063912b431b1461094e57806391d1485414610902578063952377f3146108d957806398d111b21461081a5780639a202d47146107805780639d541be214610757578063a217fddf1461073b578063b23a1d0d146106a8578063b911135f14610675578063bae77ac914610652578063c0c53b8b14610582578063d547741f14610544578063e6147518146104b0578063ec23919a14610487578063ec7ae61d146103d2578063ed8c24721461033f5763f2fde38b1461027a57600080fd5b3461033c57602036600319011261033c576102936123fb565b6102a361029e61288b565b6126b6565b6001600160a01b038116801561032a5733146103185761030a9082805260056020526102d560016040852001546129d9565b6102de81612b36565b50600080516020612e8c8339815191528352600560205261030560016040852001546129d9565b612a1d565b5061031433612d1c565b5080f35b604051630a98f1f360e21b8152600490fd5b60405163d92e233d60e01b8152600490fd5b80fd5b503461033c57602036600319011261033c576103596123fb565b600080516020612e8c83398151915282526005602052604082203360005260205260ff6040600020541680156103bf575b61039390612642565b61039c816128ec565b600880546001600160a01b0319166001600160a01b039290921691909117905580f35b506103936103cb61288b565b905061038a565b503461033c57604036600319011261033c576103ec6123fb565b90604060243591600080516020612e8c83398151915281526005602052203360005260205260ff604060002054168015610474575b61042a90612642565b610433826128ec565b8061043c612728565b1061046257600b5461045792906001600160a01b031661290e565b602060405160018152f35b60405163a5a9c2b760e01b8152600490fd5b5061042a61048061288b565b9050610421565b503461033c578060031936011261033c576008546040516001600160a01b039091168152602090f35b503461033c57602036600319011261033c576104ca6123fb565b600080516020612e8c83398151915282526005602052604082203360005260205260ff604060002054168015610531575b61050490612642565b600654906001600160a01b039061051c8284166128ec565b6001600160a01b031990921691161760065580f35b5061050461053d61288b565b90506104fb565b503461033c57604036600319011261033c57610314600435610564612411565b90808452600560205261057d60016040862001546129d9565b612d83565b503461033c57606036600319011261033c5761059c6123fb565b6105a4612411565b6044356001600160a01b038181169390929184900361064d5760ff600c5460a81c166106125782906105d533612b36565b5060018060a01b0319948560065416176006551683600a541617600a551690600b541617600b55600160a81b60ff60a81b19600c541617600c5580f35b60405162461bcd60e51b8152602060048201526013602482015272185b1c9958591e481a5b9a5d1a585b1a5e9959606a1b6044820152606490fd5b600080fd5b503461033c578060031936011261033c57602061066d6128ae565b604051908152f35b503461033c57602036600319011261033c57602090600435815260018252604060018060a01b0391205416604051908152f35b503461033c57602036600319011261033c576106c26123fb565b600080516020612e8c83398151915282526005602052604082203360005260205260ff604060002054168015610728575b6106fc90612642565b610705816128ec565b600c80546001600160a01b0319166001600160a01b039290921691909117905580f35b506106fc61073461288b565b90506106f3565b503461033c578060031936011261033c57602090604051908152f35b503461033c578060031936011261033c576006546040516001600160a01b039091168152602090f35b503461033c578060031936011261033c57600080516020612e8c83398151915281526005602052604081203360005260205260ff60406000205416156107c95761031433612c94565b60405162461bcd60e51b815260206004820152602360248201527f41757468436f6e74726f6c3a2043616c6c6572206973206e6f7420616e20616460448201526236b4b760e91b6064820152608490fd5b503461033c57602036600319011261033c57600080516020612e8c83398151915281526005602052604081203360005260205260ff6040600020541680156108c6575b61086690612642565b60075481906001600160a01b0316803b156108c3578180916024604051809481936356d6b49360e11b835260043560048401525af180156108b8576108a85750f35b6108b190612427565b61033c5780f35b6040513d84823e3d90fd5b50fd5b506108666108d261288b565b905061085d565b503461033c578060031936011261033c57600c546040516001600160a01b039091168152602090f35b503461033c57604036600319011261033c57604061091e612411565b9160043581526005602052209060018060a01b0316600052602052602060ff604060002054166040519015158152f35b503461033c57610100908160031936011261033c576004356006811015610c5357366043121561064d5760405161098481612450565b60648136821161064d576024905b828210610c3b57505050366083121561064d57604051936109b28561246b565b60e48536821161064d576064905b828210610c235750505060e4356001600160401b038111610c1f576109e99036906004016124e7565b9060018060a01b0395866008541633148015610c12575b8015610bff575b610a10906127a1565b610a186128ae565b96600654169360405197630265f21b60e51b895260209889816004818a5afa908115610bf4578991610bc7575b50604051630b513d9960e01b815290610a61600483018a612805565b8a826024818b5afa908115610bbc578a91610b8b575b610a819250612828565b11610b7957928794928792610aab979560405198899763975781b760e01b89526004890190612805565b84602488015b60028210610b59575050506064860184905b60048210610b3957505050610ae6859392849260e484015261010483019061284b565b03925af1918215610b2d5791610b00575b50604051908152f35b90508181813d8311610b26575b610b178183612486565b8101031261064d575138610af7565b503d610b0d565b604051903d90823e3d90fd5b825160ff1681528b988a98508b9650928301926001929092019101610ac3565b825160ff1681528c998b99508c9750928301926001929092019101610ab1565b60405163f2cd224d60e01b8152600490fd5b90508a82813d8311610bb5575b610ba28183612486565b8101031261064d57610a81915190610a77565b503d610b98565b6040513d8c823e3d90fd5b90508981813d8311610bed575b610bde8183612486565b8101031261064d575138610a45565b503d610bd4565b6040513d8b823e3d90fd5b50610a10610c0b61288b565b9050610a07565b5086600754163314610a00565b8480fd5b60208091610c30846124be565b8152019101906109c0565b60208091610c48846124be565b815201910190610992565b5080fd5b503461033c578060031936011261033c576020610c7261288b565b6040519015158152f35b503461033c578060031936011261033c57610c9861029e61288b565b600c5460ff8160a01c16610cb95760ff60a01b1916600160a01b17600c5580f35b60405162461bcd60e51b815260206004820152601060248201526f14185d5cd8589b194e881c185d5cd95960821b6044820152606490fd5b503461033c57602036600319011261033c57610314610d0e6123fb565b610d1961029e61288b565b600080516020612e6c83398151915283526005602052610d3f60016040852001546129d9565b612aac565b503461033c57806003196040368201126108c3576001600160401b03600435818111610f1f57610d78903690600401612562565b90602435908111610f1f57610d91903690600401612562565b600080516020612e8c83398151915284526005602052604084203360005260205260ff604060002054168015610f0c575b610dcb90612642565b60065460075460405163e985e9c560e01b81526001600160a01b039283169183169060208180610dff85306004840161270e565b0381865afa908115610f01578891610ed2575b5015610e74575b505060075416803b15610c1f57610e54858094610e6360405197889687958694630f3b7af360e31b865260406004870152604486019061252e565b9184830301602485015261252e565b03925af180156108b8576108a85750f35b813b15610ece57869160448392604051948593849263a22cb46560e01b84526004840152600160248401525af1908115610ec357869115610e1957610eb890612427565b610c1f578438610e19565b6040513d88823e3d90fd5b8680fd5b610ef4915060203d602011610efa575b610eec8183612486565b810190612683565b38610e12565b503d610ee2565b6040513d8a823e3d90fd5b50610dcb610f1861288b565b9050610dc2565b505050fd5b503461033c578060031936011261033c576020604051600080516020612e8c8339815191528152f35b503461033c57602036600319011261033c57610f676123fb565b600080516020612e8c83398151915282526005602052604082203360005260205260ff604060002054168015610fcd575b610fa190612642565b610faa816128ec565b600980546001600160a01b0319166001600160a01b039290921691909117905580f35b50610fa1610fd961288b565b9050610f98565b503461033c57602036600319011261033c57610314610ffd6123fb565b61100861029e61288b565b600080516020612e8c8339815191528352600560205261030560016040852001546129d9565b503461033c57604036600319011261033c57806110496123fb565b600080516020612e8c83398151915282526005602052604082203360005260205260ff6040600020541680156110c3575b61108390612642565b6006546001600160a01b0316803b156110bf5760405163095ea7b360e01b81529183918391829084908290610e6390602435906004840161269b565b5050fd5b506110836110cf61288b565b905061107a565b503461033c57602036600319011261033c576110f06123fb565b600080516020612e6c83398151915282526005602052604082203360005260205260ff6040600020541680156111a2575b1561115157336001600160a01b0382160361113f5761031490612c0c565b60405163334bd91960e11b8152600490fd5b60405162461bcd60e51b815260206004820152602360248201527f41757468436f6e74726f6c3a2043616c6c6572206973206e6f7420612070617560448201526239b2b960e91b6064820152608490fd5b506111ab61288b565b611121565b503461033c578060031936011261033c57600b546040516001600160a01b039091168152602090f35b503461033c578060031936011261033c576007546040516001600160a01b039091168152602090f35b503461033c578060031936011261033c5760ff60209154166040519015158152f35b503461033c57602036600319011261033c5760209060ff906040906001600160a01b0361124f6123fb565b168152600284522054166040519015158152f35b503461033c57602036600319011261033c5760043563ffffffff60e01b8116809103610c535790602091815260038252604060018060a01b0391205416604051908152f35b503461033c57602036600319011261033c576112c26123fb565b6112cd61029e61288b565b600b80546001600160a01b0319166001600160a01b039290921691909117905580f35b503461033c57604036600319011261033c5761130a6123fb565b6006546001600160a01b039081169183919033841480156113d1575b80156113c4575b80156113b7575b80156113a4575b611344906125c2565b833b156113a0576064908360405195869485936323b872dd60e01b855230600486015216602484015260243560448401525af180156108b85761138c57602060405160018152f35b6113968291612427565b61033c5780610457565b8280fd5b506113446113b061288b565b905061133b565b5081600954163314611334565b508160085416331461132d565b5081600754163314611326565b503461033c57602036600319011261033c5760406113fa6123fb565b91600080516020612e6c83398151915281526005602052209060018060a01b0316600052602052602060ff604060002054166040519015158152f35b503461033c57608036600319011261033c576004356001600160401b038111610c535736602382011215610c53578060040135611472816124a7565b916114806040519384612486565b81835260208301906024829360051b82010190368211611b3257602401915b818310611b19575050506024356001600160401b0381116117ec57366023820112156117ec578060040135916114d4836124a7565b926114e26040519485612486565b808452602084019081933660248360061b83010111611b155760248101925b60248360061b8301018410611abb57505050506001600160401b0360443511610c1f57366023604435011215610c1f576044356004013590611542826124a7565b926115506040519485612486565b8284526020840180933660248260071b604435010111611ab757602460443501915b60248260071b60443501018310611a5d575050506001600160401b0360643511610ece57366023606435011215610ece5760643560040135936115b4856124a7565b926115c26040519485612486565b8584526020840180963660248260051b606435010111611a5957602460643501915b60248260051b60643501018310611a225750505060018060a01b036008541633148015611a0e575b80156119fb575b61161c906127a1565b87516006546001600160a01b031697908a9081905b80821061193757505060046116446128ae565b9160208b60405193848092630265f21b60e51b82525afa801561192c578d906118f8575b6116729250612828565b11610b7957979593918997959391604051998a98630ff1ac6760e01b8a5260848a0190608060048c01525180915260a48a0192908b5b8181106118c3575050506020906003198a84030160248b01525191828152019290895b818110611871575050506020906003198884030160448901525191828152019290875b8181106118235750505060031985830301606486015251808252602082019160208260051b820101939287915b8383106117f05750505050508383809203925af19081156108b8578291611757575b604051602080825281906117539082018561252e565b0390f35b90503d8083833e6117688183612486565b8101906020818303126113a0578051906001600160401b0382116117ec570181601f820112156113a05780519061179e826124a7565b936117ac6040519586612486565b82855260208086019360051b83010193841161033c5750602001905b8282106117dc57505050611753903861173d565b81518152602091820191016117c8565b8380fd5b9295975092955092602080611811600193601f19868203018752895161284b565b9701930193018795938997959261171b565b929496509290809597505181908a915b60048310611858575050506020608060019201950191019088969492889694926116ee565b60208060019260ff855116815201920192019190611833565b9294969850929080959799505181908c915b600283106118aa57505050602060406001920195019101908a989694928a989694926116cb565b60208060019260ff855116815201920192019190611883565b929496989a5092819597999b506020816118e1829360019551612805565b0195019101908c9a989694928c9a989694926116a8565b506020823d602011611924575b8161191260209383612486565b8101031261064d576116729151611668565b3d9150611905565b6040513d8f823e3d90fd5b90918b518310156119e75760208360051b8d01015160068110156119d3578b60208f92602461197c916040519485938492630b513d9960e01b84526004840190612805565b5afa918215610b2d57916119a0575b5061199890600192612828565b920190611631565b90506020813d6020116119cb575b816119bb60209383612486565b8101031261064d5751600161198b565b3d91506119ae565b634e487b7160e01b8e52602160045260248efd5b634e487b7160e01b8d52603260045260248dfd5b5061161c611a0761288b565b9050611613565b506007546001600160a01b0316331461160c565b6001600160401b03833511611a5557602080602492611a483685883560643501016124e7565b81520193019290506115e4565b8b80fd5b8a80fd5b36601f8401121561064d57604051611a748161246b565b8036608086011161064d5784905b608086018210611a9f575050815260809290920191602001611572565b60208091611aac846124be565b815201910190611a82565b8880fd5b36601f8501121561064d57604051611ad281612450565b8036604087011161064d5785905b604087018210611afd575050815260409390930192602001611501565b60208091611b0a846124be565b815201910190611ae0565b8780fd5b82356006811015610ece5781526020928301920161149f565b8580fd5b503461033c57602036600319011261033c576007546001600160a01b0390811633819003611bb557611b8b6020918493600a54169060405194858094819363095ea7b360e01b8352600435906004840161269b565b03925af180156108b857611b9d575080f35b6103149060203d602011610efa57610eec8183612486565b60405162461bcd60e51b815260206004820152602660248201527f63616c6c6572206973206e6f7420746865206d61726b6574706c61636520636f6044820152651b9d1c9858dd60d21b6064820152608490fd5b503461033c578060031936011261033c57611c2561029e61288b565b600c5460ff8160a01c1615611c415760ff60a01b1916600c5580f35b60405162461bcd60e51b815260206004820152601460248201527314185d5cd8589b194e881b9bdd081c185d5cd95960621b6044820152606490fd5b503461033c578060031936011261033c576009546040516001600160a01b039091168152602090f35b503461033c578060031936011261033c57602061066d612728565b503461033c578060031936011261033c576020604051600080516020612e6c8339815191528152f35b503461033c57604036600319011261033c57611d04612411565b336001600160a01b0382160361113f5761031490600435612d83565b503461033c57602036600319011261033c57611d3a6123fb565b600080516020612e8c83398151915282526005602052604082203360005260205260ff604060002054168015611da0575b611d7490612642565b611d7d816128ec565b600780546001600160a01b0319166001600160a01b039290921691909117905580f35b50611d74611dac61288b565b9050611d6b565b503461033c57604036600319011261033c57610314600435611dd3612411565b908084526005602052611dec60016040862001546129d9565b612ba3565b503461033c57604036600319011261033c57600080516020612e8c83398151915281526005602052604081203360005260205260ff604060002054168015611f4e575b611e3d90612642565b8060018060a01b038060065416816007541660405163e985e9c560e01b815260208180611e6e85306004840161270e565b0381865afa908115611f43578591611f24575b5015611eca575b505060075416803b156108c35781809160446040518094819363176f321960e11b8352600435600484015260243560248401525af180156108b8576108a85750f35b813b15610f1f57839160448392604051948593849263a22cb46560e01b84526004840152600160248401525af1908115611f1957839115611e8857611f0e90612427565b6108c3578138611e88565b6040513d85823e3d90fd5b611f3d915060203d602011610efa57610eec8183612486565b38611e81565b6040513d87823e3d90fd5b50611e3d611f5a61288b565b9050611e34565b503461033c578060031936011261033c57604051676765c793fa10079d601b1b8152602090f35b503461033c57602036600319011261033c576040611fa46123fb565b91600080516020612e8c83398151915281526005602052209060018060a01b0316600052602052602060ff604060002054166040519015158152f35b503461033c57602036600319011261033c5760016040602092600435815260058452200154604051908152f35b503461033c57602036600319011261033c576120276123fb565b61203261029e61288b565b600a80546001600160a01b0319166001600160a01b039290921691909117905580f35b503461033c57608036600319011261033c5761206f6123fb565b50612078612411565b506064356001600160401b038082116113a057366023830112156113a05781600401359081116113a0573691016024011161033c57604051630a85bd0160e11b8152602090f35b503461033c576020908160031936011261033c57600c546001600160a01b0390811690338214801561219f575b1561215e5761212683928592600b541690612106826128ec565b60405195868094819363095ea7b360e01b8352600435906004840161269b565b03925af1908115610b2d5750612141575b5060405160018152f35b61215790823d8411610efa57610eec8183612486565b5038612137565b60405162461bcd60e51b815260048101859052601960248201527831b0b63632b91034b9903737ba103a34329029bbb0b83832b960391b6044820152606490fd5b506121a861288b565b6120ec565b503461033c578060031936011261033c5760206040516127108152f35b503461033c578060031936011261033c57600a546040516001600160a01b039091168152602090f35b503461033c57604036600319011261033c57806024358015158091036108c357600080516020612e8c833981519152825260056020526040822033835260205260ff604083205416801561229d575b61224b90612642565b6007546001600160a01b0316803b156110bf576044839260405194859384926302424ed360e01b8452600435600485015260248401525af180156108b857612291575080f35b61229a90612427565b80f35b5061224b6122a961288b565b9050612242565b503461033c57602036600319011261033c5760043563ffffffff60e01b8116809103610c5357602090637965db0b60e01b81149081156122f6575b506040519015158152f35b6301ffc9a760e01b149050826122eb565b503461033c57604036600319011261033c576123216123fb565b6006546001600160a01b0391602435918316331480156123ee575b80156123e1575b80156123d4575b80156123c1575b61235a906125c2565b6002600454146123af576002600455612372816128ec565b8161237b6128ae565b1061239d5761238d92600a541661290e565b6001600455602060405160018152f35b604051638e85197360e01b8152600490fd5b604051633ee5aeb560e01b8152600490fd5b5061235a6123cd61288b565b9050612351565b508260095416331461234a565b5082600854163314612343565b508260075416331461233c565b600435906001600160a01b038216820361064d57565b602435906001600160a01b038216820361064d57565b6001600160401b03811161243a57604052565b634e487b7160e01b600052604160045260246000fd5b604081019081106001600160401b0382111761243a57604052565b608081019081106001600160401b0382111761243a57604052565b90601f801991011681019081106001600160401b0382111761243a57604052565b6001600160401b03811161243a5760051b60200190565b359060ff8216820361064d57565b6001600160401b03811161243a57601f01601f191660200190565b81601f8201121561064d578035906124fe826124cc565b9261250c6040519485612486565b8284526020838301011161064d57816000926020809301838601378301015290565b90815180825260208080930193019160005b82811061254e575050505090565b835185529381019392810192600101612540565b9080601f8301121561064d57602090823561257c816124a7565b9361258a6040519586612486565b81855260208086019260051b82010192831161064d57602001905b8282106125b3575050505090565b813581529083019083016125a5565b156125c957565b60405162461bcd60e51b815260206004820152604560248201527f63616c6c6572206973206e656974686572204f776e6572206e6f722047656d4660448201527f6163746f7279206e6f72204d61726b6574506c616365206e6f722052616e646f6064820152646d5061636b60d81b608482015260a490fd5b1561264957565b60405162461bcd60e51b81526020600482015260126024820152713737ba1027bbb732b91037b91020b236b4b760711b6044820152606490fd5b9081602091031261064d5751801515810361064d5790565b6001600160a01b039091168152602081019190915260400190565b156126bd57565b60405162461bcd60e51b8152602060048201526024808201527f41757468436f6e74726f6c3a2043616c6c6572206973206e6f7420746865206f6044820152633bb732b960e11b6064820152608490fd5b6001600160a01b0391821681529116602082015260400190565b600b546040516370a0823160e01b815230600482015290602090829060249082906001600160a01b03165afa90811561279557600091612766575090565b90506020813d60201161278d575b8161278160209383612486565b8101031261064d575190565b3d9150612774565b6040513d6000823e3d90fd5b156127a857565b60405162461bcd60e51b815260206004820152602f60248201527f63616c6c6572206973206e656974686572206f776e6572206e6f722072616e6460448201526e1bdb541858dac818dbdb9d1c9858dd608a1b6064820152608490fd5b9060068210156128125752565b634e487b7160e01b600052602160045260246000fd5b9190820180921161283557565b634e487b7160e01b600052601160045260246000fd5b919082519283825260005b848110612877575050826000602080949584010152601f8019910116010190565b602081830181015184830182015201612856565b336000908152600080516020612ecc833981519152602052604090205460ff1690565b600a546040516370a0823160e01b815230600482015290602090829060249082906001600160a01b03165afa90811561279557600091612766575090565b6001600160a01b0316156128fc57565b60405163e6c4247b60e01b8152600490fd5b600061298892819261294961293b96604051978891602083019563a9059cbb60e01b87526024840161269b565b03601f198101885287612486565b60018060a01b031694519082865af13d156129d1573d90612969826124cc565b916129776040519384612486565b82523d6000602084013e5b83612de8565b80519081151591826129b6575b505061299e5750565b60249060405190635274afe760e01b82526004820152fd5b6129c99250602080918301019101612683565b153880612995565b606090612982565b80600052600560205260406000203360005260205260ff60406000205416156129ff5750565b6044906040519063e2517d3f60e01b82523360048301526024820152fd5b6001600160a01b031660008181527f09f04f5809d5be59813a33617d16f069caae874a6b34f03139f63d934daddae66020526040812054909190600080516020612e8c8339815191529060ff16612aa75780835260056020526040832082845260205260408320600160ff19825416179055600080516020612e4c833981519152339380a4600190565b505090565b6001600160a01b031660008181527f787f97f3270d439d97068e73d6d75a066b24f84c342661f177d4e43e00e9f5136020526040812054909190600080516020612e6c8339815191529060ff16612aa75780835260056020526040832082845260205260408320600160ff19825416179055600080516020612e4c833981519152339380a4600190565b6001600160a01b03166000818152600080516020612ecc833981519152602052604081205490919060ff16612b9f5781805260056020526040822081835260205260408220600160ff198254161790553391600080516020612e4c8339815191528180a4600190565b5090565b906000918083526005602052604083209160018060a01b03169182845260205260ff60408420541615600014612aa75780835260056020526040832082845260205260408320600160ff19825416179055600080516020612e4c833981519152339380a4600190565b6001600160a01b031660008181527f787f97f3270d439d97068e73d6d75a066b24f84c342661f177d4e43e00e9f5136020526040812054909190600080516020612e6c8339815191529060ff1615612aa7578083526005602052604083208284526020526040832060ff198154169055600080516020612eac833981519152339380a4600190565b6001600160a01b031660008181527f09f04f5809d5be59813a33617d16f069caae874a6b34f03139f63d934daddae66020526040812054909190600080516020612e8c8339815191529060ff1615612aa7578083526005602052604083208284526020526040832060ff198154169055600080516020612eac833981519152339380a4600190565b6001600160a01b03166000818152600080516020612ecc833981519152602052604081205490919060ff1615612b9f578180526005602052604082208183526020526040822060ff1981541690553391600080516020612eac8339815191528180a4600190565b906000918083526005602052604083209160018060a01b03169182845260205260ff604084205416600014612aa7578083526005602052604083208284526020526040832060ff198154169055600080516020612eac833981519152339380a4600190565b90612e0f5750805115612dfd57805190602001fd5b604051630a12f52160e11b8152600490fd5b81511580612e42575b612e20575090565b604051639996b31560e01b81526001600160a01b039091166004820152602490fd5b50803b15612e1856fe2f8788117e7eff1d82e926ec794901d17c78024a50270940304540a733656f0dfcb9fcbfa83b897fb2d5cf4b58962164105c1e71489a37ef3ae0db3fdce576f6df8b4c520ffe197c5343c6f5aec59570151ef9a492f2c624fd45ddde6135ec42f6391f5c32d9c69d2a47ea670b442974b53935d1edc7fd64eb21e047a839171b05b8ccbb9d4d8fb16ea74ce3c29a41f1b461fbdaff4714a0d9a8eb05499746bca2646970667358221220da32dad76643d635f5ba22483bee6ea5c25f847d7f7a898a236ef0deff6636a664736f6c63430008190033",
  "linkReferences": {},
  "deployedLinkReferences": {}
}