{
  "_format": "hh-sol-artifact-1",
  "contractName": "MarketPlace",
  "sourceName": "src/L2/MarketPlace.sol",
  "abi": [
    {
      "inputs": [],
      "name": "AccessControlBadConfirmation",
      "type": "error"
    },
    {
      "inputs": [
        {
          "internalType": "address",
          "name": "account",
          "type": "address"
        },
        {
          "internalType": "bytes32",
          "name": "neededRole",
          "type": "bytes32"
        }
      ],
      "name": "AccessControlUnauthorizedAccount",
      "type": "error"
    },
    {
      "inputs": [],
      "name": "AddressZero",
      "type": "error"
    },
    {
      "inputs": [],
      "name": "AlreadyInitialized",
      "type": "error"
    },
    {
      "inputs": [
        {
          "internalType": "string",
          "name": "errorMessage",
          "type": "string"
        }
      ],
      "name": "BuyerIsSeller",
      "type": "error"
    },
    {
      "inputs": [],
      "name": "FailedToPay",
      "type": "error"
    },
    {
      "inputs": [],
      "name": "FailedToSendFeesToTreasury",
      "type": "error"
    },
    {
      "inputs": [],
      "name": "GemIsAlreadyForSaleOrIsMining",
      "type": "error"
    },
    {
      "inputs": [],
      "name": "GemIsNotForSale",
      "type": "error"
    },
    {
      "inputs": [],
      "name": "GemNotApproved",
      "type": "error"
    },
    {
      "inputs": [],
      "name": "ListingGemFailed",
      "type": "error"
    },
    {
      "inputs": [],
      "name": "NoTokens",
      "type": "error"
    },
    {
      "inputs": [],
      "name": "NotGemOwner",
      "type": "error"
    },
    {
      "inputs": [],
      "name": "NotPaused",
      "type": "error"
    },
    {
      "inputs": [],
      "name": "Paused",
      "type": "error"
    },
    {
      "inputs": [],
      "name": "PurchaseFailed",
      "type": "error"
    },
    {
      "inputs": [],
      "name": "ReentrancyGuardReentrantCall",
      "type": "error"
    },
    {
      "inputs": [],
      "name": "SameAdmin",
      "type": "error"
    },
    {
      "inputs": [],
      "name": "SameOwner",
      "type": "error"
    },
    {
      "inputs": [],
      "name": "WrongLength",
      "type": "error"
    },
    {
      "inputs": [],
      "name": "WrongMsgValue",
      "type": "error"
    },
    {
      "inputs": [],
      "name": "WrongPrice",
      "type": "error"
    },
    {
      "inputs": [],
      "name": "WrongSeller",
      "type": "error"
    },
    {
      "inputs": [],
      "name": "WrongStakingIndex",
      "type": "error"
    },
    {
      "inputs": [],
      "name": "ZeroAddress",
      "type": "error"
    },
    {
      "anonymous": false,
      "inputs": [
        {
          "indexed": false,
          "internalType": "uint256",
          "name": "tokenId",
          "type": "uint256"
        },
        {
          "indexed": false,
          "internalType": "address",
          "name": "payer",
          "type": "address"
        },
        {
          "indexed": false,
          "internalType": "address",
          "name": "seller",
          "type": "address"
        },
        {
          "indexed": false,
          "internalType": "uint256",
          "name": "amount",
          "type": "uint256"
        },
        {
          "indexed": false,
          "internalType": "uint256",
          "name": "gemCoolDownDueDate",
          "type": "uint256"
        }
      ],
      "name": "GemBought",
      "type": "event"
    },
    {
      "anonymous": false,
      "inputs": [
        {
          "indexed": false,
          "internalType": "address",
          "name": "gemfactory",
          "type": "address"
        }
      ],
      "name": "GemFactoryAddressUpdated",
      "type": "event"
    },
    {
      "anonymous": false,
      "inputs": [
        {
          "indexed": false,
          "internalType": "uint256",
          "name": "tokenId",
          "type": "uint256"
        },
        {
          "indexed": false,
          "internalType": "address",
          "name": "seller",
          "type": "address"
        },
        {
          "indexed": false,
          "internalType": "uint256",
          "name": "price",
          "type": "uint256"
        }
      ],
      "name": "GemForSale",
      "type": "event"
    },
    {
      "anonymous": false,
      "inputs": [
        {
          "indexed": false,
          "internalType": "address",
          "name": "seller",
          "type": "address"
        },
        {
          "indexed": false,
          "internalType": "uint256",
          "name": "tokenId",
          "type": "uint256"
        }
      ],
      "name": "GemRemovedFromSale",
      "type": "event"
    },
    {
      "anonymous": false,
      "inputs": [
        {
          "indexed": true,
          "internalType": "bytes32",
          "name": "role",
          "type": "bytes32"
        },
        {
          "indexed": true,
          "internalType": "bytes32",
          "name": "previousAdminRole",
          "type": "bytes32"
        },
        {
          "indexed": true,
          "internalType": "bytes32",
          "name": "newAdminRole",
          "type": "bytes32"
        }
      ],
      "name": "RoleAdminChanged",
      "type": "event"
    },
    {
      "anonymous": false,
      "inputs": [
        {
          "indexed": true,
          "internalType": "bytes32",
          "name": "role",
          "type": "bytes32"
        },
        {
          "indexed": true,
          "internalType": "address",
          "name": "account",
          "type": "address"
        },
        {
          "indexed": true,
          "internalType": "address",
          "name": "sender",
          "type": "address"
        }
      ],
      "name": "RoleGranted",
      "type": "event"
    },
    {
      "anonymous": false,
      "inputs": [
        {
          "indexed": true,
          "internalType": "bytes32",
          "name": "role",
          "type": "bytes32"
        },
        {
          "indexed": true,
          "internalType": "address",
          "name": "account",
          "type": "address"
        },
        {
          "indexed": true,
          "internalType": "address",
          "name": "sender",
          "type": "address"
        }
      ],
      "name": "RoleRevoked",
      "type": "event"
    },
    {
      "anonymous": false,
      "inputs": [
        {
          "indexed": false,
          "internalType": "uint256",
          "name": "discountRate",
          "type": "uint256"
        }
      ],
      "name": "SetDiscountRate",
      "type": "event"
    },
    {
      "anonymous": false,
      "inputs": [
        {
          "indexed": false,
          "internalType": "uint256",
          "name": "stakingIndex",
          "type": "uint256"
        }
      ],
      "name": "SetStakingIndex",
      "type": "event"
    },
    {
      "anonymous": false,
      "inputs": [
        {
          "indexed": false,
          "internalType": "uint256",
          "name": "tokenId",
          "type": "uint256"
        },
        {
          "indexed": false,
          "internalType": "address",
          "name": "claimer",
          "type": "address"
        }
      ],
      "name": "WSTONClaimed",
      "type": "event"
    },
    {
      "inputs": [],
      "name": "ADMIN_ROLE",
      "outputs": [
        {
          "internalType": "bytes32",
          "name": "",
          "type": "bytes32"
        }
      ],
      "stateMutability": "view",
      "type": "function"
    },
    {
      "inputs": [],
      "name": "DECIMALS",
      "outputs": [
        {
          "internalType": "uint256",
          "name": "",
          "type": "uint256"
        }
      ],
      "stateMutability": "view",
      "type": "function"
    },
    {
      "inputs": [],
      "name": "DEFAULT_ADMIN_ROLE",
      "outputs": [
        {
          "internalType": "bytes32",
          "name": "",
          "type": "bytes32"
        }
      ],
      "stateMutability": "view",
      "type": "function"
    },
    {
      "inputs": [],
      "name": "PAUSE_ROLE",
      "outputs": [
        {
          "internalType": "bytes32",
          "name": "",
          "type": "bytes32"
        }
      ],
      "stateMutability": "view",
      "type": "function"
    },
    {
      "inputs": [],
      "name": "TON_FEES_RATE_DIVIDER",
      "outputs": [
        {
          "internalType": "uint256",
          "name": "",
          "type": "uint256"
        }
      ],
      "stateMutability": "view",
      "type": "function"
    },
    {
      "inputs": [
        {
          "internalType": "address",
          "name": "account",
          "type": "address"
        }
      ],
      "name": "addAdmin",
      "outputs": [],
      "stateMutability": "nonpayable",
      "type": "function"
    },
    {
      "inputs": [
        {
          "internalType": "address",
          "name": "account",
          "type": "address"
        }
      ],
      "name": "addPauser",
      "outputs": [],
      "stateMutability": "nonpayable",
      "type": "function"
    },
    {
      "inputs": [
        {
          "internalType": "address",
          "name": "",
          "type": "address"
        }
      ],
      "name": "aliveImplementation",
      "outputs": [
        {
          "internalType": "bool",
          "name": "",
          "type": "bool"
        }
      ],
      "stateMutability": "view",
      "type": "function"
    },
    {
      "inputs": [
        {
          "internalType": "uint256",
          "name": "_tokenId",
          "type": "uint256"
        },
        {
          "internalType": "bool",
          "name": "_paymentMethod",
          "type": "bool"
        }
      ],
      "name": "buyGem",
      "outputs": [],
      "stateMutability": "nonpayable",
      "type": "function"
    },
    {
      "inputs": [
        {
          "internalType": "uint256",
          "name": "",
          "type": "uint256"
        }
      ],
      "name": "gemsForSale",
      "outputs": [
        {
          "internalType": "address",
          "name": "seller",
          "type": "address"
        },
        {
          "internalType": "uint256",
          "name": "price",
          "type": "uint256"
        },
        {
          "internalType": "bool",
          "name": "isActive",
          "type": "bool"
        }
      ],
      "stateMutability": "view",
      "type": "function"
    },
    {
      "inputs": [],
      "name": "getGemFactoryAddress",
      "outputs": [
        {
          "internalType": "address",
          "name": "",
          "type": "address"
        }
      ],
      "stateMutability": "view",
      "type": "function"
    },
    {
      "inputs": [
        {
          "internalType": "uint256",
          "name": "_tokenId",
          "type": "uint256"
        }
      ],
      "name": "getGemForSale",
      "outputs": [
        {
          "components": [
            {
              "internalType": "address",
              "name": "seller",
              "type": "address"
            },
            {
              "internalType": "uint256",
              "name": "price",
              "type": "uint256"
            },
            {
              "internalType": "bool",
              "name": "isActive",
              "type": "bool"
            }
          ],
          "internalType": "struct MarketPlaceStorage.Sale",
          "name": "",
          "type": "tuple"
        }
      ],
      "stateMutability": "view",
      "type": "function"
    },
    {
      "inputs": [],
      "name": "getPauseStatus",
      "outputs": [
        {
          "internalType": "bool",
          "name": "",
          "type": "bool"
        }
      ],
      "stateMutability": "view",
      "type": "function"
    },
    {
      "inputs": [],
      "name": "getPaused",
      "outputs": [
        {
          "internalType": "bool",
          "name": "",
          "type": "bool"
        }
      ],
      "stateMutability": "view",
      "type": "function"
    },
    {
      "inputs": [
        {
          "internalType": "bytes32",
          "name": "role",
          "type": "bytes32"
        }
      ],
      "name": "getRoleAdmin",
      "outputs": [
        {
          "internalType": "bytes32",
          "name": "",
          "type": "bytes32"
        }
      ],
      "stateMutability": "view",
      "type": "function"
    },
    {
      "inputs": [],
      "name": "getStakingIndex",
      "outputs": [
        {
          "internalType": "uint256",
          "name": "",
          "type": "uint256"
        }
      ],
      "stateMutability": "view",
      "type": "function"
    },
    {
      "inputs": [],
      "name": "getTonAddress",
      "outputs": [
        {
          "internalType": "address",
          "name": "",
          "type": "address"
        }
      ],
      "stateMutability": "view",
      "type": "function"
    },
    {
      "inputs": [],
      "name": "getTonFeesRate",
      "outputs": [
        {
          "internalType": "uint256",
          "name": "",
          "type": "uint256"
        }
      ],
      "stateMutability": "view",
      "type": "function"
    },
    {
      "inputs": [],
      "name": "getTreasuryAddress",
      "outputs": [
        {
          "internalType": "address",
          "name": "",
          "type": "address"
        }
      ],
      "stateMutability": "view",
      "type": "function"
    },
    {
      "inputs": [],
      "name": "getWstonAddress",
      "outputs": [
        {
          "internalType": "address",
          "name": "",
          "type": "address"
        }
      ],
      "stateMutability": "view",
      "type": "function"
    },
    {
      "inputs": [
        {
          "internalType": "bytes32",
          "name": "role",
          "type": "bytes32"
        },
        {
          "internalType": "address",
          "name": "account",
          "type": "address"
        }
      ],
      "name": "grantRole",
      "outputs": [],
      "stateMutability": "nonpayable",
      "type": "function"
    },
    {
      "inputs": [
        {
          "internalType": "bytes32",
          "name": "role",
          "type": "bytes32"
        },
        {
          "internalType": "address",
          "name": "account",
          "type": "address"
        }
      ],
      "name": "hasRole",
      "outputs": [
        {
          "internalType": "bool",
          "name": "",
          "type": "bool"
        }
      ],
      "stateMutability": "view",
      "type": "function"
    },
    {
      "inputs": [
        {
          "internalType": "address",
          "name": "_treasury",
          "type": "address"
        },
        {
          "internalType": "address",
          "name": "_gemfactory",
          "type": "address"
        },
        {
          "internalType": "uint256",
          "name": "_tonFeesRate",
          "type": "uint256"
        },
        {
          "internalType": "address",
          "name": "_wston",
          "type": "address"
        },
        {
          "internalType": "address",
          "name": "_ton",
          "type": "address"
        }
      ],
      "name": "initialize",
      "outputs": [],
      "stateMutability": "nonpayable",
      "type": "function"
    },
    {
      "inputs": [
        {
          "internalType": "address",
          "name": "account",
          "type": "address"
        }
      ],
      "name": "isAdmin",
      "outputs": [
        {
          "internalType": "bool",
          "name": "",
          "type": "bool"
        }
      ],
      "stateMutability": "view",
      "type": "function"
    },
    {
      "inputs": [],
      "name": "isOwner",
      "outputs": [
        {
          "internalType": "bool",
          "name": "",
          "type": "bool"
        }
      ],
      "stateMutability": "view",
      "type": "function"
    },
    {
      "inputs": [
        {
          "internalType": "address",
          "name": "account",
          "type": "address"
        }
      ],
      "name": "isPauser",
      "outputs": [
        {
          "internalType": "bool",
          "name": "",
          "type": "bool"
        }
      ],
      "stateMutability": "view",
      "type": "function"
    },
    {
      "inputs": [],
      "name": "pause",
      "outputs": [],
      "stateMutability": "nonpayable",
      "type": "function"
    },
    {
      "inputs": [],
      "name": "pauseProxy",
      "outputs": [
        {
          "internalType": "bool",
          "name": "",
          "type": "bool"
        }
      ],
      "stateMutability": "view",
      "type": "function"
    },
    {
      "inputs": [
        {
          "internalType": "uint256",
          "name": "",
          "type": "uint256"
        }
      ],
      "name": "proxyImplementation",
      "outputs": [
        {
          "internalType": "address",
          "name": "",
          "type": "address"
        }
      ],
      "stateMutability": "view",
      "type": "function"
    },
    {
      "inputs": [
        {
          "internalType": "uint256",
          "name": "_tokenId",
          "type": "uint256"
        },
        {
          "internalType": "uint256",
          "name": "_price",
          "type": "uint256"
        }
      ],
      "name": "putGemForSale",
      "outputs": [],
      "stateMutability": "nonpayable",
      "type": "function"
    },
    {
      "inputs": [
        {
          "internalType": "uint256[]",
          "name": "tokenIds",
          "type": "uint256[]"
        },
        {
          "internalType": "uint256[]",
          "name": "prices",
          "type": "uint256[]"
        }
      ],
      "name": "putGemListForSale",
      "outputs": [],
      "stateMutability": "nonpayable",
      "type": "function"
    },
    {
      "inputs": [],
      "name": "removeAdmin",
      "outputs": [],
      "stateMutability": "nonpayable",
      "type": "function"
    },
    {
      "inputs": [
        {
          "internalType": "uint256",
          "name": "_tokenId",
          "type": "uint256"
        }
      ],
      "name": "removeGemForSale",
      "outputs": [],
      "stateMutability": "nonpayable",
      "type": "function"
    },
    {
      "inputs": [
        {
          "internalType": "address",
          "name": "account",
          "type": "address"
        }
      ],
      "name": "removePauser",
      "outputs": [],
      "stateMutability": "nonpayable",
      "type": "function"
    },
    {
      "inputs": [
        {
          "internalType": "bytes32",
          "name": "role",
          "type": "bytes32"
        },
        {
          "internalType": "address",
          "name": "callerConfirmation",
          "type": "address"
        }
      ],
      "name": "renounceRole",
      "outputs": [],
      "stateMutability": "nonpayable",
      "type": "function"
    },
    {
      "inputs": [
        {
          "internalType": "bytes32",
          "name": "role",
          "type": "bytes32"
        },
        {
          "internalType": "address",
          "name": "account",
          "type": "address"
        }
      ],
      "name": "revokeRole",
      "outputs": [],
      "stateMutability": "nonpayable",
      "type": "function"
    },
    {
      "inputs": [
        {
          "internalType": "bytes4",
          "name": "",
          "type": "bytes4"
        }
      ],
      "name": "selectorImplementation",
      "outputs": [
        {
          "internalType": "address",
          "name": "",
          "type": "address"
        }
      ],
      "stateMutability": "view",
      "type": "function"
    },
    {
      "inputs": [
        {
          "internalType": "uint256",
          "name": "_tonFeesRate",
          "type": "uint256"
        }
      ],
      "name": "setDiscountRate",
      "outputs": [],
      "stateMutability": "nonpayable",
      "type": "function"
    },
    {
      "inputs": [
        {
          "internalType": "address",
          "name": "_gemFactory",
          "type": "address"
        }
      ],
      "name": "setGemFactory",
      "outputs": [],
      "stateMutability": "nonpayable",
      "type": "function"
    },
    {
      "inputs": [
        {
          "internalType": "uint256",
          "name": "_stakingIndex",
          "type": "uint256"
        }
      ],
      "name": "setStakingIndex",
      "outputs": [],
      "stateMutability": "nonpayable",
      "type": "function"
    },
    {
      "inputs": [
        {
          "internalType": "address",
          "name": "_ton",
          "type": "address"
        }
      ],
      "name": "setTon",
      "outputs": [],
      "stateMutability": "nonpayable",
      "type": "function"
    },
    {
      "inputs": [
        {
          "internalType": "address",
          "name": "_wston",
          "type": "address"
        }
      ],
      "name": "setWston",
      "outputs": [],
      "stateMutability": "nonpayable",
      "type": "function"
    },
    {
      "inputs": [
        {
          "internalType": "bytes4",
          "name": "interfaceId",
          "type": "bytes4"
        }
      ],
      "name": "supportsInterface",
      "outputs": [
        {
          "internalType": "bool",
          "name": "",
          "type": "bool"
        }
      ],
      "stateMutability": "view",
      "type": "function"
    },
    {
      "inputs": [
        {
          "internalType": "address",
          "name": "newOwner",
          "type": "address"
        }
      ],
      "name": "transferOwnership",
      "outputs": [],
      "stateMutability": "nonpayable",
      "type": "function"
    },
    {
      "inputs": [],
      "name": "unpause",
      "outputs": [],
      "stateMutability": "nonpayable",
      "type": "function"
    }
  ],
  "bytecode": "0x608080604052346035576b033b2e3c9fd0803ce8000000600a5561ffff19600b5416600b556001600c556120d9908161003b8239f35b600080fdfe608060408181526004908136101561001657600080fd5b600092833560e01c90816301ffc9a7146117705750806302424ed3146110cb578063044bc779146110a257806308ec897d146110855780631d9023cb14610bcd578063247ee3881461103d578063248a9ca31461101257806324d7806c14610fbd5780632e0f262514610f975780632ede643214610ecc5780632f2ff15d14610ea457806333e1a22314610de857806336568abe14610da1578063389ed26714610d785780633f4ba83a14610d3557806346fbf68e14610ce05780634d288fec14610c955780635074e0c814610c7657806350d2a27614610c32578063550d01a314610bf457806363a8fd8914610bd25780636805b84b14610bcd5780636ae638d014610ba45780636b2c0f5514610ad05780637048027514610a8157806375b238fc14610a5857806379dbd798146108ee5780637c69febd1461089d57806382dc1ec4146108495780638456cb59146108045780638f32d59b146107de57806391d14854146107985780639a202d47146107015780639c41b42b146106b55780639d541be21461068c578063a217fddf14610671578063a69c8fb214610652578063adad6926146104d1578063b911135f1461049e578063c255bf161461041c578063ce49a360146103aa578063d547741f14610370578063e002460414610347578063e6147518146102d15763f2fde38b1461021357600080fd5b346102cd5760203660031901126102cd5761022c6117e7565b9161023d61023861197f565b6118de565b6001600160a01b03831680156102be5733146102b057509061029d60016102a293858052600d602052610274828288200154611bf4565b61027d84611c38565b506000805160206120648339815191528652600d60205285200154611bf4565b611ca5565b506102ac33611f37565b5080f35b9051630a98f1f360e21b8152fd5b50905163d92e233d60e01b8152fd5b8280fd5b8382346103435760203660031901126103435760207fed7acc23c47775012c7b3a370974b91aefab1849cacf173b5ea54273abb48156916103106117e7565b61031b61023861197f565b600680546001600160a01b0319166001600160a01b039290921691821790559051908152a180f35b5080fd5b83823461034357816003193601126103435760075490516001600160a01b039091168152602090f35b50346102cd57806003193601126102cd576102ac91356103a560016103936117fd565b93838752600d60205286200154611bf4565b611f9e565b50346102cd5760203660031901126102cd578135916103ca61023861197f565b676765c793fa10079d601b1b831061040e5750816020917fa597abe6b82f0190c1192d690059f8a214908502cdc266fde36fd659711948d993600a5551908152a180f35b90516373fd31f360e01b8152fd5b5090346102cd5760203660031901126102cd578282916060948380516104418161183c565b828152826020820152015280358252602052209080516104608161183c565b60018060a01b03835416928382528260ff60026001840154936020860194855201541692019115158252825193845251602084015251151590820152f35b5090346102cd5760203660031901126102cd5735825260016020908152918190205490516001600160a01b039091168152f35b50346102cd5760208060031936011261064e57823560ff600b541661063f57808552838252600160ff60028588200154161515036106305760065483516331a9108f60e11b81528581018390526001600160a01b03918216918482602481865afa9182156106265788926105f7575b50339116036105e7578086913b15610343578180916044875180948193634d723a7560e01b8352888c8401528160248401525af180156105dd576105c5575b5093817f4d3db535b88041fd66b5878bff43bb7fa76399f971704cacc81234e39aa859e2955282528460028482208281558260018201550155825191338352820152a180f35b6105ce90611813565b6105d957843861057f565b8480fd5b85513d84823e3d90fd5b505050516302b327b560e41b8152fd5b610618919250853d871161061f575b6106108183611857565b810190611936565b9038610540565b503d610606565b86513d8a823e3d90fd5b5050516374f0c4bb60e11b8152fd5b5050516313d0ff5960e31b8152fd5b8380fd5b8382346103435781600319360112610343576020906005549051908152f35b83823461034357816003193601126103435751908152602090f35b83823461034357816003193601126103435760065490516001600160a01b039091168152602090f35b5090346102cd5760203660031901126102cd57606092818392358252602052209060018060a01b038254169160ff60026001830154920154169082519384526020840152151590820152f35b50346102cd57826003193601126102cd576000805160206120648339815191528352600d6020528083203360005260205260ff8160002054161561074957826102ac33611eaf565b906020608492519162461bcd60e51b8352820152602360248201527f41757468436f6e74726f6c3a2043616c6c6572206973206e6f7420616e20616460448201526236b4b760e91b6064820152fd5b5090346102cd57816003193601126102cd57816020936107b66117fd565b92358152600d8552209060018060a01b0316600052825260ff81600020541690519015158152f35b8382346103435781600319360112610343576020906107fb61197f565b90519015158152f35b5090346102cd57826003193601126102cd5761082161023861197f565b600b549160ff831661083c5760ff198316600117600b558380f35b516313d0ff5960e31b8152fd5b838234610343576020366003190112610343576102ac90610898600161086d6117e7565b9261087961023861197f565b6000805160206120248339815191528652600d60205285200154611bf4565b611d34565b5090346102cd5760203660031901126102cd577f21a8eefc17e9c864964b5a4c0769d87f39cc0a7576773159e12358bc0095ffc59160209135906108e261023861197f565b8160055551908152a180f35b50346102cd57806003193601126102cd576001600160401b039082358281116105d95761091e9036908501611878565b602492602435908111610a54576109389036908601611878565b9060ff600b5416610a445780519382518515610a34578503610a2457865b858110610961578780f35b6006546001600160a01b039081169061097a8386611955565b51875192839163020604bf60e21b83528b830152818660209586935afa928315610a1a578b936109fb575b5050309116036109eb576109ce6109bc8285611955565b516109c78387611955565b5190611a08565b156109db57600101610956565b845163176479df60e01b81528790fd5b845163077ad1ed60e51b81528790fd5b610a12929350803d1061061f576106108183611857565b9038806109a5565b88513d8d823e3d90fd5b83516349552d5960e11b81528690fd5b845163df95788360e01b81528790fd5b82516313d0ff5960e31b81528590fd5b8580fd5b838234610343578160031936011261034357602090516000805160206120648339815191528152f35b838234610343576020366003190112610343576102ac9061029d6001610aa56117e7565b92610ab161023861197f565b6000805160206120648339815191528652600d60205285200154611bf4565b5090346102cd5760203660031901126102cd57610aeb6117e7565b916000805160206120248339815191528452600d6020528084203360005260205260ff8160002054168015610b96575b15610b4757336001600160a01b03841603610b3a57836102ac84611e27565b5163334bd91960e11b8152fd5b906020608492519162461bcd60e51b8352820152602360248201527f41757468436f6e74726f6c3a2043616c6c6572206973206e6f7420612070617560448201526239b2b960e91b6064820152fd5b50610b9f61197f565b610b1b565b83823461034357816003193601126103435760095490516001600160a01b039091168152602090f35b6117c4565b83823461034357816003193601126103435760ff602092541690519015158152f35b8382346103435760203660031901126103435760209160ff9082906001600160a01b03610c1f6117e7565b1681526002855220541690519015158152f35b5090346102cd5760203660031901126102cd573563ffffffff60e01b81168091036102cd57825260036020908152918190205490516001600160a01b039091168152f35b838234610343578160031936011261034357602090600a549051908152f35b8334610cdd576020366003190112610cdd57610caf6117e7565b610cba61023861197f565b600980546001600160a01b0319166001600160a01b039290921691909117905580f35b80fd5b8382346103435760203660031901126103435760209181610cff6117e7565b916000805160206120248339815191528152600d8552209060018060a01b0316600052825260ff81600020541690519015158152f35b5090346102cd57826003193601126102cd57610d5261023861197f565b600b549160ff831615610d6b57505060ff1916600b5580f35b51636cd6020160e01b8152fd5b838234610343578160031936011261034357602090516000805160206120248339815191528152f35b50829034610343578060031936011261034357610dbc6117fd565b90336001600160a01b03831603610dd957506102ac919235611f9e565b5163334bd91960e11b81528390fd5b5090346102cd5760a03660031901126102cd57610e036117e7565b610e0b6117fd565b916001600160a01b0360643581811693919290849003610e9f5760843595838716809703610e9f5760ff600b5460081c16610e93575050610e4b33611c38565b506044356005558160018060a01b0319941684600654161760065516826007541617600755816008541617600855600954161760095561010061ff0019600b541617600b5580f35b5162dc149f60e41b8152fd5b600080fd5b50346102cd57806003193601126102cd576102ac9135610ec760016103936117fd565b611dbe565b50346102cd57806003193601126102cd57813560ff600b5416610f8957600654825163020604bf60e21b8152848101839052906001600160a01b03906020908390602490829085165afa918215610f7f578692610f5e575b5030911603610f5057610f3a9060243590611a08565b15610f43578280f35b5163176479df60e01b8152fd5b505163077ad1ed60e51b8152fd5b610f7891925060203d60201161061f576106108183611857565b9038610f24565b84513d88823e3d90fd5b50516313d0ff5960e31b8152fd5b83823461034357816003193601126103435751676765c793fa10079d601b1b8152602090f35b8382346103435760203660031901126103435760209181610fdc6117e7565b916000805160206120648339815191528152600d8552209060018060a01b0316600052825260ff81600020541690519015158152f35b5090346102cd5760203660031901126102cd5781602093600192358152600d85522001549051908152f35b8334610cdd576020366003190112610cdd576110576117e7565b61106261023861197f565b600880546001600160a01b0319166001600160a01b039290921691909117905580f35b838234610343578160031936011261034357602090516127108152f35b83823461034357816003193601126103435760085490516001600160a01b039091168152602090f35b50829034610343578060031936011261034357823590602493843580151581036105d95760ff600b5416611761576002600c5414611752576002600c5533156117435783855260209282845260ff600282882001541615611734578486528284528086209260018401549360018060a01b0380915416938433148061172c575b6116e9571561155b57806008541686845180926323b872dd60e01b8252818c816111798c8c338c85016119d8565b03925af1801561150957611527575b505b868852818652828820600201805460ff191690556006548116803b1561145557888a60448a83809589519687958694634d723a7560e01b86528b8601528401525af1801561150957908991611513575b50508060065416803b156114555783516323b872dd60e01b8152908990829081838161120a8e338d8c85016119d8565b03925af18015611509579189918b936114ed575b506006541684519a8b809263aa723bb760e01b82528b878301525afa9889156114e3578899611297575b5050508681015181519586523394860194909452840152606083015260808201527f9be2432b8472bc411770bfc657166b0ccd4e6d3613ae58c16fa57f5eb2c98b009060a090a16001600c5580f35b909198503d8089833e6112aa8183611857565b81019086818303126114555780516001600160401b039182821161146a5701926101c0848403126114df578451936101408501858110848211176114cb578652805185528881015189860152858101518686015260608101516060860152611314608082016119fa565b608086015261132560a082016119fa565b60a086015261133660c082016119cb565b60c08601528360ff8201121561146a57855160808101818110858211176114b757875280610160830191868311610e9f578b60e08501915b84831061149f5750505060e08701528461017f8301121561146e5786518781018181108682111761148a578852806101a0840192878411610e9f578c90915b84831061147257505050610100870152519083821161146e57019a83601f8d01121561146a578b519283116114595750508351916113f4601f8301601f1916890184611857565b81835287828c01011161145557885b818110611442575081018601889052610120820152965080807f9be2432b8472bc411770bfc657166b0ccd4e6d3613ae58c16fa57f5eb2c98b00611248565b8a81018801518382018901528701611403565b8880fd5b634e487b7160e01b8b526041905289fd5b8a80fd5b8b80fd5b819061147d846119fa565b8152019101908c906113ad565b508360418f634e487b7160e01b600052526000fd5b81906114aa846119fa565b8152019101908c9061136e565b8360418f634e487b7160e01b600052526000fd5b8260418e634e487b7160e01b600052526000fd5b8980fd5b83513d8a823e3d90fd5b6114f8919350611813565b611505578789918b61121e565b8780fd5b84513d8b823e3d90fd5b61151c90611813565b61150557878a6111da565b8681813d8311611554575b61153c8183611857565b810103126114555761154d906119cb565b5089611188565b503d611532565b676765c793fa10079d601b1b611573600a54876119a2565b04612710611583600554836119a2565b0481018091116116d75788876115c0846009541685600754168851948580948193633b9aca006323b872dd60e01b9a8b85520490338d85016119d8565b03925af18015611699576116a3575b5081600754168086036115e4575b505061118a565b803b156114df578980918c87518094819363081cb0a960e31b83528c8a8401525af1801561169957611682575b50868587928460085416908c8660075416916116398a519788968795869485528c85016119d8565b03925af180156115095761164e575b806115dd565b8681813d831161167b575b6116638183611857565b8101031261145557611674906119cb565b5089611648565b503d611659565b8587929a6116908a93611813565b9a925050611611565b85513d8c823e3d90fd5b8781813d83116116d0575b6116b88183611857565b810103126114df576116c9906119cb565b508a6115cf565b503d6116ae565b634e487b7160e01b8952601183528989fd5b835163b06bd67960e01b8152808401889052601d818c01527f5573652052656d6f766547656d46726f6d4c69737420696e73746561640000006044820152606490fd5b50600161114b565b516374f0c4bb60e11b81529050fd5b509051639fabe1c160e01b8152fd5b509051633ee5aeb560e01b8152fd5b5090516313d0ff5960e31b8152fd5b849084346102cd5760203660031901126102cd573563ffffffff60e01b81168091036102cd5760209250637965db0b60e01b81149081156117b3575b5015158152f35b6301ffc9a760e01b149050836117ac565b34610e9f576000366003190112610e9f57602060ff600b54166040519015158152f35b600435906001600160a01b0382168203610e9f57565b602435906001600160a01b0382168203610e9f57565b6001600160401b03811161182657604052565b634e487b7160e01b600052604160045260246000fd5b606081019081106001600160401b0382111761182657604052565b90601f801991011681019081106001600160401b0382111761182657604052565b81601f82011215610e9f578035916020916001600160401b038411611826578360051b90604051946118ac85840187611857565b85528380860192820101928311610e9f578301905b8282106118cf575050505090565b813581529083019083016118c1565b156118e557565b60405162461bcd60e51b8152602060048201526024808201527f41757468436f6e74726f6c3a2043616c6c6572206973206e6f7420746865206f6044820152633bb732b960e11b6064820152608490fd5b90816020910312610e9f57516001600160a01b0381168103610e9f5790565b80518210156119695760209160051b010190565b634e487b7160e01b600052603260045260246000fd5b336000908152600080516020612044833981519152602052604090205460ff1690565b818102929181159184041417156119b557565b634e487b7160e01b600052601160045260246000fd5b51908115158203610e9f57565b6001600160a01b03918216815291166020820152604081019190915260600190565b519060ff82168203610e9f57565b90600654600060018060a01b038092166040928351926331a9108f60e11b845260049287848601526020948581602481855afa908115611bad578391611bd7575b508333911603611bc7578615611bb757855163276a28a360e01b81528481018990528581602481855afa8015611bad578390611b78575b60019150151514611b6857803b15610343578180916044885180948193634d723a7560e01b83528d8a840152600160248401525af18015611b5e57927f8b8052dfcc72d6fc28cd795f60661e1a701f185ce78c06a47b2ac29357d6ef8b989694926002926060999795611b4f575b50855191611afb8361183c565b338352868684019289845281850196600188528b825288522092511660018060a01b0319835416178255516001820155019051151560ff8019835416911617905581519384523390840152820152a1600190565b611b5890611813565b38611aee565b86513d84823e3d90fd5b855163e970f37f60e01b81528490fd5b508581813d8311611ba6575b611b8e8183611857565b810103126102cd57611ba16001916119cb565b611a80565b503d611b84565b87513d85823e3d90fd5b855163f7760f2560e01b81528490fd5b85516302b327b560e41b81528490fd5b611bee9150863d881161061f576106108183611857565b38611a49565b80600052600d60205260406000203360005260205260ff6040600020541615611c1a5750565b6044906040519063e2517d3f60e01b82523360048301526024820152fd5b6001600160a01b03166000818152600080516020612044833981519152602052604081205490919060ff16611ca157818052600d6020526040822081835260205260408220600160ff1982541617905533916000805160206120048339815191528180a4600190565b5090565b6001600160a01b031660008181527f88b4bb17cd989dc2b732e34571fa88bf3f14ba2c8a5a9b857d8c67161bbf092460205260408120549091906000805160206120648339815191529060ff16611d2f57808352600d6020526040832082845260205260408320600160ff19825416179055600080516020612004833981519152339380a4600190565b505090565b6001600160a01b031660008181527f16e35dd8a8dbb734e1efb62ed62f7a565ef620743c89077f09f0989eaf5193ac60205260408120549091906000805160206120248339815191529060ff16611d2f57808352600d6020526040832082845260205260408320600160ff19825416179055600080516020612004833981519152339380a4600190565b90600091808352600d602052604083209160018060a01b03169182845260205260ff60408420541615600014611d2f57808352600d6020526040832082845260205260408320600160ff19825416179055600080516020612004833981519152339380a4600190565b6001600160a01b031660008181527f16e35dd8a8dbb734e1efb62ed62f7a565ef620743c89077f09f0989eaf5193ac60205260408120549091906000805160206120248339815191529060ff1615611d2f57808352600d602052604083208284526020526040832060ff198154169055600080516020612084833981519152339380a4600190565b6001600160a01b031660008181527f88b4bb17cd989dc2b732e34571fa88bf3f14ba2c8a5a9b857d8c67161bbf092460205260408120549091906000805160206120648339815191529060ff1615611d2f57808352600d602052604083208284526020526040832060ff198154169055600080516020612084833981519152339380a4600190565b6001600160a01b03166000818152600080516020612044833981519152602052604081205490919060ff1615611ca157818052600d602052604082208183526020526040822060ff19815416905533916000805160206120848339815191528180a4600190565b90600091808352600d602052604083209160018060a01b03169182845260205260ff604084205416600014611d2f57808352600d602052604083208284526020526040832060ff198154169055600080516020612084833981519152339380a460019056fe2f8788117e7eff1d82e926ec794901d17c78024a50270940304540a733656f0dfcb9fcbfa83b897fb2d5cf4b58962164105c1e71489a37ef3ae0db3fdce576f681955a0a11e65eac625c29e8882660bae4e165a75d72780094acae8ece9a29eedf8b4c520ffe197c5343c6f5aec59570151ef9a492f2c624fd45ddde6135ec42f6391f5c32d9c69d2a47ea670b442974b53935d1edc7fd64eb21e047a839171ba2646970667358221220161a6ef462889e407ec5efaa624b137d96ea7786e28772c11e7c9673d26ce00164736f6c63430008190033",
  "linkReferences": {},
  "deployedLinkReferences": {}
}