{"abi":[{"type":"fallback","stateMutability":"payable"},{"type":"receive","stateMutability":"payable"},{"type":"function","name":"ADMIN_ROLE","inputs":[],"outputs":[{"name":"","type":"bytes32","internalType":"bytes32"}],"stateMutability":"view"},{"type":"function","name":"DECIMALS","inputs":[],"outputs":[{"name":"","type":"uint256","internalType":"uint256"}],"stateMutability":"view"},{"type":"function","name":"DEFAULT_ADMIN_ROLE","inputs":[],"outputs":[{"name":"","type":"bytes32","internalType":"bytes32"}],"stateMutability":"view"},{"type":"function","name":"PAUSE_ROLE","inputs":[],"outputs":[{"name":"","type":"bytes32","internalType":"bytes32"}],"stateMutability":"view"},{"type":"function","name":"addAdmin","inputs":[{"name":"account","type":"address","internalType":"address"}],"outputs":[],"stateMutability":"nonpayable"},{"type":"function","name":"addPauser","inputs":[{"name":"account","type":"address","internalType":"address"}],"outputs":[],"stateMutability":"nonpayable"},{"type":"function","name":"aliveImplementation","inputs":[{"name":"","type":"address","internalType":"address"}],"outputs":[{"name":"","type":"bool","internalType":"bool"}],"stateMutability":"view"},{"type":"function","name":"getRoleAdmin","inputs":[{"name":"role","type":"bytes32","internalType":"bytes32"}],"outputs":[{"name":"","type":"bytes32","internalType":"bytes32"}],"stateMutability":"view"},{"type":"function","name":"getSelectorImplementation2","inputs":[{"name":"_selector","type":"bytes4","internalType":"bytes4"}],"outputs":[{"name":"impl","type":"address","internalType":"address"}],"stateMutability":"view"},{"type":"function","name":"grantRole","inputs":[{"name":"role","type":"bytes32","internalType":"bytes32"},{"name":"account","type":"address","internalType":"address"}],"outputs":[],"stateMutability":"nonpayable"},{"type":"function","name":"hasRole","inputs":[{"name":"role","type":"bytes32","internalType":"bytes32"},{"name":"account","type":"address","internalType":"address"}],"outputs":[{"name":"","type":"bool","internalType":"bool"}],"stateMutability":"view"},{"type":"function","name":"implementation","inputs":[],"outputs":[{"name":"","type":"address","internalType":"address"}],"stateMutability":"view"},{"type":"function","name":"implementation2","inputs":[{"name":"_index","type":"uint256","internalType":"uint256"}],"outputs":[{"name":"","type":"address","internalType":"address"}],"stateMutability":"view"},{"type":"function","name":"isAdmin","inputs":[{"name":"account","type":"address","internalType":"address"}],"outputs":[{"name":"","type":"bool","internalType":"bool"}],"stateMutability":"view"},{"type":"function","name":"isOwner","inputs":[],"outputs":[{"name":"","type":"bool","internalType":"bool"}],"stateMutability":"view"},{"type":"function","name":"pauseProxy","inputs":[],"outputs":[{"name":"","type":"bool","internalType":"bool"}],"stateMutability":"view"},{"type":"function","name":"paused","inputs":[],"outputs":[{"name":"","type":"bool","internalType":"bool"}],"stateMutability":"view"},{"type":"function","name":"proxyImplementation","inputs":[{"name":"","type":"uint256","internalType":"uint256"}],"outputs":[{"name":"","type":"address","internalType":"address"}],"stateMutability":"view"},{"type":"function","name":"removeAdmin","inputs":[{"name":"account","type":"address","internalType":"address"}],"outputs":[],"stateMutability":"nonpayable"},{"type":"function","name":"removePauser","inputs":[{"name":"account","type":"address","internalType":"address"}],"outputs":[],"stateMutability":"nonpayable"},{"type":"function","name":"renounceRole","inputs":[{"name":"role","type":"bytes32","internalType":"bytes32"},{"name":"callerConfirmation","type":"address","internalType":"address"}],"outputs":[],"stateMutability":"nonpayable"},{"type":"function","name":"revokeRole","inputs":[{"name":"role","type":"bytes32","internalType":"bytes32"},{"name":"account","type":"address","internalType":"address"}],"outputs":[],"stateMutability":"nonpayable"},{"type":"function","name":"selectorImplementation","inputs":[{"name":"","type":"bytes4","internalType":"bytes4"}],"outputs":[{"name":"","type":"address","internalType":"address"}],"stateMutability":"view"},{"type":"function","name":"setAliveImplementation2","inputs":[{"name":"newImplementation","type":"address","internalType":"address"},{"name":"_alive","type":"bool","internalType":"bool"}],"outputs":[],"stateMutability":"nonpayable"},{"type":"function","name":"setImplementation2","inputs":[{"name":"newImplementation","type":"address","internalType":"address"},{"name":"_index","type":"uint256","internalType":"uint256"},{"name":"_alive","type":"bool","internalType":"bool"}],"outputs":[],"stateMutability":"nonpayable"},{"type":"function","name":"setProxyPause","inputs":[{"name":"_pause","type":"bool","internalType":"bool"}],"outputs":[],"stateMutability":"nonpayable"},{"type":"function","name":"setSelectorImplementations2","inputs":[{"name":"_selectors","type":"bytes4[]","internalType":"bytes4[]"},{"name":"_imp","type":"address","internalType":"address"}],"outputs":[],"stateMutability":"nonpayable"},{"type":"function","name":"stakingIndex","inputs":[],"outputs":[{"name":"","type":"uint256","internalType":"uint256"}],"stateMutability":"view"},{"type":"function","name":"supportsInterface","inputs":[{"name":"interfaceId","type":"bytes4","internalType":"bytes4"}],"outputs":[{"name":"","type":"bool","internalType":"bool"}],"stateMutability":"view"},{"type":"function","name":"ton","inputs":[],"outputs":[{"name":"","type":"address","internalType":"address"}],"stateMutability":"view"},{"type":"function","name":"transferOwnership","inputs":[{"name":"newOwner","type":"address","internalType":"address"}],"outputs":[],"stateMutability":"nonpayable"},{"type":"function","name":"treasury","inputs":[],"outputs":[{"name":"","type":"address","internalType":"address"}],"stateMutability":"view"},{"type":"function","name":"upgradeTo","inputs":[{"name":"impl","type":"address","internalType":"address"}],"outputs":[],"stateMutability":"nonpayable"},{"type":"function","name":"wston","inputs":[],"outputs":[{"name":"","type":"address","internalType":"address"}],"stateMutability":"view"},{"type":"event","name":"RoleAdminChanged","inputs":[{"name":"role","type":"bytes32","indexed":true,"internalType":"bytes32"},{"name":"previousAdminRole","type":"bytes32","indexed":true,"internalType":"bytes32"},{"name":"newAdminRole","type":"bytes32","indexed":true,"internalType":"bytes32"}],"anonymous":false},{"type":"event","name":"RoleGranted","inputs":[{"name":"role","type":"bytes32","indexed":true,"internalType":"bytes32"},{"name":"account","type":"address","indexed":true,"internalType":"address"},{"name":"sender","type":"address","indexed":true,"internalType":"address"}],"anonymous":false},{"type":"event","name":"RoleRevoked","inputs":[{"name":"role","type":"bytes32","indexed":true,"internalType":"bytes32"},{"name":"account","type":"address","indexed":true,"internalType":"address"},{"name":"sender","type":"address","indexed":true,"internalType":"address"}],"anonymous":false},{"type":"event","name":"SetAliveImplementation","inputs":[{"name":"impl","type":"address","indexed":true,"internalType":"address"},{"name":"alive","type":"bool","indexed":false,"internalType":"bool"}],"anonymous":false},{"type":"event","name":"SetSelectorImplementation","inputs":[{"name":"selector","type":"bytes4","indexed":true,"internalType":"bytes4"},{"name":"impl","type":"address","indexed":true,"internalType":"address"}],"anonymous":false},{"type":"event","name":"StakingIndexUpdated","inputs":[{"name":"newIndex","type":"uint256","indexed":false,"internalType":"uint256"}],"anonymous":false},{"type":"event","name":"SwappedWstonForTon","inputs":[{"name":"user","type":"address","indexed":true,"internalType":"address"},{"name":"tonAmount","type":"uint256","indexed":false,"internalType":"uint256"},{"name":"wstonAmount","type":"uint256","indexed":false,"internalType":"uint256"}],"anonymous":false},{"type":"event","name":"Upgraded","inputs":[{"name":"implementation","type":"address","indexed":true,"internalType":"address"}],"anonymous":false},{"type":"error","name":"AccessControlBadConfirmation","inputs":[]},{"type":"error","name":"AccessControlUnauthorizedAccount","inputs":[{"name":"account","type":"address","internalType":"address"},{"name":"neededRole","type":"bytes32","internalType":"bytes32"}]},{"type":"error","name":"ContractTonBalanceOrAllowanceTooLow","inputs":[]},{"type":"error","name":"FailedToApproveTon","inputs":[{"name":"amount","type":"uint256","internalType":"uint256"}]},{"type":"error","name":"SameAdmin","inputs":[]},{"type":"error","name":"SameOwner","inputs":[]},{"type":"error","name":"WrongStakingIndex","inputs":[]},{"type":"error","name":"WstonAllowanceTooLow","inputs":[]},{"type":"error","name":"WstonBalanceTooLow","inputs":[]},{"type":"error","name":"ZeroAddress","inputs":[]}],"bytecode":{"object":"0x60806040523461002257610011610027565b6040516114fb6101a682396114fb90f35b600080fd5b61002f610031565b565b61002f610053565b6100466100466100469290565b90565b6100466000610039565b61006561005e610049565b33906100e5565b50565b9061007290610046565b600052602052604060002090565b61004690610094906001600160a01b031682565b6001600160a01b031690565b61004690610080565b610046906100a0565b90610072906100a9565b151590565b906100d16100466100e1926100bc565b825460ff191660ff919091161790565b9055565b6100f66100f28383610183565b1590565b1561016c5761011c6001610117846000610111866004610068565b016100b2565b6100c1565b61013861013261012c3393610046565b936100a9565b916100a9565b917f2f8788117e7eff1d82e926ec794901d17c78024a50270940304540a733656f0d61016360405190565b600090a4600190565b5050600090565b60ff1690565b6100469054610173565b6100469160006101116101a093610198600090565b506004610068565b61017956fe60806040526004361015610018575b3661119357611157565b60003560e01c806301ffc9a7146102385780631785f53c14610233578063248a9ca31461022e57806324d7806c146102295780632e0f2625146102245780632f2ff15d1461021f57806330f508591461021a57806336568abe146102155780633659cfe61461021057806336b17e131461020b578063389ed267146102065780634a5df50f1461020157806350d2a276146101fc578063550d01a3146101f75780635c60da1b146101f25780635c975abb146101ed5780635cc797d8146101e857806361d027b3146101e357806363a8fd89146101de5780636b2c0f55146101d957806370480275146101d457806375b238fc146101cf5780637cb00d25146101ca5780637cd5f663146101c557806382dc1ec4146101c05780638b8f4a65146101bb5780638d4fdb40146101b65780638f32d59b146101b157806391d14854146101ac578063a217fddf146101a7578063b911135f146101a2578063cc48b9471461019d578063d547741f146101985763f2fde38b0361000e57610955565b61093c565b610921565b6108fa565b6108c5565b610897565b61087c565b610861565b610846565b61082e565b610815565b6107d4565b6107a5565b610761565b610749565b61072e565b610708565b6106e3565b610690565b610669565b61064e565b6105d4565b610581565b610501565b6104ae565b610452565b610439565b61041e565b6103e3565b6103a5565b610356565b61032b565b6102e7565b61027f565b6001600160e01b031981165b0361025057565b600080fd5b905035906102628261023d565b565b906020828203126102505761027891610255565b90565b9052565b34610250576102ad61029a610295366004610264565b61096d565b6040515b91829182901515815260200190565b0390f35b6001600160a01b031690565b610249816102b1565b90503590610262826102bd565b9060208282031261025057610278916102c6565b34610250576102ff6102fa3660046102d3565b6109f7565b604051005b80610249565b9050359061026282610304565b90602082820312610250576102789161030a565b34610250576102ad610346610341366004610317565b610a17565b6040519182918290815260200190565b34610250576102ad61029a61036c3660046102d3565b610a36565b600091031261025057565b6102786102786102789290565b610278676765c793fa10079d601b1b61037c565b610278610389565b34610250576103b5366004610371565b6102ad61034661039d565b9190604083820312610250576102789060206103dc828661030a565b94016102c6565b34610250576102ff6103f63660046103c0565b90610a6a565b610278916008021c81565b9061027891546103fc565b61027860006008610407565b346102505761042e366004610371565b6102ad610346610412565b34610250576102ff61044c3660046103c0565b90610a74565b34610250576102ff6104653660046102d3565b610bdf565b610278916008021c6001600160a01b031690565b90610278915461046a565b6102786000600661047e565b61027b906102b1565b6020810192916102629190610495565b34610250576104be366004610371565b6102ad6104c9610489565b6040519182918261049e565b7ffcb9fcbfa83b897fb2d5cf4b58962164105c1e71489a37ef3ae0db3fdce576f690565b6102786104d5565b3461025057610511366004610371565b6102ad6103466104f9565b909182601f83011215610250578135916001600160401b03831161025057602001926020830284011161025057565b916040838303126102505782356001600160401b038111610250578261057860209461027893870161051c565b949095016102c6565b34610250576102ff61059436600461054b565b91610e7b565b6001600160e01b03191690565b906105b19061059a565b600052602052604060002090565b60006105cf6102789260036105a7565b61047e565b34610250576102ad6104c96105ea366004610264565b6105bf565b610278906102b1906001600160a01b031682565b610278906105ef565b61027890610603565b906105b19061060c565b610278916008021c5b60ff1690565b90610278915461061f565b6000610649610278926002610615565b61062e565b34610250576102ad61029a6106643660046102d3565b610639565b3461025057610679366004610371565b6102ad6104c9610e86565b6102786001600961062e565b34610250576106a0366004610371565b6102ad61029a610684565b801515610249565b90503590610262826106ab565b9190604083820312610250576102789060206106dc82866102c6565b94016106b3565b34610250576102ff6106f63660046106c0565b90610eb2565b6102786000600761047e565b3461025057610718366004610371565b6102ad6104c96106fc565b61027860008061062e565b346102505761073e366004610371565b6102ad61029a610723565b34610250576102ff61075c3660046102d3565b610ed7565b34610250576102ff6107743660046102d3565b610f00565b7fdf8b4c520ffe197c5343c6f5aec59570151ef9a492f2c624fd45ddde6135ec4290565b610278610779565b34610250576107b5366004610371565b6102ad61034661079d565b9060208282031261025057610278916106b3565b34610250576102ff6107e73660046107c0565b610f48565b90916060828403126102505761027861080584846102c6565b9360406106dc826020870161030a565b34610250576102ff6108283660046107ec565b91610f6d565b34610250576102ff6108413660046102d3565b610ffa565b34610250576102ad6104c961085c366004610317565b611003565b34610250576102ad6104c9610877366004610264565b61100c565b346102505761088c366004610371565b6102ad61029a61107e565b34610250576102ad61029a6108ad3660046103c0565b9061108c565b610278600061037c565b6102786108b3565b34610250576108d5366004610371565b6102ad6103466108bd565b906105b19061037c565b60006105cf6102789260016108e0565b34610250576102ad6104c9610910366004610317565b6108ea565b6102786000600561047e565b3461025057610931366004610371565b6102ad6104c9610915565b34610250576102ff61094f3660046103c0565b906110c2565b34610250576102ff6109683660046102d3565b61114e565b61027890611198565b1561097d57565b60405162461bcd60e51b8152602060048201526024808201527f41757468436f6e74726f6c3a2043616c6c6572206973206e6f7420746865206f6044820152633bb732b960e11b6064820152608490fd5b0390fd5b610262906109e66109e161107e565b610976565b610262906109f2610779565b610a74565b610262906109d2565b906105b1565b6102789081565b6102789054610a06565b6001610a3061027892610a28600090565b506004610a00565b01610a0d565b61027890610a42610779565b61108c565b9061026291610a5d610a5882610a17565b6111d2565b90610a67916111dd565b50565b9061026291610a47565b90610a83336102b1565b6102b1565b610a8c826102b1565b03610a9a57610a6791611263565b60405163334bd91960e11b8152600490fd5b61026290610abb6109e161107e565b610b4a565b6102b16102786102789290565b61027890610ac0565b15610add57565b60405162461bcd60e51b815260206004820152600d60248201526c696e707574206973207a65726f60981b6044820152606490fd5b15610b1957565b60405162461bcd60e51b815260206004820152600960248201526839b0b6b29030b2323960b91b6044820152606490fd5b610bad90610b6e610b5e610a7e6000610acd565b610b67836102b1565b1415610ad6565b610ba86001610b7d600061037c565b610ba2610b89826112c0565b610b9b610b95876102b1565b916102b1565b1415610b12565b83611321565b61060c565b7fbc7cd75a20ee27fd9adebab32041f755214dbc6bffa90cc0225b39da2e5c2d3b610bd760405190565b80805b0390a2565b61026290610aac565b906102629291610bf96109e161107e565b610d6c565b15610c0557565b60405162461bcd60e51b8152806109ce600482016020808252818101527f50726f78793a205f73656c6563746f727327732073697a65206973207a65726f604082015260600190565b61027890610628565b6102789054610c4e565b15610c6857565b60405162461bcd60e51b815260206004820152601860248201527750726f78793a205f696d70206973206e6f7420616c69766560401b6044820152606490fd5b634e487b7160e01b600052603260045260246000fd5b9190811015610cce576020020190565b610ca8565b356102788161023d565b610278906102b1565b6102789054610cdd565b15610cf757565b60405162461bcd60e51b815260206004820152601d60248201527f4c69717569646974795661756c7450726f78793a2073616d6520696d700000006044820152606490fd5b906001600160a01b03905b9181191691161790565b90610d61610278610d689261060c565b8254610d3c565b9055565b909291908392610d86610d7f600061037c565b8511610bfe565b610da1610d9c610d97856002610615565b610c57565b610c61565b610dab600061037c565b845b811015610e7357610e6c81610e1886610e1387610e0d610de4868e610e07610df4610def610de9610de4610dad9f8660039b610cbe565b610cd3565b886105a7565b610ce6565b610e00610b958a6102b1565b1415610cf0565b8c610cbe565b906105a7565b610d51565b610e2e610e29610de4838b89610cbe565b61059a565b610e378761060c565b907f14ebc1c32aa68f4d766e89f3e546cee249f7df25183fc10ab1568d91c2ce9b7b610e6260405190565b600090a360010190565b9050610dab565b509350505050565b906102629291610be8565b610278610e93600061037c565b6112c0565b9061026291610ea86109e161107e565b906102629161135a565b9061026291610e98565b61026290610ecb6109e161107e565b610262906109f26104d5565b61026290610ebc565b61026290610eef6109e161107e565b61026290610efb610779565b610a6a565b61026290610ee0565b61026290610f186109e161107e565b610f3d565b9060ff90610d47565b90610f36610278610d6892151590565b8254610f1d565b610262906000610f26565b61026290610f09565b906102629291610f626109e161107e565b906102629291611321565b906102629291610f51565b15610f7f57565b60405162461bcd60e51b81526020600482015260126024820152713737ba1027bbb732b91037b91020b236b4b760711b6044820152606490fd5b61026290610fc633610a36565b8015610fdb575b610fd690610f78565b610fee565b50610fd6610fe761107e565b9050610fcd565b61026290610efb6104d5565b61026290610fb9565b610278906112c0565b600361101b610def83836105a7565b61102b610b95610a7e6000610acd565b03611041575050610278610def600060016108e0565b61105b610d97611054610def85856105a7565b6002610615565b1561106d5761027891610def916105a7565b5050610278610def600060016108e0565b6102786110896108b3565b33905b6102789160006110a1610d9793610a28600090565b01610615565b90610262916110b8610a5882610a17565b90610a6791611263565b90610262916110a7565b610262906110db6109e161107e565b6110e8610a7e6000610acd565b6110f1826102b1565b1461113c576110ff816102b1565b611108336102b1565b1461112a576102629061112361111c6108b3565b9182610a6a565b3390610a74565b604051630a98f1f360e21b8152600490fd5b60405163d92e233d60e01b8152600490fd5b610262906110cc565b60405162461bcd60e51b815260206004820152601460248201527331b0b73737ba103932b1b2b4bb329022ba3432b960611b6044820152606490fd5b6113e7565b637965db0b60e01b6001600160e01b03198216149081156111b7575090565b61027891506001600160e01b0319166301ffc9a760e01b1490565b610262903390611477565b6111ee6111ea838361108c565b1590565b1561125c5761120e60016112098460006110a1866004610a00565b610f26565b61122861122261121c339390565b9361060c565b9161060c565b917f2f8788117e7eff1d82e926ec794901d17c78024a50270940304540a733656f0d61125360405190565b600090a4600190565b5050600090565b61126d828261108c565b1561125c57611287600061120984826110a1866004610a00565b61129561122261121c339390565b917ff6391f5c32d9c69d2a47ea670b442974b53935d1edc7fd64eb21e047a839171b61125360405190565b610def610278916112cf600090565b5060016108e0565b156112de57565b60405162461bcd60e51b815260206004820152601b60248201527a50726f78793a206e6f7420636f6e7472616374206164647265737360281b6044820152606490fd5b61026292918183611339611334836114af565b6112d7565b611345575b505061135a565b610e136113539260016108e0565b388161133e565b610bda6113917f72558d9bfba4210f9ef095c782589484151f6d90f7a81bb3cb9b33efc695d32492610ba885611209836002610615565b9261029e60405190565b156113a257565b60405162461bcd60e51b815260206004820152601d60248201527f50726f78793a20696d706c204f522070726f78792069732066616c73650000006044820152606490fd5b6113fc6000356001600160e01b03191661100c565b600080809261140d610a7e83610acd565b611416826102b1565b141580611441575b6114279061139b565b368280378136915af43d82803e1561143d573d90f35b3d90fd5b506114276114516111ea84610c57565b905061141e565b91602061026292949361147360408201966000830190610495565b0152565b906114856111ea828461108c565b61148d575050565b6109ce61149960405190565b63e2517d3f60e01b815292839260048401611458565b3b6114c16114bd600061037c565b9190565b119056fea2646970667358221220ed9d61fedf3009d3f98a18b62b7af90a220bb242269d44fef315e51f505e4f3864736f6c63430008190033","linkReferences":{}},"methodIdentifiers":{"ADMIN_ROLE()":"75b238fc","DECIMALS()":"2e0f2625","DEFAULT_ADMIN_ROLE()":"a217fddf","PAUSE_ROLE()":"389ed267","addAdmin(address)":"70480275","addPauser(address)":"82dc1ec4","aliveImplementation(address)":"550d01a3","getRoleAdmin(bytes32)":"248a9ca3","getSelectorImplementation2(bytes4)":"8d4fdb40","grantRole(bytes32,address)":"2f2ff15d","hasRole(bytes32,address)":"91d14854","implementation()":"5c60da1b","implementation2(uint256)":"8b8f4a65","isAdmin(address)":"24d7806c","isOwner()":"8f32d59b","pauseProxy()":"63a8fd89","paused()":"5c975abb","proxyImplementation(uint256)":"b911135f","removeAdmin(address)":"1785f53c","removePauser(address)":"6b2c0f55","renounceRole(bytes32,address)":"36568abe","revokeRole(bytes32,address)":"d547741f","selectorImplementation(bytes4)":"50d2a276","setAliveImplementation2(address,bool)":"5cc797d8","setImplementation2(address,uint256,bool)":"7cd5f663","setProxyPause(bool)":"7cb00d25","setSelectorImplementations2(bytes4[],address)":"4a5df50f","stakingIndex()":"30f50859","supportsInterface(bytes4)":"01ffc9a7","ton()":"cc48b947","transferOwnership(address)":"f2fde38b","treasury()":"61d027b3","upgradeTo(address)":"3659cfe6","wston()":"36b17e13"},"id":130}