{"abi":[{"type":"function","name":"CHALLENGER_ROLE","inputs":[],"outputs":[{"name":"","type":"bytes32","internalType":"bytes32"}],"stateMutability":"view"},{"type":"function","name":"DEFAULT_ADMIN_ROLE","inputs":[],"outputs":[{"name":"","type":"bytes32","internalType":"bytes32"}],"stateMutability":"view"},{"type":"function","name":"DEFAULT_FACTOR","inputs":[],"outputs":[{"name":"","type":"uint256","internalType":"uint256"}],"stateMutability":"pure"},{"type":"function","name":"MAX_VALID_COMMISSION","inputs":[],"outputs":[{"name":"","type":"uint256","internalType":"uint256"}],"stateMutability":"view"},{"type":"function","name":"MINTER_ROLE","inputs":[],"outputs":[{"name":"","type":"bytes32","internalType":"bytes32"}],"stateMutability":"view"},{"type":"function","name":"MIN_VALID_COMMISSION","inputs":[],"outputs":[{"name":"","type":"uint256","internalType":"uint256"}],"stateMutability":"view"},{"type":"function","name":"OPERATOR_ROLE","inputs":[],"outputs":[{"name":"","type":"bytes32","internalType":"bytes32"}],"stateMutability":"view"},{"type":"function","name":"PAUSE_ROLE","inputs":[],"outputs":[{"name":"","type":"bytes32","internalType":"bytes32"}],"stateMutability":"view"},{"type":"function","name":"RAY","inputs":[],"outputs":[{"name":"","type":"uint256","internalType":"uint256"}],"stateMutability":"view"},{"type":"function","name":"accRelativeSeig","inputs":[],"outputs":[{"name":"","type":"uint256","internalType":"uint256"}],"stateMutability":"view"},{"type":"function","name":"addAdmin","inputs":[{"name":"account","type":"address","internalType":"address"}],"outputs":[],"stateMutability":"nonpayable"},{"type":"function","name":"addChallenger","inputs":[{"name":"account","type":"address","internalType":"address"}],"outputs":[],"stateMutability":"nonpayable"},{"type":"function","name":"addMinter","inputs":[{"name":"account","type":"address","internalType":"address"}],"outputs":[],"stateMutability":"nonpayable"},{"type":"function","name":"addOperator","inputs":[{"name":"account","type":"address","internalType":"address"}],"outputs":[],"stateMutability":"nonpayable"},{"type":"function","name":"additionalTotBurnAmount","inputs":[{"name":"layer2","type":"address","internalType":"address"},{"name":"account","type":"address","internalType":"address"},{"name":"amount","type":"uint256","internalType":"uint256"}],"outputs":[{"name":"totAmount","type":"uint256","internalType":"uint256"}],"stateMutability":"view"},{"type":"function","name":"adjustCommissionDelay","inputs":[],"outputs":[{"name":"","type":"uint256","internalType":"uint256"}],"stateMutability":"view"},{"type":"function","name":"aliveImplementation","inputs":[{"name":"","type":"address","internalType":"address"}],"outputs":[{"name":"","type":"bool","internalType":"bool"}],"stateMutability":"view"},{"type":"function","name":"coinages","inputs":[{"name":"layer2","type":"address","internalType":"address"}],"outputs":[{"name":"","type":"address","internalType":"address"}],"stateMutability":"view"},{"type":"function","name":"commissionRates","inputs":[{"name":"layer2","type":"address","internalType":"address"}],"outputs":[{"name":"","type":"uint256","internalType":"uint256"}],"stateMutability":"view"},{"type":"function","name":"dao","inputs":[],"outputs":[{"name":"","type":"address","internalType":"address"}],"stateMutability":"view"},{"type":"function","name":"daoSeigRate","inputs":[],"outputs":[{"name":"","type":"uint256","internalType":"uint256"}],"stateMutability":"view"},{"type":"function","name":"delayedCommissionBlock","inputs":[{"name":"","type":"address","internalType":"address"}],"outputs":[{"name":"","type":"uint256","internalType":"uint256"}],"stateMutability":"view"},{"type":"function","name":"delayedCommissionRate","inputs":[{"name":"","type":"address","internalType":"address"}],"outputs":[{"name":"","type":"uint256","internalType":"uint256"}],"stateMutability":"view"},{"type":"function","name":"delayedCommissionRateNegative","inputs":[{"name":"","type":"address","internalType":"address"}],"outputs":[{"name":"","type":"bool","internalType":"bool"}],"stateMutability":"view"},{"type":"function","name":"deployCoinage","inputs":[{"name":"layer2","type":"address","internalType":"address"}],"outputs":[{"name":"","type":"bool","internalType":"bool"}],"stateMutability":"nonpayable"},{"type":"function","name":"depositManager","inputs":[],"outputs":[{"name":"","type":"address","internalType":"address"}],"stateMutability":"view"},{"type":"function","name":"factory","inputs":[],"outputs":[{"name":"","type":"address","internalType":"address"}],"stateMutability":"view"},{"type":"function","name":"getOperatorAmount","inputs":[{"name":"layer2","type":"address","internalType":"address"}],"outputs":[{"name":"","type":"uint256","internalType":"uint256"}],"stateMutability":"view"},{"type":"function","name":"getRoleAdmin","inputs":[{"name":"role","type":"bytes32","internalType":"bytes32"}],"outputs":[{"name":"","type":"bytes32","internalType":"bytes32"}],"stateMutability":"view"},{"type":"function","name":"grantRole","inputs":[{"name":"role","type":"bytes32","internalType":"bytes32"},{"name":"account","type":"address","internalType":"address"}],"outputs":[],"stateMutability":"nonpayable"},{"type":"function","name":"hasRole","inputs":[{"name":"role","type":"bytes32","internalType":"bytes32"},{"name":"account","type":"address","internalType":"address"}],"outputs":[{"name":"","type":"bool","internalType":"bool"}],"stateMutability":"view"},{"type":"function","name":"initialize","inputs":[{"name":"ton_","type":"address","internalType":"address"},{"name":"wton_","type":"address","internalType":"address"},{"name":"registry_","type":"address","internalType":"address"},{"name":"depositManager_","type":"address","internalType":"address"},{"name":"seigPerBlock_","type":"uint256","internalType":"uint256"},{"name":"factory_","type":"address","internalType":"address"},{"name":"lastSeigBlock_","type":"uint256","internalType":"uint256"}],"outputs":[],"stateMutability":"nonpayable"},{"type":"function","name":"isAdmin","inputs":[{"name":"account","type":"address","internalType":"address"}],"outputs":[{"name":"","type":"bool","internalType":"bool"}],"stateMutability":"view"},{"type":"function","name":"isChallenger","inputs":[{"name":"account","type":"address","internalType":"address"}],"outputs":[{"name":"","type":"bool","internalType":"bool"}],"stateMutability":"view"},{"type":"function","name":"isCommissionRateNegative","inputs":[{"name":"layer2","type":"address","internalType":"address"}],"outputs":[{"name":"","type":"bool","internalType":"bool"}],"stateMutability":"view"},{"type":"function","name":"isMinter","inputs":[{"name":"account","type":"address","internalType":"address"}],"outputs":[{"name":"","type":"bool","internalType":"bool"}],"stateMutability":"view"},{"type":"function","name":"isOperator","inputs":[{"name":"account","type":"address","internalType":"address"}],"outputs":[{"name":"","type":"bool","internalType":"bool"}],"stateMutability":"view"},{"type":"function","name":"isOwner","inputs":[],"outputs":[{"name":"","type":"bool","internalType":"bool"}],"stateMutability":"view"},{"type":"function","name":"lastCommitBlock","inputs":[{"name":"layer2","type":"address","internalType":"address"}],"outputs":[{"name":"","type":"uint256","internalType":"uint256"}],"stateMutability":"view"},{"type":"function","name":"lastSeigBlock","inputs":[],"outputs":[{"name":"","type":"uint256","internalType":"uint256"}],"stateMutability":"view"},{"type":"function","name":"lastSnapshotId","inputs":[],"outputs":[{"name":"","type":"uint256","internalType":"uint256"}],"stateMutability":"view"},{"type":"function","name":"minimumAmount","inputs":[],"outputs":[{"name":"","type":"uint256","internalType":"uint256"}],"stateMutability":"view"},{"type":"function","name":"onDeposit","inputs":[{"name":"layer2","type":"address","internalType":"address"},{"name":"account","type":"address","internalType":"address"},{"name":"amount","type":"uint256","internalType":"uint256"}],"outputs":[{"name":"","type":"bool","internalType":"bool"}],"stateMutability":"nonpayable"},{"type":"function","name":"onSnapshot","inputs":[],"outputs":[{"name":"snapshotId","type":"uint256","internalType":"uint256"}],"stateMutability":"nonpayable"},{"type":"function","name":"onTransfer","inputs":[{"name":"","type":"address","internalType":"address"},{"name":"","type":"address","internalType":"address"},{"name":"","type":"uint256","internalType":"uint256"}],"outputs":[{"name":"","type":"bool","internalType":"bool"}],"stateMutability":"nonpayable"},{"type":"function","name":"onWithdraw","inputs":[{"name":"layer2","type":"address","internalType":"address"},{"name":"account","type":"address","internalType":"address"},{"name":"amount","type":"uint256","internalType":"uint256"}],"outputs":[{"name":"","type":"bool","internalType":"bool"}],"stateMutability":"nonpayable"},{"type":"function","name":"pause","inputs":[],"outputs":[],"stateMutability":"nonpayable"},{"type":"function","name":"pauseProxy","inputs":[],"outputs":[{"name":"","type":"bool","internalType":"bool"}],"stateMutability":"view"},{"type":"function","name":"paused","inputs":[],"outputs":[{"name":"","type":"bool","internalType":"bool"}],"stateMutability":"view"},{"type":"function","name":"pausedBlock","inputs":[],"outputs":[{"name":"","type":"uint256","internalType":"uint256"}],"stateMutability":"view"},{"type":"function","name":"powerTONSeigRate","inputs":[],"outputs":[{"name":"","type":"uint256","internalType":"uint256"}],"stateMutability":"view"},{"type":"function","name":"powerton","inputs":[],"outputs":[{"name":"","type":"address","internalType":"address"}],"stateMutability":"view"},{"type":"function","name":"progressSnapshotId","inputs":[],"outputs":[{"name":"","type":"uint256","internalType":"uint256"}],"stateMutability":"view"},{"type":"function","name":"proxyImplementation","inputs":[{"name":"","type":"uint256","internalType":"uint256"}],"outputs":[{"name":"","type":"address","internalType":"address"}],"stateMutability":"view"},{"type":"function","name":"registry","inputs":[],"outputs":[{"name":"","type":"address","internalType":"address"}],"stateMutability":"view"},{"type":"function","name":"relativeSeigRate","inputs":[],"outputs":[{"name":"","type":"uint256","internalType":"uint256"}],"stateMutability":"view"},{"type":"function","name":"removeAdmin","inputs":[{"name":"account","type":"address","internalType":"address"}],"outputs":[],"stateMutability":"nonpayable"},{"type":"function","name":"removeChallenger","inputs":[{"name":"account","type":"address","internalType":"address"}],"outputs":[],"stateMutability":"nonpayable"},{"type":"function","name":"removeMinter","inputs":[{"name":"account","type":"address","internalType":"address"}],"outputs":[],"stateMutability":"nonpayable"},{"type":"function","name":"removeOperator","inputs":[{"name":"account","type":"address","internalType":"address"}],"outputs":[],"stateMutability":"nonpayable"},{"type":"function","name":"renounceChallenger","inputs":[],"outputs":[],"stateMutability":"nonpayable"},{"type":"function","name":"renounceMinter","inputs":[{"name":"target","type":"address","internalType":"address"}],"outputs":[],"stateMutability":"nonpayable"},{"type":"function","name":"renounceMinter","inputs":[],"outputs":[],"stateMutability":"nonpayable"},{"type":"function","name":"renounceOperator","inputs":[],"outputs":[],"stateMutability":"nonpayable"},{"type":"function","name":"renounceOwnership","inputs":[{"name":"target","type":"address","internalType":"address"}],"outputs":[],"stateMutability":"nonpayable"},{"type":"function","name":"renounceOwnership","inputs":[],"outputs":[],"stateMutability":"nonpayable"},{"type":"function","name":"renouncePauser","inputs":[{"name":"target","type":"address","internalType":"address"}],"outputs":[],"stateMutability":"nonpayable"},{"type":"function","name":"renounceRole","inputs":[{"name":"role","type":"bytes32","internalType":"bytes32"},{"name":"callerConfirmation","type":"address","internalType":"address"}],"outputs":[],"stateMutability":"nonpayable"},{"type":"function","name":"renounceWTONMinter","inputs":[],"outputs":[],"stateMutability":"nonpayable"},{"type":"function","name":"revokeChallenger","inputs":[{"name":"account","type":"address","internalType":"address"}],"outputs":[],"stateMutability":"nonpayable"},{"type":"function","name":"revokeMinter","inputs":[{"name":"account","type":"address","internalType":"address"}],"outputs":[],"stateMutability":"nonpayable"},{"type":"function","name":"revokeOperator","inputs":[{"name":"account","type":"address","internalType":"address"}],"outputs":[],"stateMutability":"nonpayable"},{"type":"function","name":"revokeRole","inputs":[{"name":"role","type":"bytes32","internalType":"bytes32"},{"name":"account","type":"address","internalType":"address"}],"outputs":[],"stateMutability":"nonpayable"},{"type":"function","name":"seigPerBlock","inputs":[],"outputs":[{"name":"","type":"uint256","internalType":"uint256"}],"stateMutability":"view"},{"type":"function","name":"selectorImplementation","inputs":[{"name":"","type":"bytes4","internalType":"bytes4"}],"outputs":[{"name":"","type":"address","internalType":"address"}],"stateMutability":"view"},{"type":"function","name":"setAdjustDelay","inputs":[{"name":"adjustDelay_","type":"uint256","internalType":"uint256"}],"outputs":[],"stateMutability":"nonpayable"},{"type":"function","name":"setCoinageFactory","inputs":[{"name":"factory_","type":"address","internalType":"address"}],"outputs":[],"stateMutability":"nonpayable"},{"type":"function","name":"setCommissionRate","inputs":[{"name":"layer2","type":"address","internalType":"address"},{"name":"commissionRate","type":"uint256","internalType":"uint256"},{"name":"isCommissionRateNegative_","type":"bool","internalType":"bool"}],"outputs":[{"name":"","type":"bool","internalType":"bool"}],"stateMutability":"nonpayable"},{"type":"function","name":"setDao","inputs":[{"name":"daoAddress","type":"address","internalType":"address"}],"outputs":[],"stateMutability":"nonpayable"},{"type":"function","name":"setDaoSeigRate","inputs":[{"name":"daoSeigRate_","type":"uint256","internalType":"uint256"}],"outputs":[],"stateMutability":"nonpayable"},{"type":"function","name":"setData","inputs":[{"name":"powerton_","type":"address","internalType":"address"},{"name":"daoAddress","type":"address","internalType":"address"},{"name":"powerTONSeigRate_","type":"uint256","internalType":"uint256"},{"name":"daoSeigRate_","type":"uint256","internalType":"uint256"},{"name":"relativeSeigRate_","type":"uint256","internalType":"uint256"},{"name":"adjustDelay_","type":"uint256","internalType":"uint256"},{"name":"minimumAmount_","type":"uint256","internalType":"uint256"}],"outputs":[],"stateMutability":"nonpayable"},{"type":"function","name":"setMinimumAmount","inputs":[{"name":"minimumAmount_","type":"uint256","internalType":"uint256"}],"outputs":[],"stateMutability":"nonpayable"},{"type":"function","name":"setPowerTON","inputs":[{"name":"powerton_","type":"address","internalType":"address"}],"outputs":[],"stateMutability":"nonpayable"},{"type":"function","name":"setPowerTONSeigRate","inputs":[{"name":"powerTONSeigRate_","type":"uint256","internalType":"uint256"}],"outputs":[],"stateMutability":"nonpayable"},{"type":"function","name":"setPseigRate","inputs":[{"name":"pseigRate_","type":"uint256","internalType":"uint256"}],"outputs":[],"stateMutability":"nonpayable"},{"type":"function","name":"slash","inputs":[{"name":"layer2","type":"address","internalType":"address"},{"name":"challenger","type":"address","internalType":"address"}],"outputs":[{"name":"","type":"bool","internalType":"bool"}],"stateMutability":"nonpayable"},{"type":"function","name":"stakeOf","inputs":[{"name":"account","type":"address","internalType":"address"}],"outputs":[{"name":"amount","type":"uint256","internalType":"uint256"}],"stateMutability":"view"},{"type":"function","name":"stakeOf","inputs":[{"name":"layer2","type":"address","internalType":"address"},{"name":"account","type":"address","internalType":"address"}],"outputs":[{"name":"","type":"uint256","internalType":"uint256"}],"stateMutability":"view"},{"type":"function","name":"stakeOfAt","inputs":[{"name":"account","type":"address","internalType":"address"},{"name":"snapshotId","type":"uint256","internalType":"uint256"}],"outputs":[{"name":"amount","type":"uint256","internalType":"uint256"}],"stateMutability":"view"},{"type":"function","name":"stakeOfAt","inputs":[{"name":"layer2","type":"address","internalType":"address"},{"name":"account","type":"address","internalType":"address"},{"name":"snapshotId","type":"uint256","internalType":"uint256"}],"outputs":[{"name":"amount","type":"uint256","internalType":"uint256"}],"stateMutability":"view"},{"type":"function","name":"stakeOfTotal","inputs":[],"outputs":[{"name":"amount","type":"uint256","internalType":"uint256"}],"stateMutability":"view"},{"type":"function","name":"stakeOfTotalAt","inputs":[{"name":"snapshotId","type":"uint256","internalType":"uint256"}],"outputs":[{"name":"amount","type":"uint256","internalType":"uint256"}],"stateMutability":"view"},{"type":"function","name":"supportsInterface","inputs":[{"name":"interfaceId","type":"bytes4","internalType":"bytes4"}],"outputs":[{"name":"","type":"bool","internalType":"bool"}],"stateMutability":"view"},{"type":"function","name":"ton","inputs":[],"outputs":[{"name":"","type":"address","internalType":"address"}],"stateMutability":"view"},{"type":"function","name":"tot","inputs":[],"outputs":[{"name":"","type":"address","internalType":"address"}],"stateMutability":"view"},{"type":"function","name":"totalSupplyOfTon","inputs":[],"outputs":[{"name":"tos","type":"uint256","internalType":"uint256"}],"stateMutability":"pure"},{"type":"function","name":"transferAdmin","inputs":[{"name":"newAdmin","type":"address","internalType":"address"}],"outputs":[],"stateMutability":"nonpayable"},{"type":"function","name":"transferCoinageOwnership","inputs":[{"name":"newSeigManager","type":"address","internalType":"address"},{"name":"coinages_","type":"address[]","internalType":"address[]"}],"outputs":[],"stateMutability":"nonpayable"},{"type":"function","name":"transferOwnership","inputs":[{"name":"target","type":"address","internalType":"address"},{"name":"newOwner","type":"address","internalType":"address"}],"outputs":[],"stateMutability":"nonpayable"},{"type":"function","name":"transferOwnership","inputs":[{"name":"newAdmin","type":"address","internalType":"address"}],"outputs":[],"stateMutability":"nonpayable"},{"type":"function","name":"uncomittedStakeOf","inputs":[{"name":"layer2","type":"address","internalType":"address"},{"name":"account","type":"address","internalType":"address"}],"outputs":[{"name":"","type":"uint256","internalType":"uint256"}],"stateMutability":"view"},{"type":"function","name":"unpause","inputs":[],"outputs":[],"stateMutability":"nonpayable"},{"type":"function","name":"unpausedBlock","inputs":[],"outputs":[{"name":"","type":"uint256","internalType":"uint256"}],"stateMutability":"view"},{"type":"function","name":"updateSeigniorage","inputs":[],"outputs":[{"name":"","type":"bool","internalType":"bool"}],"stateMutability":"nonpayable"},{"type":"function","name":"updateSeigniorageLayer","inputs":[{"name":"layer2","type":"address","internalType":"address"}],"outputs":[{"name":"","type":"bool","internalType":"bool"}],"stateMutability":"nonpayable"},{"type":"function","name":"wton","inputs":[],"outputs":[{"name":"","type":"address","internalType":"address"}],"stateMutability":"view"},{"type":"event","name":"AddedSeigAtLayer","inputs":[{"name":"layer2","type":"address","indexed":false,"internalType":"address"},{"name":"seigs","type":"uint256","indexed":false,"internalType":"uint256"},{"name":"operatorSeigs","type":"uint256","indexed":false,"internalType":"uint256"},{"name":"nextTotalSupply","type":"uint256","indexed":false,"internalType":"uint256"},{"name":"prevTotalSupply","type":"uint256","indexed":false,"internalType":"uint256"}],"anonymous":false},{"type":"event","name":"CoinageCreated","inputs":[{"name":"layer2","type":"address","indexed":true,"internalType":"address"},{"name":"coinage","type":"address","indexed":false,"internalType":"address"}],"anonymous":false},{"type":"event","name":"Comitted","inputs":[{"name":"layer2","type":"address","indexed":true,"internalType":"address"}],"anonymous":false},{"type":"event","name":"CommissionRateSet","inputs":[{"name":"layer2","type":"address","indexed":true,"internalType":"address"},{"name":"previousRate","type":"uint256","indexed":false,"internalType":"uint256"},{"name":"newRate","type":"uint256","indexed":false,"internalType":"uint256"}],"anonymous":false},{"type":"event","name":"LogValues","inputs":[{"name":"message","type":"string","indexed":false,"internalType":"string"},{"name":"value1","type":"uint256","indexed":false,"internalType":"uint256"},{"name":"value2","type":"uint256","indexed":false,"internalType":"uint256"}],"anonymous":false},{"type":"event","name":"OnSnapshot","inputs":[{"name":"snapshotId","type":"uint256","indexed":false,"internalType":"uint256"}],"anonymous":false},{"type":"event","name":"Paused","inputs":[{"name":"account","type":"address","indexed":false,"internalType":"address"}],"anonymous":false},{"type":"event","name":"RoleAdminChanged","inputs":[{"name":"role","type":"bytes32","indexed":true,"internalType":"bytes32"},{"name":"previousAdminRole","type":"bytes32","indexed":true,"internalType":"bytes32"},{"name":"newAdminRole","type":"bytes32","indexed":true,"internalType":"bytes32"}],"anonymous":false},{"type":"event","name":"RoleGranted","inputs":[{"name":"role","type":"bytes32","indexed":true,"internalType":"bytes32"},{"name":"account","type":"address","indexed":true,"internalType":"address"},{"name":"sender","type":"address","indexed":true,"internalType":"address"}],"anonymous":false},{"type":"event","name":"RoleRevoked","inputs":[{"name":"role","type":"bytes32","indexed":true,"internalType":"bytes32"},{"name":"account","type":"address","indexed":true,"internalType":"address"},{"name":"sender","type":"address","indexed":true,"internalType":"address"}],"anonymous":false},{"type":"event","name":"SeigGiven","inputs":[{"name":"layer2","type":"address","indexed":true,"internalType":"address"},{"name":"totalSeig","type":"uint256","indexed":false,"internalType":"uint256"},{"name":"stakedSeig","type":"uint256","indexed":false,"internalType":"uint256"},{"name":"unstakedSeig","type":"uint256","indexed":false,"internalType":"uint256"},{"name":"powertonSeig","type":"uint256","indexed":false,"internalType":"uint256"},{"name":"daoSeig","type":"uint256","indexed":false,"internalType":"uint256"},{"name":"pseig","type":"uint256","indexed":false,"internalType":"uint256"}],"anonymous":false},{"type":"event","name":"SetDaoSeigRate","inputs":[{"name":"daoSeigRate","type":"uint256","indexed":false,"internalType":"uint256"}],"anonymous":false},{"type":"event","name":"SetPowerTONSeigRate","inputs":[{"name":"powerTONSeigRate","type":"uint256","indexed":false,"internalType":"uint256"}],"anonymous":false},{"type":"event","name":"SetPseigRate","inputs":[{"name":"pseigRate","type":"uint256","indexed":false,"internalType":"uint256"}],"anonymous":false},{"type":"event","name":"Transferred","inputs":[{"name":"_to","type":"address","indexed":false,"internalType":"address"},{"name":"amount","type":"uint256","indexed":false,"internalType":"uint256"}],"anonymous":false},{"type":"event","name":"Unpaused","inputs":[{"name":"account","type":"address","indexed":false,"internalType":"address"}],"anonymous":false},{"type":"event","name":"UnstakeLog","inputs":[{"name":"coinageBurnAmount","type":"uint256","indexed":false,"internalType":"uint256"},{"name":"totBurnAmount","type":"uint256","indexed":false,"internalType":"uint256"}],"anonymous":false},{"type":"error","name":"AccessControlBadConfirmation","inputs":[]},{"type":"error","name":"AccessControlUnauthorizedAccount","inputs":[{"name":"account","type":"address","internalType":"address"},{"name":"neededRole","type":"bytes32","internalType":"bytes32"}]}],"bytecode":{"object":"0x608060405234601d575b600f6021565b617cd861002d8239617cd890f35b6027565b60405190565b600080fdfe60806040526004361015610013575b612632565b61001e60003561072c565b806301ffc9a714610727575b806303e1cc2714610722575b80630ceb67801461071d575b80631397704214610718575b80631785f53c14610713575b80631cc478901461070e575b80631e1f0b6014610709575b80632428c62814610704575b8063248a9ca3146106ff575b806324d7806c146106fa575b806325374a9a146106f5575b806325e90db4146106f0575b80632ab6f8db146106eb575b80632d1bdec8146106e6575b80632f17250a146106e1575b80632f2ff15d146106dc575b80633092afd5146106d7575b806332053c99146106d2575b806332847953146106cd575b806336568abe146106c8575b8063389ed267146106c3575b806338bf3cfa146106be575b80633c491173146106b9575b80633e832e1d146106b4575b80633f4ba83a146106af575b80634123196f146106aa575b8063412c6d50146106a5575b80634162169f146106a0575b8063418130201461069b575b806341eb24bb14610696575b80634224ed6614610691575b8063426233601461068c575b806346a99fe714610687575b806348c8577e14610682575b80634a3931491461067d575b80634c063c1914610678575b80634c75ab9c14610673575b806350d2a2761461066e575b8063530adbb414610669575b8063550d01a314610664575b8063552033c41461065f575b806358d00cd61461065a575b80635998a8d714610655575b80635a16a41614610650575b80635c975abb1461064b575b80635f112c6814610646575b80635f40a34914610641575b80636304a6241461063c575b806363a8fd8914610637575b80636637b88214610632575b80636c578c1d1461062d575b80636c7ac9d814610628575b80636d43542114610623575b80636d70f7ae1461061e575b80637048027514610619575b8063715018a614610614575b806375829def1461060f575b8063764a78561461060a575b80637aeccce914610605575b80637b056c1b14610600575b80637b103999146105fb575b8063833a774f146105f6575b8063837afbc0146105f1575b80638456cb59146105ec575b80638bf91dc4146105e7575b80638d62d949146105e2575b80638f32d59b146105dd575b806391d14854146105d8575b80639328f1bc146105d3575b8063983b2d56146105ce575b806398650275146105c9575b80639870d7fe146105c4575b80639c877e47146105bf575b8063a0474ef5146105ba575b8063a16d6aa7146105b5575b8063a217fddf146105b0575b8063a415d8dc146105ab575b8063a7dcc850146105a6575b8063aa271e1a146105a1575b8063ac753a7a1461059c575b8063ac89321914610597575b8063ac8a584a14610592575b8063ae3458f81461058d575b8063b911135f14610588575b8063bb0c829814610583575b8063c45a01551461057e575b8063c59f104614610579575b8063cbfebe6214610574575b8063cc48b9471461056f575b8063ce4cb8761461056a575b8063ce6c035514610565575b8063cfbd488514610560575b8063d53913931461055b575b8063d547741f14610556575b8063df7fbef014610551575b8063e2fe8fd11461054c575b8063e403483214610547575b8063eeb4a9c814610542575b8063f2fde38b1461053d575b8063f35c89e814610538575b8063f5b541a614610533575b8063f82293481461052e575b8063f850ffaa14610529575b8063f8951f4614610524575b8063fa9789c81461051f575b63fad8b32a1461051a575b61000e565b6125fe565b6125c7565b61258c565b6124e3565b6124ad565b612468565b612403565b6123cf565b61239b565b612367565b612331565b6122e0565b61229c565b612266565b612203565b6121cd565b612196565b612160565b61212a565b6120c1565b61208b565b612046565b612001565b611f7e565b611f4a565b611f16565b611ee0565b611e8f565b611e59565b611de2565b611dac565b611d39565b611d03565b611ccf565b611c9b565b611c67565b611c33565b611bfc565b611bc5565b611b8f565b611b59565b611b23565b611aef565b611ab9565b611a74565b611a3e565b611a08565b6119d1565b61199b565b611967565b611933565b6118ff565b6118c9565b611894565b61182f565b6117fb565b6117c7565b611791565b61174d565b611708565b6116d4565b61169e565b611659565b611623565b6115de565b6115a8565b611567565b61149d565b611438565b6113c2565b61135d565b611326565b6112ef565b6112b4565b61120c565b6111d5565b61113e565b61110a565b6110d4565b61105c565b610fea565b610f67565b610f31565b610eda565b610ea6565b610e70565b610e0c565b610dd7565b610d06565b610cd2565b610c9d565b610c38565b610c04565b610bd0565b610b9c565b610b66565b610af4565b610abe565b610a1b565b6109e5565b6109af565b61097b565b610945565b6108dd565b61084a565b6107c3565b60e01c90565b60405190565b600080fd5b600080fd5b600080fd5b63ffffffff60e01b901690565b61075d81610747565b901415610767575b565b600080fd5b9050359061077982610754565b565b90602082820312610796575b6000610793920161076c565b90565b61073d565b151590565b6107a99061079b565b9052565b91906107c1906000602085019401906107a0565b565b346107f4575b6107f06107df6107da36600461077b565b61263c565b6107e7610732565b918291826107ad565b0390f35b610738565b90565b610805816107f9565b90141561080f575b565b600080fd5b90503590610821826107fc565b565b9060208282031261083e575b600061083b9201610814565b90565b61073d565b6000900190565b34610879575b61086361085e366004610823565b6128d4565b61086b610732565b8061087581610843565b0390f35b610738565b60018060a01b03901690565b6108939061087e565b90565b61089f8161088a565b9014156108a9575b565b600080fd5b905035906108bb82610896565b565b906020828203126108d8575b60006108d592016108ae565b90565b61073d565b3461090c575b6108f66108f13660046108bd565b6129b9565b6108fe610732565b8061090881610843565b0390f35b610738565b600091031261091d575b565b61073d565b61092b906107f9565b9052565b919061094390600060208501940190610922565b565b34610976575b610956366004610911565b6109726109616129c9565b610969610732565b9182918261092f565b0390f35b610738565b346109aa575b61099461098f3660046108bd565b612a0e565b61099c610732565b806109a681610843565b0390f35b610738565b346109e0575b6109c0366004610911565b6109dc6109cb612a19565b6109d3610732565b9182918261092f565b0390f35b610738565b34610a16575b610a12610a016109fc3660046108bd565b612b6d565b610a09610732565b918291826107ad565b0390f35b610738565b34610a4c575b610a2c366004610911565b610a48610a37612c27565b610a3f610732565b9182918261092f565b0390f35b610738565b90565b610a5d81610a51565b901415610a67575b565b600080fd5b90503590610a7982610a54565b565b90602082820312610a96575b6000610a939201610a6c565b90565b61073d565b610aa490610a51565b9052565b9190610abc90600060208501940190610a9b565b565b34610aef575b610aeb610ada610ad5366004610a7b565b612c98565b610ae2610732565b91829182610aa8565b0390f35b610738565b34610b25575b610b21610b10610b0b3660046108bd565b612cba565b610b18610732565b918291826107ad565b0390f35b610738565b1c90565b90565b610b41906008610b469302610b2a565b610b2e565b90565b90610b549154610b31565b90565b610b636000601c610b49565b90565b34610b97575b610b77366004610911565b610b93610b82610b57565b610b8a610732565b9182918261092f565b0390f35b610738565b34610bcb575b610bad366004610911565b610bb5612cd7565b610bbd610732565b80610bc781610843565b0390f35b610738565b34610bff575b610be1366004610911565b610be9612ceb565b610bf1610732565b80610bfb81610843565b0390f35b610738565b34610c33575b610c1d610c18366004610823565b612d28565b610c25610732565b80610c2f81610843565b0390f35b610738565b34610c69575b610c65610c54610c4f3660046108bd565b612e06565b610c5c610732565b9182918261092f565b0390f35b610738565b9190604083820312610c98575b806020610c8e610c959360008701610a6c565b94016108ae565b90565b61073d565b34610ccd575b610cb7610cb1366004610c6e565b90612f5a565b610cbf610732565b80610cc981610843565b0390f35b610738565b34610d01575b610ceb610ce63660046108bd565b612f95565b610cf3610732565b80610cfd81610843565b0390f35b610738565b34610d37575b610d17366004610911565b610d33610d22612fa0565b610d2a610732565b9182918261092f565b0390f35b610738565b600080fd5b600080fd5b600080fd5b909182601f83011215610d89575b81359167ffffffffffffffff8311610d84575b602090019260208302840111610d7f575b565b610d46565b610d41565b610d3c565b919091604081840312610dd2575b610da983600083016108ae565b92602082013567ffffffffffffffff8111610dcd575b610dc99201610d4b565b9091565b610742565b61073d565b34610e07575b610df1610deb366004610d8e565b9161323c565b610df9610732565b80610e0381610843565b0390f35b610738565b34610e3c575b610e26610e20366004610c6e565b90613249565b610e2e610732565b80610e3881610843565b0390f35b610738565b7ffcb9fcbfa83b897fb2d5cf4b58962164105c1e71489a37ef3ae0db3fdce576f690565b610e6d610e41565b90565b34610ea1575b610e81366004610911565b610e9d610e8c610e65565b610e94610732565b91829182610aa8565b0390f35b610738565b34610ed5575b610ebf610eba3660046108bd565b613367565b610ec7610732565b80610ed181610843565b0390f35b610738565b34610f09575b610ef3610eee3660046108bd565b6133a1565b610efb610732565b80610f0581610843565b0390f35b610738565b610f179061088a565b9052565b9190610f2f90600060208501940190610f0e565b565b34610f62575b610f42366004610911565b610f5e610f4d6133d2565b610f55610732565b91829182610f1b565b0390f35b610738565b34610f96575b610f78366004610911565b610f80613610565b610f88610732565b80610f9281610843565b0390f35b610738565b90565b90565b610fb5610fb0610fba92610f9b565b610f9e565b6107f9565b90565b610fd1676765c793fa10079d601b1b610fa1565b90565b610fdc610fbd565b90565b610fe7610fd4565b90565b3461101b575b610ffb366004610911565b611017611006610fdf565b61100e610732565b9182918261092f565b0390f35b610738565b9091606082840312611057575b61105461103d84600085016108ae565b93604061104d82602087016108ae565b9401610814565b90565b61073d565b3461108e575b61108a611079611073366004611020565b91613a8c565b611081610732565b918291826107ad565b0390f35b610738565b60018060a01b03901690565b6110af9060086110b49302610b2a565b611093565b90565b906110c2915461109f565b90565b6110d1600060086110b7565b90565b34611105575b6110e5366004610911565b6111016110f06110c5565b6110f8610732565b91829182610f1b565b0390f35b610738565b34611139575b61112361111e3660046108bd565b613b0d565b61112b610732565b8061113581610843565b0390f35b610738565b3461116d575b6111576111523660046108bd565b613be6565b61115f610732565b8061116981610843565b0390f35b610738565b61117b8161079b565b901415611185575b565b600080fd5b9050359061119782611172565b565b90916060828403126111d0575b6111cd6111b684600085016108ae565b9360406111c68260208701610814565b940161118a565b90565b61073d565b34611207575b6112036111f26111ec366004611199565b91613fca565b6111fa610732565b918291826107ad565b0390f35b610738565b3461123d575b6112396112286112233660046108bd565b614006565b611230610732565b9182918261092f565b0390f35b610738565b60e0818303126112af575b61125a82600083016108ae565b9261126883602084016108ae565b9261127681604085016108ae565b9261128482606083016108ae565b926112ac6112958460808501610814565b9360c06112a58260a087016108ae565b9401610814565b90565b61073d565b346112ea575b6112d46112c8366004611242565b95949094939193614363565b6112dc610732565b806112e681610843565b0390f35b610738565b34611321575b61131d61130c611306366004611020565b916144e4565b611314610732565b9182918261092f565b0390f35b610738565b34611358575b61135461134361133d366004611020565b916145a6565b61134b610732565b918291826107ad565b0390f35b610738565b3461138e575b61138a6113796113743660046108bd565b614631565b611381610732565b91829182610f1b565b0390f35b610738565b91906040838203126113bd575b8060206113b36113ba93600087016108ae565b9401610814565b90565b61073d565b346113f4575b6113f06113df6113d9366004611393565b90614658565b6113e7610732565b9182918261092f565b0390f35b610738565b61140290610747565b90565b9061140f906113f9565b600052602052604060002090565b6000611430611435926003506003611405565b6110b7565b90565b34611469575b61146561145461144f36600461077b565b61141d565b61145c610732565b91829182610f1b565b0390f35b610738565b7fbf02bad7114723a857a3af46cea17b778a3a951c96f183784d9a2448cc479ab690565b61149a61146e565b90565b346114ce575b6114ae366004610911565b6114ca6114b9611492565b6114c1610732565b91829182610aa8565b0390f35b610738565b6114e76114e26114ec9261087e565b610f9e565b61087e565b90565b6114f8906114d3565b90565b611504906114ef565b90565b90611511906114fb565b600052602052604060002090565b60ff901690565b61153690600861153b9302610b2a565b61151f565b90565b906115499154611526565b90565b600061155f611564926002506002611507565b61153e565b90565b34611598575b61159461158361157e3660046108bd565b61154c565b61158b610732565b918291826107ad565b0390f35b610738565b6115a5610fbd565b90565b346115d9575b6115b9366004610911565b6115d56115c461159d565b6115cc610732565b9182918261092f565b0390f35b610738565b3461160f575b6115ef366004610911565b61160b6115fa61487a565b611602610732565b9182918261092f565b0390f35b610738565b6116206000601b610b49565b90565b34611654575b611634366004610911565b61165061163f611614565b611647610732565b9182918261092f565b0390f35b610738565b3461168a575b6116866116756116703660046108bd565b6148e6565b61167d610732565b918291826107ad565b0390f35b610738565b61169b6000601e61153e565b90565b346116cf575b6116af366004610911565b6116cb6116ba61168f565b6116c2610732565b918291826107ad565b0390f35b610738565b34611703575b6116ed6116e83660046108bd565b6149d3565b6116f5610732565b806116ff81610843565b0390f35b610738565b34611739575b611719366004610911565b6117356117246149de565b61172c610732565b9182918261092f565b0390f35b610738565b61174a6000601a610b49565b90565b3461177e575b61175e366004610911565b61177a61176961173e565b611771610732565b9182918261092f565b0390f35b610738565b61178e60008061153e565b90565b346117c2575b6117a2366004610911565b6117be6117ad611783565b6117b5610732565b918291826107ad565b0390f35b610738565b346117f6575b6117e06117db3660046108bd565b614a1d565b6117e8610732565b806117f281610843565b0390f35b610738565b3461182a575b61181461180f3660046108bd565b614a57565b61181c610732565b8061182681610843565b0390f35b610738565b34611860575b611840366004610911565b61185c61184b614a62565b611853610732565b91829182610f1b565b0390f35b610738565b919060408382031261188f575b80602061188561188c93600087016108ae565b94016108ae565b90565b61073d565b346118c4575b6118ae6118a8366004611865565b90614b28565b6118b6610732565b806118c081610843565b0390f35b610738565b346118fa575b6118f66118e56118e03660046108bd565b614b34565b6118ed610732565b918291826107ad565b0390f35b610738565b3461192e575b6119186119133660046108bd565b614b80565b611920610732565b8061192a81610843565b0390f35b610738565b34611962575b611944366004610911565b61194c614bba565b611954610732565b8061195e81610843565b0390f35b610738565b34611996575b61198061197b3660046108bd565b614d4a565b611988610732565b8061199281610843565b0390f35b610738565b346119cc575b6119ac366004610911565b6119c86119b76155a4565b6119bf610732565b918291826107ad565b0390f35b610738565b34611a03575b6119ff6119ee6119e8366004611865565b90615776565b6119f6610732565b918291826107ad565b0390f35b610738565b34611a39575b611a35611a24611a1f3660046108bd565b61578d565b611a2c610732565b9182918261092f565b0390f35b610738565b34611a6f575b611a4f366004610911565b611a6b611a5a6157ac565b611a62610732565b91829182610f1b565b0390f35b610738565b34611aa5575b611aa1611a90611a8b3660046108bd565b6157c2565b611a98610732565b918291826107ad565b0390f35b610738565b611ab66000601f610b49565b90565b34611aea575b611aca366004610911565b611ae6611ad5611aaa565b611add610732565b9182918261092f565b0390f35b610738565b34611b1e575b611b00366004610911565b611b08615a5f565b611b10610732565b80611b1a81610843565b0390f35b610738565b34611b54575b611b34366004610911565b611b50611b3f615a74565b611b47610732565b9182918261092f565b0390f35b610738565b34611b8a575b611b6a366004610911565b611b86611b75615a88565b611b7d610732565b91829182610f1b565b0390f35b610738565b34611bc0575b611ba0366004610911565b611bbc611bab615a9e565b611bb3610732565b918291826107ad565b0390f35b610738565b34611bf7575b611bf3611be2611bdc366004610c6e565b90615abc565b611bea610732565b918291826107ad565b0390f35b610738565b34611c2e575b611c2a611c19611c13366004611020565b91615ae7565b611c21610732565b9182918261092f565b0390f35b610738565b34611c62575b611c4c611c473660046108bd565b615bb4565b611c54610732565b80611c5e81610843565b0390f35b610738565b34611c96575b611c78366004610911565b611c80615bbf565b611c88610732565b80611c9281610843565b0390f35b610738565b34611cca575b611cb4611caf3660046108bd565b615c02565b611cbc610732565b80611cc681610843565b0390f35b610738565b34611cfe575b611ce8611ce3366004610823565b615cb8565b611cf0610732565b80611cfa81610843565b0390f35b610738565b34611d34575b611d30611d1f611d1a366004610823565b615cc3565b611d27610732565b9182918261092f565b0390f35b610738565b34611d6a575b611d4a366004610911565b611d66611d55615d55565b611d5d610732565b91829182610f1b565b0390f35b610738565b90565b60001b90565b611d8c611d87611d9192611d6f565b611d72565b610a51565b90565b611d9e6000611d78565b90565b611da9611d94565b90565b34611ddd575b611dbd366004610911565b611dd9611dc8611da1565b611dd0610732565b91829182610aa8565b0390f35b610738565b34611e13575b611e0f611dfe611df93660046108bd565b615d73565b611e06610732565b918291826107ad565b0390f35b610738565b90565b611e2f611e2a611e3492611e18565b610f9e565b6107f9565b90565b611e4b6a084595161401484a000000611e1b565b90565b611e56611e37565b90565b34611e8a575b611e6a366004610911565b611e86611e75611e4e565b611e7d610732565b9182918261092f565b0390f35b610738565b34611ec0575b611ebc611eab611ea63660046108bd565b615d90565b611eb3610732565b918291826107ad565b0390f35b610738565b6000611ed8611edd926018506018611507565b61153e565b90565b34611f11575b611f0d611efc611ef73660046108bd565b611ec5565b611f04610732565b918291826107ad565b0390f35b610738565b34611f45575b611f2f611f2a3660046108bd565b615dd6565b611f37610732565b80611f4181610843565b0390f35b610738565b34611f79575b611f63611f5e3660046108bd565b615e10565b611f6b610732565b80611f7581610843565b0390f35b610738565b34611fad575b611f8f366004610911565b611f97615ecd565b611f9f610732565b80611fa981610843565b0390f35b610738565b611fc6611fc1611fcb926107f9565b610f9e565b6107f9565b90565b90611fd890611fb2565b600052602052604060002090565b6000611ff9611ffe926001506001611fce565b6110b7565b90565b34612032575b61202e61201d612018366004610823565b611fe6565b612025610732565b91829182610f1b565b0390f35b610738565b61204360006019610b49565b90565b34612077575b612057366004610911565b612073612062612037565b61206a610732565b9182918261092f565b0390f35b610738565b6120886000600b6110b7565b90565b346120bc575b61209c366004610911565b6120b86120a761207c565b6120af610732565b91829182610f1b565b0390f35b610738565b346120f2575b6120ee6120dd6120d83660046108bd565b615ed7565b6120e5610732565b9182918261092f565b0390f35b610738565b90612101906114fb565b600052602052604060002090565b60006121226121279260165060166120f7565b610b49565b90565b3461215b575b6121576121466121413660046108bd565b61210f565b61214e610732565b9182918261092f565b0390f35b610738565b34612191575b612171366004610911565b61218d61217c615ef6565b612184610732565b91829182610f1b565b0390f35b610738565b346121c8575b6121c46121b36121ad366004611865565b90615f0c565b6121bb610732565b9182918261092f565b0390f35b610738565b346121fe575b6121de366004610911565b6121fa6121e9615fa7565b6121f1610732565b9182918261092f565b0390f35b610738565b34612232575b61221c6122173660046108bd565b616066565b612224610732565b8061222e81610843565b0390f35b610738565b7ff0887ba65ee2024ea881d91b74c2450ef19e1557f03bed3ea9f16b037cbe2dc990565b612263612237565b90565b34612297575b612277366004610911565b61229361228261225b565b61228a610732565b91829182610aa8565b0390f35b610738565b346122cc575b6122b66122b0366004610c6e565b9061609b565b6122be610732565b806122c881610843565b0390f35b610738565b6122dd60006015610b49565b90565b34612311575b6122f1366004610911565b61230d6122fc6122d1565b612304610732565b9182918261092f565b0390f35b610738565b600061232961232e9260175060176120f7565b610b49565b90565b34612362575b61235e61234d6123483660046108bd565b612316565b612355610732565b9182918261092f565b0390f35b610738565b34612396575b61238061237b366004610823565b616152565b612388610732565b8061239281610843565b0390f35b610738565b346123ca575b6123b46123af366004610823565b616186565b6123bc610732565b806123c681610843565b0390f35b610738565b346123fe575b6123e86123e33660046108bd565b6161b8565b6123f0610732565b806123fa81610843565b0390f35b610738565b34612434575b612414366004610911565b61243061241f6161c3565b612427610732565b9182918261092f565b0390f35b610738565b7f523a704056dcd17bcf83bed8b68c59416dac1119be77755efe3bde0a64e46e0c90565b612465612439565b90565b34612499575b612479366004610911565b61249561248461245d565b61248c610732565b91829182610aa8565b0390f35b610738565b6124aa6000601d610b49565b90565b346124de575b6124be366004610911565b6124da6124c961249e565b6124d1610732565b9182918261092f565b0390f35b610738565b34612515575b6125116125006124fa366004611020565b9161660f565b612508610732565b918291826107ad565b0390f35b610738565b60e081830312612587575b61253282600083016108ae565b9261254083602084016108ae565b9261254e8160408501610814565b9261255c8260608301610814565b9261258461256d8460808501610814565b9360c061257d8260a08701610814565b9401610814565b90565b61073d565b346125c2575b6125ac6125a036600461251a565b95949094939193616775565b6125b4610732565b806125be81610843565b0390f35b610738565b346125f9575b6125f56125e46125de366004611865565b90616786565b6125ec610732565b9182918261092f565b0390f35b610738565b3461262d575b6126176126123660046108bd565b616a6e565b61261f610732565b8061262981610843565b0390f35b610738565b600080fd5b600090565b61264e90612648612637565b50616a79565b90565b60209181520190565b60207f6d696e0000000000000000000000000000000000000000000000000000000000917f41757468436f6e74726f6c3a2043616c6c6572206973206e6f7420616e20616460008201520152565b6126b56023604092612651565b6126be8161265a565b0190565b6126d890602081019060008183039101526126a8565b90565b156126e3575b565b6126eb610732565b62461bcd60e51b815280612701600482016126c2565b0390fd5b61271f9061271a61271533612cba565b6126db565b612845565b565b60001c90565b61273361273891612721565b610b2e565b90565b6127459054612727565b90565b634e487b7160e01b600052601160045260246000fd5b61276d612773919392936107f9565b926107f9565b820180921161277f575b565b612748565b60007f657863656564656420736569676e696f72616765207261746500000000000000910152565b6127b96019602092612651565b6127c281612784565b0190565b6127dc90602081019060008183039101526127ac565b90565b156127e7575b565b6127ef610732565b62461bcd60e51b815280612805600482016127c6565b0390fd5b9061281660001991611d72565b91811990169116901790565b90565b9061283a61283561284192611fb2565b612822565b8254612809565b9055565b6128cf7f1140c1f14579543e61b599f8f43d0112d66ec1462431e56c97c27b47446a38ac916128b36128936128838361287e601a61273b565b61275e565b61288d601c61273b565b9061275e565b6128ac6128a66128a1610fbd565b6107f9565b916107f9565b11156127df565b6128be81601b612825565b6128c6610732565b9182918261092f565b0390a1565b6128dd90612705565b565b60007f6e6f74206f6e6c794d696e7465724f7241646d696e0000000000000000000000910152565b6129146015602092612651565b61291d816128df565b0190565b6129379060208101906000818303910152612907565b90565b15612942575b565b61294a610732565b62461bcd60e51b81528061296060048201612921565b0390fd5b6129879061297133612cba565b809015612989575b6129829061293a565b6129a6565b565b5061298261299f612998612237565b3390615abc565b9050612979565b6129b7906129b261146e565b612f5a565b565b6129c290612964565b565b600090565b6129d16129c4565b506129dc601f61273b565b90565b6129f9906129f46129ef33612cba565b6126db565b6129fb565b565b612a0c90612a07611d94565b613249565b565b612a17906129df565b565b612a216129c4565b50612a2c601261273b565b90565b612a38906114d3565b90565b612a4490612a2f565b90565b612a50906114ef565b90565b600080fd5b601f801991011690565b634e487b7160e01b600052604160045260246000fd5b90612a8290612a58565b810190811067ffffffffffffffff821117612a9d575b604052565b612a62565b60e01b90565b90505190612ab582611172565b565b90602082820312612ad2575b6000612acf9201612aa8565b90565b61073d565b612adf610732565b3d6000823e3d90fd5b60007f6661696c20757064617465536569676e696f7261676500000000000000000000910152565b612b1d6016602092612651565b612b2681612ae8565b0190565b612b409060208101906000818303910152612b10565b90565b15612b4b575b565b612b53610732565b62461bcd60e51b815280612b6960048201612b2a565b0390fd5b612b82612b8791612b7c612637565b50612a3b565b612a47565b6020612b91610732565b8092612ba063764a7856612aa2565b825281600081612bb260048201610843565b03925af18015612c03575b612bcf91600091612bd4575b50612b43565b600190565b612bf6915060203d602011612bfc575b612bee8183612a78565b810190612ab7565b38612bc9565b503d612be4565b612ad7565b90565b612c1f612c1a612c2492612c08565b610f9e565b6107f9565b90565b612c2f6129c4565b50612c486e099868a38de9ff144be9b8a2db0000612c0b565b90565b600090565b612c5990610a51565b90565b90612c6690612c50565b600052602052604060002090565b90565b612c83612c8891612721565b612c74565b90565b612c959054612c77565b90565b6001612cb1612cb792612ca9612c4b565b506004612c5c565b01612c8b565b90565b612cd490612cc6612637565b50612ccf611d94565b615abc565b90565b612ce9612ce261146e565b3390613249565b565b612cfd612cf6612439565b3390613249565b565b612d1990612d14612d0f33612cba565b6126db565b612d1b565b565b612d26906015612825565b565b612d3190612cff565b565b612d3c906114d3565b90565b612d4890612d33565b90565b612d54906114ef565b90565b90505190612d6482610896565b565b90602082820312612d81575b6000612d7e9201612d57565b90565b61073d565b90612d90906114fb565b600052602052604060002090565b60018060a01b03901690565b612db6612dbb91612721565b612d9e565b90565b612dc89054612daa565b90565b612dd4906114ef565b90565b90505190612de4826107fc565b565b90602082820312612e01575b6000612dfe9201612dd7565b90565b61073d565b612e0e6129c4565b50612e20612e1b33612d3f565b612d4b565b6020612e2a610732565b8092612e3963570ca735612aa2565b82528180612e4960048201610843565b03915afa8015612f2b575b612ea492602092600092612ef0575b50612e7a612e75612e7f92600d612d86565b612dbe565b612dcb565b612e87610732565b8080958194612e996370a08231612aa2565b835260048301610f1b565b03915afa908115612eeb575b600091612ebc575b5090565b612ede915060203d602011612ee4575b612ed68183612a78565b810190612de6565b38612eb8565b503d612ecc565b612ad7565b612e7f919250612e75612f1b612e7a92863d8811612f24575b612f138183612a78565b810190612d66565b93925050612e63565b503d612f09565b612ad7565b90612f4b91612f46612f4182612c98565b616ab9565b612f4d565b565b90612f5791616acd565b50565b90612f6491612f30565b565b612f8090612f7b612f7633612cba565b6126db565b612f82565b565b612f9390612f8e612237565b613249565b565b612f9e90612f66565b565b612fa86129c4565b50612fb3601161273b565b90565b90612fd29291612fcd612fc833612cba565b6126db565b613067565b565b612fe8612fe3612fed92611d6f565b610f9e565b6107f9565b90565b6001612ffc91016107f9565b90565b5090565b634e487b7160e01b600052603260045260246000fd5b919081101561302c575b60209002900190565b613003565b3561303b81610896565b90565b613047906114d3565b90565b6130539061303e565b90565b6000910312613062575b565b61073d565b90929160009361307685612fd4565b5b6130896130848484612fff565b6107f9565b613092826107f9565b1015613234575b6130bc6130b76130b26130ad848787613019565b613031565b61304a565b612dcb565b90813b1561322f575b6130cd610732565b6130da63983b2d56612aa2565b81528781806130ec8960048301610f1b565b038183875af1801561322a575b6131fe575b50813b156131f9575b61310f610732565b61311c6398650275612aa2565b815287818061312d60048201610843565b038183875af180156131f4575b6131c8575b50813b156131c3575b86613151610732565b809361316063f2fde38b612aa2565b82528183816131728b60048301610f1b565b03925af19182156131be575b61318d92613192575b50612ff0565b613077565b6131b190883d8a116131b7575b6131a98183612a78565b810190613056565b38613187565b503d61319f565b612ad7565b612a53565b6131e790883d8a116131ed575b6131df8183612a78565b810190613056565b3861313f565b503d6131d5565b612ad7565b612a53565b61321d90883d8a11613223575b6132158183612a78565b810190613056565b386130fe565b503d61320b565b612ad7565b612a53565b505050509050565b906132479291612fb6565b565b9061325a613255616b78565b61088a565b6132638261088a565b1415613276575b61327391616b85565b50565b61327e610732565b63334bd91960e11b81528061329560048201610843565b0390fd5b6132b3906132ae6132a933612cba565b6126db565b6132d9565b565b6132be906114d3565b90565b6132ca906132b5565b90565b6132d6906114ef565b90565b6132e56132ea916132c1565b6132cd565b803b15613362575b60006132fc610732565b809261330b63715018a6612aa2565b825281838161331c60048201610843565b03925af1801561335d575b61332f575b50565b6133509060003d600011613356575b6133488183612a78565b810190613056565b3861332c565b503d61333e565b612ad7565b612a53565b61337090613299565b565b61338c9061338761338233612cba565b6126db565b61338e565b565b61339f9061339a61146e565b61609b565b565b6133aa90613372565b565b600090565b6133bd6133c291612721565b611093565b90565b6133cf90546133b1565b90565b6133da6133ac565b506133e560076133c5565b90565b60207f7365720000000000000000000000000000000000000000000000000000000000917f41757468436f6e74726f6c3a2043616c6c6572206973206e6f7420612070617560008201520152565b6134436023604092612651565b61344c816133e8565b0190565b6134669060208101906000818303910152613436565b90565b15613471575b565b613479610732565b62461bcd60e51b81528061348f60048201613450565b0390fd5b6134ad6134a86134a1610e41565b3390615abc565b613469565b6134b561355d565b565b6134c36134c891612721565b61151f565b90565b6134d590546134b7565b90565b60007f5061757361626c653a206e6f7420706175736564000000000000000000000000910152565b61350d6014602092612651565b613516816134d8565b0190565b6135309060208101906000818303910152613500565b90565b1561353b575b565b613543610732565b62461bcd60e51b8152806135596004820161351a565b0390fd5b61356f61356a601e6134cb565b613533565b6135776135c0565b565b9061358560ff91611d72565b91811990169116901790565b61359a9061079b565b90565b90565b906135b56135b06135bc92613591565b61359d565b8254613579565b9055565b6135cb436012612825565b6135d76000601e6135a0565b7f5db9ee0a495bf2e6ff9c91a7834c1ba4fdd244a5e8aa4e537bd38aeae4b073aa613600610732565b8061360b3382610f1b565b0390a1565b613618613493565b565b60007f6e6f74206f6e6c794465706f7369744d616e6167657200000000000000000000910152565b61364f6016602092612651565b6136588161361a565b0190565b6136729060208101906000818303910152613642565b90565b1561367d575b565b613685610732565b62461bcd60e51b81528061369b6004820161365c565b0390fd5b906136d193929180506136cc6136bd6136b860066133c5565b61088a565b6136c63361088a565b14613675565b6137a7565b90565b6136e86136e36136ed92611d6f565b610f9e565b61087e565b90565b6136f9906136d4565b90565b60207f6e206465706c6f79656420796574000000000000000000000000000000000000917f536569674d616e616765723a20636f696e61676520686173206e6f742062656560008201520152565b613757602e604092612651565b613760816136fc565b0190565b61377a906020810190600081830391015261374a565b90565b15613785575b565b61378d610732565b62461bcd60e51b8152806137a360048201613764565b0390fd5b906137f593929180506137f06137ce6137c96137c485600d612d86565b612dbe565b612dcb565b6137e96137e36137de60006136f0565b61088a565b9161088a565b141561377d565b6138a1565b90565b60007f6d696e696d756d20616d6f756e74206973207265717569726564000000000000910152565b61382d601a602092612651565b613836816137f8565b0190565b6138509060208101906000818303910152613820565b90565b1561385b575b565b613863610732565b62461bcd60e51b8152806138796004820161383a565b0390fd5b91602061389f92949361389860408201966000830190610f0e565b0190610922565b565b919091506138af8183616c26565b6139ca575b6138c66138c1600c612dbe565b612dcb565b6340c10f199060206138d6610732565b80926138e185612aa2565b8252816000816138f58b8b6004840161387d565b03925af180156139c5575b61392c61392761392260209761394495600095865061399a575b50600d612d86565b612dbe565b612dcb565b9261394f613938610732565b97889687958694612aa2565b84526004840161387d565b03925af18015613995575b600050613968575b50600190565b6139899060203d60201161398e575b6139818183612a78565b810190612ab7565b613962565b503d613977565b612ad7565b6139b9908a3d8c116139be575b6139b18183612a78565b810190612ab7565b61391a565b503d6139a7565b612ad7565b6139e56139e06139db84600d612d86565b612dbe565b612dcb565b60206139ef610732565b80926139fe6370a08231612aa2565b82528180613a0f8760048301610f1b565b03915afa8015613a87575b84613a3191613a5393600091613a58575b5061275e565b613a4c613a46613a41601961273b565b6107f9565b916107f9565b1015613853565b6138b4565b613a7a915060203d602011613a80575b613a728183612a78565b810190612de6565b38613a2b565b503d613a68565b612ad7565b90613aa19291613a9a612637565b805061369f565b90565b613abe90613ab9613ab433612cba565b6126db565b613b00565b565b90613ad160018060a01b0391611d72565b91811990169116901790565b90565b90613af5613af0613afc926114fb565b613add565b8254613ac0565b9055565b613b0b906007613ae0565b565b613b1690613aa4565b565b613b3290613b2d613b2833612cba565b6126db565b613b58565b565b613b3d906114d3565b90565b613b4990613b34565b90565b613b55906114ef565b90565b613b64613b6991613b40565b613b4c565b803b15613be1575b6000613b7b610732565b8092613b8a636ef8d66d612aa2565b8252818381613b9b60048201610843565b03925af18015613bdc575b613bae575b50565b613bcf9060003d600011613bd5575b613bc78183612a78565b810190613056565b38613bab565b503d613bbd565b612ad7565b612a53565b613bef90613b18565b565b60007f6e6f74206f6e6c7952656769737472794f724f70657261746f72000000000000910152565b613c26601a602092612651565b613c2f81613bf1565b0190565b613c499060208101906000818303910152613c19565b90565b15613c54575b565b613c5c610732565b62461bcd60e51b815280613c7260048201613c33565b0390fd5b9291908350613c8d613c8860056133c5565b61088a565b613c963361088a565b14809015613cb4575b93613cac613cb195613c4c565b613e50565b90565b50613cc6613cc182612d3f565b612d4b565b936020613cd1610732565b8096613ce063570ca735612aa2565b82528180613cf060048201610843565b03915afa8015613d56575b613d14613cac91613cb197600091613d27575b5061088a565b613d1d3361088a565b1491955050613c9f565b613d49915060203d602011613d4f575b613d418183612a78565b810190612d66565b38613d0e565b503d613d37565b612ad7565b60407f2052415900000000000000000000000000000000000000000000000000000000917f536569674d616e616765723a20636f6d6d697373696f6e2072617465206d757360008201527f742062652030206f72206265747765656e20312052415920616e6420302e303160208201520152565b613ddc6044606092612651565b613de581613d5b565b0190565b613dff9060208101906000818303910152613dcf565b90565b15613e0a575b565b613e12610732565b62461bcd60e51b815280613e2860048201613de9565b0390fd5b916020613e4e929493613e4760408201966000830190610922565b0190610922565b565b7f11841078e38c91feada06e1f8ded3697ab2dadc2583c52b14109b82ccd4f77d79291613f059150613e826000612fd4565b613e8b846107f9565b14809015613f75575b613e9d90613e02565b613eb0613eab8260136120f7565b61273b565b94613ebb601561273b565b613ece613ec86000612fd4565b916107f9565b14600014613f22575b613eff90613eef85613eea8560136120f7565b612825565b613efa836014611507565b6135a0565b5b6114fb565b92613f1a613f11610732565b92839283613e2c565b0390a2600190565b613f7090613f4c613f3c613f36601561273b565b4361275e565b613f478560166120f7565b612825565b613f6085613f5b8560176120f7565b612825565b613f6b836018611507565b6135a0565b613f00565b50613f7e611e37565b613f90613f8a856107f9565b916107f9565b11158090613fa4575b613e9d909050613e94565b50613e9d613fb8613fb3610fd4565b6107f9565b613fc1856107f9565b11159050613f99565b90613fdf9291613fd8612637565b8050613c76565b90565b613feb906114d3565b90565b613ff790613fe2565b90565b614003906114ef565b90565b9061400f6129c4565b9161402a61402561402060056133c5565b613fee565b613ffa565b916020614035610732565b8094614044630d42d497612aa2565b8252818061405460048201610843565b03915afa928315614201575b6000936141d0575b506140736000612fd4565b935b61407e846107f9565b614087866107f9565b10156141c9575b6140a86140a361409e60056133c5565b613fee565b613ffa565b60206140b2610732565b80926140c163b7ffb179612aa2565b825281806140d28b6004830161092f565b03915afa80156141c4575b6140f86140fd9161410293600091614196575b50600d612d86565b612dbe565b612dcb565b90602061410d610732565b809361411c6370a08231612aa2565b8252818061412d8960048301610f1b565b03915afa918215614191575b61407e926141599261415392600092614161575b5061275e565b95612ff0565b949050614075565b61418391925060203d811161418a575b61417b8183612a78565b810190612de6565b903861414d565b503d614171565b612ad7565b6141b7915060203d81116141bd575b6141af8183612a78565b810190612d66565b386140f0565b503d6141a5565b612ad7565b9350915050565b6141f391935060203d6020116141fa575b6141eb8183612a78565b810190612de6565b9138614068565b503d6141e1565b612ad7565b60007f616c726561647920696e697469616c697a656400000000000000000000000000910152565b61423b6013602092612651565b61424481614206565b0190565b61425e906020810190600081830391015261422e565b90565b15614269575b565b614271610732565b62461bcd60e51b81528061428760048201614248565b0390fd5b614294906114d3565b90565b6142a09061428b565b90565b6142ac906114ef565b90565b60007f7a65726f20746f74000000000000000000000000000000000000000000000000910152565b6142e46008602092612651565b6142ed816142af565b0190565b61430790602081019060008183039101526142d7565b90565b15614312575b565b61431a610732565b62461bcd60e51b815280614330600482016142f1565b0390fd5b61433d9061303e565b90565b90565b9061435861435361435f92614334565b614340565b8254613ac0565b9055565b959492959390919361437560096133c5565b9661438060006136f0565b9761438a8961088a565b906143949061088a565b1480966143c96143de966143c26143d7966143e59b6143d0966144bb575b6143bb90614261565b6009613ae0565b600a613ae0565b6005613ae0565b6006613ae0565b600f612825565b600b613ae0565b6143ff6143fa6143f5600b6133c5565b614297565b6142a3565b91602061440a610732565b809461441963775c300c612aa2565b82528160008161442b60048201610843565b03925af19283156144b6575b61447b936144749261446d9260009261447d575b506144586144689161088a565b6144618361088a565b141561430a565b61304a565b600c614343565b6010612825565b565b6144689192506144a76144589160203d6020116144af575b61449f8183612a78565b810190612d66565b92915061444b565b503d614495565b612ad7565b506143bb6144c9601061273b565b6144dc6144d66000612fd4565b916107f9565b1490506143b2565b906144f892916144f26129c4565b50616cfc565b90565b60207f6e2063616c6c206f6e5472616e73666572000000000000000000000000000000917f536569674d616e616765723a206f6e6c7920544f4e206f722057544f4e20636160008201520152565b6145566031604092612651565b61455f816144fb565b0190565b6145799060208101906000818303910152614549565b90565b15614584575b565b61458c610732565b62461bcd60e51b8152806145a260048201614563565b0390fd5b5050506145b1612637565b506145c46145bf60096133c5565b61088a565b6145cd3361088a565b1480901561460a575b6145df9061457c565b6145f26145ec601e6134cb565b1561079b565b6145fc575b600190565b614604616f51565b506145f7565b506145df61462061461b600a6133c5565b61088a565b6146293361088a565b1490506145d6565b61465061464b614655926146436133ac565b50600d612d86565b612dbe565b612dcb565b90565b91906146626129c4565b9261467d61467861467360056133c5565b613fee565b613ffa565b926020614688610732565b8095614697630d42d497612aa2565b825281806146a760048201610843565b03915afa938415614856575b600094614825575b506146c66000612fd4565b945b6146d1856107f9565b6146da876107f9565b101561481d575b6146fb6146f66146f160056133c5565b613fee565b613ffa565b6020614705610732565b809261471463b7ffb179612aa2565b825281806147258c6004830161092f565b03915afa8015614818575b61474b61475091614755936000916147ea575b50600d612d86565b612dbe565b612dcb565b906020614760610732565b809361476f634ee2cd7e612aa2565b825281806147818a8a6004840161387d565b03915afa9182156147e5575b6146d1926147ad926147a7926000926147b5575b5061275e565b96612ff0565b9590506146c8565b6147d791925060203d81116147de575b6147cf8183612a78565b810190612de6565b90386147a1565b503d6147c5565b612ad7565b61480b915060203d8111614811575b6148038183612a78565b810190612d66565b38614743565b503d6147f9565b612ad7565b945092505050565b61484891945060203d60201161484f575b6148408183612a78565b810190612de6565b92386146bb565b503d614836565b612ad7565b614864906107f9565b6000198114614875575b6001900190565b612748565b6148826129c4565b5061488d601f61273b565b907fac3d68540f9902349c72a28dc187ad15b504d68182767a2b00a3db86880507ba6148c583936148bc610732565b9182918261092f565b0390a16148e46148dd6148d8601f61273b565b61485b565b601f612825565b565b6148fd614902916148f5612637565b506014611507565b6134cb565b90565b61491f9061491a61491533612cba565b6126db565b614945565b565b61492a906114d3565b90565b61493690614921565b90565b614942906114ef565b90565b6149516149569161492d565b614939565b803b156149ce575b6000614968610732565b80926149776398650275612aa2565b825281838161498860048201610843565b03925af180156149c9575b61499b575b50565b6149bc9060003d6000116149c2575b6149b48183612a78565b810190613056565b38614998565b503d6149aa565b612ad7565b612a53565b6149dc90614905565b565b6149e66129c4565b506149f1600f61273b565b90565b614a0e90614a09614a0433612cba565b6126db565b614a10565b565b614a1b906008613ae0565b565b614a26906149f4565b565b614a4290614a3d614a3833612cba565b6126db565b614a44565b565b614a5590614a5061146e565b613249565b565b614a6090614a28565b565b614a6a6133ac565b50614a7560066133c5565b90565b90614a9391614a8e614a8933612cba565b6126db565b614a95565b565b614aa1614aa6916132c1565b6132cd565b803b15614b23575b614add600092918392614abf610732565b948580948193614ad263f2fde38b612aa2565b835260048301610f1b565b03925af18015614b1e575b614af0575b50565b614b119060003d600011614b17575b614b098183612a78565b810190613056565b38614aed565b503d614aff565b612ad7565b612a53565b90614b3291614a78565b565b614b4e90614b40612637565b50614b49612439565b615abc565b90565b614b6b90614b66614b6133612cba565b6126db565b614b6d565b565b614b7e90614b79611d94565b612f5a565b565b614b8990614b51565b565b614b9c614b9733612cba565b6126db565b614ba4614ba6565b565b614bb8614bb1611d94565b3390613249565b565b614bc2614b8b565b565b614bde90614bd9614bd433612cba565b6126db565b614cea565b565b60007f41636365737369626c653a207a65726f20616464726573730000000000000000910152565b614c156018602092612651565b614c1e81614be0565b0190565b614c389060208101906000818303910152614c08565b90565b15614c43575b565b614c4b610732565b62461bcd60e51b815280614c6160048201614c22565b0390fd5b60007f41636365737369626c653a2073616d652061646d696e00000000000000000000910152565b614c9a6016602092612651565b614ca381614c65565b0190565b614cbd9060208101906000818303910152614c8d565b90565b15614cc8575b565b614cd0610732565b62461bcd60e51b815280614ce660048201614ca7565b0390fd5b614d4890614d13614d03614cfe60006136f0565b61088a565b614d0c8361088a565b1415614c3b565b614d2f614d1f8261088a565b614d283361088a565b1415614cc0565b614d41614d3a611d94565b9182612f5a565b3390613249565b565b614d5390614bc4565b565b614da0908050614d9b614d79614d74614d6f33600d612d86565b612dbe565b612dcb565b614d94614d8e614d8960006136f0565b61088a565b9161088a565b141561377d565b614f52565b90565b60007f6c617374207365696720626c6f636b206973206e6f7420706173740000000000910152565b614dd8601b602092612651565b614de181614da3565b0190565b614dfb9060208101906000818303910152614dcb565b90565b15614e06575b565b614e0e610732565b62461bcd60e51b815280614e2460048201614de5565b0390fd5b60007f6d696e696d756d416d6f756e7420697320696e73756666696369656e74000000910152565b614e5d601d602092612651565b614e6681614e28565b0190565b614e809060208101906000818303910152614e50565b90565b15614e8b575b565b614e93610732565b62461bcd60e51b815280614ea960048201614e6a565b0390fd5b614ebc614ec2919392936107f9565b926107f9565b8203918211614ece575b565b612748565b614edc906114d3565b90565b614ee890614ed3565b90565b614ef4906114ef565b90565b15614eff575b565b600080fd5b90959492614f5094614f3f614f4992614f35608096614f2b60a088019c6000890190610f0e565b6020870190610922565b6040850190610922565b6060830190610922565b0190610922565b565b50614f5d601e6134cb565b61559f575b614f86614f77614f72601061273b565b6107f9565b614f80436107f9565b11614dfe565b614fb4614f9233612e06565b614fad614fa7614fa2601961273b565b6107f9565b916107f9565b1015614e83565b614fc7614fc233600d612d86565b612dbe565b614fcf616f51565b50614fe5614fde33600e6120f7565b4390612825565b614fee81612dcb565b90614ff7610732565b916150056318160ddd612aa2565b83526020838061501760048201610843565b0381845afa92831561559a575b600093615569575b5061503f61503a600c612dbe565b612dcb565b6020615049610732565b80926150586370a08231612aa2565b825281806150693360048301610f1b565b03915afa908115615564575b600091615535575b508050615089816107f9565b615092856107f9565b10156154ed575b836150a391614ead565b906150b56150b033612d3f565b612d4b565b60206150bf610732565b80926150ce63570ca735612aa2565b825281806150de60048201610843565b03915afa9384156154e8575b85916000956154b3575b5084615123916000506151056129c4565b508561511a615115336014611507565b6134cb565b98899233617603565b94909285508350615132610732565b61513f6354f703f8612aa2565b81526020818061515160048201610843565b0381855afa80156154ae575b61517760209161519b93600091615481575b5087876178c8565b61517f610732565b8093819261519063817e9d31612aa2565b83526004830161092f565b03816000865af1801561547c575b60005061544f575b506000966151be88612fd4565b6151c7886107f9565b1415615337575b505050602083615224966151f26151ed6151e8600a6133c5565b614edf565b614eeb565b906151fd60066133c5565b90615206610732565b809a819582946152196340c10f19612aa2565b84526004840161387d565b03925af1918215615332575b6152676152fb937f9f0aff7defc0f0b331d66bccf1955a699b40155565289317e38b9799ddf0944897600091615303575b50614ef7565b7fe6d858f14d755446648a6e0c8ab8b5a0f58ccc7920d4c910b0454e4dcd869af08461529360066133c5565b6152a761529e610732565b9283928361387d565b0390a16152b3336114fb565b7f521cc65179761533a7c8d7a973291dd7baebb99a67edf5ef78e9c2b61a533d956152dc610732565b806152e681610843565b0390a26152f1610732565b9485943386614f04565b0390a1600190565b615325915060203d60201161532b575b61531d8183612a78565b810190612ab7565b38615261565b503d615313565b612ad7565b86906000146153cf575b50803b156153ca575b858791615378938361535a610732565b80968195829461536d6379cc6790612aa2565b84526004840161387d565b03925af180156153c5575b615224966020928692615399575b505b966151ce565b6153b890823d84116153be575b6153b08183612a78565b810190613056565b38615391565b503d6153a6565b612ad7565b612a53565b6020916153fd93896153df610732565b8096819582946153f26340c10f19612aa2565b84526004840161387d565b03925af1801561544a575b61522496602092869260005061541f575b50615393565b61543e90843d8611615443575b6154368183612a78565b810190612ab7565b615419565b503d61542c565b612ad7565b6154709060203d602011615475575b6154688183612a78565b810190612ab7565b6151b1565b503d61545e565b612ad7565b6154a19150833d85116154a7575b6154998183612a78565b810190612de6565b3861516f565b503d61548f565b612ad7565b6151239195506154da9060203d6020116154e1575b6154d28183612a78565b810190612d66565b94906150f4565b503d6154c8565b612ad7565b505050506154fa336114fb565b7f521cc65179761533a7c8d7a973291dd7baebb99a67edf5ef78e9c2b61a533d95615523610732565b8061552d81610843565b0390a2600190565b615557915060203d60201161555d575b61554f8183612a78565b810190612de6565b3861507d565b503d615545565b612ad7565b61558c91935060203d602011615593575b6155848183612a78565b810190612de6565b913861502c565b503d61557a565b612ad7565b600190565b6155b66155af612637565b8050614d55565b90565b60207f6c6c656e67657200000000000000000000000000000000000000000000000000917f41757468436f6e74726f6c3a2043616c6c6572206973206e6f7420612063686160008201520152565b6156146027604092612651565b61561d816155b9565b0190565b6156379060208101906000818303910152615607565b90565b15615642575b565b61564a610732565b62461bcd60e51b81528061566060048201615621565b0390fd5b9061568b9291805061568661568161567a61146e565b3390615abc565b61563a565b61568e565b90565b906156db929180506156d66156b46156af6156aa85600d612d86565b612dbe565b612dcb565b6156cf6156c96156c460006136f0565b61088a565b9161088a565b141561377d565b6156de565b90565b6156f1916156ec9150612d3f565b612d4b565b803b15615771575b61572860009291839261570a610732565b94858094819361571d6306394c9b612aa2565b835260048301610f1b565b03925af1801561576c575b61573e575b50600190565b61575f9060003d600011615765575b6157578183612a78565b810190613056565b38615738565b503d61574d565b612ad7565b612a53565b9061578a91615783612637565b8050615664565b90565b6157a46157a99161579c6129c4565b5060136120f7565b61273b565b90565b6157b46133ac565b506157bf60056133c5565b90565b6157ca612637565b506157e66157e16157dc83600d612d86565b612dbe565b612dcb565b6158016157fb6157f660006136f0565b61088a565b9161088a565b1461580d575b50600190565b61582761582261581d600b6133c5565b614297565b6142a3565b906020615832610732565b809361584163775c300c612aa2565b82528160008161585360048201610843565b03925af191821561593c575b6000926158e1575b506158d86158c6826158a561589e7f124cac1e701d08d642237ad795ddd275670e12f2cd956a26709721c68084c2b295600e6120f7565b4390612825565b6158c16158b18661304a565b6158bc83600d612d86565b614343565b6114fb565b926158cf610732565b91829182610f1b565b0390a238615807565b7f124cac1e701d08d642237ad795ddd275670e12f2cd956a26709721c68084c2b29192506158c661592c6158d89260203d602011615935575b6159248183612a78565b810190612d66565b93925050615867565b503d61591a565b612ad7565b61595b61595661594f610e41565b3390615abc565b613469565b6159636159ea565b565b60007f5061757361626c653a2070617573656400000000000000000000000000000000910152565b61599a6010602092612651565b6159a381615965565b0190565b6159bd906020810190600081830391015261598d565b90565b156159c8575b565b6159d0610732565b62461bcd60e51b8152806159e6600482016159a7565b0390fd5b615a05615a006159fa601e6134cb565b1561079b565b6159c0565b615a0d615a0f565b565b615a1a436011612825565b615a266001601e6135a0565b7f62e78cea01bee320cd4e420270b5ea74000d11b0c9f74754ebdbfc544b05a258615a4f610732565b80615a5a3382610f1b565b0390a1565b615a67615941565b565b615a71610fbd565b90565b615a7c6129c4565b50615a85615a69565b90565b615a906133ac565b50615a9b600a6133c5565b90565b615aa6612637565b50615ab9615ab2611d94565b3390615abc565b90565b615ae4916000615ad9615adf93615ad1612637565b506004612c5c565b01611507565b6134cb565b90565b91602091615b12615b0d615b08615b3996615b006129c4565b50600d612d86565b612dbe565b612dcb565b90615b1b610732565b809581948293615b2e634ee2cd7e612aa2565b84526004840161387d565b03915afa908115615b80575b600091615b51575b5090565b615b73915060203d602011615b79575b615b6b8183612a78565b810190612de6565b38615b4d565b503d615b61565b612ad7565b615b9f90615b9a615b9533612cba565b6126db565b615ba1565b565b615bb290615bad612237565b612f5a565b565b615bbd90615b85565b565b615bd1615bca612237565b3390613249565b565b615bed90615be8615be333612cba565b6126db565b615bef565b565b615c0090615bfb612439565b612f5a565b565b615c0b90615bd3565b565b615c2790615c22615c1d33612cba565b6126db565b615c29565b565b615cb37f25826073c0320e7bfcef08488f501afb014791143befc0558b6343262751a87691615c97615c77615c67615c61601b61273b565b8461275e565b615c71601c61273b565b9061275e565b615c90615c8a615c85610fbd565b6107f9565b916107f9565b11156127df565b615ca281601a612825565b615caa610732565b9182918261092f565b0390a1565b615cc190615c0d565b565b6020615d0991615cd16129c4565b50615ce4615cdf600c612dbe565b612dcb565b615cec610732565b8080958194615cfe63981b24d0612aa2565b83526004830161092f565b03915afa908115615d50575b600091615d21575b5090565b615d43915060203d602011615d49575b615d3b8183612a78565b810190612de6565b38615d1d565b503d615d31565b612ad7565b615d5d6133ac565b50615d70615d6b600c612dbe565b612dcb565b90565b615d8d90615d7f612637565b50615d8861146e565b615abc565b90565b615daa90615d9c612637565b50615da5612237565b615abc565b90565b615dc790615dc2615dbd33612cba565b6126db565b615dc9565b565b615dd490600b613ae0565b565b615ddf90615dad565b565b615dfb90615df6615df133612cba565b6126db565b615dfd565b565b615e0e90615e09612439565b613249565b565b615e1990615de1565b565b615e2c615e2733612cba565b6126db565b615e34615e36565b565b615e50615e4b615e46600a6133c5565b614edf565b614eeb565b803b15615ec8575b6000615e62610732565b8092615e716398650275612aa2565b8252818381615e8260048201610843565b03925af18015615ec3575b615e95575b50565b615eb69060003d600011615ebc575b615eae8183612a78565b810190613056565b38615e92565b503d615ea4565b612ad7565b612a53565b615ed5615e1b565b565b615eee615ef391615ee66129c4565b50600e6120f7565b61273b565b90565b615efe6133ac565b50615f0960096133c5565b90565b615f5b91615f36615f31615f2c602094615f246129c4565b50600d612d86565b612dbe565b612dcb565b615f3e610732565b8080958194615f506370a08231612aa2565b835260048301610f1b565b03915afa908115615fa2575b600091615f73575b5090565b615f95915060203d602011615f9b575b615f8d8183612a78565b810190612de6565b38615f6f565b503d615f83565b612ad7565b615faf6129c4565b50615fc2615fbd600c612dbe565b612dcb565b6020615fcc610732565b8092615fdb6318160ddd612aa2565b82528180615feb60048201610843565b03915afa908115616032575b600091616003575b5090565b616025915060203d60201161602b575b61601d8183612a78565b810190612de6565b38615fff565b503d616013565b612ad7565b6160519061604c61604733612cba565b6126db565b616053565b565b6160649061605f612237565b61609b565b565b61606f90616037565b565b9061608c9161608761608282612c98565b616ab9565b61608e565b565b9061609891616b85565b50565b906160a591616071565b565b6160c1906160bc6160b733612cba565b6126db565b6160c3565b565b61614d7f4f3f4d2a7e076fb16f4fe2fc46ac0a4050623f4a4ba0fb0e9a9d5283f192a090916161316161118261610c6160fc601a61273b565b616106601b61273b565b9061275e565b61275e565b61612a61612461611f610fbd565b6107f9565b916107f9565b11156127df565b61613c81601c612825565b616144610732565b9182918261092f565b0390a1565b61615b906160a7565b565b6161779061617261616d33612cba565b6126db565b616179565b565b616184906019612825565b565b61618f9061615d565b565b6161ab906161a66161a133612cba565b6126db565b6161ad565b565b6161b690614d4a565b565b6161c190616191565b565b6161cb6129c4565b506161d6601061273b565b90565b9061620b93929180506162066161f76161f260066133c5565b61088a565b6162003361088a565b14613675565b61620e565b90565b9061625c939291805061625761623561623061622b85600d612d86565b612dbe565b612dcb565b61625061624a61624560006136f0565b61088a565b9161088a565b141561377d565b61630a565b90565b60207f6520746f20756e7374616b650000000000000000000000000000000000000000917f536569674d616e616765723a20696e73756666696369616e742062616c616e6360008201520152565b6162ba602c604092612651565b6162c38161625f565b0190565b6162dd90602081019060008183039101526162ad565b90565b156162e8575b565b6162f0610732565b62461bcd60e51b815280616306600482016162c7565b0390fd5b91909150600d9161632b6163266163218386612d86565b612dbe565b612dcb565b6370a0823190602061633b610732565b809261634685612aa2565b825281806163578960048301610f1b565b03915afa801561660a575b616388916000916165db575b5061638161637b886107f9565b916107f9565b10156162e0565b6163928383616c26565b61651c575b506163a3848383616cfc565b926163b66163b1600c612dbe565b612dcb565b6379cc6790926163c6868861275e565b91803b15616517575b6163fb6000939184926163e0610732565b9586809481936163ef8c612aa2565b8352886004840161387d565b03925af1908115616512575b616428936164239361641e936164e4575b50612d86565b612dbe565b612dcb565b91823b156164df575b84926164516000809461645c616445610732565b998a9687958694612aa2565b84526004840161387d565b03925af19283156164da575b7f650f673bb96a43afff4620ecc3f3e38e0cbfddebde9894e951ba2ceff7472f60936164ac575b506164a461649b610732565b92839283613e2c565b0390a1600190565b6164cd9060003d6000116164d3575b6164c58183612a78565b810190613056565b3861648f565b503d6164bb565b612ad7565b612a53565b6165059060003d60001161650b575b6164fd8183612a78565b810190613056565b38616418565b503d6164f3565b612ad7565b612a53565b602061654c9161653c6165376165328689612d86565b612dbe565b612dcb565b616544610732565b938492612aa2565b8252818061655d8860048301610f1b565b03915afa80156165d6575b8561657f916165a1936000916165a7575b50614ead565b61659a61659461658f601961273b565b6107f9565b916107f9565b1015613853565b38616397565b6165c9915060203d6020116165cf575b6165c18183612a78565b810190612de6565b38616579565b503d6165b7565b612ad7565b6165fd915060203d602011616603575b6165f58183612a78565b810190612de6565b3861636e565b503d6165eb565b612ad7565b90616624929161661d612637565b80506161d9565b90565b9061664796959493929161664261663d33612cba565b6126db565b616649565b565b7f25826073c0320e7bfcef08488f501afb014791143befc0558b6343262751a87695616701616720966166e461670f96979a956166dd616708966166d66166b66166a6616696601a61273b565b6166a0601b61273b565b9061275e565b6166b0601c61273b565b9061275e565b6166cf6166c96166c4610fbd565b6107f9565b916107f9565b11156127df565b6007613ae0565b6008613ae0565b6166ef87601a612825565b6166fa8a601b612825565b601c612825565b6015612825565b6019612825565b616717610732565b9182918261092f565b0390a16167707f1140c1f14579543e61b599f8f43d0112d66ec1462431e56c97c27b47446a38ac9182616751610732565b8061675c848261092f565b0390a1616767610732565b9182918261092f565b0390a1565b90616784969594939291616627565b565b61678e6129c4565b506167aa6167a56167a083600d612d86565b612dbe565b612dcb565b916167b3610732565b906167c16354f703f8612aa2565b8252602082806167d360048201610843565b0381875afa918215616a3a575b600092616a09575b506167f1610732565b6167fe6318160ddd612aa2565b81526020818061681060048201610843565b0381885afa908115616a04575b6000916169d5575b50616838616833600c612dbe565b612dcb565b906370a08231916020616849610732565b809261685486612aa2565b825281806168658b60048301610f1b565b03915afa80156169d0575b61688492869260009261699f575b506178c8565b602061688e610732565b809761689985612aa2565b825281806168aa8860048301610f1b565b03915afa90811561699a575b6168f16168ec6168e46168f6936168df60209961690b976169169d60009161696d575b50617956565b617999565b97600d612d86565b612dbe565b612dcb565b916168ff610732565b96879485938493612aa2565b835260048301610f1b565b03915afa908115616968575b61693492600092616937575b50614ead565b90565b61695a91925060203d602011616961575b6169528183612a78565b810190612de6565b903861692e565b503d616948565b612ad7565b61698d91508c3d8e11616993575b6169858183612a78565b810190612de6565b386168d9565b503d61697b565b612ad7565b6169c291925060203d6020116169c9575b6169ba8183612a78565b810190612de6565b903861687e565b503d6169b0565b612ad7565b6169f7915060203d6020116169fd575b6169ef8183612a78565b810190612de6565b38616825565b503d6169e5565b612ad7565b616a2c91925060203d602011616a33575b616a248183612a78565b810190612de6565b90386167e8565b503d616a1a565b612ad7565b616a5990616a54616a4f33612cba565b6126db565b616a5b565b565b616a6c90616a67612439565b61609b565b565b616a7790616a3f565b565b616a81612637565b50616a92637965db0b60e01b610747565b616a9b82610747565b1490819115616aa9575b5090565b616ab391506179dc565b38616aa5565b616acb90616ac5616b78565b90617a26565b565b616ad5612637565b50616ae9616ae38383615abc565b1561079b565b600014616b71575b616b126001616b0d846000616b07866004612c5c565b01611507565b6135a0565b616b35616b2f616b29616b23616b78565b93612c50565b936114fb565b916114fb565b917f2f8788117e7eff1d82e926ec794901d17c78024a50270940304540a733656f0d616b5f610732565b80616b6981610843565b0390a4600190565b5050600090565b616b806133ac565b503390565b616b8d612637565b50616b988282615abc565b600014616c1f575b616bc06000616bbb8482616bb5866004612c5c565b01611507565b6135a0565b616be3616bdd616bd7616bd1616b78565b93612c50565b936114fb565b916114fb565b917ff6391f5c32d9c69d2a47ea670b442974b53935d1edc7fd64eb21e047a839171b616c0d610732565b80616c1781610843565b0390a4600190565b5050600090565b616c3b616c4091616c35612637565b50612d3f565b612d4b565b6020616c4a610732565b8092616c5963570ca735612aa2565b82528180616c6960048201610843565b03915afa908115616cc4575b616c9191616c8b91600091616c95575b5061088a565b9161088a565b1490565b616cb7915060203d602011616cbd575b616caf8183612a78565b810190612d66565b38616c85565b503d616ca5565b612ad7565b90565b616ce0616cdb616ce592616cc9565b610f9e565b6107f9565b90565b616cf9670de0b6b3a7640000616ccc565b90565b9050616d066129c4565b50616d22616d1d616d1883600d612d86565b612dbe565b612dcb565b906020616d2d610732565b8093616d3c6318160ddd612aa2565b82528180616d4c60048201610843565b03915afa918215616e95575b600092616e5f575b506020616d9e91616d79616d74600c612dbe565b612dcb565b616d81610732565b8080958194616d936370a08231612aa2565b835260048301610f1b565b03915afa908115616e5a575b600091616e2b575b50616dbc816107f9565b616dc5836107f9565b10158090616e01575b616df1575b616dee92616de483616de993614ead565b617999565b617956565b90565b505050616dfe6000612fd4565b90565b50616e0c8183614ead565b616e25616e1f616e1a616ce8565b6107f9565b916107f9565b10616dce565b616e4d915060203d602011616e53575b616e458183612a78565b810190612de6565b38616db2565b503d616e3b565b612ad7565b616d9e919250616e86602091823d8411616e8e575b616e7e8183612a78565b810190612de6565b929150616d60565b503d616e74565b612ad7565b616ea9616eaf919392936107f9565b926107f9565b91616ebb8382026107f9565b92818404901490151715616ecc575b565b612748565b616eda906114d3565b90565b616ee690616ed1565b90565b616ef2906114ef565b90565b9194616f3e616f4892989795616f3460a096616f2a616f4f9a616f2060c08a019e60008b0190610922565b6020890190610922565b6040870190610922565b6060850190610922565b6080830190610922565b0190610922565b565b616f59612637565b50616f6c616f67601061273b565b6107f9565b616f75436107f9565b11156175fe575b616f8e616f89600c612dbe565b612dcb565b6318160ddd906020616f9e610732565b8092616fa985612aa2565b82528180616fb960048201610843565b03915afa9081156175f9575b6000916175ca575b50600090616fe3616fdd83612fd4565b916107f9565b146175ba575b600050616ff46129c4565b8050600050805061700d617008600c612dbe565b612dcb565b926020617018610732565b809561702384612aa2565b8252818061703360048201610843565b03915afa9384156175b5575b600094617584575b508350617096617068617058617a68565b617062600f61273b565b90616e9a565b916020617073612c27565b91617086617081600c612dbe565b612dcb565b61708e610732565b948592612aa2565b825281806170a660048201610843565b03915afa91821561757f575b6170ce926170c991600091617550575b5084617999565b617956565b916170ec6170dc8484614ead565b6170e6601c61273b565b90617999565b94617100866170fb868461275e565b61275e565b805061710d436010612825565b61711f61711a600c612dbe565b612dcb565b9161713261712d600c612dbe565b612dcb565b92602061713d610732565b809561714c6354f703f8612aa2565b8252818061715c60048201610843565b03915afa93841561754b575b88946020946171a9946171839360009361751c575b506178c8565b61718b610732565b94858094819361719e63817e9d31612aa2565b83526004830161092f565b03925af18015617517575b6000506174ea575b506171c78383614ead565b9460005081906000508292600050956171e060076133c5565b6171e9826136f0565b906171fc6171f68361088a565b9161088a565b141561739f575b61721f61721961721360086133c5565b9261088a565b9161088a565b14156172bc575b9161728e93917fa1c52db210d9232b95c07d81e0aca3d25829b70963d3c458843f9d63d1ccb994979361726b61726561725f601c61273b565b92612fd4565b916107f9565b1415617296575b5061727c336114fb565b97617285610732565b96879687616ef5565b0390a2600190565b92506172b66172af84946172aa601d61273b565b61275e565b601d612825565b38617272565b925061732695916172d66172d0601b61273b565b89617999565b91602083936172f56172f06172eb600a6133c5565b614edf565b614eeb565b6172ff60086133c5565b88617308610732565b809d8195829461731b6340c10f19612aa2565b84526004840161387d565b03925af194851561739a575b7fa1c52db210d9232b95c07d81e0aca3d25829b70963d3c458843f9d63d1ccb9949861728e9660005061736d575b5091939750919350617226565b61738e9060203d602011617393575b6173868183612a78565b810190612ab7565b617360565b503d61737c565b612ad7565b92506173b46173ae601a61273b565b89617999565b9283936174086020826173d76173d26173cd600a6133c5565b614edf565b614eeb565b6173e160076133c5565b876173ea610732565b8096819582946173fd6340c10f19612aa2565b84526004840161387d565b03925af180156174e5575b6000506174b8575b5061743661743161742c60076133c5565b616edd565b616ee9565b803b156174b3575b61746c849291839261744e610732565b94858094819361746163027aa37b612aa2565b83526004830161092f565b03925af180156174ae575b617482575b50617203565b6174a190833d85116174a7575b6174998183612a78565b810190613056565b3861747c565b503d61748f565b612ad7565b612a53565b6174d99060203d6020116174de575b6174d18183612a78565b810190612ab7565b61741b565b503d6174c7565b612ad7565b61750b9060203d602011617510575b6175038183612a78565b810190612ab7565b6171bc565b503d6174f9565b612ad7565b61753d919350873d8911617544575b6175358183612a78565b810190612de6565b913861717d565b503d61752b565b612ad7565b617572915060203d602011617578575b61756a8183612a78565b810190612de6565b386170c2565b503d617560565b612ad7565b6175a791945060203d6020116175ae575b61759f8183612a78565b810190612de6565b9238617047565b503d617595565b612ad7565b90506175c7436010612825565b90565b6175ec915060203d6020116175f2575b6175e48183612a78565b810190612de6565b38616fcd565b503d6175da565b612ad7565b600090565b9095949392936176116129c4565b9687508792601661763261762d61762884846120f7565b61273b565b6107f9565b61763b436107f9565b1015809061789b575b61782c575b505061765e6176593360136120f7565b61273b565b94617669878661275e565b9889996176766000612fd4565b61767f896107f9565b1461781e575b5050617691901561079b565b6177fe575b6176a06000612fd4565b6176a9856107f9565b146177f3575b6176e492916176bf602092612dcb565b6176c7610732565b80809681946176d96370a08231612aa2565b835260048301610f1b565b03915afa9182156177ee575b6000926177bd575b506177036000612fd4565b61770c836107f9565b146177b3575b509161772f6177286177349361777a9695617956565b8094617999565b617999565b805061773e610fbd565b9180617749846107f9565b617752826107f9565b14936000508460001461779a575b505081925b600050600014617780575b50935b845061275e565b80509190565b9061778e6177949284617999565b9061275e565b93617773565b6177ad916177a791614ead565b83617956565b92617765565b9593505050509190565b6177e091925060203d6020116177e7575b6177d88183612a78565b810190612de6565b90386176f8565b503d6177ce565b612ad7565b505094925050509190565b5050505061780f9061781892617999565b80938150614ead565b80509190565b975098505050505050509190565b61788f826178596178496178446178949660176120f7565b61273b565b6178548360136120f7565b612825565b61787f61786f61786a836018611507565b6134cb565b61787a836014611507565b6135a0565b6178896000612fd4565b926120f7565b612825565b3880617649565b506178ae6178a983836120f7565b61273b565b6178c16178bb6000612fd4565b916107f9565b1415617644565b906178e4926178df916178d96129c4565b50617999565b617956565b90565b6178fb676765c793fa10079d601b1b610fa1565b90565b90565b61791561791061791a926178fe565b610f9e565b6107f9565b90565b634e487b7160e01b600052601260045260246000fd5b61793f617945916107f9565b916107f9565b908115617951575b0490565b61791d565b90617991617978617996936179696129c4565b506179726178e7565b90617b7c565b61798b6179856002617901565b84617933565b90617c6e565b617933565b90565b6179d9916179af916179a96129c4565b50617b7c565b6179d46179ba6178e7565b916179ce6179c86002617901565b84617933565b90617c6e565b617933565b90565b6179e4612637565b506179fe6179f86301ffc9a760e01b610747565b91610747565b1490565b916020617a24929493617a1d60408201966000830190610f0e565b0190610a9b565b565b90617a3a617a348284615abc565b1561079b565b617a43575b5050565b617a64617a4e610732565b92839263e2517d3f60e01b845260048401617a02565b0390fd5b617a706129c4565b50617a8c617a87617a81601e6134cb565b1561079b565b614ef7565b617a9f617a99601061273b565b43614ead565b617aa9601261273b565b617ac4617abe617ab9601061273b565b6107f9565b916107f9565b10617af4575b617af190617aeb617adb601261273b565b617ae5601161273b565b90614ead565b90614ead565b90565b90565b60007f64732d6d6174682d6d756c2d6f766572666c6f77000000000000000000000000910152565b617b2c6014602092612651565b617b3581617af7565b0190565b617b4f9060208101906000818303910152617b1f565b90565b15617b5a575b565b617b62610732565b62461bcd60e51b815280617b7860048201617b39565b0390fd5b919091617b876129c4565b92617b926000612fd4565b617b9b826107f9565b1491829215617bb2575b5050617bb090617b52565b565b909350617bb09150617be1617bdb617bd5617bcd8785616e9a565b968797617933565b926107f9565b916107f9565b149038617ba5565b60007f64732d6d6174682d6164642d6f766572666c6f77000000000000000000000000910152565b617c1e6014602092612651565b617c2781617be9565b0190565b617c419060208101906000818303910152617c11565b90565b15617c4c575b565b617c54610732565b62461bcd60e51b815280617c6a60048201617c2b565b0390fd5b9190617c86617ca091617c7f6129c4565b508461275e565b617c99617c9382956107f9565b916107f9565b1015617c44565b56fea26469706673582212206417cee9adb3dc5b16ae24c5e325c7d5f286bdad0be8b810d54a41c871f64cb564736f6c63430008190033","linkReferences":{}},"methodIdentifiers":{"CHALLENGER_ROLE()":"530adbb4","DEFAULT_ADMIN_ROLE()":"a217fddf","DEFAULT_FACTOR()":"8bf91dc4","MAX_VALID_COMMISSION()":"4123196f","MINTER_ROLE()":"d5391393","MIN_VALID_COMMISSION()":"a7dcc850","OPERATOR_ROLE()":"f5b541a6","PAUSE_ROLE()":"389ed267","RAY()":"552033c4","accRelativeSeig()":"f8229348","addAdmin(address)":"70480275","addChallenger(address)":"0ceb6780","addMinter(address)":"983b2d56","addOperator(address)":"9870d7fe","additionalTotBurnAmount(address,address,uint256)":"48c8577e","adjustCommissionDelay()":"df7fbef0","aliveImplementation(address)":"550d01a3","coinages(address)":"4c063c19","commissionRates(address)":"7b056c1b","dao()":"4162169f","daoSeigRate()":"5998a8d7","delayedCommissionBlock(address)":"cbfebe62","delayedCommissionRate(address)":"e2fe8fd1","delayedCommissionRateNegative(address)":"ac753a7a","deployCoinage(address)":"833a774f","depositManager()":"6c7ac9d8","factory()":"c45a0155","getOperatorAmount(address)":"2f17250a","getRoleAdmin(bytes32)":"248a9ca3","grantRole(bytes32,address)":"2f2ff15d","hasRole(bytes32,address)":"91d14854","initialize(address,address,address,address,uint256,address,uint256)":"46a99fe7","isAdmin(address)":"24d7806c","isChallenger(address)":"a415d8dc","isCommissionRateNegative(address)":"5a16a416","isMinter(address)":"aa271e1a","isOperator(address)":"6d70f7ae","isOwner()":"8f32d59b","lastCommitBlock(address)":"c59f1046","lastSeigBlock()":"f35c89e8","lastSnapshotId()":"837afbc0","minimumAmount()":"bb0c8298","onDeposit(address,address,uint256)":"412c6d50","onSnapshot()":"58d00cd6","onTransfer(address,address,uint256)":"4a393149","onWithdraw(address,address,uint256)":"f850ffaa","pause()":"8456cb59","pauseProxy()":"63a8fd89","paused()":"5c975abb","pausedBlock()":"32053c99","powerTONSeigRate()":"6304a624","powerton()":"3e832e1d","progressSnapshotId()":"13977042","proxyImplementation(uint256)":"b911135f","registry()":"7b103999","relativeSeigRate()":"25374a9a","removeAdmin(address)":"1785f53c","removeChallenger(address)":"6c578c1d","removeMinter(address)":"3092afd5","removeOperator(address)":"ac8a584a","renounceChallenger()":"25e90db4","renounceMinter()":"98650275","renounceMinter(address)":"5f112c68","renounceOperator()":"2ab6f8db","renounceOwnership()":"715018a6","renounceOwnership(address)":"38bf3cfa","renouncePauser(address)":"41eb24bb","renounceRole(bytes32,address)":"36568abe","renounceWTONMinter()":"ae3458f8","revokeChallenger(address)":"3c491173","revokeMinter(address)":"cfbd4885","revokeOperator(address)":"fad8b32a","revokeRole(bytes32,address)":"d547741f","seigPerBlock()":"5f40a349","selectorImplementation(bytes4)":"50d2a276","setAdjustDelay(uint256)":"2d1bdec8","setCoinageFactory(address)":"ac893219","setCommissionRate(address,uint256,bool)":"4224ed66","setDao(address)":"6637b882","setDaoSeigRate(uint256)":"03e1cc27","setData(address,address,uint256,uint256,uint256,uint256,uint256)":"f8951f46","setMinimumAmount(uint256)":"eeb4a9c8","setPowerTON(address)":"41813020","setPowerTONSeigRate(uint256)":"9c877e47","setPseigRate(uint256)":"e4034832","slash(address,address)":"7aeccce9","stakeOf(address)":"42623360","stakeOf(address,address)":"ce4cb876","stakeOfAt(address,address,uint256)":"9328f1bc","stakeOfAt(address,uint256)":"4c75ab9c","stakeOfTotal()":"ce6c0355","stakeOfTotalAt(uint256)":"a0474ef5","supportsInterface(bytes4)":"01ffc9a7","ton()":"cc48b947","tot()":"a16d6aa7","totalSupplyOfTon()":"2428c628","transferAdmin(address)":"75829def","transferCoinageOwnership(address,address[])":"32847953","transferOwnership(address)":"f2fde38b","transferOwnership(address,address)":"6d435421","uncomittedStakeOf(address,address)":"fa9789c8","unpause()":"3f4ba83a","unpausedBlock()":"1cc47890","updateSeigniorage()":"764a7856","updateSeigniorageLayer(address)":"1e1f0b60","wton()":"8d62d949"},"id":69}