{"abi":[{"type":"fallback","stateMutability":"payable"},{"type":"receive","stateMutability":"payable"},{"type":"function","name":"DEFAULT_ADMIN_ROLE","inputs":[],"outputs":[{"name":"","type":"bytes32","internalType":"bytes32"}],"stateMutability":"view"},{"type":"function","name":"MINTER_ROLE","inputs":[],"outputs":[{"name":"","type":"bytes32","internalType":"bytes32"}],"stateMutability":"view"},{"type":"function","name":"OPERATOR_ROLE","inputs":[],"outputs":[{"name":"","type":"bytes32","internalType":"bytes32"}],"stateMutability":"view"},{"type":"function","name":"REFACTOR_BOUNDARY","inputs":[],"outputs":[{"name":"","type":"uint256","internalType":"uint256"}],"stateMutability":"view"},{"type":"function","name":"REFACTOR_DIVIDER","inputs":[],"outputs":[{"name":"","type":"uint256","internalType":"uint256"}],"stateMutability":"view"},{"type":"function","name":"_allowances","inputs":[{"name":"","type":"address","internalType":"address"},{"name":"","type":"address","internalType":"address"}],"outputs":[{"name":"","type":"uint256","internalType":"uint256"}],"stateMutability":"view"},{"type":"function","name":"accountBalanceIds","inputs":[{"name":"","type":"address","internalType":"address"},{"name":"","type":"uint256","internalType":"uint256"}],"outputs":[{"name":"","type":"uint256","internalType":"uint256"}],"stateMutability":"view"},{"type":"function","name":"accountBalanceSnapshots","inputs":[{"name":"","type":"address","internalType":"address"},{"name":"","type":"uint256","internalType":"uint256"}],"outputs":[{"name":"balance","type":"uint256","internalType":"uint256"},{"name":"refactoredCount","type":"uint256","internalType":"uint256"}],"stateMutability":"view"},{"type":"function","name":"addAdmin","inputs":[{"name":"account","type":"address","internalType":"address"}],"outputs":[],"stateMutability":"nonpayable"},{"type":"function","name":"addMinter","inputs":[{"name":"account","type":"address","internalType":"address"}],"outputs":[],"stateMutability":"nonpayable"},{"type":"function","name":"addOperator","inputs":[{"name":"account","type":"address","internalType":"address"}],"outputs":[],"stateMutability":"nonpayable"},{"type":"function","name":"aliveImplementation","inputs":[{"name":"","type":"address","internalType":"address"}],"outputs":[{"name":"","type":"bool","internalType":"bool"}],"stateMutability":"view"},{"type":"function","name":"factorSnapshotIds","inputs":[{"name":"","type":"uint256","internalType":"uint256"}],"outputs":[{"name":"","type":"uint256","internalType":"uint256"}],"stateMutability":"view"},{"type":"function","name":"factorSnapshots","inputs":[{"name":"","type":"uint256","internalType":"uint256"}],"outputs":[{"name":"factor","type":"uint256","internalType":"uint256"},{"name":"refactorCount","type":"uint256","internalType":"uint256"}],"stateMutability":"view"},{"type":"function","name":"getRoleAdmin","inputs":[{"name":"role","type":"bytes32","internalType":"bytes32"}],"outputs":[{"name":"","type":"bytes32","internalType":"bytes32"}],"stateMutability":"view"},{"type":"function","name":"getSelectorImplementation2","inputs":[{"name":"_selector","type":"bytes4","internalType":"bytes4"}],"outputs":[{"name":"impl","type":"address","internalType":"address"}],"stateMutability":"view"},{"type":"function","name":"grantRole","inputs":[{"name":"role","type":"bytes32","internalType":"bytes32"},{"name":"account","type":"address","internalType":"address"}],"outputs":[],"stateMutability":"nonpayable"},{"type":"function","name":"hasRole","inputs":[{"name":"role","type":"bytes32","internalType":"bytes32"},{"name":"account","type":"address","internalType":"address"}],"outputs":[{"name":"","type":"bool","internalType":"bool"}],"stateMutability":"view"},{"type":"function","name":"implementation","inputs":[],"outputs":[{"name":"","type":"address","internalType":"address"}],"stateMutability":"view"},{"type":"function","name":"implementation2","inputs":[{"name":"_index","type":"uint256","internalType":"uint256"}],"outputs":[{"name":"","type":"address","internalType":"address"}],"stateMutability":"view"},{"type":"function","name":"isAdmin","inputs":[{"name":"account","type":"address","internalType":"address"}],"outputs":[{"name":"","type":"bool","internalType":"bool"}],"stateMutability":"view"},{"type":"function","name":"isMinter","inputs":[{"name":"account","type":"address","internalType":"address"}],"outputs":[{"name":"","type":"bool","internalType":"bool"}],"stateMutability":"view"},{"type":"function","name":"isOperator","inputs":[{"name":"account","type":"address","internalType":"address"}],"outputs":[{"name":"","type":"bool","internalType":"bool"}],"stateMutability":"view"},{"type":"function","name":"isOwner","inputs":[],"outputs":[{"name":"","type":"bool","internalType":"bool"}],"stateMutability":"view"},{"type":"function","name":"lastSnapshotId","inputs":[],"outputs":[{"name":"","type":"uint256","internalType":"uint256"}],"stateMutability":"view"},{"type":"function","name":"name","inputs":[],"outputs":[{"name":"","type":"string","internalType":"string"}],"stateMutability":"view"},{"type":"function","name":"pauseProxy","inputs":[],"outputs":[{"name":"","type":"bool","internalType":"bool"}],"stateMutability":"view"},{"type":"function","name":"proxyImplementation","inputs":[{"name":"","type":"uint256","internalType":"uint256"}],"outputs":[{"name":"","type":"address","internalType":"address"}],"stateMutability":"view"},{"type":"function","name":"removeAdmin","inputs":[{"name":"account","type":"address","internalType":"address"}],"outputs":[],"stateMutability":"nonpayable"},{"type":"function","name":"removeMinter","inputs":[{"name":"account","type":"address","internalType":"address"}],"outputs":[],"stateMutability":"nonpayable"},{"type":"function","name":"removeOperator","inputs":[{"name":"account","type":"address","internalType":"address"}],"outputs":[],"stateMutability":"nonpayable"},{"type":"function","name":"renounceMinter","inputs":[],"outputs":[],"stateMutability":"nonpayable"},{"type":"function","name":"renounceOperator","inputs":[],"outputs":[],"stateMutability":"nonpayable"},{"type":"function","name":"renounceOwnership","inputs":[],"outputs":[],"stateMutability":"nonpayable"},{"type":"function","name":"renounceRole","inputs":[{"name":"role","type":"bytes32","internalType":"bytes32"},{"name":"callerConfirmation","type":"address","internalType":"address"}],"outputs":[],"stateMutability":"nonpayable"},{"type":"function","name":"revokeMinter","inputs":[{"name":"account","type":"address","internalType":"address"}],"outputs":[],"stateMutability":"nonpayable"},{"type":"function","name":"revokeOperator","inputs":[{"name":"account","type":"address","internalType":"address"}],"outputs":[],"stateMutability":"nonpayable"},{"type":"function","name":"revokeRole","inputs":[{"name":"role","type":"bytes32","internalType":"bytes32"},{"name":"account","type":"address","internalType":"address"}],"outputs":[],"stateMutability":"nonpayable"},{"type":"function","name":"seigManager","inputs":[],"outputs":[{"name":"","type":"address","internalType":"address"}],"stateMutability":"view"},{"type":"function","name":"selectorImplementation","inputs":[{"name":"","type":"bytes4","internalType":"bytes4"}],"outputs":[{"name":"","type":"address","internalType":"address"}],"stateMutability":"view"},{"type":"function","name":"setAliveImplementation2","inputs":[{"name":"newImplementation","type":"address","internalType":"address"},{"name":"_alive","type":"bool","internalType":"bool"}],"outputs":[],"stateMutability":"nonpayable"},{"type":"function","name":"setImplementation2","inputs":[{"name":"newImplementation","type":"address","internalType":"address"},{"name":"_index","type":"uint256","internalType":"uint256"},{"name":"_alive","type":"bool","internalType":"bool"}],"outputs":[],"stateMutability":"nonpayable"},{"type":"function","name":"setProxyPause","inputs":[{"name":"_pause","type":"bool","internalType":"bool"}],"outputs":[],"stateMutability":"nonpayable"},{"type":"function","name":"setSelectorImplementations2","inputs":[{"name":"_selectors","type":"bytes4[]","internalType":"bytes4[]"},{"name":"_imp","type":"address","internalType":"address"}],"outputs":[],"stateMutability":"nonpayable"},{"type":"function","name":"supportsInterface","inputs":[{"name":"interfaceId","type":"bytes4","internalType":"bytes4"}],"outputs":[{"name":"","type":"bool","internalType":"bool"}],"stateMutability":"view"},{"type":"function","name":"symbol","inputs":[],"outputs":[{"name":"","type":"string","internalType":"string"}],"stateMutability":"view"},{"type":"function","name":"totalSupplySnapshotIds","inputs":[{"name":"","type":"uint256","internalType":"uint256"}],"outputs":[{"name":"","type":"uint256","internalType":"uint256"}],"stateMutability":"view"},{"type":"function","name":"totalSupplySnapshots","inputs":[{"name":"","type":"uint256","internalType":"uint256"}],"outputs":[{"name":"balance","type":"uint256","internalType":"uint256"},{"name":"refactoredCount","type":"uint256","internalType":"uint256"}],"stateMutability":"view"},{"type":"function","name":"transferAdmin","inputs":[{"name":"newAdmin","type":"address","internalType":"address"}],"outputs":[],"stateMutability":"nonpayable"},{"type":"function","name":"transferOwnership","inputs":[{"name":"newAdmin","type":"address","internalType":"address"}],"outputs":[],"stateMutability":"nonpayable"},{"type":"function","name":"upgradeTo","inputs":[{"name":"impl","type":"address","internalType":"address"}],"outputs":[],"stateMutability":"nonpayable"},{"type":"event","name":"RoleAdminChanged","inputs":[{"name":"role","type":"bytes32","indexed":true,"internalType":"bytes32"},{"name":"previousAdminRole","type":"bytes32","indexed":true,"internalType":"bytes32"},{"name":"newAdminRole","type":"bytes32","indexed":true,"internalType":"bytes32"}],"anonymous":false},{"type":"event","name":"RoleGranted","inputs":[{"name":"role","type":"bytes32","indexed":true,"internalType":"bytes32"},{"name":"account","type":"address","indexed":true,"internalType":"address"},{"name":"sender","type":"address","indexed":true,"internalType":"address"}],"anonymous":false},{"type":"event","name":"RoleRevoked","inputs":[{"name":"role","type":"bytes32","indexed":true,"internalType":"bytes32"},{"name":"account","type":"address","indexed":true,"internalType":"address"},{"name":"sender","type":"address","indexed":true,"internalType":"address"}],"anonymous":false},{"type":"event","name":"SetAliveImplementation","inputs":[{"name":"impl","type":"address","indexed":true,"internalType":"address"},{"name":"alive","type":"bool","indexed":false,"internalType":"bool"}],"anonymous":false},{"type":"event","name":"SetSelectorImplementation","inputs":[{"name":"selector","type":"bytes4","indexed":true,"internalType":"bytes4"},{"name":"impl","type":"address","indexed":true,"internalType":"address"}],"anonymous":false},{"type":"event","name":"Upgraded","inputs":[{"name":"implementation","type":"address","indexed":true,"internalType":"address"}],"anonymous":false},{"type":"error","name":"AccessControlBadConfirmation","inputs":[]},{"type":"error","name":"AccessControlUnauthorizedAccount","inputs":[{"name":"account","type":"address","internalType":"address"},{"name":"neededRole","type":"bytes32","internalType":"bytes32"}]}],"bytecode":{"object":"0x608060405234610028575b610012610038565b61001a61002d565b612c396103f28239612c3990f35b610033565b60405190565b600080fd5b610040610042565b565b61004a6100c9565b565b90565b90565b60001b90565b61006c6100676100719261004c565b610052565b61004f565b90565b61007e6000610058565b90565b7ff0887ba65ee2024ea881d91b74c2450ef19e1557f03bed3ea9f16b037cbe2dc990565b7f523a704056dcd17bcf83bed8b68c59416dac1119be77755efe3bde0a64e46e0c90565b6100fd6100d4610074565b6100de33826101d6565b506100f0816100eb610081565b6102cc565b6100f86100a5565b6102cc565b565b600090565b151590565b6101129061004f565b90565b9061011f90610109565b600052602052604060002090565b60018060a01b03901690565b90565b61015061014b6101559261012d565b610139565b61012d565b90565b6101619061013c565b90565b61016d90610158565b90565b9061017a90610164565b600052602052604060002090565b9061019460ff91610052565b91811990169116901790565b6101a990610104565b90565b90565b906101c46101bf6101cb926101a0565b6101ac565b8254610188565b9055565b6000900190565b6101de6100ff565b506101f26101ec8383610369565b15610104565b60001461027a575b61021b6001610216846000610210866004610115565b01610170565b6101af565b61023e61023861023261022c610399565b93610109565b93610164565b91610164565b917f2f8788117e7eff1d82e926ec794901d17c78024a50270940304540a733656f0d61026861002d565b80610272816101cf565b0390a4600190565b5050600090565b9061028e60001991610052565b91811990169116901790565b60001c90565b6102a99061029a565b90565b906102c16102bc6102c892610109565b6102a0565b8254610281565b9055565b906103086103026102fc6102df856103cf565b946102f78560016102f1846004610115565b016102ac565b610109565b93610109565b91610109565b917fbd79b86ffe0ab8e8776151514217cd7cacd52c909f66475c3af44e129f0b00ff61033261002d565b8061033c816101cf565b0390a4565b60ff901690565b6103546103599161029a565b610341565b90565b6103669054610348565b90565b61039191600061038661038c9361037e6100ff565b506004610115565b01610170565b61035c565b90565b600090565b6103a1610394565b503390565b600090565b90565b6103ba6103bf9161029a565b6103ab565b90565b6103cc90546103ae565b90565b60016103e86103ee926103e06103a6565b506004610115565b016103c2565b9056fe6080604052600436101561001f575b361561001a575b61281b565b6127f9565b61002a600035610390565b8062d87a9c1461038b575b806301ffc9a714610386575b8063024c2ddd14610381575b80630461fdc51461037c575b806306fdde0314610377575b80631785f53c14610372575b8063248a9ca31461036d575b806324d7806c14610368575b80632ab6f8db14610363575b80632f2ff15d1461035e575b80633092afd514610359575b806336568abe14610354575b80633659cfe61461034f575b80634a5df50f1461034a575b806350d2a27614610345575b8063550d01a314610340575b806356fabf681461033b575b80635c60da1b14610336575b80635cc797d814610331575b80635deaecec1461032c575b8063614db8b214610327575b806363a8fd8914610322575b806369f499b11461031d575b80636d70f7ae14610318575b80636fb7f55814610313575b8063704802751461030e575b8063715018a614610309575b806375829def14610304575b80637cb00d25146102ff575b80637cd5f663146102fa575b8063837afbc0146102f5575b80638b8f4a65146102f0575b80638d4fdb40146102eb575b80638f32d59b146102e6575b806391d14854146102e1575b806395d89b41146102dc575b8063983b2d56146102d7575b806398650275146102d2575b80639870d7fe146102cd575b8063a217fddf146102c8575b8063aa271e1a146102c3575b8063ac8a584a146102be575b8063b7c246d7146102b9575b8063b7d78b1a146102b4575b8063b911135f146102af575b8063cfbd4885146102aa575b8063d5391393146102a5575b8063d547741f146102a0575b8063f2fde38b1461029b575b8063f5b541a614610296575b63fad8b32a14610291575b61000e565b611953565b61191d565b6118ba565b611885565b61184f565b6117ec565b6117b6565b61174c565b6116ec565b611676565b611640565b61160a565b611599565b611565565b611531565b6114fb565b6114b5565b61147f565b611449565b611413565b6113dd565b611399565b611329565b6112d5565b6112a1565b61126d565b611237565b6111f2565b6111bb565b611133565b6110ef565b611084565b61100d565b610f81565b610f4b565b610e6f565b610dd9565b610d10565b610c41565b610c0c565b610bd8565b610ba3565b610b40565b610b0a565b610ad4565b610a33565b6109d6565b61077b565b610627565b6104ce565b610417565b60e01c90565b60405190565b600080fd5b600080fd5b60009103126103b2575b565b6103a1565b90565b90565b90565b6103d46103cf6103d9926103b7565b6103bd565b6103ba565b90565b6103e660026103c0565b90565b6103f16103dc565b90565b6103fd906103ba565b9052565b9190610415906000602085019401906103f4565b565b34610448575b6104283660046103a6565b6104446104336103e9565b61043b610396565b91829182610401565b0390f35b61039c565b600080fd5b63ffffffff60e01b901690565b61046881610452565b901415610472575b565b600080fd5b905035906104848261045f565b565b906020828203126104a1575b600061049e9201610477565b90565b6103a1565b151590565b6104b4906104a6565b9052565b91906104cc906000602085019401906104ab565b565b346104ff575b6104fb6104ea6104e5366004610486565b61198c565b6104f2610396565b918291826104b8565b0390f35b61039c565b60018060a01b03901690565b61051990610504565b90565b61052581610510565b90141561052f575b565b600080fd5b905035906105418261051c565b565b919060408382031261056d575b80602061056361056a9360008701610534565b9401610534565b90565b6103a1565b61058661058161058b92610504565b6103bd565b610504565b90565b61059790610572565b90565b6105a39061058e565b90565b906105b09061059a565b600052602052604060002090565b906105c89061059a565b600052602052604060002090565b1c90565b90565b6105ed9060086105f293026105d6565b6105da565b90565b9061060091546105dd565b90565b61061f6106249261061a60009360085060086105a6565b6105be565b6105f5565b90565b34610659575b61065561064461063e366004610543565b90610603565b61064c610396565b91829182610401565b0390f35b61039c565b610667816103ba565b901415610671575b565b600080fd5b905035906106838261065e565b565b91906040838203126106af575b8060206106a56106ac9360008701610534565b9401610676565b90565b6103a1565b906106be9061059a565b600052602052604060002090565b6106e06106db6106e5926103ba565b6103bd565b6103ba565b90565b906106f2906106cc565b600052602052604060002090565b60001c90565b61071261071791610700565b6105da565b90565b6107249054610706565b90565b9061073661073b92600e6106b4565b6106e8565b90610754600161074d6000850161071a565b930161071a565b90565b916020610779929493610772604082019660008301906103f4565b01906103f4565b565b346107ae575b61079561078f366004610685565b90610727565b906107aa6107a1610396565b92839283610757565b0390f35b61039c565b634e487b7160e01b600052600060045260246000fd5b634e487b7160e01b600052602260045260246000fd5b9060016002830492168015610801575b6020831090146107fc575b565b6107c9565b91607f9016916107ef565b60209181520190565b8050600052602060002090565b906000929180549061083d610836836107df565b809461080c565b91600181169081600014610898575b5060011461085a575b505050565b6108679192939450610815565b916000925b818410610880575b50500190388080610855565b6001816020929593955484860152019101929061086c565b92949550505060ff19901682521515602002900190388080610855565b906108bf91610822565b90565b601f801991011690565b634e487b7160e01b600052604160045260246000fd5b906108ec906108c2565b810190811067ffffffffffffffff821117610907575b604052565b6108cc565b9061092c6109259261091c610396565b938480926108b5565b03836108e2565b565b9060009011610944575b6109419061090c565b90565b6107b3565b6109556000600661092e565b90565b5190565b60209181520190565b60005b83811061097a575b5050906000910152565b806020918301518185015201610968565b6109aa6109b36020936109b8936109a181610958565b9384809361095c565b95869101610965565b6108c2565b900190565b6109d3916020820191600081840391015261098b565b90565b34610a07575b6109e73660046103a6565b610a036109f2610949565b6109fa610396565b918291826109bd565b0390f35b61039c565b90602082820312610a27575b6000610a249201610534565b90565b6103a1565b6000900190565b34610a62575b610a4c610a47366004610a0c565b611a7b565b610a54610396565b80610a5e81610a2c565b0390f35b61039c565b90565b610a7381610a67565b901415610a7d575b565b600080fd5b90503590610a8f82610a6a565b565b90602082820312610aac575b6000610aa99201610a82565b90565b6103a1565b610aba90610a67565b9052565b9190610ad290600060208501940190610ab1565b565b34610b05575b610b01610af0610aeb366004610a91565b611ad3565b610af8610396565b91829182610abe565b0390f35b61039c565b34610b3b575b610b37610b26610b21366004610a0c565b611af5565b610b2e610396565b918291826104b8565b0390f35b61039c565b34610b6f575b610b513660046103a6565b610b59611b12565b610b61610396565b80610b6b81610a2c565b0390f35b61039c565b9190604083820312610b9e575b806020610b94610b9b9360008701610a82565b9401610534565b90565b6103a1565b34610bd3575b610bbd610bb7366004610b74565b90611b50565b610bc5610396565b80610bcf81610a2c565b0390f35b61039c565b34610c07575b610bf1610bec366004610a0c565b611b8b565b610bf9610396565b80610c0381610a2c565b0390f35b61039c565b34610c3c575b610c26610c20366004610b74565b90611b96565b610c2e610396565b80610c3881610a2c565b0390f35b61039c565b34610c70575b610c5a610c55366004610a0c565b611df0565b610c62610396565b80610c6c81610a2c565b0390f35b61039c565b600080fd5b600080fd5b600080fd5b909182601f83011215610cc2575b81359167ffffffffffffffff8311610cbd575b602090019260208302840111610cb8575b565b610c7f565b610c7a565b610c75565b91604083830312610d0b575b600083013567ffffffffffffffff8111610d06575b82610cfa602094610d03938701610c84565b94909501610534565b90565b61044d565b6103a1565b34610d40575b610d2a610d24366004610cc7565b916121a9565b610d32610396565b80610d3c81610a2c565b0390f35b61039c565b610d4e90610452565b90565b90610d5b90610d45565b600052602052604060002090565b60018060a01b03901690565b610d85906008610d8a93026105d6565b610d69565b90565b90610d989154610d75565b90565b6000610dae610db3926003506003610d51565b610d8d565b90565b610dbf90610510565b9052565b9190610dd790600060208501940190610db6565b565b34610e0a575b610e06610df5610df0366004610486565b610d9b565b610dfd610396565b91829182610dc3565b0390f35b61039c565b90610e199061059a565b600052602052604060002090565b60ff901690565b610e3e906008610e4393026105d6565b610e27565b90565b90610e519154610e2e565b90565b6000610e67610e6c926002506002610e0f565b610e46565b90565b34610ea0575b610e9c610e8b610e86366004610a0c565b610e54565b610e93610396565b918291826104b8565b0390f35b61039c565b90602082820312610ec0575b6000610ebd9201610676565b90565b6103a1565b634e487b7160e01b600052603260045260246000fd5b5490565b8050600052602060002090565b610ef581610edb565b821015610f12575b610f08600191610edf565b9102900190600090565b610ec5565b600b50600050610f27600b610edb565b811015610f46575b610f3d610f4391600b610eec565b906105f5565b90565b600080fd5b34610f7c575b610f78610f67610f62366004610ea5565b610f17565b610f6f610396565b91829182610401565b0390f35b61039c565b34610fb2575b610f923660046103a6565b610fae610f9d6121bb565b610fa5610396565b91829182610dc3565b0390f35b61039c565b610fc0816104a6565b901415610fca575b565b600080fd5b90503590610fdc82610fb7565b565b9190604083820312611008575b806020610ffe6110059360008701610534565b9401610fcf565b90565b6103a1565b3461103d575b611027611021366004610fde565b90612202565b61102f610396565b8061103981610a2c565b0390f35b61039c565b9061104c906106cc565b600052602052604060002090565b61106890600c50600c611042565b90611081600161107a6000850161071a565b930161071a565b90565b346110b6575b61109d611098366004610ea5565b61105a565b906110b26110a9610396565b92839283610757565b0390f35b61039c565b6009506000506110cb6009610edb565b8110156110ea575b6110e16110e7916009610eec565b906105f5565b90565b600080fd5b34611120575b61111c61110b611106366004610ea5565b6110bb565b611113610396565b91829182610401565b0390f35b61039c565b611130600080610e46565b90565b34611164575b6111443660046103a6565b61116061114f611125565b611157610396565b918291826104b8565b0390f35b61039c565b906111739061059a565b600052602052604060002090565b61118f90600d600050611169565b61119881610edb565b8210156111b6575b6111b3916111ad91610eec565b906105f5565b90565b600080fd5b346111ed575b6111e96111d86111d2366004610685565b90611181565b6111e0610396565b91829182610401565b0390f35b61039c565b34611223575b61121f61120e611209366004610a0c565b61220e565b611216610396565b918291826104b8565b0390f35b61039c565b61123460006005610d8d565b90565b34611268575b6112483660046103a6565b611264611253611228565b61125b610396565b91829182610dc3565b0390f35b61039c565b3461129c575b611286611281366004610a0c565b61225a565b61128e610396565b8061129881610a2c565b0390f35b61039c565b346112d0575b6112b23660046103a6565b6112ba612294565b6112c2610396565b806112cc81610a2c565b0390f35b61039c565b34611304575b6112ee6112e9366004610a0c565b612424565b6112f6610396565b8061130081610a2c565b0390f35b61039c565b90602082820312611324575b60006113219201610fcf565b90565b6103a1565b34611358575b61134261133d366004611309565b61249f565b61134a610396565b8061135481610a2c565b0390f35b61039c565b9091606082840312611394575b61139161137a8460008501610534565b93604061138a8260208701610676565b9401610fcf565b90565b6103a1565b346113c9575b6113b36113ad36600461135d565b916124d5565b6113bb610396565b806113c581610a2c565b0390f35b61039c565b6113da6000600f6105f5565b90565b3461140e575b6113ee3660046103a6565b61140a6113f96113ce565b611401610396565b91829182610401565b0390f35b61039c565b34611444575b61144061142f61142a366004610ea5565b6124e2565b611437610396565b91829182610dc3565b0390f35b61039c565b3461147a575b611476611465611460366004610486565b61250f565b61146d610396565b91829182610dc3565b0390f35b61039c565b346114b0575b6114903660046103a6565b6114ac61149b61259a565b6114a3610396565b918291826104b8565b0390f35b61039c565b346114e7575b6114e36114d26114cc366004610b74565b906125b8565b6114da610396565b918291826104b8565b0390f35b61039c565b6114f86000600761092e565b90565b3461152c575b61150c3660046103a6565b6115286115176114ec565b61151f610396565b918291826109bd565b0390f35b61039c565b34611560575b61154a611545366004610a0c565b612612565b611552610396565b8061155c81610a2c565b0390f35b61039c565b34611594575b6115763660046103a6565b61157e61261d565b611586610396565b8061159081610a2c565b0390f35b61039c565b346115c8575b6115b26115ad366004610a0c565b612660565b6115ba610396565b806115c481610a2c565b0390f35b61039c565b90565b60001b90565b6115ea6115e56115ef926115cd565b6115d0565b610a67565b90565b6115fc60006115d6565b90565b6116076115f2565b90565b3461163b575b61161b3660046103a6565b6116376116266115ff565b61162e610396565b91829182610abe565b0390f35b61039c565b34611671575b61166d61165c611657366004610a0c565b61266b565b611664610396565b918291826104b8565b0390f35b61039c565b346116a5575b61168f61168a366004610a0c565b6126b7565b611697610396565b806116a181610a2c565b0390f35b61039c565b90565b6116c16116bc6116c6926116aa565b6103bd565b6103ba565b90565b6116de6b204fce5e3e250261100000006116ad565b90565b6116e96116c9565b90565b3461171d575b6116fd3660046103a6565b6117196117086116e1565b611710610396565b91829182610401565b0390f35b61039c565b61173090600a50600a6106e8565b9061174960016117426000850161071a565b930161071a565b90565b3461177e575b611765611760366004610ea5565b611722565b9061177a611771610396565b92839283610757565b0390f35b61039c565b9061178d906106cc565b600052602052604060002090565b60006117ae6117b3926001506001611783565b610d8d565b90565b346117e7575b6117e36117d26117cd366004610ea5565b61179b565b6117da610396565b91829182610dc3565b0390f35b61039c565b3461181b575b611805611800366004610a0c565b6126f1565b61180d610396565b8061181781610a2c565b0390f35b61039c565b7ff0887ba65ee2024ea881d91b74c2450ef19e1557f03bed3ea9f16b037cbe2dc990565b61184c611820565b90565b34611880575b6118603660046103a6565b61187c61186b611844565b611873610396565b91829182610abe565b0390f35b61039c565b346118b5575b61189f611899366004610b74565b90612726565b6118a7610396565b806118b181610a2c565b0390f35b61039c565b346118e9575b6118d36118ce366004610a0c565b612759565b6118db610396565b806118e581610a2c565b0390f35b61039c565b7f523a704056dcd17bcf83bed8b68c59416dac1119be77755efe3bde0a64e46e0c90565b61191a6118ee565b90565b3461194e575b61192e3660046103a6565b61194a611939611912565b611941610396565b91829182610abe565b0390f35b61039c565b34611982575b61196c611967366004610a0c565b612793565b611974610396565b8061197e81610a2c565b0390f35b61039c565b600090565b61199e90611998611987565b50612820565b90565b60207f6d696e0000000000000000000000000000000000000000000000000000000000917f41757468436f6e74726f6c3a2043616c6c6572206973206e6f7420616e20616460008201520152565b6119fc602360409261095c565b611a05816119a1565b0190565b611a1f90602081019060008183039101526119ef565b90565b15611a2a575b565b611a32610396565b62461bcd60e51b815280611a4860048201611a09565b0390fd5b611a6690611a61611a5c33611af5565b611a22565b611a68565b565b611a7990611a746115f2565b611b96565b565b611a8490611a4c565b565b600090565b611a9490610a67565b90565b90611aa190611a8b565b600052602052604060002090565b90565b611abe611ac391610700565b611aaf565b90565b611ad09054611ab2565b90565b6001611aec611af292611ae4611a86565b506004611a97565b01611ac6565b90565b611b0f90611b01611987565b50611b0a6115f2565b6125b8565b90565b611b24611b1d6118ee565b3390611b96565b565b90611b4191611b3c611b3782611ad3565b612860565b611b43565b565b90611b4d91612874565b50565b90611b5a91611b26565b565b611b7690611b71611b6c33611af5565b611a22565b611b78565b565b611b8990611b84611820565b611b96565b565b611b9490611b5c565b565b90611ba7611ba261291f565b610510565b611bb082610510565b1415611bc3575b611bc09161292c565b50565b611bcb610396565b63334bd91960e11b815280611be260048201610a2c565b0390fd5b611c0090611bfb611bf633611af5565b611a22565b611d50565b565b611c16611c11611c1b926115cd565b6103bd565b610504565b90565b611c2790611c02565b90565b60007f696e707574206973207a65726f00000000000000000000000000000000000000910152565b611c5f600d60209261095c565b611c6881611c2a565b0190565b611c829060208101906000818303910152611c52565b90565b15611c8d575b565b611c95610396565b62461bcd60e51b815280611cab60048201611c6c565b0390fd5b611cc3611cbe611cc8926115cd565b6103bd565b6103ba565b90565b60007f73616d6520616464720000000000000000000000000000000000000000000000910152565b611d00600960209261095c565b611d0981611ccb565b0190565b611d239060208101906000818303910152611cf3565b90565b15611d2e575b565b611d36610396565b62461bcd60e51b815280611d4c60048201611d0d565b0390fd5b611db890611d79611d69611d646000611c1e565b610510565b611d7283610510565b1415611c85565b611db36001611d886000611caf565b611dad611d94826129cd565b611da6611da087610510565b91610510565b1415611d26565b836129ec565b61059a565b7fbc7cd75a20ee27fd9adebab32041f755214dbc6bffa90cc0225b39da2e5c2d3b611de1610396565b80611deb81610a2c565b0390a2565b611df990611be6565b565b90611e179291611e12611e0d33611af5565b611a22565b612061565b565b5090565b60007f50726f78793a205f73656c6563746f727327732073697a65206973207a65726f910152565b611e516020809261095c565b611e5a81611e1d565b0190565b611e749060208101906000818303910152611e45565b90565b15611e7f575b565b611e87610396565b62461bcd60e51b815280611e9d60048201611e5e565b0390fd5b611ead611eb291610700565b610e27565b90565b611ebf9054611ea1565b90565b60007f50726f78793a205f696d70206973206e6f7420616c6976650000000000000000910152565b611ef7601860209261095c565b611f0081611ec2565b0190565b611f1a9060208101906000818303910152611eea565b90565b15611f25575b565b611f2d610396565b62461bcd60e51b815280611f4360048201611f04565b0390fd5b6001611f5391016103ba565b90565b9190811015611f69575b60209002900190565b610ec5565b35611f788161045f565b90565b611f87611f8c91610700565b610d69565b90565b611f999054611f7b565b90565b60007f4c69717569646974795661756c7450726f78793a2073616d6520696d70000000910152565b611fd1601d60209261095c565b611fda81611f9c565b0190565b611ff49060208101906000818303910152611fc4565b90565b15611fff575b565b612007610396565b62461bcd60e51b81528061201d60048201611fde565b0390fd5b9061203260018060a01b03916115d0565b91811990169116901790565b90565b9061205661205161205d9261059a565b61203e565b8254612021565b9055565b9291909261206f8482611e19565b9261208c61207d6000611caf565b612086866103ba565b11611e77565b6120a76120a261209d856002610e0f565b611eb5565b611f1d565b6120b16000611caf565b5b6120bb856103ba565b6120c4826103ba565b10156121a1575b61219a8161213a866121358761212f61212a868e61212461210b6121066121006120fb6120bb9f8660039b611f56565b611f6e565b88610d51565b611f8f565b61211d6121178a610510565b91610510565b1415611ff7565b8c611f56565b611f6e565b90610d51565b612041565b61215561215061214b838b89611f56565b611f6e565b610d45565b61215e8761059a565b907f14ebc1c32aa68f4d766e89f3e546cee249f7df25183fc10ab1568d91c2ce9b7b612188610396565b8061219281610a2c565b0390a3611f47565b90506120b2565b509350505050565b906121b49291611dfb565b565b600090565b6121c36121b6565b506121d66121d16000611caf565b6129cd565b90565b906121f4916121ef6121ea33611af5565b611a22565b6121f6565b565b9061220091612a1b565b565b9061220c916121d9565b565b6122289061221a611987565b506122236118ee565b6125b8565b90565b6122459061224061223b33611af5565b611a22565b612247565b565b612258906122536115f2565b611b50565b565b6122639061222b565b565b61227661227133611af5565b611a22565b61227e612280565b565b61229261228b6115f2565b3390611b96565b565b61229c612265565b565b6122b8906122b36122ae33611af5565b611a22565b6123c4565b565b60007f41636365737369626c653a207a65726f20616464726573730000000000000000910152565b6122ef601860209261095c565b6122f8816122ba565b0190565b61231290602081019060008183039101526122e2565b90565b1561231d575b565b612325610396565b62461bcd60e51b81528061233b600482016122fc565b0390fd5b60007f41636365737369626c653a2073616d652061646d696e00000000000000000000910152565b612374601660209261095c565b61237d8161233f565b0190565b6123979060208101906000818303910152612367565b90565b156123a2575b565b6123aa610396565b62461bcd60e51b8152806123c060048201612381565b0390fd5b612422906123ed6123dd6123d86000611c1e565b610510565b6123e683610510565b1415612315565b6124096123f982610510565b61240233610510565b141561239a565b61241b6124146115f2565b9182611b50565b3390611b96565b565b61242d9061229e565b565b6124499061244461243f33611af5565b611a22565b612492565b565b9061245760ff916115d0565b91811990169116901790565b61246c906104a6565b90565b90565b9061248761248261248e92612463565b61246f565b825461244b565b9055565b61249d906000612472565b565b6124a89061242f565b565b906124c692916124c16124bc33611af5565b611a22565b6124c8565b565b906124d392916129ec565b565b906124e092916124aa565b565b6124f4906124ee6121b6565b506129cd565b90565b9061250190611caf565b600052602052604060002090565b61252661252b9161251e6121b6565b506003610d51565b611f8f565b61253d6125386000611c1e565b610510565b61254682610510565b14600014612567575b5061256461255f600060016124f7565b611f8f565b90565b61257a612575826002610e0f565b611eb5565b612597575b5061259461258f600060016124f7565b611f8f565b90565b90565b6125a2611987565b506125b56125ae6115f2565b33906125b8565b90565b6125e09160006125d56125db936125cd611987565b506004611a97565b01610e0f565b611eb5565b90565b6125fd906125f86125f333611af5565b611a22565b6125ff565b565b6126109061260b611820565b611b50565b565b61261b906125e3565b565b61262f612628611820565b3390611b96565b565b61264b9061264661264133611af5565b611a22565b61264d565b565b61265e906126596118ee565b611b50565b565b61266990612631565b565b61268590612677611987565b50612680611820565b6125b8565b90565b6126a29061269d61269833611af5565b611a22565b6126a4565b565b6126b5906126b06118ee565b611b96565b565b6126c090612688565b565b6126dc906126d76126d233611af5565b611a22565b6126de565b565b6126ef906126ea611820565b612726565b565b6126fa906126c2565b565b906127179161271261270d82611ad3565b612860565b612719565b565b906127239161292c565b50565b90612730916126fc565b565b61274c9061274761274233611af5565b611a22565b61274e565b565b61275790612424565b565b61276290612732565b565b61277e9061277961277433611af5565b611a22565b612780565b565b6127919061278c6118ee565b612726565b565b61279c90612764565b565b60007f63616e6e6f742072656365697665204574686572000000000000000000000000910152565b6127d3601460209261095c565b6127dc8161279e565b0190565b6127f690602081019060008183039101526127c6565b90565b612801610396565b62461bcd60e51b815280612817600482016127e0565b0390fd5b612af8565b612828611987565b50612839637965db0b60e01b610452565b61284282610452565b1490819115612850575b5090565b61285a9150612b77565b3861284c565b6128729061286c61291f565b90612bc1565b565b61287c611987565b5061289061288a83836125b8565b156104a6565b600014612918575b6128b960016128b48460006128ae866004611a97565b01610e0f565b612472565b6128dc6128d66128d06128ca61291f565b93611a8b565b9361059a565b9161059a565b917f2f8788117e7eff1d82e926ec794901d17c78024a50270940304540a733656f0d612906610396565b8061291081610a2c565b0390a4600190565b5050600090565b6129276121b6565b503390565b612934611987565b5061293f82826125b8565b6000146129c6575b6129676000612962848261295c866004611a97565b01610e0f565b612472565b61298a61298461297e61297861291f565b93611a8b565b9361059a565b9161059a565b917ff6391f5c32d9c69d2a47ea670b442974b53935d1edc7fd64eb21e047a839171b6129b4610396565b806129be81610a2c565b0390a4600190565b5050600090565b6129e46129e9916129dc6121b6565b506001611783565b611f8f565b90565b8291816129ff94612a01575b5050612a1b565b565b612a0f612a14926001611783565b612041565b38816129f8565b612a6e612a5c7f72558d9bfba4210f9ef095c782589484151f6d90f7a81bb3cb9b33efc695d32492612a5785612a52836002610e0f565b612472565b61059a565b92612a65610396565b918291826104b8565b0390a2565b60007f50726f78793a20696d706c204f522070726f78792069732066616c7365000000910152565b612aa8601d60209261095c565b612ab181612a73565b0190565b612acb9060208101906000818303910152612a9b565b90565b15612ad6575b565b612ade610396565b62461bcd60e51b815280612af460048201612ab5565b0390fd5b612b0c63ffffffff60e01b6000351661250f565b6000808092612b22612b1d83611c1e565b610510565b612b2b82610510565b14158090612b5a575b612b3d90612ace565b368280378136915af43d82803e600014612b56575b3d90f35b3d90fd5b50612b3d612b70612b6a84611eb5565b156104a6565b9050612b34565b612b7f611987565b50612b99612b936301ffc9a760e01b610452565b91610452565b1490565b916020612bbf929493612bb860408201966000830190610db6565b0190610ab1565b565b90612bd5612bcf82846125b8565b156104a6565b612bde575b5050565b612bff612be9610396565b92839263e2517d3f60e01b845260048401612b9d565b0390fdfea26469706673582212200df82bca307e359811feee6c35a62d4d11d63a91704ac33e4413f0242cece50964736f6c63430008190033","linkReferences":{}},"methodIdentifiers":{"DEFAULT_ADMIN_ROLE()":"a217fddf","MINTER_ROLE()":"d5391393","OPERATOR_ROLE()":"f5b541a6","REFACTOR_BOUNDARY()":"b7c246d7","REFACTOR_DIVIDER()":"00d87a9c","_allowances(address,address)":"024c2ddd","accountBalanceIds(address,uint256)":"69f499b1","accountBalanceSnapshots(address,uint256)":"0461fdc5","addAdmin(address)":"70480275","addMinter(address)":"983b2d56","addOperator(address)":"9870d7fe","aliveImplementation(address)":"550d01a3","factorSnapshotIds(uint256)":"56fabf68","factorSnapshots(uint256)":"5deaecec","getRoleAdmin(bytes32)":"248a9ca3","getSelectorImplementation2(bytes4)":"8d4fdb40","grantRole(bytes32,address)":"2f2ff15d","hasRole(bytes32,address)":"91d14854","implementation()":"5c60da1b","implementation2(uint256)":"8b8f4a65","isAdmin(address)":"24d7806c","isMinter(address)":"aa271e1a","isOperator(address)":"6d70f7ae","isOwner()":"8f32d59b","lastSnapshotId()":"837afbc0","name()":"06fdde03","pauseProxy()":"63a8fd89","proxyImplementation(uint256)":"b911135f","removeAdmin(address)":"1785f53c","removeMinter(address)":"3092afd5","removeOperator(address)":"ac8a584a","renounceMinter()":"98650275","renounceOperator()":"2ab6f8db","renounceOwnership()":"715018a6","renounceRole(bytes32,address)":"36568abe","revokeMinter(address)":"cfbd4885","revokeOperator(address)":"fad8b32a","revokeRole(bytes32,address)":"d547741f","seigManager()":"6fb7f558","selectorImplementation(bytes4)":"50d2a276","setAliveImplementation2(address,bool)":"5cc797d8","setImplementation2(address,uint256,bool)":"7cd5f663","setProxyPause(bool)":"7cb00d25","setSelectorImplementations2(bytes4[],address)":"4a5df50f","supportsInterface(bytes4)":"01ffc9a7","symbol()":"95d89b41","totalSupplySnapshotIds(uint256)":"614db8b2","totalSupplySnapshots(uint256)":"b7d78b1a","transferAdmin(address)":"75829def","transferOwnership(address)":"f2fde38b","upgradeTo(address)":"3659cfe6"},"id":98}