{"abi":[{"type":"function","name":"ADMIN_ROLE","inputs":[],"outputs":[{"name":"","type":"bytes32","internalType":"bytes32"}],"stateMutability":"view"},{"type":"function","name":"DECIMALS","inputs":[],"outputs":[{"name":"","type":"uint256","internalType":"uint256"}],"stateMutability":"view"},{"type":"function","name":"DEFAULT_ADMIN_ROLE","inputs":[],"outputs":[{"name":"","type":"bytes32","internalType":"bytes32"}],"stateMutability":"view"},{"type":"function","name":"PAUSE_ROLE","inputs":[],"outputs":[{"name":"","type":"bytes32","internalType":"bytes32"}],"stateMutability":"view"},{"type":"function","name":"TON_FEES_RATE_DIVIDER","inputs":[],"outputs":[{"name":"","type":"uint256","internalType":"uint256"}],"stateMutability":"view"},{"type":"function","name":"addAdmin","inputs":[{"name":"account","type":"address","internalType":"address"}],"outputs":[],"stateMutability":"nonpayable"},{"type":"function","name":"addPauser","inputs":[{"name":"account","type":"address","internalType":"address"}],"outputs":[],"stateMutability":"nonpayable"},{"type":"function","name":"aliveImplementation","inputs":[{"name":"","type":"address","internalType":"address"}],"outputs":[{"name":"","type":"bool","internalType":"bool"}],"stateMutability":"view"},{"type":"function","name":"buyGem","inputs":[{"name":"_tokenId","type":"uint256","internalType":"uint256"},{"name":"_paymentMethod","type":"bool","internalType":"bool"}],"outputs":[],"stateMutability":"nonpayable"},{"type":"function","name":"gemsForSale","inputs":[{"name":"","type":"uint256","internalType":"uint256"}],"outputs":[{"name":"seller","type":"address","internalType":"address"},{"name":"price","type":"uint256","internalType":"uint256"},{"name":"isActive","type":"bool","internalType":"bool"}],"stateMutability":"view"},{"type":"function","name":"getGemFactoryAddress","inputs":[],"outputs":[{"name":"","type":"address","internalType":"address"}],"stateMutability":"view"},{"type":"function","name":"getGemForSale","inputs":[{"name":"_tokenId","type":"uint256","internalType":"uint256"}],"outputs":[{"name":"","type":"tuple","internalType":"struct MarketPlaceStorage.Sale","components":[{"name":"seller","type":"address","internalType":"address"},{"name":"price","type":"uint256","internalType":"uint256"},{"name":"isActive","type":"bool","internalType":"bool"}]}],"stateMutability":"view"},{"type":"function","name":"getPauseStatus","inputs":[],"outputs":[{"name":"","type":"bool","internalType":"bool"}],"stateMutability":"view"},{"type":"function","name":"getPaused","inputs":[],"outputs":[{"name":"","type":"bool","internalType":"bool"}],"stateMutability":"view"},{"type":"function","name":"getRoleAdmin","inputs":[{"name":"role","type":"bytes32","internalType":"bytes32"}],"outputs":[{"name":"","type":"bytes32","internalType":"bytes32"}],"stateMutability":"view"},{"type":"function","name":"getStakingIndex","inputs":[],"outputs":[{"name":"","type":"uint256","internalType":"uint256"}],"stateMutability":"view"},{"type":"function","name":"getTonAddress","inputs":[],"outputs":[{"name":"","type":"address","internalType":"address"}],"stateMutability":"view"},{"type":"function","name":"getTonFeesRate","inputs":[],"outputs":[{"name":"","type":"uint256","internalType":"uint256"}],"stateMutability":"view"},{"type":"function","name":"getTreasuryAddress","inputs":[],"outputs":[{"name":"","type":"address","internalType":"address"}],"stateMutability":"view"},{"type":"function","name":"getWstonAddress","inputs":[],"outputs":[{"name":"","type":"address","internalType":"address"}],"stateMutability":"view"},{"type":"function","name":"grantRole","inputs":[{"name":"role","type":"bytes32","internalType":"bytes32"},{"name":"account","type":"address","internalType":"address"}],"outputs":[],"stateMutability":"nonpayable"},{"type":"function","name":"hasRole","inputs":[{"name":"role","type":"bytes32","internalType":"bytes32"},{"name":"account","type":"address","internalType":"address"}],"outputs":[{"name":"","type":"bool","internalType":"bool"}],"stateMutability":"view"},{"type":"function","name":"initialize","inputs":[{"name":"_treasury","type":"address","internalType":"address"},{"name":"_gemfactory","type":"address","internalType":"address"},{"name":"_tonFeesRate","type":"uint256","internalType":"uint256"},{"name":"_wston","type":"address","internalType":"address"},{"name":"_ton","type":"address","internalType":"address"}],"outputs":[],"stateMutability":"nonpayable"},{"type":"function","name":"isAdmin","inputs":[{"name":"account","type":"address","internalType":"address"}],"outputs":[{"name":"","type":"bool","internalType":"bool"}],"stateMutability":"view"},{"type":"function","name":"isOwner","inputs":[],"outputs":[{"name":"","type":"bool","internalType":"bool"}],"stateMutability":"view"},{"type":"function","name":"isPauser","inputs":[{"name":"account","type":"address","internalType":"address"}],"outputs":[{"name":"","type":"bool","internalType":"bool"}],"stateMutability":"view"},{"type":"function","name":"pause","inputs":[],"outputs":[],"stateMutability":"nonpayable"},{"type":"function","name":"pauseProxy","inputs":[],"outputs":[{"name":"","type":"bool","internalType":"bool"}],"stateMutability":"view"},{"type":"function","name":"proxyImplementation","inputs":[{"name":"","type":"uint256","internalType":"uint256"}],"outputs":[{"name":"","type":"address","internalType":"address"}],"stateMutability":"view"},{"type":"function","name":"putGemForSale","inputs":[{"name":"_tokenId","type":"uint256","internalType":"uint256"},{"name":"_price","type":"uint256","internalType":"uint256"}],"outputs":[],"stateMutability":"nonpayable"},{"type":"function","name":"putGemListForSale","inputs":[{"name":"tokenIds","type":"uint256[]","internalType":"uint256[]"},{"name":"prices","type":"uint256[]","internalType":"uint256[]"}],"outputs":[],"stateMutability":"nonpayable"},{"type":"function","name":"removeAdmin","inputs":[],"outputs":[],"stateMutability":"nonpayable"},{"type":"function","name":"removeGemForSale","inputs":[{"name":"_tokenId","type":"uint256","internalType":"uint256"}],"outputs":[],"stateMutability":"nonpayable"},{"type":"function","name":"removePauser","inputs":[{"name":"account","type":"address","internalType":"address"}],"outputs":[],"stateMutability":"nonpayable"},{"type":"function","name":"renounceRole","inputs":[{"name":"role","type":"bytes32","internalType":"bytes32"},{"name":"callerConfirmation","type":"address","internalType":"address"}],"outputs":[],"stateMutability":"nonpayable"},{"type":"function","name":"revokeRole","inputs":[{"name":"role","type":"bytes32","internalType":"bytes32"},{"name":"account","type":"address","internalType":"address"}],"outputs":[],"stateMutability":"nonpayable"},{"type":"function","name":"selectorImplementation","inputs":[{"name":"","type":"bytes4","internalType":"bytes4"}],"outputs":[{"name":"","type":"address","internalType":"address"}],"stateMutability":"view"},{"type":"function","name":"setDiscountRate","inputs":[{"name":"_tonFeesRate","type":"uint256","internalType":"uint256"}],"outputs":[],"stateMutability":"nonpayable"},{"type":"function","name":"setGemFactory","inputs":[{"name":"_gemFactory","type":"address","internalType":"address"}],"outputs":[],"stateMutability":"nonpayable"},{"type":"function","name":"setStakingIndex","inputs":[{"name":"_stakingIndex","type":"uint256","internalType":"uint256"}],"outputs":[],"stateMutability":"nonpayable"},{"type":"function","name":"setTon","inputs":[{"name":"_ton","type":"address","internalType":"address"}],"outputs":[],"stateMutability":"nonpayable"},{"type":"function","name":"setWston","inputs":[{"name":"_wston","type":"address","internalType":"address"}],"outputs":[],"stateMutability":"nonpayable"},{"type":"function","name":"supportsInterface","inputs":[{"name":"interfaceId","type":"bytes4","internalType":"bytes4"}],"outputs":[{"name":"","type":"bool","internalType":"bool"}],"stateMutability":"view"},{"type":"function","name":"transferOwnership","inputs":[{"name":"newOwner","type":"address","internalType":"address"}],"outputs":[],"stateMutability":"nonpayable"},{"type":"function","name":"unpause","inputs":[],"outputs":[],"stateMutability":"nonpayable"},{"type":"event","name":"GemBought","inputs":[{"name":"tokenId","type":"uint256","indexed":false,"internalType":"uint256"},{"name":"payer","type":"address","indexed":false,"internalType":"address"},{"name":"seller","type":"address","indexed":false,"internalType":"address"},{"name":"amount","type":"uint256","indexed":false,"internalType":"uint256"},{"name":"gemCoolDownDueDate","type":"uint256","indexed":false,"internalType":"uint256"}],"anonymous":false},{"type":"event","name":"GemFactoryAddressUpdated","inputs":[{"name":"gemfactory","type":"address","indexed":false,"internalType":"address"}],"anonymous":false},{"type":"event","name":"GemForSale","inputs":[{"name":"tokenId","type":"uint256","indexed":false,"internalType":"uint256"},{"name":"seller","type":"address","indexed":false,"internalType":"address"},{"name":"price","type":"uint256","indexed":false,"internalType":"uint256"}],"anonymous":false},{"type":"event","name":"GemRemovedFromSale","inputs":[{"name":"seller","type":"address","indexed":false,"internalType":"address"},{"name":"tokenId","type":"uint256","indexed":false,"internalType":"uint256"}],"anonymous":false},{"type":"event","name":"RoleAdminChanged","inputs":[{"name":"role","type":"bytes32","indexed":true,"internalType":"bytes32"},{"name":"previousAdminRole","type":"bytes32","indexed":true,"internalType":"bytes32"},{"name":"newAdminRole","type":"bytes32","indexed":true,"internalType":"bytes32"}],"anonymous":false},{"type":"event","name":"RoleGranted","inputs":[{"name":"role","type":"bytes32","indexed":true,"internalType":"bytes32"},{"name":"account","type":"address","indexed":true,"internalType":"address"},{"name":"sender","type":"address","indexed":true,"internalType":"address"}],"anonymous":false},{"type":"event","name":"RoleRevoked","inputs":[{"name":"role","type":"bytes32","indexed":true,"internalType":"bytes32"},{"name":"account","type":"address","indexed":true,"internalType":"address"},{"name":"sender","type":"address","indexed":true,"internalType":"address"}],"anonymous":false},{"type":"event","name":"SetDiscountRate","inputs":[{"name":"discountRate","type":"uint256","indexed":false,"internalType":"uint256"}],"anonymous":false},{"type":"event","name":"SetStakingIndex","inputs":[{"name":"stakingIndex","type":"uint256","indexed":false,"internalType":"uint256"}],"anonymous":false},{"type":"event","name":"WSTONClaimed","inputs":[{"name":"tokenId","type":"uint256","indexed":false,"internalType":"uint256"},{"name":"claimer","type":"address","indexed":false,"internalType":"address"}],"anonymous":false},{"type":"error","name":"AccessControlBadConfirmation","inputs":[]},{"type":"error","name":"AccessControlUnauthorizedAccount","inputs":[{"name":"account","type":"address","internalType":"address"},{"name":"neededRole","type":"bytes32","internalType":"bytes32"}]},{"type":"error","name":"AddressZero","inputs":[]},{"type":"error","name":"AlreadyInitialized","inputs":[]},{"type":"error","name":"BuyerIsSeller","inputs":[{"name":"errorMessage","type":"string","internalType":"string"}]},{"type":"error","name":"FailedToPay","inputs":[]},{"type":"error","name":"FailedToSendFeesToTreasury","inputs":[]},{"type":"error","name":"GemIsAlreadyForSaleOrIsMining","inputs":[]},{"type":"error","name":"GemIsNotForSale","inputs":[]},{"type":"error","name":"GemNotApproved","inputs":[]},{"type":"error","name":"ListingGemFailed","inputs":[]},{"type":"error","name":"NoTokens","inputs":[]},{"type":"error","name":"NotGemOwner","inputs":[]},{"type":"error","name":"NotPaused","inputs":[]},{"type":"error","name":"Paused","inputs":[]},{"type":"error","name":"PurchaseFailed","inputs":[]},{"type":"error","name":"ReentrancyGuardReentrantCall","inputs":[]},{"type":"error","name":"SameAdmin","inputs":[]},{"type":"error","name":"SameOwner","inputs":[]},{"type":"error","name":"WrongLength","inputs":[]},{"type":"error","name":"WrongMsgValue","inputs":[]},{"type":"error","name":"WrongPrice","inputs":[]},{"type":"error","name":"WrongSeller","inputs":[]},{"type":"error","name":"WrongStakingIndex","inputs":[]},{"type":"error","name":"ZeroAddress","inputs":[]}],"bytecode":{"object":"0x60806040523461002257610011610027565b604051612693610123823961269390f35b600080fd5b61002f610031565b565b61002f61002f61002f61002f61002f61002f61002f610090565b6100586100586100589290565b90565b610058600161004b565b90600019905b9181191691161790565b9061008561005861008c9261004b565b8254610065565b9055565b6100986100f3565b61002f6100a361005b565b600c610075565b9060ff9061006b565b151590565b906100c861005861008c926100b3565b82546100aa565b9061ff009060081b61006b565b906100ec61005861008c926100b3565b82546100cf565b61010a6b033b2e3c9fd0803ce8000000600a610075565b6101166000600b6100b8565b61002f6000600b6100dc56fe6080604052600436101561001257600080fd5b60003560e01c806301ffc9a7146102dd57806302424ed3146102d8578063044bc779146102d357806308ec897d146102ce5780631d9023cb14610279578063247ee388146102c9578063248a9ca3146102c457806324d7806c146102bf5780632e0f2625146102ba5780632ede6432146102b55780632f2ff15d146102b057806333e1a223146102ab57806336568abe146102a6578063389ed267146102a15780633f4ba83a1461029c57806346fbf68e146102975780634d288fec146102925780635074e0c81461028d57806350d2a27614610288578063550d01a31461028357806363a8fd891461027e5780636805b84b146102795780636ae638d0146102745780636b2c0f551461026f578063704802751461026a57806375b238fc1461026557806379dbd798146102605780637c69febd1461025b57806382dc1ec4146102565780638456cb59146102515780638f32d59b1461024c57806391d14854146102475780639a202d47146102425780639c41b42b1461023d5780639d541be214610238578063a217fddf14610233578063a69c8fb21461022e578063adad692614610229578063b911135f14610224578063c255bf161461021f578063ce49a3601461021a578063d547741f14610215578063e002460414610210578063e61475181461020b5763f2fde38b036102e257610c7d565b610c65565b610c4a565b610c31565b610c19565b610bf2565b610b95565b610b6d565b610b52565b610b37565b610b0a565b610ae0565b610a2b565b610a0f565b6109f4565b6109dc565b6109c4565b6109ac565b610993565b61085d565b610819565b610801565b6107e6565b610460565b6107cb565b6107a5565b61072b565b6106c2565b6106aa565b61068f565b610677565b61065c565b610617565b6105fb565b61059d565b610561565b610523565b6104ec565b6104d1565b6104a5565b610435565b6103ee565b6103a0565b610324565b600080fd5b6001600160e01b031981165b036102e257565b90503590610307826102e7565b565b906020828203126102e25761031d916102fa565b90565b9052565b346102e25761035161033f61033a366004610309565b610c95565b60405191829182901515815260200190565b0390f35b806102f3565b9050359061030782610355565b8015156102f3565b9050359061030782610368565b91906040838203126102e25761031d906020610399828661035b565b9401610370565b346102e2576103b96103b336600461037d565b90610cf7565b604051005b60009103126102e257565b6001600160a01b031690565b610320906103c9565b60208101929161030791906103d5565b346102e2576103fe3660046103be565b610351610409610d01565b604051918291826103de565b61031d61031d61031d9290565b61031d612710610415565b61031d610422565b346102e2576104453660046103be565b61035161045061042d565b6040519182918290815260200190565b346102e2576104703660046103be565b61035161033f610d0b565b6102f3816103c9565b905035906103078261047b565b906020828203126102e25761031d91610484565b346102e2576103b96104b8366004610491565b610dc1565b906020828203126102e25761031d9161035b565b346102e2576103516104506104e73660046104bd565b610dd0565b346102e25761035161033f610502366004610491565b610def565b61031d676765c793fa10079d601b1b610415565b61031d610507565b346102e2576105333660046103be565b61035161045061051b565b91906040838203126102e25761031d90602061055a828661035b565b940161035b565b346102e2576103b961057436600461053e565b90610f1a565b91906040838203126102e25761031d906020610596828661035b565b9401610484565b346102e2576103b96105b036600461057a565b90610f47565b919060a0838203126102e2576105cc8184610484565b926105da8260208301610484565b9261031d6105eb846040850161035b565b9360806105968260608701610484565b346102e2576103b961060e3660046105b6565b93929092610fac565b346102e2576103b961062a36600461057a565b90611022565b7ffcb9fcbfa83b897fb2d5cf4b58962164105c1e71489a37ef3ae0db3fdce576f690565b61031d610630565b346102e25761066c3660046103be565b610351610450610654565b346102e2576106873660046103be565b6103b96110ba565b346102e25761035161033f6106a5366004610491565b6110c2565b346102e2576103b96106bd366004610491565b6110e8565b346102e2576106d23660046103be565b6103516104506110f1565b906001600160e01b0319165b600052602052604060002090565b61031d916008021c6001600160a01b031690565b9061031d91546106f7565b600061072661031d9260036106dd565b61070b565b346102e257610351610409610741366004610309565b610716565b61031d906103c9906001600160a01b031682565b61031d90610746565b61031d9061075a565b906106e990610763565b61031d916008021c5b60ff1690565b9061031d9154610776565b60006107a061031d92600261076c565b610785565b346102e25761035161033f6107bb366004610491565b610790565b61031d600080610785565b346102e2576107db3660046103be565b61035161033f6107c0565b346102e2576107f63660046103be565b6103516104096110fb565b346102e2576103b9610814366004610491565b6111ac565b346102e2576103b961082c366004610491565b6111d5565b7fdf8b4c520ffe197c5343c6f5aec59570151ef9a492f2c624fd45ddde6135ec4290565b61031d610831565b346102e25761086d3660046103be565b610351610450610855565b634e487b7160e01b600052604160045260246000fd5b90601f01601f191681019081106001600160401b038211176108af57604052565b610878565b906103076108c160405190565b928361088e565b6001600160401b0381116108af5760208091020190565b909291926108f46108ef826108c8565b6108b4565b93818552602080860192028301928184116102e257915b8383106109185750505050565b60208091610926848661035b565b81520192019161090b565b9080601f830112156102e25781602061031d933591016108df565b9190916040818403126102e25780356001600160401b0381116102e25783610975918301610931565b9260208201356001600160401b0381116102e25761031d9201610931565b346102e2576103b96109a636600461094c565b90611353565b346102e2576103b96109bf3660046104bd565b6113a1565b346102e2576103b96109d7366004610491565b6113c5565b346102e2576109ec3660046103be565b6103b96113f9565b346102e257610a043660046103be565b61035161033f611401565b346102e25761035161033f610a2536600461057a565b9061140c565b346102e257610a3b3660046103be565b6103b96114aa565b906106e990610415565b61031d906103c9565b61031d9054610a4d565b61031d9081565b61031d9054610a60565b61031d9061077f565b61031d9054610a71565b610a8f906004610a43565b610a9881610a56565b9161031d6002610aaa60018501610a67565b9301610a7a565b604090610ad86103079496959396610ad1606084019860008501906103d5565b6020830152565b019015159052565b346102e257610351610afb610af63660046104bd565b610a84565b60405191939193849384610ab1565b346102e257610b1a3660046103be565b6103516104096114b2565b61031d6000610415565b61031d610b25565b346102e257610b473660046103be565b610351610450610b2f565b346102e257610b623660046103be565b6103516104506114bc565b346102e2576103b9610b803660046104bd565b611738565b600061072661031d926001610a43565b346102e257610351610409610bab3660046104bd565b610b85565b9060408061030793610bca600082015160008601906103d5565b610bd960208201516020860152565b01511515910152565b6060810192916103079190610bb0565b346102e257610351610c0d610c083660046104bd565b6117c5565b60405191829182610be2565b346102e2576103b9610c2c3660046104bd565b61184c565b346102e2576103b9610c4436600461057a565b90611870565b346102e257610c5a3660046103be565b61035161040961187a565b346102e2576103b9610c78366004610491565b6118c3565b346102e2576103b9610c90366004610491565b61196e565b61031d90611977565b90610ca9600b610a7a565b610cb65761030791610ccc565b6040516313d0ff5960e31b8152600490fd5b0390fd5b610cdf91610cdb91339061222e565b1590565b610ce557565b6040516353afcfe360e01b8152600490fd5b9061030791610c9e565b61031d6008610a56565b61031d600b610a7a565b15610d1c57565b60405162461bcd60e51b8152602060048201526024808201527f41757468436f6e74726f6c3a2043616c6c6572206973206e6f7420746865206f6044820152633bb732b960e11b6064820152608490fd5b61030790610d81610d7c611401565b610d15565b610db6565b906001600160a01b03905b9181191691161790565b90610dab61031d610db292610763565b8254610d86565b9055565b610307906008610d9b565b61030790610d6d565b906106e9565b6001610de961031d92610de1600090565b50600d610dca565b01610a67565b61031d90610dfb610831565b61140c565b90610e0b600b610a7a565b610cb65761030791610e45565b905051906103078261047b565b906020828203126102e25761031d91610e18565b6040513d6000823e3d90fd5b610e5a610e55610e556006610a56565b610763565b6020610e6560405190565b63020604bf60e21b81526004810184905291829060249082905afa908115610f1557600091610ee6575b50610eaa610ea4610e9f30610763565b6103c9565b916103c9565b03610ed457610ebc91610cdb916122af565b610ec257565b60405163176479df60e01b8152600490fd5b60405163077ad1ed60e51b8152600490fd5b610f08915060203d602011610f0e575b610f00818361088e565b810190610e25565b38610e8f565b503d610ef6565b610e39565b9061030791610e00565b9061030791610f3a610f3582610dd0565b6124ce565b90610f44916124d9565b50565b9061030791610f24565b61031d9060081c61077f565b61031d9054610f51565b9060001990610d91565b90610f8161031d610db292610415565b8254610f67565b9061ff009060081b610d91565b90610fa561031d610db292151590565b8254610f88565b939290610fb9600b610f5d565b6110115761100594610ff0610ff792610fe9610ffe96610fe1610fda610b25565b33906124d9565b506005610f71565b6006610d9b565b6007610d9b565b6008610d9b565b6009610d9b565b6103076001600b610f95565b60405162dc149f60e41b8152600490fd5b9061102c336103c9565b611035826103c9565b0361104357610f449161255b565b60405163334bd91960e11b8152600490fd5b611060610d7c611401565b610307611070610cdb600b610a7a565b61107c576103076110ae565b604051636cd6020160e01b8152600490fd5b9060ff90610d91565b906110a761031d610db292151590565b825461108e565b6103076000600b611097565b610307611055565b61031d90610dfb610630565b610307906110dd610d7c611401565b610307906009610d9b565b610307906110ce565b61031d600a610a67565b61031d6009610a56565b1561110c57565b60405162461bcd60e51b815260206004820152602360248201527f41757468436f6e74726f6c3a2043616c6c6572206973206e6f7420612070617560448201526239b2b960e91b6064820152608490fd5b6103079061117361116c610630565b339061140c565b8015611188575b61118390611105565b61119b565b50611183611194611401565b905061117a565b610307906111a7610630565b611022565b6103079061115d565b610307906111c4610d7c611401565b610307906111d0610831565b610f47565b610307906111b5565b906111e9600b610a7a565b610cb6576103079161122b565b634e487b7160e01b600052603260045260246000fd5b90611215825190565b811015611226576020809102010190565b6111f6565b805192611236835190565b906000916112446000610415565b861461134157850361132f5761125a6000610415565b85811015611327576112b06020611277610e55610e556006610a56565b611288611284858961120c565b5190565b9061129260405190565b9384928391829163020604bf60e21b83526004830190815260200190565b03915afa908115610f15578491611309575b506112d2610ea4610e9f30610763565b03610ed4576112fd610cdb6112ea611284848861120c565b6112f7611284858a61120c565b906122af565b610ec25760010161125a565b611321915060203d8111610f0e57610f00818361088e565b386112c2565b509350505050565b6040516349552d5960e11b8152600490fd5b60405163df95788360e01b8152600490fd5b90610307916111de565b6103079061136c610d7c611401565b61139c7f21a8eefc17e9c864964b5a4c0769d87f39cc0a7576773159e12358bc0095ffc591610450816005610f71565b0390a1565b6103079061135d565b610307906113b9610d7c611401565b610307906111d0610630565b610307906113aa565b6113d9610d7c611401565b6103076113e6600b610a7a565b610cb6576103076103076001600b611097565b6103076113ce565b61031d61116c610b25565b61031d91600061142161142793610de1600090565b0161076c565b610a7a565b1561143357565b60405162461bcd60e51b815260206004820152602360248201527f41757468436f6e74726f6c3a2043616c6c6572206973206e6f7420616e20616460448201526236b4b760e91b6064820152608490fd5b61149561149033610def565b61142c565b6103076103076114a3610831565b3390611022565b610307611484565b61031d6006610a56565b61031d6005610a67565b6114d0600b610a7a565b610cb65761030790611590565b90815260408101929161030791602090610ad8565b9160001960089290920291821b911b610d91565b919061151761031d610db293610415565b9083546114f2565b61030791600091611506565b600080825590600290611541836001830161151f565b0155565b634e487b7160e01b600052600060045260246000fd5b9060000361156c576103079061152b565b611545565b91602061030792949361158c604082019660008301906103d5565b0152565b60046115a760026115a18484610a43565b01610a7a565b6115b360015b91151590565b03611719576115c8610e55610e556006610a56565b60206115d360405190565b9182906331a9108f60e11b825281806115f28888830190815260200190565b03915afa908115610f15576000916116fa575b50611612610ea4336103c9565b036116db57611627610e55610e556006610a56565b91600091833b156102e2578261163c60405190565b948590634d723a7560e01b825281838161165982898984016114dd565b03925af1928315610f155761169d836116a2937f4d3db535b88041fd66b5878bff43bb7fa76399f971704cacc81234e39aa859e29761139c976116af575b50610a43565b61155b565b6040519182913383611571565b6116ce90853d87116116d4575b6116c6818361088e565b8101906103be565b38611697565b503d6116bc565b610cc8906116e860405190565b6302b327b560e41b8152918291820190565b611713915060203d602011610f0e57610f00818361088e565b38611605565b610cc89061172660405190565b6374f0c4bb60e11b8152918291820190565b610307906114c6565b61031d60606108b4565b611753611741565b600080825260208201819052604082015290565b61031d61174b565b90610320906103c9565b906103076117b3600261178a611741565b9461179d61179782610a56565b8761176f565b6115a16117ac60018301610a67565b6020880152565b15156040840152565b61031d90611779565b6117dc61031d916117d4611767565b506004610a43565b6117bc565b610307906117f0610d7c611401565b611804676765c793fa10079d601b1b610415565b811061183a5761139c816104507fa597abe6b82f0190c1192d690059f8a214908502cdc266fde36fd659711948d993600a610f71565b6040516373fd31f360e01b8152600490fd5b610307906117e1565b9061030791611866610f3582610dd0565b90610f449161255b565b9061030791611855565b61031d6007610a56565b61030790611893610d7c611401565b61139c7fed7acc23c47775012c7b3a370974b91aefab1849cacf173b5ea54273abb4815691610409816006610d9b565b61030790611884565b610307906118db610d7c611401565b6118f6565b6103c961031d61031d9290565b61031d906118e0565b611903610e9f60006118ed565b61190c826103c9565b1461195c5761191a816103c9565b611923336103c9565b1461194a57610307906114a3611937610b25565b916119428184610f47565b6111d0610831565b604051630a98f1f360e21b8152600490fd5b60405163d92e233d60e01b8152600490fd5b610307906118cc565b637965db0b60e01b6001600160e01b0319821614908115611996575090565b61031d91506001600160e01b0319166301ffc9a760e01b1490565b906119c59392916119c06125c2565b611d33565b90610307612602565b634e487b7160e01b600052601160045260246000fd5b818102929181159184041417156119f757565b6119ce565b634e487b7160e01b600052601260045260246000fd5b8115611a1c570490565b6119fc565b919082018092116119f757565b9050519061030782610368565b906020828203126102e25761031d91611a2e565b60409061158c6103079496959396611a6f606084019860008501906103d5565b60208301906103d5565b9050519061030782610355565b60ff81166102f3565b9050519061030782611a86565b6001600160401b0381116108af5760200290565b90929192611ac06108ef82611a9c565b9360208592028301928184116102e257915b838310611adf5750505050565b60208091611aed8486611a8f565b815201920191611ad2565b9080601f830112156102e257600461031d92611ab0565b90929192611b1f6108ef82611a9c565b9360208592028301928184116102e257915b838310611b3e5750505050565b60208091611b4c8486611a8f565b815201920191611b31565b9080601f830112156102e257600261031d92611b0f565b6001600160401b0381116108af57602090601f01601f19160190565b60005b838110611b9d5750506000910152565b8181015183820152602001611b8d565b90929192611bbd6108ef82611b6e565b93818552818301116102e257610307916020850190611b8a565b9080601f830112156102e257815161031d92602001611bad565b9190916101c0818403126102e257611c0a6101406108b4565b92611c158183611a79565b8452611c248160208401611a79565b6020850152611c368160408401611a79565b6040850152611c488160608401611a79565b6060850152611c5a8160808401611a8f565b6080850152611c6c8160a08401611a8f565b60a0850152611c7e8160c08401611a2e565b60c0850152611c908160e08401611af8565b60e0850152611ca3816101608401611b57565b6101008501526101a08201516001600160401b0381116102e257611cc79201611bd7565b610120830152565b906020828203126102e25781516001600160401b0381116102e25761031d9201611bf1565b9095949261030794611d2c61158c92611d22608096611d1860a088019c6000890152565b60208701906103d5565b60408501906103d5565b6060830152565b50600092611d43610e9f856118ed565b611d4c846103c9565b1461221c57600490611d66610cdb60026115a18686610a43565b61220f57611d796001610de98585610a43565b611d8d86611d878686610a43565b01610a56565b91611d97836103c9565b611da0336103c9565b14806121f6575b6121a35715611fdb57611dec602082611dc6610e55610e556008610a56565b858a8a611dd260405190565b968795869485936323b872dd60e01b5b85528d8501611a4f565b03925af18015610f1557611fae575b505b611e13866002611e0d8787610a43565b01611097565b611e23610e55610e556006610a56565b803b156102e25786611e3460405190565b918290634d723a7560e01b8252818381611e51828c8c84016114dd565b03925af18015610f1557611f92575b50611e71610e55610e556006610a56565b803b156102e25786611e8260405190565b9182906323b872dd60e01b8252818381611ea08b8d8b8d8501611a4f565b03925af18015610f1557611ef39488928792611f76575b50611ec8610e55610e556006610a56565b90611ed260405190565b809781948293611ee663aa723bb760e01b90565b8452830190815260200190565b03915afa928315610f15576040611f4b94611f3892897f9be2432b8472bc411770bfc657166b0ccd4e6d3613ae58c16fa57f5eb2c98b009a92611f53575b5050015190565b91611f4260405190565b95869586611cf4565b0390a1600190565b611f6f92503d8091833e611f67818361088e565b810190611ccf565b3880611f31565b611f8c90843d86116116d4576116c6818361088e565b38611eb7565b611fa890873d89116116d4576116c6818361088e565b38611e60565b611fcf9060203d602011611fd4575b611fc7818361088e565b810190611a3b565b611dfb565b503d611fbd565b61202e612029612005611ff7611ff1600a610a67565b856119e4565b611fff610507565b90611a12565b61202361201b6120156005610a67565b836119e4565b611fff610422565b90611a21565b612614565b61203e610e55610e556009610a56565b9060206323b872dd926120516007610a56565b90898b8961207b61206160405190565b978896879586946120728d60e01b90565b86528501611a4f565b03925af18015610f1557612186575b50612098610e9f6007610a56565b6120a1846103c9565b036120ad575b50611dfd565b6120bd610e55610e556007610a56565b90813b156102e257876120cf60405190565b92839063081cb0a960e31b82528183816120ef898c830190815260200190565b03925af1908115610f1557849260209261216a575b50612115610e55610e556008610a56565b611de28a6121236007610a56565b9361213e8861213160405190565b9889978896879560e01b90565b03925af18015610f1557156120a7576121659060203d602011611fd457611fc7818361088e565b6120a7565b612180908a3d8c116116d4576116c6818361088e565b38612104565b61219e9060203d602011611fd457611fc7818361088e565b61208a565b610cc8846121b060405190565b63b06bd67960e01b815291829182016020808252601d908201527f5573652052656d6f766547656d46726f6d4c69737420696e7374656164000000604082015260600190565b50612200866103c9565b612209336103c9565b14611da7565b610cc88261172660405190565b604051639fabe1c160e01b8152600490fd5b61031d92919060006119b1565b61031d90516103c9565b600261228360406103079461226561225f6000830161223b565b86610d9b565b61227c612273602083015190565b60018701610f71565b0151151590565b9101611097565b9061030791612245565b90815260608101939261030792909160409161158c90611a6f565b906122c0610e55610e556006610a56565b60206122cb60405190565b6331a9108f60e11b81526004810185905291829060249082905afa908115610f15576000916124af575b50612302610ea4336103c9565b0361249d5760009061231382610415565b811461248b57612329610e55610e556006610a56565b92602061233560405190565b63276a28a360e01b81526004810183905294859060249082905afa938415610f1557839461246a575b5060019361236b856115ad565b1461245857612380610e55610e556006610a56565b92833b156102e2578061239260405190565b948590634d723a7560e01b82528183816123b08b89600484016114dd565b03925af1908115610f15577f8b8052dfcc72d6fc28cd795f60661e1a701f185ce78c06a47b2ac29357d6ef8b9461241f9261243c575b506123fc6123f2611741565b913390830161176f565b612407846020830152565b851515604082015261241a836004610a43565b61228a565b61243661242b60405190565b928392339084612294565b0390a190565b61245290823d84116116d4576116c6818361088e565b386123e6565b60405163e970f37f60e01b8152600490fd5b61248491945060203d602011611fd457611fc7818361088e565b923861235e565b60405163f7760f2560e01b8152600490fd5b6040516302b327b560e41b8152600490fd5b6124c8915060203d602011610f0e57610f00818361088e565b386122f5565b610307903390612625565b6124e6610cdb838361140c565b1561255457612506600161250184600061142186600d610dca565b611097565b61252061251a612514339390565b93610763565b91610763565b917f2f8788117e7eff1d82e926ec794901d17c78024a50270940304540a733656f0d61254b60405190565b600090a4600190565b5050600090565b612565828261140c565b156125545761257f6000612501848261142186600d610dca565b61258d61251a612514339390565b917ff6391f5c32d9c69d2a47ea670b442974b53935d1edc7fd64eb21e047a839171b61254b60405190565b61031d6002610415565b6125cc600c610a67565b6125d46125b8565b9081146125e65761030790600c610f71565b604051633ee5aeb560e01b8152600490fd5b61031d6001610415565b61030761260d6125f8565b600c610f71565b61031d90611fff633b9aca00610415565b90612633610cdb828461140c565b61263b575050565b610cc861264760405190565b63e2517d3f60e01b81529283926004840161157156fea26469706673582212206fce9c987d2e51756bb08819ba6cfaea0ec001c507c422e409b366eb25fd861764736f6c63430008190033","linkReferences":{}},"methodIdentifiers":{"ADMIN_ROLE()":"75b238fc","DECIMALS()":"2e0f2625","DEFAULT_ADMIN_ROLE()":"a217fddf","PAUSE_ROLE()":"389ed267","TON_FEES_RATE_DIVIDER()":"08ec897d","addAdmin(address)":"70480275","addPauser(address)":"82dc1ec4","aliveImplementation(address)":"550d01a3","buyGem(uint256,bool)":"02424ed3","gemsForSale(uint256)":"9c41b42b","getGemFactoryAddress()":"9d541be2","getGemForSale(uint256)":"c255bf16","getPauseStatus()":"1d9023cb","getPaused()":"6805b84b","getRoleAdmin(bytes32)":"248a9ca3","getStakingIndex()":"5074e0c8","getTonAddress()":"6ae638d0","getTonFeesRate()":"a69c8fb2","getTreasuryAddress()":"e0024604","getWstonAddress()":"044bc779","grantRole(bytes32,address)":"2f2ff15d","hasRole(bytes32,address)":"91d14854","initialize(address,address,uint256,address,address)":"33e1a223","isAdmin(address)":"24d7806c","isOwner()":"8f32d59b","isPauser(address)":"46fbf68e","pause()":"8456cb59","pauseProxy()":"63a8fd89","proxyImplementation(uint256)":"b911135f","putGemForSale(uint256,uint256)":"2ede6432","putGemListForSale(uint256[],uint256[])":"79dbd798","removeAdmin()":"9a202d47","removeGemForSale(uint256)":"adad6926","removePauser(address)":"6b2c0f55","renounceRole(bytes32,address)":"36568abe","revokeRole(bytes32,address)":"d547741f","selectorImplementation(bytes4)":"50d2a276","setDiscountRate(uint256)":"7c69febd","setGemFactory(address)":"e6147518","setStakingIndex(uint256)":"ce49a360","setTon(address)":"4d288fec","setWston(address)":"247ee388","supportsInterface(bytes4)":"01ffc9a7","transferOwnership(address)":"f2fde38b","unpause()":"3f4ba83a"},"id":61}