{
  "_format": "hh-sol-artifact-1",
  "contractName": "WstonSwapPoolThanos",
  "sourceName": "src/L2/WstonSwapPoolThanos.sol",
  "abi": [
    {
      "inputs": [],
      "name": "AccessControlBadConfirmation",
      "type": "error"
    },
    {
      "inputs": [
        {
          "internalType": "address",
          "name": "account",
          "type": "address"
        },
        {
          "internalType": "bytes32",
          "name": "neededRole",
          "type": "bytes32"
        }
      ],
      "name": "AccessControlUnauthorizedAccount",
      "type": "error"
    },
    {
      "inputs": [],
      "name": "ContractTonBalanceOrAllowanceTooLow",
      "type": "error"
    },
    {
      "inputs": [
        {
          "internalType": "uint256",
          "name": "amount",
          "type": "uint256"
        }
      ],
      "name": "FailedToApproveTon",
      "type": "error"
    },
    {
      "inputs": [],
      "name": "FailedToTransferTON",
      "type": "error"
    },
    {
      "inputs": [],
      "name": "ReentrancyGuardReentrantCall",
      "type": "error"
    },
    {
      "inputs": [],
      "name": "SameAdmin",
      "type": "error"
    },
    {
      "inputs": [],
      "name": "SameOwner",
      "type": "error"
    },
    {
      "inputs": [],
      "name": "WrongStakingIndex",
      "type": "error"
    },
    {
      "inputs": [],
      "name": "WstonAllowanceTooLow",
      "type": "error"
    },
    {
      "inputs": [],
      "name": "WstonBalanceTooLow",
      "type": "error"
    },
    {
      "inputs": [],
      "name": "ZeroAddress",
      "type": "error"
    },
    {
      "anonymous": false,
      "inputs": [
        {
          "indexed": true,
          "internalType": "bytes32",
          "name": "role",
          "type": "bytes32"
        },
        {
          "indexed": true,
          "internalType": "bytes32",
          "name": "previousAdminRole",
          "type": "bytes32"
        },
        {
          "indexed": true,
          "internalType": "bytes32",
          "name": "newAdminRole",
          "type": "bytes32"
        }
      ],
      "name": "RoleAdminChanged",
      "type": "event"
    },
    {
      "anonymous": false,
      "inputs": [
        {
          "indexed": true,
          "internalType": "bytes32",
          "name": "role",
          "type": "bytes32"
        },
        {
          "indexed": true,
          "internalType": "address",
          "name": "account",
          "type": "address"
        },
        {
          "indexed": true,
          "internalType": "address",
          "name": "sender",
          "type": "address"
        }
      ],
      "name": "RoleGranted",
      "type": "event"
    },
    {
      "anonymous": false,
      "inputs": [
        {
          "indexed": true,
          "internalType": "bytes32",
          "name": "role",
          "type": "bytes32"
        },
        {
          "indexed": true,
          "internalType": "address",
          "name": "account",
          "type": "address"
        },
        {
          "indexed": true,
          "internalType": "address",
          "name": "sender",
          "type": "address"
        }
      ],
      "name": "RoleRevoked",
      "type": "event"
    },
    {
      "anonymous": false,
      "inputs": [
        {
          "indexed": false,
          "internalType": "uint256",
          "name": "newIndex",
          "type": "uint256"
        }
      ],
      "name": "StakingIndexUpdated",
      "type": "event"
    },
    {
      "anonymous": false,
      "inputs": [
        {
          "indexed": true,
          "internalType": "address",
          "name": "user",
          "type": "address"
        },
        {
          "indexed": false,
          "internalType": "uint256",
          "name": "tonAmount",
          "type": "uint256"
        },
        {
          "indexed": false,
          "internalType": "uint256",
          "name": "wstonAmount",
          "type": "uint256"
        }
      ],
      "name": "SwappedWstonForTon",
      "type": "event"
    },
    {
      "inputs": [],
      "name": "ADMIN_ROLE",
      "outputs": [
        {
          "internalType": "bytes32",
          "name": "",
          "type": "bytes32"
        }
      ],
      "stateMutability": "view",
      "type": "function"
    },
    {
      "inputs": [],
      "name": "DECIMALS",
      "outputs": [
        {
          "internalType": "uint256",
          "name": "",
          "type": "uint256"
        }
      ],
      "stateMutability": "view",
      "type": "function"
    },
    {
      "inputs": [],
      "name": "DEFAULT_ADMIN_ROLE",
      "outputs": [
        {
          "internalType": "bytes32",
          "name": "",
          "type": "bytes32"
        }
      ],
      "stateMutability": "view",
      "type": "function"
    },
    {
      "inputs": [],
      "name": "PAUSE_ROLE",
      "outputs": [
        {
          "internalType": "bytes32",
          "name": "",
          "type": "bytes32"
        }
      ],
      "stateMutability": "view",
      "type": "function"
    },
    {
      "inputs": [
        {
          "internalType": "address",
          "name": "account",
          "type": "address"
        }
      ],
      "name": "addAdmin",
      "outputs": [],
      "stateMutability": "nonpayable",
      "type": "function"
    },
    {
      "inputs": [
        {
          "internalType": "address",
          "name": "account",
          "type": "address"
        }
      ],
      "name": "addPauser",
      "outputs": [],
      "stateMutability": "nonpayable",
      "type": "function"
    },
    {
      "inputs": [
        {
          "internalType": "address",
          "name": "",
          "type": "address"
        }
      ],
      "name": "aliveImplementation",
      "outputs": [
        {
          "internalType": "bool",
          "name": "",
          "type": "bool"
        }
      ],
      "stateMutability": "view",
      "type": "function"
    },
    {
      "inputs": [],
      "name": "getPaused",
      "outputs": [
        {
          "internalType": "bool",
          "name": "",
          "type": "bool"
        }
      ],
      "stateMutability": "view",
      "type": "function"
    },
    {
      "inputs": [
        {
          "internalType": "bytes32",
          "name": "role",
          "type": "bytes32"
        }
      ],
      "name": "getRoleAdmin",
      "outputs": [
        {
          "internalType": "bytes32",
          "name": "",
          "type": "bytes32"
        }
      ],
      "stateMutability": "view",
      "type": "function"
    },
    {
      "inputs": [],
      "name": "getStakingIndex",
      "outputs": [
        {
          "internalType": "uint256",
          "name": "",
          "type": "uint256"
        }
      ],
      "stateMutability": "view",
      "type": "function"
    },
    {
      "inputs": [],
      "name": "getTreasuryAddress",
      "outputs": [
        {
          "internalType": "address",
          "name": "",
          "type": "address"
        }
      ],
      "stateMutability": "view",
      "type": "function"
    },
    {
      "inputs": [],
      "name": "getWstonAddress",
      "outputs": [
        {
          "internalType": "address",
          "name": "",
          "type": "address"
        }
      ],
      "stateMutability": "view",
      "type": "function"
    },
    {
      "inputs": [
        {
          "internalType": "bytes32",
          "name": "role",
          "type": "bytes32"
        },
        {
          "internalType": "address",
          "name": "account",
          "type": "address"
        }
      ],
      "name": "grantRole",
      "outputs": [],
      "stateMutability": "nonpayable",
      "type": "function"
    },
    {
      "inputs": [
        {
          "internalType": "bytes32",
          "name": "role",
          "type": "bytes32"
        },
        {
          "internalType": "address",
          "name": "account",
          "type": "address"
        }
      ],
      "name": "hasRole",
      "outputs": [
        {
          "internalType": "bool",
          "name": "",
          "type": "bool"
        }
      ],
      "stateMutability": "view",
      "type": "function"
    },
    {
      "inputs": [
        {
          "internalType": "address",
          "name": "_wston",
          "type": "address"
        },
        {
          "internalType": "uint256",
          "name": "_initialStakingIndex",
          "type": "uint256"
        },
        {
          "internalType": "address",
          "name": "_treasury",
          "type": "address"
        }
      ],
      "name": "initialize",
      "outputs": [],
      "stateMutability": "nonpayable",
      "type": "function"
    },
    {
      "inputs": [
        {
          "internalType": "address",
          "name": "account",
          "type": "address"
        }
      ],
      "name": "isAdmin",
      "outputs": [
        {
          "internalType": "bool",
          "name": "",
          "type": "bool"
        }
      ],
      "stateMutability": "view",
      "type": "function"
    },
    {
      "inputs": [],
      "name": "isOwner",
      "outputs": [
        {
          "internalType": "bool",
          "name": "",
          "type": "bool"
        }
      ],
      "stateMutability": "view",
      "type": "function"
    },
    {
      "inputs": [
        {
          "internalType": "address",
          "name": "account",
          "type": "address"
        }
      ],
      "name": "isPauser",
      "outputs": [
        {
          "internalType": "bool",
          "name": "",
          "type": "bool"
        }
      ],
      "stateMutability": "view",
      "type": "function"
    },
    {
      "inputs": [],
      "name": "pause",
      "outputs": [],
      "stateMutability": "nonpayable",
      "type": "function"
    },
    {
      "inputs": [],
      "name": "pauseProxy",
      "outputs": [
        {
          "internalType": "bool",
          "name": "",
          "type": "bool"
        }
      ],
      "stateMutability": "view",
      "type": "function"
    },
    {
      "inputs": [
        {
          "internalType": "uint256",
          "name": "",
          "type": "uint256"
        }
      ],
      "name": "proxyImplementation",
      "outputs": [
        {
          "internalType": "address",
          "name": "",
          "type": "address"
        }
      ],
      "stateMutability": "view",
      "type": "function"
    },
    {
      "inputs": [],
      "name": "removeAdmin",
      "outputs": [],
      "stateMutability": "nonpayable",
      "type": "function"
    },
    {
      "inputs": [
        {
          "internalType": "address",
          "name": "account",
          "type": "address"
        }
      ],
      "name": "removePauser",
      "outputs": [],
      "stateMutability": "nonpayable",
      "type": "function"
    },
    {
      "inputs": [
        {
          "internalType": "bytes32",
          "name": "role",
          "type": "bytes32"
        },
        {
          "internalType": "address",
          "name": "callerConfirmation",
          "type": "address"
        }
      ],
      "name": "renounceRole",
      "outputs": [],
      "stateMutability": "nonpayable",
      "type": "function"
    },
    {
      "inputs": [
        {
          "internalType": "bytes32",
          "name": "role",
          "type": "bytes32"
        },
        {
          "internalType": "address",
          "name": "account",
          "type": "address"
        }
      ],
      "name": "revokeRole",
      "outputs": [],
      "stateMutability": "nonpayable",
      "type": "function"
    },
    {
      "inputs": [
        {
          "internalType": "bytes4",
          "name": "",
          "type": "bytes4"
        }
      ],
      "name": "selectorImplementation",
      "outputs": [
        {
          "internalType": "address",
          "name": "",
          "type": "address"
        }
      ],
      "stateMutability": "view",
      "type": "function"
    },
    {
      "inputs": [
        {
          "internalType": "address",
          "name": "_treasury",
          "type": "address"
        }
      ],
      "name": "setTreasury",
      "outputs": [],
      "stateMutability": "nonpayable",
      "type": "function"
    },
    {
      "inputs": [
        {
          "internalType": "address",
          "name": "_wston",
          "type": "address"
        }
      ],
      "name": "setWston",
      "outputs": [],
      "stateMutability": "nonpayable",
      "type": "function"
    },
    {
      "inputs": [
        {
          "internalType": "bytes4",
          "name": "interfaceId",
          "type": "bytes4"
        }
      ],
      "name": "supportsInterface",
      "outputs": [
        {
          "internalType": "bool",
          "name": "",
          "type": "bool"
        }
      ],
      "stateMutability": "view",
      "type": "function"
    },
    {
      "inputs": [
        {
          "internalType": "uint256",
          "name": "wstonAmount",
          "type": "uint256"
        }
      ],
      "name": "swap",
      "outputs": [],
      "stateMutability": "nonpayable",
      "type": "function"
    },
    {
      "inputs": [],
      "name": "ton",
      "outputs": [
        {
          "internalType": "address",
          "name": "",
          "type": "address"
        }
      ],
      "stateMutability": "view",
      "type": "function"
    },
    {
      "inputs": [
        {
          "internalType": "address",
          "name": "newOwner",
          "type": "address"
        }
      ],
      "name": "transferOwnership",
      "outputs": [],
      "stateMutability": "nonpayable",
      "type": "function"
    },
    {
      "inputs": [],
      "name": "treasury",
      "outputs": [
        {
          "internalType": "address",
          "name": "",
          "type": "address"
        }
      ],
      "stateMutability": "view",
      "type": "function"
    },
    {
      "inputs": [],
      "name": "unpause",
      "outputs": [],
      "stateMutability": "nonpayable",
      "type": "function"
    },
    {
      "inputs": [
        {
          "internalType": "uint256",
          "name": "newIndex",
          "type": "uint256"
        }
      ],
      "name": "updateStakingIndex",
      "outputs": [],
      "stateMutability": "nonpayable",
      "type": "function"
    },
    {
      "inputs": [],
      "name": "wston",
      "outputs": [
        {
          "internalType": "address",
          "name": "",
          "type": "address"
        }
      ],
      "stateMutability": "view",
      "type": "function"
    }
  ],
  "bytecode": "0x60808060405234601a57600160055561143d90816100208239f35b600080fdfe60806040908082526004918236101561001757600080fd5b600091823560e01c90816301ffc9a714610e0857508063044bc77914610c85578063247ee38814610dc0578063248a9ca314610d9657806324d7806c14610d425780632e0f262514610d1d5780632f2ff15d14610cf257806336568abe14610cad57806336b17e1314610c85578063389ed26714610c5d5780633f4ba83a14610be957806346fbf68e14610b955780635074e0c814610b7757806350d2a27614610b33578063550d01a314610af657806361d027b3146102b957806363a8fd8914610ad55780636805b84b14610aaf5780636b2c0f55146109de578063704802751461099157806375b238fc1461096957806382dc1ec4146109175780638456cb59146108a45780638f32d59b1461087f57806391d148541461083957806394b918de146105565780639a202d47146104c0578063a217fddf146104a6578063b911135f14610473578063c350a1b5146103bc578063caa78a8614610348578063cc48b94714610320578063d547741f146102e1578063e0024604146102b9578063f0f442601461026e5763f2fde38b146101b157600080fd5b3461026a57602036600319011261026a576101ca610e5c565b906101db6101d6610ee5565b610e8d565b6001600160a01b038216801561025a57331461024b5760016102389184958561023d965280602052610211838389200154610f58565b61021a856110b5565b506000805160206113c8833981519152875260205285200154610f58565b610f9c565b506102473361129b565b5080f35b51630a98f1f360e21b81528390fd5b815163d92e233d60e01b81528590fd5b5080fd5b82346102b65760203660031901126102b657610288610e5c565b6102936101d6610ee5565b600880546001600160a01b0319166001600160a01b039290921691909117905580f35b80fd5b503461026a578160031936011261026a5760085490516001600160a01b039091168152602090f35b50823461031c578160031936011261031c57610247916103176001833592610307610e77565b9484885260205286200154610f58565b611302565b8280fd5b503461026a578160031936011261026a5760065490516001600160a01b039091168152602090f35b5082903461031c57602036600319011261031c5781359161036a6101d6610ee5565b676765c793fa10079d601b1b83106103ae5750816020917f30ce0c4920695ae7b30f6304002cac26f3bffd83b1b84b281d4495ec83956c499360095551908152a180f35b90516373fd31f360e01b8152fd5b5082903461031c57606036600319011261031c576103d8610e5c565b906044359260018060a01b039182851680950361046f5760ff600a5416610436575050610404336110b5565b5060018060a01b031991168160075416176007556008541617600855602435600955600160ff19600a541617600a5580f35b906020606492519162461bcd60e51b83528201526013602482015272185b1c9958591e481a5b9a5d1a585b1a5e9959606a1b6044820152fd5b8580fd5b50823461031c57602036600319011261031c5735825260016020908152918190205490516001600160a01b039091168152f35b503461026a578160031936011261026a5751908152602090f35b5082903461031c578260031936011261031c576000805160206113c883398151915283528160205280832033845260205260ff818420541615610507578261024733611213565b906020608492519162461bcd60e51b8352820152602360248201527f41757468436f6e74726f6c3a2043616c6c6572206973206e6f7420616e20616460448201526236b4b760e91b6064820152fd5b503461026a576020908160031936011261031c5783356002600554146108295760026005556007548251636eb1769f60e11b81523387820152306024808301919091526001600160a01b039283169592909183816044818a5afa9081156107775790859189916107f8575b50106107e85784516370a0823160e01b81523389820152838184818a5afa9081156107775790859189916107b3575b50106107a35760095480850290858204148515171561079157633b9aca0090676765c793fa10079d601b1b9004049581600854168781311061078157849060648b8b8a5195869485936323b872dd60e01b85523390850152898401528a60448401525af190811561077757889161075a575b501561072057600854855163ec7ae61d60e01b815233818b01529283018790528391839160449183918b91165af19081156107165786916106e9575b50156106da57825193845283015233917feb53aa1346bf80833deed132609343df1b6cdb928bd868803c6aa09a8ebeb60b9190a2600160055580f35b825162975f3b60e41b81528690fd5b6107099150823d841161070f575b6107018183610f08565b810190610f40565b3861069e565b503d6106f7565b84513d88823e3d90fd5b845162461bcd60e51b815280890184905260158184015274151bdad95b881d1c985b9cd9995c8819985a5b1959605a1b6044820152606490fd5b6107719150843d861161070f576107018183610f08565b38610662565b86513d8a823e3d90fd5b86516364a7800d60e11b81528a90fd5b634e487b7160e01b8852601189528288fd5b84516316a5d17360e11b81528890fd5b809250858092503d83116107e1575b6107cc8183610f08565b810103126107dd57849051386105f0565b8780fd5b503d6107c2565b84516382cf63f960e01b81528890fd5b809250858092503d8311610822575b6108118183610f08565b810103126107dd57849051386105c1565b503d610807565b8151633ee5aeb560e01b81528590fd5b50823461031c578160031936011261031c578160209360ff9261085a610e77565b813583529086528282206001600160a01b039091168252855220549151911615158152f35b503461026a578160031936011261026a5760209061089b610ee5565b90519015158152f35b50823461031c578260031936011261031c576108c16101d6610ee5565b600a549160ff8360081c166108e15761ff0019831661010017600a558380f35b906020606492519162461bcd60e51b8352820152601060248201526f14185d5cd8589b194e881c185d5cd95960821b6044820152fd5b50823461031c57602036600319011261031c5761096460016102479361093b610e5c565b936109476101d6610ee5565b6000805160206113a8833981519152875260205285200154610f58565b61102b565b503461026a578160031936011261026a57602090516000805160206113c88339815191528152f35b50823461031c57602036600319011261031c576102386001610247936109b5610e5c565b936109c16101d6610ee5565b6000805160206113c8833981519152875260205285200154610f58565b50823461031c57602036600319011261031c576109f9610e5c565b916000805160206113a883398151915284528160205280842033855260205260ff81852054168015610aa1575b15610a5257336001600160a01b03841603610a4557836102478461118b565b5163334bd91960e11b8152fd5b906020608492519162461bcd60e51b8352820152602360248201527f41757468436f6e74726f6c3a2043616c6c6572206973206e6f7420612070617560448201526239b2b960e91b6064820152fd5b50610aaa610ee5565b610a26565b503461026a578160031936011261026a5760209060ff600a5460081c1690519015158152f35b503461026a578160031936011261026a5760ff602092541690519015158152f35b503461026a57602036600319011261026a5760209160ff9082906001600160a01b03610b20610e5c565b1681526002855220541690519015158152f35b50823461031c57602036600319011261031c573563ffffffff60e01b811680910361031c57825260036020908152918190205490516001600160a01b039091168152f35b503461026a578160031936011261026a576020906009549051908152f35b50823461031c57602036600319011261031c578160209360ff92610bb7610e5c565b6000805160206113a883398151915283529086528282206001600160a01b039091168252855220549151911615158152f35b50823461031c578260031936011261031c57610c066101d6610ee5565b600a549160ff8360081c1615610c2357505061ff001916600a5580f35b906020606492519162461bcd60e51b8352820152601460248201527314185d5cd8589b194e881b9bdd081c185d5cd95960621b6044820152fd5b503461026a578160031936011261026a57602090516000805160206113a88339815191528152f35b503461026a578160031936011261026a5760075490516001600160a01b039091168152602090f35b503461026a578060031936011261026a57610cc6610e77565b90336001600160a01b03831603610ce35750610247919235611302565b5163334bd91960e11b81528390fd5b50823461031c578160031936011261031c5761024791610d186001833592610307610e77565b611122565b503461026a578160031936011261026a5751676765c793fa10079d601b1b8152602090f35b50823461031c57602036600319011261031c578160209360ff92610d64610e5c565b6000805160206113c883398151915283529086528282206001600160a01b039091168252855220549151911615158152f35b50823461031c57602036600319011261031c57816020938260019335825285522001549051908152f35b82346102b65760203660031901126102b657610dda610e5c565b610de56101d6610ee5565b600780546001600160a01b0319166001600160a01b039290921691909117905580f35b8390853461031c57602036600319011261031c573563ffffffff60e01b811680910361031c5760209250637965db0b60e01b8114908115610e4b575b5015158152f35b6301ffc9a760e01b14905083610e44565b600435906001600160a01b0382168203610e7257565b600080fd5b602435906001600160a01b0382168203610e7257565b15610e9457565b60405162461bcd60e51b8152602060048201526024808201527f41757468436f6e74726f6c3a2043616c6c6572206973206e6f7420746865206f6044820152633bb732b960e11b6064820152608490fd5b336000908152600080516020611388833981519152602052604090205460ff1690565b90601f8019910116810190811067ffffffffffffffff821117610f2a57604052565b634e487b7160e01b600052604160045260246000fd5b90816020910312610e7257518015158103610e725790565b80600052600460205260406000203360005260205260ff6040600020541615610f7e5750565b6044906040519063e2517d3f60e01b82523360048301526024820152fd5b6001600160a01b031660008181527f2fb794d17134dfdec181ddbac1babb5ab1eb140204ef4d982f294e7fc8b6902260205260408120549091906000805160206113c88339815191529060ff166110265780835260046020526040832082845260205260408320600160ff19825416179055600080516020611368833981519152339380a4600190565b505090565b6001600160a01b031660008181527f2ed987ab732d519c59d4a2f2f586b9ca6af9f18905fa2093aceeb8d462ffc84260205260408120549091906000805160206113a88339815191529060ff166110265780835260046020526040832082845260205260408320600160ff19825416179055600080516020611368833981519152339380a4600190565b6001600160a01b03166000818152600080516020611388833981519152602052604081205490919060ff1661111e5781805260046020526040822081835260205260408220600160ff1982541617905533916000805160206113688339815191528180a4600190565b5090565b906000918083526004602052604083209160018060a01b03169182845260205260ff604084205416156000146110265780835260046020526040832082845260205260408320600160ff19825416179055600080516020611368833981519152339380a4600190565b6001600160a01b031660008181527f2ed987ab732d519c59d4a2f2f586b9ca6af9f18905fa2093aceeb8d462ffc84260205260408120549091906000805160206113a88339815191529060ff1615611026578083526004602052604083208284526020526040832060ff1981541690556000805160206113e8833981519152339380a4600190565b6001600160a01b031660008181527f2fb794d17134dfdec181ddbac1babb5ab1eb140204ef4d982f294e7fc8b6902260205260408120549091906000805160206113c88339815191529060ff1615611026578083526004602052604083208284526020526040832060ff1981541690556000805160206113e8833981519152339380a4600190565b6001600160a01b03166000818152600080516020611388833981519152602052604081205490919060ff161561111e578180526004602052604082208183526020526040822060ff19815416905533916000805160206113e88339815191528180a4600190565b906000918083526004602052604083209160018060a01b03169182845260205260ff604084205416600014611026578083526004602052604083208284526020526040832060ff1981541690556000805160206113e8833981519152339380a460019056fe2f8788117e7eff1d82e926ec794901d17c78024a50270940304540a733656f0d17ef568e3e12ab5b9c7254a8d58478811de00f9e6eb34345acd53bf8fd09d3ecfcb9fcbfa83b897fb2d5cf4b58962164105c1e71489a37ef3ae0db3fdce576f6df8b4c520ffe197c5343c6f5aec59570151ef9a492f2c624fd45ddde6135ec42f6391f5c32d9c69d2a47ea670b442974b53935d1edc7fd64eb21e047a839171ba2646970667358221220b8cb9ffb902aefc8cc45df41532df94d8f3e73579c67fe65ed96e8c5e2526c9e64736f6c63430008190033",
  "linkReferences": {},
  "deployedLinkReferences": {}
}