{"abi":[{"type":"function","name":"DECIMALS","inputs":[],"outputs":[{"name":"","type":"uint256","internalType":"uint256"}],"stateMutability":"view"},{"type":"function","name":"TON_FEES_RATE_DIVIDER","inputs":[],"outputs":[{"name":"","type":"uint256","internalType":"uint256"}],"stateMutability":"view"},{"type":"error","name":"FailedToSendTON","inputs":[]},{"type":"error","name":"InvalidAddress","inputs":[]},{"type":"error","name":"NotEnoughTonAvailableInTreasury","inputs":[]},{"type":"error","name":"NotEnoughWstonAvailableInTreasury","inputs":[]},{"type":"error","name":"TonAddressIsNotSet","inputs":[]},{"type":"error","name":"UnsuffiscientTonBalance","inputs":[]},{"type":"error","name":"UnsuffiscientWstonBalance","inputs":[]},{"type":"error","name":"WstonAddressIsNotSet","inputs":[]}],"bytecode":{"object":"0x608060405234601d57600e604c565b60405160e9610059823960e990f35b600080fd5b90565b9060326022604892151590565b82549060ff60a01b9060a01b9181191691161790565b9055565b6056600060066025565b56fe60806040526004361015601157600080fd5b60003560e01c806308ec897d14602e57632e0f262503603257609e565b605d565b600080fd5b6000910312603257565b604b604b604b9290565b90565b604b6127106041565b604b604e565b34603257606a3660046037565b608260726057565b6040519182918290815260200190565b0390f35b604b676765c793fa10079d601b1b6041565b604b6086565b3460325760ab3660046037565b60826072609856fea2646970667358221220fda187a43a233bc9cc7fee0d4c76b5a7a525fe627ba9fdbcbe4fbb628f564f6564736f6c63430008190033","linkReferences":{}},"methodIdentifiers":{"DECIMALS()":"2e0f2625","TON_FEES_RATE_DIVIDER()":"08ec897d"},"id":77}