{"abi":[{"type":"function","name":"DEFAULT_ADMIN_ROLE","inputs":[],"outputs":[{"name":"","type":"bytes32","internalType":"bytes32"}],"stateMutability":"view"},{"type":"function","name":"MINTER_ROLE","inputs":[],"outputs":[{"name":"","type":"bytes32","internalType":"bytes32"}],"stateMutability":"view"},{"type":"function","name":"OPERATOR_ROLE","inputs":[],"outputs":[{"name":"","type":"bytes32","internalType":"bytes32"}],"stateMutability":"view"},{"type":"function","name":"addAdmin","inputs":[{"name":"account","type":"address","internalType":"address"}],"outputs":[],"stateMutability":"nonpayable"},{"type":"function","name":"addMinter","inputs":[{"name":"account","type":"address","internalType":"address"}],"outputs":[],"stateMutability":"nonpayable"},{"type":"function","name":"addOperator","inputs":[{"name":"account","type":"address","internalType":"address"}],"outputs":[],"stateMutability":"nonpayable"},{"type":"function","name":"getRoleAdmin","inputs":[{"name":"role","type":"bytes32","internalType":"bytes32"}],"outputs":[{"name":"","type":"bytes32","internalType":"bytes32"}],"stateMutability":"view"},{"type":"function","name":"grantRole","inputs":[{"name":"role","type":"bytes32","internalType":"bytes32"},{"name":"account","type":"address","internalType":"address"}],"outputs":[],"stateMutability":"nonpayable"},{"type":"function","name":"hasRole","inputs":[{"name":"role","type":"bytes32","internalType":"bytes32"},{"name":"account","type":"address","internalType":"address"}],"outputs":[{"name":"","type":"bool","internalType":"bool"}],"stateMutability":"view"},{"type":"function","name":"isAdmin","inputs":[{"name":"account","type":"address","internalType":"address"}],"outputs":[{"name":"","type":"bool","internalType":"bool"}],"stateMutability":"view"},{"type":"function","name":"isMinter","inputs":[{"name":"account","type":"address","internalType":"address"}],"outputs":[{"name":"","type":"bool","internalType":"bool"}],"stateMutability":"view"},{"type":"function","name":"isOperator","inputs":[{"name":"account","type":"address","internalType":"address"}],"outputs":[{"name":"","type":"bool","internalType":"bool"}],"stateMutability":"view"},{"type":"function","name":"isOwner","inputs":[],"outputs":[{"name":"","type":"bool","internalType":"bool"}],"stateMutability":"view"},{"type":"function","name":"removeAdmin","inputs":[{"name":"account","type":"address","internalType":"address"}],"outputs":[],"stateMutability":"nonpayable"},{"type":"function","name":"removeMinter","inputs":[{"name":"account","type":"address","internalType":"address"}],"outputs":[],"stateMutability":"nonpayable"},{"type":"function","name":"removeOperator","inputs":[{"name":"account","type":"address","internalType":"address"}],"outputs":[],"stateMutability":"nonpayable"},{"type":"function","name":"renounceMinter","inputs":[],"outputs":[],"stateMutability":"nonpayable"},{"type":"function","name":"renounceOperator","inputs":[],"outputs":[],"stateMutability":"nonpayable"},{"type":"function","name":"renounceOwnership","inputs":[],"outputs":[],"stateMutability":"nonpayable"},{"type":"function","name":"renounceRole","inputs":[{"name":"role","type":"bytes32","internalType":"bytes32"},{"name":"callerConfirmation","type":"address","internalType":"address"}],"outputs":[],"stateMutability":"nonpayable"},{"type":"function","name":"revokeMinter","inputs":[{"name":"account","type":"address","internalType":"address"}],"outputs":[],"stateMutability":"nonpayable"},{"type":"function","name":"revokeOperator","inputs":[{"name":"account","type":"address","internalType":"address"}],"outputs":[],"stateMutability":"nonpayable"},{"type":"function","name":"revokeRole","inputs":[{"name":"role","type":"bytes32","internalType":"bytes32"},{"name":"account","type":"address","internalType":"address"}],"outputs":[],"stateMutability":"nonpayable"},{"type":"function","name":"supportsInterface","inputs":[{"name":"interfaceId","type":"bytes4","internalType":"bytes4"}],"outputs":[{"name":"","type":"bool","internalType":"bool"}],"stateMutability":"view"},{"type":"function","name":"transferAdmin","inputs":[{"name":"newAdmin","type":"address","internalType":"address"}],"outputs":[],"stateMutability":"nonpayable"},{"type":"function","name":"transferOwnership","inputs":[{"name":"newAdmin","type":"address","internalType":"address"}],"outputs":[],"stateMutability":"nonpayable"},{"type":"event","name":"RoleAdminChanged","inputs":[{"name":"role","type":"bytes32","indexed":true,"internalType":"bytes32"},{"name":"previousAdminRole","type":"bytes32","indexed":true,"internalType":"bytes32"},{"name":"newAdminRole","type":"bytes32","indexed":true,"internalType":"bytes32"}],"anonymous":false},{"type":"event","name":"RoleGranted","inputs":[{"name":"role","type":"bytes32","indexed":true,"internalType":"bytes32"},{"name":"account","type":"address","indexed":true,"internalType":"address"},{"name":"sender","type":"address","indexed":true,"internalType":"address"}],"anonymous":false},{"type":"event","name":"RoleRevoked","inputs":[{"name":"role","type":"bytes32","indexed":true,"internalType":"bytes32"},{"name":"account","type":"address","indexed":true,"internalType":"address"},{"name":"sender","type":"address","indexed":true,"internalType":"address"}],"anonymous":false},{"type":"error","name":"AccessControlBadConfirmation","inputs":[]},{"type":"error","name":"AccessControlUnauthorizedAccount","inputs":[{"name":"account","type":"address","internalType":"address"},{"name":"neededRole","type":"bytes32","internalType":"bytes32"}]}],"bytecode":{"object":"0x608060405234601d575b600f6021565b61137861002d823961137890f35b6027565b60405190565b600080fdfe60806040526004361015610013575b61097c565b61001e6000356101dc565b806301ffc9a7146101d7575b80631785f53c146101d2575b8063248a9ca3146101cd575b806324d7806c146101c8575b80632ab6f8db146101c3575b80632f2ff15d146101be575b80633092afd5146101b9575b806336568abe146101b4575b80636d70f7ae146101af575b806370480275146101aa575b8063715018a6146101a5575b806375829def146101a0575b80638f32d59b1461019b575b806391d1485414610196575b8063983b2d5614610191575b8063986502751461018c575b80639870d7fe14610187575b8063a217fddf14610182575b8063aa271e1a1461017d575b8063ac8a584a14610178575b8063cfbd488514610173575b8063d53913931461016e575b8063d547741f14610169575b8063f2fde38b14610164575b8063f5b541a61461015f575b63fad8b32a1461015a575b61000e565b610948565b610912565b6108af565b61087a565b610844565b6107e1565b6107ad565b610777565b610741565b6106d0565b61069c565b610668565b610631565b6105fb565b6105c7565b610593565b61055f565b610529565b6104f4565b6104c0565b61048b565b610428565b6103e1565b6103ab565b61030a565b61026e565b60e01c90565b60405190565b600080fd5b600080fd5b63ffffffff60e01b901690565b610208816101f2565b901415610212575b565b600080fd5b90503590610224826101ff565b565b90602082820312610241575b600061023e9201610217565b90565b6101ed565b151590565b61025490610246565b9052565b919061026c9060006020850194019061024b565b565b3461029f575b61029b61028a610285366004610226565b610986565b6102926101e2565b91829182610258565b0390f35b6101e8565b60018060a01b03901690565b6102b9906102a4565b90565b6102c5816102b0565b9014156102cf575b565b600080fd5b905035906102e1826102bc565b565b906020828203126102fe575b60006102fb92016102d4565b90565b6101ed565b6000900190565b34610339575b61032361031e3660046102e3565b610a7e565b61032b6101e2565b8061033581610303565b0390f35b6101e8565b90565b61034a8161033e565b901415610354575b565b600080fd5b9050359061036682610341565b565b90602082820312610383575b60006103809201610359565b90565b6101ed565b6103919061033e565b9052565b91906103a990600060208501940190610388565b565b346103dc575b6103d86103c76103c2366004610368565b610adc565b6103cf6101e2565b91829182610395565b0390f35b6101e8565b34610412575b61040e6103fd6103f83660046102e3565b610afe565b6104056101e2565b91829182610258565b0390f35b6101e8565b6000910312610423575b565b6101ed565b34610457575b610439366004610417565b610441610b1b565b6104496101e2565b8061045381610303565b0390f35b6101e8565b9190604083820312610486575b80602061047c6104839360008701610359565b94016102d4565b90565b6101ed565b346104bb575b6104a561049f36600461045c565b90610b59565b6104ad6101e2565b806104b781610303565b0390f35b6101e8565b346104ef575b6104d96104d43660046102e3565b610b94565b6104e16101e2565b806104eb81610303565b0390f35b6101e8565b34610524575b61050e61050836600461045c565b90610b9f565b6105166101e2565b8061052081610303565b0390f35b6101e8565b3461055a575b6105566105456105403660046102e3565b610bef565b61054d6101e2565b91829182610258565b0390f35b6101e8565b3461058e575b6105786105733660046102e3565b610c3b565b6105806101e2565b8061058a81610303565b0390f35b6101e8565b346105c2575b6105a4366004610417565b6105ac610c75565b6105b46101e2565b806105be81610303565b0390f35b6101e8565b346105f6575b6105e06105db3660046102e3565b610e30565b6105e86101e2565b806105f281610303565b0390f35b6101e8565b3461062c575b61060c366004610417565b610628610617610e3b565b61061f6101e2565b91829182610258565b0390f35b6101e8565b34610663575b61065f61064e61064836600461045c565b90610ecd565b6106566101e2565b91829182610258565b0390f35b6101e8565b34610697575b61068161067c3660046102e3565b610f26565b6106896101e2565b8061069381610303565b0390f35b6101e8565b346106cb575b6106ad366004610417565b6106b5610f31565b6106bd6101e2565b806106c781610303565b0390f35b6101e8565b346106ff575b6106e96106e43660046102e3565b610f74565b6106f16101e2565b806106fb81610303565b0390f35b6101e8565b90565b60001b90565b61072161071c61072692610704565b610707565b61033e565b90565b610733600061070d565b90565b61073e610729565b90565b34610772575b610752366004610417565b61076e61075d610736565b6107656101e2565b91829182610395565b0390f35b6101e8565b346107a8575b6107a461079361078e3660046102e3565b610f7f565b61079b6101e2565b91829182610258565b0390f35b6101e8565b346107dc575b6107c66107c13660046102e3565b610fcb565b6107ce6101e2565b806107d881610303565b0390f35b6101e8565b34610810575b6107fa6107f53660046102e3565b611005565b6108026101e2565b8061080c81610303565b0390f35b6101e8565b7ff0887ba65ee2024ea881d91b74c2450ef19e1557f03bed3ea9f16b037cbe2dc990565b610841610815565b90565b34610875575b610855366004610417565b610871610860610839565b6108686101e2565b91829182610395565b0390f35b6101e8565b346108aa575b61089461088e36600461045c565b9061103a565b61089c6101e2565b806108a681610303565b0390f35b6101e8565b346108de575b6108c86108c33660046102e3565b61106d565b6108d06101e2565b806108da81610303565b0390f35b6101e8565b7f523a704056dcd17bcf83bed8b68c59416dac1119be77755efe3bde0a64e46e0c90565b61090f6108e3565b90565b34610943575b610923366004610417565b61093f61092e610907565b6109366101e2565b91829182610395565b0390f35b6101e8565b34610977575b61096161095c3660046102e3565b6110a7565b6109696101e2565b8061097381610303565b0390f35b6101e8565b600080fd5b600090565b61099890610992610981565b506110b2565b90565b60209181520190565b60207f6d696e0000000000000000000000000000000000000000000000000000000000917f41757468436f6e74726f6c3a2043616c6c6572206973206e6f7420616e20616460008201520152565b6109ff602360409261099b565b610a08816109a4565b0190565b610a2290602081019060008183039101526109f2565b90565b15610a2d575b565b610a356101e2565b62461bcd60e51b815280610a4b60048201610a0c565b0390fd5b610a6990610a64610a5f33610afe565b610a25565b610a6b565b565b610a7c90610a77610729565b610b9f565b565b610a8790610a4f565b565b600090565b610a979061033e565b90565b90610aa490610a8e565b600052602052604060002090565b60001c90565b90565b610ac7610acc91610ab2565b610ab8565b90565b610ad99054610abb565b90565b6001610af5610afb92610aed610a89565b506000610a9a565b01610acf565b90565b610b1890610b0a610981565b50610b13610729565b610ecd565b90565b610b2d610b266108e3565b3390610b9f565b565b90610b4a91610b45610b4082610adc565b6110f2565b610b4c565b565b90610b569161114d565b50565b90610b6391610b2f565b565b610b7f90610b7a610b7533610afe565b610a25565b610b81565b565b610b9290610b8d610815565b610b9f565b565b610b9d90610b65565b565b90610bb0610bab6111fc565b6102b0565b610bb9826102b0565b1415610bcc575b610bc991611209565b50565b610bd46101e2565b63334bd91960e11b815280610beb60048201610303565b0390fd5b610c0990610bfb610981565b50610c046108e3565b610ecd565b90565b610c2690610c21610c1c33610afe565b610a25565b610c28565b565b610c3990610c34610729565b610b59565b565b610c4490610c0c565b565b610c57610c5233610afe565b610a25565b610c5f610c61565b565b610c73610c6c610729565b3390610b9f565b565b610c7d610c46565b565b610c9990610c94610c8f33610afe565b610a25565b610dd0565b565b90565b610cb2610cad610cb792610704565b610c9b565b6102a4565b90565b610cc390610c9e565b90565b60007f41636365737369626c653a207a65726f20616464726573730000000000000000910152565b610cfb601860209261099b565b610d0481610cc6565b0190565b610d1e9060208101906000818303910152610cee565b90565b15610d29575b565b610d316101e2565b62461bcd60e51b815280610d4760048201610d08565b0390fd5b60007f41636365737369626c653a2073616d652061646d696e00000000000000000000910152565b610d80601660209261099b565b610d8981610d4b565b0190565b610da39060208101906000818303910152610d73565b90565b15610dae575b565b610db66101e2565b62461bcd60e51b815280610dcc60048201610d8d565b0390fd5b610e2e90610df9610de9610de46000610cba565b6102b0565b610df2836102b0565b1415610d21565b610e15610e05826102b0565b610e0e336102b0565b1415610da6565b610e27610e20610729565b9182610b59565b3390610b9f565b565b610e3990610c7f565b565b610e43610981565b50610e56610e4f610729565b3390610ecd565b90565b610e6d610e68610e72926102a4565b610c9b565b6102a4565b90565b610e7e90610e59565b90565b610e8a90610e75565b90565b90610e9790610e81565b600052602052604060002090565b60ff901690565b610eb8610ebd91610ab2565b610ea5565b90565b610eca9054610eac565b90565b610ef4916000610ee9610eef93610ee2610981565b5082610a9a565b01610e8d565b610ec0565b90565b610f1190610f0c610f0733610afe565b610a25565b610f13565b565b610f2490610f1f610815565b610b59565b565b610f2f90610ef7565b565b610f43610f3c610815565b3390610b9f565b565b610f5f90610f5a610f5533610afe565b610a25565b610f61565b565b610f7290610f6d6108e3565b610b59565b565b610f7d90610f45565b565b610f9990610f8b610981565b50610f94610815565b610ecd565b90565b610fb690610fb1610fac33610afe565b610a25565b610fb8565b565b610fc990610fc46108e3565b610b9f565b565b610fd490610f9c565b565b610ff090610feb610fe633610afe565b610a25565b610ff2565b565b61100390610ffe610815565b61103a565b565b61100e90610fd6565b565b9061102b9161102661102182610adc565b6110f2565b61102d565b565b9061103791611209565b50565b9061104491611010565b565b6110609061105b61105633610afe565b610a25565b611062565b565b61106b90610e30565b565b61107690611046565b565b6110929061108d61108833610afe565b610a25565b611094565b565b6110a5906110a06108e3565b61103a565b565b6110b090611078565b565b6110ba610981565b506110cb637965db0b60e01b6101f2565b6110d4826101f2565b14908191156110e2575b5090565b6110ec91506112a9565b386110de565b611104906110fe6111fc565b90611300565b565b9061111260ff91610707565b91811990169116901790565b61112790610246565b90565b90565b9061114261113d6111499261111e565b61112a565b8254611106565b9055565b611155610981565b506111696111638383610ecd565b15610246565b6000146111f0575b611191600161118c8460006111868682610a9a565b01610e8d565b61112d565b6111b46111ae6111a86111a26111fc565b93610a8e565b93610e81565b91610e81565b917f2f8788117e7eff1d82e926ec794901d17c78024a50270940304540a733656f0d6111de6101e2565b806111e881610303565b0390a4600190565b5050600090565b600090565b6112046111f7565b503390565b611211610981565b5061121c8282610ecd565b6000146112a2575b611243600061123e84826112388682610a9a565b01610e8d565b61112d565b61126661126061125a6112546111fc565b93610a8e565b93610e81565b91610e81565b917ff6391f5c32d9c69d2a47ea670b442974b53935d1edc7fd64eb21e047a839171b6112906101e2565b8061129a81610303565b0390a4600190565b5050600090565b6112b1610981565b506112cb6112c56301ffc9a760e01b6101f2565b916101f2565b1490565b6112d8906102b0565b9052565b9160206112fe9294936112f7604082019660008301906112cf565b0190610388565b565b9061131461130e8284610ecd565b15610246565b61131d575b5050565b61133e6113286101e2565b92839263e2517d3f60e01b8452600484016112dc565b0390fdfea26469706673582212205dbe7a950c1cf723fa7bd03c333f7e119de2faaef491fbdd7f398bea02e6290264736f6c63430008190033","linkReferences":{}},"methodIdentifiers":{"DEFAULT_ADMIN_ROLE()":"a217fddf","MINTER_ROLE()":"d5391393","OPERATOR_ROLE()":"f5b541a6","addAdmin(address)":"70480275","addMinter(address)":"983b2d56","addOperator(address)":"9870d7fe","getRoleAdmin(bytes32)":"248a9ca3","grantRole(bytes32,address)":"2f2ff15d","hasRole(bytes32,address)":"91d14854","isAdmin(address)":"24d7806c","isMinter(address)":"aa271e1a","isOperator(address)":"6d70f7ae","isOwner()":"8f32d59b","removeAdmin(address)":"1785f53c","removeMinter(address)":"3092afd5","removeOperator(address)":"ac8a584a","renounceMinter()":"98650275","renounceOperator()":"2ab6f8db","renounceOwnership()":"715018a6","renounceRole(bytes32,address)":"36568abe","revokeMinter(address)":"cfbd4885","revokeOperator(address)":"fad8b32a","revokeRole(bytes32,address)":"d547741f","supportsInterface(bytes4)":"01ffc9a7","transferAdmin(address)":"75829def","transferOwnership(address)":"f2fde38b"},"id":73}