{"abi":[{"type":"function","name":"approveAndCall","inputs":[{"name":"spender","type":"address","internalType":"address"},{"name":"amount","type":"uint256","internalType":"uint256"},{"name":"data","type":"bytes","internalType":"bytes"}],"outputs":[{"name":"","type":"bool","internalType":"bool"}],"stateMutability":"nonpayable"}],"bytecode":{"object":"0x6080604052346023575b600f60a9565b60156027565b61074c6100c9823961074c90f35b602d565b60405190565b600080fd5b60001b90565b90604760018060a01b03916032565b91811990169116901790565b60018060a01b03901690565b90565b6071606d6075926053565b605f565b6053565b90565b607f906062565b90565b6089906078565b90565b90565b90609f609b60a5926082565b608c565b82546038565b9055565b60c6736e1734ac57e76fcd7fd66266ae0c2547db3a713a6000608f565b56fe60806040526004361015610013575b61025e565b61001e600035610033565b63cae9ca511461002e575b61000e565b610227565b60e01c90565b60405190565b600080fd5b600080fd5b600080fd5b60018060a01b03901690565b6100639061004e565b90565b61006f8161005a565b901415610079575b565b600080fd5b9050359061008b82610066565b565b90565b6100998161008d565b9014156100a3575b565b600080fd5b905035906100b582610090565b565b600080fd5b600080fd5b601f801991011690565b634e487b7160e01b600052604160045260246000fd5b906100eb906100c1565b810190811067ffffffffffffffff821117610106575b604052565b6100cb565b9061011e610117610039565b92836100e1565b565b67ffffffffffffffff811161013f575b61013b6020916100c1565b0190565b6100cb565b90826000939282370152565b9092919261016561016082610120565b61010b565b9381855281830111610182575b610180916020850190610144565b565b6100bc565b9080601f830112156101a6575b8160206101a393359101610150565b90565b6100b7565b916060838303126101fa575b6101c4826000850161007e565b926101d283602083016100a8565b92604082013567ffffffffffffffff81116101f5575b6101f29201610187565b90565b610049565b610044565b151590565b61020d906101ff565b9052565b919061022590600060208501940190610204565b565b34610259575b61025561024461023e3660046101ab565b91610393565b61024c610039565b91829182610211565b0390f35b61003f565b600080fd5b600090565b60001c90565b60018060a01b03901690565b61028661028b91610268565b61026e565b90565b610298905461027a565b90565b90565b6102b26102ad6102b79261004e565b61029b565b61004e565b90565b6102c39061029e565b90565b6102cf906102ba565b90565b6102db9061029e565b90565b6102e7906102d2565b90565b60e01b90565b6102f9816101ff565b901415610303575b565b600080fd5b90505190610315826102f0565b565b90602082820312610332575b600061032f9201610308565b90565b610044565b6103409061005a565b9052565b61034d9061008d565b9052565b91602061037392949361036c60408201966000830190610337565b0190610344565b565b61037d610039565b3d6000823e3d90fd5b1561038e575b565b600080fd5b919061039d610263565b506103b86103b36103ae600061028e565b6102c6565b6102de565b9260206103c3610039565b80956103d263095ea7b36102ea565b8252816000816103e6888860048401610351565b03925af1938415610442575b61040e9461040891600091610413575b50610386565b3361069f565b600190565b610435915060203d60201161043b575b61042d81836100e1565b810190610317565b38610402565b503d610423565b610375565b63ffffffff901690565b63ffffffff60e01b901690565b61047261046d61047792610447565b6102ea565b610451565b90565b5190565b60209181520190565b60005b83811061049c575b5050906000910152565b80602091830151818501520161048a565b6104cc6104d56020936104da936104c38161047a565b9384809361047e565b95869101610487565b6100c1565b900190565b90926105139061050961052096946104ff60808601976000870190610337565b6020850190610337565b6040830190610344565b60608184039101526104ad565b90565b9061053561053083610120565b61010b565b918252565b606090565b3d60001461055d575b6105513d610523565b903d6000602084013e5b565b61056561053a565b9061055b565b90565b5190565b60209181520190565b61059a6105a36020936105a8936105918161056e565b93848093610572565b95869101610487565b6100c1565b900190565b6105c3916020820191600081840391015261057b565b90565b156105cf575b50565b6105f0906105db610039565b91829162461bcd60e51b8352600483016105ad565b0390fd5b60207f6e417070726f7665000000000000000000000000000000000000000000000000917f45524332304f6e417070726f76653a206661696c656420746f2063616c6c206f60008201520152565b61064f6028604092610572565b610658816105f4565b0190565b6106729060208101906000818303910152610642565b90565b1561067d575b565b610685610039565b62461bcd60e51b81528061069b6004820161065c565b0390fd5b60046000926106e784936106d961071498602098856106c1634273ca1661045e565b946106ca610039565b9889968d8801908152016104df565b8782018103825203836100e1565b828583519301915af161070d6106fb61053f565b9180506107078361056b565b906105c6565b0151610675565b56fea26469706673582212209d211050e8e37d1541fca0acc5d1e846e06893dede82a8c8a2f6e880b8e44aec64736f6c63430008190033","linkReferences":{}},"methodIdentifiers":{"approveAndCall(address,uint256,bytes)":"cae9ca51"},"id":100}