{"abi":[{"type":"constructor","inputs":[{"name":"_l2Bridge","type":"address","internalType":"address"},{"name":"_l1Token","type":"address","internalType":"address"},{"name":"_name","type":"string","internalType":"string"},{"name":"_symbol","type":"string","internalType":"string"}],"stateMutability":"nonpayable"},{"type":"function","name":"allowance","inputs":[{"name":"owner","type":"address","internalType":"address"},{"name":"spender","type":"address","internalType":"address"}],"outputs":[{"name":"","type":"uint256","internalType":"uint256"}],"stateMutability":"view"},{"type":"function","name":"approve","inputs":[{"name":"spender","type":"address","internalType":"address"},{"name":"value","type":"uint256","internalType":"uint256"}],"outputs":[{"name":"","type":"bool","internalType":"bool"}],"stateMutability":"nonpayable"},{"type":"function","name":"balanceOf","inputs":[{"name":"account","type":"address","internalType":"address"}],"outputs":[{"name":"","type":"uint256","internalType":"uint256"}],"stateMutability":"view"},{"type":"function","name":"burn","inputs":[{"name":"_from","type":"address","internalType":"address"},{"name":"_amount","type":"uint256","internalType":"uint256"}],"outputs":[],"stateMutability":"nonpayable"},{"type":"function","name":"decimals","inputs":[],"outputs":[{"name":"","type":"uint8","internalType":"uint8"}],"stateMutability":"view"},{"type":"function","name":"l1Token","inputs":[],"outputs":[{"name":"","type":"address","internalType":"address"}],"stateMutability":"view"},{"type":"function","name":"l2Bridge","inputs":[],"outputs":[{"name":"","type":"address","internalType":"address"}],"stateMutability":"view"},{"type":"function","name":"mint","inputs":[{"name":"_to","type":"address","internalType":"address"},{"name":"_amount","type":"uint256","internalType":"uint256"}],"outputs":[],"stateMutability":"nonpayable"},{"type":"function","name":"name","inputs":[],"outputs":[{"name":"","type":"string","internalType":"string"}],"stateMutability":"view"},{"type":"function","name":"supportsInterface","inputs":[{"name":"_interfaceId","type":"bytes4","internalType":"bytes4"}],"outputs":[{"name":"","type":"bool","internalType":"bool"}],"stateMutability":"pure"},{"type":"function","name":"symbol","inputs":[],"outputs":[{"name":"","type":"string","internalType":"string"}],"stateMutability":"view"},{"type":"function","name":"totalSupply","inputs":[],"outputs":[{"name":"","type":"uint256","internalType":"uint256"}],"stateMutability":"view"},{"type":"function","name":"transfer","inputs":[{"name":"to","type":"address","internalType":"address"},{"name":"value","type":"uint256","internalType":"uint256"}],"outputs":[{"name":"","type":"bool","internalType":"bool"}],"stateMutability":"nonpayable"},{"type":"function","name":"transferFrom","inputs":[{"name":"from","type":"address","internalType":"address"},{"name":"to","type":"address","internalType":"address"},{"name":"value","type":"uint256","internalType":"uint256"}],"outputs":[{"name":"","type":"bool","internalType":"bool"}],"stateMutability":"nonpayable"},{"type":"event","name":"Approval","inputs":[{"name":"owner","type":"address","indexed":true,"internalType":"address"},{"name":"spender","type":"address","indexed":true,"internalType":"address"},{"name":"value","type":"uint256","indexed":false,"internalType":"uint256"}],"anonymous":false},{"type":"event","name":"Burn","inputs":[{"name":"_account","type":"address","indexed":true,"internalType":"address"},{"name":"_amount","type":"uint256","indexed":false,"internalType":"uint256"}],"anonymous":false},{"type":"event","name":"Mint","inputs":[{"name":"_account","type":"address","indexed":true,"internalType":"address"},{"name":"_amount","type":"uint256","indexed":false,"internalType":"uint256"}],"anonymous":false},{"type":"event","name":"Transfer","inputs":[{"name":"from","type":"address","indexed":true,"internalType":"address"},{"name":"to","type":"address","indexed":true,"internalType":"address"},{"name":"value","type":"uint256","indexed":false,"internalType":"uint256"}],"anonymous":false},{"type":"error","name":"ERC20InsufficientAllowance","inputs":[{"name":"spender","type":"address","internalType":"address"},{"name":"allowance","type":"uint256","internalType":"uint256"},{"name":"needed","type":"uint256","internalType":"uint256"}]},{"type":"error","name":"ERC20InsufficientBalance","inputs":[{"name":"sender","type":"address","internalType":"address"},{"name":"balance","type":"uint256","internalType":"uint256"},{"name":"needed","type":"uint256","internalType":"uint256"}]},{"type":"error","name":"ERC20InvalidApprover","inputs":[{"name":"approver","type":"address","internalType":"address"}]},{"type":"error","name":"ERC20InvalidReceiver","inputs":[{"name":"receiver","type":"address","internalType":"address"}]},{"type":"error","name":"ERC20InvalidSender","inputs":[{"name":"sender","type":"address","internalType":"address"}]},{"type":"error","name":"ERC20InvalidSpender","inputs":[{"name":"spender","type":"address","internalType":"address"}]}],"bytecode":{"object":"0x608060405234610034575b61001e61001561020e565b929190916102af565b610026610039565b611288610559823961128890f35b61003f565b60405190565b600080fd5b601f801991011690565b634e487b7160e01b600052604160045260246000fd5b9061006e90610044565b810190811060018060401b03821117610087575b604052565b61004e565b9061009f610098610039565b9283610064565b565b600080fd5b600080fd5b60018060a01b03901690565b6100c0906100ab565b90565b6100cc816100b7565b9014156100d6575b565b600080fd5b905051906100e8826100c3565b565b600080fd5b600080fd5b60018060401b038111610111575b61010d602091610044565b0190565b61004e565b60005b83811061012b575b5050906000910152565b806020918301518185015201610119565b9092919261015161014c826100f4565b61008c565b938185528183011161016e575b61016c916020850190610116565b565b6100ef565b9080601f83011215610192575b81602061018f9351910161013c565b90565b6100ea565b90608082820312610209575b6101b081600084016100db565b926101be82602085016100db565b92604081015160018060401b038111610204575b836101de918301610173565b92606082015160018060401b0381116101ff575b6101fc9201610173565b90565b6100a6565b6100a6565b6100a1565b61022c6117e1803803806102218161008c565b928339810190610197565b90919293565b60001b90565b9061024960018060a01b0391610232565b91811990169116901790565b90565b61026c610267610271926100ab565b610255565b6100ab565b90565b61027d90610258565b90565b61028990610274565b90565b90565b906102a461029f6102ab92610280565b61028c565b8254610238565b9055565b91906102c16102cf946102c893610540565b600561028f565b600661028f565b565b5190565b634e487b7160e01b600052602260045260246000fd5b906001600283049216801561030d575b602083109014610308575b565b6102d5565b91607f9016916102fb565b8050600052602060002090565b601f602091010490565b1b90565b9190600861034f9102916103496000198461032f565b9261032f565b91811990169116901790565b90565b61037261036d6103779261035b565b610255565b61035b565b90565b90565b919061039361038e61039b9361035e565b61037a565b908354610333565b9055565b600090565b6103b6916103b061039f565b9161037d565b565b5b8181106103c5575b5050565b806103d360006001936103a4565b016103b9565b9190601f81116103e9575b505050565b6103f561041b93610318565b90602061040184610325565b83019310610423575b61041390610325565b9001906103b8565b3880806103e4565b91506104138192905061040a565b1c90565b906104469060001990600802610431565b19901690565b8161045691610435565b90600202901790565b90610469816102d1565b9060018060401b03821161052f575b61048c8261048685546102eb565b856103d9565b600050602090601f83116001146104c5575b9180916104b4936000926104b9575b505061044c565b90555b565b909150015138806104ad565b601f198316916104d485610318565b9260005b818110610517575b5091600293918560019694106104fd575b505050020190556104b7565b61050d910151601f841690610435565b90553880806104f1565b919360206001819287870151815501950192016104d8565b61004e565b9061053e9161045f565b565b9061054f610556926003610534565b6004610534565b56fe60806040526004361015610013575b61071f565b61001e600035610110565b806301ffc9a71461010b575b806306fdde0314610106575b8063095ea7b314610101575b806318160ddd146100fc575b806323b872dd146100f7575b8063313ce567146100f2575b806340c10f19146100ed575b806370a08231146100e8575b806395d89b41146100e3575b80639dc29fac146100de575b8063a9059cbb146100d9575b8063ae1f6aaf146100d4575b8063c01e1bd6146100cf575b63dd62ed3e146100ca575b61000e565b6106e8565b610683565b61063e565b61059f565b61056a565b610534565b6104fe565b6104a9565b61046c565b61040b565b610399565b61033f565b610271565b6101a2565b60e01c90565b60405190565b600080fd5b600080fd5b63ffffffff60e01b901690565b61013c81610126565b901415610146575b565b600080fd5b9050359061015882610133565b565b90602082820312610175575b6000610172920161014b565b90565b610121565b151590565b6101889061017a565b9052565b91906101a09060006020850194019061017f565b565b346101d3575b6101cf6101be6101b936600461015a565b610735565b6101c6610116565b9182918261018c565b0390f35b61011c565b60009103126101e4575b565b610121565b5190565b60209181520190565b60005b83811061020b575b5050906000910152565b8060209183015181850152016101f9565b601f801991011690565b61024561024e6020936102539361023c816101e9565b938480936101ed565b958691016101f6565b61021c565b900190565b61026e9160208201916000818403910152610226565b90565b346102a2575b6102823660046101d8565b61029e61028d61092c565b610295610116565b91829182610258565b0390f35b61011c565b60018060a01b03901690565b6102bc906102a7565b90565b6102c8816102b3565b9014156102d2575b565b600080fd5b905035906102e4826102bf565b565b90565b6102f2816102e6565b9014156102fc575b565b600080fd5b9050359061030e826102e9565b565b919060408382031261033a575b80602061033061033793600087016102d7565b9401610301565b90565b610121565b34610371575b61036d61035c610356366004610310565b90610942565b610364610116565b9182918261018c565b0390f35b61011c565b61037f906102e6565b9052565b919061039790600060208501940190610376565b565b346103ca575b6103aa3660046101d8565b6103c66103b5610991565b6103bd610116565b91829182610383565b0390f35b61011c565b9091606082840312610406575b6104036103ec84600085016102d7565b9360406103fc82602087016102d7565b9401610301565b90565b610121565b3461043d575b6104396104286104223660046103cf565b916109a7565b610430610116565b9182918261018c565b0390f35b61011c565b60ff901690565b61045290610442565b9052565b919061046a90600060208501940190610449565b565b3461049d575b61047d3660046101d8565b6104996104886109f9565b610490610116565b91829182610456565b0390f35b61011c565b6000900190565b346104d9575b6104c36104bd366004610310565b90610b66565b6104cb610116565b806104d5816104a2565b0390f35b61011c565b906020828203126104f9575b60006104f692016102d7565b90565b610121565b3461052f575b61052b61051a6105153660046104de565b610b8a565b610522610116565b91829182610383565b0390f35b61011c565b34610565575b6105453660046101d8565b610561610550610ba9565b610558610116565b91829182610258565b0390f35b61011c565b3461059a575b61058461057e366004610310565b90610c3d565b61058c610116565b80610596816104a2565b0390f35b61011c565b346105d1575b6105cd6105bc6105b6366004610310565b90610c49565b6105c4610116565b9182918261018c565b0390f35b61011c565b1c90565b60018060a01b03901690565b6105f69060086105fb93026105d6565b6105da565b90565b9061060991546105e6565b90565b610618600060066105fe565b90565b610624906102b3565b9052565b919061063c9060006020850194019061061b565b565b3461066f575b61064f3660046101d8565b61066b61065a61060c565b610662610116565b91829182610628565b0390f35b61011c565b610680600060056105fe565b90565b346106b4575b6106943660046101d8565b6106b061069f610674565b6106a7610116565b91829182610628565b0390f35b61011c565b91906040838203126106e3575b8060206106d96106e093600087016102d7565b94016102d7565b90565b610121565b3461071a575b6107166107056106ff3660046106b9565b90610c81565b61070d610116565b91829182610383565b0390f35b61011c565b600080fd5b600090565b61073290610126565b90565b61073d610724565b506107677f01ffc9a7a5cef8baa21ed3c5c0d7e23accb804b619e9333b597f47a0d84076e2610729565b9061078b632770a7eb60e21b6340c10f1960e01b63600f0deb60e11b181892610126565b61079482610126565b14918292156107a3575b505090565b6107b89192506107b290610126565b91610126565b14388061079e565b606090565b634e487b7160e01b600052602260045260246000fd5b90600160028304921680156107fd575b6020831090146107f8575b565b6107c5565b91607f9016916107eb565b60209181520190565b8050600052602060002090565b9060009291805490610839610832836107db565b8094610808565b91600181169081600014610894575b50600114610856575b505050565b6108639192939450610811565b916000925b81841061087c575b50500190388080610851565b60018160209295939554848601520191019290610868565b92949550505060ff19901682521515602002900190388080610851565b906108bb9161081e565b90565b634e487b7160e01b600052604160045260246000fd5b906108de9061021c565b810190811067ffffffffffffffff8211176108f9575b604052565b6108be565b9061091e6109179261090e610116565b938480926108b1565b03836108d4565b565b610929906108fe565b90565b6109346107c0565b5061093f6003610920565b90565b9061095d9161094f610724565b50610958610cae565b610cbb565b600190565b600090565b60001c90565b90565b61097c61098191610967565b61096d565b90565b61098e9054610970565b90565b610999610962565b506109a46002610984565b90565b906109cd92916109b5610724565b506109c8836109c2610cae565b83610d0b565b610dc1565b600190565b600090565b90565b90565b6109f16109ec6109f6926109d7565b6109da565b610442565b90565b610a016109d2565b50610a0c601b6109dd565b90565b610a1b610a2091610967565b6105da565b90565b610a2d9054610a0f565b90565b60007f4f6e6c79204c32204272696467652063616e206d696e7420616e64206275726e910152565b610a64602080926101ed565b610a6d81610a30565b0190565b610a879060208101906000818303910152610a58565b90565b15610a92575b565b610a9a610116565b62461bcd60e51b815280610ab060048201610a71565b0390fd5b90610ae291610add610ace610ac96006610a23565b6102b3565b610ad7336102b3565b14610a8a565b610b18565b565b610af8610af3610afd926102a7565b6109da565b6102a7565b90565b610b0990610ae4565b90565b610b1590610b00565b90565b610b61610b4f7f0f6798a560793a54c3bcfe86a93cde1e73087d944c0ea20544137d412139688592610b4a8582610e58565b610b0c565b92610b58610116565b91829182610383565b0390a2565b90610b7091610ab4565b565b90610b7c90610b0c565b600052602052604060002090565b610ba1610ba691610b99610962565b506000610b72565b610984565b90565b610bb16107c0565b50610bbc6004610920565b90565b90610bed91610be8610bd9610bd46006610a23565b6102b3565b610be2336102b3565b14610a8a565b610bef565b565b610c38610c267fcc16f5dbb4873280815c1ee09dbd06736cffcc184412cf7a71a0fdb75d397ca592610c218582610eaf565b610b0c565b92610c2f610116565b91829182610383565b0390a2565b90610c4791610bbf565b565b90610c6491610c56610724565b50610c5f610cae565b610dc1565b600190565b90610c7390610b0c565b600052602052604060002090565b610ca691610c9c610ca192610c94610962565b506001610c69565b610b72565b610984565b90565b600090565b610cb6610ca9565b503390565b91600191610cc893610f65565b565b604090610cf4610cfb9496959396610cea6060840198600085019061061b565b6020830190610376565b0190610376565b565b90610d0891036102e6565b90565b91610d168284610c81565b610d216000196102e6565b610d2a826102e6565b1415610d37575b50505050565b610d40826102e6565b610d49826102e6565b10610d6f575b91610d60610d669492600094610cfd565b91610f65565b38808080610d31565b82610d9283610d7c610116565b938493637dc7a0d960e11b855260048501610cca565b0390fd5b90565b610dad610da8610db292610d96565b6109da565b6102a7565b90565b610dbe90610d99565b90565b929190610dce6000610db5565b93610dd8856102b3565b610de1826102b3565b14610e32575b610df0856102b3565b610df9836102b3565b14610e0c575b610e0a9394506110b3565b565b610e2e85610e18610116565b91829163ec442f0560e01b835260048301610628565b0390fd5b610e5485610e3e610116565b918291634b637e8f60e11b835260048301610628565b0390fd5b9190610e646000610db5565b92610e6e846102b3565b610e77826102b3565b14610e89575b610e8792936110b3565b565b610eab84610e95610116565b91829163ec442f0560e01b835260048301610628565b0390fd5b9190610ebb6000610db5565b92610ec5846102b3565b610ece826102b3565b14610ee1575b92610edf92936110b3565b565b610f0384610eed610116565b918291634b637e8f60e11b835260048301610628565b0390fd5b60001b90565b90610f1a60001991610f07565b91811990169116901790565b610f3a610f35610f3f926102e6565b6109da565b6102e6565b90565b90565b90610f5a610f55610f6192610f26565b610f42565b8254610f0d565b9055565b909192610f726000610db5565b610f7b816102b3565b610f84846102b3565b14611043575b610f93816102b3565b610f9c856102b3565b1461101d575b50610fc084610fbb85610fb6866001610c69565b610b72565b610f45565b610fca575b505050565b611012611000610ffa7f8c5be1e5ebec7d5bd14f71427d1e84f3dd0314c0f7b2291e5b200ac8c7c3b92593610b0c565b93610b0c565b93611009610116565b91829182610383565b0390a3388080610fc5565b61103f90611029610116565b918291634a1406b160e11b835260048301610628565b0390fd5b6110659061104f610116565b91829163e602df0560e01b835260048301610628565b0390fd5b634e487b7160e01b600052601160045260246000fd5b61108e611094919392936102e6565b926102e6565b82018092116110a0575b565b611069565b906110b091016102e6565b90565b8160006110bf81610db5565b6110c8816102b3565b6110d1856102b3565b146000146111ac575b7fddf252ad1be2c89b69c2b068fc378daa952ba7f163c4a11628f55a4df523b3ef9361117d9361116b9361112e611165946111286111218c61111c6002610984565b61107f565b6002610f45565b5b6102b3565b611137836102b3565b14600014611182575b505061115f611158886111536002610984565b610cfd565b6002610f45565b5b610b0c565b93610b0c565b93611174610116565b91829182610383565b0390a3565b6111a79161118f91610b72565b6111a18961119c83610984565b6110a5565b90610f45565b611160565b9091506111c16111bc8484610b72565b610984565b6111ca866102e6565b6111d3826102e6565b1061122b575b7fddf252ad1be2c89b69c2b068fc378daa952ba7f163c4a11628f55a4df523b3ef938561117d9461112e61116b956112266112178c61116598610cfd565b6112218786610b72565b610f45565b611129565b8361124e87611238610116565b93849363391434e360e21b855260048501610cca565b0390fdfea2646970667358221220d5fc34634958071548cba1931f279aa8ded565d6c7e70b208d5aaae0b82a618a64736f6c63430008190033","linkReferences":{}},"methodIdentifiers":{"allowance(address,address)":"dd62ed3e","approve(address,uint256)":"095ea7b3","balanceOf(address)":"70a08231","burn(address,uint256)":"9dc29fac","decimals()":"313ce567","l1Token()":"c01e1bd6","l2Bridge()":"ae1f6aaf","mint(address,uint256)":"40c10f19","name()":"06fdde03","supportsInterface(bytes4)":"01ffc9a7","symbol()":"95d89b41","totalSupply()":"18160ddd","transfer(address,uint256)":"a9059cbb","transferFrom(address,address,uint256)":"23b872dd"},"id":113}