{"abi":[{"type":"function","name":"DEFAULT_ADMIN_ROLE","inputs":[],"outputs":[{"name":"","type":"bytes32","internalType":"bytes32"}],"stateMutability":"view"},{"type":"function","name":"MINTER_ROLE","inputs":[],"outputs":[{"name":"","type":"bytes32","internalType":"bytes32"}],"stateMutability":"view"},{"type":"function","name":"addAdmin","inputs":[{"name":"account","type":"address","internalType":"address"}],"outputs":[],"stateMutability":"nonpayable"},{"type":"function","name":"getRoleAdmin","inputs":[{"name":"role","type":"bytes32","internalType":"bytes32"}],"outputs":[{"name":"","type":"bytes32","internalType":"bytes32"}],"stateMutability":"view"},{"type":"function","name":"grantRole","inputs":[{"name":"role","type":"bytes32","internalType":"bytes32"},{"name":"account","type":"address","internalType":"address"}],"outputs":[],"stateMutability":"nonpayable"},{"type":"function","name":"hasRole","inputs":[{"name":"role","type":"bytes32","internalType":"bytes32"},{"name":"account","type":"address","internalType":"address"}],"outputs":[{"name":"","type":"bool","internalType":"bool"}],"stateMutability":"view"},{"type":"function","name":"isAdmin","inputs":[{"name":"account","type":"address","internalType":"address"}],"outputs":[{"name":"","type":"bool","internalType":"bool"}],"stateMutability":"view"},{"type":"function","name":"isOwner","inputs":[],"outputs":[{"name":"","type":"bool","internalType":"bool"}],"stateMutability":"view"},{"type":"function","name":"removeAdmin","inputs":[{"name":"account","type":"address","internalType":"address"}],"outputs":[],"stateMutability":"nonpayable"},{"type":"function","name":"renounceOwnership","inputs":[],"outputs":[],"stateMutability":"nonpayable"},{"type":"function","name":"renounceRole","inputs":[{"name":"role","type":"bytes32","internalType":"bytes32"},{"name":"callerConfirmation","type":"address","internalType":"address"}],"outputs":[],"stateMutability":"nonpayable"},{"type":"function","name":"revokeRole","inputs":[{"name":"role","type":"bytes32","internalType":"bytes32"},{"name":"account","type":"address","internalType":"address"}],"outputs":[],"stateMutability":"nonpayable"},{"type":"function","name":"supportsInterface","inputs":[{"name":"interfaceId","type":"bytes4","internalType":"bytes4"}],"outputs":[{"name":"","type":"bool","internalType":"bool"}],"stateMutability":"view"},{"type":"function","name":"transferAdmin","inputs":[{"name":"newAdmin","type":"address","internalType":"address"}],"outputs":[],"stateMutability":"nonpayable"},{"type":"function","name":"transferOwnership","inputs":[{"name":"newAdmin","type":"address","internalType":"address"}],"outputs":[],"stateMutability":"nonpayable"},{"type":"event","name":"RoleAdminChanged","inputs":[{"name":"role","type":"bytes32","indexed":true,"internalType":"bytes32"},{"name":"previousAdminRole","type":"bytes32","indexed":true,"internalType":"bytes32"},{"name":"newAdminRole","type":"bytes32","indexed":true,"internalType":"bytes32"}],"anonymous":false},{"type":"event","name":"RoleGranted","inputs":[{"name":"role","type":"bytes32","indexed":true,"internalType":"bytes32"},{"name":"account","type":"address","indexed":true,"internalType":"address"},{"name":"sender","type":"address","indexed":true,"internalType":"address"}],"anonymous":false},{"type":"event","name":"RoleRevoked","inputs":[{"name":"role","type":"bytes32","indexed":true,"internalType":"bytes32"},{"name":"account","type":"address","indexed":true,"internalType":"address"},{"name":"sender","type":"address","indexed":true,"internalType":"address"}],"anonymous":false},{"type":"error","name":"AccessControlBadConfirmation","inputs":[]},{"type":"error","name":"AccessControlUnauthorizedAccount","inputs":[{"name":"account","type":"address","internalType":"address"},{"name":"neededRole","type":"bytes32","internalType":"bytes32"}]}],"bytecode":{"object":"0x608060405234601d575b600f6021565b610e8e61002d8239610e8e90f35b6027565b60405190565b600080fdfe60806040526004361015610013575b610650565b61001e600035610121565b806301ffc9a71461011c575b80631785f53c14610117575b8063248a9ca314610112575b806324d7806c1461010d575b80632f2ff15d14610108575b806336568abe14610103575b806370480275146100fe575b8063715018a6146100f9575b806375829def146100f4575b80638f32d59b146100ef575b806391d14854146100ea575b8063a217fddf146100e5575b8063d5391393146100e0575b8063d547741f146100db575b63f2fde38b146100d6575b61000e565b61061c565b6105e7565b6105b1565b61054c565b6104d8565b6104a2565b61046e565b61043a565b6103f5565b6103c0565b61038b565b610326565b6102f0565b61024f565b6101b3565b60e01c90565b60405190565b600080fd5b600080fd5b63ffffffff60e01b901690565b61014d81610137565b901415610157575b565b600080fd5b9050359061016982610144565b565b90602082820312610186575b6000610183920161015c565b90565b610132565b151590565b6101999061018b565b9052565b91906101b190600060208501940190610190565b565b346101e4575b6101e06101cf6101ca36600461016b565b61065a565b6101d7610127565b9182918261019d565b0390f35b61012d565b60018060a01b03901690565b6101fe906101e9565b90565b61020a816101f5565b901415610214575b565b600080fd5b9050359061022682610201565b565b90602082820312610243575b60006102409201610219565b90565b610132565b6000900190565b3461027e575b610268610263366004610228565b610752565b610270610127565b8061027a81610248565b0390f35b61012d565b90565b61028f81610283565b901415610299575b565b600080fd5b905035906102ab82610286565b565b906020828203126102c8575b60006102c5920161029e565b90565b610132565b6102d690610283565b9052565b91906102ee906000602085019401906102cd565b565b34610321575b61031d61030c6103073660046102ad565b6107b0565b610314610127565b918291826102da565b0390f35b61012d565b34610357575b61035361034261033d366004610228565b6107d2565b61034a610127565b9182918261019d565b0390f35b61012d565b9190604083820312610386575b80602061037c610383936000870161029e565b9401610219565b90565b610132565b346103bb575b6103a561039f36600461035c565b90610819565b6103ad610127565b806103b781610248565b0390f35b61012d565b346103f0575b6103da6103d436600461035c565b90610825565b6103e2610127565b806103ec81610248565b0390f35b61012d565b34610424575b61040e610409366004610228565b6108a4565b610416610127565b8061042081610248565b0390f35b61012d565b6000910312610435575b565b610132565b34610469575b61044b366004610429565b6104536108de565b61045b610127565b8061046581610248565b0390f35b61012d565b3461049d575b610487610482366004610228565b610a99565b61048f610127565b8061049981610248565b0390f35b61012d565b346104d3575b6104b3366004610429565b6104cf6104be610aa4565b6104c6610127565b9182918261019d565b0390f35b61012d565b3461050a575b6105066104f56104ef36600461035c565b90610b36565b6104fd610127565b9182918261019d565b0390f35b61012d565b90565b60001b90565b61052c6105276105319261050f565b610512565b610283565b90565b61053e6000610518565b90565b610549610534565b90565b3461057d575b61055d366004610429565b610579610568610541565b610570610127565b918291826102da565b0390f35b61012d565b7ff0887ba65ee2024ea881d91b74c2450ef19e1557f03bed3ea9f16b037cbe2dc990565b6105ae610582565b90565b346105e2575b6105c2366004610429565b6105de6105cd6105a6565b6105d5610127565b918291826102da565b0390f35b61012d565b34610617575b6106016105fb36600461035c565b90610b8a565b610609610127565b8061061381610248565b0390f35b61012d565b3461064b575b610635610630366004610228565b610bbd565b61063d610127565b8061064781610248565b0390f35b61012d565b600080fd5b600090565b61066c90610666610655565b50610bc8565b90565b60209181520190565b60207f696e000000000000000000000000000000000000000000000000000000000000917f41636365737369626c653a2043616c6c6572206973206e6f7420616e2061646d60008201520152565b6106d3602260409261066f565b6106dc81610678565b0190565b6106f690602081019060008183039101526106c6565b90565b15610701575b565b610709610127565b62461bcd60e51b81528061071f600482016106e0565b0390fd5b61073d90610738610733336107d2565b6106f9565b61073f565b565b6107509061074b610534565b610825565b565b61075b90610723565b565b600090565b61076b90610283565b90565b9061077890610762565b600052602052604060002090565b60001c90565b90565b61079b6107a091610786565b61078c565b90565b6107ad905461078f565b90565b60016107c96107cf926107c161075d565b50600061076e565b016107a3565b90565b6107ec906107de610655565b506107e7610534565b610b36565b90565b9061080a91610805610800826107b0565b610c08565b61080c565b565b9061081691610c63565b50565b90610823916107ef565b565b90610836610831610d12565b6101f5565b61083f826101f5565b1415610852575b61084f91610d1f565b50565b61085a610127565b63334bd91960e11b81528061087160048201610248565b0390fd5b61088f9061088a610885336107d2565b6106f9565b610891565b565b6108a29061089d610534565b610819565b565b6108ad90610875565b565b6108c06108bb336107d2565b6106f9565b6108c86108ca565b565b6108dc6108d5610534565b3390610825565b565b6108e66108af565b565b610902906108fd6108f8336107d2565b6106f9565b610a39565b565b90565b61091b6109166109209261050f565b610904565b6101e9565b90565b61092c90610907565b90565b60007f41636365737369626c653a207a65726f20616464726573730000000000000000910152565b610964601860209261066f565b61096d8161092f565b0190565b6109879060208101906000818303910152610957565b90565b15610992575b565b61099a610127565b62461bcd60e51b8152806109b060048201610971565b0390fd5b60007f41636365737369626c653a2073616d652061646d696e00000000000000000000910152565b6109e9601660209261066f565b6109f2816109b4565b0190565b610a0c90602081019060008183039101526109dc565b90565b15610a17575b565b610a1f610127565b62461bcd60e51b815280610a35600482016109f6565b0390fd5b610a9790610a62610a52610a4d6000610923565b6101f5565b610a5b836101f5565b141561098a565b610a7e610a6e826101f5565b610a77336101f5565b1415610a0f565b610a90610a89610534565b9182610819565b3390610825565b565b610aa2906108e8565b565b610aac610655565b50610abf610ab8610534565b3390610b36565b90565b610ad6610ad1610adb926101e9565b610904565b6101e9565b90565b610ae790610ac2565b90565b610af390610ade565b90565b90610b0090610aea565b600052602052604060002090565b60ff901690565b610b21610b2691610786565b610b0e565b90565b610b339054610b15565b90565b610b5d916000610b52610b5893610b4b610655565b508261076e565b01610af6565b610b29565b90565b90610b7b91610b76610b71826107b0565b610c08565b610b7d565b565b90610b8791610d1f565b50565b90610b9491610b60565b565b610bb090610bab610ba6336107d2565b6106f9565b610bb2565b565b610bbb90610a99565b565b610bc690610b96565b565b610bd0610655565b50610be1637965db0b60e01b610137565b610bea82610137565b1490819115610bf8575b5090565b610c029150610dbf565b38610bf4565b610c1a90610c14610d12565b90610e16565b565b90610c2860ff91610512565b91811990169116901790565b610c3d9061018b565b90565b90565b90610c58610c53610c5f92610c34565b610c40565b8254610c1c565b9055565b610c6b610655565b50610c7f610c798383610b36565b1561018b565b600014610d06575b610ca76001610ca2846000610c9c868261076e565b01610af6565b610c43565b610cca610cc4610cbe610cb8610d12565b93610762565b93610aea565b91610aea565b917f2f8788117e7eff1d82e926ec794901d17c78024a50270940304540a733656f0d610cf4610127565b80610cfe81610248565b0390a4600190565b5050600090565b600090565b610d1a610d0d565b503390565b610d27610655565b50610d328282610b36565b600014610db8575b610d596000610d548482610d4e868261076e565b01610af6565b610c43565b610d7c610d76610d70610d6a610d12565b93610762565b93610aea565b91610aea565b917ff6391f5c32d9c69d2a47ea670b442974b53935d1edc7fd64eb21e047a839171b610da6610127565b80610db081610248565b0390a4600190565b5050600090565b610dc7610655565b50610de1610ddb6301ffc9a760e01b610137565b91610137565b1490565b610dee906101f5565b9052565b916020610e14929493610e0d60408201966000830190610de5565b01906102cd565b565b90610e2a610e248284610b36565b1561018b565b610e33575b5050565b610e54610e3e610127565b92839263e2517d3f60e01b845260048401610df2565b0390fdfea264697066735822122039ae12205c37b07af6b8d2001fb467d5d935e0a7c140e16286ccc256125a980e64736f6c63430008190033","linkReferences":{}},"methodIdentifiers":{"DEFAULT_ADMIN_ROLE()":"a217fddf","MINTER_ROLE()":"d5391393","addAdmin(address)":"70480275","getRoleAdmin(bytes32)":"248a9ca3","grantRole(bytes32,address)":"2f2ff15d","hasRole(bytes32,address)":"91d14854","isAdmin(address)":"24d7806c","isOwner()":"8f32d59b","removeAdmin(address)":"1785f53c","renounceOwnership()":"715018a6","renounceRole(bytes32,address)":"36568abe","revokeRole(bytes32,address)":"d547741f","supportsInterface(bytes4)":"01ffc9a7","transferAdmin(address)":"75829def","transferOwnership(address)":"f2fde38b"},"id":72}