{
  "_format": "hh-sol-artifact-1",
  "contractName": "AuthControl",
  "sourceName": "src/common/AuthControl.sol",
  "abi": [
    {
      "inputs": [],
      "name": "AccessControlBadConfirmation",
      "type": "error"
    },
    {
      "inputs": [
        {
          "internalType": "address",
          "name": "account",
          "type": "address"
        },
        {
          "internalType": "bytes32",
          "name": "neededRole",
          "type": "bytes32"
        }
      ],
      "name": "AccessControlUnauthorizedAccount",
      "type": "error"
    },
    {
      "inputs": [],
      "name": "SameAdmin",
      "type": "error"
    },
    {
      "inputs": [],
      "name": "SameOwner",
      "type": "error"
    },
    {
      "inputs": [],
      "name": "ZeroAddress",
      "type": "error"
    },
    {
      "anonymous": false,
      "inputs": [
        {
          "indexed": true,
          "internalType": "bytes32",
          "name": "role",
          "type": "bytes32"
        },
        {
          "indexed": true,
          "internalType": "bytes32",
          "name": "previousAdminRole",
          "type": "bytes32"
        },
        {
          "indexed": true,
          "internalType": "bytes32",
          "name": "newAdminRole",
          "type": "bytes32"
        }
      ],
      "name": "RoleAdminChanged",
      "type": "event"
    },
    {
      "anonymous": false,
      "inputs": [
        {
          "indexed": true,
          "internalType": "bytes32",
          "name": "role",
          "type": "bytes32"
        },
        {
          "indexed": true,
          "internalType": "address",
          "name": "account",
          "type": "address"
        },
        {
          "indexed": true,
          "internalType": "address",
          "name": "sender",
          "type": "address"
        }
      ],
      "name": "RoleGranted",
      "type": "event"
    },
    {
      "anonymous": false,
      "inputs": [
        {
          "indexed": true,
          "internalType": "bytes32",
          "name": "role",
          "type": "bytes32"
        },
        {
          "indexed": true,
          "internalType": "address",
          "name": "account",
          "type": "address"
        },
        {
          "indexed": true,
          "internalType": "address",
          "name": "sender",
          "type": "address"
        }
      ],
      "name": "RoleRevoked",
      "type": "event"
    },
    {
      "inputs": [],
      "name": "ADMIN_ROLE",
      "outputs": [
        {
          "internalType": "bytes32",
          "name": "",
          "type": "bytes32"
        }
      ],
      "stateMutability": "view",
      "type": "function"
    },
    {
      "inputs": [],
      "name": "DEFAULT_ADMIN_ROLE",
      "outputs": [
        {
          "internalType": "bytes32",
          "name": "",
          "type": "bytes32"
        }
      ],
      "stateMutability": "view",
      "type": "function"
    },
    {
      "inputs": [],
      "name": "PAUSE_ROLE",
      "outputs": [
        {
          "internalType": "bytes32",
          "name": "",
          "type": "bytes32"
        }
      ],
      "stateMutability": "view",
      "type": "function"
    },
    {
      "inputs": [
        {
          "internalType": "address",
          "name": "account",
          "type": "address"
        }
      ],
      "name": "addAdmin",
      "outputs": [],
      "stateMutability": "nonpayable",
      "type": "function"
    },
    {
      "inputs": [
        {
          "internalType": "address",
          "name": "account",
          "type": "address"
        }
      ],
      "name": "addPauser",
      "outputs": [],
      "stateMutability": "nonpayable",
      "type": "function"
    },
    {
      "inputs": [
        {
          "internalType": "bytes32",
          "name": "role",
          "type": "bytes32"
        }
      ],
      "name": "getRoleAdmin",
      "outputs": [
        {
          "internalType": "bytes32",
          "name": "",
          "type": "bytes32"
        }
      ],
      "stateMutability": "view",
      "type": "function"
    },
    {
      "inputs": [
        {
          "internalType": "bytes32",
          "name": "role",
          "type": "bytes32"
        },
        {
          "internalType": "address",
          "name": "account",
          "type": "address"
        }
      ],
      "name": "grantRole",
      "outputs": [],
      "stateMutability": "nonpayable",
      "type": "function"
    },
    {
      "inputs": [
        {
          "internalType": "bytes32",
          "name": "role",
          "type": "bytes32"
        },
        {
          "internalType": "address",
          "name": "account",
          "type": "address"
        }
      ],
      "name": "hasRole",
      "outputs": [
        {
          "internalType": "bool",
          "name": "",
          "type": "bool"
        }
      ],
      "stateMutability": "view",
      "type": "function"
    },
    {
      "inputs": [
        {
          "internalType": "address",
          "name": "account",
          "type": "address"
        }
      ],
      "name": "isAdmin",
      "outputs": [
        {
          "internalType": "bool",
          "name": "",
          "type": "bool"
        }
      ],
      "stateMutability": "view",
      "type": "function"
    },
    {
      "inputs": [],
      "name": "isOwner",
      "outputs": [
        {
          "internalType": "bool",
          "name": "",
          "type": "bool"
        }
      ],
      "stateMutability": "view",
      "type": "function"
    },
    {
      "inputs": [
        {
          "internalType": "address",
          "name": "account",
          "type": "address"
        }
      ],
      "name": "isPauser",
      "outputs": [
        {
          "internalType": "bool",
          "name": "",
          "type": "bool"
        }
      ],
      "stateMutability": "view",
      "type": "function"
    },
    {
      "inputs": [],
      "name": "removeAdmin",
      "outputs": [],
      "stateMutability": "nonpayable",
      "type": "function"
    },
    {
      "inputs": [
        {
          "internalType": "address",
          "name": "account",
          "type": "address"
        }
      ],
      "name": "removePauser",
      "outputs": [],
      "stateMutability": "nonpayable",
      "type": "function"
    },
    {
      "inputs": [
        {
          "internalType": "bytes32",
          "name": "role",
          "type": "bytes32"
        },
        {
          "internalType": "address",
          "name": "callerConfirmation",
          "type": "address"
        }
      ],
      "name": "renounceRole",
      "outputs": [],
      "stateMutability": "nonpayable",
      "type": "function"
    },
    {
      "inputs": [
        {
          "internalType": "bytes32",
          "name": "role",
          "type": "bytes32"
        },
        {
          "internalType": "address",
          "name": "account",
          "type": "address"
        }
      ],
      "name": "revokeRole",
      "outputs": [],
      "stateMutability": "nonpayable",
      "type": "function"
    },
    {
      "inputs": [
        {
          "internalType": "bytes4",
          "name": "interfaceId",
          "type": "bytes4"
        }
      ],
      "name": "supportsInterface",
      "outputs": [
        {
          "internalType": "bool",
          "name": "",
          "type": "bool"
        }
      ],
      "stateMutability": "view",
      "type": "function"
    },
    {
      "inputs": [
        {
          "internalType": "address",
          "name": "newOwner",
          "type": "address"
        }
      ],
      "name": "transferOwnership",
      "outputs": [],
      "stateMutability": "nonpayable",
      "type": "function"
    }
  ],
  "bytecode": "0x60808060405234601557610bd1908161001b8239f35b600080fdfe608060408181526004908136101561001657600080fd5b600092833560e01c90816301ffc9a7146105f657508063248a9ca3146105cc57806324d7806c146105795780632f2ff15d1461055157806336568abe1461050a578063389ed267146104e157806346fbf68e1461048e5780636b2c0f55146103bd578063704802751461036f57806375b238fc1461034657806382dc1ec4146102f35780638f32d59b146102cd57806391d14854146102875780639a202d47146101f3578063a217fddf146101d4578063d547741f1461019b5763f2fde38b146100df57600080fd5b34610197576020366003190112610197576100f861064a565b916101096101046106d3565b61067b565b6001600160a01b038316801561018857331461017a575090610167600161016c938580528560205261013f8282882001546106f6565b61014884610851565b50600080516020610b3c833981519152865285602052852001546106f6565b61073a565b5061017633610a32565b5080f35b9051630a98f1f360e21b8152fd5b50905163d92e233d60e01b8152fd5b8280fd5b503461019757806003193601126101975761017691356101cf60016101be610665565b9383875286602052862001546106f6565b610a98565b8382346101ef57816003193601126101ef5751908152602090f35b5080fd5b5034610197578260031936011261019757600080516020610b3c83398151915283528260205280832033845260205260ff8184205416156102385782610176336109ab565b906020608492519162461bcd60e51b8352820152602360248201527f41757468436f6e74726f6c3a2043616c6c6572206973206e6f7420616e20616460448201526236b4b760e91b6064820152fd5b5090346101975781600319360112610197578160209360ff926102a8610665565b903582528186528282206001600160a01b039091168252855220549151911615158152f35b8382346101ef57816003193601126101ef576020906102ea6106d3565b90519015158152f35b8382346101ef5760203660031901126101ef5761017690610341600161031761064a565b926103236101046106d3565b600080516020610b1c833981519152865285602052852001546106f6565b6107c8565b8382346101ef57816003193601126101ef5760209051600080516020610b3c8339815191528152f35b8382346101ef5760203660031901126101ef5761017690610167600161039361064a565b9261039f6101046106d3565b600080516020610b3c833981519152865285602052852001546106f6565b509034610197576020366003190112610197576103d861064a565b91600080516020610b1c83398151915284528360205280842033855260205260ff81852054168015610480575b1561043157336001600160a01b03841603610424578361017684610924565b5163334bd91960e11b8152fd5b906020608492519162461bcd60e51b8352820152602360248201527f41757468436f6e74726f6c3a2043616c6c6572206973206e6f7420612070617560448201526239b2b960e91b6064820152fd5b506104896106d3565b610405565b8382346101ef5760203660031901126101ef5760ff816020936104af61064a565b600080516020610b1c83398151915282528186528282206001600160a01b039091168252855220549151911615158152f35b8382346101ef57816003193601126101ef5760209051600080516020610b1c8339815191528152f35b508290346101ef57806003193601126101ef57610525610665565b90336001600160a01b038316036105425750610176919235610a98565b5163334bd91960e11b81528390fd5b5034610197578060031936011261019757610176913561057460016101be610665565b6108bd565b8382346101ef5760203660031901126101ef5760ff8160209361059a61064a565b600080516020610b3c83398151915282528186528282206001600160a01b039091168252855220549151911615158152f35b50903461019757602036600319011261019757816020936001923581528085522001549051908152f35b84908434610197576020366003190112610197573563ffffffff60e01b81168091036101975760209250637965db0b60e01b8114908115610639575b5015158152f35b6301ffc9a760e01b14905083610632565b600435906001600160a01b038216820361066057565b600080fd5b602435906001600160a01b038216820361066057565b1561068257565b60405162461bcd60e51b8152602060048201526024808201527f41757468436f6e74726f6c3a2043616c6c6572206973206e6f7420746865206f6044820152633bb732b960e11b6064820152608490fd5b336000908152600080516020610b7c833981519152602052604090205460ff1690565b80600052600060205260406000203360005260205260ff604060002054161561071c5750565b6044906040519063e2517d3f60e01b82523360048301526024820152fd5b6001600160a01b031660008181527f5cbfc8ee58ca47855df7bcf648dd304ddb6b932f9b87878bdf6318d7ec7ee5b76020526040812054909190600080516020610b3c8339815191529060ff166107c357808352826020526040832082845260205260408320600160ff19825416179055600080516020610afc833981519152339380a4600190565b505090565b6001600160a01b031660008181527f37507518c100ddd5bfd50d3f0fc3a4ae47e4394ece9422a4ca21a82fdff32e546020526040812054909190600080516020610b1c8339815191529060ff166107c357808352826020526040832082845260205260408320600160ff19825416179055600080516020610afc833981519152339380a4600190565b6001600160a01b03166000818152600080516020610b7c833981519152602052604081205490919060ff166108b957818052816020526040822081835260205260408220600160ff198254161790553391600080516020610afc8339815191528180a4600190565b5090565b9060009180835282602052604083209160018060a01b03169182845260205260ff604084205416156000146107c357808352826020526040832082845260205260408320600160ff19825416179055600080516020610afc833981519152339380a4600190565b6001600160a01b031660008181527f37507518c100ddd5bfd50d3f0fc3a4ae47e4394ece9422a4ca21a82fdff32e546020526040812054909190600080516020610b1c8339815191529060ff16156107c35780835282602052604083208284526020526040832060ff198154169055600080516020610b5c833981519152339380a4600190565b6001600160a01b031660008181527f5cbfc8ee58ca47855df7bcf648dd304ddb6b932f9b87878bdf6318d7ec7ee5b76020526040812054909190600080516020610b3c8339815191529060ff16156107c35780835282602052604083208284526020526040832060ff198154169055600080516020610b5c833981519152339380a4600190565b6001600160a01b03166000818152600080516020610b7c833981519152602052604081205490919060ff16156108b95781805281602052604082208183526020526040822060ff1981541690553391600080516020610b5c8339815191528180a4600190565b9060009180835282602052604083209160018060a01b03169182845260205260ff6040842054166000146107c35780835282602052604083208284526020526040832060ff198154169055600080516020610b5c833981519152339380a460019056fe2f8788117e7eff1d82e926ec794901d17c78024a50270940304540a733656f0dfcb9fcbfa83b897fb2d5cf4b58962164105c1e71489a37ef3ae0db3fdce576f6df8b4c520ffe197c5343c6f5aec59570151ef9a492f2c624fd45ddde6135ec42f6391f5c32d9c69d2a47ea670b442974b53935d1edc7fd64eb21e047a839171bad3228b676f7d3cd4284a5443f17f1962b36e491b30a40b2405849e597ba5fb5a264697066735822122030ed338cab35bf905d0e3a6ec98733a8da14acda4a21b2ce522bb605aebb35f964736f6c63430008190033",
  "linkReferences": {},
  "deployedLinkReferences": {}
}