{"abi":[{"type":"function","name":"ADMIN_ROLE","inputs":[],"outputs":[{"name":"","type":"bytes32","internalType":"bytes32"}],"stateMutability":"view"},{"type":"function","name":"DEFAULT_ADMIN_ROLE","inputs":[],"outputs":[{"name":"","type":"bytes32","internalType":"bytes32"}],"stateMutability":"view"},{"type":"function","name":"PAUSE_ROLE","inputs":[],"outputs":[{"name":"","type":"bytes32","internalType":"bytes32"}],"stateMutability":"view"},{"type":"function","name":"addAdmin","inputs":[{"name":"account","type":"address","internalType":"address"}],"outputs":[],"stateMutability":"nonpayable"},{"type":"function","name":"addPauser","inputs":[{"name":"account","type":"address","internalType":"address"}],"outputs":[],"stateMutability":"nonpayable"},{"type":"function","name":"aliveImplementation","inputs":[{"name":"","type":"address","internalType":"address"}],"outputs":[{"name":"","type":"bool","internalType":"bool"}],"stateMutability":"view"},{"type":"function","name":"assignGemForAirdrop","inputs":[{"name":"_tokenIds","type":"uint256[]","internalType":"uint256[]"},{"name":"_to","type":"address","internalType":"address"}],"outputs":[{"name":"","type":"bool","internalType":"bool"}],"stateMutability":"nonpayable"},{"type":"function","name":"claimAirdrop","inputs":[],"outputs":[],"stateMutability":"nonpayable"},{"type":"function","name":"counter","inputs":[],"outputs":[{"name":"","type":"uint256","internalType":"uint256"}],"stateMutability":"view"},{"type":"function","name":"getCounter","inputs":[],"outputs":[{"name":"","type":"uint256","internalType":"uint256"}],"stateMutability":"view"},{"type":"function","name":"getGemFactoryAddress","inputs":[],"outputs":[{"name":"","type":"address","internalType":"address"}],"stateMutability":"view"},{"type":"function","name":"getRoleAdmin","inputs":[{"name":"role","type":"bytes32","internalType":"bytes32"}],"outputs":[{"name":"","type":"bytes32","internalType":"bytes32"}],"stateMutability":"view"},{"type":"function","name":"getTokensEligible","inputs":[{"name":"_address","type":"address","internalType":"address"}],"outputs":[{"name":"","type":"uint256[]","internalType":"uint256[]"}],"stateMutability":"view"},{"type":"function","name":"getTreasuryAddress","inputs":[],"outputs":[{"name":"","type":"address","internalType":"address"}],"stateMutability":"view"},{"type":"function","name":"grantRole","inputs":[{"name":"role","type":"bytes32","internalType":"bytes32"},{"name":"account","type":"address","internalType":"address"}],"outputs":[],"stateMutability":"nonpayable"},{"type":"function","name":"hasRole","inputs":[{"name":"role","type":"bytes32","internalType":"bytes32"},{"name":"account","type":"address","internalType":"address"}],"outputs":[{"name":"","type":"bool","internalType":"bool"}],"stateMutability":"view"},{"type":"function","name":"incrementCounter","inputs":[],"outputs":[],"stateMutability":"nonpayable"},{"type":"function","name":"initialize","inputs":[{"name":"_treasury","type":"address","internalType":"address"},{"name":"_gemFactory","type":"address","internalType":"address"}],"outputs":[],"stateMutability":"nonpayable"},{"type":"function","name":"isAdmin","inputs":[{"name":"account","type":"address","internalType":"address"}],"outputs":[{"name":"","type":"bool","internalType":"bool"}],"stateMutability":"view"},{"type":"function","name":"isOwner","inputs":[],"outputs":[{"name":"","type":"bool","internalType":"bool"}],"stateMutability":"view"},{"type":"function","name":"isPauser","inputs":[{"name":"account","type":"address","internalType":"address"}],"outputs":[{"name":"","type":"bool","internalType":"bool"}],"stateMutability":"view"},{"type":"function","name":"pauseProxy","inputs":[],"outputs":[{"name":"","type":"bool","internalType":"bool"}],"stateMutability":"view"},{"type":"function","name":"proxyImplementation","inputs":[{"name":"","type":"uint256","internalType":"uint256"}],"outputs":[{"name":"","type":"address","internalType":"address"}],"stateMutability":"view"},{"type":"function","name":"removeAdmin","inputs":[],"outputs":[],"stateMutability":"nonpayable"},{"type":"function","name":"removePauser","inputs":[{"name":"account","type":"address","internalType":"address"}],"outputs":[],"stateMutability":"nonpayable"},{"type":"function","name":"renounceRole","inputs":[{"name":"role","type":"bytes32","internalType":"bytes32"},{"name":"callerConfirmation","type":"address","internalType":"address"}],"outputs":[],"stateMutability":"nonpayable"},{"type":"function","name":"revokeRole","inputs":[{"name":"role","type":"bytes32","internalType":"bytes32"},{"name":"account","type":"address","internalType":"address"}],"outputs":[],"stateMutability":"nonpayable"},{"type":"function","name":"selectorImplementation","inputs":[{"name":"","type":"bytes4","internalType":"bytes4"}],"outputs":[{"name":"","type":"address","internalType":"address"}],"stateMutability":"view"},{"type":"function","name":"supportsInterface","inputs":[{"name":"interfaceId","type":"bytes4","internalType":"bytes4"}],"outputs":[{"name":"","type":"bool","internalType":"bool"}],"stateMutability":"view"},{"type":"function","name":"transferOwnership","inputs":[{"name":"newOwner","type":"address","internalType":"address"}],"outputs":[],"stateMutability":"nonpayable"},{"type":"event","name":"EligibleTokenListCleared","inputs":[],"anonymous":false},{"type":"event","name":"RoleAdminChanged","inputs":[{"name":"role","type":"bytes32","indexed":true,"internalType":"bytes32"},{"name":"previousAdminRole","type":"bytes32","indexed":true,"internalType":"bytes32"},{"name":"newAdminRole","type":"bytes32","indexed":true,"internalType":"bytes32"}],"anonymous":false},{"type":"event","name":"RoleGranted","inputs":[{"name":"role","type":"bytes32","indexed":true,"internalType":"bytes32"},{"name":"account","type":"address","indexed":true,"internalType":"address"},{"name":"sender","type":"address","indexed":true,"internalType":"address"}],"anonymous":false},{"type":"event","name":"RoleRevoked","inputs":[{"name":"role","type":"bytes32","indexed":true,"internalType":"bytes32"},{"name":"account","type":"address","indexed":true,"internalType":"address"},{"name":"sender","type":"address","indexed":true,"internalType":"address"}],"anonymous":false},{"type":"event","name":"TokensAssigned","inputs":[{"name":"tokenIds","type":"uint256[]","indexed":false,"internalType":"uint256[]"},{"name":"_to","type":"address","indexed":false,"internalType":"address"}],"anonymous":false},{"type":"event","name":"TokensClaimed","inputs":[{"name":"tokenIds","type":"uint256[]","indexed":false,"internalType":"uint256[]"},{"name":"to","type":"address","indexed":false,"internalType":"address"}],"anonymous":false},{"type":"error","name":"AccessControlBadConfirmation","inputs":[]},{"type":"error","name":"AccessControlUnauthorizedAccount","inputs":[{"name":"account","type":"address","internalType":"address"},{"name":"neededRole","type":"bytes32","internalType":"bytes32"}]},{"type":"error","name":"AlreadyInitialized","inputs":[]},{"type":"error","name":"ContractNotPaused","inputs":[]},{"type":"error","name":"ContractPaused","inputs":[]},{"type":"error","name":"NoEligibleUsers","inputs":[]},{"type":"error","name":"ReentrancyGuardReentrantCall","inputs":[]},{"type":"error","name":"SameAdmin","inputs":[]},{"type":"error","name":"SameOwner","inputs":[]},{"type":"error","name":"TokenNotAvailable","inputs":[]},{"type":"error","name":"TokenNotOwnedByTreasury","inputs":[]},{"type":"error","name":"UserAlreadyClaimedCurrentAirdrop","inputs":[]},{"type":"error","name":"UserNotEligible","inputs":[]},{"type":"error","name":"ZeroAddress","inputs":[]}],"bytecode":{"object":"0x608060405234601f57600e6024565b604051611a416100608239611a4190f35b600080fd5b602a6051565b565b6036603660369290565b90565b60366001602c565b9060366036604d92602c565b9055565b602a60596039565b600c604156fe6080604052600436101561001257600080fd5b60003560e01c806301ffc9a7146101f2578063248a9ca3146101ed57806324d7806c146101e85780632f2ff15d146101e357806336568abe146101de578063389ed267146101d957806346fbf68e146101d4578063485cc955146101cf57806350d2a276146101ca578063550d01a3146101c557806356b2e412146101c05780635b34b966146101bb5780635b88349d146101b657806361bc221a146101b157806363a8fd89146101ac5780636b2c0f55146101a757806370480275146101a257806375b238fc1461019d57806382dc1ec4146101985780638ada066e146101935780638f32d59b1461018e57806391d14854146101895780639a202d47146101845780639d541be21461017f578063a217fddf1461017a578063b911135f14610175578063d547741f14610170578063e00246041461016b578063eeb261c1146101665763f2fde38b036101f757610907565b6108e0565b61085e565b610845565b61082a565b6107f5565b6107bb565b6107a3565b610787565b61076c565b610751565b610739565b61071e565b6106da565b6106c2565b6106a7565b610681565b610647565b61062f565b610613565b6104f6565b610470565b6103f0565b6103b9565b61039e565b61034e565b610330565b6102f2565b610291565b610239565b600080fd5b6001600160e01b031981165b036101f757565b9050359061021c826101fc565b565b906020828203126101f7576102329161020f565b90565b9052565b346101f75761026661025461024f36600461021e565b61091f565b60405191829182901515815260200190565b0390f35b80610208565b9050359061021c8261026a565b906020828203126101f75761023291610270565b346101f7576102666102ac6102a736600461027d565b61093f565b6040519182918290815260200190565b6001600160a01b031690565b610208816102bc565b9050359061021c826102c8565b906020828203126101f757610232916102d1565b346101f7576102666102546103083660046102de565b61095e565b91906040838203126101f7576102329060206103298286610270565b94016102d1565b346101f75761034961034336600461030d565b90610992565b604051005b346101f75761034961036136600461030d565b9061099c565b60009103126101f757565b7ffcb9fcbfa83b897fb2d5cf4b58962164105c1e71489a37ef3ae0db3fdce576f690565b610232610372565b346101f7576103ae366004610367565b6102666102ac610396565b346101f7576102666102546103cf3660046102de565b6109d8565b91906040838203126101f75761023290602061032982866102d1565b346101f7576103496104033660046103d4565b90610a90565b906001600160e01b0319165b600052602052604060002090565b610232916008021c6001600160a01b031690565b906102329154610423565b6000610452610232926003610409565b610437565b610235906102bc565b60208101929161021c9190610457565b346101f75761026661048b61048636600461021e565b610442565b60405191829182610460565b610232906102bc906001600160a01b031682565b61023290610497565b610232906104ab565b90610415906104b4565b610232916008021c5b60ff1690565b9061023291546104c7565b60006104f16102329260026104bd565b6104d6565b346101f75761026661025461050c3660046102de565b6104e1565b634e487b7160e01b600052604160045260246000fd5b90601f01601f191681019081106001600160401b0382111761054857604052565b610511565b9061021c61055a60405190565b9283610527565b6001600160401b0381116105485760208091020190565b9092919261058d61058882610561565b61054d565b93818552602080860192028301928184116101f757915b8383106105b15750505050565b602080916105bf8486610270565b8152019201916105a4565b9080601f830112156101f75781602061023293359101610578565b91906040838203126101f7578235906001600160401b0382116101f7576020610329826102329487016105ca565b346101f7576102666102546106293660046105e5565b906111aa565b346101f75761063f366004610367565b6103496111d7565b346101f757610657366004610367565b610349611545565b610232916008021c81565b90610232915461065f565b6102326000600d61066a565b346101f757610691366004610367565b6102666102ac610675565b6102326000806104d6565b346101f7576106b7366004610367565b61026661025461069c565b346101f7576103496106d53660046102de565b6115f4565b346101f7576103496106ed3660046102de565b61167a565b7fdf8b4c520ffe197c5343c6f5aec59570151ef9a492f2c624fd45ddde6135ec4290565b6102326106f2565b346101f75761072e366004610367565b6102666102ac610716565b346101f75761034961074c3660046102de565b61169e565b346101f757610761366004610367565b6102666102ac6116a7565b346101f75761077c366004610367565b6102666102546116b1565b346101f75761026661025461079d36600461030d565b906116bc565b346101f7576107b3366004610367565b610349611755565b346101f7576107cb366004610367565b61026661048b61175d565b6102326102326102329290565b61023260006107d6565b6102326107e3565b346101f757610805366004610367565b6102666102ac6107ed565b90610415906107d6565b6000610452610232926001610810565b346101f75761026661048b61084036600461027d565b61081a565b346101f75761034961085836600461030d565b90611782565b346101f75761086e366004610367565b61026661048b61178c565b90610899610892610888845190565b8084529260200190565b9260200190565b9060005b8181106108aa5750505090565b9091926108c76108c06001928651815260200190565b9460200190565b92910161089d565b602080825261023292910190610879565b346101f7576102666108fb6108f63660046102de565b611796565b604051918291826108cf565b346101f75761034961091a3660046102de565b61184f565b61023290611858565b90610415565b6102329081565b610232905461092e565b600161095861023292610950600090565b50600b610928565b01610935565b6102329061096a6106f2565b6116bc565b9061021c916109856109808261093f565b611892565b9061098f9161189d565b50565b9061021c9161096f565b906109ab336102bc565b6102bc565b6109b4826102bc565b036109c25761098f9161191a565b60405163334bd91960e11b8152600490fd5b0390fd5b6102329061096a610372565b6102329060081c6104d0565b61023290546109e4565b15610a0157565b60405162461bcd60e51b8152602060048201526013602482015272185b1c9958591e481a5b9a5d1a585b1a5e9959606a1b6044820152606490fd5b906001600160a01b03905b9181191691161790565b90610a61610232610a68926104b4565b8254610a3c565b9055565b9061ff009060081b610a47565b90610a89610232610a6892151590565b8254610a6c565b90610acb610ad292610ab1610aac610aa860076109f0565b1590565b6109fa565b610ac3610abc6107e3565b339061189d565b506004610a51565b6005610a51565b61021c60016007610a79565b15610ae557565b60405162461bcd60e51b81526020600482015260126024820152713737ba1027bbb732b91037b91020b236b4b760711b6044820152606490fd5b906102329291610b2e3361095e565b8015610b43575b610b3e90610ade565b610ded565b50610b3e610b4f6116b1565b9050610b35565b90610b6361058883610561565b918252565b369037565b9061021c610b83610b7d84610b56565b93610561565b601f190160208401610b68565b634e487b7160e01b600052603260045260246000fd5b90610baf825190565b811015610bc0576020809102010190565b610b90565b8054821015610bc057610bdf600191600052602060002090565b91020190600090565b610232906102bc565b6102329054610be8565b9050519061021c826102c8565b906020828203126101f75761023291610bfb565b6040513d6000823e3d90fd5b801515610208565b9050519061021c82610c28565b906020828203126101f75761023291610c30565b634e487b7160e01b600052601160045260246000fd5b6000198114610c765760010190565b610c51565b634e487b7160e01b600052600060045260246000fd5b9160001960089290920291821b911b610a47565b9190610cb6610232610a68936107d6565b908354610c91565b61021c91600091610ca5565b818110610cd5575050565b80610ce36000600193610cbe565b01610cca565b919091828210610cf857505050565b61021c9291610d0d9091600052602060002090565b9182019101610cca565b90600160401b81116105485781610d2f61021c935490565b90828155610ce9565b8151916001600160401b03831161054857610d6e610d62600192610d5c8686610d17565b60200190565b92600052602060002090565b92049160005b838110610d815750505050565b6001906020610d91610232865190565b9401938184015501610d74565b9061021c91610d38565b9060ff90610a47565b90610dc1610232610a6892151590565b8254610da8565b92916020610de561021c9360408701908782036000890152610879565b940190610457565b509091610dfe6102328460096104bd565b610e0e610e09845190565b610b6d565b90600094610e1b866107d6565b9182945b610e2a610232885190565b8610156110eb57610e42610e3e8789610ba6565b5190565b928897610e4e8a6107d6565b868110156110da57610e63610e3e828a610ba6565b8690610e6e565b9190565b14610e7b57600101610e4e565b5093919297509593610e8c60011590565b611090575b610ea6610ea1610ea16005610bf1565b6104b4565b6020610eb160405190565b6331a9108f60e11b81526004810185905291829060249082905afa908115611009578a91611062575b50610ef1610eeb6109a66004610bf1565b916102bc565b0361105057610f06610ea1610ea16005610bf1565b906020610f1260405190565b63276a28a360e01b81526004810185905292839060249082905afa918215611009578a92611020575b50600191610f4a835b91151590565b1461100e57610f5f610ea1610ea16005610bf1565b803b156101f757610f9f8b93918492610f7760405190565b9586938492839190634d723a7560e01b83528a60048401908152901515602082015260400190565b03925af1801561100957610fd493610fcd93610fc892610fdd575b50610fc5838a610ba6565b52565b610c67565b9360010190565b94919590610e1f565b610ffc908d803d10611002575b610ff48183610527565b810190610367565b38610fba565b503d610fea565b610c1c565b604051636f4c40dd60e01b8152600490fd5b61104291925060203d8111611049575b61103a8183610527565b810190610c3d565b9038610f3b565b503d611030565b60405163de5ba81760e01b8152600490fd5b611083915060203d8111611089575b61107b8183610527565b810190610c08565b38610eda565b503d611071565b9395909261109d896107d6565b6110a86102328a5490565b8110156110d0576110c26110bc828b610bc5565b9061066a565b85146110d05760010161109d565b5092909593610e91565b5093919297610e8c90979591971590565b93969450509093506110fc84610b6d565b92611106816107d6565b855b81101561113d5761113681611130611126610e3e611108958c610ba6565b610fc5838a610ba6565b60010190565b9050611106565b5061118d91939295507f6010d17ca674a11494ef21d1535339e57b4cc5f748aff181d496b89917aaf68b945061117d836111788660096104bd565b610d9e565b6111888460086104bd565b610db1565b6111a261119960405190565b92839283610dc8565b0390a1600190565b61023291906000610b1f565b9060001990610a47565b906111d0610232610a68926107d6565b82546111b6565b61021c6111e7610fc8600d610935565b600d6111c0565b610232906104d0565b61023290546111ee565b1561120857565b60405162461bcd60e51b815260206004820152601060248201526f14185d5cd8589b194e881c185d5cd95960821b6044820152606490fd5b611255611250610aa860076111f7565b611201565b61021c611260611981565b611268611330565b61021c6119c1565b9061127f610d62610888845490565b9060005b8181106112905750505090565b9091926112b46112ad6001926112a587610935565b815260200190565b9460010190565b929101611283565b9061023291611270565b9061021c6112e0926112d760405190565b938480926112bc565b0383610527565b610232906112c6565b91602061021c92949361130b60408201966000830190610457565b0152565b600061021c91610d17565b9060000361132b5761021c9061130f565b610c7b565b61134361133e3360086104bd565b6111f7565b6001919061135083610f44565b14611533576113686113633360096104bd565b6112e7565b80519260009361137a610e6a866107d6565b146115215761138f60016111883360086104bd565b80611399856107d6565b905b6113ef575b50506113ea906113dc7f81017b6d9dcd50d1463b528b7a1c8c1dd866348804544848d3ca723d5f9c69a293946113d73360096104bd565b61131a565b604051918291339083610dc8565b0390a1565b6113fa610232845190565b81101561151c57611411610ea1610ea16005610bf1565b61141e610e3e8386610ba6565b90803b156101f757868091611460938261143760405190565b80968195829461144b634d723a7560e01b90565b84526004840152151560248301526044820190565b03925af1801561100957611500575b50611480610ea1610ea16004610bf1565b9061148e610e3e8286610ba6565b91803b156101f7576114c387939184926114a760405190565b958693849283919063048dbcef60e41b835233600484016112f0565b03925af1918215611009576114de926114e4575b5060010190565b8161139b565b6114fa90873d891161100257610ff48183610527565b386114d7565b61151690863d881161100257610ff48183610527565b3861146f565b6113a0565b60405163267c16a760e21b8152600490fd5b604051632ca1efb560e21b8152600490fd5b61021c611240565b1561155457565b60405162461bcd60e51b815260206004820152602360248201527f41757468436f6e74726f6c3a2043616c6c6572206973206e6f7420612070617560448201526239b2b960e91b6064820152608490fd5b61021c906115bb6115b4610372565b33906116bc565b80156115d0575b6115cb9061154d565b6115e3565b506115cb6115dc6116b1565b90506115c2565b61021c906115ef610372565b61099c565b61021c906115a5565b1561160457565b60405162461bcd60e51b8152602060048201526024808201527f41757468436f6e74726f6c3a2043616c6c6572206973206e6f7420746865206f6044820152633bb732b960e11b6064820152608490fd5b61021c906116696116646116b1565b6115fd565b61021c906116756106f2565b610992565b61021c90611655565b61021c906116926116646116b1565b61021c90611675610372565b61021c90611683565b610232600d610935565b6102326115b46107e3565b6102329160006116d161133e93610950600090565b016104bd565b156116de57565b60405162461bcd60e51b815260206004820152602360248201527f41757468436f6e74726f6c3a2043616c6c6572206973206e6f7420616e20616460448201526236b4b760e91b6064820152608490fd5b61174061173b3361095e565b6116d7565b61021c61021c61174e6106f2565b339061099c565b61021c61172f565b6102326005610bf1565b9061021c916117786109808261093f565b9061098f9161191a565b9061021c91611767565b6102326004610bf1565b611363610232916117a5606090565b5060096104bd565b61021c906117bc6116646116b1565b6117d7565b6102bc6102326102329290565b610232906117c1565b6117e46109a660006117ce565b6117ed826102bc565b1461183d576117fb816102bc565b611804336102bc565b1461182b5761021c9061174e6118186107e3565b916118238184610992565b6116756106f2565b604051630a98f1f360e21b8152600490fd5b60405163d92e233d60e01b8152600490fd5b61021c906117ad565b637965db0b60e01b6001600160e01b0319821614908115611877575090565b61023291506001600160e01b0319166301ffc9a760e01b1490565b61021c9033906119d3565b6118aa610aa883836116bc565b15611913576118c560016111888460006116d186600b610928565b6118df6118d96118d3339390565b936104b4565b916104b4565b917f2f8788117e7eff1d82e926ec794901d17c78024a50270940304540a733656f0d61190a60405190565b600090a4600190565b5050600090565b61192482826116bc565b156119135761193e600061118884826116d186600b610928565b61194c6118d96118d3339390565b917ff6391f5c32d9c69d2a47ea670b442974b53935d1edc7fd64eb21e047a839171b61190a60405190565b61023260026107d6565b61198b600c610935565b611993611977565b9081146119a55761021c90600c6111c0565b604051633ee5aeb560e01b8152600490fd5b61023260016107d6565b61021c6119cc6119b7565b600c6111c0565b906119e1610aa882846116bc565b6119e9575050565b6109d46119f560405190565b63e2517d3f60e01b8152928392600484016112f056fea26469706673582212201bd61ba305f62a00a4d827ab0f5c1b2587ad8de28a5240e000422abacbf2629f64736f6c63430008190033","linkReferences":{}},"methodIdentifiers":{"ADMIN_ROLE()":"75b238fc","DEFAULT_ADMIN_ROLE()":"a217fddf","PAUSE_ROLE()":"389ed267","addAdmin(address)":"70480275","addPauser(address)":"82dc1ec4","aliveImplementation(address)":"550d01a3","assignGemForAirdrop(uint256[],address)":"56b2e412","claimAirdrop()":"5b88349d","counter()":"61bc221a","getCounter()":"8ada066e","getGemFactoryAddress()":"9d541be2","getRoleAdmin(bytes32)":"248a9ca3","getTokensEligible(address)":"eeb261c1","getTreasuryAddress()":"e0024604","grantRole(bytes32,address)":"2f2ff15d","hasRole(bytes32,address)":"91d14854","incrementCounter()":"5b34b966","initialize(address,address)":"485cc955","isAdmin(address)":"24d7806c","isOwner()":"8f32d59b","isPauser(address)":"46fbf68e","pauseProxy()":"63a8fd89","proxyImplementation(uint256)":"b911135f","removeAdmin()":"9a202d47","removePauser(address)":"6b2c0f55","renounceRole(bytes32,address)":"36568abe","revokeRole(bytes32,address)":"d547741f","selectorImplementation(bytes4)":"50d2a276","supportsInterface(bytes4)":"01ffc9a7","transferOwnership(address)":"f2fde38b"},"id":106}