{"abi":[{"type":"function","name":"candidate","inputs":[],"outputs":[{"name":"","type":"address","internalType":"address"}],"stateMutability":"view"},{"type":"function","name":"committee","inputs":[],"outputs":[{"name":"","type":"address","internalType":"address"}],"stateMutability":"view"},{"type":"function","name":"isLayer2Candidate","inputs":[],"outputs":[{"name":"","type":"bool","internalType":"bool"}],"stateMutability":"view"},{"type":"function","name":"memo","inputs":[],"outputs":[{"name":"","type":"string","internalType":"string"}],"stateMutability":"view"},{"type":"function","name":"seigManager","inputs":[],"outputs":[{"name":"","type":"address","internalType":"address"}],"stateMutability":"view"}],"bytecode":{"object":"0x608060405234601d575b600f6021565b61050b61002d823961050b90f35b6027565b60405190565b600080fdfe60806040526004361015610013575b6104d0565b61001e600035610077565b806358c3b87014610072575b80636c8381f81461006d575b80636fb7f55814610068575b80639b63826814610063575b63d864e7401461005e575b61000e565b61049a565b610455565b6103bb565b610376565b6102c1565b60e01c90565b60405190565b600080fd5b600080fd5b6000910312610099575b565b610088565b634e487b7160e01b600052600060045260246000fd5b634e487b7160e01b600052602260045260246000fd5b90600160028304921680156100ec575b6020831090146100e7575b565b6100b4565b91607f9016916100da565b60209181520190565b8050600052602060002090565b9060009291805490610128610121836100ca565b80946100f7565b91600181169081600014610183575b50600114610145575b505050565b6101529192939450610100565b916000925b81841061016b575b50500190388080610140565b60018160209295939554848601520191019290610157565b92949550505060ff19901682521515602002900190388080610140565b906101aa9161010d565b90565b601f801991011690565b634e487b7160e01b600052604160045260246000fd5b906101d7906101ad565b810190811067ffffffffffffffff8211176101f2575b604052565b6101b7565b906102176102109261020761007d565b938480926101a0565b03836101cd565b565b906000901161022f575b61022c906101f7565b90565b61009e565b61024060006002610219565b90565b5190565b60209181520190565b60005b838110610265575b5050906000910152565b806020918301518185015201610253565b61029561029e6020936102a39361028c81610243565b93848093610247565b95869101610250565b6101ad565b900190565b6102be9160208201916000818403910152610276565b90565b346102f2575b6102d236600461008d565b6102ee6102dd610234565b6102e561007d565b918291826102a8565b0390f35b610083565b1c90565b60018060a01b03901690565b61031790600861031c93026102f7565b6102fb565b90565b9061032a9154610307565b90565b61033860018061031f565b90565b60018060a01b03901690565b6103509061033b565b90565b61035c90610347565b9052565b919061037490600060208501940190610353565b565b346103a7575b61038736600461008d565b6103a361039261032d565b61039a61007d565b91829182610360565b0390f35b610083565b6103b86000600461031f565b90565b346103ec575b6103cc36600461008d565b6103e86103d76103ac565b6103df61007d565b91829182610360565b0390f35b610083565b60ff901690565b61040890600861040d93026102f7565b6103f1565b90565b9061041b91546103f8565b90565b61042a60006001610410565b90565b151590565b61043b9061042d565b9052565b919061045390600060208501940190610432565b565b34610486575b61046636600461008d565b61048261047161041e565b61047961007d565b9182918261043f565b0390f35b610083565b6104976000600361031f565b90565b346104cb575b6104ab36600461008d565b6104c76104b661048b565b6104be61007d565b91829182610360565b0390f35b610083565b600080fdfea2646970667358221220157958b64a24cf949b0759635d1af7561cf1c4f276c2a32697eae941f12251ca64736f6c63430008190033","linkReferences":{}},"methodIdentifiers":{"candidate()":"6c8381f8","committee()":"d864e740","isLayer2Candidate()":"9b638268","memo()":"58c3b870","seigManager()":"6fb7f558"},"id":62}