{"abi":[{"type":"function","name":"CHALLENGER_ROLE","inputs":[],"outputs":[{"name":"","type":"bytes32","internalType":"bytes32"}],"stateMutability":"view"},{"type":"function","name":"DEFAULT_ADMIN_ROLE","inputs":[],"outputs":[{"name":"","type":"bytes32","internalType":"bytes32"}],"stateMutability":"view"},{"type":"function","name":"MINTER_ROLE","inputs":[],"outputs":[{"name":"","type":"bytes32","internalType":"bytes32"}],"stateMutability":"view"},{"type":"function","name":"OPERATOR_ROLE","inputs":[],"outputs":[{"name":"","type":"bytes32","internalType":"bytes32"}],"stateMutability":"view"},{"type":"function","name":"PAUSE_ROLE","inputs":[],"outputs":[{"name":"","type":"bytes32","internalType":"bytes32"}],"stateMutability":"view"},{"type":"function","name":"addAdmin","inputs":[{"name":"account","type":"address","internalType":"address"}],"outputs":[],"stateMutability":"nonpayable"},{"type":"function","name":"addChallenger","inputs":[{"name":"account","type":"address","internalType":"address"}],"outputs":[],"stateMutability":"nonpayable"},{"type":"function","name":"addMinter","inputs":[{"name":"account","type":"address","internalType":"address"}],"outputs":[],"stateMutability":"nonpayable"},{"type":"function","name":"addOperator","inputs":[{"name":"account","type":"address","internalType":"address"}],"outputs":[],"stateMutability":"nonpayable"},{"type":"function","name":"getRoleAdmin","inputs":[{"name":"role","type":"bytes32","internalType":"bytes32"}],"outputs":[{"name":"","type":"bytes32","internalType":"bytes32"}],"stateMutability":"view"},{"type":"function","name":"grantRole","inputs":[{"name":"role","type":"bytes32","internalType":"bytes32"},{"name":"account","type":"address","internalType":"address"}],"outputs":[],"stateMutability":"nonpayable"},{"type":"function","name":"hasRole","inputs":[{"name":"role","type":"bytes32","internalType":"bytes32"},{"name":"account","type":"address","internalType":"address"}],"outputs":[{"name":"","type":"bool","internalType":"bool"}],"stateMutability":"view"},{"type":"function","name":"isAdmin","inputs":[{"name":"account","type":"address","internalType":"address"}],"outputs":[{"name":"","type":"bool","internalType":"bool"}],"stateMutability":"view"},{"type":"function","name":"isChallenger","inputs":[{"name":"account","type":"address","internalType":"address"}],"outputs":[{"name":"","type":"bool","internalType":"bool"}],"stateMutability":"view"},{"type":"function","name":"isMinter","inputs":[{"name":"account","type":"address","internalType":"address"}],"outputs":[{"name":"","type":"bool","internalType":"bool"}],"stateMutability":"view"},{"type":"function","name":"isOperator","inputs":[{"name":"account","type":"address","internalType":"address"}],"outputs":[{"name":"","type":"bool","internalType":"bool"}],"stateMutability":"view"},{"type":"function","name":"isOwner","inputs":[],"outputs":[{"name":"","type":"bool","internalType":"bool"}],"stateMutability":"view"},{"type":"function","name":"removeAdmin","inputs":[{"name":"account","type":"address","internalType":"address"}],"outputs":[],"stateMutability":"nonpayable"},{"type":"function","name":"removeChallenger","inputs":[{"name":"account","type":"address","internalType":"address"}],"outputs":[],"stateMutability":"nonpayable"},{"type":"function","name":"removeMinter","inputs":[{"name":"account","type":"address","internalType":"address"}],"outputs":[],"stateMutability":"nonpayable"},{"type":"function","name":"removeOperator","inputs":[{"name":"account","type":"address","internalType":"address"}],"outputs":[],"stateMutability":"nonpayable"},{"type":"function","name":"renounceChallenger","inputs":[],"outputs":[],"stateMutability":"nonpayable"},{"type":"function","name":"renounceMinter","inputs":[],"outputs":[],"stateMutability":"nonpayable"},{"type":"function","name":"renounceOperator","inputs":[],"outputs":[],"stateMutability":"nonpayable"},{"type":"function","name":"renounceOwnership","inputs":[],"outputs":[],"stateMutability":"nonpayable"},{"type":"function","name":"renounceRole","inputs":[{"name":"role","type":"bytes32","internalType":"bytes32"},{"name":"callerConfirmation","type":"address","internalType":"address"}],"outputs":[],"stateMutability":"nonpayable"},{"type":"function","name":"revokeChallenger","inputs":[{"name":"account","type":"address","internalType":"address"}],"outputs":[],"stateMutability":"nonpayable"},{"type":"function","name":"revokeMinter","inputs":[{"name":"account","type":"address","internalType":"address"}],"outputs":[],"stateMutability":"nonpayable"},{"type":"function","name":"revokeOperator","inputs":[{"name":"account","type":"address","internalType":"address"}],"outputs":[],"stateMutability":"nonpayable"},{"type":"function","name":"revokeRole","inputs":[{"name":"role","type":"bytes32","internalType":"bytes32"},{"name":"account","type":"address","internalType":"address"}],"outputs":[],"stateMutability":"nonpayable"},{"type":"function","name":"supportsInterface","inputs":[{"name":"interfaceId","type":"bytes4","internalType":"bytes4"}],"outputs":[{"name":"","type":"bool","internalType":"bool"}],"stateMutability":"view"},{"type":"function","name":"transferAdmin","inputs":[{"name":"newAdmin","type":"address","internalType":"address"}],"outputs":[],"stateMutability":"nonpayable"},{"type":"function","name":"transferOwnership","inputs":[{"name":"newAdmin","type":"address","internalType":"address"}],"outputs":[],"stateMutability":"nonpayable"},{"type":"event","name":"RoleAdminChanged","inputs":[{"name":"role","type":"bytes32","indexed":true,"internalType":"bytes32"},{"name":"previousAdminRole","type":"bytes32","indexed":true,"internalType":"bytes32"},{"name":"newAdminRole","type":"bytes32","indexed":true,"internalType":"bytes32"}],"anonymous":false},{"type":"event","name":"RoleGranted","inputs":[{"name":"role","type":"bytes32","indexed":true,"internalType":"bytes32"},{"name":"account","type":"address","indexed":true,"internalType":"address"},{"name":"sender","type":"address","indexed":true,"internalType":"address"}],"anonymous":false},{"type":"event","name":"RoleRevoked","inputs":[{"name":"role","type":"bytes32","indexed":true,"internalType":"bytes32"},{"name":"account","type":"address","indexed":true,"internalType":"address"},{"name":"sender","type":"address","indexed":true,"internalType":"address"}],"anonymous":false},{"type":"error","name":"AccessControlBadConfirmation","inputs":[]},{"type":"error","name":"AccessControlUnauthorizedAccount","inputs":[{"name":"account","type":"address","internalType":"address"},{"name":"neededRole","type":"bytes32","internalType":"bytes32"}]}],"bytecode":{"object":"0x608060405234601d575b600f6021565b61174961002d823961174990f35b6027565b60405190565b600080fdfe60806040526004361015610013575b610bc3565b61001e600035610253565b806301ffc9a71461024e575b80630ceb678014610249575b80631785f53c14610244575b8063248a9ca31461023f575b806324d7806c1461023a575b806325e90db414610235575b80632ab6f8db14610230575b80632f2ff15d1461022b575b80633092afd514610226575b806336568abe14610221575b8063389ed2671461021c575b80633c49117314610217575b8063530adbb414610212575b80636c578c1d1461020d575b80636d70f7ae14610208575b80637048027514610203575b8063715018a6146101fe575b806375829def146101f9575b80638f32d59b146101f4575b806391d14854146101ef575b8063983b2d56146101ea575b806398650275146101e5575b80639870d7fe146101e0575b8063a217fddf146101db575b8063a415d8dc146101d6575b8063aa271e1a146101d1575b8063ac8a584a146101cc575b8063cfbd4885146101c7575b8063d5391393146101c2575b8063d547741f146101bd575b8063f2fde38b146101b8575b8063f5b541a6146101b3575b63fad8b32a146101ae575b61000e565b610b8f565b610b59565b610af6565b610ac1565b610a8b565b610a28565b6109f4565b6109be565b610988565b610952565b6108e1565b6108ad565b610879565b610842565b61080c565b6107d8565b6107a4565b610770565b61073a565b610706565b6106d0565b61066d565b610637565b6105d3565b61059f565b61056a565b610507565b6104d3565b61048c565b610456565b6103b5565b610381565b6102e5565b60e01c90565b60405190565b600080fd5b600080fd5b63ffffffff60e01b901690565b61027f81610269565b901415610289575b565b600080fd5b9050359061029b82610276565b565b906020828203126102b8575b60006102b5920161028e565b90565b610264565b151590565b6102cb906102bd565b9052565b91906102e3906000602085019401906102c2565b565b34610316575b6103126103016102fc36600461029d565b610bcd565b610309610259565b918291826102cf565b0390f35b61025f565b60018060a01b03901690565b6103309061031b565b90565b61033c81610327565b901415610346575b565b600080fd5b9050359061035882610333565b565b90602082820312610375575b6000610372920161034b565b90565b610264565b6000900190565b346103b0575b61039a61039536600461035a565b610cc5565b6103a2610259565b806103ac8161037a565b0390f35b61025f565b346103e4575b6103ce6103c936600461035a565b610daa565b6103d6610259565b806103e08161037a565b0390f35b61025f565b90565b6103f5816103e9565b9014156103ff575b565b600080fd5b90503590610411826103ec565b565b9060208282031261042e575b600061042b9201610404565b90565b610264565b61043c906103e9565b9052565b919061045490600060208501940190610433565b565b34610487575b61048361047261046d366004610413565b610e08565b61047a610259565b91829182610440565b0390f35b61025f565b346104bd575b6104b96104a86104a336600461035a565b610e2a565b6104b0610259565b918291826102cf565b0390f35b61025f565b60009103126104ce575b565b610264565b34610502575b6104e43660046104c2565b6104ec610e47565b6104f4610259565b806104fe8161037a565b0390f35b61025f565b34610536575b6105183660046104c2565b610520610e5b565b610528610259565b806105328161037a565b0390f35b61025f565b9190604083820312610565575b80602061055b6105629360008701610404565b940161034b565b90565b610264565b3461059a575b61058461057e36600461053b565b90610e99565b61058c610259565b806105968161037a565b0390f35b61025f565b346105ce575b6105b86105b336600461035a565b610ed4565b6105c0610259565b806105ca8161037a565b0390f35b61025f565b34610603575b6105ed6105e736600461053b565b90610edf565b6105f5610259565b806105ff8161037a565b0390f35b61025f565b7ffcb9fcbfa83b897fb2d5cf4b58962164105c1e71489a37ef3ae0db3fdce576f690565b610634610608565b90565b34610668575b6106483660046104c2565b61066461065361062c565b61065b610259565b91829182610440565b0390f35b61025f565b3461069c575b61068661068136600461035a565b610f5e565b61068e610259565b806106988161037a565b0390f35b61025f565b7fbf02bad7114723a857a3af46cea17b778a3a951c96f183784d9a2448cc479ab690565b6106cd6106a1565b90565b34610701575b6106e13660046104c2565b6106fd6106ec6106c5565b6106f4610259565b91829182610440565b0390f35b61025f565b34610735575b61071f61071a36600461035a565b610f98565b610727610259565b806107318161037a565b0390f35b61025f565b3461076b575b61076761075661075136600461035a565b610fa3565b61075e610259565b918291826102cf565b0390f35b61025f565b3461079f575b61078961078436600461035a565b610fef565b610791610259565b8061079b8161037a565b0390f35b61025f565b346107d3575b6107b53660046104c2565b6107bd611029565b6107c5610259565b806107cf8161037a565b0390f35b61025f565b34610807575b6107f16107ec36600461035a565b6111e4565b6107f9610259565b806108038161037a565b0390f35b61025f565b3461083d575b61081d3660046104c2565b6108396108286111ef565b610830610259565b918291826102cf565b0390f35b61025f565b34610874575b61087061085f61085936600461053b565b90611281565b610867610259565b918291826102cf565b0390f35b61025f565b346108a8575b61089261088d36600461035a565b6112da565b61089a610259565b806108a48161037a565b0390f35b61025f565b346108dc575b6108be3660046104c2565b6108c66112e5565b6108ce610259565b806108d88161037a565b0390f35b61025f565b34610910575b6108fa6108f536600461035a565b611328565b610902610259565b8061090c8161037a565b0390f35b61025f565b90565b60001b90565b61093261092d61093792610915565b610918565b6103e9565b90565b610944600061091e565b90565b61094f61093a565b90565b34610983575b6109633660046104c2565b61097f61096e610947565b610976610259565b91829182610440565b0390f35b61025f565b346109b9575b6109b56109a461099f36600461035a565b611333565b6109ac610259565b918291826102cf565b0390f35b61025f565b346109ef575b6109eb6109da6109d536600461035a565b611350565b6109e2610259565b918291826102cf565b0390f35b61025f565b34610a23575b610a0d610a0836600461035a565b61139c565b610a15610259565b80610a1f8161037a565b0390f35b61025f565b34610a57575b610a41610a3c36600461035a565b6113d6565b610a49610259565b80610a538161037a565b0390f35b61025f565b7ff0887ba65ee2024ea881d91b74c2450ef19e1557f03bed3ea9f16b037cbe2dc990565b610a88610a5c565b90565b34610abc575b610a9c3660046104c2565b610ab8610aa7610a80565b610aaf610259565b91829182610440565b0390f35b61025f565b34610af1575b610adb610ad536600461053b565b9061140b565b610ae3610259565b80610aed8161037a565b0390f35b61025f565b34610b25575b610b0f610b0a36600461035a565b61143e565b610b17610259565b80610b218161037a565b0390f35b61025f565b7f523a704056dcd17bcf83bed8b68c59416dac1119be77755efe3bde0a64e46e0c90565b610b56610b2a565b90565b34610b8a575b610b6a3660046104c2565b610b86610b75610b4e565b610b7d610259565b91829182610440565b0390f35b61025f565b34610bbe575b610ba8610ba336600461035a565b611478565b610bb0610259565b80610bba8161037a565b0390f35b61025f565b600080fd5b600090565b610bdf90610bd9610bc8565b50611483565b90565b60209181520190565b60007f6e6f74206f6e6c794d696e7465724f7241646d696e0000000000000000000000910152565b610c206015602092610be2565b610c2981610beb565b0190565b610c439060208101906000818303910152610c13565b90565b15610c4e575b565b610c56610259565b62461bcd60e51b815280610c6c60048201610c2d565b0390fd5b610c9390610c7d33610e2a565b809015610c95575b610c8e90610c46565b610cb2565b565b50610c8e610cab610ca4610a5c565b3390611281565b9050610c85565b610cc390610cbe6106a1565b610e99565b565b610cce90610c70565b565b60207f6d696e0000000000000000000000000000000000000000000000000000000000917f41757468436f6e74726f6c3a2043616c6c6572206973206e6f7420616e20616460008201520152565b610d2b6023604092610be2565b610d3481610cd0565b0190565b610d4e9060208101906000818303910152610d1e565b90565b15610d59575b565b610d61610259565b62461bcd60e51b815280610d7760048201610d38565b0390fd5b610d9590610d90610d8b33610e2a565b610d51565b610d97565b565b610da890610da361093a565b610edf565b565b610db390610d7b565b565b600090565b610dc3906103e9565b90565b90610dd090610dba565b600052602052604060002090565b60001c90565b90565b610df3610df891610dde565b610de4565b90565b610e059054610de7565b90565b6001610e21610e2792610e19610db5565b506000610dc6565b01610dfb565b90565b610e4490610e36610bc8565b50610e3f61093a565b611281565b90565b610e59610e526106a1565b3390610edf565b565b610e6d610e66610b2a565b3390610edf565b565b90610e8a91610e85610e8082610e08565b6114c3565b610e8c565b565b90610e969161151e565b50565b90610ea391610e6f565b565b610ebf90610eba610eb533610e2a565b610d51565b610ec1565b565b610ed290610ecd610a5c565b610edf565b565b610edd90610ea5565b565b90610ef0610eeb6115cd565b610327565b610ef982610327565b1415610f0c575b610f09916115da565b50565b610f14610259565b63334bd91960e11b815280610f2b6004820161037a565b0390fd5b610f4990610f44610f3f33610e2a565b610d51565b610f4b565b565b610f5c90610f576106a1565b61140b565b565b610f6790610f2f565b565b610f8390610f7e610f7933610e2a565b610d51565b610f85565b565b610f9690610f916106a1565b610edf565b565b610fa190610f69565b565b610fbd90610faf610bc8565b50610fb8610b2a565b611281565b90565b610fda90610fd5610fd033610e2a565b610d51565b610fdc565b565b610fed90610fe861093a565b610e99565b565b610ff890610fc0565b565b61100b61100633610e2a565b610d51565b611013611015565b565b61102761102061093a565b3390610edf565b565b611031610ffa565b565b61104d9061104861104333610e2a565b610d51565b611184565b565b90565b61106661106161106b92610915565b61104f565b61031b565b90565b61107790611052565b90565b60007f41636365737369626c653a207a65726f20616464726573730000000000000000910152565b6110af6018602092610be2565b6110b88161107a565b0190565b6110d290602081019060008183039101526110a2565b90565b156110dd575b565b6110e5610259565b62461bcd60e51b8152806110fb600482016110bc565b0390fd5b60007f41636365737369626c653a2073616d652061646d696e00000000000000000000910152565b6111346016602092610be2565b61113d816110ff565b0190565b6111579060208101906000818303910152611127565b90565b15611162575b565b61116a610259565b62461bcd60e51b81528061118060048201611141565b0390fd5b6111e2906111ad61119d611198600061106e565b610327565b6111a683610327565b14156110d5565b6111c96111b982610327565b6111c233610327565b141561115a565b6111db6111d461093a565b9182610e99565b3390610edf565b565b6111ed90611033565b565b6111f7610bc8565b5061120a61120361093a565b3390611281565b90565b61122161121c6112269261031b565b61104f565b61031b565b90565b6112329061120d565b90565b61123e90611229565b90565b9061124b90611235565b600052602052604060002090565b60ff901690565b61126c61127191610dde565b611259565b90565b61127e9054611260565b90565b6112a891600061129d6112a393611296610bc8565b5082610dc6565b01611241565b611274565b90565b6112c5906112c06112bb33610e2a565b610d51565b6112c7565b565b6112d8906112d3610a5c565b610e99565b565b6112e3906112ab565b565b6112f76112f0610a5c565b3390610edf565b565b6113139061130e61130933610e2a565b610d51565b611315565b565b61132690611321610b2a565b610e99565b565b611331906112f9565b565b61134d9061133f610bc8565b506113486106a1565b611281565b90565b61136a9061135c610bc8565b50611365610a5c565b611281565b90565b6113879061138261137d33610e2a565b610d51565b611389565b565b61139a90611395610b2a565b610edf565b565b6113a59061136d565b565b6113c1906113bc6113b733610e2a565b610d51565b6113c3565b565b6113d4906113cf610a5c565b61140b565b565b6113df906113a7565b565b906113fc916113f76113f282610e08565b6114c3565b6113fe565b565b90611408916115da565b50565b90611415916113e1565b565b6114319061142c61142733610e2a565b610d51565b611433565b565b61143c906111e4565b565b61144790611417565b565b6114639061145e61145933610e2a565b610d51565b611465565b565b61147690611471610b2a565b61140b565b565b61148190611449565b565b61148b610bc8565b5061149c637965db0b60e01b610269565b6114a582610269565b14908191156114b3575b5090565b6114bd915061167a565b386114af565b6114d5906114cf6115cd565b906116d1565b565b906114e360ff91610918565b91811990169116901790565b6114f8906102bd565b90565b90565b9061151361150e61151a926114ef565b6114fb565b82546114d7565b9055565b611526610bc8565b5061153a6115348383611281565b156102bd565b6000146115c1575b611562600161155d8460006115578682610dc6565b01611241565b6114fe565b61158561157f6115796115736115cd565b93610dba565b93611235565b91611235565b917f2f8788117e7eff1d82e926ec794901d17c78024a50270940304540a733656f0d6115af610259565b806115b98161037a565b0390a4600190565b5050600090565b600090565b6115d56115c8565b503390565b6115e2610bc8565b506115ed8282611281565b600014611673575b611614600061160f84826116098682610dc6565b01611241565b6114fe565b61163761163161162b6116256115cd565b93610dba565b93611235565b91611235565b917ff6391f5c32d9c69d2a47ea670b442974b53935d1edc7fd64eb21e047a839171b611661610259565b8061166b8161037a565b0390a4600190565b5050600090565b611682610bc8565b5061169c6116966301ffc9a760e01b610269565b91610269565b1490565b6116a990610327565b9052565b9160206116cf9294936116c8604082019660008301906116a0565b0190610433565b565b906116e56116df8284611281565b156102bd565b6116ee575b5050565b61170f6116f9610259565b92839263e2517d3f60e01b8452600484016116ad565b0390fdfea26469706673582212203da408268f1d7627a81d5277edbde92ecd169f639d6b3a2d27e976f2ca71699364736f6c63430008190033","linkReferences":{}},"methodIdentifiers":{"CHALLENGER_ROLE()":"530adbb4","DEFAULT_ADMIN_ROLE()":"a217fddf","MINTER_ROLE()":"d5391393","OPERATOR_ROLE()":"f5b541a6","PAUSE_ROLE()":"389ed267","addAdmin(address)":"70480275","addChallenger(address)":"0ceb6780","addMinter(address)":"983b2d56","addOperator(address)":"9870d7fe","getRoleAdmin(bytes32)":"248a9ca3","grantRole(bytes32,address)":"2f2ff15d","hasRole(bytes32,address)":"91d14854","isAdmin(address)":"24d7806c","isChallenger(address)":"a415d8dc","isMinter(address)":"aa271e1a","isOperator(address)":"6d70f7ae","isOwner()":"8f32d59b","removeAdmin(address)":"1785f53c","removeChallenger(address)":"6c578c1d","removeMinter(address)":"3092afd5","removeOperator(address)":"ac8a584a","renounceChallenger()":"25e90db4","renounceMinter()":"98650275","renounceOperator()":"2ab6f8db","renounceOwnership()":"715018a6","renounceRole(bytes32,address)":"36568abe","revokeChallenger(address)":"3c491173","revokeMinter(address)":"cfbd4885","revokeOperator(address)":"fad8b32a","revokeRole(bytes32,address)":"d547741f","supportsInterface(bytes4)":"01ffc9a7","transferAdmin(address)":"75829def","transferOwnership(address)":"f2fde38b"},"id":74}