{
  "_format": "hh-sol-artifact-1",
  "contractName": "TreasuryThanos",
  "sourceName": "src/L2/TreasuryThanos.sol",
  "abi": [
    {
      "inputs": [],
      "name": "AccessControlBadConfirmation",
      "type": "error"
    },
    {
      "inputs": [
        {
          "internalType": "address",
          "name": "account",
          "type": "address"
        },
        {
          "internalType": "bytes32",
          "name": "neededRole",
          "type": "bytes32"
        }
      ],
      "name": "AccessControlUnauthorizedAccount",
      "type": "error"
    },
    {
      "inputs": [
        {
          "internalType": "address",
          "name": "target",
          "type": "address"
        }
      ],
      "name": "AddressEmptyCode",
      "type": "error"
    },
    {
      "inputs": [
        {
          "internalType": "address",
          "name": "account",
          "type": "address"
        }
      ],
      "name": "AddressInsufficientBalance",
      "type": "error"
    },
    {
      "inputs": [],
      "name": "FailedInnerCall",
      "type": "error"
    },
    {
      "inputs": [],
      "name": "FailedToSendTON",
      "type": "error"
    },
    {
      "inputs": [],
      "name": "InvalidAddress",
      "type": "error"
    },
    {
      "inputs": [],
      "name": "NotEnoughTonAvailableInTreasury",
      "type": "error"
    },
    {
      "inputs": [],
      "name": "NotEnoughWstonAvailableInTreasury",
      "type": "error"
    },
    {
      "inputs": [],
      "name": "ReentrancyGuardReentrantCall",
      "type": "error"
    },
    {
      "inputs": [
        {
          "internalType": "address",
          "name": "token",
          "type": "address"
        }
      ],
      "name": "SafeERC20FailedOperation",
      "type": "error"
    },
    {
      "inputs": [],
      "name": "SameAdmin",
      "type": "error"
    },
    {
      "inputs": [],
      "name": "SameOwner",
      "type": "error"
    },
    {
      "inputs": [],
      "name": "TonAddressIsNotSet",
      "type": "error"
    },
    {
      "inputs": [],
      "name": "UnsuffiscientTonBalance",
      "type": "error"
    },
    {
      "inputs": [],
      "name": "UnsuffiscientWstonBalance",
      "type": "error"
    },
    {
      "inputs": [],
      "name": "WstonAddressIsNotSet",
      "type": "error"
    },
    {
      "inputs": [],
      "name": "ZeroAddress",
      "type": "error"
    },
    {
      "anonymous": false,
      "inputs": [
        {
          "indexed": true,
          "internalType": "bytes32",
          "name": "role",
          "type": "bytes32"
        },
        {
          "indexed": true,
          "internalType": "bytes32",
          "name": "previousAdminRole",
          "type": "bytes32"
        },
        {
          "indexed": true,
          "internalType": "bytes32",
          "name": "newAdminRole",
          "type": "bytes32"
        }
      ],
      "name": "RoleAdminChanged",
      "type": "event"
    },
    {
      "anonymous": false,
      "inputs": [
        {
          "indexed": true,
          "internalType": "bytes32",
          "name": "role",
          "type": "bytes32"
        },
        {
          "indexed": true,
          "internalType": "address",
          "name": "account",
          "type": "address"
        },
        {
          "indexed": true,
          "internalType": "address",
          "name": "sender",
          "type": "address"
        }
      ],
      "name": "RoleGranted",
      "type": "event"
    },
    {
      "anonymous": false,
      "inputs": [
        {
          "indexed": true,
          "internalType": "bytes32",
          "name": "role",
          "type": "bytes32"
        },
        {
          "indexed": true,
          "internalType": "address",
          "name": "account",
          "type": "address"
        },
        {
          "indexed": true,
          "internalType": "address",
          "name": "sender",
          "type": "address"
        }
      ],
      "name": "RoleRevoked",
      "type": "event"
    },
    {
      "inputs": [],
      "name": "ADMIN_ROLE",
      "outputs": [
        {
          "internalType": "bytes32",
          "name": "",
          "type": "bytes32"
        }
      ],
      "stateMutability": "view",
      "type": "function"
    },
    {
      "inputs": [],
      "name": "DECIMALS",
      "outputs": [
        {
          "internalType": "uint256",
          "name": "",
          "type": "uint256"
        }
      ],
      "stateMutability": "view",
      "type": "function"
    },
    {
      "inputs": [],
      "name": "DEFAULT_ADMIN_ROLE",
      "outputs": [
        {
          "internalType": "bytes32",
          "name": "",
          "type": "bytes32"
        }
      ],
      "stateMutability": "view",
      "type": "function"
    },
    {
      "inputs": [],
      "name": "PAUSE_ROLE",
      "outputs": [
        {
          "internalType": "bytes32",
          "name": "",
          "type": "bytes32"
        }
      ],
      "stateMutability": "view",
      "type": "function"
    },
    {
      "inputs": [],
      "name": "TON_FEES_RATE_DIVIDER",
      "outputs": [
        {
          "internalType": "uint256",
          "name": "",
          "type": "uint256"
        }
      ],
      "stateMutability": "view",
      "type": "function"
    },
    {
      "inputs": [
        {
          "internalType": "address",
          "name": "account",
          "type": "address"
        }
      ],
      "name": "addAdmin",
      "outputs": [],
      "stateMutability": "nonpayable",
      "type": "function"
    },
    {
      "inputs": [
        {
          "internalType": "address",
          "name": "account",
          "type": "address"
        }
      ],
      "name": "addPauser",
      "outputs": [],
      "stateMutability": "nonpayable",
      "type": "function"
    },
    {
      "inputs": [
        {
          "internalType": "address",
          "name": "",
          "type": "address"
        }
      ],
      "name": "aliveImplementation",
      "outputs": [
        {
          "internalType": "bool",
          "name": "",
          "type": "bool"
        }
      ],
      "stateMutability": "view",
      "type": "function"
    },
    {
      "inputs": [
        {
          "internalType": "address",
          "name": "operator",
          "type": "address"
        },
        {
          "internalType": "uint256",
          "name": "_tokenId",
          "type": "uint256"
        }
      ],
      "name": "approveGem",
      "outputs": [],
      "stateMutability": "nonpayable",
      "type": "function"
    },
    {
      "inputs": [
        {
          "internalType": "uint256",
          "name": "amount",
          "type": "uint256"
        }
      ],
      "name": "approveWstonForMarketplace",
      "outputs": [],
      "stateMutability": "nonpayable",
      "type": "function"
    },
    {
      "inputs": [
        {
          "internalType": "uint256",
          "name": "_tokenId",
          "type": "uint256"
        },
        {
          "internalType": "bool",
          "name": "_paymentMethod",
          "type": "bool"
        }
      ],
      "name": "buyGem",
      "outputs": [],
      "stateMutability": "nonpayable",
      "type": "function"
    },
    {
      "inputs": [
        {
          "internalType": "enum GemFactoryStorage.Rarity",
          "name": "_rarity",
          "type": "uint8"
        },
        {
          "internalType": "uint8[2]",
          "name": "_color",
          "type": "uint8[2]"
        },
        {
          "internalType": "uint8[4]",
          "name": "_quadrants",
          "type": "uint8[4]"
        },
        {
          "internalType": "string",
          "name": "_tokenURI",
          "type": "string"
        }
      ],
      "name": "createPreminedGEM",
      "outputs": [
        {
          "internalType": "uint256",
          "name": "",
          "type": "uint256"
        }
      ],
      "stateMutability": "nonpayable",
      "type": "function"
    },
    {
      "inputs": [
        {
          "internalType": "enum GemFactoryStorage.Rarity[]",
          "name": "_rarities",
          "type": "uint8[]"
        },
        {
          "internalType": "uint8[2][]",
          "name": "_colors",
          "type": "uint8[2][]"
        },
        {
          "internalType": "uint8[4][]",
          "name": "_quadrants",
          "type": "uint8[4][]"
        },
        {
          "internalType": "string[]",
          "name": "_tokenURIs",
          "type": "string[]"
        }
      ],
      "name": "createPreminedGEMPool",
      "outputs": [
        {
          "internalType": "uint256[]",
          "name": "",
          "type": "uint256[]"
        }
      ],
      "stateMutability": "nonpayable",
      "type": "function"
    },
    {
      "inputs": [],
      "name": "getAirdropAddress",
      "outputs": [
        {
          "internalType": "address",
          "name": "",
          "type": "address"
        }
      ],
      "stateMutability": "view",
      "type": "function"
    },
    {
      "inputs": [],
      "name": "getGemFactoryAddress",
      "outputs": [
        {
          "internalType": "address",
          "name": "",
          "type": "address"
        }
      ],
      "stateMutability": "view",
      "type": "function"
    },
    {
      "inputs": [],
      "name": "getMarketPlaceAddress",
      "outputs": [
        {
          "internalType": "address",
          "name": "",
          "type": "address"
        }
      ],
      "stateMutability": "view",
      "type": "function"
    },
    {
      "inputs": [],
      "name": "getRandomPackAddress",
      "outputs": [
        {
          "internalType": "address",
          "name": "",
          "type": "address"
        }
      ],
      "stateMutability": "view",
      "type": "function"
    },
    {
      "inputs": [
        {
          "internalType": "bytes32",
          "name": "role",
          "type": "bytes32"
        }
      ],
      "name": "getRoleAdmin",
      "outputs": [
        {
          "internalType": "bytes32",
          "name": "",
          "type": "bytes32"
        }
      ],
      "stateMutability": "view",
      "type": "function"
    },
    {
      "inputs": [],
      "name": "getSwapPoolAddress",
      "outputs": [
        {
          "internalType": "address",
          "name": "",
          "type": "address"
        }
      ],
      "stateMutability": "view",
      "type": "function"
    },
    {
      "inputs": [],
      "name": "getTONBalance",
      "outputs": [
        {
          "internalType": "uint256",
          "name": "",
          "type": "uint256"
        }
      ],
      "stateMutability": "view",
      "type": "function"
    },
    {
      "inputs": [],
      "name": "getWSTONBalance",
      "outputs": [
        {
          "internalType": "uint256",
          "name": "",
          "type": "uint256"
        }
      ],
      "stateMutability": "view",
      "type": "function"
    },
    {
      "inputs": [],
      "name": "getWstonAddress",
      "outputs": [
        {
          "internalType": "address",
          "name": "",
          "type": "address"
        }
      ],
      "stateMutability": "view",
      "type": "function"
    },
    {
      "inputs": [
        {
          "internalType": "bytes32",
          "name": "role",
          "type": "bytes32"
        },
        {
          "internalType": "address",
          "name": "account",
          "type": "address"
        }
      ],
      "name": "grantRole",
      "outputs": [],
      "stateMutability": "nonpayable",
      "type": "function"
    },
    {
      "inputs": [
        {
          "internalType": "bytes32",
          "name": "role",
          "type": "bytes32"
        },
        {
          "internalType": "address",
          "name": "account",
          "type": "address"
        }
      ],
      "name": "hasRole",
      "outputs": [
        {
          "internalType": "bool",
          "name": "",
          "type": "bool"
        }
      ],
      "stateMutability": "view",
      "type": "function"
    },
    {
      "inputs": [
        {
          "internalType": "address",
          "name": "_wston",
          "type": "address"
        },
        {
          "internalType": "address",
          "name": "_gemFactory",
          "type": "address"
        }
      ],
      "name": "initialize",
      "outputs": [],
      "stateMutability": "nonpayable",
      "type": "function"
    },
    {
      "inputs": [
        {
          "internalType": "address",
          "name": "account",
          "type": "address"
        }
      ],
      "name": "isAdmin",
      "outputs": [
        {
          "internalType": "bool",
          "name": "",
          "type": "bool"
        }
      ],
      "stateMutability": "view",
      "type": "function"
    },
    {
      "inputs": [],
      "name": "isOwner",
      "outputs": [
        {
          "internalType": "bool",
          "name": "",
          "type": "bool"
        }
      ],
      "stateMutability": "view",
      "type": "function"
    },
    {
      "inputs": [
        {
          "internalType": "address",
          "name": "account",
          "type": "address"
        }
      ],
      "name": "isPauser",
      "outputs": [
        {
          "internalType": "bool",
          "name": "",
          "type": "bool"
        }
      ],
      "stateMutability": "view",
      "type": "function"
    },
    {
      "inputs": [
        {
          "internalType": "address",
          "name": "",
          "type": "address"
        },
        {
          "internalType": "address",
          "name": "",
          "type": "address"
        },
        {
          "internalType": "uint256",
          "name": "",
          "type": "uint256"
        },
        {
          "internalType": "bytes",
          "name": "",
          "type": "bytes"
        }
      ],
      "name": "onERC721Received",
      "outputs": [
        {
          "internalType": "bytes4",
          "name": "",
          "type": "bytes4"
        }
      ],
      "stateMutability": "pure",
      "type": "function"
    },
    {
      "inputs": [],
      "name": "pause",
      "outputs": [],
      "stateMutability": "nonpayable",
      "type": "function"
    },
    {
      "inputs": [],
      "name": "pauseProxy",
      "outputs": [
        {
          "internalType": "bool",
          "name": "",
          "type": "bool"
        }
      ],
      "stateMutability": "view",
      "type": "function"
    },
    {
      "inputs": [
        {
          "internalType": "uint256",
          "name": "",
          "type": "uint256"
        }
      ],
      "name": "proxyImplementation",
      "outputs": [
        {
          "internalType": "address",
          "name": "",
          "type": "address"
        }
      ],
      "stateMutability": "view",
      "type": "function"
    },
    {
      "inputs": [
        {
          "internalType": "uint256",
          "name": "_tokenId",
          "type": "uint256"
        },
        {
          "internalType": "uint256",
          "name": "_price",
          "type": "uint256"
        }
      ],
      "name": "putGemForSale",
      "outputs": [],
      "stateMutability": "nonpayable",
      "type": "function"
    },
    {
      "inputs": [
        {
          "internalType": "uint256[]",
          "name": "tokenIds",
          "type": "uint256[]"
        },
        {
          "internalType": "uint256[]",
          "name": "prices",
          "type": "uint256[]"
        }
      ],
      "name": "putGemListForSale",
      "outputs": [],
      "stateMutability": "nonpayable",
      "type": "function"
    },
    {
      "inputs": [],
      "name": "removeAdmin",
      "outputs": [],
      "stateMutability": "nonpayable",
      "type": "function"
    },
    {
      "inputs": [
        {
          "internalType": "uint256",
          "name": "_tokenId",
          "type": "uint256"
        }
      ],
      "name": "removeGemFromSale",
      "outputs": [],
      "stateMutability": "nonpayable",
      "type": "function"
    },
    {
      "inputs": [
        {
          "internalType": "address",
          "name": "account",
          "type": "address"
        }
      ],
      "name": "removePauser",
      "outputs": [],
      "stateMutability": "nonpayable",
      "type": "function"
    },
    {
      "inputs": [
        {
          "internalType": "bytes32",
          "name": "role",
          "type": "bytes32"
        },
        {
          "internalType": "address",
          "name": "callerConfirmation",
          "type": "address"
        }
      ],
      "name": "renounceRole",
      "outputs": [],
      "stateMutability": "nonpayable",
      "type": "function"
    },
    {
      "inputs": [
        {
          "internalType": "bytes32",
          "name": "role",
          "type": "bytes32"
        },
        {
          "internalType": "address",
          "name": "account",
          "type": "address"
        }
      ],
      "name": "revokeRole",
      "outputs": [],
      "stateMutability": "nonpayable",
      "type": "function"
    },
    {
      "inputs": [
        {
          "internalType": "bytes4",
          "name": "",
          "type": "bytes4"
        }
      ],
      "name": "selectorImplementation",
      "outputs": [
        {
          "internalType": "address",
          "name": "",
          "type": "address"
        }
      ],
      "stateMutability": "view",
      "type": "function"
    },
    {
      "inputs": [
        {
          "internalType": "address",
          "name": "_airdrop",
          "type": "address"
        }
      ],
      "name": "setAirdrop",
      "outputs": [],
      "stateMutability": "nonpayable",
      "type": "function"
    },
    {
      "inputs": [
        {
          "internalType": "address",
          "name": "_gemFactory",
          "type": "address"
        }
      ],
      "name": "setGemFactory",
      "outputs": [],
      "stateMutability": "nonpayable",
      "type": "function"
    },
    {
      "inputs": [
        {
          "internalType": "address",
          "name": "marketplace",
          "type": "address"
        }
      ],
      "name": "setMarketPlace",
      "outputs": [],
      "stateMutability": "nonpayable",
      "type": "function"
    },
    {
      "inputs": [
        {
          "internalType": "address",
          "name": "_randomPack",
          "type": "address"
        }
      ],
      "name": "setRandomPack",
      "outputs": [],
      "stateMutability": "nonpayable",
      "type": "function"
    },
    {
      "inputs": [
        {
          "internalType": "address",
          "name": "_wston",
          "type": "address"
        }
      ],
      "name": "setWston",
      "outputs": [],
      "stateMutability": "nonpayable",
      "type": "function"
    },
    {
      "inputs": [
        {
          "internalType": "address",
          "name": "_wstonSwapPool",
          "type": "address"
        }
      ],
      "name": "setWstonSwapPool",
      "outputs": [],
      "stateMutability": "nonpayable",
      "type": "function"
    },
    {
      "inputs": [
        {
          "internalType": "bytes4",
          "name": "interfaceId",
          "type": "bytes4"
        }
      ],
      "name": "supportsInterface",
      "outputs": [
        {
          "internalType": "bool",
          "name": "",
          "type": "bool"
        }
      ],
      "stateMutability": "view",
      "type": "function"
    },
    {
      "inputs": [
        {
          "internalType": "address",
          "name": "newOwner",
          "type": "address"
        }
      ],
      "name": "transferOwnership",
      "outputs": [],
      "stateMutability": "nonpayable",
      "type": "function"
    },
    {
      "inputs": [
        {
          "internalType": "address",
          "name": "_to",
          "type": "address"
        },
        {
          "internalType": "uint256",
          "name": "_amount",
          "type": "uint256"
        }
      ],
      "name": "transferTON",
      "outputs": [
        {
          "internalType": "bool",
          "name": "",
          "type": "bool"
        }
      ],
      "stateMutability": "nonpayable",
      "type": "function"
    },
    {
      "inputs": [
        {
          "internalType": "address",
          "name": "_to",
          "type": "address"
        },
        {
          "internalType": "uint256",
          "name": "_tokenId",
          "type": "uint256"
        }
      ],
      "name": "transferTreasuryGEMto",
      "outputs": [
        {
          "internalType": "bool",
          "name": "",
          "type": "bool"
        }
      ],
      "stateMutability": "nonpayable",
      "type": "function"
    },
    {
      "inputs": [
        {
          "internalType": "address",
          "name": "_to",
          "type": "address"
        },
        {
          "internalType": "uint256",
          "name": "_amount",
          "type": "uint256"
        }
      ],
      "name": "transferWSTON",
      "outputs": [
        {
          "internalType": "bool",
          "name": "",
          "type": "bool"
        }
      ],
      "stateMutability": "nonpayable",
      "type": "function"
    },
    {
      "inputs": [],
      "name": "unpause",
      "outputs": [],
      "stateMutability": "nonpayable",
      "type": "function"
    },
    {
      "stateMutability": "payable",
      "type": "receive"
    }
  ],
  "bytecode": "0x608080604052346027576001600455600c805460ff60a01b19169055612f9d908161002d8239f35b600080fdfe6080604052600436101561001b575b361561001957600080fd5b005b6000803560e01c80630169dc31146123bb57806301ffc9a71461236457806302424ed3146120c0578063044bc7791461209757806308ec897d1461207a578063150b7a0214612010578063247ee38814611fc8578063248a9ca314611f9b57806324d7806c14611f435780632e0f262514611f1c5780632ede643214611da45780632f2ff15d14611d6657806330568a8d14611cd357806336568abe14611c9d578063389ed26714611c745780633b22f11014611c585780633d007e5714611c2f5780633f4ba83a14611bbb57806340e5854814611ac0578063425c7fc2146113c457806346fbf68e1461136c578063485cc955146112b457806348dbcef0146111c557806350d2a27614611180578063550d01a31461114157806363a8fd891461111f578063694eaa40146110f65780636b2c0f551461101c5780636fcf2fc914610f745780637048027514610f2657806372820dbc14610e9357806375b238fc14610e6a57806379dbd79814610c8757806382dc1ec414610c345780638456cb5914610bbf5780638f32d59b14610b9a578063912b431b1461088c57806391d1485414610840578063952377f31461081757806398d111b2146107585780639a202d47146106be5780639d541be214610695578063a217fddf14610679578063b23a1d0d146105e6578063b911135f146105b3578063bae77ac914610590578063d547741f14610552578063e6147518146104be578063ec23919a14610495578063ec7ae61d146103bb578063ed8c2472146103285763f2fde38b14610263575061000e565b346103255760203660031901126103255761027c612548565b61028c610287612967565b612813565b6001600160a01b0381168015610313573314610301576102f39082805260056020526102be6001604085200154612a55565b6102c781612a99565b50600080516020612f08833981519152835260056020526102ee6001604085200154612a55565b612b06565b506102fd33612d98565b5080f35b604051630a98f1f360e21b8152600490fd5b60405163d92e233d60e01b8152600490fd5b80fd5b503461032557602036600319011261032557610342612548565b600080516020612f0883398151915282526005602052604082203360005260205260ff6040600020541680156103a8575b61037c9061278f565b61038581612a33565b600880546001600160a01b0319166001600160a01b039290921691909117905580f35b5061037c6103b4612967565b9050610373565b5034610325576040366003190112610325576103d5612548565b60243560018060a01b03600c541633148015610487575b15610446576103fa82612a33565b804710610434578280929181925af1610411612a03565b501561042257602060405160018152f35b604051633f45558560e01b8152600490fd5b60405163a5a9c2b760e01b8152600490fd5b60405162461bcd60e51b815260206004820152601960248201527831b0b63632b91034b9903737ba103a34329029bbb0b83832b960391b6044820152606490fd5b50610490612967565b6103ec565b50346103255780600319360112610325576008546040516001600160a01b039091168152602090f35b5034610325576020366003190112610325576104d8612548565b600080516020612f0883398151915282526005602052604082203360005260205260ff60406000205416801561053f575b6105129061278f565b600654906001600160a01b039061052a828416612a33565b6001600160a01b031990921691161760065580f35b5061051261054b612967565b9050610509565b5034610325576040366003190112610325576102fd60043561057261255e565b90808452600560205261058b6001604086200154612a55565b612dff565b503461032557806003193601126103255760206105ab61298a565b604051908152f35b503461032557602036600319011261032557602090600435815260018252604060018060a01b0391205416604051908152f35b503461032557602036600319011261032557610600612548565b600080516020612f0883398151915282526005602052604082203360005260205260ff604060002054168015610666575b61063a9061278f565b61064381612a33565b600c80546001600160a01b0319166001600160a01b039290921691909117905580f35b5061063a610672612967565b9050610631565b5034610325578060031936011261032557602090604051908152f35b50346103255780600319360112610325576006546040516001600160a01b039091168152602090f35b5034610325578060031936011261032557600080516020612f0883398151915281526005602052604081203360005260205260ff6040600020541615610707576102fd33612d10565b60405162461bcd60e51b815260206004820152602360248201527f41757468436f6e74726f6c3a2043616c6c6572206973206e6f7420616e20616460448201526236b4b760e91b6064820152608490fd5b503461032557602036600319011261032557600080516020612f0883398151915281526005602052604081203360005260205260ff604060002054168015610804575b6107a49061278f565b60075481906001600160a01b0316803b15610801578180916024604051809481936356d6b49360e11b835260043560048401525af180156107f6576107e65750f35b6107ef90612574565b6103255780f35b6040513d84823e3d90fd5b50fd5b506107a4610810612967565b905061079b565b5034610325578060031936011261032557600c546040516001600160a01b039091168152602090f35b503461032557604036600319011261032557604061085c61255e565b9160043581526005602052209060018060a01b0316600052602052602060ff604060002054166040519015158152f35b5034610325576101009081600319360112610325576004356006811015610b96573660431215610a64576040516108c28161259d565b606481368211610a64576024905b828210610b7e575050503660831215610a6457604051936108f0856125b8565b60e485368211610a64576064905b828210610b665750505060e4356001600160401b038111610b6257610927903690600401612634565b9060018060a01b0395866008541633148015610b55575b8015610b42575b61094e906128a0565b61095661298a565b96600654169360405197630265f21b60e51b895260209889816004818a5afa908115610b37578991610b0a575b50604051630b513d9960e01b81529061099f600483018a612904565b8a826024818b5afa908115610aff578a91610ace575b6109bf9250612806565b11610abc579287949287926109e9979560405198899763975781b760e01b89526004890190612904565b84602488015b60028210610a9c575050506064860184905b60048210610a7c57505050610a24859392849260e4840152610104830190612927565b03925af1918215610a705791610a3e575b50604051908152f35b90508181813d8311610a69575b610a5581836125d3565b81010312610a64575138610a35565b600080fd5b503d610a4b565b604051903d90823e3d90fd5b825160ff1681528b988a98508b9650928301926001929092019101610a01565b825160ff1681528c998b99508c97509283019260019290920191016109ef565b60405163f2cd224d60e01b8152600490fd5b90508a82813d8311610af8575b610ae581836125d3565b81010312610a64576109bf9151906109b5565b503d610adb565b6040513d8c823e3d90fd5b90508981813d8311610b30575b610b2181836125d3565b81010312610a64575138610983565b503d610b17565b6040513d8b823e3d90fd5b5061094e610b4e612967565b9050610945565b508660075416331461093e565b8480fd5b60208091610b738461260b565b8152019101906108fe565b60208091610b8b8461260b565b8152019101906108d0565b5080fd5b50346103255780600319360112610325576020610bb5612967565b6040519015158152f35b5034610325578060031936011261032557610bdb610287612967565b600c5460ff8160a01c16610bfc5760ff60a01b1916600160a01b17600c5580f35b60405162461bcd60e51b815260206004820152601060248201526f14185d5cd8589b194e881c185d5cd95960821b6044820152606490fd5b5034610325576020366003190112610325576102fd610c51612548565b610c5c610287612967565b600080516020612ee883398151915283526005602052610c826001604085200154612a55565b612b95565b50346103255780600319604036820112610801576001600160401b03600435818111610e6557610cbb9036906004016126af565b90602435908111610e6557610cd49036906004016126af565b600080516020612f0883398151915284526020600581526040852033600052815260ff604060002054168015610e52575b610d0e9061278f565b60065460075460405163e985e9c560e01b81526001600160a01b0393928416929184169190818180610d4486306004840161286b565b0381875afa918215610b37578992610e18575b505015610dba575b505060075416803b15610b6257610d9a858094610da960405197889687958694630f3b7af360e31b865260406004870152604486019061267b565b9184830301602485015261267b565b03925af180156107f6576107e65750f35b813b15610e1457869160448392604051948593849263a22cb46560e01b84526004840152600160248401525af1908115610e0957869115610d5f57610dfe90612574565b610b62578438610d5f565b6040513d88823e3d90fd5b8680fd5b90809250813d8311610e4b575b610e2f81836125d3565b81010312610e4757610e40906127d0565b3880610d57565b8780fd5b503d610e25565b50610d0e610e5e612967565b9050610d05565b505050fd5b50346103255780600319360112610325576020604051600080516020612f088339815191528152f35b503461032557602036600319011261032557610ead612548565b600080516020612f0883398151915282526005602052604082203360005260205260ff604060002054168015610f13575b610ee79061278f565b610ef081612a33565b600980546001600160a01b0319166001600160a01b039290921691909117905580f35b50610ee7610f1f612967565b9050610ede565b5034610325576020366003190112610325576102fd610f43612548565b610f4e610287612967565b600080516020612f08833981519152835260056020526102ee6001604085200154612a55565b50346103255760403660031901126103255780610f8f612548565b600080516020612f0883398151915282526005602052604082203360005260205260ff604060002054168015611009575b610fc99061278f565b6006546001600160a01b0316803b156110055760405163095ea7b360e01b81529183918391829084908290610da9906024359060048401612885565b5050fd5b50610fc9611015612967565b9050610fc0565b503461032557602036600319011261032557611036612548565b600080516020612ee883398151915282526005602052604082203360005260205260ff6040600020541680156110e8575b1561109757336001600160a01b03821603611085576102fd90612c88565b60405163334bd91960e11b8152600490fd5b60405162461bcd60e51b815260206004820152602360248201527f41757468436f6e74726f6c3a2043616c6c6572206973206e6f7420612070617560448201526239b2b960e91b6064820152608490fd5b506110f1612967565b611067565b50346103255780600319360112610325576007546040516001600160a01b039091168152602090f35b503461032557806003193601126103255760ff60209154166040519015158152f35b50346103255760203660031901126103255760209060ff906040906001600160a01b0361116c612548565b168152600284522054166040519015158152f35b50346103255760203660031901126103255760043563ffffffff60e01b8116809103610b965790602091815260038252604060018060a01b0391205416604051908152f35b5034610325576040366003190112610325576111df612548565b6006546001600160a01b039081169183919033841480156112a7575b801561129a575b801561128d575b801561127a575b6112199061270f565b833b15611276576064908360405195869485936323b872dd60e01b855230600486015216602484015260243560448401525af180156107f657611262575b602060405160018152f35b61126c8291612574565b6103255780611257565b8280fd5b50611219611286612967565b9050611210565b5081600954163314611209565b5081600854163314611202565b50816007541633146111fb565b5034610325576040366003190112610325576112ce612548565b6112d661255e565b9060ff600c5460a81c16611331576112ed33612a99565b50600680546001600160a01b03199081166001600160a01b0394851617909155600a805490911691909216179055600c805460ff60a81b1916600160a81b17905580f35b60405162461bcd60e51b8152602060048201526013602482015272185b1c9958591e481a5b9a5d1a585b1a5e9959606a1b6044820152606490fd5b5034610325576020366003190112610325576040611388612548565b91600080516020612ee883398151915281526005602052209060018060a01b0316600052602052602060ff604060002054166040519015158152f35b5034610325576080366003190112610325576004356001600160401b038111610b965736602382011215610b96578060040135611400816125f4565b9161140e60405193846125d3565b81835260208301906024829360051b82010190368211611abc57602401915b818310611aa3575050506024356001600160401b03811161177a573660238201121561177a57806004013591611462836125f4565b9261147060405194856125d3565b808452602084019081933660248360061b83010111610e475760248101925b60248360061b8301018410611a4957505050506001600160401b0360443511610b6257366023604435011215610b625760443560040135906114d0826125f4565b926114de60405194856125d3565b8284526020840180933660248260071b604435010111611a4557602460443501915b60248260071b604435010183106119eb575050506001600160401b0360643511610e1457366023606435011215610e14576064356004013593611542856125f4565b9261155060405194856125d3565b8584526020840180963660248260051b6064350101116119e757602460643501915b60248260051b606435010183106119b05750505060018060a01b03600854163314801561199c575b8015611989575b6115aa906128a0565b87516006546001600160a01b031697908a9081905b8082106118c557505060046115d261298a565b9160208b60405193848092630265f21b60e51b82525afa80156118ba578d90611886575b6116009250612806565b11610abc57979593918997959391604051998a98630ff1ac6760e01b8a5260848a0190608060048c01525180915260a48a0192908b5b818110611851575050506020906003198a84030160248b01525191828152019290895b8181106117ff575050506020906003198884030160448901525191828152019290875b8181106117b15750505060031985830301606486015251808252602082019160208260051b820101939287915b83831061177e5750505050508383809203925af19081156107f65782916116e5575b604051602080825281906116e19082018561267b565b0390f35b90503d8083833e6116f681836125d3565b810190602081830312611276578051906001600160401b03821161177a570181601f820112156112765780519061172c826125f4565b9361173a60405195866125d3565b82855260208086019360051b8301019384116103255750602001905b82821061176a575050506116e190386116cb565b8151815260209182019101611756565b8380fd5b929597509295509260208061179f600193601f198682030187528951612927565b970193019301879593899795926116a9565b929496509290809597505181908a915b600483106117e65750505060206080600192019501910190889694928896949261167c565b60208060019260ff8551168152019201920191906117c1565b9294969850929080959799505181908c915b6002831061183857505050602060406001920195019101908a989694928a98969492611659565b60208060019260ff855116815201920192019190611811565b929496989a5092819597999b5060208161186f829360019551612904565b0195019101908c9a989694928c9a98969492611636565b506020823d6020116118b2575b816118a0602093836125d3565b81010312610a645761160091516115f6565b3d9150611893565b6040513d8f823e3d90fd5b90918b518310156119755760208360051b8d0101516006811015611961578b60208f92602461190a916040519485938492630b513d9960e01b84526004840190612904565b5afa918215610a70579161192e575b5061192690600192612806565b9201906115bf565b90506020813d602011611959575b81611949602093836125d3565b81010312610a6457516001611919565b3d915061193c565b634e487b7160e01b8e52602160045260248efd5b634e487b7160e01b8d52603260045260248dfd5b506115aa611995612967565b90506115a1565b506007546001600160a01b0316331461159a565b6001600160401b038335116119e3576020806024926119d6368588356064350101612634565b8152019301929050611572565b8b80fd5b8a80fd5b36601f84011215610a6457604051611a02816125b8565b80366080860111610a645784905b608086018210611a2d575050815260809290920191602001611500565b60208091611a3a8461260b565b815201910190611a10565b8880fd5b36601f85011215610a6457604051611a608161259d565b80366040870111610a645785905b604087018210611a8b57505081526040939093019260200161148f565b60208091611a988461260b565b815201910190611a6e565b82356006811015610e145781526020928301920161142d565b8580fd5b503461032557602080600319360112610b96576007546001600160a01b039081169033829003611b675791611b1781928594600a54169060405195868094819363095ea7b360e01b83526004359060048401612885565b03925af18015611b5c57611b29578280f35b81813d8311611b55575b611b3d81836125d3565b81010312610b9657611b4e906127d0565b5038808280f35b503d611b33565b6040513d85823e3d90fd5b60405162461bcd60e51b815260048101849052602660248201527f63616c6c6572206973206e6f7420746865206d61726b6574706c61636520636f6044820152651b9d1c9858dd60d21b6064820152608490fd5b5034610325578060031936011261032557611bd7610287612967565b600c5460ff8160a01c1615611bf35760ff60a01b1916600c5580f35b60405162461bcd60e51b815260206004820152601460248201527314185d5cd8589b194e881b9bdd081c185d5cd95960621b6044820152606490fd5b50346103255780600319360112610325576009546040516001600160a01b039091168152602090f35b5034610325578060031936011261032557602047604051908152f35b50346103255780600319360112610325576020604051600080516020612ee88339815191528152f35b503461032557604036600319011261032557611cb761255e565b336001600160a01b03821603611085576102fd90600435612dff565b503461032557602036600319011261032557611ced612548565b600080516020612f0883398151915282526005602052604082203360005260205260ff604060002054168015611d53575b611d279061278f565b611d3081612a33565b600780546001600160a01b0319166001600160a01b039290921691909117905580f35b50611d27611d5f612967565b9050611d1e565b5034610325576040366003190112610325576102fd600435611d8661255e565b908084526005602052611d9f6001604086200154612a55565b612c1f565b503461032557604036600319011261032557600080516020612f088339815191528152806020600581526040822033600052815260ff604060002054168015611f09575b611df19061278f565b60065460075460405163e985e9c560e01b81526001600160a01b0393928416929184169190818180611e2786306004840161286b565b0381875afa918215610e09578692611ed3575b505015611e84575b505060075416803b156108015781809160446040518094819363176f321960e11b8352600435600484015260243560248401525af180156107f6576107e65750f35b813b15610e6557839160448392604051948593849263a22cb46560e01b84526004840152600160248401525af1908115611b5c57839115611e4257611ec890612574565b610801578138611e42565b90809250813d8311611f02575b611eea81836125d3565b81010312610b6257611efb906127d0565b3880611e3a565b503d611ee0565b50611df1611f15612967565b9050611de8565b5034610325578060031936011261032557604051676765c793fa10079d601b1b8152602090f35b5034610325576020366003190112610325576040611f5f612548565b91600080516020612f0883398151915281526005602052209060018060a01b0316600052602052602060ff604060002054166040519015158152f35b50346103255760203660031901126103255760016040602092600435815260058452200154604051908152f35b503461032557602036600319011261032557611fe2612548565b611fed610287612967565b600a80546001600160a01b0319166001600160a01b039290921691909117905580f35b50346103255760803660031901126103255761202a612548565b5061203361255e565b506064356001600160401b038082116112765736602383011215611276578160040135908111611276573691016024011161032557604051630a85bd0160e11b8152602090f35b503461032557806003193601126103255760206040516127108152f35b5034610325578060031936011261032557600a546040516001600160a01b039091168152602090f35b503461032557604036600319011261032557600435816024358015801580920361127657600080516020612f08833981519152835260206005815260408420338552815260ff6040852054168015612351575b61211c9061278f565b8391612173575b506007546001600160a01b031693843b1561177a5760449160405195869485936302424ed360e01b8552600485015260248401525af180156107f657612167575080f35b61217090612574565b80f35b60075460405163612adf8b60e11b8152600481018790529394506001600160a01b0390811693919250606082602481875afa9182156122bc5787926122c7575b5050604051630a0e9c1960e31b81528281600481875afa80156122bc578391889161228b575b50916121f660049383676765c793fa10079d601b1b9301516127dd565b04936040519283809263534e47d960e11b82525afa918215610e0957869261225b575b50508161271061223161223893633b9aca00956127dd565b0490612806565b049081471061224957839138612123565b604051636e2600c960e01b8152600490fd5b90809250813d8311612284575b61227281836125d3565b81010312610b62575181612710612219565b503d612268565b82819392503d83116122b5575b6122a281836125d3565b81010312610e14575182906121f66121d9565b503d612298565b6040513d89823e3d90fd5b9091506060813d606011612349575b816122e3606093836125d3565b81010312610e145760405191606083018381106001600160401b038211176123355760405281519081168103610e475782528281015183830152612329906040016127d0565b604082015238806121b3565b634e487b7160e01b89526041600452602489fd5b3d91506122d6565b5061211c61235d612967565b9050612113565b50346103255760203660031901126103255760043563ffffffff60e01b8116809103610b9657602090637965db0b60e01b81149081156123aa575b506040519015158152f35b6301ffc9a760e01b1490508261239f565b5034610325576040366003190112610325576123d5612548565b60065460243592916001600160a01b039182163314801561253b575b801561252e575b8015612521575b801561250e575b61240f9061270f565b6002600454146124fc57600260045561242781612a33565b8361243061298a565b106124ea5782809161246561247361248895600a541697604051928391602083019563a9059cbb60e01b875260248401612885565b03601f1981018352826125d3565b519082875af1612481612a03565b9084612e64565b80519182151592836124c4575b5050506124ac576001600455602060405160018152f35b60249060405190635274afe760e01b82526004820152fd5b829350916020919281010312610325575060206124e191016127d0565b15388080612495565b604051638e85197360e01b8152600490fd5b604051633ee5aeb560e01b8152600490fd5b5061240f61251a612967565b9050612406565b50816009541633146123ff565b50816008541633146123f8565b50816007541633146123f1565b600435906001600160a01b0382168203610a6457565b602435906001600160a01b0382168203610a6457565b6001600160401b03811161258757604052565b634e487b7160e01b600052604160045260246000fd5b604081019081106001600160401b0382111761258757604052565b608081019081106001600160401b0382111761258757604052565b90601f801991011681019081106001600160401b0382111761258757604052565b6001600160401b0381116125875760051b60200190565b359060ff82168203610a6457565b6001600160401b03811161258757601f01601f191660200190565b81601f82011215610a645780359061264b82612619565b9261265960405194856125d3565b82845260208383010111610a6457816000926020809301838601378301015290565b90815180825260208080930193019160005b82811061269b575050505090565b83518552938101939281019260010161268d565b9080601f83011215610a645760209082356126c9816125f4565b936126d760405195866125d3565b81855260208086019260051b820101928311610a6457602001905b828210612700575050505090565b813581529083019083016126f2565b1561271657565b60405162461bcd60e51b815260206004820152604560248201527f63616c6c6572206973206e656974686572204f776e6572206e6f722047656d4660448201527f6163746f7279206e6f72204d61726b6574506c616365206e6f722052616e646f6064820152646d5061636b60d81b608482015260a490fd5b1561279657565b60405162461bcd60e51b81526020600482015260126024820152713737ba1027bbb732b91037b91020b236b4b760711b6044820152606490fd5b51908115158203610a6457565b818102929181159184041417156127f057565b634e487b7160e01b600052601160045260246000fd5b919082018092116127f057565b1561281a57565b60405162461bcd60e51b8152602060048201526024808201527f41757468436f6e74726f6c3a2043616c6c6572206973206e6f7420746865206f6044820152633bb732b960e11b6064820152608490fd5b6001600160a01b0391821681529116602082015260400190565b6001600160a01b039091168152602081019190915260400190565b156128a757565b60405162461bcd60e51b815260206004820152602f60248201527f63616c6c6572206973206e656974686572206f776e6572206e6f722072616e6460448201526e1bdb541858dac818dbdb9d1c9858dd608a1b6064820152608490fd5b9060068210156129115752565b634e487b7160e01b600052602160045260246000fd5b919082519283825260005b848110612953575050826000602080949584010152601f8019910116010190565b602081830181015184830182015201612932565b336000908152600080516020612f48833981519152602052604090205460ff1690565b600a546040516370a0823160e01b815230600482015290602090829060249082906001600160a01b03165afa9081156129f7576000916129c8575090565b90506020813d6020116129ef575b816129e3602093836125d3565b81010312610a64575190565b3d91506129d6565b6040513d6000823e3d90fd5b3d15612a2e573d90612a1482612619565b91612a2260405193846125d3565b82523d6000602084013e565b606090565b6001600160a01b031615612a4357565b60405163e6c4247b60e01b8152600490fd5b80600052600560205260406000203360005260205260ff6040600020541615612a7b5750565b6044906040519063e2517d3f60e01b82523360048301526024820152fd5b6001600160a01b03166000818152600080516020612f48833981519152602052604081205490919060ff16612b025781805260056020526040822081835260205260408220600160ff198254161790553391600080516020612ec88339815191528180a4600190565b5090565b6001600160a01b031660008181527f09f04f5809d5be59813a33617d16f069caae874a6b34f03139f63d934daddae66020526040812054909190600080516020612f088339815191529060ff16612b905780835260056020526040832082845260205260408320600160ff19825416179055600080516020612ec8833981519152339380a4600190565b505090565b6001600160a01b031660008181527f787f97f3270d439d97068e73d6d75a066b24f84c342661f177d4e43e00e9f5136020526040812054909190600080516020612ee88339815191529060ff16612b905780835260056020526040832082845260205260408320600160ff19825416179055600080516020612ec8833981519152339380a4600190565b906000918083526005602052604083209160018060a01b03169182845260205260ff60408420541615600014612b905780835260056020526040832082845260205260408320600160ff19825416179055600080516020612ec8833981519152339380a4600190565b6001600160a01b031660008181527f787f97f3270d439d97068e73d6d75a066b24f84c342661f177d4e43e00e9f5136020526040812054909190600080516020612ee88339815191529060ff1615612b90578083526005602052604083208284526020526040832060ff198154169055600080516020612f28833981519152339380a4600190565b6001600160a01b031660008181527f09f04f5809d5be59813a33617d16f069caae874a6b34f03139f63d934daddae66020526040812054909190600080516020612f088339815191529060ff1615612b90578083526005602052604083208284526020526040832060ff198154169055600080516020612f28833981519152339380a4600190565b6001600160a01b03166000818152600080516020612f48833981519152602052604081205490919060ff1615612b02578180526005602052604082208183526020526040822060ff1981541690553391600080516020612f288339815191528180a4600190565b906000918083526005602052604083209160018060a01b03169182845260205260ff604084205416600014612b90578083526005602052604083208284526020526040832060ff198154169055600080516020612f28833981519152339380a4600190565b90612e8b5750805115612e7957805190602001fd5b604051630a12f52160e11b8152600490fd5b81511580612ebe575b612e9c575090565b604051639996b31560e01b81526001600160a01b039091166004820152602490fd5b50803b15612e9456fe2f8788117e7eff1d82e926ec794901d17c78024a50270940304540a733656f0dfcb9fcbfa83b897fb2d5cf4b58962164105c1e71489a37ef3ae0db3fdce576f6df8b4c520ffe197c5343c6f5aec59570151ef9a492f2c624fd45ddde6135ec42f6391f5c32d9c69d2a47ea670b442974b53935d1edc7fd64eb21e047a839171b05b8ccbb9d4d8fb16ea74ce3c29a41f1b461fbdaff4714a0d9a8eb05499746bca26469706673582212201e237f52f632f8f79a7f3a8e7d8fc6dfb4f3482264c62d959b759efe5259c3b364736f6c63430008190033",
  "linkReferences": {},
  "deployedLinkReferences": {}
}