{"abi":[{"type":"constructor","inputs":[{"name":"_ton","type":"address","internalType":"contract TON"}],"stateMutability":"nonpayable"},{"type":"function","name":"allowance","inputs":[{"name":"owner","type":"address","internalType":"address"},{"name":"spender","type":"address","internalType":"address"}],"outputs":[{"name":"","type":"uint256","internalType":"uint256"}],"stateMutability":"view"},{"type":"function","name":"approve","inputs":[{"name":"spender","type":"address","internalType":"address"},{"name":"value","type":"uint256","internalType":"uint256"}],"outputs":[{"name":"","type":"bool","internalType":"bool"}],"stateMutability":"nonpayable"},{"type":"function","name":"approveAndCall","inputs":[{"name":"spender","type":"address","internalType":"address"},{"name":"amount","type":"uint256","internalType":"uint256"},{"name":"data","type":"bytes","internalType":"bytes"}],"outputs":[{"name":"","type":"bool","internalType":"bool"}],"stateMutability":"nonpayable"},{"type":"function","name":"balanceOf","inputs":[{"name":"account","type":"address","internalType":"address"}],"outputs":[{"name":"","type":"uint256","internalType":"uint256"}],"stateMutability":"view"},{"type":"function","name":"burn","inputs":[{"name":"value","type":"uint256","internalType":"uint256"}],"outputs":[],"stateMutability":"nonpayable"},{"type":"function","name":"burnFrom","inputs":[{"name":"account","type":"address","internalType":"address"},{"name":"amount","type":"uint256","internalType":"uint256"}],"outputs":[],"stateMutability":"nonpayable"},{"type":"function","name":"decimals","inputs":[],"outputs":[{"name":"","type":"uint8","internalType":"uint8"}],"stateMutability":"view"},{"type":"function","name":"mint","inputs":[{"name":"_to","type":"address","internalType":"address"},{"name":"_amount","type":"uint256","internalType":"uint256"}],"outputs":[{"name":"","type":"bool","internalType":"bool"}],"stateMutability":"nonpayable"},{"type":"function","name":"name","inputs":[],"outputs":[{"name":"","type":"string","internalType":"string"}],"stateMutability":"view"},{"type":"function","name":"onApprove","inputs":[{"name":"owner","type":"address","internalType":"address"},{"name":"","type":"address","internalType":"address"},{"name":"tonAmount","type":"uint256","internalType":"uint256"},{"name":"data","type":"bytes","internalType":"bytes"}],"outputs":[{"name":"","type":"bool","internalType":"bool"}],"stateMutability":"nonpayable"},{"type":"function","name":"owner","inputs":[],"outputs":[{"name":"","type":"address","internalType":"address"}],"stateMutability":"view"},{"type":"function","name":"renounceOwnership","inputs":[],"outputs":[],"stateMutability":"nonpayable"},{"type":"function","name":"supportsInterface","inputs":[{"name":"interfaceId","type":"bytes4","internalType":"bytes4"}],"outputs":[{"name":"","type":"bool","internalType":"bool"}],"stateMutability":"view"},{"type":"function","name":"swapFromTON","inputs":[{"name":"tonAmount","type":"uint256","internalType":"uint256"}],"outputs":[{"name":"","type":"bool","internalType":"bool"}],"stateMutability":"nonpayable"},{"type":"function","name":"swapFromTONAndTransfer","inputs":[{"name":"to","type":"address","internalType":"address"},{"name":"tonAmount","type":"uint256","internalType":"uint256"}],"outputs":[{"name":"","type":"bool","internalType":"bool"}],"stateMutability":"nonpayable"},{"type":"function","name":"swapToTON","inputs":[{"name":"wtonAmount","type":"uint256","internalType":"uint256"}],"outputs":[{"name":"","type":"bool","internalType":"bool"}],"stateMutability":"nonpayable"},{"type":"function","name":"swapToTONAndTransfer","inputs":[{"name":"to","type":"address","internalType":"address"},{"name":"wtonAmount","type":"uint256","internalType":"uint256"}],"outputs":[{"name":"","type":"bool","internalType":"bool"}],"stateMutability":"nonpayable"},{"type":"function","name":"symbol","inputs":[],"outputs":[{"name":"","type":"string","internalType":"string"}],"stateMutability":"view"},{"type":"function","name":"ton","inputs":[],"outputs":[{"name":"","type":"address","internalType":"contract TON"}],"stateMutability":"view"},{"type":"function","name":"totalSupply","inputs":[],"outputs":[{"name":"","type":"uint256","internalType":"uint256"}],"stateMutability":"view"},{"type":"function","name":"transfer","inputs":[{"name":"to","type":"address","internalType":"address"},{"name":"value","type":"uint256","internalType":"uint256"}],"outputs":[{"name":"","type":"bool","internalType":"bool"}],"stateMutability":"nonpayable"},{"type":"function","name":"transferFrom","inputs":[{"name":"from","type":"address","internalType":"address"},{"name":"to","type":"address","internalType":"address"},{"name":"value","type":"uint256","internalType":"uint256"}],"outputs":[{"name":"","type":"bool","internalType":"bool"}],"stateMutability":"nonpayable"},{"type":"function","name":"transferOwnership","inputs":[{"name":"newOwner","type":"address","internalType":"address"}],"outputs":[],"stateMutability":"nonpayable"},{"type":"event","name":"Approval","inputs":[{"name":"owner","type":"address","indexed":true,"internalType":"address"},{"name":"spender","type":"address","indexed":true,"internalType":"address"},{"name":"value","type":"uint256","indexed":false,"internalType":"uint256"}],"anonymous":false},{"type":"event","name":"DepositManagerOnApproveData","inputs":[{"name":"layer2","type":"address","indexed":false,"internalType":"address"}],"anonymous":false},{"type":"event","name":"OwnershipTransferred","inputs":[{"name":"previousOwner","type":"address","indexed":true,"internalType":"address"},{"name":"newOwner","type":"address","indexed":true,"internalType":"address"}],"anonymous":false},{"type":"event","name":"Transfer","inputs":[{"name":"from","type":"address","indexed":true,"internalType":"address"},{"name":"to","type":"address","indexed":true,"internalType":"address"},{"name":"value","type":"uint256","indexed":false,"internalType":"uint256"}],"anonymous":false},{"type":"event","name":"WtonMinted","inputs":[],"anonymous":false},{"type":"error","name":"ERC20InsufficientAllowance","inputs":[{"name":"spender","type":"address","internalType":"address"},{"name":"allowance","type":"uint256","internalType":"uint256"},{"name":"needed","type":"uint256","internalType":"uint256"}]},{"type":"error","name":"ERC20InsufficientBalance","inputs":[{"name":"sender","type":"address","internalType":"address"},{"name":"balance","type":"uint256","internalType":"uint256"},{"name":"needed","type":"uint256","internalType":"uint256"}]},{"type":"error","name":"ERC20InvalidApprover","inputs":[{"name":"approver","type":"address","internalType":"address"}]},{"type":"error","name":"ERC20InvalidReceiver","inputs":[{"name":"receiver","type":"address","internalType":"address"}]},{"type":"error","name":"ERC20InvalidSender","inputs":[{"name":"sender","type":"address","internalType":"address"}]},{"type":"error","name":"ERC20InvalidSpender","inputs":[{"name":"spender","type":"address","internalType":"address"}]},{"type":"error","name":"OwnableInvalidOwner","inputs":[{"name":"owner","type":"address","internalType":"address"}]},{"type":"error","name":"OwnableUnauthorizedAccount","inputs":[{"name":"account","type":"address","internalType":"address"}]},{"type":"error","name":"ReentrancyGuardReentrantCall","inputs":[]}],"bytecode":{"object":"0x608060405234610030575b61001a61001561010d565b61027c565b610022610035565b6123326107b5823961233290f35b61003b565b60405190565b600080fd5b601f801991011690565b634e487b7160e01b600052604160045260246000fd5b9061006a90610040565b810190811060018060401b03821117610083575b604052565b61004a565b9061009b610094610035565b9283610060565b565b600080fd5b60018060a01b03901690565b6100b7906100a2565b90565b6100c3906100ae565b90565b6100cf816100ba565b9014156100d9575b565b600080fd5b905051906100eb826100c6565b565b90602082820312610108575b600061010592016100de565b90565b61009d565b61012b612ae78038038061012081610088565b9283398101906100ed565b90565b60018060401b03811161014b575b610147602091610040565b0190565b61004a565b9061016261015d8361012e565b610088565b918252565b60007f5772617070656420544f4e000000000000000000000000000000000000000000910152565b610199600b610150565b906101a660208301610167565b565b6101b061018f565b90565b60007f57544f4e00000000000000000000000000000000000000000000000000000000910152565b6101e56004610150565b906101f2602083016101b3565b565b6101fc6101db565b90565b60001b90565b9061021660018060a01b03916101ff565b91811990169116901790565b90565b61023961023461023e926100a2565b610222565b6100a2565b90565b61024a90610225565b90565b61025690610241565b90565b90565b9061027161026c6102789261024d565b610259565b8254610205565b9055565b6102a19061029a61028b6101a8565b6102936101f4565b33916102de565b600861025c565b565b6102ac90610225565b90565b6102b8906102a3565b90565b90565b906102d36102ce6102da926102af565b6102bb565b8254610205565b9055565b906102e9929161030a565b610308736e1734ac57e76fcd7fd66266ae0c2547db3a713a60076102be565b565b906103159291610317565b565b906103229291610324565b565b9061032f9291610331565b565b9061033c92916105ad565b565b5190565b634e487b7160e01b600052602260045260246000fd5b906001600283049216801561037a575b602083109014610375575b565b610342565b91607f901691610368565b8050600052602060002090565b601f602091010490565b1b90565b919060086103bc9102916103b66000198461039c565b9261039c565b91811990169116901790565b90565b6103df6103da6103e4926103c8565b610222565b6103c8565b90565b90565b91906104006103fb610408936103cb565b6103e7565b9083546103a0565b9055565b600090565b6104239161041d61040c565b916103ea565b565b5b818110610432575b5050565b806104406000600193610411565b01610426565b9190601f8111610456575b505050565b61046261048893610385565b90602061046e84610392565b83019310610490575b61048090610392565b900190610425565b388080610451565b915061048081929050610477565b1c90565b906104b3906000199060080261049e565b19901690565b816104c3916104a2565b90600202901790565b906104d68161033e565b9060018060401b03821161059c575b6104f9826104f38554610358565b85610446565b600050602090601f8311600114610532575b91809161052193600092610526575b50506104b9565b90555b565b9091500151388061051a565b601f1983169161054185610385565b9260005b818110610584575b50916002939185600196941061056a575b50505002019055610524565b61057a910151601f8416906104a2565b905538808061055e565b91936020600181928787015181550195019201610545565b61004a565b906105ab916104cc565b565b6105c4906105bd6105cb946105cd565b60056105a1565b60066105a1565b565b6105d6906105d8565b565b6105e1906105e3565b565b6105ec9061063c565b565b90565b61060561060061060a926105ee565b610222565b6100a2565b90565b610616906105f1565b90565b610622906100ae565b9052565b919061063a90600060208501940190610619565b565b610644610698565b61064e600061060d565b610657816100ae565b610660836100ae565b14610672575b5061067090610755565b565b6106949061067e610035565b918291631e4fbdf760e01b835260048301610626565b0390fd5b6106a0610707565b565b90565b6106b96106b46106be926106a2565b610222565b6103c8565b90565b6106cb60016106a5565b90565b906106db600019916101ff565b91811990169116901790565b906106fc6106f7610703926103cb565b6103e7565b82546106ce565b9055565b6107196107126106c1565b60006106e7565b565b60001c90565b60018060a01b03901690565b61073961073e9161071b565b610721565b90565b61074b905461072d565b90565b6000900190565b61077b6107756107656001610741565b6107708460016102be565b6102af565b916102af565b907f8be0079c531659141344cd1fd0a4f28419497f9722a3daafe3b4186f6b6457e06107a5610035565b806107af8161074e565b0390a356fe60806040526004361015610013575b610bff565b61001e6000356101a9565b806301ffc9a7146101a4575b806306fdde031461019f575b8063095ea7b31461019a575b806318160ddd14610195575b806323b872dd14610190575b8063313ce5671461018b575b806340c10f1914610186575b80634273ca1614610181575b806342966c681461017c575b8063588420b714610177575b806370a0823114610172575b8063715018a61461016d575b806379cc679014610168575b80638da5cb5b14610163575b806395d89b411461015e575b8063a9059cbb14610159575b8063cae9ca5114610154575b8063cc48b9471461014f575b8063dd62ed3e1461014a575b8063e34869d714610145575b8063e3b99e8514610140575b8063f2fde38b1461013b575b63f53fe70f14610136575b61000e565b610bc9565b610b95565b610b5e565b610b28565b610af1565b610a8c565b6109b6565b610846565b610810565b6107da565b610782565b61074e565b610718565b6106c1565b61068d565b61062c565b610540565b61050a565b6104a9565b610437565b6103dd565b61030f565b610240565b60e01c90565b60405190565b600080fd5b600080fd5b600080fd5b63ffffffff60e01b901690565b6101da816101c4565b9014156101e4575b565b600080fd5b905035906101f6826101d1565b565b90602082820312610213575b600061021092016101e9565b90565b6101ba565b151590565b61022690610218565b9052565b919061023e9060006020850194019061021d565b565b34610271575b61026d61025c6102573660046101f8565b610c09565b6102646101af565b9182918261022a565b0390f35b6101b5565b6000910312610282575b565b6101ba565b5190565b60209181520190565b60005b8381106102a9575b5050906000910152565b806020918301518185015201610297565b601f801991011690565b6102e36102ec6020936102f1936102da81610287565b9384809361028b565b95869101610294565b6102ba565b900190565b61030c91602082019160008184039101526102c4565b90565b34610340575b610320366004610276565b61033c61032b610d5b565b6103336101af565b918291826102f6565b0390f35b6101b5565b60018060a01b03901690565b61035a90610345565b90565b61036681610351565b901415610370575b565b600080fd5b905035906103828261035d565b565b90565b61039081610384565b90141561039a575b565b600080fd5b905035906103ac82610387565b565b91906040838203126103d8575b8060206103ce6103d59360008701610375565b940161039f565b90565b6101ba565b3461040f575b61040b6103fa6103f43660046103ae565b90610d71565b6104026101af565b9182918261022a565b0390f35b6101b5565b61041d90610384565b9052565b919061043590600060208501940190610414565b565b34610468575b610448366004610276565b610464610453610dc0565b61045b6101af565b91829182610421565b0390f35b6101b5565b90916060828403126104a4575b6104a161048a8460008501610375565b93604061049a8260208701610375565b940161039f565b90565b6101ba565b346104db575b6104d76104c66104c036600461046d565b91610dd6565b6104ce6101af565b9182918261022a565b0390f35b6101b5565b60ff901690565b6104f0906104e0565b9052565b9190610508906000602085019401906104e7565b565b3461053b575b61051b366004610276565b610537610526610e25565b61052e6101af565b918291826104f4565b0390f35b6101b5565b34610572575b61056e61055d6105573660046103ae565b90610e3b565b6105656101af565b9182918261022a565b0390f35b6101b5565b600080fd5b600080fd5b600080fd5b909182601f830112156105c4575b81359167ffffffffffffffff83116105bf575b6020900192600183028401116105ba575b565b610581565b61057c565b610577565b90608082820312610627575b6105e28160008401610375565b926105f08260208501610375565b926105fe836040830161039f565b92606082013567ffffffffffffffff8111610622575b61061e9201610586565b9091565b6101bf565b6101ba565b34610661575b61065d61064c6106433660046105c9565b93929092610f63565b6106546101af565b9182918261022a565b0390f35b6101b5565b90602082820312610681575b600061067e920161039f565b90565b6101ba565b6000900190565b346106bc575b6106a66106a1366004610666565b61101e565b6106ae6101af565b806106b881610686565b0390f35b6101b5565b346106f3575b6106ef6106de6106d83660046103ae565b90611061565b6106e66101af565b9182918261022a565b0390f35b6101b5565b90602082820312610713575b60006107109201610375565b90565b6101ba565b34610749575b61074561073461072f3660046106f8565b61109c565b61073c6101af565b91829182610421565b0390f35b6101b5565b3461077d575b61075f366004610276565b61076761110c565b61076f6101af565b8061077981610686565b0390f35b6101b5565b346107b2575b61079c6107963660046103ae565b90611116565b6107a46101af565b806107ae81610686565b0390f35b6101b5565b6107c090610351565b9052565b91906107d8906000602085019401906107b7565b565b3461080b575b6107eb366004610276565b6108076107f6611154565b6107fe6101af565b918291826107c4565b0390f35b6101b5565b34610841575b610821366004610276565b61083d61082c61116a565b6108346101af565b918291826102f6565b0390f35b6101b5565b34610878575b61087461086361085d3660046103ae565b90611180565b61086b6101af565b9182918261022a565b0390f35b6101b5565b600080fd5b634e487b7160e01b600052604160045260246000fd5b906108a2906102ba565b810190811067ffffffffffffffff8211176108bd575b604052565b610882565b906108d56108ce6101af565b9283610898565b565b67ffffffffffffffff81116108f6575b6108f26020916102ba565b0190565b610882565b90826000939282370152565b9092919261091c610917826108d7565b6108c2565b9381855281830111610939575b6109379160208501906108fb565b565b61087d565b9080601f8301121561095d575b81602061095a93359101610907565b90565b610577565b916060838303126109b1575b61097b8260008501610375565b92610989836020830161039f565b92604082013567ffffffffffffffff81116109ac575b6109a9920161093e565b90565b6101bf565b6101ba565b346109e8575b6109e46109d36109cd366004610962565b91611258565b6109db6101af565b9182918261022a565b0390f35b6101b5565b1c90565b60018060a01b03901690565b610a0d906008610a1293026109ed565b6109f1565b90565b90610a2091546109fd565b90565b610a2f60006008610a15565b90565b90565b610a49610a44610a4e92610345565b610a32565b610345565b90565b610a5a90610a35565b90565b610a6690610a51565b90565b610a7290610a5d565b9052565b9190610a8a90600060208501940190610a69565b565b34610abd575b610a9d366004610276565b610ab9610aa8610a23565b610ab06101af565b91829182610a76565b0390f35b6101b5565b9190604083820312610aec575b806020610ae2610ae99360008701610375565b9401610375565b90565b6101ba565b34610b23575b610b1f610b0e610b08366004610ac2565b90611324565b610b166101af565b91829182610421565b0390f35b6101b5565b34610b59575b610b55610b44610b3f366004610666565b61137b565b610b4c6101af565b9182918261022a565b0390f35b6101b5565b34610b90575b610b8c610b7b610b753660046103ae565b906113c2565b610b836101af565b9182918261022a565b0390f35b6101b5565b34610bc4575b610bae610ba93660046106f8565b611440565b610bb66101af565b80610bc081610686565b0390f35b6101b5565b34610bfa575b610bf6610be5610be0366004610666565b61147a565b610bed6101af565b9182918261022a565b0390f35b6101b5565b600080fd5b600090565b610c11610c04565b50610c2b610c256301ffc9a760e01b6101c4565b916101c4565b1490565b606090565b634e487b7160e01b600052602260045260246000fd5b9060016002830492168015610c6c575b602083109014610c67575b565b610c34565b91607f901691610c5a565b60209181520190565b8050600052602060002090565b9060009291805490610ca8610ca183610c4a565b8094610c77565b91600181169081600014610d03575b50600114610cc5575b505050565b610cd29192939450610c80565b916000925b818410610ceb575b50500190388080610cc0565b60018160209295939554848601520191019290610cd7565b92949550505060ff19901682521515602002900190388080610cc0565b90610d2a91610c8d565b90565b90610d4d610d4692610d3d6101af565b93848092610d20565b0383610898565b565b610d5890610d2d565b90565b610d63610c2f565b50610d6e6005610d4f565b90565b90610d8c91610d7e610c04565b50610d87611490565b61149d565b600190565b600090565b60001c90565b90565b610dab610db091610d96565b610d9c565b90565b610dbd9054610d9f565b90565b610dc8610d91565b50610dd36004610db3565b90565b90610dfc9291610de4610c04565b50610df783610df1611490565b836114ed565b611578565b600190565b600090565b90565b610e1d610e18610e2292610e06565b610a32565b6104e0565b90565b610e2d610e01565b50610e38601b610e09565b90565b90610e4e91610e48610c04565b5061160f565b7f0989d9f2a7d52878602a18adb24e8b8687f1f764d9bbd018ebe64dce63d4f01b610e776101af565b80610e8181610686565b0390a1600190565b610e95610e9a91610d96565b6109f1565b90565b610ea79054610e89565b90565b60207f6c6c6261636b0000000000000000000000000000000000000000000000000000917f57544f4e3a206f6e6c792061636365707420544f4e20617070726f766520636160008201520152565b610f05602660409261028b565b610f0e81610eaa565b0190565b610f289060208101906000818303910152610ef8565b90565b15610f33575b565b610f3b6101af565b62461bcd60e51b815280610f5160048201610f12565b0390fd5b610f60913691610907565b90565b9291610fc6915061101994610fbb610fc192610f7d610c04565b50610faa610f9b610f96610f916008610e9d565b610a5d565b610351565b610fa433610351565b14610f2b565b610fb58188806116a5565b506117c5565b93610f55565b61180b565b92610fd283838361149d565b7fd0aa23d1c7a13990297d5bd73e52289ecb3893b09d3f356c4b3e5515c87167aa611011610fff866118b0565b956110086101af565b918291826107c4565b0390a1611a82565b600190565b61102f9061102a611490565b611af9565b565b9061104692918050611041611bdb565b611051565b9061104f611c62565b565b9061105e929150336116a5565b90565b906110759161106e610c04565b8050611031565b90565b61108190610a51565b90565b9061108e90611078565b600052602052604060002090565b6110b36110b8916110ab610d91565b506002611084565b610db3565b90565b6110c3611c76565b6110cb6110f8565b565b90565b6110e46110df6110e9926110cd565b610a32565b610345565b90565b6110f5906110d0565b90565b61110a61110560006110ec565b611d09565b565b6111146110bb565b565b9061112091611af9565b565b600090565b60018060a01b03901690565b61113f61114491610d96565b611127565b90565b6111519054611133565b90565b61115c611122565b506111676001611147565b90565b611172610c2f565b5061117d6006610d4f565b90565b9061119b9161118d610c04565b50611196611490565b611578565b600190565b6111a990610a35565b90565b6111b5906111a0565b90565b6111c190610a51565b90565b600080fd5b60e01b90565b6111d881610218565b9014156111e2575b565b600080fd5b905051906111f4826111cf565b565b90602082820312611211575b600061120e92016111e7565b90565b6101ba565b916020611238929493611231604082019660008301906107b7565b0190610414565b565b6112426101af565b3d6000823e3d90fd5b15611253575b565b600080fd5b9190611262610c04565b5061127d6112786112736007611147565b6111ac565b6111b8565b9260206112886101af565b809561129763095ea7b36111c9565b8252816000816112ab888860048401611216565b03925af1938415611307575b6112d3946112cd916000916112d8575b5061124b565b33611a82565b600190565b6112fa915060203d602011611300575b6112f28183610898565b8101906111f6565b386112c7565b503d6112e8565b61123a565b9061131690611078565b600052602052604060002090565b6113499161133f61134492611337610d91565b50600361130c565b611084565b610db3565b90565b9061136091805061135b611bdb565b61136b565b90611369611c62565b565b90611378915033336116a5565b90565b61138e90611387610c04565b805061134c565b90565b906113a6929180506113a1611bdb565b6113b1565b906113af611c62565b565b906113bf9291503390611dce565b90565b906113d6916113cf610c04565b8050611391565b90565b6113ea906113e5611c76565b6113ec565b565b6113f660006110ec565b6113ff81610351565b61140883610351565b1461141a575b5061141890611d09565b565b61143c906114266101af565b918291631e4fbdf760e01b8352600483016107c4565b0390fd5b611449906113d9565b565b9061145f91805061145a611bdb565b61146a565b90611468611c62565b565b9061147791503333611dce565b90565b61148d90611486610c04565b805061144b565b90565b611498611122565b503390565b916001916114aa93611fd1565b565b6040906114d66114dd94969593966114cc606084019860008501906107b7565b6020830190610414565b0190610414565b565b906114ea9103610384565b90565b916114f88284611324565b611503600019610384565b61150c82610384565b1415611519575b50505050565b61152282610384565b61152b82610384565b10611551575b9161154261154894926000946114df565b91611fd1565b38808080611513565b826115748361155e6101af565b938493637dc7a0d960e11b8552600485016114ac565b0390fd5b92919061158560006110ec565b9361158f85610351565b61159882610351565b146115e9575b6115a785610351565b6115b083610351565b146115c3575b6115c1939450612109565b565b6115e5856115cf6101af565b91829163ec442f0560e01b8352600483016107c4565b0390fd5b61160b856115f56101af565b918291634b637e8f60e11b8352600483016107c4565b0390fd5b919061161b60006110ec565b9261162584610351565b61162e82610351565b14611640575b61163e9293612109565b565b6116628461164c6101af565b91829163ec442f0560e01b8352600483016107c4565b0390fd5b61166f90610a51565b90565b60409061169c6116a39496959396611692606084019860008501906107b7565b60208301906107b7565b0190610414565b565b9161170e926116c86020936116b8610c04565b506116c2846117c5565b9061160f565b6116da6116d56008610e9d565b610a5d565b9060006116e630611666565b916116ef6101af565b968795869485936117036323b872dd6111c9565b855260048501611672565b03925af18015611754575b600050611727575b50600190565b6117489060203d60201161174d575b6117408183610898565b8101906111f6565b611721565b503d611736565b61123a565b90565b61177061176b61177592611759565b610a32565b610384565b90565b634e487b7160e01b600052601160045260246000fd5b61179d6117a391939293610384565b92610384565b916117af838202610384565b928184049014901517156117c0575b565b611778565b6117e5906117d1610d91565b506117df633b9aca0061175c565b9061178e565b90565b5190565b90565b6118036117fe611808926117ec565b610a32565b610384565b90565b90611814611122565b80505061183c611823836117e8565b61183661183060406117ef565b91610384565b1461124b565b6040602083015192015190565b606090565b90565b61186561186061186a9261184e565b610a32565b610384565b90565b9061187f61187a836108d7565b6108c2565b918252565b369037565b906118ae6118a16118998461186d565b9384506108d7565b6020808501910390611884565b565b906118b9611849565b506118cc6118c76020611851565b611889565b91602083930152565b63ffffffff901690565b6118f36118ee6118f8926118d5565b6111c9565b6101c4565b90565b60209181520190565b61192361192c6020936119319361191a816117e8565b938480936118fb565b95869101610294565b6102ba565b900190565b909261196a906119606119779694611956608086019760008701906107b7565b60208501906107b7565b6040830190610414565b6060818403910152611904565b90565b3d600014611998575b61198c3d61186d565b903d6000602084013e5b565b6119a0611849565b90611996565b90565b156119b2575b50565b6119d3906119be6101af565b91829162461bcd60e51b8352600483016102f6565b0390fd5b60207f6e417070726f7665000000000000000000000000000000000000000000000000917f45524332304f6e417070726f76653a206661696c656420746f2063616c6c206f60008201520152565b611a32602860409261028b565b611a3b816119d7565b0190565b611a559060208101906000818303910152611a25565b90565b15611a60575b565b611a686101af565b62461bcd60e51b815280611a7e60048201611a3f565b0390fd5b6004600092611aca8493611abc611af79860209885611aa4634273ca166118df565b94611aad6101af565b9889968d880190815201611936565b878201810382520383610898565b828583519301915af1611af0611ade61197a565b918050611aea836119a6565b906119a9565b0151611a58565b565b9190611b0560006110ec565b92611b0f84610351565b611b1882610351565b14611b2b575b92611b299293612109565b565b611b4d84611b376101af565b918291634b637e8f60e11b8352600483016107c4565b0390fd5b90565b611b68611b63611b6d92611b51565b610a32565b610384565b90565b611b7a6002611b54565b90565b60001b90565b90611b9060001991611b7d565b91811990169116901790565b611bb0611bab611bb592610384565b610a32565b610384565b90565b90565b90611bd0611bcb611bd792611b9c565b611bb8565b8254611b83565b9055565b611be56000610db3565b611bed611b70565b90611c00611bfa83610384565b91610384565b14611c13575b611c11906000611bbb565b565b611c1b6101af565b633ee5aeb560e01b815280611c3260048201610686565b0390fd5b90565b611c4d611c48611c5292611c36565b610a32565b610384565b90565b611c5f6001611c39565b90565b611c74611c6d611c55565b6000611bbb565b565b611c7e611154565b611c86611490565b90611c99611c9383610351565b91610351565b1415611ca3575b50565b611cc590611caf6101af565b91829163118cdaa760e01b8352600483016107c4565b0390fd5b90611cda60018060a01b0391611b7d565b91811990169116901790565b90565b90611cfe611cf9611d0592611078565b611ce6565b8254611cc9565b9055565b611d2f611d29611d196001611147565b611d24846001611ce9565b611078565b91611078565b907f8be0079c531659141344cd1fd0a4f28419497f9722a3daafe3b4186f6b6457e0611d596101af565b80611d6381610686565b0390a3565b90505190611d7582610387565b565b90602082820312611d92575b6000611d8f9201611d68565b90565b6101ba565b611da6611dac91939293610384565b92610384565b8203918211611db8575b565b611778565b6000910312611dc9575b565b6101ba565b91611de581611dea93611ddf610c04565b50611af9565b6122d9565b90611dfd611df86008610e9d565b610a5d565b611e0630611666565b6020611e106101af565b8093611e1f6370a082316111c9565b82528180611e3086600483016107c4565b03915afa918215611fcc575b600092611f9b575b50611e4e84610384565b611e5783610384565b10611eec575b5050611ea191602091611e78611e736008610e9d565b610a5d565b906000611e836101af565b809681958294611e9663a9059cbb6111c9565b845260048401611216565b03925af18015611ee7575b600050611eba575b50600190565b611edb9060203d602011611ee0575b611ed38183610898565b8101906111f6565b611eb4565b503d611ec9565b61123a565b611f0b611f04611eff6008969496610e9d565b610a5d565b9483611d97565b843b15611f96575b611f419460009283611f236101af565b809881958294611f366340c10f196111c9565b845260048401611216565b03925af1918215611f91575b611ea193602093611f63575b5091819350611e5d565b611f849060003d600011611f8a575b611f7c8183610898565b810190611dbd565b38611f59565b503d611f72565b61123a565b6111c4565b611fbe91925060203d602011611fc5575b611fb68183610898565b810190611d77565b9038611e44565b503d611fac565b61123a565b909192611fde60006110ec565b611fe781610351565b611ff084610351565b146120af575b611fff81610351565b61200885610351565b14612089575b5061202c846120278561202286600361130c565b611084565b611bbb565b612036575b505050565b61207e61206c6120667f8c5be1e5ebec7d5bd14f71427d1e84f3dd0314c0f7b2291e5b200ac8c7c3b92593611078565b93611078565b936120756101af565b91829182610421565b0390a3388080612031565b6120ab906120956101af565b918291634a1406b160e11b8352600483016107c4565b0390fd5b6120d1906120bb6101af565b91829163e602df0560e01b8352600483016107c4565b0390fd5b6120e46120ea91939293610384565b92610384565b82018092116120f6575b565b611778565b906121069101610384565b90565b61211360006110ec565b61211c81610351565b61212583610351565b146000146121fd575b6121bb6121b57fddf252ad1be2c89b69c2b068fc378daa952ba7f163c4a11628f55a4df523b3ef936121806121cd9461217a6121738a61216e6004610db3565b6120d5565b6004611bbb565b5b610351565b61218987610351565b146000146121d2575b6121af6121a8886121a36004610db3565b6114df565b6004611bbb565b5b611078565b93611078565b936121c46101af565b91829182610421565b0390a3565b6121f86121e0876002611084565b6121f2896121ed83610db3565b6120fb565b90611bbb565b6121b0565b61221061220b836002611084565b610db3565b61221985610384565b61222282610384565b10612279575b6121b57fddf252ad1be2c89b69c2b068fc378daa952ba7f163c4a11628f55a4df523b3ef936121806121cd946122746122648a6121bb976114df565b61226f856002611084565b611bbb565b61217b565b8261229c866122866101af565b93849363391434e360e21b8552600485016114ac565b0390fd5b634e487b7160e01b600052601260045260246000fd5b6122c26122c891610384565b91610384565b9081156122d4575b0490565b6122a0565b6122f9906122e5610d91565b506122f3633b9aca0061175c565b906122b6565b9056fea26469706673582212200e838cef0ce4d8e09a5bffd3f4f3b8008fe8720cadac04b4b7c796e310bc41f464736f6c63430008190033","linkReferences":{}},"methodIdentifiers":{"allowance(address,address)":"dd62ed3e","approve(address,uint256)":"095ea7b3","approveAndCall(address,uint256,bytes)":"cae9ca51","balanceOf(address)":"70a08231","burn(uint256)":"42966c68","burnFrom(address,uint256)":"79cc6790","decimals()":"313ce567","mint(address,uint256)":"40c10f19","name()":"06fdde03","onApprove(address,address,uint256,bytes)":"4273ca16","owner()":"8da5cb5b","renounceOwnership()":"715018a6","supportsInterface(bytes4)":"01ffc9a7","swapFromTON(uint256)":"e34869d7","swapFromTONAndTransfer(address,uint256)":"588420b7","swapToTON(uint256)":"f53fe70f","swapToTONAndTransfer(address,uint256)":"e3b99e85","symbol()":"95d89b41","ton()":"cc48b947","totalSupply()":"18160ddd","transfer(address,uint256)":"a9059cbb","transferFrom(address,address,uint256)":"23b872dd","transferOwnership(address)":"f2fde38b"},"id":104}