{"abi":[{"type":"function","name":"DECIMALS","inputs":[],"outputs":[{"name":"","type":"uint256","internalType":"uint256"}],"stateMutability":"view"},{"type":"function","name":"paused","inputs":[],"outputs":[{"name":"","type":"bool","internalType":"bool"}],"stateMutability":"view"},{"type":"function","name":"stakingIndex","inputs":[],"outputs":[{"name":"","type":"uint256","internalType":"uint256"}],"stateMutability":"view"},{"type":"function","name":"ton","inputs":[],"outputs":[{"name":"","type":"address","internalType":"address"}],"stateMutability":"view"},{"type":"function","name":"treasury","inputs":[],"outputs":[{"name":"","type":"address","internalType":"address"}],"stateMutability":"view"},{"type":"function","name":"wston","inputs":[],"outputs":[{"name":"","type":"address","internalType":"address"}],"stateMutability":"view"},{"type":"event","name":"StakingIndexUpdated","inputs":[{"name":"newIndex","type":"uint256","indexed":false,"internalType":"uint256"}],"anonymous":false},{"type":"event","name":"SwappedWstonForTon","inputs":[{"name":"user","type":"address","indexed":true,"internalType":"address"},{"name":"tonAmount","type":"uint256","indexed":false,"internalType":"uint256"},{"name":"wstonAmount","type":"uint256","indexed":false,"internalType":"uint256"}],"anonymous":false},{"type":"error","name":"ContractTonBalanceOrAllowanceTooLow","inputs":[]},{"type":"error","name":"FailedToApproveTon","inputs":[{"name":"amount","type":"uint256","internalType":"uint256"}]},{"type":"error","name":"WrongStakingIndex","inputs":[]},{"type":"error","name":"WstonAllowanceTooLow","inputs":[]},{"type":"error","name":"WstonBalanceTooLow","inputs":[]}],"bytecode":{"object":"0x60806040523460195760405161026661001f823961026690f35b600080fdfe6080604052600436101561001257600080fd5b60003560e01c80632e0f26251461007257806330f508591461006d57806336b17e13146100685780635c975abb1461006357806361d027b31461005e5763cc48b9470361007757610215565b6101ef565b6101b6565b61016a565b61010a565b6100b9565b600080fd5b600091031261007757565b6100946100946100949290565b90565b610094676765c793fa10079d601b1b610087565b610094610097565b9052565b565b34610077576100c936600461007c565b6100e46100d46100ab565b6040519182918290815260200190565b0390f35b610094916008021c81565b9061009491546100e8565b610094600060036100f3565b346100775761011a36600461007c565b6100e46100d46100fe565b610094916008021c5b6001600160a01b031690565b906100949154610125565b6100946000600161013a565b6100b39061012e565b6020810192916100b79190610151565b346100775761017a36600461007c565b6100e4610185610145565b6040519182918261015a565b610094916008021c60ff1690565b906100949154610191565b6100946001600461019f565b34610077576101c636600461007c565b6100e46101d16101aa565b60405191829182901515815260200190565b6100946000600261013a565b34610077576101ff36600461007c565b6100e46101856101e3565b61009460008061013a565b346100775761022536600461007c565b6100e461018561020a56fea2646970667358221220bca3afcedace89280e29d23f82ee7667759b60d74e52dba6a9b1a56e5d77b00f64736f6c63430008190033","linkReferences":{}},"methodIdentifiers":{"DECIMALS()":"2e0f2625","paused()":"5c975abb","stakingIndex()":"30f50859","ton()":"cc48b947","treasury()":"61d027b3","wston()":"36b17e13"},"id":131}